{
	"ChainLink_learn/first_example.sol": {
		"ChainlinkExample": {
			"abi": [
				{
					"inputs": [],
					"stateMutability": "nonpayable",
					"type": "constructor"
				},
				{
					"anonymous": false,
					"inputs": [
						{
							"indexed": true,
							"internalType": "bytes32",
							"name": "id",
							"type": "bytes32"
						}
					],
					"name": "ChainlinkCancelled",
					"type": "event"
				},
				{
					"anonymous": false,
					"inputs": [
						{
							"indexed": true,
							"internalType": "bytes32",
							"name": "id",
							"type": "bytes32"
						}
					],
					"name": "ChainlinkFulfilled",
					"type": "event"
				},
				{
					"anonymous": false,
					"inputs": [
						{
							"indexed": true,
							"internalType": "bytes32",
							"name": "id",
							"type": "bytes32"
						}
					],
					"name": "ChainlinkRequested",
					"type": "event"
				},
				{
					"inputs": [
						{
							"internalType": "bytes32",
							"name": "_requestId",
							"type": "bytes32"
						},
						{
							"internalType": "uint256",
							"name": "_payment",
							"type": "uint256"
						},
						{
							"internalType": "bytes4",
							"name": "_callbackFunctionId",
							"type": "bytes4"
						},
						{
							"internalType": "uint256",
							"name": "_expiration",
							"type": "uint256"
						}
					],
					"name": "cancelRequest",
					"outputs": [],
					"stateMutability": "nonpayable",
					"type": "function"
				},
				{
					"inputs": [],
					"name": "currentPrice",
					"outputs": [
						{
							"internalType": "uint256",
							"name": "",
							"type": "uint256"
						}
					],
					"stateMutability": "view",
					"type": "function"
				},
				{
					"inputs": [
						{
							"internalType": "bytes32",
							"name": "_requestId",
							"type": "bytes32"
						},
						{
							"internalType": "uint256",
							"name": "_price",
							"type": "uint256"
						}
					],
					"name": "fulfill",
					"outputs": [],
					"stateMutability": "nonpayable",
					"type": "function"
				},
				{
					"inputs": [],
					"name": "owner",
					"outputs": [
						{
							"internalType": "address",
							"name": "",
							"type": "address"
						}
					],
					"stateMutability": "view",
					"type": "function"
				},
				{
					"inputs": [],
					"name": "requestEthereumPrice",
					"outputs": [],
					"stateMutability": "nonpayable",
					"type": "function"
				},
				{
					"inputs": [],
					"name": "withdrawLink",
					"outputs": [],
					"stateMutability": "nonpayable",
					"type": "function"
				}
			],
			"devdoc": {
				"kind": "dev",
				"methods": {},
				"version": 1
			},
			"evm": {
				"assembly": "    /* \"ChainLink_learn/first_example.sol\":246:3254  contract ChainlinkExample is ChainlinkClient {... */\n  mstore(0x40, 0x80)\n    /* \"https://github.com/smartcontractkit/chainlink/blob/develop/contracts/src/v0.6/ChainlinkClient.sol\":1163:1164  1 */\n  0x01\n    /* \"https://github.com/smartcontractkit/chainlink/blob/develop/contracts/src/v0.6/ChainlinkClient.sol\":1132:1164  uint256 private requestCount = 1 */\n  0x04\n  sstore\n    /* \"ChainLink_learn/first_example.sol\":525:567  0xB36d3709e22F7c708348E225b20b13eA546E6D9c */\n  0xb36d3709e22f7c708348e225b20b13ea546e6d9c\n    /* \"ChainLink_learn/first_example.sol\":500:567  address ORACLE_ADDRESS = 0xB36d3709e22F7c708348E225b20b13eA546E6D9c */\n  0x08\n  exp(0x0100, 0x00)\n  dup2\n  sload\n  dup2\n  0xffffffffffffffffffffffffffffffffffffffff\n  mul\n  not\n  and\n  swap1\n  dup4\n  0xffffffffffffffffffffffffffffffffffffffff\n  and\n  mul\n  or\n  swap1\n  sstore\n  pop\n    /* \"ChainLink_learn/first_example.sol\":843:982  constructor() public {... */\n  callvalue\n  dup1\n  iszero\n  tag_1\n  jumpi\n  0x00\n  dup1\n  revert\ntag_1:\n  pop\n    /* \"ChainLink_learn/first_example.sol\":928:953  setPublicChainlinkToken() */\n  tag_4\n    /* \"ChainLink_learn/first_example.sol\":928:951  setPublicChainlinkToken */\n  shl(0x20, tag_5)\n    /* \"ChainLink_learn/first_example.sol\":928:953  setPublicChainlinkToken() */\n  0x20\n  shr\n  jump\t// in\ntag_4:\n    /* \"ChainLink_learn/first_example.sol\":967:977  msg.sender */\n  caller\n    /* \"ChainLink_learn/first_example.sol\":959:964  owner */\n  0x07\n  0x00\n    /* \"ChainLink_learn/first_example.sol\":959:977  owner = msg.sender */\n  0x0100\n  exp\n  dup2\n  sload\n  dup2\n  0xffffffffffffffffffffffffffffffffffffffff\n  mul\n  not\n  and\n  swap1\n  dup4\n  0xffffffffffffffffffffffffffffffffffffffff\n  and\n  mul\n  or\n  swap1\n  sstore\n  pop\n    /* \"ChainLink_learn/first_example.sol\":246:3254  contract ChainlinkExample is ChainlinkClient {... */\n  jump(tag_6)\n    /* \"https://github.com/smartcontractkit/chainlink/blob/develop/contracts/src/v0.6/ChainlinkClient.sol\":5051:5174  function setPublicChainlinkToken() internal {... */\ntag_5:\n    /* \"https://github.com/smartcontractkit/chainlink/blob/develop/contracts/src/v0.6/ChainlinkClient.sol\":5101:5169  setChainlinkToken(PointerInterface(LINK_TOKEN_POINTER).getAddress()) */\n  tag_8\n    /* \"https://github.com/smartcontractkit/chainlink/blob/develop/contracts/src/v0.6/ChainlinkClient.sol\":951:993  0xC89bD4E1632D3A43CB03AAAd5262cbe4038Bc571 */\n  0xc89bd4e1632d3a43cb03aaad5262cbe4038bc571\n    /* \"https://github.com/smartcontractkit/chainlink/blob/develop/contracts/src/v0.6/ChainlinkClient.sol\":5119:5166  PointerInterface(LINK_TOKEN_POINTER).getAddress */\n  0xffffffffffffffffffffffffffffffffffffffff\n  and\n  0x38cc4831\n    /* \"https://github.com/smartcontractkit/chainlink/blob/develop/contracts/src/v0.6/ChainlinkClient.sol\":5119:5168  PointerInterface(LINK_TOKEN_POINTER).getAddress() */\n  mload(0x40)\n  dup2\n  0xffffffff\n  and\n  0xe0\n  shl\n  dup2\n  mstore\n  0x04\n  add\n  0x20\n  mload(0x40)\n  dup1\n  dup4\n  sub\n  dup2\n  dup7\n  dup1\n  extcodesize\n  iszero\n  dup1\n  iszero\n  tag_9\n  jumpi\n  0x00\n  dup1\n  revert\ntag_9:\n  pop\n  gas\n  staticcall\n  iszero\n  dup1\n  iszero\n  tag_11\n  jumpi\n  returndatasize\n  0x00\n  dup1\n  returndatacopy\n  revert(0x00, returndatasize)\ntag_11:\n  pop\n  pop\n  pop\n  pop\n  mload(0x40)\n  returndatasize\n  0x20\n  dup2\n  lt\n  iszero\n  tag_12\n  jumpi\n  0x00\n  dup1\n  revert\ntag_12:\n  dup2\n  add\n  swap1\n  dup1\n  dup1\n  mload\n  swap1\n  0x20\n  add\n  swap1\n  swap3\n  swap2\n  swap1\n  pop\n  pop\n  pop\n    /* \"https://github.com/smartcontractkit/chainlink/blob/develop/contracts/src/v0.6/ChainlinkClient.sol\":5101:5118  setChainlinkToken */\n  shl(0x20, tag_13)\n    /* \"https://github.com/smartcontractkit/chainlink/blob/develop/contracts/src/v0.6/ChainlinkClient.sol\":5101:5169  setChainlinkToken(PointerInterface(LINK_TOKEN_POINTER).getAddress()) */\n  0x20\n  shr\n  jump\t// in\ntag_8:\n    /* \"https://github.com/smartcontractkit/chainlink/blob/develop/contracts/src/v0.6/ChainlinkClient.sol\":5051:5174  function setPublicChainlinkToken() internal {... */\n  jump\t// out\n    /* \"https://github.com/smartcontractkit/chainlink/blob/develop/contracts/src/v0.6/ChainlinkClient.sol\":4834:4928  function setChainlinkToken(address _link) internal {... */\ntag_13:\n    /* \"https://github.com/smartcontractkit/chainlink/blob/develop/contracts/src/v0.6/ChainlinkClient.sol\":4917:4922  _link */\n  dup1\n    /* \"https://github.com/smartcontractkit/chainlink/blob/develop/contracts/src/v0.6/ChainlinkClient.sol\":4891:4895  link */\n  0x02\n  0x00\n    /* \"https://github.com/smartcontractkit/chainlink/blob/develop/contracts/src/v0.6/ChainlinkClient.sol\":4891:4923  link = LinkTokenInterface(_link) */\n  0x0100\n  exp\n  dup2\n  sload\n  dup2\n  0xffffffffffffffffffffffffffffffffffffffff\n  mul\n  not\n  and\n  swap1\n  dup4\n  0xffffffffffffffffffffffffffffffffffffffff\n  and\n  mul\n  or\n  swap1\n  sstore\n  pop\n    /* \"https://github.com/smartcontractkit/chainlink/blob/develop/contracts/src/v0.6/ChainlinkClient.sol\":4834:4928  function setChainlinkToken(address _link) internal {... */\n  pop\n  jump\t// out\n    /* \"ChainLink_learn/first_example.sol\":246:3254  contract ChainlinkExample is ChainlinkClient {... */\ntag_6:\n  dataSize(sub_0)\n  dup1\n  dataOffset(sub_0)\n  0x00\n  codecopy\n  0x00\n  return\nstop\n\nsub_0: assembly {\n        /* \"ChainLink_learn/first_example.sol\":246:3254  contract ChainlinkExample is ChainlinkClient {... */\n      mstore(0x40, 0x80)\n      callvalue\n      dup1\n      iszero\n      tag_1\n      jumpi\n      0x00\n      dup1\n      revert\n    tag_1:\n      pop\n      jumpi(tag_2, lt(calldatasize, 0x04))\n      shr(0xe0, calldataload(0x00))\n      dup1\n      0x4357855e\n      eq\n      tag_3\n      jumpi\n      dup1\n      0x8da5cb5b\n      eq\n      tag_4\n      jumpi\n      dup1\n      0x8dc654a2\n      eq\n      tag_5\n      jumpi\n      dup1\n      0x9d1b464a\n      eq\n      tag_6\n      jumpi\n      dup1\n      0xd7f29c63\n      eq\n      tag_7\n      jumpi\n      dup1\n      0xec65d0f8\n      eq\n      tag_8\n      jumpi\n    tag_2:\n      0x00\n      dup1\n      revert\n        /* \"ChainLink_learn/first_example.sol\":1948:2176  function fulfill(bytes32 _requestId, uint256 _price)... */\n    tag_3:\n      tag_9\n      0x04\n      dup1\n      calldatasize\n      sub\n      0x40\n      dup2\n      lt\n      iszero\n      tag_10\n      jumpi\n      0x00\n      dup1\n      revert\n    tag_10:\n      dup2\n      add\n      swap1\n      dup1\n      dup1\n      calldataload\n      swap1\n      0x20\n      add\n      swap1\n      swap3\n      swap2\n      swap1\n      dup1\n      calldataload\n      swap1\n      0x20\n      add\n      swap1\n      swap3\n      swap2\n      swap1\n      pop\n      pop\n      pop\n      tag_11\n      jump\t// in\n    tag_9:\n      stop\n        /* \"ChainLink_learn/first_example.sol\":375:395  address public owner */\n    tag_4:\n      tag_12\n      tag_13\n      jump\t// in\n    tag_12:\n      mload(0x40)\n      dup1\n      dup3\n      0xffffffffffffffffffffffffffffffffffffffff\n      and\n      dup2\n      mstore\n      0x20\n      add\n      swap2\n      pop\n      pop\n      mload(0x40)\n      dup1\n      swap2\n      sub\n      swap1\n      return\n        /* \"ChainLink_learn/first_example.sol\":2582:2806  function withdrawLink()... */\n    tag_5:\n      tag_14\n      tag_15\n      jump\t// in\n    tag_14:\n      stop\n        /* \"ChainLink_learn/first_example.sol\":344:371  uint256 public currentPrice */\n    tag_6:\n      tag_16\n      tag_17\n      jump\t// in\n    tag_16:\n      mload(0x40)\n      dup1\n      dup3\n      dup2\n      mstore\n      0x20\n      add\n      swap2\n      pop\n      pop\n      mload(0x40)\n      dup1\n      swap2\n      sub\n      swap1\n      return\n        /* \"ChainLink_learn/first_example.sol\":1127:1902  function requestEthereumPrice() ... */\n    tag_7:\n      tag_18\n      tag_19\n      jump\t// in\n    tag_18:\n      stop\n        /* \"ChainLink_learn/first_example.sol\":2251:2497  function cancelRequest(... */\n    tag_8:\n      tag_20\n      0x04\n      dup1\n      calldatasize\n      sub\n      0x80\n      dup2\n      lt\n      iszero\n      tag_21\n      jumpi\n      0x00\n      dup1\n      revert\n    tag_21:\n      dup2\n      add\n      swap1\n      dup1\n      dup1\n      calldataload\n      swap1\n      0x20\n      add\n      swap1\n      swap3\n      swap2\n      swap1\n      dup1\n      calldataload\n      swap1\n      0x20\n      add\n      swap1\n      swap3\n      swap2\n      swap1\n      dup1\n      calldataload\n      not(0xffffffffffffffffffffffffffffffffffffffffffffffffffffffff)\n      and\n      swap1\n      0x20\n      add\n      swap1\n      swap3\n      swap2\n      swap1\n      dup1\n      calldataload\n      swap1\n      0x20\n      add\n      swap1\n      swap3\n      swap2\n      swap1\n      pop\n      pop\n      pop\n      tag_22\n      jump\t// in\n    tag_20:\n      stop\n        /* \"ChainLink_learn/first_example.sol\":1948:2176  function fulfill(bytes32 _requestId, uint256 _price)... */\n    tag_11:\n        /* \"ChainLink_learn/first_example.sol\":2130:2140  _requestId */\n      dup2\n        /* \"https://github.com/smartcontractkit/chainlink/blob/develop/contracts/src/v0.6/ChainlinkClient.sol\":8743:8758  pendingRequests */\n      0x05\n        /* \"https://github.com/smartcontractkit/chainlink/blob/develop/contracts/src/v0.6/ChainlinkClient.sol\":8743:8770  pendingRequests[_requestId] */\n      0x00\n        /* \"https://github.com/smartcontractkit/chainlink/blob/develop/contracts/src/v0.6/ChainlinkClient.sol\":8759:8769  _requestId */\n      dup3\n        /* \"https://github.com/smartcontractkit/chainlink/blob/develop/contracts/src/v0.6/ChainlinkClient.sol\":8743:8770  pendingRequests[_requestId] */\n      dup2\n      mstore\n      0x20\n      add\n      swap1\n      dup2\n      mstore\n      0x20\n      add\n      0x00\n      keccak256\n      0x00\n      swap1\n      sload\n      swap1\n      0x0100\n      exp\n      swap1\n      div\n      0xffffffffffffffffffffffffffffffffffffffff\n      and\n        /* \"https://github.com/smartcontractkit/chainlink/blob/develop/contracts/src/v0.6/ChainlinkClient.sol\":8729:8770  msg.sender == pendingRequests[_requestId] */\n      0xffffffffffffffffffffffffffffffffffffffff\n      and\n        /* \"https://github.com/smartcontractkit/chainlink/blob/develop/contracts/src/v0.6/ChainlinkClient.sol\":8729:8739  msg.sender */\n      caller\n        /* \"https://github.com/smartcontractkit/chainlink/blob/develop/contracts/src/v0.6/ChainlinkClient.sol\":8729:8770  msg.sender == pendingRequests[_requestId] */\n      0xffffffffffffffffffffffffffffffffffffffff\n      and\n      eq\n        /* \"https://github.com/smartcontractkit/chainlink/blob/develop/contracts/src/v0.6/ChainlinkClient.sol\":8721:8827  require(msg.sender == pendingRequests[_requestId],... */\n      tag_24\n      jumpi\n      mload(0x40)\n      0x08c379a000000000000000000000000000000000000000000000000000000000\n      dup2\n      mstore\n      0x04\n      add\n      dup1\n      dup1\n      0x20\n      add\n      dup3\n      dup2\n      sub\n      dup3\n      mstore\n      0x28\n      dup2\n      mstore\n      0x20\n      add\n      dup1\n      data_d5cafe2745dab6273b51cca76f8727c7664db74ede49af049a5b5ca6a3b184e4\n      0x28\n      swap2\n      codecopy\n      0x40\n      add\n      swap2\n      pop\n      pop\n      mload(0x40)\n      dup1\n      swap2\n      sub\n      swap1\n      revert\n    tag_24:\n        /* \"https://github.com/smartcontractkit/chainlink/blob/develop/contracts/src/v0.6/ChainlinkClient.sol\":8840:8855  pendingRequests */\n      0x05\n        /* \"https://github.com/smartcontractkit/chainlink/blob/develop/contracts/src/v0.6/ChainlinkClient.sol\":8840:8867  pendingRequests[_requestId] */\n      0x00\n        /* \"https://github.com/smartcontractkit/chainlink/blob/develop/contracts/src/v0.6/ChainlinkClient.sol\":8856:8866  _requestId */\n      dup3\n        /* \"https://github.com/smartcontractkit/chainlink/blob/develop/contracts/src/v0.6/ChainlinkClient.sol\":8840:8867  pendingRequests[_requestId] */\n      dup2\n      mstore\n      0x20\n      add\n      swap1\n      dup2\n      mstore\n      0x20\n      add\n      0x00\n      keccak256\n      0x00\n        /* \"https://github.com/smartcontractkit/chainlink/blob/develop/contracts/src/v0.6/ChainlinkClient.sol\":8833:8867  delete pendingRequests[_requestId] */\n      0x0100\n      exp\n      dup2\n      sload\n      swap1\n      0xffffffffffffffffffffffffffffffffffffffff\n      mul\n      not\n      and\n      swap1\n      sstore\n        /* \"https://github.com/smartcontractkit/chainlink/blob/develop/contracts/src/v0.6/ChainlinkClient.sol\":8897:8907  _requestId */\n      dup1\n        /* \"https://github.com/smartcontractkit/chainlink/blob/develop/contracts/src/v0.6/ChainlinkClient.sol\":8878:8908  ChainlinkFulfilled(_requestId) */\n      0x7cc135e0cebb02c3480ae5d74d377283180a2601f8f644edf7987b009316c63a\n      mload(0x40)\n      mload(0x40)\n      dup1\n      swap2\n      sub\n      swap1\n      log2\n        /* \"ChainLink_learn/first_example.sol\":2165:2171  _price */\n      dup2\n        /* \"ChainLink_learn/first_example.sol\":2150:2162  currentPrice */\n      0x06\n        /* \"ChainLink_learn/first_example.sol\":2150:2171  currentPrice = _price */\n      dup2\n      swap1\n      sstore\n      pop\n        /* \"ChainLink_learn/first_example.sol\":1948:2176  function fulfill(bytes32 _requestId, uint256 _price)... */\n      pop\n      pop\n      pop\n      jump\t// out\n        /* \"ChainLink_learn/first_example.sol\":375:395  address public owner */\n    tag_13:\n      0x07\n      0x00\n      swap1\n      sload\n      swap1\n      0x0100\n      exp\n      swap1\n      div\n      0xffffffffffffffffffffffffffffffffffffffff\n      and\n      dup2\n      jump\t// out\n        /* \"ChainLink_learn/first_example.sol\":2582:2806  function withdrawLink()... */\n    tag_15:\n        /* \"ChainLink_learn/first_example.sol\":2861:2866  owner */\n      0x07\n      0x00\n      swap1\n      sload\n      swap1\n      0x0100\n      exp\n      swap1\n      div\n      0xffffffffffffffffffffffffffffffffffffffff\n      and\n        /* \"ChainLink_learn/first_example.sol\":2847:2866  msg.sender == owner */\n      0xffffffffffffffffffffffffffffffffffffffff\n      and\n        /* \"ChainLink_learn/first_example.sol\":2847:2857  msg.sender */\n      caller\n        /* \"ChainLink_learn/first_example.sol\":2847:2866  msg.sender == owner */\n      0xffffffffffffffffffffffffffffffffffffffff\n      and\n      eq\n        /* \"ChainLink_learn/first_example.sol\":2839:2867  require(msg.sender == owner) */\n      tag_27\n      jumpi\n      0x00\n      dup1\n      revert\n    tag_27:\n        /* \"ChainLink_learn/first_example.sol\":2639:2662  LinkTokenInterface link */\n      0x00\n        /* \"ChainLink_learn/first_example.sol\":2684:2707  chainlinkTokenAddress() */\n      tag_29\n        /* \"ChainLink_learn/first_example.sol\":2684:2705  chainlinkTokenAddress */\n      tag_30\n        /* \"ChainLink_learn/first_example.sol\":2684:2707  chainlinkTokenAddress() */\n      jump\t// in\n    tag_29:\n        /* \"ChainLink_learn/first_example.sol\":2639:2708  LinkTokenInterface link = LinkTokenInterface(chainlinkTokenAddress()) */\n      swap1\n      pop\n        /* \"ChainLink_learn/first_example.sol\":2722:2726  link */\n      dup1\n        /* \"ChainLink_learn/first_example.sol\":2722:2735  link.transfer */\n      0xffffffffffffffffffffffffffffffffffffffff\n      and\n      0xa9059cbb\n        /* \"ChainLink_learn/first_example.sol\":2736:2746  msg.sender */\n      caller\n        /* \"ChainLink_learn/first_example.sol\":2748:2752  link */\n      dup4\n        /* \"ChainLink_learn/first_example.sol\":2748:2762  link.balanceOf */\n      0xffffffffffffffffffffffffffffffffffffffff\n      and\n      0x70a08231\n        /* \"ChainLink_learn/first_example.sol\":2771:2775  this */\n      address\n        /* \"ChainLink_learn/first_example.sol\":2748:2777  link.balanceOf(address(this)) */\n      mload(0x40)\n      dup3\n      0xffffffff\n      and\n      0xe0\n      shl\n      dup2\n      mstore\n      0x04\n      add\n      dup1\n      dup3\n      0xffffffffffffffffffffffffffffffffffffffff\n      and\n      dup2\n      mstore\n      0x20\n      add\n      swap2\n      pop\n      pop\n      0x20\n      mload(0x40)\n      dup1\n      dup4\n      sub\n      dup2\n      dup7\n      dup1\n      extcodesize\n      iszero\n      dup1\n      iszero\n      tag_31\n      jumpi\n      0x00\n      dup1\n      revert\n    tag_31:\n      pop\n      gas\n      staticcall\n      iszero\n      dup1\n      iszero\n      tag_33\n      jumpi\n      returndatasize\n      0x00\n      dup1\n      returndatacopy\n      revert(0x00, returndatasize)\n    tag_33:\n      pop\n      pop\n      pop\n      pop\n      mload(0x40)\n      returndatasize\n      0x20\n      dup2\n      lt\n      iszero\n      tag_34\n      jumpi\n      0x00\n      dup1\n      revert\n    tag_34:\n      dup2\n      add\n      swap1\n      dup1\n      dup1\n      mload\n      swap1\n      0x20\n      add\n      swap1\n      swap3\n      swap2\n      swap1\n      pop\n      pop\n      pop\n        /* \"ChainLink_learn/first_example.sol\":2722:2778  link.transfer(msg.sender, link.balanceOf(address(this))) */\n      mload(0x40)\n      dup4\n      0xffffffff\n      and\n      0xe0\n      shl\n      dup2\n      mstore\n      0x04\n      add\n      dup1\n      dup4\n      0xffffffffffffffffffffffffffffffffffffffff\n      and\n      dup2\n      mstore\n      0x20\n      add\n      dup3\n      dup2\n      mstore\n      0x20\n      add\n      swap3\n      pop\n      pop\n      pop\n      0x20\n      mload(0x40)\n      dup1\n      dup4\n      sub\n      dup2\n      0x00\n      dup8\n      dup1\n      extcodesize\n      iszero\n      dup1\n      iszero\n      tag_35\n      jumpi\n      0x00\n      dup1\n      revert\n    tag_35:\n      pop\n      gas\n      call\n      iszero\n      dup1\n      iszero\n      tag_37\n      jumpi\n      returndatasize\n      0x00\n      dup1\n      returndatacopy\n      revert(0x00, returndatasize)\n    tag_37:\n      pop\n      pop\n      pop\n      pop\n      mload(0x40)\n      returndatasize\n      0x20\n      dup2\n      lt\n      iszero\n      tag_38\n      jumpi\n      0x00\n      dup1\n      revert\n    tag_38:\n      dup2\n      add\n      swap1\n      dup1\n      dup1\n      mload\n      swap1\n      0x20\n      add\n      swap1\n      swap3\n      swap2\n      swap1\n      pop\n      pop\n      pop\n        /* \"ChainLink_learn/first_example.sol\":2714:2801  require(link.transfer(msg.sender, link.balanceOf(address(this))), \"Unable to transfer\") */\n      tag_39\n      jumpi\n      mload(0x40)\n      0x08c379a000000000000000000000000000000000000000000000000000000000\n      dup2\n      mstore\n      0x04\n      add\n      dup1\n      dup1\n      0x20\n      add\n      dup3\n      dup2\n      sub\n      dup3\n      mstore\n      0x12\n      dup2\n      mstore\n      0x20\n      add\n      dup1\n      0x556e61626c6520746f207472616e736665720000000000000000000000000000\n      dup2\n      mstore\n      pop\n      0x20\n      add\n      swap2\n      pop\n      pop\n      mload(0x40)\n      dup1\n      swap2\n      sub\n      swap1\n      revert\n    tag_39:\n        /* \"ChainLink_learn/first_example.sol\":2873:2874  _ */\n      pop\n        /* \"ChainLink_learn/first_example.sol\":2582:2806  function withdrawLink()... */\n      jump\t// out\n        /* \"ChainLink_learn/first_example.sol\":344:371  uint256 public currentPrice */\n    tag_17:\n      sload(0x06)\n      dup2\n      jump\t// out\n        /* \"ChainLink_learn/first_example.sol\":1127:1902  function requestEthereumPrice() ... */\n    tag_19:\n        /* \"ChainLink_learn/first_example.sol\":2861:2866  owner */\n      0x07\n      0x00\n      swap1\n      sload\n      swap1\n      0x0100\n      exp\n      swap1\n      div\n      0xffffffffffffffffffffffffffffffffffffffff\n      and\n        /* \"ChainLink_learn/first_example.sol\":2847:2866  msg.sender == owner */\n      0xffffffffffffffffffffffffffffffffffffffff\n      and\n        /* \"ChainLink_learn/first_example.sol\":2847:2857  msg.sender */\n      caller\n        /* \"ChainLink_learn/first_example.sol\":2847:2866  msg.sender == owner */\n      0xffffffffffffffffffffffffffffffffffffffff\n      and\n      eq\n        /* \"ChainLink_learn/first_example.sol\":2839:2867  require(msg.sender == owner) */\n      tag_41\n      jumpi\n      0x00\n      dup1\n      revert\n    tag_41:\n        /* \"ChainLink_learn/first_example.sol\":1277:1305  Chainlink.Request memory req */\n      tag_43\n      tag_44\n      jump\t// in\n    tag_43:\n        /* \"ChainLink_learn/first_example.sol\":1308:1391  buildChainlinkRequest(stringToBytes32(JOBID), address(this), this.fulfill.selector) */\n      tag_45\n        /* \"ChainLink_learn/first_example.sol\":1330:1352  stringToBytes32(JOBID) */\n      tag_46\n        /* \"ChainLink_learn/first_example.sol\":1346:1351  JOBID */\n      mload(0x40)\n      dup1\n      0x40\n      add\n      0x40\n      mstore\n      dup1\n      0x20\n      dup2\n      mstore\n      0x20\n      add\n      0x3632386564656437646237663466373939646266363935333864656337666632\n      dup2\n      mstore\n      pop\n        /* \"ChainLink_learn/first_example.sol\":1330:1345  stringToBytes32 */\n      tag_47\n        /* \"ChainLink_learn/first_example.sol\":1330:1352  stringToBytes32(JOBID) */\n      jump\t// in\n    tag_46:\n        /* \"ChainLink_learn/first_example.sol\":1362:1366  this */\n      address\n        /* \"ChainLink_learn/first_example.sol\":1369:1390  this.fulfill.selector */\n      shl(0xe0, 0x4357855e)\n        /* \"ChainLink_learn/first_example.sol\":1308:1329  buildChainlinkRequest */\n      tag_48\n        /* \"ChainLink_learn/first_example.sol\":1308:1391  buildChainlinkRequest(stringToBytes32(JOBID), address(this), this.fulfill.selector) */\n      jump\t// in\n    tag_45:\n        /* \"ChainLink_learn/first_example.sol\":1277:1391  Chainlink.Request memory req = buildChainlinkRequest(stringToBytes32(JOBID), address(this), this.fulfill.selector) */\n      swap1\n      pop\n        /* \"ChainLink_learn/first_example.sol\":1460:1541  req.add(\"get\", \"https://min-api.cryptocompare.com/data/price?fsym=ETH&tsyms=USD\") */\n      tag_49\n      mload(0x40)\n      dup1\n      0x40\n      add\n      0x40\n      mstore\n      dup1\n      0x03\n      dup2\n      mstore\n      0x20\n      add\n      0x6765740000000000000000000000000000000000000000000000000000000000\n      dup2\n      mstore\n      pop\n      mload(0x40)\n      dup1\n      0x60\n      add\n      0x40\n      mstore\n      dup1\n      0x3f\n      dup2\n      mstore\n      0x20\n      add\n      data_444739292f65e0d84586af555ca805e0303948242aa5bbf9a7032603676a8ec3\n      0x3f\n      swap2\n      codecopy\n        /* \"ChainLink_learn/first_example.sol\":1460:1463  req */\n      dup4\n        /* \"ChainLink_learn/first_example.sol\":1460:1467  req.add */\n      tag_50\n      swap1\n        /* \"ChainLink_learn/first_example.sol\":1460:1541  req.add(\"get\", \"https://min-api.cryptocompare.com/data/price?fsym=ETH&tsyms=USD\") */\n      swap3\n      swap2\n      swap1\n      0xffffffff\n      and\n      jump\t// in\n    tag_49:\n        /* \"ChainLink_learn/first_example.sol\":1634:1656  req.add(\"path\", \"USD\") */\n      tag_51\n      mload(0x40)\n      dup1\n      0x40\n      add\n      0x40\n      mstore\n      dup1\n      0x04\n      dup2\n      mstore\n      0x20\n      add\n      0x7061746800000000000000000000000000000000000000000000000000000000\n      dup2\n      mstore\n      pop\n      mload(0x40)\n      dup1\n      0x40\n      add\n      0x40\n      mstore\n      dup1\n      0x03\n      dup2\n      mstore\n      0x20\n      add\n      0x5553440000000000000000000000000000000000000000000000000000000000\n      dup2\n      mstore\n      pop\n        /* \"ChainLink_learn/first_example.sol\":1634:1637  req */\n      dup4\n        /* \"ChainLink_learn/first_example.sol\":1634:1641  req.add */\n      tag_50\n      swap1\n        /* \"ChainLink_learn/first_example.sol\":1634:1656  req.add(\"path\", \"USD\") */\n      swap3\n      swap2\n      swap1\n      0xffffffff\n      and\n      jump\t// in\n    tag_51:\n        /* \"ChainLink_learn/first_example.sol\":1732:1756  req.addInt(\"times\", 100) */\n      tag_52\n      mload(0x40)\n      dup1\n      0x40\n      add\n      0x40\n      mstore\n      dup1\n      0x05\n      dup2\n      mstore\n      0x20\n      add\n      0x74696d6573000000000000000000000000000000000000000000000000000000\n      dup2\n      mstore\n      pop\n        /* \"ChainLink_learn/first_example.sol\":1752:1755  100 */\n      0x64\n        /* \"ChainLink_learn/first_example.sol\":1732:1735  req */\n      dup4\n        /* \"ChainLink_learn/first_example.sol\":1732:1742  req.addInt */\n      tag_53\n      swap1\n        /* \"ChainLink_learn/first_example.sol\":1732:1756  req.addInt(\"times\", 100) */\n      swap3\n      swap2\n      swap1\n      0xffffffff\n      and\n      jump\t// in\n    tag_52:\n        /* \"ChainLink_learn/first_example.sol\":1838:1897  sendChainlinkRequestTo(ORACLE_ADDRESS, req, ORACLE_PAYMENT) */\n      tag_54\n        /* \"ChainLink_learn/first_example.sol\":1861:1875  ORACLE_ADDRESS */\n      0x08\n      0x00\n      swap1\n      sload\n      swap1\n      0x0100\n      exp\n      swap1\n      div\n      0xffffffffffffffffffffffffffffffffffffffff\n      and\n        /* \"ChainLink_learn/first_example.sol\":1877:1880  req */\n      dup3\n        /* \"ChainLink_learn/first_example.sol\":820:838  100000000000000000 */\n      0x016345785d8a0000\n        /* \"ChainLink_learn/first_example.sol\":1838:1860  sendChainlinkRequestTo */\n      tag_55\n        /* \"ChainLink_learn/first_example.sol\":1838:1897  sendChainlinkRequestTo(ORACLE_ADDRESS, req, ORACLE_PAYMENT) */\n      jump\t// in\n    tag_54:\n      pop\n        /* \"ChainLink_learn/first_example.sol\":2873:2874  _ */\n      pop\n        /* \"ChainLink_learn/first_example.sol\":1127:1902  function requestEthereumPrice() ... */\n      jump\t// out\n        /* \"ChainLink_learn/first_example.sol\":2251:2497  function cancelRequest(... */\n    tag_22:\n        /* \"ChainLink_learn/first_example.sol\":2861:2866  owner */\n      0x07\n      0x00\n      swap1\n      sload\n      swap1\n      0x0100\n      exp\n      swap1\n      div\n      0xffffffffffffffffffffffffffffffffffffffff\n      and\n        /* \"ChainLink_learn/first_example.sol\":2847:2866  msg.sender == owner */\n      0xffffffffffffffffffffffffffffffffffffffff\n      and\n        /* \"ChainLink_learn/first_example.sol\":2847:2857  msg.sender */\n      caller\n        /* \"ChainLink_learn/first_example.sol\":2847:2866  msg.sender == owner */\n      0xffffffffffffffffffffffffffffffffffffffff\n      and\n      eq\n        /* \"ChainLink_learn/first_example.sol\":2839:2867  require(msg.sender == owner) */\n      tag_57\n      jumpi\n      0x00\n      dup1\n      revert\n    tag_57:\n        /* \"ChainLink_learn/first_example.sol\":2414:2492  cancelChainlinkRequest(_requestId, _payment, _callbackFunctionId, _expiration) */\n      tag_59\n        /* \"ChainLink_learn/first_example.sol\":2437:2447  _requestId */\n      dup5\n        /* \"ChainLink_learn/first_example.sol\":2449:2457  _payment */\n      dup5\n        /* \"ChainLink_learn/first_example.sol\":2459:2478  _callbackFunctionId */\n      dup5\n        /* \"ChainLink_learn/first_example.sol\":2480:2491  _expiration */\n      dup5\n        /* \"ChainLink_learn/first_example.sol\":2414:2436  cancelChainlinkRequest */\n      tag_60\n        /* \"ChainLink_learn/first_example.sol\":2414:2492  cancelChainlinkRequest(_requestId, _payment, _callbackFunctionId, _expiration) */\n      jump\t// in\n    tag_59:\n        /* \"ChainLink_learn/first_example.sol\":2251:2497  function cancelRequest(... */\n      pop\n      pop\n      pop\n      pop\n      jump\t// out\n        /* \"https://github.com/smartcontractkit/chainlink/blob/develop/contracts/src/v0.6/ChainlinkClient.sol\":5293:5403  function chainlinkTokenAddress()... */\n    tag_30:\n        /* \"https://github.com/smartcontractkit/chainlink/blob/develop/contracts/src/v0.6/ChainlinkClient.sol\":5361:5368  address */\n      0x00\n        /* \"https://github.com/smartcontractkit/chainlink/blob/develop/contracts/src/v0.6/ChainlinkClient.sol\":5393:5397  link */\n      0x02\n      0x00\n      swap1\n      sload\n      swap1\n      0x0100\n      exp\n      swap1\n      div\n      0xffffffffffffffffffffffffffffffffffffffff\n      and\n        /* \"https://github.com/smartcontractkit/chainlink/blob/develop/contracts/src/v0.6/ChainlinkClient.sol\":5378:5398  return address(link) */\n      swap1\n      pop\n        /* \"https://github.com/smartcontractkit/chainlink/blob/develop/contracts/src/v0.6/ChainlinkClient.sol\":5293:5403  function chainlinkTokenAddress()... */\n      swap1\n      jump\t// out\n        /* \"ChainLink_learn/first_example.sol\":2938:3252  function stringToBytes32(string memory source) private pure returns (bytes32 result) {... */\n    tag_47:\n        /* \"ChainLink_learn/first_example.sol\":3007:3021  bytes32 result */\n      0x00\n        /* \"ChainLink_learn/first_example.sol\":3029:3061  bytes memory tempEmptyStringTest */\n      0x60\n        /* \"ChainLink_learn/first_example.sol\":3070:3076  source */\n      dup3\n        /* \"ChainLink_learn/first_example.sol\":3029:3077  bytes memory tempEmptyStringTest = bytes(source) */\n      swap1\n      pop\n        /* \"ChainLink_learn/first_example.sol\":3117:3118  0 */\n      0x00\n        /* \"ChainLink_learn/first_example.sol\":3087:3106  tempEmptyStringTest */\n      dup2\n        /* \"ChainLink_learn/first_example.sol\":3087:3113  tempEmptyStringTest.length */\n      mload\n        /* \"ChainLink_learn/first_example.sol\":3087:3118  tempEmptyStringTest.length == 0 */\n      eq\n        /* \"ChainLink_learn/first_example.sol\":3083:3145  if (tempEmptyStringTest.length == 0) {... */\n      iszero\n      tag_63\n      jumpi\n        /* \"ChainLink_learn/first_example.sol\":3135:3138  0x0 */\n      0x00\n        /* \"ChainLink_learn/first_example.sol\":3128:3138  return 0x0 */\n      dup1\n      shl\n      swap2\n      pop\n      pop\n      jump(tag_62)\n        /* \"ChainLink_learn/first_example.sol\":3083:3145  if (tempEmptyStringTest.length == 0) {... */\n    tag_63:\n        /* \"ChainLink_learn/first_example.sol\":3238:3240  32 */\n      0x20\n        /* \"ChainLink_learn/first_example.sol\":3230:3236  source */\n      dup4\n        /* \"ChainLink_learn/first_example.sol\":3226:3241  add(source, 32) */\n      add\n        /* \"ChainLink_learn/first_example.sol\":3220:3242  mload(add(source, 32)) */\n      mload\n        /* \"ChainLink_learn/first_example.sol\":3210:3242  result := mload(add(source, 32)) */\n      swap2\n      pop\n        /* \"ChainLink_learn/first_example.sol\":3159:3248  { // solhint-disable-line no-inline-assembly... */\n      pop\n    tag_62:\n      swap2\n      swap1\n      pop\n      jump\t// out\n        /* \"https://github.com/smartcontractkit/chainlink/blob/develop/contracts/src/v0.6/ChainlinkClient.sol\":1767:2062  function buildChainlinkRequest(... */\n    tag_48:\n        /* \"https://github.com/smartcontractkit/chainlink/blob/develop/contracts/src/v0.6/ChainlinkClient.sol\":1915:1939  Chainlink.Request memory */\n      tag_64\n      tag_44\n      jump\t// in\n    tag_64:\n        /* \"https://github.com/smartcontractkit/chainlink/blob/develop/contracts/src/v0.6/ChainlinkClient.sol\":1947:1975  Chainlink.Request memory req */\n      tag_66\n      tag_44\n      jump\t// in\n    tag_66:\n        /* \"https://github.com/smartcontractkit/chainlink/blob/develop/contracts/src/v0.6/ChainlinkClient.sol\":1988:2057  req.initialize(_specId, _callbackAddress, _callbackFunctionSignature) */\n      tag_67\n        /* \"https://github.com/smartcontractkit/chainlink/blob/develop/contracts/src/v0.6/ChainlinkClient.sol\":2003:2010  _specId */\n      dup6\n        /* \"https://github.com/smartcontractkit/chainlink/blob/develop/contracts/src/v0.6/ChainlinkClient.sol\":2012:2028  _callbackAddress */\n      dup6\n        /* \"https://github.com/smartcontractkit/chainlink/blob/develop/contracts/src/v0.6/ChainlinkClient.sol\":2030:2056  _callbackFunctionSignature */\n      dup6\n        /* \"https://github.com/smartcontractkit/chainlink/blob/develop/contracts/src/v0.6/ChainlinkClient.sol\":1988:1991  req */\n      dup5\n        /* \"https://github.com/smartcontractkit/chainlink/blob/develop/contracts/src/v0.6/ChainlinkClient.sol\":1988:2002  req.initialize */\n      tag_68\n      swap1\n        /* \"https://github.com/smartcontractkit/chainlink/blob/develop/contracts/src/v0.6/ChainlinkClient.sol\":1988:2057  req.initialize(_specId, _callbackAddress, _callbackFunctionSignature) */\n      swap4\n      swap3\n      swap2\n      swap1\n      0xffffffff\n      and\n      jump\t// in\n    tag_67:\n        /* \"https://github.com/smartcontractkit/chainlink/blob/develop/contracts/src/v0.6/ChainlinkClient.sol\":1981:2057  return req.initialize(_specId, _callbackAddress, _callbackFunctionSignature) */\n      swap2\n      pop\n      pop\n        /* \"https://github.com/smartcontractkit/chainlink/blob/develop/contracts/src/v0.6/ChainlinkClient.sol\":1767:2062  function buildChainlinkRequest(... */\n      swap4\n      swap3\n      pop\n      pop\n      pop\n      jump\t// out\n        /* \"https://github.com/smartcontractkit/chainlink/blob/develop/contracts/src/v0.6/Chainlink.sol\":1988:2157  function add(Request memory self, string memory _key, string memory _value)... */\n    tag_50:\n        /* \"https://github.com/smartcontractkit/chainlink/blob/develop/contracts/src/v0.6/Chainlink.sol\":2090:2117  self.buf.encodeString(_key) */\n      tag_70\n        /* \"https://github.com/smartcontractkit/chainlink/blob/develop/contracts/src/v0.6/Chainlink.sol\":2112:2116  _key */\n      dup3\n        /* \"https://github.com/smartcontractkit/chainlink/blob/develop/contracts/src/v0.6/Chainlink.sol\":2090:2094  self */\n      dup5\n        /* \"https://github.com/smartcontractkit/chainlink/blob/develop/contracts/src/v0.6/Chainlink.sol\":2090:2098  self.buf */\n      0x80\n      add\n      mload\n        /* \"https://github.com/smartcontractkit/chainlink/blob/develop/contracts/src/v0.6/Chainlink.sol\":2090:2111  self.buf.encodeString */\n      tag_71\n      swap1\n        /* \"https://github.com/smartcontractkit/chainlink/blob/develop/contracts/src/v0.6/Chainlink.sol\":2090:2117  self.buf.encodeString(_key) */\n      swap2\n      swap1\n      0xffffffff\n      and\n      jump\t// in\n    tag_70:\n        /* \"https://github.com/smartcontractkit/chainlink/blob/develop/contracts/src/v0.6/Chainlink.sol\":2123:2152  self.buf.encodeString(_value) */\n      tag_72\n        /* \"https://github.com/smartcontractkit/chainlink/blob/develop/contracts/src/v0.6/Chainlink.sol\":2145:2151  _value */\n      dup2\n        /* \"https://github.com/smartcontractkit/chainlink/blob/develop/contracts/src/v0.6/Chainlink.sol\":2123:2127  self */\n      dup5\n        /* \"https://github.com/smartcontractkit/chainlink/blob/develop/contracts/src/v0.6/Chainlink.sol\":2123:2131  self.buf */\n      0x80\n      add\n      mload\n        /* \"https://github.com/smartcontractkit/chainlink/blob/develop/contracts/src/v0.6/Chainlink.sol\":2123:2144  self.buf.encodeString */\n      tag_71\n      swap1\n        /* \"https://github.com/smartcontractkit/chainlink/blob/develop/contracts/src/v0.6/Chainlink.sol\":2123:2152  self.buf.encodeString(_value) */\n      swap2\n      swap1\n      0xffffffff\n      and\n      jump\t// in\n    tag_72:\n        /* \"https://github.com/smartcontractkit/chainlink/blob/develop/contracts/src/v0.6/Chainlink.sol\":1988:2157  function add(Request memory self, string memory _key, string memory _value)... */\n      pop\n      pop\n      pop\n      jump\t// out\n        /* \"https://github.com/smartcontractkit/chainlink/blob/develop/contracts/src/v0.6/Chainlink.sol\":2741:2903  function addInt(Request memory self, string memory _key, int256 _value)... */\n    tag_53:\n        /* \"https://github.com/smartcontractkit/chainlink/blob/develop/contracts/src/v0.6/Chainlink.sol\":2839:2866  self.buf.encodeString(_key) */\n      tag_74\n        /* \"https://github.com/smartcontractkit/chainlink/blob/develop/contracts/src/v0.6/Chainlink.sol\":2861:2865  _key */\n      dup3\n        /* \"https://github.com/smartcontractkit/chainlink/blob/develop/contracts/src/v0.6/Chainlink.sol\":2839:2843  self */\n      dup5\n        /* \"https://github.com/smartcontractkit/chainlink/blob/develop/contracts/src/v0.6/Chainlink.sol\":2839:2847  self.buf */\n      0x80\n      add\n      mload\n        /* \"https://github.com/smartcontractkit/chainlink/blob/develop/contracts/src/v0.6/Chainlink.sol\":2839:2860  self.buf.encodeString */\n      tag_71\n      swap1\n        /* \"https://github.com/smartcontractkit/chainlink/blob/develop/contracts/src/v0.6/Chainlink.sol\":2839:2866  self.buf.encodeString(_key) */\n      swap2\n      swap1\n      0xffffffff\n      and\n      jump\t// in\n    tag_74:\n        /* \"https://github.com/smartcontractkit/chainlink/blob/develop/contracts/src/v0.6/Chainlink.sol\":2872:2898  self.buf.encodeInt(_value) */\n      tag_75\n        /* \"https://github.com/smartcontractkit/chainlink/blob/develop/contracts/src/v0.6/Chainlink.sol\":2891:2897  _value */\n      dup2\n        /* \"https://github.com/smartcontractkit/chainlink/blob/develop/contracts/src/v0.6/Chainlink.sol\":2872:2876  self */\n      dup5\n        /* \"https://github.com/smartcontractkit/chainlink/blob/develop/contracts/src/v0.6/Chainlink.sol\":2872:2880  self.buf */\n      0x80\n      add\n      mload\n        /* \"https://github.com/smartcontractkit/chainlink/blob/develop/contracts/src/v0.6/Chainlink.sol\":2872:2890  self.buf.encodeInt */\n      tag_76\n      swap1\n        /* \"https://github.com/smartcontractkit/chainlink/blob/develop/contracts/src/v0.6/Chainlink.sol\":2872:2898  self.buf.encodeInt(_value) */\n      swap2\n      swap1\n      0xffffffff\n      and\n      jump\t// in\n    tag_75:\n        /* \"https://github.com/smartcontractkit/chainlink/blob/develop/contracts/src/v0.6/Chainlink.sol\":2741:2903  function addInt(Request memory self, string memory _key, int256 _value)... */\n      pop\n      pop\n      pop\n      jump\t// out\n        /* \"https://github.com/smartcontractkit/chainlink/blob/develop/contracts/src/v0.6/ChainlinkClient.sol\":3072:3560  function sendChainlinkRequestTo(address _oracle, Chainlink.Request memory _req, uint256 _payment)... */\n    tag_55:\n        /* \"https://github.com/smartcontractkit/chainlink/blob/develop/contracts/src/v0.6/ChainlinkClient.sol\":3196:3213  bytes32 requestId */\n      0x00\n        /* \"https://github.com/smartcontractkit/chainlink/blob/develop/contracts/src/v0.6/ChainlinkClient.sol\":3262:3266  this */\n      address\n        /* \"https://github.com/smartcontractkit/chainlink/blob/develop/contracts/src/v0.6/ChainlinkClient.sol\":3268:3280  requestCount */\n      sload(0x04)\n        /* \"https://github.com/smartcontractkit/chainlink/blob/develop/contracts/src/v0.6/ChainlinkClient.sol\":3245:3281  abi.encodePacked(this, requestCount) */\n      add(0x20, mload(0x40))\n      dup1\n      dup4\n      0xffffffffffffffffffffffffffffffffffffffff\n      and\n      0x60\n      shl\n      dup2\n      mstore\n      0x14\n      add\n      dup3\n      dup2\n      mstore\n      0x20\n      add\n      swap3\n      pop\n      pop\n      pop\n      mload(0x40)\n      0x20\n      dup2\n      dup4\n      sub\n      sub\n      dup2\n      mstore\n      swap1\n      0x40\n      mstore\n        /* \"https://github.com/smartcontractkit/chainlink/blob/develop/contracts/src/v0.6/ChainlinkClient.sol\":3235:3282  keccak256(abi.encodePacked(this, requestCount)) */\n      dup1\n      mload\n      swap1\n      0x20\n      add\n      keccak256\n        /* \"https://github.com/smartcontractkit/chainlink/blob/develop/contracts/src/v0.6/ChainlinkClient.sol\":3223:3282  requestId = keccak256(abi.encodePacked(this, requestCount)) */\n      swap1\n      pop\n        /* \"https://github.com/smartcontractkit/chainlink/blob/develop/contracts/src/v0.6/ChainlinkClient.sol\":3301:3313  requestCount */\n      sload(0x04)\n        /* \"https://github.com/smartcontractkit/chainlink/blob/develop/contracts/src/v0.6/ChainlinkClient.sol\":3288:3292  _req */\n      dup4\n        /* \"https://github.com/smartcontractkit/chainlink/blob/develop/contracts/src/v0.6/ChainlinkClient.sol\":3288:3298  _req.nonce */\n      0x60\n      add\n        /* \"https://github.com/smartcontractkit/chainlink/blob/develop/contracts/src/v0.6/ChainlinkClient.sol\":3288:3313  _req.nonce = requestCount */\n      dup2\n      dup2\n      mstore\n      pop\n      pop\n        /* \"https://github.com/smartcontractkit/chainlink/blob/develop/contracts/src/v0.6/ChainlinkClient.sol\":3348:3355  _oracle */\n      dup4\n        /* \"https://github.com/smartcontractkit/chainlink/blob/develop/contracts/src/v0.6/ChainlinkClient.sol\":3319:3334  pendingRequests */\n      0x05\n        /* \"https://github.com/smartcontractkit/chainlink/blob/develop/contracts/src/v0.6/ChainlinkClient.sol\":3319:3345  pendingRequests[requestId] */\n      0x00\n        /* \"https://github.com/smartcontractkit/chainlink/blob/develop/contracts/src/v0.6/ChainlinkClient.sol\":3335:3344  requestId */\n      dup4\n        /* \"https://github.com/smartcontractkit/chainlink/blob/develop/contracts/src/v0.6/ChainlinkClient.sol\":3319:3345  pendingRequests[requestId] */\n      dup2\n      mstore\n      0x20\n      add\n      swap1\n      dup2\n      mstore\n      0x20\n      add\n      0x00\n      keccak256\n      0x00\n        /* \"https://github.com/smartcontractkit/chainlink/blob/develop/contracts/src/v0.6/ChainlinkClient.sol\":3319:3355  pendingRequests[requestId] = _oracle */\n      0x0100\n      exp\n      dup2\n      sload\n      dup2\n      0xffffffffffffffffffffffffffffffffffffffff\n      mul\n      not\n      and\n      swap1\n      dup4\n      0xffffffffffffffffffffffffffffffffffffffff\n      and\n      mul\n      or\n      swap1\n      sstore\n      pop\n        /* \"https://github.com/smartcontractkit/chainlink/blob/develop/contracts/src/v0.6/ChainlinkClient.sol\":3385:3394  requestId */\n      dup1\n        /* \"https://github.com/smartcontractkit/chainlink/blob/develop/contracts/src/v0.6/ChainlinkClient.sol\":3366:3395  ChainlinkRequested(requestId) */\n      0xb5e6e01e79f91267dc17b4e6314d5d4d03593d2ceee0fbb452b750bd70ea5af9\n      mload(0x40)\n      mload(0x40)\n      dup1\n      swap2\n      sub\n      swap1\n      log2\n        /* \"https://github.com/smartcontractkit/chainlink/blob/develop/contracts/src/v0.6/ChainlinkClient.sol\":3409:3413  link */\n      0x02\n      0x00\n      swap1\n      sload\n      swap1\n      0x0100\n      exp\n      swap1\n      div\n      0xffffffffffffffffffffffffffffffffffffffff\n      and\n        /* \"https://github.com/smartcontractkit/chainlink/blob/develop/contracts/src/v0.6/ChainlinkClient.sol\":3409:3429  link.transferAndCall */\n      0xffffffffffffffffffffffffffffffffffffffff\n      and\n      0x4000aea0\n        /* \"https://github.com/smartcontractkit/chainlink/blob/develop/contracts/src/v0.6/ChainlinkClient.sol\":3430:3437  _oracle */\n      dup6\n        /* \"https://github.com/smartcontractkit/chainlink/blob/develop/contracts/src/v0.6/ChainlinkClient.sol\":3439:3447  _payment */\n      dup5\n        /* \"https://github.com/smartcontractkit/chainlink/blob/develop/contracts/src/v0.6/ChainlinkClient.sol\":3449:3468  encodeRequest(_req) */\n      tag_78\n        /* \"https://github.com/smartcontractkit/chainlink/blob/develop/contracts/src/v0.6/ChainlinkClient.sol\":3463:3467  _req */\n      dup8\n        /* \"https://github.com/smartcontractkit/chainlink/blob/develop/contracts/src/v0.6/ChainlinkClient.sol\":3449:3462  encodeRequest */\n      tag_79\n        /* \"https://github.com/smartcontractkit/chainlink/blob/develop/contracts/src/v0.6/ChainlinkClient.sol\":3449:3468  encodeRequest(_req) */\n      jump\t// in\n    tag_78:\n        /* \"https://github.com/smartcontractkit/chainlink/blob/develop/contracts/src/v0.6/ChainlinkClient.sol\":3409:3469  link.transferAndCall(_oracle, _payment, encodeRequest(_req)) */\n      mload(0x40)\n      dup5\n      0xffffffff\n      and\n      0xe0\n      shl\n      dup2\n      mstore\n      0x04\n      add\n      dup1\n      dup5\n      0xffffffffffffffffffffffffffffffffffffffff\n      and\n      dup2\n      mstore\n      0x20\n      add\n      dup4\n      dup2\n      mstore\n      0x20\n      add\n      dup1\n      0x20\n      add\n      dup3\n      dup2\n      sub\n      dup3\n      mstore\n      dup4\n      dup2\n      dup2\n      mload\n      dup2\n      mstore\n      0x20\n      add\n      swap2\n      pop\n      dup1\n      mload\n      swap1\n      0x20\n      add\n      swap1\n      dup1\n      dup4\n      dup4\n      0x00\n    tag_80:\n      dup4\n      dup2\n      lt\n      iszero\n      tag_82\n      jumpi\n      dup1\n      dup3\n      add\n      mload\n      dup2\n      dup5\n      add\n      mstore\n      0x20\n      dup2\n      add\n      swap1\n      pop\n      jump(tag_80)\n    tag_82:\n      pop\n      pop\n      pop\n      pop\n      swap1\n      pop\n      swap1\n      dup2\n      add\n      swap1\n      0x1f\n      and\n      dup1\n      iszero\n      tag_83\n      jumpi\n      dup1\n      dup3\n      sub\n      dup1\n      mload\n      0x01\n      dup4\n      0x20\n      sub\n      0x0100\n      exp\n      sub\n      not\n      and\n      dup2\n      mstore\n      0x20\n      add\n      swap2\n      pop\n    tag_83:\n      pop\n      swap5\n      pop\n      pop\n      pop\n      pop\n      pop\n      0x20\n      mload(0x40)\n      dup1\n      dup4\n      sub\n      dup2\n      0x00\n      dup8\n      dup1\n      extcodesize\n      iszero\n      dup1\n      iszero\n      tag_84\n      jumpi\n      0x00\n      dup1\n      revert\n    tag_84:\n      pop\n      gas\n      call\n      iszero\n      dup1\n      iszero\n      tag_86\n      jumpi\n      returndatasize\n      0x00\n      dup1\n      returndatacopy\n      revert(0x00, returndatasize)\n    tag_86:\n      pop\n      pop\n      pop\n      pop\n      mload(0x40)\n      returndatasize\n      0x20\n      dup2\n      lt\n      iszero\n      tag_87\n      jumpi\n      0x00\n      dup1\n      revert\n    tag_87:\n      dup2\n      add\n      swap1\n      dup1\n      dup1\n      mload\n      swap1\n      0x20\n      add\n      swap1\n      swap3\n      swap2\n      swap1\n      pop\n      pop\n      pop\n        /* \"https://github.com/smartcontractkit/chainlink/blob/develop/contracts/src/v0.6/ChainlinkClient.sol\":3401:3509  require(link.transferAndCall(_oracle, _payment, encodeRequest(_req)), \"unable to transferAndCall to oracle\") */\n      tag_88\n      jumpi\n      mload(0x40)\n      0x08c379a000000000000000000000000000000000000000000000000000000000\n      dup2\n      mstore\n      0x04\n      add\n      dup1\n      dup1\n      0x20\n      add\n      dup3\n      dup2\n      sub\n      dup3\n      mstore\n      0x23\n      dup2\n      mstore\n      0x20\n      add\n      dup1\n      data_3b3efd608222b424e5ed8427d7f6a272069793e6a1f5930c93db5c7960c3ce96\n      0x23\n      swap2\n      codecopy\n      0x40\n      add\n      swap2\n      pop\n      pop\n      mload(0x40)\n      dup1\n      swap2\n      sub\n      swap1\n      revert\n    tag_88:\n        /* \"https://github.com/smartcontractkit/chainlink/blob/develop/contracts/src/v0.6/ChainlinkClient.sol\":3531:3532  1 */\n      0x01\n        /* \"https://github.com/smartcontractkit/chainlink/blob/develop/contracts/src/v0.6/ChainlinkClient.sol\":3515:3527  requestCount */\n      0x04\n      0x00\n        /* \"https://github.com/smartcontractkit/chainlink/blob/develop/contracts/src/v0.6/ChainlinkClient.sol\":3515:3532  requestCount += 1 */\n      dup3\n      dup3\n      sload\n      add\n      swap3\n      pop\n      pop\n      dup2\n      swap1\n      sstore\n      pop\n        /* \"https://github.com/smartcontractkit/chainlink/blob/develop/contracts/src/v0.6/ChainlinkClient.sol\":3072:3560  function sendChainlinkRequestTo(address _oracle, Chainlink.Request memory _req, uint256 _payment)... */\n      swap4\n      swap3\n      pop\n      pop\n      pop\n      jump\t// out\n        /* \"https://github.com/smartcontractkit/chainlink/blob/develop/contracts/src/v0.6/ChainlinkClient.sol\":4080:4497  function cancelChainlinkRequest(... */\n    tag_60:\n        /* \"https://github.com/smartcontractkit/chainlink/blob/develop/contracts/src/v0.6/ChainlinkClient.sol\":4234:4269  ChainlinkRequestInterface requested */\n      0x00\n        /* \"https://github.com/smartcontractkit/chainlink/blob/develop/contracts/src/v0.6/ChainlinkClient.sol\":4298:4313  pendingRequests */\n      0x05\n        /* \"https://github.com/smartcontractkit/chainlink/blob/develop/contracts/src/v0.6/ChainlinkClient.sol\":4298:4325  pendingRequests[_requestId] */\n      0x00\n        /* \"https://github.com/smartcontractkit/chainlink/blob/develop/contracts/src/v0.6/ChainlinkClient.sol\":4314:4324  _requestId */\n      dup7\n        /* \"https://github.com/smartcontractkit/chainlink/blob/develop/contracts/src/v0.6/ChainlinkClient.sol\":4298:4325  pendingRequests[_requestId] */\n      dup2\n      mstore\n      0x20\n      add\n      swap1\n      dup2\n      mstore\n      0x20\n      add\n      0x00\n      keccak256\n      0x00\n      swap1\n      sload\n      swap1\n      0x0100\n      exp\n      swap1\n      div\n      0xffffffffffffffffffffffffffffffffffffffff\n      and\n        /* \"https://github.com/smartcontractkit/chainlink/blob/develop/contracts/src/v0.6/ChainlinkClient.sol\":4234:4326  ChainlinkRequestInterface requested = ChainlinkRequestInterface(pendingRequests[_requestId]) */\n      swap1\n      pop\n        /* \"https://github.com/smartcontractkit/chainlink/blob/develop/contracts/src/v0.6/ChainlinkClient.sol\":4339:4354  pendingRequests */\n      0x05\n        /* \"https://github.com/smartcontractkit/chainlink/blob/develop/contracts/src/v0.6/ChainlinkClient.sol\":4339:4366  pendingRequests[_requestId] */\n      0x00\n        /* \"https://github.com/smartcontractkit/chainlink/blob/develop/contracts/src/v0.6/ChainlinkClient.sol\":4355:4365  _requestId */\n      dup7\n        /* \"https://github.com/smartcontractkit/chainlink/blob/develop/contracts/src/v0.6/ChainlinkClient.sol\":4339:4366  pendingRequests[_requestId] */\n      dup2\n      mstore\n      0x20\n      add\n      swap1\n      dup2\n      mstore\n      0x20\n      add\n      0x00\n      keccak256\n      0x00\n        /* \"https://github.com/smartcontractkit/chainlink/blob/develop/contracts/src/v0.6/ChainlinkClient.sol\":4332:4366  delete pendingRequests[_requestId] */\n      0x0100\n      exp\n      dup2\n      sload\n      swap1\n      0xffffffffffffffffffffffffffffffffffffffff\n      mul\n      not\n      and\n      swap1\n      sstore\n        /* \"https://github.com/smartcontractkit/chainlink/blob/develop/contracts/src/v0.6/ChainlinkClient.sol\":4396:4406  _requestId */\n      dup5\n        /* \"https://github.com/smartcontractkit/chainlink/blob/develop/contracts/src/v0.6/ChainlinkClient.sol\":4377:4407  ChainlinkCancelled(_requestId) */\n      0xe1fe3afa0f7f761ff0a8b89086790efd5140d2907ebd5b7ff6bfcb5e075fd4c5\n      mload(0x40)\n      mload(0x40)\n      dup1\n      swap2\n      sub\n      swap1\n      log2\n        /* \"https://github.com/smartcontractkit/chainlink/blob/develop/contracts/src/v0.6/ChainlinkClient.sol\":4413:4422  requested */\n      dup1\n        /* \"https://github.com/smartcontractkit/chainlink/blob/develop/contracts/src/v0.6/ChainlinkClient.sol\":4413:4442  requested.cancelOracleRequest */\n      0xffffffffffffffffffffffffffffffffffffffff\n      and\n      0x6ee4d553\n        /* \"https://github.com/smartcontractkit/chainlink/blob/develop/contracts/src/v0.6/ChainlinkClient.sol\":4443:4453  _requestId */\n      dup7\n        /* \"https://github.com/smartcontractkit/chainlink/blob/develop/contracts/src/v0.6/ChainlinkClient.sol\":4455:4463  _payment */\n      dup7\n        /* \"https://github.com/smartcontractkit/chainlink/blob/develop/contracts/src/v0.6/ChainlinkClient.sol\":4465:4478  _callbackFunc */\n      dup7\n        /* \"https://github.com/smartcontractkit/chainlink/blob/develop/contracts/src/v0.6/ChainlinkClient.sol\":4480:4491  _expiration */\n      dup7\n        /* \"https://github.com/smartcontractkit/chainlink/blob/develop/contracts/src/v0.6/ChainlinkClient.sol\":4413:4492  requested.cancelOracleRequest(_requestId, _payment, _callbackFunc, _expiration) */\n      mload(0x40)\n      dup6\n      0xffffffff\n      and\n      0xe0\n      shl\n      dup2\n      mstore\n      0x04\n      add\n      dup1\n      dup6\n      dup2\n      mstore\n      0x20\n      add\n      dup5\n      dup2\n      mstore\n      0x20\n      add\n      dup4\n      not(0xffffffffffffffffffffffffffffffffffffffffffffffffffffffff)\n      and\n      dup2\n      mstore\n      0x20\n      add\n      dup3\n      dup2\n      mstore\n      0x20\n      add\n      swap5\n      pop\n      pop\n      pop\n      pop\n      pop\n      0x00\n      mload(0x40)\n      dup1\n      dup4\n      sub\n      dup2\n      0x00\n      dup8\n      dup1\n      extcodesize\n      iszero\n      dup1\n      iszero\n      tag_90\n      jumpi\n      0x00\n      dup1\n      revert\n    tag_90:\n      pop\n      gas\n      call\n      iszero\n      dup1\n      iszero\n      tag_92\n      jumpi\n      returndatasize\n      0x00\n      dup1\n      returndatacopy\n      revert(0x00, returndatasize)\n    tag_92:\n      pop\n      pop\n      pop\n      pop\n        /* \"https://github.com/smartcontractkit/chainlink/blob/develop/contracts/src/v0.6/ChainlinkClient.sol\":4080:4497  function cancelChainlinkRequest(... */\n      pop\n      pop\n      pop\n      pop\n      pop\n      jump\t// out\n        /* \"https://github.com/smartcontractkit/chainlink/blob/develop/contracts/src/v0.6/Chainlink.sol\":998:1363  function initialize(... */\n    tag_68:\n        /* \"https://github.com/smartcontractkit/chainlink/blob/develop/contracts/src/v0.6/Chainlink.sol\":1147:1171  Chainlink.Request memory */\n      tag_93\n      tag_44\n      jump\t// in\n    tag_93:\n        /* \"https://github.com/smartcontractkit/chainlink/blob/develop/contracts/src/v0.6/Chainlink.sol\":1179:1228  BufferChainlink.init(self.buf, defaultBufferSize) */\n      tag_95\n        /* \"https://github.com/smartcontractkit/chainlink/blob/develop/contracts/src/v0.6/Chainlink.sol\":1200:1204  self */\n      dup6\n        /* \"https://github.com/smartcontractkit/chainlink/blob/develop/contracts/src/v0.6/Chainlink.sol\":1200:1208  self.buf */\n      0x80\n      add\n      mload\n        /* \"https://github.com/smartcontractkit/chainlink/blob/develop/contracts/src/v0.6/Chainlink.sol\":365:368  256 */\n      0x0100\n        /* \"https://github.com/smartcontractkit/chainlink/blob/develop/contracts/src/v0.6/Chainlink.sol\":1179:1199  BufferChainlink.init */\n      tag_96\n        /* \"https://github.com/smartcontractkit/chainlink/blob/develop/contracts/src/v0.6/Chainlink.sol\":1179:1228  BufferChainlink.init(self.buf, defaultBufferSize) */\n      jump\t// in\n    tag_95:\n      pop\n        /* \"https://github.com/smartcontractkit/chainlink/blob/develop/contracts/src/v0.6/Chainlink.sol\":1244:1247  _id */\n      dup4\n        /* \"https://github.com/smartcontractkit/chainlink/blob/develop/contracts/src/v0.6/Chainlink.sol\":1234:1238  self */\n      dup6\n        /* \"https://github.com/smartcontractkit/chainlink/blob/develop/contracts/src/v0.6/Chainlink.sol\":1234:1241  self.id */\n      0x00\n      add\n        /* \"https://github.com/smartcontractkit/chainlink/blob/develop/contracts/src/v0.6/Chainlink.sol\":1234:1247  self.id = _id */\n      dup2\n      dup2\n      mstore\n      pop\n      pop\n        /* \"https://github.com/smartcontractkit/chainlink/blob/develop/contracts/src/v0.6/Chainlink.sol\":1276:1292  _callbackAddress */\n      dup3\n        /* \"https://github.com/smartcontractkit/chainlink/blob/develop/contracts/src/v0.6/Chainlink.sol\":1253:1257  self */\n      dup6\n        /* \"https://github.com/smartcontractkit/chainlink/blob/develop/contracts/src/v0.6/Chainlink.sol\":1253:1273  self.callbackAddress */\n      0x20\n      add\n        /* \"https://github.com/smartcontractkit/chainlink/blob/develop/contracts/src/v0.6/Chainlink.sol\":1253:1292  self.callbackAddress = _callbackAddress */\n      swap1\n      0xffffffffffffffffffffffffffffffffffffffff\n      and\n      swap1\n      dup2\n      0xffffffffffffffffffffffffffffffffffffffff\n      and\n      dup2\n      mstore\n      pop\n      pop\n        /* \"https://github.com/smartcontractkit/chainlink/blob/develop/contracts/src/v0.6/Chainlink.sol\":1324:1341  _callbackFunction */\n      dup2\n        /* \"https://github.com/smartcontractkit/chainlink/blob/develop/contracts/src/v0.6/Chainlink.sol\":1298:1302  self */\n      dup6\n        /* \"https://github.com/smartcontractkit/chainlink/blob/develop/contracts/src/v0.6/Chainlink.sol\":1298:1321  self.callbackFunctionId */\n      0x40\n      add\n        /* \"https://github.com/smartcontractkit/chainlink/blob/develop/contracts/src/v0.6/Chainlink.sol\":1298:1341  self.callbackFunctionId = _callbackFunction */\n      swap1\n      not(0xffffffffffffffffffffffffffffffffffffffffffffffffffffffff)\n      and\n      swap1\n      dup2\n      not(0xffffffffffffffffffffffffffffffffffffffffffffffffffffffff)\n      and\n      dup2\n      mstore\n      pop\n      pop\n        /* \"https://github.com/smartcontractkit/chainlink/blob/develop/contracts/src/v0.6/Chainlink.sol\":1354:1358  self */\n      dup5\n        /* \"https://github.com/smartcontractkit/chainlink/blob/develop/contracts/src/v0.6/Chainlink.sol\":1347:1358  return self */\n      swap1\n      pop\n        /* \"https://github.com/smartcontractkit/chainlink/blob/develop/contracts/src/v0.6/Chainlink.sol\":998:1363  function initialize(... */\n      swap5\n      swap4\n      pop\n      pop\n      pop\n      pop\n      jump\t// out\n        /* \"https://github.com/smartcontractkit/chainlink/blob/develop/contracts/src/v0.6/vendor/CBORChainlink.sol\":2756:2960  function encodeString(BufferChainlink.buffer memory buf, string memory value) internal pure {... */\n    tag_71:\n        /* \"https://github.com/smartcontractkit/chainlink/blob/develop/contracts/src/v0.6/vendor/CBORChainlink.sol\":2854:2925  encodeFixedNumeric(buf, MAJOR_TYPE_STRING, uint64(bytes(value).length)) */\n      tag_98\n        /* \"https://github.com/smartcontractkit/chainlink/blob/develop/contracts/src/v0.6/vendor/CBORChainlink.sol\":2873:2876  buf */\n      dup3\n        /* \"https://github.com/smartcontractkit/chainlink/blob/develop/contracts/src/v0.6/vendor/CBORChainlink.sol\":386:387  3 */\n      0x03\n        /* \"https://github.com/smartcontractkit/chainlink/blob/develop/contracts/src/v0.6/vendor/CBORChainlink.sol\":2910:2915  value */\n      dup4\n        /* \"https://github.com/smartcontractkit/chainlink/blob/develop/contracts/src/v0.6/vendor/CBORChainlink.sol\":2904:2923  bytes(value).length */\n      mload\n        /* \"https://github.com/smartcontractkit/chainlink/blob/develop/contracts/src/v0.6/vendor/CBORChainlink.sol\":2854:2872  encodeFixedNumeric */\n      tag_99\n        /* \"https://github.com/smartcontractkit/chainlink/blob/develop/contracts/src/v0.6/vendor/CBORChainlink.sol\":2854:2925  encodeFixedNumeric(buf, MAJOR_TYPE_STRING, uint64(bytes(value).length)) */\n      jump\t// in\n    tag_98:\n        /* \"https://github.com/smartcontractkit/chainlink/blob/develop/contracts/src/v0.6/vendor/CBORChainlink.sol\":2931:2955  buf.append(bytes(value)) */\n      tag_100\n        /* \"https://github.com/smartcontractkit/chainlink/blob/develop/contracts/src/v0.6/vendor/CBORChainlink.sol\":2948:2953  value */\n      dup2\n        /* \"https://github.com/smartcontractkit/chainlink/blob/develop/contracts/src/v0.6/vendor/CBORChainlink.sol\":2931:2934  buf */\n      dup4\n        /* \"https://github.com/smartcontractkit/chainlink/blob/develop/contracts/src/v0.6/vendor/CBORChainlink.sol\":2931:2941  buf.append */\n      tag_101\n      swap1\n        /* \"https://github.com/smartcontractkit/chainlink/blob/develop/contracts/src/v0.6/vendor/CBORChainlink.sol\":2931:2955  buf.append(bytes(value)) */\n      swap2\n      swap1\n      0xffffffff\n      and\n      jump\t// in\n    tag_100:\n      pop\n        /* \"https://github.com/smartcontractkit/chainlink/blob/develop/contracts/src/v0.6/vendor/CBORChainlink.sol\":2756:2960  function encodeString(BufferChainlink.buffer memory buf, string memory value) internal pure {... */\n      pop\n      pop\n      jump\t// out\n        /* \"https://github.com/smartcontractkit/chainlink/blob/develop/contracts/src/v0.6/vendor/CBORChainlink.sol\":1704:2132  function encodeInt(BufferChainlink.buffer memory buf, int value) internal pure {... */\n    tag_76:\n        /* \"https://github.com/smartcontractkit/chainlink/blob/develop/contracts/src/v0.6/vendor/CBORChainlink.sol\":1800:1820  -0x10000000000000000 */\n      0xffffffffffffffffffffffffffffffffffffffffffffffff0000000000000000\n        /* \"https://github.com/smartcontractkit/chainlink/blob/develop/contracts/src/v0.6/vendor/CBORChainlink.sol\":1792:1797  value */\n      dup2\n        /* \"https://github.com/smartcontractkit/chainlink/blob/develop/contracts/src/v0.6/vendor/CBORChainlink.sol\":1792:1820  value < -0x10000000000000000 */\n      slt\n        /* \"https://github.com/smartcontractkit/chainlink/blob/develop/contracts/src/v0.6/vendor/CBORChainlink.sol\":1789:2128  if(value < -0x10000000000000000) {... */\n      iszero\n      tag_103\n      jumpi\n        /* \"https://github.com/smartcontractkit/chainlink/blob/develop/contracts/src/v0.6/vendor/CBORChainlink.sol\":1830:1860  encodeSignedBigNum(buf, value) */\n      tag_104\n        /* \"https://github.com/smartcontractkit/chainlink/blob/develop/contracts/src/v0.6/vendor/CBORChainlink.sol\":1849:1852  buf */\n      dup3\n        /* \"https://github.com/smartcontractkit/chainlink/blob/develop/contracts/src/v0.6/vendor/CBORChainlink.sol\":1854:1859  value */\n      dup3\n        /* \"https://github.com/smartcontractkit/chainlink/blob/develop/contracts/src/v0.6/vendor/CBORChainlink.sol\":1830:1848  encodeSignedBigNum */\n      tag_105\n        /* \"https://github.com/smartcontractkit/chainlink/blob/develop/contracts/src/v0.6/vendor/CBORChainlink.sol\":1830:1860  encodeSignedBigNum(buf, value) */\n      jump\t// in\n    tag_104:\n        /* \"https://github.com/smartcontractkit/chainlink/blob/develop/contracts/src/v0.6/vendor/CBORChainlink.sol\":1789:2128  if(value < -0x10000000000000000) {... */\n      jump(tag_106)\n    tag_103:\n        /* \"https://github.com/smartcontractkit/chainlink/blob/develop/contracts/src/v0.6/vendor/CBORChainlink.sol\":1884:1902  0xFFFFFFFFFFFFFFFF */\n      0xffffffffffffffff\n        /* \"https://github.com/smartcontractkit/chainlink/blob/develop/contracts/src/v0.6/vendor/CBORChainlink.sol\":1876:1881  value */\n      dup2\n        /* \"https://github.com/smartcontractkit/chainlink/blob/develop/contracts/src/v0.6/vendor/CBORChainlink.sol\":1876:1902  value > 0xFFFFFFFFFFFFFFFF */\n      sgt\n        /* \"https://github.com/smartcontractkit/chainlink/blob/develop/contracts/src/v0.6/vendor/CBORChainlink.sol\":1873:2128  if(value > 0xFFFFFFFFFFFFFFFF) {... */\n      iszero\n      tag_107\n      jumpi\n        /* \"https://github.com/smartcontractkit/chainlink/blob/develop/contracts/src/v0.6/vendor/CBORChainlink.sol\":1912:1942  encodeBigNum(buf, uint(value)) */\n      tag_108\n        /* \"https://github.com/smartcontractkit/chainlink/blob/develop/contracts/src/v0.6/vendor/CBORChainlink.sol\":1925:1928  buf */\n      dup3\n        /* \"https://github.com/smartcontractkit/chainlink/blob/develop/contracts/src/v0.6/vendor/CBORChainlink.sol\":1935:1940  value */\n      dup3\n        /* \"https://github.com/smartcontractkit/chainlink/blob/develop/contracts/src/v0.6/vendor/CBORChainlink.sol\":1912:1924  encodeBigNum */\n      tag_109\n        /* \"https://github.com/smartcontractkit/chainlink/blob/develop/contracts/src/v0.6/vendor/CBORChainlink.sol\":1912:1942  encodeBigNum(buf, uint(value)) */\n      jump\t// in\n    tag_108:\n        /* \"https://github.com/smartcontractkit/chainlink/blob/develop/contracts/src/v0.6/vendor/CBORChainlink.sol\":1873:2128  if(value > 0xFFFFFFFFFFFFFFFF) {... */\n      jump(tag_110)\n    tag_107:\n        /* \"https://github.com/smartcontractkit/chainlink/blob/develop/contracts/src/v0.6/vendor/CBORChainlink.sol\":1967:1968  0 */\n      0x00\n        /* \"https://github.com/smartcontractkit/chainlink/blob/develop/contracts/src/v0.6/vendor/CBORChainlink.sol\":1958:1963  value */\n      dup2\n        /* \"https://github.com/smartcontractkit/chainlink/blob/develop/contracts/src/v0.6/vendor/CBORChainlink.sol\":1958:1968  value >= 0 */\n      slt\n        /* \"https://github.com/smartcontractkit/chainlink/blob/develop/contracts/src/v0.6/vendor/CBORChainlink.sol\":1955:2128  if(value >= 0) {... */\n      tag_111\n      jumpi\n        /* \"https://github.com/smartcontractkit/chainlink/blob/develop/contracts/src/v0.6/vendor/CBORChainlink.sol\":1978:2032  encodeFixedNumeric(buf, MAJOR_TYPE_INT, uint64(value)) */\n      tag_112\n        /* \"https://github.com/smartcontractkit/chainlink/blob/develop/contracts/src/v0.6/vendor/CBORChainlink.sol\":1997:2000  buf */\n      dup3\n        /* \"https://github.com/smartcontractkit/chainlink/blob/develop/contracts/src/v0.6/vendor/CBORChainlink.sol\":237:238  0 */\n      0x00\n        /* \"https://github.com/smartcontractkit/chainlink/blob/develop/contracts/src/v0.6/vendor/CBORChainlink.sol\":2025:2030  value */\n      dup4\n        /* \"https://github.com/smartcontractkit/chainlink/blob/develop/contracts/src/v0.6/vendor/CBORChainlink.sol\":1978:1996  encodeFixedNumeric */\n      tag_99\n        /* \"https://github.com/smartcontractkit/chainlink/blob/develop/contracts/src/v0.6/vendor/CBORChainlink.sol\":1978:2032  encodeFixedNumeric(buf, MAJOR_TYPE_INT, uint64(value)) */\n      jump\t// in\n    tag_112:\n        /* \"https://github.com/smartcontractkit/chainlink/blob/develop/contracts/src/v0.6/vendor/CBORChainlink.sol\":1955:2128  if(value >= 0) {... */\n      jump(tag_113)\n    tag_111:\n        /* \"https://github.com/smartcontractkit/chainlink/blob/develop/contracts/src/v0.6/vendor/CBORChainlink.sol\":2053:2121  encodeFixedNumeric(buf, MAJOR_TYPE_NEGATIVE_INT, uint64(-1 - value)) */\n      tag_114\n        /* \"https://github.com/smartcontractkit/chainlink/blob/develop/contracts/src/v0.6/vendor/CBORChainlink.sol\":2072:2075  buf */\n      dup3\n        /* \"https://github.com/smartcontractkit/chainlink/blob/develop/contracts/src/v0.6/vendor/CBORChainlink.sol\":291:292  1 */\n      0x01\n        /* \"https://github.com/smartcontractkit/chainlink/blob/develop/contracts/src/v0.6/vendor/CBORChainlink.sol\":2114:2119  value */\n      dup4\n        /* \"https://github.com/smartcontractkit/chainlink/blob/develop/contracts/src/v0.6/vendor/CBORChainlink.sol\":2109:2111  -1 */\n      0xffffffffffffffffffffffffffffffffffffffffffffffffffffffffffffffff\n        /* \"https://github.com/smartcontractkit/chainlink/blob/develop/contracts/src/v0.6/vendor/CBORChainlink.sol\":2109:2119  -1 - value */\n      sub\n        /* \"https://github.com/smartcontractkit/chainlink/blob/develop/contracts/src/v0.6/vendor/CBORChainlink.sol\":2053:2071  encodeFixedNumeric */\n      tag_99\n        /* \"https://github.com/smartcontractkit/chainlink/blob/develop/contracts/src/v0.6/vendor/CBORChainlink.sol\":2053:2121  encodeFixedNumeric(buf, MAJOR_TYPE_NEGATIVE_INT, uint64(-1 - value)) */\n      jump\t// in\n    tag_114:\n        /* \"https://github.com/smartcontractkit/chainlink/blob/develop/contracts/src/v0.6/vendor/CBORChainlink.sol\":1955:2128  if(value >= 0) {... */\n    tag_113:\n        /* \"https://github.com/smartcontractkit/chainlink/blob/develop/contracts/src/v0.6/vendor/CBORChainlink.sol\":1873:2128  if(value > 0xFFFFFFFFFFFFFFFF) {... */\n    tag_110:\n        /* \"https://github.com/smartcontractkit/chainlink/blob/develop/contracts/src/v0.6/vendor/CBORChainlink.sol\":1789:2128  if(value < -0x10000000000000000) {... */\n    tag_106:\n        /* \"https://github.com/smartcontractkit/chainlink/blob/develop/contracts/src/v0.6/vendor/CBORChainlink.sol\":1704:2132  function encodeInt(BufferChainlink.buffer memory buf, int value) internal pure {... */\n      pop\n      pop\n      jump\t// out\n        /* \"https://github.com/smartcontractkit/chainlink/blob/develop/contracts/src/v0.6/ChainlinkClient.sol\":7564:8091  function encodeRequest(Chainlink.Request memory _req)... */\n    tag_79:\n        /* \"https://github.com/smartcontractkit/chainlink/blob/develop/contracts/src/v0.6/ChainlinkClient.sol\":7652:7664  bytes memory */\n      0x60\n        /* \"https://github.com/smartcontractkit/chainlink/blob/develop/contracts/src/v0.6/ChainlinkClient.sol\":7711:7740  oracle.oracleRequest.selector */\n      shl(0xe0, 0x40429946)\n        /* \"https://github.com/smartcontractkit/chainlink/blob/develop/contracts/src/v0.6/ChainlinkClient.sol\":719:720  0 */\n      0x00\n        /* \"https://github.com/smartcontractkit/chainlink/blob/develop/contracts/src/v0.6/ChainlinkClient.sol\":663:664  0 */\n      dup1\n        /* \"https://github.com/smartcontractkit/chainlink/blob/develop/contracts/src/v0.6/ChainlinkClient.sol\":7961:7965  _req */\n      dup5\n        /* \"https://github.com/smartcontractkit/chainlink/blob/develop/contracts/src/v0.6/ChainlinkClient.sol\":7961:7968  _req.id */\n      0x00\n      add\n      mload\n        /* \"https://github.com/smartcontractkit/chainlink/blob/develop/contracts/src/v0.6/ChainlinkClient.sol\":7976:7980  _req */\n      dup6\n        /* \"https://github.com/smartcontractkit/chainlink/blob/develop/contracts/src/v0.6/ChainlinkClient.sol\":7976:7996  _req.callbackAddress */\n      0x20\n      add\n      mload\n        /* \"https://github.com/smartcontractkit/chainlink/blob/develop/contracts/src/v0.6/ChainlinkClient.sol\":8004:8008  _req */\n      dup7\n        /* \"https://github.com/smartcontractkit/chainlink/blob/develop/contracts/src/v0.6/ChainlinkClient.sol\":8004:8027  _req.callbackFunctionId */\n      0x40\n      add\n      mload\n        /* \"https://github.com/smartcontractkit/chainlink/blob/develop/contracts/src/v0.6/ChainlinkClient.sol\":8035:8039  _req */\n      dup8\n        /* \"https://github.com/smartcontractkit/chainlink/blob/develop/contracts/src/v0.6/ChainlinkClient.sol\":8035:8045  _req.nonce */\n      0x60\n      add\n      mload\n        /* \"https://github.com/smartcontractkit/chainlink/blob/develop/contracts/src/v0.6/ChainlinkClient.sol\":765:766  1 */\n      0x01\n        /* \"https://github.com/smartcontractkit/chainlink/blob/develop/contracts/src/v0.6/ChainlinkClient.sol\":8073:8077  _req */\n      dup10\n        /* \"https://github.com/smartcontractkit/chainlink/blob/develop/contracts/src/v0.6/ChainlinkClient.sol\":8073:8081  _req.buf */\n      0x80\n      add\n      mload\n        /* \"https://github.com/smartcontractkit/chainlink/blob/develop/contracts/src/v0.6/ChainlinkClient.sol\":8073:8085  _req.buf.buf */\n      0x00\n      add\n      mload\n        /* \"https://github.com/smartcontractkit/chainlink/blob/develop/contracts/src/v0.6/ChainlinkClient.sol\":7681:8086  abi.encodeWithSelector(... */\n      add(0x24, mload(0x40))\n      dup1\n      dup10\n      0xffffffffffffffffffffffffffffffffffffffff\n      and\n      dup2\n      mstore\n      0x20\n      add\n      dup9\n      dup2\n      mstore\n      0x20\n      add\n      dup8\n      dup2\n      mstore\n      0x20\n      add\n      dup7\n      0xffffffffffffffffffffffffffffffffffffffff\n      and\n      dup2\n      mstore\n      0x20\n      add\n      dup6\n      not(0xffffffffffffffffffffffffffffffffffffffffffffffffffffffff)\n      and\n      dup2\n      mstore\n      0x20\n      add\n      dup5\n      dup2\n      mstore\n      0x20\n      add\n      dup4\n      dup2\n      mstore\n      0x20\n      add\n      dup1\n      0x20\n      add\n      dup3\n      dup2\n      sub\n      dup3\n      mstore\n      dup4\n      dup2\n      dup2\n      mload\n      dup2\n      mstore\n      0x20\n      add\n      swap2\n      pop\n      dup1\n      mload\n      swap1\n      0x20\n      add\n      swap1\n      dup1\n      dup4\n      dup4\n      0x00\n    tag_116:\n      dup4\n      dup2\n      lt\n      iszero\n      tag_118\n      jumpi\n      dup1\n      dup3\n      add\n      mload\n      dup2\n      dup5\n      add\n      mstore\n      0x20\n      dup2\n      add\n      swap1\n      pop\n      jump(tag_116)\n    tag_118:\n      pop\n      pop\n      pop\n      pop\n      swap1\n      pop\n      swap1\n      dup2\n      add\n      swap1\n      0x1f\n      and\n      dup1\n      iszero\n      tag_119\n      jumpi\n      dup1\n      dup3\n      sub\n      dup1\n      mload\n      0x01\n      dup4\n      0x20\n      sub\n      0x0100\n      exp\n      sub\n      not\n      and\n      dup2\n      mstore\n      0x20\n      add\n      swap2\n      pop\n    tag_119:\n      pop\n      swap10\n      pop\n      pop\n      pop\n      pop\n      pop\n      pop\n      pop\n      pop\n      pop\n      pop\n      mload(0x40)\n      0x20\n      dup2\n      dup4\n      sub\n      sub\n      dup2\n      mstore\n      swap1\n      0x40\n      mstore\n      swap1\n      not(0xffffffffffffffffffffffffffffffffffffffffffffffffffffffff)\n      and\n      0x20\n      dup3\n      add\n      dup1\n      mload\n      0xffffffffffffffffffffffffffffffffffffffffffffffffffffffff\n      dup4\n      dup2\n      dup4\n      and\n      or\n      dup4\n      mstore\n      pop\n      pop\n      pop\n      pop\n        /* \"https://github.com/smartcontractkit/chainlink/blob/develop/contracts/src/v0.6/ChainlinkClient.sol\":7674:8086  return abi.encodeWithSelector(... */\n      swap1\n      pop\n        /* \"https://github.com/smartcontractkit/chainlink/blob/develop/contracts/src/v0.6/ChainlinkClient.sol\":7564:8091  function encodeRequest(Chainlink.Request memory _req)... */\n      swap2\n      swap1\n      pop\n      jump\t// out\n        /* \"https://github.com/smartcontractkit/chainlink/blob/develop/contracts/src/v0.6/vendor/BufferChainlink.sol\":982:1377  function init(buffer memory buf, uint capacity) internal pure returns(buffer memory) {... */\n    tag_96:\n        /* \"https://github.com/smartcontractkit/chainlink/blob/develop/contracts/src/v0.6/vendor/BufferChainlink.sol\":1052:1065  buffer memory */\n      tag_120\n      tag_121\n      jump\t// in\n    tag_120:\n        /* \"https://github.com/smartcontractkit/chainlink/blob/develop/contracts/src/v0.6/vendor/BufferChainlink.sol\":1094:1095  0 */\n      0x00\n        /* \"https://github.com/smartcontractkit/chainlink/blob/develop/contracts/src/v0.6/vendor/BufferChainlink.sol\":1088:1090  32 */\n      0x20\n        /* \"https://github.com/smartcontractkit/chainlink/blob/develop/contracts/src/v0.6/vendor/BufferChainlink.sol\":1077:1085  capacity */\n      dup4\n        /* \"https://github.com/smartcontractkit/chainlink/blob/develop/contracts/src/v0.6/vendor/BufferChainlink.sol\":1077:1090  capacity % 32 */\n      dup2\n      tag_123\n      jumpi\n      invalid\n    tag_123:\n      mod\n        /* \"https://github.com/smartcontractkit/chainlink/blob/develop/contracts/src/v0.6/vendor/BufferChainlink.sol\":1077:1095  capacity % 32 != 0 */\n      eq\n        /* \"https://github.com/smartcontractkit/chainlink/blob/develop/contracts/src/v0.6/vendor/BufferChainlink.sol\":1073:1144  if (capacity % 32 != 0) {... */\n      tag_124\n      jumpi\n        /* \"https://github.com/smartcontractkit/chainlink/blob/develop/contracts/src/v0.6/vendor/BufferChainlink.sol\":1134:1136  32 */\n      0x20\n        /* \"https://github.com/smartcontractkit/chainlink/blob/develop/contracts/src/v0.6/vendor/BufferChainlink.sol\":1123:1131  capacity */\n      dup3\n        /* \"https://github.com/smartcontractkit/chainlink/blob/develop/contracts/src/v0.6/vendor/BufferChainlink.sol\":1123:1136  capacity % 32 */\n      dup2\n      tag_125\n      jumpi\n      invalid\n    tag_125:\n      mod\n        /* \"https://github.com/smartcontractkit/chainlink/blob/develop/contracts/src/v0.6/vendor/BufferChainlink.sol\":1117:1119  32 */\n      0x20\n        /* \"https://github.com/smartcontractkit/chainlink/blob/develop/contracts/src/v0.6/vendor/BufferChainlink.sol\":1117:1137  32 - (capacity % 32) */\n      sub\n        /* \"https://github.com/smartcontractkit/chainlink/blob/develop/contracts/src/v0.6/vendor/BufferChainlink.sol\":1105:1137  capacity += 32 - (capacity % 32) */\n      dup3\n      add\n      swap2\n      pop\n        /* \"https://github.com/smartcontractkit/chainlink/blob/develop/contracts/src/v0.6/vendor/BufferChainlink.sol\":1073:1144  if (capacity % 32 != 0) {... */\n    tag_124:\n        /* \"https://github.com/smartcontractkit/chainlink/blob/develop/contracts/src/v0.6/vendor/BufferChainlink.sol\":1206:1214  capacity */\n      dup2\n        /* \"https://github.com/smartcontractkit/chainlink/blob/develop/contracts/src/v0.6/vendor/BufferChainlink.sol\":1191:1194  buf */\n      dup4\n        /* \"https://github.com/smartcontractkit/chainlink/blob/develop/contracts/src/v0.6/vendor/BufferChainlink.sol\":1191:1203  buf.capacity */\n      0x20\n      add\n        /* \"https://github.com/smartcontractkit/chainlink/blob/develop/contracts/src/v0.6/vendor/BufferChainlink.sol\":1191:1214  buf.capacity = capacity */\n      dup2\n      dup2\n      mstore\n      pop\n      pop\n        /* \"https://github.com/smartcontractkit/chainlink/blob/develop/contracts/src/v0.6/vendor/BufferChainlink.sol\":1254:1258  0x40 */\n      0x40\n        /* \"https://github.com/smartcontractkit/chainlink/blob/develop/contracts/src/v0.6/vendor/BufferChainlink.sol\":1248:1259  mload(0x40) */\n      mload\n        /* \"https://github.com/smartcontractkit/chainlink/blob/develop/contracts/src/v0.6/vendor/BufferChainlink.sol\":1278:1281  ptr */\n      dup1\n        /* \"https://github.com/smartcontractkit/chainlink/blob/develop/contracts/src/v0.6/vendor/BufferChainlink.sol\":1273:1276  buf */\n      dup5\n        /* \"https://github.com/smartcontractkit/chainlink/blob/develop/contracts/src/v0.6/vendor/BufferChainlink.sol\":1266:1282  mstore(buf, ptr) */\n      mstore\n        /* \"https://github.com/smartcontractkit/chainlink/blob/develop/contracts/src/v0.6/vendor/BufferChainlink.sol\":1301:1302  0 */\n      0x00\n        /* \"https://github.com/smartcontractkit/chainlink/blob/develop/contracts/src/v0.6/vendor/BufferChainlink.sol\":1296:1299  ptr */\n      dup2\n        /* \"https://github.com/smartcontractkit/chainlink/blob/develop/contracts/src/v0.6/vendor/BufferChainlink.sol\":1289:1303  mstore(ptr, 0) */\n      mstore\n        /* \"https://github.com/smartcontractkit/chainlink/blob/develop/contracts/src/v0.6/vendor/BufferChainlink.sol\":1340:1348  capacity */\n      dup3\n        /* \"https://github.com/smartcontractkit/chainlink/blob/develop/contracts/src/v0.6/vendor/BufferChainlink.sol\":1335:1338  ptr */\n      dup2\n        /* \"https://github.com/smartcontractkit/chainlink/blob/develop/contracts/src/v0.6/vendor/BufferChainlink.sol\":1331:1349  add(ptr, capacity) */\n      add\n        /* \"https://github.com/smartcontractkit/chainlink/blob/develop/contracts/src/v0.6/vendor/BufferChainlink.sol\":1327:1329  32 */\n      0x20\n        /* \"https://github.com/smartcontractkit/chainlink/blob/develop/contracts/src/v0.6/vendor/BufferChainlink.sol\":1323:1350  add(32, add(ptr, capacity)) */\n      add\n        /* \"https://github.com/smartcontractkit/chainlink/blob/develop/contracts/src/v0.6/vendor/BufferChainlink.sol\":1317:1321  0x40 */\n      0x40\n        /* \"https://github.com/smartcontractkit/chainlink/blob/develop/contracts/src/v0.6/vendor/BufferChainlink.sol\":1310:1351  mstore(0x40, add(32, add(ptr, capacity))) */\n      mstore\n        /* \"https://github.com/smartcontractkit/chainlink/blob/develop/contracts/src/v0.6/vendor/BufferChainlink.sol\":1229:1357  {... */\n      pop\n        /* \"https://github.com/smartcontractkit/chainlink/blob/develop/contracts/src/v0.6/vendor/BufferChainlink.sol\":1369:1372  buf */\n      dup3\n        /* \"https://github.com/smartcontractkit/chainlink/blob/develop/contracts/src/v0.6/vendor/BufferChainlink.sol\":1362:1372  return buf */\n      swap1\n      pop\n        /* \"https://github.com/smartcontractkit/chainlink/blob/develop/contracts/src/v0.6/vendor/BufferChainlink.sol\":982:1377  function init(buffer memory buf, uint capacity) internal pure returns(buffer memory) {... */\n      swap3\n      swap2\n      pop\n      pop\n      jump\t// out\n        /* \"https://github.com/smartcontractkit/chainlink/blob/develop/contracts/src/v0.6/vendor/CBORChainlink.sol\":685:1307  function encodeFixedNumeric(BufferChainlink.buffer memory buf, uint8 major, uint64 value) private pure {... */\n    tag_99:\n        /* \"https://github.com/smartcontractkit/chainlink/blob/develop/contracts/src/v0.6/vendor/CBORChainlink.sol\":806:808  23 */\n      0x17\n        /* \"https://github.com/smartcontractkit/chainlink/blob/develop/contracts/src/v0.6/vendor/CBORChainlink.sol\":797:802  value */\n      dup2\n        /* \"https://github.com/smartcontractkit/chainlink/blob/develop/contracts/src/v0.6/vendor/CBORChainlink.sol\":797:808  value <= 23 */\n      0xffffffffffffffff\n      and\n      gt\n        /* \"https://github.com/smartcontractkit/chainlink/blob/develop/contracts/src/v0.6/vendor/CBORChainlink.sol\":794:1303  if(value <= 23) {... */\n      tag_127\n      jumpi\n        /* \"https://github.com/smartcontractkit/chainlink/blob/develop/contracts/src/v0.6/vendor/CBORChainlink.sol\":818:862  buf.appendUint8(uint8((major << 5) | value)) */\n      tag_128\n        /* \"https://github.com/smartcontractkit/chainlink/blob/develop/contracts/src/v0.6/vendor/CBORChainlink.sol\":855:860  value */\n      dup2\n        /* \"https://github.com/smartcontractkit/chainlink/blob/develop/contracts/src/v0.6/vendor/CBORChainlink.sol\":850:851  5 */\n      0x05\n        /* \"https://github.com/smartcontractkit/chainlink/blob/develop/contracts/src/v0.6/vendor/CBORChainlink.sol\":841:846  major */\n      dup5\n        /* \"https://github.com/smartcontractkit/chainlink/blob/develop/contracts/src/v0.6/vendor/CBORChainlink.sol\":841:851  major << 5 */\n      0xff\n      and\n      swap1\n      shl\n        /* \"https://github.com/smartcontractkit/chainlink/blob/develop/contracts/src/v0.6/vendor/CBORChainlink.sol\":840:860  (major << 5) | value */\n      0xff\n      and\n      or\n        /* \"https://github.com/smartcontractkit/chainlink/blob/develop/contracts/src/v0.6/vendor/CBORChainlink.sol\":818:821  buf */\n      dup5\n        /* \"https://github.com/smartcontractkit/chainlink/blob/develop/contracts/src/v0.6/vendor/CBORChainlink.sol\":818:833  buf.appendUint8 */\n      tag_129\n      swap1\n        /* \"https://github.com/smartcontractkit/chainlink/blob/develop/contracts/src/v0.6/vendor/CBORChainlink.sol\":818:862  buf.appendUint8(uint8((major << 5) | value)) */\n      swap2\n      swap1\n      0xffffffff\n      and\n      jump\t// in\n    tag_128:\n      pop\n        /* \"https://github.com/smartcontractkit/chainlink/blob/develop/contracts/src/v0.6/vendor/CBORChainlink.sol\":794:1303  if(value <= 23) {... */\n      jump(tag_130)\n    tag_127:\n        /* \"https://github.com/smartcontractkit/chainlink/blob/develop/contracts/src/v0.6/vendor/CBORChainlink.sol\":887:891  0xFF */\n      0xff\n        /* \"https://github.com/smartcontractkit/chainlink/blob/develop/contracts/src/v0.6/vendor/CBORChainlink.sol\":878:883  value */\n      dup2\n        /* \"https://github.com/smartcontractkit/chainlink/blob/develop/contracts/src/v0.6/vendor/CBORChainlink.sol\":878:891  value <= 0xFF */\n      0xffffffffffffffff\n      and\n      gt\n        /* \"https://github.com/smartcontractkit/chainlink/blob/develop/contracts/src/v0.6/vendor/CBORChainlink.sol\":875:1303  if(value <= 0xFF) {... */\n      tag_131\n      jumpi\n        /* \"https://github.com/smartcontractkit/chainlink/blob/develop/contracts/src/v0.6/vendor/CBORChainlink.sol\":901:942  buf.appendUint8(uint8((major << 5) | 24)) */\n      tag_132\n        /* \"https://github.com/smartcontractkit/chainlink/blob/develop/contracts/src/v0.6/vendor/CBORChainlink.sol\":938:940  24 */\n      0x18\n        /* \"https://github.com/smartcontractkit/chainlink/blob/develop/contracts/src/v0.6/vendor/CBORChainlink.sol\":933:934  5 */\n      0x05\n        /* \"https://github.com/smartcontractkit/chainlink/blob/develop/contracts/src/v0.6/vendor/CBORChainlink.sol\":924:929  major */\n      dup5\n        /* \"https://github.com/smartcontractkit/chainlink/blob/develop/contracts/src/v0.6/vendor/CBORChainlink.sol\":924:934  major << 5 */\n      0xff\n      and\n      swap1\n      shl\n        /* \"https://github.com/smartcontractkit/chainlink/blob/develop/contracts/src/v0.6/vendor/CBORChainlink.sol\":923:940  (major << 5) | 24 */\n      or\n        /* \"https://github.com/smartcontractkit/chainlink/blob/develop/contracts/src/v0.6/vendor/CBORChainlink.sol\":901:904  buf */\n      dup5\n        /* \"https://github.com/smartcontractkit/chainlink/blob/develop/contracts/src/v0.6/vendor/CBORChainlink.sol\":901:916  buf.appendUint8 */\n      tag_129\n      swap1\n        /* \"https://github.com/smartcontractkit/chainlink/blob/develop/contracts/src/v0.6/vendor/CBORChainlink.sol\":901:942  buf.appendUint8(uint8((major << 5) | 24)) */\n      swap2\n      swap1\n      0xffffffff\n      and\n      jump\t// in\n    tag_132:\n      pop\n        /* \"https://github.com/smartcontractkit/chainlink/blob/develop/contracts/src/v0.6/vendor/CBORChainlink.sol\":950:973  buf.appendInt(value, 1) */\n      tag_133\n        /* \"https://github.com/smartcontractkit/chainlink/blob/develop/contracts/src/v0.6/vendor/CBORChainlink.sol\":964:969  value */\n      dup2\n        /* \"https://github.com/smartcontractkit/chainlink/blob/develop/contracts/src/v0.6/vendor/CBORChainlink.sol\":950:973  buf.appendInt(value, 1) */\n      0xffffffffffffffff\n      and\n        /* \"https://github.com/smartcontractkit/chainlink/blob/develop/contracts/src/v0.6/vendor/CBORChainlink.sol\":971:972  1 */\n      0x01\n        /* \"https://github.com/smartcontractkit/chainlink/blob/develop/contracts/src/v0.6/vendor/CBORChainlink.sol\":950:953  buf */\n      dup6\n        /* \"https://github.com/smartcontractkit/chainlink/blob/develop/contracts/src/v0.6/vendor/CBORChainlink.sol\":950:963  buf.appendInt */\n      tag_134\n      swap1\n        /* \"https://github.com/smartcontractkit/chainlink/blob/develop/contracts/src/v0.6/vendor/CBORChainlink.sol\":950:973  buf.appendInt(value, 1) */\n      swap3\n      swap2\n      swap1\n      0xffffffff\n      and\n      jump\t// in\n    tag_133:\n      pop\n        /* \"https://github.com/smartcontractkit/chainlink/blob/develop/contracts/src/v0.6/vendor/CBORChainlink.sol\":875:1303  if(value <= 0xFF) {... */\n      jump(tag_135)\n    tag_131:\n        /* \"https://github.com/smartcontractkit/chainlink/blob/develop/contracts/src/v0.6/vendor/CBORChainlink.sol\":998:1004  0xFFFF */\n      0xffff\n        /* \"https://github.com/smartcontractkit/chainlink/blob/develop/contracts/src/v0.6/vendor/CBORChainlink.sol\":989:994  value */\n      dup2\n        /* \"https://github.com/smartcontractkit/chainlink/blob/develop/contracts/src/v0.6/vendor/CBORChainlink.sol\":989:1004  value <= 0xFFFF */\n      0xffffffffffffffff\n      and\n      gt\n        /* \"https://github.com/smartcontractkit/chainlink/blob/develop/contracts/src/v0.6/vendor/CBORChainlink.sol\":986:1303  if(value <= 0xFFFF) {... */\n      tag_136\n      jumpi\n        /* \"https://github.com/smartcontractkit/chainlink/blob/develop/contracts/src/v0.6/vendor/CBORChainlink.sol\":1014:1055  buf.appendUint8(uint8((major << 5) | 25)) */\n      tag_137\n        /* \"https://github.com/smartcontractkit/chainlink/blob/develop/contracts/src/v0.6/vendor/CBORChainlink.sol\":1051:1053  25 */\n      0x19\n        /* \"https://github.com/smartcontractkit/chainlink/blob/develop/contracts/src/v0.6/vendor/CBORChainlink.sol\":1046:1047  5 */\n      0x05\n        /* \"https://github.com/smartcontractkit/chainlink/blob/develop/contracts/src/v0.6/vendor/CBORChainlink.sol\":1037:1042  major */\n      dup5\n        /* \"https://github.com/smartcontractkit/chainlink/blob/develop/contracts/src/v0.6/vendor/CBORChainlink.sol\":1037:1047  major << 5 */\n      0xff\n      and\n      swap1\n      shl\n        /* \"https://github.com/smartcontractkit/chainlink/blob/develop/contracts/src/v0.6/vendor/CBORChainlink.sol\":1036:1053  (major << 5) | 25 */\n      or\n        /* \"https://github.com/smartcontractkit/chainlink/blob/develop/contracts/src/v0.6/vendor/CBORChainlink.sol\":1014:1017  buf */\n      dup5\n        /* \"https://github.com/smartcontractkit/chainlink/blob/develop/contracts/src/v0.6/vendor/CBORChainlink.sol\":1014:1029  buf.appendUint8 */\n      tag_129\n      swap1\n        /* \"https://github.com/smartcontractkit/chainlink/blob/develop/contracts/src/v0.6/vendor/CBORChainlink.sol\":1014:1055  buf.appendUint8(uint8((major << 5) | 25)) */\n      swap2\n      swap1\n      0xffffffff\n      and\n      jump\t// in\n    tag_137:\n      pop\n        /* \"https://github.com/smartcontractkit/chainlink/blob/develop/contracts/src/v0.6/vendor/CBORChainlink.sol\":1063:1086  buf.appendInt(value, 2) */\n      tag_138\n        /* \"https://github.com/smartcontractkit/chainlink/blob/develop/contracts/src/v0.6/vendor/CBORChainlink.sol\":1077:1082  value */\n      dup2\n        /* \"https://github.com/smartcontractkit/chainlink/blob/develop/contracts/src/v0.6/vendor/CBORChainlink.sol\":1063:1086  buf.appendInt(value, 2) */\n      0xffffffffffffffff\n      and\n        /* \"https://github.com/smartcontractkit/chainlink/blob/develop/contracts/src/v0.6/vendor/CBORChainlink.sol\":1084:1085  2 */\n      0x02\n        /* \"https://github.com/smartcontractkit/chainlink/blob/develop/contracts/src/v0.6/vendor/CBORChainlink.sol\":1063:1066  buf */\n      dup6\n        /* \"https://github.com/smartcontractkit/chainlink/blob/develop/contracts/src/v0.6/vendor/CBORChainlink.sol\":1063:1076  buf.appendInt */\n      tag_134\n      swap1\n        /* \"https://github.com/smartcontractkit/chainlink/blob/develop/contracts/src/v0.6/vendor/CBORChainlink.sol\":1063:1086  buf.appendInt(value, 2) */\n      swap3\n      swap2\n      swap1\n      0xffffffff\n      and\n      jump\t// in\n    tag_138:\n      pop\n        /* \"https://github.com/smartcontractkit/chainlink/blob/develop/contracts/src/v0.6/vendor/CBORChainlink.sol\":986:1303  if(value <= 0xFFFF) {... */\n      jump(tag_139)\n    tag_136:\n        /* \"https://github.com/smartcontractkit/chainlink/blob/develop/contracts/src/v0.6/vendor/CBORChainlink.sol\":1111:1121  0xFFFFFFFF */\n      0xffffffff\n        /* \"https://github.com/smartcontractkit/chainlink/blob/develop/contracts/src/v0.6/vendor/CBORChainlink.sol\":1102:1107  value */\n      dup2\n        /* \"https://github.com/smartcontractkit/chainlink/blob/develop/contracts/src/v0.6/vendor/CBORChainlink.sol\":1102:1121  value <= 0xFFFFFFFF */\n      0xffffffffffffffff\n      and\n      gt\n        /* \"https://github.com/smartcontractkit/chainlink/blob/develop/contracts/src/v0.6/vendor/CBORChainlink.sol\":1099:1303  if(value <= 0xFFFFFFFF) {... */\n      tag_140\n      jumpi\n        /* \"https://github.com/smartcontractkit/chainlink/blob/develop/contracts/src/v0.6/vendor/CBORChainlink.sol\":1131:1172  buf.appendUint8(uint8((major << 5) | 26)) */\n      tag_141\n        /* \"https://github.com/smartcontractkit/chainlink/blob/develop/contracts/src/v0.6/vendor/CBORChainlink.sol\":1168:1170  26 */\n      0x1a\n        /* \"https://github.com/smartcontractkit/chainlink/blob/develop/contracts/src/v0.6/vendor/CBORChainlink.sol\":1163:1164  5 */\n      0x05\n        /* \"https://github.com/smartcontractkit/chainlink/blob/develop/contracts/src/v0.6/vendor/CBORChainlink.sol\":1154:1159  major */\n      dup5\n        /* \"https://github.com/smartcontractkit/chainlink/blob/develop/contracts/src/v0.6/vendor/CBORChainlink.sol\":1154:1164  major << 5 */\n      0xff\n      and\n      swap1\n      shl\n        /* \"https://github.com/smartcontractkit/chainlink/blob/develop/contracts/src/v0.6/vendor/CBORChainlink.sol\":1153:1170  (major << 5) | 26 */\n      or\n        /* \"https://github.com/smartcontractkit/chainlink/blob/develop/contracts/src/v0.6/vendor/CBORChainlink.sol\":1131:1134  buf */\n      dup5\n        /* \"https://github.com/smartcontractkit/chainlink/blob/develop/contracts/src/v0.6/vendor/CBORChainlink.sol\":1131:1146  buf.appendUint8 */\n      tag_129\n      swap1\n        /* \"https://github.com/smartcontractkit/chainlink/blob/develop/contracts/src/v0.6/vendor/CBORChainlink.sol\":1131:1172  buf.appendUint8(uint8((major << 5) | 26)) */\n      swap2\n      swap1\n      0xffffffff\n      and\n      jump\t// in\n    tag_141:\n      pop\n        /* \"https://github.com/smartcontractkit/chainlink/blob/develop/contracts/src/v0.6/vendor/CBORChainlink.sol\":1180:1203  buf.appendInt(value, 4) */\n      tag_142\n        /* \"https://github.com/smartcontractkit/chainlink/blob/develop/contracts/src/v0.6/vendor/CBORChainlink.sol\":1194:1199  value */\n      dup2\n        /* \"https://github.com/smartcontractkit/chainlink/blob/develop/contracts/src/v0.6/vendor/CBORChainlink.sol\":1180:1203  buf.appendInt(value, 4) */\n      0xffffffffffffffff\n      and\n        /* \"https://github.com/smartcontractkit/chainlink/blob/develop/contracts/src/v0.6/vendor/CBORChainlink.sol\":1201:1202  4 */\n      0x04\n        /* \"https://github.com/smartcontractkit/chainlink/blob/develop/contracts/src/v0.6/vendor/CBORChainlink.sol\":1180:1183  buf */\n      dup6\n        /* \"https://github.com/smartcontractkit/chainlink/blob/develop/contracts/src/v0.6/vendor/CBORChainlink.sol\":1180:1193  buf.appendInt */\n      tag_134\n      swap1\n        /* \"https://github.com/smartcontractkit/chainlink/blob/develop/contracts/src/v0.6/vendor/CBORChainlink.sol\":1180:1203  buf.appendInt(value, 4) */\n      swap3\n      swap2\n      swap1\n      0xffffffff\n      and\n      jump\t// in\n    tag_142:\n      pop\n        /* \"https://github.com/smartcontractkit/chainlink/blob/develop/contracts/src/v0.6/vendor/CBORChainlink.sol\":1099:1303  if(value <= 0xFFFFFFFF) {... */\n      jump(tag_143)\n    tag_140:\n        /* \"https://github.com/smartcontractkit/chainlink/blob/develop/contracts/src/v0.6/vendor/CBORChainlink.sol\":1224:1265  buf.appendUint8(uint8((major << 5) | 27)) */\n      tag_144\n        /* \"https://github.com/smartcontractkit/chainlink/blob/develop/contracts/src/v0.6/vendor/CBORChainlink.sol\":1261:1263  27 */\n      0x1b\n        /* \"https://github.com/smartcontractkit/chainlink/blob/develop/contracts/src/v0.6/vendor/CBORChainlink.sol\":1256:1257  5 */\n      0x05\n        /* \"https://github.com/smartcontractkit/chainlink/blob/develop/contracts/src/v0.6/vendor/CBORChainlink.sol\":1247:1252  major */\n      dup5\n        /* \"https://github.com/smartcontractkit/chainlink/blob/develop/contracts/src/v0.6/vendor/CBORChainlink.sol\":1247:1257  major << 5 */\n      0xff\n      and\n      swap1\n      shl\n        /* \"https://github.com/smartcontractkit/chainlink/blob/develop/contracts/src/v0.6/vendor/CBORChainlink.sol\":1246:1263  (major << 5) | 27 */\n      or\n        /* \"https://github.com/smartcontractkit/chainlink/blob/develop/contracts/src/v0.6/vendor/CBORChainlink.sol\":1224:1227  buf */\n      dup5\n        /* \"https://github.com/smartcontractkit/chainlink/blob/develop/contracts/src/v0.6/vendor/CBORChainlink.sol\":1224:1239  buf.appendUint8 */\n      tag_129\n      swap1\n        /* \"https://github.com/smartcontractkit/chainlink/blob/develop/contracts/src/v0.6/vendor/CBORChainlink.sol\":1224:1265  buf.appendUint8(uint8((major << 5) | 27)) */\n      swap2\n      swap1\n      0xffffffff\n      and\n      jump\t// in\n    tag_144:\n      pop\n        /* \"https://github.com/smartcontractkit/chainlink/blob/develop/contracts/src/v0.6/vendor/CBORChainlink.sol\":1273:1296  buf.appendInt(value, 8) */\n      tag_145\n        /* \"https://github.com/smartcontractkit/chainlink/blob/develop/contracts/src/v0.6/vendor/CBORChainlink.sol\":1287:1292  value */\n      dup2\n        /* \"https://github.com/smartcontractkit/chainlink/blob/develop/contracts/src/v0.6/vendor/CBORChainlink.sol\":1273:1296  buf.appendInt(value, 8) */\n      0xffffffffffffffff\n      and\n        /* \"https://github.com/smartcontractkit/chainlink/blob/develop/contracts/src/v0.6/vendor/CBORChainlink.sol\":1294:1295  8 */\n      0x08\n        /* \"https://github.com/smartcontractkit/chainlink/blob/develop/contracts/src/v0.6/vendor/CBORChainlink.sol\":1273:1276  buf */\n      dup6\n        /* \"https://github.com/smartcontractkit/chainlink/blob/develop/contracts/src/v0.6/vendor/CBORChainlink.sol\":1273:1286  buf.appendInt */\n      tag_134\n      swap1\n        /* \"https://github.com/smartcontractkit/chainlink/blob/develop/contracts/src/v0.6/vendor/CBORChainlink.sol\":1273:1296  buf.appendInt(value, 8) */\n      swap3\n      swap2\n      swap1\n      0xffffffff\n      and\n      jump\t// in\n    tag_145:\n      pop\n        /* \"https://github.com/smartcontractkit/chainlink/blob/develop/contracts/src/v0.6/vendor/CBORChainlink.sol\":1099:1303  if(value <= 0xFFFFFFFF) {... */\n    tag_143:\n        /* \"https://github.com/smartcontractkit/chainlink/blob/develop/contracts/src/v0.6/vendor/CBORChainlink.sol\":986:1303  if(value <= 0xFFFF) {... */\n    tag_139:\n        /* \"https://github.com/smartcontractkit/chainlink/blob/develop/contracts/src/v0.6/vendor/CBORChainlink.sol\":875:1303  if(value <= 0xFF) {... */\n    tag_135:\n        /* \"https://github.com/smartcontractkit/chainlink/blob/develop/contracts/src/v0.6/vendor/CBORChainlink.sol\":794:1303  if(value <= 23) {... */\n    tag_130:\n        /* \"https://github.com/smartcontractkit/chainlink/blob/develop/contracts/src/v0.6/vendor/CBORChainlink.sol\":685:1307  function encodeFixedNumeric(BufferChainlink.buffer memory buf, uint8 major, uint64 value) private pure {... */\n      pop\n      pop\n      pop\n      jump\t// out\n        /* \"https://github.com/smartcontractkit/chainlink/blob/develop/contracts/src/v0.6/vendor/BufferChainlink.sol\":4536:4691  function append(buffer memory buf, bytes memory data) internal pure returns (buffer memory) {... */\n    tag_101:\n        /* \"https://github.com/smartcontractkit/chainlink/blob/develop/contracts/src/v0.6/vendor/BufferChainlink.sol\":4613:4626  buffer memory */\n      tag_146\n      tag_121\n      jump\t// in\n    tag_146:\n        /* \"https://github.com/smartcontractkit/chainlink/blob/develop/contracts/src/v0.6/vendor/BufferChainlink.sol\":4641:4686  write(buf, buf.buf.length, data, data.length) */\n      tag_148\n        /* \"https://github.com/smartcontractkit/chainlink/blob/develop/contracts/src/v0.6/vendor/BufferChainlink.sol\":4647:4650  buf */\n      dup4\n        /* \"https://github.com/smartcontractkit/chainlink/blob/develop/contracts/src/v0.6/vendor/BufferChainlink.sol\":4652:4655  buf */\n      dup5\n        /* \"https://github.com/smartcontractkit/chainlink/blob/develop/contracts/src/v0.6/vendor/BufferChainlink.sol\":4652:4659  buf.buf */\n      0x00\n      add\n      mload\n        /* \"https://github.com/smartcontractkit/chainlink/blob/develop/contracts/src/v0.6/vendor/BufferChainlink.sol\":4652:4666  buf.buf.length */\n      mload\n        /* \"https://github.com/smartcontractkit/chainlink/blob/develop/contracts/src/v0.6/vendor/BufferChainlink.sol\":4668:4672  data */\n      dup5\n        /* \"https://github.com/smartcontractkit/chainlink/blob/develop/contracts/src/v0.6/vendor/BufferChainlink.sol\":4674:4678  data */\n      dup6\n        /* \"https://github.com/smartcontractkit/chainlink/blob/develop/contracts/src/v0.6/vendor/BufferChainlink.sol\":4674:4685  data.length */\n      mload\n        /* \"https://github.com/smartcontractkit/chainlink/blob/develop/contracts/src/v0.6/vendor/BufferChainlink.sol\":4641:4646  write */\n      tag_149\n        /* \"https://github.com/smartcontractkit/chainlink/blob/develop/contracts/src/v0.6/vendor/BufferChainlink.sol\":4641:4686  write(buf, buf.buf.length, data, data.length) */\n      jump\t// in\n    tag_148:\n        /* \"https://github.com/smartcontractkit/chainlink/blob/develop/contracts/src/v0.6/vendor/BufferChainlink.sol\":4634:4686  return write(buf, buf.buf.length, data, data.length) */\n      swap1\n      pop\n        /* \"https://github.com/smartcontractkit/chainlink/blob/develop/contracts/src/v0.6/vendor/BufferChainlink.sol\":4536:4691  function append(buffer memory buf, bytes memory data) internal pure returns (buffer memory) {... */\n      swap3\n      swap2\n      pop\n      pop\n      jump\t// out\n        /* \"https://github.com/smartcontractkit/chainlink/blob/develop/contracts/src/v0.6/vendor/CBORChainlink.sol\":2529:2752  function encodeSignedBigNum(BufferChainlink.buffer memory buf, int input) internal pure {... */\n    tag_105:\n        /* \"https://github.com/smartcontractkit/chainlink/blob/develop/contracts/src/v0.6/vendor/CBORChainlink.sol\":2623:2695  buf.appendUint8(uint8((MAJOR_TYPE_TAG << 5) | TAG_TYPE_NEGATIVE_BIGNUM)) */\n      tag_151\n        /* \"https://github.com/smartcontractkit/chainlink/blob/develop/contracts/src/v0.6/vendor/CBORChainlink.sol\":679:680  3 */\n      0x03\n        /* \"https://github.com/smartcontractkit/chainlink/blob/develop/contracts/src/v0.6/vendor/CBORChainlink.sol\":2664:2665  5 */\n      0x05\n        /* \"https://github.com/smartcontractkit/chainlink/blob/develop/contracts/src/v0.6/vendor/CBORChainlink.sol\":523:524  6 */\n      0x06\n        /* \"https://github.com/smartcontractkit/chainlink/blob/develop/contracts/src/v0.6/vendor/CBORChainlink.sol\":2646:2665  MAJOR_TYPE_TAG << 5 */\n      0xff\n      and\n      swap1\n      shl\n        /* \"https://github.com/smartcontractkit/chainlink/blob/develop/contracts/src/v0.6/vendor/CBORChainlink.sol\":2645:2693  (MAJOR_TYPE_TAG << 5) | TAG_TYPE_NEGATIVE_BIGNUM */\n      or\n        /* \"https://github.com/smartcontractkit/chainlink/blob/develop/contracts/src/v0.6/vendor/CBORChainlink.sol\":2623:2626  buf */\n      dup4\n        /* \"https://github.com/smartcontractkit/chainlink/blob/develop/contracts/src/v0.6/vendor/CBORChainlink.sol\":2623:2638  buf.appendUint8 */\n      tag_129\n      swap1\n        /* \"https://github.com/smartcontractkit/chainlink/blob/develop/contracts/src/v0.6/vendor/CBORChainlink.sol\":2623:2695  buf.appendUint8(uint8((MAJOR_TYPE_TAG << 5) | TAG_TYPE_NEGATIVE_BIGNUM)) */\n      swap2\n      swap1\n      0xffffffff\n      and\n      jump\t// in\n    tag_151:\n      pop\n        /* \"https://github.com/smartcontractkit/chainlink/blob/develop/contracts/src/v0.6/vendor/CBORChainlink.sol\":2701:2747  encodeBytes(buf, abi.encode(uint(-1 - input))) */\n      tag_152\n        /* \"https://github.com/smartcontractkit/chainlink/blob/develop/contracts/src/v0.6/vendor/CBORChainlink.sol\":2713:2716  buf */\n      dup3\n        /* \"https://github.com/smartcontractkit/chainlink/blob/develop/contracts/src/v0.6/vendor/CBORChainlink.sol\":2739:2744  input */\n      dup3\n        /* \"https://github.com/smartcontractkit/chainlink/blob/develop/contracts/src/v0.6/vendor/CBORChainlink.sol\":2734:2736  -1 */\n      0xffffffffffffffffffffffffffffffffffffffffffffffffffffffffffffffff\n        /* \"https://github.com/smartcontractkit/chainlink/blob/develop/contracts/src/v0.6/vendor/CBORChainlink.sol\":2734:2744  -1 - input */\n      sub\n        /* \"https://github.com/smartcontractkit/chainlink/blob/develop/contracts/src/v0.6/vendor/CBORChainlink.sol\":2718:2746  abi.encode(uint(-1 - input)) */\n      add(0x20, mload(0x40))\n      dup1\n      dup3\n      dup2\n      mstore\n      0x20\n      add\n      swap2\n      pop\n      pop\n      mload(0x40)\n      0x20\n      dup2\n      dup4\n      sub\n      sub\n      dup2\n      mstore\n      swap1\n      0x40\n      mstore\n        /* \"https://github.com/smartcontractkit/chainlink/blob/develop/contracts/src/v0.6/vendor/CBORChainlink.sol\":2701:2712  encodeBytes */\n      tag_153\n        /* \"https://github.com/smartcontractkit/chainlink/blob/develop/contracts/src/v0.6/vendor/CBORChainlink.sol\":2701:2747  encodeBytes(buf, abi.encode(uint(-1 - input))) */\n      jump\t// in\n    tag_152:\n        /* \"https://github.com/smartcontractkit/chainlink/blob/develop/contracts/src/v0.6/vendor/CBORChainlink.sol\":2529:2752  function encodeSignedBigNum(BufferChainlink.buffer memory buf, int input) internal pure {... */\n      pop\n      pop\n      jump\t// out\n        /* \"https://github.com/smartcontractkit/chainlink/blob/develop/contracts/src/v0.6/vendor/CBORChainlink.sol\":2327:2525  function encodeBigNum(BufferChainlink.buffer memory buf, uint value) internal pure {... */\n    tag_109:\n        /* \"https://github.com/smartcontractkit/chainlink/blob/develop/contracts/src/v0.6/vendor/CBORChainlink.sol\":2416:2479  buf.appendUint8(uint8((MAJOR_TYPE_TAG << 5) | TAG_TYPE_BIGNUM)) */\n      tag_155\n        /* \"https://github.com/smartcontractkit/chainlink/blob/develop/contracts/src/v0.6/vendor/CBORChainlink.sol\":624:625  2 */\n      0x02\n        /* \"https://github.com/smartcontractkit/chainlink/blob/develop/contracts/src/v0.6/vendor/CBORChainlink.sol\":2457:2458  5 */\n      0x05\n        /* \"https://github.com/smartcontractkit/chainlink/blob/develop/contracts/src/v0.6/vendor/CBORChainlink.sol\":523:524  6 */\n      0x06\n        /* \"https://github.com/smartcontractkit/chainlink/blob/develop/contracts/src/v0.6/vendor/CBORChainlink.sol\":2439:2458  MAJOR_TYPE_TAG << 5 */\n      0xff\n      and\n      swap1\n      shl\n        /* \"https://github.com/smartcontractkit/chainlink/blob/develop/contracts/src/v0.6/vendor/CBORChainlink.sol\":2438:2477  (MAJOR_TYPE_TAG << 5) | TAG_TYPE_BIGNUM */\n      or\n        /* \"https://github.com/smartcontractkit/chainlink/blob/develop/contracts/src/v0.6/vendor/CBORChainlink.sol\":2416:2419  buf */\n      dup4\n        /* \"https://github.com/smartcontractkit/chainlink/blob/develop/contracts/src/v0.6/vendor/CBORChainlink.sol\":2416:2431  buf.appendUint8 */\n      tag_129\n      swap1\n        /* \"https://github.com/smartcontractkit/chainlink/blob/develop/contracts/src/v0.6/vendor/CBORChainlink.sol\":2416:2479  buf.appendUint8(uint8((MAJOR_TYPE_TAG << 5) | TAG_TYPE_BIGNUM)) */\n      swap2\n      swap1\n      0xffffffff\n      and\n      jump\t// in\n    tag_155:\n      pop\n        /* \"https://github.com/smartcontractkit/chainlink/blob/develop/contracts/src/v0.6/vendor/CBORChainlink.sol\":2485:2520  encodeBytes(buf, abi.encode(value)) */\n      tag_156\n        /* \"https://github.com/smartcontractkit/chainlink/blob/develop/contracts/src/v0.6/vendor/CBORChainlink.sol\":2497:2500  buf */\n      dup3\n        /* \"https://github.com/smartcontractkit/chainlink/blob/develop/contracts/src/v0.6/vendor/CBORChainlink.sol\":2513:2518  value */\n      dup3\n        /* \"https://github.com/smartcontractkit/chainlink/blob/develop/contracts/src/v0.6/vendor/CBORChainlink.sol\":2502:2519  abi.encode(value) */\n      add(0x20, mload(0x40))\n      dup1\n      dup3\n      dup2\n      mstore\n      0x20\n      add\n      swap2\n      pop\n      pop\n      mload(0x40)\n      0x20\n      dup2\n      dup4\n      sub\n      sub\n      dup2\n      mstore\n      swap1\n      0x40\n      mstore\n        /* \"https://github.com/smartcontractkit/chainlink/blob/develop/contracts/src/v0.6/vendor/CBORChainlink.sol\":2485:2496  encodeBytes */\n      tag_153\n        /* \"https://github.com/smartcontractkit/chainlink/blob/develop/contracts/src/v0.6/vendor/CBORChainlink.sol\":2485:2520  encodeBytes(buf, abi.encode(value)) */\n      jump\t// in\n    tag_156:\n        /* \"https://github.com/smartcontractkit/chainlink/blob/develop/contracts/src/v0.6/vendor/CBORChainlink.sol\":2327:2525  function encodeBigNum(BufferChainlink.buffer memory buf, uint value) internal pure {... */\n      pop\n      pop\n      jump\t// out\n        /* \"https://github.com/smartcontractkit/chainlink/blob/develop/contracts/src/v0.6/vendor/BufferChainlink.sol\":5851:5995  function appendUint8(buffer memory buf, uint8 data) internal pure returns(buffer memory) {... */\n    tag_129:\n        /* \"https://github.com/smartcontractkit/chainlink/blob/develop/contracts/src/v0.6/vendor/BufferChainlink.sol\":5925:5938  buffer memory */\n      tag_157\n      tag_121\n      jump\t// in\n    tag_157:\n        /* \"https://github.com/smartcontractkit/chainlink/blob/develop/contracts/src/v0.6/vendor/BufferChainlink.sol\":5953:5990  writeUint8(buf, buf.buf.length, data) */\n      tag_159\n        /* \"https://github.com/smartcontractkit/chainlink/blob/develop/contracts/src/v0.6/vendor/BufferChainlink.sol\":5964:5967  buf */\n      dup4\n        /* \"https://github.com/smartcontractkit/chainlink/blob/develop/contracts/src/v0.6/vendor/BufferChainlink.sol\":5969:5972  buf */\n      dup5\n        /* \"https://github.com/smartcontractkit/chainlink/blob/develop/contracts/src/v0.6/vendor/BufferChainlink.sol\":5969:5976  buf.buf */\n      0x00\n      add\n      mload\n        /* \"https://github.com/smartcontractkit/chainlink/blob/develop/contracts/src/v0.6/vendor/BufferChainlink.sol\":5969:5983  buf.buf.length */\n      mload\n        /* \"https://github.com/smartcontractkit/chainlink/blob/develop/contracts/src/v0.6/vendor/BufferChainlink.sol\":5985:5989  data */\n      dup5\n        /* \"https://github.com/smartcontractkit/chainlink/blob/develop/contracts/src/v0.6/vendor/BufferChainlink.sol\":5953:5963  writeUint8 */\n      tag_160\n        /* \"https://github.com/smartcontractkit/chainlink/blob/develop/contracts/src/v0.6/vendor/BufferChainlink.sol\":5953:5990  writeUint8(buf, buf.buf.length, data) */\n      jump\t// in\n    tag_159:\n        /* \"https://github.com/smartcontractkit/chainlink/blob/develop/contracts/src/v0.6/vendor/BufferChainlink.sol\":5946:5990  return writeUint8(buf, buf.buf.length, data) */\n      swap1\n      pop\n        /* \"https://github.com/smartcontractkit/chainlink/blob/develop/contracts/src/v0.6/vendor/BufferChainlink.sol\":5851:5995  function appendUint8(buffer memory buf, uint8 data) internal pure returns(buffer memory) {... */\n      swap3\n      swap2\n      pop\n      pop\n      jump\t// out\n        /* \"https://github.com/smartcontractkit/chainlink/blob/develop/contracts/src/v0.6/vendor/BufferChainlink.sol\":9543:9697  function appendInt(buffer memory buf, uint data, uint len) internal pure returns(buffer memory) {... */\n    tag_134:\n        /* \"https://github.com/smartcontractkit/chainlink/blob/develop/contracts/src/v0.6/vendor/BufferChainlink.sol\":9624:9637  buffer memory */\n      tag_161\n      tag_121\n      jump\t// in\n    tag_161:\n        /* \"https://github.com/smartcontractkit/chainlink/blob/develop/contracts/src/v0.6/vendor/BufferChainlink.sol\":9652:9692  writeInt(buf, buf.buf.length, data, len) */\n      tag_163\n        /* \"https://github.com/smartcontractkit/chainlink/blob/develop/contracts/src/v0.6/vendor/BufferChainlink.sol\":9661:9664  buf */\n      dup5\n        /* \"https://github.com/smartcontractkit/chainlink/blob/develop/contracts/src/v0.6/vendor/BufferChainlink.sol\":9666:9669  buf */\n      dup6\n        /* \"https://github.com/smartcontractkit/chainlink/blob/develop/contracts/src/v0.6/vendor/BufferChainlink.sol\":9666:9673  buf.buf */\n      0x00\n      add\n      mload\n        /* \"https://github.com/smartcontractkit/chainlink/blob/develop/contracts/src/v0.6/vendor/BufferChainlink.sol\":9666:9680  buf.buf.length */\n      mload\n        /* \"https://github.com/smartcontractkit/chainlink/blob/develop/contracts/src/v0.6/vendor/BufferChainlink.sol\":9682:9686  data */\n      dup6\n        /* \"https://github.com/smartcontractkit/chainlink/blob/develop/contracts/src/v0.6/vendor/BufferChainlink.sol\":9688:9691  len */\n      dup6\n        /* \"https://github.com/smartcontractkit/chainlink/blob/develop/contracts/src/v0.6/vendor/BufferChainlink.sol\":9652:9660  writeInt */\n      tag_164\n        /* \"https://github.com/smartcontractkit/chainlink/blob/develop/contracts/src/v0.6/vendor/BufferChainlink.sol\":9652:9692  writeInt(buf, buf.buf.length, data, len) */\n      jump\t// in\n    tag_163:\n        /* \"https://github.com/smartcontractkit/chainlink/blob/develop/contracts/src/v0.6/vendor/BufferChainlink.sol\":9645:9692  return writeInt(buf, buf.buf.length, data, len) */\n      swap1\n      pop\n        /* \"https://github.com/smartcontractkit/chainlink/blob/develop/contracts/src/v0.6/vendor/BufferChainlink.sol\":9543:9697  function appendInt(buffer memory buf, uint data, uint len) internal pure returns(buffer memory) {... */\n      swap4\n      swap3\n      pop\n      pop\n      pop\n      jump\t// out\n        /* \"https://github.com/smartcontractkit/chainlink/blob/develop/contracts/src/v0.6/vendor/BufferChainlink.sol\":2691:3831  function write(buffer memory buf, uint off, bytes memory data, uint len) internal pure returns(buffer memory) {... */\n    tag_149:\n        /* \"https://github.com/smartcontractkit/chainlink/blob/develop/contracts/src/v0.6/vendor/BufferChainlink.sol\":2786:2799  buffer memory */\n      tag_165\n      tag_121\n      jump\t// in\n    tag_165:\n        /* \"https://github.com/smartcontractkit/chainlink/blob/develop/contracts/src/v0.6/vendor/BufferChainlink.sol\":2822:2826  data */\n      dup3\n        /* \"https://github.com/smartcontractkit/chainlink/blob/develop/contracts/src/v0.6/vendor/BufferChainlink.sol\":2822:2833  data.length */\n      mload\n        /* \"https://github.com/smartcontractkit/chainlink/blob/develop/contracts/src/v0.6/vendor/BufferChainlink.sol\":2815:2818  len */\n      dup3\n        /* \"https://github.com/smartcontractkit/chainlink/blob/develop/contracts/src/v0.6/vendor/BufferChainlink.sol\":2815:2833  len <= data.length */\n      gt\n      iszero\n        /* \"https://github.com/smartcontractkit/chainlink/blob/develop/contracts/src/v0.6/vendor/BufferChainlink.sol\":2807:2834  require(len <= data.length) */\n      tag_167\n      jumpi\n      0x00\n      dup1\n      revert\n    tag_167:\n        /* \"https://github.com/smartcontractkit/chainlink/blob/develop/contracts/src/v0.6/vendor/BufferChainlink.sol\":2857:2860  buf */\n      dup5\n        /* \"https://github.com/smartcontractkit/chainlink/blob/develop/contracts/src/v0.6/vendor/BufferChainlink.sol\":2857:2869  buf.capacity */\n      0x20\n      add\n      mload\n        /* \"https://github.com/smartcontractkit/chainlink/blob/develop/contracts/src/v0.6/vendor/BufferChainlink.sol\":2851:2854  len */\n      dup3\n        /* \"https://github.com/smartcontractkit/chainlink/blob/develop/contracts/src/v0.6/vendor/BufferChainlink.sol\":2845:2848  off */\n      dup6\n        /* \"https://github.com/smartcontractkit/chainlink/blob/develop/contracts/src/v0.6/vendor/BufferChainlink.sol\":2845:2854  off + len */\n      add\n        /* \"https://github.com/smartcontractkit/chainlink/blob/develop/contracts/src/v0.6/vendor/BufferChainlink.sol\":2845:2869  off + len > buf.capacity */\n      gt\n        /* \"https://github.com/smartcontractkit/chainlink/blob/develop/contracts/src/v0.6/vendor/BufferChainlink.sol\":2841:2931  if (off + len > buf.capacity) {... */\n      iszero\n      tag_168\n      jumpi\n        /* \"https://github.com/smartcontractkit/chainlink/blob/develop/contracts/src/v0.6/vendor/BufferChainlink.sol\":2879:2924  resize(buf, max(buf.capacity, len + off) * 2) */\n      tag_169\n        /* \"https://github.com/smartcontractkit/chainlink/blob/develop/contracts/src/v0.6/vendor/BufferChainlink.sol\":2886:2889  buf */\n      dup6\n        /* \"https://github.com/smartcontractkit/chainlink/blob/develop/contracts/src/v0.6/vendor/BufferChainlink.sol\":2922:2923  2 */\n      0x02\n        /* \"https://github.com/smartcontractkit/chainlink/blob/develop/contracts/src/v0.6/vendor/BufferChainlink.sol\":2891:2919  max(buf.capacity, len + off) */\n      tag_170\n        /* \"https://github.com/smartcontractkit/chainlink/blob/develop/contracts/src/v0.6/vendor/BufferChainlink.sol\":2895:2898  buf */\n      dup9\n        /* \"https://github.com/smartcontractkit/chainlink/blob/develop/contracts/src/v0.6/vendor/BufferChainlink.sol\":2895:2907  buf.capacity */\n      0x20\n      add\n      mload\n        /* \"https://github.com/smartcontractkit/chainlink/blob/develop/contracts/src/v0.6/vendor/BufferChainlink.sol\":2915:2918  off */\n      dup9\n        /* \"https://github.com/smartcontractkit/chainlink/blob/develop/contracts/src/v0.6/vendor/BufferChainlink.sol\":2909:2912  len */\n      dup8\n        /* \"https://github.com/smartcontractkit/chainlink/blob/develop/contracts/src/v0.6/vendor/BufferChainlink.sol\":2909:2918  len + off */\n      add\n        /* \"https://github.com/smartcontractkit/chainlink/blob/develop/contracts/src/v0.6/vendor/BufferChainlink.sol\":2891:2894  max */\n      tag_171\n        /* \"https://github.com/smartcontractkit/chainlink/blob/develop/contracts/src/v0.6/vendor/BufferChainlink.sol\":2891:2919  max(buf.capacity, len + off) */\n      jump\t// in\n    tag_170:\n        /* \"https://github.com/smartcontractkit/chainlink/blob/develop/contracts/src/v0.6/vendor/BufferChainlink.sol\":2891:2923  max(buf.capacity, len + off) * 2 */\n      mul\n        /* \"https://github.com/smartcontractkit/chainlink/blob/develop/contracts/src/v0.6/vendor/BufferChainlink.sol\":2879:2885  resize */\n      tag_172\n        /* \"https://github.com/smartcontractkit/chainlink/blob/develop/contracts/src/v0.6/vendor/BufferChainlink.sol\":2879:2924  resize(buf, max(buf.capacity, len + off) * 2) */\n      jump\t// in\n    tag_169:\n        /* \"https://github.com/smartcontractkit/chainlink/blob/develop/contracts/src/v0.6/vendor/BufferChainlink.sol\":2841:2931  if (off + len > buf.capacity) {... */\n    tag_168:\n        /* \"https://github.com/smartcontractkit/chainlink/blob/develop/contracts/src/v0.6/vendor/BufferChainlink.sol\":2937:2946  uint dest */\n      0x00\n        /* \"https://github.com/smartcontractkit/chainlink/blob/develop/contracts/src/v0.6/vendor/BufferChainlink.sol\":2952:2960  uint src */\n      dup1\n        /* \"https://github.com/smartcontractkit/chainlink/blob/develop/contracts/src/v0.6/vendor/BufferChainlink.sol\":3046:3049  buf */\n      dup7\n        /* \"https://github.com/smartcontractkit/chainlink/blob/develop/contracts/src/v0.6/vendor/BufferChainlink.sol\":3040:3050  mload(buf) */\n      mload\n        /* \"https://github.com/smartcontractkit/chainlink/blob/develop/contracts/src/v0.6/vendor/BufferChainlink.sol\":3117:3123  bufptr */\n      dup1\n        /* \"https://github.com/smartcontractkit/chainlink/blob/develop/contracts/src/v0.6/vendor/BufferChainlink.sol\":3111:3124  mload(bufptr) */\n      mload\n        /* \"https://github.com/smartcontractkit/chainlink/blob/develop/contracts/src/v0.6/vendor/BufferChainlink.sol\":3233:3236  off */\n      dup8\n        /* \"https://github.com/smartcontractkit/chainlink/blob/develop/contracts/src/v0.6/vendor/BufferChainlink.sol\":3228:3230  32 */\n      0x20\n        /* \"https://github.com/smartcontractkit/chainlink/blob/develop/contracts/src/v0.6/vendor/BufferChainlink.sol\":3220:3226  bufptr */\n      dup4\n        /* \"https://github.com/smartcontractkit/chainlink/blob/develop/contracts/src/v0.6/vendor/BufferChainlink.sol\":3216:3231  add(bufptr, 32) */\n      add\n        /* \"https://github.com/smartcontractkit/chainlink/blob/develop/contracts/src/v0.6/vendor/BufferChainlink.sol\":3212:3237  add(add(bufptr, 32), off) */\n      add\n        /* \"https://github.com/smartcontractkit/chainlink/blob/develop/contracts/src/v0.6/vendor/BufferChainlink.sol\":3204:3237  dest := add(add(bufptr, 32), off) */\n      swap4\n      pop\n        /* \"https://github.com/smartcontractkit/chainlink/blob/develop/contracts/src/v0.6/vendor/BufferChainlink.sol\":3317:3323  buflen */\n      dup1\n        /* \"https://github.com/smartcontractkit/chainlink/blob/develop/contracts/src/v0.6/vendor/BufferChainlink.sol\":3311:3314  off */\n      dup9\n        /* \"https://github.com/smartcontractkit/chainlink/blob/develop/contracts/src/v0.6/vendor/BufferChainlink.sol\":3306:3309  len */\n      dup8\n        /* \"https://github.com/smartcontractkit/chainlink/blob/develop/contracts/src/v0.6/vendor/BufferChainlink.sol\":3302:3315  add(len, off) */\n      add\n        /* \"https://github.com/smartcontractkit/chainlink/blob/develop/contracts/src/v0.6/vendor/BufferChainlink.sol\":3299:3324  gt(add(len, off), buflen) */\n      gt\n        /* \"https://github.com/smartcontractkit/chainlink/blob/develop/contracts/src/v0.6/vendor/BufferChainlink.sol\":3296:3298  if */\n      iszero\n      tag_173\n      jumpi\n        /* \"https://github.com/smartcontractkit/chainlink/blob/develop/contracts/src/v0.6/vendor/BufferChainlink.sol\":3359:3362  off */\n      dup8\n        /* \"https://github.com/smartcontractkit/chainlink/blob/develop/contracts/src/v0.6/vendor/BufferChainlink.sol\":3354:3357  len */\n      dup7\n        /* \"https://github.com/smartcontractkit/chainlink/blob/develop/contracts/src/v0.6/vendor/BufferChainlink.sol\":3350:3363  add(len, off) */\n      add\n        /* \"https://github.com/smartcontractkit/chainlink/blob/develop/contracts/src/v0.6/vendor/BufferChainlink.sol\":3342:3348  bufptr */\n      dup3\n        /* \"https://github.com/smartcontractkit/chainlink/blob/develop/contracts/src/v0.6/vendor/BufferChainlink.sol\":3335:3364  mstore(bufptr, add(len, off)) */\n      mstore\n        /* \"https://github.com/smartcontractkit/chainlink/blob/develop/contracts/src/v0.6/vendor/BufferChainlink.sol\":3296:3298  if */\n    tag_173:\n        /* \"https://github.com/smartcontractkit/chainlink/blob/develop/contracts/src/v0.6/vendor/BufferChainlink.sol\":3396:3398  32 */\n      0x20\n        /* \"https://github.com/smartcontractkit/chainlink/blob/develop/contracts/src/v0.6/vendor/BufferChainlink.sol\":3390:3394  data */\n      dup8\n        /* \"https://github.com/smartcontractkit/chainlink/blob/develop/contracts/src/v0.6/vendor/BufferChainlink.sol\":3386:3399  add(data, 32) */\n      add\n        /* \"https://github.com/smartcontractkit/chainlink/blob/develop/contracts/src/v0.6/vendor/BufferChainlink.sol\":3379:3399  src := add(data, 32) */\n      swap3\n      pop\n        /* \"https://github.com/smartcontractkit/chainlink/blob/develop/contracts/src/v0.6/vendor/BufferChainlink.sol\":2975:3405  {... */\n      pop\n      pop\n        /* \"https://github.com/smartcontractkit/chainlink/blob/develop/contracts/src/v0.6/vendor/BufferChainlink.sol\":3457:3586  for (; len >= 32; len -= 32) {... */\n    tag_174:\n        /* \"https://github.com/smartcontractkit/chainlink/blob/develop/contracts/src/v0.6/vendor/BufferChainlink.sol\":3471:3473  32 */\n      0x20\n        /* \"https://github.com/smartcontractkit/chainlink/blob/develop/contracts/src/v0.6/vendor/BufferChainlink.sol\":3464:3467  len */\n      dup5\n        /* \"https://github.com/smartcontractkit/chainlink/blob/develop/contracts/src/v0.6/vendor/BufferChainlink.sol\":3464:3473  len >= 32 */\n      lt\n        /* \"https://github.com/smartcontractkit/chainlink/blob/develop/contracts/src/v0.6/vendor/BufferChainlink.sol\":3457:3586  for (; len >= 32; len -= 32) {... */\n      tag_175\n      jumpi\n        /* \"https://github.com/smartcontractkit/chainlink/blob/develop/contracts/src/v0.6/vendor/BufferChainlink.sol\":3532:3535  src */\n      dup1\n        /* \"https://github.com/smartcontractkit/chainlink/blob/develop/contracts/src/v0.6/vendor/BufferChainlink.sol\":3526:3536  mload(src) */\n      mload\n        /* \"https://github.com/smartcontractkit/chainlink/blob/develop/contracts/src/v0.6/vendor/BufferChainlink.sol\":3520:3524  dest */\n      dup3\n        /* \"https://github.com/smartcontractkit/chainlink/blob/develop/contracts/src/v0.6/vendor/BufferChainlink.sol\":3513:3537  mstore(dest, mload(src)) */\n      mstore\n        /* \"https://github.com/smartcontractkit/chainlink/blob/develop/contracts/src/v0.6/vendor/BufferChainlink.sol\":3560:3562  32 */\n      0x20\n        /* \"https://github.com/smartcontractkit/chainlink/blob/develop/contracts/src/v0.6/vendor/BufferChainlink.sol\":3552:3562  dest += 32 */\n      dup3\n      add\n      swap2\n      pop\n        /* \"https://github.com/smartcontractkit/chainlink/blob/develop/contracts/src/v0.6/vendor/BufferChainlink.sol\":3577:3579  32 */\n      0x20\n        /* \"https://github.com/smartcontractkit/chainlink/blob/develop/contracts/src/v0.6/vendor/BufferChainlink.sol\":3570:3579  src += 32 */\n      dup2\n      add\n      swap1\n      pop\n        /* \"https://github.com/smartcontractkit/chainlink/blob/develop/contracts/src/v0.6/vendor/BufferChainlink.sol\":3482:3484  32 */\n      0x20\n        /* \"https://github.com/smartcontractkit/chainlink/blob/develop/contracts/src/v0.6/vendor/BufferChainlink.sol\":3475:3484  len -= 32 */\n      dup5\n      sub\n      swap4\n      pop\n        /* \"https://github.com/smartcontractkit/chainlink/blob/develop/contracts/src/v0.6/vendor/BufferChainlink.sol\":3457:3586  for (; len >= 32; len -= 32) {... */\n      jump(tag_174)\n    tag_175:\n        /* \"https://github.com/smartcontractkit/chainlink/blob/develop/contracts/src/v0.6/vendor/BufferChainlink.sol\":3620:3629  uint mask */\n      0x00\n        /* \"https://github.com/smartcontractkit/chainlink/blob/develop/contracts/src/v0.6/vendor/BufferChainlink.sol\":3652:3653  1 */\n      0x01\n        /* \"https://github.com/smartcontractkit/chainlink/blob/develop/contracts/src/v0.6/vendor/BufferChainlink.sol\":3645:3648  len */\n      dup6\n        /* \"https://github.com/smartcontractkit/chainlink/blob/develop/contracts/src/v0.6/vendor/BufferChainlink.sol\":3640:3642  32 */\n      0x20\n        /* \"https://github.com/smartcontractkit/chainlink/blob/develop/contracts/src/v0.6/vendor/BufferChainlink.sol\":3640:3648  32 - len */\n      sub\n        /* \"https://github.com/smartcontractkit/chainlink/blob/develop/contracts/src/v0.6/vendor/BufferChainlink.sol\":3632:3635  256 */\n      0x0100\n        /* \"https://github.com/smartcontractkit/chainlink/blob/develop/contracts/src/v0.6/vendor/BufferChainlink.sol\":3632:3649  256 ** (32 - len) */\n      exp\n        /* \"https://github.com/smartcontractkit/chainlink/blob/develop/contracts/src/v0.6/vendor/BufferChainlink.sol\":3632:3653  256 ** (32 - len) - 1 */\n      sub\n        /* \"https://github.com/smartcontractkit/chainlink/blob/develop/contracts/src/v0.6/vendor/BufferChainlink.sol\":3620:3653  uint mask = 256 ** (32 - len) - 1 */\n      swap1\n      pop\n        /* \"https://github.com/smartcontractkit/chainlink/blob/develop/contracts/src/v0.6/vendor/BufferChainlink.sol\":3711:3715  mask */\n      dup1\n        /* \"https://github.com/smartcontractkit/chainlink/blob/develop/contracts/src/v0.6/vendor/BufferChainlink.sol\":3707:3716  not(mask) */\n      not\n        /* \"https://github.com/smartcontractkit/chainlink/blob/develop/contracts/src/v0.6/vendor/BufferChainlink.sol\":3701:3704  src */\n      dup3\n        /* \"https://github.com/smartcontractkit/chainlink/blob/develop/contracts/src/v0.6/vendor/BufferChainlink.sol\":3695:3705  mload(src) */\n      mload\n        /* \"https://github.com/smartcontractkit/chainlink/blob/develop/contracts/src/v0.6/vendor/BufferChainlink.sol\":3691:3717  and(mload(src), not(mask)) */\n      and\n        /* \"https://github.com/smartcontractkit/chainlink/blob/develop/contracts/src/v0.6/vendor/BufferChainlink.sol\":3757:3761  mask */\n      dup2\n        /* \"https://github.com/smartcontractkit/chainlink/blob/develop/contracts/src/v0.6/vendor/BufferChainlink.sol\":3750:3754  dest */\n      dup5\n        /* \"https://github.com/smartcontractkit/chainlink/blob/develop/contracts/src/v0.6/vendor/BufferChainlink.sol\":3744:3755  mload(dest) */\n      mload\n        /* \"https://github.com/smartcontractkit/chainlink/blob/develop/contracts/src/v0.6/vendor/BufferChainlink.sol\":3740:3762  and(mload(dest), mask) */\n      and\n        /* \"https://github.com/smartcontractkit/chainlink/blob/develop/contracts/src/v0.6/vendor/BufferChainlink.sol\":3795:3802  srcpart */\n      dup2\n        /* \"https://github.com/smartcontractkit/chainlink/blob/develop/contracts/src/v0.6/vendor/BufferChainlink.sol\":3785:3793  destpart */\n      dup2\n        /* \"https://github.com/smartcontractkit/chainlink/blob/develop/contracts/src/v0.6/vendor/BufferChainlink.sol\":3782:3803  or(destpart, srcpart) */\n      or\n        /* \"https://github.com/smartcontractkit/chainlink/blob/develop/contracts/src/v0.6/vendor/BufferChainlink.sol\":3776:3780  dest */\n      dup6\n        /* \"https://github.com/smartcontractkit/chainlink/blob/develop/contracts/src/v0.6/vendor/BufferChainlink.sol\":3769:3804  mstore(dest, or(destpart, srcpart)) */\n      mstore\n        /* \"https://github.com/smartcontractkit/chainlink/blob/develop/contracts/src/v0.6/vendor/BufferChainlink.sol\":3668:3810  {... */\n      pop\n      pop\n        /* \"https://github.com/smartcontractkit/chainlink/blob/develop/contracts/src/v0.6/vendor/BufferChainlink.sol\":3823:3826  buf */\n      dup8\n        /* \"https://github.com/smartcontractkit/chainlink/blob/develop/contracts/src/v0.6/vendor/BufferChainlink.sol\":3816:3826  return buf */\n      swap4\n      pop\n      pop\n      pop\n      pop\n        /* \"https://github.com/smartcontractkit/chainlink/blob/develop/contracts/src/v0.6/vendor/BufferChainlink.sol\":2691:3831  function write(buffer memory buf, uint off, bytes memory data, uint len) internal pure returns(buffer memory) {... */\n      swap5\n      swap4\n      pop\n      pop\n      pop\n      pop\n      jump\t// out\n        /* \"https://github.com/smartcontractkit/chainlink/blob/develop/contracts/src/v0.6/vendor/CBORChainlink.sol\":2136:2323  function encodeBytes(BufferChainlink.buffer memory buf, bytes memory value) internal pure {... */\n    tag_153:\n        /* \"https://github.com/smartcontractkit/chainlink/blob/develop/contracts/src/v0.6/vendor/CBORChainlink.sol\":2232:2295  encodeFixedNumeric(buf, MAJOR_TYPE_BYTES, uint64(value.length)) */\n      tag_178\n        /* \"https://github.com/smartcontractkit/chainlink/blob/develop/contracts/src/v0.6/vendor/CBORChainlink.sol\":2251:2254  buf */\n      dup3\n        /* \"https://github.com/smartcontractkit/chainlink/blob/develop/contracts/src/v0.6/vendor/CBORChainlink.sol\":338:339  2 */\n      0x02\n        /* \"https://github.com/smartcontractkit/chainlink/blob/develop/contracts/src/v0.6/vendor/CBORChainlink.sol\":2281:2286  value */\n      dup4\n        /* \"https://github.com/smartcontractkit/chainlink/blob/develop/contracts/src/v0.6/vendor/CBORChainlink.sol\":2281:2293  value.length */\n      mload\n        /* \"https://github.com/smartcontractkit/chainlink/blob/develop/contracts/src/v0.6/vendor/CBORChainlink.sol\":2232:2250  encodeFixedNumeric */\n      tag_99\n        /* \"https://github.com/smartcontractkit/chainlink/blob/develop/contracts/src/v0.6/vendor/CBORChainlink.sol\":2232:2295  encodeFixedNumeric(buf, MAJOR_TYPE_BYTES, uint64(value.length)) */\n      jump\t// in\n    tag_178:\n        /* \"https://github.com/smartcontractkit/chainlink/blob/develop/contracts/src/v0.6/vendor/CBORChainlink.sol\":2301:2318  buf.append(value) */\n      tag_179\n        /* \"https://github.com/smartcontractkit/chainlink/blob/develop/contracts/src/v0.6/vendor/CBORChainlink.sol\":2312:2317  value */\n      dup2\n        /* \"https://github.com/smartcontractkit/chainlink/blob/develop/contracts/src/v0.6/vendor/CBORChainlink.sol\":2301:2304  buf */\n      dup4\n        /* \"https://github.com/smartcontractkit/chainlink/blob/develop/contracts/src/v0.6/vendor/CBORChainlink.sol\":2301:2311  buf.append */\n      tag_101\n      swap1\n        /* \"https://github.com/smartcontractkit/chainlink/blob/develop/contracts/src/v0.6/vendor/CBORChainlink.sol\":2301:2318  buf.append(value) */\n      swap2\n      swap1\n      0xffffffff\n      and\n      jump\t// in\n    tag_179:\n      pop\n        /* \"https://github.com/smartcontractkit/chainlink/blob/develop/contracts/src/v0.6/vendor/CBORChainlink.sol\":2136:2323  function encodeBytes(BufferChainlink.buffer memory buf, bytes memory value) internal pure {... */\n      pop\n      pop\n      jump\t// out\n        /* \"https://github.com/smartcontractkit/chainlink/blob/develop/contracts/src/v0.6/vendor/BufferChainlink.sol\":4985:5604  function writeUint8(buffer memory buf, uint off, uint8 data) internal pure returns(buffer memory) {... */\n    tag_160:\n        /* \"https://github.com/smartcontractkit/chainlink/blob/develop/contracts/src/v0.6/vendor/BufferChainlink.sol\":5068:5081  buffer memory */\n      tag_180\n      tag_121\n      jump\t// in\n    tag_180:\n        /* \"https://github.com/smartcontractkit/chainlink/blob/develop/contracts/src/v0.6/vendor/BufferChainlink.sol\":5100:5103  buf */\n      dup4\n        /* \"https://github.com/smartcontractkit/chainlink/blob/develop/contracts/src/v0.6/vendor/BufferChainlink.sol\":5100:5112  buf.capacity */\n      0x20\n      add\n      mload\n        /* \"https://github.com/smartcontractkit/chainlink/blob/develop/contracts/src/v0.6/vendor/BufferChainlink.sol\":5093:5096  off */\n      dup4\n        /* \"https://github.com/smartcontractkit/chainlink/blob/develop/contracts/src/v0.6/vendor/BufferChainlink.sol\":5093:5112  off >= buf.capacity */\n      lt\n        /* \"https://github.com/smartcontractkit/chainlink/blob/develop/contracts/src/v0.6/vendor/BufferChainlink.sol\":5089:5158  if (off >= buf.capacity) {... */\n      tag_182\n      jumpi\n        /* \"https://github.com/smartcontractkit/chainlink/blob/develop/contracts/src/v0.6/vendor/BufferChainlink.sol\":5122:5151  resize(buf, buf.capacity * 2) */\n      tag_183\n        /* \"https://github.com/smartcontractkit/chainlink/blob/develop/contracts/src/v0.6/vendor/BufferChainlink.sol\":5129:5132  buf */\n      dup5\n        /* \"https://github.com/smartcontractkit/chainlink/blob/develop/contracts/src/v0.6/vendor/BufferChainlink.sol\":5149:5150  2 */\n      0x02\n        /* \"https://github.com/smartcontractkit/chainlink/blob/develop/contracts/src/v0.6/vendor/BufferChainlink.sol\":5134:5137  buf */\n      dup7\n        /* \"https://github.com/smartcontractkit/chainlink/blob/develop/contracts/src/v0.6/vendor/BufferChainlink.sol\":5134:5146  buf.capacity */\n      0x20\n      add\n      mload\n        /* \"https://github.com/smartcontractkit/chainlink/blob/develop/contracts/src/v0.6/vendor/BufferChainlink.sol\":5134:5150  buf.capacity * 2 */\n      mul\n        /* \"https://github.com/smartcontractkit/chainlink/blob/develop/contracts/src/v0.6/vendor/BufferChainlink.sol\":5122:5128  resize */\n      tag_172\n        /* \"https://github.com/smartcontractkit/chainlink/blob/develop/contracts/src/v0.6/vendor/BufferChainlink.sol\":5122:5151  resize(buf, buf.capacity * 2) */\n      jump\t// in\n    tag_183:\n        /* \"https://github.com/smartcontractkit/chainlink/blob/develop/contracts/src/v0.6/vendor/BufferChainlink.sol\":5089:5158  if (off >= buf.capacity) {... */\n    tag_182:\n        /* \"https://github.com/smartcontractkit/chainlink/blob/develop/contracts/src/v0.6/vendor/BufferChainlink.sol\":5244:5247  buf */\n      dup4\n        /* \"https://github.com/smartcontractkit/chainlink/blob/develop/contracts/src/v0.6/vendor/BufferChainlink.sol\":5238:5248  mload(buf) */\n      mload\n        /* \"https://github.com/smartcontractkit/chainlink/blob/develop/contracts/src/v0.6/vendor/BufferChainlink.sol\":5315:5321  bufptr */\n      dup1\n        /* \"https://github.com/smartcontractkit/chainlink/blob/develop/contracts/src/v0.6/vendor/BufferChainlink.sol\":5309:5322  mload(bufptr) */\n      mload\n        /* \"https://github.com/smartcontractkit/chainlink/blob/develop/contracts/src/v0.6/vendor/BufferChainlink.sol\":5427:5429  32 */\n      0x20\n        /* \"https://github.com/smartcontractkit/chainlink/blob/develop/contracts/src/v0.6/vendor/BufferChainlink.sol\":5421:5424  off */\n      dup6\n        /* \"https://github.com/smartcontractkit/chainlink/blob/develop/contracts/src/v0.6/vendor/BufferChainlink.sol\":5413:5419  bufptr */\n      dup4\n        /* \"https://github.com/smartcontractkit/chainlink/blob/develop/contracts/src/v0.6/vendor/BufferChainlink.sol\":5409:5425  add(bufptr, off) */\n      add\n        /* \"https://github.com/smartcontractkit/chainlink/blob/develop/contracts/src/v0.6/vendor/BufferChainlink.sol\":5405:5430  add(add(bufptr, off), 32) */\n      add\n        /* \"https://github.com/smartcontractkit/chainlink/blob/develop/contracts/src/v0.6/vendor/BufferChainlink.sol\":5451:5455  data */\n      dup5\n        /* \"https://github.com/smartcontractkit/chainlink/blob/develop/contracts/src/v0.6/vendor/BufferChainlink.sol\":5445:5449  dest */\n      dup2\n        /* \"https://github.com/smartcontractkit/chainlink/blob/develop/contracts/src/v0.6/vendor/BufferChainlink.sol\":5437:5456  mstore8(dest, data) */\n      mstore8\n        /* \"https://github.com/smartcontractkit/chainlink/blob/develop/contracts/src/v0.6/vendor/BufferChainlink.sol\":5522:5528  buflen */\n      dup2\n        /* \"https://github.com/smartcontractkit/chainlink/blob/develop/contracts/src/v0.6/vendor/BufferChainlink.sol\":5517:5520  off */\n      dup7\n        /* \"https://github.com/smartcontractkit/chainlink/blob/develop/contracts/src/v0.6/vendor/BufferChainlink.sol\":5514:5529  eq(off, buflen) */\n      eq\n        /* \"https://github.com/smartcontractkit/chainlink/blob/develop/contracts/src/v0.6/vendor/BufferChainlink.sol\":5511:5513  if */\n      iszero\n      tag_184\n      jumpi\n        /* \"https://github.com/smartcontractkit/chainlink/blob/develop/contracts/src/v0.6/vendor/BufferChainlink.sol\":5567:5568  1 */\n      0x01\n        /* \"https://github.com/smartcontractkit/chainlink/blob/develop/contracts/src/v0.6/vendor/BufferChainlink.sol\":5559:5565  buflen */\n      dup3\n        /* \"https://github.com/smartcontractkit/chainlink/blob/develop/contracts/src/v0.6/vendor/BufferChainlink.sol\":5555:5569  add(buflen, 1) */\n      add\n        /* \"https://github.com/smartcontractkit/chainlink/blob/develop/contracts/src/v0.6/vendor/BufferChainlink.sol\":5547:5553  bufptr */\n      dup4\n        /* \"https://github.com/smartcontractkit/chainlink/blob/develop/contracts/src/v0.6/vendor/BufferChainlink.sol\":5540:5570  mstore(bufptr, add(buflen, 1)) */\n      mstore\n        /* \"https://github.com/smartcontractkit/chainlink/blob/develop/contracts/src/v0.6/vendor/BufferChainlink.sol\":5511:5513  if */\n    tag_184:\n        /* \"https://github.com/smartcontractkit/chainlink/blob/develop/contracts/src/v0.6/vendor/BufferChainlink.sol\":5173:5584  {... */\n      pop\n      pop\n      pop\n        /* \"https://github.com/smartcontractkit/chainlink/blob/develop/contracts/src/v0.6/vendor/BufferChainlink.sol\":5596:5599  buf */\n      dup4\n        /* \"https://github.com/smartcontractkit/chainlink/blob/develop/contracts/src/v0.6/vendor/BufferChainlink.sol\":5589:5599  return buf */\n      swap1\n      pop\n        /* \"https://github.com/smartcontractkit/chainlink/blob/develop/contracts/src/v0.6/vendor/BufferChainlink.sol\":4985:5604  function writeUint8(buffer memory buf, uint off, uint8 data) internal pure returns(buffer memory) {... */\n      swap4\n      swap3\n      pop\n      pop\n      pop\n      jump\t// out\n        /* \"https://github.com/smartcontractkit/chainlink/blob/develop/contracts/src/v0.6/vendor/BufferChainlink.sol\":8650:9292  function writeInt(buffer memory buf, uint off, uint data, uint len) private pure returns(buffer memory) {... */\n    tag_164:\n        /* \"https://github.com/smartcontractkit/chainlink/blob/develop/contracts/src/v0.6/vendor/BufferChainlink.sol\":8739:8752  buffer memory */\n      tag_185\n      tag_121\n      jump\t// in\n    tag_185:\n        /* \"https://github.com/smartcontractkit/chainlink/blob/develop/contracts/src/v0.6/vendor/BufferChainlink.sol\":8776:8779  buf */\n      dup5\n        /* \"https://github.com/smartcontractkit/chainlink/blob/develop/contracts/src/v0.6/vendor/BufferChainlink.sol\":8776:8788  buf.capacity */\n      0x20\n      add\n      mload\n        /* \"https://github.com/smartcontractkit/chainlink/blob/develop/contracts/src/v0.6/vendor/BufferChainlink.sol\":8770:8773  off */\n      dup5\n        /* \"https://github.com/smartcontractkit/chainlink/blob/develop/contracts/src/v0.6/vendor/BufferChainlink.sol\":8764:8767  len */\n      dup4\n        /* \"https://github.com/smartcontractkit/chainlink/blob/develop/contracts/src/v0.6/vendor/BufferChainlink.sol\":8764:8773  len + off */\n      add\n        /* \"https://github.com/smartcontractkit/chainlink/blob/develop/contracts/src/v0.6/vendor/BufferChainlink.sol\":8764:8788  len + off > buf.capacity */\n      gt\n        /* \"https://github.com/smartcontractkit/chainlink/blob/develop/contracts/src/v0.6/vendor/BufferChainlink.sol\":8760:8833  if (len + off > buf.capacity) {... */\n      iszero\n      tag_187\n      jumpi\n        /* \"https://github.com/smartcontractkit/chainlink/blob/develop/contracts/src/v0.6/vendor/BufferChainlink.sol\":8798:8826  resize(buf, (len + off) * 2) */\n      tag_188\n        /* \"https://github.com/smartcontractkit/chainlink/blob/develop/contracts/src/v0.6/vendor/BufferChainlink.sol\":8805:8808  buf */\n      dup6\n        /* \"https://github.com/smartcontractkit/chainlink/blob/develop/contracts/src/v0.6/vendor/BufferChainlink.sol\":8824:8825  2 */\n      0x02\n        /* \"https://github.com/smartcontractkit/chainlink/blob/develop/contracts/src/v0.6/vendor/BufferChainlink.sol\":8817:8820  off */\n      dup7\n        /* \"https://github.com/smartcontractkit/chainlink/blob/develop/contracts/src/v0.6/vendor/BufferChainlink.sol\":8811:8814  len */\n      dup6\n        /* \"https://github.com/smartcontractkit/chainlink/blob/develop/contracts/src/v0.6/vendor/BufferChainlink.sol\":8811:8820  len + off */\n      add\n        /* \"https://github.com/smartcontractkit/chainlink/blob/develop/contracts/src/v0.6/vendor/BufferChainlink.sol\":8810:8825  (len + off) * 2 */\n      mul\n        /* \"https://github.com/smartcontractkit/chainlink/blob/develop/contracts/src/v0.6/vendor/BufferChainlink.sol\":8798:8804  resize */\n      tag_172\n        /* \"https://github.com/smartcontractkit/chainlink/blob/develop/contracts/src/v0.6/vendor/BufferChainlink.sol\":8798:8826  resize(buf, (len + off) * 2) */\n      jump\t// in\n    tag_188:\n        /* \"https://github.com/smartcontractkit/chainlink/blob/develop/contracts/src/v0.6/vendor/BufferChainlink.sol\":8760:8833  if (len + off > buf.capacity) {... */\n    tag_187:\n        /* \"https://github.com/smartcontractkit/chainlink/blob/develop/contracts/src/v0.6/vendor/BufferChainlink.sol\":8839:8848  uint mask */\n      0x00\n        /* \"https://github.com/smartcontractkit/chainlink/blob/develop/contracts/src/v0.6/vendor/BufferChainlink.sol\":8864:8865  1 */\n      0x01\n        /* \"https://github.com/smartcontractkit/chainlink/blob/develop/contracts/src/v0.6/vendor/BufferChainlink.sol\":8858:8861  len */\n      dup4\n        /* \"https://github.com/smartcontractkit/chainlink/blob/develop/contracts/src/v0.6/vendor/BufferChainlink.sol\":8851:8854  256 */\n      0x0100\n        /* \"https://github.com/smartcontractkit/chainlink/blob/develop/contracts/src/v0.6/vendor/BufferChainlink.sol\":8851:8861  256 ** len */\n      exp\n        /* \"https://github.com/smartcontractkit/chainlink/blob/develop/contracts/src/v0.6/vendor/BufferChainlink.sol\":8851:8865  256 ** len - 1 */\n      sub\n        /* \"https://github.com/smartcontractkit/chainlink/blob/develop/contracts/src/v0.6/vendor/BufferChainlink.sol\":8839:8865  uint mask = 256 ** len - 1 */\n      swap1\n      pop\n        /* \"https://github.com/smartcontractkit/chainlink/blob/develop/contracts/src/v0.6/vendor/BufferChainlink.sol\":8951:8954  buf */\n      dup6\n        /* \"https://github.com/smartcontractkit/chainlink/blob/develop/contracts/src/v0.6/vendor/BufferChainlink.sol\":8945:8955  mload(buf) */\n      mload\n        /* \"https://github.com/smartcontractkit/chainlink/blob/develop/contracts/src/v0.6/vendor/BufferChainlink.sol\":9066:9069  len */\n      dup4\n        /* \"https://github.com/smartcontractkit/chainlink/blob/develop/contracts/src/v0.6/vendor/BufferChainlink.sol\":9060:9063  off */\n      dup7\n        /* \"https://github.com/smartcontractkit/chainlink/blob/develop/contracts/src/v0.6/vendor/BufferChainlink.sol\":9052:9058  bufptr */\n      dup3\n        /* \"https://github.com/smartcontractkit/chainlink/blob/develop/contracts/src/v0.6/vendor/BufferChainlink.sol\":9048:9064  add(bufptr, off) */\n      add\n        /* \"https://github.com/smartcontractkit/chainlink/blob/develop/contracts/src/v0.6/vendor/BufferChainlink.sol\":9044:9070  add(add(bufptr, off), len) */\n      add\n        /* \"https://github.com/smartcontractkit/chainlink/blob/develop/contracts/src/v0.6/vendor/BufferChainlink.sol\":9122:9126  data */\n      dup6\n        /* \"https://github.com/smartcontractkit/chainlink/blob/develop/contracts/src/v0.6/vendor/BufferChainlink.sol\":9114:9118  mask */\n      dup4\n        /* \"https://github.com/smartcontractkit/chainlink/blob/develop/contracts/src/v0.6/vendor/BufferChainlink.sol\":9110:9119  not(mask) */\n      not\n        /* \"https://github.com/smartcontractkit/chainlink/blob/develop/contracts/src/v0.6/vendor/BufferChainlink.sol\":9103:9107  dest */\n      dup3\n        /* \"https://github.com/smartcontractkit/chainlink/blob/develop/contracts/src/v0.6/vendor/BufferChainlink.sol\":9097:9108  mload(dest) */\n      mload\n        /* \"https://github.com/smartcontractkit/chainlink/blob/develop/contracts/src/v0.6/vendor/BufferChainlink.sol\":9093:9120  and(mload(dest), not(mask)) */\n      and\n        /* \"https://github.com/smartcontractkit/chainlink/blob/develop/contracts/src/v0.6/vendor/BufferChainlink.sol\":9090:9127  or(and(mload(dest), not(mask)), data) */\n      or\n        /* \"https://github.com/smartcontractkit/chainlink/blob/develop/contracts/src/v0.6/vendor/BufferChainlink.sol\":9084:9088  dest */\n      dup2\n        /* \"https://github.com/smartcontractkit/chainlink/blob/develop/contracts/src/v0.6/vendor/BufferChainlink.sol\":9077:9128  mstore(dest, or(and(mload(dest), not(mask)), data)) */\n      mstore\n        /* \"https://github.com/smartcontractkit/chainlink/blob/develop/contracts/src/v0.6/vendor/BufferChainlink.sol\":9210:9216  bufptr */\n      dup2\n        /* \"https://github.com/smartcontractkit/chainlink/blob/develop/contracts/src/v0.6/vendor/BufferChainlink.sol\":9204:9217  mload(bufptr) */\n      mload\n        /* \"https://github.com/smartcontractkit/chainlink/blob/develop/contracts/src/v0.6/vendor/BufferChainlink.sol\":9198:9201  len */\n      dup6\n        /* \"https://github.com/smartcontractkit/chainlink/blob/develop/contracts/src/v0.6/vendor/BufferChainlink.sol\":9193:9196  off */\n      dup9\n        /* \"https://github.com/smartcontractkit/chainlink/blob/develop/contracts/src/v0.6/vendor/BufferChainlink.sol\":9189:9202  add(off, len) */\n      add\n        /* \"https://github.com/smartcontractkit/chainlink/blob/develop/contracts/src/v0.6/vendor/BufferChainlink.sol\":9186:9218  gt(add(off, len), mload(bufptr)) */\n      gt\n        /* \"https://github.com/smartcontractkit/chainlink/blob/develop/contracts/src/v0.6/vendor/BufferChainlink.sol\":9183:9185  if */\n      iszero\n      tag_189\n      jumpi\n        /* \"https://github.com/smartcontractkit/chainlink/blob/develop/contracts/src/v0.6/vendor/BufferChainlink.sol\":9253:9256  len */\n      dup5\n        /* \"https://github.com/smartcontractkit/chainlink/blob/develop/contracts/src/v0.6/vendor/BufferChainlink.sol\":9248:9251  off */\n      dup8\n        /* \"https://github.com/smartcontractkit/chainlink/blob/develop/contracts/src/v0.6/vendor/BufferChainlink.sol\":9244:9257  add(off, len) */\n      add\n        /* \"https://github.com/smartcontractkit/chainlink/blob/develop/contracts/src/v0.6/vendor/BufferChainlink.sol\":9236:9242  bufptr */\n      dup3\n        /* \"https://github.com/smartcontractkit/chainlink/blob/develop/contracts/src/v0.6/vendor/BufferChainlink.sol\":9229:9258  mstore(bufptr, add(off, len)) */\n      mstore\n        /* \"https://github.com/smartcontractkit/chainlink/blob/develop/contracts/src/v0.6/vendor/BufferChainlink.sol\":9183:9185  if */\n    tag_189:\n        /* \"https://github.com/smartcontractkit/chainlink/blob/develop/contracts/src/v0.6/vendor/BufferChainlink.sol\":8880:9272  {... */\n      pop\n      pop\n        /* \"https://github.com/smartcontractkit/chainlink/blob/develop/contracts/src/v0.6/vendor/BufferChainlink.sol\":9284:9287  buf */\n      dup6\n        /* \"https://github.com/smartcontractkit/chainlink/blob/develop/contracts/src/v0.6/vendor/BufferChainlink.sol\":9277:9287  return buf */\n      swap2\n      pop\n      pop\n        /* \"https://github.com/smartcontractkit/chainlink/blob/develop/contracts/src/v0.6/vendor/BufferChainlink.sol\":8650:9292  function writeInt(buffer memory buf, uint off, uint data, uint len) private pure returns(buffer memory) {... */\n      swap5\n      swap4\n      pop\n      pop\n      pop\n      pop\n      jump\t// out\n        /* \"https://github.com/smartcontractkit/chainlink/blob/develop/contracts/src/v0.6/vendor/BufferChainlink.sol\":1929:2043  function max(uint a, uint b) private pure returns(uint) {... */\n    tag_171:\n        /* \"https://github.com/smartcontractkit/chainlink/blob/develop/contracts/src/v0.6/vendor/BufferChainlink.sol\":1979:1983  uint */\n      0x00\n        /* \"https://github.com/smartcontractkit/chainlink/blob/develop/contracts/src/v0.6/vendor/BufferChainlink.sol\":1999:2000  b */\n      dup2\n        /* \"https://github.com/smartcontractkit/chainlink/blob/develop/contracts/src/v0.6/vendor/BufferChainlink.sol\":1995:1996  a */\n      dup4\n        /* \"https://github.com/smartcontractkit/chainlink/blob/develop/contracts/src/v0.6/vendor/BufferChainlink.sol\":1995:2000  a > b */\n      gt\n        /* \"https://github.com/smartcontractkit/chainlink/blob/develop/contracts/src/v0.6/vendor/BufferChainlink.sol\":1991:2025  if (a > b) {... */\n      iszero\n      tag_191\n      jumpi\n        /* \"https://github.com/smartcontractkit/chainlink/blob/develop/contracts/src/v0.6/vendor/BufferChainlink.sol\":2017:2018  a */\n      dup3\n        /* \"https://github.com/smartcontractkit/chainlink/blob/develop/contracts/src/v0.6/vendor/BufferChainlink.sol\":2010:2018  return a */\n      swap1\n      pop\n      jump(tag_190)\n        /* \"https://github.com/smartcontractkit/chainlink/blob/develop/contracts/src/v0.6/vendor/BufferChainlink.sol\":1991:2025  if (a > b) {... */\n    tag_191:\n        /* \"https://github.com/smartcontractkit/chainlink/blob/develop/contracts/src/v0.6/vendor/BufferChainlink.sol\":2037:2038  b */\n      dup2\n        /* \"https://github.com/smartcontractkit/chainlink/blob/develop/contracts/src/v0.6/vendor/BufferChainlink.sol\":2030:2038  return b */\n      swap1\n      pop\n        /* \"https://github.com/smartcontractkit/chainlink/blob/develop/contracts/src/v0.6/vendor/BufferChainlink.sol\":1929:2043  function max(uint a, uint b) private pure returns(uint) {... */\n    tag_190:\n      swap3\n      swap2\n      pop\n      pop\n      jump\t// out\n        /* \"https://github.com/smartcontractkit/chainlink/blob/develop/contracts/src/v0.6/vendor/BufferChainlink.sol\":1772:1925  function resize(buffer memory buf, uint capacity) private pure {... */\n    tag_172:\n        /* \"https://github.com/smartcontractkit/chainlink/blob/develop/contracts/src/v0.6/vendor/BufferChainlink.sol\":1841:1860  bytes memory oldbuf */\n      0x60\n        /* \"https://github.com/smartcontractkit/chainlink/blob/develop/contracts/src/v0.6/vendor/BufferChainlink.sol\":1863:1866  buf */\n      dup3\n        /* \"https://github.com/smartcontractkit/chainlink/blob/develop/contracts/src/v0.6/vendor/BufferChainlink.sol\":1863:1870  buf.buf */\n      0x00\n      add\n      mload\n        /* \"https://github.com/smartcontractkit/chainlink/blob/develop/contracts/src/v0.6/vendor/BufferChainlink.sol\":1841:1870  bytes memory oldbuf = buf.buf */\n      swap1\n      pop\n        /* \"https://github.com/smartcontractkit/chainlink/blob/develop/contracts/src/v0.6/vendor/BufferChainlink.sol\":1876:1895  init(buf, capacity) */\n      tag_193\n        /* \"https://github.com/smartcontractkit/chainlink/blob/develop/contracts/src/v0.6/vendor/BufferChainlink.sol\":1881:1884  buf */\n      dup4\n        /* \"https://github.com/smartcontractkit/chainlink/blob/develop/contracts/src/v0.6/vendor/BufferChainlink.sol\":1886:1894  capacity */\n      dup4\n        /* \"https://github.com/smartcontractkit/chainlink/blob/develop/contracts/src/v0.6/vendor/BufferChainlink.sol\":1876:1880  init */\n      tag_96\n        /* \"https://github.com/smartcontractkit/chainlink/blob/develop/contracts/src/v0.6/vendor/BufferChainlink.sol\":1876:1895  init(buf, capacity) */\n      jump\t// in\n    tag_193:\n      pop\n        /* \"https://github.com/smartcontractkit/chainlink/blob/develop/contracts/src/v0.6/vendor/BufferChainlink.sol\":1901:1920  append(buf, oldbuf) */\n      tag_194\n        /* \"https://github.com/smartcontractkit/chainlink/blob/develop/contracts/src/v0.6/vendor/BufferChainlink.sol\":1908:1911  buf */\n      dup4\n        /* \"https://github.com/smartcontractkit/chainlink/blob/develop/contracts/src/v0.6/vendor/BufferChainlink.sol\":1913:1919  oldbuf */\n      dup3\n        /* \"https://github.com/smartcontractkit/chainlink/blob/develop/contracts/src/v0.6/vendor/BufferChainlink.sol\":1901:1907  append */\n      tag_101\n        /* \"https://github.com/smartcontractkit/chainlink/blob/develop/contracts/src/v0.6/vendor/BufferChainlink.sol\":1901:1920  append(buf, oldbuf) */\n      jump\t// in\n    tag_194:\n      pop\n        /* \"https://github.com/smartcontractkit/chainlink/blob/develop/contracts/src/v0.6/vendor/BufferChainlink.sol\":1772:1925  function resize(buffer memory buf, uint capacity) private pure {... */\n      pop\n      pop\n      pop\n      jump\t// out\n    tag_44:\n      mload(0x40)\n      dup1\n      0xa0\n      add\n      0x40\n      mstore\n      dup1\n      0x00\n      dup1\n      not\n      and\n      dup2\n      mstore\n      0x20\n      add\n      and(0xffffffffffffffffffffffffffffffffffffffff, 0x00)\n      dup2\n      mstore\n      0x20\n      add\n      and(not(0xffffffffffffffffffffffffffffffffffffffffffffffffffffffff), 0x00)\n      dup2\n      mstore\n      0x20\n      add\n      0x00\n      dup2\n      mstore\n      0x20\n      add\n      tag_195\n      tag_121\n      jump\t// in\n    tag_195:\n      dup2\n      mstore\n      pop\n      swap1\n      jump\t// out\n    tag_121:\n      mload(0x40)\n      dup1\n      0x40\n      add\n      0x40\n      mstore\n      dup1\n      0x60\n      dup2\n      mstore\n      0x20\n      add\n      0x00\n      dup2\n      mstore\n      pop\n      swap1\n      jump\t// out\n    stop\n    data_3b3efd608222b424e5ed8427d7f6a272069793e6a1f5930c93db5c7960c3ce96 756e61626c6520746f207472616e73666572416e6443616c6c20746f206f7261636c65\n    data_444739292f65e0d84586af555ca805e0303948242aa5bbf9a7032603676a8ec3 68747470733a2f2f6d696e2d6170692e63727970746f636f6d706172652e636f6d2f646174612f70726963653f6673796d3d455448267473796d733d555344\n    data_d5cafe2745dab6273b51cca76f8727c7664db74ede49af049a5b5ca6a3b184e4 536f75726365206d75737420626520746865206f7261636c65206f66207468652072657175657374\n\n    auxdata: 0xa264697066735822122057acac1d426f968d83ab99e2f636a95b836624c51928aa0d0e4d9b9965e2fbf064736f6c634300060c0033\n}\n",
				"bytecode": {
					"linkReferences": {},
					"object": "6080604052600160045573b36d3709e22f7c708348e225b20b13ea546e6d9c600860006101000a81548173ffffffffffffffffffffffffffffffffffffffff021916908373ffffffffffffffffffffffffffffffffffffffff16021790555034801561006a57600080fd5b506100796100bf60201b60201c565b33600760006101000a81548173ffffffffffffffffffffffffffffffffffffffff021916908373ffffffffffffffffffffffffffffffffffffffff1602179055506101a8565b61016273c89bd4e1632d3a43cb03aaad5262cbe4038bc57173ffffffffffffffffffffffffffffffffffffffff166338cc48316040518163ffffffff1660e01b815260040160206040518083038186803b15801561011c57600080fd5b505afa158015610130573d6000803e3d6000fd5b505050506040513d602081101561014657600080fd5b810190808051906020019092919050505061016460201b60201c565b565b80600260006101000a81548173ffffffffffffffffffffffffffffffffffffffff021916908373ffffffffffffffffffffffffffffffffffffffff16021790555050565b61152d806101b76000396000f3fe608060405234801561001057600080fd5b50600436106100625760003560e01c80634357855e146100675780638da5cb5b1461009f5780638dc654a2146100d35780639d1b464a146100dd578063d7f29c63146100fb578063ec65d0f814610105575b600080fd5b61009d6004803603604081101561007d57600080fd5b810190808035906020019092919080359060200190929190505050610170565b005b6100a7610297565b604051808273ffffffffffffffffffffffffffffffffffffffff16815260200191505060405180910390f35b6100db6102bd565b005b6100e56104e5565b6040518082815260200191505060405180910390f35b6101036104eb565b005b61016e6004803603608081101561011b57600080fd5b81019080803590602001909291908035906020019092919080357bffffffffffffffffffffffffffffffffffffffffffffffffffffffff1916906020019092919080359060200190929190505050610703565b005b816005600082815260200190815260200160002060009054906101000a900473ffffffffffffffffffffffffffffffffffffffff1673ffffffffffffffffffffffffffffffffffffffff163373ffffffffffffffffffffffffffffffffffffffff1614610228576040517f08c379a00000000000000000000000000000000000000000000000000000000081526004018080602001828103825260288152602001806114d06028913960400191505060405180910390fd5b6005600082815260200190815260200160002060006101000a81549073ffffffffffffffffffffffffffffffffffffffff0219169055807f7cc135e0cebb02c3480ae5d74d377283180a2601f8f644edf7987b009316c63a60405160405180910390a281600681905550505050565b600760009054906101000a900473ffffffffffffffffffffffffffffffffffffffff1681565b600760009054906101000a900473ffffffffffffffffffffffffffffffffffffffff1673ffffffffffffffffffffffffffffffffffffffff163373ffffffffffffffffffffffffffffffffffffffff161461031757600080fd5b600061032161076f565b90508073ffffffffffffffffffffffffffffffffffffffff1663a9059cbb338373ffffffffffffffffffffffffffffffffffffffff166370a08231306040518263ffffffff1660e01b8152600401808273ffffffffffffffffffffffffffffffffffffffff16815260200191505060206040518083038186803b1580156103a757600080fd5b505afa1580156103bb573d6000803e3d6000fd5b505050506040513d60208110156103d157600080fd5b81019080805190602001909291905050506040518363ffffffff1660e01b8152600401808373ffffffffffffffffffffffffffffffffffffffff16815260200182815260200192505050602060405180830381600087803b15801561043557600080fd5b505af1158015610449573d6000803e3d6000fd5b505050506040513d602081101561045f57600080fd5b81019080805190602001909291905050506104e2576040517f08c379a00000000000000000000000000000000000000000000000000000000081526004018080602001828103825260128152602001807f556e61626c6520746f207472616e73666572000000000000000000000000000081525060200191505060405180910390fd5b50565b60065481565b600760009054906101000a900473ffffffffffffffffffffffffffffffffffffffff1673ffffffffffffffffffffffffffffffffffffffff163373ffffffffffffffffffffffffffffffffffffffff161461054557600080fd5b61054d6113e6565b61059c61058e6040518060400160405280602081526020017f3632386564656437646237663466373939646266363935333864656337666632815250610799565b30634357855e60e01b6107c4565b90506106006040518060400160405280600381526020017f67657400000000000000000000000000000000000000000000000000000000008152506040518060600160405280603f8152602001611491603f9139836107f59092919063ffffffff16565b61067f6040518060400160405280600481526020017f70617468000000000000000000000000000000000000000000000000000000008152506040518060400160405280600381526020017f5553440000000000000000000000000000000000000000000000000000000000815250836107f59092919063ffffffff16565b6106ca6040518060400160405280600581526020017f74696d65730000000000000000000000000000000000000000000000000000008152506064836108289092919063ffffffff16565b6106ff600860009054906101000a900473ffffffffffffffffffffffffffffffffffffffff168267016345785d8a000061085b565b5050565b600760009054906101000a900473ffffffffffffffffffffffffffffffffffffffff1673ffffffffffffffffffffffffffffffffffffffff163373ffffffffffffffffffffffffffffffffffffffff161461075d57600080fd5b61076984848484610ae4565b50505050565b6000600260009054906101000a900473ffffffffffffffffffffffffffffffffffffffff16905090565b600060608290506000815114156107b6576000801b9150506107bf565b60208301519150505b919050565b6107cc6113e6565b6107d46113e6565b6107eb85858584610c28909392919063ffffffff16565b9150509392505050565b61080c828460800151610cd890919063ffffffff16565b610823818460800151610cd890919063ffffffff16565b505050565b61083f828460800151610cd890919063ffffffff16565b610856818460800151610cfd90919063ffffffff16565b505050565b600030600454604051602001808373ffffffffffffffffffffffffffffffffffffffff1660601b815260140182815260200192505050604051602081830303815290604052805190602001209050600454836060018181525050836005600083815260200190815260200160002060006101000a81548173ffffffffffffffffffffffffffffffffffffffff021916908373ffffffffffffffffffffffffffffffffffffffff160217905550807fb5e6e01e79f91267dc17b4e6314d5d4d03593d2ceee0fbb452b750bd70ea5af960405160405180910390a2600260009054906101000a900473ffffffffffffffffffffffffffffffffffffffff1673ffffffffffffffffffffffffffffffffffffffff16634000aea0858461097d87610da1565b6040518463ffffffff1660e01b8152600401808473ffffffffffffffffffffffffffffffffffffffff16815260200183815260200180602001828103825283818151815260200191508051906020019080838360005b838110156109ee5780820151818401526020810190506109d3565b50505050905090810190601f168015610a1b5780820380516001836020036101000a031916815260200191505b50945050505050602060405180830381600087803b158015610a3c57600080fd5b505af1158015610a50573d6000803e3d6000fd5b505050506040513d6020811015610a6657600080fd5b8101908080519060200190929190505050610acc576040517f08c379a000000000000000000000000000000000000000000000000000000000815260040180806020018281038252602381526020018061146e6023913960400191505060405180910390fd5b60016004600082825401925050819055509392505050565b60006005600086815260200190815260200160002060009054906101000a900473ffffffffffffffffffffffffffffffffffffffff1690506005600086815260200190815260200160002060006101000a81549073ffffffffffffffffffffffffffffffffffffffff0219169055847fe1fe3afa0f7f761ff0a8b89086790efd5140d2907ebd5b7ff6bfcb5e075fd4c560405160405180910390a28073ffffffffffffffffffffffffffffffffffffffff16636ee4d553868686866040518563ffffffff1660e01b815260040180858152602001848152602001837bffffffffffffffffffffffffffffffffffffffffffffffffffffffff19168152602001828152602001945050505050600060405180830381600087803b158015610c0957600080fd5b505af1158015610c1d573d6000803e3d6000fd5b505050505050505050565b610c306113e6565b610c408560800151610100610f22565b508385600001818152505082856020019073ffffffffffffffffffffffffffffffffffffffff16908173ffffffffffffffffffffffffffffffffffffffff16815250508185604001907bffffffffffffffffffffffffffffffffffffffffffffffffffffffff191690817bffffffffffffffffffffffffffffffffffffffffffffffffffffffff191681525050849050949350505050565b610ce58260038351610f76565b610cf881836110fb90919063ffffffff16565b505050565b7fffffffffffffffffffffffffffffffffffffffffffffffff0000000000000000811215610d3457610d2f828261111d565b610d9d565b67ffffffffffffffff811315610d5357610d4e828261118b565b610d9c565b60008112610d6c57610d6782600083610f76565b610d9b565b610d9a826001837fffffffffffffffffffffffffffffffffffffffffffffffffffffffffffffffff03610f76565b5b5b5b5050565b6060634042994660e01b60008084600001518560200151866040015187606001516001896080015160000151604051602401808973ffffffffffffffffffffffffffffffffffffffff1681526020018881526020018781526020018673ffffffffffffffffffffffffffffffffffffffff168152602001857bffffffffffffffffffffffffffffffffffffffffffffffffffffffff1916815260200184815260200183815260200180602001828103825283818151815260200191508051906020019080838360005b83811015610e85578082015181840152602081019050610e6a565b50505050905090810190601f168015610eb25780820380516001836020036101000a031916815260200191505b509950505050505050505050604051602081830303815290604052907bffffffffffffffffffffffffffffffffffffffffffffffffffffffff19166020820180517bffffffffffffffffffffffffffffffffffffffffffffffffffffffff83818316178352505050509050919050565b610f2a611453565b600060208381610f3657fe5b0614610f4f5760208281610f4657fe5b06602003820191505b81836020018181525050604051808452600081528281016020016040525082905092915050565b60178167ffffffffffffffff1611610fad57610fa78160058460ff16901b60ff1617846111d790919063ffffffff16565b506110f6565b60ff8167ffffffffffffffff161161100357610fdc601860058460ff16901b17846111d790919063ffffffff16565b50610ffd8167ffffffffffffffff166001856111f79092919063ffffffff16565b506110f5565b61ffff8167ffffffffffffffff161161105a57611033601960058460ff16901b17846111d790919063ffffffff16565b506110548167ffffffffffffffff166002856111f79092919063ffffffff16565b506110f4565b63ffffffff8167ffffffffffffffff16116110b35761108c601a60058460ff16901b17846111d790919063ffffffff16565b506110ad8167ffffffffffffffff166004856111f79092919063ffffffff16565b506110f3565b6110d0601b60058460ff16901b17846111d790919063ffffffff16565b506110f18167ffffffffffffffff166008856111f79092919063ffffffff16565b505b5b5b5b505050565b611103611453565b61111583846000015151848551611219565b905092915050565b61113b60036005600660ff16901b17836111d790919063ffffffff16565b5061118782827fffffffffffffffffffffffffffffffffffffffffffffffffffffffffffffffff03604051602001808281526020019150506040516020818303038152906040526112d2565b5050565b6111a960026005600660ff16901b17836111d790919063ffffffff16565b506111d38282604051602001808281526020019150506040516020818303038152906040526112d2565b5050565b6111df611453565b6111ef83846000015151846112f7565b905092915050565b6111ff611453565b611210848560000151518585611345565b90509392505050565b611221611453565b825182111561122f57600080fd5b8460200151828501111561125a5761125985600261125388602001518887016113a6565b026113c2565b5b6000808651805187602083010193508088870111156112795787860182525b60208701925050505b602084106112a55780518252602082019150602081019050602084039350611282565b60006001856020036101000a03905080198251168184511681811785525050879350505050949350505050565b6112df8260028351610f76565b6112f281836110fb90919063ffffffff16565b505050565b6112ff611453565b8360200151831061131c5761131b8460028660200151026113c2565b5b8351805160208583010184815381861415611338576001820183525b5050508390509392505050565b61134d611453565b8460200151848301111561136b5761136a856002868501026113c2565b5b60006001836101000a03905085518386820101858319825116178152815185880111156113985784870182525b505085915050949350505050565b6000818311156113b8578290506113bc565b8190505b92915050565b6060826000015190506113d58383610f22565b506113e083826110fb565b50505050565b6040518060a0016040528060008019168152602001600073ffffffffffffffffffffffffffffffffffffffff16815260200160007bffffffffffffffffffffffffffffffffffffffffffffffffffffffff191681526020016000815260200161144d611453565b81525090565b60405180604001604052806060815260200160008152509056fe756e61626c6520746f207472616e73666572416e6443616c6c20746f206f7261636c6568747470733a2f2f6d696e2d6170692e63727970746f636f6d706172652e636f6d2f646174612f70726963653f6673796d3d455448267473796d733d555344536f75726365206d75737420626520746865206f7261636c65206f66207468652072657175657374a264697066735822122057acac1d426f968d83ab99e2f636a95b836624c51928aa0d0e4d9b9965e2fbf064736f6c634300060c0033",
					"opcodes": "PUSH1 0x80 PUSH1 0x40 MSTORE PUSH1 0x1 PUSH1 0x4 SSTORE PUSH20 0xB36D3709E22F7C708348E225B20B13EA546E6D9C PUSH1 0x8 PUSH1 0x0 PUSH2 0x100 EXP DUP2 SLOAD DUP2 PUSH20 0xFFFFFFFFFFFFFFFFFFFFFFFFFFFFFFFFFFFFFFFF MUL NOT AND SWAP1 DUP4 PUSH20 0xFFFFFFFFFFFFFFFFFFFFFFFFFFFFFFFFFFFFFFFF AND MUL OR SWAP1 SSTORE POP CALLVALUE DUP1 ISZERO PUSH2 0x6A JUMPI PUSH1 0x0 DUP1 REVERT JUMPDEST POP PUSH2 0x79 PUSH2 0xBF PUSH1 0x20 SHL PUSH1 0x20 SHR JUMP JUMPDEST CALLER PUSH1 0x7 PUSH1 0x0 PUSH2 0x100 EXP DUP2 SLOAD DUP2 PUSH20 0xFFFFFFFFFFFFFFFFFFFFFFFFFFFFFFFFFFFFFFFF MUL NOT AND SWAP1 DUP4 PUSH20 0xFFFFFFFFFFFFFFFFFFFFFFFFFFFFFFFFFFFFFFFF AND MUL OR SWAP1 SSTORE POP PUSH2 0x1A8 JUMP JUMPDEST PUSH2 0x162 PUSH20 0xC89BD4E1632D3A43CB03AAAD5262CBE4038BC571 PUSH20 0xFFFFFFFFFFFFFFFFFFFFFFFFFFFFFFFFFFFFFFFF AND PUSH4 0x38CC4831 PUSH1 0x40 MLOAD DUP2 PUSH4 0xFFFFFFFF AND PUSH1 0xE0 SHL DUP2 MSTORE PUSH1 0x4 ADD PUSH1 0x20 PUSH1 0x40 MLOAD DUP1 DUP4 SUB DUP2 DUP7 DUP1 EXTCODESIZE ISZERO DUP1 ISZERO PUSH2 0x11C JUMPI PUSH1 0x0 DUP1 REVERT JUMPDEST POP GAS STATICCALL ISZERO DUP1 ISZERO PUSH2 0x130 JUMPI RETURNDATASIZE PUSH1 0x0 DUP1 RETURNDATACOPY RETURNDATASIZE PUSH1 0x0 REVERT JUMPDEST POP POP POP POP PUSH1 0x40 MLOAD RETURNDATASIZE PUSH1 0x20 DUP2 LT ISZERO PUSH2 0x146 JUMPI PUSH1 0x0 DUP1 REVERT JUMPDEST DUP2 ADD SWAP1 DUP1 DUP1 MLOAD SWAP1 PUSH1 0x20 ADD SWAP1 SWAP3 SWAP2 SWAP1 POP POP POP PUSH2 0x164 PUSH1 0x20 SHL PUSH1 0x20 SHR JUMP JUMPDEST JUMP JUMPDEST DUP1 PUSH1 0x2 PUSH1 0x0 PUSH2 0x100 EXP DUP2 SLOAD DUP2 PUSH20 0xFFFFFFFFFFFFFFFFFFFFFFFFFFFFFFFFFFFFFFFF MUL NOT AND SWAP1 DUP4 PUSH20 0xFFFFFFFFFFFFFFFFFFFFFFFFFFFFFFFFFFFFFFFF AND MUL OR SWAP1 SSTORE POP POP JUMP JUMPDEST PUSH2 0x152D DUP1 PUSH2 0x1B7 PUSH1 0x0 CODECOPY PUSH1 0x0 RETURN INVALID PUSH1 0x80 PUSH1 0x40 MSTORE CALLVALUE DUP1 ISZERO PUSH2 0x10 JUMPI PUSH1 0x0 DUP1 REVERT JUMPDEST POP PUSH1 0x4 CALLDATASIZE LT PUSH2 0x62 JUMPI PUSH1 0x0 CALLDATALOAD PUSH1 0xE0 SHR DUP1 PUSH4 0x4357855E EQ PUSH2 0x67 JUMPI DUP1 PUSH4 0x8DA5CB5B EQ PUSH2 0x9F JUMPI DUP1 PUSH4 0x8DC654A2 EQ PUSH2 0xD3 JUMPI DUP1 PUSH4 0x9D1B464A EQ PUSH2 0xDD JUMPI DUP1 PUSH4 0xD7F29C63 EQ PUSH2 0xFB JUMPI DUP1 PUSH4 0xEC65D0F8 EQ PUSH2 0x105 JUMPI JUMPDEST PUSH1 0x0 DUP1 REVERT JUMPDEST PUSH2 0x9D PUSH1 0x4 DUP1 CALLDATASIZE SUB PUSH1 0x40 DUP2 LT ISZERO PUSH2 0x7D JUMPI PUSH1 0x0 DUP1 REVERT JUMPDEST DUP2 ADD SWAP1 DUP1 DUP1 CALLDATALOAD SWAP1 PUSH1 0x20 ADD SWAP1 SWAP3 SWAP2 SWAP1 DUP1 CALLDATALOAD SWAP1 PUSH1 0x20 ADD SWAP1 SWAP3 SWAP2 SWAP1 POP POP POP PUSH2 0x170 JUMP JUMPDEST STOP JUMPDEST PUSH2 0xA7 PUSH2 0x297 JUMP JUMPDEST PUSH1 0x40 MLOAD DUP1 DUP3 PUSH20 0xFFFFFFFFFFFFFFFFFFFFFFFFFFFFFFFFFFFFFFFF AND DUP2 MSTORE PUSH1 0x20 ADD SWAP2 POP POP PUSH1 0x40 MLOAD DUP1 SWAP2 SUB SWAP1 RETURN JUMPDEST PUSH2 0xDB PUSH2 0x2BD JUMP JUMPDEST STOP JUMPDEST PUSH2 0xE5 PUSH2 0x4E5 JUMP JUMPDEST PUSH1 0x40 MLOAD DUP1 DUP3 DUP2 MSTORE PUSH1 0x20 ADD SWAP2 POP POP PUSH1 0x40 MLOAD DUP1 SWAP2 SUB SWAP1 RETURN JUMPDEST PUSH2 0x103 PUSH2 0x4EB JUMP JUMPDEST STOP JUMPDEST PUSH2 0x16E PUSH1 0x4 DUP1 CALLDATASIZE SUB PUSH1 0x80 DUP2 LT ISZERO PUSH2 0x11B JUMPI PUSH1 0x0 DUP1 REVERT JUMPDEST DUP2 ADD SWAP1 DUP1 DUP1 CALLDATALOAD SWAP1 PUSH1 0x20 ADD SWAP1 SWAP3 SWAP2 SWAP1 DUP1 CALLDATALOAD SWAP1 PUSH1 0x20 ADD SWAP1 SWAP3 SWAP2 SWAP1 DUP1 CALLDATALOAD PUSH28 0xFFFFFFFFFFFFFFFFFFFFFFFFFFFFFFFFFFFFFFFFFFFFFFFFFFFFFFFF NOT AND SWAP1 PUSH1 0x20 ADD SWAP1 SWAP3 SWAP2 SWAP1 DUP1 CALLDATALOAD SWAP1 PUSH1 0x20 ADD SWAP1 SWAP3 SWAP2 SWAP1 POP POP POP PUSH2 0x703 JUMP JUMPDEST STOP JUMPDEST DUP2 PUSH1 0x5 PUSH1 0x0 DUP3 DUP2 MSTORE PUSH1 0x20 ADD SWAP1 DUP2 MSTORE PUSH1 0x20 ADD PUSH1 0x0 KECCAK256 PUSH1 0x0 SWAP1 SLOAD SWAP1 PUSH2 0x100 EXP SWAP1 DIV PUSH20 0xFFFFFFFFFFFFFFFFFFFFFFFFFFFFFFFFFFFFFFFF AND PUSH20 0xFFFFFFFFFFFFFFFFFFFFFFFFFFFFFFFFFFFFFFFF AND CALLER PUSH20 0xFFFFFFFFFFFFFFFFFFFFFFFFFFFFFFFFFFFFFFFF AND EQ PUSH2 0x228 JUMPI PUSH1 0x40 MLOAD PUSH32 0x8C379A000000000000000000000000000000000000000000000000000000000 DUP2 MSTORE PUSH1 0x4 ADD DUP1 DUP1 PUSH1 0x20 ADD DUP3 DUP2 SUB DUP3 MSTORE PUSH1 0x28 DUP2 MSTORE PUSH1 0x20 ADD DUP1 PUSH2 0x14D0 PUSH1 0x28 SWAP2 CODECOPY PUSH1 0x40 ADD SWAP2 POP POP PUSH1 0x40 MLOAD DUP1 SWAP2 SUB SWAP1 REVERT JUMPDEST PUSH1 0x5 PUSH1 0x0 DUP3 DUP2 MSTORE PUSH1 0x20 ADD SWAP1 DUP2 MSTORE PUSH1 0x20 ADD PUSH1 0x0 KECCAK256 PUSH1 0x0 PUSH2 0x100 EXP DUP2 SLOAD SWAP1 PUSH20 0xFFFFFFFFFFFFFFFFFFFFFFFFFFFFFFFFFFFFFFFF MUL NOT AND SWAP1 SSTORE DUP1 PUSH32 0x7CC135E0CEBB02C3480AE5D74D377283180A2601F8F644EDF7987B009316C63A PUSH1 0x40 MLOAD PUSH1 0x40 MLOAD DUP1 SWAP2 SUB SWAP1 LOG2 DUP2 PUSH1 0x6 DUP2 SWAP1 SSTORE POP POP POP POP JUMP JUMPDEST PUSH1 0x7 PUSH1 0x0 SWAP1 SLOAD SWAP1 PUSH2 0x100 EXP SWAP1 DIV PUSH20 0xFFFFFFFFFFFFFFFFFFFFFFFFFFFFFFFFFFFFFFFF AND DUP2 JUMP JUMPDEST PUSH1 0x7 PUSH1 0x0 SWAP1 SLOAD SWAP1 PUSH2 0x100 EXP SWAP1 DIV PUSH20 0xFFFFFFFFFFFFFFFFFFFFFFFFFFFFFFFFFFFFFFFF AND PUSH20 0xFFFFFFFFFFFFFFFFFFFFFFFFFFFFFFFFFFFFFFFF AND CALLER PUSH20 0xFFFFFFFFFFFFFFFFFFFFFFFFFFFFFFFFFFFFFFFF AND EQ PUSH2 0x317 JUMPI PUSH1 0x0 DUP1 REVERT JUMPDEST PUSH1 0x0 PUSH2 0x321 PUSH2 0x76F JUMP JUMPDEST SWAP1 POP DUP1 PUSH20 0xFFFFFFFFFFFFFFFFFFFFFFFFFFFFFFFFFFFFFFFF AND PUSH4 0xA9059CBB CALLER DUP4 PUSH20 0xFFFFFFFFFFFFFFFFFFFFFFFFFFFFFFFFFFFFFFFF AND PUSH4 0x70A08231 ADDRESS PUSH1 0x40 MLOAD DUP3 PUSH4 0xFFFFFFFF AND PUSH1 0xE0 SHL DUP2 MSTORE PUSH1 0x4 ADD DUP1 DUP3 PUSH20 0xFFFFFFFFFFFFFFFFFFFFFFFFFFFFFFFFFFFFFFFF AND DUP2 MSTORE PUSH1 0x20 ADD SWAP2 POP POP PUSH1 0x20 PUSH1 0x40 MLOAD DUP1 DUP4 SUB DUP2 DUP7 DUP1 EXTCODESIZE ISZERO DUP1 ISZERO PUSH2 0x3A7 JUMPI PUSH1 0x0 DUP1 REVERT JUMPDEST POP GAS STATICCALL ISZERO DUP1 ISZERO PUSH2 0x3BB JUMPI RETURNDATASIZE PUSH1 0x0 DUP1 RETURNDATACOPY RETURNDATASIZE PUSH1 0x0 REVERT JUMPDEST POP POP POP POP PUSH1 0x40 MLOAD RETURNDATASIZE PUSH1 0x20 DUP2 LT ISZERO PUSH2 0x3D1 JUMPI PUSH1 0x0 DUP1 REVERT JUMPDEST DUP2 ADD SWAP1 DUP1 DUP1 MLOAD SWAP1 PUSH1 0x20 ADD SWAP1 SWAP3 SWAP2 SWAP1 POP POP POP PUSH1 0x40 MLOAD DUP4 PUSH4 0xFFFFFFFF AND PUSH1 0xE0 SHL DUP2 MSTORE PUSH1 0x4 ADD DUP1 DUP4 PUSH20 0xFFFFFFFFFFFFFFFFFFFFFFFFFFFFFFFFFFFFFFFF AND DUP2 MSTORE PUSH1 0x20 ADD DUP3 DUP2 MSTORE PUSH1 0x20 ADD SWAP3 POP POP POP PUSH1 0x20 PUSH1 0x40 MLOAD DUP1 DUP4 SUB DUP2 PUSH1 0x0 DUP8 DUP1 EXTCODESIZE ISZERO DUP1 ISZERO PUSH2 0x435 JUMPI PUSH1 0x0 DUP1 REVERT JUMPDEST POP GAS CALL ISZERO DUP1 ISZERO PUSH2 0x449 JUMPI RETURNDATASIZE PUSH1 0x0 DUP1 RETURNDATACOPY RETURNDATASIZE PUSH1 0x0 REVERT JUMPDEST POP POP POP POP PUSH1 0x40 MLOAD RETURNDATASIZE PUSH1 0x20 DUP2 LT ISZERO PUSH2 0x45F JUMPI PUSH1 0x0 DUP1 REVERT JUMPDEST DUP2 ADD SWAP1 DUP1 DUP1 MLOAD SWAP1 PUSH1 0x20 ADD SWAP1 SWAP3 SWAP2 SWAP1 POP POP POP PUSH2 0x4E2 JUMPI PUSH1 0x40 MLOAD PUSH32 0x8C379A000000000000000000000000000000000000000000000000000000000 DUP2 MSTORE PUSH1 0x4 ADD DUP1 DUP1 PUSH1 0x20 ADD DUP3 DUP2 SUB DUP3 MSTORE PUSH1 0x12 DUP2 MSTORE PUSH1 0x20 ADD DUP1 PUSH32 0x556E61626C6520746F207472616E736665720000000000000000000000000000 DUP2 MSTORE POP PUSH1 0x20 ADD SWAP2 POP POP PUSH1 0x40 MLOAD DUP1 SWAP2 SUB SWAP1 REVERT JUMPDEST POP JUMP JUMPDEST PUSH1 0x6 SLOAD DUP2 JUMP JUMPDEST PUSH1 0x7 PUSH1 0x0 SWAP1 SLOAD SWAP1 PUSH2 0x100 EXP SWAP1 DIV PUSH20 0xFFFFFFFFFFFFFFFFFFFFFFFFFFFFFFFFFFFFFFFF AND PUSH20 0xFFFFFFFFFFFFFFFFFFFFFFFFFFFFFFFFFFFFFFFF AND CALLER PUSH20 0xFFFFFFFFFFFFFFFFFFFFFFFFFFFFFFFFFFFFFFFF AND EQ PUSH2 0x545 JUMPI PUSH1 0x0 DUP1 REVERT JUMPDEST PUSH2 0x54D PUSH2 0x13E6 JUMP JUMPDEST PUSH2 0x59C PUSH2 0x58E PUSH1 0x40 MLOAD DUP1 PUSH1 0x40 ADD PUSH1 0x40 MSTORE DUP1 PUSH1 0x20 DUP2 MSTORE PUSH1 0x20 ADD PUSH32 0x3632386564656437646237663466373939646266363935333864656337666632 DUP2 MSTORE POP PUSH2 0x799 JUMP JUMPDEST ADDRESS PUSH4 0x4357855E PUSH1 0xE0 SHL PUSH2 0x7C4 JUMP JUMPDEST SWAP1 POP PUSH2 0x600 PUSH1 0x40 MLOAD DUP1 PUSH1 0x40 ADD PUSH1 0x40 MSTORE DUP1 PUSH1 0x3 DUP2 MSTORE PUSH1 0x20 ADD PUSH32 0x6765740000000000000000000000000000000000000000000000000000000000 DUP2 MSTORE POP PUSH1 0x40 MLOAD DUP1 PUSH1 0x60 ADD PUSH1 0x40 MSTORE DUP1 PUSH1 0x3F DUP2 MSTORE PUSH1 0x20 ADD PUSH2 0x1491 PUSH1 0x3F SWAP2 CODECOPY DUP4 PUSH2 0x7F5 SWAP1 SWAP3 SWAP2 SWAP1 PUSH4 0xFFFFFFFF AND JUMP JUMPDEST PUSH2 0x67F PUSH1 0x40 MLOAD DUP1 PUSH1 0x40 ADD PUSH1 0x40 MSTORE DUP1 PUSH1 0x4 DUP2 MSTORE PUSH1 0x20 ADD PUSH32 0x7061746800000000000000000000000000000000000000000000000000000000 DUP2 MSTORE POP PUSH1 0x40 MLOAD DUP1 PUSH1 0x40 ADD PUSH1 0x40 MSTORE DUP1 PUSH1 0x3 DUP2 MSTORE PUSH1 0x20 ADD PUSH32 0x5553440000000000000000000000000000000000000000000000000000000000 DUP2 MSTORE POP DUP4 PUSH2 0x7F5 SWAP1 SWAP3 SWAP2 SWAP1 PUSH4 0xFFFFFFFF AND JUMP JUMPDEST PUSH2 0x6CA PUSH1 0x40 MLOAD DUP1 PUSH1 0x40 ADD PUSH1 0x40 MSTORE DUP1 PUSH1 0x5 DUP2 MSTORE PUSH1 0x20 ADD PUSH32 0x74696D6573000000000000000000000000000000000000000000000000000000 DUP2 MSTORE POP PUSH1 0x64 DUP4 PUSH2 0x828 SWAP1 SWAP3 SWAP2 SWAP1 PUSH4 0xFFFFFFFF AND JUMP JUMPDEST PUSH2 0x6FF PUSH1 0x8 PUSH1 0x0 SWAP1 SLOAD SWAP1 PUSH2 0x100 EXP SWAP1 DIV PUSH20 0xFFFFFFFFFFFFFFFFFFFFFFFFFFFFFFFFFFFFFFFF AND DUP3 PUSH8 0x16345785D8A0000 PUSH2 0x85B JUMP JUMPDEST POP POP JUMP JUMPDEST PUSH1 0x7 PUSH1 0x0 SWAP1 SLOAD SWAP1 PUSH2 0x100 EXP SWAP1 DIV PUSH20 0xFFFFFFFFFFFFFFFFFFFFFFFFFFFFFFFFFFFFFFFF AND PUSH20 0xFFFFFFFFFFFFFFFFFFFFFFFFFFFFFFFFFFFFFFFF AND CALLER PUSH20 0xFFFFFFFFFFFFFFFFFFFFFFFFFFFFFFFFFFFFFFFF AND EQ PUSH2 0x75D JUMPI PUSH1 0x0 DUP1 REVERT JUMPDEST PUSH2 0x769 DUP5 DUP5 DUP5 DUP5 PUSH2 0xAE4 JUMP JUMPDEST POP POP POP POP JUMP JUMPDEST PUSH1 0x0 PUSH1 0x2 PUSH1 0x0 SWAP1 SLOAD SWAP1 PUSH2 0x100 EXP SWAP1 DIV PUSH20 0xFFFFFFFFFFFFFFFFFFFFFFFFFFFFFFFFFFFFFFFF AND SWAP1 POP SWAP1 JUMP JUMPDEST PUSH1 0x0 PUSH1 0x60 DUP3 SWAP1 POP PUSH1 0x0 DUP2 MLOAD EQ ISZERO PUSH2 0x7B6 JUMPI PUSH1 0x0 DUP1 SHL SWAP2 POP POP PUSH2 0x7BF JUMP JUMPDEST PUSH1 0x20 DUP4 ADD MLOAD SWAP2 POP POP JUMPDEST SWAP2 SWAP1 POP JUMP JUMPDEST PUSH2 0x7CC PUSH2 0x13E6 JUMP JUMPDEST PUSH2 0x7D4 PUSH2 0x13E6 JUMP JUMPDEST PUSH2 0x7EB DUP6 DUP6 DUP6 DUP5 PUSH2 0xC28 SWAP1 SWAP4 SWAP3 SWAP2 SWAP1 PUSH4 0xFFFFFFFF AND JUMP JUMPDEST SWAP2 POP POP SWAP4 SWAP3 POP POP POP JUMP JUMPDEST PUSH2 0x80C DUP3 DUP5 PUSH1 0x80 ADD MLOAD PUSH2 0xCD8 SWAP1 SWAP2 SWAP1 PUSH4 0xFFFFFFFF AND JUMP JUMPDEST PUSH2 0x823 DUP2 DUP5 PUSH1 0x80 ADD MLOAD PUSH2 0xCD8 SWAP1 SWAP2 SWAP1 PUSH4 0xFFFFFFFF AND JUMP JUMPDEST POP POP POP JUMP JUMPDEST PUSH2 0x83F DUP3 DUP5 PUSH1 0x80 ADD MLOAD PUSH2 0xCD8 SWAP1 SWAP2 SWAP1 PUSH4 0xFFFFFFFF AND JUMP JUMPDEST PUSH2 0x856 DUP2 DUP5 PUSH1 0x80 ADD MLOAD PUSH2 0xCFD SWAP1 SWAP2 SWAP1 PUSH4 0xFFFFFFFF AND JUMP JUMPDEST POP POP POP JUMP JUMPDEST PUSH1 0x0 ADDRESS PUSH1 0x4 SLOAD PUSH1 0x40 MLOAD PUSH1 0x20 ADD DUP1 DUP4 PUSH20 0xFFFFFFFFFFFFFFFFFFFFFFFFFFFFFFFFFFFFFFFF AND PUSH1 0x60 SHL DUP2 MSTORE PUSH1 0x14 ADD DUP3 DUP2 MSTORE PUSH1 0x20 ADD SWAP3 POP POP POP PUSH1 0x40 MLOAD PUSH1 0x20 DUP2 DUP4 SUB SUB DUP2 MSTORE SWAP1 PUSH1 0x40 MSTORE DUP1 MLOAD SWAP1 PUSH1 0x20 ADD KECCAK256 SWAP1 POP PUSH1 0x4 SLOAD DUP4 PUSH1 0x60 ADD DUP2 DUP2 MSTORE POP POP DUP4 PUSH1 0x5 PUSH1 0x0 DUP4 DUP2 MSTORE PUSH1 0x20 ADD SWAP1 DUP2 MSTORE PUSH1 0x20 ADD PUSH1 0x0 KECCAK256 PUSH1 0x0 PUSH2 0x100 EXP DUP2 SLOAD DUP2 PUSH20 0xFFFFFFFFFFFFFFFFFFFFFFFFFFFFFFFFFFFFFFFF MUL NOT AND SWAP1 DUP4 PUSH20 0xFFFFFFFFFFFFFFFFFFFFFFFFFFFFFFFFFFFFFFFF AND MUL OR SWAP1 SSTORE POP DUP1 PUSH32 0xB5E6E01E79F91267DC17B4E6314D5D4D03593D2CEEE0FBB452B750BD70EA5AF9 PUSH1 0x40 MLOAD PUSH1 0x40 MLOAD DUP1 SWAP2 SUB SWAP1 LOG2 PUSH1 0x2 PUSH1 0x0 SWAP1 SLOAD SWAP1 PUSH2 0x100 EXP SWAP1 DIV PUSH20 0xFFFFFFFFFFFFFFFFFFFFFFFFFFFFFFFFFFFFFFFF AND PUSH20 0xFFFFFFFFFFFFFFFFFFFFFFFFFFFFFFFFFFFFFFFF AND PUSH4 0x4000AEA0 DUP6 DUP5 PUSH2 0x97D DUP8 PUSH2 0xDA1 JUMP JUMPDEST PUSH1 0x40 MLOAD DUP5 PUSH4 0xFFFFFFFF AND PUSH1 0xE0 SHL DUP2 MSTORE PUSH1 0x4 ADD DUP1 DUP5 PUSH20 0xFFFFFFFFFFFFFFFFFFFFFFFFFFFFFFFFFFFFFFFF AND DUP2 MSTORE PUSH1 0x20 ADD DUP4 DUP2 MSTORE PUSH1 0x20 ADD DUP1 PUSH1 0x20 ADD DUP3 DUP2 SUB DUP3 MSTORE DUP4 DUP2 DUP2 MLOAD DUP2 MSTORE PUSH1 0x20 ADD SWAP2 POP DUP1 MLOAD SWAP1 PUSH1 0x20 ADD SWAP1 DUP1 DUP4 DUP4 PUSH1 0x0 JUMPDEST DUP4 DUP2 LT ISZERO PUSH2 0x9EE JUMPI DUP1 DUP3 ADD MLOAD DUP2 DUP5 ADD MSTORE PUSH1 0x20 DUP2 ADD SWAP1 POP PUSH2 0x9D3 JUMP JUMPDEST POP POP POP POP SWAP1 POP SWAP1 DUP2 ADD SWAP1 PUSH1 0x1F AND DUP1 ISZERO PUSH2 0xA1B JUMPI DUP1 DUP3 SUB DUP1 MLOAD PUSH1 0x1 DUP4 PUSH1 0x20 SUB PUSH2 0x100 EXP SUB NOT AND DUP2 MSTORE PUSH1 0x20 ADD SWAP2 POP JUMPDEST POP SWAP5 POP POP POP POP POP PUSH1 0x20 PUSH1 0x40 MLOAD DUP1 DUP4 SUB DUP2 PUSH1 0x0 DUP8 DUP1 EXTCODESIZE ISZERO DUP1 ISZERO PUSH2 0xA3C JUMPI PUSH1 0x0 DUP1 REVERT JUMPDEST POP GAS CALL ISZERO DUP1 ISZERO PUSH2 0xA50 JUMPI RETURNDATASIZE PUSH1 0x0 DUP1 RETURNDATACOPY RETURNDATASIZE PUSH1 0x0 REVERT JUMPDEST POP POP POP POP PUSH1 0x40 MLOAD RETURNDATASIZE PUSH1 0x20 DUP2 LT ISZERO PUSH2 0xA66 JUMPI PUSH1 0x0 DUP1 REVERT JUMPDEST DUP2 ADD SWAP1 DUP1 DUP1 MLOAD SWAP1 PUSH1 0x20 ADD SWAP1 SWAP3 SWAP2 SWAP1 POP POP POP PUSH2 0xACC JUMPI PUSH1 0x40 MLOAD PUSH32 0x8C379A000000000000000000000000000000000000000000000000000000000 DUP2 MSTORE PUSH1 0x4 ADD DUP1 DUP1 PUSH1 0x20 ADD DUP3 DUP2 SUB DUP3 MSTORE PUSH1 0x23 DUP2 MSTORE PUSH1 0x20 ADD DUP1 PUSH2 0x146E PUSH1 0x23 SWAP2 CODECOPY PUSH1 0x40 ADD SWAP2 POP POP PUSH1 0x40 MLOAD DUP1 SWAP2 SUB SWAP1 REVERT JUMPDEST PUSH1 0x1 PUSH1 0x4 PUSH1 0x0 DUP3 DUP3 SLOAD ADD SWAP3 POP POP DUP2 SWAP1 SSTORE POP SWAP4 SWAP3 POP POP POP JUMP JUMPDEST PUSH1 0x0 PUSH1 0x5 PUSH1 0x0 DUP7 DUP2 MSTORE PUSH1 0x20 ADD SWAP1 DUP2 MSTORE PUSH1 0x20 ADD PUSH1 0x0 KECCAK256 PUSH1 0x0 SWAP1 SLOAD SWAP1 PUSH2 0x100 EXP SWAP1 DIV PUSH20 0xFFFFFFFFFFFFFFFFFFFFFFFFFFFFFFFFFFFFFFFF AND SWAP1 POP PUSH1 0x5 PUSH1 0x0 DUP7 DUP2 MSTORE PUSH1 0x20 ADD SWAP1 DUP2 MSTORE PUSH1 0x20 ADD PUSH1 0x0 KECCAK256 PUSH1 0x0 PUSH2 0x100 EXP DUP2 SLOAD SWAP1 PUSH20 0xFFFFFFFFFFFFFFFFFFFFFFFFFFFFFFFFFFFFFFFF MUL NOT AND SWAP1 SSTORE DUP5 PUSH32 0xE1FE3AFA0F7F761FF0A8B89086790EFD5140D2907EBD5B7FF6BFCB5E075FD4C5 PUSH1 0x40 MLOAD PUSH1 0x40 MLOAD DUP1 SWAP2 SUB SWAP1 LOG2 DUP1 PUSH20 0xFFFFFFFFFFFFFFFFFFFFFFFFFFFFFFFFFFFFFFFF AND PUSH4 0x6EE4D553 DUP7 DUP7 DUP7 DUP7 PUSH1 0x40 MLOAD DUP6 PUSH4 0xFFFFFFFF AND PUSH1 0xE0 SHL DUP2 MSTORE PUSH1 0x4 ADD DUP1 DUP6 DUP2 MSTORE PUSH1 0x20 ADD DUP5 DUP2 MSTORE PUSH1 0x20 ADD DUP4 PUSH28 0xFFFFFFFFFFFFFFFFFFFFFFFFFFFFFFFFFFFFFFFFFFFFFFFFFFFFFFFF NOT AND DUP2 MSTORE PUSH1 0x20 ADD DUP3 DUP2 MSTORE PUSH1 0x20 ADD SWAP5 POP POP POP POP POP PUSH1 0x0 PUSH1 0x40 MLOAD DUP1 DUP4 SUB DUP2 PUSH1 0x0 DUP8 DUP1 EXTCODESIZE ISZERO DUP1 ISZERO PUSH2 0xC09 JUMPI PUSH1 0x0 DUP1 REVERT JUMPDEST POP GAS CALL ISZERO DUP1 ISZERO PUSH2 0xC1D JUMPI RETURNDATASIZE PUSH1 0x0 DUP1 RETURNDATACOPY RETURNDATASIZE PUSH1 0x0 REVERT JUMPDEST POP POP POP POP POP POP POP POP POP JUMP JUMPDEST PUSH2 0xC30 PUSH2 0x13E6 JUMP JUMPDEST PUSH2 0xC40 DUP6 PUSH1 0x80 ADD MLOAD PUSH2 0x100 PUSH2 0xF22 JUMP JUMPDEST POP DUP4 DUP6 PUSH1 0x0 ADD DUP2 DUP2 MSTORE POP POP DUP3 DUP6 PUSH1 0x20 ADD SWAP1 PUSH20 0xFFFFFFFFFFFFFFFFFFFFFFFFFFFFFFFFFFFFFFFF AND SWAP1 DUP2 PUSH20 0xFFFFFFFFFFFFFFFFFFFFFFFFFFFFFFFFFFFFFFFF AND DUP2 MSTORE POP POP DUP2 DUP6 PUSH1 0x40 ADD SWAP1 PUSH28 0xFFFFFFFFFFFFFFFFFFFFFFFFFFFFFFFFFFFFFFFFFFFFFFFFFFFFFFFF NOT AND SWAP1 DUP2 PUSH28 0xFFFFFFFFFFFFFFFFFFFFFFFFFFFFFFFFFFFFFFFFFFFFFFFFFFFFFFFF NOT AND DUP2 MSTORE POP POP DUP5 SWAP1 POP SWAP5 SWAP4 POP POP POP POP JUMP JUMPDEST PUSH2 0xCE5 DUP3 PUSH1 0x3 DUP4 MLOAD PUSH2 0xF76 JUMP JUMPDEST PUSH2 0xCF8 DUP2 DUP4 PUSH2 0x10FB SWAP1 SWAP2 SWAP1 PUSH4 0xFFFFFFFF AND JUMP JUMPDEST POP POP POP JUMP JUMPDEST PUSH32 0xFFFFFFFFFFFFFFFFFFFFFFFFFFFFFFFFFFFFFFFFFFFFFFFF0000000000000000 DUP2 SLT ISZERO PUSH2 0xD34 JUMPI PUSH2 0xD2F DUP3 DUP3 PUSH2 0x111D JUMP JUMPDEST PUSH2 0xD9D JUMP JUMPDEST PUSH8 0xFFFFFFFFFFFFFFFF DUP2 SGT ISZERO PUSH2 0xD53 JUMPI PUSH2 0xD4E DUP3 DUP3 PUSH2 0x118B JUMP JUMPDEST PUSH2 0xD9C JUMP JUMPDEST PUSH1 0x0 DUP2 SLT PUSH2 0xD6C JUMPI PUSH2 0xD67 DUP3 PUSH1 0x0 DUP4 PUSH2 0xF76 JUMP JUMPDEST PUSH2 0xD9B JUMP JUMPDEST PUSH2 0xD9A DUP3 PUSH1 0x1 DUP4 PUSH32 0xFFFFFFFFFFFFFFFFFFFFFFFFFFFFFFFFFFFFFFFFFFFFFFFFFFFFFFFFFFFFFFFF SUB PUSH2 0xF76 JUMP JUMPDEST JUMPDEST JUMPDEST JUMPDEST POP POP JUMP JUMPDEST PUSH1 0x60 PUSH4 0x40429946 PUSH1 0xE0 SHL PUSH1 0x0 DUP1 DUP5 PUSH1 0x0 ADD MLOAD DUP6 PUSH1 0x20 ADD MLOAD DUP7 PUSH1 0x40 ADD MLOAD DUP8 PUSH1 0x60 ADD MLOAD PUSH1 0x1 DUP10 PUSH1 0x80 ADD MLOAD PUSH1 0x0 ADD MLOAD PUSH1 0x40 MLOAD PUSH1 0x24 ADD DUP1 DUP10 PUSH20 0xFFFFFFFFFFFFFFFFFFFFFFFFFFFFFFFFFFFFFFFF AND DUP2 MSTORE PUSH1 0x20 ADD DUP9 DUP2 MSTORE PUSH1 0x20 ADD DUP8 DUP2 MSTORE PUSH1 0x20 ADD DUP7 PUSH20 0xFFFFFFFFFFFFFFFFFFFFFFFFFFFFFFFFFFFFFFFF AND DUP2 MSTORE PUSH1 0x20 ADD DUP6 PUSH28 0xFFFFFFFFFFFFFFFFFFFFFFFFFFFFFFFFFFFFFFFFFFFFFFFFFFFFFFFF NOT AND DUP2 MSTORE PUSH1 0x20 ADD DUP5 DUP2 MSTORE PUSH1 0x20 ADD DUP4 DUP2 MSTORE PUSH1 0x20 ADD DUP1 PUSH1 0x20 ADD DUP3 DUP2 SUB DUP3 MSTORE DUP4 DUP2 DUP2 MLOAD DUP2 MSTORE PUSH1 0x20 ADD SWAP2 POP DUP1 MLOAD SWAP1 PUSH1 0x20 ADD SWAP1 DUP1 DUP4 DUP4 PUSH1 0x0 JUMPDEST DUP4 DUP2 LT ISZERO PUSH2 0xE85 JUMPI DUP1 DUP3 ADD MLOAD DUP2 DUP5 ADD MSTORE PUSH1 0x20 DUP2 ADD SWAP1 POP PUSH2 0xE6A JUMP JUMPDEST POP POP POP POP SWAP1 POP SWAP1 DUP2 ADD SWAP1 PUSH1 0x1F AND DUP1 ISZERO PUSH2 0xEB2 JUMPI DUP1 DUP3 SUB DUP1 MLOAD PUSH1 0x1 DUP4 PUSH1 0x20 SUB PUSH2 0x100 EXP SUB NOT AND DUP2 MSTORE PUSH1 0x20 ADD SWAP2 POP JUMPDEST POP SWAP10 POP POP POP POP POP POP POP POP POP POP PUSH1 0x40 MLOAD PUSH1 0x20 DUP2 DUP4 SUB SUB DUP2 MSTORE SWAP1 PUSH1 0x40 MSTORE SWAP1 PUSH28 0xFFFFFFFFFFFFFFFFFFFFFFFFFFFFFFFFFFFFFFFFFFFFFFFFFFFFFFFF NOT AND PUSH1 0x20 DUP3 ADD DUP1 MLOAD PUSH28 0xFFFFFFFFFFFFFFFFFFFFFFFFFFFFFFFFFFFFFFFFFFFFFFFFFFFFFFFF DUP4 DUP2 DUP4 AND OR DUP4 MSTORE POP POP POP POP SWAP1 POP SWAP2 SWAP1 POP JUMP JUMPDEST PUSH2 0xF2A PUSH2 0x1453 JUMP JUMPDEST PUSH1 0x0 PUSH1 0x20 DUP4 DUP2 PUSH2 0xF36 JUMPI INVALID JUMPDEST MOD EQ PUSH2 0xF4F JUMPI PUSH1 0x20 DUP3 DUP2 PUSH2 0xF46 JUMPI INVALID JUMPDEST MOD PUSH1 0x20 SUB DUP3 ADD SWAP2 POP JUMPDEST DUP2 DUP4 PUSH1 0x20 ADD DUP2 DUP2 MSTORE POP POP PUSH1 0x40 MLOAD DUP1 DUP5 MSTORE PUSH1 0x0 DUP2 MSTORE DUP3 DUP2 ADD PUSH1 0x20 ADD PUSH1 0x40 MSTORE POP DUP3 SWAP1 POP SWAP3 SWAP2 POP POP JUMP JUMPDEST PUSH1 0x17 DUP2 PUSH8 0xFFFFFFFFFFFFFFFF AND GT PUSH2 0xFAD JUMPI PUSH2 0xFA7 DUP2 PUSH1 0x5 DUP5 PUSH1 0xFF AND SWAP1 SHL PUSH1 0xFF AND OR DUP5 PUSH2 0x11D7 SWAP1 SWAP2 SWAP1 PUSH4 0xFFFFFFFF AND JUMP JUMPDEST POP PUSH2 0x10F6 JUMP JUMPDEST PUSH1 0xFF DUP2 PUSH8 0xFFFFFFFFFFFFFFFF AND GT PUSH2 0x1003 JUMPI PUSH2 0xFDC PUSH1 0x18 PUSH1 0x5 DUP5 PUSH1 0xFF AND SWAP1 SHL OR DUP5 PUSH2 0x11D7 SWAP1 SWAP2 SWAP1 PUSH4 0xFFFFFFFF AND JUMP JUMPDEST POP PUSH2 0xFFD DUP2 PUSH8 0xFFFFFFFFFFFFFFFF AND PUSH1 0x1 DUP6 PUSH2 0x11F7 SWAP1 SWAP3 SWAP2 SWAP1 PUSH4 0xFFFFFFFF AND JUMP JUMPDEST POP PUSH2 0x10F5 JUMP JUMPDEST PUSH2 0xFFFF DUP2 PUSH8 0xFFFFFFFFFFFFFFFF AND GT PUSH2 0x105A JUMPI PUSH2 0x1033 PUSH1 0x19 PUSH1 0x5 DUP5 PUSH1 0xFF AND SWAP1 SHL OR DUP5 PUSH2 0x11D7 SWAP1 SWAP2 SWAP1 PUSH4 0xFFFFFFFF AND JUMP JUMPDEST POP PUSH2 0x1054 DUP2 PUSH8 0xFFFFFFFFFFFFFFFF AND PUSH1 0x2 DUP6 PUSH2 0x11F7 SWAP1 SWAP3 SWAP2 SWAP1 PUSH4 0xFFFFFFFF AND JUMP JUMPDEST POP PUSH2 0x10F4 JUMP JUMPDEST PUSH4 0xFFFFFFFF DUP2 PUSH8 0xFFFFFFFFFFFFFFFF AND GT PUSH2 0x10B3 JUMPI PUSH2 0x108C PUSH1 0x1A PUSH1 0x5 DUP5 PUSH1 0xFF AND SWAP1 SHL OR DUP5 PUSH2 0x11D7 SWAP1 SWAP2 SWAP1 PUSH4 0xFFFFFFFF AND JUMP JUMPDEST POP PUSH2 0x10AD DUP2 PUSH8 0xFFFFFFFFFFFFFFFF AND PUSH1 0x4 DUP6 PUSH2 0x11F7 SWAP1 SWAP3 SWAP2 SWAP1 PUSH4 0xFFFFFFFF AND JUMP JUMPDEST POP PUSH2 0x10F3 JUMP JUMPDEST PUSH2 0x10D0 PUSH1 0x1B PUSH1 0x5 DUP5 PUSH1 0xFF AND SWAP1 SHL OR DUP5 PUSH2 0x11D7 SWAP1 SWAP2 SWAP1 PUSH4 0xFFFFFFFF AND JUMP JUMPDEST POP PUSH2 0x10F1 DUP2 PUSH8 0xFFFFFFFFFFFFFFFF AND PUSH1 0x8 DUP6 PUSH2 0x11F7 SWAP1 SWAP3 SWAP2 SWAP1 PUSH4 0xFFFFFFFF AND JUMP JUMPDEST POP JUMPDEST JUMPDEST JUMPDEST JUMPDEST POP POP POP JUMP JUMPDEST PUSH2 0x1103 PUSH2 0x1453 JUMP JUMPDEST PUSH2 0x1115 DUP4 DUP5 PUSH1 0x0 ADD MLOAD MLOAD DUP5 DUP6 MLOAD PUSH2 0x1219 JUMP JUMPDEST SWAP1 POP SWAP3 SWAP2 POP POP JUMP JUMPDEST PUSH2 0x113B PUSH1 0x3 PUSH1 0x5 PUSH1 0x6 PUSH1 0xFF AND SWAP1 SHL OR DUP4 PUSH2 0x11D7 SWAP1 SWAP2 SWAP1 PUSH4 0xFFFFFFFF AND JUMP JUMPDEST POP PUSH2 0x1187 DUP3 DUP3 PUSH32 0xFFFFFFFFFFFFFFFFFFFFFFFFFFFFFFFFFFFFFFFFFFFFFFFFFFFFFFFFFFFFFFFF SUB PUSH1 0x40 MLOAD PUSH1 0x20 ADD DUP1 DUP3 DUP2 MSTORE PUSH1 0x20 ADD SWAP2 POP POP PUSH1 0x40 MLOAD PUSH1 0x20 DUP2 DUP4 SUB SUB DUP2 MSTORE SWAP1 PUSH1 0x40 MSTORE PUSH2 0x12D2 JUMP JUMPDEST POP POP JUMP JUMPDEST PUSH2 0x11A9 PUSH1 0x2 PUSH1 0x5 PUSH1 0x6 PUSH1 0xFF AND SWAP1 SHL OR DUP4 PUSH2 0x11D7 SWAP1 SWAP2 SWAP1 PUSH4 0xFFFFFFFF AND JUMP JUMPDEST POP PUSH2 0x11D3 DUP3 DUP3 PUSH1 0x40 MLOAD PUSH1 0x20 ADD DUP1 DUP3 DUP2 MSTORE PUSH1 0x20 ADD SWAP2 POP POP PUSH1 0x40 MLOAD PUSH1 0x20 DUP2 DUP4 SUB SUB DUP2 MSTORE SWAP1 PUSH1 0x40 MSTORE PUSH2 0x12D2 JUMP JUMPDEST POP POP JUMP JUMPDEST PUSH2 0x11DF PUSH2 0x1453 JUMP JUMPDEST PUSH2 0x11EF DUP4 DUP5 PUSH1 0x0 ADD MLOAD MLOAD DUP5 PUSH2 0x12F7 JUMP JUMPDEST SWAP1 POP SWAP3 SWAP2 POP POP JUMP JUMPDEST PUSH2 0x11FF PUSH2 0x1453 JUMP JUMPDEST PUSH2 0x1210 DUP5 DUP6 PUSH1 0x0 ADD MLOAD MLOAD DUP6 DUP6 PUSH2 0x1345 JUMP JUMPDEST SWAP1 POP SWAP4 SWAP3 POP POP POP JUMP JUMPDEST PUSH2 0x1221 PUSH2 0x1453 JUMP JUMPDEST DUP3 MLOAD DUP3 GT ISZERO PUSH2 0x122F JUMPI PUSH1 0x0 DUP1 REVERT JUMPDEST DUP5 PUSH1 0x20 ADD MLOAD DUP3 DUP6 ADD GT ISZERO PUSH2 0x125A JUMPI PUSH2 0x1259 DUP6 PUSH1 0x2 PUSH2 0x1253 DUP9 PUSH1 0x20 ADD MLOAD DUP9 DUP8 ADD PUSH2 0x13A6 JUMP JUMPDEST MUL PUSH2 0x13C2 JUMP JUMPDEST JUMPDEST PUSH1 0x0 DUP1 DUP7 MLOAD DUP1 MLOAD DUP8 PUSH1 0x20 DUP4 ADD ADD SWAP4 POP DUP1 DUP9 DUP8 ADD GT ISZERO PUSH2 0x1279 JUMPI DUP8 DUP7 ADD DUP3 MSTORE JUMPDEST PUSH1 0x20 DUP8 ADD SWAP3 POP POP POP JUMPDEST PUSH1 0x20 DUP5 LT PUSH2 0x12A5 JUMPI DUP1 MLOAD DUP3 MSTORE PUSH1 0x20 DUP3 ADD SWAP2 POP PUSH1 0x20 DUP2 ADD SWAP1 POP PUSH1 0x20 DUP5 SUB SWAP4 POP PUSH2 0x1282 JUMP JUMPDEST PUSH1 0x0 PUSH1 0x1 DUP6 PUSH1 0x20 SUB PUSH2 0x100 EXP SUB SWAP1 POP DUP1 NOT DUP3 MLOAD AND DUP2 DUP5 MLOAD AND DUP2 DUP2 OR DUP6 MSTORE POP POP DUP8 SWAP4 POP POP POP POP SWAP5 SWAP4 POP POP POP POP JUMP JUMPDEST PUSH2 0x12DF DUP3 PUSH1 0x2 DUP4 MLOAD PUSH2 0xF76 JUMP JUMPDEST PUSH2 0x12F2 DUP2 DUP4 PUSH2 0x10FB SWAP1 SWAP2 SWAP1 PUSH4 0xFFFFFFFF AND JUMP JUMPDEST POP POP POP JUMP JUMPDEST PUSH2 0x12FF PUSH2 0x1453 JUMP JUMPDEST DUP4 PUSH1 0x20 ADD MLOAD DUP4 LT PUSH2 0x131C JUMPI PUSH2 0x131B DUP5 PUSH1 0x2 DUP7 PUSH1 0x20 ADD MLOAD MUL PUSH2 0x13C2 JUMP JUMPDEST JUMPDEST DUP4 MLOAD DUP1 MLOAD PUSH1 0x20 DUP6 DUP4 ADD ADD DUP5 DUP2 MSTORE8 DUP2 DUP7 EQ ISZERO PUSH2 0x1338 JUMPI PUSH1 0x1 DUP3 ADD DUP4 MSTORE JUMPDEST POP POP POP DUP4 SWAP1 POP SWAP4 SWAP3 POP POP POP JUMP JUMPDEST PUSH2 0x134D PUSH2 0x1453 JUMP JUMPDEST DUP5 PUSH1 0x20 ADD MLOAD DUP5 DUP4 ADD GT ISZERO PUSH2 0x136B JUMPI PUSH2 0x136A DUP6 PUSH1 0x2 DUP7 DUP6 ADD MUL PUSH2 0x13C2 JUMP JUMPDEST JUMPDEST PUSH1 0x0 PUSH1 0x1 DUP4 PUSH2 0x100 EXP SUB SWAP1 POP DUP6 MLOAD DUP4 DUP7 DUP3 ADD ADD DUP6 DUP4 NOT DUP3 MLOAD AND OR DUP2 MSTORE DUP2 MLOAD DUP6 DUP9 ADD GT ISZERO PUSH2 0x1398 JUMPI DUP5 DUP8 ADD DUP3 MSTORE JUMPDEST POP POP DUP6 SWAP2 POP POP SWAP5 SWAP4 POP POP POP POP JUMP JUMPDEST PUSH1 0x0 DUP2 DUP4 GT ISZERO PUSH2 0x13B8 JUMPI DUP3 SWAP1 POP PUSH2 0x13BC JUMP JUMPDEST DUP2 SWAP1 POP JUMPDEST SWAP3 SWAP2 POP POP JUMP JUMPDEST PUSH1 0x60 DUP3 PUSH1 0x0 ADD MLOAD SWAP1 POP PUSH2 0x13D5 DUP4 DUP4 PUSH2 0xF22 JUMP JUMPDEST POP PUSH2 0x13E0 DUP4 DUP3 PUSH2 0x10FB JUMP JUMPDEST POP POP POP POP JUMP JUMPDEST PUSH1 0x40 MLOAD DUP1 PUSH1 0xA0 ADD PUSH1 0x40 MSTORE DUP1 PUSH1 0x0 DUP1 NOT AND DUP2 MSTORE PUSH1 0x20 ADD PUSH1 0x0 PUSH20 0xFFFFFFFFFFFFFFFFFFFFFFFFFFFFFFFFFFFFFFFF AND DUP2 MSTORE PUSH1 0x20 ADD PUSH1 0x0 PUSH28 0xFFFFFFFFFFFFFFFFFFFFFFFFFFFFFFFFFFFFFFFFFFFFFFFFFFFFFFFF NOT AND DUP2 MSTORE PUSH1 0x20 ADD PUSH1 0x0 DUP2 MSTORE PUSH1 0x20 ADD PUSH2 0x144D PUSH2 0x1453 JUMP JUMPDEST DUP2 MSTORE POP SWAP1 JUMP JUMPDEST PUSH1 0x40 MLOAD DUP1 PUSH1 0x40 ADD PUSH1 0x40 MSTORE DUP1 PUSH1 0x60 DUP2 MSTORE PUSH1 0x20 ADD PUSH1 0x0 DUP2 MSTORE POP SWAP1 JUMP INVALID PUSH22 0x6E61626C6520746F207472616E73666572416E644361 PUSH13 0x6C20746F206F7261636C656874 PUSH21 0x70733A2F2F6D696E2D6170692E63727970746F636F PUSH14 0x706172652E636F6D2F646174612F PUSH17 0x726963653F6673796D3D45544826747379 PUSH14 0x733D555344536F75726365206D75 PUSH20 0x7420626520746865206F7261636C65206F662074 PUSH9 0x652072657175657374 LOG2 PUSH5 0x6970667358 0x22 SLT KECCAK256 JUMPI 0xAC 0xAC SAR TIMESTAMP PUSH16 0x968D83AB99E2F636A95B836624C51928 0xAA 0xD 0xE 0x4D SWAP12 SWAP10 PUSH6 0xE2FBF064736F PUSH13 0x634300060C0033000000000000 "
				},
				"gasEstimates": {
					"creation": {
						"codeDepositCost": "1084200",
						"executionCost": "infinite",
						"totalCost": "infinite"
					},
					"external": {
						"cancelRequest(bytes32,uint256,bytes4,uint256)": "infinite",
						"currentPrice()": "1049",
						"fulfill(bytes32,uint256)": "infinite",
						"owner()": "1047",
						"requestEthereumPrice()": "infinite",
						"withdrawLink()": "infinite"
					},
					"internal": {
						"stringToBytes32(string memory)": "infinite"
					}
				},
				"methodIdentifiers": {
					"cancelRequest(bytes32,uint256,bytes4,uint256)": "ec65d0f8",
					"currentPrice()": "9d1b464a",
					"fulfill(bytes32,uint256)": "4357855e",
					"owner()": "8da5cb5b",
					"requestEthereumPrice()": "d7f29c63",
					"withdrawLink()": "8dc654a2"
				}
			},
			"storageLayout": {
				"storage": [
					{
						"astId": 484,
						"contract": "ChainLink_learn/first_example.sol:ChainlinkExample",
						"label": "ens",
						"offset": 0,
						"slot": "0",
						"type": "t_contract(ENSInterface)1009"
					},
					{
						"astId": 486,
						"contract": "ChainLink_learn/first_example.sol:ChainlinkExample",
						"label": "ensNode",
						"offset": 0,
						"slot": "1",
						"type": "t_bytes32"
					},
					{
						"astId": 488,
						"contract": "ChainLink_learn/first_example.sol:ChainlinkExample",
						"label": "link",
						"offset": 0,
						"slot": "2",
						"type": "t_contract(LinkTokenInterface)1104"
					},
					{
						"astId": 490,
						"contract": "ChainLink_learn/first_example.sol:ChainlinkExample",
						"label": "oracle",
						"offset": 0,
						"slot": "3",
						"type": "t_contract(ChainlinkRequestInterface)929"
					},
					{
						"astId": 493,
						"contract": "ChainLink_learn/first_example.sol:ChainlinkExample",
						"label": "requestCount",
						"offset": 0,
						"slot": "4",
						"type": "t_uint256"
					},
					{
						"astId": 497,
						"contract": "ChainLink_learn/first_example.sol:ChainlinkExample",
						"label": "pendingRequests",
						"offset": 0,
						"slot": "5",
						"type": "t_mapping(t_bytes32,t_address)"
					},
					{
						"astId": 6,
						"contract": "ChainLink_learn/first_example.sol:ChainlinkExample",
						"label": "currentPrice",
						"offset": 0,
						"slot": "6",
						"type": "t_uint256"
					},
					{
						"astId": 8,
						"contract": "ChainLink_learn/first_example.sol:ChainlinkExample",
						"label": "owner",
						"offset": 0,
						"slot": "7",
						"type": "t_address"
					},
					{
						"astId": 11,
						"contract": "ChainLink_learn/first_example.sol:ChainlinkExample",
						"label": "ORACLE_ADDRESS",
						"offset": 0,
						"slot": "8",
						"type": "t_address"
					}
				],
				"types": {
					"t_address": {
						"encoding": "inplace",
						"label": "address",
						"numberOfBytes": "20"
					},
					"t_bytes32": {
						"encoding": "inplace",
						"label": "bytes32",
						"numberOfBytes": "32"
					},
					"t_contract(ChainlinkRequestInterface)929": {
						"encoding": "inplace",
						"label": "contract ChainlinkRequestInterface",
						"numberOfBytes": "20"
					},
					"t_contract(ENSInterface)1009": {
						"encoding": "inplace",
						"label": "contract ENSInterface",
						"numberOfBytes": "20"
					},
					"t_contract(LinkTokenInterface)1104": {
						"encoding": "inplace",
						"label": "contract LinkTokenInterface",
						"numberOfBytes": "20"
					},
					"t_mapping(t_bytes32,t_address)": {
						"encoding": "mapping",
						"key": "t_bytes32",
						"label": "mapping(bytes32 => address)",
						"numberOfBytes": "32",
						"value": "t_address"
					},
					"t_uint256": {
						"encoding": "inplace",
						"label": "uint256",
						"numberOfBytes": "32"
					}
				}
			},
			"userdoc": {
				"kind": "user",
				"methods": {},
				"version": 1
			}
		}
	}
}