{
	"ChainLink_learn/VRFD20.sol": {
		"VRFD20": {
			"abi": [
				{
					"inputs": [
						{
							"internalType": "uint64",
							"name": "subscriptionId",
							"type": "uint64"
						}
					],
					"stateMutability": "nonpayable",
					"type": "constructor"
				},
				{
					"inputs": [
						{
							"internalType": "address",
							"name": "have",
							"type": "address"
						},
						{
							"internalType": "address",
							"name": "want",
							"type": "address"
						}
					],
					"name": "OnlyCoordinatorCanFulfill",
					"type": "error"
				},
				{
					"anonymous": false,
					"inputs": [
						{
							"indexed": true,
							"internalType": "uint256",
							"name": "requestId",
							"type": "uint256"
						},
						{
							"indexed": true,
							"internalType": "uint256",
							"name": "result",
							"type": "uint256"
						}
					],
					"name": "DiceLanded",
					"type": "event"
				},
				{
					"anonymous": false,
					"inputs": [
						{
							"indexed": true,
							"internalType": "uint256",
							"name": "requestId",
							"type": "uint256"
						},
						{
							"indexed": true,
							"internalType": "address",
							"name": "roller",
							"type": "address"
						}
					],
					"name": "DiceRolled",
					"type": "event"
				},
				{
					"inputs": [
						{
							"internalType": "address",
							"name": "player",
							"type": "address"
						}
					],
					"name": "house",
					"outputs": [
						{
							"internalType": "string",
							"name": "",
							"type": "string"
						}
					],
					"stateMutability": "view",
					"type": "function"
				},
				{
					"inputs": [
						{
							"internalType": "uint256",
							"name": "requestId",
							"type": "uint256"
						},
						{
							"internalType": "uint256[]",
							"name": "randomWords",
							"type": "uint256[]"
						}
					],
					"name": "rawFulfillRandomWords",
					"outputs": [],
					"stateMutability": "nonpayable",
					"type": "function"
				},
				{
					"inputs": [
						{
							"internalType": "address",
							"name": "roller",
							"type": "address"
						}
					],
					"name": "rollDice",
					"outputs": [
						{
							"internalType": "uint256",
							"name": "requestId",
							"type": "uint256"
						}
					],
					"stateMutability": "nonpayable",
					"type": "function"
				}
			],
			"devdoc": {
				"details": "This is only an example implementation and not necessarily suitable for mainnet.",
				"kind": "dev",
				"methods": {
					"constructor": {
						"details": "NETWORK: RINKEBY",
						"params": {
							"subscriptionId": "subscription id that this consumer contract can use"
						}
					},
					"house(address)": {
						"params": {
							"player": "address"
						},
						"returns": {
							"_0": "house as a string"
						}
					},
					"rollDice(address)": {
						"details": "Warning: if the VRF response is delayed, avoid calling requestRandomness repeatedly as that would give miners/VRF operators latitude about which VRF response arrives first.You must review your implementation details with extreme care.",
						"params": {
							"roller": "address of the roller"
						}
					}
				},
				"version": 1
			},
			"evm": {
				"assembly": "    /* \"ChainLink_learn/VRFD20.sol\":399:5761  contract VRFD20 is VRFConsumerBaseV2 {... */\n  mstore(0x40, 0xa0)\n    /* \"ChainLink_learn/VRFD20.sol\":741:783  0x6168499c0cFfCaCD319c818142124B7A15E857ab */\n  0x6168499c0cffcacd319c818142124b7a15e857ab\n    /* \"ChainLink_learn/VRFD20.sol\":716:783  address vrfCoordinator = 0x6168499c0cFfCaCD319c818142124B7A15E857ab */\n  0x01\n  exp(0x0100, 0x00)\n  dup2\n  sload\n  dup2\n  0xffffffffffffffffffffffffffffffffffffffff\n  mul\n  not\n  and\n  swap1\n  dup4\n  0xffffffffffffffffffffffffffffffffffffffff\n  and\n  mul\n  or\n  swap1\n  sstore\n  pop\n    /* \"ChainLink_learn/VRFD20.sol\":1016:1082  0xd89b2bf150e3b9e13446986e571fb9cab24b13cea0a43ea20a6049a85cc807cc */\n  0xd89b2bf150e3b9e13446986e571fb9cab24b13cea0a43ea20a6049a85cc807cc\n    /* \"ChainLink_learn/VRFD20.sol\":996:1082  bytes32 s_keyHash = 0xd89b2bf150e3b9e13446986e571fb9cab24b13cea0a43ea20a6049a85cc807cc */\n  0x00\n  shl\n  0x02\n  sstore\n    /* \"ChainLink_learn/VRFD20.sol\":1524:1529  40000 */\n  0x9c40\n    /* \"ChainLink_learn/VRFD20.sol\":1498:1529  uint32 callbackGasLimit = 40000 */\n  0x03\n  exp(0x0100, 0x00)\n  dup2\n  sload\n  dup2\n  0xffffffff\n  mul\n  not\n  and\n  swap1\n  dup4\n  0xffffffff\n  and\n  mul\n  or\n  swap1\n  sstore\n  pop\n    /* \"ChainLink_learn/VRFD20.sol\":1620:1621  3 */\n  0x03\n    /* \"ChainLink_learn/VRFD20.sol\":1590:1621  uint16 requestConfirmations = 3 */\n  dup1\n  exp(0x0100, 0x04)\n  dup2\n  sload\n  dup2\n  0xffff\n  mul\n  not\n  and\n  swap1\n  dup4\n  0xffff\n  and\n  mul\n  or\n  swap1\n  sstore\n  pop\n    /* \"ChainLink_learn/VRFD20.sol\":1764:1765  1 */\n  0x01\n    /* \"ChainLink_learn/VRFD20.sol\":1746:1765  uint32 numWords = 1 */\n  0x03\n  exp(0x0100, 0x06)\n  dup2\n  sload\n  dup2\n  0xffffffff\n  mul\n  not\n  and\n  swap1\n  dup4\n  0xffffffff\n  and\n  mul\n  or\n  swap1\n  sstore\n  pop\n    /* \"ChainLink_learn/VRFD20.sol\":2304:2518  constructor(uint64 subscriptionId) VRFConsumerBaseV2(vrfCoordinator) {... */\n  callvalue\n  dup1\n  iszero\n  tag_1\n  jumpi\n  0x00\n  dup1\n  revert\ntag_1:\n  pop\n  mload(0x40)\n  sub(codesize, bytecodeSize)\n  dup1\n  bytecodeSize\n  dup4\n  codecopy\n  dup2\n  dup2\n  add\n  0x40\n  mstore\n  dup2\n  add\n  swap1\n  tag_2\n  swap2\n  swap1\n  tag_3\n  jump\t// in\ntag_2:\n    /* \"ChainLink_learn/VRFD20.sol\":2357:2371  vrfCoordinator */\n  0x01\n  0x00\n  swap1\n  sload\n  swap1\n  0x0100\n  exp\n  swap1\n  div\n  0xffffffffffffffffffffffffffffffffffffffff\n  and\n    /* \"@chainlink/contracts/src/v0.8/VRFConsumerBaseV2.sol\":5616:5631  _vrfCoordinator */\n  dup1\n    /* \"@chainlink/contracts/src/v0.8/VRFConsumerBaseV2.sol\":5599:5631  vrfCoordinator = _vrfCoordinator */\n  0xffffffffffffffffffffffffffffffffffffffff\n  and\n  0x80\n  dup2\n  0xffffffffffffffffffffffffffffffffffffffff\n  and\n  dup2\n  mstore\n  pop\n  pop\n    /* \"@chainlink/contracts/src/v0.8/VRFConsumerBaseV2.sol\":5556:5636  constructor(address _vrfCoordinator) {... */\n  pop\n    /* \"ChainLink_learn/VRFD20.sol\":2423:2437  vrfCoordinator */\n  0x01\n  0x00\n  swap1\n  sload\n  swap1\n  0x0100\n  exp\n  swap1\n  div\n  0xffffffffffffffffffffffffffffffffffffffff\n  and\n    /* \"ChainLink_learn/VRFD20.sol\":2383:2394  COORDINATOR */\n  0x00\n  dup1\n    /* \"ChainLink_learn/VRFD20.sol\":2383:2438  COORDINATOR = VRFCoordinatorV2Interface(vrfCoordinator) */\n  0x0100\n  exp\n  dup2\n  sload\n  dup2\n  0xffffffffffffffffffffffffffffffffffffffff\n  mul\n  not\n  and\n  swap1\n  dup4\n  0xffffffffffffffffffffffffffffffffffffffff\n  and\n  mul\n  or\n  swap1\n  sstore\n  pop\n    /* \"ChainLink_learn/VRFD20.sol\":2458:2468  msg.sender */\n  caller\n    /* \"ChainLink_learn/VRFD20.sol\":2448:2455  s_owner */\n  0x03\n  0x0a\n    /* \"ChainLink_learn/VRFD20.sol\":2448:2468  s_owner = msg.sender */\n  0x0100\n  exp\n  dup2\n  sload\n  dup2\n  0xffffffffffffffffffffffffffffffffffffffff\n  mul\n  not\n  and\n  swap1\n  dup4\n  0xffffffffffffffffffffffffffffffffffffffff\n  and\n  mul\n  or\n  swap1\n  sstore\n  pop\n    /* \"ChainLink_learn/VRFD20.sol\":2497:2511  subscriptionId */\n  dup1\n    /* \"ChainLink_learn/VRFD20.sol\":2478:2494  s_subscriptionId */\n  0x00\n  0x14\n    /* \"ChainLink_learn/VRFD20.sol\":2478:2511  s_subscriptionId = subscriptionId */\n  0x0100\n  exp\n  dup2\n  sload\n  dup2\n  0xffffffffffffffff\n  mul\n  not\n  and\n  swap1\n  dup4\n  0xffffffffffffffff\n  and\n  mul\n  or\n  swap1\n  sstore\n  pop\n    /* \"ChainLink_learn/VRFD20.sol\":2304:2518  constructor(uint64 subscriptionId) VRFConsumerBaseV2(vrfCoordinator) {... */\n  pop\n    /* \"ChainLink_learn/VRFD20.sol\":399:5761  contract VRFD20 is VRFConsumerBaseV2 {... */\n  jump(tag_8)\n    /* \"#utility.yul\":88:205   */\ntag_10:\n    /* \"#utility.yul\":197:198   */\n  0x00\n    /* \"#utility.yul\":194:195   */\n  dup1\n    /* \"#utility.yul\":187:199   */\n  revert\n    /* \"#utility.yul\":334:435   */\ntag_12:\n    /* \"#utility.yul\":370:377   */\n  0x00\n    /* \"#utility.yul\":410:428   */\n  0xffffffffffffffff\n    /* \"#utility.yul\":403:408   */\n  dup3\n    /* \"#utility.yul\":399:429   */\n  and\n    /* \"#utility.yul\":388:429   */\n  swap1\n  pop\n    /* \"#utility.yul\":334:435   */\n  swap2\n  swap1\n  pop\n  jump\t// out\n    /* \"#utility.yul\":441:561   */\ntag_13:\n    /* \"#utility.yul\":513:536   */\n  tag_21\n    /* \"#utility.yul\":530:535   */\n  dup2\n    /* \"#utility.yul\":513:536   */\n  tag_12\n  jump\t// in\ntag_21:\n    /* \"#utility.yul\":506:511   */\n  dup2\n    /* \"#utility.yul\":503:537   */\n  eq\n    /* \"#utility.yul\":493:555   */\n  tag_22\n  jumpi\n    /* \"#utility.yul\":551:552   */\n  0x00\n    /* \"#utility.yul\":548:549   */\n  dup1\n    /* \"#utility.yul\":541:553   */\n  revert\n    /* \"#utility.yul\":493:555   */\ntag_22:\n    /* \"#utility.yul\":441:561   */\n  pop\n  jump\t// out\n    /* \"#utility.yul\":567:708   */\ntag_14:\n    /* \"#utility.yul\":623:628   */\n  0x00\n    /* \"#utility.yul\":654:660   */\n  dup2\n    /* \"#utility.yul\":648:661   */\n  mload\n    /* \"#utility.yul\":639:661   */\n  swap1\n  pop\n    /* \"#utility.yul\":670:702   */\n  tag_24\n    /* \"#utility.yul\":696:701   */\n  dup2\n    /* \"#utility.yul\":670:702   */\n  tag_13\n  jump\t// in\ntag_24:\n    /* \"#utility.yul\":567:708   */\n  swap3\n  swap2\n  pop\n  pop\n  jump\t// out\n    /* \"#utility.yul\":714:1063   */\ntag_3:\n    /* \"#utility.yul\":783:789   */\n  0x00\n    /* \"#utility.yul\":832:834   */\n  0x20\n    /* \"#utility.yul\":820:829   */\n  dup3\n    /* \"#utility.yul\":811:818   */\n  dup5\n    /* \"#utility.yul\":807:830   */\n  sub\n    /* \"#utility.yul\":803:835   */\n  slt\n    /* \"#utility.yul\":800:919   */\n  iszero\n  tag_26\n  jumpi\n    /* \"#utility.yul\":838:917   */\n  tag_27\n  tag_10\n  jump\t// in\ntag_27:\n    /* \"#utility.yul\":800:919   */\ntag_26:\n    /* \"#utility.yul\":958:959   */\n  0x00\n    /* \"#utility.yul\":983:1046   */\n  tag_28\n    /* \"#utility.yul\":1038:1045   */\n  dup5\n    /* \"#utility.yul\":1029:1035   */\n  dup3\n    /* \"#utility.yul\":1018:1027   */\n  dup6\n    /* \"#utility.yul\":1014:1036   */\n  add\n    /* \"#utility.yul\":983:1046   */\n  tag_14\n  jump\t// in\ntag_28:\n    /* \"#utility.yul\":973:1046   */\n  swap2\n  pop\n    /* \"#utility.yul\":929:1056   */\n  pop\n    /* \"#utility.yul\":714:1063   */\n  swap3\n  swap2\n  pop\n  pop\n  jump\t// out\n    /* \"ChainLink_learn/VRFD20.sol\":399:5761  contract VRFD20 is VRFConsumerBaseV2 {... */\ntag_8:\n  mload(0x80)\n  codecopy(0x00, dataOffset(sub_0), dataSize(sub_0))\n  0x00\n  assignImmutable(\"0x1a192fabce13988b84994d4296e6cdc418d55e2f1d7f942188d4040b94fc57ac\")\n  return(0x00, dataSize(sub_0))\nstop\n\nsub_0: assembly {\n        /* \"ChainLink_learn/VRFD20.sol\":399:5761  contract VRFD20 is VRFConsumerBaseV2 {... */\n      mstore(0x40, 0x80)\n      callvalue\n      dup1\n      iszero\n      tag_1\n      jumpi\n      0x00\n      dup1\n      revert\n    tag_1:\n      pop\n      jumpi(tag_2, lt(calldatasize, 0x04))\n      shr(0xe0, calldataload(0x00))\n      dup1\n      0x1fe543e3\n      eq\n      tag_3\n      jumpi\n      dup1\n      0xb1cad5e3\n      eq\n      tag_4\n      jumpi\n      dup1\n      0xdd02d9e5\n      eq\n      tag_5\n      jumpi\n    tag_2:\n      0x00\n      dup1\n      revert\n        /* \"@chainlink/contracts/src/v0.8/VRFConsumerBaseV2.sol\":6618:6874  function rawFulfillRandomWords(uint256 requestId, uint256[] memory randomWords) external {... */\n    tag_3:\n      tag_6\n      0x04\n      dup1\n      calldatasize\n      sub\n      dup2\n      add\n      swap1\n      tag_7\n      swap2\n      swap1\n      tag_8\n      jump\t// in\n    tag_7:\n      tag_9\n      jump\t// in\n    tag_6:\n      stop\n        /* \"ChainLink_learn/VRFD20.sol\":4673:4931  function house(address player) public view returns (string memory) {... */\n    tag_4:\n      tag_10\n      0x04\n      dup1\n      calldatasize\n      sub\n      dup2\n      add\n      swap1\n      tag_11\n      swap2\n      swap1\n      tag_12\n      jump\t// in\n    tag_11:\n      tag_13\n      jump\t// in\n    tag_10:\n      mload(0x40)\n      tag_14\n      swap2\n      swap1\n      tag_15\n      jump\t// in\n    tag_14:\n      mload(0x40)\n      dup1\n      swap2\n      sub\n      swap1\n      return\n        /* \"ChainLink_learn/VRFD20.sol\":2892:3430  function rollDice(address roller) public onlyOwner returns (uint256 requestId) {... */\n    tag_5:\n      tag_16\n      0x04\n      dup1\n      calldatasize\n      sub\n      dup2\n      add\n      swap1\n      tag_17\n      swap2\n      swap1\n      tag_12\n      jump\t// in\n    tag_17:\n      tag_18\n      jump\t// in\n    tag_16:\n      mload(0x40)\n      tag_19\n      swap2\n      swap1\n      tag_20\n      jump\t// in\n    tag_19:\n      mload(0x40)\n      dup1\n      swap2\n      sub\n      swap1\n      return\n        /* \"@chainlink/contracts/src/v0.8/VRFConsumerBaseV2.sol\":6618:6874  function rawFulfillRandomWords(uint256 requestId, uint256[] memory randomWords) external {... */\n    tag_9:\n        /* \"@chainlink/contracts/src/v0.8/VRFConsumerBaseV2.sol\":6731:6745  vrfCoordinator */\n      immutable(\"0x1a192fabce13988b84994d4296e6cdc418d55e2f1d7f942188d4040b94fc57ac\")\n        /* \"@chainlink/contracts/src/v0.8/VRFConsumerBaseV2.sol\":6717:6745  msg.sender != vrfCoordinator */\n      0xffffffffffffffffffffffffffffffffffffffff\n      and\n        /* \"@chainlink/contracts/src/v0.8/VRFConsumerBaseV2.sol\":6717:6727  msg.sender */\n      caller\n        /* \"@chainlink/contracts/src/v0.8/VRFConsumerBaseV2.sol\":6717:6745  msg.sender != vrfCoordinator */\n      0xffffffffffffffffffffffffffffffffffffffff\n      and\n      eq\n        /* \"@chainlink/contracts/src/v0.8/VRFConsumerBaseV2.sol\":6713:6822  if (msg.sender != vrfCoordinator) {... */\n      tag_22\n      jumpi\n        /* \"@chainlink/contracts/src/v0.8/VRFConsumerBaseV2.sol\":6788:6798  msg.sender */\n      caller\n        /* \"@chainlink/contracts/src/v0.8/VRFConsumerBaseV2.sol\":6800:6814  vrfCoordinator */\n      immutable(\"0x1a192fabce13988b84994d4296e6cdc418d55e2f1d7f942188d4040b94fc57ac\")\n        /* \"@chainlink/contracts/src/v0.8/VRFConsumerBaseV2.sol\":6762:6815  OnlyCoordinatorCanFulfill(msg.sender, vrfCoordinator) */\n      mload(0x40)\n      0x1cf993f400000000000000000000000000000000000000000000000000000000\n      dup2\n      mstore\n      0x04\n      add\n      tag_23\n      swap3\n      swap2\n      swap1\n      tag_24\n      jump\t// in\n    tag_23:\n      mload(0x40)\n      dup1\n      swap2\n      sub\n      swap1\n      revert\n        /* \"@chainlink/contracts/src/v0.8/VRFConsumerBaseV2.sol\":6713:6822  if (msg.sender != vrfCoordinator) {... */\n    tag_22:\n        /* \"@chainlink/contracts/src/v0.8/VRFConsumerBaseV2.sol\":6827:6869  fulfillRandomWords(requestId, randomWords) */\n      tag_25\n        /* \"@chainlink/contracts/src/v0.8/VRFConsumerBaseV2.sol\":6846:6855  requestId */\n      dup3\n        /* \"@chainlink/contracts/src/v0.8/VRFConsumerBaseV2.sol\":6857:6868  randomWords */\n      dup3\n        /* \"@chainlink/contracts/src/v0.8/VRFConsumerBaseV2.sol\":6827:6845  fulfillRandomWords */\n      tag_26\n        /* \"@chainlink/contracts/src/v0.8/VRFConsumerBaseV2.sol\":6827:6869  fulfillRandomWords(requestId, randomWords) */\n      jump\t// in\n    tag_25:\n        /* \"@chainlink/contracts/src/v0.8/VRFConsumerBaseV2.sol\":6618:6874  function rawFulfillRandomWords(uint256 requestId, uint256[] memory randomWords) external {... */\n      pop\n      pop\n      jump\t// out\n        /* \"ChainLink_learn/VRFD20.sol\":4673:4931  function house(address player) public view returns (string memory) {... */\n    tag_13:\n        /* \"ChainLink_learn/VRFD20.sol\":4725:4738  string memory */\n      0x60\n        /* \"ChainLink_learn/VRFD20.sol\":4779:4780  0 */\n      0x00\n        /* \"ChainLink_learn/VRFD20.sol\":4758:4767  s_results */\n      0x05\n        /* \"ChainLink_learn/VRFD20.sol\":4758:4775  s_results[player] */\n      0x00\n        /* \"ChainLink_learn/VRFD20.sol\":4768:4774  player */\n      dup5\n        /* \"ChainLink_learn/VRFD20.sol\":4758:4775  s_results[player] */\n      0xffffffffffffffffffffffffffffffffffffffff\n      and\n      0xffffffffffffffffffffffffffffffffffffffff\n      and\n      dup2\n      mstore\n      0x20\n      add\n      swap1\n      dup2\n      mstore\n      0x20\n      add\n      0x00\n      keccak256\n      sload\n        /* \"ChainLink_learn/VRFD20.sol\":4758:4780  s_results[player] != 0 */\n      sub\n        /* \"ChainLink_learn/VRFD20.sol\":4750:4800  require(s_results[player] != 0, 'Dice not rolled') */\n      tag_28\n      jumpi\n      mload(0x40)\n      0x08c379a000000000000000000000000000000000000000000000000000000000\n      dup2\n      mstore\n      0x04\n      add\n      tag_29\n      swap1\n      tag_30\n      jump\t// in\n    tag_29:\n      mload(0x40)\n      dup1\n      swap2\n      sub\n      swap1\n      revert\n    tag_28:\n        /* \"ChainLink_learn/VRFD20.sol\":486:488  42 */\n      0x2a\n        /* \"ChainLink_learn/VRFD20.sol\":4818:4827  s_results */\n      0x05\n        /* \"ChainLink_learn/VRFD20.sol\":4818:4835  s_results[player] */\n      0x00\n        /* \"ChainLink_learn/VRFD20.sol\":4828:4834  player */\n      dup5\n        /* \"ChainLink_learn/VRFD20.sol\":4818:4835  s_results[player] */\n      0xffffffffffffffffffffffffffffffffffffffff\n      and\n      0xffffffffffffffffffffffffffffffffffffffff\n      and\n      dup2\n      mstore\n      0x20\n      add\n      swap1\n      dup2\n      mstore\n      0x20\n      add\n      0x00\n      keccak256\n      sload\n        /* \"ChainLink_learn/VRFD20.sol\":4818:4855  s_results[player] != ROLL_IN_PROGRESS */\n      sub\n        /* \"ChainLink_learn/VRFD20.sol\":4810:4876  require(s_results[player] != ROLL_IN_PROGRESS, 'Roll in progress') */\n      tag_31\n      jumpi\n      mload(0x40)\n      0x08c379a000000000000000000000000000000000000000000000000000000000\n      dup2\n      mstore\n      0x04\n      add\n      tag_32\n      swap1\n      tag_33\n      jump\t// in\n    tag_32:\n      mload(0x40)\n      dup1\n      swap2\n      sub\n      swap1\n      revert\n    tag_31:\n        /* \"ChainLink_learn/VRFD20.sol\":4893:4924  getHouseName(s_results[player]) */\n      tag_34\n        /* \"ChainLink_learn/VRFD20.sol\":4906:4915  s_results */\n      0x05\n        /* \"ChainLink_learn/VRFD20.sol\":4906:4923  s_results[player] */\n      0x00\n        /* \"ChainLink_learn/VRFD20.sol\":4916:4922  player */\n      dup5\n        /* \"ChainLink_learn/VRFD20.sol\":4906:4923  s_results[player] */\n      0xffffffffffffffffffffffffffffffffffffffff\n      and\n      0xffffffffffffffffffffffffffffffffffffffff\n      and\n      dup2\n      mstore\n      0x20\n      add\n      swap1\n      dup2\n      mstore\n      0x20\n      add\n      0x00\n      keccak256\n      sload\n        /* \"ChainLink_learn/VRFD20.sol\":4893:4905  getHouseName */\n      tag_35\n        /* \"ChainLink_learn/VRFD20.sol\":4893:4924  getHouseName(s_results[player]) */\n      jump\t// in\n    tag_34:\n        /* \"ChainLink_learn/VRFD20.sol\":4886:4924  return getHouseName(s_results[player]) */\n      swap1\n      pop\n        /* \"ChainLink_learn/VRFD20.sol\":4673:4931  function house(address player) public view returns (string memory) {... */\n      swap2\n      swap1\n      pop\n      jump\t// out\n        /* \"ChainLink_learn/VRFD20.sol\":2892:3430  function rollDice(address roller) public onlyOwner returns (uint256 requestId) {... */\n    tag_18:\n        /* \"ChainLink_learn/VRFD20.sol\":2952:2969  uint256 requestId */\n      0x00\n        /* \"ChainLink_learn/VRFD20.sol\":5733:5740  s_owner */\n      0x03\n      0x0a\n      swap1\n      sload\n      swap1\n      0x0100\n      exp\n      swap1\n      div\n      0xffffffffffffffffffffffffffffffffffffffff\n      and\n        /* \"ChainLink_learn/VRFD20.sol\":5719:5740  msg.sender == s_owner */\n      0xffffffffffffffffffffffffffffffffffffffff\n      and\n        /* \"ChainLink_learn/VRFD20.sol\":5719:5729  msg.sender */\n      caller\n        /* \"ChainLink_learn/VRFD20.sol\":5719:5740  msg.sender == s_owner */\n      0xffffffffffffffffffffffffffffffffffffffff\n      and\n      eq\n        /* \"ChainLink_learn/VRFD20.sol\":5711:5741  require(msg.sender == s_owner) */\n      tag_37\n      jumpi\n      0x00\n      dup1\n      revert\n    tag_37:\n        /* \"ChainLink_learn/VRFD20.sol\":3010:3011  0 */\n      0x00\n        /* \"ChainLink_learn/VRFD20.sol\":2989:2998  s_results */\n      0x05\n        /* \"ChainLink_learn/VRFD20.sol\":2989:3006  s_results[roller] */\n      0x00\n        /* \"ChainLink_learn/VRFD20.sol\":2999:3005  roller */\n      dup5\n        /* \"ChainLink_learn/VRFD20.sol\":2989:3006  s_results[roller] */\n      0xffffffffffffffffffffffffffffffffffffffff\n      and\n      0xffffffffffffffffffffffffffffffffffffffff\n      and\n      dup2\n      mstore\n      0x20\n      add\n      swap1\n      dup2\n      mstore\n      0x20\n      add\n      0x00\n      keccak256\n      sload\n        /* \"ChainLink_learn/VRFD20.sol\":2989:3011  s_results[roller] == 0 */\n      eq\n        /* \"ChainLink_learn/VRFD20.sol\":2981:3030  require(s_results[roller] == 0, 'Already rolled') */\n      tag_39\n      jumpi\n      mload(0x40)\n      0x08c379a000000000000000000000000000000000000000000000000000000000\n      dup2\n      mstore\n      0x04\n      add\n      tag_40\n      swap1\n      tag_41\n      jump\t// in\n    tag_40:\n      mload(0x40)\n      dup1\n      swap2\n      sub\n      swap1\n      revert\n    tag_39:\n        /* \"ChainLink_learn/VRFD20.sol\":3114:3125  COORDINATOR */\n      0x00\n      dup1\n      sload\n      swap1\n      0x0100\n      exp\n      swap1\n      div\n      0xffffffffffffffffffffffffffffffffffffffff\n      and\n        /* \"ChainLink_learn/VRFD20.sol\":3114:3144  COORDINATOR.requestRandomWords */\n      0xffffffffffffffffffffffffffffffffffffffff\n      and\n      0x5d3b1d30\n        /* \"ChainLink_learn/VRFD20.sol\":3158:3167  s_keyHash */\n      sload(0x02)\n        /* \"ChainLink_learn/VRFD20.sol\":3181:3197  s_subscriptionId */\n      0x00\n      0x14\n      swap1\n      sload\n      swap1\n      0x0100\n      exp\n      swap1\n      div\n      0xffffffffffffffff\n      and\n        /* \"ChainLink_learn/VRFD20.sol\":3211:3231  requestConfirmations */\n      0x03\n      0x04\n      swap1\n      sload\n      swap1\n      0x0100\n      exp\n      swap1\n      div\n      0xffff\n      and\n        /* \"ChainLink_learn/VRFD20.sol\":3245:3261  callbackGasLimit */\n      0x03\n      0x00\n      swap1\n      sload\n      swap1\n      0x0100\n      exp\n      swap1\n      div\n      0xffffffff\n      and\n        /* \"ChainLink_learn/VRFD20.sol\":3275:3283  numWords */\n      0x03\n      0x06\n      swap1\n      sload\n      swap1\n      0x0100\n      exp\n      swap1\n      div\n      0xffffffff\n      and\n        /* \"ChainLink_learn/VRFD20.sol\":3114:3293  COORDINATOR.requestRandomWords(... */\n      mload(0x40)\n      dup7\n      0xffffffff\n      and\n      0xe0\n      shl\n      dup2\n      mstore\n      0x04\n      add\n      tag_42\n      swap6\n      swap5\n      swap4\n      swap3\n      swap2\n      swap1\n      tag_43\n      jump\t// in\n    tag_42:\n      0x20\n      mload(0x40)\n      dup1\n      dup4\n      sub\n      dup2\n      0x00\n      dup8\n      gas\n      call\n      iszero\n      dup1\n      iszero\n      tag_45\n      jumpi\n      returndatasize\n      0x00\n      dup1\n      returndatacopy\n      revert(0x00, returndatasize)\n    tag_45:\n      pop\n      pop\n      pop\n      pop\n      mload(0x40)\n      returndatasize\n      not(0x1f)\n      0x1f\n      dup3\n      add\n      and\n      dup3\n      add\n      dup1\n      0x40\n      mstore\n      pop\n      dup2\n      add\n      swap1\n      tag_46\n      swap2\n      swap1\n      tag_47\n      jump\t// in\n    tag_46:\n        /* \"ChainLink_learn/VRFD20.sol\":3102:3293  requestId = COORDINATOR.requestRandomWords(... */\n      swap1\n      pop\n        /* \"ChainLink_learn/VRFD20.sol\":3327:3333  roller */\n      dup2\n        /* \"ChainLink_learn/VRFD20.sol\":3304:3313  s_rollers */\n      0x04\n        /* \"ChainLink_learn/VRFD20.sol\":3304:3324  s_rollers[requestId] */\n      0x00\n        /* \"ChainLink_learn/VRFD20.sol\":3314:3323  requestId */\n      dup4\n        /* \"ChainLink_learn/VRFD20.sol\":3304:3324  s_rollers[requestId] */\n      dup2\n      mstore\n      0x20\n      add\n      swap1\n      dup2\n      mstore\n      0x20\n      add\n      0x00\n      keccak256\n      0x00\n        /* \"ChainLink_learn/VRFD20.sol\":3304:3333  s_rollers[requestId] = roller */\n      0x0100\n      exp\n      dup2\n      sload\n      dup2\n      0xffffffffffffffffffffffffffffffffffffffff\n      mul\n      not\n      and\n      swap1\n      dup4\n      0xffffffffffffffffffffffffffffffffffffffff\n      and\n      mul\n      or\n      swap1\n      sstore\n      pop\n        /* \"ChainLink_learn/VRFD20.sol\":486:488  42 */\n      0x2a\n        /* \"ChainLink_learn/VRFD20.sol\":3343:3352  s_results */\n      0x05\n        /* \"ChainLink_learn/VRFD20.sol\":3343:3360  s_results[roller] */\n      0x00\n        /* \"ChainLink_learn/VRFD20.sol\":3353:3359  roller */\n      dup5\n        /* \"ChainLink_learn/VRFD20.sol\":3343:3360  s_results[roller] */\n      0xffffffffffffffffffffffffffffffffffffffff\n      and\n      0xffffffffffffffffffffffffffffffffffffffff\n      and\n      dup2\n      mstore\n      0x20\n      add\n      swap1\n      dup2\n      mstore\n      0x20\n      add\n      0x00\n      keccak256\n        /* \"ChainLink_learn/VRFD20.sol\":3343:3379  s_results[roller] = ROLL_IN_PROGRESS */\n      dup2\n      swap1\n      sstore\n      pop\n        /* \"ChainLink_learn/VRFD20.sol\":3416:3422  roller */\n      dup2\n        /* \"ChainLink_learn/VRFD20.sol\":3394:3423  DiceRolled(requestId, roller) */\n      0xffffffffffffffffffffffffffffffffffffffff\n      and\n        /* \"ChainLink_learn/VRFD20.sol\":3405:3414  requestId */\n      dup2\n        /* \"ChainLink_learn/VRFD20.sol\":3394:3423  DiceRolled(requestId, roller) */\n      0x3e7fdeab84c01ce5308321caa0b460e1c4ec3c7099223d79634d9a71d99932e3\n      mload(0x40)\n      mload(0x40)\n      dup1\n      swap2\n      sub\n      swap1\n      log3\n        /* \"ChainLink_learn/VRFD20.sol\":2892:3430  function rollDice(address roller) public onlyOwner returns (uint256 requestId) {... */\n      swap2\n      swap1\n      pop\n      jump\t// out\n        /* \"ChainLink_learn/VRFD20.sol\":4255:4509  function fulfillRandomWords(uint256 requestId, uint256[] memory randomWords) internal override {... */\n    tag_26:\n        /* \"ChainLink_learn/VRFD20.sol\":4360:4376  uint256 d20Value */\n      0x00\n        /* \"ChainLink_learn/VRFD20.sol\":4403:4404  1 */\n      0x01\n        /* \"ChainLink_learn/VRFD20.sol\":4397:4399  20 */\n      0x14\n        /* \"ChainLink_learn/VRFD20.sol\":4380:4391  randomWords */\n      dup4\n        /* \"ChainLink_learn/VRFD20.sol\":4392:4393  0 */\n      0x00\n        /* \"ChainLink_learn/VRFD20.sol\":4380:4394  randomWords[0] */\n      dup2\n      mload\n      dup2\n      lt\n      tag_49\n      jumpi\n      tag_50\n      tag_51\n      jump\t// in\n    tag_50:\n    tag_49:\n      0x20\n      mul\n      0x20\n      add\n      add\n      mload\n        /* \"ChainLink_learn/VRFD20.sol\":4380:4399  randomWords[0] % 20 */\n      tag_52\n      swap2\n      swap1\n      tag_53\n      jump\t// in\n    tag_52:\n        /* \"ChainLink_learn/VRFD20.sol\":4379:4404  (randomWords[0] % 20) + 1 */\n      tag_54\n      swap2\n      swap1\n      tag_55\n      jump\t// in\n    tag_54:\n        /* \"ChainLink_learn/VRFD20.sol\":4360:4404  uint256 d20Value = (randomWords[0] % 20) + 1 */\n      swap1\n      pop\n        /* \"ChainLink_learn/VRFD20.sol\":4448:4456  d20Value */\n      dup1\n        /* \"ChainLink_learn/VRFD20.sol\":4414:4423  s_results */\n      0x05\n        /* \"ChainLink_learn/VRFD20.sol\":4414:4445  s_results[s_rollers[requestId]] */\n      0x00\n        /* \"ChainLink_learn/VRFD20.sol\":4424:4433  s_rollers */\n      0x04\n        /* \"ChainLink_learn/VRFD20.sol\":4424:4444  s_rollers[requestId] */\n      0x00\n        /* \"ChainLink_learn/VRFD20.sol\":4434:4443  requestId */\n      dup8\n        /* \"ChainLink_learn/VRFD20.sol\":4424:4444  s_rollers[requestId] */\n      dup2\n      mstore\n      0x20\n      add\n      swap1\n      dup2\n      mstore\n      0x20\n      add\n      0x00\n      keccak256\n      0x00\n      swap1\n      sload\n      swap1\n      0x0100\n      exp\n      swap1\n      div\n      0xffffffffffffffffffffffffffffffffffffffff\n      and\n        /* \"ChainLink_learn/VRFD20.sol\":4414:4445  s_results[s_rollers[requestId]] */\n      0xffffffffffffffffffffffffffffffffffffffff\n      and\n      0xffffffffffffffffffffffffffffffffffffffff\n      and\n      dup2\n      mstore\n      0x20\n      add\n      swap1\n      dup2\n      mstore\n      0x20\n      add\n      0x00\n      keccak256\n        /* \"ChainLink_learn/VRFD20.sol\":4414:4456  s_results[s_rollers[requestId]] = d20Value */\n      dup2\n      swap1\n      sstore\n      pop\n        /* \"ChainLink_learn/VRFD20.sol\":4493:4501  d20Value */\n      dup1\n        /* \"ChainLink_learn/VRFD20.sol\":4482:4491  requestId */\n      dup4\n        /* \"ChainLink_learn/VRFD20.sol\":4471:4502  DiceLanded(requestId, d20Value) */\n      0x54d97c1f7e5abad75bd421455cd4dd296852a52e1ea721f2cdb66d06fa2082a9\n      mload(0x40)\n      mload(0x40)\n      dup1\n      swap2\n      sub\n      swap1\n      log3\n        /* \"ChainLink_learn/VRFD20.sol\":4350:4509  {... */\n      pop\n        /* \"ChainLink_learn/VRFD20.sol\":4255:4509  function fulfillRandomWords(uint256 requestId, uint256[] memory randomWords) internal override {... */\n      pop\n      pop\n      jump\t// out\n        /* \"ChainLink_learn/VRFD20.sol\":5058:5674  function getHouseName(uint256 id) private pure returns (string memory) {... */\n    tag_35:\n        /* \"ChainLink_learn/VRFD20.sol\":5114:5127  string memory */\n      0x60\n        /* \"ChainLink_learn/VRFD20.sol\":5139:5167  string[20] memory houseNames */\n      0x00\n        /* \"ChainLink_learn/VRFD20.sol\":5139:5632  string[20] memory houseNames = [... */\n      mload(0x40)\n      dup1\n      0x0280\n      add\n      0x40\n      mstore\n      dup1\n      mload(0x40)\n      dup1\n      0x40\n      add\n      0x40\n      mstore\n      dup1\n      0x09\n      dup2\n      mstore\n      0x20\n      add\n      0x54617267617279656e0000000000000000000000000000000000000000000000\n      dup2\n      mstore\n      pop\n      dup2\n      mstore\n      0x20\n      add\n      mload(0x40)\n      dup1\n      0x40\n      add\n      0x40\n      mstore\n      dup1\n      0x09\n      dup2\n      mstore\n      0x20\n      add\n      0x4c616e6e69737465720000000000000000000000000000000000000000000000\n      dup2\n      mstore\n      pop\n      dup2\n      mstore\n      0x20\n      add\n      mload(0x40)\n      dup1\n      0x40\n      add\n      0x40\n      mstore\n      dup1\n      0x05\n      dup2\n      mstore\n      0x20\n      add\n      0x537461726b000000000000000000000000000000000000000000000000000000\n      dup2\n      mstore\n      pop\n      dup2\n      mstore\n      0x20\n      add\n      mload(0x40)\n      dup1\n      0x40\n      add\n      0x40\n      mstore\n      dup1\n      0x06\n      dup2\n      mstore\n      0x20\n      add\n      0x547972656c6c0000000000000000000000000000000000000000000000000000\n      dup2\n      mstore\n      pop\n      dup2\n      mstore\n      0x20\n      add\n      mload(0x40)\n      dup1\n      0x40\n      add\n      0x40\n      mstore\n      dup1\n      0x09\n      dup2\n      mstore\n      0x20\n      add\n      0x426172617468656f6e0000000000000000000000000000000000000000000000\n      dup2\n      mstore\n      pop\n      dup2\n      mstore\n      0x20\n      add\n      mload(0x40)\n      dup1\n      0x40\n      add\n      0x40\n      mstore\n      dup1\n      0x07\n      dup2\n      mstore\n      0x20\n      add\n      0x4d617274656c6c00000000000000000000000000000000000000000000000000\n      dup2\n      mstore\n      pop\n      dup2\n      mstore\n      0x20\n      add\n      mload(0x40)\n      dup1\n      0x40\n      add\n      0x40\n      mstore\n      dup1\n      0x05\n      dup2\n      mstore\n      0x20\n      add\n      0x54756c6c79000000000000000000000000000000000000000000000000000000\n      dup2\n      mstore\n      pop\n      dup2\n      mstore\n      0x20\n      add\n      mload(0x40)\n      dup1\n      0x40\n      add\n      0x40\n      mstore\n      dup1\n      0x06\n      dup2\n      mstore\n      0x20\n      add\n      0x426f6c746f6e0000000000000000000000000000000000000000000000000000\n      dup2\n      mstore\n      pop\n      dup2\n      mstore\n      0x20\n      add\n      mload(0x40)\n      dup1\n      0x40\n      add\n      0x40\n      mstore\n      dup1\n      0x07\n      dup2\n      mstore\n      0x20\n      add\n      0x477265796a6f7900000000000000000000000000000000000000000000000000\n      dup2\n      mstore\n      pop\n      dup2\n      mstore\n      0x20\n      add\n      mload(0x40)\n      dup1\n      0x40\n      add\n      0x40\n      mstore\n      dup1\n      0x05\n      dup2\n      mstore\n      0x20\n      add\n      0x417272796e000000000000000000000000000000000000000000000000000000\n      dup2\n      mstore\n      pop\n      dup2\n      mstore\n      0x20\n      add\n      mload(0x40)\n      dup1\n      0x40\n      add\n      0x40\n      mstore\n      dup1\n      0x04\n      dup2\n      mstore\n      0x20\n      add\n      0x4672657900000000000000000000000000000000000000000000000000000000\n      dup2\n      mstore\n      pop\n      dup2\n      mstore\n      0x20\n      add\n      mload(0x40)\n      dup1\n      0x40\n      add\n      0x40\n      mstore\n      dup1\n      0x07\n      dup2\n      mstore\n      0x20\n      add\n      0x4d6f726d6f6e7400000000000000000000000000000000000000000000000000\n      dup2\n      mstore\n      pop\n      dup2\n      mstore\n      0x20\n      add\n      mload(0x40)\n      dup1\n      0x40\n      add\n      0x40\n      mstore\n      dup1\n      0x06\n      dup2\n      mstore\n      0x20\n      add\n      0x5461726c65790000000000000000000000000000000000000000000000000000\n      dup2\n      mstore\n      pop\n      dup2\n      mstore\n      0x20\n      add\n      mload(0x40)\n      dup1\n      0x40\n      add\n      0x40\n      mstore\n      dup1\n      0x05\n      dup2\n      mstore\n      0x20\n      add\n      0x4461796e65000000000000000000000000000000000000000000000000000000\n      dup2\n      mstore\n      pop\n      dup2\n      mstore\n      0x20\n      add\n      mload(0x40)\n      dup1\n      0x40\n      add\n      0x40\n      mstore\n      dup1\n      0x05\n      dup2\n      mstore\n      0x20\n      add\n      0x556d626572000000000000000000000000000000000000000000000000000000\n      dup2\n      mstore\n      pop\n      dup2\n      mstore\n      0x20\n      add\n      mload(0x40)\n      dup1\n      0x40\n      add\n      0x40\n      mstore\n      dup1\n      0x08\n      dup2\n      mstore\n      0x20\n      add\n      0x56616c6572796f6e000000000000000000000000000000000000000000000000\n      dup2\n      mstore\n      pop\n      dup2\n      mstore\n      0x20\n      add\n      mload(0x40)\n      dup1\n      0x40\n      add\n      0x40\n      mstore\n      dup1\n      0x08\n      dup2\n      mstore\n      0x20\n      add\n      0x4d616e6465726c79000000000000000000000000000000000000000000000000\n      dup2\n      mstore\n      pop\n      dup2\n      mstore\n      0x20\n      add\n      mload(0x40)\n      dup1\n      0x40\n      add\n      0x40\n      mstore\n      dup1\n      0x07\n      dup2\n      mstore\n      0x20\n      add\n      0x436c6567616e6500000000000000000000000000000000000000000000000000\n      dup2\n      mstore\n      pop\n      dup2\n      mstore\n      0x20\n      add\n      mload(0x40)\n      dup1\n      0x40\n      add\n      0x40\n      mstore\n      dup1\n      0x06\n      dup2\n      mstore\n      0x20\n      add\n      0x476c6f7665720000000000000000000000000000000000000000000000000000\n      dup2\n      mstore\n      pop\n      dup2\n      mstore\n      0x20\n      add\n      mload(0x40)\n      dup1\n      0x40\n      add\n      0x40\n      mstore\n      dup1\n      0x08\n      dup2\n      mstore\n      0x20\n      add\n      0x4b6172737461726b000000000000000000000000000000000000000000000000\n      dup2\n      mstore\n      pop\n      dup2\n      mstore\n      pop\n      swap1\n      pop\n        /* \"ChainLink_learn/VRFD20.sol\":5649:5659  houseNames */\n      dup1\n        /* \"ChainLink_learn/VRFD20.sol\":5665:5666  1 */\n      0x01\n        /* \"ChainLink_learn/VRFD20.sol\":5660:5662  id */\n      dup5\n        /* \"ChainLink_learn/VRFD20.sol\":5660:5666  id - 1 */\n      tag_57\n      swap2\n      swap1\n      tag_58\n      jump\t// in\n    tag_57:\n        /* \"ChainLink_learn/VRFD20.sol\":5649:5667  houseNames[id - 1] */\n      0x14\n      dup2\n      lt\n      tag_59\n      jumpi\n      tag_60\n      tag_51\n      jump\t// in\n    tag_60:\n    tag_59:\n      0x20\n      mul\n      add\n      mload\n        /* \"ChainLink_learn/VRFD20.sol\":5642:5667  return houseNames[id - 1] */\n      swap2\n      pop\n      pop\n        /* \"ChainLink_learn/VRFD20.sol\":5058:5674  function getHouseName(uint256 id) private pure returns (string memory) {... */\n      swap2\n      swap1\n      pop\n      jump\t// out\n        /* \"#utility.yul\":7:82   */\n    tag_61:\n        /* \"#utility.yul\":40:46   */\n      0x00\n        /* \"#utility.yul\":73:75   */\n      0x40\n        /* \"#utility.yul\":67:76   */\n      mload\n        /* \"#utility.yul\":57:76   */\n      swap1\n      pop\n        /* \"#utility.yul\":7:82   */\n      swap1\n      jump\t// out\n        /* \"#utility.yul\":88:205   */\n    tag_62:\n        /* \"#utility.yul\":197:198   */\n      0x00\n        /* \"#utility.yul\":194:195   */\n      dup1\n        /* \"#utility.yul\":187:199   */\n      revert\n        /* \"#utility.yul\":211:328   */\n    tag_63:\n        /* \"#utility.yul\":320:321   */\n      0x00\n        /* \"#utility.yul\":317:318   */\n      dup1\n        /* \"#utility.yul\":310:322   */\n      revert\n        /* \"#utility.yul\":334:411   */\n    tag_64:\n        /* \"#utility.yul\":371:378   */\n      0x00\n        /* \"#utility.yul\":400:405   */\n      dup2\n        /* \"#utility.yul\":389:405   */\n      swap1\n      pop\n        /* \"#utility.yul\":334:411   */\n      swap2\n      swap1\n      pop\n      jump\t// out\n        /* \"#utility.yul\":417:539   */\n    tag_65:\n        /* \"#utility.yul\":490:514   */\n      tag_109\n        /* \"#utility.yul\":508:513   */\n      dup2\n        /* \"#utility.yul\":490:514   */\n      tag_64\n      jump\t// in\n    tag_109:\n        /* \"#utility.yul\":483:488   */\n      dup2\n        /* \"#utility.yul\":480:515   */\n      eq\n        /* \"#utility.yul\":470:533   */\n      tag_110\n      jumpi\n        /* \"#utility.yul\":529:530   */\n      0x00\n        /* \"#utility.yul\":526:527   */\n      dup1\n        /* \"#utility.yul\":519:531   */\n      revert\n        /* \"#utility.yul\":470:533   */\n    tag_110:\n        /* \"#utility.yul\":417:539   */\n      pop\n      jump\t// out\n        /* \"#utility.yul\":545:684   */\n    tag_66:\n        /* \"#utility.yul\":591:596   */\n      0x00\n        /* \"#utility.yul\":629:635   */\n      dup2\n        /* \"#utility.yul\":616:636   */\n      calldataload\n        /* \"#utility.yul\":607:636   */\n      swap1\n      pop\n        /* \"#utility.yul\":645:678   */\n      tag_112\n        /* \"#utility.yul\":672:677   */\n      dup2\n        /* \"#utility.yul\":645:678   */\n      tag_65\n      jump\t// in\n    tag_112:\n        /* \"#utility.yul\":545:684   */\n      swap3\n      swap2\n      pop\n      pop\n      jump\t// out\n        /* \"#utility.yul\":690:807   */\n    tag_67:\n        /* \"#utility.yul\":799:800   */\n      0x00\n        /* \"#utility.yul\":796:797   */\n      dup1\n        /* \"#utility.yul\":789:801   */\n      revert\n        /* \"#utility.yul\":813:915   */\n    tag_68:\n        /* \"#utility.yul\":854:860   */\n      0x00\n        /* \"#utility.yul\":905:907   */\n      0x1f\n        /* \"#utility.yul\":901:908   */\n      not\n        /* \"#utility.yul\":896:898   */\n      0x1f\n        /* \"#utility.yul\":889:894   */\n      dup4\n        /* \"#utility.yul\":885:899   */\n      add\n        /* \"#utility.yul\":881:909   */\n      and\n        /* \"#utility.yul\":871:909   */\n      swap1\n      pop\n        /* \"#utility.yul\":813:915   */\n      swap2\n      swap1\n      pop\n      jump\t// out\n        /* \"#utility.yul\":921:1101   */\n    tag_69:\n        /* \"#utility.yul\":969:1046   */\n      0x4e487b7100000000000000000000000000000000000000000000000000000000\n        /* \"#utility.yul\":966:967   */\n      0x00\n        /* \"#utility.yul\":959:1047   */\n      mstore\n        /* \"#utility.yul\":1066:1070   */\n      0x41\n        /* \"#utility.yul\":1063:1064   */\n      0x04\n        /* \"#utility.yul\":1056:1071   */\n      mstore\n        /* \"#utility.yul\":1090:1094   */\n      0x24\n        /* \"#utility.yul\":1087:1088   */\n      0x00\n        /* \"#utility.yul\":1080:1095   */\n      revert\n        /* \"#utility.yul\":1107:1388   */\n    tag_70:\n        /* \"#utility.yul\":1190:1217   */\n      tag_117\n        /* \"#utility.yul\":1212:1216   */\n      dup3\n        /* \"#utility.yul\":1190:1217   */\n      tag_68\n      jump\t// in\n    tag_117:\n        /* \"#utility.yul\":1182:1188   */\n      dup2\n        /* \"#utility.yul\":1178:1218   */\n      add\n        /* \"#utility.yul\":1320:1326   */\n      dup2\n        /* \"#utility.yul\":1308:1318   */\n      dup2\n        /* \"#utility.yul\":1305:1327   */\n      lt\n        /* \"#utility.yul\":1284:1302   */\n      0xffffffffffffffff\n        /* \"#utility.yul\":1272:1282   */\n      dup3\n        /* \"#utility.yul\":1269:1303   */\n      gt\n        /* \"#utility.yul\":1266:1328   */\n      or\n        /* \"#utility.yul\":1263:1351   */\n      iszero\n      tag_118\n      jumpi\n        /* \"#utility.yul\":1331:1349   */\n      tag_119\n      tag_69\n      jump\t// in\n    tag_119:\n        /* \"#utility.yul\":1263:1351   */\n    tag_118:\n        /* \"#utility.yul\":1371:1381   */\n      dup1\n        /* \"#utility.yul\":1367:1369   */\n      0x40\n        /* \"#utility.yul\":1360:1382   */\n      mstore\n        /* \"#utility.yul\":1150:1388   */\n      pop\n        /* \"#utility.yul\":1107:1388   */\n      pop\n      pop\n      jump\t// out\n        /* \"#utility.yul\":1394:1523   */\n    tag_71:\n        /* \"#utility.yul\":1428:1434   */\n      0x00\n        /* \"#utility.yul\":1455:1475   */\n      tag_121\n      tag_61\n      jump\t// in\n    tag_121:\n        /* \"#utility.yul\":1445:1475   */\n      swap1\n      pop\n        /* \"#utility.yul\":1484:1517   */\n      tag_122\n        /* \"#utility.yul\":1512:1516   */\n      dup3\n        /* \"#utility.yul\":1504:1510   */\n      dup3\n        /* \"#utility.yul\":1484:1517   */\n      tag_70\n      jump\t// in\n    tag_122:\n        /* \"#utility.yul\":1394:1523   */\n      swap2\n      swap1\n      pop\n      jump\t// out\n        /* \"#utility.yul\":1529:1840   */\n    tag_72:\n        /* \"#utility.yul\":1606:1610   */\n      0x00\n        /* \"#utility.yul\":1696:1714   */\n      0xffffffffffffffff\n        /* \"#utility.yul\":1688:1694   */\n      dup3\n        /* \"#utility.yul\":1685:1715   */\n      gt\n        /* \"#utility.yul\":1682:1738   */\n      iszero\n      tag_124\n      jumpi\n        /* \"#utility.yul\":1718:1736   */\n      tag_125\n      tag_69\n      jump\t// in\n    tag_125:\n        /* \"#utility.yul\":1682:1738   */\n    tag_124:\n        /* \"#utility.yul\":1768:1772   */\n      0x20\n        /* \"#utility.yul\":1760:1766   */\n      dup3\n        /* \"#utility.yul\":1756:1773   */\n      mul\n        /* \"#utility.yul\":1748:1773   */\n      swap1\n      pop\n        /* \"#utility.yul\":1828:1832   */\n      0x20\n        /* \"#utility.yul\":1822:1826   */\n      dup2\n        /* \"#utility.yul\":1818:1833   */\n      add\n        /* \"#utility.yul\":1810:1833   */\n      swap1\n      pop\n        /* \"#utility.yul\":1529:1840   */\n      swap2\n      swap1\n      pop\n      jump\t// out\n        /* \"#utility.yul\":1846:1963   */\n    tag_73:\n        /* \"#utility.yul\":1955:1956   */\n      0x00\n        /* \"#utility.yul\":1952:1953   */\n      dup1\n        /* \"#utility.yul\":1945:1957   */\n      revert\n        /* \"#utility.yul\":1986:2696   */\n    tag_74:\n        /* \"#utility.yul\":2082:2087   */\n      0x00\n        /* \"#utility.yul\":2107:2188   */\n      tag_128\n        /* \"#utility.yul\":2123:2187   */\n      tag_129\n        /* \"#utility.yul\":2180:2186   */\n      dup5\n        /* \"#utility.yul\":2123:2187   */\n      tag_72\n      jump\t// in\n    tag_129:\n        /* \"#utility.yul\":2107:2188   */\n      tag_71\n      jump\t// in\n    tag_128:\n        /* \"#utility.yul\":2098:2188   */\n      swap1\n      pop\n        /* \"#utility.yul\":2208:2213   */\n      dup1\n        /* \"#utility.yul\":2237:2243   */\n      dup4\n        /* \"#utility.yul\":2230:2235   */\n      dup3\n        /* \"#utility.yul\":2223:2244   */\n      mstore\n        /* \"#utility.yul\":2271:2275   */\n      0x20\n        /* \"#utility.yul\":2264:2269   */\n      dup3\n        /* \"#utility.yul\":2260:2276   */\n      add\n        /* \"#utility.yul\":2253:2276   */\n      swap1\n      pop\n        /* \"#utility.yul\":2324:2328   */\n      0x20\n        /* \"#utility.yul\":2316:2322   */\n      dup5\n        /* \"#utility.yul\":2312:2329   */\n      mul\n        /* \"#utility.yul\":2304:2310   */\n      dup4\n        /* \"#utility.yul\":2300:2330   */\n      add\n        /* \"#utility.yul\":2353:2356   */\n      dup6\n        /* \"#utility.yul\":2345:2351   */\n      dup2\n        /* \"#utility.yul\":2342:2357   */\n      gt\n        /* \"#utility.yul\":2339:2461   */\n      iszero\n      tag_130\n      jumpi\n        /* \"#utility.yul\":2372:2451   */\n      tag_131\n      tag_73\n      jump\t// in\n    tag_131:\n        /* \"#utility.yul\":2339:2461   */\n    tag_130:\n        /* \"#utility.yul\":2487:2493   */\n      dup4\n        /* \"#utility.yul\":2470:2690   */\n    tag_132:\n        /* \"#utility.yul\":2504:2510   */\n      dup2\n        /* \"#utility.yul\":2499:2502   */\n      dup2\n        /* \"#utility.yul\":2496:2511   */\n      lt\n        /* \"#utility.yul\":2470:2690   */\n      iszero\n      tag_134\n      jumpi\n        /* \"#utility.yul\":2579:2582   */\n      dup1\n        /* \"#utility.yul\":2608:2645   */\n      tag_135\n        /* \"#utility.yul\":2641:2644   */\n      dup9\n        /* \"#utility.yul\":2629:2639   */\n      dup3\n        /* \"#utility.yul\":2608:2645   */\n      tag_66\n      jump\t// in\n    tag_135:\n        /* \"#utility.yul\":2603:2606   */\n      dup5\n        /* \"#utility.yul\":2596:2646   */\n      mstore\n        /* \"#utility.yul\":2675:2679   */\n      0x20\n        /* \"#utility.yul\":2670:2673   */\n      dup5\n        /* \"#utility.yul\":2666:2680   */\n      add\n        /* \"#utility.yul\":2659:2680   */\n      swap4\n      pop\n        /* \"#utility.yul\":2546:2690   */\n      pop\n        /* \"#utility.yul\":2530:2534   */\n      0x20\n        /* \"#utility.yul\":2525:2528   */\n      dup2\n        /* \"#utility.yul\":2521:2535   */\n      add\n        /* \"#utility.yul\":2514:2535   */\n      swap1\n      pop\n        /* \"#utility.yul\":2470:2690   */\n      jump(tag_132)\n    tag_134:\n        /* \"#utility.yul\":2474:2495   */\n      pop\n        /* \"#utility.yul\":2088:2696   */\n      pop\n      pop\n        /* \"#utility.yul\":1986:2696   */\n      swap4\n      swap3\n      pop\n      pop\n      pop\n      jump\t// out\n        /* \"#utility.yul\":2719:3089   */\n    tag_75:\n        /* \"#utility.yul\":2790:2795   */\n      0x00\n        /* \"#utility.yul\":2839:2842   */\n      dup3\n        /* \"#utility.yul\":2832:2836   */\n      0x1f\n        /* \"#utility.yul\":2824:2830   */\n      dup4\n        /* \"#utility.yul\":2820:2837   */\n      add\n        /* \"#utility.yul\":2816:2843   */\n      slt\n        /* \"#utility.yul\":2806:2928   */\n      tag_137\n      jumpi\n        /* \"#utility.yul\":2847:2926   */\n      tag_138\n      tag_67\n      jump\t// in\n    tag_138:\n        /* \"#utility.yul\":2806:2928   */\n    tag_137:\n        /* \"#utility.yul\":2964:2970   */\n      dup2\n        /* \"#utility.yul\":2951:2971   */\n      calldataload\n        /* \"#utility.yul\":2989:3083   */\n      tag_139\n        /* \"#utility.yul\":3079:3082   */\n      dup5\n        /* \"#utility.yul\":3071:3077   */\n      dup3\n        /* \"#utility.yul\":3064:3068   */\n      0x20\n        /* \"#utility.yul\":3056:3062   */\n      dup7\n        /* \"#utility.yul\":3052:3069   */\n      add\n        /* \"#utility.yul\":2989:3083   */\n      tag_74\n      jump\t// in\n    tag_139:\n        /* \"#utility.yul\":2980:3083   */\n      swap2\n      pop\n        /* \"#utility.yul\":2796:3089   */\n      pop\n        /* \"#utility.yul\":2719:3089   */\n      swap3\n      swap2\n      pop\n      pop\n      jump\t// out\n        /* \"#utility.yul\":3095:3779   */\n    tag_8:\n        /* \"#utility.yul\":3188:3194   */\n      0x00\n        /* \"#utility.yul\":3196:3202   */\n      dup1\n        /* \"#utility.yul\":3245:3247   */\n      0x40\n        /* \"#utility.yul\":3233:3242   */\n      dup4\n        /* \"#utility.yul\":3224:3231   */\n      dup6\n        /* \"#utility.yul\":3220:3243   */\n      sub\n        /* \"#utility.yul\":3216:3248   */\n      slt\n        /* \"#utility.yul\":3213:3332   */\n      iszero\n      tag_141\n      jumpi\n        /* \"#utility.yul\":3251:3330   */\n      tag_142\n      tag_62\n      jump\t// in\n    tag_142:\n        /* \"#utility.yul\":3213:3332   */\n    tag_141:\n        /* \"#utility.yul\":3371:3372   */\n      0x00\n        /* \"#utility.yul\":3396:3449   */\n      tag_143\n        /* \"#utility.yul\":3441:3448   */\n      dup6\n        /* \"#utility.yul\":3432:3438   */\n      dup3\n        /* \"#utility.yul\":3421:3430   */\n      dup7\n        /* \"#utility.yul\":3417:3439   */\n      add\n        /* \"#utility.yul\":3396:3449   */\n      tag_66\n      jump\t// in\n    tag_143:\n        /* \"#utility.yul\":3386:3449   */\n      swap3\n      pop\n        /* \"#utility.yul\":3342:3459   */\n      pop\n        /* \"#utility.yul\":3526:3528   */\n      0x20\n        /* \"#utility.yul\":3515:3524   */\n      dup4\n        /* \"#utility.yul\":3511:3529   */\n      add\n        /* \"#utility.yul\":3498:3530   */\n      calldataload\n        /* \"#utility.yul\":3557:3575   */\n      0xffffffffffffffff\n        /* \"#utility.yul\":3549:3555   */\n      dup2\n        /* \"#utility.yul\":3546:3576   */\n      gt\n        /* \"#utility.yul\":3543:3660   */\n      iszero\n      tag_144\n      jumpi\n        /* \"#utility.yul\":3579:3658   */\n      tag_145\n      tag_63\n      jump\t// in\n    tag_145:\n        /* \"#utility.yul\":3543:3660   */\n    tag_144:\n        /* \"#utility.yul\":3684:3762   */\n      tag_146\n        /* \"#utility.yul\":3754:3761   */\n      dup6\n        /* \"#utility.yul\":3745:3751   */\n      dup3\n        /* \"#utility.yul\":3734:3743   */\n      dup7\n        /* \"#utility.yul\":3730:3752   */\n      add\n        /* \"#utility.yul\":3684:3762   */\n      tag_75\n      jump\t// in\n    tag_146:\n        /* \"#utility.yul\":3674:3762   */\n      swap2\n      pop\n        /* \"#utility.yul\":3469:3772   */\n      pop\n        /* \"#utility.yul\":3095:3779   */\n      swap3\n      pop\n      swap3\n      swap1\n      pop\n      jump\t// out\n        /* \"#utility.yul\":3785:3911   */\n    tag_76:\n        /* \"#utility.yul\":3822:3829   */\n      0x00\n        /* \"#utility.yul\":3862:3904   */\n      0xffffffffffffffffffffffffffffffffffffffff\n        /* \"#utility.yul\":3855:3860   */\n      dup3\n        /* \"#utility.yul\":3851:3905   */\n      and\n        /* \"#utility.yul\":3840:3905   */\n      swap1\n      pop\n        /* \"#utility.yul\":3785:3911   */\n      swap2\n      swap1\n      pop\n      jump\t// out\n        /* \"#utility.yul\":3917:4013   */\n    tag_77:\n        /* \"#utility.yul\":3954:3961   */\n      0x00\n        /* \"#utility.yul\":3983:4007   */\n      tag_149\n        /* \"#utility.yul\":4001:4006   */\n      dup3\n        /* \"#utility.yul\":3983:4007   */\n      tag_76\n      jump\t// in\n    tag_149:\n        /* \"#utility.yul\":3972:4007   */\n      swap1\n      pop\n        /* \"#utility.yul\":3917:4013   */\n      swap2\n      swap1\n      pop\n      jump\t// out\n        /* \"#utility.yul\":4019:4141   */\n    tag_78:\n        /* \"#utility.yul\":4092:4116   */\n      tag_151\n        /* \"#utility.yul\":4110:4115   */\n      dup2\n        /* \"#utility.yul\":4092:4116   */\n      tag_77\n      jump\t// in\n    tag_151:\n        /* \"#utility.yul\":4085:4090   */\n      dup2\n        /* \"#utility.yul\":4082:4117   */\n      eq\n        /* \"#utility.yul\":4072:4135   */\n      tag_152\n      jumpi\n        /* \"#utility.yul\":4131:4132   */\n      0x00\n        /* \"#utility.yul\":4128:4129   */\n      dup1\n        /* \"#utility.yul\":4121:4133   */\n      revert\n        /* \"#utility.yul\":4072:4135   */\n    tag_152:\n        /* \"#utility.yul\":4019:4141   */\n      pop\n      jump\t// out\n        /* \"#utility.yul\":4147:4286   */\n    tag_79:\n        /* \"#utility.yul\":4193:4198   */\n      0x00\n        /* \"#utility.yul\":4231:4237   */\n      dup2\n        /* \"#utility.yul\":4218:4238   */\n      calldataload\n        /* \"#utility.yul\":4209:4238   */\n      swap1\n      pop\n        /* \"#utility.yul\":4247:4280   */\n      tag_154\n        /* \"#utility.yul\":4274:4279   */\n      dup2\n        /* \"#utility.yul\":4247:4280   */\n      tag_78\n      jump\t// in\n    tag_154:\n        /* \"#utility.yul\":4147:4286   */\n      swap3\n      swap2\n      pop\n      pop\n      jump\t// out\n        /* \"#utility.yul\":4292:4621   */\n    tag_12:\n        /* \"#utility.yul\":4351:4357   */\n      0x00\n        /* \"#utility.yul\":4400:4402   */\n      0x20\n        /* \"#utility.yul\":4388:4397   */\n      dup3\n        /* \"#utility.yul\":4379:4386   */\n      dup5\n        /* \"#utility.yul\":4375:4398   */\n      sub\n        /* \"#utility.yul\":4371:4403   */\n      slt\n        /* \"#utility.yul\":4368:4487   */\n      iszero\n      tag_156\n      jumpi\n        /* \"#utility.yul\":4406:4485   */\n      tag_157\n      tag_62\n      jump\t// in\n    tag_157:\n        /* \"#utility.yul\":4368:4487   */\n    tag_156:\n        /* \"#utility.yul\":4526:4527   */\n      0x00\n        /* \"#utility.yul\":4551:4604   */\n      tag_158\n        /* \"#utility.yul\":4596:4603   */\n      dup5\n        /* \"#utility.yul\":4587:4593   */\n      dup3\n        /* \"#utility.yul\":4576:4585   */\n      dup6\n        /* \"#utility.yul\":4572:4594   */\n      add\n        /* \"#utility.yul\":4551:4604   */\n      tag_79\n      jump\t// in\n    tag_158:\n        /* \"#utility.yul\":4541:4604   */\n      swap2\n      pop\n        /* \"#utility.yul\":4497:4614   */\n      pop\n        /* \"#utility.yul\":4292:4621   */\n      swap3\n      swap2\n      pop\n      pop\n      jump\t// out\n        /* \"#utility.yul\":4627:4726   */\n    tag_80:\n        /* \"#utility.yul\":4679:4685   */\n      0x00\n        /* \"#utility.yul\":4713:4718   */\n      dup2\n        /* \"#utility.yul\":4707:4719   */\n      mload\n        /* \"#utility.yul\":4697:4719   */\n      swap1\n      pop\n        /* \"#utility.yul\":4627:4726   */\n      swap2\n      swap1\n      pop\n      jump\t// out\n        /* \"#utility.yul\":4732:4901   */\n    tag_81:\n        /* \"#utility.yul\":4816:4827   */\n      0x00\n        /* \"#utility.yul\":4850:4856   */\n      dup3\n        /* \"#utility.yul\":4845:4848   */\n      dup3\n        /* \"#utility.yul\":4838:4857   */\n      mstore\n        /* \"#utility.yul\":4890:4894   */\n      0x20\n        /* \"#utility.yul\":4885:4888   */\n      dup3\n        /* \"#utility.yul\":4881:4895   */\n      add\n        /* \"#utility.yul\":4866:4895   */\n      swap1\n      pop\n        /* \"#utility.yul\":4732:4901   */\n      swap3\n      swap2\n      pop\n      pop\n      jump\t// out\n        /* \"#utility.yul\":4907:5214   */\n    tag_82:\n        /* \"#utility.yul\":4975:4976   */\n      0x00\n        /* \"#utility.yul\":4985:5098   */\n    tag_162:\n        /* \"#utility.yul\":4999:5005   */\n      dup4\n        /* \"#utility.yul\":4996:4997   */\n      dup2\n        /* \"#utility.yul\":4993:5006   */\n      lt\n        /* \"#utility.yul\":4985:5098   */\n      iszero\n      tag_164\n      jumpi\n        /* \"#utility.yul\":5084:5085   */\n      dup1\n        /* \"#utility.yul\":5079:5082   */\n      dup3\n        /* \"#utility.yul\":5075:5086   */\n      add\n        /* \"#utility.yul\":5069:5087   */\n      mload\n        /* \"#utility.yul\":5065:5066   */\n      dup2\n        /* \"#utility.yul\":5060:5063   */\n      dup5\n        /* \"#utility.yul\":5056:5067   */\n      add\n        /* \"#utility.yul\":5049:5088   */\n      mstore\n        /* \"#utility.yul\":5021:5023   */\n      0x20\n        /* \"#utility.yul\":5018:5019   */\n      dup2\n        /* \"#utility.yul\":5014:5024   */\n      add\n        /* \"#utility.yul\":5009:5024   */\n      swap1\n      pop\n        /* \"#utility.yul\":4985:5098   */\n      jump(tag_162)\n    tag_164:\n        /* \"#utility.yul\":5116:5122   */\n      dup4\n        /* \"#utility.yul\":5113:5114   */\n      dup2\n        /* \"#utility.yul\":5110:5123   */\n      gt\n        /* \"#utility.yul\":5107:5208   */\n      iszero\n      tag_165\n      jumpi\n        /* \"#utility.yul\":5196:5197   */\n      0x00\n        /* \"#utility.yul\":5187:5193   */\n      dup5\n        /* \"#utility.yul\":5182:5185   */\n      dup5\n        /* \"#utility.yul\":5178:5194   */\n      add\n        /* \"#utility.yul\":5171:5198   */\n      mstore\n        /* \"#utility.yul\":5107:5208   */\n    tag_165:\n        /* \"#utility.yul\":4956:5214   */\n      pop\n        /* \"#utility.yul\":4907:5214   */\n      pop\n      pop\n      pop\n      jump\t// out\n        /* \"#utility.yul\":5220:5584   */\n    tag_83:\n        /* \"#utility.yul\":5308:5311   */\n      0x00\n        /* \"#utility.yul\":5336:5375   */\n      tag_167\n        /* \"#utility.yul\":5369:5374   */\n      dup3\n        /* \"#utility.yul\":5336:5375   */\n      tag_80\n      jump\t// in\n    tag_167:\n        /* \"#utility.yul\":5391:5462   */\n      tag_168\n        /* \"#utility.yul\":5455:5461   */\n      dup2\n        /* \"#utility.yul\":5450:5453   */\n      dup6\n        /* \"#utility.yul\":5391:5462   */\n      tag_81\n      jump\t// in\n    tag_168:\n        /* \"#utility.yul\":5384:5462   */\n      swap4\n      pop\n        /* \"#utility.yul\":5471:5523   */\n      tag_169\n        /* \"#utility.yul\":5516:5522   */\n      dup2\n        /* \"#utility.yul\":5511:5514   */\n      dup6\n        /* \"#utility.yul\":5504:5508   */\n      0x20\n        /* \"#utility.yul\":5497:5502   */\n      dup7\n        /* \"#utility.yul\":5493:5509   */\n      add\n        /* \"#utility.yul\":5471:5523   */\n      tag_82\n      jump\t// in\n    tag_169:\n        /* \"#utility.yul\":5548:5577   */\n      tag_170\n        /* \"#utility.yul\":5570:5576   */\n      dup2\n        /* \"#utility.yul\":5548:5577   */\n      tag_68\n      jump\t// in\n    tag_170:\n        /* \"#utility.yul\":5543:5546   */\n      dup5\n        /* \"#utility.yul\":5539:5578   */\n      add\n        /* \"#utility.yul\":5532:5578   */\n      swap2\n      pop\n        /* \"#utility.yul\":5312:5584   */\n      pop\n        /* \"#utility.yul\":5220:5584   */\n      swap3\n      swap2\n      pop\n      pop\n      jump\t// out\n        /* \"#utility.yul\":5590:5903   */\n    tag_15:\n        /* \"#utility.yul\":5703:5707   */\n      0x00\n        /* \"#utility.yul\":5741:5743   */\n      0x20\n        /* \"#utility.yul\":5730:5739   */\n      dup3\n        /* \"#utility.yul\":5726:5744   */\n      add\n        /* \"#utility.yul\":5718:5744   */\n      swap1\n      pop\n        /* \"#utility.yul\":5790:5799   */\n      dup2\n        /* \"#utility.yul\":5784:5788   */\n      dup2\n        /* \"#utility.yul\":5780:5800   */\n      sub\n        /* \"#utility.yul\":5776:5777   */\n      0x00\n        /* \"#utility.yul\":5765:5774   */\n      dup4\n        /* \"#utility.yul\":5761:5778   */\n      add\n        /* \"#utility.yul\":5754:5801   */\n      mstore\n        /* \"#utility.yul\":5818:5896   */\n      tag_172\n        /* \"#utility.yul\":5891:5895   */\n      dup2\n        /* \"#utility.yul\":5882:5888   */\n      dup5\n        /* \"#utility.yul\":5818:5896   */\n      tag_83\n      jump\t// in\n    tag_172:\n        /* \"#utility.yul\":5810:5896   */\n      swap1\n      pop\n        /* \"#utility.yul\":5590:5903   */\n      swap3\n      swap2\n      pop\n      pop\n      jump\t// out\n        /* \"#utility.yul\":5909:6027   */\n    tag_84:\n        /* \"#utility.yul\":5996:6020   */\n      tag_174\n        /* \"#utility.yul\":6014:6019   */\n      dup2\n        /* \"#utility.yul\":5996:6020   */\n      tag_64\n      jump\t// in\n    tag_174:\n        /* \"#utility.yul\":5991:5994   */\n      dup3\n        /* \"#utility.yul\":5984:6021   */\n      mstore\n        /* \"#utility.yul\":5909:6027   */\n      pop\n      pop\n      jump\t// out\n        /* \"#utility.yul\":6033:6255   */\n    tag_20:\n        /* \"#utility.yul\":6126:6130   */\n      0x00\n        /* \"#utility.yul\":6164:6166   */\n      0x20\n        /* \"#utility.yul\":6153:6162   */\n      dup3\n        /* \"#utility.yul\":6149:6167   */\n      add\n        /* \"#utility.yul\":6141:6167   */\n      swap1\n      pop\n        /* \"#utility.yul\":6177:6248   */\n      tag_176\n        /* \"#utility.yul\":6245:6246   */\n      0x00\n        /* \"#utility.yul\":6234:6243   */\n      dup4\n        /* \"#utility.yul\":6230:6247   */\n      add\n        /* \"#utility.yul\":6221:6227   */\n      dup5\n        /* \"#utility.yul\":6177:6248   */\n      tag_84\n      jump\t// in\n    tag_176:\n        /* \"#utility.yul\":6033:6255   */\n      swap3\n      swap2\n      pop\n      pop\n      jump\t// out\n        /* \"#utility.yul\":6261:6379   */\n    tag_85:\n        /* \"#utility.yul\":6348:6372   */\n      tag_178\n        /* \"#utility.yul\":6366:6371   */\n      dup2\n        /* \"#utility.yul\":6348:6372   */\n      tag_77\n      jump\t// in\n    tag_178:\n        /* \"#utility.yul\":6343:6346   */\n      dup3\n        /* \"#utility.yul\":6336:6373   */\n      mstore\n        /* \"#utility.yul\":6261:6379   */\n      pop\n      pop\n      jump\t// out\n        /* \"#utility.yul\":6385:6717   */\n    tag_24:\n        /* \"#utility.yul\":6506:6510   */\n      0x00\n        /* \"#utility.yul\":6544:6546   */\n      0x40\n        /* \"#utility.yul\":6533:6542   */\n      dup3\n        /* \"#utility.yul\":6529:6547   */\n      add\n        /* \"#utility.yul\":6521:6547   */\n      swap1\n      pop\n        /* \"#utility.yul\":6557:6628   */\n      tag_180\n        /* \"#utility.yul\":6625:6626   */\n      0x00\n        /* \"#utility.yul\":6614:6623   */\n      dup4\n        /* \"#utility.yul\":6610:6627   */\n      add\n        /* \"#utility.yul\":6601:6607   */\n      dup6\n        /* \"#utility.yul\":6557:6628   */\n      tag_85\n      jump\t// in\n    tag_180:\n        /* \"#utility.yul\":6638:6710   */\n      tag_181\n        /* \"#utility.yul\":6706:6708   */\n      0x20\n        /* \"#utility.yul\":6695:6704   */\n      dup4\n        /* \"#utility.yul\":6691:6709   */\n      add\n        /* \"#utility.yul\":6682:6688   */\n      dup5\n        /* \"#utility.yul\":6638:6710   */\n      tag_85\n      jump\t// in\n    tag_181:\n        /* \"#utility.yul\":6385:6717   */\n      swap4\n      swap3\n      pop\n      pop\n      pop\n      jump\t// out\n        /* \"#utility.yul\":6723:6888   */\n    tag_86:\n        /* \"#utility.yul\":6863:6880   */\n      0x44696365206e6f7420726f6c6c65640000000000000000000000000000000000\n        /* \"#utility.yul\":6859:6860   */\n      0x00\n        /* \"#utility.yul\":6851:6857   */\n      dup3\n        /* \"#utility.yul\":6847:6861   */\n      add\n        /* \"#utility.yul\":6840:6881   */\n      mstore\n        /* \"#utility.yul\":6723:6888   */\n      pop\n      jump\t// out\n        /* \"#utility.yul\":6894:7260   */\n    tag_87:\n        /* \"#utility.yul\":7036:7039   */\n      0x00\n        /* \"#utility.yul\":7057:7124   */\n      tag_184\n        /* \"#utility.yul\":7121:7123   */\n      0x0f\n        /* \"#utility.yul\":7116:7119   */\n      dup4\n        /* \"#utility.yul\":7057:7124   */\n      tag_81\n      jump\t// in\n    tag_184:\n        /* \"#utility.yul\":7050:7124   */\n      swap2\n      pop\n        /* \"#utility.yul\":7133:7226   */\n      tag_185\n        /* \"#utility.yul\":7222:7225   */\n      dup3\n        /* \"#utility.yul\":7133:7226   */\n      tag_86\n      jump\t// in\n    tag_185:\n        /* \"#utility.yul\":7251:7253   */\n      0x20\n        /* \"#utility.yul\":7246:7249   */\n      dup3\n        /* \"#utility.yul\":7242:7254   */\n      add\n        /* \"#utility.yul\":7235:7254   */\n      swap1\n      pop\n        /* \"#utility.yul\":6894:7260   */\n      swap2\n      swap1\n      pop\n      jump\t// out\n        /* \"#utility.yul\":7266:7685   */\n    tag_30:\n        /* \"#utility.yul\":7432:7436   */\n      0x00\n        /* \"#utility.yul\":7470:7472   */\n      0x20\n        /* \"#utility.yul\":7459:7468   */\n      dup3\n        /* \"#utility.yul\":7455:7473   */\n      add\n        /* \"#utility.yul\":7447:7473   */\n      swap1\n      pop\n        /* \"#utility.yul\":7519:7528   */\n      dup2\n        /* \"#utility.yul\":7513:7517   */\n      dup2\n        /* \"#utility.yul\":7509:7529   */\n      sub\n        /* \"#utility.yul\":7505:7506   */\n      0x00\n        /* \"#utility.yul\":7494:7503   */\n      dup4\n        /* \"#utility.yul\":7490:7507   */\n      add\n        /* \"#utility.yul\":7483:7530   */\n      mstore\n        /* \"#utility.yul\":7547:7678   */\n      tag_187\n        /* \"#utility.yul\":7673:7677   */\n      dup2\n        /* \"#utility.yul\":7547:7678   */\n      tag_87\n      jump\t// in\n    tag_187:\n        /* \"#utility.yul\":7539:7678   */\n      swap1\n      pop\n        /* \"#utility.yul\":7266:7685   */\n      swap2\n      swap1\n      pop\n      jump\t// out\n        /* \"#utility.yul\":7691:7857   */\n    tag_88:\n        /* \"#utility.yul\":7831:7849   */\n      0x526f6c6c20696e2070726f677265737300000000000000000000000000000000\n        /* \"#utility.yul\":7827:7828   */\n      0x00\n        /* \"#utility.yul\":7819:7825   */\n      dup3\n        /* \"#utility.yul\":7815:7829   */\n      add\n        /* \"#utility.yul\":7808:7850   */\n      mstore\n        /* \"#utility.yul\":7691:7857   */\n      pop\n      jump\t// out\n        /* \"#utility.yul\":7863:8229   */\n    tag_89:\n        /* \"#utility.yul\":8005:8008   */\n      0x00\n        /* \"#utility.yul\":8026:8093   */\n      tag_190\n        /* \"#utility.yul\":8090:8092   */\n      0x10\n        /* \"#utility.yul\":8085:8088   */\n      dup4\n        /* \"#utility.yul\":8026:8093   */\n      tag_81\n      jump\t// in\n    tag_190:\n        /* \"#utility.yul\":8019:8093   */\n      swap2\n      pop\n        /* \"#utility.yul\":8102:8195   */\n      tag_191\n        /* \"#utility.yul\":8191:8194   */\n      dup3\n        /* \"#utility.yul\":8102:8195   */\n      tag_88\n      jump\t// in\n    tag_191:\n        /* \"#utility.yul\":8220:8222   */\n      0x20\n        /* \"#utility.yul\":8215:8218   */\n      dup3\n        /* \"#utility.yul\":8211:8223   */\n      add\n        /* \"#utility.yul\":8204:8223   */\n      swap1\n      pop\n        /* \"#utility.yul\":7863:8229   */\n      swap2\n      swap1\n      pop\n      jump\t// out\n        /* \"#utility.yul\":8235:8654   */\n    tag_33:\n        /* \"#utility.yul\":8401:8405   */\n      0x00\n        /* \"#utility.yul\":8439:8441   */\n      0x20\n        /* \"#utility.yul\":8428:8437   */\n      dup3\n        /* \"#utility.yul\":8424:8442   */\n      add\n        /* \"#utility.yul\":8416:8442   */\n      swap1\n      pop\n        /* \"#utility.yul\":8488:8497   */\n      dup2\n        /* \"#utility.yul\":8482:8486   */\n      dup2\n        /* \"#utility.yul\":8478:8498   */\n      sub\n        /* \"#utility.yul\":8474:8475   */\n      0x00\n        /* \"#utility.yul\":8463:8472   */\n      dup4\n        /* \"#utility.yul\":8459:8476   */\n      add\n        /* \"#utility.yul\":8452:8499   */\n      mstore\n        /* \"#utility.yul\":8516:8647   */\n      tag_193\n        /* \"#utility.yul\":8642:8646   */\n      dup2\n        /* \"#utility.yul\":8516:8647   */\n      tag_89\n      jump\t// in\n    tag_193:\n        /* \"#utility.yul\":8508:8647   */\n      swap1\n      pop\n        /* \"#utility.yul\":8235:8654   */\n      swap2\n      swap1\n      pop\n      jump\t// out\n        /* \"#utility.yul\":8660:8824   */\n    tag_90:\n        /* \"#utility.yul\":8800:8816   */\n      0x416c726561647920726f6c6c6564000000000000000000000000000000000000\n        /* \"#utility.yul\":8796:8797   */\n      0x00\n        /* \"#utility.yul\":8788:8794   */\n      dup3\n        /* \"#utility.yul\":8784:8798   */\n      add\n        /* \"#utility.yul\":8777:8817   */\n      mstore\n        /* \"#utility.yul\":8660:8824   */\n      pop\n      jump\t// out\n        /* \"#utility.yul\":8830:9196   */\n    tag_91:\n        /* \"#utility.yul\":8972:8975   */\n      0x00\n        /* \"#utility.yul\":8993:9060   */\n      tag_196\n        /* \"#utility.yul\":9057:9059   */\n      0x0e\n        /* \"#utility.yul\":9052:9055   */\n      dup4\n        /* \"#utility.yul\":8993:9060   */\n      tag_81\n      jump\t// in\n    tag_196:\n        /* \"#utility.yul\":8986:9060   */\n      swap2\n      pop\n        /* \"#utility.yul\":9069:9162   */\n      tag_197\n        /* \"#utility.yul\":9158:9161   */\n      dup3\n        /* \"#utility.yul\":9069:9162   */\n      tag_90\n      jump\t// in\n    tag_197:\n        /* \"#utility.yul\":9187:9189   */\n      0x20\n        /* \"#utility.yul\":9182:9185   */\n      dup3\n        /* \"#utility.yul\":9178:9190   */\n      add\n        /* \"#utility.yul\":9171:9190   */\n      swap1\n      pop\n        /* \"#utility.yul\":8830:9196   */\n      swap2\n      swap1\n      pop\n      jump\t// out\n        /* \"#utility.yul\":9202:9621   */\n    tag_41:\n        /* \"#utility.yul\":9368:9372   */\n      0x00\n        /* \"#utility.yul\":9406:9408   */\n      0x20\n        /* \"#utility.yul\":9395:9404   */\n      dup3\n        /* \"#utility.yul\":9391:9409   */\n      add\n        /* \"#utility.yul\":9383:9409   */\n      swap1\n      pop\n        /* \"#utility.yul\":9455:9464   */\n      dup2\n        /* \"#utility.yul\":9449:9453   */\n      dup2\n        /* \"#utility.yul\":9445:9465   */\n      sub\n        /* \"#utility.yul\":9441:9442   */\n      0x00\n        /* \"#utility.yul\":9430:9439   */\n      dup4\n        /* \"#utility.yul\":9426:9443   */\n      add\n        /* \"#utility.yul\":9419:9466   */\n      mstore\n        /* \"#utility.yul\":9483:9614   */\n      tag_199\n        /* \"#utility.yul\":9609:9613   */\n      dup2\n        /* \"#utility.yul\":9483:9614   */\n      tag_91\n      jump\t// in\n    tag_199:\n        /* \"#utility.yul\":9475:9614   */\n      swap1\n      pop\n        /* \"#utility.yul\":9202:9621   */\n      swap2\n      swap1\n      pop\n      jump\t// out\n        /* \"#utility.yul\":9627:9704   */\n    tag_92:\n        /* \"#utility.yul\":9664:9671   */\n      0x00\n        /* \"#utility.yul\":9693:9698   */\n      dup2\n        /* \"#utility.yul\":9682:9698   */\n      swap1\n      pop\n        /* \"#utility.yul\":9627:9704   */\n      swap2\n      swap1\n      pop\n      jump\t// out\n        /* \"#utility.yul\":9710:9828   */\n    tag_93:\n        /* \"#utility.yul\":9797:9821   */\n      tag_202\n        /* \"#utility.yul\":9815:9820   */\n      dup2\n        /* \"#utility.yul\":9797:9821   */\n      tag_92\n      jump\t// in\n    tag_202:\n        /* \"#utility.yul\":9792:9795   */\n      dup3\n        /* \"#utility.yul\":9785:9822   */\n      mstore\n        /* \"#utility.yul\":9710:9828   */\n      pop\n      pop\n      jump\t// out\n        /* \"#utility.yul\":9834:9935   */\n    tag_94:\n        /* \"#utility.yul\":9870:9877   */\n      0x00\n        /* \"#utility.yul\":9910:9928   */\n      0xffffffffffffffff\n        /* \"#utility.yul\":9903:9908   */\n      dup3\n        /* \"#utility.yul\":9899:9929   */\n      and\n        /* \"#utility.yul\":9888:9929   */\n      swap1\n      pop\n        /* \"#utility.yul\":9834:9935   */\n      swap2\n      swap1\n      pop\n      jump\t// out\n        /* \"#utility.yul\":9941:10056   */\n    tag_95:\n        /* \"#utility.yul\":10026:10049   */\n      tag_205\n        /* \"#utility.yul\":10043:10048   */\n      dup2\n        /* \"#utility.yul\":10026:10049   */\n      tag_94\n      jump\t// in\n    tag_205:\n        /* \"#utility.yul\":10021:10024   */\n      dup3\n        /* \"#utility.yul\":10014:10050   */\n      mstore\n        /* \"#utility.yul\":9941:10056   */\n      pop\n      pop\n      jump\t// out\n        /* \"#utility.yul\":10062:10151   */\n    tag_96:\n        /* \"#utility.yul\":10098:10105   */\n      0x00\n        /* \"#utility.yul\":10138:10144   */\n      0xffff\n        /* \"#utility.yul\":10131:10136   */\n      dup3\n        /* \"#utility.yul\":10127:10145   */\n      and\n        /* \"#utility.yul\":10116:10145   */\n      swap1\n      pop\n        /* \"#utility.yul\":10062:10151   */\n      swap2\n      swap1\n      pop\n      jump\t// out\n        /* \"#utility.yul\":10157:10272   */\n    tag_97:\n        /* \"#utility.yul\":10242:10265   */\n      tag_208\n        /* \"#utility.yul\":10259:10264   */\n      dup2\n        /* \"#utility.yul\":10242:10265   */\n      tag_96\n      jump\t// in\n    tag_208:\n        /* \"#utility.yul\":10237:10240   */\n      dup3\n        /* \"#utility.yul\":10230:10266   */\n      mstore\n        /* \"#utility.yul\":10157:10272   */\n      pop\n      pop\n      jump\t// out\n        /* \"#utility.yul\":10278:10371   */\n    tag_98:\n        /* \"#utility.yul\":10314:10321   */\n      0x00\n        /* \"#utility.yul\":10354:10364   */\n      0xffffffff\n        /* \"#utility.yul\":10347:10352   */\n      dup3\n        /* \"#utility.yul\":10343:10365   */\n      and\n        /* \"#utility.yul\":10332:10365   */\n      swap1\n      pop\n        /* \"#utility.yul\":10278:10371   */\n      swap2\n      swap1\n      pop\n      jump\t// out\n        /* \"#utility.yul\":10377:10492   */\n    tag_99:\n        /* \"#utility.yul\":10462:10485   */\n      tag_211\n        /* \"#utility.yul\":10479:10484   */\n      dup2\n        /* \"#utility.yul\":10462:10485   */\n      tag_98\n      jump\t// in\n    tag_211:\n        /* \"#utility.yul\":10457:10460   */\n      dup3\n        /* \"#utility.yul\":10450:10486   */\n      mstore\n        /* \"#utility.yul\":10377:10492   */\n      pop\n      pop\n      jump\t// out\n        /* \"#utility.yul\":10498:11146   */\n    tag_43:\n        /* \"#utility.yul\":10695:10699   */\n      0x00\n        /* \"#utility.yul\":10733:10736   */\n      0xa0\n        /* \"#utility.yul\":10722:10731   */\n      dup3\n        /* \"#utility.yul\":10718:10737   */\n      add\n        /* \"#utility.yul\":10710:10737   */\n      swap1\n      pop\n        /* \"#utility.yul\":10747:10818   */\n      tag_213\n        /* \"#utility.yul\":10815:10816   */\n      0x00\n        /* \"#utility.yul\":10804:10813   */\n      dup4\n        /* \"#utility.yul\":10800:10817   */\n      add\n        /* \"#utility.yul\":10791:10797   */\n      dup9\n        /* \"#utility.yul\":10747:10818   */\n      tag_93\n      jump\t// in\n    tag_213:\n        /* \"#utility.yul\":10828:10898   */\n      tag_214\n        /* \"#utility.yul\":10894:10896   */\n      0x20\n        /* \"#utility.yul\":10883:10892   */\n      dup4\n        /* \"#utility.yul\":10879:10897   */\n      add\n        /* \"#utility.yul\":10870:10876   */\n      dup8\n        /* \"#utility.yul\":10828:10898   */\n      tag_95\n      jump\t// in\n    tag_214:\n        /* \"#utility.yul\":10908:10978   */\n      tag_215\n        /* \"#utility.yul\":10974:10976   */\n      0x40\n        /* \"#utility.yul\":10963:10972   */\n      dup4\n        /* \"#utility.yul\":10959:10977   */\n      add\n        /* \"#utility.yul\":10950:10956   */\n      dup7\n        /* \"#utility.yul\":10908:10978   */\n      tag_97\n      jump\t// in\n    tag_215:\n        /* \"#utility.yul\":10988:11058   */\n      tag_216\n        /* \"#utility.yul\":11054:11056   */\n      0x60\n        /* \"#utility.yul\":11043:11052   */\n      dup4\n        /* \"#utility.yul\":11039:11057   */\n      add\n        /* \"#utility.yul\":11030:11036   */\n      dup6\n        /* \"#utility.yul\":10988:11058   */\n      tag_99\n      jump\t// in\n    tag_216:\n        /* \"#utility.yul\":11068:11139   */\n      tag_217\n        /* \"#utility.yul\":11134:11137   */\n      0x80\n        /* \"#utility.yul\":11123:11132   */\n      dup4\n        /* \"#utility.yul\":11119:11138   */\n      add\n        /* \"#utility.yul\":11110:11116   */\n      dup5\n        /* \"#utility.yul\":11068:11139   */\n      tag_99\n      jump\t// in\n    tag_217:\n        /* \"#utility.yul\":10498:11146   */\n      swap7\n      swap6\n      pop\n      pop\n      pop\n      pop\n      pop\n      pop\n      jump\t// out\n        /* \"#utility.yul\":11152:11295   */\n    tag_100:\n        /* \"#utility.yul\":11209:11214   */\n      0x00\n        /* \"#utility.yul\":11240:11246   */\n      dup2\n        /* \"#utility.yul\":11234:11247   */\n      mload\n        /* \"#utility.yul\":11225:11247   */\n      swap1\n      pop\n        /* \"#utility.yul\":11256:11289   */\n      tag_219\n        /* \"#utility.yul\":11283:11288   */\n      dup2\n        /* \"#utility.yul\":11256:11289   */\n      tag_65\n      jump\t// in\n    tag_219:\n        /* \"#utility.yul\":11152:11295   */\n      swap3\n      swap2\n      pop\n      pop\n      jump\t// out\n        /* \"#utility.yul\":11301:11652   */\n    tag_47:\n        /* \"#utility.yul\":11371:11377   */\n      0x00\n        /* \"#utility.yul\":11420:11422   */\n      0x20\n        /* \"#utility.yul\":11408:11417   */\n      dup3\n        /* \"#utility.yul\":11399:11406   */\n      dup5\n        /* \"#utility.yul\":11395:11418   */\n      sub\n        /* \"#utility.yul\":11391:11423   */\n      slt\n        /* \"#utility.yul\":11388:11507   */\n      iszero\n      tag_221\n      jumpi\n        /* \"#utility.yul\":11426:11505   */\n      tag_222\n      tag_62\n      jump\t// in\n    tag_222:\n        /* \"#utility.yul\":11388:11507   */\n    tag_221:\n        /* \"#utility.yul\":11546:11547   */\n      0x00\n        /* \"#utility.yul\":11571:11635   */\n      tag_223\n        /* \"#utility.yul\":11627:11634   */\n      dup5\n        /* \"#utility.yul\":11618:11624   */\n      dup3\n        /* \"#utility.yul\":11607:11616   */\n      dup6\n        /* \"#utility.yul\":11603:11625   */\n      add\n        /* \"#utility.yul\":11571:11635   */\n      tag_100\n      jump\t// in\n    tag_223:\n        /* \"#utility.yul\":11561:11635   */\n      swap2\n      pop\n        /* \"#utility.yul\":11517:11645   */\n      pop\n        /* \"#utility.yul\":11301:11652   */\n      swap3\n      swap2\n      pop\n      pop\n      jump\t// out\n        /* \"#utility.yul\":11658:11838   */\n    tag_51:\n        /* \"#utility.yul\":11706:11783   */\n      0x4e487b7100000000000000000000000000000000000000000000000000000000\n        /* \"#utility.yul\":11703:11704   */\n      0x00\n        /* \"#utility.yul\":11696:11784   */\n      mstore\n        /* \"#utility.yul\":11803:11807   */\n      0x32\n        /* \"#utility.yul\":11800:11801   */\n      0x04\n        /* \"#utility.yul\":11793:11808   */\n      mstore\n        /* \"#utility.yul\":11827:11831   */\n      0x24\n        /* \"#utility.yul\":11824:11825   */\n      0x00\n        /* \"#utility.yul\":11817:11832   */\n      revert\n        /* \"#utility.yul\":11844:12024   */\n    tag_101:\n        /* \"#utility.yul\":11892:11969   */\n      0x4e487b7100000000000000000000000000000000000000000000000000000000\n        /* \"#utility.yul\":11889:11890   */\n      0x00\n        /* \"#utility.yul\":11882:11970   */\n      mstore\n        /* \"#utility.yul\":11989:11993   */\n      0x12\n        /* \"#utility.yul\":11986:11987   */\n      0x04\n        /* \"#utility.yul\":11979:11994   */\n      mstore\n        /* \"#utility.yul\":12013:12017   */\n      0x24\n        /* \"#utility.yul\":12010:12011   */\n      0x00\n        /* \"#utility.yul\":12003:12018   */\n      revert\n        /* \"#utility.yul\":12030:12206   */\n    tag_53:\n        /* \"#utility.yul\":12062:12063   */\n      0x00\n        /* \"#utility.yul\":12079:12099   */\n      tag_227\n        /* \"#utility.yul\":12097:12098   */\n      dup3\n        /* \"#utility.yul\":12079:12099   */\n      tag_64\n      jump\t// in\n    tag_227:\n        /* \"#utility.yul\":12074:12099   */\n      swap2\n      pop\n        /* \"#utility.yul\":12113:12133   */\n      tag_228\n        /* \"#utility.yul\":12131:12132   */\n      dup4\n        /* \"#utility.yul\":12113:12133   */\n      tag_64\n      jump\t// in\n    tag_228:\n        /* \"#utility.yul\":12108:12133   */\n      swap3\n      pop\n        /* \"#utility.yul\":12152:12153   */\n      dup3\n        /* \"#utility.yul\":12142:12177   */\n      tag_229\n      jumpi\n        /* \"#utility.yul\":12157:12175   */\n      tag_230\n      tag_101\n      jump\t// in\n    tag_230:\n        /* \"#utility.yul\":12142:12177   */\n    tag_229:\n        /* \"#utility.yul\":12198:12199   */\n      dup3\n        /* \"#utility.yul\":12195:12196   */\n      dup3\n        /* \"#utility.yul\":12191:12200   */\n      mod\n        /* \"#utility.yul\":12186:12200   */\n      swap1\n      pop\n        /* \"#utility.yul\":12030:12206   */\n      swap3\n      swap2\n      pop\n      pop\n      jump\t// out\n        /* \"#utility.yul\":12212:12392   */\n    tag_102:\n        /* \"#utility.yul\":12260:12337   */\n      0x4e487b7100000000000000000000000000000000000000000000000000000000\n        /* \"#utility.yul\":12257:12258   */\n      0x00\n        /* \"#utility.yul\":12250:12338   */\n      mstore\n        /* \"#utility.yul\":12357:12361   */\n      0x11\n        /* \"#utility.yul\":12354:12355   */\n      0x04\n        /* \"#utility.yul\":12347:12362   */\n      mstore\n        /* \"#utility.yul\":12381:12385   */\n      0x24\n        /* \"#utility.yul\":12378:12379   */\n      0x00\n        /* \"#utility.yul\":12371:12386   */\n      revert\n        /* \"#utility.yul\":12398:12703   */\n    tag_55:\n        /* \"#utility.yul\":12438:12441   */\n      0x00\n        /* \"#utility.yul\":12457:12477   */\n      tag_233\n        /* \"#utility.yul\":12475:12476   */\n      dup3\n        /* \"#utility.yul\":12457:12477   */\n      tag_64\n      jump\t// in\n    tag_233:\n        /* \"#utility.yul\":12452:12477   */\n      swap2\n      pop\n        /* \"#utility.yul\":12491:12511   */\n      tag_234\n        /* \"#utility.yul\":12509:12510   */\n      dup4\n        /* \"#utility.yul\":12491:12511   */\n      tag_64\n      jump\t// in\n    tag_234:\n        /* \"#utility.yul\":12486:12511   */\n      swap3\n      pop\n        /* \"#utility.yul\":12645:12646   */\n      dup3\n        /* \"#utility.yul\":12577:12643   */\n      0xffffffffffffffffffffffffffffffffffffffffffffffffffffffffffffffff\n        /* \"#utility.yul\":12573:12647   */\n      sub\n        /* \"#utility.yul\":12570:12571   */\n      dup3\n        /* \"#utility.yul\":12567:12648   */\n      gt\n        /* \"#utility.yul\":12564:12671   */\n      iszero\n      tag_235\n      jumpi\n        /* \"#utility.yul\":12651:12669   */\n      tag_236\n      tag_102\n      jump\t// in\n    tag_236:\n        /* \"#utility.yul\":12564:12671   */\n    tag_235:\n        /* \"#utility.yul\":12695:12696   */\n      dup3\n        /* \"#utility.yul\":12692:12693   */\n      dup3\n        /* \"#utility.yul\":12688:12697   */\n      add\n        /* \"#utility.yul\":12681:12697   */\n      swap1\n      pop\n        /* \"#utility.yul\":12398:12703   */\n      swap3\n      swap2\n      pop\n      pop\n      jump\t// out\n        /* \"#utility.yul\":12709:12900   */\n    tag_58:\n        /* \"#utility.yul\":12749:12753   */\n      0x00\n        /* \"#utility.yul\":12769:12789   */\n      tag_238\n        /* \"#utility.yul\":12787:12788   */\n      dup3\n        /* \"#utility.yul\":12769:12789   */\n      tag_64\n      jump\t// in\n    tag_238:\n        /* \"#utility.yul\":12764:12789   */\n      swap2\n      pop\n        /* \"#utility.yul\":12803:12823   */\n      tag_239\n        /* \"#utility.yul\":12821:12822   */\n      dup4\n        /* \"#utility.yul\":12803:12823   */\n      tag_64\n      jump\t// in\n    tag_239:\n        /* \"#utility.yul\":12798:12823   */\n      swap3\n      pop\n        /* \"#utility.yul\":12842:12843   */\n      dup3\n        /* \"#utility.yul\":12839:12840   */\n      dup3\n        /* \"#utility.yul\":12836:12844   */\n      lt\n        /* \"#utility.yul\":12833:12867   */\n      iszero\n      tag_240\n      jumpi\n        /* \"#utility.yul\":12847:12865   */\n      tag_241\n      tag_102\n      jump\t// in\n    tag_241:\n        /* \"#utility.yul\":12833:12867   */\n    tag_240:\n        /* \"#utility.yul\":12892:12893   */\n      dup3\n        /* \"#utility.yul\":12889:12890   */\n      dup3\n        /* \"#utility.yul\":12885:12894   */\n      sub\n        /* \"#utility.yul\":12877:12894   */\n      swap1\n      pop\n        /* \"#utility.yul\":12709:12900   */\n      swap3\n      swap2\n      pop\n      pop\n      jump\t// out\n\n    auxdata: 0xa2646970667358221220cc670ffe78d846b599528912349529516a86bfeaba2394c499ee5c22235a06d064736f6c634300080f0033\n}\n",
				"bytecode": {
					"linkReferences": {},
					"object": "60a0604052736168499c0cffcacd319c818142124b7a15e857ab600160006101000a81548173ffffffffffffffffffffffffffffffffffffffff021916908373ffffffffffffffffffffffffffffffffffffffff1602179055507fd89b2bf150e3b9e13446986e571fb9cab24b13cea0a43ea20a6049a85cc807cc60001b600255619c40600360006101000a81548163ffffffff021916908363ffffffff16021790555060038060046101000a81548161ffff021916908361ffff1602179055506001600360066101000a81548163ffffffff021916908363ffffffff160217905550348015620000ef57600080fd5b50604051620015843803806200158483398181016040528101906200011591906200028a565b600160009054906101000a900473ffffffffffffffffffffffffffffffffffffffff168073ffffffffffffffffffffffffffffffffffffffff1660808173ffffffffffffffffffffffffffffffffffffffff168152505050600160009054906101000a900473ffffffffffffffffffffffffffffffffffffffff166000806101000a81548173ffffffffffffffffffffffffffffffffffffffff021916908373ffffffffffffffffffffffffffffffffffffffff160217905550336003600a6101000a81548173ffffffffffffffffffffffffffffffffffffffff021916908373ffffffffffffffffffffffffffffffffffffffff16021790555080600060146101000a81548167ffffffffffffffff021916908367ffffffffffffffff16021790555050620002bc565b600080fd5b600067ffffffffffffffff82169050919050565b620002648162000245565b81146200027057600080fd5b50565b600081519050620002848162000259565b92915050565b600060208284031215620002a357620002a262000240565b5b6000620002b38482850162000273565b91505092915050565b6080516112a6620002de6000396000818160c4015261011801526112a66000f3fe608060405234801561001057600080fd5b50600436106100415760003560e01c80631fe543e314610046578063b1cad5e314610062578063dd02d9e514610092575b600080fd5b610060600480360381019061005b9190610ce4565b6100c2565b005b61007c60048036038101906100779190610d9e565b610182565b6040516100899190610e53565b60405180910390f35b6100ac60048036038101906100a79190610d9e565b6102d7565b6040516100b99190610e84565b60405180910390f35b7f000000000000000000000000000000000000000000000000000000000000000073ffffffffffffffffffffffffffffffffffffffff163373ffffffffffffffffffffffffffffffffffffffff161461017457337f00000000000000000000000000000000000000000000000000000000000000006040517f1cf993f400000000000000000000000000000000000000000000000000000000815260040161016b929190610eae565b60405180910390fd5b61017e8282610587565b5050565b60606000600560008473ffffffffffffffffffffffffffffffffffffffff1673ffffffffffffffffffffffffffffffffffffffff1681526020019081526020016000205403610206576040517f08c379a00000000000000000000000000000000000000000000000000000000081526004016101fd90610f23565b60405180910390fd5b602a600560008473ffffffffffffffffffffffffffffffffffffffff1673ffffffffffffffffffffffffffffffffffffffff1681526020019081526020016000205403610288576040517f08c379a000000000000000000000000000000000000000000000000000000000815260040161027f90610f8f565b60405180910390fd5b6102d0600560008473ffffffffffffffffffffffffffffffffffffffff1673ffffffffffffffffffffffffffffffffffffffff16815260200190815260200160002054610669565b9050919050565b60006003600a9054906101000a900473ffffffffffffffffffffffffffffffffffffffff1673ffffffffffffffffffffffffffffffffffffffff163373ffffffffffffffffffffffffffffffffffffffff161461033357600080fd5b6000600560008473ffffffffffffffffffffffffffffffffffffffff1673ffffffffffffffffffffffffffffffffffffffff16815260200190815260200160002054146103b5576040517f08c379a00000000000000000000000000000000000000000000000000000000081526004016103ac90610ffb565b60405180910390fd5b60008054906101000a900473ffffffffffffffffffffffffffffffffffffffff1673ffffffffffffffffffffffffffffffffffffffff16635d3b1d30600254600060149054906101000a900467ffffffffffffffff16600360049054906101000a900461ffff16600360009054906101000a900463ffffffff16600360069054906101000a900463ffffffff166040518663ffffffff1660e01b8152600401610462959493929190611093565b6020604051808303816000875af1158015610481573d6000803e3d6000fd5b505050506040513d601f19601f820116820180604052508101906104a591906110fb565b9050816004600083815260200190815260200160002060006101000a81548173ffffffffffffffffffffffffffffffffffffffff021916908373ffffffffffffffffffffffffffffffffffffffff160217905550602a600560008473ffffffffffffffffffffffffffffffffffffffff1673ffffffffffffffffffffffffffffffffffffffff168152602001908152602001600020819055508173ffffffffffffffffffffffffffffffffffffffff16817f3e7fdeab84c01ce5308321caa0b460e1c4ec3c7099223d79634d9a71d99932e360405160405180910390a3919050565b600060016014836000815181106105a1576105a0611128565b5b60200260200101516105b39190611186565b6105bd91906111e6565b905080600560006004600087815260200190815260200160002060009054906101000a900473ffffffffffffffffffffffffffffffffffffffff1673ffffffffffffffffffffffffffffffffffffffff1673ffffffffffffffffffffffffffffffffffffffff1681526020019081526020016000208190555080837f54d97c1f7e5abad75bd421455cd4dd296852a52e1ea721f2cdb66d06fa2082a960405160405180910390a3505050565b606060006040518061028001604052806040518060400160405280600981526020017f54617267617279656e000000000000000000000000000000000000000000000081525081526020016040518060400160405280600981526020017f4c616e6e6973746572000000000000000000000000000000000000000000000081525081526020016040518060400160405280600581526020017f537461726b00000000000000000000000000000000000000000000000000000081525081526020016040518060400160405280600681526020017f547972656c6c000000000000000000000000000000000000000000000000000081525081526020016040518060400160405280600981526020017f426172617468656f6e000000000000000000000000000000000000000000000081525081526020016040518060400160405280600781526020017f4d617274656c6c0000000000000000000000000000000000000000000000000081525081526020016040518060400160405280600581526020017f54756c6c7900000000000000000000000000000000000000000000000000000081525081526020016040518060400160405280600681526020017f426f6c746f6e000000000000000000000000000000000000000000000000000081525081526020016040518060400160405280600781526020017f477265796a6f790000000000000000000000000000000000000000000000000081525081526020016040518060400160405280600581526020017f417272796e00000000000000000000000000000000000000000000000000000081525081526020016040518060400160405280600481526020017f467265790000000000000000000000000000000000000000000000000000000081525081526020016040518060400160405280600781526020017f4d6f726d6f6e740000000000000000000000000000000000000000000000000081525081526020016040518060400160405280600681526020017f5461726c6579000000000000000000000000000000000000000000000000000081525081526020016040518060400160405280600581526020017f4461796e6500000000000000000000000000000000000000000000000000000081525081526020016040518060400160405280600581526020017f556d62657200000000000000000000000000000000000000000000000000000081525081526020016040518060400160405280600881526020017f56616c6572796f6e00000000000000000000000000000000000000000000000081525081526020016040518060400160405280600881526020017f4d616e6465726c7900000000000000000000000000000000000000000000000081525081526020016040518060400160405280600781526020017f436c6567616e650000000000000000000000000000000000000000000000000081525081526020016040518060400160405280600681526020017f476c6f766572000000000000000000000000000000000000000000000000000081525081526020016040518060400160405280600881526020017f4b6172737461726b000000000000000000000000000000000000000000000000815250815250905080600184610b23919061123c565b60148110610b3457610b33611128565b5b6020020151915050919050565b6000604051905090565b600080fd5b600080fd5b6000819050919050565b610b6881610b55565b8114610b7357600080fd5b50565b600081359050610b8581610b5f565b92915050565b600080fd5b6000601f19601f8301169050919050565b7f4e487b7100000000000000000000000000000000000000000000000000000000600052604160045260246000fd5b610bd982610b90565b810181811067ffffffffffffffff82111715610bf857610bf7610ba1565b5b80604052505050565b6000610c0b610b41565b9050610c178282610bd0565b919050565b600067ffffffffffffffff821115610c3757610c36610ba1565b5b602082029050602081019050919050565b600080fd5b6000610c60610c5b84610c1c565b610c01565b90508083825260208201905060208402830185811115610c8357610c82610c48565b5b835b81811015610cac5780610c988882610b76565b845260208401935050602081019050610c85565b5050509392505050565b600082601f830112610ccb57610cca610b8b565b5b8135610cdb848260208601610c4d565b91505092915050565b60008060408385031215610cfb57610cfa610b4b565b5b6000610d0985828601610b76565b925050602083013567ffffffffffffffff811115610d2a57610d29610b50565b5b610d3685828601610cb6565b9150509250929050565b600073ffffffffffffffffffffffffffffffffffffffff82169050919050565b6000610d6b82610d40565b9050919050565b610d7b81610d60565b8114610d8657600080fd5b50565b600081359050610d9881610d72565b92915050565b600060208284031215610db457610db3610b4b565b5b6000610dc284828501610d89565b91505092915050565b600081519050919050565b600082825260208201905092915050565b60005b83811015610e05578082015181840152602081019050610dea565b83811115610e14576000848401525b50505050565b6000610e2582610dcb565b610e2f8185610dd6565b9350610e3f818560208601610de7565b610e4881610b90565b840191505092915050565b60006020820190508181036000830152610e6d8184610e1a565b905092915050565b610e7e81610b55565b82525050565b6000602082019050610e996000830184610e75565b92915050565b610ea881610d60565b82525050565b6000604082019050610ec36000830185610e9f565b610ed06020830184610e9f565b9392505050565b7f44696365206e6f7420726f6c6c65640000000000000000000000000000000000600082015250565b6000610f0d600f83610dd6565b9150610f1882610ed7565b602082019050919050565b60006020820190508181036000830152610f3c81610f00565b9050919050565b7f526f6c6c20696e2070726f677265737300000000000000000000000000000000600082015250565b6000610f79601083610dd6565b9150610f8482610f43565b602082019050919050565b60006020820190508181036000830152610fa881610f6c565b9050919050565b7f416c726561647920726f6c6c6564000000000000000000000000000000000000600082015250565b6000610fe5600e83610dd6565b9150610ff082610faf565b602082019050919050565b6000602082019050818103600083015261101481610fd8565b9050919050565b6000819050919050565b61102e8161101b565b82525050565b600067ffffffffffffffff82169050919050565b61105181611034565b82525050565b600061ffff82169050919050565b61106e81611057565b82525050565b600063ffffffff82169050919050565b61108d81611074565b82525050565b600060a0820190506110a86000830188611025565b6110b56020830187611048565b6110c26040830186611065565b6110cf6060830185611084565b6110dc6080830184611084565b9695505050505050565b6000815190506110f581610b5f565b92915050565b60006020828403121561111157611110610b4b565b5b600061111f848285016110e6565b91505092915050565b7f4e487b7100000000000000000000000000000000000000000000000000000000600052603260045260246000fd5b7f4e487b7100000000000000000000000000000000000000000000000000000000600052601260045260246000fd5b600061119182610b55565b915061119c83610b55565b9250826111ac576111ab611157565b5b828206905092915050565b7f4e487b7100000000000000000000000000000000000000000000000000000000600052601160045260246000fd5b60006111f182610b55565b91506111fc83610b55565b9250827fffffffffffffffffffffffffffffffffffffffffffffffffffffffffffffffff03821115611231576112306111b7565b5b828201905092915050565b600061124782610b55565b915061125283610b55565b925082821015611265576112646111b7565b5b82820390509291505056fea2646970667358221220cc670ffe78d846b599528912349529516a86bfeaba2394c499ee5c22235a06d064736f6c634300080f0033",
					"opcodes": "PUSH1 0xA0 PUSH1 0x40 MSTORE PUSH20 0x6168499C0CFFCACD319C818142124B7A15E857AB PUSH1 0x1 PUSH1 0x0 PUSH2 0x100 EXP DUP2 SLOAD DUP2 PUSH20 0xFFFFFFFFFFFFFFFFFFFFFFFFFFFFFFFFFFFFFFFF MUL NOT AND SWAP1 DUP4 PUSH20 0xFFFFFFFFFFFFFFFFFFFFFFFFFFFFFFFFFFFFFFFF AND MUL OR SWAP1 SSTORE POP PUSH32 0xD89B2BF150E3B9E13446986E571FB9CAB24B13CEA0A43EA20A6049A85CC807CC PUSH1 0x0 SHL PUSH1 0x2 SSTORE PUSH2 0x9C40 PUSH1 0x3 PUSH1 0x0 PUSH2 0x100 EXP DUP2 SLOAD DUP2 PUSH4 0xFFFFFFFF MUL NOT AND SWAP1 DUP4 PUSH4 0xFFFFFFFF AND MUL OR SWAP1 SSTORE POP PUSH1 0x3 DUP1 PUSH1 0x4 PUSH2 0x100 EXP DUP2 SLOAD DUP2 PUSH2 0xFFFF MUL NOT AND SWAP1 DUP4 PUSH2 0xFFFF AND MUL OR SWAP1 SSTORE POP PUSH1 0x1 PUSH1 0x3 PUSH1 0x6 PUSH2 0x100 EXP DUP2 SLOAD DUP2 PUSH4 0xFFFFFFFF MUL NOT AND SWAP1 DUP4 PUSH4 0xFFFFFFFF AND MUL OR SWAP1 SSTORE POP CALLVALUE DUP1 ISZERO PUSH3 0xEF JUMPI PUSH1 0x0 DUP1 REVERT JUMPDEST POP PUSH1 0x40 MLOAD PUSH3 0x1584 CODESIZE SUB DUP1 PUSH3 0x1584 DUP4 CODECOPY DUP2 DUP2 ADD PUSH1 0x40 MSTORE DUP2 ADD SWAP1 PUSH3 0x115 SWAP2 SWAP1 PUSH3 0x28A JUMP JUMPDEST PUSH1 0x1 PUSH1 0x0 SWAP1 SLOAD SWAP1 PUSH2 0x100 EXP SWAP1 DIV PUSH20 0xFFFFFFFFFFFFFFFFFFFFFFFFFFFFFFFFFFFFFFFF AND DUP1 PUSH20 0xFFFFFFFFFFFFFFFFFFFFFFFFFFFFFFFFFFFFFFFF AND PUSH1 0x80 DUP2 PUSH20 0xFFFFFFFFFFFFFFFFFFFFFFFFFFFFFFFFFFFFFFFF AND DUP2 MSTORE POP POP POP PUSH1 0x1 PUSH1 0x0 SWAP1 SLOAD SWAP1 PUSH2 0x100 EXP SWAP1 DIV PUSH20 0xFFFFFFFFFFFFFFFFFFFFFFFFFFFFFFFFFFFFFFFF AND PUSH1 0x0 DUP1 PUSH2 0x100 EXP DUP2 SLOAD DUP2 PUSH20 0xFFFFFFFFFFFFFFFFFFFFFFFFFFFFFFFFFFFFFFFF MUL NOT AND SWAP1 DUP4 PUSH20 0xFFFFFFFFFFFFFFFFFFFFFFFFFFFFFFFFFFFFFFFF AND MUL OR SWAP1 SSTORE POP CALLER PUSH1 0x3 PUSH1 0xA PUSH2 0x100 EXP DUP2 SLOAD DUP2 PUSH20 0xFFFFFFFFFFFFFFFFFFFFFFFFFFFFFFFFFFFFFFFF MUL NOT AND SWAP1 DUP4 PUSH20 0xFFFFFFFFFFFFFFFFFFFFFFFFFFFFFFFFFFFFFFFF AND MUL OR SWAP1 SSTORE POP DUP1 PUSH1 0x0 PUSH1 0x14 PUSH2 0x100 EXP DUP2 SLOAD DUP2 PUSH8 0xFFFFFFFFFFFFFFFF MUL NOT AND SWAP1 DUP4 PUSH8 0xFFFFFFFFFFFFFFFF AND MUL OR SWAP1 SSTORE POP POP PUSH3 0x2BC JUMP JUMPDEST PUSH1 0x0 DUP1 REVERT JUMPDEST PUSH1 0x0 PUSH8 0xFFFFFFFFFFFFFFFF DUP3 AND SWAP1 POP SWAP2 SWAP1 POP JUMP JUMPDEST PUSH3 0x264 DUP2 PUSH3 0x245 JUMP JUMPDEST DUP2 EQ PUSH3 0x270 JUMPI PUSH1 0x0 DUP1 REVERT JUMPDEST POP JUMP JUMPDEST PUSH1 0x0 DUP2 MLOAD SWAP1 POP PUSH3 0x284 DUP2 PUSH3 0x259 JUMP JUMPDEST SWAP3 SWAP2 POP POP JUMP JUMPDEST PUSH1 0x0 PUSH1 0x20 DUP3 DUP5 SUB SLT ISZERO PUSH3 0x2A3 JUMPI PUSH3 0x2A2 PUSH3 0x240 JUMP JUMPDEST JUMPDEST PUSH1 0x0 PUSH3 0x2B3 DUP5 DUP3 DUP6 ADD PUSH3 0x273 JUMP JUMPDEST SWAP2 POP POP SWAP3 SWAP2 POP POP JUMP JUMPDEST PUSH1 0x80 MLOAD PUSH2 0x12A6 PUSH3 0x2DE PUSH1 0x0 CODECOPY PUSH1 0x0 DUP2 DUP2 PUSH1 0xC4 ADD MSTORE PUSH2 0x118 ADD MSTORE PUSH2 0x12A6 PUSH1 0x0 RETURN INVALID PUSH1 0x80 PUSH1 0x40 MSTORE CALLVALUE DUP1 ISZERO PUSH2 0x10 JUMPI PUSH1 0x0 DUP1 REVERT JUMPDEST POP PUSH1 0x4 CALLDATASIZE LT PUSH2 0x41 JUMPI PUSH1 0x0 CALLDATALOAD PUSH1 0xE0 SHR DUP1 PUSH4 0x1FE543E3 EQ PUSH2 0x46 JUMPI DUP1 PUSH4 0xB1CAD5E3 EQ PUSH2 0x62 JUMPI DUP1 PUSH4 0xDD02D9E5 EQ PUSH2 0x92 JUMPI JUMPDEST PUSH1 0x0 DUP1 REVERT JUMPDEST PUSH2 0x60 PUSH1 0x4 DUP1 CALLDATASIZE SUB DUP2 ADD SWAP1 PUSH2 0x5B SWAP2 SWAP1 PUSH2 0xCE4 JUMP JUMPDEST PUSH2 0xC2 JUMP JUMPDEST STOP JUMPDEST PUSH2 0x7C PUSH1 0x4 DUP1 CALLDATASIZE SUB DUP2 ADD SWAP1 PUSH2 0x77 SWAP2 SWAP1 PUSH2 0xD9E JUMP JUMPDEST PUSH2 0x182 JUMP JUMPDEST PUSH1 0x40 MLOAD PUSH2 0x89 SWAP2 SWAP1 PUSH2 0xE53 JUMP JUMPDEST PUSH1 0x40 MLOAD DUP1 SWAP2 SUB SWAP1 RETURN JUMPDEST PUSH2 0xAC PUSH1 0x4 DUP1 CALLDATASIZE SUB DUP2 ADD SWAP1 PUSH2 0xA7 SWAP2 SWAP1 PUSH2 0xD9E JUMP JUMPDEST PUSH2 0x2D7 JUMP JUMPDEST PUSH1 0x40 MLOAD PUSH2 0xB9 SWAP2 SWAP1 PUSH2 0xE84 JUMP JUMPDEST PUSH1 0x40 MLOAD DUP1 SWAP2 SUB SWAP1 RETURN JUMPDEST PUSH32 0x0 PUSH20 0xFFFFFFFFFFFFFFFFFFFFFFFFFFFFFFFFFFFFFFFF AND CALLER PUSH20 0xFFFFFFFFFFFFFFFFFFFFFFFFFFFFFFFFFFFFFFFF AND EQ PUSH2 0x174 JUMPI CALLER PUSH32 0x0 PUSH1 0x40 MLOAD PUSH32 0x1CF993F400000000000000000000000000000000000000000000000000000000 DUP2 MSTORE PUSH1 0x4 ADD PUSH2 0x16B SWAP3 SWAP2 SWAP1 PUSH2 0xEAE JUMP JUMPDEST PUSH1 0x40 MLOAD DUP1 SWAP2 SUB SWAP1 REVERT JUMPDEST PUSH2 0x17E DUP3 DUP3 PUSH2 0x587 JUMP JUMPDEST POP POP JUMP JUMPDEST PUSH1 0x60 PUSH1 0x0 PUSH1 0x5 PUSH1 0x0 DUP5 PUSH20 0xFFFFFFFFFFFFFFFFFFFFFFFFFFFFFFFFFFFFFFFF AND PUSH20 0xFFFFFFFFFFFFFFFFFFFFFFFFFFFFFFFFFFFFFFFF AND DUP2 MSTORE PUSH1 0x20 ADD SWAP1 DUP2 MSTORE PUSH1 0x20 ADD PUSH1 0x0 KECCAK256 SLOAD SUB PUSH2 0x206 JUMPI PUSH1 0x40 MLOAD PUSH32 0x8C379A000000000000000000000000000000000000000000000000000000000 DUP2 MSTORE PUSH1 0x4 ADD PUSH2 0x1FD SWAP1 PUSH2 0xF23 JUMP JUMPDEST PUSH1 0x40 MLOAD DUP1 SWAP2 SUB SWAP1 REVERT JUMPDEST PUSH1 0x2A PUSH1 0x5 PUSH1 0x0 DUP5 PUSH20 0xFFFFFFFFFFFFFFFFFFFFFFFFFFFFFFFFFFFFFFFF AND PUSH20 0xFFFFFFFFFFFFFFFFFFFFFFFFFFFFFFFFFFFFFFFF AND DUP2 MSTORE PUSH1 0x20 ADD SWAP1 DUP2 MSTORE PUSH1 0x20 ADD PUSH1 0x0 KECCAK256 SLOAD SUB PUSH2 0x288 JUMPI PUSH1 0x40 MLOAD PUSH32 0x8C379A000000000000000000000000000000000000000000000000000000000 DUP2 MSTORE PUSH1 0x4 ADD PUSH2 0x27F SWAP1 PUSH2 0xF8F JUMP JUMPDEST PUSH1 0x40 MLOAD DUP1 SWAP2 SUB SWAP1 REVERT JUMPDEST PUSH2 0x2D0 PUSH1 0x5 PUSH1 0x0 DUP5 PUSH20 0xFFFFFFFFFFFFFFFFFFFFFFFFFFFFFFFFFFFFFFFF AND PUSH20 0xFFFFFFFFFFFFFFFFFFFFFFFFFFFFFFFFFFFFFFFF AND DUP2 MSTORE PUSH1 0x20 ADD SWAP1 DUP2 MSTORE PUSH1 0x20 ADD PUSH1 0x0 KECCAK256 SLOAD PUSH2 0x669 JUMP JUMPDEST SWAP1 POP SWAP2 SWAP1 POP JUMP JUMPDEST PUSH1 0x0 PUSH1 0x3 PUSH1 0xA SWAP1 SLOAD SWAP1 PUSH2 0x100 EXP SWAP1 DIV PUSH20 0xFFFFFFFFFFFFFFFFFFFFFFFFFFFFFFFFFFFFFFFF AND PUSH20 0xFFFFFFFFFFFFFFFFFFFFFFFFFFFFFFFFFFFFFFFF AND CALLER PUSH20 0xFFFFFFFFFFFFFFFFFFFFFFFFFFFFFFFFFFFFFFFF AND EQ PUSH2 0x333 JUMPI PUSH1 0x0 DUP1 REVERT JUMPDEST PUSH1 0x0 PUSH1 0x5 PUSH1 0x0 DUP5 PUSH20 0xFFFFFFFFFFFFFFFFFFFFFFFFFFFFFFFFFFFFFFFF AND PUSH20 0xFFFFFFFFFFFFFFFFFFFFFFFFFFFFFFFFFFFFFFFF AND DUP2 MSTORE PUSH1 0x20 ADD SWAP1 DUP2 MSTORE PUSH1 0x20 ADD PUSH1 0x0 KECCAK256 SLOAD EQ PUSH2 0x3B5 JUMPI PUSH1 0x40 MLOAD PUSH32 0x8C379A000000000000000000000000000000000000000000000000000000000 DUP2 MSTORE PUSH1 0x4 ADD PUSH2 0x3AC SWAP1 PUSH2 0xFFB JUMP JUMPDEST PUSH1 0x40 MLOAD DUP1 SWAP2 SUB SWAP1 REVERT JUMPDEST PUSH1 0x0 DUP1 SLOAD SWAP1 PUSH2 0x100 EXP SWAP1 DIV PUSH20 0xFFFFFFFFFFFFFFFFFFFFFFFFFFFFFFFFFFFFFFFF AND PUSH20 0xFFFFFFFFFFFFFFFFFFFFFFFFFFFFFFFFFFFFFFFF AND PUSH4 0x5D3B1D30 PUSH1 0x2 SLOAD PUSH1 0x0 PUSH1 0x14 SWAP1 SLOAD SWAP1 PUSH2 0x100 EXP SWAP1 DIV PUSH8 0xFFFFFFFFFFFFFFFF AND PUSH1 0x3 PUSH1 0x4 SWAP1 SLOAD SWAP1 PUSH2 0x100 EXP SWAP1 DIV PUSH2 0xFFFF AND PUSH1 0x3 PUSH1 0x0 SWAP1 SLOAD SWAP1 PUSH2 0x100 EXP SWAP1 DIV PUSH4 0xFFFFFFFF AND PUSH1 0x3 PUSH1 0x6 SWAP1 SLOAD SWAP1 PUSH2 0x100 EXP SWAP1 DIV PUSH4 0xFFFFFFFF AND PUSH1 0x40 MLOAD DUP7 PUSH4 0xFFFFFFFF AND PUSH1 0xE0 SHL DUP2 MSTORE PUSH1 0x4 ADD PUSH2 0x462 SWAP6 SWAP5 SWAP4 SWAP3 SWAP2 SWAP1 PUSH2 0x1093 JUMP JUMPDEST PUSH1 0x20 PUSH1 0x40 MLOAD DUP1 DUP4 SUB DUP2 PUSH1 0x0 DUP8 GAS CALL ISZERO DUP1 ISZERO PUSH2 0x481 JUMPI RETURNDATASIZE PUSH1 0x0 DUP1 RETURNDATACOPY RETURNDATASIZE PUSH1 0x0 REVERT JUMPDEST POP POP POP POP PUSH1 0x40 MLOAD RETURNDATASIZE PUSH1 0x1F NOT PUSH1 0x1F DUP3 ADD AND DUP3 ADD DUP1 PUSH1 0x40 MSTORE POP DUP2 ADD SWAP1 PUSH2 0x4A5 SWAP2 SWAP1 PUSH2 0x10FB JUMP JUMPDEST SWAP1 POP DUP2 PUSH1 0x4 PUSH1 0x0 DUP4 DUP2 MSTORE PUSH1 0x20 ADD SWAP1 DUP2 MSTORE PUSH1 0x20 ADD PUSH1 0x0 KECCAK256 PUSH1 0x0 PUSH2 0x100 EXP DUP2 SLOAD DUP2 PUSH20 0xFFFFFFFFFFFFFFFFFFFFFFFFFFFFFFFFFFFFFFFF MUL NOT AND SWAP1 DUP4 PUSH20 0xFFFFFFFFFFFFFFFFFFFFFFFFFFFFFFFFFFFFFFFF AND MUL OR SWAP1 SSTORE POP PUSH1 0x2A PUSH1 0x5 PUSH1 0x0 DUP5 PUSH20 0xFFFFFFFFFFFFFFFFFFFFFFFFFFFFFFFFFFFFFFFF AND PUSH20 0xFFFFFFFFFFFFFFFFFFFFFFFFFFFFFFFFFFFFFFFF AND DUP2 MSTORE PUSH1 0x20 ADD SWAP1 DUP2 MSTORE PUSH1 0x20 ADD PUSH1 0x0 KECCAK256 DUP2 SWAP1 SSTORE POP DUP2 PUSH20 0xFFFFFFFFFFFFFFFFFFFFFFFFFFFFFFFFFFFFFFFF AND DUP2 PUSH32 0x3E7FDEAB84C01CE5308321CAA0B460E1C4EC3C7099223D79634D9A71D99932E3 PUSH1 0x40 MLOAD PUSH1 0x40 MLOAD DUP1 SWAP2 SUB SWAP1 LOG3 SWAP2 SWAP1 POP JUMP JUMPDEST PUSH1 0x0 PUSH1 0x1 PUSH1 0x14 DUP4 PUSH1 0x0 DUP2 MLOAD DUP2 LT PUSH2 0x5A1 JUMPI PUSH2 0x5A0 PUSH2 0x1128 JUMP JUMPDEST JUMPDEST PUSH1 0x20 MUL PUSH1 0x20 ADD ADD MLOAD PUSH2 0x5B3 SWAP2 SWAP1 PUSH2 0x1186 JUMP JUMPDEST PUSH2 0x5BD SWAP2 SWAP1 PUSH2 0x11E6 JUMP JUMPDEST SWAP1 POP DUP1 PUSH1 0x5 PUSH1 0x0 PUSH1 0x4 PUSH1 0x0 DUP8 DUP2 MSTORE PUSH1 0x20 ADD SWAP1 DUP2 MSTORE PUSH1 0x20 ADD PUSH1 0x0 KECCAK256 PUSH1 0x0 SWAP1 SLOAD SWAP1 PUSH2 0x100 EXP SWAP1 DIV PUSH20 0xFFFFFFFFFFFFFFFFFFFFFFFFFFFFFFFFFFFFFFFF AND PUSH20 0xFFFFFFFFFFFFFFFFFFFFFFFFFFFFFFFFFFFFFFFF AND PUSH20 0xFFFFFFFFFFFFFFFFFFFFFFFFFFFFFFFFFFFFFFFF AND DUP2 MSTORE PUSH1 0x20 ADD SWAP1 DUP2 MSTORE PUSH1 0x20 ADD PUSH1 0x0 KECCAK256 DUP2 SWAP1 SSTORE POP DUP1 DUP4 PUSH32 0x54D97C1F7E5ABAD75BD421455CD4DD296852A52E1EA721F2CDB66D06FA2082A9 PUSH1 0x40 MLOAD PUSH1 0x40 MLOAD DUP1 SWAP2 SUB SWAP1 LOG3 POP POP POP JUMP JUMPDEST PUSH1 0x60 PUSH1 0x0 PUSH1 0x40 MLOAD DUP1 PUSH2 0x280 ADD PUSH1 0x40 MSTORE DUP1 PUSH1 0x40 MLOAD DUP1 PUSH1 0x40 ADD PUSH1 0x40 MSTORE DUP1 PUSH1 0x9 DUP2 MSTORE PUSH1 0x20 ADD PUSH32 0x54617267617279656E0000000000000000000000000000000000000000000000 DUP2 MSTORE POP DUP2 MSTORE PUSH1 0x20 ADD PUSH1 0x40 MLOAD DUP1 PUSH1 0x40 ADD PUSH1 0x40 MSTORE DUP1 PUSH1 0x9 DUP2 MSTORE PUSH1 0x20 ADD PUSH32 0x4C616E6E69737465720000000000000000000000000000000000000000000000 DUP2 MSTORE POP DUP2 MSTORE PUSH1 0x20 ADD PUSH1 0x40 MLOAD DUP1 PUSH1 0x40 ADD PUSH1 0x40 MSTORE DUP1 PUSH1 0x5 DUP2 MSTORE PUSH1 0x20 ADD PUSH32 0x537461726B000000000000000000000000000000000000000000000000000000 DUP2 MSTORE POP DUP2 MSTORE PUSH1 0x20 ADD PUSH1 0x40 MLOAD DUP1 PUSH1 0x40 ADD PUSH1 0x40 MSTORE DUP1 PUSH1 0x6 DUP2 MSTORE PUSH1 0x20 ADD PUSH32 0x547972656C6C0000000000000000000000000000000000000000000000000000 DUP2 MSTORE POP DUP2 MSTORE PUSH1 0x20 ADD PUSH1 0x40 MLOAD DUP1 PUSH1 0x40 ADD PUSH1 0x40 MSTORE DUP1 PUSH1 0x9 DUP2 MSTORE PUSH1 0x20 ADD PUSH32 0x426172617468656F6E0000000000000000000000000000000000000000000000 DUP2 MSTORE POP DUP2 MSTORE PUSH1 0x20 ADD PUSH1 0x40 MLOAD DUP1 PUSH1 0x40 ADD PUSH1 0x40 MSTORE DUP1 PUSH1 0x7 DUP2 MSTORE PUSH1 0x20 ADD PUSH32 0x4D617274656C6C00000000000000000000000000000000000000000000000000 DUP2 MSTORE POP DUP2 MSTORE PUSH1 0x20 ADD PUSH1 0x40 MLOAD DUP1 PUSH1 0x40 ADD PUSH1 0x40 MSTORE DUP1 PUSH1 0x5 DUP2 MSTORE PUSH1 0x20 ADD PUSH32 0x54756C6C79000000000000000000000000000000000000000000000000000000 DUP2 MSTORE POP DUP2 MSTORE PUSH1 0x20 ADD PUSH1 0x40 MLOAD DUP1 PUSH1 0x40 ADD PUSH1 0x40 MSTORE DUP1 PUSH1 0x6 DUP2 MSTORE PUSH1 0x20 ADD PUSH32 0x426F6C746F6E0000000000000000000000000000000000000000000000000000 DUP2 MSTORE POP DUP2 MSTORE PUSH1 0x20 ADD PUSH1 0x40 MLOAD DUP1 PUSH1 0x40 ADD PUSH1 0x40 MSTORE DUP1 PUSH1 0x7 DUP2 MSTORE PUSH1 0x20 ADD PUSH32 0x477265796A6F7900000000000000000000000000000000000000000000000000 DUP2 MSTORE POP DUP2 MSTORE PUSH1 0x20 ADD PUSH1 0x40 MLOAD DUP1 PUSH1 0x40 ADD PUSH1 0x40 MSTORE DUP1 PUSH1 0x5 DUP2 MSTORE PUSH1 0x20 ADD PUSH32 0x417272796E000000000000000000000000000000000000000000000000000000 DUP2 MSTORE POP DUP2 MSTORE PUSH1 0x20 ADD PUSH1 0x40 MLOAD DUP1 PUSH1 0x40 ADD PUSH1 0x40 MSTORE DUP1 PUSH1 0x4 DUP2 MSTORE PUSH1 0x20 ADD PUSH32 0x4672657900000000000000000000000000000000000000000000000000000000 DUP2 MSTORE POP DUP2 MSTORE PUSH1 0x20 ADD PUSH1 0x40 MLOAD DUP1 PUSH1 0x40 ADD PUSH1 0x40 MSTORE DUP1 PUSH1 0x7 DUP2 MSTORE PUSH1 0x20 ADD PUSH32 0x4D6F726D6F6E7400000000000000000000000000000000000000000000000000 DUP2 MSTORE POP DUP2 MSTORE PUSH1 0x20 ADD PUSH1 0x40 MLOAD DUP1 PUSH1 0x40 ADD PUSH1 0x40 MSTORE DUP1 PUSH1 0x6 DUP2 MSTORE PUSH1 0x20 ADD PUSH32 0x5461726C65790000000000000000000000000000000000000000000000000000 DUP2 MSTORE POP DUP2 MSTORE PUSH1 0x20 ADD PUSH1 0x40 MLOAD DUP1 PUSH1 0x40 ADD PUSH1 0x40 MSTORE DUP1 PUSH1 0x5 DUP2 MSTORE PUSH1 0x20 ADD PUSH32 0x4461796E65000000000000000000000000000000000000000000000000000000 DUP2 MSTORE POP DUP2 MSTORE PUSH1 0x20 ADD PUSH1 0x40 MLOAD DUP1 PUSH1 0x40 ADD PUSH1 0x40 MSTORE DUP1 PUSH1 0x5 DUP2 MSTORE PUSH1 0x20 ADD PUSH32 0x556D626572000000000000000000000000000000000000000000000000000000 DUP2 MSTORE POP DUP2 MSTORE PUSH1 0x20 ADD PUSH1 0x40 MLOAD DUP1 PUSH1 0x40 ADD PUSH1 0x40 MSTORE DUP1 PUSH1 0x8 DUP2 MSTORE PUSH1 0x20 ADD PUSH32 0x56616C6572796F6E000000000000000000000000000000000000000000000000 DUP2 MSTORE POP DUP2 MSTORE PUSH1 0x20 ADD PUSH1 0x40 MLOAD DUP1 PUSH1 0x40 ADD PUSH1 0x40 MSTORE DUP1 PUSH1 0x8 DUP2 MSTORE PUSH1 0x20 ADD PUSH32 0x4D616E6465726C79000000000000000000000000000000000000000000000000 DUP2 MSTORE POP DUP2 MSTORE PUSH1 0x20 ADD PUSH1 0x40 MLOAD DUP1 PUSH1 0x40 ADD PUSH1 0x40 MSTORE DUP1 PUSH1 0x7 DUP2 MSTORE PUSH1 0x20 ADD PUSH32 0x436C6567616E6500000000000000000000000000000000000000000000000000 DUP2 MSTORE POP DUP2 MSTORE PUSH1 0x20 ADD PUSH1 0x40 MLOAD DUP1 PUSH1 0x40 ADD PUSH1 0x40 MSTORE DUP1 PUSH1 0x6 DUP2 MSTORE PUSH1 0x20 ADD PUSH32 0x476C6F7665720000000000000000000000000000000000000000000000000000 DUP2 MSTORE POP DUP2 MSTORE PUSH1 0x20 ADD PUSH1 0x40 MLOAD DUP1 PUSH1 0x40 ADD PUSH1 0x40 MSTORE DUP1 PUSH1 0x8 DUP2 MSTORE PUSH1 0x20 ADD PUSH32 0x4B6172737461726B000000000000000000000000000000000000000000000000 DUP2 MSTORE POP DUP2 MSTORE POP SWAP1 POP DUP1 PUSH1 0x1 DUP5 PUSH2 0xB23 SWAP2 SWAP1 PUSH2 0x123C JUMP JUMPDEST PUSH1 0x14 DUP2 LT PUSH2 0xB34 JUMPI PUSH2 0xB33 PUSH2 0x1128 JUMP JUMPDEST JUMPDEST PUSH1 0x20 MUL ADD MLOAD SWAP2 POP POP SWAP2 SWAP1 POP JUMP JUMPDEST PUSH1 0x0 PUSH1 0x40 MLOAD SWAP1 POP SWAP1 JUMP JUMPDEST PUSH1 0x0 DUP1 REVERT JUMPDEST PUSH1 0x0 DUP1 REVERT JUMPDEST PUSH1 0x0 DUP2 SWAP1 POP SWAP2 SWAP1 POP JUMP JUMPDEST PUSH2 0xB68 DUP2 PUSH2 0xB55 JUMP JUMPDEST DUP2 EQ PUSH2 0xB73 JUMPI PUSH1 0x0 DUP1 REVERT JUMPDEST POP JUMP JUMPDEST PUSH1 0x0 DUP2 CALLDATALOAD SWAP1 POP PUSH2 0xB85 DUP2 PUSH2 0xB5F JUMP JUMPDEST SWAP3 SWAP2 POP POP JUMP JUMPDEST PUSH1 0x0 DUP1 REVERT JUMPDEST PUSH1 0x0 PUSH1 0x1F NOT PUSH1 0x1F DUP4 ADD AND SWAP1 POP SWAP2 SWAP1 POP JUMP JUMPDEST PUSH32 0x4E487B7100000000000000000000000000000000000000000000000000000000 PUSH1 0x0 MSTORE PUSH1 0x41 PUSH1 0x4 MSTORE PUSH1 0x24 PUSH1 0x0 REVERT JUMPDEST PUSH2 0xBD9 DUP3 PUSH2 0xB90 JUMP JUMPDEST DUP2 ADD DUP2 DUP2 LT PUSH8 0xFFFFFFFFFFFFFFFF DUP3 GT OR ISZERO PUSH2 0xBF8 JUMPI PUSH2 0xBF7 PUSH2 0xBA1 JUMP JUMPDEST JUMPDEST DUP1 PUSH1 0x40 MSTORE POP POP POP JUMP JUMPDEST PUSH1 0x0 PUSH2 0xC0B PUSH2 0xB41 JUMP JUMPDEST SWAP1 POP PUSH2 0xC17 DUP3 DUP3 PUSH2 0xBD0 JUMP JUMPDEST SWAP2 SWAP1 POP JUMP JUMPDEST PUSH1 0x0 PUSH8 0xFFFFFFFFFFFFFFFF DUP3 GT ISZERO PUSH2 0xC37 JUMPI PUSH2 0xC36 PUSH2 0xBA1 JUMP JUMPDEST JUMPDEST PUSH1 0x20 DUP3 MUL SWAP1 POP PUSH1 0x20 DUP2 ADD SWAP1 POP SWAP2 SWAP1 POP JUMP JUMPDEST PUSH1 0x0 DUP1 REVERT JUMPDEST PUSH1 0x0 PUSH2 0xC60 PUSH2 0xC5B DUP5 PUSH2 0xC1C JUMP JUMPDEST PUSH2 0xC01 JUMP JUMPDEST SWAP1 POP DUP1 DUP4 DUP3 MSTORE PUSH1 0x20 DUP3 ADD SWAP1 POP PUSH1 0x20 DUP5 MUL DUP4 ADD DUP6 DUP2 GT ISZERO PUSH2 0xC83 JUMPI PUSH2 0xC82 PUSH2 0xC48 JUMP JUMPDEST JUMPDEST DUP4 JUMPDEST DUP2 DUP2 LT ISZERO PUSH2 0xCAC JUMPI DUP1 PUSH2 0xC98 DUP9 DUP3 PUSH2 0xB76 JUMP JUMPDEST DUP5 MSTORE PUSH1 0x20 DUP5 ADD SWAP4 POP POP PUSH1 0x20 DUP2 ADD SWAP1 POP PUSH2 0xC85 JUMP JUMPDEST POP POP POP SWAP4 SWAP3 POP POP POP JUMP JUMPDEST PUSH1 0x0 DUP3 PUSH1 0x1F DUP4 ADD SLT PUSH2 0xCCB JUMPI PUSH2 0xCCA PUSH2 0xB8B JUMP JUMPDEST JUMPDEST DUP2 CALLDATALOAD PUSH2 0xCDB DUP5 DUP3 PUSH1 0x20 DUP7 ADD PUSH2 0xC4D JUMP JUMPDEST SWAP2 POP POP SWAP3 SWAP2 POP POP JUMP JUMPDEST PUSH1 0x0 DUP1 PUSH1 0x40 DUP4 DUP6 SUB SLT ISZERO PUSH2 0xCFB JUMPI PUSH2 0xCFA PUSH2 0xB4B JUMP JUMPDEST JUMPDEST PUSH1 0x0 PUSH2 0xD09 DUP6 DUP3 DUP7 ADD PUSH2 0xB76 JUMP JUMPDEST SWAP3 POP POP PUSH1 0x20 DUP4 ADD CALLDATALOAD PUSH8 0xFFFFFFFFFFFFFFFF DUP2 GT ISZERO PUSH2 0xD2A JUMPI PUSH2 0xD29 PUSH2 0xB50 JUMP JUMPDEST JUMPDEST PUSH2 0xD36 DUP6 DUP3 DUP7 ADD PUSH2 0xCB6 JUMP JUMPDEST SWAP2 POP POP SWAP3 POP SWAP3 SWAP1 POP JUMP JUMPDEST PUSH1 0x0 PUSH20 0xFFFFFFFFFFFFFFFFFFFFFFFFFFFFFFFFFFFFFFFF DUP3 AND SWAP1 POP SWAP2 SWAP1 POP JUMP JUMPDEST PUSH1 0x0 PUSH2 0xD6B DUP3 PUSH2 0xD40 JUMP JUMPDEST SWAP1 POP SWAP2 SWAP1 POP JUMP JUMPDEST PUSH2 0xD7B DUP2 PUSH2 0xD60 JUMP JUMPDEST DUP2 EQ PUSH2 0xD86 JUMPI PUSH1 0x0 DUP1 REVERT JUMPDEST POP JUMP JUMPDEST PUSH1 0x0 DUP2 CALLDATALOAD SWAP1 POP PUSH2 0xD98 DUP2 PUSH2 0xD72 JUMP JUMPDEST SWAP3 SWAP2 POP POP JUMP JUMPDEST PUSH1 0x0 PUSH1 0x20 DUP3 DUP5 SUB SLT ISZERO PUSH2 0xDB4 JUMPI PUSH2 0xDB3 PUSH2 0xB4B JUMP JUMPDEST JUMPDEST PUSH1 0x0 PUSH2 0xDC2 DUP5 DUP3 DUP6 ADD PUSH2 0xD89 JUMP JUMPDEST SWAP2 POP POP SWAP3 SWAP2 POP POP JUMP JUMPDEST PUSH1 0x0 DUP2 MLOAD SWAP1 POP SWAP2 SWAP1 POP JUMP JUMPDEST PUSH1 0x0 DUP3 DUP3 MSTORE PUSH1 0x20 DUP3 ADD SWAP1 POP SWAP3 SWAP2 POP POP JUMP JUMPDEST PUSH1 0x0 JUMPDEST DUP4 DUP2 LT ISZERO PUSH2 0xE05 JUMPI DUP1 DUP3 ADD MLOAD DUP2 DUP5 ADD MSTORE PUSH1 0x20 DUP2 ADD SWAP1 POP PUSH2 0xDEA JUMP JUMPDEST DUP4 DUP2 GT ISZERO PUSH2 0xE14 JUMPI PUSH1 0x0 DUP5 DUP5 ADD MSTORE JUMPDEST POP POP POP POP JUMP JUMPDEST PUSH1 0x0 PUSH2 0xE25 DUP3 PUSH2 0xDCB JUMP JUMPDEST PUSH2 0xE2F DUP2 DUP6 PUSH2 0xDD6 JUMP JUMPDEST SWAP4 POP PUSH2 0xE3F DUP2 DUP6 PUSH1 0x20 DUP7 ADD PUSH2 0xDE7 JUMP JUMPDEST PUSH2 0xE48 DUP2 PUSH2 0xB90 JUMP JUMPDEST DUP5 ADD SWAP2 POP POP SWAP3 SWAP2 POP POP JUMP JUMPDEST PUSH1 0x0 PUSH1 0x20 DUP3 ADD SWAP1 POP DUP2 DUP2 SUB PUSH1 0x0 DUP4 ADD MSTORE PUSH2 0xE6D DUP2 DUP5 PUSH2 0xE1A JUMP JUMPDEST SWAP1 POP SWAP3 SWAP2 POP POP JUMP JUMPDEST PUSH2 0xE7E DUP2 PUSH2 0xB55 JUMP JUMPDEST DUP3 MSTORE POP POP JUMP JUMPDEST PUSH1 0x0 PUSH1 0x20 DUP3 ADD SWAP1 POP PUSH2 0xE99 PUSH1 0x0 DUP4 ADD DUP5 PUSH2 0xE75 JUMP JUMPDEST SWAP3 SWAP2 POP POP JUMP JUMPDEST PUSH2 0xEA8 DUP2 PUSH2 0xD60 JUMP JUMPDEST DUP3 MSTORE POP POP JUMP JUMPDEST PUSH1 0x0 PUSH1 0x40 DUP3 ADD SWAP1 POP PUSH2 0xEC3 PUSH1 0x0 DUP4 ADD DUP6 PUSH2 0xE9F JUMP JUMPDEST PUSH2 0xED0 PUSH1 0x20 DUP4 ADD DUP5 PUSH2 0xE9F JUMP JUMPDEST SWAP4 SWAP3 POP POP POP JUMP JUMPDEST PUSH32 0x44696365206E6F7420726F6C6C65640000000000000000000000000000000000 PUSH1 0x0 DUP3 ADD MSTORE POP JUMP JUMPDEST PUSH1 0x0 PUSH2 0xF0D PUSH1 0xF DUP4 PUSH2 0xDD6 JUMP JUMPDEST SWAP2 POP PUSH2 0xF18 DUP3 PUSH2 0xED7 JUMP JUMPDEST PUSH1 0x20 DUP3 ADD SWAP1 POP SWAP2 SWAP1 POP JUMP JUMPDEST PUSH1 0x0 PUSH1 0x20 DUP3 ADD SWAP1 POP DUP2 DUP2 SUB PUSH1 0x0 DUP4 ADD MSTORE PUSH2 0xF3C DUP2 PUSH2 0xF00 JUMP JUMPDEST SWAP1 POP SWAP2 SWAP1 POP JUMP JUMPDEST PUSH32 0x526F6C6C20696E2070726F677265737300000000000000000000000000000000 PUSH1 0x0 DUP3 ADD MSTORE POP JUMP JUMPDEST PUSH1 0x0 PUSH2 0xF79 PUSH1 0x10 DUP4 PUSH2 0xDD6 JUMP JUMPDEST SWAP2 POP PUSH2 0xF84 DUP3 PUSH2 0xF43 JUMP JUMPDEST PUSH1 0x20 DUP3 ADD SWAP1 POP SWAP2 SWAP1 POP JUMP JUMPDEST PUSH1 0x0 PUSH1 0x20 DUP3 ADD SWAP1 POP DUP2 DUP2 SUB PUSH1 0x0 DUP4 ADD MSTORE PUSH2 0xFA8 DUP2 PUSH2 0xF6C JUMP JUMPDEST SWAP1 POP SWAP2 SWAP1 POP JUMP JUMPDEST PUSH32 0x416C726561647920726F6C6C6564000000000000000000000000000000000000 PUSH1 0x0 DUP3 ADD MSTORE POP JUMP JUMPDEST PUSH1 0x0 PUSH2 0xFE5 PUSH1 0xE DUP4 PUSH2 0xDD6 JUMP JUMPDEST SWAP2 POP PUSH2 0xFF0 DUP3 PUSH2 0xFAF JUMP JUMPDEST PUSH1 0x20 DUP3 ADD SWAP1 POP SWAP2 SWAP1 POP JUMP JUMPDEST PUSH1 0x0 PUSH1 0x20 DUP3 ADD SWAP1 POP DUP2 DUP2 SUB PUSH1 0x0 DUP4 ADD MSTORE PUSH2 0x1014 DUP2 PUSH2 0xFD8 JUMP JUMPDEST SWAP1 POP SWAP2 SWAP1 POP JUMP JUMPDEST PUSH1 0x0 DUP2 SWAP1 POP SWAP2 SWAP1 POP JUMP JUMPDEST PUSH2 0x102E DUP2 PUSH2 0x101B JUMP JUMPDEST DUP3 MSTORE POP POP JUMP JUMPDEST PUSH1 0x0 PUSH8 0xFFFFFFFFFFFFFFFF DUP3 AND SWAP1 POP SWAP2 SWAP1 POP JUMP JUMPDEST PUSH2 0x1051 DUP2 PUSH2 0x1034 JUMP JUMPDEST DUP3 MSTORE POP POP JUMP JUMPDEST PUSH1 0x0 PUSH2 0xFFFF DUP3 AND SWAP1 POP SWAP2 SWAP1 POP JUMP JUMPDEST PUSH2 0x106E DUP2 PUSH2 0x1057 JUMP JUMPDEST DUP3 MSTORE POP POP JUMP JUMPDEST PUSH1 0x0 PUSH4 0xFFFFFFFF DUP3 AND SWAP1 POP SWAP2 SWAP1 POP JUMP JUMPDEST PUSH2 0x108D DUP2 PUSH2 0x1074 JUMP JUMPDEST DUP3 MSTORE POP POP JUMP JUMPDEST PUSH1 0x0 PUSH1 0xA0 DUP3 ADD SWAP1 POP PUSH2 0x10A8 PUSH1 0x0 DUP4 ADD DUP9 PUSH2 0x1025 JUMP JUMPDEST PUSH2 0x10B5 PUSH1 0x20 DUP4 ADD DUP8 PUSH2 0x1048 JUMP JUMPDEST PUSH2 0x10C2 PUSH1 0x40 DUP4 ADD DUP7 PUSH2 0x1065 JUMP JUMPDEST PUSH2 0x10CF PUSH1 0x60 DUP4 ADD DUP6 PUSH2 0x1084 JUMP JUMPDEST PUSH2 0x10DC PUSH1 0x80 DUP4 ADD DUP5 PUSH2 0x1084 JUMP JUMPDEST SWAP7 SWAP6 POP POP POP POP POP POP JUMP JUMPDEST PUSH1 0x0 DUP2 MLOAD SWAP1 POP PUSH2 0x10F5 DUP2 PUSH2 0xB5F JUMP JUMPDEST SWAP3 SWAP2 POP POP JUMP JUMPDEST PUSH1 0x0 PUSH1 0x20 DUP3 DUP5 SUB SLT ISZERO PUSH2 0x1111 JUMPI PUSH2 0x1110 PUSH2 0xB4B JUMP JUMPDEST JUMPDEST PUSH1 0x0 PUSH2 0x111F DUP5 DUP3 DUP6 ADD PUSH2 0x10E6 JUMP JUMPDEST SWAP2 POP POP SWAP3 SWAP2 POP POP JUMP JUMPDEST PUSH32 0x4E487B7100000000000000000000000000000000000000000000000000000000 PUSH1 0x0 MSTORE PUSH1 0x32 PUSH1 0x4 MSTORE PUSH1 0x24 PUSH1 0x0 REVERT JUMPDEST PUSH32 0x4E487B7100000000000000000000000000000000000000000000000000000000 PUSH1 0x0 MSTORE PUSH1 0x12 PUSH1 0x4 MSTORE PUSH1 0x24 PUSH1 0x0 REVERT JUMPDEST PUSH1 0x0 PUSH2 0x1191 DUP3 PUSH2 0xB55 JUMP JUMPDEST SWAP2 POP PUSH2 0x119C DUP4 PUSH2 0xB55 JUMP JUMPDEST SWAP3 POP DUP3 PUSH2 0x11AC JUMPI PUSH2 0x11AB PUSH2 0x1157 JUMP JUMPDEST JUMPDEST DUP3 DUP3 MOD SWAP1 POP SWAP3 SWAP2 POP POP JUMP JUMPDEST PUSH32 0x4E487B7100000000000000000000000000000000000000000000000000000000 PUSH1 0x0 MSTORE PUSH1 0x11 PUSH1 0x4 MSTORE PUSH1 0x24 PUSH1 0x0 REVERT JUMPDEST PUSH1 0x0 PUSH2 0x11F1 DUP3 PUSH2 0xB55 JUMP JUMPDEST SWAP2 POP PUSH2 0x11FC DUP4 PUSH2 0xB55 JUMP JUMPDEST SWAP3 POP DUP3 PUSH32 0xFFFFFFFFFFFFFFFFFFFFFFFFFFFFFFFFFFFFFFFFFFFFFFFFFFFFFFFFFFFFFFFF SUB DUP3 GT ISZERO PUSH2 0x1231 JUMPI PUSH2 0x1230 PUSH2 0x11B7 JUMP JUMPDEST JUMPDEST DUP3 DUP3 ADD SWAP1 POP SWAP3 SWAP2 POP POP JUMP JUMPDEST PUSH1 0x0 PUSH2 0x1247 DUP3 PUSH2 0xB55 JUMP JUMPDEST SWAP2 POP PUSH2 0x1252 DUP4 PUSH2 0xB55 JUMP JUMPDEST SWAP3 POP DUP3 DUP3 LT ISZERO PUSH2 0x1265 JUMPI PUSH2 0x1264 PUSH2 0x11B7 JUMP JUMPDEST JUMPDEST DUP3 DUP3 SUB SWAP1 POP SWAP3 SWAP2 POP POP JUMP INVALID LOG2 PUSH5 0x6970667358 0x22 SLT KECCAK256 0xCC PUSH8 0xFFE78D846B59952 DUP10 SLT CALLVALUE SWAP6 0x29 MLOAD PUSH11 0x86BFEABA2394C499EE5C22 0x23 GAS MOD 0xD0 PUSH5 0x736F6C6343 STOP ADDMOD 0xF STOP CALLER "
				},
				"gasEstimates": {
					"creation": {
						"codeDepositCost": "954800",
						"executionCost": "infinite",
						"totalCost": "infinite"
					},
					"external": {
						"house(address)": "infinite",
						"rawFulfillRandomWords(uint256,uint256[])": "infinite",
						"rollDice(address)": "infinite"
					},
					"internal": {
						"fulfillRandomWords(uint256,uint256[] memory)": "infinite",
						"getHouseName(uint256)": "infinite"
					}
				},
				"methodIdentifiers": {
					"house(address)": "b1cad5e3",
					"rawFulfillRandomWords(uint256,uint256[])": "1fe543e3",
					"rollDice(address)": "dd02d9e5"
				}
			},
			"storageLayout": {
				"storage": [
					{
						"astId": 159,
						"contract": "ChainLink_learn/VRFD20.sol:VRFD20",
						"label": "COORDINATOR",
						"offset": 0,
						"slot": "0",
						"type": "t_contract(VRFCoordinatorV2Interface)146"
					},
					{
						"astId": 161,
						"contract": "ChainLink_learn/VRFD20.sol:VRFD20",
						"label": "s_subscriptionId",
						"offset": 20,
						"slot": "0",
						"type": "t_uint64"
					},
					{
						"astId": 164,
						"contract": "ChainLink_learn/VRFD20.sol:VRFD20",
						"label": "vrfCoordinator",
						"offset": 0,
						"slot": "1",
						"type": "t_address"
					},
					{
						"astId": 167,
						"contract": "ChainLink_learn/VRFD20.sol:VRFD20",
						"label": "s_keyHash",
						"offset": 0,
						"slot": "2",
						"type": "t_bytes32"
					},
					{
						"astId": 170,
						"contract": "ChainLink_learn/VRFD20.sol:VRFD20",
						"label": "callbackGasLimit",
						"offset": 0,
						"slot": "3",
						"type": "t_uint32"
					},
					{
						"astId": 173,
						"contract": "ChainLink_learn/VRFD20.sol:VRFD20",
						"label": "requestConfirmations",
						"offset": 4,
						"slot": "3",
						"type": "t_uint16"
					},
					{
						"astId": 176,
						"contract": "ChainLink_learn/VRFD20.sol:VRFD20",
						"label": "numWords",
						"offset": 6,
						"slot": "3",
						"type": "t_uint32"
					},
					{
						"astId": 178,
						"contract": "ChainLink_learn/VRFD20.sol:VRFD20",
						"label": "s_owner",
						"offset": 10,
						"slot": "3",
						"type": "t_address"
					},
					{
						"astId": 182,
						"contract": "ChainLink_learn/VRFD20.sol:VRFD20",
						"label": "s_rollers",
						"offset": 0,
						"slot": "4",
						"type": "t_mapping(t_uint256,t_address)"
					},
					{
						"astId": 186,
						"contract": "ChainLink_learn/VRFD20.sol:VRFD20",
						"label": "s_results",
						"offset": 0,
						"slot": "5",
						"type": "t_mapping(t_address,t_uint256)"
					}
				],
				"types": {
					"t_address": {
						"encoding": "inplace",
						"label": "address",
						"numberOfBytes": "20"
					},
					"t_bytes32": {
						"encoding": "inplace",
						"label": "bytes32",
						"numberOfBytes": "32"
					},
					"t_contract(VRFCoordinatorV2Interface)146": {
						"encoding": "inplace",
						"label": "contract VRFCoordinatorV2Interface",
						"numberOfBytes": "20"
					},
					"t_mapping(t_address,t_uint256)": {
						"encoding": "mapping",
						"key": "t_address",
						"label": "mapping(address => uint256)",
						"numberOfBytes": "32",
						"value": "t_uint256"
					},
					"t_mapping(t_uint256,t_address)": {
						"encoding": "mapping",
						"key": "t_uint256",
						"label": "mapping(uint256 => address)",
						"numberOfBytes": "32",
						"value": "t_address"
					},
					"t_uint16": {
						"encoding": "inplace",
						"label": "uint16",
						"numberOfBytes": "2"
					},
					"t_uint256": {
						"encoding": "inplace",
						"label": "uint256",
						"numberOfBytes": "32"
					},
					"t_uint32": {
						"encoding": "inplace",
						"label": "uint32",
						"numberOfBytes": "4"
					},
					"t_uint64": {
						"encoding": "inplace",
						"label": "uint64",
						"numberOfBytes": "8"
					}
				}
			},
			"userdoc": {
				"kind": "user",
				"methods": {
					"constructor": {
						"notice": "Constructor inherits VRFConsumerBaseV2"
					},
					"house(address)": {
						"notice": "Get the house assigned to the player once the address has rolled"
					},
					"rollDice(address)": {
						"notice": "Requests randomness"
					}
				},
				"notice": "A Chainlink VRF consumer which uses randomness to mimic the rolling of a 20 sided dice",
				"version": 1
			}
		}
	}
}