{
	"ChainLink_learn/HelloWorld.sol": {
		"HelloWorld": {
			"abi": [
				{
					"inputs": [
						{
							"internalType": "string",
							"name": "initialMessage",
							"type": "string"
						}
					],
					"stateMutability": "nonpayable",
					"type": "constructor"
				},
				{
					"inputs": [],
					"name": "message",
					"outputs": [
						{
							"internalType": "string",
							"name": "",
							"type": "string"
						}
					],
					"stateMutability": "view",
					"type": "function"
				},
				{
					"inputs": [
						{
							"internalType": "string",
							"name": "newMessage",
							"type": "string"
						}
					],
					"name": "updateMessage",
					"outputs": [],
					"stateMutability": "nonpayable",
					"type": "function"
				}
			],
			"devdoc": {
				"kind": "dev",
				"methods": {},
				"version": 1
			},
			"evm": {
				"assembly": "    /* \"ChainLink_learn/HelloWorld.sol\":56:273  contract HelloWorld {... */\n  mstore(0x40, 0x80)\n    /* \"ChainLink_learn/HelloWorld.sol\":110:193  constructor(string memory initialMessage) {... */\n  callvalue\n  dup1\n  iszero\n  tag_1\n  jumpi\n  0x00\n  dup1\n  revert\ntag_1:\n  pop\n  mload(0x40)\n  sub(codesize, bytecodeSize)\n  dup1\n  bytecodeSize\n  dup4\n  codecopy\n  dup2\n  dup2\n  add\n  0x40\n  mstore\n  dup2\n  add\n  swap1\n  tag_2\n  swap2\n  swap1\n  tag_3\n  jump\t// in\ntag_2:\n    /* \"ChainLink_learn/HelloWorld.sol\":172:186  initialMessage */\n  dup1\n    /* \"ChainLink_learn/HelloWorld.sol\":162:169  message */\n  0x00\n    /* \"ChainLink_learn/HelloWorld.sol\":162:186  message = initialMessage */\n  swap1\n  dup2\n  tag_6\n  swap2\n  swap1\n  tag_7\n  jump\t// in\ntag_6:\n  pop\n    /* \"ChainLink_learn/HelloWorld.sol\":110:193  constructor(string memory initialMessage) {... */\n  pop\n    /* \"ChainLink_learn/HelloWorld.sol\":56:273  contract HelloWorld {... */\n  jump(tag_8)\n    /* \"#utility.yul\":7:82   */\ntag_9:\n    /* \"#utility.yul\":40:46   */\n  0x00\n    /* \"#utility.yul\":73:75   */\n  0x40\n    /* \"#utility.yul\":67:76   */\n  mload\n    /* \"#utility.yul\":57:76   */\n  swap1\n  pop\n    /* \"#utility.yul\":7:82   */\n  swap1\n  jump\t// out\n    /* \"#utility.yul\":88:205   */\ntag_10:\n    /* \"#utility.yul\":197:198   */\n  0x00\n    /* \"#utility.yul\":194:195   */\n  dup1\n    /* \"#utility.yul\":187:199   */\n  revert\n    /* \"#utility.yul\":211:328   */\ntag_11:\n    /* \"#utility.yul\":320:321   */\n  0x00\n    /* \"#utility.yul\":317:318   */\n  dup1\n    /* \"#utility.yul\":310:322   */\n  revert\n    /* \"#utility.yul\":334:451   */\ntag_12:\n    /* \"#utility.yul\":443:444   */\n  0x00\n    /* \"#utility.yul\":440:441   */\n  dup1\n    /* \"#utility.yul\":433:445   */\n  revert\n    /* \"#utility.yul\":457:574   */\ntag_13:\n    /* \"#utility.yul\":566:567   */\n  0x00\n    /* \"#utility.yul\":563:564   */\n  dup1\n    /* \"#utility.yul\":556:568   */\n  revert\n    /* \"#utility.yul\":580:682   */\ntag_14:\n    /* \"#utility.yul\":621:627   */\n  0x00\n    /* \"#utility.yul\":672:674   */\n  0x1f\n    /* \"#utility.yul\":668:675   */\n  not\n    /* \"#utility.yul\":663:665   */\n  0x1f\n    /* \"#utility.yul\":656:661   */\n  dup4\n    /* \"#utility.yul\":652:666   */\n  add\n    /* \"#utility.yul\":648:676   */\n  and\n    /* \"#utility.yul\":638:676   */\n  swap1\n  pop\n    /* \"#utility.yul\":580:682   */\n  swap2\n  swap1\n  pop\n  jump\t// out\n    /* \"#utility.yul\":688:868   */\ntag_15:\n    /* \"#utility.yul\":736:813   */\n  0x4e487b7100000000000000000000000000000000000000000000000000000000\n    /* \"#utility.yul\":733:734   */\n  0x00\n    /* \"#utility.yul\":726:814   */\n  mstore\n    /* \"#utility.yul\":833:837   */\n  0x41\n    /* \"#utility.yul\":830:831   */\n  0x04\n    /* \"#utility.yul\":823:838   */\n  mstore\n    /* \"#utility.yul\":857:861   */\n  0x24\n    /* \"#utility.yul\":854:855   */\n  0x00\n    /* \"#utility.yul\":847:862   */\n  revert\n    /* \"#utility.yul\":874:1155   */\ntag_16:\n    /* \"#utility.yul\":957:984   */\n  tag_50\n    /* \"#utility.yul\":979:983   */\n  dup3\n    /* \"#utility.yul\":957:984   */\n  tag_14\n  jump\t// in\ntag_50:\n    /* \"#utility.yul\":949:955   */\n  dup2\n    /* \"#utility.yul\":945:985   */\n  add\n    /* \"#utility.yul\":1087:1093   */\n  dup2\n    /* \"#utility.yul\":1075:1085   */\n  dup2\n    /* \"#utility.yul\":1072:1094   */\n  lt\n    /* \"#utility.yul\":1051:1069   */\n  0xffffffffffffffff\n    /* \"#utility.yul\":1039:1049   */\n  dup3\n    /* \"#utility.yul\":1036:1070   */\n  gt\n    /* \"#utility.yul\":1033:1095   */\n  or\n    /* \"#utility.yul\":1030:1118   */\n  iszero\n  tag_51\n  jumpi\n    /* \"#utility.yul\":1098:1116   */\n  tag_52\n  tag_15\n  jump\t// in\ntag_52:\n    /* \"#utility.yul\":1030:1118   */\ntag_51:\n    /* \"#utility.yul\":1138:1148   */\n  dup1\n    /* \"#utility.yul\":1134:1136   */\n  0x40\n    /* \"#utility.yul\":1127:1149   */\n  mstore\n    /* \"#utility.yul\":917:1155   */\n  pop\n    /* \"#utility.yul\":874:1155   */\n  pop\n  pop\n  jump\t// out\n    /* \"#utility.yul\":1161:1290   */\ntag_17:\n    /* \"#utility.yul\":1195:1201   */\n  0x00\n    /* \"#utility.yul\":1222:1242   */\n  tag_54\n  tag_9\n  jump\t// in\ntag_54:\n    /* \"#utility.yul\":1212:1242   */\n  swap1\n  pop\n    /* \"#utility.yul\":1251:1284   */\n  tag_55\n    /* \"#utility.yul\":1279:1283   */\n  dup3\n    /* \"#utility.yul\":1271:1277   */\n  dup3\n    /* \"#utility.yul\":1251:1284   */\n  tag_16\n  jump\t// in\ntag_55:\n    /* \"#utility.yul\":1161:1290   */\n  swap2\n  swap1\n  pop\n  jump\t// out\n    /* \"#utility.yul\":1296:1604   */\ntag_18:\n    /* \"#utility.yul\":1358:1362   */\n  0x00\n    /* \"#utility.yul\":1448:1466   */\n  0xffffffffffffffff\n    /* \"#utility.yul\":1440:1446   */\n  dup3\n    /* \"#utility.yul\":1437:1467   */\n  gt\n    /* \"#utility.yul\":1434:1490   */\n  iszero\n  tag_57\n  jumpi\n    /* \"#utility.yul\":1470:1488   */\n  tag_58\n  tag_15\n  jump\t// in\ntag_58:\n    /* \"#utility.yul\":1434:1490   */\ntag_57:\n    /* \"#utility.yul\":1508:1537   */\n  tag_59\n    /* \"#utility.yul\":1530:1536   */\n  dup3\n    /* \"#utility.yul\":1508:1537   */\n  tag_14\n  jump\t// in\ntag_59:\n    /* \"#utility.yul\":1500:1537   */\n  swap1\n  pop\n    /* \"#utility.yul\":1592:1596   */\n  0x20\n    /* \"#utility.yul\":1586:1590   */\n  dup2\n    /* \"#utility.yul\":1582:1597   */\n  add\n    /* \"#utility.yul\":1574:1597   */\n  swap1\n  pop\n    /* \"#utility.yul\":1296:1604   */\n  swap2\n  swap1\n  pop\n  jump\t// out\n    /* \"#utility.yul\":1610:1917   */\ntag_19:\n    /* \"#utility.yul\":1678:1679   */\n  0x00\n    /* \"#utility.yul\":1688:1801   */\ntag_61:\n    /* \"#utility.yul\":1702:1708   */\n  dup4\n    /* \"#utility.yul\":1699:1700   */\n  dup2\n    /* \"#utility.yul\":1696:1709   */\n  lt\n    /* \"#utility.yul\":1688:1801   */\n  iszero\n  tag_63\n  jumpi\n    /* \"#utility.yul\":1787:1788   */\n  dup1\n    /* \"#utility.yul\":1782:1785   */\n  dup3\n    /* \"#utility.yul\":1778:1789   */\n  add\n    /* \"#utility.yul\":1772:1790   */\n  mload\n    /* \"#utility.yul\":1768:1769   */\n  dup2\n    /* \"#utility.yul\":1763:1766   */\n  dup5\n    /* \"#utility.yul\":1759:1770   */\n  add\n    /* \"#utility.yul\":1752:1791   */\n  mstore\n    /* \"#utility.yul\":1724:1726   */\n  0x20\n    /* \"#utility.yul\":1721:1722   */\n  dup2\n    /* \"#utility.yul\":1717:1727   */\n  add\n    /* \"#utility.yul\":1712:1727   */\n  swap1\n  pop\n    /* \"#utility.yul\":1688:1801   */\n  jump(tag_61)\ntag_63:\n    /* \"#utility.yul\":1819:1825   */\n  dup4\n    /* \"#utility.yul\":1816:1817   */\n  dup2\n    /* \"#utility.yul\":1813:1826   */\n  gt\n    /* \"#utility.yul\":1810:1911   */\n  iszero\n  tag_64\n  jumpi\n    /* \"#utility.yul\":1899:1900   */\n  0x00\n    /* \"#utility.yul\":1890:1896   */\n  dup5\n    /* \"#utility.yul\":1885:1888   */\n  dup5\n    /* \"#utility.yul\":1881:1897   */\n  add\n    /* \"#utility.yul\":1874:1901   */\n  mstore\n    /* \"#utility.yul\":1810:1911   */\ntag_64:\n    /* \"#utility.yul\":1659:1917   */\n  pop\n    /* \"#utility.yul\":1610:1917   */\n  pop\n  pop\n  pop\n  jump\t// out\n    /* \"#utility.yul\":1923:2344   */\ntag_20:\n    /* \"#utility.yul\":2012:2017   */\n  0x00\n    /* \"#utility.yul\":2037:2103   */\n  tag_66\n    /* \"#utility.yul\":2053:2102   */\n  tag_67\n    /* \"#utility.yul\":2095:2101   */\n  dup5\n    /* \"#utility.yul\":2053:2102   */\n  tag_18\n  jump\t// in\ntag_67:\n    /* \"#utility.yul\":2037:2103   */\n  tag_17\n  jump\t// in\ntag_66:\n    /* \"#utility.yul\":2028:2103   */\n  swap1\n  pop\n    /* \"#utility.yul\":2126:2132   */\n  dup3\n    /* \"#utility.yul\":2119:2124   */\n  dup2\n    /* \"#utility.yul\":2112:2133   */\n  mstore\n    /* \"#utility.yul\":2164:2168   */\n  0x20\n    /* \"#utility.yul\":2157:2162   */\n  dup2\n    /* \"#utility.yul\":2153:2169   */\n  add\n    /* \"#utility.yul\":2202:2205   */\n  dup5\n    /* \"#utility.yul\":2193:2199   */\n  dup5\n    /* \"#utility.yul\":2188:2191   */\n  dup5\n    /* \"#utility.yul\":2184:2200   */\n  add\n    /* \"#utility.yul\":2181:2206   */\n  gt\n    /* \"#utility.yul\":2178:2290   */\n  iszero\n  tag_68\n  jumpi\n    /* \"#utility.yul\":2209:2288   */\n  tag_69\n  tag_13\n  jump\t// in\ntag_69:\n    /* \"#utility.yul\":2178:2290   */\ntag_68:\n    /* \"#utility.yul\":2299:2338   */\n  tag_70\n    /* \"#utility.yul\":2331:2337   */\n  dup5\n    /* \"#utility.yul\":2326:2329   */\n  dup3\n    /* \"#utility.yul\":2321:2324   */\n  dup6\n    /* \"#utility.yul\":2299:2338   */\n  tag_19\n  jump\t// in\ntag_70:\n    /* \"#utility.yul\":2018:2344   */\n  pop\n    /* \"#utility.yul\":1923:2344   */\n  swap4\n  swap3\n  pop\n  pop\n  pop\n  jump\t// out\n    /* \"#utility.yul\":2364:2719   */\ntag_21:\n    /* \"#utility.yul\":2431:2436   */\n  0x00\n    /* \"#utility.yul\":2480:2483   */\n  dup3\n    /* \"#utility.yul\":2473:2477   */\n  0x1f\n    /* \"#utility.yul\":2465:2471   */\n  dup4\n    /* \"#utility.yul\":2461:2478   */\n  add\n    /* \"#utility.yul\":2457:2484   */\n  slt\n    /* \"#utility.yul\":2447:2569   */\n  tag_72\n  jumpi\n    /* \"#utility.yul\":2488:2567   */\n  tag_73\n  tag_12\n  jump\t// in\ntag_73:\n    /* \"#utility.yul\":2447:2569   */\ntag_72:\n    /* \"#utility.yul\":2598:2604   */\n  dup2\n    /* \"#utility.yul\":2592:2605   */\n  mload\n    /* \"#utility.yul\":2623:2713   */\n  tag_74\n    /* \"#utility.yul\":2709:2712   */\n  dup5\n    /* \"#utility.yul\":2701:2707   */\n  dup3\n    /* \"#utility.yul\":2694:2698   */\n  0x20\n    /* \"#utility.yul\":2686:2692   */\n  dup7\n    /* \"#utility.yul\":2682:2699   */\n  add\n    /* \"#utility.yul\":2623:2713   */\n  tag_20\n  jump\t// in\ntag_74:\n    /* \"#utility.yul\":2614:2713   */\n  swap2\n  pop\n    /* \"#utility.yul\":2437:2719   */\n  pop\n    /* \"#utility.yul\":2364:2719   */\n  swap3\n  swap2\n  pop\n  pop\n  jump\t// out\n    /* \"#utility.yul\":2725:3249   */\ntag_3:\n    /* \"#utility.yul\":2805:2811   */\n  0x00\n    /* \"#utility.yul\":2854:2856   */\n  0x20\n    /* \"#utility.yul\":2842:2851   */\n  dup3\n    /* \"#utility.yul\":2833:2840   */\n  dup5\n    /* \"#utility.yul\":2829:2852   */\n  sub\n    /* \"#utility.yul\":2825:2857   */\n  slt\n    /* \"#utility.yul\":2822:2941   */\n  iszero\n  tag_76\n  jumpi\n    /* \"#utility.yul\":2860:2939   */\n  tag_77\n  tag_10\n  jump\t// in\ntag_77:\n    /* \"#utility.yul\":2822:2941   */\ntag_76:\n    /* \"#utility.yul\":3001:3002   */\n  0x00\n    /* \"#utility.yul\":2990:2999   */\n  dup3\n    /* \"#utility.yul\":2986:3003   */\n  add\n    /* \"#utility.yul\":2980:3004   */\n  mload\n    /* \"#utility.yul\":3031:3049   */\n  0xffffffffffffffff\n    /* \"#utility.yul\":3023:3029   */\n  dup2\n    /* \"#utility.yul\":3020:3050   */\n  gt\n    /* \"#utility.yul\":3017:3134   */\n  iszero\n  tag_78\n  jumpi\n    /* \"#utility.yul\":3053:3132   */\n  tag_79\n  tag_11\n  jump\t// in\ntag_79:\n    /* \"#utility.yul\":3017:3134   */\ntag_78:\n    /* \"#utility.yul\":3158:3232   */\n  tag_80\n    /* \"#utility.yul\":3224:3231   */\n  dup5\n    /* \"#utility.yul\":3215:3221   */\n  dup3\n    /* \"#utility.yul\":3204:3213   */\n  dup6\n    /* \"#utility.yul\":3200:3222   */\n  add\n    /* \"#utility.yul\":3158:3232   */\n  tag_21\n  jump\t// in\ntag_80:\n    /* \"#utility.yul\":3148:3232   */\n  swap2\n  pop\n    /* \"#utility.yul\":2951:3242   */\n  pop\n    /* \"#utility.yul\":2725:3249   */\n  swap3\n  swap2\n  pop\n  pop\n  jump\t// out\n    /* \"#utility.yul\":3255:3354   */\ntag_22:\n    /* \"#utility.yul\":3307:3313   */\n  0x00\n    /* \"#utility.yul\":3341:3346   */\n  dup2\n    /* \"#utility.yul\":3335:3347   */\n  mload\n    /* \"#utility.yul\":3325:3347   */\n  swap1\n  pop\n    /* \"#utility.yul\":3255:3354   */\n  swap2\n  swap1\n  pop\n  jump\t// out\n    /* \"#utility.yul\":3360:3540   */\ntag_23:\n    /* \"#utility.yul\":3408:3485   */\n  0x4e487b7100000000000000000000000000000000000000000000000000000000\n    /* \"#utility.yul\":3405:3406   */\n  0x00\n    /* \"#utility.yul\":3398:3486   */\n  mstore\n    /* \"#utility.yul\":3505:3509   */\n  0x22\n    /* \"#utility.yul\":3502:3503   */\n  0x04\n    /* \"#utility.yul\":3495:3510   */\n  mstore\n    /* \"#utility.yul\":3529:3533   */\n  0x24\n    /* \"#utility.yul\":3526:3527   */\n  0x00\n    /* \"#utility.yul\":3519:3534   */\n  revert\n    /* \"#utility.yul\":3546:3866   */\ntag_24:\n    /* \"#utility.yul\":3590:3596   */\n  0x00\n    /* \"#utility.yul\":3627:3628   */\n  0x02\n    /* \"#utility.yul\":3621:3625   */\n  dup3\n    /* \"#utility.yul\":3617:3629   */\n  div\n    /* \"#utility.yul\":3607:3629   */\n  swap1\n  pop\n    /* \"#utility.yul\":3674:3675   */\n  0x01\n    /* \"#utility.yul\":3668:3672   */\n  dup3\n    /* \"#utility.yul\":3664:3676   */\n  and\n    /* \"#utility.yul\":3695:3713   */\n  dup1\n    /* \"#utility.yul\":3685:3766   */\n  tag_84\n  jumpi\n    /* \"#utility.yul\":3751:3755   */\n  0x7f\n    /* \"#utility.yul\":3743:3749   */\n  dup3\n    /* \"#utility.yul\":3739:3756   */\n  and\n    /* \"#utility.yul\":3729:3756   */\n  swap2\n  pop\n    /* \"#utility.yul\":3685:3766   */\ntag_84:\n    /* \"#utility.yul\":3813:3815   */\n  0x20\n    /* \"#utility.yul\":3805:3811   */\n  dup3\n    /* \"#utility.yul\":3802:3816   */\n  lt\n    /* \"#utility.yul\":3782:3800   */\n  dup2\n    /* \"#utility.yul\":3779:3817   */\n  sub\n    /* \"#utility.yul\":3776:3860   */\n  tag_85\n  jumpi\n    /* \"#utility.yul\":3832:3850   */\n  tag_86\n  tag_23\n  jump\t// in\ntag_86:\n    /* \"#utility.yul\":3776:3860   */\ntag_85:\n    /* \"#utility.yul\":3597:3866   */\n  pop\n    /* \"#utility.yul\":3546:3866   */\n  swap2\n  swap1\n  pop\n  jump\t// out\n    /* \"#utility.yul\":3872:4013   */\ntag_25:\n    /* \"#utility.yul\":3921:3925   */\n  0x00\n    /* \"#utility.yul\":3944:3947   */\n  dup2\n    /* \"#utility.yul\":3936:3947   */\n  swap1\n  pop\n    /* \"#utility.yul\":3967:3970   */\n  dup2\n    /* \"#utility.yul\":3964:3965   */\n  0x00\n    /* \"#utility.yul\":3957:3971   */\n  mstore\n    /* \"#utility.yul\":4001:4005   */\n  0x20\n    /* \"#utility.yul\":3998:3999   */\n  0x00\n    /* \"#utility.yul\":3988:4006   */\n  keccak256\n    /* \"#utility.yul\":3980:4006   */\n  swap1\n  pop\n    /* \"#utility.yul\":3872:4013   */\n  swap2\n  swap1\n  pop\n  jump\t// out\n    /* \"#utility.yul\":4019:4112   */\ntag_26:\n    /* \"#utility.yul\":4056:4062   */\n  0x00\n    /* \"#utility.yul\":4103:4105   */\n  0x20\n    /* \"#utility.yul\":4098:4100   */\n  0x1f\n    /* \"#utility.yul\":4091:4096   */\n  dup4\n    /* \"#utility.yul\":4087:4101   */\n  add\n    /* \"#utility.yul\":4083:4106   */\n  div\n    /* \"#utility.yul\":4073:4106   */\n  swap1\n  pop\n    /* \"#utility.yul\":4019:4112   */\n  swap2\n  swap1\n  pop\n  jump\t// out\n    /* \"#utility.yul\":4118:4225   */\ntag_27:\n    /* \"#utility.yul\":4162:4170   */\n  0x00\n    /* \"#utility.yul\":4212:4217   */\n  dup3\n    /* \"#utility.yul\":4206:4210   */\n  dup3\n    /* \"#utility.yul\":4202:4218   */\n  shl\n    /* \"#utility.yul\":4181:4218   */\n  swap1\n  pop\n    /* \"#utility.yul\":4118:4225   */\n  swap3\n  swap2\n  pop\n  pop\n  jump\t// out\n    /* \"#utility.yul\":4231:4624   */\ntag_28:\n    /* \"#utility.yul\":4300:4306   */\n  0x00\n    /* \"#utility.yul\":4350:4351   */\n  0x08\n    /* \"#utility.yul\":4338:4348   */\n  dup4\n    /* \"#utility.yul\":4334:4352   */\n  mul\n    /* \"#utility.yul\":4373:4470   */\n  tag_91\n    /* \"#utility.yul\":4403:4469   */\n  0xffffffffffffffffffffffffffffffffffffffffffffffffffffffffffffffff\n    /* \"#utility.yul\":4392:4401   */\n  dup3\n    /* \"#utility.yul\":4373:4470   */\n  tag_27\n  jump\t// in\ntag_91:\n    /* \"#utility.yul\":4491:4530   */\n  tag_92\n    /* \"#utility.yul\":4521:4529   */\n  dup7\n    /* \"#utility.yul\":4510:4519   */\n  dup4\n    /* \"#utility.yul\":4491:4530   */\n  tag_27\n  jump\t// in\ntag_92:\n    /* \"#utility.yul\":4479:4530   */\n  swap6\n  pop\n    /* \"#utility.yul\":4563:4567   */\n  dup1\n    /* \"#utility.yul\":4559:4568   */\n  not\n    /* \"#utility.yul\":4552:4557   */\n  dup5\n    /* \"#utility.yul\":4548:4569   */\n  and\n    /* \"#utility.yul\":4539:4569   */\n  swap4\n  pop\n    /* \"#utility.yul\":4612:4616   */\n  dup1\n    /* \"#utility.yul\":4602:4610   */\n  dup7\n    /* \"#utility.yul\":4598:4617   */\n  and\n    /* \"#utility.yul\":4591:4596   */\n  dup5\n    /* \"#utility.yul\":4588:4618   */\n  or\n    /* \"#utility.yul\":4578:4618   */\n  swap3\n  pop\n    /* \"#utility.yul\":4307:4624   */\n  pop\n  pop\n    /* \"#utility.yul\":4231:4624   */\n  swap4\n  swap3\n  pop\n  pop\n  pop\n  jump\t// out\n    /* \"#utility.yul\":4630:4707   */\ntag_29:\n    /* \"#utility.yul\":4667:4674   */\n  0x00\n    /* \"#utility.yul\":4696:4701   */\n  dup2\n    /* \"#utility.yul\":4685:4701   */\n  swap1\n  pop\n    /* \"#utility.yul\":4630:4707   */\n  swap2\n  swap1\n  pop\n  jump\t// out\n    /* \"#utility.yul\":4713:4773   */\ntag_30:\n    /* \"#utility.yul\":4741:4744   */\n  0x00\n    /* \"#utility.yul\":4762:4767   */\n  dup2\n    /* \"#utility.yul\":4755:4767   */\n  swap1\n  pop\n    /* \"#utility.yul\":4713:4773   */\n  swap2\n  swap1\n  pop\n  jump\t// out\n    /* \"#utility.yul\":4779:4921   */\ntag_31:\n    /* \"#utility.yul\":4829:4838   */\n  0x00\n    /* \"#utility.yul\":4862:4915   */\n  tag_96\n    /* \"#utility.yul\":4880:4914   */\n  tag_97\n    /* \"#utility.yul\":4889:4913   */\n  tag_98\n    /* \"#utility.yul\":4907:4912   */\n  dup5\n    /* \"#utility.yul\":4889:4913   */\n  tag_29\n  jump\t// in\ntag_98:\n    /* \"#utility.yul\":4880:4914   */\n  tag_30\n  jump\t// in\ntag_97:\n    /* \"#utility.yul\":4862:4915   */\n  tag_29\n  jump\t// in\ntag_96:\n    /* \"#utility.yul\":4849:4915   */\n  swap1\n  pop\n    /* \"#utility.yul\":4779:4921   */\n  swap2\n  swap1\n  pop\n  jump\t// out\n    /* \"#utility.yul\":4927:5002   */\ntag_32:\n    /* \"#utility.yul\":4970:4973   */\n  0x00\n    /* \"#utility.yul\":4991:4996   */\n  dup2\n    /* \"#utility.yul\":4984:4996   */\n  swap1\n  pop\n    /* \"#utility.yul\":4927:5002   */\n  swap2\n  swap1\n  pop\n  jump\t// out\n    /* \"#utility.yul\":5008:5277   */\ntag_33:\n    /* \"#utility.yul\":5118:5157   */\n  tag_101\n    /* \"#utility.yul\":5149:5156   */\n  dup4\n    /* \"#utility.yul\":5118:5157   */\n  tag_31\n  jump\t// in\ntag_101:\n    /* \"#utility.yul\":5179:5270   */\n  tag_102\n    /* \"#utility.yul\":5228:5269   */\n  tag_103\n    /* \"#utility.yul\":5252:5268   */\n  dup3\n    /* \"#utility.yul\":5228:5269   */\n  tag_32\n  jump\t// in\ntag_103:\n    /* \"#utility.yul\":5220:5226   */\n  dup5\n    /* \"#utility.yul\":5213:5217   */\n  dup5\n    /* \"#utility.yul\":5207:5218   */\n  sload\n    /* \"#utility.yul\":5179:5270   */\n  tag_28\n  jump\t// in\ntag_102:\n    /* \"#utility.yul\":5173:5177   */\n  dup3\n    /* \"#utility.yul\":5166:5271   */\n  sstore\n    /* \"#utility.yul\":5084:5277   */\n  pop\n    /* \"#utility.yul\":5008:5277   */\n  pop\n  pop\n  pop\n  jump\t// out\n    /* \"#utility.yul\":5283:5356   */\ntag_34:\n    /* \"#utility.yul\":5328:5331   */\n  0x00\n    /* \"#utility.yul\":5283:5356   */\n  swap1\n  jump\t// out\n    /* \"#utility.yul\":5362:5551   */\ntag_35:\n    /* \"#utility.yul\":5439:5471   */\n  tag_106\n  tag_34\n  jump\t// in\ntag_106:\n    /* \"#utility.yul\":5480:5545   */\n  tag_107\n    /* \"#utility.yul\":5538:5544   */\n  dup2\n    /* \"#utility.yul\":5530:5536   */\n  dup5\n    /* \"#utility.yul\":5524:5528   */\n  dup5\n    /* \"#utility.yul\":5480:5545   */\n  tag_33\n  jump\t// in\ntag_107:\n    /* \"#utility.yul\":5415:5551   */\n  pop\n    /* \"#utility.yul\":5362:5551   */\n  pop\n  pop\n  jump\t// out\n    /* \"#utility.yul\":5557:5743   */\ntag_36:\n    /* \"#utility.yul\":5617:5737   */\ntag_109:\n    /* \"#utility.yul\":5634:5637   */\n  dup2\n    /* \"#utility.yul\":5627:5632   */\n  dup2\n    /* \"#utility.yul\":5624:5638   */\n  lt\n    /* \"#utility.yul\":5617:5737   */\n  iszero\n  tag_111\n  jumpi\n    /* \"#utility.yul\":5688:5727   */\n  tag_112\n    /* \"#utility.yul\":5725:5726   */\n  0x00\n    /* \"#utility.yul\":5718:5723   */\n  dup3\n    /* \"#utility.yul\":5688:5727   */\n  tag_35\n  jump\t// in\ntag_112:\n    /* \"#utility.yul\":5661:5662   */\n  0x01\n    /* \"#utility.yul\":5654:5659   */\n  dup2\n    /* \"#utility.yul\":5650:5663   */\n  add\n    /* \"#utility.yul\":5641:5663   */\n  swap1\n  pop\n    /* \"#utility.yul\":5617:5737   */\n  jump(tag_109)\ntag_111:\n    /* \"#utility.yul\":5557:5743   */\n  pop\n  pop\n  jump\t// out\n    /* \"#utility.yul\":5749:6292   */\ntag_37:\n    /* \"#utility.yul\":5850:5852   */\n  0x1f\n    /* \"#utility.yul\":5845:5848   */\n  dup3\n    /* \"#utility.yul\":5842:5853   */\n  gt\n    /* \"#utility.yul\":5839:6285   */\n  iszero\n  tag_114\n  jumpi\n    /* \"#utility.yul\":5884:5922   */\n  tag_115\n    /* \"#utility.yul\":5916:5921   */\n  dup2\n    /* \"#utility.yul\":5884:5922   */\n  tag_25\n  jump\t// in\ntag_115:\n    /* \"#utility.yul\":5968:5997   */\n  tag_116\n    /* \"#utility.yul\":5986:5996   */\n  dup5\n    /* \"#utility.yul\":5968:5997   */\n  tag_26\n  jump\t// in\ntag_116:\n    /* \"#utility.yul\":5958:5966   */\n  dup2\n    /* \"#utility.yul\":5954:5998   */\n  add\n    /* \"#utility.yul\":6151:6153   */\n  0x20\n    /* \"#utility.yul\":6139:6149   */\n  dup6\n    /* \"#utility.yul\":6136:6154   */\n  lt\n    /* \"#utility.yul\":6133:6182   */\n  iszero\n  tag_117\n  jumpi\n    /* \"#utility.yul\":6172:6180   */\n  dup2\n    /* \"#utility.yul\":6157:6180   */\n  swap1\n  pop\n    /* \"#utility.yul\":6133:6182   */\ntag_117:\n    /* \"#utility.yul\":6195:6275   */\n  tag_118\n    /* \"#utility.yul\":6251:6273   */\n  tag_119\n    /* \"#utility.yul\":6269:6272   */\n  dup6\n    /* \"#utility.yul\":6251:6273   */\n  tag_26\n  jump\t// in\ntag_119:\n    /* \"#utility.yul\":6241:6249   */\n  dup4\n    /* \"#utility.yul\":6237:6274   */\n  add\n    /* \"#utility.yul\":6224:6235   */\n  dup3\n    /* \"#utility.yul\":6195:6275   */\n  tag_36\n  jump\t// in\ntag_118:\n    /* \"#utility.yul\":5854:6285   */\n  pop\n  pop\n    /* \"#utility.yul\":5839:6285   */\ntag_114:\n    /* \"#utility.yul\":5749:6292   */\n  pop\n  pop\n  pop\n  jump\t// out\n    /* \"#utility.yul\":6298:6415   */\ntag_38:\n    /* \"#utility.yul\":6352:6360   */\n  0x00\n    /* \"#utility.yul\":6402:6407   */\n  dup3\n    /* \"#utility.yul\":6396:6400   */\n  dup3\n    /* \"#utility.yul\":6392:6408   */\n  shr\n    /* \"#utility.yul\":6371:6408   */\n  swap1\n  pop\n    /* \"#utility.yul\":6298:6415   */\n  swap3\n  swap2\n  pop\n  pop\n  jump\t// out\n    /* \"#utility.yul\":6421:6590   */\ntag_39:\n    /* \"#utility.yul\":6465:6471   */\n  0x00\n    /* \"#utility.yul\":6498:6549   */\n  tag_122\n    /* \"#utility.yul\":6546:6547   */\n  0x00\n    /* \"#utility.yul\":6542:6548   */\n  not\n    /* \"#utility.yul\":6534:6539   */\n  dup5\n    /* \"#utility.yul\":6531:6532   */\n  0x08\n    /* \"#utility.yul\":6527:6540   */\n  mul\n    /* \"#utility.yul\":6498:6549   */\n  tag_38\n  jump\t// in\ntag_122:\n    /* \"#utility.yul\":6494:6550   */\n  not\n    /* \"#utility.yul\":6579:6583   */\n  dup1\n    /* \"#utility.yul\":6573:6577   */\n  dup4\n    /* \"#utility.yul\":6569:6584   */\n  and\n    /* \"#utility.yul\":6559:6584   */\n  swap2\n  pop\n    /* \"#utility.yul\":6472:6590   */\n  pop\n    /* \"#utility.yul\":6421:6590   */\n  swap3\n  swap2\n  pop\n  pop\n  jump\t// out\n    /* \"#utility.yul\":6595:6890   */\ntag_40:\n    /* \"#utility.yul\":6671:6675   */\n  0x00\n    /* \"#utility.yul\":6817:6846   */\n  tag_124\n    /* \"#utility.yul\":6842:6845   */\n  dup4\n    /* \"#utility.yul\":6836:6840   */\n  dup4\n    /* \"#utility.yul\":6817:6846   */\n  tag_39\n  jump\t// in\ntag_124:\n    /* \"#utility.yul\":6809:6846   */\n  swap2\n  pop\n    /* \"#utility.yul\":6879:6882   */\n  dup3\n    /* \"#utility.yul\":6876:6877   */\n  0x02\n    /* \"#utility.yul\":6872:6883   */\n  mul\n    /* \"#utility.yul\":6866:6870   */\n  dup3\n    /* \"#utility.yul\":6863:6884   */\n  or\n    /* \"#utility.yul\":6855:6884   */\n  swap1\n  pop\n    /* \"#utility.yul\":6595:6890   */\n  swap3\n  swap2\n  pop\n  pop\n  jump\t// out\n    /* \"#utility.yul\":6895:8290   */\ntag_7:\n    /* \"#utility.yul\":7012:7049   */\n  tag_126\n    /* \"#utility.yul\":7045:7048   */\n  dup3\n    /* \"#utility.yul\":7012:7049   */\n  tag_22\n  jump\t// in\ntag_126:\n    /* \"#utility.yul\":7114:7132   */\n  0xffffffffffffffff\n    /* \"#utility.yul\":7106:7112   */\n  dup2\n    /* \"#utility.yul\":7103:7133   */\n  gt\n    /* \"#utility.yul\":7100:7156   */\n  iszero\n  tag_127\n  jumpi\n    /* \"#utility.yul\":7136:7154   */\n  tag_128\n  tag_15\n  jump\t// in\ntag_128:\n    /* \"#utility.yul\":7100:7156   */\ntag_127:\n    /* \"#utility.yul\":7180:7218   */\n  tag_129\n    /* \"#utility.yul\":7212:7216   */\n  dup3\n    /* \"#utility.yul\":7206:7217   */\n  sload\n    /* \"#utility.yul\":7180:7218   */\n  tag_24\n  jump\t// in\ntag_129:\n    /* \"#utility.yul\":7265:7332   */\n  tag_130\n    /* \"#utility.yul\":7325:7331   */\n  dup3\n    /* \"#utility.yul\":7317:7323   */\n  dup3\n    /* \"#utility.yul\":7311:7315   */\n  dup6\n    /* \"#utility.yul\":7265:7332   */\n  tag_37\n  jump\t// in\ntag_130:\n    /* \"#utility.yul\":7359:7360   */\n  0x00\n    /* \"#utility.yul\":7383:7387   */\n  0x20\n    /* \"#utility.yul\":7370:7387   */\n  swap1\n  pop\n    /* \"#utility.yul\":7415:7417   */\n  0x1f\n    /* \"#utility.yul\":7407:7413   */\n  dup4\n    /* \"#utility.yul\":7404:7418   */\n  gt\n    /* \"#utility.yul\":7432:7433   */\n  0x01\n    /* \"#utility.yul\":7427:8045   */\n  dup2\n  eq\n  tag_132\n  jumpi\n    /* \"#utility.yul\":8089:8090   */\n  0x00\n    /* \"#utility.yul\":8106:8112   */\n  dup5\n    /* \"#utility.yul\":8103:8180   */\n  iszero\n  tag_133\n  jumpi\n    /* \"#utility.yul\":8155:8164   */\n  dup3\n    /* \"#utility.yul\":8150:8153   */\n  dup8\n    /* \"#utility.yul\":8146:8165   */\n  add\n    /* \"#utility.yul\":8140:8166   */\n  mload\n    /* \"#utility.yul\":8131:8166   */\n  swap1\n  pop\n    /* \"#utility.yul\":8103:8180   */\ntag_133:\n    /* \"#utility.yul\":8206:8273   */\n  tag_134\n    /* \"#utility.yul\":8266:8272   */\n  dup6\n    /* \"#utility.yul\":8259:8264   */\n  dup3\n    /* \"#utility.yul\":8206:8273   */\n  tag_40\n  jump\t// in\ntag_134:\n    /* \"#utility.yul\":8200:8204   */\n  dup7\n    /* \"#utility.yul\":8193:8274   */\n  sstore\n    /* \"#utility.yul\":8062:8284   */\n  pop\n    /* \"#utility.yul\":7397:8284   */\n  jump(tag_131)\n    /* \"#utility.yul\":7427:8045   */\ntag_132:\n    /* \"#utility.yul\":7479:7483   */\n  0x1f\n    /* \"#utility.yul\":7475:7484   */\n  not\n    /* \"#utility.yul\":7467:7473   */\n  dup5\n    /* \"#utility.yul\":7463:7485   */\n  and\n    /* \"#utility.yul\":7513:7550   */\n  tag_135\n    /* \"#utility.yul\":7545:7549   */\n  dup7\n    /* \"#utility.yul\":7513:7550   */\n  tag_25\n  jump\t// in\ntag_135:\n    /* \"#utility.yul\":7572:7573   */\n  0x00\n    /* \"#utility.yul\":7586:7794   */\ntag_136:\n    /* \"#utility.yul\":7600:7607   */\n  dup3\n    /* \"#utility.yul\":7597:7598   */\n  dup2\n    /* \"#utility.yul\":7594:7608   */\n  lt\n    /* \"#utility.yul\":7586:7794   */\n  iszero\n  tag_138\n  jumpi\n    /* \"#utility.yul\":7679:7688   */\n  dup5\n    /* \"#utility.yul\":7674:7677   */\n  dup10\n    /* \"#utility.yul\":7670:7689   */\n  add\n    /* \"#utility.yul\":7664:7690   */\n  mload\n    /* \"#utility.yul\":7656:7662   */\n  dup3\n    /* \"#utility.yul\":7649:7691   */\n  sstore\n    /* \"#utility.yul\":7730:7731   */\n  0x01\n    /* \"#utility.yul\":7722:7728   */\n  dup3\n    /* \"#utility.yul\":7718:7732   */\n  add\n    /* \"#utility.yul\":7708:7732   */\n  swap2\n  pop\n    /* \"#utility.yul\":7777:7779   */\n  0x20\n    /* \"#utility.yul\":7766:7775   */\n  dup6\n    /* \"#utility.yul\":7762:7780   */\n  add\n    /* \"#utility.yul\":7749:7780   */\n  swap5\n  pop\n    /* \"#utility.yul\":7623:7627   */\n  0x20\n    /* \"#utility.yul\":7620:7621   */\n  dup2\n    /* \"#utility.yul\":7616:7628   */\n  add\n    /* \"#utility.yul\":7611:7628   */\n  swap1\n  pop\n    /* \"#utility.yul\":7586:7794   */\n  jump(tag_136)\ntag_138:\n    /* \"#utility.yul\":7822:7828   */\n  dup7\n    /* \"#utility.yul\":7813:7820   */\n  dup4\n    /* \"#utility.yul\":7810:7829   */\n  lt\n    /* \"#utility.yul\":7807:7986   */\n  iszero\n  tag_139\n  jumpi\n    /* \"#utility.yul\":7880:7889   */\n  dup5\n    /* \"#utility.yul\":7875:7878   */\n  dup10\n    /* \"#utility.yul\":7871:7890   */\n  add\n    /* \"#utility.yul\":7865:7891   */\n  mload\n    /* \"#utility.yul\":7923:7971   */\n  tag_140\n    /* \"#utility.yul\":7965:7969   */\n  0x1f\n    /* \"#utility.yul\":7957:7963   */\n  dup10\n    /* \"#utility.yul\":7953:7970   */\n  and\n    /* \"#utility.yul\":7942:7951   */\n  dup3\n    /* \"#utility.yul\":7923:7971   */\n  tag_39\n  jump\t// in\ntag_140:\n    /* \"#utility.yul\":7915:7921   */\n  dup4\n    /* \"#utility.yul\":7908:7972   */\n  sstore\n    /* \"#utility.yul\":7830:7986   */\n  pop\n    /* \"#utility.yul\":7807:7986   */\ntag_139:\n    /* \"#utility.yul\":8032:8033   */\n  0x01\n    /* \"#utility.yul\":8028:8029   */\n  0x02\n    /* \"#utility.yul\":8020:8026   */\n  dup9\n    /* \"#utility.yul\":8016:8030   */\n  mul\n    /* \"#utility.yul\":8012:8034   */\n  add\n    /* \"#utility.yul\":8006:8010   */\n  dup9\n    /* \"#utility.yul\":7999:8035   */\n  sstore\n    /* \"#utility.yul\":7434:8045   */\n  pop\n  pop\n  pop\n    /* \"#utility.yul\":7397:8284   */\ntag_131:\n  pop\n    /* \"#utility.yul\":6987:8290   */\n  pop\n  pop\n  pop\n    /* \"#utility.yul\":6895:8290   */\n  pop\n  pop\n  jump\t// out\n    /* \"ChainLink_learn/HelloWorld.sol\":56:273  contract HelloWorld {... */\ntag_8:\n  dataSize(sub_0)\n  dup1\n  dataOffset(sub_0)\n  0x00\n  codecopy\n  0x00\n  return\nstop\n\nsub_0: assembly {\n        /* \"ChainLink_learn/HelloWorld.sol\":56:273  contract HelloWorld {... */\n      mstore(0x40, 0x80)\n      callvalue\n      dup1\n      iszero\n      tag_1\n      jumpi\n      0x00\n      dup1\n      revert\n    tag_1:\n      pop\n      jumpi(tag_2, lt(calldatasize, 0x04))\n      shr(0xe0, calldataload(0x00))\n      dup1\n      0x1923be24\n      eq\n      tag_3\n      jumpi\n      dup1\n      0xe21f37ce\n      eq\n      tag_4\n      jumpi\n    tag_2:\n      0x00\n      dup1\n      revert\n        /* \"ChainLink_learn/HelloWorld.sol\":199:271  function updateMessage(string memory newMessage) public {... */\n    tag_3:\n      tag_5\n      0x04\n      dup1\n      calldatasize\n      sub\n      dup2\n      add\n      swap1\n      tag_6\n      swap2\n      swap1\n      tag_7\n      jump\t// in\n    tag_6:\n      tag_8\n      jump\t// in\n    tag_5:\n      stop\n        /* \"ChainLink_learn/HelloWorld.sol\":82:103  string public message */\n    tag_4:\n      tag_9\n      tag_10\n      jump\t// in\n    tag_9:\n      mload(0x40)\n      tag_11\n      swap2\n      swap1\n      tag_12\n      jump\t// in\n    tag_11:\n      mload(0x40)\n      dup1\n      swap2\n      sub\n      swap1\n      return\n        /* \"ChainLink_learn/HelloWorld.sol\":199:271  function updateMessage(string memory newMessage) public {... */\n    tag_8:\n      pop\n      jump\t// out\n        /* \"ChainLink_learn/HelloWorld.sol\":82:103  string public message */\n    tag_10:\n      0x00\n      dup1\n      sload\n      tag_14\n      swap1\n      tag_15\n      jump\t// in\n    tag_14:\n      dup1\n      0x1f\n      add\n      0x20\n      dup1\n      swap2\n      div\n      mul\n      0x20\n      add\n      mload(0x40)\n      swap1\n      dup2\n      add\n      0x40\n      mstore\n      dup1\n      swap3\n      swap2\n      swap1\n      dup2\n      dup2\n      mstore\n      0x20\n      add\n      dup3\n      dup1\n      sload\n      tag_16\n      swap1\n      tag_15\n      jump\t// in\n    tag_16:\n      dup1\n      iszero\n      tag_17\n      jumpi\n      dup1\n      0x1f\n      lt\n      tag_18\n      jumpi\n      0x0100\n      dup1\n      dup4\n      sload\n      div\n      mul\n      dup4\n      mstore\n      swap2\n      0x20\n      add\n      swap2\n      jump(tag_17)\n    tag_18:\n      dup3\n      add\n      swap2\n      swap1\n      0x00\n      mstore\n      keccak256(0x00, 0x20)\n      swap1\n    tag_19:\n      dup2\n      sload\n      dup2\n      mstore\n      swap1\n      0x01\n      add\n      swap1\n      0x20\n      add\n      dup1\n      dup4\n      gt\n      tag_19\n      jumpi\n      dup3\n      swap1\n      sub\n      0x1f\n      and\n      dup3\n      add\n      swap2\n    tag_17:\n      pop\n      pop\n      pop\n      pop\n      pop\n      dup2\n      jump\t// out\n        /* \"#utility.yul\":7:82   */\n    tag_20:\n        /* \"#utility.yul\":40:46   */\n      0x00\n        /* \"#utility.yul\":73:75   */\n      0x40\n        /* \"#utility.yul\":67:76   */\n      mload\n        /* \"#utility.yul\":57:76   */\n      swap1\n      pop\n        /* \"#utility.yul\":7:82   */\n      swap1\n      jump\t// out\n        /* \"#utility.yul\":88:205   */\n    tag_21:\n        /* \"#utility.yul\":197:198   */\n      0x00\n        /* \"#utility.yul\":194:195   */\n      dup1\n        /* \"#utility.yul\":187:199   */\n      revert\n        /* \"#utility.yul\":211:328   */\n    tag_22:\n        /* \"#utility.yul\":320:321   */\n      0x00\n        /* \"#utility.yul\":317:318   */\n      dup1\n        /* \"#utility.yul\":310:322   */\n      revert\n        /* \"#utility.yul\":334:451   */\n    tag_23:\n        /* \"#utility.yul\":443:444   */\n      0x00\n        /* \"#utility.yul\":440:441   */\n      dup1\n        /* \"#utility.yul\":433:445   */\n      revert\n        /* \"#utility.yul\":457:574   */\n    tag_24:\n        /* \"#utility.yul\":566:567   */\n      0x00\n        /* \"#utility.yul\":563:564   */\n      dup1\n        /* \"#utility.yul\":556:568   */\n      revert\n        /* \"#utility.yul\":580:682   */\n    tag_25:\n        /* \"#utility.yul\":621:627   */\n      0x00\n        /* \"#utility.yul\":672:674   */\n      0x1f\n        /* \"#utility.yul\":668:675   */\n      not\n        /* \"#utility.yul\":663:665   */\n      0x1f\n        /* \"#utility.yul\":656:661   */\n      dup4\n        /* \"#utility.yul\":652:666   */\n      add\n        /* \"#utility.yul\":648:676   */\n      and\n        /* \"#utility.yul\":638:676   */\n      swap1\n      pop\n        /* \"#utility.yul\":580:682   */\n      swap2\n      swap1\n      pop\n      jump\t// out\n        /* \"#utility.yul\":688:868   */\n    tag_26:\n        /* \"#utility.yul\":736:813   */\n      0x4e487b7100000000000000000000000000000000000000000000000000000000\n        /* \"#utility.yul\":733:734   */\n      0x00\n        /* \"#utility.yul\":726:814   */\n      mstore\n        /* \"#utility.yul\":833:837   */\n      0x41\n        /* \"#utility.yul\":830:831   */\n      0x04\n        /* \"#utility.yul\":823:838   */\n      mstore\n        /* \"#utility.yul\":857:861   */\n      0x24\n        /* \"#utility.yul\":854:855   */\n      0x00\n        /* \"#utility.yul\":847:862   */\n      revert\n        /* \"#utility.yul\":874:1155   */\n    tag_27:\n        /* \"#utility.yul\":957:984   */\n      tag_47\n        /* \"#utility.yul\":979:983   */\n      dup3\n        /* \"#utility.yul\":957:984   */\n      tag_25\n      jump\t// in\n    tag_47:\n        /* \"#utility.yul\":949:955   */\n      dup2\n        /* \"#utility.yul\":945:985   */\n      add\n        /* \"#utility.yul\":1087:1093   */\n      dup2\n        /* \"#utility.yul\":1075:1085   */\n      dup2\n        /* \"#utility.yul\":1072:1094   */\n      lt\n        /* \"#utility.yul\":1051:1069   */\n      0xffffffffffffffff\n        /* \"#utility.yul\":1039:1049   */\n      dup3\n        /* \"#utility.yul\":1036:1070   */\n      gt\n        /* \"#utility.yul\":1033:1095   */\n      or\n        /* \"#utility.yul\":1030:1118   */\n      iszero\n      tag_48\n      jumpi\n        /* \"#utility.yul\":1098:1116   */\n      tag_49\n      tag_26\n      jump\t// in\n    tag_49:\n        /* \"#utility.yul\":1030:1118   */\n    tag_48:\n        /* \"#utility.yul\":1138:1148   */\n      dup1\n        /* \"#utility.yul\":1134:1136   */\n      0x40\n        /* \"#utility.yul\":1127:1149   */\n      mstore\n        /* \"#utility.yul\":917:1155   */\n      pop\n        /* \"#utility.yul\":874:1155   */\n      pop\n      pop\n      jump\t// out\n        /* \"#utility.yul\":1161:1290   */\n    tag_28:\n        /* \"#utility.yul\":1195:1201   */\n      0x00\n        /* \"#utility.yul\":1222:1242   */\n      tag_51\n      tag_20\n      jump\t// in\n    tag_51:\n        /* \"#utility.yul\":1212:1242   */\n      swap1\n      pop\n        /* \"#utility.yul\":1251:1284   */\n      tag_52\n        /* \"#utility.yul\":1279:1283   */\n      dup3\n        /* \"#utility.yul\":1271:1277   */\n      dup3\n        /* \"#utility.yul\":1251:1284   */\n      tag_27\n      jump\t// in\n    tag_52:\n        /* \"#utility.yul\":1161:1290   */\n      swap2\n      swap1\n      pop\n      jump\t// out\n        /* \"#utility.yul\":1296:1604   */\n    tag_29:\n        /* \"#utility.yul\":1358:1362   */\n      0x00\n        /* \"#utility.yul\":1448:1466   */\n      0xffffffffffffffff\n        /* \"#utility.yul\":1440:1446   */\n      dup3\n        /* \"#utility.yul\":1437:1467   */\n      gt\n        /* \"#utility.yul\":1434:1490   */\n      iszero\n      tag_54\n      jumpi\n        /* \"#utility.yul\":1470:1488   */\n      tag_55\n      tag_26\n      jump\t// in\n    tag_55:\n        /* \"#utility.yul\":1434:1490   */\n    tag_54:\n        /* \"#utility.yul\":1508:1537   */\n      tag_56\n        /* \"#utility.yul\":1530:1536   */\n      dup3\n        /* \"#utility.yul\":1508:1537   */\n      tag_25\n      jump\t// in\n    tag_56:\n        /* \"#utility.yul\":1500:1537   */\n      swap1\n      pop\n        /* \"#utility.yul\":1592:1596   */\n      0x20\n        /* \"#utility.yul\":1586:1590   */\n      dup2\n        /* \"#utility.yul\":1582:1597   */\n      add\n        /* \"#utility.yul\":1574:1597   */\n      swap1\n      pop\n        /* \"#utility.yul\":1296:1604   */\n      swap2\n      swap1\n      pop\n      jump\t// out\n        /* \"#utility.yul\":1610:1764   */\n    tag_30:\n        /* \"#utility.yul\":1694:1700   */\n      dup3\n        /* \"#utility.yul\":1689:1692   */\n      dup2\n        /* \"#utility.yul\":1684:1687   */\n      dup4\n        /* \"#utility.yul\":1671:1701   */\n      calldatacopy\n        /* \"#utility.yul\":1756:1757   */\n      0x00\n        /* \"#utility.yul\":1747:1753   */\n      dup4\n        /* \"#utility.yul\":1742:1745   */\n      dup4\n        /* \"#utility.yul\":1738:1754   */\n      add\n        /* \"#utility.yul\":1731:1758   */\n      mstore\n        /* \"#utility.yul\":1610:1764   */\n      pop\n      pop\n      pop\n      jump\t// out\n        /* \"#utility.yul\":1770:2182   */\n    tag_31:\n        /* \"#utility.yul\":1848:1853   */\n      0x00\n        /* \"#utility.yul\":1873:1939   */\n      tag_59\n        /* \"#utility.yul\":1889:1938   */\n      tag_60\n        /* \"#utility.yul\":1931:1937   */\n      dup5\n        /* \"#utility.yul\":1889:1938   */\n      tag_29\n      jump\t// in\n    tag_60:\n        /* \"#utility.yul\":1873:1939   */\n      tag_28\n      jump\t// in\n    tag_59:\n        /* \"#utility.yul\":1864:1939   */\n      swap1\n      pop\n        /* \"#utility.yul\":1962:1968   */\n      dup3\n        /* \"#utility.yul\":1955:1960   */\n      dup2\n        /* \"#utility.yul\":1948:1969   */\n      mstore\n        /* \"#utility.yul\":2000:2004   */\n      0x20\n        /* \"#utility.yul\":1993:1998   */\n      dup2\n        /* \"#utility.yul\":1989:2005   */\n      add\n        /* \"#utility.yul\":2038:2041   */\n      dup5\n        /* \"#utility.yul\":2029:2035   */\n      dup5\n        /* \"#utility.yul\":2024:2027   */\n      dup5\n        /* \"#utility.yul\":2020:2036   */\n      add\n        /* \"#utility.yul\":2017:2042   */\n      gt\n        /* \"#utility.yul\":2014:2126   */\n      iszero\n      tag_61\n      jumpi\n        /* \"#utility.yul\":2045:2124   */\n      tag_62\n      tag_24\n      jump\t// in\n    tag_62:\n        /* \"#utility.yul\":2014:2126   */\n    tag_61:\n        /* \"#utility.yul\":2135:2176   */\n      tag_63\n        /* \"#utility.yul\":2169:2175   */\n      dup5\n        /* \"#utility.yul\":2164:2167   */\n      dup3\n        /* \"#utility.yul\":2159:2162   */\n      dup6\n        /* \"#utility.yul\":2135:2176   */\n      tag_30\n      jump\t// in\n    tag_63:\n        /* \"#utility.yul\":1854:2182   */\n      pop\n        /* \"#utility.yul\":1770:2182   */\n      swap4\n      swap3\n      pop\n      pop\n      pop\n      jump\t// out\n        /* \"#utility.yul\":2202:2542   */\n    tag_32:\n        /* \"#utility.yul\":2258:2263   */\n      0x00\n        /* \"#utility.yul\":2307:2310   */\n      dup3\n        /* \"#utility.yul\":2300:2304   */\n      0x1f\n        /* \"#utility.yul\":2292:2298   */\n      dup4\n        /* \"#utility.yul\":2288:2305   */\n      add\n        /* \"#utility.yul\":2284:2311   */\n      slt\n        /* \"#utility.yul\":2274:2396   */\n      tag_65\n      jumpi\n        /* \"#utility.yul\":2315:2394   */\n      tag_66\n      tag_23\n      jump\t// in\n    tag_66:\n        /* \"#utility.yul\":2274:2396   */\n    tag_65:\n        /* \"#utility.yul\":2432:2438   */\n      dup2\n        /* \"#utility.yul\":2419:2439   */\n      calldataload\n        /* \"#utility.yul\":2457:2536   */\n      tag_67\n        /* \"#utility.yul\":2532:2535   */\n      dup5\n        /* \"#utility.yul\":2524:2530   */\n      dup3\n        /* \"#utility.yul\":2517:2521   */\n      0x20\n        /* \"#utility.yul\":2509:2515   */\n      dup7\n        /* \"#utility.yul\":2505:2522   */\n      add\n        /* \"#utility.yul\":2457:2536   */\n      tag_31\n      jump\t// in\n    tag_67:\n        /* \"#utility.yul\":2448:2536   */\n      swap2\n      pop\n        /* \"#utility.yul\":2264:2542   */\n      pop\n        /* \"#utility.yul\":2202:2542   */\n      swap3\n      swap2\n      pop\n      pop\n      jump\t// out\n        /* \"#utility.yul\":2548:3057   */\n    tag_7:\n        /* \"#utility.yul\":2617:2623   */\n      0x00\n        /* \"#utility.yul\":2666:2668   */\n      0x20\n        /* \"#utility.yul\":2654:2663   */\n      dup3\n        /* \"#utility.yul\":2645:2652   */\n      dup5\n        /* \"#utility.yul\":2641:2664   */\n      sub\n        /* \"#utility.yul\":2637:2669   */\n      slt\n        /* \"#utility.yul\":2634:2753   */\n      iszero\n      tag_69\n      jumpi\n        /* \"#utility.yul\":2672:2751   */\n      tag_70\n      tag_21\n      jump\t// in\n    tag_70:\n        /* \"#utility.yul\":2634:2753   */\n    tag_69:\n        /* \"#utility.yul\":2820:2821   */\n      0x00\n        /* \"#utility.yul\":2809:2818   */\n      dup3\n        /* \"#utility.yul\":2805:2822   */\n      add\n        /* \"#utility.yul\":2792:2823   */\n      calldataload\n        /* \"#utility.yul\":2850:2868   */\n      0xffffffffffffffff\n        /* \"#utility.yul\":2842:2848   */\n      dup2\n        /* \"#utility.yul\":2839:2869   */\n      gt\n        /* \"#utility.yul\":2836:2953   */\n      iszero\n      tag_71\n      jumpi\n        /* \"#utility.yul\":2872:2951   */\n      tag_72\n      tag_22\n      jump\t// in\n    tag_72:\n        /* \"#utility.yul\":2836:2953   */\n    tag_71:\n        /* \"#utility.yul\":2977:3040   */\n      tag_73\n        /* \"#utility.yul\":3032:3039   */\n      dup5\n        /* \"#utility.yul\":3023:3029   */\n      dup3\n        /* \"#utility.yul\":3012:3021   */\n      dup6\n        /* \"#utility.yul\":3008:3030   */\n      add\n        /* \"#utility.yul\":2977:3040   */\n      tag_32\n      jump\t// in\n    tag_73:\n        /* \"#utility.yul\":2967:3040   */\n      swap2\n      pop\n        /* \"#utility.yul\":2763:3050   */\n      pop\n        /* \"#utility.yul\":2548:3057   */\n      swap3\n      swap2\n      pop\n      pop\n      jump\t// out\n        /* \"#utility.yul\":3063:3162   */\n    tag_33:\n        /* \"#utility.yul\":3115:3121   */\n      0x00\n        /* \"#utility.yul\":3149:3154   */\n      dup2\n        /* \"#utility.yul\":3143:3155   */\n      mload\n        /* \"#utility.yul\":3133:3155   */\n      swap1\n      pop\n        /* \"#utility.yul\":3063:3162   */\n      swap2\n      swap1\n      pop\n      jump\t// out\n        /* \"#utility.yul\":3168:3337   */\n    tag_34:\n        /* \"#utility.yul\":3252:3263   */\n      0x00\n        /* \"#utility.yul\":3286:3292   */\n      dup3\n        /* \"#utility.yul\":3281:3284   */\n      dup3\n        /* \"#utility.yul\":3274:3293   */\n      mstore\n        /* \"#utility.yul\":3326:3330   */\n      0x20\n        /* \"#utility.yul\":3321:3324   */\n      dup3\n        /* \"#utility.yul\":3317:3331   */\n      add\n        /* \"#utility.yul\":3302:3331   */\n      swap1\n      pop\n        /* \"#utility.yul\":3168:3337   */\n      swap3\n      swap2\n      pop\n      pop\n      jump\t// out\n        /* \"#utility.yul\":3343:3650   */\n    tag_35:\n        /* \"#utility.yul\":3411:3412   */\n      0x00\n        /* \"#utility.yul\":3421:3534   */\n    tag_77:\n        /* \"#utility.yul\":3435:3441   */\n      dup4\n        /* \"#utility.yul\":3432:3433   */\n      dup2\n        /* \"#utility.yul\":3429:3442   */\n      lt\n        /* \"#utility.yul\":3421:3534   */\n      iszero\n      tag_79\n      jumpi\n        /* \"#utility.yul\":3520:3521   */\n      dup1\n        /* \"#utility.yul\":3515:3518   */\n      dup3\n        /* \"#utility.yul\":3511:3522   */\n      add\n        /* \"#utility.yul\":3505:3523   */\n      mload\n        /* \"#utility.yul\":3501:3502   */\n      dup2\n        /* \"#utility.yul\":3496:3499   */\n      dup5\n        /* \"#utility.yul\":3492:3503   */\n      add\n        /* \"#utility.yul\":3485:3524   */\n      mstore\n        /* \"#utility.yul\":3457:3459   */\n      0x20\n        /* \"#utility.yul\":3454:3455   */\n      dup2\n        /* \"#utility.yul\":3450:3460   */\n      add\n        /* \"#utility.yul\":3445:3460   */\n      swap1\n      pop\n        /* \"#utility.yul\":3421:3534   */\n      jump(tag_77)\n    tag_79:\n        /* \"#utility.yul\":3552:3558   */\n      dup4\n        /* \"#utility.yul\":3549:3550   */\n      dup2\n        /* \"#utility.yul\":3546:3559   */\n      gt\n        /* \"#utility.yul\":3543:3644   */\n      iszero\n      tag_80\n      jumpi\n        /* \"#utility.yul\":3632:3633   */\n      0x00\n        /* \"#utility.yul\":3623:3629   */\n      dup5\n        /* \"#utility.yul\":3618:3621   */\n      dup5\n        /* \"#utility.yul\":3614:3630   */\n      add\n        /* \"#utility.yul\":3607:3634   */\n      mstore\n        /* \"#utility.yul\":3543:3644   */\n    tag_80:\n        /* \"#utility.yul\":3392:3650   */\n      pop\n        /* \"#utility.yul\":3343:3650   */\n      pop\n      pop\n      pop\n      jump\t// out\n        /* \"#utility.yul\":3656:4020   */\n    tag_36:\n        /* \"#utility.yul\":3744:3747   */\n      0x00\n        /* \"#utility.yul\":3772:3811   */\n      tag_82\n        /* \"#utility.yul\":3805:3810   */\n      dup3\n        /* \"#utility.yul\":3772:3811   */\n      tag_33\n      jump\t// in\n    tag_82:\n        /* \"#utility.yul\":3827:3898   */\n      tag_83\n        /* \"#utility.yul\":3891:3897   */\n      dup2\n        /* \"#utility.yul\":3886:3889   */\n      dup6\n        /* \"#utility.yul\":3827:3898   */\n      tag_34\n      jump\t// in\n    tag_83:\n        /* \"#utility.yul\":3820:3898   */\n      swap4\n      pop\n        /* \"#utility.yul\":3907:3959   */\n      tag_84\n        /* \"#utility.yul\":3952:3958   */\n      dup2\n        /* \"#utility.yul\":3947:3950   */\n      dup6\n        /* \"#utility.yul\":3940:3944   */\n      0x20\n        /* \"#utility.yul\":3933:3938   */\n      dup7\n        /* \"#utility.yul\":3929:3945   */\n      add\n        /* \"#utility.yul\":3907:3959   */\n      tag_35\n      jump\t// in\n    tag_84:\n        /* \"#utility.yul\":3984:4013   */\n      tag_85\n        /* \"#utility.yul\":4006:4012   */\n      dup2\n        /* \"#utility.yul\":3984:4013   */\n      tag_25\n      jump\t// in\n    tag_85:\n        /* \"#utility.yul\":3979:3982   */\n      dup5\n        /* \"#utility.yul\":3975:4014   */\n      add\n        /* \"#utility.yul\":3968:4014   */\n      swap2\n      pop\n        /* \"#utility.yul\":3748:4020   */\n      pop\n        /* \"#utility.yul\":3656:4020   */\n      swap3\n      swap2\n      pop\n      pop\n      jump\t// out\n        /* \"#utility.yul\":4026:4339   */\n    tag_12:\n        /* \"#utility.yul\":4139:4143   */\n      0x00\n        /* \"#utility.yul\":4177:4179   */\n      0x20\n        /* \"#utility.yul\":4166:4175   */\n      dup3\n        /* \"#utility.yul\":4162:4180   */\n      add\n        /* \"#utility.yul\":4154:4180   */\n      swap1\n      pop\n        /* \"#utility.yul\":4226:4235   */\n      dup2\n        /* \"#utility.yul\":4220:4224   */\n      dup2\n        /* \"#utility.yul\":4216:4236   */\n      sub\n        /* \"#utility.yul\":4212:4213   */\n      0x00\n        /* \"#utility.yul\":4201:4210   */\n      dup4\n        /* \"#utility.yul\":4197:4214   */\n      add\n        /* \"#utility.yul\":4190:4237   */\n      mstore\n        /* \"#utility.yul\":4254:4332   */\n      tag_87\n        /* \"#utility.yul\":4327:4331   */\n      dup2\n        /* \"#utility.yul\":4318:4324   */\n      dup5\n        /* \"#utility.yul\":4254:4332   */\n      tag_36\n      jump\t// in\n    tag_87:\n        /* \"#utility.yul\":4246:4332   */\n      swap1\n      pop\n        /* \"#utility.yul\":4026:4339   */\n      swap3\n      swap2\n      pop\n      pop\n      jump\t// out\n        /* \"#utility.yul\":4345:4525   */\n    tag_37:\n        /* \"#utility.yul\":4393:4470   */\n      0x4e487b7100000000000000000000000000000000000000000000000000000000\n        /* \"#utility.yul\":4390:4391   */\n      0x00\n        /* \"#utility.yul\":4383:4471   */\n      mstore\n        /* \"#utility.yul\":4490:4494   */\n      0x22\n        /* \"#utility.yul\":4487:4488   */\n      0x04\n        /* \"#utility.yul\":4480:4495   */\n      mstore\n        /* \"#utility.yul\":4514:4518   */\n      0x24\n        /* \"#utility.yul\":4511:4512   */\n      0x00\n        /* \"#utility.yul\":4504:4519   */\n      revert\n        /* \"#utility.yul\":4531:4851   */\n    tag_15:\n        /* \"#utility.yul\":4575:4581   */\n      0x00\n        /* \"#utility.yul\":4612:4613   */\n      0x02\n        /* \"#utility.yul\":4606:4610   */\n      dup3\n        /* \"#utility.yul\":4602:4614   */\n      div\n        /* \"#utility.yul\":4592:4614   */\n      swap1\n      pop\n        /* \"#utility.yul\":4659:4660   */\n      0x01\n        /* \"#utility.yul\":4653:4657   */\n      dup3\n        /* \"#utility.yul\":4649:4661   */\n      and\n        /* \"#utility.yul\":4680:4698   */\n      dup1\n        /* \"#utility.yul\":4670:4751   */\n      tag_90\n      jumpi\n        /* \"#utility.yul\":4736:4740   */\n      0x7f\n        /* \"#utility.yul\":4728:4734   */\n      dup3\n        /* \"#utility.yul\":4724:4741   */\n      and\n        /* \"#utility.yul\":4714:4741   */\n      swap2\n      pop\n        /* \"#utility.yul\":4670:4751   */\n    tag_90:\n        /* \"#utility.yul\":4798:4800   */\n      0x20\n        /* \"#utility.yul\":4790:4796   */\n      dup3\n        /* \"#utility.yul\":4787:4801   */\n      lt\n        /* \"#utility.yul\":4767:4785   */\n      dup2\n        /* \"#utility.yul\":4764:4802   */\n      sub\n        /* \"#utility.yul\":4761:4845   */\n      tag_91\n      jumpi\n        /* \"#utility.yul\":4817:4835   */\n      tag_92\n      tag_37\n      jump\t// in\n    tag_92:\n        /* \"#utility.yul\":4761:4845   */\n    tag_91:\n        /* \"#utility.yul\":4582:4851   */\n      pop\n        /* \"#utility.yul\":4531:4851   */\n      swap2\n      swap1\n      pop\n      jump\t// out\n\n    auxdata: 0xa264697066735822122030f68339c3afee20b32a97a41b7849328926efc8a732056cc2dee2d1dfb99e3164736f6c634300080f0033\n}\n",
				"bytecode": {
					"linkReferences": {},
					"object": "60806040523480156200001157600080fd5b5060405162000969380380620009698339818101604052810190620000379190620001ed565b806000908162000048919062000489565b505062000570565b6000604051905090565b600080fd5b600080fd5b600080fd5b600080fd5b6000601f19601f8301169050919050565b7f4e487b7100000000000000000000000000000000000000000000000000000000600052604160045260246000fd5b620000b9826200006e565b810181811067ffffffffffffffff82111715620000db57620000da6200007f565b5b80604052505050565b6000620000f062000050565b9050620000fe8282620000ae565b919050565b600067ffffffffffffffff8211156200012157620001206200007f565b5b6200012c826200006e565b9050602081019050919050565b60005b83811015620001595780820151818401526020810190506200013c565b8381111562000169576000848401525b50505050565b600062000186620001808462000103565b620000e4565b905082815260208101848484011115620001a557620001a462000069565b5b620001b284828562000139565b509392505050565b600082601f830112620001d257620001d162000064565b5b8151620001e48482602086016200016f565b91505092915050565b6000602082840312156200020657620002056200005a565b5b600082015167ffffffffffffffff8111156200022757620002266200005f565b5b6200023584828501620001ba565b91505092915050565b600081519050919050565b7f4e487b7100000000000000000000000000000000000000000000000000000000600052602260045260246000fd5b600060028204905060018216806200029157607f821691505b602082108103620002a757620002a662000249565b5b50919050565b60008190508160005260206000209050919050565b60006020601f8301049050919050565b600082821b905092915050565b600060088302620003117fffffffffffffffffffffffffffffffffffffffffffffffffffffffffffffffff82620002d2565b6200031d8683620002d2565b95508019841693508086168417925050509392505050565b6000819050919050565b6000819050919050565b60006200036a620003646200035e8462000335565b6200033f565b62000335565b9050919050565b6000819050919050565b620003868362000349565b6200039e620003958262000371565b848454620002df565b825550505050565b600090565b620003b5620003a6565b620003c28184846200037b565b505050565b5b81811015620003ea57620003de600082620003ab565b600181019050620003c8565b5050565b601f82111562000439576200040381620002ad565b6200040e84620002c2565b810160208510156200041e578190505b620004366200042d85620002c2565b830182620003c7565b50505b505050565b600082821c905092915050565b60006200045e600019846008026200043e565b1980831691505092915050565b60006200047983836200044b565b9150826002028217905092915050565b62000494826200023e565b67ffffffffffffffff811115620004b057620004af6200007f565b5b620004bc825462000278565b620004c9828285620003ee565b600060209050601f831160018114620005015760008415620004ec578287015190505b620004f885826200046b565b86555062000568565b601f1984166200051186620002ad565b60005b828110156200053b5784890151825560018201915060208501945060208101905062000514565b868310156200055b578489015162000557601f8916826200044b565b8355505b6001600288020188555050505b505050505050565b6103e980620005806000396000f3fe608060405234801561001057600080fd5b50600436106100365760003560e01c80631923be241461003b578063e21f37ce14610057575b600080fd5b61005560048036038101906100509190610260565b610075565b005b61005f610078565b60405161006c9190610331565b60405180910390f35b50565b6000805461008590610382565b80601f01602080910402602001604051908101604052809291908181526020018280546100b190610382565b80156100fe5780601f106100d3576101008083540402835291602001916100fe565b820191906000526020600020905b8154815290600101906020018083116100e157829003601f168201915b505050505081565b6000604051905090565b600080fd5b600080fd5b600080fd5b600080fd5b6000601f19601f8301169050919050565b7f4e487b7100000000000000000000000000000000000000000000000000000000600052604160045260246000fd5b61016d82610124565b810181811067ffffffffffffffff8211171561018c5761018b610135565b5b80604052505050565b600061019f610106565b90506101ab8282610164565b919050565b600067ffffffffffffffff8211156101cb576101ca610135565b5b6101d482610124565b9050602081019050919050565b82818337600083830152505050565b60006102036101fe846101b0565b610195565b90508281526020810184848401111561021f5761021e61011f565b5b61022a8482856101e1565b509392505050565b600082601f8301126102475761024661011a565b5b81356102578482602086016101f0565b91505092915050565b60006020828403121561027657610275610110565b5b600082013567ffffffffffffffff81111561029457610293610115565b5b6102a084828501610232565b91505092915050565b600081519050919050565b600082825260208201905092915050565b60005b838110156102e35780820151818401526020810190506102c8565b838111156102f2576000848401525b50505050565b6000610303826102a9565b61030d81856102b4565b935061031d8185602086016102c5565b61032681610124565b840191505092915050565b6000602082019050818103600083015261034b81846102f8565b905092915050565b7f4e487b7100000000000000000000000000000000000000000000000000000000600052602260045260246000fd5b6000600282049050600182168061039a57607f821691505b6020821081036103ad576103ac610353565b5b5091905056fea264697066735822122030f68339c3afee20b32a97a41b7849328926efc8a732056cc2dee2d1dfb99e3164736f6c634300080f0033",
					"opcodes": "PUSH1 0x80 PUSH1 0x40 MSTORE CALLVALUE DUP1 ISZERO PUSH3 0x11 JUMPI PUSH1 0x0 DUP1 REVERT JUMPDEST POP PUSH1 0x40 MLOAD PUSH3 0x969 CODESIZE SUB DUP1 PUSH3 0x969 DUP4 CODECOPY DUP2 DUP2 ADD PUSH1 0x40 MSTORE DUP2 ADD SWAP1 PUSH3 0x37 SWAP2 SWAP1 PUSH3 0x1ED JUMP JUMPDEST DUP1 PUSH1 0x0 SWAP1 DUP2 PUSH3 0x48 SWAP2 SWAP1 PUSH3 0x489 JUMP JUMPDEST POP POP PUSH3 0x570 JUMP JUMPDEST PUSH1 0x0 PUSH1 0x40 MLOAD SWAP1 POP SWAP1 JUMP JUMPDEST PUSH1 0x0 DUP1 REVERT JUMPDEST PUSH1 0x0 DUP1 REVERT JUMPDEST PUSH1 0x0 DUP1 REVERT JUMPDEST PUSH1 0x0 DUP1 REVERT JUMPDEST PUSH1 0x0 PUSH1 0x1F NOT PUSH1 0x1F DUP4 ADD AND SWAP1 POP SWAP2 SWAP1 POP JUMP JUMPDEST PUSH32 0x4E487B7100000000000000000000000000000000000000000000000000000000 PUSH1 0x0 MSTORE PUSH1 0x41 PUSH1 0x4 MSTORE PUSH1 0x24 PUSH1 0x0 REVERT JUMPDEST PUSH3 0xB9 DUP3 PUSH3 0x6E JUMP JUMPDEST DUP2 ADD DUP2 DUP2 LT PUSH8 0xFFFFFFFFFFFFFFFF DUP3 GT OR ISZERO PUSH3 0xDB JUMPI PUSH3 0xDA PUSH3 0x7F JUMP JUMPDEST JUMPDEST DUP1 PUSH1 0x40 MSTORE POP POP POP JUMP JUMPDEST PUSH1 0x0 PUSH3 0xF0 PUSH3 0x50 JUMP JUMPDEST SWAP1 POP PUSH3 0xFE DUP3 DUP3 PUSH3 0xAE JUMP JUMPDEST SWAP2 SWAP1 POP JUMP JUMPDEST PUSH1 0x0 PUSH8 0xFFFFFFFFFFFFFFFF DUP3 GT ISZERO PUSH3 0x121 JUMPI PUSH3 0x120 PUSH3 0x7F JUMP JUMPDEST JUMPDEST PUSH3 0x12C DUP3 PUSH3 0x6E JUMP JUMPDEST SWAP1 POP PUSH1 0x20 DUP2 ADD SWAP1 POP SWAP2 SWAP1 POP JUMP JUMPDEST PUSH1 0x0 JUMPDEST DUP4 DUP2 LT ISZERO PUSH3 0x159 JUMPI DUP1 DUP3 ADD MLOAD DUP2 DUP5 ADD MSTORE PUSH1 0x20 DUP2 ADD SWAP1 POP PUSH3 0x13C JUMP JUMPDEST DUP4 DUP2 GT ISZERO PUSH3 0x169 JUMPI PUSH1 0x0 DUP5 DUP5 ADD MSTORE JUMPDEST POP POP POP POP JUMP JUMPDEST PUSH1 0x0 PUSH3 0x186 PUSH3 0x180 DUP5 PUSH3 0x103 JUMP JUMPDEST PUSH3 0xE4 JUMP JUMPDEST SWAP1 POP DUP3 DUP2 MSTORE PUSH1 0x20 DUP2 ADD DUP5 DUP5 DUP5 ADD GT ISZERO PUSH3 0x1A5 JUMPI PUSH3 0x1A4 PUSH3 0x69 JUMP JUMPDEST JUMPDEST PUSH3 0x1B2 DUP5 DUP3 DUP6 PUSH3 0x139 JUMP JUMPDEST POP SWAP4 SWAP3 POP POP POP JUMP JUMPDEST PUSH1 0x0 DUP3 PUSH1 0x1F DUP4 ADD SLT PUSH3 0x1D2 JUMPI PUSH3 0x1D1 PUSH3 0x64 JUMP JUMPDEST JUMPDEST DUP2 MLOAD PUSH3 0x1E4 DUP5 DUP3 PUSH1 0x20 DUP7 ADD PUSH3 0x16F JUMP JUMPDEST SWAP2 POP POP SWAP3 SWAP2 POP POP JUMP JUMPDEST PUSH1 0x0 PUSH1 0x20 DUP3 DUP5 SUB SLT ISZERO PUSH3 0x206 JUMPI PUSH3 0x205 PUSH3 0x5A JUMP JUMPDEST JUMPDEST PUSH1 0x0 DUP3 ADD MLOAD PUSH8 0xFFFFFFFFFFFFFFFF DUP2 GT ISZERO PUSH3 0x227 JUMPI PUSH3 0x226 PUSH3 0x5F JUMP JUMPDEST JUMPDEST PUSH3 0x235 DUP5 DUP3 DUP6 ADD PUSH3 0x1BA JUMP JUMPDEST SWAP2 POP POP SWAP3 SWAP2 POP POP JUMP JUMPDEST PUSH1 0x0 DUP2 MLOAD SWAP1 POP SWAP2 SWAP1 POP JUMP JUMPDEST PUSH32 0x4E487B7100000000000000000000000000000000000000000000000000000000 PUSH1 0x0 MSTORE PUSH1 0x22 PUSH1 0x4 MSTORE PUSH1 0x24 PUSH1 0x0 REVERT JUMPDEST PUSH1 0x0 PUSH1 0x2 DUP3 DIV SWAP1 POP PUSH1 0x1 DUP3 AND DUP1 PUSH3 0x291 JUMPI PUSH1 0x7F DUP3 AND SWAP2 POP JUMPDEST PUSH1 0x20 DUP3 LT DUP2 SUB PUSH3 0x2A7 JUMPI PUSH3 0x2A6 PUSH3 0x249 JUMP JUMPDEST JUMPDEST POP SWAP2 SWAP1 POP JUMP JUMPDEST PUSH1 0x0 DUP2 SWAP1 POP DUP2 PUSH1 0x0 MSTORE PUSH1 0x20 PUSH1 0x0 KECCAK256 SWAP1 POP SWAP2 SWAP1 POP JUMP JUMPDEST PUSH1 0x0 PUSH1 0x20 PUSH1 0x1F DUP4 ADD DIV SWAP1 POP SWAP2 SWAP1 POP JUMP JUMPDEST PUSH1 0x0 DUP3 DUP3 SHL SWAP1 POP SWAP3 SWAP2 POP POP JUMP JUMPDEST PUSH1 0x0 PUSH1 0x8 DUP4 MUL PUSH3 0x311 PUSH32 0xFFFFFFFFFFFFFFFFFFFFFFFFFFFFFFFFFFFFFFFFFFFFFFFFFFFFFFFFFFFFFFFF DUP3 PUSH3 0x2D2 JUMP JUMPDEST PUSH3 0x31D DUP7 DUP4 PUSH3 0x2D2 JUMP JUMPDEST SWAP6 POP DUP1 NOT DUP5 AND SWAP4 POP DUP1 DUP7 AND DUP5 OR SWAP3 POP POP POP SWAP4 SWAP3 POP POP POP JUMP JUMPDEST PUSH1 0x0 DUP2 SWAP1 POP SWAP2 SWAP1 POP JUMP JUMPDEST PUSH1 0x0 DUP2 SWAP1 POP SWAP2 SWAP1 POP JUMP JUMPDEST PUSH1 0x0 PUSH3 0x36A PUSH3 0x364 PUSH3 0x35E DUP5 PUSH3 0x335 JUMP JUMPDEST PUSH3 0x33F JUMP JUMPDEST PUSH3 0x335 JUMP JUMPDEST SWAP1 POP SWAP2 SWAP1 POP JUMP JUMPDEST PUSH1 0x0 DUP2 SWAP1 POP SWAP2 SWAP1 POP JUMP JUMPDEST PUSH3 0x386 DUP4 PUSH3 0x349 JUMP JUMPDEST PUSH3 0x39E PUSH3 0x395 DUP3 PUSH3 0x371 JUMP JUMPDEST DUP5 DUP5 SLOAD PUSH3 0x2DF JUMP JUMPDEST DUP3 SSTORE POP POP POP POP JUMP JUMPDEST PUSH1 0x0 SWAP1 JUMP JUMPDEST PUSH3 0x3B5 PUSH3 0x3A6 JUMP JUMPDEST PUSH3 0x3C2 DUP2 DUP5 DUP5 PUSH3 0x37B JUMP JUMPDEST POP POP POP JUMP JUMPDEST JUMPDEST DUP2 DUP2 LT ISZERO PUSH3 0x3EA JUMPI PUSH3 0x3DE PUSH1 0x0 DUP3 PUSH3 0x3AB JUMP JUMPDEST PUSH1 0x1 DUP2 ADD SWAP1 POP PUSH3 0x3C8 JUMP JUMPDEST POP POP JUMP JUMPDEST PUSH1 0x1F DUP3 GT ISZERO PUSH3 0x439 JUMPI PUSH3 0x403 DUP2 PUSH3 0x2AD JUMP JUMPDEST PUSH3 0x40E DUP5 PUSH3 0x2C2 JUMP JUMPDEST DUP2 ADD PUSH1 0x20 DUP6 LT ISZERO PUSH3 0x41E JUMPI DUP2 SWAP1 POP JUMPDEST PUSH3 0x436 PUSH3 0x42D DUP6 PUSH3 0x2C2 JUMP JUMPDEST DUP4 ADD DUP3 PUSH3 0x3C7 JUMP JUMPDEST POP POP JUMPDEST POP POP POP JUMP JUMPDEST PUSH1 0x0 DUP3 DUP3 SHR SWAP1 POP SWAP3 SWAP2 POP POP JUMP JUMPDEST PUSH1 0x0 PUSH3 0x45E PUSH1 0x0 NOT DUP5 PUSH1 0x8 MUL PUSH3 0x43E JUMP JUMPDEST NOT DUP1 DUP4 AND SWAP2 POP POP SWAP3 SWAP2 POP POP JUMP JUMPDEST PUSH1 0x0 PUSH3 0x479 DUP4 DUP4 PUSH3 0x44B JUMP JUMPDEST SWAP2 POP DUP3 PUSH1 0x2 MUL DUP3 OR SWAP1 POP SWAP3 SWAP2 POP POP JUMP JUMPDEST PUSH3 0x494 DUP3 PUSH3 0x23E JUMP JUMPDEST PUSH8 0xFFFFFFFFFFFFFFFF DUP2 GT ISZERO PUSH3 0x4B0 JUMPI PUSH3 0x4AF PUSH3 0x7F JUMP JUMPDEST JUMPDEST PUSH3 0x4BC DUP3 SLOAD PUSH3 0x278 JUMP JUMPDEST PUSH3 0x4C9 DUP3 DUP3 DUP6 PUSH3 0x3EE JUMP JUMPDEST PUSH1 0x0 PUSH1 0x20 SWAP1 POP PUSH1 0x1F DUP4 GT PUSH1 0x1 DUP2 EQ PUSH3 0x501 JUMPI PUSH1 0x0 DUP5 ISZERO PUSH3 0x4EC JUMPI DUP3 DUP8 ADD MLOAD SWAP1 POP JUMPDEST PUSH3 0x4F8 DUP6 DUP3 PUSH3 0x46B JUMP JUMPDEST DUP7 SSTORE POP PUSH3 0x568 JUMP JUMPDEST PUSH1 0x1F NOT DUP5 AND PUSH3 0x511 DUP7 PUSH3 0x2AD JUMP JUMPDEST PUSH1 0x0 JUMPDEST DUP3 DUP2 LT ISZERO PUSH3 0x53B JUMPI DUP5 DUP10 ADD MLOAD DUP3 SSTORE PUSH1 0x1 DUP3 ADD SWAP2 POP PUSH1 0x20 DUP6 ADD SWAP5 POP PUSH1 0x20 DUP2 ADD SWAP1 POP PUSH3 0x514 JUMP JUMPDEST DUP7 DUP4 LT ISZERO PUSH3 0x55B JUMPI DUP5 DUP10 ADD MLOAD PUSH3 0x557 PUSH1 0x1F DUP10 AND DUP3 PUSH3 0x44B JUMP JUMPDEST DUP4 SSTORE POP JUMPDEST PUSH1 0x1 PUSH1 0x2 DUP9 MUL ADD DUP9 SSTORE POP POP POP JUMPDEST POP POP POP POP POP POP JUMP JUMPDEST PUSH2 0x3E9 DUP1 PUSH3 0x580 PUSH1 0x0 CODECOPY PUSH1 0x0 RETURN INVALID PUSH1 0x80 PUSH1 0x40 MSTORE CALLVALUE DUP1 ISZERO PUSH2 0x10 JUMPI PUSH1 0x0 DUP1 REVERT JUMPDEST POP PUSH1 0x4 CALLDATASIZE LT PUSH2 0x36 JUMPI PUSH1 0x0 CALLDATALOAD PUSH1 0xE0 SHR DUP1 PUSH4 0x1923BE24 EQ PUSH2 0x3B JUMPI DUP1 PUSH4 0xE21F37CE EQ PUSH2 0x57 JUMPI JUMPDEST PUSH1 0x0 DUP1 REVERT JUMPDEST PUSH2 0x55 PUSH1 0x4 DUP1 CALLDATASIZE SUB DUP2 ADD SWAP1 PUSH2 0x50 SWAP2 SWAP1 PUSH2 0x260 JUMP JUMPDEST PUSH2 0x75 JUMP JUMPDEST STOP JUMPDEST PUSH2 0x5F PUSH2 0x78 JUMP JUMPDEST PUSH1 0x40 MLOAD PUSH2 0x6C SWAP2 SWAP1 PUSH2 0x331 JUMP JUMPDEST PUSH1 0x40 MLOAD DUP1 SWAP2 SUB SWAP1 RETURN JUMPDEST POP JUMP JUMPDEST PUSH1 0x0 DUP1 SLOAD PUSH2 0x85 SWAP1 PUSH2 0x382 JUMP JUMPDEST DUP1 PUSH1 0x1F ADD PUSH1 0x20 DUP1 SWAP2 DIV MUL PUSH1 0x20 ADD PUSH1 0x40 MLOAD SWAP1 DUP2 ADD PUSH1 0x40 MSTORE DUP1 SWAP3 SWAP2 SWAP1 DUP2 DUP2 MSTORE PUSH1 0x20 ADD DUP3 DUP1 SLOAD PUSH2 0xB1 SWAP1 PUSH2 0x382 JUMP JUMPDEST DUP1 ISZERO PUSH2 0xFE JUMPI DUP1 PUSH1 0x1F LT PUSH2 0xD3 JUMPI PUSH2 0x100 DUP1 DUP4 SLOAD DIV MUL DUP4 MSTORE SWAP2 PUSH1 0x20 ADD SWAP2 PUSH2 0xFE JUMP JUMPDEST DUP3 ADD SWAP2 SWAP1 PUSH1 0x0 MSTORE PUSH1 0x20 PUSH1 0x0 KECCAK256 SWAP1 JUMPDEST DUP2 SLOAD DUP2 MSTORE SWAP1 PUSH1 0x1 ADD SWAP1 PUSH1 0x20 ADD DUP1 DUP4 GT PUSH2 0xE1 JUMPI DUP3 SWAP1 SUB PUSH1 0x1F AND DUP3 ADD SWAP2 JUMPDEST POP POP POP POP POP DUP2 JUMP JUMPDEST PUSH1 0x0 PUSH1 0x40 MLOAD SWAP1 POP SWAP1 JUMP JUMPDEST PUSH1 0x0 DUP1 REVERT JUMPDEST PUSH1 0x0 DUP1 REVERT JUMPDEST PUSH1 0x0 DUP1 REVERT JUMPDEST PUSH1 0x0 DUP1 REVERT JUMPDEST PUSH1 0x0 PUSH1 0x1F NOT PUSH1 0x1F DUP4 ADD AND SWAP1 POP SWAP2 SWAP1 POP JUMP JUMPDEST PUSH32 0x4E487B7100000000000000000000000000000000000000000000000000000000 PUSH1 0x0 MSTORE PUSH1 0x41 PUSH1 0x4 MSTORE PUSH1 0x24 PUSH1 0x0 REVERT JUMPDEST PUSH2 0x16D DUP3 PUSH2 0x124 JUMP JUMPDEST DUP2 ADD DUP2 DUP2 LT PUSH8 0xFFFFFFFFFFFFFFFF DUP3 GT OR ISZERO PUSH2 0x18C JUMPI PUSH2 0x18B PUSH2 0x135 JUMP JUMPDEST JUMPDEST DUP1 PUSH1 0x40 MSTORE POP POP POP JUMP JUMPDEST PUSH1 0x0 PUSH2 0x19F PUSH2 0x106 JUMP JUMPDEST SWAP1 POP PUSH2 0x1AB DUP3 DUP3 PUSH2 0x164 JUMP JUMPDEST SWAP2 SWAP1 POP JUMP JUMPDEST PUSH1 0x0 PUSH8 0xFFFFFFFFFFFFFFFF DUP3 GT ISZERO PUSH2 0x1CB JUMPI PUSH2 0x1CA PUSH2 0x135 JUMP JUMPDEST JUMPDEST PUSH2 0x1D4 DUP3 PUSH2 0x124 JUMP JUMPDEST SWAP1 POP PUSH1 0x20 DUP2 ADD SWAP1 POP SWAP2 SWAP1 POP JUMP JUMPDEST DUP3 DUP2 DUP4 CALLDATACOPY PUSH1 0x0 DUP4 DUP4 ADD MSTORE POP POP POP JUMP JUMPDEST PUSH1 0x0 PUSH2 0x203 PUSH2 0x1FE DUP5 PUSH2 0x1B0 JUMP JUMPDEST PUSH2 0x195 JUMP JUMPDEST SWAP1 POP DUP3 DUP2 MSTORE PUSH1 0x20 DUP2 ADD DUP5 DUP5 DUP5 ADD GT ISZERO PUSH2 0x21F JUMPI PUSH2 0x21E PUSH2 0x11F JUMP JUMPDEST JUMPDEST PUSH2 0x22A DUP5 DUP3 DUP6 PUSH2 0x1E1 JUMP JUMPDEST POP SWAP4 SWAP3 POP POP POP JUMP JUMPDEST PUSH1 0x0 DUP3 PUSH1 0x1F DUP4 ADD SLT PUSH2 0x247 JUMPI PUSH2 0x246 PUSH2 0x11A JUMP JUMPDEST JUMPDEST DUP2 CALLDATALOAD PUSH2 0x257 DUP5 DUP3 PUSH1 0x20 DUP7 ADD PUSH2 0x1F0 JUMP JUMPDEST SWAP2 POP POP SWAP3 SWAP2 POP POP JUMP JUMPDEST PUSH1 0x0 PUSH1 0x20 DUP3 DUP5 SUB SLT ISZERO PUSH2 0x276 JUMPI PUSH2 0x275 PUSH2 0x110 JUMP JUMPDEST JUMPDEST PUSH1 0x0 DUP3 ADD CALLDATALOAD PUSH8 0xFFFFFFFFFFFFFFFF DUP2 GT ISZERO PUSH2 0x294 JUMPI PUSH2 0x293 PUSH2 0x115 JUMP JUMPDEST JUMPDEST PUSH2 0x2A0 DUP5 DUP3 DUP6 ADD PUSH2 0x232 JUMP JUMPDEST SWAP2 POP POP SWAP3 SWAP2 POP POP JUMP JUMPDEST PUSH1 0x0 DUP2 MLOAD SWAP1 POP SWAP2 SWAP1 POP JUMP JUMPDEST PUSH1 0x0 DUP3 DUP3 MSTORE PUSH1 0x20 DUP3 ADD SWAP1 POP SWAP3 SWAP2 POP POP JUMP JUMPDEST PUSH1 0x0 JUMPDEST DUP4 DUP2 LT ISZERO PUSH2 0x2E3 JUMPI DUP1 DUP3 ADD MLOAD DUP2 DUP5 ADD MSTORE PUSH1 0x20 DUP2 ADD SWAP1 POP PUSH2 0x2C8 JUMP JUMPDEST DUP4 DUP2 GT ISZERO PUSH2 0x2F2 JUMPI PUSH1 0x0 DUP5 DUP5 ADD MSTORE JUMPDEST POP POP POP POP JUMP JUMPDEST PUSH1 0x0 PUSH2 0x303 DUP3 PUSH2 0x2A9 JUMP JUMPDEST PUSH2 0x30D DUP2 DUP6 PUSH2 0x2B4 JUMP JUMPDEST SWAP4 POP PUSH2 0x31D DUP2 DUP6 PUSH1 0x20 DUP7 ADD PUSH2 0x2C5 JUMP JUMPDEST PUSH2 0x326 DUP2 PUSH2 0x124 JUMP JUMPDEST DUP5 ADD SWAP2 POP POP SWAP3 SWAP2 POP POP JUMP JUMPDEST PUSH1 0x0 PUSH1 0x20 DUP3 ADD SWAP1 POP DUP2 DUP2 SUB PUSH1 0x0 DUP4 ADD MSTORE PUSH2 0x34B DUP2 DUP5 PUSH2 0x2F8 JUMP JUMPDEST SWAP1 POP SWAP3 SWAP2 POP POP JUMP JUMPDEST PUSH32 0x4E487B7100000000000000000000000000000000000000000000000000000000 PUSH1 0x0 MSTORE PUSH1 0x22 PUSH1 0x4 MSTORE PUSH1 0x24 PUSH1 0x0 REVERT JUMPDEST PUSH1 0x0 PUSH1 0x2 DUP3 DIV SWAP1 POP PUSH1 0x1 DUP3 AND DUP1 PUSH2 0x39A JUMPI PUSH1 0x7F DUP3 AND SWAP2 POP JUMPDEST PUSH1 0x20 DUP3 LT DUP2 SUB PUSH2 0x3AD JUMPI PUSH2 0x3AC PUSH2 0x353 JUMP JUMPDEST JUMPDEST POP SWAP2 SWAP1 POP JUMP INVALID LOG2 PUSH5 0x6970667358 0x22 SLT KECCAK256 ADDRESS 0xF6 DUP4 CODECOPY 0xC3 0xAF 0xEE KECCAK256 0xB3 0x2A SWAP8 LOG4 SHL PUSH25 0x49328926EFC8A732056CC2DEE2D1DFB99E3164736F6C634300 ADDMOD 0xF STOP CALLER "
				},
				"gasEstimates": {
					"creation": {
						"codeDepositCost": "200200",
						"executionCost": "infinite",
						"totalCost": "infinite"
					},
					"external": {
						"message()": "infinite",
						"updateMessage(string)": "infinite"
					}
				},
				"methodIdentifiers": {
					"message()": "e21f37ce",
					"updateMessage(string)": "1923be24"
				}
			},
			"storageLayout": {
				"storage": [
					{
						"astId": 3,
						"contract": "ChainLink_learn/HelloWorld.sol:HelloWorld",
						"label": "message",
						"offset": 0,
						"slot": "0",
						"type": "t_string_storage"
					}
				],
				"types": {
					"t_string_storage": {
						"encoding": "bytes",
						"label": "string",
						"numberOfBytes": "32"
					}
				}
			},
			"userdoc": {
				"kind": "user",
				"methods": {},
				"version": 1
			}
		}
	}
}