{
	"Helloworld.sol": {
		"SimpleStorage": {
			"abi": [
				{
					"inputs": [
						{
							"internalType": "string",
							"name": "_name",
							"type": "string"
						},
						{
							"internalType": "uint256",
							"name": "_favoriteNumber",
							"type": "uint256"
						}
					],
					"name": "addPerson",
					"outputs": [],
					"stateMutability": "nonpayable",
					"type": "function"
				},
				{
					"inputs": [
						{
							"internalType": "uint256",
							"name": "",
							"type": "uint256"
						}
					],
					"name": "people",
					"outputs": [
						{
							"internalType": "uint256",
							"name": "favoriteNumber",
							"type": "uint256"
						},
						{
							"internalType": "string",
							"name": "name",
							"type": "string"
						}
					],
					"stateMutability": "view",
					"type": "function"
				},
				{
					"inputs": [],
					"name": "retrieve",
					"outputs": [
						{
							"internalType": "uint256",
							"name": "",
							"type": "uint256"
						}
					],
					"stateMutability": "view",
					"type": "function"
				},
				{
					"inputs": [
						{
							"internalType": "uint256",
							"name": "_favoriteNumber",
							"type": "uint256"
						}
					],
					"name": "store",
					"outputs": [],
					"stateMutability": "nonpayable",
					"type": "function"
				}
			],
			"devdoc": {
				"kind": "dev",
				"methods": {},
				"version": 1
			},
			"evm": {
				"assembly": "    /* \"Helloworld.sol\":221:894  contract SimpleStorage {... */\n  mstore(0x40, 0x80)\n  callvalue\n  dup1\n  iszero\n  tag_1\n  jumpi\n  0x00\n  dup1\n  revert\ntag_1:\n  pop\n  dataSize(sub_0)\n  dup1\n  dataOffset(sub_0)\n  0x00\n  codecopy\n  0x00\n  return\nstop\n\nsub_0: assembly {\n        /* \"Helloworld.sol\":221:894  contract SimpleStorage {... */\n      mstore(0x40, 0x80)\n      callvalue\n      dup1\n      iszero\n      tag_1\n      jumpi\n      0x00\n      dup1\n      revert\n    tag_1:\n      pop\n      jumpi(tag_2, lt(calldatasize, 0x04))\n      shr(0xe0, calldataload(0x00))\n      dup1\n      0x2e64cec1\n      eq\n      tag_3\n      jumpi\n      dup1\n      0x6057361d\n      eq\n      tag_4\n      jumpi\n      dup1\n      0x6f760f41\n      eq\n      tag_5\n      jumpi\n      dup1\n      0x9e7a13ad\n      eq\n      tag_6\n      jumpi\n    tag_2:\n      0x00\n      dup1\n      revert\n        /* \"Helloworld.sol\":667:754  function retrieve() public view returns(uint256) {... */\n    tag_3:\n      tag_7\n      tag_8\n      jump\t// in\n    tag_7:\n      mload(0x40)\n      tag_9\n      swap2\n      swap1\n      tag_10\n      jump\t// in\n    tag_9:\n      mload(0x40)\n      dup1\n      swap2\n      sub\n      swap1\n      return\n        /* \"Helloworld.sol\":504:645  function store(uint256 _favoriteNumber) public {... */\n    tag_4:\n      tag_11\n      0x04\n      dup1\n      calldatasize\n      sub\n      dup2\n      add\n      swap1\n      tag_12\n      swap2\n      swap1\n      tag_13\n      jump\t// in\n    tag_12:\n      tag_14\n      jump\t// in\n    tag_11:\n      stop\n        /* \"Helloworld.sol\":760:892  function addPerson(string memory _name, uint256 _favoriteNumber) public {... */\n    tag_5:\n      tag_15\n      0x04\n      dup1\n      calldatasize\n      sub\n      dup2\n      add\n      swap1\n      tag_16\n      swap2\n      swap1\n      tag_17\n      jump\t// in\n    tag_16:\n      tag_18\n      jump\t// in\n    tag_15:\n      stop\n        /* \"Helloworld.sol\":475:497  People[] public people */\n    tag_6:\n      tag_19\n      0x04\n      dup1\n      calldatasize\n      sub\n      dup2\n      add\n      swap1\n      tag_20\n      swap2\n      swap1\n      tag_13\n      jump\t// in\n    tag_20:\n      tag_21\n      jump\t// in\n    tag_19:\n      mload(0x40)\n      tag_22\n      swap3\n      swap2\n      swap1\n      tag_23\n      jump\t// in\n    tag_22:\n      mload(0x40)\n      dup1\n      swap2\n      sub\n      swap1\n      return\n        /* \"Helloworld.sol\":667:754  function retrieve() public view returns(uint256) {... */\n    tag_8:\n        /* \"Helloworld.sol\":707:714  uint256 */\n      0x00\n        /* \"Helloworld.sol\":733:747  favoriteNumber */\n      dup1\n      sload\n        /* \"Helloworld.sol\":726:747  return favoriteNumber */\n      swap1\n      pop\n        /* \"Helloworld.sol\":667:754  function retrieve() public view returns(uint256) {... */\n      swap1\n      jump\t// out\n        /* \"Helloworld.sol\":504:645  function store(uint256 _favoriteNumber) public {... */\n    tag_14:\n        /* \"Helloworld.sol\":578:593  _favoriteNumber */\n      dup1\n        /* \"Helloworld.sol\":561:575  favoriteNumber */\n      0x00\n        /* \"Helloworld.sol\":561:593  favoriteNumber = _favoriteNumber */\n      dup2\n      swap1\n      sstore\n      pop\n        /* \"Helloworld.sol\":637:638  1 */\n      0x01\n        /* \"Helloworld.sol\":620:634  favoriteNumber */\n      sload(0x00)\n        /* \"Helloworld.sol\":620:638  favoriteNumber + 1 */\n      tag_26\n      swap2\n      swap1\n      tag_27\n      jump\t// in\n    tag_26:\n        /* \"Helloworld.sol\":603:617  favoriteNumber */\n      0x00\n        /* \"Helloworld.sol\":603:638  favoriteNumber = favoriteNumber + 1 */\n      dup2\n      swap1\n      sstore\n      pop\n        /* \"Helloworld.sol\":504:645  function store(uint256 _favoriteNumber) public {... */\n      pop\n      jump\t// out\n        /* \"Helloworld.sol\":760:892  function addPerson(string memory _name, uint256 _favoriteNumber) public {... */\n    tag_18:\n        /* \"Helloworld.sol\":842:848  people */\n      0x01\n        /* \"Helloworld.sol\":854:884  People(_favoriteNumber, _name) */\n      mload(0x40)\n      dup1\n      0x40\n      add\n      0x40\n      mstore\n      dup1\n        /* \"Helloworld.sol\":861:876  _favoriteNumber */\n      dup4\n        /* \"Helloworld.sol\":854:884  People(_favoriteNumber, _name) */\n      dup2\n      mstore\n      0x20\n      add\n        /* \"Helloworld.sol\":878:883  _name */\n      dup5\n        /* \"Helloworld.sol\":854:884  People(_favoriteNumber, _name) */\n      dup2\n      mstore\n      pop\n        /* \"Helloworld.sol\":842:885  people.push(People(_favoriteNumber, _name)) */\n      swap1\n      dup1\n      0x01\n      dup2\n      sload\n      add\n      dup1\n      dup3\n      sstore\n      dup1\n      swap2\n      pop\n      pop\n      0x01\n      swap1\n      sub\n      swap1\n      0x00\n      mstore\n      keccak256(0x00, 0x20)\n      swap1\n      0x02\n      mul\n      add\n      0x00\n      swap1\n      swap2\n      swap1\n      swap2\n      swap1\n      swap2\n      pop\n      0x00\n      dup3\n      add\n      mload\n      dup2\n      0x00\n      add\n      sstore\n      0x20\n      dup3\n      add\n      mload\n      dup2\n      0x01\n      add\n      swap1\n      dup2\n      tag_30\n      swap2\n      swap1\n      tag_31\n      jump\t// in\n    tag_30:\n      pop\n      pop\n      pop\n        /* \"Helloworld.sol\":760:892  function addPerson(string memory _name, uint256 _favoriteNumber) public {... */\n      pop\n      pop\n      jump\t// out\n        /* \"Helloworld.sol\":475:497  People[] public people */\n    tag_21:\n      0x01\n      dup2\n      dup2\n      sload\n      dup2\n      lt\n      tag_32\n      jumpi\n      0x00\n      dup1\n      revert\n    tag_32:\n      swap1\n      0x00\n      mstore\n      keccak256(0x00, 0x20)\n      swap1\n      0x02\n      mul\n      add\n      0x00\n      swap2\n      pop\n      swap1\n      pop\n      dup1\n      0x00\n      add\n      sload\n      swap1\n      dup1\n      0x01\n      add\n      dup1\n      sload\n      tag_34\n      swap1\n      tag_35\n      jump\t// in\n    tag_34:\n      dup1\n      0x1f\n      add\n      0x20\n      dup1\n      swap2\n      div\n      mul\n      0x20\n      add\n      mload(0x40)\n      swap1\n      dup2\n      add\n      0x40\n      mstore\n      dup1\n      swap3\n      swap2\n      swap1\n      dup2\n      dup2\n      mstore\n      0x20\n      add\n      dup3\n      dup1\n      sload\n      tag_36\n      swap1\n      tag_35\n      jump\t// in\n    tag_36:\n      dup1\n      iszero\n      tag_37\n      jumpi\n      dup1\n      0x1f\n      lt\n      tag_38\n      jumpi\n      0x0100\n      dup1\n      dup4\n      sload\n      div\n      mul\n      dup4\n      mstore\n      swap2\n      0x20\n      add\n      swap2\n      jump(tag_37)\n    tag_38:\n      dup3\n      add\n      swap2\n      swap1\n      0x00\n      mstore\n      keccak256(0x00, 0x20)\n      swap1\n    tag_39:\n      dup2\n      sload\n      dup2\n      mstore\n      swap1\n      0x01\n      add\n      swap1\n      0x20\n      add\n      dup1\n      dup4\n      gt\n      tag_39\n      jumpi\n      dup3\n      swap1\n      sub\n      0x1f\n      and\n      dup3\n      add\n      swap2\n    tag_37:\n      pop\n      pop\n      pop\n      pop\n      pop\n      swap1\n      pop\n      dup3\n      jump\t// out\n        /* \"#utility.yul\":7:84   */\n    tag_40:\n        /* \"#utility.yul\":44:51   */\n      0x00\n        /* \"#utility.yul\":73:78   */\n      dup2\n        /* \"#utility.yul\":62:78   */\n      swap1\n      pop\n        /* \"#utility.yul\":7:84   */\n      swap2\n      swap1\n      pop\n      jump\t// out\n        /* \"#utility.yul\":90:208   */\n    tag_41:\n        /* \"#utility.yul\":177:201   */\n      tag_81\n        /* \"#utility.yul\":195:200   */\n      dup2\n        /* \"#utility.yul\":177:201   */\n      tag_40\n      jump\t// in\n    tag_81:\n        /* \"#utility.yul\":172:175   */\n      dup3\n        /* \"#utility.yul\":165:202   */\n      mstore\n        /* \"#utility.yul\":90:208   */\n      pop\n      pop\n      jump\t// out\n        /* \"#utility.yul\":214:436   */\n    tag_10:\n        /* \"#utility.yul\":307:311   */\n      0x00\n        /* \"#utility.yul\":345:347   */\n      0x20\n        /* \"#utility.yul\":334:343   */\n      dup3\n        /* \"#utility.yul\":330:348   */\n      add\n        /* \"#utility.yul\":322:348   */\n      swap1\n      pop\n        /* \"#utility.yul\":358:429   */\n      tag_83\n        /* \"#utility.yul\":426:427   */\n      0x00\n        /* \"#utility.yul\":415:424   */\n      dup4\n        /* \"#utility.yul\":411:428   */\n      add\n        /* \"#utility.yul\":402:408   */\n      dup5\n        /* \"#utility.yul\":358:429   */\n      tag_41\n      jump\t// in\n    tag_83:\n        /* \"#utility.yul\":214:436   */\n      swap3\n      swap2\n      pop\n      pop\n      jump\t// out\n        /* \"#utility.yul\":442:517   */\n    tag_42:\n        /* \"#utility.yul\":475:481   */\n      0x00\n        /* \"#utility.yul\":508:510   */\n      0x40\n        /* \"#utility.yul\":502:511   */\n      mload\n        /* \"#utility.yul\":492:511   */\n      swap1\n      pop\n        /* \"#utility.yul\":442:517   */\n      swap1\n      jump\t// out\n        /* \"#utility.yul\":523:640   */\n    tag_43:\n        /* \"#utility.yul\":632:633   */\n      0x00\n        /* \"#utility.yul\":629:630   */\n      dup1\n        /* \"#utility.yul\":622:634   */\n      revert\n        /* \"#utility.yul\":646:763   */\n    tag_44:\n        /* \"#utility.yul\":755:756   */\n      0x00\n        /* \"#utility.yul\":752:753   */\n      dup1\n        /* \"#utility.yul\":745:757   */\n      revert\n        /* \"#utility.yul\":769:891   */\n    tag_45:\n        /* \"#utility.yul\":842:866   */\n      tag_88\n        /* \"#utility.yul\":860:865   */\n      dup2\n        /* \"#utility.yul\":842:866   */\n      tag_40\n      jump\t// in\n    tag_88:\n        /* \"#utility.yul\":835:840   */\n      dup2\n        /* \"#utility.yul\":832:867   */\n      eq\n        /* \"#utility.yul\":822:885   */\n      tag_89\n      jumpi\n        /* \"#utility.yul\":881:882   */\n      0x00\n        /* \"#utility.yul\":878:879   */\n      dup1\n        /* \"#utility.yul\":871:883   */\n      revert\n        /* \"#utility.yul\":822:885   */\n    tag_89:\n        /* \"#utility.yul\":769:891   */\n      pop\n      jump\t// out\n        /* \"#utility.yul\":897:1036   */\n    tag_46:\n        /* \"#utility.yul\":943:948   */\n      0x00\n        /* \"#utility.yul\":981:987   */\n      dup2\n        /* \"#utility.yul\":968:988   */\n      calldataload\n        /* \"#utility.yul\":959:988   */\n      swap1\n      pop\n        /* \"#utility.yul\":997:1030   */\n      tag_91\n        /* \"#utility.yul\":1024:1029   */\n      dup2\n        /* \"#utility.yul\":997:1030   */\n      tag_45\n      jump\t// in\n    tag_91:\n        /* \"#utility.yul\":897:1036   */\n      swap3\n      swap2\n      pop\n      pop\n      jump\t// out\n        /* \"#utility.yul\":1042:1371   */\n    tag_13:\n        /* \"#utility.yul\":1101:1107   */\n      0x00\n        /* \"#utility.yul\":1150:1152   */\n      0x20\n        /* \"#utility.yul\":1138:1147   */\n      dup3\n        /* \"#utility.yul\":1129:1136   */\n      dup5\n        /* \"#utility.yul\":1125:1148   */\n      sub\n        /* \"#utility.yul\":1121:1153   */\n      slt\n        /* \"#utility.yul\":1118:1237   */\n      iszero\n      tag_93\n      jumpi\n        /* \"#utility.yul\":1156:1235   */\n      tag_94\n      tag_43\n      jump\t// in\n    tag_94:\n        /* \"#utility.yul\":1118:1237   */\n    tag_93:\n        /* \"#utility.yul\":1276:1277   */\n      0x00\n        /* \"#utility.yul\":1301:1354   */\n      tag_95\n        /* \"#utility.yul\":1346:1353   */\n      dup5\n        /* \"#utility.yul\":1337:1343   */\n      dup3\n        /* \"#utility.yul\":1326:1335   */\n      dup6\n        /* \"#utility.yul\":1322:1344   */\n      add\n        /* \"#utility.yul\":1301:1354   */\n      tag_46\n      jump\t// in\n    tag_95:\n        /* \"#utility.yul\":1291:1354   */\n      swap2\n      pop\n        /* \"#utility.yul\":1247:1364   */\n      pop\n        /* \"#utility.yul\":1042:1371   */\n      swap3\n      swap2\n      pop\n      pop\n      jump\t// out\n        /* \"#utility.yul\":1377:1494   */\n    tag_47:\n        /* \"#utility.yul\":1486:1487   */\n      0x00\n        /* \"#utility.yul\":1483:1484   */\n      dup1\n        /* \"#utility.yul\":1476:1488   */\n      revert\n        /* \"#utility.yul\":1500:1617   */\n    tag_48:\n        /* \"#utility.yul\":1609:1610   */\n      0x00\n        /* \"#utility.yul\":1606:1607   */\n      dup1\n        /* \"#utility.yul\":1599:1611   */\n      revert\n        /* \"#utility.yul\":1623:1725   */\n    tag_49:\n        /* \"#utility.yul\":1664:1670   */\n      0x00\n        /* \"#utility.yul\":1715:1717   */\n      0x1f\n        /* \"#utility.yul\":1711:1718   */\n      not\n        /* \"#utility.yul\":1706:1708   */\n      0x1f\n        /* \"#utility.yul\":1699:1704   */\n      dup4\n        /* \"#utility.yul\":1695:1709   */\n      add\n        /* \"#utility.yul\":1691:1719   */\n      and\n        /* \"#utility.yul\":1681:1719   */\n      swap1\n      pop\n        /* \"#utility.yul\":1623:1725   */\n      swap2\n      swap1\n      pop\n      jump\t// out\n        /* \"#utility.yul\":1731:1911   */\n    tag_50:\n        /* \"#utility.yul\":1779:1856   */\n      0x4e487b7100000000000000000000000000000000000000000000000000000000\n        /* \"#utility.yul\":1776:1777   */\n      0x00\n        /* \"#utility.yul\":1769:1857   */\n      mstore\n        /* \"#utility.yul\":1876:1880   */\n      0x41\n        /* \"#utility.yul\":1873:1874   */\n      0x04\n        /* \"#utility.yul\":1866:1881   */\n      mstore\n        /* \"#utility.yul\":1900:1904   */\n      0x24\n        /* \"#utility.yul\":1897:1898   */\n      0x00\n        /* \"#utility.yul\":1890:1905   */\n      revert\n        /* \"#utility.yul\":1917:2198   */\n    tag_51:\n        /* \"#utility.yul\":2000:2027   */\n      tag_101\n        /* \"#utility.yul\":2022:2026   */\n      dup3\n        /* \"#utility.yul\":2000:2027   */\n      tag_49\n      jump\t// in\n    tag_101:\n        /* \"#utility.yul\":1992:1998   */\n      dup2\n        /* \"#utility.yul\":1988:2028   */\n      add\n        /* \"#utility.yul\":2130:2136   */\n      dup2\n        /* \"#utility.yul\":2118:2128   */\n      dup2\n        /* \"#utility.yul\":2115:2137   */\n      lt\n        /* \"#utility.yul\":2094:2112   */\n      0xffffffffffffffff\n        /* \"#utility.yul\":2082:2092   */\n      dup3\n        /* \"#utility.yul\":2079:2113   */\n      gt\n        /* \"#utility.yul\":2076:2138   */\n      or\n        /* \"#utility.yul\":2073:2161   */\n      iszero\n      tag_102\n      jumpi\n        /* \"#utility.yul\":2141:2159   */\n      tag_103\n      tag_50\n      jump\t// in\n    tag_103:\n        /* \"#utility.yul\":2073:2161   */\n    tag_102:\n        /* \"#utility.yul\":2181:2191   */\n      dup1\n        /* \"#utility.yul\":2177:2179   */\n      0x40\n        /* \"#utility.yul\":2170:2192   */\n      mstore\n        /* \"#utility.yul\":1960:2198   */\n      pop\n        /* \"#utility.yul\":1917:2198   */\n      pop\n      pop\n      jump\t// out\n        /* \"#utility.yul\":2204:2333   */\n    tag_52:\n        /* \"#utility.yul\":2238:2244   */\n      0x00\n        /* \"#utility.yul\":2265:2285   */\n      tag_105\n      tag_42\n      jump\t// in\n    tag_105:\n        /* \"#utility.yul\":2255:2285   */\n      swap1\n      pop\n        /* \"#utility.yul\":2294:2327   */\n      tag_106\n        /* \"#utility.yul\":2322:2326   */\n      dup3\n        /* \"#utility.yul\":2314:2320   */\n      dup3\n        /* \"#utility.yul\":2294:2327   */\n      tag_51\n      jump\t// in\n    tag_106:\n        /* \"#utility.yul\":2204:2333   */\n      swap2\n      swap1\n      pop\n      jump\t// out\n        /* \"#utility.yul\":2339:2647   */\n    tag_53:\n        /* \"#utility.yul\":2401:2405   */\n      0x00\n        /* \"#utility.yul\":2491:2509   */\n      0xffffffffffffffff\n        /* \"#utility.yul\":2483:2489   */\n      dup3\n        /* \"#utility.yul\":2480:2510   */\n      gt\n        /* \"#utility.yul\":2477:2533   */\n      iszero\n      tag_108\n      jumpi\n        /* \"#utility.yul\":2513:2531   */\n      tag_109\n      tag_50\n      jump\t// in\n    tag_109:\n        /* \"#utility.yul\":2477:2533   */\n    tag_108:\n        /* \"#utility.yul\":2551:2580   */\n      tag_110\n        /* \"#utility.yul\":2573:2579   */\n      dup3\n        /* \"#utility.yul\":2551:2580   */\n      tag_49\n      jump\t// in\n    tag_110:\n        /* \"#utility.yul\":2543:2580   */\n      swap1\n      pop\n        /* \"#utility.yul\":2635:2639   */\n      0x20\n        /* \"#utility.yul\":2629:2633   */\n      dup2\n        /* \"#utility.yul\":2625:2640   */\n      add\n        /* \"#utility.yul\":2617:2640   */\n      swap1\n      pop\n        /* \"#utility.yul\":2339:2647   */\n      swap2\n      swap1\n      pop\n      jump\t// out\n        /* \"#utility.yul\":2653:2807   */\n    tag_54:\n        /* \"#utility.yul\":2737:2743   */\n      dup3\n        /* \"#utility.yul\":2732:2735   */\n      dup2\n        /* \"#utility.yul\":2727:2730   */\n      dup4\n        /* \"#utility.yul\":2714:2744   */\n      calldatacopy\n        /* \"#utility.yul\":2799:2800   */\n      0x00\n        /* \"#utility.yul\":2790:2796   */\n      dup4\n        /* \"#utility.yul\":2785:2788   */\n      dup4\n        /* \"#utility.yul\":2781:2797   */\n      add\n        /* \"#utility.yul\":2774:2801   */\n      mstore\n        /* \"#utility.yul\":2653:2807   */\n      pop\n      pop\n      pop\n      jump\t// out\n        /* \"#utility.yul\":2813:3225   */\n    tag_55:\n        /* \"#utility.yul\":2891:2896   */\n      0x00\n        /* \"#utility.yul\":2916:2982   */\n      tag_113\n        /* \"#utility.yul\":2932:2981   */\n      tag_114\n        /* \"#utility.yul\":2974:2980   */\n      dup5\n        /* \"#utility.yul\":2932:2981   */\n      tag_53\n      jump\t// in\n    tag_114:\n        /* \"#utility.yul\":2916:2982   */\n      tag_52\n      jump\t// in\n    tag_113:\n        /* \"#utility.yul\":2907:2982   */\n      swap1\n      pop\n        /* \"#utility.yul\":3005:3011   */\n      dup3\n        /* \"#utility.yul\":2998:3003   */\n      dup2\n        /* \"#utility.yul\":2991:3012   */\n      mstore\n        /* \"#utility.yul\":3043:3047   */\n      0x20\n        /* \"#utility.yul\":3036:3041   */\n      dup2\n        /* \"#utility.yul\":3032:3048   */\n      add\n        /* \"#utility.yul\":3081:3084   */\n      dup5\n        /* \"#utility.yul\":3072:3078   */\n      dup5\n        /* \"#utility.yul\":3067:3070   */\n      dup5\n        /* \"#utility.yul\":3063:3079   */\n      add\n        /* \"#utility.yul\":3060:3085   */\n      gt\n        /* \"#utility.yul\":3057:3169   */\n      iszero\n      tag_115\n      jumpi\n        /* \"#utility.yul\":3088:3167   */\n      tag_116\n      tag_48\n      jump\t// in\n    tag_116:\n        /* \"#utility.yul\":3057:3169   */\n    tag_115:\n        /* \"#utility.yul\":3178:3219   */\n      tag_117\n        /* \"#utility.yul\":3212:3218   */\n      dup5\n        /* \"#utility.yul\":3207:3210   */\n      dup3\n        /* \"#utility.yul\":3202:3205   */\n      dup6\n        /* \"#utility.yul\":3178:3219   */\n      tag_54\n      jump\t// in\n    tag_117:\n        /* \"#utility.yul\":2897:3225   */\n      pop\n        /* \"#utility.yul\":2813:3225   */\n      swap4\n      swap3\n      pop\n      pop\n      pop\n      jump\t// out\n        /* \"#utility.yul\":3245:3585   */\n    tag_56:\n        /* \"#utility.yul\":3301:3306   */\n      0x00\n        /* \"#utility.yul\":3350:3353   */\n      dup3\n        /* \"#utility.yul\":3343:3347   */\n      0x1f\n        /* \"#utility.yul\":3335:3341   */\n      dup4\n        /* \"#utility.yul\":3331:3348   */\n      add\n        /* \"#utility.yul\":3327:3354   */\n      slt\n        /* \"#utility.yul\":3317:3439   */\n      tag_119\n      jumpi\n        /* \"#utility.yul\":3358:3437   */\n      tag_120\n      tag_47\n      jump\t// in\n    tag_120:\n        /* \"#utility.yul\":3317:3439   */\n    tag_119:\n        /* \"#utility.yul\":3475:3481   */\n      dup2\n        /* \"#utility.yul\":3462:3482   */\n      calldataload\n        /* \"#utility.yul\":3500:3579   */\n      tag_121\n        /* \"#utility.yul\":3575:3578   */\n      dup5\n        /* \"#utility.yul\":3567:3573   */\n      dup3\n        /* \"#utility.yul\":3560:3564   */\n      0x20\n        /* \"#utility.yul\":3552:3558   */\n      dup7\n        /* \"#utility.yul\":3548:3565   */\n      add\n        /* \"#utility.yul\":3500:3579   */\n      tag_55\n      jump\t// in\n    tag_121:\n        /* \"#utility.yul\":3491:3579   */\n      swap2\n      pop\n        /* \"#utility.yul\":3307:3585   */\n      pop\n        /* \"#utility.yul\":3245:3585   */\n      swap3\n      swap2\n      pop\n      pop\n      jump\t// out\n        /* \"#utility.yul\":3591:4245   */\n    tag_17:\n        /* \"#utility.yul\":3669:3675   */\n      0x00\n        /* \"#utility.yul\":3677:3683   */\n      dup1\n        /* \"#utility.yul\":3726:3728   */\n      0x40\n        /* \"#utility.yul\":3714:3723   */\n      dup4\n        /* \"#utility.yul\":3705:3712   */\n      dup6\n        /* \"#utility.yul\":3701:3724   */\n      sub\n        /* \"#utility.yul\":3697:3729   */\n      slt\n        /* \"#utility.yul\":3694:3813   */\n      iszero\n      tag_123\n      jumpi\n        /* \"#utility.yul\":3732:3811   */\n      tag_124\n      tag_43\n      jump\t// in\n    tag_124:\n        /* \"#utility.yul\":3694:3813   */\n    tag_123:\n        /* \"#utility.yul\":3880:3881   */\n      0x00\n        /* \"#utility.yul\":3869:3878   */\n      dup4\n        /* \"#utility.yul\":3865:3882   */\n      add\n        /* \"#utility.yul\":3852:3883   */\n      calldataload\n        /* \"#utility.yul\":3910:3928   */\n      0xffffffffffffffff\n        /* \"#utility.yul\":3902:3908   */\n      dup2\n        /* \"#utility.yul\":3899:3929   */\n      gt\n        /* \"#utility.yul\":3896:4013   */\n      iszero\n      tag_125\n      jumpi\n        /* \"#utility.yul\":3932:4011   */\n      tag_126\n      tag_44\n      jump\t// in\n    tag_126:\n        /* \"#utility.yul\":3896:4013   */\n    tag_125:\n        /* \"#utility.yul\":4037:4100   */\n      tag_127\n        /* \"#utility.yul\":4092:4099   */\n      dup6\n        /* \"#utility.yul\":4083:4089   */\n      dup3\n        /* \"#utility.yul\":4072:4081   */\n      dup7\n        /* \"#utility.yul\":4068:4090   */\n      add\n        /* \"#utility.yul\":4037:4100   */\n      tag_56\n      jump\t// in\n    tag_127:\n        /* \"#utility.yul\":4027:4100   */\n      swap3\n      pop\n        /* \"#utility.yul\":3823:4110   */\n      pop\n        /* \"#utility.yul\":4149:4151   */\n      0x20\n        /* \"#utility.yul\":4175:4228   */\n      tag_128\n        /* \"#utility.yul\":4220:4227   */\n      dup6\n        /* \"#utility.yul\":4211:4217   */\n      dup3\n        /* \"#utility.yul\":4200:4209   */\n      dup7\n        /* \"#utility.yul\":4196:4218   */\n      add\n        /* \"#utility.yul\":4175:4228   */\n      tag_46\n      jump\t// in\n    tag_128:\n        /* \"#utility.yul\":4165:4228   */\n      swap2\n      pop\n        /* \"#utility.yul\":4120:4238   */\n      pop\n        /* \"#utility.yul\":3591:4245   */\n      swap3\n      pop\n      swap3\n      swap1\n      pop\n      jump\t// out\n        /* \"#utility.yul\":4251:4350   */\n    tag_57:\n        /* \"#utility.yul\":4303:4309   */\n      0x00\n        /* \"#utility.yul\":4337:4342   */\n      dup2\n        /* \"#utility.yul\":4331:4343   */\n      mload\n        /* \"#utility.yul\":4321:4343   */\n      swap1\n      pop\n        /* \"#utility.yul\":4251:4350   */\n      swap2\n      swap1\n      pop\n      jump\t// out\n        /* \"#utility.yul\":4356:4525   */\n    tag_58:\n        /* \"#utility.yul\":4440:4451   */\n      0x00\n        /* \"#utility.yul\":4474:4480   */\n      dup3\n        /* \"#utility.yul\":4469:4472   */\n      dup3\n        /* \"#utility.yul\":4462:4481   */\n      mstore\n        /* \"#utility.yul\":4514:4518   */\n      0x20\n        /* \"#utility.yul\":4509:4512   */\n      dup3\n        /* \"#utility.yul\":4505:4519   */\n      add\n        /* \"#utility.yul\":4490:4519   */\n      swap1\n      pop\n        /* \"#utility.yul\":4356:4525   */\n      swap3\n      swap2\n      pop\n      pop\n      jump\t// out\n        /* \"#utility.yul\":4531:4838   */\n    tag_59:\n        /* \"#utility.yul\":4599:4600   */\n      0x00\n        /* \"#utility.yul\":4609:4722   */\n    tag_132:\n        /* \"#utility.yul\":4623:4629   */\n      dup4\n        /* \"#utility.yul\":4620:4621   */\n      dup2\n        /* \"#utility.yul\":4617:4630   */\n      lt\n        /* \"#utility.yul\":4609:4722   */\n      iszero\n      tag_134\n      jumpi\n        /* \"#utility.yul\":4708:4709   */\n      dup1\n        /* \"#utility.yul\":4703:4706   */\n      dup3\n        /* \"#utility.yul\":4699:4710   */\n      add\n        /* \"#utility.yul\":4693:4711   */\n      mload\n        /* \"#utility.yul\":4689:4690   */\n      dup2\n        /* \"#utility.yul\":4684:4687   */\n      dup5\n        /* \"#utility.yul\":4680:4691   */\n      add\n        /* \"#utility.yul\":4673:4712   */\n      mstore\n        /* \"#utility.yul\":4645:4647   */\n      0x20\n        /* \"#utility.yul\":4642:4643   */\n      dup2\n        /* \"#utility.yul\":4638:4648   */\n      add\n        /* \"#utility.yul\":4633:4648   */\n      swap1\n      pop\n        /* \"#utility.yul\":4609:4722   */\n      jump(tag_132)\n    tag_134:\n        /* \"#utility.yul\":4740:4746   */\n      dup4\n        /* \"#utility.yul\":4737:4738   */\n      dup2\n        /* \"#utility.yul\":4734:4747   */\n      gt\n        /* \"#utility.yul\":4731:4832   */\n      iszero\n      tag_135\n      jumpi\n        /* \"#utility.yul\":4820:4821   */\n      0x00\n        /* \"#utility.yul\":4811:4817   */\n      dup5\n        /* \"#utility.yul\":4806:4809   */\n      dup5\n        /* \"#utility.yul\":4802:4818   */\n      add\n        /* \"#utility.yul\":4795:4822   */\n      mstore\n        /* \"#utility.yul\":4731:4832   */\n    tag_135:\n        /* \"#utility.yul\":4580:4838   */\n      pop\n        /* \"#utility.yul\":4531:4838   */\n      pop\n      pop\n      pop\n      jump\t// out\n        /* \"#utility.yul\":4844:5208   */\n    tag_60:\n        /* \"#utility.yul\":4932:4935   */\n      0x00\n        /* \"#utility.yul\":4960:4999   */\n      tag_137\n        /* \"#utility.yul\":4993:4998   */\n      dup3\n        /* \"#utility.yul\":4960:4999   */\n      tag_57\n      jump\t// in\n    tag_137:\n        /* \"#utility.yul\":5015:5086   */\n      tag_138\n        /* \"#utility.yul\":5079:5085   */\n      dup2\n        /* \"#utility.yul\":5074:5077   */\n      dup6\n        /* \"#utility.yul\":5015:5086   */\n      tag_58\n      jump\t// in\n    tag_138:\n        /* \"#utility.yul\":5008:5086   */\n      swap4\n      pop\n        /* \"#utility.yul\":5095:5147   */\n      tag_139\n        /* \"#utility.yul\":5140:5146   */\n      dup2\n        /* \"#utility.yul\":5135:5138   */\n      dup6\n        /* \"#utility.yul\":5128:5132   */\n      0x20\n        /* \"#utility.yul\":5121:5126   */\n      dup7\n        /* \"#utility.yul\":5117:5133   */\n      add\n        /* \"#utility.yul\":5095:5147   */\n      tag_59\n      jump\t// in\n    tag_139:\n        /* \"#utility.yul\":5172:5201   */\n      tag_140\n        /* \"#utility.yul\":5194:5200   */\n      dup2\n        /* \"#utility.yul\":5172:5201   */\n      tag_49\n      jump\t// in\n    tag_140:\n        /* \"#utility.yul\":5167:5170   */\n      dup5\n        /* \"#utility.yul\":5163:5202   */\n      add\n        /* \"#utility.yul\":5156:5202   */\n      swap2\n      pop\n        /* \"#utility.yul\":4936:5208   */\n      pop\n        /* \"#utility.yul\":4844:5208   */\n      swap3\n      swap2\n      pop\n      pop\n      jump\t// out\n        /* \"#utility.yul\":5214:5637   */\n    tag_23:\n        /* \"#utility.yul\":5355:5359   */\n      0x00\n        /* \"#utility.yul\":5393:5395   */\n      0x40\n        /* \"#utility.yul\":5382:5391   */\n      dup3\n        /* \"#utility.yul\":5378:5396   */\n      add\n        /* \"#utility.yul\":5370:5396   */\n      swap1\n      pop\n        /* \"#utility.yul\":5406:5477   */\n      tag_142\n        /* \"#utility.yul\":5474:5475   */\n      0x00\n        /* \"#utility.yul\":5463:5472   */\n      dup4\n        /* \"#utility.yul\":5459:5476   */\n      add\n        /* \"#utility.yul\":5450:5456   */\n      dup6\n        /* \"#utility.yul\":5406:5477   */\n      tag_41\n      jump\t// in\n    tag_142:\n        /* \"#utility.yul\":5524:5533   */\n      dup2\n        /* \"#utility.yul\":5518:5522   */\n      dup2\n        /* \"#utility.yul\":5514:5534   */\n      sub\n        /* \"#utility.yul\":5509:5511   */\n      0x20\n        /* \"#utility.yul\":5498:5507   */\n      dup4\n        /* \"#utility.yul\":5494:5512   */\n      add\n        /* \"#utility.yul\":5487:5535   */\n      mstore\n        /* \"#utility.yul\":5552:5630   */\n      tag_143\n        /* \"#utility.yul\":5625:5629   */\n      dup2\n        /* \"#utility.yul\":5616:5622   */\n      dup5\n        /* \"#utility.yul\":5552:5630   */\n      tag_60\n      jump\t// in\n    tag_143:\n        /* \"#utility.yul\":5544:5630   */\n      swap1\n      pop\n        /* \"#utility.yul\":5214:5637   */\n      swap4\n      swap3\n      pop\n      pop\n      pop\n      jump\t// out\n        /* \"#utility.yul\":5643:5823   */\n    tag_61:\n        /* \"#utility.yul\":5691:5768   */\n      0x4e487b7100000000000000000000000000000000000000000000000000000000\n        /* \"#utility.yul\":5688:5689   */\n      0x00\n        /* \"#utility.yul\":5681:5769   */\n      mstore\n        /* \"#utility.yul\":5788:5792   */\n      0x11\n        /* \"#utility.yul\":5785:5786   */\n      0x04\n        /* \"#utility.yul\":5778:5793   */\n      mstore\n        /* \"#utility.yul\":5812:5816   */\n      0x24\n        /* \"#utility.yul\":5809:5810   */\n      0x00\n        /* \"#utility.yul\":5802:5817   */\n      revert\n        /* \"#utility.yul\":5829:6134   */\n    tag_27:\n        /* \"#utility.yul\":5869:5872   */\n      0x00\n        /* \"#utility.yul\":5888:5908   */\n      tag_146\n        /* \"#utility.yul\":5906:5907   */\n      dup3\n        /* \"#utility.yul\":5888:5908   */\n      tag_40\n      jump\t// in\n    tag_146:\n        /* \"#utility.yul\":5883:5908   */\n      swap2\n      pop\n        /* \"#utility.yul\":5922:5942   */\n      tag_147\n        /* \"#utility.yul\":5940:5941   */\n      dup4\n        /* \"#utility.yul\":5922:5942   */\n      tag_40\n      jump\t// in\n    tag_147:\n        /* \"#utility.yul\":5917:5942   */\n      swap3\n      pop\n        /* \"#utility.yul\":6076:6077   */\n      dup3\n        /* \"#utility.yul\":6008:6074   */\n      0xffffffffffffffffffffffffffffffffffffffffffffffffffffffffffffffff\n        /* \"#utility.yul\":6004:6078   */\n      sub\n        /* \"#utility.yul\":6001:6002   */\n      dup3\n        /* \"#utility.yul\":5998:6079   */\n      gt\n        /* \"#utility.yul\":5995:6102   */\n      iszero\n      tag_148\n      jumpi\n        /* \"#utility.yul\":6082:6100   */\n      tag_149\n      tag_61\n      jump\t// in\n    tag_149:\n        /* \"#utility.yul\":5995:6102   */\n    tag_148:\n        /* \"#utility.yul\":6126:6127   */\n      dup3\n        /* \"#utility.yul\":6123:6124   */\n      dup3\n        /* \"#utility.yul\":6119:6128   */\n      add\n        /* \"#utility.yul\":6112:6128   */\n      swap1\n      pop\n        /* \"#utility.yul\":5829:6134   */\n      swap3\n      swap2\n      pop\n      pop\n      jump\t// out\n        /* \"#utility.yul\":6140:6320   */\n    tag_62:\n        /* \"#utility.yul\":6188:6265   */\n      0x4e487b7100000000000000000000000000000000000000000000000000000000\n        /* \"#utility.yul\":6185:6186   */\n      0x00\n        /* \"#utility.yul\":6178:6266   */\n      mstore\n        /* \"#utility.yul\":6285:6289   */\n      0x22\n        /* \"#utility.yul\":6282:6283   */\n      0x04\n        /* \"#utility.yul\":6275:6290   */\n      mstore\n        /* \"#utility.yul\":6309:6313   */\n      0x24\n        /* \"#utility.yul\":6306:6307   */\n      0x00\n        /* \"#utility.yul\":6299:6314   */\n      revert\n        /* \"#utility.yul\":6326:6646   */\n    tag_35:\n        /* \"#utility.yul\":6370:6376   */\n      0x00\n        /* \"#utility.yul\":6407:6408   */\n      0x02\n        /* \"#utility.yul\":6401:6405   */\n      dup3\n        /* \"#utility.yul\":6397:6409   */\n      div\n        /* \"#utility.yul\":6387:6409   */\n      swap1\n      pop\n        /* \"#utility.yul\":6454:6455   */\n      0x01\n        /* \"#utility.yul\":6448:6452   */\n      dup3\n        /* \"#utility.yul\":6444:6456   */\n      and\n        /* \"#utility.yul\":6475:6493   */\n      dup1\n        /* \"#utility.yul\":6465:6546   */\n      tag_152\n      jumpi\n        /* \"#utility.yul\":6531:6535   */\n      0x7f\n        /* \"#utility.yul\":6523:6529   */\n      dup3\n        /* \"#utility.yul\":6519:6536   */\n      and\n        /* \"#utility.yul\":6509:6536   */\n      swap2\n      pop\n        /* \"#utility.yul\":6465:6546   */\n    tag_152:\n        /* \"#utility.yul\":6593:6595   */\n      0x20\n        /* \"#utility.yul\":6585:6591   */\n      dup3\n        /* \"#utility.yul\":6582:6596   */\n      lt\n        /* \"#utility.yul\":6562:6580   */\n      dup2\n        /* \"#utility.yul\":6559:6597   */\n      sub\n        /* \"#utility.yul\":6556:6640   */\n      tag_153\n      jumpi\n        /* \"#utility.yul\":6612:6630   */\n      tag_154\n      tag_62\n      jump\t// in\n    tag_154:\n        /* \"#utility.yul\":6556:6640   */\n    tag_153:\n        /* \"#utility.yul\":6377:6646   */\n      pop\n        /* \"#utility.yul\":6326:6646   */\n      swap2\n      swap1\n      pop\n      jump\t// out\n        /* \"#utility.yul\":6652:6793   */\n    tag_63:\n        /* \"#utility.yul\":6701:6705   */\n      0x00\n        /* \"#utility.yul\":6724:6727   */\n      dup2\n        /* \"#utility.yul\":6716:6727   */\n      swap1\n      pop\n        /* \"#utility.yul\":6747:6750   */\n      dup2\n        /* \"#utility.yul\":6744:6745   */\n      0x00\n        /* \"#utility.yul\":6737:6751   */\n      mstore\n        /* \"#utility.yul\":6781:6785   */\n      0x20\n        /* \"#utility.yul\":6778:6779   */\n      0x00\n        /* \"#utility.yul\":6768:6786   */\n      keccak256\n        /* \"#utility.yul\":6760:6786   */\n      swap1\n      pop\n        /* \"#utility.yul\":6652:6793   */\n      swap2\n      swap1\n      pop\n      jump\t// out\n        /* \"#utility.yul\":6799:6892   */\n    tag_64:\n        /* \"#utility.yul\":6836:6842   */\n      0x00\n        /* \"#utility.yul\":6883:6885   */\n      0x20\n        /* \"#utility.yul\":6878:6880   */\n      0x1f\n        /* \"#utility.yul\":6871:6876   */\n      dup4\n        /* \"#utility.yul\":6867:6881   */\n      add\n        /* \"#utility.yul\":6863:6886   */\n      div\n        /* \"#utility.yul\":6853:6886   */\n      swap1\n      pop\n        /* \"#utility.yul\":6799:6892   */\n      swap2\n      swap1\n      pop\n      jump\t// out\n        /* \"#utility.yul\":6898:7005   */\n    tag_65:\n        /* \"#utility.yul\":6942:6950   */\n      0x00\n        /* \"#utility.yul\":6992:6997   */\n      dup3\n        /* \"#utility.yul\":6986:6990   */\n      dup3\n        /* \"#utility.yul\":6982:6998   */\n      shl\n        /* \"#utility.yul\":6961:6998   */\n      swap1\n      pop\n        /* \"#utility.yul\":6898:7005   */\n      swap3\n      swap2\n      pop\n      pop\n      jump\t// out\n        /* \"#utility.yul\":7011:7404   */\n    tag_66:\n        /* \"#utility.yul\":7080:7086   */\n      0x00\n        /* \"#utility.yul\":7130:7131   */\n      0x08\n        /* \"#utility.yul\":7118:7128   */\n      dup4\n        /* \"#utility.yul\":7114:7132   */\n      mul\n        /* \"#utility.yul\":7153:7250   */\n      tag_159\n        /* \"#utility.yul\":7183:7249   */\n      0xffffffffffffffffffffffffffffffffffffffffffffffffffffffffffffffff\n        /* \"#utility.yul\":7172:7181   */\n      dup3\n        /* \"#utility.yul\":7153:7250   */\n      tag_65\n      jump\t// in\n    tag_159:\n        /* \"#utility.yul\":7271:7310   */\n      tag_160\n        /* \"#utility.yul\":7301:7309   */\n      dup7\n        /* \"#utility.yul\":7290:7299   */\n      dup4\n        /* \"#utility.yul\":7271:7310   */\n      tag_65\n      jump\t// in\n    tag_160:\n        /* \"#utility.yul\":7259:7310   */\n      swap6\n      pop\n        /* \"#utility.yul\":7343:7347   */\n      dup1\n        /* \"#utility.yul\":7339:7348   */\n      not\n        /* \"#utility.yul\":7332:7337   */\n      dup5\n        /* \"#utility.yul\":7328:7349   */\n      and\n        /* \"#utility.yul\":7319:7349   */\n      swap4\n      pop\n        /* \"#utility.yul\":7392:7396   */\n      dup1\n        /* \"#utility.yul\":7382:7390   */\n      dup7\n        /* \"#utility.yul\":7378:7397   */\n      and\n        /* \"#utility.yul\":7371:7376   */\n      dup5\n        /* \"#utility.yul\":7368:7398   */\n      or\n        /* \"#utility.yul\":7358:7398   */\n      swap3\n      pop\n        /* \"#utility.yul\":7087:7404   */\n      pop\n      pop\n        /* \"#utility.yul\":7011:7404   */\n      swap4\n      swap3\n      pop\n      pop\n      pop\n      jump\t// out\n        /* \"#utility.yul\":7410:7470   */\n    tag_67:\n        /* \"#utility.yul\":7438:7441   */\n      0x00\n        /* \"#utility.yul\":7459:7464   */\n      dup2\n        /* \"#utility.yul\":7452:7464   */\n      swap1\n      pop\n        /* \"#utility.yul\":7410:7470   */\n      swap2\n      swap1\n      pop\n      jump\t// out\n        /* \"#utility.yul\":7476:7618   */\n    tag_68:\n        /* \"#utility.yul\":7526:7535   */\n      0x00\n        /* \"#utility.yul\":7559:7612   */\n      tag_163\n        /* \"#utility.yul\":7577:7611   */\n      tag_164\n        /* \"#utility.yul\":7586:7610   */\n      tag_165\n        /* \"#utility.yul\":7604:7609   */\n      dup5\n        /* \"#utility.yul\":7586:7610   */\n      tag_40\n      jump\t// in\n    tag_165:\n        /* \"#utility.yul\":7577:7611   */\n      tag_67\n      jump\t// in\n    tag_164:\n        /* \"#utility.yul\":7559:7612   */\n      tag_40\n      jump\t// in\n    tag_163:\n        /* \"#utility.yul\":7546:7612   */\n      swap1\n      pop\n        /* \"#utility.yul\":7476:7618   */\n      swap2\n      swap1\n      pop\n      jump\t// out\n        /* \"#utility.yul\":7624:7699   */\n    tag_69:\n        /* \"#utility.yul\":7667:7670   */\n      0x00\n        /* \"#utility.yul\":7688:7693   */\n      dup2\n        /* \"#utility.yul\":7681:7693   */\n      swap1\n      pop\n        /* \"#utility.yul\":7624:7699   */\n      swap2\n      swap1\n      pop\n      jump\t// out\n        /* \"#utility.yul\":7705:7974   */\n    tag_70:\n        /* \"#utility.yul\":7815:7854   */\n      tag_168\n        /* \"#utility.yul\":7846:7853   */\n      dup4\n        /* \"#utility.yul\":7815:7854   */\n      tag_68\n      jump\t// in\n    tag_168:\n        /* \"#utility.yul\":7876:7967   */\n      tag_169\n        /* \"#utility.yul\":7925:7966   */\n      tag_170\n        /* \"#utility.yul\":7949:7965   */\n      dup3\n        /* \"#utility.yul\":7925:7966   */\n      tag_69\n      jump\t// in\n    tag_170:\n        /* \"#utility.yul\":7917:7923   */\n      dup5\n        /* \"#utility.yul\":7910:7914   */\n      dup5\n        /* \"#utility.yul\":7904:7915   */\n      sload\n        /* \"#utility.yul\":7876:7967   */\n      tag_66\n      jump\t// in\n    tag_169:\n        /* \"#utility.yul\":7870:7874   */\n      dup3\n        /* \"#utility.yul\":7863:7968   */\n      sstore\n        /* \"#utility.yul\":7781:7974   */\n      pop\n        /* \"#utility.yul\":7705:7974   */\n      pop\n      pop\n      pop\n      jump\t// out\n        /* \"#utility.yul\":7980:8053   */\n    tag_71:\n        /* \"#utility.yul\":8025:8028   */\n      0x00\n        /* \"#utility.yul\":7980:8053   */\n      swap1\n      jump\t// out\n        /* \"#utility.yul\":8059:8248   */\n    tag_72:\n        /* \"#utility.yul\":8136:8168   */\n      tag_173\n      tag_71\n      jump\t// in\n    tag_173:\n        /* \"#utility.yul\":8177:8242   */\n      tag_174\n        /* \"#utility.yul\":8235:8241   */\n      dup2\n        /* \"#utility.yul\":8227:8233   */\n      dup5\n        /* \"#utility.yul\":8221:8225   */\n      dup5\n        /* \"#utility.yul\":8177:8242   */\n      tag_70\n      jump\t// in\n    tag_174:\n        /* \"#utility.yul\":8112:8248   */\n      pop\n        /* \"#utility.yul\":8059:8248   */\n      pop\n      pop\n      jump\t// out\n        /* \"#utility.yul\":8254:8440   */\n    tag_73:\n        /* \"#utility.yul\":8314:8434   */\n    tag_176:\n        /* \"#utility.yul\":8331:8334   */\n      dup2\n        /* \"#utility.yul\":8324:8329   */\n      dup2\n        /* \"#utility.yul\":8321:8335   */\n      lt\n        /* \"#utility.yul\":8314:8434   */\n      iszero\n      tag_178\n      jumpi\n        /* \"#utility.yul\":8385:8424   */\n      tag_179\n        /* \"#utility.yul\":8422:8423   */\n      0x00\n        /* \"#utility.yul\":8415:8420   */\n      dup3\n        /* \"#utility.yul\":8385:8424   */\n      tag_72\n      jump\t// in\n    tag_179:\n        /* \"#utility.yul\":8358:8359   */\n      0x01\n        /* \"#utility.yul\":8351:8356   */\n      dup2\n        /* \"#utility.yul\":8347:8360   */\n      add\n        /* \"#utility.yul\":8338:8360   */\n      swap1\n      pop\n        /* \"#utility.yul\":8314:8434   */\n      jump(tag_176)\n    tag_178:\n        /* \"#utility.yul\":8254:8440   */\n      pop\n      pop\n      jump\t// out\n        /* \"#utility.yul\":8446:8989   */\n    tag_74:\n        /* \"#utility.yul\":8547:8549   */\n      0x1f\n        /* \"#utility.yul\":8542:8545   */\n      dup3\n        /* \"#utility.yul\":8539:8550   */\n      gt\n        /* \"#utility.yul\":8536:8982   */\n      iszero\n      tag_181\n      jumpi\n        /* \"#utility.yul\":8581:8619   */\n      tag_182\n        /* \"#utility.yul\":8613:8618   */\n      dup2\n        /* \"#utility.yul\":8581:8619   */\n      tag_63\n      jump\t// in\n    tag_182:\n        /* \"#utility.yul\":8665:8694   */\n      tag_183\n        /* \"#utility.yul\":8683:8693   */\n      dup5\n        /* \"#utility.yul\":8665:8694   */\n      tag_64\n      jump\t// in\n    tag_183:\n        /* \"#utility.yul\":8655:8663   */\n      dup2\n        /* \"#utility.yul\":8651:8695   */\n      add\n        /* \"#utility.yul\":8848:8850   */\n      0x20\n        /* \"#utility.yul\":8836:8846   */\n      dup6\n        /* \"#utility.yul\":8833:8851   */\n      lt\n        /* \"#utility.yul\":8830:8879   */\n      iszero\n      tag_184\n      jumpi\n        /* \"#utility.yul\":8869:8877   */\n      dup2\n        /* \"#utility.yul\":8854:8877   */\n      swap1\n      pop\n        /* \"#utility.yul\":8830:8879   */\n    tag_184:\n        /* \"#utility.yul\":8892:8972   */\n      tag_185\n        /* \"#utility.yul\":8948:8970   */\n      tag_186\n        /* \"#utility.yul\":8966:8969   */\n      dup6\n        /* \"#utility.yul\":8948:8970   */\n      tag_64\n      jump\t// in\n    tag_186:\n        /* \"#utility.yul\":8938:8946   */\n      dup4\n        /* \"#utility.yul\":8934:8971   */\n      add\n        /* \"#utility.yul\":8921:8932   */\n      dup3\n        /* \"#utility.yul\":8892:8972   */\n      tag_73\n      jump\t// in\n    tag_185:\n        /* \"#utility.yul\":8551:8982   */\n      pop\n      pop\n        /* \"#utility.yul\":8536:8982   */\n    tag_181:\n        /* \"#utility.yul\":8446:8989   */\n      pop\n      pop\n      pop\n      jump\t// out\n        /* \"#utility.yul\":8995:9112   */\n    tag_75:\n        /* \"#utility.yul\":9049:9057   */\n      0x00\n        /* \"#utility.yul\":9099:9104   */\n      dup3\n        /* \"#utility.yul\":9093:9097   */\n      dup3\n        /* \"#utility.yul\":9089:9105   */\n      shr\n        /* \"#utility.yul\":9068:9105   */\n      swap1\n      pop\n        /* \"#utility.yul\":8995:9112   */\n      swap3\n      swap2\n      pop\n      pop\n      jump\t// out\n        /* \"#utility.yul\":9118:9287   */\n    tag_76:\n        /* \"#utility.yul\":9162:9168   */\n      0x00\n        /* \"#utility.yul\":9195:9246   */\n      tag_189\n        /* \"#utility.yul\":9243:9244   */\n      0x00\n        /* \"#utility.yul\":9239:9245   */\n      not\n        /* \"#utility.yul\":9231:9236   */\n      dup5\n        /* \"#utility.yul\":9228:9229   */\n      0x08\n        /* \"#utility.yul\":9224:9237   */\n      mul\n        /* \"#utility.yul\":9195:9246   */\n      tag_75\n      jump\t// in\n    tag_189:\n        /* \"#utility.yul\":9191:9247   */\n      not\n        /* \"#utility.yul\":9276:9280   */\n      dup1\n        /* \"#utility.yul\":9270:9274   */\n      dup4\n        /* \"#utility.yul\":9266:9281   */\n      and\n        /* \"#utility.yul\":9256:9281   */\n      swap2\n      pop\n        /* \"#utility.yul\":9169:9287   */\n      pop\n        /* \"#utility.yul\":9118:9287   */\n      swap3\n      swap2\n      pop\n      pop\n      jump\t// out\n        /* \"#utility.yul\":9292:9587   */\n    tag_77:\n        /* \"#utility.yul\":9368:9372   */\n      0x00\n        /* \"#utility.yul\":9514:9543   */\n      tag_191\n        /* \"#utility.yul\":9539:9542   */\n      dup4\n        /* \"#utility.yul\":9533:9537   */\n      dup4\n        /* \"#utility.yul\":9514:9543   */\n      tag_76\n      jump\t// in\n    tag_191:\n        /* \"#utility.yul\":9506:9543   */\n      swap2\n      pop\n        /* \"#utility.yul\":9576:9579   */\n      dup3\n        /* \"#utility.yul\":9573:9574   */\n      0x02\n        /* \"#utility.yul\":9569:9580   */\n      mul\n        /* \"#utility.yul\":9563:9567   */\n      dup3\n        /* \"#utility.yul\":9560:9581   */\n      or\n        /* \"#utility.yul\":9552:9581   */\n      swap1\n      pop\n        /* \"#utility.yul\":9292:9587   */\n      swap3\n      swap2\n      pop\n      pop\n      jump\t// out\n        /* \"#utility.yul\":9592:10987   */\n    tag_31:\n        /* \"#utility.yul\":9709:9746   */\n      tag_193\n        /* \"#utility.yul\":9742:9745   */\n      dup3\n        /* \"#utility.yul\":9709:9746   */\n      tag_57\n      jump\t// in\n    tag_193:\n        /* \"#utility.yul\":9811:9829   */\n      0xffffffffffffffff\n        /* \"#utility.yul\":9803:9809   */\n      dup2\n        /* \"#utility.yul\":9800:9830   */\n      gt\n        /* \"#utility.yul\":9797:9853   */\n      iszero\n      tag_194\n      jumpi\n        /* \"#utility.yul\":9833:9851   */\n      tag_195\n      tag_50\n      jump\t// in\n    tag_195:\n        /* \"#utility.yul\":9797:9853   */\n    tag_194:\n        /* \"#utility.yul\":9877:9915   */\n      tag_196\n        /* \"#utility.yul\":9909:9913   */\n      dup3\n        /* \"#utility.yul\":9903:9914   */\n      sload\n        /* \"#utility.yul\":9877:9915   */\n      tag_35\n      jump\t// in\n    tag_196:\n        /* \"#utility.yul\":9962:10029   */\n      tag_197\n        /* \"#utility.yul\":10022:10028   */\n      dup3\n        /* \"#utility.yul\":10014:10020   */\n      dup3\n        /* \"#utility.yul\":10008:10012   */\n      dup6\n        /* \"#utility.yul\":9962:10029   */\n      tag_74\n      jump\t// in\n    tag_197:\n        /* \"#utility.yul\":10056:10057   */\n      0x00\n        /* \"#utility.yul\":10080:10084   */\n      0x20\n        /* \"#utility.yul\":10067:10084   */\n      swap1\n      pop\n        /* \"#utility.yul\":10112:10114   */\n      0x1f\n        /* \"#utility.yul\":10104:10110   */\n      dup4\n        /* \"#utility.yul\":10101:10115   */\n      gt\n        /* \"#utility.yul\":10129:10130   */\n      0x01\n        /* \"#utility.yul\":10124:10742   */\n      dup2\n      eq\n      tag_199\n      jumpi\n        /* \"#utility.yul\":10786:10787   */\n      0x00\n        /* \"#utility.yul\":10803:10809   */\n      dup5\n        /* \"#utility.yul\":10800:10877   */\n      iszero\n      tag_200\n      jumpi\n        /* \"#utility.yul\":10852:10861   */\n      dup3\n        /* \"#utility.yul\":10847:10850   */\n      dup8\n        /* \"#utility.yul\":10843:10862   */\n      add\n        /* \"#utility.yul\":10837:10863   */\n      mload\n        /* \"#utility.yul\":10828:10863   */\n      swap1\n      pop\n        /* \"#utility.yul\":10800:10877   */\n    tag_200:\n        /* \"#utility.yul\":10903:10970   */\n      tag_201\n        /* \"#utility.yul\":10963:10969   */\n      dup6\n        /* \"#utility.yul\":10956:10961   */\n      dup3\n        /* \"#utility.yul\":10903:10970   */\n      tag_77\n      jump\t// in\n    tag_201:\n        /* \"#utility.yul\":10897:10901   */\n      dup7\n        /* \"#utility.yul\":10890:10971   */\n      sstore\n        /* \"#utility.yul\":10759:10981   */\n      pop\n        /* \"#utility.yul\":10094:10981   */\n      jump(tag_198)\n        /* \"#utility.yul\":10124:10742   */\n    tag_199:\n        /* \"#utility.yul\":10176:10180   */\n      0x1f\n        /* \"#utility.yul\":10172:10181   */\n      not\n        /* \"#utility.yul\":10164:10170   */\n      dup5\n        /* \"#utility.yul\":10160:10182   */\n      and\n        /* \"#utility.yul\":10210:10247   */\n      tag_202\n        /* \"#utility.yul\":10242:10246   */\n      dup7\n        /* \"#utility.yul\":10210:10247   */\n      tag_63\n      jump\t// in\n    tag_202:\n        /* \"#utility.yul\":10269:10270   */\n      0x00\n        /* \"#utility.yul\":10283:10491   */\n    tag_203:\n        /* \"#utility.yul\":10297:10304   */\n      dup3\n        /* \"#utility.yul\":10294:10295   */\n      dup2\n        /* \"#utility.yul\":10291:10305   */\n      lt\n        /* \"#utility.yul\":10283:10491   */\n      iszero\n      tag_205\n      jumpi\n        /* \"#utility.yul\":10376:10385   */\n      dup5\n        /* \"#utility.yul\":10371:10374   */\n      dup10\n        /* \"#utility.yul\":10367:10386   */\n      add\n        /* \"#utility.yul\":10361:10387   */\n      mload\n        /* \"#utility.yul\":10353:10359   */\n      dup3\n        /* \"#utility.yul\":10346:10388   */\n      sstore\n        /* \"#utility.yul\":10427:10428   */\n      0x01\n        /* \"#utility.yul\":10419:10425   */\n      dup3\n        /* \"#utility.yul\":10415:10429   */\n      add\n        /* \"#utility.yul\":10405:10429   */\n      swap2\n      pop\n        /* \"#utility.yul\":10474:10476   */\n      0x20\n        /* \"#utility.yul\":10463:10472   */\n      dup6\n        /* \"#utility.yul\":10459:10477   */\n      add\n        /* \"#utility.yul\":10446:10477   */\n      swap5\n      pop\n        /* \"#utility.yul\":10320:10324   */\n      0x20\n        /* \"#utility.yul\":10317:10318   */\n      dup2\n        /* \"#utility.yul\":10313:10325   */\n      add\n        /* \"#utility.yul\":10308:10325   */\n      swap1\n      pop\n        /* \"#utility.yul\":10283:10491   */\n      jump(tag_203)\n    tag_205:\n        /* \"#utility.yul\":10519:10525   */\n      dup7\n        /* \"#utility.yul\":10510:10517   */\n      dup4\n        /* \"#utility.yul\":10507:10526   */\n      lt\n        /* \"#utility.yul\":10504:10683   */\n      iszero\n      tag_206\n      jumpi\n        /* \"#utility.yul\":10577:10586   */\n      dup5\n        /* \"#utility.yul\":10572:10575   */\n      dup10\n        /* \"#utility.yul\":10568:10587   */\n      add\n        /* \"#utility.yul\":10562:10588   */\n      mload\n        /* \"#utility.yul\":10620:10668   */\n      tag_207\n        /* \"#utility.yul\":10662:10666   */\n      0x1f\n        /* \"#utility.yul\":10654:10660   */\n      dup10\n        /* \"#utility.yul\":10650:10667   */\n      and\n        /* \"#utility.yul\":10639:10648   */\n      dup3\n        /* \"#utility.yul\":10620:10668   */\n      tag_76\n      jump\t// in\n    tag_207:\n        /* \"#utility.yul\":10612:10618   */\n      dup4\n        /* \"#utility.yul\":10605:10669   */\n      sstore\n        /* \"#utility.yul\":10527:10683   */\n      pop\n        /* \"#utility.yul\":10504:10683   */\n    tag_206:\n        /* \"#utility.yul\":10729:10730   */\n      0x01\n        /* \"#utility.yul\":10725:10726   */\n      0x02\n        /* \"#utility.yul\":10717:10723   */\n      dup9\n        /* \"#utility.yul\":10713:10727   */\n      mul\n        /* \"#utility.yul\":10709:10731   */\n      add\n        /* \"#utility.yul\":10703:10707   */\n      dup9\n        /* \"#utility.yul\":10696:10732   */\n      sstore\n        /* \"#utility.yul\":10131:10742   */\n      pop\n      pop\n      pop\n        /* \"#utility.yul\":10094:10981   */\n    tag_198:\n      pop\n        /* \"#utility.yul\":9684:10987   */\n      pop\n      pop\n      pop\n        /* \"#utility.yul\":9592:10987   */\n      pop\n      pop\n      jump\t// out\n\n    auxdata: 0xa2646970667358221220d97d60b21bb80c3e9f937bf6957792580c64d9978ee8b8e83c75d4fdd505b60864736f6c634300080f0033\n}\n",
				"bytecode": {
					"linkReferences": {},
					"object": "608060405234801561001057600080fd5b506108b6806100206000396000f3fe608060405234801561001057600080fd5b506004361061004c5760003560e01c80632e64cec1146100515780636057361d1461006f5780636f760f411461008b5780639e7a13ad146100a7575b600080fd5b6100596100d8565b604051610066919061023b565b60405180910390f35b61008960048036038101906100849190610296565b6100e1565b005b6100a560048036038101906100a09190610409565b610100565b005b6100c160048036038101906100bc9190610296565b610166565b6040516100cf9291906104ed565b60405180910390f35b60008054905090565b8060008190555060016000546100f7919061054c565b60008190555050565b6001604051806040016040528083815260200184815250908060018154018082558091505060019003906000526020600020906002020160009091909190915060008201518160000155602082015181600101908161015f91906107ae565b5050505050565b6001818154811061017657600080fd5b906000526020600020906002020160009150905080600001549080600101805461019f906105d1565b80601f01602080910402602001604051908101604052809291908181526020018280546101cb906105d1565b80156102185780601f106101ed57610100808354040283529160200191610218565b820191906000526020600020905b8154815290600101906020018083116101fb57829003601f168201915b5050505050905082565b6000819050919050565b61023581610222565b82525050565b6000602082019050610250600083018461022c565b92915050565b6000604051905090565b600080fd5b600080fd5b61027381610222565b811461027e57600080fd5b50565b6000813590506102908161026a565b92915050565b6000602082840312156102ac576102ab610260565b5b60006102ba84828501610281565b91505092915050565b600080fd5b600080fd5b6000601f19601f8301169050919050565b7f4e487b7100000000000000000000000000000000000000000000000000000000600052604160045260246000fd5b610316826102cd565b810181811067ffffffffffffffff82111715610335576103346102de565b5b80604052505050565b6000610348610256565b9050610354828261030d565b919050565b600067ffffffffffffffff821115610374576103736102de565b5b61037d826102cd565b9050602081019050919050565b82818337600083830152505050565b60006103ac6103a784610359565b61033e565b9050828152602081018484840111156103c8576103c76102c8565b5b6103d384828561038a565b509392505050565b600082601f8301126103f0576103ef6102c3565b5b8135610400848260208601610399565b91505092915050565b600080604083850312156104205761041f610260565b5b600083013567ffffffffffffffff81111561043e5761043d610265565b5b61044a858286016103db565b925050602061045b85828601610281565b9150509250929050565b600081519050919050565b600082825260208201905092915050565b60005b8381101561049f578082015181840152602081019050610484565b838111156104ae576000848401525b50505050565b60006104bf82610465565b6104c98185610470565b93506104d9818560208601610481565b6104e2816102cd565b840191505092915050565b6000604082019050610502600083018561022c565b818103602083015261051481846104b4565b90509392505050565b7f4e487b7100000000000000000000000000000000000000000000000000000000600052601160045260246000fd5b600061055782610222565b915061056283610222565b9250827fffffffffffffffffffffffffffffffffffffffffffffffffffffffffffffffff038211156105975761059661051d565b5b828201905092915050565b7f4e487b7100000000000000000000000000000000000000000000000000000000600052602260045260246000fd5b600060028204905060018216806105e957607f821691505b6020821081036105fc576105fb6105a2565b5b50919050565b60008190508160005260206000209050919050565b60006020601f8301049050919050565b600082821b905092915050565b6000600883026106647fffffffffffffffffffffffffffffffffffffffffffffffffffffffffffffffff82610627565b61066e8683610627565b95508019841693508086168417925050509392505050565b6000819050919050565b60006106ab6106a66106a184610222565b610686565b610222565b9050919050565b6000819050919050565b6106c583610690565b6106d96106d1826106b2565b848454610634565b825550505050565b600090565b6106ee6106e1565b6106f98184846106bc565b505050565b5b8181101561071d576107126000826106e6565b6001810190506106ff565b5050565b601f8211156107625761073381610602565b61073c84610617565b8101602085101561074b578190505b61075f61075785610617565b8301826106fe565b50505b505050565b600082821c905092915050565b600061078560001984600802610767565b1980831691505092915050565b600061079e8383610774565b9150826002028217905092915050565b6107b782610465565b67ffffffffffffffff8111156107d0576107cf6102de565b5b6107da82546105d1565b6107e5828285610721565b600060209050601f8311600181146108185760008415610806578287015190505b6108108582610792565b865550610878565b601f19841661082686610602565b60005b8281101561084e57848901518255600182019150602085019450602081019050610829565b8683101561086b5784890151610867601f891682610774565b8355505b6001600288020188555050505b50505050505056fea2646970667358221220d97d60b21bb80c3e9f937bf6957792580c64d9978ee8b8e83c75d4fdd505b60864736f6c634300080f0033",
					"opcodes": "PUSH1 0x80 PUSH1 0x40 MSTORE CALLVALUE DUP1 ISZERO PUSH2 0x10 JUMPI PUSH1 0x0 DUP1 REVERT JUMPDEST POP PUSH2 0x8B6 DUP1 PUSH2 0x20 PUSH1 0x0 CODECOPY PUSH1 0x0 RETURN INVALID PUSH1 0x80 PUSH1 0x40 MSTORE CALLVALUE DUP1 ISZERO PUSH2 0x10 JUMPI PUSH1 0x0 DUP1 REVERT JUMPDEST POP PUSH1 0x4 CALLDATASIZE LT PUSH2 0x4C JUMPI PUSH1 0x0 CALLDATALOAD PUSH1 0xE0 SHR DUP1 PUSH4 0x2E64CEC1 EQ PUSH2 0x51 JUMPI DUP1 PUSH4 0x6057361D EQ PUSH2 0x6F JUMPI DUP1 PUSH4 0x6F760F41 EQ PUSH2 0x8B JUMPI DUP1 PUSH4 0x9E7A13AD EQ PUSH2 0xA7 JUMPI JUMPDEST PUSH1 0x0 DUP1 REVERT JUMPDEST PUSH2 0x59 PUSH2 0xD8 JUMP JUMPDEST PUSH1 0x40 MLOAD PUSH2 0x66 SWAP2 SWAP1 PUSH2 0x23B JUMP JUMPDEST PUSH1 0x40 MLOAD DUP1 SWAP2 SUB SWAP1 RETURN JUMPDEST PUSH2 0x89 PUSH1 0x4 DUP1 CALLDATASIZE SUB DUP2 ADD SWAP1 PUSH2 0x84 SWAP2 SWAP1 PUSH2 0x296 JUMP JUMPDEST PUSH2 0xE1 JUMP JUMPDEST STOP JUMPDEST PUSH2 0xA5 PUSH1 0x4 DUP1 CALLDATASIZE SUB DUP2 ADD SWAP1 PUSH2 0xA0 SWAP2 SWAP1 PUSH2 0x409 JUMP JUMPDEST PUSH2 0x100 JUMP JUMPDEST STOP JUMPDEST PUSH2 0xC1 PUSH1 0x4 DUP1 CALLDATASIZE SUB DUP2 ADD SWAP1 PUSH2 0xBC SWAP2 SWAP1 PUSH2 0x296 JUMP JUMPDEST PUSH2 0x166 JUMP JUMPDEST PUSH1 0x40 MLOAD PUSH2 0xCF SWAP3 SWAP2 SWAP1 PUSH2 0x4ED JUMP JUMPDEST PUSH1 0x40 MLOAD DUP1 SWAP2 SUB SWAP1 RETURN JUMPDEST PUSH1 0x0 DUP1 SLOAD SWAP1 POP SWAP1 JUMP JUMPDEST DUP1 PUSH1 0x0 DUP2 SWAP1 SSTORE POP PUSH1 0x1 PUSH1 0x0 SLOAD PUSH2 0xF7 SWAP2 SWAP1 PUSH2 0x54C JUMP JUMPDEST PUSH1 0x0 DUP2 SWAP1 SSTORE POP POP JUMP JUMPDEST PUSH1 0x1 PUSH1 0x40 MLOAD DUP1 PUSH1 0x40 ADD PUSH1 0x40 MSTORE DUP1 DUP4 DUP2 MSTORE PUSH1 0x20 ADD DUP5 DUP2 MSTORE POP SWAP1 DUP1 PUSH1 0x1 DUP2 SLOAD ADD DUP1 DUP3 SSTORE DUP1 SWAP2 POP POP PUSH1 0x1 SWAP1 SUB SWAP1 PUSH1 0x0 MSTORE PUSH1 0x20 PUSH1 0x0 KECCAK256 SWAP1 PUSH1 0x2 MUL ADD PUSH1 0x0 SWAP1 SWAP2 SWAP1 SWAP2 SWAP1 SWAP2 POP PUSH1 0x0 DUP3 ADD MLOAD DUP2 PUSH1 0x0 ADD SSTORE PUSH1 0x20 DUP3 ADD MLOAD DUP2 PUSH1 0x1 ADD SWAP1 DUP2 PUSH2 0x15F SWAP2 SWAP1 PUSH2 0x7AE JUMP JUMPDEST POP POP POP POP POP JUMP JUMPDEST PUSH1 0x1 DUP2 DUP2 SLOAD DUP2 LT PUSH2 0x176 JUMPI PUSH1 0x0 DUP1 REVERT JUMPDEST SWAP1 PUSH1 0x0 MSTORE PUSH1 0x20 PUSH1 0x0 KECCAK256 SWAP1 PUSH1 0x2 MUL ADD PUSH1 0x0 SWAP2 POP SWAP1 POP DUP1 PUSH1 0x0 ADD SLOAD SWAP1 DUP1 PUSH1 0x1 ADD DUP1 SLOAD PUSH2 0x19F SWAP1 PUSH2 0x5D1 JUMP JUMPDEST DUP1 PUSH1 0x1F ADD PUSH1 0x20 DUP1 SWAP2 DIV MUL PUSH1 0x20 ADD PUSH1 0x40 MLOAD SWAP1 DUP2 ADD PUSH1 0x40 MSTORE DUP1 SWAP3 SWAP2 SWAP1 DUP2 DUP2 MSTORE PUSH1 0x20 ADD DUP3 DUP1 SLOAD PUSH2 0x1CB SWAP1 PUSH2 0x5D1 JUMP JUMPDEST DUP1 ISZERO PUSH2 0x218 JUMPI DUP1 PUSH1 0x1F LT PUSH2 0x1ED JUMPI PUSH2 0x100 DUP1 DUP4 SLOAD DIV MUL DUP4 MSTORE SWAP2 PUSH1 0x20 ADD SWAP2 PUSH2 0x218 JUMP JUMPDEST DUP3 ADD SWAP2 SWAP1 PUSH1 0x0 MSTORE PUSH1 0x20 PUSH1 0x0 KECCAK256 SWAP1 JUMPDEST DUP2 SLOAD DUP2 MSTORE SWAP1 PUSH1 0x1 ADD SWAP1 PUSH1 0x20 ADD DUP1 DUP4 GT PUSH2 0x1FB JUMPI DUP3 SWAP1 SUB PUSH1 0x1F AND DUP3 ADD SWAP2 JUMPDEST POP POP POP POP POP SWAP1 POP DUP3 JUMP JUMPDEST PUSH1 0x0 DUP2 SWAP1 POP SWAP2 SWAP1 POP JUMP JUMPDEST PUSH2 0x235 DUP2 PUSH2 0x222 JUMP JUMPDEST DUP3 MSTORE POP POP JUMP JUMPDEST PUSH1 0x0 PUSH1 0x20 DUP3 ADD SWAP1 POP PUSH2 0x250 PUSH1 0x0 DUP4 ADD DUP5 PUSH2 0x22C JUMP JUMPDEST SWAP3 SWAP2 POP POP JUMP JUMPDEST PUSH1 0x0 PUSH1 0x40 MLOAD SWAP1 POP SWAP1 JUMP JUMPDEST PUSH1 0x0 DUP1 REVERT JUMPDEST PUSH1 0x0 DUP1 REVERT JUMPDEST PUSH2 0x273 DUP2 PUSH2 0x222 JUMP JUMPDEST DUP2 EQ PUSH2 0x27E JUMPI PUSH1 0x0 DUP1 REVERT JUMPDEST POP JUMP JUMPDEST PUSH1 0x0 DUP2 CALLDATALOAD SWAP1 POP PUSH2 0x290 DUP2 PUSH2 0x26A JUMP JUMPDEST SWAP3 SWAP2 POP POP JUMP JUMPDEST PUSH1 0x0 PUSH1 0x20 DUP3 DUP5 SUB SLT ISZERO PUSH2 0x2AC JUMPI PUSH2 0x2AB PUSH2 0x260 JUMP JUMPDEST JUMPDEST PUSH1 0x0 PUSH2 0x2BA DUP5 DUP3 DUP6 ADD PUSH2 0x281 JUMP JUMPDEST SWAP2 POP POP SWAP3 SWAP2 POP POP JUMP JUMPDEST PUSH1 0x0 DUP1 REVERT JUMPDEST PUSH1 0x0 DUP1 REVERT JUMPDEST PUSH1 0x0 PUSH1 0x1F NOT PUSH1 0x1F DUP4 ADD AND SWAP1 POP SWAP2 SWAP1 POP JUMP JUMPDEST PUSH32 0x4E487B7100000000000000000000000000000000000000000000000000000000 PUSH1 0x0 MSTORE PUSH1 0x41 PUSH1 0x4 MSTORE PUSH1 0x24 PUSH1 0x0 REVERT JUMPDEST PUSH2 0x316 DUP3 PUSH2 0x2CD JUMP JUMPDEST DUP2 ADD DUP2 DUP2 LT PUSH8 0xFFFFFFFFFFFFFFFF DUP3 GT OR ISZERO PUSH2 0x335 JUMPI PUSH2 0x334 PUSH2 0x2DE JUMP JUMPDEST JUMPDEST DUP1 PUSH1 0x40 MSTORE POP POP POP JUMP JUMPDEST PUSH1 0x0 PUSH2 0x348 PUSH2 0x256 JUMP JUMPDEST SWAP1 POP PUSH2 0x354 DUP3 DUP3 PUSH2 0x30D JUMP JUMPDEST SWAP2 SWAP1 POP JUMP JUMPDEST PUSH1 0x0 PUSH8 0xFFFFFFFFFFFFFFFF DUP3 GT ISZERO PUSH2 0x374 JUMPI PUSH2 0x373 PUSH2 0x2DE JUMP JUMPDEST JUMPDEST PUSH2 0x37D DUP3 PUSH2 0x2CD JUMP JUMPDEST SWAP1 POP PUSH1 0x20 DUP2 ADD SWAP1 POP SWAP2 SWAP1 POP JUMP JUMPDEST DUP3 DUP2 DUP4 CALLDATACOPY PUSH1 0x0 DUP4 DUP4 ADD MSTORE POP POP POP JUMP JUMPDEST PUSH1 0x0 PUSH2 0x3AC PUSH2 0x3A7 DUP5 PUSH2 0x359 JUMP JUMPDEST PUSH2 0x33E JUMP JUMPDEST SWAP1 POP DUP3 DUP2 MSTORE PUSH1 0x20 DUP2 ADD DUP5 DUP5 DUP5 ADD GT ISZERO PUSH2 0x3C8 JUMPI PUSH2 0x3C7 PUSH2 0x2C8 JUMP JUMPDEST JUMPDEST PUSH2 0x3D3 DUP5 DUP3 DUP6 PUSH2 0x38A JUMP JUMPDEST POP SWAP4 SWAP3 POP POP POP JUMP JUMPDEST PUSH1 0x0 DUP3 PUSH1 0x1F DUP4 ADD SLT PUSH2 0x3F0 JUMPI PUSH2 0x3EF PUSH2 0x2C3 JUMP JUMPDEST JUMPDEST DUP2 CALLDATALOAD PUSH2 0x400 DUP5 DUP3 PUSH1 0x20 DUP7 ADD PUSH2 0x399 JUMP JUMPDEST SWAP2 POP POP SWAP3 SWAP2 POP POP JUMP JUMPDEST PUSH1 0x0 DUP1 PUSH1 0x40 DUP4 DUP6 SUB SLT ISZERO PUSH2 0x420 JUMPI PUSH2 0x41F PUSH2 0x260 JUMP JUMPDEST JUMPDEST PUSH1 0x0 DUP4 ADD CALLDATALOAD PUSH8 0xFFFFFFFFFFFFFFFF DUP2 GT ISZERO PUSH2 0x43E JUMPI PUSH2 0x43D PUSH2 0x265 JUMP JUMPDEST JUMPDEST PUSH2 0x44A DUP6 DUP3 DUP7 ADD PUSH2 0x3DB JUMP JUMPDEST SWAP3 POP POP PUSH1 0x20 PUSH2 0x45B DUP6 DUP3 DUP7 ADD PUSH2 0x281 JUMP JUMPDEST SWAP2 POP POP SWAP3 POP SWAP3 SWAP1 POP JUMP JUMPDEST PUSH1 0x0 DUP2 MLOAD SWAP1 POP SWAP2 SWAP1 POP JUMP JUMPDEST PUSH1 0x0 DUP3 DUP3 MSTORE PUSH1 0x20 DUP3 ADD SWAP1 POP SWAP3 SWAP2 POP POP JUMP JUMPDEST PUSH1 0x0 JUMPDEST DUP4 DUP2 LT ISZERO PUSH2 0x49F JUMPI DUP1 DUP3 ADD MLOAD DUP2 DUP5 ADD MSTORE PUSH1 0x20 DUP2 ADD SWAP1 POP PUSH2 0x484 JUMP JUMPDEST DUP4 DUP2 GT ISZERO PUSH2 0x4AE JUMPI PUSH1 0x0 DUP5 DUP5 ADD MSTORE JUMPDEST POP POP POP POP JUMP JUMPDEST PUSH1 0x0 PUSH2 0x4BF DUP3 PUSH2 0x465 JUMP JUMPDEST PUSH2 0x4C9 DUP2 DUP6 PUSH2 0x470 JUMP JUMPDEST SWAP4 POP PUSH2 0x4D9 DUP2 DUP6 PUSH1 0x20 DUP7 ADD PUSH2 0x481 JUMP JUMPDEST PUSH2 0x4E2 DUP2 PUSH2 0x2CD JUMP JUMPDEST DUP5 ADD SWAP2 POP POP SWAP3 SWAP2 POP POP JUMP JUMPDEST PUSH1 0x0 PUSH1 0x40 DUP3 ADD SWAP1 POP PUSH2 0x502 PUSH1 0x0 DUP4 ADD DUP6 PUSH2 0x22C JUMP JUMPDEST DUP2 DUP2 SUB PUSH1 0x20 DUP4 ADD MSTORE PUSH2 0x514 DUP2 DUP5 PUSH2 0x4B4 JUMP JUMPDEST SWAP1 POP SWAP4 SWAP3 POP POP POP JUMP JUMPDEST PUSH32 0x4E487B7100000000000000000000000000000000000000000000000000000000 PUSH1 0x0 MSTORE PUSH1 0x11 PUSH1 0x4 MSTORE PUSH1 0x24 PUSH1 0x0 REVERT JUMPDEST PUSH1 0x0 PUSH2 0x557 DUP3 PUSH2 0x222 JUMP JUMPDEST SWAP2 POP PUSH2 0x562 DUP4 PUSH2 0x222 JUMP JUMPDEST SWAP3 POP DUP3 PUSH32 0xFFFFFFFFFFFFFFFFFFFFFFFFFFFFFFFFFFFFFFFFFFFFFFFFFFFFFFFFFFFFFFFF SUB DUP3 GT ISZERO PUSH2 0x597 JUMPI PUSH2 0x596 PUSH2 0x51D JUMP JUMPDEST JUMPDEST DUP3 DUP3 ADD SWAP1 POP SWAP3 SWAP2 POP POP JUMP JUMPDEST PUSH32 0x4E487B7100000000000000000000000000000000000000000000000000000000 PUSH1 0x0 MSTORE PUSH1 0x22 PUSH1 0x4 MSTORE PUSH1 0x24 PUSH1 0x0 REVERT JUMPDEST PUSH1 0x0 PUSH1 0x2 DUP3 DIV SWAP1 POP PUSH1 0x1 DUP3 AND DUP1 PUSH2 0x5E9 JUMPI PUSH1 0x7F DUP3 AND SWAP2 POP JUMPDEST PUSH1 0x20 DUP3 LT DUP2 SUB PUSH2 0x5FC JUMPI PUSH2 0x5FB PUSH2 0x5A2 JUMP JUMPDEST JUMPDEST POP SWAP2 SWAP1 POP JUMP JUMPDEST PUSH1 0x0 DUP2 SWAP1 POP DUP2 PUSH1 0x0 MSTORE PUSH1 0x20 PUSH1 0x0 KECCAK256 SWAP1 POP SWAP2 SWAP1 POP JUMP JUMPDEST PUSH1 0x0 PUSH1 0x20 PUSH1 0x1F DUP4 ADD DIV SWAP1 POP SWAP2 SWAP1 POP JUMP JUMPDEST PUSH1 0x0 DUP3 DUP3 SHL SWAP1 POP SWAP3 SWAP2 POP POP JUMP JUMPDEST PUSH1 0x0 PUSH1 0x8 DUP4 MUL PUSH2 0x664 PUSH32 0xFFFFFFFFFFFFFFFFFFFFFFFFFFFFFFFFFFFFFFFFFFFFFFFFFFFFFFFFFFFFFFFF DUP3 PUSH2 0x627 JUMP JUMPDEST PUSH2 0x66E DUP7 DUP4 PUSH2 0x627 JUMP JUMPDEST SWAP6 POP DUP1 NOT DUP5 AND SWAP4 POP DUP1 DUP7 AND DUP5 OR SWAP3 POP POP POP SWAP4 SWAP3 POP POP POP JUMP JUMPDEST PUSH1 0x0 DUP2 SWAP1 POP SWAP2 SWAP1 POP JUMP JUMPDEST PUSH1 0x0 PUSH2 0x6AB PUSH2 0x6A6 PUSH2 0x6A1 DUP5 PUSH2 0x222 JUMP JUMPDEST PUSH2 0x686 JUMP JUMPDEST PUSH2 0x222 JUMP JUMPDEST SWAP1 POP SWAP2 SWAP1 POP JUMP JUMPDEST PUSH1 0x0 DUP2 SWAP1 POP SWAP2 SWAP1 POP JUMP JUMPDEST PUSH2 0x6C5 DUP4 PUSH2 0x690 JUMP JUMPDEST PUSH2 0x6D9 PUSH2 0x6D1 DUP3 PUSH2 0x6B2 JUMP JUMPDEST DUP5 DUP5 SLOAD PUSH2 0x634 JUMP JUMPDEST DUP3 SSTORE POP POP POP POP JUMP JUMPDEST PUSH1 0x0 SWAP1 JUMP JUMPDEST PUSH2 0x6EE PUSH2 0x6E1 JUMP JUMPDEST PUSH2 0x6F9 DUP2 DUP5 DUP5 PUSH2 0x6BC JUMP JUMPDEST POP POP POP JUMP JUMPDEST JUMPDEST DUP2 DUP2 LT ISZERO PUSH2 0x71D JUMPI PUSH2 0x712 PUSH1 0x0 DUP3 PUSH2 0x6E6 JUMP JUMPDEST PUSH1 0x1 DUP2 ADD SWAP1 POP PUSH2 0x6FF JUMP JUMPDEST POP POP JUMP JUMPDEST PUSH1 0x1F DUP3 GT ISZERO PUSH2 0x762 JUMPI PUSH2 0x733 DUP2 PUSH2 0x602 JUMP JUMPDEST PUSH2 0x73C DUP5 PUSH2 0x617 JUMP JUMPDEST DUP2 ADD PUSH1 0x20 DUP6 LT ISZERO PUSH2 0x74B JUMPI DUP2 SWAP1 POP JUMPDEST PUSH2 0x75F PUSH2 0x757 DUP6 PUSH2 0x617 JUMP JUMPDEST DUP4 ADD DUP3 PUSH2 0x6FE JUMP JUMPDEST POP POP JUMPDEST POP POP POP JUMP JUMPDEST PUSH1 0x0 DUP3 DUP3 SHR SWAP1 POP SWAP3 SWAP2 POP POP JUMP JUMPDEST PUSH1 0x0 PUSH2 0x785 PUSH1 0x0 NOT DUP5 PUSH1 0x8 MUL PUSH2 0x767 JUMP JUMPDEST NOT DUP1 DUP4 AND SWAP2 POP POP SWAP3 SWAP2 POP POP JUMP JUMPDEST PUSH1 0x0 PUSH2 0x79E DUP4 DUP4 PUSH2 0x774 JUMP JUMPDEST SWAP2 POP DUP3 PUSH1 0x2 MUL DUP3 OR SWAP1 POP SWAP3 SWAP2 POP POP JUMP JUMPDEST PUSH2 0x7B7 DUP3 PUSH2 0x465 JUMP JUMPDEST PUSH8 0xFFFFFFFFFFFFFFFF DUP2 GT ISZERO PUSH2 0x7D0 JUMPI PUSH2 0x7CF PUSH2 0x2DE JUMP JUMPDEST JUMPDEST PUSH2 0x7DA DUP3 SLOAD PUSH2 0x5D1 JUMP JUMPDEST PUSH2 0x7E5 DUP3 DUP3 DUP6 PUSH2 0x721 JUMP JUMPDEST PUSH1 0x0 PUSH1 0x20 SWAP1 POP PUSH1 0x1F DUP4 GT PUSH1 0x1 DUP2 EQ PUSH2 0x818 JUMPI PUSH1 0x0 DUP5 ISZERO PUSH2 0x806 JUMPI DUP3 DUP8 ADD MLOAD SWAP1 POP JUMPDEST PUSH2 0x810 DUP6 DUP3 PUSH2 0x792 JUMP JUMPDEST DUP7 SSTORE POP PUSH2 0x878 JUMP JUMPDEST PUSH1 0x1F NOT DUP5 AND PUSH2 0x826 DUP7 PUSH2 0x602 JUMP JUMPDEST PUSH1 0x0 JUMPDEST DUP3 DUP2 LT ISZERO PUSH2 0x84E JUMPI DUP5 DUP10 ADD MLOAD DUP3 SSTORE PUSH1 0x1 DUP3 ADD SWAP2 POP PUSH1 0x20 DUP6 ADD SWAP5 POP PUSH1 0x20 DUP2 ADD SWAP1 POP PUSH2 0x829 JUMP JUMPDEST DUP7 DUP4 LT ISZERO PUSH2 0x86B JUMPI DUP5 DUP10 ADD MLOAD PUSH2 0x867 PUSH1 0x1F DUP10 AND DUP3 PUSH2 0x774 JUMP JUMPDEST DUP4 SSTORE POP JUMPDEST PUSH1 0x1 PUSH1 0x2 DUP9 MUL ADD DUP9 SSTORE POP POP POP JUMPDEST POP POP POP POP POP POP JUMP INVALID LOG2 PUSH5 0x6970667358 0x22 SLT KECCAK256 0xD9 PUSH30 0x60B21BB80C3E9F937BF6957792580C64D9978EE8B8E83C75D4FDD505B608 PUSH5 0x736F6C6343 STOP ADDMOD 0xF STOP CALLER "
				},
				"gasEstimates": {
					"creation": {
						"codeDepositCost": "446000",
						"executionCost": "480",
						"totalCost": "446480"
					},
					"external": {
						"addPerson(string,uint256)": "infinite",
						"people(uint256)": "infinite",
						"retrieve()": "2415",
						"store(uint256)": "infinite"
					}
				},
				"methodIdentifiers": {
					"addPerson(string,uint256)": "6f760f41",
					"people(uint256)": "9e7a13ad",
					"retrieve()": "2e64cec1",
					"store(uint256)": "6057361d"
				}
			},
			"storageLayout": {
				"storage": [
					{
						"astId": 3,
						"contract": "Helloworld.sol:SimpleStorage",
						"label": "favoriteNumber",
						"offset": 0,
						"slot": "0",
						"type": "t_uint256"
					},
					{
						"astId": 12,
						"contract": "Helloworld.sol:SimpleStorage",
						"label": "people",
						"offset": 0,
						"slot": "1",
						"type": "t_array(t_struct(People)8_storage)dyn_storage"
					}
				],
				"types": {
					"t_array(t_struct(People)8_storage)dyn_storage": {
						"base": "t_struct(People)8_storage",
						"encoding": "dynamic_array",
						"label": "struct SimpleStorage.People[]",
						"numberOfBytes": "32"
					},
					"t_string_storage": {
						"encoding": "bytes",
						"label": "string",
						"numberOfBytes": "32"
					},
					"t_struct(People)8_storage": {
						"encoding": "inplace",
						"label": "struct SimpleStorage.People",
						"members": [
							{
								"astId": 5,
								"contract": "Helloworld.sol:SimpleStorage",
								"label": "favoriteNumber",
								"offset": 0,
								"slot": "0",
								"type": "t_uint256"
							},
							{
								"astId": 7,
								"contract": "Helloworld.sol:SimpleStorage",
								"label": "name",
								"offset": 0,
								"slot": "1",
								"type": "t_string_storage"
							}
						],
						"numberOfBytes": "64"
					},
					"t_uint256": {
						"encoding": "inplace",
						"label": "uint256",
						"numberOfBytes": "32"
					}
				}
			},
			"userdoc": {
				"kind": "user",
				"methods": {},
				"version": 1
			}
		}
	}
}