{
	"FundMe.sol": {
		"FundMe": {
			"abi": [
				{
					"inputs": [
						{
							"internalType": "address",
							"name": "",
							"type": "address"
						}
					],
					"name": "addressToAmountFunded",
					"outputs": [
						{
							"internalType": "uint256",
							"name": "",
							"type": "uint256"
						}
					],
					"stateMutability": "view",
					"type": "function"
				},
				{
					"inputs": [],
					"name": "fund",
					"outputs": [],
					"stateMutability": "payable",
					"type": "function"
				},
				{
					"inputs": [
						{
							"internalType": "uint256",
							"name": "",
							"type": "uint256"
						}
					],
					"name": "funders",
					"outputs": [
						{
							"internalType": "address",
							"name": "",
							"type": "address"
						}
					],
					"stateMutability": "view",
					"type": "function"
				},
				{
					"inputs": [],
					"name": "minimumUsd",
					"outputs": [
						{
							"internalType": "uint256",
							"name": "",
							"type": "uint256"
						}
					],
					"stateMutability": "view",
					"type": "function"
				},
				{
					"inputs": [],
					"name": "withdraw",
					"outputs": [],
					"stateMutability": "nonpayable",
					"type": "function"
				}
			],
			"devdoc": {
				"kind": "dev",
				"methods": {},
				"version": 1
			},
			"evm": {
				"assembly": "    /* \"FundMe.sol\":88:741  contract FundMe {... */\n  mstore(0x40, 0x80)\n    /* \"FundMe.sol\":231:240  50 * 1e18 */\n  0x02b5e3af16b1880000\n    /* \"FundMe.sol\":203:240  uint256 public minimumUsd = 50 * 1e18 */\n  0x00\n  sstore\n    /* \"FundMe.sol\":88:741  contract FundMe {... */\n  callvalue\n  dup1\n  iszero\n  tag_1\n  jumpi\n  0x00\n  dup1\n  revert\ntag_1:\n  pop\n  dataSize(sub_0)\n  dup1\n  dataOffset(sub_0)\n  0x00\n  codecopy\n  0x00\n  return\nstop\n\nsub_0: assembly {\n        /* \"FundMe.sol\":88:741  contract FundMe {... */\n      mstore(0x40, 0x80)\n      jumpi(tag_1, lt(calldatasize, 0x04))\n      shr(0xe0, calldataload(0x00))\n      dup1\n      0x098de820\n      eq\n      tag_2\n      jumpi\n      dup1\n      0x3ccfd60b\n      eq\n      tag_3\n      jumpi\n      dup1\n      0x3e47d6f3\n      eq\n      tag_4\n      jumpi\n      dup1\n      0xb60d4288\n      eq\n      tag_5\n      jumpi\n      dup1\n      0xdc0d3dff\n      eq\n      tag_6\n      jumpi\n    tag_1:\n      0x00\n      dup1\n      revert\n        /* \"FundMe.sol\":203:240  uint256 public minimumUsd = 50 * 1e18 */\n    tag_2:\n      callvalue\n      dup1\n      iszero\n      tag_7\n      jumpi\n      0x00\n      dup1\n      revert\n    tag_7:\n      pop\n      tag_8\n      tag_9\n      jump\t// in\n    tag_8:\n      mload(0x40)\n      tag_10\n      swap2\n      swap1\n      tag_11\n      jump\t// in\n    tag_10:\n      mload(0x40)\n      dup1\n      swap2\n      sub\n      swap1\n      return\n        /* \"FundMe.sol\":597:739  function withdraw() public {... */\n    tag_3:\n      callvalue\n      dup1\n      iszero\n      tag_12\n      jumpi\n      0x00\n      dup1\n      revert\n    tag_12:\n      pop\n      tag_13\n      tag_14\n      jump\t// in\n    tag_13:\n      stop\n        /* \"FundMe.sol\":277:333  mapping(address => uint256) public addressToAmountFunded */\n    tag_4:\n      callvalue\n      dup1\n      iszero\n      tag_15\n      jumpi\n      0x00\n      dup1\n      revert\n    tag_15:\n      pop\n      tag_16\n      0x04\n      dup1\n      calldatasize\n      sub\n      dup2\n      add\n      swap1\n      tag_17\n      swap2\n      swap1\n      tag_18\n      jump\t// in\n    tag_17:\n      tag_19\n      jump\t// in\n    tag_16:\n      mload(0x40)\n      tag_20\n      swap2\n      swap1\n      tag_11\n      jump\t// in\n    tag_20:\n      mload(0x40)\n      dup1\n      swap2\n      sub\n      swap1\n      return\n        /* \"FundMe.sol\":340:590  function fund() public payable{... */\n    tag_5:\n      tag_21\n      tag_22\n      jump\t// in\n    tag_21:\n      stop\n        /* \"FundMe.sol\":247:271  address[] public funders */\n    tag_6:\n      callvalue\n      dup1\n      iszero\n      tag_23\n      jumpi\n      0x00\n      dup1\n      revert\n    tag_23:\n      pop\n      tag_24\n      0x04\n      dup1\n      calldatasize\n      sub\n      dup2\n      add\n      swap1\n      tag_25\n      swap2\n      swap1\n      tag_26\n      jump\t// in\n    tag_25:\n      tag_27\n      jump\t// in\n    tag_24:\n      mload(0x40)\n      tag_28\n      swap2\n      swap1\n      tag_29\n      jump\t// in\n    tag_28:\n      mload(0x40)\n      dup1\n      swap2\n      sub\n      swap1\n      return\n        /* \"FundMe.sol\":203:240  uint256 public minimumUsd = 50 * 1e18 */\n    tag_9:\n      sload(0x00)\n      dup2\n      jump\t// out\n        /* \"FundMe.sol\":597:739  function withdraw() public {... */\n    tag_14:\n        /* \"FundMe.sol\":638:657  uint256 funderIndex */\n      0x00\n        /* \"FundMe.sol\":634:732  for(uint256 funderIndex = 0; funderIndex < funders.length; funderIndex++) {... */\n    tag_31:\n        /* \"FundMe.sol\":677:684  funders */\n      0x01\n        /* \"FundMe.sol\":677:691  funders.length */\n      dup1\n      sload\n      swap1\n      pop\n        /* \"FundMe.sol\":663:674  funderIndex */\n      dup2\n        /* \"FundMe.sol\":663:691  funderIndex < funders.length */\n      lt\n        /* \"FundMe.sol\":634:732  for(uint256 funderIndex = 0; funderIndex < funders.length; funderIndex++) {... */\n      iszero\n      tag_32\n      jumpi\n        /* \"FundMe.sol\":693:706  funderIndex++ */\n      dup1\n      dup1\n      tag_34\n      swap1\n      tag_35\n      jump\t// in\n    tag_34:\n      swap2\n      pop\n      pop\n        /* \"FundMe.sol\":634:732  for(uint256 funderIndex = 0; funderIndex < funders.length; funderIndex++) {... */\n      jump(tag_31)\n    tag_32:\n      pop\n        /* \"FundMe.sol\":597:739  function withdraw() public {... */\n      jump\t// out\n        /* \"FundMe.sol\":277:333  mapping(address => uint256) public addressToAmountFunded */\n    tag_19:\n      mstore(0x20, 0x02)\n      dup1\n      0x00\n      mstore\n      keccak256(0x00, 0x40)\n      0x00\n      swap2\n      pop\n      swap1\n      pop\n      sload\n      dup2\n      jump\t// out\n        /* \"FundMe.sol\":340:590  function fund() public payable{... */\n    tag_22:\n        /* \"FundMe.sol\":421:431  minimumUsd */\n      sload(0x00)\n        /* \"FundMe.sol\":388:417  msg.value.getConversionRate() */\n      tag_37\n        /* \"FundMe.sol\":388:397  msg.value */\n      callvalue\n        /* \"FundMe.sol\":388:415  msg.value.getConversionRate */\n      tag_38\n        /* \"FundMe.sol\":388:417  msg.value.getConversionRate() */\n      jump\t// in\n    tag_37:\n        /* \"FundMe.sol\":388:431  msg.value.getConversionRate() >= minimumUsd */\n      lt\n      iszero\n        /* \"FundMe.sol\":380:454  require(msg.value.getConversionRate() >= minimumUsd,\"Didn't send enough!\") */\n      tag_39\n      jumpi\n      mload(0x40)\n      0x08c379a000000000000000000000000000000000000000000000000000000000\n      dup2\n      mstore\n      0x04\n      add\n      tag_40\n      swap1\n      tag_41\n      jump\t// in\n    tag_40:\n      mload(0x40)\n      dup1\n      swap2\n      sub\n      swap1\n      revert\n    tag_39:\n        /* \"FundMe.sol\":503:510  funders */\n      0x01\n        /* \"FundMe.sol\":516:526  msg.sender */\n      caller\n        /* \"FundMe.sol\":503:527  funders.push(msg.sender) */\n      swap1\n      dup1\n      0x01\n      dup2\n      sload\n      add\n      dup1\n      dup3\n      sstore\n      dup1\n      swap2\n      pop\n      pop\n      0x01\n      swap1\n      sub\n      swap1\n      0x00\n      mstore\n      keccak256(0x00, 0x20)\n      add\n      0x00\n      swap1\n      swap2\n      swap1\n      swap2\n      swap1\n      swap2\n      0x0100\n      exp\n      dup2\n      sload\n      dup2\n      0xffffffffffffffffffffffffffffffffffffffff\n      mul\n      not\n      and\n      swap1\n      dup4\n      0xffffffffffffffffffffffffffffffffffffffff\n      and\n      mul\n      or\n      swap1\n      sstore\n      pop\n        /* \"FundMe.sol\":574:583  msg.value */\n      callvalue\n        /* \"FundMe.sol\":537:558  addressToAmountFunded */\n      0x02\n        /* \"FundMe.sol\":537:570  addressToAmountFunded[msg.sender] */\n      0x00\n        /* \"FundMe.sol\":559:569  msg.sender */\n      caller\n        /* \"FundMe.sol\":537:570  addressToAmountFunded[msg.sender] */\n      0xffffffffffffffffffffffffffffffffffffffff\n      and\n      0xffffffffffffffffffffffffffffffffffffffff\n      and\n      dup2\n      mstore\n      0x20\n      add\n      swap1\n      dup2\n      mstore\n      0x20\n      add\n      0x00\n      keccak256\n      0x00\n        /* \"FundMe.sol\":537:583  addressToAmountFunded[msg.sender] += msg.value */\n      dup3\n      dup3\n      sload\n      tag_43\n      swap2\n      swap1\n      tag_44\n      jump\t// in\n    tag_43:\n      swap3\n      pop\n      pop\n      dup2\n      swap1\n      sstore\n      pop\n        /* \"FundMe.sol\":340:590  function fund() public payable{... */\n      jump\t// out\n        /* \"FundMe.sol\":247:271  address[] public funders */\n    tag_27:\n      0x01\n      dup2\n      dup2\n      sload\n      dup2\n      lt\n      tag_45\n      jumpi\n      0x00\n      dup1\n      revert\n    tag_45:\n      swap1\n      0x00\n      mstore\n      keccak256(0x00, 0x20)\n      add\n      0x00\n      swap2\n      pop\n      sload\n      swap1\n      0x0100\n      exp\n      swap1\n      div\n      0xffffffffffffffffffffffffffffffffffffffff\n      and\n      dup2\n      jump\t// out\n        /* \"PriceConverter.sol\":868:1095  function getConversionRate(uint256 ethAmount) internal view returns(uint256) {... */\n    tag_38:\n        /* \"PriceConverter.sol\":936:943  uint256 */\n      0x00\n        /* \"PriceConverter.sol\":955:971  uint256 ethPrice */\n      dup1\n        /* \"PriceConverter.sol\":974:984  getPrice() */\n      tag_48\n        /* \"PriceConverter.sol\":974:982  getPrice */\n      tag_49\n        /* \"PriceConverter.sol\":974:984  getPrice() */\n      jump\t// in\n    tag_48:\n        /* \"PriceConverter.sol\":955:984  uint256 ethPrice = getPrice() */\n      swap1\n      pop\n        /* \"PriceConverter.sol\":994:1016  uint256 ethAmountInUsd */\n      0x00\n        /* \"PriceConverter.sol\":1044:1048  1e18 */\n      0x0de0b6b3a7640000\n        /* \"PriceConverter.sol\":1031:1040  ethAmount */\n      dup5\n        /* \"PriceConverter.sol\":1020:1028  ethPrice */\n      dup4\n        /* \"PriceConverter.sol\":1020:1040  ethPrice * ethAmount */\n      tag_50\n      swap2\n      swap1\n      tag_51\n      jump\t// in\n    tag_50:\n        /* \"PriceConverter.sol\":1019:1048  (ethPrice * ethAmount) / 1e18 */\n      tag_52\n      swap2\n      swap1\n      tag_53\n      jump\t// in\n    tag_52:\n        /* \"PriceConverter.sol\":994:1048  uint256 ethAmountInUsd = (ethPrice * ethAmount) / 1e18 */\n      swap1\n      pop\n        /* \"PriceConverter.sol\":1074:1088  ethAmountInUsd */\n      dup1\n        /* \"PriceConverter.sol\":1067:1088  return ethAmountInUsd */\n      swap3\n      pop\n      pop\n      pop\n        /* \"PriceConverter.sol\":868:1095  function getConversionRate(uint256 ethAmount) internal view returns(uint256) {... */\n      swap2\n      swap1\n      pop\n      jump\t// out\n        /* \"PriceConverter.sol\":164:650  function getPrice() internal view returns(uint256) {... */\n    tag_49:\n        /* \"PriceConverter.sol\":206:213  uint256 */\n      0x00\n        /* \"PriceConverter.sol\":304:335  AggregatorV3Interface priceFeed */\n      dup1\n        /* \"PriceConverter.sol\":360:402  0x8A753747A1Fa494EC906cE90E9f37563A8AF630e */\n      0x8a753747a1fa494ec906ce90e9f37563a8af630e\n        /* \"PriceConverter.sol\":304:403  AggregatorV3Interface priceFeed = AggregatorV3Interface(0x8A753747A1Fa494EC906cE90E9f37563A8AF630e) */\n      swap1\n      pop\n        /* \"PriceConverter.sol\":541:553  int256 price */\n      0x00\n        /* \"PriceConverter.sol\":560:569  priceFeed */\n      dup2\n        /* \"PriceConverter.sol\":560:585  priceFeed.latestRoundData */\n      0xffffffffffffffffffffffffffffffffffffffff\n      and\n      0xfeaf968c\n        /* \"PriceConverter.sol\":560:587  priceFeed.latestRoundData() */\n      mload(0x40)\n      dup2\n      0xffffffff\n      and\n      0xe0\n      shl\n      dup2\n      mstore\n      0x04\n      add\n      0xa0\n      mload(0x40)\n      dup1\n      dup4\n      sub\n      dup2\n      dup7\n      gas\n      staticcall\n      iszero\n      dup1\n      iszero\n      tag_56\n      jumpi\n      returndatasize\n      0x00\n      dup1\n      returndatacopy\n      revert(0x00, returndatasize)\n    tag_56:\n      pop\n      pop\n      pop\n      pop\n      mload(0x40)\n      returndatasize\n      not(0x1f)\n      0x1f\n      dup3\n      add\n      and\n      dup3\n      add\n      dup1\n      0x40\n      mstore\n      pop\n      dup2\n      add\n      swap1\n      tag_57\n      swap2\n      swap1\n      tag_58\n      jump\t// in\n    tag_57:\n        /* \"PriceConverter.sol\":539:587  (,int256 price,,,) = priceFeed.latestRoundData() */\n      pop\n      pop\n      pop\n      swap2\n      pop\n      pop\n        /* \"PriceConverter.sol\":638:642  1e10 */\n      0x02540be400\n        /* \"PriceConverter.sol\":630:635  price */\n      dup2\n        /* \"PriceConverter.sol\":630:642  price * 1e10 */\n      tag_59\n      swap2\n      swap1\n      tag_60\n      jump\t// in\n    tag_59:\n        /* \"PriceConverter.sol\":615:643  return uint256(price * 1e10) */\n      swap3\n      pop\n      pop\n      pop\n        /* \"PriceConverter.sol\":164:650  function getPrice() internal view returns(uint256) {... */\n      swap1\n      jump\t// out\n        /* \"#utility.yul\":7:84   */\n    tag_61:\n        /* \"#utility.yul\":44:51   */\n      0x00\n        /* \"#utility.yul\":73:78   */\n      dup2\n        /* \"#utility.yul\":62:78   */\n      swap1\n      pop\n        /* \"#utility.yul\":7:84   */\n      swap2\n      swap1\n      pop\n      jump\t// out\n        /* \"#utility.yul\":90:208   */\n    tag_62:\n        /* \"#utility.yul\":177:201   */\n      tag_88\n        /* \"#utility.yul\":195:200   */\n      dup2\n        /* \"#utility.yul\":177:201   */\n      tag_61\n      jump\t// in\n    tag_88:\n        /* \"#utility.yul\":172:175   */\n      dup3\n        /* \"#utility.yul\":165:202   */\n      mstore\n        /* \"#utility.yul\":90:208   */\n      pop\n      pop\n      jump\t// out\n        /* \"#utility.yul\":214:436   */\n    tag_11:\n        /* \"#utility.yul\":307:311   */\n      0x00\n        /* \"#utility.yul\":345:347   */\n      0x20\n        /* \"#utility.yul\":334:343   */\n      dup3\n        /* \"#utility.yul\":330:348   */\n      add\n        /* \"#utility.yul\":322:348   */\n      swap1\n      pop\n        /* \"#utility.yul\":358:429   */\n      tag_90\n        /* \"#utility.yul\":426:427   */\n      0x00\n        /* \"#utility.yul\":415:424   */\n      dup4\n        /* \"#utility.yul\":411:428   */\n      add\n        /* \"#utility.yul\":402:408   */\n      dup5\n        /* \"#utility.yul\":358:429   */\n      tag_62\n      jump\t// in\n    tag_90:\n        /* \"#utility.yul\":214:436   */\n      swap3\n      swap2\n      pop\n      pop\n      jump\t// out\n        /* \"#utility.yul\":523:640   */\n    tag_64:\n        /* \"#utility.yul\":632:633   */\n      0x00\n        /* \"#utility.yul\":629:630   */\n      dup1\n        /* \"#utility.yul\":622:634   */\n      revert\n        /* \"#utility.yul\":769:895   */\n    tag_66:\n        /* \"#utility.yul\":806:813   */\n      0x00\n        /* \"#utility.yul\":846:888   */\n      0xffffffffffffffffffffffffffffffffffffffff\n        /* \"#utility.yul\":839:844   */\n      dup3\n        /* \"#utility.yul\":835:889   */\n      and\n        /* \"#utility.yul\":824:889   */\n      swap1\n      pop\n        /* \"#utility.yul\":769:895   */\n      swap2\n      swap1\n      pop\n      jump\t// out\n        /* \"#utility.yul\":901:997   */\n    tag_67:\n        /* \"#utility.yul\":938:945   */\n      0x00\n        /* \"#utility.yul\":967:991   */\n      tag_96\n        /* \"#utility.yul\":985:990   */\n      dup3\n        /* \"#utility.yul\":967:991   */\n      tag_66\n      jump\t// in\n    tag_96:\n        /* \"#utility.yul\":956:991   */\n      swap1\n      pop\n        /* \"#utility.yul\":901:997   */\n      swap2\n      swap1\n      pop\n      jump\t// out\n        /* \"#utility.yul\":1003:1125   */\n    tag_68:\n        /* \"#utility.yul\":1076:1100   */\n      tag_98\n        /* \"#utility.yul\":1094:1099   */\n      dup2\n        /* \"#utility.yul\":1076:1100   */\n      tag_67\n      jump\t// in\n    tag_98:\n        /* \"#utility.yul\":1069:1074   */\n      dup2\n        /* \"#utility.yul\":1066:1101   */\n      eq\n        /* \"#utility.yul\":1056:1119   */\n      tag_99\n      jumpi\n        /* \"#utility.yul\":1115:1116   */\n      0x00\n        /* \"#utility.yul\":1112:1113   */\n      dup1\n        /* \"#utility.yul\":1105:1117   */\n      revert\n        /* \"#utility.yul\":1056:1119   */\n    tag_99:\n        /* \"#utility.yul\":1003:1125   */\n      pop\n      jump\t// out\n        /* \"#utility.yul\":1131:1270   */\n    tag_69:\n        /* \"#utility.yul\":1177:1182   */\n      0x00\n        /* \"#utility.yul\":1215:1221   */\n      dup2\n        /* \"#utility.yul\":1202:1222   */\n      calldataload\n        /* \"#utility.yul\":1193:1222   */\n      swap1\n      pop\n        /* \"#utility.yul\":1231:1264   */\n      tag_101\n        /* \"#utility.yul\":1258:1263   */\n      dup2\n        /* \"#utility.yul\":1231:1264   */\n      tag_68\n      jump\t// in\n    tag_101:\n        /* \"#utility.yul\":1131:1270   */\n      swap3\n      swap2\n      pop\n      pop\n      jump\t// out\n        /* \"#utility.yul\":1276:1605   */\n    tag_18:\n        /* \"#utility.yul\":1335:1341   */\n      0x00\n        /* \"#utility.yul\":1384:1386   */\n      0x20\n        /* \"#utility.yul\":1372:1381   */\n      dup3\n        /* \"#utility.yul\":1363:1370   */\n      dup5\n        /* \"#utility.yul\":1359:1382   */\n      sub\n        /* \"#utility.yul\":1355:1387   */\n      slt\n        /* \"#utility.yul\":1352:1471   */\n      iszero\n      tag_103\n      jumpi\n        /* \"#utility.yul\":1390:1469   */\n      tag_104\n      tag_64\n      jump\t// in\n    tag_104:\n        /* \"#utility.yul\":1352:1471   */\n    tag_103:\n        /* \"#utility.yul\":1510:1511   */\n      0x00\n        /* \"#utility.yul\":1535:1588   */\n      tag_105\n        /* \"#utility.yul\":1580:1587   */\n      dup5\n        /* \"#utility.yul\":1571:1577   */\n      dup3\n        /* \"#utility.yul\":1560:1569   */\n      dup6\n        /* \"#utility.yul\":1556:1578   */\n      add\n        /* \"#utility.yul\":1535:1588   */\n      tag_69\n      jump\t// in\n    tag_105:\n        /* \"#utility.yul\":1525:1588   */\n      swap2\n      pop\n        /* \"#utility.yul\":1481:1598   */\n      pop\n        /* \"#utility.yul\":1276:1605   */\n      swap3\n      swap2\n      pop\n      pop\n      jump\t// out\n        /* \"#utility.yul\":1611:1733   */\n    tag_70:\n        /* \"#utility.yul\":1684:1708   */\n      tag_107\n        /* \"#utility.yul\":1702:1707   */\n      dup2\n        /* \"#utility.yul\":1684:1708   */\n      tag_61\n      jump\t// in\n    tag_107:\n        /* \"#utility.yul\":1677:1682   */\n      dup2\n        /* \"#utility.yul\":1674:1709   */\n      eq\n        /* \"#utility.yul\":1664:1727   */\n      tag_108\n      jumpi\n        /* \"#utility.yul\":1723:1724   */\n      0x00\n        /* \"#utility.yul\":1720:1721   */\n      dup1\n        /* \"#utility.yul\":1713:1725   */\n      revert\n        /* \"#utility.yul\":1664:1727   */\n    tag_108:\n        /* \"#utility.yul\":1611:1733   */\n      pop\n      jump\t// out\n        /* \"#utility.yul\":1739:1878   */\n    tag_71:\n        /* \"#utility.yul\":1785:1790   */\n      0x00\n        /* \"#utility.yul\":1823:1829   */\n      dup2\n        /* \"#utility.yul\":1810:1830   */\n      calldataload\n        /* \"#utility.yul\":1801:1830   */\n      swap1\n      pop\n        /* \"#utility.yul\":1839:1872   */\n      tag_110\n        /* \"#utility.yul\":1866:1871   */\n      dup2\n        /* \"#utility.yul\":1839:1872   */\n      tag_70\n      jump\t// in\n    tag_110:\n        /* \"#utility.yul\":1739:1878   */\n      swap3\n      swap2\n      pop\n      pop\n      jump\t// out\n        /* \"#utility.yul\":1884:2213   */\n    tag_26:\n        /* \"#utility.yul\":1943:1949   */\n      0x00\n        /* \"#utility.yul\":1992:1994   */\n      0x20\n        /* \"#utility.yul\":1980:1989   */\n      dup3\n        /* \"#utility.yul\":1971:1978   */\n      dup5\n        /* \"#utility.yul\":1967:1990   */\n      sub\n        /* \"#utility.yul\":1963:1995   */\n      slt\n        /* \"#utility.yul\":1960:2079   */\n      iszero\n      tag_112\n      jumpi\n        /* \"#utility.yul\":1998:2077   */\n      tag_113\n      tag_64\n      jump\t// in\n    tag_113:\n        /* \"#utility.yul\":1960:2079   */\n    tag_112:\n        /* \"#utility.yul\":2118:2119   */\n      0x00\n        /* \"#utility.yul\":2143:2196   */\n      tag_114\n        /* \"#utility.yul\":2188:2195   */\n      dup5\n        /* \"#utility.yul\":2179:2185   */\n      dup3\n        /* \"#utility.yul\":2168:2177   */\n      dup6\n        /* \"#utility.yul\":2164:2186   */\n      add\n        /* \"#utility.yul\":2143:2196   */\n      tag_71\n      jump\t// in\n    tag_114:\n        /* \"#utility.yul\":2133:2196   */\n      swap2\n      pop\n        /* \"#utility.yul\":2089:2206   */\n      pop\n        /* \"#utility.yul\":1884:2213   */\n      swap3\n      swap2\n      pop\n      pop\n      jump\t// out\n        /* \"#utility.yul\":2219:2337   */\n    tag_72:\n        /* \"#utility.yul\":2306:2330   */\n      tag_116\n        /* \"#utility.yul\":2324:2329   */\n      dup2\n        /* \"#utility.yul\":2306:2330   */\n      tag_67\n      jump\t// in\n    tag_116:\n        /* \"#utility.yul\":2301:2304   */\n      dup3\n        /* \"#utility.yul\":2294:2331   */\n      mstore\n        /* \"#utility.yul\":2219:2337   */\n      pop\n      pop\n      jump\t// out\n        /* \"#utility.yul\":2343:2565   */\n    tag_29:\n        /* \"#utility.yul\":2436:2440   */\n      0x00\n        /* \"#utility.yul\":2474:2476   */\n      0x20\n        /* \"#utility.yul\":2463:2472   */\n      dup3\n        /* \"#utility.yul\":2459:2477   */\n      add\n        /* \"#utility.yul\":2451:2477   */\n      swap1\n      pop\n        /* \"#utility.yul\":2487:2558   */\n      tag_118\n        /* \"#utility.yul\":2555:2556   */\n      0x00\n        /* \"#utility.yul\":2544:2553   */\n      dup4\n        /* \"#utility.yul\":2540:2557   */\n      add\n        /* \"#utility.yul\":2531:2537   */\n      dup5\n        /* \"#utility.yul\":2487:2558   */\n      tag_72\n      jump\t// in\n    tag_118:\n        /* \"#utility.yul\":2343:2565   */\n      swap3\n      swap2\n      pop\n      pop\n      jump\t// out\n        /* \"#utility.yul\":2571:2751   */\n    tag_73:\n        /* \"#utility.yul\":2619:2696   */\n      0x4e487b7100000000000000000000000000000000000000000000000000000000\n        /* \"#utility.yul\":2616:2617   */\n      0x00\n        /* \"#utility.yul\":2609:2697   */\n      mstore\n        /* \"#utility.yul\":2716:2720   */\n      0x11\n        /* \"#utility.yul\":2713:2714   */\n      0x04\n        /* \"#utility.yul\":2706:2721   */\n      mstore\n        /* \"#utility.yul\":2740:2744   */\n      0x24\n        /* \"#utility.yul\":2737:2738   */\n      0x00\n        /* \"#utility.yul\":2730:2745   */\n      revert\n        /* \"#utility.yul\":2757:2990   */\n    tag_35:\n        /* \"#utility.yul\":2796:2799   */\n      0x00\n        /* \"#utility.yul\":2819:2843   */\n      tag_121\n        /* \"#utility.yul\":2837:2842   */\n      dup3\n        /* \"#utility.yul\":2819:2843   */\n      tag_61\n      jump\t// in\n    tag_121:\n        /* \"#utility.yul\":2810:2843   */\n      swap2\n      pop\n        /* \"#utility.yul\":2865:2931   */\n      0xffffffffffffffffffffffffffffffffffffffffffffffffffffffffffffffff\n        /* \"#utility.yul\":2858:2863   */\n      dup3\n        /* \"#utility.yul\":2855:2932   */\n      sub\n        /* \"#utility.yul\":2852:2955   */\n      tag_122\n      jumpi\n        /* \"#utility.yul\":2935:2953   */\n      tag_123\n      tag_73\n      jump\t// in\n    tag_123:\n        /* \"#utility.yul\":2852:2955   */\n    tag_122:\n        /* \"#utility.yul\":2982:2983   */\n      0x01\n        /* \"#utility.yul\":2975:2980   */\n      dup3\n        /* \"#utility.yul\":2971:2984   */\n      add\n        /* \"#utility.yul\":2964:2984   */\n      swap1\n      pop\n        /* \"#utility.yul\":2757:2990   */\n      swap2\n      swap1\n      pop\n      jump\t// out\n        /* \"#utility.yul\":2996:3165   */\n    tag_74:\n        /* \"#utility.yul\":3080:3091   */\n      0x00\n        /* \"#utility.yul\":3114:3120   */\n      dup3\n        /* \"#utility.yul\":3109:3112   */\n      dup3\n        /* \"#utility.yul\":3102:3121   */\n      mstore\n        /* \"#utility.yul\":3154:3158   */\n      0x20\n        /* \"#utility.yul\":3149:3152   */\n      dup3\n        /* \"#utility.yul\":3145:3159   */\n      add\n        /* \"#utility.yul\":3130:3159   */\n      swap1\n      pop\n        /* \"#utility.yul\":2996:3165   */\n      swap3\n      swap2\n      pop\n      pop\n      jump\t// out\n        /* \"#utility.yul\":3171:3340   */\n    tag_75:\n        /* \"#utility.yul\":3311:3332   */\n      0x4469646e27742073656e6420656e6f7567682100000000000000000000000000\n        /* \"#utility.yul\":3307:3308   */\n      0x00\n        /* \"#utility.yul\":3299:3305   */\n      dup3\n        /* \"#utility.yul\":3295:3309   */\n      add\n        /* \"#utility.yul\":3288:3333   */\n      mstore\n        /* \"#utility.yul\":3171:3340   */\n      pop\n      jump\t// out\n        /* \"#utility.yul\":3346:3712   */\n    tag_76:\n        /* \"#utility.yul\":3488:3491   */\n      0x00\n        /* \"#utility.yul\":3509:3576   */\n      tag_127\n        /* \"#utility.yul\":3573:3575   */\n      0x13\n        /* \"#utility.yul\":3568:3571   */\n      dup4\n        /* \"#utility.yul\":3509:3576   */\n      tag_74\n      jump\t// in\n    tag_127:\n        /* \"#utility.yul\":3502:3576   */\n      swap2\n      pop\n        /* \"#utility.yul\":3585:3678   */\n      tag_128\n        /* \"#utility.yul\":3674:3677   */\n      dup3\n        /* \"#utility.yul\":3585:3678   */\n      tag_75\n      jump\t// in\n    tag_128:\n        /* \"#utility.yul\":3703:3705   */\n      0x20\n        /* \"#utility.yul\":3698:3701   */\n      dup3\n        /* \"#utility.yul\":3694:3706   */\n      add\n        /* \"#utility.yul\":3687:3706   */\n      swap1\n      pop\n        /* \"#utility.yul\":3346:3712   */\n      swap2\n      swap1\n      pop\n      jump\t// out\n        /* \"#utility.yul\":3718:4137   */\n    tag_41:\n        /* \"#utility.yul\":3884:3888   */\n      0x00\n        /* \"#utility.yul\":3922:3924   */\n      0x20\n        /* \"#utility.yul\":3911:3920   */\n      dup3\n        /* \"#utility.yul\":3907:3925   */\n      add\n        /* \"#utility.yul\":3899:3925   */\n      swap1\n      pop\n        /* \"#utility.yul\":3971:3980   */\n      dup2\n        /* \"#utility.yul\":3965:3969   */\n      dup2\n        /* \"#utility.yul\":3961:3981   */\n      sub\n        /* \"#utility.yul\":3957:3958   */\n      0x00\n        /* \"#utility.yul\":3946:3955   */\n      dup4\n        /* \"#utility.yul\":3942:3959   */\n      add\n        /* \"#utility.yul\":3935:3982   */\n      mstore\n        /* \"#utility.yul\":3999:4130   */\n      tag_130\n        /* \"#utility.yul\":4125:4129   */\n      dup2\n        /* \"#utility.yul\":3999:4130   */\n      tag_76\n      jump\t// in\n    tag_130:\n        /* \"#utility.yul\":3991:4130   */\n      swap1\n      pop\n        /* \"#utility.yul\":3718:4137   */\n      swap2\n      swap1\n      pop\n      jump\t// out\n        /* \"#utility.yul\":4143:4448   */\n    tag_44:\n        /* \"#utility.yul\":4183:4186   */\n      0x00\n        /* \"#utility.yul\":4202:4222   */\n      tag_132\n        /* \"#utility.yul\":4220:4221   */\n      dup3\n        /* \"#utility.yul\":4202:4222   */\n      tag_61\n      jump\t// in\n    tag_132:\n        /* \"#utility.yul\":4197:4222   */\n      swap2\n      pop\n        /* \"#utility.yul\":4236:4256   */\n      tag_133\n        /* \"#utility.yul\":4254:4255   */\n      dup4\n        /* \"#utility.yul\":4236:4256   */\n      tag_61\n      jump\t// in\n    tag_133:\n        /* \"#utility.yul\":4231:4256   */\n      swap3\n      pop\n        /* \"#utility.yul\":4390:4391   */\n      dup3\n        /* \"#utility.yul\":4322:4388   */\n      0xffffffffffffffffffffffffffffffffffffffffffffffffffffffffffffffff\n        /* \"#utility.yul\":4318:4392   */\n      sub\n        /* \"#utility.yul\":4315:4316   */\n      dup3\n        /* \"#utility.yul\":4312:4393   */\n      gt\n        /* \"#utility.yul\":4309:4416   */\n      iszero\n      tag_134\n      jumpi\n        /* \"#utility.yul\":4396:4414   */\n      tag_135\n      tag_73\n      jump\t// in\n    tag_135:\n        /* \"#utility.yul\":4309:4416   */\n    tag_134:\n        /* \"#utility.yul\":4440:4441   */\n      dup3\n        /* \"#utility.yul\":4437:4438   */\n      dup3\n        /* \"#utility.yul\":4433:4442   */\n      add\n        /* \"#utility.yul\":4426:4442   */\n      swap1\n      pop\n        /* \"#utility.yul\":4143:4448   */\n      swap3\n      swap2\n      pop\n      pop\n      jump\t// out\n        /* \"#utility.yul\":4454:4802   */\n    tag_51:\n        /* \"#utility.yul\":4494:4501   */\n      0x00\n        /* \"#utility.yul\":4517:4537   */\n      tag_137\n        /* \"#utility.yul\":4535:4536   */\n      dup3\n        /* \"#utility.yul\":4517:4537   */\n      tag_61\n      jump\t// in\n    tag_137:\n        /* \"#utility.yul\":4512:4537   */\n      swap2\n      pop\n        /* \"#utility.yul\":4551:4571   */\n      tag_138\n        /* \"#utility.yul\":4569:4570   */\n      dup4\n        /* \"#utility.yul\":4551:4571   */\n      tag_61\n      jump\t// in\n    tag_138:\n        /* \"#utility.yul\":4546:4571   */\n      swap3\n      pop\n        /* \"#utility.yul\":4739:4740   */\n      dup2\n        /* \"#utility.yul\":4671:4737   */\n      0xffffffffffffffffffffffffffffffffffffffffffffffffffffffffffffffff\n        /* \"#utility.yul\":4667:4741   */\n      div\n        /* \"#utility.yul\":4664:4665   */\n      dup4\n        /* \"#utility.yul\":4661:4742   */\n      gt\n        /* \"#utility.yul\":4656:4657   */\n      dup3\n        /* \"#utility.yul\":4649:4658   */\n      iszero\n        /* \"#utility.yul\":4642:4659   */\n      iszero\n        /* \"#utility.yul\":4638:4743   */\n      and\n        /* \"#utility.yul\":4635:4766   */\n      iszero\n      tag_139\n      jumpi\n        /* \"#utility.yul\":4746:4764   */\n      tag_140\n      tag_73\n      jump\t// in\n    tag_140:\n        /* \"#utility.yul\":4635:4766   */\n    tag_139:\n        /* \"#utility.yul\":4794:4795   */\n      dup3\n        /* \"#utility.yul\":4791:4792   */\n      dup3\n        /* \"#utility.yul\":4787:4796   */\n      mul\n        /* \"#utility.yul\":4776:4796   */\n      swap1\n      pop\n        /* \"#utility.yul\":4454:4802   */\n      swap3\n      swap2\n      pop\n      pop\n      jump\t// out\n        /* \"#utility.yul\":4808:4988   */\n    tag_77:\n        /* \"#utility.yul\":4856:4933   */\n      0x4e487b7100000000000000000000000000000000000000000000000000000000\n        /* \"#utility.yul\":4853:4854   */\n      0x00\n        /* \"#utility.yul\":4846:4934   */\n      mstore\n        /* \"#utility.yul\":4953:4957   */\n      0x12\n        /* \"#utility.yul\":4950:4951   */\n      0x04\n        /* \"#utility.yul\":4943:4958   */\n      mstore\n        /* \"#utility.yul\":4977:4981   */\n      0x24\n        /* \"#utility.yul\":4974:4975   */\n      0x00\n        /* \"#utility.yul\":4967:4982   */\n      revert\n        /* \"#utility.yul\":4994:5179   */\n    tag_53:\n        /* \"#utility.yul\":5034:5035   */\n      0x00\n        /* \"#utility.yul\":5051:5071   */\n      tag_143\n        /* \"#utility.yul\":5069:5070   */\n      dup3\n        /* \"#utility.yul\":5051:5071   */\n      tag_61\n      jump\t// in\n    tag_143:\n        /* \"#utility.yul\":5046:5071   */\n      swap2\n      pop\n        /* \"#utility.yul\":5085:5105   */\n      tag_144\n        /* \"#utility.yul\":5103:5104   */\n      dup4\n        /* \"#utility.yul\":5085:5105   */\n      tag_61\n      jump\t// in\n    tag_144:\n        /* \"#utility.yul\":5080:5105   */\n      swap3\n      pop\n        /* \"#utility.yul\":5124:5125   */\n      dup3\n        /* \"#utility.yul\":5114:5149   */\n      tag_145\n      jumpi\n        /* \"#utility.yul\":5129:5147   */\n      tag_146\n      tag_77\n      jump\t// in\n    tag_146:\n        /* \"#utility.yul\":5114:5149   */\n    tag_145:\n        /* \"#utility.yul\":5171:5172   */\n      dup3\n        /* \"#utility.yul\":5168:5169   */\n      dup3\n        /* \"#utility.yul\":5164:5173   */\n      div\n        /* \"#utility.yul\":5159:5173   */\n      swap1\n      pop\n        /* \"#utility.yul\":4994:5179   */\n      swap3\n      swap2\n      pop\n      pop\n      jump\t// out\n        /* \"#utility.yul\":5185:5290   */\n    tag_78:\n        /* \"#utility.yul\":5221:5228   */\n      0x00\n        /* \"#utility.yul\":5261:5283   */\n      0xffffffffffffffffffff\n        /* \"#utility.yul\":5254:5259   */\n      dup3\n        /* \"#utility.yul\":5250:5284   */\n      and\n        /* \"#utility.yul\":5239:5284   */\n      swap1\n      pop\n        /* \"#utility.yul\":5185:5290   */\n      swap2\n      swap1\n      pop\n      jump\t// out\n        /* \"#utility.yul\":5296:5416   */\n    tag_79:\n        /* \"#utility.yul\":5368:5391   */\n      tag_149\n        /* \"#utility.yul\":5385:5390   */\n      dup2\n        /* \"#utility.yul\":5368:5391   */\n      tag_78\n      jump\t// in\n    tag_149:\n        /* \"#utility.yul\":5361:5366   */\n      dup2\n        /* \"#utility.yul\":5358:5392   */\n      eq\n        /* \"#utility.yul\":5348:5410   */\n      tag_150\n      jumpi\n        /* \"#utility.yul\":5406:5407   */\n      0x00\n        /* \"#utility.yul\":5403:5404   */\n      dup1\n        /* \"#utility.yul\":5396:5408   */\n      revert\n        /* \"#utility.yul\":5348:5410   */\n    tag_150:\n        /* \"#utility.yul\":5296:5416   */\n      pop\n      jump\t// out\n        /* \"#utility.yul\":5422:5563   */\n    tag_80:\n        /* \"#utility.yul\":5478:5483   */\n      0x00\n        /* \"#utility.yul\":5509:5515   */\n      dup2\n        /* \"#utility.yul\":5503:5516   */\n      mload\n        /* \"#utility.yul\":5494:5516   */\n      swap1\n      pop\n        /* \"#utility.yul\":5525:5557   */\n      tag_152\n        /* \"#utility.yul\":5551:5556   */\n      dup2\n        /* \"#utility.yul\":5525:5557   */\n      tag_79\n      jump\t// in\n    tag_152:\n        /* \"#utility.yul\":5422:5563   */\n      swap3\n      swap2\n      pop\n      pop\n      jump\t// out\n        /* \"#utility.yul\":5569:5645   */\n    tag_81:\n        /* \"#utility.yul\":5605:5612   */\n      0x00\n        /* \"#utility.yul\":5634:5639   */\n      dup2\n        /* \"#utility.yul\":5623:5639   */\n      swap1\n      pop\n        /* \"#utility.yul\":5569:5645   */\n      swap2\n      swap1\n      pop\n      jump\t// out\n        /* \"#utility.yul\":5651:5771   */\n    tag_82:\n        /* \"#utility.yul\":5723:5746   */\n      tag_155\n        /* \"#utility.yul\":5740:5745   */\n      dup2\n        /* \"#utility.yul\":5723:5746   */\n      tag_81\n      jump\t// in\n    tag_155:\n        /* \"#utility.yul\":5716:5721   */\n      dup2\n        /* \"#utility.yul\":5713:5747   */\n      eq\n        /* \"#utility.yul\":5703:5765   */\n      tag_156\n      jumpi\n        /* \"#utility.yul\":5761:5762   */\n      0x00\n        /* \"#utility.yul\":5758:5759   */\n      dup1\n        /* \"#utility.yul\":5751:5763   */\n      revert\n        /* \"#utility.yul\":5703:5765   */\n    tag_156:\n        /* \"#utility.yul\":5651:5771   */\n      pop\n      jump\t// out\n        /* \"#utility.yul\":5777:5918   */\n    tag_83:\n        /* \"#utility.yul\":5833:5838   */\n      0x00\n        /* \"#utility.yul\":5864:5870   */\n      dup2\n        /* \"#utility.yul\":5858:5871   */\n      mload\n        /* \"#utility.yul\":5849:5871   */\n      swap1\n      pop\n        /* \"#utility.yul\":5880:5912   */\n      tag_158\n        /* \"#utility.yul\":5906:5911   */\n      dup2\n        /* \"#utility.yul\":5880:5912   */\n      tag_82\n      jump\t// in\n    tag_158:\n        /* \"#utility.yul\":5777:5918   */\n      swap3\n      swap2\n      pop\n      pop\n      jump\t// out\n        /* \"#utility.yul\":5924:6067   */\n    tag_84:\n        /* \"#utility.yul\":5981:5986   */\n      0x00\n        /* \"#utility.yul\":6012:6018   */\n      dup2\n        /* \"#utility.yul\":6006:6019   */\n      mload\n        /* \"#utility.yul\":5997:6019   */\n      swap1\n      pop\n        /* \"#utility.yul\":6028:6061   */\n      tag_160\n        /* \"#utility.yul\":6055:6060   */\n      dup2\n        /* \"#utility.yul\":6028:6061   */\n      tag_70\n      jump\t// in\n    tag_160:\n        /* \"#utility.yul\":5924:6067   */\n      swap3\n      swap2\n      pop\n      pop\n      jump\t// out\n        /* \"#utility.yul\":6073:7044   */\n    tag_58:\n        /* \"#utility.yul\":6176:6182   */\n      0x00\n        /* \"#utility.yul\":6184:6190   */\n      dup1\n        /* \"#utility.yul\":6192:6198   */\n      0x00\n        /* \"#utility.yul\":6200:6206   */\n      dup1\n        /* \"#utility.yul\":6208:6214   */\n      0x00\n        /* \"#utility.yul\":6257:6260   */\n      0xa0\n        /* \"#utility.yul\":6245:6254   */\n      dup7\n        /* \"#utility.yul\":6236:6243   */\n      dup9\n        /* \"#utility.yul\":6232:6255   */\n      sub\n        /* \"#utility.yul\":6228:6261   */\n      slt\n        /* \"#utility.yul\":6225:6345   */\n      iszero\n      tag_162\n      jumpi\n        /* \"#utility.yul\":6264:6343   */\n      tag_163\n      tag_64\n      jump\t// in\n    tag_163:\n        /* \"#utility.yul\":6225:6345   */\n    tag_162:\n        /* \"#utility.yul\":6384:6385   */\n      0x00\n        /* \"#utility.yul\":6409:6472   */\n      tag_164\n        /* \"#utility.yul\":6464:6471   */\n      dup9\n        /* \"#utility.yul\":6455:6461   */\n      dup3\n        /* \"#utility.yul\":6444:6453   */\n      dup10\n        /* \"#utility.yul\":6440:6462   */\n      add\n        /* \"#utility.yul\":6409:6472   */\n      tag_80\n      jump\t// in\n    tag_164:\n        /* \"#utility.yul\":6399:6472   */\n      swap6\n      pop\n        /* \"#utility.yul\":6355:6482   */\n      pop\n        /* \"#utility.yul\":6521:6523   */\n      0x20\n        /* \"#utility.yul\":6547:6610   */\n      tag_165\n        /* \"#utility.yul\":6602:6609   */\n      dup9\n        /* \"#utility.yul\":6593:6599   */\n      dup3\n        /* \"#utility.yul\":6582:6591   */\n      dup10\n        /* \"#utility.yul\":6578:6600   */\n      add\n        /* \"#utility.yul\":6547:6610   */\n      tag_83\n      jump\t// in\n    tag_165:\n        /* \"#utility.yul\":6537:6610   */\n      swap5\n      pop\n        /* \"#utility.yul\":6492:6620   */\n      pop\n        /* \"#utility.yul\":6659:6661   */\n      0x40\n        /* \"#utility.yul\":6685:6749   */\n      tag_166\n        /* \"#utility.yul\":6741:6748   */\n      dup9\n        /* \"#utility.yul\":6732:6738   */\n      dup3\n        /* \"#utility.yul\":6721:6730   */\n      dup10\n        /* \"#utility.yul\":6717:6739   */\n      add\n        /* \"#utility.yul\":6685:6749   */\n      tag_84\n      jump\t// in\n    tag_166:\n        /* \"#utility.yul\":6675:6749   */\n      swap4\n      pop\n        /* \"#utility.yul\":6630:6759   */\n      pop\n        /* \"#utility.yul\":6798:6800   */\n      0x60\n        /* \"#utility.yul\":6824:6888   */\n      tag_167\n        /* \"#utility.yul\":6880:6887   */\n      dup9\n        /* \"#utility.yul\":6871:6877   */\n      dup3\n        /* \"#utility.yul\":6860:6869   */\n      dup10\n        /* \"#utility.yul\":6856:6878   */\n      add\n        /* \"#utility.yul\":6824:6888   */\n      tag_84\n      jump\t// in\n    tag_167:\n        /* \"#utility.yul\":6814:6888   */\n      swap3\n      pop\n        /* \"#utility.yul\":6769:6898   */\n      pop\n        /* \"#utility.yul\":6937:6940   */\n      0x80\n        /* \"#utility.yul\":6964:7027   */\n      tag_168\n        /* \"#utility.yul\":7019:7026   */\n      dup9\n        /* \"#utility.yul\":7010:7016   */\n      dup3\n        /* \"#utility.yul\":6999:7008   */\n      dup10\n        /* \"#utility.yul\":6995:7017   */\n      add\n        /* \"#utility.yul\":6964:7027   */\n      tag_80\n      jump\t// in\n    tag_168:\n        /* \"#utility.yul\":6954:7027   */\n      swap2\n      pop\n        /* \"#utility.yul\":6908:7037   */\n      pop\n        /* \"#utility.yul\":6073:7044   */\n      swap3\n      swap6\n      pop\n      swap3\n      swap6\n      swap1\n      swap4\n      pop\n      jump\t// out\n        /* \"#utility.yul\":7050:8041   */\n    tag_60:\n        /* \"#utility.yul\":7089:7096   */\n      0x00\n        /* \"#utility.yul\":7112:7131   */\n      tag_170\n        /* \"#utility.yul\":7129:7130   */\n      dup3\n        /* \"#utility.yul\":7112:7131   */\n      tag_81\n      jump\t// in\n    tag_170:\n        /* \"#utility.yul\":7107:7131   */\n      swap2\n      pop\n        /* \"#utility.yul\":7145:7164   */\n      tag_171\n        /* \"#utility.yul\":7162:7163   */\n      dup4\n        /* \"#utility.yul\":7145:7164   */\n      tag_81\n      jump\t// in\n    tag_171:\n        /* \"#utility.yul\":7140:7164   */\n      swap3\n      pop\n        /* \"#utility.yul\":7346:7347   */\n      dup3\n        /* \"#utility.yul\":7278:7344   */\n      0x7fffffffffffffffffffffffffffffffffffffffffffffffffffffffffffffff\n        /* \"#utility.yul\":7274:7348   */\n      div\n        /* \"#utility.yul\":7271:7272   */\n      dup3\n        /* \"#utility.yul\":7268:7349   */\n      gt\n        /* \"#utility.yul\":7263:7264   */\n      0x00\n        /* \"#utility.yul\":7260:7261   */\n      dup5\n        /* \"#utility.yul\":7256:7265   */\n      sgt\n        /* \"#utility.yul\":7252:7253   */\n      0x00\n        /* \"#utility.yul\":7249:7250   */\n      dup5\n        /* \"#utility.yul\":7245:7254   */\n      sgt\n        /* \"#utility.yul\":7241:7266   */\n      and\n        /* \"#utility.yul\":7237:7350   */\n      and\n        /* \"#utility.yul\":7234:7373   */\n      iszero\n      tag_172\n      jumpi\n        /* \"#utility.yul\":7353:7371   */\n      tag_173\n      tag_73\n      jump\t// in\n    tag_173:\n        /* \"#utility.yul\":7234:7373   */\n    tag_172:\n        /* \"#utility.yul\":7557:7558   */\n      dup2\n        /* \"#utility.yul\":7489:7555   */\n      0x8000000000000000000000000000000000000000000000000000000000000000\n        /* \"#utility.yul\":7484:7559   */\n      sdiv\n        /* \"#utility.yul\":7481:7482   */\n      dup4\n        /* \"#utility.yul\":7477:7560   */\n      slt\n        /* \"#utility.yul\":7472:7473   */\n      0x00\n        /* \"#utility.yul\":7469:7470   */\n      dup5\n        /* \"#utility.yul\":7465:7474   */\n      slt\n        /* \"#utility.yul\":7461:7462   */\n      0x00\n        /* \"#utility.yul\":7458:7459   */\n      dup5\n        /* \"#utility.yul\":7454:7463   */\n      sgt\n        /* \"#utility.yul\":7450:7475   */\n      and\n        /* \"#utility.yul\":7446:7561   */\n      and\n        /* \"#utility.yul\":7443:7584   */\n      iszero\n      tag_174\n      jumpi\n        /* \"#utility.yul\":7564:7582   */\n      tag_175\n      tag_73\n      jump\t// in\n    tag_175:\n        /* \"#utility.yul\":7443:7584   */\n    tag_174:\n        /* \"#utility.yul\":7768:7769   */\n      dup3\n        /* \"#utility.yul\":7700:7766   */\n      0x8000000000000000000000000000000000000000000000000000000000000000\n        /* \"#utility.yul\":7695:7770   */\n      sdiv\n        /* \"#utility.yul\":7692:7693   */\n      dup3\n        /* \"#utility.yul\":7688:7771   */\n      slt\n        /* \"#utility.yul\":7683:7684   */\n      0x00\n        /* \"#utility.yul\":7680:7681   */\n      dup5\n        /* \"#utility.yul\":7676:7685   */\n      sgt\n        /* \"#utility.yul\":7672:7673   */\n      0x00\n        /* \"#utility.yul\":7669:7670   */\n      dup5\n        /* \"#utility.yul\":7665:7674   */\n      slt\n        /* \"#utility.yul\":7661:7686   */\n      and\n        /* \"#utility.yul\":7657:7772   */\n      and\n        /* \"#utility.yul\":7654:7795   */\n      iszero\n      tag_176\n      jumpi\n        /* \"#utility.yul\":7775:7793   */\n      tag_177\n      tag_73\n      jump\t// in\n    tag_177:\n        /* \"#utility.yul\":7654:7795   */\n    tag_176:\n        /* \"#utility.yul\":7978:7979   */\n      dup3\n        /* \"#utility.yul\":7910:7976   */\n      0x7fffffffffffffffffffffffffffffffffffffffffffffffffffffffffffffff\n        /* \"#utility.yul\":7905:7980   */\n      sdiv\n        /* \"#utility.yul\":7902:7903   */\n      dup3\n        /* \"#utility.yul\":7898:7981   */\n      slt\n        /* \"#utility.yul\":7893:7894   */\n      0x00\n        /* \"#utility.yul\":7890:7891   */\n      dup5\n        /* \"#utility.yul\":7886:7895   */\n      slt\n        /* \"#utility.yul\":7882:7883   */\n      0x00\n        /* \"#utility.yul\":7879:7880   */\n      dup5\n        /* \"#utility.yul\":7875:7884   */\n      slt\n        /* \"#utility.yul\":7871:7896   */\n      and\n        /* \"#utility.yul\":7867:7982   */\n      and\n        /* \"#utility.yul\":7864:8005   */\n      iszero\n      tag_178\n      jumpi\n        /* \"#utility.yul\":7985:8003   */\n      tag_179\n      tag_73\n      jump\t// in\n    tag_179:\n        /* \"#utility.yul\":7864:8005   */\n    tag_178:\n        /* \"#utility.yul\":8033:8034   */\n      dup3\n        /* \"#utility.yul\":8030:8031   */\n      dup3\n        /* \"#utility.yul\":8026:8035   */\n      mul\n        /* \"#utility.yul\":8015:8035   */\n      swap1\n      pop\n        /* \"#utility.yul\":7050:8041   */\n      swap3\n      swap2\n      pop\n      pop\n      jump\t// out\n\n    auxdata: 0xa2646970667358221220e18c03ea671ae6f6f2ad9ed9c3ad08f54917bbc2bbd5f0f1b40b807d8625192464736f6c634300080f0033\n}\n",
				"bytecode": {
					"linkReferences": {},
					"object": "60806040526802b5e3af16b188000060005534801561001d57600080fd5b506109238061002d6000396000f3fe60806040526004361061004a5760003560e01c8063098de8201461004f5780633ccfd60b1461007a5780633e47d6f314610091578063b60d4288146100ce578063dc0d3dff146100d8575b600080fd5b34801561005b57600080fd5b50610064610115565b604051610071919061039c565b60405180910390f35b34801561008657600080fd5b5061008f61011b565b005b34801561009d57600080fd5b506100b860048036038101906100b3919061041a565b610141565b6040516100c5919061039c565b60405180910390f35b6100d6610159565b005b3480156100e457600080fd5b506100ff60048036038101906100fa9190610473565b610261565b60405161010c91906104af565b60405180910390f35b60005481565b60005b60018054905081101561013e578080610136906104f9565b91505061011e565b50565b60026020528060005260406000206000915090505481565b600054610165346102a0565b10156101a6576040517f08c379a000000000000000000000000000000000000000000000000000000000815260040161019d9061059e565b60405180910390fd5b6001339080600181540180825580915050600190039060005260206000200160009091909190916101000a81548173ffffffffffffffffffffffffffffffffffffffff021916908373ffffffffffffffffffffffffffffffffffffffff16021790555034600260003373ffffffffffffffffffffffffffffffffffffffff1673ffffffffffffffffffffffffffffffffffffffff168152602001908152602001600020600082825461025891906105be565b92505081905550565b6001818154811061027157600080fd5b906000526020600020016000915054906101000a900473ffffffffffffffffffffffffffffffffffffffff1681565b6000806102ab6102da565b90506000670de0b6b3a764000084836102c49190610614565b6102ce919061069d565b90508092505050919050565b600080738a753747a1fa494ec906ce90e9f37563a8af630e905060008173ffffffffffffffffffffffffffffffffffffffff1663feaf968c6040518163ffffffff1660e01b815260040160a060405180830381865afa158015610341573d6000803e3d6000fd5b505050506040513d601f19601f82011682018060405250810190610365919061075b565b5050509150506402540be4008161037c91906107d6565b9250505090565b6000819050919050565b61039681610383565b82525050565b60006020820190506103b1600083018461038d565b92915050565b600080fd5b600073ffffffffffffffffffffffffffffffffffffffff82169050919050565b60006103e7826103bc565b9050919050565b6103f7816103dc565b811461040257600080fd5b50565b600081359050610414816103ee565b92915050565b6000602082840312156104305761042f6103b7565b5b600061043e84828501610405565b91505092915050565b61045081610383565b811461045b57600080fd5b50565b60008135905061046d81610447565b92915050565b600060208284031215610489576104886103b7565b5b60006104978482850161045e565b91505092915050565b6104a9816103dc565b82525050565b60006020820190506104c460008301846104a0565b92915050565b7f4e487b7100000000000000000000000000000000000000000000000000000000600052601160045260246000fd5b600061050482610383565b91507fffffffffffffffffffffffffffffffffffffffffffffffffffffffffffffffff8203610536576105356104ca565b5b600182019050919050565b600082825260208201905092915050565b7f4469646e27742073656e6420656e6f7567682100000000000000000000000000600082015250565b6000610588601383610541565b915061059382610552565b602082019050919050565b600060208201905081810360008301526105b78161057b565b9050919050565b60006105c982610383565b91506105d483610383565b9250827fffffffffffffffffffffffffffffffffffffffffffffffffffffffffffffffff03821115610609576106086104ca565b5b828201905092915050565b600061061f82610383565b915061062a83610383565b9250817fffffffffffffffffffffffffffffffffffffffffffffffffffffffffffffffff0483118215151615610663576106626104ca565b5b828202905092915050565b7f4e487b7100000000000000000000000000000000000000000000000000000000600052601260045260246000fd5b60006106a882610383565b91506106b383610383565b9250826106c3576106c261066e565b5b828204905092915050565b600069ffffffffffffffffffff82169050919050565b6106ed816106ce565b81146106f857600080fd5b50565b60008151905061070a816106e4565b92915050565b6000819050919050565b61072381610710565b811461072e57600080fd5b50565b6000815190506107408161071a565b92915050565b60008151905061075581610447565b92915050565b600080600080600060a08688031215610777576107766103b7565b5b6000610785888289016106fb565b955050602061079688828901610731565b94505060406107a788828901610746565b93505060606107b888828901610746565b92505060806107c9888289016106fb565b9150509295509295909350565b60006107e182610710565b91506107ec83610710565b9250827f7fffffffffffffffffffffffffffffffffffffffffffffffffffffffffffffff048211600084136000841316161561082b5761082a6104ca565b5b817f80000000000000000000000000000000000000000000000000000000000000000583126000841260008413161615610868576108676104ca565b5b827f800000000000000000000000000000000000000000000000000000000000000005821260008413600084121616156108a5576108a46104ca565b5b827f7fffffffffffffffffffffffffffffffffffffffffffffffffffffffffffffff05821260008412600084121616156108e2576108e16104ca565b5b82820290509291505056fea2646970667358221220e18c03ea671ae6f6f2ad9ed9c3ad08f54917bbc2bbd5f0f1b40b807d8625192464736f6c634300080f0033",
					"opcodes": "PUSH1 0x80 PUSH1 0x40 MSTORE PUSH9 0x2B5E3AF16B1880000 PUSH1 0x0 SSTORE CALLVALUE DUP1 ISZERO PUSH2 0x1D JUMPI PUSH1 0x0 DUP1 REVERT JUMPDEST POP PUSH2 0x923 DUP1 PUSH2 0x2D PUSH1 0x0 CODECOPY PUSH1 0x0 RETURN INVALID PUSH1 0x80 PUSH1 0x40 MSTORE PUSH1 0x4 CALLDATASIZE LT PUSH2 0x4A JUMPI PUSH1 0x0 CALLDATALOAD PUSH1 0xE0 SHR DUP1 PUSH4 0x98DE820 EQ PUSH2 0x4F JUMPI DUP1 PUSH4 0x3CCFD60B EQ PUSH2 0x7A JUMPI DUP1 PUSH4 0x3E47D6F3 EQ PUSH2 0x91 JUMPI DUP1 PUSH4 0xB60D4288 EQ PUSH2 0xCE JUMPI DUP1 PUSH4 0xDC0D3DFF EQ PUSH2 0xD8 JUMPI JUMPDEST PUSH1 0x0 DUP1 REVERT JUMPDEST CALLVALUE DUP1 ISZERO PUSH2 0x5B JUMPI PUSH1 0x0 DUP1 REVERT JUMPDEST POP PUSH2 0x64 PUSH2 0x115 JUMP JUMPDEST PUSH1 0x40 MLOAD PUSH2 0x71 SWAP2 SWAP1 PUSH2 0x39C JUMP JUMPDEST PUSH1 0x40 MLOAD DUP1 SWAP2 SUB SWAP1 RETURN JUMPDEST CALLVALUE DUP1 ISZERO PUSH2 0x86 JUMPI PUSH1 0x0 DUP1 REVERT JUMPDEST POP PUSH2 0x8F PUSH2 0x11B JUMP JUMPDEST STOP JUMPDEST CALLVALUE DUP1 ISZERO PUSH2 0x9D JUMPI PUSH1 0x0 DUP1 REVERT JUMPDEST POP PUSH2 0xB8 PUSH1 0x4 DUP1 CALLDATASIZE SUB DUP2 ADD SWAP1 PUSH2 0xB3 SWAP2 SWAP1 PUSH2 0x41A JUMP JUMPDEST PUSH2 0x141 JUMP JUMPDEST PUSH1 0x40 MLOAD PUSH2 0xC5 SWAP2 SWAP1 PUSH2 0x39C JUMP JUMPDEST PUSH1 0x40 MLOAD DUP1 SWAP2 SUB SWAP1 RETURN JUMPDEST PUSH2 0xD6 PUSH2 0x159 JUMP JUMPDEST STOP JUMPDEST CALLVALUE DUP1 ISZERO PUSH2 0xE4 JUMPI PUSH1 0x0 DUP1 REVERT JUMPDEST POP PUSH2 0xFF PUSH1 0x4 DUP1 CALLDATASIZE SUB DUP2 ADD SWAP1 PUSH2 0xFA SWAP2 SWAP1 PUSH2 0x473 JUMP JUMPDEST PUSH2 0x261 JUMP JUMPDEST PUSH1 0x40 MLOAD PUSH2 0x10C SWAP2 SWAP1 PUSH2 0x4AF JUMP JUMPDEST PUSH1 0x40 MLOAD DUP1 SWAP2 SUB SWAP1 RETURN JUMPDEST PUSH1 0x0 SLOAD DUP2 JUMP JUMPDEST PUSH1 0x0 JUMPDEST PUSH1 0x1 DUP1 SLOAD SWAP1 POP DUP2 LT ISZERO PUSH2 0x13E JUMPI DUP1 DUP1 PUSH2 0x136 SWAP1 PUSH2 0x4F9 JUMP JUMPDEST SWAP2 POP POP PUSH2 0x11E JUMP JUMPDEST POP JUMP JUMPDEST PUSH1 0x2 PUSH1 0x20 MSTORE DUP1 PUSH1 0x0 MSTORE PUSH1 0x40 PUSH1 0x0 KECCAK256 PUSH1 0x0 SWAP2 POP SWAP1 POP SLOAD DUP2 JUMP JUMPDEST PUSH1 0x0 SLOAD PUSH2 0x165 CALLVALUE PUSH2 0x2A0 JUMP JUMPDEST LT ISZERO PUSH2 0x1A6 JUMPI PUSH1 0x40 MLOAD PUSH32 0x8C379A000000000000000000000000000000000000000000000000000000000 DUP2 MSTORE PUSH1 0x4 ADD PUSH2 0x19D SWAP1 PUSH2 0x59E JUMP JUMPDEST PUSH1 0x40 MLOAD DUP1 SWAP2 SUB SWAP1 REVERT JUMPDEST PUSH1 0x1 CALLER SWAP1 DUP1 PUSH1 0x1 DUP2 SLOAD ADD DUP1 DUP3 SSTORE DUP1 SWAP2 POP POP PUSH1 0x1 SWAP1 SUB SWAP1 PUSH1 0x0 MSTORE PUSH1 0x20 PUSH1 0x0 KECCAK256 ADD PUSH1 0x0 SWAP1 SWAP2 SWAP1 SWAP2 SWAP1 SWAP2 PUSH2 0x100 EXP DUP2 SLOAD DUP2 PUSH20 0xFFFFFFFFFFFFFFFFFFFFFFFFFFFFFFFFFFFFFFFF MUL NOT AND SWAP1 DUP4 PUSH20 0xFFFFFFFFFFFFFFFFFFFFFFFFFFFFFFFFFFFFFFFF AND MUL OR SWAP1 SSTORE POP CALLVALUE PUSH1 0x2 PUSH1 0x0 CALLER PUSH20 0xFFFFFFFFFFFFFFFFFFFFFFFFFFFFFFFFFFFFFFFF AND PUSH20 0xFFFFFFFFFFFFFFFFFFFFFFFFFFFFFFFFFFFFFFFF AND DUP2 MSTORE PUSH1 0x20 ADD SWAP1 DUP2 MSTORE PUSH1 0x20 ADD PUSH1 0x0 KECCAK256 PUSH1 0x0 DUP3 DUP3 SLOAD PUSH2 0x258 SWAP2 SWAP1 PUSH2 0x5BE JUMP JUMPDEST SWAP3 POP POP DUP2 SWAP1 SSTORE POP JUMP JUMPDEST PUSH1 0x1 DUP2 DUP2 SLOAD DUP2 LT PUSH2 0x271 JUMPI PUSH1 0x0 DUP1 REVERT JUMPDEST SWAP1 PUSH1 0x0 MSTORE PUSH1 0x20 PUSH1 0x0 KECCAK256 ADD PUSH1 0x0 SWAP2 POP SLOAD SWAP1 PUSH2 0x100 EXP SWAP1 DIV PUSH20 0xFFFFFFFFFFFFFFFFFFFFFFFFFFFFFFFFFFFFFFFF AND DUP2 JUMP JUMPDEST PUSH1 0x0 DUP1 PUSH2 0x2AB PUSH2 0x2DA JUMP JUMPDEST SWAP1 POP PUSH1 0x0 PUSH8 0xDE0B6B3A7640000 DUP5 DUP4 PUSH2 0x2C4 SWAP2 SWAP1 PUSH2 0x614 JUMP JUMPDEST PUSH2 0x2CE SWAP2 SWAP1 PUSH2 0x69D JUMP JUMPDEST SWAP1 POP DUP1 SWAP3 POP POP POP SWAP2 SWAP1 POP JUMP JUMPDEST PUSH1 0x0 DUP1 PUSH20 0x8A753747A1FA494EC906CE90E9F37563A8AF630E SWAP1 POP PUSH1 0x0 DUP2 PUSH20 0xFFFFFFFFFFFFFFFFFFFFFFFFFFFFFFFFFFFFFFFF AND PUSH4 0xFEAF968C PUSH1 0x40 MLOAD DUP2 PUSH4 0xFFFFFFFF AND PUSH1 0xE0 SHL DUP2 MSTORE PUSH1 0x4 ADD PUSH1 0xA0 PUSH1 0x40 MLOAD DUP1 DUP4 SUB DUP2 DUP7 GAS STATICCALL ISZERO DUP1 ISZERO PUSH2 0x341 JUMPI RETURNDATASIZE PUSH1 0x0 DUP1 RETURNDATACOPY RETURNDATASIZE PUSH1 0x0 REVERT JUMPDEST POP POP POP POP PUSH1 0x40 MLOAD RETURNDATASIZE PUSH1 0x1F NOT PUSH1 0x1F DUP3 ADD AND DUP3 ADD DUP1 PUSH1 0x40 MSTORE POP DUP2 ADD SWAP1 PUSH2 0x365 SWAP2 SWAP1 PUSH2 0x75B JUMP JUMPDEST POP POP POP SWAP2 POP POP PUSH5 0x2540BE400 DUP2 PUSH2 0x37C SWAP2 SWAP1 PUSH2 0x7D6 JUMP JUMPDEST SWAP3 POP POP POP SWAP1 JUMP JUMPDEST PUSH1 0x0 DUP2 SWAP1 POP SWAP2 SWAP1 POP JUMP JUMPDEST PUSH2 0x396 DUP2 PUSH2 0x383 JUMP JUMPDEST DUP3 MSTORE POP POP JUMP JUMPDEST PUSH1 0x0 PUSH1 0x20 DUP3 ADD SWAP1 POP PUSH2 0x3B1 PUSH1 0x0 DUP4 ADD DUP5 PUSH2 0x38D JUMP JUMPDEST SWAP3 SWAP2 POP POP JUMP JUMPDEST PUSH1 0x0 DUP1 REVERT JUMPDEST PUSH1 0x0 PUSH20 0xFFFFFFFFFFFFFFFFFFFFFFFFFFFFFFFFFFFFFFFF DUP3 AND SWAP1 POP SWAP2 SWAP1 POP JUMP JUMPDEST PUSH1 0x0 PUSH2 0x3E7 DUP3 PUSH2 0x3BC JUMP JUMPDEST SWAP1 POP SWAP2 SWAP1 POP JUMP JUMPDEST PUSH2 0x3F7 DUP2 PUSH2 0x3DC JUMP JUMPDEST DUP2 EQ PUSH2 0x402 JUMPI PUSH1 0x0 DUP1 REVERT JUMPDEST POP JUMP JUMPDEST PUSH1 0x0 DUP2 CALLDATALOAD SWAP1 POP PUSH2 0x414 DUP2 PUSH2 0x3EE JUMP JUMPDEST SWAP3 SWAP2 POP POP JUMP JUMPDEST PUSH1 0x0 PUSH1 0x20 DUP3 DUP5 SUB SLT ISZERO PUSH2 0x430 JUMPI PUSH2 0x42F PUSH2 0x3B7 JUMP JUMPDEST JUMPDEST PUSH1 0x0 PUSH2 0x43E DUP5 DUP3 DUP6 ADD PUSH2 0x405 JUMP JUMPDEST SWAP2 POP POP SWAP3 SWAP2 POP POP JUMP JUMPDEST PUSH2 0x450 DUP2 PUSH2 0x383 JUMP JUMPDEST DUP2 EQ PUSH2 0x45B JUMPI PUSH1 0x0 DUP1 REVERT JUMPDEST POP JUMP JUMPDEST PUSH1 0x0 DUP2 CALLDATALOAD SWAP1 POP PUSH2 0x46D DUP2 PUSH2 0x447 JUMP JUMPDEST SWAP3 SWAP2 POP POP JUMP JUMPDEST PUSH1 0x0 PUSH1 0x20 DUP3 DUP5 SUB SLT ISZERO PUSH2 0x489 JUMPI PUSH2 0x488 PUSH2 0x3B7 JUMP JUMPDEST JUMPDEST PUSH1 0x0 PUSH2 0x497 DUP5 DUP3 DUP6 ADD PUSH2 0x45E JUMP JUMPDEST SWAP2 POP POP SWAP3 SWAP2 POP POP JUMP JUMPDEST PUSH2 0x4A9 DUP2 PUSH2 0x3DC JUMP JUMPDEST DUP3 MSTORE POP POP JUMP JUMPDEST PUSH1 0x0 PUSH1 0x20 DUP3 ADD SWAP1 POP PUSH2 0x4C4 PUSH1 0x0 DUP4 ADD DUP5 PUSH2 0x4A0 JUMP JUMPDEST SWAP3 SWAP2 POP POP JUMP JUMPDEST PUSH32 0x4E487B7100000000000000000000000000000000000000000000000000000000 PUSH1 0x0 MSTORE PUSH1 0x11 PUSH1 0x4 MSTORE PUSH1 0x24 PUSH1 0x0 REVERT JUMPDEST PUSH1 0x0 PUSH2 0x504 DUP3 PUSH2 0x383 JUMP JUMPDEST SWAP2 POP PUSH32 0xFFFFFFFFFFFFFFFFFFFFFFFFFFFFFFFFFFFFFFFFFFFFFFFFFFFFFFFFFFFFFFFF DUP3 SUB PUSH2 0x536 JUMPI PUSH2 0x535 PUSH2 0x4CA JUMP JUMPDEST JUMPDEST PUSH1 0x1 DUP3 ADD SWAP1 POP SWAP2 SWAP1 POP JUMP JUMPDEST PUSH1 0x0 DUP3 DUP3 MSTORE PUSH1 0x20 DUP3 ADD SWAP1 POP SWAP3 SWAP2 POP POP JUMP JUMPDEST PUSH32 0x4469646E27742073656E6420656E6F7567682100000000000000000000000000 PUSH1 0x0 DUP3 ADD MSTORE POP JUMP JUMPDEST PUSH1 0x0 PUSH2 0x588 PUSH1 0x13 DUP4 PUSH2 0x541 JUMP JUMPDEST SWAP2 POP PUSH2 0x593 DUP3 PUSH2 0x552 JUMP JUMPDEST PUSH1 0x20 DUP3 ADD SWAP1 POP SWAP2 SWAP1 POP JUMP JUMPDEST PUSH1 0x0 PUSH1 0x20 DUP3 ADD SWAP1 POP DUP2 DUP2 SUB PUSH1 0x0 DUP4 ADD MSTORE PUSH2 0x5B7 DUP2 PUSH2 0x57B JUMP JUMPDEST SWAP1 POP SWAP2 SWAP1 POP JUMP JUMPDEST PUSH1 0x0 PUSH2 0x5C9 DUP3 PUSH2 0x383 JUMP JUMPDEST SWAP2 POP PUSH2 0x5D4 DUP4 PUSH2 0x383 JUMP JUMPDEST SWAP3 POP DUP3 PUSH32 0xFFFFFFFFFFFFFFFFFFFFFFFFFFFFFFFFFFFFFFFFFFFFFFFFFFFFFFFFFFFFFFFF SUB DUP3 GT ISZERO PUSH2 0x609 JUMPI PUSH2 0x608 PUSH2 0x4CA JUMP JUMPDEST JUMPDEST DUP3 DUP3 ADD SWAP1 POP SWAP3 SWAP2 POP POP JUMP JUMPDEST PUSH1 0x0 PUSH2 0x61F DUP3 PUSH2 0x383 JUMP JUMPDEST SWAP2 POP PUSH2 0x62A DUP4 PUSH2 0x383 JUMP JUMPDEST SWAP3 POP DUP2 PUSH32 0xFFFFFFFFFFFFFFFFFFFFFFFFFFFFFFFFFFFFFFFFFFFFFFFFFFFFFFFFFFFFFFFF DIV DUP4 GT DUP3 ISZERO ISZERO AND ISZERO PUSH2 0x663 JUMPI PUSH2 0x662 PUSH2 0x4CA JUMP JUMPDEST JUMPDEST DUP3 DUP3 MUL SWAP1 POP SWAP3 SWAP2 POP POP JUMP JUMPDEST PUSH32 0x4E487B7100000000000000000000000000000000000000000000000000000000 PUSH1 0x0 MSTORE PUSH1 0x12 PUSH1 0x4 MSTORE PUSH1 0x24 PUSH1 0x0 REVERT JUMPDEST PUSH1 0x0 PUSH2 0x6A8 DUP3 PUSH2 0x383 JUMP JUMPDEST SWAP2 POP PUSH2 0x6B3 DUP4 PUSH2 0x383 JUMP JUMPDEST SWAP3 POP DUP3 PUSH2 0x6C3 JUMPI PUSH2 0x6C2 PUSH2 0x66E JUMP JUMPDEST JUMPDEST DUP3 DUP3 DIV SWAP1 POP SWAP3 SWAP2 POP POP JUMP JUMPDEST PUSH1 0x0 PUSH10 0xFFFFFFFFFFFFFFFFFFFF DUP3 AND SWAP1 POP SWAP2 SWAP1 POP JUMP JUMPDEST PUSH2 0x6ED DUP2 PUSH2 0x6CE JUMP JUMPDEST DUP2 EQ PUSH2 0x6F8 JUMPI PUSH1 0x0 DUP1 REVERT JUMPDEST POP JUMP JUMPDEST PUSH1 0x0 DUP2 MLOAD SWAP1 POP PUSH2 0x70A DUP2 PUSH2 0x6E4 JUMP JUMPDEST SWAP3 SWAP2 POP POP JUMP JUMPDEST PUSH1 0x0 DUP2 SWAP1 POP SWAP2 SWAP1 POP JUMP JUMPDEST PUSH2 0x723 DUP2 PUSH2 0x710 JUMP JUMPDEST DUP2 EQ PUSH2 0x72E JUMPI PUSH1 0x0 DUP1 REVERT JUMPDEST POP JUMP JUMPDEST PUSH1 0x0 DUP2 MLOAD SWAP1 POP PUSH2 0x740 DUP2 PUSH2 0x71A JUMP JUMPDEST SWAP3 SWAP2 POP POP JUMP JUMPDEST PUSH1 0x0 DUP2 MLOAD SWAP1 POP PUSH2 0x755 DUP2 PUSH2 0x447 JUMP JUMPDEST SWAP3 SWAP2 POP POP JUMP JUMPDEST PUSH1 0x0 DUP1 PUSH1 0x0 DUP1 PUSH1 0x0 PUSH1 0xA0 DUP7 DUP9 SUB SLT ISZERO PUSH2 0x777 JUMPI PUSH2 0x776 PUSH2 0x3B7 JUMP JUMPDEST JUMPDEST PUSH1 0x0 PUSH2 0x785 DUP9 DUP3 DUP10 ADD PUSH2 0x6FB JUMP JUMPDEST SWAP6 POP POP PUSH1 0x20 PUSH2 0x796 DUP9 DUP3 DUP10 ADD PUSH2 0x731 JUMP JUMPDEST SWAP5 POP POP PUSH1 0x40 PUSH2 0x7A7 DUP9 DUP3 DUP10 ADD PUSH2 0x746 JUMP JUMPDEST SWAP4 POP POP PUSH1 0x60 PUSH2 0x7B8 DUP9 DUP3 DUP10 ADD PUSH2 0x746 JUMP JUMPDEST SWAP3 POP POP PUSH1 0x80 PUSH2 0x7C9 DUP9 DUP3 DUP10 ADD PUSH2 0x6FB JUMP JUMPDEST SWAP2 POP POP SWAP3 SWAP6 POP SWAP3 SWAP6 SWAP1 SWAP4 POP JUMP JUMPDEST PUSH1 0x0 PUSH2 0x7E1 DUP3 PUSH2 0x710 JUMP JUMPDEST SWAP2 POP PUSH2 0x7EC DUP4 PUSH2 0x710 JUMP JUMPDEST SWAP3 POP DUP3 PUSH32 0x7FFFFFFFFFFFFFFFFFFFFFFFFFFFFFFFFFFFFFFFFFFFFFFFFFFFFFFFFFFFFFFF DIV DUP3 GT PUSH1 0x0 DUP5 SGT PUSH1 0x0 DUP5 SGT AND AND ISZERO PUSH2 0x82B JUMPI PUSH2 0x82A PUSH2 0x4CA JUMP JUMPDEST JUMPDEST DUP2 PUSH32 0x8000000000000000000000000000000000000000000000000000000000000000 SDIV DUP4 SLT PUSH1 0x0 DUP5 SLT PUSH1 0x0 DUP5 SGT AND AND ISZERO PUSH2 0x868 JUMPI PUSH2 0x867 PUSH2 0x4CA JUMP JUMPDEST JUMPDEST DUP3 PUSH32 0x8000000000000000000000000000000000000000000000000000000000000000 SDIV DUP3 SLT PUSH1 0x0 DUP5 SGT PUSH1 0x0 DUP5 SLT AND AND ISZERO PUSH2 0x8A5 JUMPI PUSH2 0x8A4 PUSH2 0x4CA JUMP JUMPDEST JUMPDEST DUP3 PUSH32 0x7FFFFFFFFFFFFFFFFFFFFFFFFFFFFFFFFFFFFFFFFFFFFFFFFFFFFFFFFFFFFFFF SDIV DUP3 SLT PUSH1 0x0 DUP5 SLT PUSH1 0x0 DUP5 SLT AND AND ISZERO PUSH2 0x8E2 JUMPI PUSH2 0x8E1 PUSH2 0x4CA JUMP JUMPDEST JUMPDEST DUP3 DUP3 MUL SWAP1 POP SWAP3 SWAP2 POP POP JUMP INVALID LOG2 PUSH5 0x6970667358 0x22 SLT KECCAK256 0xE1 DUP13 SUB 0xEA PUSH8 0x1AE6F6F2AD9ED9C3 0xAD ADDMOD CREATE2 0x49 OR 0xBB 0xC2 0xBB 0xD5 CREATE CALL 0xB4 SIGNEXTEND DUP1 PUSH30 0x8625192464736F6C634300080F0033000000000000000000000000000000 "
				},
				"gasEstimates": {
					"creation": {
						"codeDepositCost": "467800",
						"executionCost": "22611",
						"totalCost": "490411"
					},
					"external": {
						"addressToAmountFunded(address)": "2836",
						"fund()": "infinite",
						"funders(uint256)": "5022",
						"minimumUsd()": "2407",
						"withdraw()": "infinite"
					}
				},
				"methodIdentifiers": {
					"addressToAmountFunded(address)": "3e47d6f3",
					"fund()": "b60d4288",
					"funders(uint256)": "dc0d3dff",
					"minimumUsd()": "098de820",
					"withdraw()": "3ccfd60b"
				}
			},
			"storageLayout": {
				"storage": [
					{
						"astId": 56,
						"contract": "FundMe.sol:FundMe",
						"label": "minimumUsd",
						"offset": 0,
						"slot": "0",
						"type": "t_uint256"
					},
					{
						"astId": 59,
						"contract": "FundMe.sol:FundMe",
						"label": "funders",
						"offset": 0,
						"slot": "1",
						"type": "t_array(t_address)dyn_storage"
					},
					{
						"astId": 63,
						"contract": "FundMe.sol:FundMe",
						"label": "addressToAmountFunded",
						"offset": 0,
						"slot": "2",
						"type": "t_mapping(t_address,t_uint256)"
					}
				],
				"types": {
					"t_address": {
						"encoding": "inplace",
						"label": "address",
						"numberOfBytes": "20"
					},
					"t_array(t_address)dyn_storage": {
						"base": "t_address",
						"encoding": "dynamic_array",
						"label": "address[]",
						"numberOfBytes": "32"
					},
					"t_mapping(t_address,t_uint256)": {
						"encoding": "mapping",
						"key": "t_address",
						"label": "mapping(address => uint256)",
						"numberOfBytes": "32",
						"value": "t_uint256"
					},
					"t_uint256": {
						"encoding": "inplace",
						"label": "uint256",
						"numberOfBytes": "32"
					}
				}
			},
			"userdoc": {
				"kind": "user",
				"methods": {},
				"version": 1
			}
		}
	}
}