{
	"FundMe.sol": {
		"FundMe": {
			"abi": [
				{
					"inputs": [
						{
							"internalType": "address",
							"name": "",
							"type": "address"
						}
					],
					"name": "addressToAmountFunded",
					"outputs": [
						{
							"internalType": "uint256",
							"name": "",
							"type": "uint256"
						}
					],
					"stateMutability": "view",
					"type": "function"
				},
				{
					"inputs": [],
					"name": "fund",
					"outputs": [],
					"stateMutability": "payable",
					"type": "function"
				},
				{
					"inputs": [
						{
							"internalType": "uint256",
							"name": "",
							"type": "uint256"
						}
					],
					"name": "funders",
					"outputs": [
						{
							"internalType": "address",
							"name": "",
							"type": "address"
						}
					],
					"stateMutability": "view",
					"type": "function"
				},
				{
					"inputs": [],
					"name": "minimumUsd",
					"outputs": [
						{
							"internalType": "uint256",
							"name": "",
							"type": "uint256"
						}
					],
					"stateMutability": "view",
					"type": "function"
				},
				{
					"inputs": [],
					"name": "withdraw",
					"outputs": [],
					"stateMutability": "nonpayable",
					"type": "function"
				}
			],
			"devdoc": {
				"kind": "dev",
				"methods": {},
				"version": 1
			},
			"evm": {
				"assembly": "    /* \"FundMe.sol\":88:852  contract FundMe {... */\n  mstore(0x40, 0x80)\n    /* \"FundMe.sol\":231:240  50 * 1e18 */\n  0x02b5e3af16b1880000\n    /* \"FundMe.sol\":203:240  uint256 public minimumUsd = 50 * 1e18 */\n  0x00\n  sstore\n    /* \"FundMe.sol\":88:852  contract FundMe {... */\n  callvalue\n  dup1\n  iszero\n  tag_1\n  jumpi\n  0x00\n  dup1\n  revert\ntag_1:\n  pop\n  dataSize(sub_0)\n  dup1\n  dataOffset(sub_0)\n  0x00\n  codecopy\n  0x00\n  return\nstop\n\nsub_0: assembly {\n        /* \"FundMe.sol\":88:852  contract FundMe {... */\n      mstore(0x40, 0x80)\n      jumpi(tag_1, lt(calldatasize, 0x04))\n      shr(0xe0, calldataload(0x00))\n      dup1\n      0x098de820\n      eq\n      tag_2\n      jumpi\n      dup1\n      0x3ccfd60b\n      eq\n      tag_3\n      jumpi\n      dup1\n      0x3e47d6f3\n      eq\n      tag_4\n      jumpi\n      dup1\n      0xb60d4288\n      eq\n      tag_5\n      jumpi\n      dup1\n      0xdc0d3dff\n      eq\n      tag_6\n      jumpi\n    tag_1:\n      0x00\n      dup1\n      revert\n        /* \"FundMe.sol\":203:240  uint256 public minimumUsd = 50 * 1e18 */\n    tag_2:\n      callvalue\n      dup1\n      iszero\n      tag_7\n      jumpi\n      0x00\n      dup1\n      revert\n    tag_7:\n      pop\n      tag_8\n      tag_9\n      jump\t// in\n    tag_8:\n      mload(0x40)\n      tag_10\n      swap2\n      swap1\n      tag_11\n      jump\t// in\n    tag_10:\n      mload(0x40)\n      dup1\n      swap2\n      sub\n      swap1\n      return\n        /* \"FundMe.sol\":597:850  function withdraw() public {... */\n    tag_3:\n      callvalue\n      dup1\n      iszero\n      tag_12\n      jumpi\n      0x00\n      dup1\n      revert\n    tag_12:\n      pop\n      tag_13\n      tag_14\n      jump\t// in\n    tag_13:\n      stop\n        /* \"FundMe.sol\":277:333  mapping(address => uint256) public addressToAmountFunded */\n    tag_4:\n      callvalue\n      dup1\n      iszero\n      tag_15\n      jumpi\n      0x00\n      dup1\n      revert\n    tag_15:\n      pop\n      tag_16\n      0x04\n      dup1\n      calldatasize\n      sub\n      dup2\n      add\n      swap1\n      tag_17\n      swap2\n      swap1\n      tag_18\n      jump\t// in\n    tag_17:\n      tag_19\n      jump\t// in\n    tag_16:\n      mload(0x40)\n      tag_20\n      swap2\n      swap1\n      tag_11\n      jump\t// in\n    tag_20:\n      mload(0x40)\n      dup1\n      swap2\n      sub\n      swap1\n      return\n        /* \"FundMe.sol\":340:590  function fund() public payable{... */\n    tag_5:\n      tag_21\n      tag_22\n      jump\t// in\n    tag_21:\n      stop\n        /* \"FundMe.sol\":247:271  address[] public funders */\n    tag_6:\n      callvalue\n      dup1\n      iszero\n      tag_23\n      jumpi\n      0x00\n      dup1\n      revert\n    tag_23:\n      pop\n      tag_24\n      0x04\n      dup1\n      calldatasize\n      sub\n      dup2\n      add\n      swap1\n      tag_25\n      swap2\n      swap1\n      tag_26\n      jump\t// in\n    tag_25:\n      tag_27\n      jump\t// in\n    tag_24:\n      mload(0x40)\n      tag_28\n      swap2\n      swap1\n      tag_29\n      jump\t// in\n    tag_28:\n      mload(0x40)\n      dup1\n      swap2\n      sub\n      swap1\n      return\n        /* \"FundMe.sol\":203:240  uint256 public minimumUsd = 50 * 1e18 */\n    tag_9:\n      sload(0x00)\n      dup2\n      jump\t// out\n        /* \"FundMe.sol\":597:850  function withdraw() public {... */\n    tag_14:\n        /* \"FundMe.sol\":638:657  uint256 funderIndex */\n      0x00\n        /* \"FundMe.sol\":634:817  for(uint256 funderIndex = 0; funderIndex < funders.length; funderIndex++) {... */\n    tag_31:\n        /* \"FundMe.sol\":677:684  funders */\n      0x01\n        /* \"FundMe.sol\":677:691  funders.length */\n      dup1\n      sload\n      swap1\n      pop\n        /* \"FundMe.sol\":663:674  funderIndex */\n      dup2\n        /* \"FundMe.sol\":663:691  funderIndex < funders.length */\n      lt\n        /* \"FundMe.sol\":634:817  for(uint256 funderIndex = 0; funderIndex < funders.length; funderIndex++) {... */\n      iszero\n      tag_32\n      jumpi\n        /* \"FundMe.sol\":722:736  address funder */\n      0x00\n        /* \"FundMe.sol\":739:746  funders */\n      0x01\n        /* \"FundMe.sol\":747:758  funderIndex */\n      dup3\n        /* \"FundMe.sol\":739:759  funders[funderIndex] */\n      dup2\n      sload\n      dup2\n      lt\n      tag_34\n      jumpi\n      tag_35\n      tag_36\n      jump\t// in\n    tag_35:\n    tag_34:\n      swap1\n      0x00\n      mstore\n      keccak256(0x00, 0x20)\n      add\n      0x00\n      swap1\n      sload\n      swap1\n      0x0100\n      exp\n      swap1\n      div\n      0xffffffffffffffffffffffffffffffffffffffff\n      and\n        /* \"FundMe.sol\":722:759  address funder = funders[funderIndex] */\n      swap1\n      pop\n        /* \"FundMe.sol\":805:806  0 */\n      0x00\n        /* \"FundMe.sol\":773:794  addressToAmountFunded */\n      0x02\n        /* \"FundMe.sol\":773:802  addressToAmountFunded[funder] */\n      0x00\n        /* \"FundMe.sol\":795:801  funder */\n      dup4\n        /* \"FundMe.sol\":773:802  addressToAmountFunded[funder] */\n      0xffffffffffffffffffffffffffffffffffffffff\n      and\n      0xffffffffffffffffffffffffffffffffffffffff\n      and\n      dup2\n      mstore\n      0x20\n      add\n      swap1\n      dup2\n      mstore\n      0x20\n      add\n      0x00\n      keccak256\n        /* \"FundMe.sol\":773:806  addressToAmountFunded[funder] = 0 */\n      dup2\n      swap1\n      sstore\n      pop\n        /* \"FundMe.sol\":708:817  {... */\n      pop\n        /* \"FundMe.sol\":693:706  funderIndex++ */\n      dup1\n      dup1\n      tag_38\n      swap1\n      tag_39\n      jump\t// in\n    tag_38:\n      swap2\n      pop\n      pop\n        /* \"FundMe.sol\":634:817  for(uint256 funderIndex = 0; funderIndex < funders.length; funderIndex++) {... */\n      jump(tag_31)\n    tag_32:\n      pop\n        /* \"FundMe.sol\":597:850  function withdraw() public {... */\n      jump\t// out\n        /* \"FundMe.sol\":277:333  mapping(address => uint256) public addressToAmountFunded */\n    tag_19:\n      mstore(0x20, 0x02)\n      dup1\n      0x00\n      mstore\n      keccak256(0x00, 0x40)\n      0x00\n      swap2\n      pop\n      swap1\n      pop\n      sload\n      dup2\n      jump\t// out\n        /* \"FundMe.sol\":340:590  function fund() public payable{... */\n    tag_22:\n        /* \"FundMe.sol\":421:431  minimumUsd */\n      sload(0x00)\n        /* \"FundMe.sol\":388:417  msg.value.getConversionRate() */\n      tag_41\n        /* \"FundMe.sol\":388:397  msg.value */\n      callvalue\n        /* \"FundMe.sol\":388:415  msg.value.getConversionRate */\n      tag_42\n        /* \"FundMe.sol\":388:417  msg.value.getConversionRate() */\n      jump\t// in\n    tag_41:\n        /* \"FundMe.sol\":388:431  msg.value.getConversionRate() >= minimumUsd */\n      lt\n      iszero\n        /* \"FundMe.sol\":380:454  require(msg.value.getConversionRate() >= minimumUsd,\"Didn't send enough!\") */\n      tag_43\n      jumpi\n      mload(0x40)\n      0x08c379a000000000000000000000000000000000000000000000000000000000\n      dup2\n      mstore\n      0x04\n      add\n      tag_44\n      swap1\n      tag_45\n      jump\t// in\n    tag_44:\n      mload(0x40)\n      dup1\n      swap2\n      sub\n      swap1\n      revert\n    tag_43:\n        /* \"FundMe.sol\":503:510  funders */\n      0x01\n        /* \"FundMe.sol\":516:526  msg.sender */\n      caller\n        /* \"FundMe.sol\":503:527  funders.push(msg.sender) */\n      swap1\n      dup1\n      0x01\n      dup2\n      sload\n      add\n      dup1\n      dup3\n      sstore\n      dup1\n      swap2\n      pop\n      pop\n      0x01\n      swap1\n      sub\n      swap1\n      0x00\n      mstore\n      keccak256(0x00, 0x20)\n      add\n      0x00\n      swap1\n      swap2\n      swap1\n      swap2\n      swap1\n      swap2\n      0x0100\n      exp\n      dup2\n      sload\n      dup2\n      0xffffffffffffffffffffffffffffffffffffffff\n      mul\n      not\n      and\n      swap1\n      dup4\n      0xffffffffffffffffffffffffffffffffffffffff\n      and\n      mul\n      or\n      swap1\n      sstore\n      pop\n        /* \"FundMe.sol\":574:583  msg.value */\n      callvalue\n        /* \"FundMe.sol\":537:558  addressToAmountFunded */\n      0x02\n        /* \"FundMe.sol\":537:570  addressToAmountFunded[msg.sender] */\n      0x00\n        /* \"FundMe.sol\":559:569  msg.sender */\n      caller\n        /* \"FundMe.sol\":537:570  addressToAmountFunded[msg.sender] */\n      0xffffffffffffffffffffffffffffffffffffffff\n      and\n      0xffffffffffffffffffffffffffffffffffffffff\n      and\n      dup2\n      mstore\n      0x20\n      add\n      swap1\n      dup2\n      mstore\n      0x20\n      add\n      0x00\n      keccak256\n      0x00\n        /* \"FundMe.sol\":537:583  addressToAmountFunded[msg.sender] += msg.value */\n      dup3\n      dup3\n      sload\n      tag_47\n      swap2\n      swap1\n      tag_48\n      jump\t// in\n    tag_47:\n      swap3\n      pop\n      pop\n      dup2\n      swap1\n      sstore\n      pop\n        /* \"FundMe.sol\":340:590  function fund() public payable{... */\n      jump\t// out\n        /* \"FundMe.sol\":247:271  address[] public funders */\n    tag_27:\n      0x01\n      dup2\n      dup2\n      sload\n      dup2\n      lt\n      tag_49\n      jumpi\n      0x00\n      dup1\n      revert\n    tag_49:\n      swap1\n      0x00\n      mstore\n      keccak256(0x00, 0x20)\n      add\n      0x00\n      swap2\n      pop\n      sload\n      swap1\n      0x0100\n      exp\n      swap1\n      div\n      0xffffffffffffffffffffffffffffffffffffffff\n      and\n      dup2\n      jump\t// out\n        /* \"PriceConverter.sol\":868:1095  function getConversionRate(uint256 ethAmount) internal view returns(uint256) {... */\n    tag_42:\n        /* \"PriceConverter.sol\":936:943  uint256 */\n      0x00\n        /* \"PriceConverter.sol\":955:971  uint256 ethPrice */\n      dup1\n        /* \"PriceConverter.sol\":974:984  getPrice() */\n      tag_52\n        /* \"PriceConverter.sol\":974:982  getPrice */\n      tag_53\n        /* \"PriceConverter.sol\":974:984  getPrice() */\n      jump\t// in\n    tag_52:\n        /* \"PriceConverter.sol\":955:984  uint256 ethPrice = getPrice() */\n      swap1\n      pop\n        /* \"PriceConverter.sol\":994:1016  uint256 ethAmountInUsd */\n      0x00\n        /* \"PriceConverter.sol\":1044:1048  1e18 */\n      0x0de0b6b3a7640000\n        /* \"PriceConverter.sol\":1031:1040  ethAmount */\n      dup5\n        /* \"PriceConverter.sol\":1020:1028  ethPrice */\n      dup4\n        /* \"PriceConverter.sol\":1020:1040  ethPrice * ethAmount */\n      tag_54\n      swap2\n      swap1\n      tag_55\n      jump\t// in\n    tag_54:\n        /* \"PriceConverter.sol\":1019:1048  (ethPrice * ethAmount) / 1e18 */\n      tag_56\n      swap2\n      swap1\n      tag_57\n      jump\t// in\n    tag_56:\n        /* \"PriceConverter.sol\":994:1048  uint256 ethAmountInUsd = (ethPrice * ethAmount) / 1e18 */\n      swap1\n      pop\n        /* \"PriceConverter.sol\":1074:1088  ethAmountInUsd */\n      dup1\n        /* \"PriceConverter.sol\":1067:1088  return ethAmountInUsd */\n      swap3\n      pop\n      pop\n      pop\n        /* \"PriceConverter.sol\":868:1095  function getConversionRate(uint256 ethAmount) internal view returns(uint256) {... */\n      swap2\n      swap1\n      pop\n      jump\t// out\n        /* \"PriceConverter.sol\":164:650  function getPrice() internal view returns(uint256) {... */\n    tag_53:\n        /* \"PriceConverter.sol\":206:213  uint256 */\n      0x00\n        /* \"PriceConverter.sol\":304:335  AggregatorV3Interface priceFeed */\n      dup1\n        /* \"PriceConverter.sol\":360:402  0x8A753747A1Fa494EC906cE90E9f37563A8AF630e */\n      0x8a753747a1fa494ec906ce90e9f37563a8af630e\n        /* \"PriceConverter.sol\":304:403  AggregatorV3Interface priceFeed = AggregatorV3Interface(0x8A753747A1Fa494EC906cE90E9f37563A8AF630e) */\n      swap1\n      pop\n        /* \"PriceConverter.sol\":541:553  int256 price */\n      0x00\n        /* \"PriceConverter.sol\":560:569  priceFeed */\n      dup2\n        /* \"PriceConverter.sol\":560:585  priceFeed.latestRoundData */\n      0xffffffffffffffffffffffffffffffffffffffff\n      and\n      0xfeaf968c\n        /* \"PriceConverter.sol\":560:587  priceFeed.latestRoundData() */\n      mload(0x40)\n      dup2\n      0xffffffff\n      and\n      0xe0\n      shl\n      dup2\n      mstore\n      0x04\n      add\n      0xa0\n      mload(0x40)\n      dup1\n      dup4\n      sub\n      dup2\n      dup7\n      gas\n      staticcall\n      iszero\n      dup1\n      iszero\n      tag_60\n      jumpi\n      returndatasize\n      0x00\n      dup1\n      returndatacopy\n      revert(0x00, returndatasize)\n    tag_60:\n      pop\n      pop\n      pop\n      pop\n      mload(0x40)\n      returndatasize\n      not(0x1f)\n      0x1f\n      dup3\n      add\n      and\n      dup3\n      add\n      dup1\n      0x40\n      mstore\n      pop\n      dup2\n      add\n      swap1\n      tag_61\n      swap2\n      swap1\n      tag_62\n      jump\t// in\n    tag_61:\n        /* \"PriceConverter.sol\":539:587  (,int256 price,,,) = priceFeed.latestRoundData() */\n      pop\n      pop\n      pop\n      swap2\n      pop\n      pop\n        /* \"PriceConverter.sol\":638:642  1e10 */\n      0x02540be400\n        /* \"PriceConverter.sol\":630:635  price */\n      dup2\n        /* \"PriceConverter.sol\":630:642  price * 1e10 */\n      tag_63\n      swap2\n      swap1\n      tag_64\n      jump\t// in\n    tag_63:\n        /* \"PriceConverter.sol\":615:643  return uint256(price * 1e10) */\n      swap3\n      pop\n      pop\n      pop\n        /* \"PriceConverter.sol\":164:650  function getPrice() internal view returns(uint256) {... */\n      swap1\n      jump\t// out\n        /* \"#utility.yul\":7:84   */\n    tag_65:\n        /* \"#utility.yul\":44:51   */\n      0x00\n        /* \"#utility.yul\":73:78   */\n      dup2\n        /* \"#utility.yul\":62:78   */\n      swap1\n      pop\n        /* \"#utility.yul\":7:84   */\n      swap2\n      swap1\n      pop\n      jump\t// out\n        /* \"#utility.yul\":90:208   */\n    tag_66:\n        /* \"#utility.yul\":177:201   */\n      tag_92\n        /* \"#utility.yul\":195:200   */\n      dup2\n        /* \"#utility.yul\":177:201   */\n      tag_65\n      jump\t// in\n    tag_92:\n        /* \"#utility.yul\":172:175   */\n      dup3\n        /* \"#utility.yul\":165:202   */\n      mstore\n        /* \"#utility.yul\":90:208   */\n      pop\n      pop\n      jump\t// out\n        /* \"#utility.yul\":214:436   */\n    tag_11:\n        /* \"#utility.yul\":307:311   */\n      0x00\n        /* \"#utility.yul\":345:347   */\n      0x20\n        /* \"#utility.yul\":334:343   */\n      dup3\n        /* \"#utility.yul\":330:348   */\n      add\n        /* \"#utility.yul\":322:348   */\n      swap1\n      pop\n        /* \"#utility.yul\":358:429   */\n      tag_94\n        /* \"#utility.yul\":426:427   */\n      0x00\n        /* \"#utility.yul\":415:424   */\n      dup4\n        /* \"#utility.yul\":411:428   */\n      add\n        /* \"#utility.yul\":402:408   */\n      dup5\n        /* \"#utility.yul\":358:429   */\n      tag_66\n      jump\t// in\n    tag_94:\n        /* \"#utility.yul\":214:436   */\n      swap3\n      swap2\n      pop\n      pop\n      jump\t// out\n        /* \"#utility.yul\":523:640   */\n    tag_68:\n        /* \"#utility.yul\":632:633   */\n      0x00\n        /* \"#utility.yul\":629:630   */\n      dup1\n        /* \"#utility.yul\":622:634   */\n      revert\n        /* \"#utility.yul\":769:895   */\n    tag_70:\n        /* \"#utility.yul\":806:813   */\n      0x00\n        /* \"#utility.yul\":846:888   */\n      0xffffffffffffffffffffffffffffffffffffffff\n        /* \"#utility.yul\":839:844   */\n      dup3\n        /* \"#utility.yul\":835:889   */\n      and\n        /* \"#utility.yul\":824:889   */\n      swap1\n      pop\n        /* \"#utility.yul\":769:895   */\n      swap2\n      swap1\n      pop\n      jump\t// out\n        /* \"#utility.yul\":901:997   */\n    tag_71:\n        /* \"#utility.yul\":938:945   */\n      0x00\n        /* \"#utility.yul\":967:991   */\n      tag_100\n        /* \"#utility.yul\":985:990   */\n      dup3\n        /* \"#utility.yul\":967:991   */\n      tag_70\n      jump\t// in\n    tag_100:\n        /* \"#utility.yul\":956:991   */\n      swap1\n      pop\n        /* \"#utility.yul\":901:997   */\n      swap2\n      swap1\n      pop\n      jump\t// out\n        /* \"#utility.yul\":1003:1125   */\n    tag_72:\n        /* \"#utility.yul\":1076:1100   */\n      tag_102\n        /* \"#utility.yul\":1094:1099   */\n      dup2\n        /* \"#utility.yul\":1076:1100   */\n      tag_71\n      jump\t// in\n    tag_102:\n        /* \"#utility.yul\":1069:1074   */\n      dup2\n        /* \"#utility.yul\":1066:1101   */\n      eq\n        /* \"#utility.yul\":1056:1119   */\n      tag_103\n      jumpi\n        /* \"#utility.yul\":1115:1116   */\n      0x00\n        /* \"#utility.yul\":1112:1113   */\n      dup1\n        /* \"#utility.yul\":1105:1117   */\n      revert\n        /* \"#utility.yul\":1056:1119   */\n    tag_103:\n        /* \"#utility.yul\":1003:1125   */\n      pop\n      jump\t// out\n        /* \"#utility.yul\":1131:1270   */\n    tag_73:\n        /* \"#utility.yul\":1177:1182   */\n      0x00\n        /* \"#utility.yul\":1215:1221   */\n      dup2\n        /* \"#utility.yul\":1202:1222   */\n      calldataload\n        /* \"#utility.yul\":1193:1222   */\n      swap1\n      pop\n        /* \"#utility.yul\":1231:1264   */\n      tag_105\n        /* \"#utility.yul\":1258:1263   */\n      dup2\n        /* \"#utility.yul\":1231:1264   */\n      tag_72\n      jump\t// in\n    tag_105:\n        /* \"#utility.yul\":1131:1270   */\n      swap3\n      swap2\n      pop\n      pop\n      jump\t// out\n        /* \"#utility.yul\":1276:1605   */\n    tag_18:\n        /* \"#utility.yul\":1335:1341   */\n      0x00\n        /* \"#utility.yul\":1384:1386   */\n      0x20\n        /* \"#utility.yul\":1372:1381   */\n      dup3\n        /* \"#utility.yul\":1363:1370   */\n      dup5\n        /* \"#utility.yul\":1359:1382   */\n      sub\n        /* \"#utility.yul\":1355:1387   */\n      slt\n        /* \"#utility.yul\":1352:1471   */\n      iszero\n      tag_107\n      jumpi\n        /* \"#utility.yul\":1390:1469   */\n      tag_108\n      tag_68\n      jump\t// in\n    tag_108:\n        /* \"#utility.yul\":1352:1471   */\n    tag_107:\n        /* \"#utility.yul\":1510:1511   */\n      0x00\n        /* \"#utility.yul\":1535:1588   */\n      tag_109\n        /* \"#utility.yul\":1580:1587   */\n      dup5\n        /* \"#utility.yul\":1571:1577   */\n      dup3\n        /* \"#utility.yul\":1560:1569   */\n      dup6\n        /* \"#utility.yul\":1556:1578   */\n      add\n        /* \"#utility.yul\":1535:1588   */\n      tag_73\n      jump\t// in\n    tag_109:\n        /* \"#utility.yul\":1525:1588   */\n      swap2\n      pop\n        /* \"#utility.yul\":1481:1598   */\n      pop\n        /* \"#utility.yul\":1276:1605   */\n      swap3\n      swap2\n      pop\n      pop\n      jump\t// out\n        /* \"#utility.yul\":1611:1733   */\n    tag_74:\n        /* \"#utility.yul\":1684:1708   */\n      tag_111\n        /* \"#utility.yul\":1702:1707   */\n      dup2\n        /* \"#utility.yul\":1684:1708   */\n      tag_65\n      jump\t// in\n    tag_111:\n        /* \"#utility.yul\":1677:1682   */\n      dup2\n        /* \"#utility.yul\":1674:1709   */\n      eq\n        /* \"#utility.yul\":1664:1727   */\n      tag_112\n      jumpi\n        /* \"#utility.yul\":1723:1724   */\n      0x00\n        /* \"#utility.yul\":1720:1721   */\n      dup1\n        /* \"#utility.yul\":1713:1725   */\n      revert\n        /* \"#utility.yul\":1664:1727   */\n    tag_112:\n        /* \"#utility.yul\":1611:1733   */\n      pop\n      jump\t// out\n        /* \"#utility.yul\":1739:1878   */\n    tag_75:\n        /* \"#utility.yul\":1785:1790   */\n      0x00\n        /* \"#utility.yul\":1823:1829   */\n      dup2\n        /* \"#utility.yul\":1810:1830   */\n      calldataload\n        /* \"#utility.yul\":1801:1830   */\n      swap1\n      pop\n        /* \"#utility.yul\":1839:1872   */\n      tag_114\n        /* \"#utility.yul\":1866:1871   */\n      dup2\n        /* \"#utility.yul\":1839:1872   */\n      tag_74\n      jump\t// in\n    tag_114:\n        /* \"#utility.yul\":1739:1878   */\n      swap3\n      swap2\n      pop\n      pop\n      jump\t// out\n        /* \"#utility.yul\":1884:2213   */\n    tag_26:\n        /* \"#utility.yul\":1943:1949   */\n      0x00\n        /* \"#utility.yul\":1992:1994   */\n      0x20\n        /* \"#utility.yul\":1980:1989   */\n      dup3\n        /* \"#utility.yul\":1971:1978   */\n      dup5\n        /* \"#utility.yul\":1967:1990   */\n      sub\n        /* \"#utility.yul\":1963:1995   */\n      slt\n        /* \"#utility.yul\":1960:2079   */\n      iszero\n      tag_116\n      jumpi\n        /* \"#utility.yul\":1998:2077   */\n      tag_117\n      tag_68\n      jump\t// in\n    tag_117:\n        /* \"#utility.yul\":1960:2079   */\n    tag_116:\n        /* \"#utility.yul\":2118:2119   */\n      0x00\n        /* \"#utility.yul\":2143:2196   */\n      tag_118\n        /* \"#utility.yul\":2188:2195   */\n      dup5\n        /* \"#utility.yul\":2179:2185   */\n      dup3\n        /* \"#utility.yul\":2168:2177   */\n      dup6\n        /* \"#utility.yul\":2164:2186   */\n      add\n        /* \"#utility.yul\":2143:2196   */\n      tag_75\n      jump\t// in\n    tag_118:\n        /* \"#utility.yul\":2133:2196   */\n      swap2\n      pop\n        /* \"#utility.yul\":2089:2206   */\n      pop\n        /* \"#utility.yul\":1884:2213   */\n      swap3\n      swap2\n      pop\n      pop\n      jump\t// out\n        /* \"#utility.yul\":2219:2337   */\n    tag_76:\n        /* \"#utility.yul\":2306:2330   */\n      tag_120\n        /* \"#utility.yul\":2324:2329   */\n      dup2\n        /* \"#utility.yul\":2306:2330   */\n      tag_71\n      jump\t// in\n    tag_120:\n        /* \"#utility.yul\":2301:2304   */\n      dup3\n        /* \"#utility.yul\":2294:2331   */\n      mstore\n        /* \"#utility.yul\":2219:2337   */\n      pop\n      pop\n      jump\t// out\n        /* \"#utility.yul\":2343:2565   */\n    tag_29:\n        /* \"#utility.yul\":2436:2440   */\n      0x00\n        /* \"#utility.yul\":2474:2476   */\n      0x20\n        /* \"#utility.yul\":2463:2472   */\n      dup3\n        /* \"#utility.yul\":2459:2477   */\n      add\n        /* \"#utility.yul\":2451:2477   */\n      swap1\n      pop\n        /* \"#utility.yul\":2487:2558   */\n      tag_122\n        /* \"#utility.yul\":2555:2556   */\n      0x00\n        /* \"#utility.yul\":2544:2553   */\n      dup4\n        /* \"#utility.yul\":2540:2557   */\n      add\n        /* \"#utility.yul\":2531:2537   */\n      dup5\n        /* \"#utility.yul\":2487:2558   */\n      tag_76\n      jump\t// in\n    tag_122:\n        /* \"#utility.yul\":2343:2565   */\n      swap3\n      swap2\n      pop\n      pop\n      jump\t// out\n        /* \"#utility.yul\":2571:2751   */\n    tag_36:\n        /* \"#utility.yul\":2619:2696   */\n      0x4e487b7100000000000000000000000000000000000000000000000000000000\n        /* \"#utility.yul\":2616:2617   */\n      0x00\n        /* \"#utility.yul\":2609:2697   */\n      mstore\n        /* \"#utility.yul\":2716:2720   */\n      0x32\n        /* \"#utility.yul\":2713:2714   */\n      0x04\n        /* \"#utility.yul\":2706:2721   */\n      mstore\n        /* \"#utility.yul\":2740:2744   */\n      0x24\n        /* \"#utility.yul\":2737:2738   */\n      0x00\n        /* \"#utility.yul\":2730:2745   */\n      revert\n        /* \"#utility.yul\":2757:2937   */\n    tag_77:\n        /* \"#utility.yul\":2805:2882   */\n      0x4e487b7100000000000000000000000000000000000000000000000000000000\n        /* \"#utility.yul\":2802:2803   */\n      0x00\n        /* \"#utility.yul\":2795:2883   */\n      mstore\n        /* \"#utility.yul\":2902:2906   */\n      0x11\n        /* \"#utility.yul\":2899:2900   */\n      0x04\n        /* \"#utility.yul\":2892:2907   */\n      mstore\n        /* \"#utility.yul\":2926:2930   */\n      0x24\n        /* \"#utility.yul\":2923:2924   */\n      0x00\n        /* \"#utility.yul\":2916:2931   */\n      revert\n        /* \"#utility.yul\":2943:3176   */\n    tag_39:\n        /* \"#utility.yul\":2982:2985   */\n      0x00\n        /* \"#utility.yul\":3005:3029   */\n      tag_126\n        /* \"#utility.yul\":3023:3028   */\n      dup3\n        /* \"#utility.yul\":3005:3029   */\n      tag_65\n      jump\t// in\n    tag_126:\n        /* \"#utility.yul\":2996:3029   */\n      swap2\n      pop\n        /* \"#utility.yul\":3051:3117   */\n      0xffffffffffffffffffffffffffffffffffffffffffffffffffffffffffffffff\n        /* \"#utility.yul\":3044:3049   */\n      dup3\n        /* \"#utility.yul\":3041:3118   */\n      sub\n        /* \"#utility.yul\":3038:3141   */\n      tag_127\n      jumpi\n        /* \"#utility.yul\":3121:3139   */\n      tag_128\n      tag_77\n      jump\t// in\n    tag_128:\n        /* \"#utility.yul\":3038:3141   */\n    tag_127:\n        /* \"#utility.yul\":3168:3169   */\n      0x01\n        /* \"#utility.yul\":3161:3166   */\n      dup3\n        /* \"#utility.yul\":3157:3170   */\n      add\n        /* \"#utility.yul\":3150:3170   */\n      swap1\n      pop\n        /* \"#utility.yul\":2943:3176   */\n      swap2\n      swap1\n      pop\n      jump\t// out\n        /* \"#utility.yul\":3182:3351   */\n    tag_78:\n        /* \"#utility.yul\":3266:3277   */\n      0x00\n        /* \"#utility.yul\":3300:3306   */\n      dup3\n        /* \"#utility.yul\":3295:3298   */\n      dup3\n        /* \"#utility.yul\":3288:3307   */\n      mstore\n        /* \"#utility.yul\":3340:3344   */\n      0x20\n        /* \"#utility.yul\":3335:3338   */\n      dup3\n        /* \"#utility.yul\":3331:3345   */\n      add\n        /* \"#utility.yul\":3316:3345   */\n      swap1\n      pop\n        /* \"#utility.yul\":3182:3351   */\n      swap3\n      swap2\n      pop\n      pop\n      jump\t// out\n        /* \"#utility.yul\":3357:3526   */\n    tag_79:\n        /* \"#utility.yul\":3497:3518   */\n      0x4469646e27742073656e6420656e6f7567682100000000000000000000000000\n        /* \"#utility.yul\":3493:3494   */\n      0x00\n        /* \"#utility.yul\":3485:3491   */\n      dup3\n        /* \"#utility.yul\":3481:3495   */\n      add\n        /* \"#utility.yul\":3474:3519   */\n      mstore\n        /* \"#utility.yul\":3357:3526   */\n      pop\n      jump\t// out\n        /* \"#utility.yul\":3532:3898   */\n    tag_80:\n        /* \"#utility.yul\":3674:3677   */\n      0x00\n        /* \"#utility.yul\":3695:3762   */\n      tag_132\n        /* \"#utility.yul\":3759:3761   */\n      0x13\n        /* \"#utility.yul\":3754:3757   */\n      dup4\n        /* \"#utility.yul\":3695:3762   */\n      tag_78\n      jump\t// in\n    tag_132:\n        /* \"#utility.yul\":3688:3762   */\n      swap2\n      pop\n        /* \"#utility.yul\":3771:3864   */\n      tag_133\n        /* \"#utility.yul\":3860:3863   */\n      dup3\n        /* \"#utility.yul\":3771:3864   */\n      tag_79\n      jump\t// in\n    tag_133:\n        /* \"#utility.yul\":3889:3891   */\n      0x20\n        /* \"#utility.yul\":3884:3887   */\n      dup3\n        /* \"#utility.yul\":3880:3892   */\n      add\n        /* \"#utility.yul\":3873:3892   */\n      swap1\n      pop\n        /* \"#utility.yul\":3532:3898   */\n      swap2\n      swap1\n      pop\n      jump\t// out\n        /* \"#utility.yul\":3904:4323   */\n    tag_45:\n        /* \"#utility.yul\":4070:4074   */\n      0x00\n        /* \"#utility.yul\":4108:4110   */\n      0x20\n        /* \"#utility.yul\":4097:4106   */\n      dup3\n        /* \"#utility.yul\":4093:4111   */\n      add\n        /* \"#utility.yul\":4085:4111   */\n      swap1\n      pop\n        /* \"#utility.yul\":4157:4166   */\n      dup2\n        /* \"#utility.yul\":4151:4155   */\n      dup2\n        /* \"#utility.yul\":4147:4167   */\n      sub\n        /* \"#utility.yul\":4143:4144   */\n      0x00\n        /* \"#utility.yul\":4132:4141   */\n      dup4\n        /* \"#utility.yul\":4128:4145   */\n      add\n        /* \"#utility.yul\":4121:4168   */\n      mstore\n        /* \"#utility.yul\":4185:4316   */\n      tag_135\n        /* \"#utility.yul\":4311:4315   */\n      dup2\n        /* \"#utility.yul\":4185:4316   */\n      tag_80\n      jump\t// in\n    tag_135:\n        /* \"#utility.yul\":4177:4316   */\n      swap1\n      pop\n        /* \"#utility.yul\":3904:4323   */\n      swap2\n      swap1\n      pop\n      jump\t// out\n        /* \"#utility.yul\":4329:4634   */\n    tag_48:\n        /* \"#utility.yul\":4369:4372   */\n      0x00\n        /* \"#utility.yul\":4388:4408   */\n      tag_137\n        /* \"#utility.yul\":4406:4407   */\n      dup3\n        /* \"#utility.yul\":4388:4408   */\n      tag_65\n      jump\t// in\n    tag_137:\n        /* \"#utility.yul\":4383:4408   */\n      swap2\n      pop\n        /* \"#utility.yul\":4422:4442   */\n      tag_138\n        /* \"#utility.yul\":4440:4441   */\n      dup4\n        /* \"#utility.yul\":4422:4442   */\n      tag_65\n      jump\t// in\n    tag_138:\n        /* \"#utility.yul\":4417:4442   */\n      swap3\n      pop\n        /* \"#utility.yul\":4576:4577   */\n      dup3\n        /* \"#utility.yul\":4508:4574   */\n      0xffffffffffffffffffffffffffffffffffffffffffffffffffffffffffffffff\n        /* \"#utility.yul\":4504:4578   */\n      sub\n        /* \"#utility.yul\":4501:4502   */\n      dup3\n        /* \"#utility.yul\":4498:4579   */\n      gt\n        /* \"#utility.yul\":4495:4602   */\n      iszero\n      tag_139\n      jumpi\n        /* \"#utility.yul\":4582:4600   */\n      tag_140\n      tag_77\n      jump\t// in\n    tag_140:\n        /* \"#utility.yul\":4495:4602   */\n    tag_139:\n        /* \"#utility.yul\":4626:4627   */\n      dup3\n        /* \"#utility.yul\":4623:4624   */\n      dup3\n        /* \"#utility.yul\":4619:4628   */\n      add\n        /* \"#utility.yul\":4612:4628   */\n      swap1\n      pop\n        /* \"#utility.yul\":4329:4634   */\n      swap3\n      swap2\n      pop\n      pop\n      jump\t// out\n        /* \"#utility.yul\":4640:4988   */\n    tag_55:\n        /* \"#utility.yul\":4680:4687   */\n      0x00\n        /* \"#utility.yul\":4703:4723   */\n      tag_142\n        /* \"#utility.yul\":4721:4722   */\n      dup3\n        /* \"#utility.yul\":4703:4723   */\n      tag_65\n      jump\t// in\n    tag_142:\n        /* \"#utility.yul\":4698:4723   */\n      swap2\n      pop\n        /* \"#utility.yul\":4737:4757   */\n      tag_143\n        /* \"#utility.yul\":4755:4756   */\n      dup4\n        /* \"#utility.yul\":4737:4757   */\n      tag_65\n      jump\t// in\n    tag_143:\n        /* \"#utility.yul\":4732:4757   */\n      swap3\n      pop\n        /* \"#utility.yul\":4925:4926   */\n      dup2\n        /* \"#utility.yul\":4857:4923   */\n      0xffffffffffffffffffffffffffffffffffffffffffffffffffffffffffffffff\n        /* \"#utility.yul\":4853:4927   */\n      div\n        /* \"#utility.yul\":4850:4851   */\n      dup4\n        /* \"#utility.yul\":4847:4928   */\n      gt\n        /* \"#utility.yul\":4842:4843   */\n      dup3\n        /* \"#utility.yul\":4835:4844   */\n      iszero\n        /* \"#utility.yul\":4828:4845   */\n      iszero\n        /* \"#utility.yul\":4824:4929   */\n      and\n        /* \"#utility.yul\":4821:4952   */\n      iszero\n      tag_144\n      jumpi\n        /* \"#utility.yul\":4932:4950   */\n      tag_145\n      tag_77\n      jump\t// in\n    tag_145:\n        /* \"#utility.yul\":4821:4952   */\n    tag_144:\n        /* \"#utility.yul\":4980:4981   */\n      dup3\n        /* \"#utility.yul\":4977:4978   */\n      dup3\n        /* \"#utility.yul\":4973:4982   */\n      mul\n        /* \"#utility.yul\":4962:4982   */\n      swap1\n      pop\n        /* \"#utility.yul\":4640:4988   */\n      swap3\n      swap2\n      pop\n      pop\n      jump\t// out\n        /* \"#utility.yul\":4994:5174   */\n    tag_81:\n        /* \"#utility.yul\":5042:5119   */\n      0x4e487b7100000000000000000000000000000000000000000000000000000000\n        /* \"#utility.yul\":5039:5040   */\n      0x00\n        /* \"#utility.yul\":5032:5120   */\n      mstore\n        /* \"#utility.yul\":5139:5143   */\n      0x12\n        /* \"#utility.yul\":5136:5137   */\n      0x04\n        /* \"#utility.yul\":5129:5144   */\n      mstore\n        /* \"#utility.yul\":5163:5167   */\n      0x24\n        /* \"#utility.yul\":5160:5161   */\n      0x00\n        /* \"#utility.yul\":5153:5168   */\n      revert\n        /* \"#utility.yul\":5180:5365   */\n    tag_57:\n        /* \"#utility.yul\":5220:5221   */\n      0x00\n        /* \"#utility.yul\":5237:5257   */\n      tag_148\n        /* \"#utility.yul\":5255:5256   */\n      dup3\n        /* \"#utility.yul\":5237:5257   */\n      tag_65\n      jump\t// in\n    tag_148:\n        /* \"#utility.yul\":5232:5257   */\n      swap2\n      pop\n        /* \"#utility.yul\":5271:5291   */\n      tag_149\n        /* \"#utility.yul\":5289:5290   */\n      dup4\n        /* \"#utility.yul\":5271:5291   */\n      tag_65\n      jump\t// in\n    tag_149:\n        /* \"#utility.yul\":5266:5291   */\n      swap3\n      pop\n        /* \"#utility.yul\":5310:5311   */\n      dup3\n        /* \"#utility.yul\":5300:5335   */\n      tag_150\n      jumpi\n        /* \"#utility.yul\":5315:5333   */\n      tag_151\n      tag_81\n      jump\t// in\n    tag_151:\n        /* \"#utility.yul\":5300:5335   */\n    tag_150:\n        /* \"#utility.yul\":5357:5358   */\n      dup3\n        /* \"#utility.yul\":5354:5355   */\n      dup3\n        /* \"#utility.yul\":5350:5359   */\n      div\n        /* \"#utility.yul\":5345:5359   */\n      swap1\n      pop\n        /* \"#utility.yul\":5180:5365   */\n      swap3\n      swap2\n      pop\n      pop\n      jump\t// out\n        /* \"#utility.yul\":5371:5476   */\n    tag_82:\n        /* \"#utility.yul\":5407:5414   */\n      0x00\n        /* \"#utility.yul\":5447:5469   */\n      0xffffffffffffffffffff\n        /* \"#utility.yul\":5440:5445   */\n      dup3\n        /* \"#utility.yul\":5436:5470   */\n      and\n        /* \"#utility.yul\":5425:5470   */\n      swap1\n      pop\n        /* \"#utility.yul\":5371:5476   */\n      swap2\n      swap1\n      pop\n      jump\t// out\n        /* \"#utility.yul\":5482:5602   */\n    tag_83:\n        /* \"#utility.yul\":5554:5577   */\n      tag_154\n        /* \"#utility.yul\":5571:5576   */\n      dup2\n        /* \"#utility.yul\":5554:5577   */\n      tag_82\n      jump\t// in\n    tag_154:\n        /* \"#utility.yul\":5547:5552   */\n      dup2\n        /* \"#utility.yul\":5544:5578   */\n      eq\n        /* \"#utility.yul\":5534:5596   */\n      tag_155\n      jumpi\n        /* \"#utility.yul\":5592:5593   */\n      0x00\n        /* \"#utility.yul\":5589:5590   */\n      dup1\n        /* \"#utility.yul\":5582:5594   */\n      revert\n        /* \"#utility.yul\":5534:5596   */\n    tag_155:\n        /* \"#utility.yul\":5482:5602   */\n      pop\n      jump\t// out\n        /* \"#utility.yul\":5608:5749   */\n    tag_84:\n        /* \"#utility.yul\":5664:5669   */\n      0x00\n        /* \"#utility.yul\":5695:5701   */\n      dup2\n        /* \"#utility.yul\":5689:5702   */\n      mload\n        /* \"#utility.yul\":5680:5702   */\n      swap1\n      pop\n        /* \"#utility.yul\":5711:5743   */\n      tag_157\n        /* \"#utility.yul\":5737:5742   */\n      dup2\n        /* \"#utility.yul\":5711:5743   */\n      tag_83\n      jump\t// in\n    tag_157:\n        /* \"#utility.yul\":5608:5749   */\n      swap3\n      swap2\n      pop\n      pop\n      jump\t// out\n        /* \"#utility.yul\":5755:5831   */\n    tag_85:\n        /* \"#utility.yul\":5791:5798   */\n      0x00\n        /* \"#utility.yul\":5820:5825   */\n      dup2\n        /* \"#utility.yul\":5809:5825   */\n      swap1\n      pop\n        /* \"#utility.yul\":5755:5831   */\n      swap2\n      swap1\n      pop\n      jump\t// out\n        /* \"#utility.yul\":5837:5957   */\n    tag_86:\n        /* \"#utility.yul\":5909:5932   */\n      tag_160\n        /* \"#utility.yul\":5926:5931   */\n      dup2\n        /* \"#utility.yul\":5909:5932   */\n      tag_85\n      jump\t// in\n    tag_160:\n        /* \"#utility.yul\":5902:5907   */\n      dup2\n        /* \"#utility.yul\":5899:5933   */\n      eq\n        /* \"#utility.yul\":5889:5951   */\n      tag_161\n      jumpi\n        /* \"#utility.yul\":5947:5948   */\n      0x00\n        /* \"#utility.yul\":5944:5945   */\n      dup1\n        /* \"#utility.yul\":5937:5949   */\n      revert\n        /* \"#utility.yul\":5889:5951   */\n    tag_161:\n        /* \"#utility.yul\":5837:5957   */\n      pop\n      jump\t// out\n        /* \"#utility.yul\":5963:6104   */\n    tag_87:\n        /* \"#utility.yul\":6019:6024   */\n      0x00\n        /* \"#utility.yul\":6050:6056   */\n      dup2\n        /* \"#utility.yul\":6044:6057   */\n      mload\n        /* \"#utility.yul\":6035:6057   */\n      swap1\n      pop\n        /* \"#utility.yul\":6066:6098   */\n      tag_163\n        /* \"#utility.yul\":6092:6097   */\n      dup2\n        /* \"#utility.yul\":6066:6098   */\n      tag_86\n      jump\t// in\n    tag_163:\n        /* \"#utility.yul\":5963:6104   */\n      swap3\n      swap2\n      pop\n      pop\n      jump\t// out\n        /* \"#utility.yul\":6110:6253   */\n    tag_88:\n        /* \"#utility.yul\":6167:6172   */\n      0x00\n        /* \"#utility.yul\":6198:6204   */\n      dup2\n        /* \"#utility.yul\":6192:6205   */\n      mload\n        /* \"#utility.yul\":6183:6205   */\n      swap1\n      pop\n        /* \"#utility.yul\":6214:6247   */\n      tag_165\n        /* \"#utility.yul\":6241:6246   */\n      dup2\n        /* \"#utility.yul\":6214:6247   */\n      tag_74\n      jump\t// in\n    tag_165:\n        /* \"#utility.yul\":6110:6253   */\n      swap3\n      swap2\n      pop\n      pop\n      jump\t// out\n        /* \"#utility.yul\":6259:7230   */\n    tag_62:\n        /* \"#utility.yul\":6362:6368   */\n      0x00\n        /* \"#utility.yul\":6370:6376   */\n      dup1\n        /* \"#utility.yul\":6378:6384   */\n      0x00\n        /* \"#utility.yul\":6386:6392   */\n      dup1\n        /* \"#utility.yul\":6394:6400   */\n      0x00\n        /* \"#utility.yul\":6443:6446   */\n      0xa0\n        /* \"#utility.yul\":6431:6440   */\n      dup7\n        /* \"#utility.yul\":6422:6429   */\n      dup9\n        /* \"#utility.yul\":6418:6441   */\n      sub\n        /* \"#utility.yul\":6414:6447   */\n      slt\n        /* \"#utility.yul\":6411:6531   */\n      iszero\n      tag_167\n      jumpi\n        /* \"#utility.yul\":6450:6529   */\n      tag_168\n      tag_68\n      jump\t// in\n    tag_168:\n        /* \"#utility.yul\":6411:6531   */\n    tag_167:\n        /* \"#utility.yul\":6570:6571   */\n      0x00\n        /* \"#utility.yul\":6595:6658   */\n      tag_169\n        /* \"#utility.yul\":6650:6657   */\n      dup9\n        /* \"#utility.yul\":6641:6647   */\n      dup3\n        /* \"#utility.yul\":6630:6639   */\n      dup10\n        /* \"#utility.yul\":6626:6648   */\n      add\n        /* \"#utility.yul\":6595:6658   */\n      tag_84\n      jump\t// in\n    tag_169:\n        /* \"#utility.yul\":6585:6658   */\n      swap6\n      pop\n        /* \"#utility.yul\":6541:6668   */\n      pop\n        /* \"#utility.yul\":6707:6709   */\n      0x20\n        /* \"#utility.yul\":6733:6796   */\n      tag_170\n        /* \"#utility.yul\":6788:6795   */\n      dup9\n        /* \"#utility.yul\":6779:6785   */\n      dup3\n        /* \"#utility.yul\":6768:6777   */\n      dup10\n        /* \"#utility.yul\":6764:6786   */\n      add\n        /* \"#utility.yul\":6733:6796   */\n      tag_87\n      jump\t// in\n    tag_170:\n        /* \"#utility.yul\":6723:6796   */\n      swap5\n      pop\n        /* \"#utility.yul\":6678:6806   */\n      pop\n        /* \"#utility.yul\":6845:6847   */\n      0x40\n        /* \"#utility.yul\":6871:6935   */\n      tag_171\n        /* \"#utility.yul\":6927:6934   */\n      dup9\n        /* \"#utility.yul\":6918:6924   */\n      dup3\n        /* \"#utility.yul\":6907:6916   */\n      dup10\n        /* \"#utility.yul\":6903:6925   */\n      add\n        /* \"#utility.yul\":6871:6935   */\n      tag_88\n      jump\t// in\n    tag_171:\n        /* \"#utility.yul\":6861:6935   */\n      swap4\n      pop\n        /* \"#utility.yul\":6816:6945   */\n      pop\n        /* \"#utility.yul\":6984:6986   */\n      0x60\n        /* \"#utility.yul\":7010:7074   */\n      tag_172\n        /* \"#utility.yul\":7066:7073   */\n      dup9\n        /* \"#utility.yul\":7057:7063   */\n      dup3\n        /* \"#utility.yul\":7046:7055   */\n      dup10\n        /* \"#utility.yul\":7042:7064   */\n      add\n        /* \"#utility.yul\":7010:7074   */\n      tag_88\n      jump\t// in\n    tag_172:\n        /* \"#utility.yul\":7000:7074   */\n      swap3\n      pop\n        /* \"#utility.yul\":6955:7084   */\n      pop\n        /* \"#utility.yul\":7123:7126   */\n      0x80\n        /* \"#utility.yul\":7150:7213   */\n      tag_173\n        /* \"#utility.yul\":7205:7212   */\n      dup9\n        /* \"#utility.yul\":7196:7202   */\n      dup3\n        /* \"#utility.yul\":7185:7194   */\n      dup10\n        /* \"#utility.yul\":7181:7203   */\n      add\n        /* \"#utility.yul\":7150:7213   */\n      tag_84\n      jump\t// in\n    tag_173:\n        /* \"#utility.yul\":7140:7213   */\n      swap2\n      pop\n        /* \"#utility.yul\":7094:7223   */\n      pop\n        /* \"#utility.yul\":6259:7230   */\n      swap3\n      swap6\n      pop\n      swap3\n      swap6\n      swap1\n      swap4\n      pop\n      jump\t// out\n        /* \"#utility.yul\":7236:8227   */\n    tag_64:\n        /* \"#utility.yul\":7275:7282   */\n      0x00\n        /* \"#utility.yul\":7298:7317   */\n      tag_175\n        /* \"#utility.yul\":7315:7316   */\n      dup3\n        /* \"#utility.yul\":7298:7317   */\n      tag_85\n      jump\t// in\n    tag_175:\n        /* \"#utility.yul\":7293:7317   */\n      swap2\n      pop\n        /* \"#utility.yul\":7331:7350   */\n      tag_176\n        /* \"#utility.yul\":7348:7349   */\n      dup4\n        /* \"#utility.yul\":7331:7350   */\n      tag_85\n      jump\t// in\n    tag_176:\n        /* \"#utility.yul\":7326:7350   */\n      swap3\n      pop\n        /* \"#utility.yul\":7532:7533   */\n      dup3\n        /* \"#utility.yul\":7464:7530   */\n      0x7fffffffffffffffffffffffffffffffffffffffffffffffffffffffffffffff\n        /* \"#utility.yul\":7460:7534   */\n      div\n        /* \"#utility.yul\":7457:7458   */\n      dup3\n        /* \"#utility.yul\":7454:7535   */\n      gt\n        /* \"#utility.yul\":7449:7450   */\n      0x00\n        /* \"#utility.yul\":7446:7447   */\n      dup5\n        /* \"#utility.yul\":7442:7451   */\n      sgt\n        /* \"#utility.yul\":7438:7439   */\n      0x00\n        /* \"#utility.yul\":7435:7436   */\n      dup5\n        /* \"#utility.yul\":7431:7440   */\n      sgt\n        /* \"#utility.yul\":7427:7452   */\n      and\n        /* \"#utility.yul\":7423:7536   */\n      and\n        /* \"#utility.yul\":7420:7559   */\n      iszero\n      tag_177\n      jumpi\n        /* \"#utility.yul\":7539:7557   */\n      tag_178\n      tag_77\n      jump\t// in\n    tag_178:\n        /* \"#utility.yul\":7420:7559   */\n    tag_177:\n        /* \"#utility.yul\":7743:7744   */\n      dup2\n        /* \"#utility.yul\":7675:7741   */\n      0x8000000000000000000000000000000000000000000000000000000000000000\n        /* \"#utility.yul\":7670:7745   */\n      sdiv\n        /* \"#utility.yul\":7667:7668   */\n      dup4\n        /* \"#utility.yul\":7663:7746   */\n      slt\n        /* \"#utility.yul\":7658:7659   */\n      0x00\n        /* \"#utility.yul\":7655:7656   */\n      dup5\n        /* \"#utility.yul\":7651:7660   */\n      slt\n        /* \"#utility.yul\":7647:7648   */\n      0x00\n        /* \"#utility.yul\":7644:7645   */\n      dup5\n        /* \"#utility.yul\":7640:7649   */\n      sgt\n        /* \"#utility.yul\":7636:7661   */\n      and\n        /* \"#utility.yul\":7632:7747   */\n      and\n        /* \"#utility.yul\":7629:7770   */\n      iszero\n      tag_179\n      jumpi\n        /* \"#utility.yul\":7750:7768   */\n      tag_180\n      tag_77\n      jump\t// in\n    tag_180:\n        /* \"#utility.yul\":7629:7770   */\n    tag_179:\n        /* \"#utility.yul\":7954:7955   */\n      dup3\n        /* \"#utility.yul\":7886:7952   */\n      0x8000000000000000000000000000000000000000000000000000000000000000\n        /* \"#utility.yul\":7881:7956   */\n      sdiv\n        /* \"#utility.yul\":7878:7879   */\n      dup3\n        /* \"#utility.yul\":7874:7957   */\n      slt\n        /* \"#utility.yul\":7869:7870   */\n      0x00\n        /* \"#utility.yul\":7866:7867   */\n      dup5\n        /* \"#utility.yul\":7862:7871   */\n      sgt\n        /* \"#utility.yul\":7858:7859   */\n      0x00\n        /* \"#utility.yul\":7855:7856   */\n      dup5\n        /* \"#utility.yul\":7851:7860   */\n      slt\n        /* \"#utility.yul\":7847:7872   */\n      and\n        /* \"#utility.yul\":7843:7958   */\n      and\n        /* \"#utility.yul\":7840:7981   */\n      iszero\n      tag_181\n      jumpi\n        /* \"#utility.yul\":7961:7979   */\n      tag_182\n      tag_77\n      jump\t// in\n    tag_182:\n        /* \"#utility.yul\":7840:7981   */\n    tag_181:\n        /* \"#utility.yul\":8164:8165   */\n      dup3\n        /* \"#utility.yul\":8096:8162   */\n      0x7fffffffffffffffffffffffffffffffffffffffffffffffffffffffffffffff\n        /* \"#utility.yul\":8091:8166   */\n      sdiv\n        /* \"#utility.yul\":8088:8089   */\n      dup3\n        /* \"#utility.yul\":8084:8167   */\n      slt\n        /* \"#utility.yul\":8079:8080   */\n      0x00\n        /* \"#utility.yul\":8076:8077   */\n      dup5\n        /* \"#utility.yul\":8072:8081   */\n      slt\n        /* \"#utility.yul\":8068:8069   */\n      0x00\n        /* \"#utility.yul\":8065:8066   */\n      dup5\n        /* \"#utility.yul\":8061:8070   */\n      slt\n        /* \"#utility.yul\":8057:8082   */\n      and\n        /* \"#utility.yul\":8053:8168   */\n      and\n        /* \"#utility.yul\":8050:8191   */\n      iszero\n      tag_183\n      jumpi\n        /* \"#utility.yul\":8171:8189   */\n      tag_184\n      tag_77\n      jump\t// in\n    tag_184:\n        /* \"#utility.yul\":8050:8191   */\n    tag_183:\n        /* \"#utility.yul\":8219:8220   */\n      dup3\n        /* \"#utility.yul\":8216:8217   */\n      dup3\n        /* \"#utility.yul\":8212:8221   */\n      mul\n        /* \"#utility.yul\":8201:8221   */\n      swap1\n      pop\n        /* \"#utility.yul\":7236:8227   */\n      swap3\n      swap2\n      pop\n      pop\n      jump\t// out\n\n    auxdata: 0xa2646970667358221220c22e68c72a1f4df7203fcd73c97e2b9604b573692a4feb2038c6f5cd1caac57564736f6c634300080f0033\n}\n",
				"bytecode": {
					"linkReferences": {},
					"object": "60806040526802b5e3af16b188000060005534801561001d57600080fd5b506109db8061002d6000396000f3fe60806040526004361061004a5760003560e01c8063098de8201461004f5780633ccfd60b1461007a5780633e47d6f314610091578063b60d4288146100ce578063dc0d3dff146100d8575b600080fd5b34801561005b57600080fd5b50610064610115565b6040516100719190610425565b60405180910390f35b34801561008657600080fd5b5061008f61011b565b005b34801561009d57600080fd5b506100b860048036038101906100b391906104a3565b6101ca565b6040516100c59190610425565b60405180910390f35b6100d66101e2565b005b3480156100e457600080fd5b506100ff60048036038101906100fa91906104fc565b6102ea565b60405161010c9190610538565b60405180910390f35b60005481565b60005b6001805490508110156101c75760006001828154811061014157610140610553565b5b9060005260206000200160009054906101000a900473ffffffffffffffffffffffffffffffffffffffff1690506000600260008373ffffffffffffffffffffffffffffffffffffffff1673ffffffffffffffffffffffffffffffffffffffff168152602001908152602001600020819055505080806101bf906105b1565b91505061011e565b50565b60026020528060005260406000206000915090505481565b6000546101ee34610329565b101561022f576040517f08c379a000000000000000000000000000000000000000000000000000000000815260040161022690610656565b60405180910390fd5b6001339080600181540180825580915050600190039060005260206000200160009091909190916101000a81548173ffffffffffffffffffffffffffffffffffffffff021916908373ffffffffffffffffffffffffffffffffffffffff16021790555034600260003373ffffffffffffffffffffffffffffffffffffffff1673ffffffffffffffffffffffffffffffffffffffff16815260200190815260200160002060008282546102e19190610676565b92505081905550565b600181815481106102fa57600080fd5b906000526020600020016000915054906101000a900473ffffffffffffffffffffffffffffffffffffffff1681565b600080610334610363565b90506000670de0b6b3a7640000848361034d91906106cc565b6103579190610755565b90508092505050919050565b600080738a753747a1fa494ec906ce90e9f37563a8af630e905060008173ffffffffffffffffffffffffffffffffffffffff1663feaf968c6040518163ffffffff1660e01b815260040160a060405180830381865afa1580156103ca573d6000803e3d6000fd5b505050506040513d601f19601f820116820180604052508101906103ee9190610813565b5050509150506402540be40081610405919061088e565b9250505090565b6000819050919050565b61041f8161040c565b82525050565b600060208201905061043a6000830184610416565b92915050565b600080fd5b600073ffffffffffffffffffffffffffffffffffffffff82169050919050565b600061047082610445565b9050919050565b61048081610465565b811461048b57600080fd5b50565b60008135905061049d81610477565b92915050565b6000602082840312156104b9576104b8610440565b5b60006104c78482850161048e565b91505092915050565b6104d98161040c565b81146104e457600080fd5b50565b6000813590506104f6816104d0565b92915050565b60006020828403121561051257610511610440565b5b6000610520848285016104e7565b91505092915050565b61053281610465565b82525050565b600060208201905061054d6000830184610529565b92915050565b7f4e487b7100000000000000000000000000000000000000000000000000000000600052603260045260246000fd5b7f4e487b7100000000000000000000000000000000000000000000000000000000600052601160045260246000fd5b60006105bc8261040c565b91507fffffffffffffffffffffffffffffffffffffffffffffffffffffffffffffffff82036105ee576105ed610582565b5b600182019050919050565b600082825260208201905092915050565b7f4469646e27742073656e6420656e6f7567682100000000000000000000000000600082015250565b60006106406013836105f9565b915061064b8261060a565b602082019050919050565b6000602082019050818103600083015261066f81610633565b9050919050565b60006106818261040c565b915061068c8361040c565b9250827fffffffffffffffffffffffffffffffffffffffffffffffffffffffffffffffff038211156106c1576106c0610582565b5b828201905092915050565b60006106d78261040c565b91506106e28361040c565b9250817fffffffffffffffffffffffffffffffffffffffffffffffffffffffffffffffff048311821515161561071b5761071a610582565b5b828202905092915050565b7f4e487b7100000000000000000000000000000000000000000000000000000000600052601260045260246000fd5b60006107608261040c565b915061076b8361040c565b92508261077b5761077a610726565b5b828204905092915050565b600069ffffffffffffffffffff82169050919050565b6107a581610786565b81146107b057600080fd5b50565b6000815190506107c28161079c565b92915050565b6000819050919050565b6107db816107c8565b81146107e657600080fd5b50565b6000815190506107f8816107d2565b92915050565b60008151905061080d816104d0565b92915050565b600080600080600060a0868803121561082f5761082e610440565b5b600061083d888289016107b3565b955050602061084e888289016107e9565b945050604061085f888289016107fe565b9350506060610870888289016107fe565b9250506080610881888289016107b3565b9150509295509295909350565b6000610899826107c8565b91506108a4836107c8565b9250827f7fffffffffffffffffffffffffffffffffffffffffffffffffffffffffffffff04821160008413600084131616156108e3576108e2610582565b5b817f800000000000000000000000000000000000000000000000000000000000000005831260008412600084131616156109205761091f610582565b5b827f8000000000000000000000000000000000000000000000000000000000000000058212600084136000841216161561095d5761095c610582565b5b827f7fffffffffffffffffffffffffffffffffffffffffffffffffffffffffffffff058212600084126000841216161561099a57610999610582565b5b82820290509291505056fea2646970667358221220c22e68c72a1f4df7203fcd73c97e2b9604b573692a4feb2038c6f5cd1caac57564736f6c634300080f0033",
					"opcodes": "PUSH1 0x80 PUSH1 0x40 MSTORE PUSH9 0x2B5E3AF16B1880000 PUSH1 0x0 SSTORE CALLVALUE DUP1 ISZERO PUSH2 0x1D JUMPI PUSH1 0x0 DUP1 REVERT JUMPDEST POP PUSH2 0x9DB DUP1 PUSH2 0x2D PUSH1 0x0 CODECOPY PUSH1 0x0 RETURN INVALID PUSH1 0x80 PUSH1 0x40 MSTORE PUSH1 0x4 CALLDATASIZE LT PUSH2 0x4A JUMPI PUSH1 0x0 CALLDATALOAD PUSH1 0xE0 SHR DUP1 PUSH4 0x98DE820 EQ PUSH2 0x4F JUMPI DUP1 PUSH4 0x3CCFD60B EQ PUSH2 0x7A JUMPI DUP1 PUSH4 0x3E47D6F3 EQ PUSH2 0x91 JUMPI DUP1 PUSH4 0xB60D4288 EQ PUSH2 0xCE JUMPI DUP1 PUSH4 0xDC0D3DFF EQ PUSH2 0xD8 JUMPI JUMPDEST PUSH1 0x0 DUP1 REVERT JUMPDEST CALLVALUE DUP1 ISZERO PUSH2 0x5B JUMPI PUSH1 0x0 DUP1 REVERT JUMPDEST POP PUSH2 0x64 PUSH2 0x115 JUMP JUMPDEST PUSH1 0x40 MLOAD PUSH2 0x71 SWAP2 SWAP1 PUSH2 0x425 JUMP JUMPDEST PUSH1 0x40 MLOAD DUP1 SWAP2 SUB SWAP1 RETURN JUMPDEST CALLVALUE DUP1 ISZERO PUSH2 0x86 JUMPI PUSH1 0x0 DUP1 REVERT JUMPDEST POP PUSH2 0x8F PUSH2 0x11B JUMP JUMPDEST STOP JUMPDEST CALLVALUE DUP1 ISZERO PUSH2 0x9D JUMPI PUSH1 0x0 DUP1 REVERT JUMPDEST POP PUSH2 0xB8 PUSH1 0x4 DUP1 CALLDATASIZE SUB DUP2 ADD SWAP1 PUSH2 0xB3 SWAP2 SWAP1 PUSH2 0x4A3 JUMP JUMPDEST PUSH2 0x1CA JUMP JUMPDEST PUSH1 0x40 MLOAD PUSH2 0xC5 SWAP2 SWAP1 PUSH2 0x425 JUMP JUMPDEST PUSH1 0x40 MLOAD DUP1 SWAP2 SUB SWAP1 RETURN JUMPDEST PUSH2 0xD6 PUSH2 0x1E2 JUMP JUMPDEST STOP JUMPDEST CALLVALUE DUP1 ISZERO PUSH2 0xE4 JUMPI PUSH1 0x0 DUP1 REVERT JUMPDEST POP PUSH2 0xFF PUSH1 0x4 DUP1 CALLDATASIZE SUB DUP2 ADD SWAP1 PUSH2 0xFA SWAP2 SWAP1 PUSH2 0x4FC JUMP JUMPDEST PUSH2 0x2EA JUMP JUMPDEST PUSH1 0x40 MLOAD PUSH2 0x10C SWAP2 SWAP1 PUSH2 0x538 JUMP JUMPDEST PUSH1 0x40 MLOAD DUP1 SWAP2 SUB SWAP1 RETURN JUMPDEST PUSH1 0x0 SLOAD DUP2 JUMP JUMPDEST PUSH1 0x0 JUMPDEST PUSH1 0x1 DUP1 SLOAD SWAP1 POP DUP2 LT ISZERO PUSH2 0x1C7 JUMPI PUSH1 0x0 PUSH1 0x1 DUP3 DUP2 SLOAD DUP2 LT PUSH2 0x141 JUMPI PUSH2 0x140 PUSH2 0x553 JUMP JUMPDEST JUMPDEST SWAP1 PUSH1 0x0 MSTORE PUSH1 0x20 PUSH1 0x0 KECCAK256 ADD PUSH1 0x0 SWAP1 SLOAD SWAP1 PUSH2 0x100 EXP SWAP1 DIV PUSH20 0xFFFFFFFFFFFFFFFFFFFFFFFFFFFFFFFFFFFFFFFF AND SWAP1 POP PUSH1 0x0 PUSH1 0x2 PUSH1 0x0 DUP4 PUSH20 0xFFFFFFFFFFFFFFFFFFFFFFFFFFFFFFFFFFFFFFFF AND PUSH20 0xFFFFFFFFFFFFFFFFFFFFFFFFFFFFFFFFFFFFFFFF AND DUP2 MSTORE PUSH1 0x20 ADD SWAP1 DUP2 MSTORE PUSH1 0x20 ADD PUSH1 0x0 KECCAK256 DUP2 SWAP1 SSTORE POP POP DUP1 DUP1 PUSH2 0x1BF SWAP1 PUSH2 0x5B1 JUMP JUMPDEST SWAP2 POP POP PUSH2 0x11E JUMP JUMPDEST POP JUMP JUMPDEST PUSH1 0x2 PUSH1 0x20 MSTORE DUP1 PUSH1 0x0 MSTORE PUSH1 0x40 PUSH1 0x0 KECCAK256 PUSH1 0x0 SWAP2 POP SWAP1 POP SLOAD DUP2 JUMP JUMPDEST PUSH1 0x0 SLOAD PUSH2 0x1EE CALLVALUE PUSH2 0x329 JUMP JUMPDEST LT ISZERO PUSH2 0x22F JUMPI PUSH1 0x40 MLOAD PUSH32 0x8C379A000000000000000000000000000000000000000000000000000000000 DUP2 MSTORE PUSH1 0x4 ADD PUSH2 0x226 SWAP1 PUSH2 0x656 JUMP JUMPDEST PUSH1 0x40 MLOAD DUP1 SWAP2 SUB SWAP1 REVERT JUMPDEST PUSH1 0x1 CALLER SWAP1 DUP1 PUSH1 0x1 DUP2 SLOAD ADD DUP1 DUP3 SSTORE DUP1 SWAP2 POP POP PUSH1 0x1 SWAP1 SUB SWAP1 PUSH1 0x0 MSTORE PUSH1 0x20 PUSH1 0x0 KECCAK256 ADD PUSH1 0x0 SWAP1 SWAP2 SWAP1 SWAP2 SWAP1 SWAP2 PUSH2 0x100 EXP DUP2 SLOAD DUP2 PUSH20 0xFFFFFFFFFFFFFFFFFFFFFFFFFFFFFFFFFFFFFFFF MUL NOT AND SWAP1 DUP4 PUSH20 0xFFFFFFFFFFFFFFFFFFFFFFFFFFFFFFFFFFFFFFFF AND MUL OR SWAP1 SSTORE POP CALLVALUE PUSH1 0x2 PUSH1 0x0 CALLER PUSH20 0xFFFFFFFFFFFFFFFFFFFFFFFFFFFFFFFFFFFFFFFF AND PUSH20 0xFFFFFFFFFFFFFFFFFFFFFFFFFFFFFFFFFFFFFFFF AND DUP2 MSTORE PUSH1 0x20 ADD SWAP1 DUP2 MSTORE PUSH1 0x20 ADD PUSH1 0x0 KECCAK256 PUSH1 0x0 DUP3 DUP3 SLOAD PUSH2 0x2E1 SWAP2 SWAP1 PUSH2 0x676 JUMP JUMPDEST SWAP3 POP POP DUP2 SWAP1 SSTORE POP JUMP JUMPDEST PUSH1 0x1 DUP2 DUP2 SLOAD DUP2 LT PUSH2 0x2FA JUMPI PUSH1 0x0 DUP1 REVERT JUMPDEST SWAP1 PUSH1 0x0 MSTORE PUSH1 0x20 PUSH1 0x0 KECCAK256 ADD PUSH1 0x0 SWAP2 POP SLOAD SWAP1 PUSH2 0x100 EXP SWAP1 DIV PUSH20 0xFFFFFFFFFFFFFFFFFFFFFFFFFFFFFFFFFFFFFFFF AND DUP2 JUMP JUMPDEST PUSH1 0x0 DUP1 PUSH2 0x334 PUSH2 0x363 JUMP JUMPDEST SWAP1 POP PUSH1 0x0 PUSH8 0xDE0B6B3A7640000 DUP5 DUP4 PUSH2 0x34D SWAP2 SWAP1 PUSH2 0x6CC JUMP JUMPDEST PUSH2 0x357 SWAP2 SWAP1 PUSH2 0x755 JUMP JUMPDEST SWAP1 POP DUP1 SWAP3 POP POP POP SWAP2 SWAP1 POP JUMP JUMPDEST PUSH1 0x0 DUP1 PUSH20 0x8A753747A1FA494EC906CE90E9F37563A8AF630E SWAP1 POP PUSH1 0x0 DUP2 PUSH20 0xFFFFFFFFFFFFFFFFFFFFFFFFFFFFFFFFFFFFFFFF AND PUSH4 0xFEAF968C PUSH1 0x40 MLOAD DUP2 PUSH4 0xFFFFFFFF AND PUSH1 0xE0 SHL DUP2 MSTORE PUSH1 0x4 ADD PUSH1 0xA0 PUSH1 0x40 MLOAD DUP1 DUP4 SUB DUP2 DUP7 GAS STATICCALL ISZERO DUP1 ISZERO PUSH2 0x3CA JUMPI RETURNDATASIZE PUSH1 0x0 DUP1 RETURNDATACOPY RETURNDATASIZE PUSH1 0x0 REVERT JUMPDEST POP POP POP POP PUSH1 0x40 MLOAD RETURNDATASIZE PUSH1 0x1F NOT PUSH1 0x1F DUP3 ADD AND DUP3 ADD DUP1 PUSH1 0x40 MSTORE POP DUP2 ADD SWAP1 PUSH2 0x3EE SWAP2 SWAP1 PUSH2 0x813 JUMP JUMPDEST POP POP POP SWAP2 POP POP PUSH5 0x2540BE400 DUP2 PUSH2 0x405 SWAP2 SWAP1 PUSH2 0x88E JUMP JUMPDEST SWAP3 POP POP POP SWAP1 JUMP JUMPDEST PUSH1 0x0 DUP2 SWAP1 POP SWAP2 SWAP1 POP JUMP JUMPDEST PUSH2 0x41F DUP2 PUSH2 0x40C JUMP JUMPDEST DUP3 MSTORE POP POP JUMP JUMPDEST PUSH1 0x0 PUSH1 0x20 DUP3 ADD SWAP1 POP PUSH2 0x43A PUSH1 0x0 DUP4 ADD DUP5 PUSH2 0x416 JUMP JUMPDEST SWAP3 SWAP2 POP POP JUMP JUMPDEST PUSH1 0x0 DUP1 REVERT JUMPDEST PUSH1 0x0 PUSH20 0xFFFFFFFFFFFFFFFFFFFFFFFFFFFFFFFFFFFFFFFF DUP3 AND SWAP1 POP SWAP2 SWAP1 POP JUMP JUMPDEST PUSH1 0x0 PUSH2 0x470 DUP3 PUSH2 0x445 JUMP JUMPDEST SWAP1 POP SWAP2 SWAP1 POP JUMP JUMPDEST PUSH2 0x480 DUP2 PUSH2 0x465 JUMP JUMPDEST DUP2 EQ PUSH2 0x48B JUMPI PUSH1 0x0 DUP1 REVERT JUMPDEST POP JUMP JUMPDEST PUSH1 0x0 DUP2 CALLDATALOAD SWAP1 POP PUSH2 0x49D DUP2 PUSH2 0x477 JUMP JUMPDEST SWAP3 SWAP2 POP POP JUMP JUMPDEST PUSH1 0x0 PUSH1 0x20 DUP3 DUP5 SUB SLT ISZERO PUSH2 0x4B9 JUMPI PUSH2 0x4B8 PUSH2 0x440 JUMP JUMPDEST JUMPDEST PUSH1 0x0 PUSH2 0x4C7 DUP5 DUP3 DUP6 ADD PUSH2 0x48E JUMP JUMPDEST SWAP2 POP POP SWAP3 SWAP2 POP POP JUMP JUMPDEST PUSH2 0x4D9 DUP2 PUSH2 0x40C JUMP JUMPDEST DUP2 EQ PUSH2 0x4E4 JUMPI PUSH1 0x0 DUP1 REVERT JUMPDEST POP JUMP JUMPDEST PUSH1 0x0 DUP2 CALLDATALOAD SWAP1 POP PUSH2 0x4F6 DUP2 PUSH2 0x4D0 JUMP JUMPDEST SWAP3 SWAP2 POP POP JUMP JUMPDEST PUSH1 0x0 PUSH1 0x20 DUP3 DUP5 SUB SLT ISZERO PUSH2 0x512 JUMPI PUSH2 0x511 PUSH2 0x440 JUMP JUMPDEST JUMPDEST PUSH1 0x0 PUSH2 0x520 DUP5 DUP3 DUP6 ADD PUSH2 0x4E7 JUMP JUMPDEST SWAP2 POP POP SWAP3 SWAP2 POP POP JUMP JUMPDEST PUSH2 0x532 DUP2 PUSH2 0x465 JUMP JUMPDEST DUP3 MSTORE POP POP JUMP JUMPDEST PUSH1 0x0 PUSH1 0x20 DUP3 ADD SWAP1 POP PUSH2 0x54D PUSH1 0x0 DUP4 ADD DUP5 PUSH2 0x529 JUMP JUMPDEST SWAP3 SWAP2 POP POP JUMP JUMPDEST PUSH32 0x4E487B7100000000000000000000000000000000000000000000000000000000 PUSH1 0x0 MSTORE PUSH1 0x32 PUSH1 0x4 MSTORE PUSH1 0x24 PUSH1 0x0 REVERT JUMPDEST PUSH32 0x4E487B7100000000000000000000000000000000000000000000000000000000 PUSH1 0x0 MSTORE PUSH1 0x11 PUSH1 0x4 MSTORE PUSH1 0x24 PUSH1 0x0 REVERT JUMPDEST PUSH1 0x0 PUSH2 0x5BC DUP3 PUSH2 0x40C JUMP JUMPDEST SWAP2 POP PUSH32 0xFFFFFFFFFFFFFFFFFFFFFFFFFFFFFFFFFFFFFFFFFFFFFFFFFFFFFFFFFFFFFFFF DUP3 SUB PUSH2 0x5EE JUMPI PUSH2 0x5ED PUSH2 0x582 JUMP JUMPDEST JUMPDEST PUSH1 0x1 DUP3 ADD SWAP1 POP SWAP2 SWAP1 POP JUMP JUMPDEST PUSH1 0x0 DUP3 DUP3 MSTORE PUSH1 0x20 DUP3 ADD SWAP1 POP SWAP3 SWAP2 POP POP JUMP JUMPDEST PUSH32 0x4469646E27742073656E6420656E6F7567682100000000000000000000000000 PUSH1 0x0 DUP3 ADD MSTORE POP JUMP JUMPDEST PUSH1 0x0 PUSH2 0x640 PUSH1 0x13 DUP4 PUSH2 0x5F9 JUMP JUMPDEST SWAP2 POP PUSH2 0x64B DUP3 PUSH2 0x60A JUMP JUMPDEST PUSH1 0x20 DUP3 ADD SWAP1 POP SWAP2 SWAP1 POP JUMP JUMPDEST PUSH1 0x0 PUSH1 0x20 DUP3 ADD SWAP1 POP DUP2 DUP2 SUB PUSH1 0x0 DUP4 ADD MSTORE PUSH2 0x66F DUP2 PUSH2 0x633 JUMP JUMPDEST SWAP1 POP SWAP2 SWAP1 POP JUMP JUMPDEST PUSH1 0x0 PUSH2 0x681 DUP3 PUSH2 0x40C JUMP JUMPDEST SWAP2 POP PUSH2 0x68C DUP4 PUSH2 0x40C JUMP JUMPDEST SWAP3 POP DUP3 PUSH32 0xFFFFFFFFFFFFFFFFFFFFFFFFFFFFFFFFFFFFFFFFFFFFFFFFFFFFFFFFFFFFFFFF SUB DUP3 GT ISZERO PUSH2 0x6C1 JUMPI PUSH2 0x6C0 PUSH2 0x582 JUMP JUMPDEST JUMPDEST DUP3 DUP3 ADD SWAP1 POP SWAP3 SWAP2 POP POP JUMP JUMPDEST PUSH1 0x0 PUSH2 0x6D7 DUP3 PUSH2 0x40C JUMP JUMPDEST SWAP2 POP PUSH2 0x6E2 DUP4 PUSH2 0x40C JUMP JUMPDEST SWAP3 POP DUP2 PUSH32 0xFFFFFFFFFFFFFFFFFFFFFFFFFFFFFFFFFFFFFFFFFFFFFFFFFFFFFFFFFFFFFFFF DIV DUP4 GT DUP3 ISZERO ISZERO AND ISZERO PUSH2 0x71B JUMPI PUSH2 0x71A PUSH2 0x582 JUMP JUMPDEST JUMPDEST DUP3 DUP3 MUL SWAP1 POP SWAP3 SWAP2 POP POP JUMP JUMPDEST PUSH32 0x4E487B7100000000000000000000000000000000000000000000000000000000 PUSH1 0x0 MSTORE PUSH1 0x12 PUSH1 0x4 MSTORE PUSH1 0x24 PUSH1 0x0 REVERT JUMPDEST PUSH1 0x0 PUSH2 0x760 DUP3 PUSH2 0x40C JUMP JUMPDEST SWAP2 POP PUSH2 0x76B DUP4 PUSH2 0x40C JUMP JUMPDEST SWAP3 POP DUP3 PUSH2 0x77B JUMPI PUSH2 0x77A PUSH2 0x726 JUMP JUMPDEST JUMPDEST DUP3 DUP3 DIV SWAP1 POP SWAP3 SWAP2 POP POP JUMP JUMPDEST PUSH1 0x0 PUSH10 0xFFFFFFFFFFFFFFFFFFFF DUP3 AND SWAP1 POP SWAP2 SWAP1 POP JUMP JUMPDEST PUSH2 0x7A5 DUP2 PUSH2 0x786 JUMP JUMPDEST DUP2 EQ PUSH2 0x7B0 JUMPI PUSH1 0x0 DUP1 REVERT JUMPDEST POP JUMP JUMPDEST PUSH1 0x0 DUP2 MLOAD SWAP1 POP PUSH2 0x7C2 DUP2 PUSH2 0x79C JUMP JUMPDEST SWAP3 SWAP2 POP POP JUMP JUMPDEST PUSH1 0x0 DUP2 SWAP1 POP SWAP2 SWAP1 POP JUMP JUMPDEST PUSH2 0x7DB DUP2 PUSH2 0x7C8 JUMP JUMPDEST DUP2 EQ PUSH2 0x7E6 JUMPI PUSH1 0x0 DUP1 REVERT JUMPDEST POP JUMP JUMPDEST PUSH1 0x0 DUP2 MLOAD SWAP1 POP PUSH2 0x7F8 DUP2 PUSH2 0x7D2 JUMP JUMPDEST SWAP3 SWAP2 POP POP JUMP JUMPDEST PUSH1 0x0 DUP2 MLOAD SWAP1 POP PUSH2 0x80D DUP2 PUSH2 0x4D0 JUMP JUMPDEST SWAP3 SWAP2 POP POP JUMP JUMPDEST PUSH1 0x0 DUP1 PUSH1 0x0 DUP1 PUSH1 0x0 PUSH1 0xA0 DUP7 DUP9 SUB SLT ISZERO PUSH2 0x82F JUMPI PUSH2 0x82E PUSH2 0x440 JUMP JUMPDEST JUMPDEST PUSH1 0x0 PUSH2 0x83D DUP9 DUP3 DUP10 ADD PUSH2 0x7B3 JUMP JUMPDEST SWAP6 POP POP PUSH1 0x20 PUSH2 0x84E DUP9 DUP3 DUP10 ADD PUSH2 0x7E9 JUMP JUMPDEST SWAP5 POP POP PUSH1 0x40 PUSH2 0x85F DUP9 DUP3 DUP10 ADD PUSH2 0x7FE JUMP JUMPDEST SWAP4 POP POP PUSH1 0x60 PUSH2 0x870 DUP9 DUP3 DUP10 ADD PUSH2 0x7FE JUMP JUMPDEST SWAP3 POP POP PUSH1 0x80 PUSH2 0x881 DUP9 DUP3 DUP10 ADD PUSH2 0x7B3 JUMP JUMPDEST SWAP2 POP POP SWAP3 SWAP6 POP SWAP3 SWAP6 SWAP1 SWAP4 POP JUMP JUMPDEST PUSH1 0x0 PUSH2 0x899 DUP3 PUSH2 0x7C8 JUMP JUMPDEST SWAP2 POP PUSH2 0x8A4 DUP4 PUSH2 0x7C8 JUMP JUMPDEST SWAP3 POP DUP3 PUSH32 0x7FFFFFFFFFFFFFFFFFFFFFFFFFFFFFFFFFFFFFFFFFFFFFFFFFFFFFFFFFFFFFFF DIV DUP3 GT PUSH1 0x0 DUP5 SGT PUSH1 0x0 DUP5 SGT AND AND ISZERO PUSH2 0x8E3 JUMPI PUSH2 0x8E2 PUSH2 0x582 JUMP JUMPDEST JUMPDEST DUP2 PUSH32 0x8000000000000000000000000000000000000000000000000000000000000000 SDIV DUP4 SLT PUSH1 0x0 DUP5 SLT PUSH1 0x0 DUP5 SGT AND AND ISZERO PUSH2 0x920 JUMPI PUSH2 0x91F PUSH2 0x582 JUMP JUMPDEST JUMPDEST DUP3 PUSH32 0x8000000000000000000000000000000000000000000000000000000000000000 SDIV DUP3 SLT PUSH1 0x0 DUP5 SGT PUSH1 0x0 DUP5 SLT AND AND ISZERO PUSH2 0x95D JUMPI PUSH2 0x95C PUSH2 0x582 JUMP JUMPDEST JUMPDEST DUP3 PUSH32 0x7FFFFFFFFFFFFFFFFFFFFFFFFFFFFFFFFFFFFFFFFFFFFFFFFFFFFFFFFFFFFFFF SDIV DUP3 SLT PUSH1 0x0 DUP5 SLT PUSH1 0x0 DUP5 SLT AND AND ISZERO PUSH2 0x99A JUMPI PUSH2 0x999 PUSH2 0x582 JUMP JUMPDEST JUMPDEST DUP3 DUP3 MUL SWAP1 POP SWAP3 SWAP2 POP POP JUMP INVALID LOG2 PUSH5 0x6970667358 0x22 SLT KECCAK256 0xC2 0x2E PUSH9 0xC72A1F4DF7203FCD73 0xC9 PUSH31 0x2B9604B573692A4FEB2038C6F5CD1CAAC57564736F6C634300080F00330000 "
				},
				"gasEstimates": {
					"creation": {
						"codeDepositCost": "504600",
						"executionCost": "22643",
						"totalCost": "527243"
					},
					"external": {
						"addressToAmountFunded(address)": "2836",
						"fund()": "infinite",
						"funders(uint256)": "5022",
						"minimumUsd()": "2407",
						"withdraw()": "infinite"
					}
				},
				"methodIdentifiers": {
					"addressToAmountFunded(address)": "3e47d6f3",
					"fund()": "b60d4288",
					"funders(uint256)": "dc0d3dff",
					"minimumUsd()": "098de820",
					"withdraw()": "3ccfd60b"
				}
			},
			"storageLayout": {
				"storage": [
					{
						"astId": 56,
						"contract": "FundMe.sol:FundMe",
						"label": "minimumUsd",
						"offset": 0,
						"slot": "0",
						"type": "t_uint256"
					},
					{
						"astId": 59,
						"contract": "FundMe.sol:FundMe",
						"label": "funders",
						"offset": 0,
						"slot": "1",
						"type": "t_array(t_address)dyn_storage"
					},
					{
						"astId": 63,
						"contract": "FundMe.sol:FundMe",
						"label": "addressToAmountFunded",
						"offset": 0,
						"slot": "2",
						"type": "t_mapping(t_address,t_uint256)"
					}
				],
				"types": {
					"t_address": {
						"encoding": "inplace",
						"label": "address",
						"numberOfBytes": "20"
					},
					"t_array(t_address)dyn_storage": {
						"base": "t_address",
						"encoding": "dynamic_array",
						"label": "address[]",
						"numberOfBytes": "32"
					},
					"t_mapping(t_address,t_uint256)": {
						"encoding": "mapping",
						"key": "t_address",
						"label": "mapping(address => uint256)",
						"numberOfBytes": "32",
						"value": "t_uint256"
					},
					"t_uint256": {
						"encoding": "inplace",
						"label": "uint256",
						"numberOfBytes": "32"
					}
				}
			},
			"userdoc": {
				"kind": "user",
				"methods": {},
				"version": 1
			}
		}
	}
}