{
	"Test.sol": {
		"Test": {
			"abi": [
				{
					"inputs": [
						{
							"internalType": "string",
							"name": "_name",
							"type": "string"
						},
						{
							"internalType": "uint256",
							"name": "_favoriteNumber",
							"type": "uint256"
						}
					],
					"name": "addPerson",
					"outputs": [],
					"stateMutability": "nonpayable",
					"type": "function"
				},
				{
					"inputs": [
						{
							"internalType": "uint256",
							"name": "",
							"type": "uint256"
						}
					],
					"name": "people",
					"outputs": [
						{
							"internalType": "string",
							"name": "name",
							"type": "string"
						},
						{
							"internalType": "uint256",
							"name": "favoriteNumber",
							"type": "uint256"
						}
					],
					"stateMutability": "view",
					"type": "function"
				},
				{
					"inputs": [],
					"name": "retrieve",
					"outputs": [
						{
							"internalType": "uint256",
							"name": "",
							"type": "uint256"
						}
					],
					"stateMutability": "view",
					"type": "function"
				}
			],
			"devdoc": {
				"kind": "dev",
				"methods": {},
				"version": 1
			},
			"evm": {
				"assembly": "    /* \"Test.sol\":55:520  contract Test {... */\n  mstore(0x40, 0x80)\n  callvalue\n  dup1\n  iszero\n  tag_1\n  jumpi\n  0x00\n  dup1\n  revert\ntag_1:\n  pop\n  dataSize(sub_0)\n  dup1\n  dataOffset(sub_0)\n  0x00\n  codecopy\n  0x00\n  return\nstop\n\nsub_0: assembly {\n        /* \"Test.sol\":55:520  contract Test {... */\n      mstore(0x40, 0x80)\n      callvalue\n      dup1\n      iszero\n      tag_1\n      jumpi\n      0x00\n      dup1\n      revert\n    tag_1:\n      pop\n      jumpi(tag_2, lt(calldatasize, 0x04))\n      shr(0xe0, calldataload(0x00))\n      dup1\n      0x2e64cec1\n      eq\n      tag_3\n      jumpi\n      dup1\n      0x6f760f41\n      eq\n      tag_4\n      jumpi\n      dup1\n      0x9e7a13ad\n      eq\n      tag_5\n      jumpi\n    tag_2:\n      0x00\n      dup1\n      revert\n        /* \"Test.sol\":431:518  function retrieve() public view returns(uint256) {... */\n    tag_3:\n      tag_6\n      tag_7\n      jump\t// in\n    tag_6:\n      mload(0x40)\n      tag_8\n      swap2\n      swap1\n      tag_9\n      jump\t// in\n    tag_8:\n      mload(0x40)\n      dup1\n      swap2\n      sub\n      swap1\n      return\n        /* \"Test.sol\":293:425  function addPerson(string memory _name, uint256 _favoriteNumber) public {... */\n    tag_4:\n      tag_10\n      0x04\n      dup1\n      calldatasize\n      sub\n      dup2\n      add\n      swap1\n      tag_11\n      swap2\n      swap1\n      tag_12\n      jump\t// in\n    tag_11:\n      tag_13\n      jump\t// in\n    tag_10:\n      stop\n        /* \"Test.sol\":264:286  People[] public people */\n    tag_5:\n      tag_14\n      0x04\n      dup1\n      calldatasize\n      sub\n      dup2\n      add\n      swap1\n      tag_15\n      swap2\n      swap1\n      tag_16\n      jump\t// in\n    tag_15:\n      tag_17\n      jump\t// in\n    tag_14:\n      mload(0x40)\n      tag_18\n      swap3\n      swap2\n      swap1\n      tag_19\n      jump\t// in\n    tag_18:\n      mload(0x40)\n      dup1\n      swap2\n      sub\n      swap1\n      return\n        /* \"Test.sol\":431:518  function retrieve() public view returns(uint256) {... */\n    tag_7:\n        /* \"Test.sol\":471:478  uint256 */\n      0x00\n        /* \"Test.sol\":497:511  favoriteNumber */\n      dup1\n      sload\n        /* \"Test.sol\":490:511  return favoriteNumber */\n      swap1\n      pop\n        /* \"Test.sol\":431:518  function retrieve() public view returns(uint256) {... */\n      swap1\n      jump\t// out\n        /* \"Test.sol\":293:425  function addPerson(string memory _name, uint256 _favoriteNumber) public {... */\n    tag_13:\n        /* \"Test.sol\":375:381  people */\n      0x01\n        /* \"Test.sol\":387:417  People(_name, _favoriteNumber) */\n      mload(0x40)\n      dup1\n      0x40\n      add\n      0x40\n      mstore\n      dup1\n        /* \"Test.sol\":394:399  _name */\n      dup5\n        /* \"Test.sol\":387:417  People(_name, _favoriteNumber) */\n      dup2\n      mstore\n      0x20\n      add\n        /* \"Test.sol\":401:416  _favoriteNumber */\n      dup4\n        /* \"Test.sol\":387:417  People(_name, _favoriteNumber) */\n      dup2\n      mstore\n      pop\n        /* \"Test.sol\":375:418  people.push(People(_name, _favoriteNumber)) */\n      swap1\n      dup1\n      0x01\n      dup2\n      sload\n      add\n      dup1\n      dup3\n      sstore\n      dup1\n      swap2\n      pop\n      pop\n      0x01\n      swap1\n      sub\n      swap1\n      0x00\n      mstore\n      keccak256(0x00, 0x20)\n      swap1\n      0x02\n      mul\n      add\n      0x00\n      swap1\n      swap2\n      swap1\n      swap2\n      swap1\n      swap2\n      pop\n      0x00\n      dup3\n      add\n      mload\n      dup2\n      0x00\n      add\n      swap1\n      dup2\n      tag_23\n      swap2\n      swap1\n      tag_24\n      jump\t// in\n    tag_23:\n      pop\n      0x20\n      dup3\n      add\n      mload\n      dup2\n      0x01\n      add\n      sstore\n      pop\n      pop\n        /* \"Test.sol\":293:425  function addPerson(string memory _name, uint256 _favoriteNumber) public {... */\n      pop\n      pop\n      jump\t// out\n        /* \"Test.sol\":264:286  People[] public people */\n    tag_17:\n      0x01\n      dup2\n      dup2\n      sload\n      dup2\n      lt\n      tag_25\n      jumpi\n      0x00\n      dup1\n      revert\n    tag_25:\n      swap1\n      0x00\n      mstore\n      keccak256(0x00, 0x20)\n      swap1\n      0x02\n      mul\n      add\n      0x00\n      swap2\n      pop\n      swap1\n      pop\n      dup1\n      0x00\n      add\n      dup1\n      sload\n      tag_27\n      swap1\n      tag_28\n      jump\t// in\n    tag_27:\n      dup1\n      0x1f\n      add\n      0x20\n      dup1\n      swap2\n      div\n      mul\n      0x20\n      add\n      mload(0x40)\n      swap1\n      dup2\n      add\n      0x40\n      mstore\n      dup1\n      swap3\n      swap2\n      swap1\n      dup2\n      dup2\n      mstore\n      0x20\n      add\n      dup3\n      dup1\n      sload\n      tag_29\n      swap1\n      tag_28\n      jump\t// in\n    tag_29:\n      dup1\n      iszero\n      tag_30\n      jumpi\n      dup1\n      0x1f\n      lt\n      tag_31\n      jumpi\n      0x0100\n      dup1\n      dup4\n      sload\n      div\n      mul\n      dup4\n      mstore\n      swap2\n      0x20\n      add\n      swap2\n      jump(tag_30)\n    tag_31:\n      dup3\n      add\n      swap2\n      swap1\n      0x00\n      mstore\n      keccak256(0x00, 0x20)\n      swap1\n    tag_32:\n      dup2\n      sload\n      dup2\n      mstore\n      swap1\n      0x01\n      add\n      swap1\n      0x20\n      add\n      dup1\n      dup4\n      gt\n      tag_32\n      jumpi\n      dup3\n      swap1\n      sub\n      0x1f\n      and\n      dup3\n      add\n      swap2\n    tag_30:\n      pop\n      pop\n      pop\n      pop\n      pop\n      swap1\n      dup1\n      0x01\n      add\n      sload\n      swap1\n      pop\n      dup3\n      jump\t// out\n        /* \"#utility.yul\":7:84   */\n    tag_33:\n        /* \"#utility.yul\":44:51   */\n      0x00\n        /* \"#utility.yul\":73:78   */\n      dup2\n        /* \"#utility.yul\":62:78   */\n      swap1\n      pop\n        /* \"#utility.yul\":7:84   */\n      swap2\n      swap1\n      pop\n      jump\t// out\n        /* \"#utility.yul\":90:208   */\n    tag_34:\n        /* \"#utility.yul\":177:201   */\n      tag_73\n        /* \"#utility.yul\":195:200   */\n      dup2\n        /* \"#utility.yul\":177:201   */\n      tag_33\n      jump\t// in\n    tag_73:\n        /* \"#utility.yul\":172:175   */\n      dup3\n        /* \"#utility.yul\":165:202   */\n      mstore\n        /* \"#utility.yul\":90:208   */\n      pop\n      pop\n      jump\t// out\n        /* \"#utility.yul\":214:436   */\n    tag_9:\n        /* \"#utility.yul\":307:311   */\n      0x00\n        /* \"#utility.yul\":345:347   */\n      0x20\n        /* \"#utility.yul\":334:343   */\n      dup3\n        /* \"#utility.yul\":330:348   */\n      add\n        /* \"#utility.yul\":322:348   */\n      swap1\n      pop\n        /* \"#utility.yul\":358:429   */\n      tag_75\n        /* \"#utility.yul\":426:427   */\n      0x00\n        /* \"#utility.yul\":415:424   */\n      dup4\n        /* \"#utility.yul\":411:428   */\n      add\n        /* \"#utility.yul\":402:408   */\n      dup5\n        /* \"#utility.yul\":358:429   */\n      tag_34\n      jump\t// in\n    tag_75:\n        /* \"#utility.yul\":214:436   */\n      swap3\n      swap2\n      pop\n      pop\n      jump\t// out\n        /* \"#utility.yul\":442:517   */\n    tag_35:\n        /* \"#utility.yul\":475:481   */\n      0x00\n        /* \"#utility.yul\":508:510   */\n      0x40\n        /* \"#utility.yul\":502:511   */\n      mload\n        /* \"#utility.yul\":492:511   */\n      swap1\n      pop\n        /* \"#utility.yul\":442:517   */\n      swap1\n      jump\t// out\n        /* \"#utility.yul\":523:640   */\n    tag_36:\n        /* \"#utility.yul\":632:633   */\n      0x00\n        /* \"#utility.yul\":629:630   */\n      dup1\n        /* \"#utility.yul\":622:634   */\n      revert\n        /* \"#utility.yul\":646:763   */\n    tag_37:\n        /* \"#utility.yul\":755:756   */\n      0x00\n        /* \"#utility.yul\":752:753   */\n      dup1\n        /* \"#utility.yul\":745:757   */\n      revert\n        /* \"#utility.yul\":769:886   */\n    tag_38:\n        /* \"#utility.yul\":878:879   */\n      0x00\n        /* \"#utility.yul\":875:876   */\n      dup1\n        /* \"#utility.yul\":868:880   */\n      revert\n        /* \"#utility.yul\":892:1009   */\n    tag_39:\n        /* \"#utility.yul\":1001:1002   */\n      0x00\n        /* \"#utility.yul\":998:999   */\n      dup1\n        /* \"#utility.yul\":991:1003   */\n      revert\n        /* \"#utility.yul\":1015:1117   */\n    tag_40:\n        /* \"#utility.yul\":1056:1062   */\n      0x00\n        /* \"#utility.yul\":1107:1109   */\n      0x1f\n        /* \"#utility.yul\":1103:1110   */\n      not\n        /* \"#utility.yul\":1098:1100   */\n      0x1f\n        /* \"#utility.yul\":1091:1096   */\n      dup4\n        /* \"#utility.yul\":1087:1101   */\n      add\n        /* \"#utility.yul\":1083:1111   */\n      and\n        /* \"#utility.yul\":1073:1111   */\n      swap1\n      pop\n        /* \"#utility.yul\":1015:1117   */\n      swap2\n      swap1\n      pop\n      jump\t// out\n        /* \"#utility.yul\":1123:1303   */\n    tag_41:\n        /* \"#utility.yul\":1171:1248   */\n      0x4e487b7100000000000000000000000000000000000000000000000000000000\n        /* \"#utility.yul\":1168:1169   */\n      0x00\n        /* \"#utility.yul\":1161:1249   */\n      mstore\n        /* \"#utility.yul\":1268:1272   */\n      0x41\n        /* \"#utility.yul\":1265:1266   */\n      0x04\n        /* \"#utility.yul\":1258:1273   */\n      mstore\n        /* \"#utility.yul\":1292:1296   */\n      0x24\n        /* \"#utility.yul\":1289:1290   */\n      0x00\n        /* \"#utility.yul\":1282:1297   */\n      revert\n        /* \"#utility.yul\":1309:1590   */\n    tag_42:\n        /* \"#utility.yul\":1392:1419   */\n      tag_84\n        /* \"#utility.yul\":1414:1418   */\n      dup3\n        /* \"#utility.yul\":1392:1419   */\n      tag_40\n      jump\t// in\n    tag_84:\n        /* \"#utility.yul\":1384:1390   */\n      dup2\n        /* \"#utility.yul\":1380:1420   */\n      add\n        /* \"#utility.yul\":1522:1528   */\n      dup2\n        /* \"#utility.yul\":1510:1520   */\n      dup2\n        /* \"#utility.yul\":1507:1529   */\n      lt\n        /* \"#utility.yul\":1486:1504   */\n      0xffffffffffffffff\n        /* \"#utility.yul\":1474:1484   */\n      dup3\n        /* \"#utility.yul\":1471:1505   */\n      gt\n        /* \"#utility.yul\":1468:1530   */\n      or\n        /* \"#utility.yul\":1465:1553   */\n      iszero\n      tag_85\n      jumpi\n        /* \"#utility.yul\":1533:1551   */\n      tag_86\n      tag_41\n      jump\t// in\n    tag_86:\n        /* \"#utility.yul\":1465:1553   */\n    tag_85:\n        /* \"#utility.yul\":1573:1583   */\n      dup1\n        /* \"#utility.yul\":1569:1571   */\n      0x40\n        /* \"#utility.yul\":1562:1584   */\n      mstore\n        /* \"#utility.yul\":1352:1590   */\n      pop\n        /* \"#utility.yul\":1309:1590   */\n      pop\n      pop\n      jump\t// out\n        /* \"#utility.yul\":1596:1725   */\n    tag_43:\n        /* \"#utility.yul\":1630:1636   */\n      0x00\n        /* \"#utility.yul\":1657:1677   */\n      tag_88\n      tag_35\n      jump\t// in\n    tag_88:\n        /* \"#utility.yul\":1647:1677   */\n      swap1\n      pop\n        /* \"#utility.yul\":1686:1719   */\n      tag_89\n        /* \"#utility.yul\":1714:1718   */\n      dup3\n        /* \"#utility.yul\":1706:1712   */\n      dup3\n        /* \"#utility.yul\":1686:1719   */\n      tag_42\n      jump\t// in\n    tag_89:\n        /* \"#utility.yul\":1596:1725   */\n      swap2\n      swap1\n      pop\n      jump\t// out\n        /* \"#utility.yul\":1731:2039   */\n    tag_44:\n        /* \"#utility.yul\":1793:1797   */\n      0x00\n        /* \"#utility.yul\":1883:1901   */\n      0xffffffffffffffff\n        /* \"#utility.yul\":1875:1881   */\n      dup3\n        /* \"#utility.yul\":1872:1902   */\n      gt\n        /* \"#utility.yul\":1869:1925   */\n      iszero\n      tag_91\n      jumpi\n        /* \"#utility.yul\":1905:1923   */\n      tag_92\n      tag_41\n      jump\t// in\n    tag_92:\n        /* \"#utility.yul\":1869:1925   */\n    tag_91:\n        /* \"#utility.yul\":1943:1972   */\n      tag_93\n        /* \"#utility.yul\":1965:1971   */\n      dup3\n        /* \"#utility.yul\":1943:1972   */\n      tag_40\n      jump\t// in\n    tag_93:\n        /* \"#utility.yul\":1935:1972   */\n      swap1\n      pop\n        /* \"#utility.yul\":2027:2031   */\n      0x20\n        /* \"#utility.yul\":2021:2025   */\n      dup2\n        /* \"#utility.yul\":2017:2032   */\n      add\n        /* \"#utility.yul\":2009:2032   */\n      swap1\n      pop\n        /* \"#utility.yul\":1731:2039   */\n      swap2\n      swap1\n      pop\n      jump\t// out\n        /* \"#utility.yul\":2045:2199   */\n    tag_45:\n        /* \"#utility.yul\":2129:2135   */\n      dup3\n        /* \"#utility.yul\":2124:2127   */\n      dup2\n        /* \"#utility.yul\":2119:2122   */\n      dup4\n        /* \"#utility.yul\":2106:2136   */\n      calldatacopy\n        /* \"#utility.yul\":2191:2192   */\n      0x00\n        /* \"#utility.yul\":2182:2188   */\n      dup4\n        /* \"#utility.yul\":2177:2180   */\n      dup4\n        /* \"#utility.yul\":2173:2189   */\n      add\n        /* \"#utility.yul\":2166:2193   */\n      mstore\n        /* \"#utility.yul\":2045:2199   */\n      pop\n      pop\n      pop\n      jump\t// out\n        /* \"#utility.yul\":2205:2617   */\n    tag_46:\n        /* \"#utility.yul\":2283:2288   */\n      0x00\n        /* \"#utility.yul\":2308:2374   */\n      tag_96\n        /* \"#utility.yul\":2324:2373   */\n      tag_97\n        /* \"#utility.yul\":2366:2372   */\n      dup5\n        /* \"#utility.yul\":2324:2373   */\n      tag_44\n      jump\t// in\n    tag_97:\n        /* \"#utility.yul\":2308:2374   */\n      tag_43\n      jump\t// in\n    tag_96:\n        /* \"#utility.yul\":2299:2374   */\n      swap1\n      pop\n        /* \"#utility.yul\":2397:2403   */\n      dup3\n        /* \"#utility.yul\":2390:2395   */\n      dup2\n        /* \"#utility.yul\":2383:2404   */\n      mstore\n        /* \"#utility.yul\":2435:2439   */\n      0x20\n        /* \"#utility.yul\":2428:2433   */\n      dup2\n        /* \"#utility.yul\":2424:2440   */\n      add\n        /* \"#utility.yul\":2473:2476   */\n      dup5\n        /* \"#utility.yul\":2464:2470   */\n      dup5\n        /* \"#utility.yul\":2459:2462   */\n      dup5\n        /* \"#utility.yul\":2455:2471   */\n      add\n        /* \"#utility.yul\":2452:2477   */\n      gt\n        /* \"#utility.yul\":2449:2561   */\n      iszero\n      tag_98\n      jumpi\n        /* \"#utility.yul\":2480:2559   */\n      tag_99\n      tag_39\n      jump\t// in\n    tag_99:\n        /* \"#utility.yul\":2449:2561   */\n    tag_98:\n        /* \"#utility.yul\":2570:2611   */\n      tag_100\n        /* \"#utility.yul\":2604:2610   */\n      dup5\n        /* \"#utility.yul\":2599:2602   */\n      dup3\n        /* \"#utility.yul\":2594:2597   */\n      dup6\n        /* \"#utility.yul\":2570:2611   */\n      tag_45\n      jump\t// in\n    tag_100:\n        /* \"#utility.yul\":2289:2617   */\n      pop\n        /* \"#utility.yul\":2205:2617   */\n      swap4\n      swap3\n      pop\n      pop\n      pop\n      jump\t// out\n        /* \"#utility.yul\":2637:2977   */\n    tag_47:\n        /* \"#utility.yul\":2693:2698   */\n      0x00\n        /* \"#utility.yul\":2742:2745   */\n      dup3\n        /* \"#utility.yul\":2735:2739   */\n      0x1f\n        /* \"#utility.yul\":2727:2733   */\n      dup4\n        /* \"#utility.yul\":2723:2740   */\n      add\n        /* \"#utility.yul\":2719:2746   */\n      slt\n        /* \"#utility.yul\":2709:2831   */\n      tag_102\n      jumpi\n        /* \"#utility.yul\":2750:2829   */\n      tag_103\n      tag_38\n      jump\t// in\n    tag_103:\n        /* \"#utility.yul\":2709:2831   */\n    tag_102:\n        /* \"#utility.yul\":2867:2873   */\n      dup2\n        /* \"#utility.yul\":2854:2874   */\n      calldataload\n        /* \"#utility.yul\":2892:2971   */\n      tag_104\n        /* \"#utility.yul\":2967:2970   */\n      dup5\n        /* \"#utility.yul\":2959:2965   */\n      dup3\n        /* \"#utility.yul\":2952:2956   */\n      0x20\n        /* \"#utility.yul\":2944:2950   */\n      dup7\n        /* \"#utility.yul\":2940:2957   */\n      add\n        /* \"#utility.yul\":2892:2971   */\n      tag_46\n      jump\t// in\n    tag_104:\n        /* \"#utility.yul\":2883:2971   */\n      swap2\n      pop\n        /* \"#utility.yul\":2699:2977   */\n      pop\n        /* \"#utility.yul\":2637:2977   */\n      swap3\n      swap2\n      pop\n      pop\n      jump\t// out\n        /* \"#utility.yul\":2983:3105   */\n    tag_48:\n        /* \"#utility.yul\":3056:3080   */\n      tag_106\n        /* \"#utility.yul\":3074:3079   */\n      dup2\n        /* \"#utility.yul\":3056:3080   */\n      tag_33\n      jump\t// in\n    tag_106:\n        /* \"#utility.yul\":3049:3054   */\n      dup2\n        /* \"#utility.yul\":3046:3081   */\n      eq\n        /* \"#utility.yul\":3036:3099   */\n      tag_107\n      jumpi\n        /* \"#utility.yul\":3095:3096   */\n      0x00\n        /* \"#utility.yul\":3092:3093   */\n      dup1\n        /* \"#utility.yul\":3085:3097   */\n      revert\n        /* \"#utility.yul\":3036:3099   */\n    tag_107:\n        /* \"#utility.yul\":2983:3105   */\n      pop\n      jump\t// out\n        /* \"#utility.yul\":3111:3250   */\n    tag_49:\n        /* \"#utility.yul\":3157:3162   */\n      0x00\n        /* \"#utility.yul\":3195:3201   */\n      dup2\n        /* \"#utility.yul\":3182:3202   */\n      calldataload\n        /* \"#utility.yul\":3173:3202   */\n      swap1\n      pop\n        /* \"#utility.yul\":3211:3244   */\n      tag_109\n        /* \"#utility.yul\":3238:3243   */\n      dup2\n        /* \"#utility.yul\":3211:3244   */\n      tag_48\n      jump\t// in\n    tag_109:\n        /* \"#utility.yul\":3111:3250   */\n      swap3\n      swap2\n      pop\n      pop\n      jump\t// out\n        /* \"#utility.yul\":3256:3910   */\n    tag_12:\n        /* \"#utility.yul\":3334:3340   */\n      0x00\n        /* \"#utility.yul\":3342:3348   */\n      dup1\n        /* \"#utility.yul\":3391:3393   */\n      0x40\n        /* \"#utility.yul\":3379:3388   */\n      dup4\n        /* \"#utility.yul\":3370:3377   */\n      dup6\n        /* \"#utility.yul\":3366:3389   */\n      sub\n        /* \"#utility.yul\":3362:3394   */\n      slt\n        /* \"#utility.yul\":3359:3478   */\n      iszero\n      tag_111\n      jumpi\n        /* \"#utility.yul\":3397:3476   */\n      tag_112\n      tag_36\n      jump\t// in\n    tag_112:\n        /* \"#utility.yul\":3359:3478   */\n    tag_111:\n        /* \"#utility.yul\":3545:3546   */\n      0x00\n        /* \"#utility.yul\":3534:3543   */\n      dup4\n        /* \"#utility.yul\":3530:3547   */\n      add\n        /* \"#utility.yul\":3517:3548   */\n      calldataload\n        /* \"#utility.yul\":3575:3593   */\n      0xffffffffffffffff\n        /* \"#utility.yul\":3567:3573   */\n      dup2\n        /* \"#utility.yul\":3564:3594   */\n      gt\n        /* \"#utility.yul\":3561:3678   */\n      iszero\n      tag_113\n      jumpi\n        /* \"#utility.yul\":3597:3676   */\n      tag_114\n      tag_37\n      jump\t// in\n    tag_114:\n        /* \"#utility.yul\":3561:3678   */\n    tag_113:\n        /* \"#utility.yul\":3702:3765   */\n      tag_115\n        /* \"#utility.yul\":3757:3764   */\n      dup6\n        /* \"#utility.yul\":3748:3754   */\n      dup3\n        /* \"#utility.yul\":3737:3746   */\n      dup7\n        /* \"#utility.yul\":3733:3755   */\n      add\n        /* \"#utility.yul\":3702:3765   */\n      tag_47\n      jump\t// in\n    tag_115:\n        /* \"#utility.yul\":3692:3765   */\n      swap3\n      pop\n        /* \"#utility.yul\":3488:3775   */\n      pop\n        /* \"#utility.yul\":3814:3816   */\n      0x20\n        /* \"#utility.yul\":3840:3893   */\n      tag_116\n        /* \"#utility.yul\":3885:3892   */\n      dup6\n        /* \"#utility.yul\":3876:3882   */\n      dup3\n        /* \"#utility.yul\":3865:3874   */\n      dup7\n        /* \"#utility.yul\":3861:3883   */\n      add\n        /* \"#utility.yul\":3840:3893   */\n      tag_49\n      jump\t// in\n    tag_116:\n        /* \"#utility.yul\":3830:3893   */\n      swap2\n      pop\n        /* \"#utility.yul\":3785:3903   */\n      pop\n        /* \"#utility.yul\":3256:3910   */\n      swap3\n      pop\n      swap3\n      swap1\n      pop\n      jump\t// out\n        /* \"#utility.yul\":3916:4245   */\n    tag_16:\n        /* \"#utility.yul\":3975:3981   */\n      0x00\n        /* \"#utility.yul\":4024:4026   */\n      0x20\n        /* \"#utility.yul\":4012:4021   */\n      dup3\n        /* \"#utility.yul\":4003:4010   */\n      dup5\n        /* \"#utility.yul\":3999:4022   */\n      sub\n        /* \"#utility.yul\":3995:4027   */\n      slt\n        /* \"#utility.yul\":3992:4111   */\n      iszero\n      tag_118\n      jumpi\n        /* \"#utility.yul\":4030:4109   */\n      tag_119\n      tag_36\n      jump\t// in\n    tag_119:\n        /* \"#utility.yul\":3992:4111   */\n    tag_118:\n        /* \"#utility.yul\":4150:4151   */\n      0x00\n        /* \"#utility.yul\":4175:4228   */\n      tag_120\n        /* \"#utility.yul\":4220:4227   */\n      dup5\n        /* \"#utility.yul\":4211:4217   */\n      dup3\n        /* \"#utility.yul\":4200:4209   */\n      dup6\n        /* \"#utility.yul\":4196:4218   */\n      add\n        /* \"#utility.yul\":4175:4228   */\n      tag_49\n      jump\t// in\n    tag_120:\n        /* \"#utility.yul\":4165:4228   */\n      swap2\n      pop\n        /* \"#utility.yul\":4121:4238   */\n      pop\n        /* \"#utility.yul\":3916:4245   */\n      swap3\n      swap2\n      pop\n      pop\n      jump\t// out\n        /* \"#utility.yul\":4251:4350   */\n    tag_50:\n        /* \"#utility.yul\":4303:4309   */\n      0x00\n        /* \"#utility.yul\":4337:4342   */\n      dup2\n        /* \"#utility.yul\":4331:4343   */\n      mload\n        /* \"#utility.yul\":4321:4343   */\n      swap1\n      pop\n        /* \"#utility.yul\":4251:4350   */\n      swap2\n      swap1\n      pop\n      jump\t// out\n        /* \"#utility.yul\":4356:4525   */\n    tag_51:\n        /* \"#utility.yul\":4440:4451   */\n      0x00\n        /* \"#utility.yul\":4474:4480   */\n      dup3\n        /* \"#utility.yul\":4469:4472   */\n      dup3\n        /* \"#utility.yul\":4462:4481   */\n      mstore\n        /* \"#utility.yul\":4514:4518   */\n      0x20\n        /* \"#utility.yul\":4509:4512   */\n      dup3\n        /* \"#utility.yul\":4505:4519   */\n      add\n        /* \"#utility.yul\":4490:4519   */\n      swap1\n      pop\n        /* \"#utility.yul\":4356:4525   */\n      swap3\n      swap2\n      pop\n      pop\n      jump\t// out\n        /* \"#utility.yul\":4531:4838   */\n    tag_52:\n        /* \"#utility.yul\":4599:4600   */\n      0x00\n        /* \"#utility.yul\":4609:4722   */\n    tag_124:\n        /* \"#utility.yul\":4623:4629   */\n      dup4\n        /* \"#utility.yul\":4620:4621   */\n      dup2\n        /* \"#utility.yul\":4617:4630   */\n      lt\n        /* \"#utility.yul\":4609:4722   */\n      iszero\n      tag_126\n      jumpi\n        /* \"#utility.yul\":4708:4709   */\n      dup1\n        /* \"#utility.yul\":4703:4706   */\n      dup3\n        /* \"#utility.yul\":4699:4710   */\n      add\n        /* \"#utility.yul\":4693:4711   */\n      mload\n        /* \"#utility.yul\":4689:4690   */\n      dup2\n        /* \"#utility.yul\":4684:4687   */\n      dup5\n        /* \"#utility.yul\":4680:4691   */\n      add\n        /* \"#utility.yul\":4673:4712   */\n      mstore\n        /* \"#utility.yul\":4645:4647   */\n      0x20\n        /* \"#utility.yul\":4642:4643   */\n      dup2\n        /* \"#utility.yul\":4638:4648   */\n      add\n        /* \"#utility.yul\":4633:4648   */\n      swap1\n      pop\n        /* \"#utility.yul\":4609:4722   */\n      jump(tag_124)\n    tag_126:\n        /* \"#utility.yul\":4740:4746   */\n      dup4\n        /* \"#utility.yul\":4737:4738   */\n      dup2\n        /* \"#utility.yul\":4734:4747   */\n      gt\n        /* \"#utility.yul\":4731:4832   */\n      iszero\n      tag_127\n      jumpi\n        /* \"#utility.yul\":4820:4821   */\n      0x00\n        /* \"#utility.yul\":4811:4817   */\n      dup5\n        /* \"#utility.yul\":4806:4809   */\n      dup5\n        /* \"#utility.yul\":4802:4818   */\n      add\n        /* \"#utility.yul\":4795:4822   */\n      mstore\n        /* \"#utility.yul\":4731:4832   */\n    tag_127:\n        /* \"#utility.yul\":4580:4838   */\n      pop\n        /* \"#utility.yul\":4531:4838   */\n      pop\n      pop\n      pop\n      jump\t// out\n        /* \"#utility.yul\":4844:5208   */\n    tag_53:\n        /* \"#utility.yul\":4932:4935   */\n      0x00\n        /* \"#utility.yul\":4960:4999   */\n      tag_129\n        /* \"#utility.yul\":4993:4998   */\n      dup3\n        /* \"#utility.yul\":4960:4999   */\n      tag_50\n      jump\t// in\n    tag_129:\n        /* \"#utility.yul\":5015:5086   */\n      tag_130\n        /* \"#utility.yul\":5079:5085   */\n      dup2\n        /* \"#utility.yul\":5074:5077   */\n      dup6\n        /* \"#utility.yul\":5015:5086   */\n      tag_51\n      jump\t// in\n    tag_130:\n        /* \"#utility.yul\":5008:5086   */\n      swap4\n      pop\n        /* \"#utility.yul\":5095:5147   */\n      tag_131\n        /* \"#utility.yul\":5140:5146   */\n      dup2\n        /* \"#utility.yul\":5135:5138   */\n      dup6\n        /* \"#utility.yul\":5128:5132   */\n      0x20\n        /* \"#utility.yul\":5121:5126   */\n      dup7\n        /* \"#utility.yul\":5117:5133   */\n      add\n        /* \"#utility.yul\":5095:5147   */\n      tag_52\n      jump\t// in\n    tag_131:\n        /* \"#utility.yul\":5172:5201   */\n      tag_132\n        /* \"#utility.yul\":5194:5200   */\n      dup2\n        /* \"#utility.yul\":5172:5201   */\n      tag_40\n      jump\t// in\n    tag_132:\n        /* \"#utility.yul\":5167:5170   */\n      dup5\n        /* \"#utility.yul\":5163:5202   */\n      add\n        /* \"#utility.yul\":5156:5202   */\n      swap2\n      pop\n        /* \"#utility.yul\":4936:5208   */\n      pop\n        /* \"#utility.yul\":4844:5208   */\n      swap3\n      swap2\n      pop\n      pop\n      jump\t// out\n        /* \"#utility.yul\":5214:5637   */\n    tag_19:\n        /* \"#utility.yul\":5355:5359   */\n      0x00\n        /* \"#utility.yul\":5393:5395   */\n      0x40\n        /* \"#utility.yul\":5382:5391   */\n      dup3\n        /* \"#utility.yul\":5378:5396   */\n      add\n        /* \"#utility.yul\":5370:5396   */\n      swap1\n      pop\n        /* \"#utility.yul\":5442:5451   */\n      dup2\n        /* \"#utility.yul\":5436:5440   */\n      dup2\n        /* \"#utility.yul\":5432:5452   */\n      sub\n        /* \"#utility.yul\":5428:5429   */\n      0x00\n        /* \"#utility.yul\":5417:5426   */\n      dup4\n        /* \"#utility.yul\":5413:5430   */\n      add\n        /* \"#utility.yul\":5406:5453   */\n      mstore\n        /* \"#utility.yul\":5470:5548   */\n      tag_134\n        /* \"#utility.yul\":5543:5547   */\n      dup2\n        /* \"#utility.yul\":5534:5540   */\n      dup6\n        /* \"#utility.yul\":5470:5548   */\n      tag_53\n      jump\t// in\n    tag_134:\n        /* \"#utility.yul\":5462:5548   */\n      swap1\n      pop\n        /* \"#utility.yul\":5558:5630   */\n      tag_135\n        /* \"#utility.yul\":5626:5628   */\n      0x20\n        /* \"#utility.yul\":5615:5624   */\n      dup4\n        /* \"#utility.yul\":5611:5629   */\n      add\n        /* \"#utility.yul\":5602:5608   */\n      dup5\n        /* \"#utility.yul\":5558:5630   */\n      tag_34\n      jump\t// in\n    tag_135:\n        /* \"#utility.yul\":5214:5637   */\n      swap4\n      swap3\n      pop\n      pop\n      pop\n      jump\t// out\n        /* \"#utility.yul\":5643:5823   */\n    tag_54:\n        /* \"#utility.yul\":5691:5768   */\n      0x4e487b7100000000000000000000000000000000000000000000000000000000\n        /* \"#utility.yul\":5688:5689   */\n      0x00\n        /* \"#utility.yul\":5681:5769   */\n      mstore\n        /* \"#utility.yul\":5788:5792   */\n      0x22\n        /* \"#utility.yul\":5785:5786   */\n      0x04\n        /* \"#utility.yul\":5778:5793   */\n      mstore\n        /* \"#utility.yul\":5812:5816   */\n      0x24\n        /* \"#utility.yul\":5809:5810   */\n      0x00\n        /* \"#utility.yul\":5802:5817   */\n      revert\n        /* \"#utility.yul\":5829:6149   */\n    tag_28:\n        /* \"#utility.yul\":5873:5879   */\n      0x00\n        /* \"#utility.yul\":5910:5911   */\n      0x02\n        /* \"#utility.yul\":5904:5908   */\n      dup3\n        /* \"#utility.yul\":5900:5912   */\n      div\n        /* \"#utility.yul\":5890:5912   */\n      swap1\n      pop\n        /* \"#utility.yul\":5957:5958   */\n      0x01\n        /* \"#utility.yul\":5951:5955   */\n      dup3\n        /* \"#utility.yul\":5947:5959   */\n      and\n        /* \"#utility.yul\":5978:5996   */\n      dup1\n        /* \"#utility.yul\":5968:6049   */\n      tag_138\n      jumpi\n        /* \"#utility.yul\":6034:6038   */\n      0x7f\n        /* \"#utility.yul\":6026:6032   */\n      dup3\n        /* \"#utility.yul\":6022:6039   */\n      and\n        /* \"#utility.yul\":6012:6039   */\n      swap2\n      pop\n        /* \"#utility.yul\":5968:6049   */\n    tag_138:\n        /* \"#utility.yul\":6096:6098   */\n      0x20\n        /* \"#utility.yul\":6088:6094   */\n      dup3\n        /* \"#utility.yul\":6085:6099   */\n      lt\n        /* \"#utility.yul\":6065:6083   */\n      dup2\n        /* \"#utility.yul\":6062:6100   */\n      sub\n        /* \"#utility.yul\":6059:6143   */\n      tag_139\n      jumpi\n        /* \"#utility.yul\":6115:6133   */\n      tag_140\n      tag_54\n      jump\t// in\n    tag_140:\n        /* \"#utility.yul\":6059:6143   */\n    tag_139:\n        /* \"#utility.yul\":5880:6149   */\n      pop\n        /* \"#utility.yul\":5829:6149   */\n      swap2\n      swap1\n      pop\n      jump\t// out\n        /* \"#utility.yul\":6155:6296   */\n    tag_55:\n        /* \"#utility.yul\":6204:6208   */\n      0x00\n        /* \"#utility.yul\":6227:6230   */\n      dup2\n        /* \"#utility.yul\":6219:6230   */\n      swap1\n      pop\n        /* \"#utility.yul\":6250:6253   */\n      dup2\n        /* \"#utility.yul\":6247:6248   */\n      0x00\n        /* \"#utility.yul\":6240:6254   */\n      mstore\n        /* \"#utility.yul\":6284:6288   */\n      0x20\n        /* \"#utility.yul\":6281:6282   */\n      0x00\n        /* \"#utility.yul\":6271:6289   */\n      keccak256\n        /* \"#utility.yul\":6263:6289   */\n      swap1\n      pop\n        /* \"#utility.yul\":6155:6296   */\n      swap2\n      swap1\n      pop\n      jump\t// out\n        /* \"#utility.yul\":6302:6395   */\n    tag_56:\n        /* \"#utility.yul\":6339:6345   */\n      0x00\n        /* \"#utility.yul\":6386:6388   */\n      0x20\n        /* \"#utility.yul\":6381:6383   */\n      0x1f\n        /* \"#utility.yul\":6374:6379   */\n      dup4\n        /* \"#utility.yul\":6370:6384   */\n      add\n        /* \"#utility.yul\":6366:6389   */\n      div\n        /* \"#utility.yul\":6356:6389   */\n      swap1\n      pop\n        /* \"#utility.yul\":6302:6395   */\n      swap2\n      swap1\n      pop\n      jump\t// out\n        /* \"#utility.yul\":6401:6508   */\n    tag_57:\n        /* \"#utility.yul\":6445:6453   */\n      0x00\n        /* \"#utility.yul\":6495:6500   */\n      dup3\n        /* \"#utility.yul\":6489:6493   */\n      dup3\n        /* \"#utility.yul\":6485:6501   */\n      shl\n        /* \"#utility.yul\":6464:6501   */\n      swap1\n      pop\n        /* \"#utility.yul\":6401:6508   */\n      swap3\n      swap2\n      pop\n      pop\n      jump\t// out\n        /* \"#utility.yul\":6514:6907   */\n    tag_58:\n        /* \"#utility.yul\":6583:6589   */\n      0x00\n        /* \"#utility.yul\":6633:6634   */\n      0x08\n        /* \"#utility.yul\":6621:6631   */\n      dup4\n        /* \"#utility.yul\":6617:6635   */\n      mul\n        /* \"#utility.yul\":6656:6753   */\n      tag_145\n        /* \"#utility.yul\":6686:6752   */\n      0xffffffffffffffffffffffffffffffffffffffffffffffffffffffffffffffff\n        /* \"#utility.yul\":6675:6684   */\n      dup3\n        /* \"#utility.yul\":6656:6753   */\n      tag_57\n      jump\t// in\n    tag_145:\n        /* \"#utility.yul\":6774:6813   */\n      tag_146\n        /* \"#utility.yul\":6804:6812   */\n      dup7\n        /* \"#utility.yul\":6793:6802   */\n      dup4\n        /* \"#utility.yul\":6774:6813   */\n      tag_57\n      jump\t// in\n    tag_146:\n        /* \"#utility.yul\":6762:6813   */\n      swap6\n      pop\n        /* \"#utility.yul\":6846:6850   */\n      dup1\n        /* \"#utility.yul\":6842:6851   */\n      not\n        /* \"#utility.yul\":6835:6840   */\n      dup5\n        /* \"#utility.yul\":6831:6852   */\n      and\n        /* \"#utility.yul\":6822:6852   */\n      swap4\n      pop\n        /* \"#utility.yul\":6895:6899   */\n      dup1\n        /* \"#utility.yul\":6885:6893   */\n      dup7\n        /* \"#utility.yul\":6881:6900   */\n      and\n        /* \"#utility.yul\":6874:6879   */\n      dup5\n        /* \"#utility.yul\":6871:6901   */\n      or\n        /* \"#utility.yul\":6861:6901   */\n      swap3\n      pop\n        /* \"#utility.yul\":6590:6907   */\n      pop\n      pop\n        /* \"#utility.yul\":6514:6907   */\n      swap4\n      swap3\n      pop\n      pop\n      pop\n      jump\t// out\n        /* \"#utility.yul\":6913:6973   */\n    tag_59:\n        /* \"#utility.yul\":6941:6944   */\n      0x00\n        /* \"#utility.yul\":6962:6967   */\n      dup2\n        /* \"#utility.yul\":6955:6967   */\n      swap1\n      pop\n        /* \"#utility.yul\":6913:6973   */\n      swap2\n      swap1\n      pop\n      jump\t// out\n        /* \"#utility.yul\":6979:7121   */\n    tag_60:\n        /* \"#utility.yul\":7029:7038   */\n      0x00\n        /* \"#utility.yul\":7062:7115   */\n      tag_149\n        /* \"#utility.yul\":7080:7114   */\n      tag_150\n        /* \"#utility.yul\":7089:7113   */\n      tag_151\n        /* \"#utility.yul\":7107:7112   */\n      dup5\n        /* \"#utility.yul\":7089:7113   */\n      tag_33\n      jump\t// in\n    tag_151:\n        /* \"#utility.yul\":7080:7114   */\n      tag_59\n      jump\t// in\n    tag_150:\n        /* \"#utility.yul\":7062:7115   */\n      tag_33\n      jump\t// in\n    tag_149:\n        /* \"#utility.yul\":7049:7115   */\n      swap1\n      pop\n        /* \"#utility.yul\":6979:7121   */\n      swap2\n      swap1\n      pop\n      jump\t// out\n        /* \"#utility.yul\":7127:7202   */\n    tag_61:\n        /* \"#utility.yul\":7170:7173   */\n      0x00\n        /* \"#utility.yul\":7191:7196   */\n      dup2\n        /* \"#utility.yul\":7184:7196   */\n      swap1\n      pop\n        /* \"#utility.yul\":7127:7202   */\n      swap2\n      swap1\n      pop\n      jump\t// out\n        /* \"#utility.yul\":7208:7477   */\n    tag_62:\n        /* \"#utility.yul\":7318:7357   */\n      tag_154\n        /* \"#utility.yul\":7349:7356   */\n      dup4\n        /* \"#utility.yul\":7318:7357   */\n      tag_60\n      jump\t// in\n    tag_154:\n        /* \"#utility.yul\":7379:7470   */\n      tag_155\n        /* \"#utility.yul\":7428:7469   */\n      tag_156\n        /* \"#utility.yul\":7452:7468   */\n      dup3\n        /* \"#utility.yul\":7428:7469   */\n      tag_61\n      jump\t// in\n    tag_156:\n        /* \"#utility.yul\":7420:7426   */\n      dup5\n        /* \"#utility.yul\":7413:7417   */\n      dup5\n        /* \"#utility.yul\":7407:7418   */\n      sload\n        /* \"#utility.yul\":7379:7470   */\n      tag_58\n      jump\t// in\n    tag_155:\n        /* \"#utility.yul\":7373:7377   */\n      dup3\n        /* \"#utility.yul\":7366:7471   */\n      sstore\n        /* \"#utility.yul\":7284:7477   */\n      pop\n        /* \"#utility.yul\":7208:7477   */\n      pop\n      pop\n      pop\n      jump\t// out\n        /* \"#utility.yul\":7483:7556   */\n    tag_63:\n        /* \"#utility.yul\":7528:7531   */\n      0x00\n        /* \"#utility.yul\":7483:7556   */\n      swap1\n      jump\t// out\n        /* \"#utility.yul\":7562:7751   */\n    tag_64:\n        /* \"#utility.yul\":7639:7671   */\n      tag_159\n      tag_63\n      jump\t// in\n    tag_159:\n        /* \"#utility.yul\":7680:7745   */\n      tag_160\n        /* \"#utility.yul\":7738:7744   */\n      dup2\n        /* \"#utility.yul\":7730:7736   */\n      dup5\n        /* \"#utility.yul\":7724:7728   */\n      dup5\n        /* \"#utility.yul\":7680:7745   */\n      tag_62\n      jump\t// in\n    tag_160:\n        /* \"#utility.yul\":7615:7751   */\n      pop\n        /* \"#utility.yul\":7562:7751   */\n      pop\n      pop\n      jump\t// out\n        /* \"#utility.yul\":7757:7943   */\n    tag_65:\n        /* \"#utility.yul\":7817:7937   */\n    tag_162:\n        /* \"#utility.yul\":7834:7837   */\n      dup2\n        /* \"#utility.yul\":7827:7832   */\n      dup2\n        /* \"#utility.yul\":7824:7838   */\n      lt\n        /* \"#utility.yul\":7817:7937   */\n      iszero\n      tag_164\n      jumpi\n        /* \"#utility.yul\":7888:7927   */\n      tag_165\n        /* \"#utility.yul\":7925:7926   */\n      0x00\n        /* \"#utility.yul\":7918:7923   */\n      dup3\n        /* \"#utility.yul\":7888:7927   */\n      tag_64\n      jump\t// in\n    tag_165:\n        /* \"#utility.yul\":7861:7862   */\n      0x01\n        /* \"#utility.yul\":7854:7859   */\n      dup2\n        /* \"#utility.yul\":7850:7863   */\n      add\n        /* \"#utility.yul\":7841:7863   */\n      swap1\n      pop\n        /* \"#utility.yul\":7817:7937   */\n      jump(tag_162)\n    tag_164:\n        /* \"#utility.yul\":7757:7943   */\n      pop\n      pop\n      jump\t// out\n        /* \"#utility.yul\":7949:8492   */\n    tag_66:\n        /* \"#utility.yul\":8050:8052   */\n      0x1f\n        /* \"#utility.yul\":8045:8048   */\n      dup3\n        /* \"#utility.yul\":8042:8053   */\n      gt\n        /* \"#utility.yul\":8039:8485   */\n      iszero\n      tag_167\n      jumpi\n        /* \"#utility.yul\":8084:8122   */\n      tag_168\n        /* \"#utility.yul\":8116:8121   */\n      dup2\n        /* \"#utility.yul\":8084:8122   */\n      tag_55\n      jump\t// in\n    tag_168:\n        /* \"#utility.yul\":8168:8197   */\n      tag_169\n        /* \"#utility.yul\":8186:8196   */\n      dup5\n        /* \"#utility.yul\":8168:8197   */\n      tag_56\n      jump\t// in\n    tag_169:\n        /* \"#utility.yul\":8158:8166   */\n      dup2\n        /* \"#utility.yul\":8154:8198   */\n      add\n        /* \"#utility.yul\":8351:8353   */\n      0x20\n        /* \"#utility.yul\":8339:8349   */\n      dup6\n        /* \"#utility.yul\":8336:8354   */\n      lt\n        /* \"#utility.yul\":8333:8382   */\n      iszero\n      tag_170\n      jumpi\n        /* \"#utility.yul\":8372:8380   */\n      dup2\n        /* \"#utility.yul\":8357:8380   */\n      swap1\n      pop\n        /* \"#utility.yul\":8333:8382   */\n    tag_170:\n        /* \"#utility.yul\":8395:8475   */\n      tag_171\n        /* \"#utility.yul\":8451:8473   */\n      tag_172\n        /* \"#utility.yul\":8469:8472   */\n      dup6\n        /* \"#utility.yul\":8451:8473   */\n      tag_56\n      jump\t// in\n    tag_172:\n        /* \"#utility.yul\":8441:8449   */\n      dup4\n        /* \"#utility.yul\":8437:8474   */\n      add\n        /* \"#utility.yul\":8424:8435   */\n      dup3\n        /* \"#utility.yul\":8395:8475   */\n      tag_65\n      jump\t// in\n    tag_171:\n        /* \"#utility.yul\":8054:8485   */\n      pop\n      pop\n        /* \"#utility.yul\":8039:8485   */\n    tag_167:\n        /* \"#utility.yul\":7949:8492   */\n      pop\n      pop\n      pop\n      jump\t// out\n        /* \"#utility.yul\":8498:8615   */\n    tag_67:\n        /* \"#utility.yul\":8552:8560   */\n      0x00\n        /* \"#utility.yul\":8602:8607   */\n      dup3\n        /* \"#utility.yul\":8596:8600   */\n      dup3\n        /* \"#utility.yul\":8592:8608   */\n      shr\n        /* \"#utility.yul\":8571:8608   */\n      swap1\n      pop\n        /* \"#utility.yul\":8498:8615   */\n      swap3\n      swap2\n      pop\n      pop\n      jump\t// out\n        /* \"#utility.yul\":8621:8790   */\n    tag_68:\n        /* \"#utility.yul\":8665:8671   */\n      0x00\n        /* \"#utility.yul\":8698:8749   */\n      tag_175\n        /* \"#utility.yul\":8746:8747   */\n      0x00\n        /* \"#utility.yul\":8742:8748   */\n      not\n        /* \"#utility.yul\":8734:8739   */\n      dup5\n        /* \"#utility.yul\":8731:8732   */\n      0x08\n        /* \"#utility.yul\":8727:8740   */\n      mul\n        /* \"#utility.yul\":8698:8749   */\n      tag_67\n      jump\t// in\n    tag_175:\n        /* \"#utility.yul\":8694:8750   */\n      not\n        /* \"#utility.yul\":8779:8783   */\n      dup1\n        /* \"#utility.yul\":8773:8777   */\n      dup4\n        /* \"#utility.yul\":8769:8784   */\n      and\n        /* \"#utility.yul\":8759:8784   */\n      swap2\n      pop\n        /* \"#utility.yul\":8672:8790   */\n      pop\n        /* \"#utility.yul\":8621:8790   */\n      swap3\n      swap2\n      pop\n      pop\n      jump\t// out\n        /* \"#utility.yul\":8795:9090   */\n    tag_69:\n        /* \"#utility.yul\":8871:8875   */\n      0x00\n        /* \"#utility.yul\":9017:9046   */\n      tag_177\n        /* \"#utility.yul\":9042:9045   */\n      dup4\n        /* \"#utility.yul\":9036:9040   */\n      dup4\n        /* \"#utility.yul\":9017:9046   */\n      tag_68\n      jump\t// in\n    tag_177:\n        /* \"#utility.yul\":9009:9046   */\n      swap2\n      pop\n        /* \"#utility.yul\":9079:9082   */\n      dup3\n        /* \"#utility.yul\":9076:9077   */\n      0x02\n        /* \"#utility.yul\":9072:9083   */\n      mul\n        /* \"#utility.yul\":9066:9070   */\n      dup3\n        /* \"#utility.yul\":9063:9084   */\n      or\n        /* \"#utility.yul\":9055:9084   */\n      swap1\n      pop\n        /* \"#utility.yul\":8795:9090   */\n      swap3\n      swap2\n      pop\n      pop\n      jump\t// out\n        /* \"#utility.yul\":9095:10490   */\n    tag_24:\n        /* \"#utility.yul\":9212:9249   */\n      tag_179\n        /* \"#utility.yul\":9245:9248   */\n      dup3\n        /* \"#utility.yul\":9212:9249   */\n      tag_50\n      jump\t// in\n    tag_179:\n        /* \"#utility.yul\":9314:9332   */\n      0xffffffffffffffff\n        /* \"#utility.yul\":9306:9312   */\n      dup2\n        /* \"#utility.yul\":9303:9333   */\n      gt\n        /* \"#utility.yul\":9300:9356   */\n      iszero\n      tag_180\n      jumpi\n        /* \"#utility.yul\":9336:9354   */\n      tag_181\n      tag_41\n      jump\t// in\n    tag_181:\n        /* \"#utility.yul\":9300:9356   */\n    tag_180:\n        /* \"#utility.yul\":9380:9418   */\n      tag_182\n        /* \"#utility.yul\":9412:9416   */\n      dup3\n        /* \"#utility.yul\":9406:9417   */\n      sload\n        /* \"#utility.yul\":9380:9418   */\n      tag_28\n      jump\t// in\n    tag_182:\n        /* \"#utility.yul\":9465:9532   */\n      tag_183\n        /* \"#utility.yul\":9525:9531   */\n      dup3\n        /* \"#utility.yul\":9517:9523   */\n      dup3\n        /* \"#utility.yul\":9511:9515   */\n      dup6\n        /* \"#utility.yul\":9465:9532   */\n      tag_66\n      jump\t// in\n    tag_183:\n        /* \"#utility.yul\":9559:9560   */\n      0x00\n        /* \"#utility.yul\":9583:9587   */\n      0x20\n        /* \"#utility.yul\":9570:9587   */\n      swap1\n      pop\n        /* \"#utility.yul\":9615:9617   */\n      0x1f\n        /* \"#utility.yul\":9607:9613   */\n      dup4\n        /* \"#utility.yul\":9604:9618   */\n      gt\n        /* \"#utility.yul\":9632:9633   */\n      0x01\n        /* \"#utility.yul\":9627:10245   */\n      dup2\n      eq\n      tag_185\n      jumpi\n        /* \"#utility.yul\":10289:10290   */\n      0x00\n        /* \"#utility.yul\":10306:10312   */\n      dup5\n        /* \"#utility.yul\":10303:10380   */\n      iszero\n      tag_186\n      jumpi\n        /* \"#utility.yul\":10355:10364   */\n      dup3\n        /* \"#utility.yul\":10350:10353   */\n      dup8\n        /* \"#utility.yul\":10346:10365   */\n      add\n        /* \"#utility.yul\":10340:10366   */\n      mload\n        /* \"#utility.yul\":10331:10366   */\n      swap1\n      pop\n        /* \"#utility.yul\":10303:10380   */\n    tag_186:\n        /* \"#utility.yul\":10406:10473   */\n      tag_187\n        /* \"#utility.yul\":10466:10472   */\n      dup6\n        /* \"#utility.yul\":10459:10464   */\n      dup3\n        /* \"#utility.yul\":10406:10473   */\n      tag_69\n      jump\t// in\n    tag_187:\n        /* \"#utility.yul\":10400:10404   */\n      dup7\n        /* \"#utility.yul\":10393:10474   */\n      sstore\n        /* \"#utility.yul\":10262:10484   */\n      pop\n        /* \"#utility.yul\":9597:10484   */\n      jump(tag_184)\n        /* \"#utility.yul\":9627:10245   */\n    tag_185:\n        /* \"#utility.yul\":9679:9683   */\n      0x1f\n        /* \"#utility.yul\":9675:9684   */\n      not\n        /* \"#utility.yul\":9667:9673   */\n      dup5\n        /* \"#utility.yul\":9663:9685   */\n      and\n        /* \"#utility.yul\":9713:9750   */\n      tag_188\n        /* \"#utility.yul\":9745:9749   */\n      dup7\n        /* \"#utility.yul\":9713:9750   */\n      tag_55\n      jump\t// in\n    tag_188:\n        /* \"#utility.yul\":9772:9773   */\n      0x00\n        /* \"#utility.yul\":9786:9994   */\n    tag_189:\n        /* \"#utility.yul\":9800:9807   */\n      dup3\n        /* \"#utility.yul\":9797:9798   */\n      dup2\n        /* \"#utility.yul\":9794:9808   */\n      lt\n        /* \"#utility.yul\":9786:9994   */\n      iszero\n      tag_191\n      jumpi\n        /* \"#utility.yul\":9879:9888   */\n      dup5\n        /* \"#utility.yul\":9874:9877   */\n      dup10\n        /* \"#utility.yul\":9870:9889   */\n      add\n        /* \"#utility.yul\":9864:9890   */\n      mload\n        /* \"#utility.yul\":9856:9862   */\n      dup3\n        /* \"#utility.yul\":9849:9891   */\n      sstore\n        /* \"#utility.yul\":9930:9931   */\n      0x01\n        /* \"#utility.yul\":9922:9928   */\n      dup3\n        /* \"#utility.yul\":9918:9932   */\n      add\n        /* \"#utility.yul\":9908:9932   */\n      swap2\n      pop\n        /* \"#utility.yul\":9977:9979   */\n      0x20\n        /* \"#utility.yul\":9966:9975   */\n      dup6\n        /* \"#utility.yul\":9962:9980   */\n      add\n        /* \"#utility.yul\":9949:9980   */\n      swap5\n      pop\n        /* \"#utility.yul\":9823:9827   */\n      0x20\n        /* \"#utility.yul\":9820:9821   */\n      dup2\n        /* \"#utility.yul\":9816:9828   */\n      add\n        /* \"#utility.yul\":9811:9828   */\n      swap1\n      pop\n        /* \"#utility.yul\":9786:9994   */\n      jump(tag_189)\n    tag_191:\n        /* \"#utility.yul\":10022:10028   */\n      dup7\n        /* \"#utility.yul\":10013:10020   */\n      dup4\n        /* \"#utility.yul\":10010:10029   */\n      lt\n        /* \"#utility.yul\":10007:10186   */\n      iszero\n      tag_192\n      jumpi\n        /* \"#utility.yul\":10080:10089   */\n      dup5\n        /* \"#utility.yul\":10075:10078   */\n      dup10\n        /* \"#utility.yul\":10071:10090   */\n      add\n        /* \"#utility.yul\":10065:10091   */\n      mload\n        /* \"#utility.yul\":10123:10171   */\n      tag_193\n        /* \"#utility.yul\":10165:10169   */\n      0x1f\n        /* \"#utility.yul\":10157:10163   */\n      dup10\n        /* \"#utility.yul\":10153:10170   */\n      and\n        /* \"#utility.yul\":10142:10151   */\n      dup3\n        /* \"#utility.yul\":10123:10171   */\n      tag_68\n      jump\t// in\n    tag_193:\n        /* \"#utility.yul\":10115:10121   */\n      dup4\n        /* \"#utility.yul\":10108:10172   */\n      sstore\n        /* \"#utility.yul\":10030:10186   */\n      pop\n        /* \"#utility.yul\":10007:10186   */\n    tag_192:\n        /* \"#utility.yul\":10232:10233   */\n      0x01\n        /* \"#utility.yul\":10228:10229   */\n      0x02\n        /* \"#utility.yul\":10220:10226   */\n      dup9\n        /* \"#utility.yul\":10216:10230   */\n      mul\n        /* \"#utility.yul\":10212:10234   */\n      add\n        /* \"#utility.yul\":10206:10210   */\n      dup9\n        /* \"#utility.yul\":10199:10235   */\n      sstore\n        /* \"#utility.yul\":9634:10245   */\n      pop\n      pop\n      pop\n        /* \"#utility.yul\":9597:10484   */\n    tag_184:\n      pop\n        /* \"#utility.yul\":9187:10490   */\n      pop\n      pop\n      pop\n        /* \"#utility.yul\":9095:10490   */\n      pop\n      pop\n      jump\t// out\n\n    auxdata: 0xa264697066735822122033806f5cccd7d6cb59088441a806e838d4b29fa4cc2facd9343c1a8fec698dfe64736f6c634300080f0033\n}\n",
				"bytecode": {
					"linkReferences": {},
					"object": "608060405234801561001057600080fd5b506107eb806100206000396000f3fe608060405234801561001057600080fd5b50600436106100415760003560e01c80632e64cec1146100465780636f760f41146100645780639e7a13ad14610080575b600080fd5b61004e6100b1565b60405161005b91906101f5565b60405180910390f35b61007e60048036038101906100799190610396565b6100ba565b005b61009a600480360381019061009591906103f2565b610120565b6040516100a89291906104a7565b60405180910390f35b60008054905090565b60016040518060400160405280848152602001838152509080600181540180825580915050600190039060005260206000209060020201600090919091909150600082015181600001908161010f91906106e3565b506020820151816001015550505050565b6001818154811061013057600080fd5b906000526020600020906002020160009150905080600001805461015390610506565b80601f016020809104026020016040519081016040528092919081815260200182805461017f90610506565b80156101cc5780601f106101a1576101008083540402835291602001916101cc565b820191906000526020600020905b8154815290600101906020018083116101af57829003601f168201915b5050505050908060010154905082565b6000819050919050565b6101ef816101dc565b82525050565b600060208201905061020a60008301846101e6565b92915050565b6000604051905090565b600080fd5b600080fd5b600080fd5b600080fd5b6000601f19601f8301169050919050565b7f4e487b7100000000000000000000000000000000000000000000000000000000600052604160045260246000fd5b6102778261022e565b810181811067ffffffffffffffff821117156102965761029561023f565b5b80604052505050565b60006102a9610210565b90506102b5828261026e565b919050565b600067ffffffffffffffff8211156102d5576102d461023f565b5b6102de8261022e565b9050602081019050919050565b82818337600083830152505050565b600061030d610308846102ba565b61029f565b90508281526020810184848401111561032957610328610229565b5b6103348482856102eb565b509392505050565b600082601f83011261035157610350610224565b5b81356103618482602086016102fa565b91505092915050565b610373816101dc565b811461037e57600080fd5b50565b6000813590506103908161036a565b92915050565b600080604083850312156103ad576103ac61021a565b5b600083013567ffffffffffffffff8111156103cb576103ca61021f565b5b6103d78582860161033c565b92505060206103e885828601610381565b9150509250929050565b6000602082840312156104085761040761021a565b5b600061041684828501610381565b91505092915050565b600081519050919050565b600082825260208201905092915050565b60005b8381101561045957808201518184015260208101905061043e565b83811115610468576000848401525b50505050565b60006104798261041f565b610483818561042a565b935061049381856020860161043b565b61049c8161022e565b840191505092915050565b600060408201905081810360008301526104c1818561046e565b90506104d060208301846101e6565b9392505050565b7f4e487b7100000000000000000000000000000000000000000000000000000000600052602260045260246000fd5b6000600282049050600182168061051e57607f821691505b602082108103610531576105306104d7565b5b50919050565b60008190508160005260206000209050919050565b60006020601f8301049050919050565b600082821b905092915050565b6000600883026105997fffffffffffffffffffffffffffffffffffffffffffffffffffffffffffffffff8261055c565b6105a3868361055c565b95508019841693508086168417925050509392505050565b6000819050919050565b60006105e06105db6105d6846101dc565b6105bb565b6101dc565b9050919050565b6000819050919050565b6105fa836105c5565b61060e610606826105e7565b848454610569565b825550505050565b600090565b610623610616565b61062e8184846105f1565b505050565b5b818110156106525761064760008261061b565b600181019050610634565b5050565b601f8211156106975761066881610537565b6106718461054c565b81016020851015610680578190505b61069461068c8561054c565b830182610633565b50505b505050565b600082821c905092915050565b60006106ba6000198460080261069c565b1980831691505092915050565b60006106d383836106a9565b9150826002028217905092915050565b6106ec8261041f565b67ffffffffffffffff8111156107055761070461023f565b5b61070f8254610506565b61071a828285610656565b600060209050601f83116001811461074d576000841561073b578287015190505b61074585826106c7565b8655506107ad565b601f19841661075b86610537565b60005b828110156107835784890151825560018201915060208501945060208101905061075e565b868310156107a0578489015161079c601f8916826106a9565b8355505b6001600288020188555050505b50505050505056fea264697066735822122033806f5cccd7d6cb59088441a806e838d4b29fa4cc2facd9343c1a8fec698dfe64736f6c634300080f0033",
					"opcodes": "PUSH1 0x80 PUSH1 0x40 MSTORE CALLVALUE DUP1 ISZERO PUSH2 0x10 JUMPI PUSH1 0x0 DUP1 REVERT JUMPDEST POP PUSH2 0x7EB DUP1 PUSH2 0x20 PUSH1 0x0 CODECOPY PUSH1 0x0 RETURN INVALID PUSH1 0x80 PUSH1 0x40 MSTORE CALLVALUE DUP1 ISZERO PUSH2 0x10 JUMPI PUSH1 0x0 DUP1 REVERT JUMPDEST POP PUSH1 0x4 CALLDATASIZE LT PUSH2 0x41 JUMPI PUSH1 0x0 CALLDATALOAD PUSH1 0xE0 SHR DUP1 PUSH4 0x2E64CEC1 EQ PUSH2 0x46 JUMPI DUP1 PUSH4 0x6F760F41 EQ PUSH2 0x64 JUMPI DUP1 PUSH4 0x9E7A13AD EQ PUSH2 0x80 JUMPI JUMPDEST PUSH1 0x0 DUP1 REVERT JUMPDEST PUSH2 0x4E PUSH2 0xB1 JUMP JUMPDEST PUSH1 0x40 MLOAD PUSH2 0x5B SWAP2 SWAP1 PUSH2 0x1F5 JUMP JUMPDEST PUSH1 0x40 MLOAD DUP1 SWAP2 SUB SWAP1 RETURN JUMPDEST PUSH2 0x7E PUSH1 0x4 DUP1 CALLDATASIZE SUB DUP2 ADD SWAP1 PUSH2 0x79 SWAP2 SWAP1 PUSH2 0x396 JUMP JUMPDEST PUSH2 0xBA JUMP JUMPDEST STOP JUMPDEST PUSH2 0x9A PUSH1 0x4 DUP1 CALLDATASIZE SUB DUP2 ADD SWAP1 PUSH2 0x95 SWAP2 SWAP1 PUSH2 0x3F2 JUMP JUMPDEST PUSH2 0x120 JUMP JUMPDEST PUSH1 0x40 MLOAD PUSH2 0xA8 SWAP3 SWAP2 SWAP1 PUSH2 0x4A7 JUMP JUMPDEST PUSH1 0x40 MLOAD DUP1 SWAP2 SUB SWAP1 RETURN JUMPDEST PUSH1 0x0 DUP1 SLOAD SWAP1 POP SWAP1 JUMP JUMPDEST PUSH1 0x1 PUSH1 0x40 MLOAD DUP1 PUSH1 0x40 ADD PUSH1 0x40 MSTORE DUP1 DUP5 DUP2 MSTORE PUSH1 0x20 ADD DUP4 DUP2 MSTORE POP SWAP1 DUP1 PUSH1 0x1 DUP2 SLOAD ADD DUP1 DUP3 SSTORE DUP1 SWAP2 POP POP PUSH1 0x1 SWAP1 SUB SWAP1 PUSH1 0x0 MSTORE PUSH1 0x20 PUSH1 0x0 KECCAK256 SWAP1 PUSH1 0x2 MUL ADD PUSH1 0x0 SWAP1 SWAP2 SWAP1 SWAP2 SWAP1 SWAP2 POP PUSH1 0x0 DUP3 ADD MLOAD DUP2 PUSH1 0x0 ADD SWAP1 DUP2 PUSH2 0x10F SWAP2 SWAP1 PUSH2 0x6E3 JUMP JUMPDEST POP PUSH1 0x20 DUP3 ADD MLOAD DUP2 PUSH1 0x1 ADD SSTORE POP POP POP POP JUMP JUMPDEST PUSH1 0x1 DUP2 DUP2 SLOAD DUP2 LT PUSH2 0x130 JUMPI PUSH1 0x0 DUP1 REVERT JUMPDEST SWAP1 PUSH1 0x0 MSTORE PUSH1 0x20 PUSH1 0x0 KECCAK256 SWAP1 PUSH1 0x2 MUL ADD PUSH1 0x0 SWAP2 POP SWAP1 POP DUP1 PUSH1 0x0 ADD DUP1 SLOAD PUSH2 0x153 SWAP1 PUSH2 0x506 JUMP JUMPDEST DUP1 PUSH1 0x1F ADD PUSH1 0x20 DUP1 SWAP2 DIV MUL PUSH1 0x20 ADD PUSH1 0x40 MLOAD SWAP1 DUP2 ADD PUSH1 0x40 MSTORE DUP1 SWAP3 SWAP2 SWAP1 DUP2 DUP2 MSTORE PUSH1 0x20 ADD DUP3 DUP1 SLOAD PUSH2 0x17F SWAP1 PUSH2 0x506 JUMP JUMPDEST DUP1 ISZERO PUSH2 0x1CC JUMPI DUP1 PUSH1 0x1F LT PUSH2 0x1A1 JUMPI PUSH2 0x100 DUP1 DUP4 SLOAD DIV MUL DUP4 MSTORE SWAP2 PUSH1 0x20 ADD SWAP2 PUSH2 0x1CC JUMP JUMPDEST DUP3 ADD SWAP2 SWAP1 PUSH1 0x0 MSTORE PUSH1 0x20 PUSH1 0x0 KECCAK256 SWAP1 JUMPDEST DUP2 SLOAD DUP2 MSTORE SWAP1 PUSH1 0x1 ADD SWAP1 PUSH1 0x20 ADD DUP1 DUP4 GT PUSH2 0x1AF JUMPI DUP3 SWAP1 SUB PUSH1 0x1F AND DUP3 ADD SWAP2 JUMPDEST POP POP POP POP POP SWAP1 DUP1 PUSH1 0x1 ADD SLOAD SWAP1 POP DUP3 JUMP JUMPDEST PUSH1 0x0 DUP2 SWAP1 POP SWAP2 SWAP1 POP JUMP JUMPDEST PUSH2 0x1EF DUP2 PUSH2 0x1DC JUMP JUMPDEST DUP3 MSTORE POP POP JUMP JUMPDEST PUSH1 0x0 PUSH1 0x20 DUP3 ADD SWAP1 POP PUSH2 0x20A PUSH1 0x0 DUP4 ADD DUP5 PUSH2 0x1E6 JUMP JUMPDEST SWAP3 SWAP2 POP POP JUMP JUMPDEST PUSH1 0x0 PUSH1 0x40 MLOAD SWAP1 POP SWAP1 JUMP JUMPDEST PUSH1 0x0 DUP1 REVERT JUMPDEST PUSH1 0x0 DUP1 REVERT JUMPDEST PUSH1 0x0 DUP1 REVERT JUMPDEST PUSH1 0x0 DUP1 REVERT JUMPDEST PUSH1 0x0 PUSH1 0x1F NOT PUSH1 0x1F DUP4 ADD AND SWAP1 POP SWAP2 SWAP1 POP JUMP JUMPDEST PUSH32 0x4E487B7100000000000000000000000000000000000000000000000000000000 PUSH1 0x0 MSTORE PUSH1 0x41 PUSH1 0x4 MSTORE PUSH1 0x24 PUSH1 0x0 REVERT JUMPDEST PUSH2 0x277 DUP3 PUSH2 0x22E JUMP JUMPDEST DUP2 ADD DUP2 DUP2 LT PUSH8 0xFFFFFFFFFFFFFFFF DUP3 GT OR ISZERO PUSH2 0x296 JUMPI PUSH2 0x295 PUSH2 0x23F JUMP JUMPDEST JUMPDEST DUP1 PUSH1 0x40 MSTORE POP POP POP JUMP JUMPDEST PUSH1 0x0 PUSH2 0x2A9 PUSH2 0x210 JUMP JUMPDEST SWAP1 POP PUSH2 0x2B5 DUP3 DUP3 PUSH2 0x26E JUMP JUMPDEST SWAP2 SWAP1 POP JUMP JUMPDEST PUSH1 0x0 PUSH8 0xFFFFFFFFFFFFFFFF DUP3 GT ISZERO PUSH2 0x2D5 JUMPI PUSH2 0x2D4 PUSH2 0x23F JUMP JUMPDEST JUMPDEST PUSH2 0x2DE DUP3 PUSH2 0x22E JUMP JUMPDEST SWAP1 POP PUSH1 0x20 DUP2 ADD SWAP1 POP SWAP2 SWAP1 POP JUMP JUMPDEST DUP3 DUP2 DUP4 CALLDATACOPY PUSH1 0x0 DUP4 DUP4 ADD MSTORE POP POP POP JUMP JUMPDEST PUSH1 0x0 PUSH2 0x30D PUSH2 0x308 DUP5 PUSH2 0x2BA JUMP JUMPDEST PUSH2 0x29F JUMP JUMPDEST SWAP1 POP DUP3 DUP2 MSTORE PUSH1 0x20 DUP2 ADD DUP5 DUP5 DUP5 ADD GT ISZERO PUSH2 0x329 JUMPI PUSH2 0x328 PUSH2 0x229 JUMP JUMPDEST JUMPDEST PUSH2 0x334 DUP5 DUP3 DUP6 PUSH2 0x2EB JUMP JUMPDEST POP SWAP4 SWAP3 POP POP POP JUMP JUMPDEST PUSH1 0x0 DUP3 PUSH1 0x1F DUP4 ADD SLT PUSH2 0x351 JUMPI PUSH2 0x350 PUSH2 0x224 JUMP JUMPDEST JUMPDEST DUP2 CALLDATALOAD PUSH2 0x361 DUP5 DUP3 PUSH1 0x20 DUP7 ADD PUSH2 0x2FA JUMP JUMPDEST SWAP2 POP POP SWAP3 SWAP2 POP POP JUMP JUMPDEST PUSH2 0x373 DUP2 PUSH2 0x1DC JUMP JUMPDEST DUP2 EQ PUSH2 0x37E JUMPI PUSH1 0x0 DUP1 REVERT JUMPDEST POP JUMP JUMPDEST PUSH1 0x0 DUP2 CALLDATALOAD SWAP1 POP PUSH2 0x390 DUP2 PUSH2 0x36A JUMP JUMPDEST SWAP3 SWAP2 POP POP JUMP JUMPDEST PUSH1 0x0 DUP1 PUSH1 0x40 DUP4 DUP6 SUB SLT ISZERO PUSH2 0x3AD JUMPI PUSH2 0x3AC PUSH2 0x21A JUMP JUMPDEST JUMPDEST PUSH1 0x0 DUP4 ADD CALLDATALOAD PUSH8 0xFFFFFFFFFFFFFFFF DUP2 GT ISZERO PUSH2 0x3CB JUMPI PUSH2 0x3CA PUSH2 0x21F JUMP JUMPDEST JUMPDEST PUSH2 0x3D7 DUP6 DUP3 DUP7 ADD PUSH2 0x33C JUMP JUMPDEST SWAP3 POP POP PUSH1 0x20 PUSH2 0x3E8 DUP6 DUP3 DUP7 ADD PUSH2 0x381 JUMP JUMPDEST SWAP2 POP POP SWAP3 POP SWAP3 SWAP1 POP JUMP JUMPDEST PUSH1 0x0 PUSH1 0x20 DUP3 DUP5 SUB SLT ISZERO PUSH2 0x408 JUMPI PUSH2 0x407 PUSH2 0x21A JUMP JUMPDEST JUMPDEST PUSH1 0x0 PUSH2 0x416 DUP5 DUP3 DUP6 ADD PUSH2 0x381 JUMP JUMPDEST SWAP2 POP POP SWAP3 SWAP2 POP POP JUMP JUMPDEST PUSH1 0x0 DUP2 MLOAD SWAP1 POP SWAP2 SWAP1 POP JUMP JUMPDEST PUSH1 0x0 DUP3 DUP3 MSTORE PUSH1 0x20 DUP3 ADD SWAP1 POP SWAP3 SWAP2 POP POP JUMP JUMPDEST PUSH1 0x0 JUMPDEST DUP4 DUP2 LT ISZERO PUSH2 0x459 JUMPI DUP1 DUP3 ADD MLOAD DUP2 DUP5 ADD MSTORE PUSH1 0x20 DUP2 ADD SWAP1 POP PUSH2 0x43E JUMP JUMPDEST DUP4 DUP2 GT ISZERO PUSH2 0x468 JUMPI PUSH1 0x0 DUP5 DUP5 ADD MSTORE JUMPDEST POP POP POP POP JUMP JUMPDEST PUSH1 0x0 PUSH2 0x479 DUP3 PUSH2 0x41F JUMP JUMPDEST PUSH2 0x483 DUP2 DUP6 PUSH2 0x42A JUMP JUMPDEST SWAP4 POP PUSH2 0x493 DUP2 DUP6 PUSH1 0x20 DUP7 ADD PUSH2 0x43B JUMP JUMPDEST PUSH2 0x49C DUP2 PUSH2 0x22E JUMP JUMPDEST DUP5 ADD SWAP2 POP POP SWAP3 SWAP2 POP POP JUMP JUMPDEST PUSH1 0x0 PUSH1 0x40 DUP3 ADD SWAP1 POP DUP2 DUP2 SUB PUSH1 0x0 DUP4 ADD MSTORE PUSH2 0x4C1 DUP2 DUP6 PUSH2 0x46E JUMP JUMPDEST SWAP1 POP PUSH2 0x4D0 PUSH1 0x20 DUP4 ADD DUP5 PUSH2 0x1E6 JUMP JUMPDEST SWAP4 SWAP3 POP POP POP JUMP JUMPDEST PUSH32 0x4E487B7100000000000000000000000000000000000000000000000000000000 PUSH1 0x0 MSTORE PUSH1 0x22 PUSH1 0x4 MSTORE PUSH1 0x24 PUSH1 0x0 REVERT JUMPDEST PUSH1 0x0 PUSH1 0x2 DUP3 DIV SWAP1 POP PUSH1 0x1 DUP3 AND DUP1 PUSH2 0x51E JUMPI PUSH1 0x7F DUP3 AND SWAP2 POP JUMPDEST PUSH1 0x20 DUP3 LT DUP2 SUB PUSH2 0x531 JUMPI PUSH2 0x530 PUSH2 0x4D7 JUMP JUMPDEST JUMPDEST POP SWAP2 SWAP1 POP JUMP JUMPDEST PUSH1 0x0 DUP2 SWAP1 POP DUP2 PUSH1 0x0 MSTORE PUSH1 0x20 PUSH1 0x0 KECCAK256 SWAP1 POP SWAP2 SWAP1 POP JUMP JUMPDEST PUSH1 0x0 PUSH1 0x20 PUSH1 0x1F DUP4 ADD DIV SWAP1 POP SWAP2 SWAP1 POP JUMP JUMPDEST PUSH1 0x0 DUP3 DUP3 SHL SWAP1 POP SWAP3 SWAP2 POP POP JUMP JUMPDEST PUSH1 0x0 PUSH1 0x8 DUP4 MUL PUSH2 0x599 PUSH32 0xFFFFFFFFFFFFFFFFFFFFFFFFFFFFFFFFFFFFFFFFFFFFFFFFFFFFFFFFFFFFFFFF DUP3 PUSH2 0x55C JUMP JUMPDEST PUSH2 0x5A3 DUP7 DUP4 PUSH2 0x55C JUMP JUMPDEST SWAP6 POP DUP1 NOT DUP5 AND SWAP4 POP DUP1 DUP7 AND DUP5 OR SWAP3 POP POP POP SWAP4 SWAP3 POP POP POP JUMP JUMPDEST PUSH1 0x0 DUP2 SWAP1 POP SWAP2 SWAP1 POP JUMP JUMPDEST PUSH1 0x0 PUSH2 0x5E0 PUSH2 0x5DB PUSH2 0x5D6 DUP5 PUSH2 0x1DC JUMP JUMPDEST PUSH2 0x5BB JUMP JUMPDEST PUSH2 0x1DC JUMP JUMPDEST SWAP1 POP SWAP2 SWAP1 POP JUMP JUMPDEST PUSH1 0x0 DUP2 SWAP1 POP SWAP2 SWAP1 POP JUMP JUMPDEST PUSH2 0x5FA DUP4 PUSH2 0x5C5 JUMP JUMPDEST PUSH2 0x60E PUSH2 0x606 DUP3 PUSH2 0x5E7 JUMP JUMPDEST DUP5 DUP5 SLOAD PUSH2 0x569 JUMP JUMPDEST DUP3 SSTORE POP POP POP POP JUMP JUMPDEST PUSH1 0x0 SWAP1 JUMP JUMPDEST PUSH2 0x623 PUSH2 0x616 JUMP JUMPDEST PUSH2 0x62E DUP2 DUP5 DUP5 PUSH2 0x5F1 JUMP JUMPDEST POP POP POP JUMP JUMPDEST JUMPDEST DUP2 DUP2 LT ISZERO PUSH2 0x652 JUMPI PUSH2 0x647 PUSH1 0x0 DUP3 PUSH2 0x61B JUMP JUMPDEST PUSH1 0x1 DUP2 ADD SWAP1 POP PUSH2 0x634 JUMP JUMPDEST POP POP JUMP JUMPDEST PUSH1 0x1F DUP3 GT ISZERO PUSH2 0x697 JUMPI PUSH2 0x668 DUP2 PUSH2 0x537 JUMP JUMPDEST PUSH2 0x671 DUP5 PUSH2 0x54C JUMP JUMPDEST DUP2 ADD PUSH1 0x20 DUP6 LT ISZERO PUSH2 0x680 JUMPI DUP2 SWAP1 POP JUMPDEST PUSH2 0x694 PUSH2 0x68C DUP6 PUSH2 0x54C JUMP JUMPDEST DUP4 ADD DUP3 PUSH2 0x633 JUMP JUMPDEST POP POP JUMPDEST POP POP POP JUMP JUMPDEST PUSH1 0x0 DUP3 DUP3 SHR SWAP1 POP SWAP3 SWAP2 POP POP JUMP JUMPDEST PUSH1 0x0 PUSH2 0x6BA PUSH1 0x0 NOT DUP5 PUSH1 0x8 MUL PUSH2 0x69C JUMP JUMPDEST NOT DUP1 DUP4 AND SWAP2 POP POP SWAP3 SWAP2 POP POP JUMP JUMPDEST PUSH1 0x0 PUSH2 0x6D3 DUP4 DUP4 PUSH2 0x6A9 JUMP JUMPDEST SWAP2 POP DUP3 PUSH1 0x2 MUL DUP3 OR SWAP1 POP SWAP3 SWAP2 POP POP JUMP JUMPDEST PUSH2 0x6EC DUP3 PUSH2 0x41F JUMP JUMPDEST PUSH8 0xFFFFFFFFFFFFFFFF DUP2 GT ISZERO PUSH2 0x705 JUMPI PUSH2 0x704 PUSH2 0x23F JUMP JUMPDEST JUMPDEST PUSH2 0x70F DUP3 SLOAD PUSH2 0x506 JUMP JUMPDEST PUSH2 0x71A DUP3 DUP3 DUP6 PUSH2 0x656 JUMP JUMPDEST PUSH1 0x0 PUSH1 0x20 SWAP1 POP PUSH1 0x1F DUP4 GT PUSH1 0x1 DUP2 EQ PUSH2 0x74D JUMPI PUSH1 0x0 DUP5 ISZERO PUSH2 0x73B JUMPI DUP3 DUP8 ADD MLOAD SWAP1 POP JUMPDEST PUSH2 0x745 DUP6 DUP3 PUSH2 0x6C7 JUMP JUMPDEST DUP7 SSTORE POP PUSH2 0x7AD JUMP JUMPDEST PUSH1 0x1F NOT DUP5 AND PUSH2 0x75B DUP7 PUSH2 0x537 JUMP JUMPDEST PUSH1 0x0 JUMPDEST DUP3 DUP2 LT ISZERO PUSH2 0x783 JUMPI DUP5 DUP10 ADD MLOAD DUP3 SSTORE PUSH1 0x1 DUP3 ADD SWAP2 POP PUSH1 0x20 DUP6 ADD SWAP5 POP PUSH1 0x20 DUP2 ADD SWAP1 POP PUSH2 0x75E JUMP JUMPDEST DUP7 DUP4 LT ISZERO PUSH2 0x7A0 JUMPI DUP5 DUP10 ADD MLOAD PUSH2 0x79C PUSH1 0x1F DUP10 AND DUP3 PUSH2 0x6A9 JUMP JUMPDEST DUP4 SSTORE POP JUMPDEST PUSH1 0x1 PUSH1 0x2 DUP9 MUL ADD DUP9 SSTORE POP POP POP JUMPDEST POP POP POP POP POP POP JUMP INVALID LOG2 PUSH5 0x6970667358 0x22 SLT KECCAK256 CALLER DUP1 PUSH16 0x5CCCD7D6CB59088441A806E838D4B29F LOG4 0xCC 0x2F 0xAC 0xD9 CALLVALUE EXTCODECOPY BYTE DUP16 0xEC PUSH10 0x8DFE64736F6C63430008 0xF STOP CALLER "
				},
				"gasEstimates": {
					"creation": {
						"codeDepositCost": "405400",
						"executionCost": "443",
						"totalCost": "405843"
					},
					"external": {
						"addPerson(string,uint256)": "infinite",
						"people(uint256)": "infinite",
						"retrieve()": "2415"
					}
				},
				"methodIdentifiers": {
					"addPerson(string,uint256)": "6f760f41",
					"people(uint256)": "9e7a13ad",
					"retrieve()": "2e64cec1"
				}
			},
			"storageLayout": {
				"storage": [
					{
						"astId": 3,
						"contract": "Test.sol:Test",
						"label": "favoriteNumber",
						"offset": 0,
						"slot": "0",
						"type": "t_uint256"
					},
					{
						"astId": 12,
						"contract": "Test.sol:Test",
						"label": "people",
						"offset": 0,
						"slot": "1",
						"type": "t_array(t_struct(People)8_storage)dyn_storage"
					}
				],
				"types": {
					"t_array(t_struct(People)8_storage)dyn_storage": {
						"base": "t_struct(People)8_storage",
						"encoding": "dynamic_array",
						"label": "struct Test.People[]",
						"numberOfBytes": "32"
					},
					"t_string_storage": {
						"encoding": "bytes",
						"label": "string",
						"numberOfBytes": "32"
					},
					"t_struct(People)8_storage": {
						"encoding": "inplace",
						"label": "struct Test.People",
						"members": [
							{
								"astId": 5,
								"contract": "Test.sol:Test",
								"label": "name",
								"offset": 0,
								"slot": "0",
								"type": "t_string_storage"
							},
							{
								"astId": 7,
								"contract": "Test.sol:Test",
								"label": "favoriteNumber",
								"offset": 0,
								"slot": "1",
								"type": "t_uint256"
							}
						],
						"numberOfBytes": "64"
					},
					"t_uint256": {
						"encoding": "inplace",
						"label": "uint256",
						"numberOfBytes": "32"
					}
				}
			},
			"userdoc": {
				"kind": "user",
				"methods": {},
				"version": 1
			}
		}
	}
}