{
	"HelloWorld/13Error.sol": {
		"Errors": {
			"abi": [
				{
					"inputs": [],
					"name": "num",
					"outputs": [
						{
							"internalType": "uint256",
							"name": "",
							"type": "uint256"
						}
					],
					"stateMutability": "view",
					"type": "function"
				},
				{
					"inputs": [],
					"name": "testAssert",
					"outputs": [],
					"stateMutability": "view",
					"type": "function"
				},
				{
					"inputs": [
						{
							"internalType": "uint256",
							"name": "_i",
							"type": "uint256"
						}
					],
					"name": "testRequire",
					"outputs": [],
					"stateMutability": "pure",
					"type": "function"
				},
				{
					"inputs": [
						{
							"internalType": "uint256",
							"name": "_i",
							"type": "uint256"
						}
					],
					"name": "testRevert",
					"outputs": [],
					"stateMutability": "pure",
					"type": "function"
				}
			],
			"devdoc": {
				"kind": "dev",
				"methods": {},
				"version": 1
			},
			"evm": {
				"assembly": "    /* \"HelloWorld/13Error.sol\":57:353  contract Errors {... */\n  mstore(0x40, 0x80)\n    /* \"HelloWorld/13Error.sol\":304:307  123 */\n  0x7b\n    /* \"HelloWorld/13Error.sol\":286:307  uint public num = 123 */\n  0x00\n  sstore\n    /* \"HelloWorld/13Error.sol\":57:353  contract Errors {... */\n  callvalue\n  dup1\n  iszero\n  tag_1\n  jumpi\n  0x00\n  dup1\n  revert\ntag_1:\n  pop\n  dataSize(sub_0)\n  dup1\n  dataOffset(sub_0)\n  0x00\n  codecopy\n  0x00\n  return\nstop\n\nsub_0: assembly {\n        /* \"HelloWorld/13Error.sol\":57:353  contract Errors {... */\n      mstore(0x40, 0x80)\n      callvalue\n      dup1\n      iszero\n      tag_1\n      jumpi\n      0x00\n      dup1\n      revert\n    tag_1:\n      pop\n      jumpi(tag_2, lt(calldatasize, 0x04))\n      shr(0xe0, calldataload(0x00))\n      dup1\n      0x20987767\n      eq\n      tag_3\n      jumpi\n      dup1\n      0x2b813bc0\n      eq\n      tag_4\n      jumpi\n      dup1\n      0x4e70b1dc\n      eq\n      tag_5\n      jumpi\n      dup1\n      0xb8bd717f\n      eq\n      tag_6\n      jumpi\n    tag_2:\n      0x00\n      dup1\n      revert\n        /* \"HelloWorld/13Error.sol\":171:281  function testRevert(uint _i) public pure {... */\n    tag_3:\n      tag_7\n      0x04\n      dup1\n      calldatasize\n      sub\n      dup2\n      add\n      swap1\n      tag_8\n      swap2\n      swap1\n      tag_9\n      jump\t// in\n    tag_8:\n      tag_10\n      jump\t// in\n    tag_7:\n      stop\n        /* \"HelloWorld/13Error.sol\":314:350  function testAssert() public view {} */\n    tag_4:\n      tag_11\n      tag_12\n      jump\t// in\n    tag_11:\n      stop\n        /* \"HelloWorld/13Error.sol\":286:307  uint public num = 123 */\n    tag_5:\n      tag_13\n      tag_14\n      jump\t// in\n    tag_13:\n      mload(0x40)\n      tag_15\n      swap2\n      swap1\n      tag_16\n      jump\t// in\n    tag_15:\n      mload(0x40)\n      dup1\n      swap2\n      sub\n      swap1\n      return\n        /* \"HelloWorld/13Error.sol\":79:165  function testRequire(uint _i) public pure {... */\n    tag_6:\n      tag_17\n      0x04\n      dup1\n      calldatasize\n      sub\n      dup2\n      add\n      swap1\n      tag_18\n      swap2\n      swap1\n      tag_9\n      jump\t// in\n    tag_18:\n      tag_19\n      jump\t// in\n    tag_17:\n      stop\n        /* \"HelloWorld/13Error.sol\":171:281  function testRevert(uint _i) public pure {... */\n    tag_10:\n        /* \"HelloWorld/13Error.sol\":230:232  10 */\n      0x0a\n        /* \"HelloWorld/13Error.sol\":225:227  _i */\n      dup2\n        /* \"HelloWorld/13Error.sol\":225:232  _i > 10 */\n      gt\n        /* \"HelloWorld/13Error.sol\":222:275  if(_i > 10) {... */\n      iszero\n      tag_21\n      jumpi\n        /* \"HelloWorld/13Error.sol\":248:264  revert(\"i > 10\") */\n      mload(0x40)\n      0x08c379a000000000000000000000000000000000000000000000000000000000\n      dup2\n      mstore\n      0x04\n      add\n      tag_22\n      swap1\n      tag_23\n      jump\t// in\n    tag_22:\n      mload(0x40)\n      dup1\n      swap2\n      sub\n      swap1\n      revert\n        /* \"HelloWorld/13Error.sol\":222:275  if(_i > 10) {... */\n    tag_21:\n        /* \"HelloWorld/13Error.sol\":171:281  function testRevert(uint _i) public pure {... */\n      pop\n      jump\t// out\n        /* \"HelloWorld/13Error.sol\":314:350  function testAssert() public view {} */\n    tag_12:\n      jump\t// out\n        /* \"HelloWorld/13Error.sol\":286:307  uint public num = 123 */\n    tag_14:\n      sload(0x00)\n      dup2\n      jump\t// out\n        /* \"HelloWorld/13Error.sol\":79:165  function testRequire(uint _i) public pure {... */\n    tag_19:\n        /* \"HelloWorld/13Error.sol\":145:147  10 */\n      0x0a\n        /* \"HelloWorld/13Error.sol\":139:141  _i */\n      dup2\n        /* \"HelloWorld/13Error.sol\":139:147  _i <= 10 */\n      gt\n      iszero\n        /* \"HelloWorld/13Error.sol\":131:158  require(_i <= 10, \"i > 10\") */\n      tag_26\n      jumpi\n      mload(0x40)\n      0x08c379a000000000000000000000000000000000000000000000000000000000\n      dup2\n      mstore\n      0x04\n      add\n      tag_27\n      swap1\n      tag_23\n      jump\t// in\n    tag_27:\n      mload(0x40)\n      dup1\n      swap2\n      sub\n      swap1\n      revert\n    tag_26:\n        /* \"HelloWorld/13Error.sol\":79:165  function testRequire(uint _i) public pure {... */\n      pop\n      jump\t// out\n        /* \"#utility.yul\":88:205   */\n    tag_29:\n        /* \"#utility.yul\":197:198   */\n      0x00\n        /* \"#utility.yul\":194:195   */\n      dup1\n        /* \"#utility.yul\":187:199   */\n      revert\n        /* \"#utility.yul\":334:411   */\n    tag_31:\n        /* \"#utility.yul\":371:378   */\n      0x00\n        /* \"#utility.yul\":400:405   */\n      dup2\n        /* \"#utility.yul\":389:405   */\n      swap1\n      pop\n        /* \"#utility.yul\":334:411   */\n      swap2\n      swap1\n      pop\n      jump\t// out\n        /* \"#utility.yul\":417:539   */\n    tag_32:\n        /* \"#utility.yul\":490:514   */\n      tag_44\n        /* \"#utility.yul\":508:513   */\n      dup2\n        /* \"#utility.yul\":490:514   */\n      tag_31\n      jump\t// in\n    tag_44:\n        /* \"#utility.yul\":483:488   */\n      dup2\n        /* \"#utility.yul\":480:515   */\n      eq\n        /* \"#utility.yul\":470:533   */\n      tag_45\n      jumpi\n        /* \"#utility.yul\":529:530   */\n      0x00\n        /* \"#utility.yul\":526:527   */\n      dup1\n        /* \"#utility.yul\":519:531   */\n      revert\n        /* \"#utility.yul\":470:533   */\n    tag_45:\n        /* \"#utility.yul\":417:539   */\n      pop\n      jump\t// out\n        /* \"#utility.yul\":545:684   */\n    tag_33:\n        /* \"#utility.yul\":591:596   */\n      0x00\n        /* \"#utility.yul\":629:635   */\n      dup2\n        /* \"#utility.yul\":616:636   */\n      calldataload\n        /* \"#utility.yul\":607:636   */\n      swap1\n      pop\n        /* \"#utility.yul\":645:678   */\n      tag_47\n        /* \"#utility.yul\":672:677   */\n      dup2\n        /* \"#utility.yul\":645:678   */\n      tag_32\n      jump\t// in\n    tag_47:\n        /* \"#utility.yul\":545:684   */\n      swap3\n      swap2\n      pop\n      pop\n      jump\t// out\n        /* \"#utility.yul\":690:1019   */\n    tag_9:\n        /* \"#utility.yul\":749:755   */\n      0x00\n        /* \"#utility.yul\":798:800   */\n      0x20\n        /* \"#utility.yul\":786:795   */\n      dup3\n        /* \"#utility.yul\":777:784   */\n      dup5\n        /* \"#utility.yul\":773:796   */\n      sub\n        /* \"#utility.yul\":769:801   */\n      slt\n        /* \"#utility.yul\":766:885   */\n      iszero\n      tag_49\n      jumpi\n        /* \"#utility.yul\":804:883   */\n      tag_50\n      tag_29\n      jump\t// in\n    tag_50:\n        /* \"#utility.yul\":766:885   */\n    tag_49:\n        /* \"#utility.yul\":924:925   */\n      0x00\n        /* \"#utility.yul\":949:1002   */\n      tag_51\n        /* \"#utility.yul\":994:1001   */\n      dup5\n        /* \"#utility.yul\":985:991   */\n      dup3\n        /* \"#utility.yul\":974:983   */\n      dup6\n        /* \"#utility.yul\":970:992   */\n      add\n        /* \"#utility.yul\":949:1002   */\n      tag_33\n      jump\t// in\n    tag_51:\n        /* \"#utility.yul\":939:1002   */\n      swap2\n      pop\n        /* \"#utility.yul\":895:1012   */\n      pop\n        /* \"#utility.yul\":690:1019   */\n      swap3\n      swap2\n      pop\n      pop\n      jump\t// out\n        /* \"#utility.yul\":1025:1143   */\n    tag_34:\n        /* \"#utility.yul\":1112:1136   */\n      tag_53\n        /* \"#utility.yul\":1130:1135   */\n      dup2\n        /* \"#utility.yul\":1112:1136   */\n      tag_31\n      jump\t// in\n    tag_53:\n        /* \"#utility.yul\":1107:1110   */\n      dup3\n        /* \"#utility.yul\":1100:1137   */\n      mstore\n        /* \"#utility.yul\":1025:1143   */\n      pop\n      pop\n      jump\t// out\n        /* \"#utility.yul\":1149:1371   */\n    tag_16:\n        /* \"#utility.yul\":1242:1246   */\n      0x00\n        /* \"#utility.yul\":1280:1282   */\n      0x20\n        /* \"#utility.yul\":1269:1278   */\n      dup3\n        /* \"#utility.yul\":1265:1283   */\n      add\n        /* \"#utility.yul\":1257:1283   */\n      swap1\n      pop\n        /* \"#utility.yul\":1293:1364   */\n      tag_55\n        /* \"#utility.yul\":1361:1362   */\n      0x00\n        /* \"#utility.yul\":1350:1359   */\n      dup4\n        /* \"#utility.yul\":1346:1363   */\n      add\n        /* \"#utility.yul\":1337:1343   */\n      dup5\n        /* \"#utility.yul\":1293:1364   */\n      tag_34\n      jump\t// in\n    tag_55:\n        /* \"#utility.yul\":1149:1371   */\n      swap3\n      swap2\n      pop\n      pop\n      jump\t// out\n        /* \"#utility.yul\":1377:1546   */\n    tag_35:\n        /* \"#utility.yul\":1461:1472   */\n      0x00\n        /* \"#utility.yul\":1495:1501   */\n      dup3\n        /* \"#utility.yul\":1490:1493   */\n      dup3\n        /* \"#utility.yul\":1483:1502   */\n      mstore\n        /* \"#utility.yul\":1535:1539   */\n      0x20\n        /* \"#utility.yul\":1530:1533   */\n      dup3\n        /* \"#utility.yul\":1526:1540   */\n      add\n        /* \"#utility.yul\":1511:1540   */\n      swap1\n      pop\n        /* \"#utility.yul\":1377:1546   */\n      swap3\n      swap2\n      pop\n      pop\n      jump\t// out\n        /* \"#utility.yul\":1552:1708   */\n    tag_36:\n        /* \"#utility.yul\":1692:1700   */\n      0x69203e2031300000000000000000000000000000000000000000000000000000\n        /* \"#utility.yul\":1688:1689   */\n      0x00\n        /* \"#utility.yul\":1680:1686   */\n      dup3\n        /* \"#utility.yul\":1676:1690   */\n      add\n        /* \"#utility.yul\":1669:1701   */\n      mstore\n        /* \"#utility.yul\":1552:1708   */\n      pop\n      jump\t// out\n        /* \"#utility.yul\":1714:2079   */\n    tag_37:\n        /* \"#utility.yul\":1856:1859   */\n      0x00\n        /* \"#utility.yul\":1877:1943   */\n      tag_59\n        /* \"#utility.yul\":1941:1942   */\n      0x06\n        /* \"#utility.yul\":1936:1939   */\n      dup4\n        /* \"#utility.yul\":1877:1943   */\n      tag_35\n      jump\t// in\n    tag_59:\n        /* \"#utility.yul\":1870:1943   */\n      swap2\n      pop\n        /* \"#utility.yul\":1952:2045   */\n      tag_60\n        /* \"#utility.yul\":2041:2044   */\n      dup3\n        /* \"#utility.yul\":1952:2045   */\n      tag_36\n      jump\t// in\n    tag_60:\n        /* \"#utility.yul\":2070:2072   */\n      0x20\n        /* \"#utility.yul\":2065:2068   */\n      dup3\n        /* \"#utility.yul\":2061:2073   */\n      add\n        /* \"#utility.yul\":2054:2073   */\n      swap1\n      pop\n        /* \"#utility.yul\":1714:2079   */\n      swap2\n      swap1\n      pop\n      jump\t// out\n        /* \"#utility.yul\":2085:2504   */\n    tag_23:\n        /* \"#utility.yul\":2251:2255   */\n      0x00\n        /* \"#utility.yul\":2289:2291   */\n      0x20\n        /* \"#utility.yul\":2278:2287   */\n      dup3\n        /* \"#utility.yul\":2274:2292   */\n      add\n        /* \"#utility.yul\":2266:2292   */\n      swap1\n      pop\n        /* \"#utility.yul\":2338:2347   */\n      dup2\n        /* \"#utility.yul\":2332:2336   */\n      dup2\n        /* \"#utility.yul\":2328:2348   */\n      sub\n        /* \"#utility.yul\":2324:2325   */\n      0x00\n        /* \"#utility.yul\":2313:2322   */\n      dup4\n        /* \"#utility.yul\":2309:2326   */\n      add\n        /* \"#utility.yul\":2302:2349   */\n      mstore\n        /* \"#utility.yul\":2366:2497   */\n      tag_62\n        /* \"#utility.yul\":2492:2496   */\n      dup2\n        /* \"#utility.yul\":2366:2497   */\n      tag_37\n      jump\t// in\n    tag_62:\n        /* \"#utility.yul\":2358:2497   */\n      swap1\n      pop\n        /* \"#utility.yul\":2085:2504   */\n      swap2\n      swap1\n      pop\n      jump\t// out\n\n    auxdata: 0xa264697066735822122038d095c3e0a5d63ca50c601c8f19225cf3f6d20d71cd8205d5b8eb9e65c128e164736f6c634300080f0033\n}\n",
				"bytecode": {
					"linkReferences": {},
					"object": "6080604052607b60005534801561001557600080fd5b5061028c806100256000396000f3fe608060405234801561001057600080fd5b506004361061004c5760003560e01c806320987767146100515780632b813bc01461006d5780634e70b1dc14610077578063b8bd717f14610095575b600080fd5b61006b60048036038101906100669190610182565b6100b1565b005b6100756100f8565b005b61007f6100fa565b60405161008c91906101be565b60405180910390f35b6100af60048036038101906100aa9190610182565b610100565b005b600a8111156100f5576040517f08c379a00000000000000000000000000000000000000000000000000000000081526004016100ec90610236565b60405180910390fd5b50565b565b60005481565b600a811115610144576040517f08c379a000000000000000000000000000000000000000000000000000000000815260040161013b90610236565b60405180910390fd5b50565b600080fd5b6000819050919050565b61015f8161014c565b811461016a57600080fd5b50565b60008135905061017c81610156565b92915050565b60006020828403121561019857610197610147565b5b60006101a68482850161016d565b91505092915050565b6101b88161014c565b82525050565b60006020820190506101d360008301846101af565b92915050565b600082825260208201905092915050565b7f69203e2031300000000000000000000000000000000000000000000000000000600082015250565b60006102206006836101d9565b915061022b826101ea565b602082019050919050565b6000602082019050818103600083015261024f81610213565b905091905056fea264697066735822122038d095c3e0a5d63ca50c601c8f19225cf3f6d20d71cd8205d5b8eb9e65c128e164736f6c634300080f0033",
					"opcodes": "PUSH1 0x80 PUSH1 0x40 MSTORE PUSH1 0x7B PUSH1 0x0 SSTORE CALLVALUE DUP1 ISZERO PUSH2 0x15 JUMPI PUSH1 0x0 DUP1 REVERT JUMPDEST POP PUSH2 0x28C DUP1 PUSH2 0x25 PUSH1 0x0 CODECOPY PUSH1 0x0 RETURN INVALID PUSH1 0x80 PUSH1 0x40 MSTORE CALLVALUE DUP1 ISZERO PUSH2 0x10 JUMPI PUSH1 0x0 DUP1 REVERT JUMPDEST POP PUSH1 0x4 CALLDATASIZE LT PUSH2 0x4C JUMPI PUSH1 0x0 CALLDATALOAD PUSH1 0xE0 SHR DUP1 PUSH4 0x20987767 EQ PUSH2 0x51 JUMPI DUP1 PUSH4 0x2B813BC0 EQ PUSH2 0x6D JUMPI DUP1 PUSH4 0x4E70B1DC EQ PUSH2 0x77 JUMPI DUP1 PUSH4 0xB8BD717F EQ PUSH2 0x95 JUMPI JUMPDEST PUSH1 0x0 DUP1 REVERT JUMPDEST PUSH2 0x6B PUSH1 0x4 DUP1 CALLDATASIZE SUB DUP2 ADD SWAP1 PUSH2 0x66 SWAP2 SWAP1 PUSH2 0x182 JUMP JUMPDEST PUSH2 0xB1 JUMP JUMPDEST STOP JUMPDEST PUSH2 0x75 PUSH2 0xF8 JUMP JUMPDEST STOP JUMPDEST PUSH2 0x7F PUSH2 0xFA JUMP JUMPDEST PUSH1 0x40 MLOAD PUSH2 0x8C SWAP2 SWAP1 PUSH2 0x1BE JUMP JUMPDEST PUSH1 0x40 MLOAD DUP1 SWAP2 SUB SWAP1 RETURN JUMPDEST PUSH2 0xAF PUSH1 0x4 DUP1 CALLDATASIZE SUB DUP2 ADD SWAP1 PUSH2 0xAA SWAP2 SWAP1 PUSH2 0x182 JUMP JUMPDEST PUSH2 0x100 JUMP JUMPDEST STOP JUMPDEST PUSH1 0xA DUP2 GT ISZERO PUSH2 0xF5 JUMPI PUSH1 0x40 MLOAD PUSH32 0x8C379A000000000000000000000000000000000000000000000000000000000 DUP2 MSTORE PUSH1 0x4 ADD PUSH2 0xEC SWAP1 PUSH2 0x236 JUMP JUMPDEST PUSH1 0x40 MLOAD DUP1 SWAP2 SUB SWAP1 REVERT JUMPDEST POP JUMP JUMPDEST JUMP JUMPDEST PUSH1 0x0 SLOAD DUP2 JUMP JUMPDEST PUSH1 0xA DUP2 GT ISZERO PUSH2 0x144 JUMPI PUSH1 0x40 MLOAD PUSH32 0x8C379A000000000000000000000000000000000000000000000000000000000 DUP2 MSTORE PUSH1 0x4 ADD PUSH2 0x13B SWAP1 PUSH2 0x236 JUMP JUMPDEST PUSH1 0x40 MLOAD DUP1 SWAP2 SUB SWAP1 REVERT JUMPDEST POP JUMP JUMPDEST PUSH1 0x0 DUP1 REVERT JUMPDEST PUSH1 0x0 DUP2 SWAP1 POP SWAP2 SWAP1 POP JUMP JUMPDEST PUSH2 0x15F DUP2 PUSH2 0x14C JUMP JUMPDEST DUP2 EQ PUSH2 0x16A JUMPI PUSH1 0x0 DUP1 REVERT JUMPDEST POP JUMP JUMPDEST PUSH1 0x0 DUP2 CALLDATALOAD SWAP1 POP PUSH2 0x17C DUP2 PUSH2 0x156 JUMP JUMPDEST SWAP3 SWAP2 POP POP JUMP JUMPDEST PUSH1 0x0 PUSH1 0x20 DUP3 DUP5 SUB SLT ISZERO PUSH2 0x198 JUMPI PUSH2 0x197 PUSH2 0x147 JUMP JUMPDEST JUMPDEST PUSH1 0x0 PUSH2 0x1A6 DUP5 DUP3 DUP6 ADD PUSH2 0x16D JUMP JUMPDEST SWAP2 POP POP SWAP3 SWAP2 POP POP JUMP JUMPDEST PUSH2 0x1B8 DUP2 PUSH2 0x14C JUMP JUMPDEST DUP3 MSTORE POP POP JUMP JUMPDEST PUSH1 0x0 PUSH1 0x20 DUP3 ADD SWAP1 POP PUSH2 0x1D3 PUSH1 0x0 DUP4 ADD DUP5 PUSH2 0x1AF JUMP JUMPDEST SWAP3 SWAP2 POP POP JUMP JUMPDEST PUSH1 0x0 DUP3 DUP3 MSTORE PUSH1 0x20 DUP3 ADD SWAP1 POP SWAP3 SWAP2 POP POP JUMP JUMPDEST PUSH32 0x69203E2031300000000000000000000000000000000000000000000000000000 PUSH1 0x0 DUP3 ADD MSTORE POP JUMP JUMPDEST PUSH1 0x0 PUSH2 0x220 PUSH1 0x6 DUP4 PUSH2 0x1D9 JUMP JUMPDEST SWAP2 POP PUSH2 0x22B DUP3 PUSH2 0x1EA JUMP JUMPDEST PUSH1 0x20 DUP3 ADD SWAP1 POP SWAP2 SWAP1 POP JUMP JUMPDEST PUSH1 0x0 PUSH1 0x20 DUP3 ADD SWAP1 POP DUP2 DUP2 SUB PUSH1 0x0 DUP4 ADD MSTORE PUSH2 0x24F DUP2 PUSH2 0x213 JUMP JUMPDEST SWAP1 POP SWAP2 SWAP1 POP JUMP INVALID LOG2 PUSH5 0x6970667358 0x22 SLT KECCAK256 CODESIZE 0xD0 SWAP6 0xC3 0xE0 0xA5 0xD6 EXTCODECOPY 0xA5 0xC PUSH1 0x1C DUP16 NOT 0x22 0x5C RETURN 0xF6 0xD2 0xD PUSH18 0xCD8205D5B8EB9E65C128E164736F6C634300 ADDMOD 0xF STOP CALLER "
				},
				"gasEstimates": {
					"creation": {
						"codeDepositCost": "130400",
						"executionCost": "22283",
						"totalCost": "152683"
					},
					"external": {
						"num()": "2451",
						"testAssert()": "144",
						"testRequire(uint256)": "763",
						"testRevert(uint256)": "697"
					}
				},
				"methodIdentifiers": {
					"num()": "4e70b1dc",
					"testAssert()": "2b813bc0",
					"testRequire(uint256)": "b8bd717f",
					"testRevert(uint256)": "20987767"
				}
			},
			"storageLayout": {
				"storage": [
					{
						"astId": 32,
						"contract": "HelloWorld/13Error.sol:Errors",
						"label": "num",
						"offset": 0,
						"slot": "0",
						"type": "t_uint256"
					}
				],
				"types": {
					"t_uint256": {
						"encoding": "inplace",
						"label": "uint256",
						"numberOfBytes": "32"
					}
				}
			},
			"userdoc": {
				"kind": "user",
				"methods": {},
				"version": 1
			}
		}
	}
}