{
	"HelloWorld/12ForAndWhileLoops.sol": {
		"ForAndWhileLoops": {
			"abi": [
				{
					"inputs": [],
					"name": "loops",
					"outputs": [],
					"stateMutability": "pure",
					"type": "function"
				},
				{
					"inputs": [
						{
							"internalType": "uint256",
							"name": "_n",
							"type": "uint256"
						}
					],
					"name": "sum",
					"outputs": [
						{
							"internalType": "uint256",
							"name": "",
							"type": "uint256"
						}
					],
					"stateMutability": "pure",
					"type": "function"
				}
			],
			"devdoc": {
				"kind": "dev",
				"methods": {},
				"version": 1
			},
			"evm": {
				"assembly": "    /* \"HelloWorld/12ForAndWhileLoops.sol\":56:516  contract ForAndWhileLoops {... */\n  mstore(0x40, 0x80)\n  callvalue\n  dup1\n  iszero\n  tag_1\n  jumpi\n  0x00\n  dup1\n  revert\ntag_1:\n  pop\n  dataSize(sub_0)\n  dup1\n  dataOffset(sub_0)\n  0x00\n  codecopy\n  0x00\n  return\nstop\n\nsub_0: assembly {\n        /* \"HelloWorld/12ForAndWhileLoops.sol\":56:516  contract ForAndWhileLoops {... */\n      mstore(0x40, 0x80)\n      callvalue\n      dup1\n      iszero\n      tag_1\n      jumpi\n      0x00\n      dup1\n      revert\n    tag_1:\n      pop\n      jumpi(tag_2, lt(calldatasize, 0x04))\n      shr(0xe0, calldataload(0x00))\n      dup1\n      0x188b85b4\n      eq\n      tag_3\n      jumpi\n      dup1\n      0x938b9ceb\n      eq\n      tag_4\n      jumpi\n    tag_2:\n      0x00\n      dup1\n      revert\n        /* \"HelloWorld/12ForAndWhileLoops.sol\":377:514  function sum(uint _n) external pure returns (uint) {... */\n    tag_3:\n      tag_5\n      0x04\n      dup1\n      calldatasize\n      sub\n      dup2\n      add\n      swap1\n      tag_6\n      swap2\n      swap1\n      tag_7\n      jump\t// in\n    tag_6:\n      tag_8\n      jump\t// in\n    tag_5:\n      mload(0x40)\n      tag_9\n      swap2\n      swap1\n      tag_10\n      jump\t// in\n    tag_9:\n      mload(0x40)\n      dup1\n      swap2\n      sub\n      swap1\n      return\n        /* \"HelloWorld/12ForAndWhileLoops.sol\":88:372  function loops() external pure {... */\n    tag_4:\n      tag_11\n      tag_12\n      jump\t// in\n    tag_11:\n      stop\n        /* \"HelloWorld/12ForAndWhileLoops.sol\":377:514  function sum(uint _n) external pure returns (uint) {... */\n    tag_8:\n        /* \"HelloWorld/12ForAndWhileLoops.sol\":422:426  uint */\n      0x00\n        /* \"HelloWorld/12ForAndWhileLoops.sol\":438:444  uint s */\n      dup1\n        /* \"HelloWorld/12ForAndWhileLoops.sol\":458:464  uint i */\n      0x00\n        /* \"HelloWorld/12ForAndWhileLoops.sol\":467:468  1 */\n      0x01\n        /* \"HelloWorld/12ForAndWhileLoops.sol\":458:468  uint i = 1 */\n      swap1\n      pop\n        /* \"HelloWorld/12ForAndWhileLoops.sol\":454:508  for(uint i = 1; i <= _n; i++) {... */\n    tag_14:\n        /* \"HelloWorld/12ForAndWhileLoops.sol\":475:477  _n */\n      dup4\n        /* \"HelloWorld/12ForAndWhileLoops.sol\":470:471  i */\n      dup2\n        /* \"HelloWorld/12ForAndWhileLoops.sol\":470:477  i <= _n */\n      gt\n        /* \"HelloWorld/12ForAndWhileLoops.sol\":454:508  for(uint i = 1; i <= _n; i++) {... */\n      tag_15\n      jumpi\n        /* \"HelloWorld/12ForAndWhileLoops.sol\":479:482  i++ */\n      dup1\n      dup1\n      tag_17\n      swap1\n      tag_18\n      jump\t// in\n    tag_17:\n      swap2\n      pop\n      pop\n        /* \"HelloWorld/12ForAndWhileLoops.sol\":454:508  for(uint i = 1; i <= _n; i++) {... */\n      jump(tag_14)\n    tag_15:\n      pop\n        /* \"HelloWorld/12ForAndWhileLoops.sol\":428:514  {... */\n      pop\n        /* \"HelloWorld/12ForAndWhileLoops.sol\":377:514  function sum(uint _n) external pure returns (uint) {... */\n      swap2\n      swap1\n      pop\n      jump\t// out\n        /* \"HelloWorld/12ForAndWhileLoops.sol\":88:372  function loops() external pure {... */\n    tag_12:\n        /* \"HelloWorld/12ForAndWhileLoops.sol\":133:139  uint i */\n      0x00\n        /* \"HelloWorld/12ForAndWhileLoops.sol\":129:296  for(uint i = 0; i < 10; i++) {... */\n    tag_20:\n        /* \"HelloWorld/12ForAndWhileLoops.sol\":149:151  10 */\n      0x0a\n        /* \"HelloWorld/12ForAndWhileLoops.sol\":145:146  i */\n      dup2\n        /* \"HelloWorld/12ForAndWhileLoops.sol\":145:151  i < 10 */\n      lt\n        /* \"HelloWorld/12ForAndWhileLoops.sol\":129:296  for(uint i = 0; i < 10; i++) {... */\n      iszero\n      tag_21\n      jumpi\n        /* \"HelloWorld/12ForAndWhileLoops.sol\":180:181  3 */\n      0x03\n        /* \"HelloWorld/12ForAndWhileLoops.sol\":175:176  i */\n      dup2\n        /* \"HelloWorld/12ForAndWhileLoops.sol\":175:181  i == 3 */\n      sub\n        /* \"HelloWorld/12ForAndWhileLoops.sol\":172:224  if(i == 3) {... */\n      iszero\n        /* \"HelloWorld/12ForAndWhileLoops.sol\":201:209  continue */\n      tag_22\n        /* \"HelloWorld/12ForAndWhileLoops.sol\":172:224  if(i == 3) {... */\n      jumpi\n        /* \"HelloWorld/12ForAndWhileLoops.sol\":245:246  5 */\n      0x05\n        /* \"HelloWorld/12ForAndWhileLoops.sol\":240:241  i */\n      dup2\n        /* \"HelloWorld/12ForAndWhileLoops.sol\":240:246  i == 5 */\n      sub\n        /* \"HelloWorld/12ForAndWhileLoops.sol\":237:286  if(i == 5) {... */\n      iszero\n        /* \"HelloWorld/12ForAndWhileLoops.sol\":266:271  break */\n      tag_21\n        /* \"HelloWorld/12ForAndWhileLoops.sol\":237:286  if(i == 5) {... */\n      jumpi\n        /* \"HelloWorld/12ForAndWhileLoops.sol\":129:296  for(uint i = 0; i < 10; i++) {... */\n    tag_22:\n        /* \"HelloWorld/12ForAndWhileLoops.sol\":153:156  i++ */\n      dup1\n      dup1\n      tag_25\n      swap1\n      tag_18\n      jump\t// in\n    tag_25:\n      swap2\n      pop\n      pop\n        /* \"HelloWorld/12ForAndWhileLoops.sol\":129:296  for(uint i = 0; i < 10; i++) {... */\n      jump(tag_20)\n    tag_21:\n      pop\n        /* \"HelloWorld/12ForAndWhileLoops.sol\":305:311  uint j */\n      0x00\n        /* \"HelloWorld/12ForAndWhileLoops.sol\":325:366  while(j < 10){... */\n    tag_26:\n        /* \"HelloWorld/12ForAndWhileLoops.sol\":335:337  10 */\n      0x0a\n        /* \"HelloWorld/12ForAndWhileLoops.sol\":331:332  j */\n      dup2\n        /* \"HelloWorld/12ForAndWhileLoops.sol\":331:337  j < 10 */\n      lt\n        /* \"HelloWorld/12ForAndWhileLoops.sol\":325:366  while(j < 10){... */\n      iszero\n      tag_27\n      jumpi\n        /* \"HelloWorld/12ForAndWhileLoops.sol\":352:355  j++ */\n      dup1\n      dup1\n      tag_28\n      swap1\n      tag_18\n      jump\t// in\n    tag_28:\n      swap2\n      pop\n      pop\n        /* \"HelloWorld/12ForAndWhileLoops.sol\":325:366  while(j < 10){... */\n      jump(tag_26)\n    tag_27:\n        /* \"HelloWorld/12ForAndWhileLoops.sol\":119:372  {... */\n      pop\n        /* \"HelloWorld/12ForAndWhileLoops.sol\":88:372  function loops() external pure {... */\n      jump\t// out\n        /* \"#utility.yul\":88:205   */\n    tag_30:\n        /* \"#utility.yul\":197:198   */\n      0x00\n        /* \"#utility.yul\":194:195   */\n      dup1\n        /* \"#utility.yul\":187:199   */\n      revert\n        /* \"#utility.yul\":334:411   */\n    tag_32:\n        /* \"#utility.yul\":371:378   */\n      0x00\n        /* \"#utility.yul\":400:405   */\n      dup2\n        /* \"#utility.yul\":389:405   */\n      swap1\n      pop\n        /* \"#utility.yul\":334:411   */\n      swap2\n      swap1\n      pop\n      jump\t// out\n        /* \"#utility.yul\":417:539   */\n    tag_33:\n        /* \"#utility.yul\":490:514   */\n      tag_43\n        /* \"#utility.yul\":508:513   */\n      dup2\n        /* \"#utility.yul\":490:514   */\n      tag_32\n      jump\t// in\n    tag_43:\n        /* \"#utility.yul\":483:488   */\n      dup2\n        /* \"#utility.yul\":480:515   */\n      eq\n        /* \"#utility.yul\":470:533   */\n      tag_44\n      jumpi\n        /* \"#utility.yul\":529:530   */\n      0x00\n        /* \"#utility.yul\":526:527   */\n      dup1\n        /* \"#utility.yul\":519:531   */\n      revert\n        /* \"#utility.yul\":470:533   */\n    tag_44:\n        /* \"#utility.yul\":417:539   */\n      pop\n      jump\t// out\n        /* \"#utility.yul\":545:684   */\n    tag_34:\n        /* \"#utility.yul\":591:596   */\n      0x00\n        /* \"#utility.yul\":629:635   */\n      dup2\n        /* \"#utility.yul\":616:636   */\n      calldataload\n        /* \"#utility.yul\":607:636   */\n      swap1\n      pop\n        /* \"#utility.yul\":645:678   */\n      tag_46\n        /* \"#utility.yul\":672:677   */\n      dup2\n        /* \"#utility.yul\":645:678   */\n      tag_33\n      jump\t// in\n    tag_46:\n        /* \"#utility.yul\":545:684   */\n      swap3\n      swap2\n      pop\n      pop\n      jump\t// out\n        /* \"#utility.yul\":690:1019   */\n    tag_7:\n        /* \"#utility.yul\":749:755   */\n      0x00\n        /* \"#utility.yul\":798:800   */\n      0x20\n        /* \"#utility.yul\":786:795   */\n      dup3\n        /* \"#utility.yul\":777:784   */\n      dup5\n        /* \"#utility.yul\":773:796   */\n      sub\n        /* \"#utility.yul\":769:801   */\n      slt\n        /* \"#utility.yul\":766:885   */\n      iszero\n      tag_48\n      jumpi\n        /* \"#utility.yul\":804:883   */\n      tag_49\n      tag_30\n      jump\t// in\n    tag_49:\n        /* \"#utility.yul\":766:885   */\n    tag_48:\n        /* \"#utility.yul\":924:925   */\n      0x00\n        /* \"#utility.yul\":949:1002   */\n      tag_50\n        /* \"#utility.yul\":994:1001   */\n      dup5\n        /* \"#utility.yul\":985:991   */\n      dup3\n        /* \"#utility.yul\":974:983   */\n      dup6\n        /* \"#utility.yul\":970:992   */\n      add\n        /* \"#utility.yul\":949:1002   */\n      tag_34\n      jump\t// in\n    tag_50:\n        /* \"#utility.yul\":939:1002   */\n      swap2\n      pop\n        /* \"#utility.yul\":895:1012   */\n      pop\n        /* \"#utility.yul\":690:1019   */\n      swap3\n      swap2\n      pop\n      pop\n      jump\t// out\n        /* \"#utility.yul\":1025:1143   */\n    tag_35:\n        /* \"#utility.yul\":1112:1136   */\n      tag_52\n        /* \"#utility.yul\":1130:1135   */\n      dup2\n        /* \"#utility.yul\":1112:1136   */\n      tag_32\n      jump\t// in\n    tag_52:\n        /* \"#utility.yul\":1107:1110   */\n      dup3\n        /* \"#utility.yul\":1100:1137   */\n      mstore\n        /* \"#utility.yul\":1025:1143   */\n      pop\n      pop\n      jump\t// out\n        /* \"#utility.yul\":1149:1371   */\n    tag_10:\n        /* \"#utility.yul\":1242:1246   */\n      0x00\n        /* \"#utility.yul\":1280:1282   */\n      0x20\n        /* \"#utility.yul\":1269:1278   */\n      dup3\n        /* \"#utility.yul\":1265:1283   */\n      add\n        /* \"#utility.yul\":1257:1283   */\n      swap1\n      pop\n        /* \"#utility.yul\":1293:1364   */\n      tag_54\n        /* \"#utility.yul\":1361:1362   */\n      0x00\n        /* \"#utility.yul\":1350:1359   */\n      dup4\n        /* \"#utility.yul\":1346:1363   */\n      add\n        /* \"#utility.yul\":1337:1343   */\n      dup5\n        /* \"#utility.yul\":1293:1364   */\n      tag_35\n      jump\t// in\n    tag_54:\n        /* \"#utility.yul\":1149:1371   */\n      swap3\n      swap2\n      pop\n      pop\n      jump\t// out\n        /* \"#utility.yul\":1377:1557   */\n    tag_36:\n        /* \"#utility.yul\":1425:1502   */\n      0x4e487b7100000000000000000000000000000000000000000000000000000000\n        /* \"#utility.yul\":1422:1423   */\n      0x00\n        /* \"#utility.yul\":1415:1503   */\n      mstore\n        /* \"#utility.yul\":1522:1526   */\n      0x11\n        /* \"#utility.yul\":1519:1520   */\n      0x04\n        /* \"#utility.yul\":1512:1527   */\n      mstore\n        /* \"#utility.yul\":1546:1550   */\n      0x24\n        /* \"#utility.yul\":1543:1544   */\n      0x00\n        /* \"#utility.yul\":1536:1551   */\n      revert\n        /* \"#utility.yul\":1563:1796   */\n    tag_18:\n        /* \"#utility.yul\":1602:1605   */\n      0x00\n        /* \"#utility.yul\":1625:1649   */\n      tag_57\n        /* \"#utility.yul\":1643:1648   */\n      dup3\n        /* \"#utility.yul\":1625:1649   */\n      tag_32\n      jump\t// in\n    tag_57:\n        /* \"#utility.yul\":1616:1649   */\n      swap2\n      pop\n        /* \"#utility.yul\":1671:1737   */\n      0xffffffffffffffffffffffffffffffffffffffffffffffffffffffffffffffff\n        /* \"#utility.yul\":1664:1669   */\n      dup3\n        /* \"#utility.yul\":1661:1738   */\n      sub\n        /* \"#utility.yul\":1658:1761   */\n      tag_58\n      jumpi\n        /* \"#utility.yul\":1741:1759   */\n      tag_59\n      tag_36\n      jump\t// in\n    tag_59:\n        /* \"#utility.yul\":1658:1761   */\n    tag_58:\n        /* \"#utility.yul\":1788:1789   */\n      0x01\n        /* \"#utility.yul\":1781:1786   */\n      dup3\n        /* \"#utility.yul\":1777:1790   */\n      add\n        /* \"#utility.yul\":1770:1790   */\n      swap1\n      pop\n        /* \"#utility.yul\":1563:1796   */\n      swap2\n      swap1\n      pop\n      jump\t// out\n\n    auxdata: 0xa2646970667358221220d84738e513938f3edd03ad72001de234901b5e63de2b50690bde62f3451ca97b64736f6c634300080f0033\n}\n",
				"bytecode": {
					"linkReferences": {},
					"object": "608060405234801561001057600080fd5b50610234806100206000396000f3fe608060405234801561001057600080fd5b50600436106100365760003560e01c8063188b85b41461003b578063938b9ceb1461006b575b600080fd5b61005560048036038101906100509190610130565b610075565b604051610062919061016c565b60405180910390f35b6100736100a0565b005b6000806000600190505b838111610099578080610091906101b6565b91505061007f565b5050919050565b60005b600a8110156100d25760038103156100bf5760058103156100d2575b80806100ca906101b6565b9150506100a3565b5060005b600a8110156100f25780806100ea906101b6565b9150506100d6565b50565b600080fd5b6000819050919050565b61010d816100fa565b811461011857600080fd5b50565b60008135905061012a81610104565b92915050565b600060208284031215610146576101456100f5565b5b60006101548482850161011b565b91505092915050565b610166816100fa565b82525050565b6000602082019050610181600083018461015d565b92915050565b7f4e487b7100000000000000000000000000000000000000000000000000000000600052601160045260246000fd5b60006101c1826100fa565b91507fffffffffffffffffffffffffffffffffffffffffffffffffffffffffffffffff82036101f3576101f2610187565b5b60018201905091905056fea2646970667358221220d84738e513938f3edd03ad72001de234901b5e63de2b50690bde62f3451ca97b64736f6c634300080f0033",
					"opcodes": "PUSH1 0x80 PUSH1 0x40 MSTORE CALLVALUE DUP1 ISZERO PUSH2 0x10 JUMPI PUSH1 0x0 DUP1 REVERT JUMPDEST POP PUSH2 0x234 DUP1 PUSH2 0x20 PUSH1 0x0 CODECOPY PUSH1 0x0 RETURN INVALID PUSH1 0x80 PUSH1 0x40 MSTORE CALLVALUE DUP1 ISZERO PUSH2 0x10 JUMPI PUSH1 0x0 DUP1 REVERT JUMPDEST POP PUSH1 0x4 CALLDATASIZE LT PUSH2 0x36 JUMPI PUSH1 0x0 CALLDATALOAD PUSH1 0xE0 SHR DUP1 PUSH4 0x188B85B4 EQ PUSH2 0x3B JUMPI DUP1 PUSH4 0x938B9CEB EQ PUSH2 0x6B JUMPI JUMPDEST PUSH1 0x0 DUP1 REVERT JUMPDEST PUSH2 0x55 PUSH1 0x4 DUP1 CALLDATASIZE SUB DUP2 ADD SWAP1 PUSH2 0x50 SWAP2 SWAP1 PUSH2 0x130 JUMP JUMPDEST PUSH2 0x75 JUMP JUMPDEST PUSH1 0x40 MLOAD PUSH2 0x62 SWAP2 SWAP1 PUSH2 0x16C JUMP JUMPDEST PUSH1 0x40 MLOAD DUP1 SWAP2 SUB SWAP1 RETURN JUMPDEST PUSH2 0x73 PUSH2 0xA0 JUMP JUMPDEST STOP JUMPDEST PUSH1 0x0 DUP1 PUSH1 0x0 PUSH1 0x1 SWAP1 POP JUMPDEST DUP4 DUP2 GT PUSH2 0x99 JUMPI DUP1 DUP1 PUSH2 0x91 SWAP1 PUSH2 0x1B6 JUMP JUMPDEST SWAP2 POP POP PUSH2 0x7F JUMP JUMPDEST POP POP SWAP2 SWAP1 POP JUMP JUMPDEST PUSH1 0x0 JUMPDEST PUSH1 0xA DUP2 LT ISZERO PUSH2 0xD2 JUMPI PUSH1 0x3 DUP2 SUB ISZERO PUSH2 0xBF JUMPI PUSH1 0x5 DUP2 SUB ISZERO PUSH2 0xD2 JUMPI JUMPDEST DUP1 DUP1 PUSH2 0xCA SWAP1 PUSH2 0x1B6 JUMP JUMPDEST SWAP2 POP POP PUSH2 0xA3 JUMP JUMPDEST POP PUSH1 0x0 JUMPDEST PUSH1 0xA DUP2 LT ISZERO PUSH2 0xF2 JUMPI DUP1 DUP1 PUSH2 0xEA SWAP1 PUSH2 0x1B6 JUMP JUMPDEST SWAP2 POP POP PUSH2 0xD6 JUMP JUMPDEST POP JUMP JUMPDEST PUSH1 0x0 DUP1 REVERT JUMPDEST PUSH1 0x0 DUP2 SWAP1 POP SWAP2 SWAP1 POP JUMP JUMPDEST PUSH2 0x10D DUP2 PUSH2 0xFA JUMP JUMPDEST DUP2 EQ PUSH2 0x118 JUMPI PUSH1 0x0 DUP1 REVERT JUMPDEST POP JUMP JUMPDEST PUSH1 0x0 DUP2 CALLDATALOAD SWAP1 POP PUSH2 0x12A DUP2 PUSH2 0x104 JUMP JUMPDEST SWAP3 SWAP2 POP POP JUMP JUMPDEST PUSH1 0x0 PUSH1 0x20 DUP3 DUP5 SUB SLT ISZERO PUSH2 0x146 JUMPI PUSH2 0x145 PUSH2 0xF5 JUMP JUMPDEST JUMPDEST PUSH1 0x0 PUSH2 0x154 DUP5 DUP3 DUP6 ADD PUSH2 0x11B JUMP JUMPDEST SWAP2 POP POP SWAP3 SWAP2 POP POP JUMP JUMPDEST PUSH2 0x166 DUP2 PUSH2 0xFA JUMP JUMPDEST DUP3 MSTORE POP POP JUMP JUMPDEST PUSH1 0x0 PUSH1 0x20 DUP3 ADD SWAP1 POP PUSH2 0x181 PUSH1 0x0 DUP4 ADD DUP5 PUSH2 0x15D JUMP JUMPDEST SWAP3 SWAP2 POP POP JUMP JUMPDEST PUSH32 0x4E487B7100000000000000000000000000000000000000000000000000000000 PUSH1 0x0 MSTORE PUSH1 0x11 PUSH1 0x4 MSTORE PUSH1 0x24 PUSH1 0x0 REVERT JUMPDEST PUSH1 0x0 PUSH2 0x1C1 DUP3 PUSH2 0xFA JUMP JUMPDEST SWAP2 POP PUSH32 0xFFFFFFFFFFFFFFFFFFFFFFFFFFFFFFFFFFFFFFFFFFFFFFFFFFFFFFFFFFFFFFFF DUP3 SUB PUSH2 0x1F3 JUMPI PUSH2 0x1F2 PUSH2 0x187 JUMP JUMPDEST JUMPDEST PUSH1 0x1 DUP3 ADD SWAP1 POP SWAP2 SWAP1 POP JUMP INVALID LOG2 PUSH5 0x6970667358 0x22 SLT KECCAK256 0xD8 SELFBALANCE CODESIZE 0xE5 SGT SWAP4 DUP16 RETURNDATACOPY 0xDD SUB 0xAD PUSH19 0x1DE234901B5E63DE2B50690BDE62F3451CA9 PUSH28 0x64736F6C634300080F00330000000000000000000000000000000000 "
				},
				"gasEstimates": {
					"creation": {
						"codeDepositCost": "112800",
						"executionCost": "159",
						"totalCost": "112959"
					},
					"external": {
						"loops()": "infinite",
						"sum(uint256)": "infinite"
					}
				},
				"methodIdentifiers": {
					"loops()": "938b9ceb",
					"sum(uint256)": "188b85b4"
				}
			},
			"storageLayout": {
				"storage": [],
				"types": null
			},
			"userdoc": {
				"kind": "user",
				"methods": {},
				"version": 1
			}
		}
	}
}