{
	"HelloWorld/29Event.sol": {
		"Event": {
			"abi": [
				{
					"anonymous": false,
					"inputs": [
						{
							"indexed": true,
							"internalType": "address",
							"name": "sender",
							"type": "address"
						},
						{
							"indexed": false,
							"internalType": "uint256",
							"name": "val",
							"type": "uint256"
						}
					],
					"name": "IndexedLog",
					"type": "event"
				},
				{
					"anonymous": false,
					"inputs": [
						{
							"indexed": false,
							"internalType": "string",
							"name": "message",
							"type": "string"
						},
						{
							"indexed": false,
							"internalType": "uint256",
							"name": "val",
							"type": "uint256"
						}
					],
					"name": "Log",
					"type": "event"
				},
				{
					"inputs": [],
					"name": "example",
					"outputs": [],
					"stateMutability": "nonpayable",
					"type": "function"
				}
			],
			"devdoc": {
				"kind": "dev",
				"methods": {},
				"version": 1
			},
			"evm": {
				"assembly": "    /* \"HelloWorld/29Event.sol\":58:246  contract Event {... */\n  mstore(0x40, 0x80)\n  callvalue\n  dup1\n  iszero\n  tag_1\n  jumpi\n  0x00\n  dup1\n  revert\ntag_1:\n  pop\n  dataSize(sub_0)\n  dup1\n  dataOffset(sub_0)\n  0x00\n  codecopy\n  0x00\n  return\nstop\n\nsub_0: assembly {\n        /* \"HelloWorld/29Event.sol\":58:246  contract Event {... */\n      mstore(0x40, 0x80)\n      callvalue\n      dup1\n      iszero\n      tag_1\n      jumpi\n      0x00\n      dup1\n      revert\n    tag_1:\n      pop\n      jumpi(tag_2, lt(calldatasize, 0x04))\n      shr(0xe0, calldataload(0x00))\n      dup1\n      0x54353f2f\n      eq\n      tag_3\n      jumpi\n    tag_2:\n      0x00\n      dup1\n      revert\n        /* \"HelloWorld/29Event.sol\":178:244  function example() external {... */\n    tag_3:\n      tag_4\n      tag_5\n      jump\t// in\n    tag_4:\n      stop\n    tag_5:\n        /* \"HelloWorld/29Event.sol\":221:237  Log(\"Foo\", 1234) */\n      0xdd970dd9b5bfe707922155b058a407655cb18288b807e2216442bca8ad83d6b5\n        /* \"HelloWorld/29Event.sol\":232:236  1234 */\n      0x04d2\n        /* \"HelloWorld/29Event.sol\":221:237  Log(\"Foo\", 1234) */\n      mload(0x40)\n      tag_7\n      swap2\n      swap1\n      tag_8\n      jump\t// in\n    tag_7:\n      mload(0x40)\n      dup1\n      swap2\n      sub\n      swap1\n      log1\n        /* \"HelloWorld/29Event.sol\":178:244  function example() external {... */\n      jump\t// out\n        /* \"#utility.yul\":7:176   */\n    tag_9:\n        /* \"#utility.yul\":91:102   */\n      0x00\n        /* \"#utility.yul\":125:131   */\n      dup3\n        /* \"#utility.yul\":120:123   */\n      dup3\n        /* \"#utility.yul\":113:132   */\n      mstore\n        /* \"#utility.yul\":165:169   */\n      0x20\n        /* \"#utility.yul\":160:163   */\n      dup3\n        /* \"#utility.yul\":156:170   */\n      add\n        /* \"#utility.yul\":141:170   */\n      swap1\n      pop\n        /* \"#utility.yul\":7:176   */\n      swap3\n      swap2\n      pop\n      pop\n      jump\t// out\n        /* \"#utility.yul\":182:335   */\n    tag_10:\n        /* \"#utility.yul\":322:327   */\n      0x466f6f0000000000000000000000000000000000000000000000000000000000\n        /* \"#utility.yul\":318:319   */\n      0x00\n        /* \"#utility.yul\":310:316   */\n      dup3\n        /* \"#utility.yul\":306:320   */\n      add\n        /* \"#utility.yul\":299:328   */\n      mstore\n        /* \"#utility.yul\":182:335   */\n      pop\n      jump\t// out\n        /* \"#utility.yul\":341:706   */\n    tag_11:\n        /* \"#utility.yul\":483:486   */\n      0x00\n        /* \"#utility.yul\":504:570   */\n      tag_21\n        /* \"#utility.yul\":568:569   */\n      0x03\n        /* \"#utility.yul\":563:566   */\n      dup4\n        /* \"#utility.yul\":504:570   */\n      tag_9\n      jump\t// in\n    tag_21:\n        /* \"#utility.yul\":497:570   */\n      swap2\n      pop\n        /* \"#utility.yul\":579:672   */\n      tag_22\n        /* \"#utility.yul\":668:671   */\n      dup3\n        /* \"#utility.yul\":579:672   */\n      tag_10\n      jump\t// in\n    tag_22:\n        /* \"#utility.yul\":697:699   */\n      0x20\n        /* \"#utility.yul\":692:695   */\n      dup3\n        /* \"#utility.yul\":688:700   */\n      add\n        /* \"#utility.yul\":681:700   */\n      swap1\n      pop\n        /* \"#utility.yul\":341:706   */\n      swap2\n      swap1\n      pop\n      jump\t// out\n        /* \"#utility.yul\":712:800   */\n    tag_12:\n        /* \"#utility.yul\":760:767   */\n      0x00\n        /* \"#utility.yul\":789:794   */\n      dup2\n        /* \"#utility.yul\":778:794   */\n      swap1\n      pop\n        /* \"#utility.yul\":712:800   */\n      swap2\n      swap1\n      pop\n      jump\t// out\n        /* \"#utility.yul\":806:883   */\n    tag_13:\n        /* \"#utility.yul\":843:850   */\n      0x00\n        /* \"#utility.yul\":872:877   */\n      dup2\n        /* \"#utility.yul\":861:877   */\n      swap1\n      pop\n        /* \"#utility.yul\":806:883   */\n      swap2\n      swap1\n      pop\n      jump\t// out\n        /* \"#utility.yul\":889:949   */\n    tag_14:\n        /* \"#utility.yul\":917:920   */\n      0x00\n        /* \"#utility.yul\":938:943   */\n      dup2\n        /* \"#utility.yul\":931:943   */\n      swap1\n      pop\n        /* \"#utility.yul\":889:949   */\n      swap2\n      swap1\n      pop\n      jump\t// out\n        /* \"#utility.yul\":955:1119   */\n    tag_15:\n        /* \"#utility.yul\":1016:1025   */\n      0x00\n        /* \"#utility.yul\":1049:1113   */\n      tag_27\n        /* \"#utility.yul\":1067:1112   */\n      tag_28\n        /* \"#utility.yul\":1076:1111   */\n      tag_29\n        /* \"#utility.yul\":1105:1110   */\n      dup5\n        /* \"#utility.yul\":1076:1111   */\n      tag_12\n      jump\t// in\n    tag_29:\n        /* \"#utility.yul\":1067:1112   */\n      tag_14\n      jump\t// in\n    tag_28:\n        /* \"#utility.yul\":1049:1113   */\n      tag_13\n      jump\t// in\n    tag_27:\n        /* \"#utility.yul\":1036:1113   */\n      swap1\n      pop\n        /* \"#utility.yul\":955:1119   */\n      swap2\n      swap1\n      pop\n      jump\t// out\n        /* \"#utility.yul\":1125:1278   */\n    tag_16:\n        /* \"#utility.yul\":1223:1271   */\n      tag_31\n        /* \"#utility.yul\":1265:1270   */\n      dup2\n        /* \"#utility.yul\":1223:1271   */\n      tag_15\n      jump\t// in\n    tag_31:\n        /* \"#utility.yul\":1218:1221   */\n      dup3\n        /* \"#utility.yul\":1211:1272   */\n      mstore\n        /* \"#utility.yul\":1125:1278   */\n      pop\n      pop\n      jump\t// out\n        /* \"#utility.yul\":1284:1835   */\n    tag_8:\n        /* \"#utility.yul\":1489:1493   */\n      0x00\n        /* \"#utility.yul\":1527:1529   */\n      0x40\n        /* \"#utility.yul\":1516:1525   */\n      dup3\n        /* \"#utility.yul\":1512:1530   */\n      add\n        /* \"#utility.yul\":1504:1530   */\n      swap1\n      pop\n        /* \"#utility.yul\":1576:1585   */\n      dup2\n        /* \"#utility.yul\":1570:1574   */\n      dup2\n        /* \"#utility.yul\":1566:1586   */\n      sub\n        /* \"#utility.yul\":1562:1563   */\n      0x00\n        /* \"#utility.yul\":1551:1560   */\n      dup4\n        /* \"#utility.yul\":1547:1564   */\n      add\n        /* \"#utility.yul\":1540:1587   */\n      mstore\n        /* \"#utility.yul\":1604:1735   */\n      tag_33\n        /* \"#utility.yul\":1730:1734   */\n      dup2\n        /* \"#utility.yul\":1604:1735   */\n      tag_11\n      jump\t// in\n    tag_33:\n        /* \"#utility.yul\":1596:1735   */\n      swap1\n      pop\n        /* \"#utility.yul\":1745:1828   */\n      tag_34\n        /* \"#utility.yul\":1824:1826   */\n      0x20\n        /* \"#utility.yul\":1813:1822   */\n      dup4\n        /* \"#utility.yul\":1809:1827   */\n      add\n        /* \"#utility.yul\":1800:1806   */\n      dup5\n        /* \"#utility.yul\":1745:1828   */\n      tag_16\n      jump\t// in\n    tag_34:\n        /* \"#utility.yul\":1284:1835   */\n      swap3\n      swap2\n      pop\n      pop\n      jump\t// out\n\n    auxdata: 0xa2646970667358221220f9c471503e945eb3bd02d814330e2eb31fa00da657e56db719c86499de0a03e164736f6c634300080f0033\n}\n",
				"bytecode": {
					"linkReferences": {},
					"object": "608060405234801561001057600080fd5b50610185806100206000396000f3fe608060405234801561001057600080fd5b506004361061002b5760003560e01c806354353f2f14610030575b600080fd5b61003861003a565b005b7fdd970dd9b5bfe707922155b058a407655cb18288b807e2216442bca8ad83d6b56104d260405161006b9190610121565b60405180910390a1565b600082825260208201905092915050565b7f466f6f0000000000000000000000000000000000000000000000000000000000600082015250565b60006100bc600383610075565b91506100c782610086565b602082019050919050565b6000819050919050565b6000819050919050565b6000819050919050565b600061010b610106610101846100d2565b6100e6565b6100dc565b9050919050565b61011b816100f0565b82525050565b6000604082019050818103600083015261013a816100af565b90506101496020830184610112565b9291505056fea2646970667358221220f9c471503e945eb3bd02d814330e2eb31fa00da657e56db719c86499de0a03e164736f6c634300080f0033",
					"opcodes": "PUSH1 0x80 PUSH1 0x40 MSTORE CALLVALUE DUP1 ISZERO PUSH2 0x10 JUMPI PUSH1 0x0 DUP1 REVERT JUMPDEST POP PUSH2 0x185 DUP1 PUSH2 0x20 PUSH1 0x0 CODECOPY PUSH1 0x0 RETURN INVALID PUSH1 0x80 PUSH1 0x40 MSTORE CALLVALUE DUP1 ISZERO PUSH2 0x10 JUMPI PUSH1 0x0 DUP1 REVERT JUMPDEST POP PUSH1 0x4 CALLDATASIZE LT PUSH2 0x2B JUMPI PUSH1 0x0 CALLDATALOAD PUSH1 0xE0 SHR DUP1 PUSH4 0x54353F2F EQ PUSH2 0x30 JUMPI JUMPDEST PUSH1 0x0 DUP1 REVERT JUMPDEST PUSH2 0x38 PUSH2 0x3A JUMP JUMPDEST STOP JUMPDEST PUSH32 0xDD970DD9B5BFE707922155B058A407655CB18288B807E2216442BCA8AD83D6B5 PUSH2 0x4D2 PUSH1 0x40 MLOAD PUSH2 0x6B SWAP2 SWAP1 PUSH2 0x121 JUMP JUMPDEST PUSH1 0x40 MLOAD DUP1 SWAP2 SUB SWAP1 LOG1 JUMP JUMPDEST PUSH1 0x0 DUP3 DUP3 MSTORE PUSH1 0x20 DUP3 ADD SWAP1 POP SWAP3 SWAP2 POP POP JUMP JUMPDEST PUSH32 0x466F6F0000000000000000000000000000000000000000000000000000000000 PUSH1 0x0 DUP3 ADD MSTORE POP JUMP JUMPDEST PUSH1 0x0 PUSH2 0xBC PUSH1 0x3 DUP4 PUSH2 0x75 JUMP JUMPDEST SWAP2 POP PUSH2 0xC7 DUP3 PUSH2 0x86 JUMP JUMPDEST PUSH1 0x20 DUP3 ADD SWAP1 POP SWAP2 SWAP1 POP JUMP JUMPDEST PUSH1 0x0 DUP2 SWAP1 POP SWAP2 SWAP1 POP JUMP JUMPDEST PUSH1 0x0 DUP2 SWAP1 POP SWAP2 SWAP1 POP JUMP JUMPDEST PUSH1 0x0 DUP2 SWAP1 POP SWAP2 SWAP1 POP JUMP JUMPDEST PUSH1 0x0 PUSH2 0x10B PUSH2 0x106 PUSH2 0x101 DUP5 PUSH2 0xD2 JUMP JUMPDEST PUSH2 0xE6 JUMP JUMPDEST PUSH2 0xDC JUMP JUMPDEST SWAP1 POP SWAP2 SWAP1 POP JUMP JUMPDEST PUSH2 0x11B DUP2 PUSH2 0xF0 JUMP JUMPDEST DUP3 MSTORE POP POP JUMP JUMPDEST PUSH1 0x0 PUSH1 0x40 DUP3 ADD SWAP1 POP DUP2 DUP2 SUB PUSH1 0x0 DUP4 ADD MSTORE PUSH2 0x13A DUP2 PUSH2 0xAF JUMP JUMPDEST SWAP1 POP PUSH2 0x149 PUSH1 0x20 DUP4 ADD DUP5 PUSH2 0x112 JUMP JUMPDEST SWAP3 SWAP2 POP POP JUMP INVALID LOG2 PUSH5 0x6970667358 0x22 SLT KECCAK256 0xF9 0xC4 PUSH18 0x503E945EB3BD02D814330E2EB31FA00DA657 0xE5 PUSH14 0xB719C86499DE0A03E164736F6C63 NUMBER STOP ADDMOD 0xF STOP CALLER "
				},
				"gasEstimates": {
					"creation": {
						"codeDepositCost": "77800",
						"executionCost": "129",
						"totalCost": "77929"
					},
					"external": {
						"example()": "2412"
					}
				},
				"methodIdentifiers": {
					"example()": "54353f2f"
				}
			},
			"storageLayout": {
				"storage": [],
				"types": null
			},
			"userdoc": {
				"kind": "user",
				"methods": {},
				"version": 1
			}
		}
	}
}