{
	"HelloWorld/12ForAndWhileLoops.sol": {
		"ForAndWhileLoops": {
			"abi": [
				{
					"inputs": [],
					"name": "loops",
					"outputs": [],
					"stateMutability": "pure",
					"type": "function"
				}
			],
			"devdoc": {
				"kind": "dev",
				"methods": {},
				"version": 1
			},
			"evm": {
				"assembly": "    /* \"HelloWorld/12ForAndWhileLoops.sol\":56:370  contract ForAndWhileLoops {... */\n  mstore(0x40, 0x80)\n  callvalue\n  dup1\n  iszero\n  tag_1\n  jumpi\n  0x00\n  dup1\n  revert\ntag_1:\n  pop\n  dataSize(sub_0)\n  dup1\n  dataOffset(sub_0)\n  0x00\n  codecopy\n  0x00\n  return\nstop\n\nsub_0: assembly {\n        /* \"HelloWorld/12ForAndWhileLoops.sol\":56:370  contract ForAndWhileLoops {... */\n      mstore(0x40, 0x80)\n      callvalue\n      dup1\n      iszero\n      tag_1\n      jumpi\n      0x00\n      dup1\n      revert\n    tag_1:\n      pop\n      jumpi(tag_2, lt(calldatasize, 0x04))\n      shr(0xe0, calldataload(0x00))\n      dup1\n      0x938b9ceb\n      eq\n      tag_3\n      jumpi\n    tag_2:\n      0x00\n      dup1\n      revert\n        /* \"HelloWorld/12ForAndWhileLoops.sol\":88:368  function loops() external pure {... */\n    tag_3:\n      tag_4\n      tag_5\n      jump\t// in\n    tag_4:\n      stop\n    tag_5:\n        /* \"HelloWorld/12ForAndWhileLoops.sol\":133:139  uint i */\n      0x00\n        /* \"HelloWorld/12ForAndWhileLoops.sol\":129:296  for(uint i = 0; i < 10; i++) {... */\n    tag_7:\n        /* \"HelloWorld/12ForAndWhileLoops.sol\":149:151  10 */\n      0x0a\n        /* \"HelloWorld/12ForAndWhileLoops.sol\":145:146  i */\n      dup2\n        /* \"HelloWorld/12ForAndWhileLoops.sol\":145:151  i < 10 */\n      lt\n        /* \"HelloWorld/12ForAndWhileLoops.sol\":129:296  for(uint i = 0; i < 10; i++) {... */\n      iszero\n      tag_8\n      jumpi\n        /* \"HelloWorld/12ForAndWhileLoops.sol\":180:181  3 */\n      0x03\n        /* \"HelloWorld/12ForAndWhileLoops.sol\":175:176  i */\n      dup2\n        /* \"HelloWorld/12ForAndWhileLoops.sol\":175:181  i == 3 */\n      sub\n        /* \"HelloWorld/12ForAndWhileLoops.sol\":172:224  if(i == 3) {... */\n      iszero\n        /* \"HelloWorld/12ForAndWhileLoops.sol\":201:209  continue */\n      tag_9\n        /* \"HelloWorld/12ForAndWhileLoops.sol\":172:224  if(i == 3) {... */\n      jumpi\n        /* \"HelloWorld/12ForAndWhileLoops.sol\":245:246  5 */\n      0x05\n        /* \"HelloWorld/12ForAndWhileLoops.sol\":240:241  i */\n      dup2\n        /* \"HelloWorld/12ForAndWhileLoops.sol\":240:246  i == 5 */\n      sub\n        /* \"HelloWorld/12ForAndWhileLoops.sol\":237:286  if(i == 5) {... */\n      iszero\n        /* \"HelloWorld/12ForAndWhileLoops.sol\":266:271  break */\n      tag_8\n        /* \"HelloWorld/12ForAndWhileLoops.sol\":237:286  if(i == 5) {... */\n      jumpi\n        /* \"HelloWorld/12ForAndWhileLoops.sol\":129:296  for(uint i = 0; i < 10; i++) {... */\n    tag_9:\n        /* \"HelloWorld/12ForAndWhileLoops.sol\":153:156  i++ */\n      dup1\n      dup1\n      tag_12\n      swap1\n      tag_13\n      jump\t// in\n    tag_12:\n      swap2\n      pop\n      pop\n        /* \"HelloWorld/12ForAndWhileLoops.sol\":129:296  for(uint i = 0; i < 10; i++) {... */\n      jump(tag_7)\n    tag_8:\n      pop\n        /* \"HelloWorld/12ForAndWhileLoops.sol\":305:311  uint j */\n      0x00\n        /* \"HelloWorld/12ForAndWhileLoops.sol\":325:362  while(j < 10){... */\n    tag_14:\n        /* \"HelloWorld/12ForAndWhileLoops.sol\":335:337  10 */\n      0x0a\n        /* \"HelloWorld/12ForAndWhileLoops.sol\":331:332  j */\n      dup2\n        /* \"HelloWorld/12ForAndWhileLoops.sol\":331:337  j < 10 */\n      lt\n        /* \"HelloWorld/12ForAndWhileLoops.sol\":325:362  while(j < 10){... */\n      tag_14\n      jumpi\n        /* \"HelloWorld/12ForAndWhileLoops.sol\":119:368  {... */\n      pop\n        /* \"HelloWorld/12ForAndWhileLoops.sol\":88:368  function loops() external pure {... */\n      jump\t// out\n        /* \"#utility.yul\":7:187   */\n    tag_16:\n        /* \"#utility.yul\":55:132   */\n      0x4e487b7100000000000000000000000000000000000000000000000000000000\n        /* \"#utility.yul\":52:53   */\n      0x00\n        /* \"#utility.yul\":45:133   */\n      mstore\n        /* \"#utility.yul\":152:156   */\n      0x11\n        /* \"#utility.yul\":149:150   */\n      0x04\n        /* \"#utility.yul\":142:157   */\n      mstore\n        /* \"#utility.yul\":176:180   */\n      0x24\n        /* \"#utility.yul\":173:174   */\n      0x00\n        /* \"#utility.yul\":166:181   */\n      revert\n        /* \"#utility.yul\":193:270   */\n    tag_17:\n        /* \"#utility.yul\":230:237   */\n      0x00\n        /* \"#utility.yul\":259:264   */\n      dup2\n        /* \"#utility.yul\":248:264   */\n      swap1\n      pop\n        /* \"#utility.yul\":193:270   */\n      swap2\n      swap1\n      pop\n      jump\t// out\n        /* \"#utility.yul\":276:509   */\n    tag_13:\n        /* \"#utility.yul\":315:318   */\n      0x00\n        /* \"#utility.yul\":338:362   */\n      tag_22\n        /* \"#utility.yul\":356:361   */\n      dup3\n        /* \"#utility.yul\":338:362   */\n      tag_17\n      jump\t// in\n    tag_22:\n        /* \"#utility.yul\":329:362   */\n      swap2\n      pop\n        /* \"#utility.yul\":384:450   */\n      0xffffffffffffffffffffffffffffffffffffffffffffffffffffffffffffffff\n        /* \"#utility.yul\":377:382   */\n      dup3\n        /* \"#utility.yul\":374:451   */\n      sub\n        /* \"#utility.yul\":371:474   */\n      tag_23\n      jumpi\n        /* \"#utility.yul\":454:472   */\n      tag_24\n      tag_16\n      jump\t// in\n    tag_24:\n        /* \"#utility.yul\":371:474   */\n    tag_23:\n        /* \"#utility.yul\":501:502   */\n      0x01\n        /* \"#utility.yul\":494:499   */\n      dup3\n        /* \"#utility.yul\":490:503   */\n      add\n        /* \"#utility.yul\":483:503   */\n      swap1\n      pop\n        /* \"#utility.yul\":276:509   */\n      swap2\n      swap1\n      pop\n      jump\t// out\n\n    auxdata: 0xa26469706673582212208a957a217b246a93bccd1da94c862e0ab9aca2782cec37d5e08a72c78ed86d0364736f6c634300080f0033\n}\n",
				"bytecode": {
					"linkReferences": {},
					"object": "608060405234801561001057600080fd5b50610121806100206000396000f3fe6080604052348015600f57600080fd5b506004361060285760003560e01c8063938b9ceb14602d575b600080fd5b60336035565b005b60005b600a811015606157600381031560515760058103156061575b8080605a9060a8565b9150506038565b5060005b600a811060655750565b7f4e487b7100000000000000000000000000000000000000000000000000000000600052601160045260246000fd5b6000819050919050565b600060b182609e565b91507fffffffffffffffffffffffffffffffffffffffffffffffffffffffffffffffff820360e05760df606f565b5b60018201905091905056fea26469706673582212208a957a217b246a93bccd1da94c862e0ab9aca2782cec37d5e08a72c78ed86d0364736f6c634300080f0033",
					"opcodes": "PUSH1 0x80 PUSH1 0x40 MSTORE CALLVALUE DUP1 ISZERO PUSH2 0x10 JUMPI PUSH1 0x0 DUP1 REVERT JUMPDEST POP PUSH2 0x121 DUP1 PUSH2 0x20 PUSH1 0x0 CODECOPY PUSH1 0x0 RETURN INVALID PUSH1 0x80 PUSH1 0x40 MSTORE CALLVALUE DUP1 ISZERO PUSH1 0xF JUMPI PUSH1 0x0 DUP1 REVERT JUMPDEST POP PUSH1 0x4 CALLDATASIZE LT PUSH1 0x28 JUMPI PUSH1 0x0 CALLDATALOAD PUSH1 0xE0 SHR DUP1 PUSH4 0x938B9CEB EQ PUSH1 0x2D JUMPI JUMPDEST PUSH1 0x0 DUP1 REVERT JUMPDEST PUSH1 0x33 PUSH1 0x35 JUMP JUMPDEST STOP JUMPDEST PUSH1 0x0 JUMPDEST PUSH1 0xA DUP2 LT ISZERO PUSH1 0x61 JUMPI PUSH1 0x3 DUP2 SUB ISZERO PUSH1 0x51 JUMPI PUSH1 0x5 DUP2 SUB ISZERO PUSH1 0x61 JUMPI JUMPDEST DUP1 DUP1 PUSH1 0x5A SWAP1 PUSH1 0xA8 JUMP JUMPDEST SWAP2 POP POP PUSH1 0x38 JUMP JUMPDEST POP PUSH1 0x0 JUMPDEST PUSH1 0xA DUP2 LT PUSH1 0x65 JUMPI POP JUMP JUMPDEST PUSH32 0x4E487B7100000000000000000000000000000000000000000000000000000000 PUSH1 0x0 MSTORE PUSH1 0x11 PUSH1 0x4 MSTORE PUSH1 0x24 PUSH1 0x0 REVERT JUMPDEST PUSH1 0x0 DUP2 SWAP1 POP SWAP2 SWAP1 POP JUMP JUMPDEST PUSH1 0x0 PUSH1 0xB1 DUP3 PUSH1 0x9E JUMP JUMPDEST SWAP2 POP PUSH32 0xFFFFFFFFFFFFFFFFFFFFFFFFFFFFFFFFFFFFFFFFFFFFFFFFFFFFFFFFFFFFFFFF DUP3 SUB PUSH1 0xE0 JUMPI PUSH1 0xDF PUSH1 0x6F JUMP JUMPDEST JUMPDEST PUSH1 0x1 DUP3 ADD SWAP1 POP SWAP2 SWAP1 POP JUMP INVALID LOG2 PUSH5 0x6970667358 0x22 SLT KECCAK256 DUP11 SWAP6 PUSH27 0x217B246A93BCCD1DA94C862E0AB9ACA2782CEC37D5E08A72C78ED8 PUSH14 0x364736F6C634300080F00330000 "
				},
				"gasEstimates": {
					"creation": {
						"codeDepositCost": "57800",
						"executionCost": "111",
						"totalCost": "57911"
					},
					"external": {
						"loops()": "infinite"
					}
				},
				"methodIdentifiers": {
					"loops()": "938b9ceb"
				}
			},
			"storageLayout": {
				"storage": [],
				"types": null
			},
			"userdoc": {
				"kind": "user",
				"methods": {},
				"version": 1
			}
		}
	}
}