{
	"HelloWorld/26DataLocations.sol": {
		"DataLocations": {
			"abi": [
				{
					"inputs": [
						{
							"internalType": "uint256[]",
							"name": "y",
							"type": "uint256[]"
						},
						{
							"internalType": "string",
							"name": "s",
							"type": "string"
						}
					],
					"name": "examples",
					"outputs": [
						{
							"internalType": "uint256[]",
							"name": "",
							"type": "uint256[]"
						}
					],
					"stateMutability": "nonpayable",
					"type": "function"
				},
				{
					"inputs": [
						{
							"internalType": "address",
							"name": "",
							"type": "address"
						}
					],
					"name": "myStructs",
					"outputs": [
						{
							"internalType": "uint256",
							"name": "foo",
							"type": "uint256"
						},
						{
							"internalType": "string",
							"name": "text",
							"type": "string"
						}
					],
					"stateMutability": "view",
					"type": "function"
				}
			],
			"devdoc": {
				"kind": "dev",
				"methods": {},
				"version": 1
			},
			"evm": {
				"assembly": "    /* \"HelloWorld/26DataLocations.sol\":57:295  contract DataLocations {... */\n  mstore(0x40, 0x80)\n  callvalue\n  dup1\n  iszero\n  tag_1\n  jumpi\n  0x00\n  dup1\n  revert\ntag_1:\n  pop\n  dataSize(sub_0)\n  dup1\n  dataOffset(sub_0)\n  0x00\n  codecopy\n  0x00\n  return\nstop\n\nsub_0: assembly {\n        /* \"HelloWorld/26DataLocations.sol\":57:295  contract DataLocations {... */\n      mstore(0x40, 0x80)\n      callvalue\n      dup1\n      iszero\n      tag_1\n      jumpi\n      0x00\n      dup1\n      revert\n    tag_1:\n      pop\n      jumpi(tag_2, lt(calldatasize, 0x04))\n      shr(0xe0, calldataload(0x00))\n      dup1\n      0xb43c5d33\n      eq\n      tag_3\n      jumpi\n      dup1\n      0xfc277a95\n      eq\n      tag_4\n      jumpi\n    tag_2:\n      0x00\n      dup1\n      revert\n        /* \"HelloWorld/26DataLocations.sol\":154:199  mapping(address => MyStruct) public myStructs */\n    tag_3:\n      tag_5\n      0x04\n      dup1\n      calldatasize\n      sub\n      dup2\n      add\n      swap1\n      tag_6\n      swap2\n      swap1\n      tag_7\n      jump\t// in\n    tag_6:\n      tag_8\n      jump\t// in\n    tag_5:\n      mload(0x40)\n      tag_9\n      swap3\n      swap2\n      swap1\n      tag_10\n      jump\t// in\n    tag_9:\n      mload(0x40)\n      dup1\n      swap2\n      sub\n      swap1\n      return\n        /* \"HelloWorld/26DataLocations.sol\":206:293  function examples(uint [] memory y, string memory s) external returns(uint[] memory) {} */\n    tag_4:\n      tag_11\n      0x04\n      dup1\n      calldatasize\n      sub\n      dup2\n      add\n      swap1\n      tag_12\n      swap2\n      swap1\n      tag_13\n      jump\t// in\n    tag_12:\n      tag_14\n      jump\t// in\n    tag_11:\n      mload(0x40)\n      tag_15\n      swap2\n      swap1\n      tag_16\n      jump\t// in\n    tag_15:\n      mload(0x40)\n      dup1\n      swap2\n      sub\n      swap1\n      return\n        /* \"HelloWorld/26DataLocations.sol\":154:199  mapping(address => MyStruct) public myStructs */\n    tag_8:\n      mstore(0x20, 0x00)\n      dup1\n      0x00\n      mstore\n      keccak256(0x00, 0x40)\n      0x00\n      swap2\n      pop\n      swap1\n      pop\n      dup1\n      0x00\n      add\n      sload\n      swap1\n      dup1\n      0x01\n      add\n      dup1\n      sload\n      tag_17\n      swap1\n      tag_18\n      jump\t// in\n    tag_17:\n      dup1\n      0x1f\n      add\n      0x20\n      dup1\n      swap2\n      div\n      mul\n      0x20\n      add\n      mload(0x40)\n      swap1\n      dup2\n      add\n      0x40\n      mstore\n      dup1\n      swap3\n      swap2\n      swap1\n      dup2\n      dup2\n      mstore\n      0x20\n      add\n      dup3\n      dup1\n      sload\n      tag_19\n      swap1\n      tag_18\n      jump\t// in\n    tag_19:\n      dup1\n      iszero\n      tag_20\n      jumpi\n      dup1\n      0x1f\n      lt\n      tag_21\n      jumpi\n      0x0100\n      dup1\n      dup4\n      sload\n      div\n      mul\n      dup4\n      mstore\n      swap2\n      0x20\n      add\n      swap2\n      jump(tag_20)\n    tag_21:\n      dup3\n      add\n      swap2\n      swap1\n      0x00\n      mstore\n      keccak256(0x00, 0x20)\n      swap1\n    tag_22:\n      dup2\n      sload\n      dup2\n      mstore\n      swap1\n      0x01\n      add\n      swap1\n      0x20\n      add\n      dup1\n      dup4\n      gt\n      tag_22\n      jumpi\n      dup3\n      swap1\n      sub\n      0x1f\n      and\n      dup3\n      add\n      swap2\n    tag_20:\n      pop\n      pop\n      pop\n      pop\n      pop\n      swap1\n      pop\n      dup3\n      jump\t// out\n        /* \"HelloWorld/26DataLocations.sol\":206:293  function examples(uint [] memory y, string memory s) external returns(uint[] memory) {} */\n    tag_14:\n        /* \"HelloWorld/26DataLocations.sol\":276:289  uint[] memory */\n      0x60\n        /* \"HelloWorld/26DataLocations.sol\":206:293  function examples(uint [] memory y, string memory s) external returns(uint[] memory) {} */\n      swap3\n      swap2\n      pop\n      pop\n      jump\t// out\n        /* \"#utility.yul\":7:82   */\n    tag_24:\n        /* \"#utility.yul\":40:46   */\n      0x00\n        /* \"#utility.yul\":73:75   */\n      0x40\n        /* \"#utility.yul\":67:76   */\n      mload\n        /* \"#utility.yul\":57:76   */\n      swap1\n      pop\n        /* \"#utility.yul\":7:82   */\n      swap1\n      jump\t// out\n        /* \"#utility.yul\":88:205   */\n    tag_25:\n        /* \"#utility.yul\":197:198   */\n      0x00\n        /* \"#utility.yul\":194:195   */\n      dup1\n        /* \"#utility.yul\":187:199   */\n      revert\n        /* \"#utility.yul\":211:328   */\n    tag_26:\n        /* \"#utility.yul\":320:321   */\n      0x00\n        /* \"#utility.yul\":317:318   */\n      dup1\n        /* \"#utility.yul\":310:322   */\n      revert\n        /* \"#utility.yul\":334:460   */\n    tag_27:\n        /* \"#utility.yul\":371:378   */\n      0x00\n        /* \"#utility.yul\":411:453   */\n      0xffffffffffffffffffffffffffffffffffffffff\n        /* \"#utility.yul\":404:409   */\n      dup3\n        /* \"#utility.yul\":400:454   */\n      and\n        /* \"#utility.yul\":389:454   */\n      swap1\n      pop\n        /* \"#utility.yul\":334:460   */\n      swap2\n      swap1\n      pop\n      jump\t// out\n        /* \"#utility.yul\":466:562   */\n    tag_28:\n        /* \"#utility.yul\":503:510   */\n      0x00\n        /* \"#utility.yul\":532:556   */\n      tag_67\n        /* \"#utility.yul\":550:555   */\n      dup3\n        /* \"#utility.yul\":532:556   */\n      tag_27\n      jump\t// in\n    tag_67:\n        /* \"#utility.yul\":521:556   */\n      swap1\n      pop\n        /* \"#utility.yul\":466:562   */\n      swap2\n      swap1\n      pop\n      jump\t// out\n        /* \"#utility.yul\":568:690   */\n    tag_29:\n        /* \"#utility.yul\":641:665   */\n      tag_69\n        /* \"#utility.yul\":659:664   */\n      dup2\n        /* \"#utility.yul\":641:665   */\n      tag_28\n      jump\t// in\n    tag_69:\n        /* \"#utility.yul\":634:639   */\n      dup2\n        /* \"#utility.yul\":631:666   */\n      eq\n        /* \"#utility.yul\":621:684   */\n      tag_70\n      jumpi\n        /* \"#utility.yul\":680:681   */\n      0x00\n        /* \"#utility.yul\":677:678   */\n      dup1\n        /* \"#utility.yul\":670:682   */\n      revert\n        /* \"#utility.yul\":621:684   */\n    tag_70:\n        /* \"#utility.yul\":568:690   */\n      pop\n      jump\t// out\n        /* \"#utility.yul\":696:835   */\n    tag_30:\n        /* \"#utility.yul\":742:747   */\n      0x00\n        /* \"#utility.yul\":780:786   */\n      dup2\n        /* \"#utility.yul\":767:787   */\n      calldataload\n        /* \"#utility.yul\":758:787   */\n      swap1\n      pop\n        /* \"#utility.yul\":796:829   */\n      tag_72\n        /* \"#utility.yul\":823:828   */\n      dup2\n        /* \"#utility.yul\":796:829   */\n      tag_29\n      jump\t// in\n    tag_72:\n        /* \"#utility.yul\":696:835   */\n      swap3\n      swap2\n      pop\n      pop\n      jump\t// out\n        /* \"#utility.yul\":841:1170   */\n    tag_7:\n        /* \"#utility.yul\":900:906   */\n      0x00\n        /* \"#utility.yul\":949:951   */\n      0x20\n        /* \"#utility.yul\":937:946   */\n      dup3\n        /* \"#utility.yul\":928:935   */\n      dup5\n        /* \"#utility.yul\":924:947   */\n      sub\n        /* \"#utility.yul\":920:952   */\n      slt\n        /* \"#utility.yul\":917:1036   */\n      iszero\n      tag_74\n      jumpi\n        /* \"#utility.yul\":955:1034   */\n      tag_75\n      tag_25\n      jump\t// in\n    tag_75:\n        /* \"#utility.yul\":917:1036   */\n    tag_74:\n        /* \"#utility.yul\":1075:1076   */\n      0x00\n        /* \"#utility.yul\":1100:1153   */\n      tag_76\n        /* \"#utility.yul\":1145:1152   */\n      dup5\n        /* \"#utility.yul\":1136:1142   */\n      dup3\n        /* \"#utility.yul\":1125:1134   */\n      dup6\n        /* \"#utility.yul\":1121:1143   */\n      add\n        /* \"#utility.yul\":1100:1153   */\n      tag_30\n      jump\t// in\n    tag_76:\n        /* \"#utility.yul\":1090:1153   */\n      swap2\n      pop\n        /* \"#utility.yul\":1046:1163   */\n      pop\n        /* \"#utility.yul\":841:1170   */\n      swap3\n      swap2\n      pop\n      pop\n      jump\t// out\n        /* \"#utility.yul\":1176:1253   */\n    tag_31:\n        /* \"#utility.yul\":1213:1220   */\n      0x00\n        /* \"#utility.yul\":1242:1247   */\n      dup2\n        /* \"#utility.yul\":1231:1247   */\n      swap1\n      pop\n        /* \"#utility.yul\":1176:1253   */\n      swap2\n      swap1\n      pop\n      jump\t// out\n        /* \"#utility.yul\":1259:1377   */\n    tag_32:\n        /* \"#utility.yul\":1346:1370   */\n      tag_79\n        /* \"#utility.yul\":1364:1369   */\n      dup2\n        /* \"#utility.yul\":1346:1370   */\n      tag_31\n      jump\t// in\n    tag_79:\n        /* \"#utility.yul\":1341:1344   */\n      dup3\n        /* \"#utility.yul\":1334:1371   */\n      mstore\n        /* \"#utility.yul\":1259:1377   */\n      pop\n      pop\n      jump\t// out\n        /* \"#utility.yul\":1383:1482   */\n    tag_33:\n        /* \"#utility.yul\":1435:1441   */\n      0x00\n        /* \"#utility.yul\":1469:1474   */\n      dup2\n        /* \"#utility.yul\":1463:1475   */\n      mload\n        /* \"#utility.yul\":1453:1475   */\n      swap1\n      pop\n        /* \"#utility.yul\":1383:1482   */\n      swap2\n      swap1\n      pop\n      jump\t// out\n        /* \"#utility.yul\":1488:1657   */\n    tag_34:\n        /* \"#utility.yul\":1572:1583   */\n      0x00\n        /* \"#utility.yul\":1606:1612   */\n      dup3\n        /* \"#utility.yul\":1601:1604   */\n      dup3\n        /* \"#utility.yul\":1594:1613   */\n      mstore\n        /* \"#utility.yul\":1646:1650   */\n      0x20\n        /* \"#utility.yul\":1641:1644   */\n      dup3\n        /* \"#utility.yul\":1637:1651   */\n      add\n        /* \"#utility.yul\":1622:1651   */\n      swap1\n      pop\n        /* \"#utility.yul\":1488:1657   */\n      swap3\n      swap2\n      pop\n      pop\n      jump\t// out\n        /* \"#utility.yul\":1663:1970   */\n    tag_35:\n        /* \"#utility.yul\":1731:1732   */\n      0x00\n        /* \"#utility.yul\":1741:1854   */\n    tag_83:\n        /* \"#utility.yul\":1755:1761   */\n      dup4\n        /* \"#utility.yul\":1752:1753   */\n      dup2\n        /* \"#utility.yul\":1749:1762   */\n      lt\n        /* \"#utility.yul\":1741:1854   */\n      iszero\n      tag_85\n      jumpi\n        /* \"#utility.yul\":1840:1841   */\n      dup1\n        /* \"#utility.yul\":1835:1838   */\n      dup3\n        /* \"#utility.yul\":1831:1842   */\n      add\n        /* \"#utility.yul\":1825:1843   */\n      mload\n        /* \"#utility.yul\":1821:1822   */\n      dup2\n        /* \"#utility.yul\":1816:1819   */\n      dup5\n        /* \"#utility.yul\":1812:1823   */\n      add\n        /* \"#utility.yul\":1805:1844   */\n      mstore\n        /* \"#utility.yul\":1777:1779   */\n      0x20\n        /* \"#utility.yul\":1774:1775   */\n      dup2\n        /* \"#utility.yul\":1770:1780   */\n      add\n        /* \"#utility.yul\":1765:1780   */\n      swap1\n      pop\n        /* \"#utility.yul\":1741:1854   */\n      jump(tag_83)\n    tag_85:\n        /* \"#utility.yul\":1872:1878   */\n      dup4\n        /* \"#utility.yul\":1869:1870   */\n      dup2\n        /* \"#utility.yul\":1866:1879   */\n      gt\n        /* \"#utility.yul\":1863:1964   */\n      iszero\n      tag_86\n      jumpi\n        /* \"#utility.yul\":1952:1953   */\n      0x00\n        /* \"#utility.yul\":1943:1949   */\n      dup5\n        /* \"#utility.yul\":1938:1941   */\n      dup5\n        /* \"#utility.yul\":1934:1950   */\n      add\n        /* \"#utility.yul\":1927:1954   */\n      mstore\n        /* \"#utility.yul\":1863:1964   */\n    tag_86:\n        /* \"#utility.yul\":1712:1970   */\n      pop\n        /* \"#utility.yul\":1663:1970   */\n      pop\n      pop\n      pop\n      jump\t// out\n        /* \"#utility.yul\":1976:2078   */\n    tag_36:\n        /* \"#utility.yul\":2017:2023   */\n      0x00\n        /* \"#utility.yul\":2068:2070   */\n      0x1f\n        /* \"#utility.yul\":2064:2071   */\n      not\n        /* \"#utility.yul\":2059:2061   */\n      0x1f\n        /* \"#utility.yul\":2052:2057   */\n      dup4\n        /* \"#utility.yul\":2048:2062   */\n      add\n        /* \"#utility.yul\":2044:2072   */\n      and\n        /* \"#utility.yul\":2034:2072   */\n      swap1\n      pop\n        /* \"#utility.yul\":1976:2078   */\n      swap2\n      swap1\n      pop\n      jump\t// out\n        /* \"#utility.yul\":2084:2448   */\n    tag_37:\n        /* \"#utility.yul\":2172:2175   */\n      0x00\n        /* \"#utility.yul\":2200:2239   */\n      tag_89\n        /* \"#utility.yul\":2233:2238   */\n      dup3\n        /* \"#utility.yul\":2200:2239   */\n      tag_33\n      jump\t// in\n    tag_89:\n        /* \"#utility.yul\":2255:2326   */\n      tag_90\n        /* \"#utility.yul\":2319:2325   */\n      dup2\n        /* \"#utility.yul\":2314:2317   */\n      dup6\n        /* \"#utility.yul\":2255:2326   */\n      tag_34\n      jump\t// in\n    tag_90:\n        /* \"#utility.yul\":2248:2326   */\n      swap4\n      pop\n        /* \"#utility.yul\":2335:2387   */\n      tag_91\n        /* \"#utility.yul\":2380:2386   */\n      dup2\n        /* \"#utility.yul\":2375:2378   */\n      dup6\n        /* \"#utility.yul\":2368:2372   */\n      0x20\n        /* \"#utility.yul\":2361:2366   */\n      dup7\n        /* \"#utility.yul\":2357:2373   */\n      add\n        /* \"#utility.yul\":2335:2387   */\n      tag_35\n      jump\t// in\n    tag_91:\n        /* \"#utility.yul\":2412:2441   */\n      tag_92\n        /* \"#utility.yul\":2434:2440   */\n      dup2\n        /* \"#utility.yul\":2412:2441   */\n      tag_36\n      jump\t// in\n    tag_92:\n        /* \"#utility.yul\":2407:2410   */\n      dup5\n        /* \"#utility.yul\":2403:2442   */\n      add\n        /* \"#utility.yul\":2396:2442   */\n      swap2\n      pop\n        /* \"#utility.yul\":2176:2448   */\n      pop\n        /* \"#utility.yul\":2084:2448   */\n      swap3\n      swap2\n      pop\n      pop\n      jump\t// out\n        /* \"#utility.yul\":2454:2877   */\n    tag_10:\n        /* \"#utility.yul\":2595:2599   */\n      0x00\n        /* \"#utility.yul\":2633:2635   */\n      0x40\n        /* \"#utility.yul\":2622:2631   */\n      dup3\n        /* \"#utility.yul\":2618:2636   */\n      add\n        /* \"#utility.yul\":2610:2636   */\n      swap1\n      pop\n        /* \"#utility.yul\":2646:2717   */\n      tag_94\n        /* \"#utility.yul\":2714:2715   */\n      0x00\n        /* \"#utility.yul\":2703:2712   */\n      dup4\n        /* \"#utility.yul\":2699:2716   */\n      add\n        /* \"#utility.yul\":2690:2696   */\n      dup6\n        /* \"#utility.yul\":2646:2717   */\n      tag_32\n      jump\t// in\n    tag_94:\n        /* \"#utility.yul\":2764:2773   */\n      dup2\n        /* \"#utility.yul\":2758:2762   */\n      dup2\n        /* \"#utility.yul\":2754:2774   */\n      sub\n        /* \"#utility.yul\":2749:2751   */\n      0x20\n        /* \"#utility.yul\":2738:2747   */\n      dup4\n        /* \"#utility.yul\":2734:2752   */\n      add\n        /* \"#utility.yul\":2727:2775   */\n      mstore\n        /* \"#utility.yul\":2792:2870   */\n      tag_95\n        /* \"#utility.yul\":2865:2869   */\n      dup2\n        /* \"#utility.yul\":2856:2862   */\n      dup5\n        /* \"#utility.yul\":2792:2870   */\n      tag_37\n      jump\t// in\n    tag_95:\n        /* \"#utility.yul\":2784:2870   */\n      swap1\n      pop\n        /* \"#utility.yul\":2454:2877   */\n      swap4\n      swap3\n      pop\n      pop\n      pop\n      jump\t// out\n        /* \"#utility.yul\":2883:3000   */\n    tag_38:\n        /* \"#utility.yul\":2992:2993   */\n      0x00\n        /* \"#utility.yul\":2989:2990   */\n      dup1\n        /* \"#utility.yul\":2982:2994   */\n      revert\n        /* \"#utility.yul\":3006:3186   */\n    tag_39:\n        /* \"#utility.yul\":3054:3131   */\n      0x4e487b7100000000000000000000000000000000000000000000000000000000\n        /* \"#utility.yul\":3051:3052   */\n      0x00\n        /* \"#utility.yul\":3044:3132   */\n      mstore\n        /* \"#utility.yul\":3151:3155   */\n      0x41\n        /* \"#utility.yul\":3148:3149   */\n      0x04\n        /* \"#utility.yul\":3141:3156   */\n      mstore\n        /* \"#utility.yul\":3175:3179   */\n      0x24\n        /* \"#utility.yul\":3172:3173   */\n      0x00\n        /* \"#utility.yul\":3165:3180   */\n      revert\n        /* \"#utility.yul\":3192:3473   */\n    tag_40:\n        /* \"#utility.yul\":3275:3302   */\n      tag_99\n        /* \"#utility.yul\":3297:3301   */\n      dup3\n        /* \"#utility.yul\":3275:3302   */\n      tag_36\n      jump\t// in\n    tag_99:\n        /* \"#utility.yul\":3267:3273   */\n      dup2\n        /* \"#utility.yul\":3263:3303   */\n      add\n        /* \"#utility.yul\":3405:3411   */\n      dup2\n        /* \"#utility.yul\":3393:3403   */\n      dup2\n        /* \"#utility.yul\":3390:3412   */\n      lt\n        /* \"#utility.yul\":3369:3387   */\n      0xffffffffffffffff\n        /* \"#utility.yul\":3357:3367   */\n      dup3\n        /* \"#utility.yul\":3354:3388   */\n      gt\n        /* \"#utility.yul\":3351:3413   */\n      or\n        /* \"#utility.yul\":3348:3436   */\n      iszero\n      tag_100\n      jumpi\n        /* \"#utility.yul\":3416:3434   */\n      tag_101\n      tag_39\n      jump\t// in\n    tag_101:\n        /* \"#utility.yul\":3348:3436   */\n    tag_100:\n        /* \"#utility.yul\":3456:3466   */\n      dup1\n        /* \"#utility.yul\":3452:3454   */\n      0x40\n        /* \"#utility.yul\":3445:3467   */\n      mstore\n        /* \"#utility.yul\":3235:3473   */\n      pop\n        /* \"#utility.yul\":3192:3473   */\n      pop\n      pop\n      jump\t// out\n        /* \"#utility.yul\":3479:3608   */\n    tag_41:\n        /* \"#utility.yul\":3513:3519   */\n      0x00\n        /* \"#utility.yul\":3540:3560   */\n      tag_103\n      tag_24\n      jump\t// in\n    tag_103:\n        /* \"#utility.yul\":3530:3560   */\n      swap1\n      pop\n        /* \"#utility.yul\":3569:3602   */\n      tag_104\n        /* \"#utility.yul\":3597:3601   */\n      dup3\n        /* \"#utility.yul\":3589:3595   */\n      dup3\n        /* \"#utility.yul\":3569:3602   */\n      tag_40\n      jump\t// in\n    tag_104:\n        /* \"#utility.yul\":3479:3608   */\n      swap2\n      swap1\n      pop\n      jump\t// out\n        /* \"#utility.yul\":3614:3925   */\n    tag_42:\n        /* \"#utility.yul\":3691:3695   */\n      0x00\n        /* \"#utility.yul\":3781:3799   */\n      0xffffffffffffffff\n        /* \"#utility.yul\":3773:3779   */\n      dup3\n        /* \"#utility.yul\":3770:3800   */\n      gt\n        /* \"#utility.yul\":3767:3823   */\n      iszero\n      tag_106\n      jumpi\n        /* \"#utility.yul\":3803:3821   */\n      tag_107\n      tag_39\n      jump\t// in\n    tag_107:\n        /* \"#utility.yul\":3767:3823   */\n    tag_106:\n        /* \"#utility.yul\":3853:3857   */\n      0x20\n        /* \"#utility.yul\":3845:3851   */\n      dup3\n        /* \"#utility.yul\":3841:3858   */\n      mul\n        /* \"#utility.yul\":3833:3858   */\n      swap1\n      pop\n        /* \"#utility.yul\":3913:3917   */\n      0x20\n        /* \"#utility.yul\":3907:3911   */\n      dup2\n        /* \"#utility.yul\":3903:3918   */\n      add\n        /* \"#utility.yul\":3895:3918   */\n      swap1\n      pop\n        /* \"#utility.yul\":3614:3925   */\n      swap2\n      swap1\n      pop\n      jump\t// out\n        /* \"#utility.yul\":3931:4048   */\n    tag_43:\n        /* \"#utility.yul\":4040:4041   */\n      0x00\n        /* \"#utility.yul\":4037:4038   */\n      dup1\n        /* \"#utility.yul\":4030:4042   */\n      revert\n        /* \"#utility.yul\":4054:4176   */\n    tag_44:\n        /* \"#utility.yul\":4127:4151   */\n      tag_110\n        /* \"#utility.yul\":4145:4150   */\n      dup2\n        /* \"#utility.yul\":4127:4151   */\n      tag_31\n      jump\t// in\n    tag_110:\n        /* \"#utility.yul\":4120:4125   */\n      dup2\n        /* \"#utility.yul\":4117:4152   */\n      eq\n        /* \"#utility.yul\":4107:4170   */\n      tag_111\n      jumpi\n        /* \"#utility.yul\":4166:4167   */\n      0x00\n        /* \"#utility.yul\":4163:4164   */\n      dup1\n        /* \"#utility.yul\":4156:4168   */\n      revert\n        /* \"#utility.yul\":4107:4170   */\n    tag_111:\n        /* \"#utility.yul\":4054:4176   */\n      pop\n      jump\t// out\n        /* \"#utility.yul\":4182:4321   */\n    tag_45:\n        /* \"#utility.yul\":4228:4233   */\n      0x00\n        /* \"#utility.yul\":4266:4272   */\n      dup2\n        /* \"#utility.yul\":4253:4273   */\n      calldataload\n        /* \"#utility.yul\":4244:4273   */\n      swap1\n      pop\n        /* \"#utility.yul\":4282:4315   */\n      tag_113\n        /* \"#utility.yul\":4309:4314   */\n      dup2\n        /* \"#utility.yul\":4282:4315   */\n      tag_44\n      jump\t// in\n    tag_113:\n        /* \"#utility.yul\":4182:4321   */\n      swap3\n      swap2\n      pop\n      pop\n      jump\t// out\n        /* \"#utility.yul\":4344:5054   */\n    tag_46:\n        /* \"#utility.yul\":4440:4445   */\n      0x00\n        /* \"#utility.yul\":4465:4546   */\n      tag_115\n        /* \"#utility.yul\":4481:4545   */\n      tag_116\n        /* \"#utility.yul\":4538:4544   */\n      dup5\n        /* \"#utility.yul\":4481:4545   */\n      tag_42\n      jump\t// in\n    tag_116:\n        /* \"#utility.yul\":4465:4546   */\n      tag_41\n      jump\t// in\n    tag_115:\n        /* \"#utility.yul\":4456:4546   */\n      swap1\n      pop\n        /* \"#utility.yul\":4566:4571   */\n      dup1\n        /* \"#utility.yul\":4595:4601   */\n      dup4\n        /* \"#utility.yul\":4588:4593   */\n      dup3\n        /* \"#utility.yul\":4581:4602   */\n      mstore\n        /* \"#utility.yul\":4629:4633   */\n      0x20\n        /* \"#utility.yul\":4622:4627   */\n      dup3\n        /* \"#utility.yul\":4618:4634   */\n      add\n        /* \"#utility.yul\":4611:4634   */\n      swap1\n      pop\n        /* \"#utility.yul\":4682:4686   */\n      0x20\n        /* \"#utility.yul\":4674:4680   */\n      dup5\n        /* \"#utility.yul\":4670:4687   */\n      mul\n        /* \"#utility.yul\":4662:4668   */\n      dup4\n        /* \"#utility.yul\":4658:4688   */\n      add\n        /* \"#utility.yul\":4711:4714   */\n      dup6\n        /* \"#utility.yul\":4703:4709   */\n      dup2\n        /* \"#utility.yul\":4700:4715   */\n      gt\n        /* \"#utility.yul\":4697:4819   */\n      iszero\n      tag_117\n      jumpi\n        /* \"#utility.yul\":4730:4809   */\n      tag_118\n      tag_43\n      jump\t// in\n    tag_118:\n        /* \"#utility.yul\":4697:4819   */\n    tag_117:\n        /* \"#utility.yul\":4845:4851   */\n      dup4\n        /* \"#utility.yul\":4828:5048   */\n    tag_119:\n        /* \"#utility.yul\":4862:4868   */\n      dup2\n        /* \"#utility.yul\":4857:4860   */\n      dup2\n        /* \"#utility.yul\":4854:4869   */\n      lt\n        /* \"#utility.yul\":4828:5048   */\n      iszero\n      tag_121\n      jumpi\n        /* \"#utility.yul\":4937:4940   */\n      dup1\n        /* \"#utility.yul\":4966:5003   */\n      tag_122\n        /* \"#utility.yul\":4999:5002   */\n      dup9\n        /* \"#utility.yul\":4987:4997   */\n      dup3\n        /* \"#utility.yul\":4966:5003   */\n      tag_45\n      jump\t// in\n    tag_122:\n        /* \"#utility.yul\":4961:4964   */\n      dup5\n        /* \"#utility.yul\":4954:5004   */\n      mstore\n        /* \"#utility.yul\":5033:5037   */\n      0x20\n        /* \"#utility.yul\":5028:5031   */\n      dup5\n        /* \"#utility.yul\":5024:5038   */\n      add\n        /* \"#utility.yul\":5017:5038   */\n      swap4\n      pop\n        /* \"#utility.yul\":4904:5048   */\n      pop\n        /* \"#utility.yul\":4888:4892   */\n      0x20\n        /* \"#utility.yul\":4883:4886   */\n      dup2\n        /* \"#utility.yul\":4879:4893   */\n      add\n        /* \"#utility.yul\":4872:4893   */\n      swap1\n      pop\n        /* \"#utility.yul\":4828:5048   */\n      jump(tag_119)\n    tag_121:\n        /* \"#utility.yul\":4832:4853   */\n      pop\n        /* \"#utility.yul\":4446:5054   */\n      pop\n      pop\n        /* \"#utility.yul\":4344:5054   */\n      swap4\n      swap3\n      pop\n      pop\n      pop\n      jump\t// out\n        /* \"#utility.yul\":5077:5447   */\n    tag_47:\n        /* \"#utility.yul\":5148:5153   */\n      0x00\n        /* \"#utility.yul\":5197:5200   */\n      dup3\n        /* \"#utility.yul\":5190:5194   */\n      0x1f\n        /* \"#utility.yul\":5182:5188   */\n      dup4\n        /* \"#utility.yul\":5178:5195   */\n      add\n        /* \"#utility.yul\":5174:5201   */\n      slt\n        /* \"#utility.yul\":5164:5286   */\n      tag_124\n      jumpi\n        /* \"#utility.yul\":5205:5284   */\n      tag_125\n      tag_38\n      jump\t// in\n    tag_125:\n        /* \"#utility.yul\":5164:5286   */\n    tag_124:\n        /* \"#utility.yul\":5322:5328   */\n      dup2\n        /* \"#utility.yul\":5309:5329   */\n      calldataload\n        /* \"#utility.yul\":5347:5441   */\n      tag_126\n        /* \"#utility.yul\":5437:5440   */\n      dup5\n        /* \"#utility.yul\":5429:5435   */\n      dup3\n        /* \"#utility.yul\":5422:5426   */\n      0x20\n        /* \"#utility.yul\":5414:5420   */\n      dup7\n        /* \"#utility.yul\":5410:5427   */\n      add\n        /* \"#utility.yul\":5347:5441   */\n      tag_46\n      jump\t// in\n    tag_126:\n        /* \"#utility.yul\":5338:5441   */\n      swap2\n      pop\n        /* \"#utility.yul\":5154:5447   */\n      pop\n        /* \"#utility.yul\":5077:5447   */\n      swap3\n      swap2\n      pop\n      pop\n      jump\t// out\n        /* \"#utility.yul\":5453:5570   */\n    tag_48:\n        /* \"#utility.yul\":5562:5563   */\n      0x00\n        /* \"#utility.yul\":5559:5560   */\n      dup1\n        /* \"#utility.yul\":5552:5564   */\n      revert\n        /* \"#utility.yul\":5576:5884   */\n    tag_49:\n        /* \"#utility.yul\":5638:5642   */\n      0x00\n        /* \"#utility.yul\":5728:5746   */\n      0xffffffffffffffff\n        /* \"#utility.yul\":5720:5726   */\n      dup3\n        /* \"#utility.yul\":5717:5747   */\n      gt\n        /* \"#utility.yul\":5714:5770   */\n      iszero\n      tag_129\n      jumpi\n        /* \"#utility.yul\":5750:5768   */\n      tag_130\n      tag_39\n      jump\t// in\n    tag_130:\n        /* \"#utility.yul\":5714:5770   */\n    tag_129:\n        /* \"#utility.yul\":5788:5817   */\n      tag_131\n        /* \"#utility.yul\":5810:5816   */\n      dup3\n        /* \"#utility.yul\":5788:5817   */\n      tag_36\n      jump\t// in\n    tag_131:\n        /* \"#utility.yul\":5780:5817   */\n      swap1\n      pop\n        /* \"#utility.yul\":5872:5876   */\n      0x20\n        /* \"#utility.yul\":5866:5870   */\n      dup2\n        /* \"#utility.yul\":5862:5877   */\n      add\n        /* \"#utility.yul\":5854:5877   */\n      swap1\n      pop\n        /* \"#utility.yul\":5576:5884   */\n      swap2\n      swap1\n      pop\n      jump\t// out\n        /* \"#utility.yul\":5890:6044   */\n    tag_50:\n        /* \"#utility.yul\":5974:5980   */\n      dup3\n        /* \"#utility.yul\":5969:5972   */\n      dup2\n        /* \"#utility.yul\":5964:5967   */\n      dup4\n        /* \"#utility.yul\":5951:5981   */\n      calldatacopy\n        /* \"#utility.yul\":6036:6037   */\n      0x00\n        /* \"#utility.yul\":6027:6033   */\n      dup4\n        /* \"#utility.yul\":6022:6025   */\n      dup4\n        /* \"#utility.yul\":6018:6034   */\n      add\n        /* \"#utility.yul\":6011:6038   */\n      mstore\n        /* \"#utility.yul\":5890:6044   */\n      pop\n      pop\n      pop\n      jump\t// out\n        /* \"#utility.yul\":6050:6462   */\n    tag_51:\n        /* \"#utility.yul\":6128:6133   */\n      0x00\n        /* \"#utility.yul\":6153:6219   */\n      tag_134\n        /* \"#utility.yul\":6169:6218   */\n      tag_135\n        /* \"#utility.yul\":6211:6217   */\n      dup5\n        /* \"#utility.yul\":6169:6218   */\n      tag_49\n      jump\t// in\n    tag_135:\n        /* \"#utility.yul\":6153:6219   */\n      tag_41\n      jump\t// in\n    tag_134:\n        /* \"#utility.yul\":6144:6219   */\n      swap1\n      pop\n        /* \"#utility.yul\":6242:6248   */\n      dup3\n        /* \"#utility.yul\":6235:6240   */\n      dup2\n        /* \"#utility.yul\":6228:6249   */\n      mstore\n        /* \"#utility.yul\":6280:6284   */\n      0x20\n        /* \"#utility.yul\":6273:6278   */\n      dup2\n        /* \"#utility.yul\":6269:6285   */\n      add\n        /* \"#utility.yul\":6318:6321   */\n      dup5\n        /* \"#utility.yul\":6309:6315   */\n      dup5\n        /* \"#utility.yul\":6304:6307   */\n      dup5\n        /* \"#utility.yul\":6300:6316   */\n      add\n        /* \"#utility.yul\":6297:6322   */\n      gt\n        /* \"#utility.yul\":6294:6406   */\n      iszero\n      tag_136\n      jumpi\n        /* \"#utility.yul\":6325:6404   */\n      tag_137\n      tag_48\n      jump\t// in\n    tag_137:\n        /* \"#utility.yul\":6294:6406   */\n    tag_136:\n        /* \"#utility.yul\":6415:6456   */\n      tag_138\n        /* \"#utility.yul\":6449:6455   */\n      dup5\n        /* \"#utility.yul\":6444:6447   */\n      dup3\n        /* \"#utility.yul\":6439:6442   */\n      dup6\n        /* \"#utility.yul\":6415:6456   */\n      tag_50\n      jump\t// in\n    tag_138:\n        /* \"#utility.yul\":6134:6462   */\n      pop\n        /* \"#utility.yul\":6050:6462   */\n      swap4\n      swap3\n      pop\n      pop\n      pop\n      jump\t// out\n        /* \"#utility.yul\":6482:6822   */\n    tag_52:\n        /* \"#utility.yul\":6538:6543   */\n      0x00\n        /* \"#utility.yul\":6587:6590   */\n      dup3\n        /* \"#utility.yul\":6580:6584   */\n      0x1f\n        /* \"#utility.yul\":6572:6578   */\n      dup4\n        /* \"#utility.yul\":6568:6585   */\n      add\n        /* \"#utility.yul\":6564:6591   */\n      slt\n        /* \"#utility.yul\":6554:6676   */\n      tag_140\n      jumpi\n        /* \"#utility.yul\":6595:6674   */\n      tag_141\n      tag_38\n      jump\t// in\n    tag_141:\n        /* \"#utility.yul\":6554:6676   */\n    tag_140:\n        /* \"#utility.yul\":6712:6718   */\n      dup2\n        /* \"#utility.yul\":6699:6719   */\n      calldataload\n        /* \"#utility.yul\":6737:6816   */\n      tag_142\n        /* \"#utility.yul\":6812:6815   */\n      dup5\n        /* \"#utility.yul\":6804:6810   */\n      dup3\n        /* \"#utility.yul\":6797:6801   */\n      0x20\n        /* \"#utility.yul\":6789:6795   */\n      dup7\n        /* \"#utility.yul\":6785:6802   */\n      add\n        /* \"#utility.yul\":6737:6816   */\n      tag_51\n      jump\t// in\n    tag_142:\n        /* \"#utility.yul\":6728:6816   */\n      swap2\n      pop\n        /* \"#utility.yul\":6544:6822   */\n      pop\n        /* \"#utility.yul\":6482:6822   */\n      swap3\n      swap2\n      pop\n      pop\n      jump\t// out\n        /* \"#utility.yul\":6828:7692   */\n    tag_13:\n        /* \"#utility.yul\":6931:6937   */\n      0x00\n        /* \"#utility.yul\":6939:6945   */\n      dup1\n        /* \"#utility.yul\":6988:6990   */\n      0x40\n        /* \"#utility.yul\":6976:6985   */\n      dup4\n        /* \"#utility.yul\":6967:6974   */\n      dup6\n        /* \"#utility.yul\":6963:6986   */\n      sub\n        /* \"#utility.yul\":6959:6991   */\n      slt\n        /* \"#utility.yul\":6956:7075   */\n      iszero\n      tag_144\n      jumpi\n        /* \"#utility.yul\":6994:7073   */\n      tag_145\n      tag_25\n      jump\t// in\n    tag_145:\n        /* \"#utility.yul\":6956:7075   */\n    tag_144:\n        /* \"#utility.yul\":7142:7143   */\n      0x00\n        /* \"#utility.yul\":7131:7140   */\n      dup4\n        /* \"#utility.yul\":7127:7144   */\n      add\n        /* \"#utility.yul\":7114:7145   */\n      calldataload\n        /* \"#utility.yul\":7172:7190   */\n      0xffffffffffffffff\n        /* \"#utility.yul\":7164:7170   */\n      dup2\n        /* \"#utility.yul\":7161:7191   */\n      gt\n        /* \"#utility.yul\":7158:7275   */\n      iszero\n      tag_146\n      jumpi\n        /* \"#utility.yul\":7194:7273   */\n      tag_147\n      tag_26\n      jump\t// in\n    tag_147:\n        /* \"#utility.yul\":7158:7275   */\n    tag_146:\n        /* \"#utility.yul\":7299:7377   */\n      tag_148\n        /* \"#utility.yul\":7369:7376   */\n      dup6\n        /* \"#utility.yul\":7360:7366   */\n      dup3\n        /* \"#utility.yul\":7349:7358   */\n      dup7\n        /* \"#utility.yul\":7345:7367   */\n      add\n        /* \"#utility.yul\":7299:7377   */\n      tag_47\n      jump\t// in\n    tag_148:\n        /* \"#utility.yul\":7289:7377   */\n      swap3\n      pop\n        /* \"#utility.yul\":7085:7387   */\n      pop\n        /* \"#utility.yul\":7454:7456   */\n      0x20\n        /* \"#utility.yul\":7443:7452   */\n      dup4\n        /* \"#utility.yul\":7439:7457   */\n      add\n        /* \"#utility.yul\":7426:7458   */\n      calldataload\n        /* \"#utility.yul\":7485:7503   */\n      0xffffffffffffffff\n        /* \"#utility.yul\":7477:7483   */\n      dup2\n        /* \"#utility.yul\":7474:7504   */\n      gt\n        /* \"#utility.yul\":7471:7588   */\n      iszero\n      tag_149\n      jumpi\n        /* \"#utility.yul\":7507:7586   */\n      tag_150\n      tag_26\n      jump\t// in\n    tag_150:\n        /* \"#utility.yul\":7471:7588   */\n    tag_149:\n        /* \"#utility.yul\":7612:7675   */\n      tag_151\n        /* \"#utility.yul\":7667:7674   */\n      dup6\n        /* \"#utility.yul\":7658:7664   */\n      dup3\n        /* \"#utility.yul\":7647:7656   */\n      dup7\n        /* \"#utility.yul\":7643:7665   */\n      add\n        /* \"#utility.yul\":7612:7675   */\n      tag_52\n      jump\t// in\n    tag_151:\n        /* \"#utility.yul\":7602:7675   */\n      swap2\n      pop\n        /* \"#utility.yul\":7397:7685   */\n      pop\n        /* \"#utility.yul\":6828:7692   */\n      swap3\n      pop\n      swap3\n      swap1\n      pop\n      jump\t// out\n        /* \"#utility.yul\":7698:7812   */\n    tag_53:\n        /* \"#utility.yul\":7765:7771   */\n      0x00\n        /* \"#utility.yul\":7799:7804   */\n      dup2\n        /* \"#utility.yul\":7793:7805   */\n      mload\n        /* \"#utility.yul\":7783:7805   */\n      swap1\n      pop\n        /* \"#utility.yul\":7698:7812   */\n      swap2\n      swap1\n      pop\n      jump\t// out\n        /* \"#utility.yul\":7818:8002   */\n    tag_54:\n        /* \"#utility.yul\":7917:7928   */\n      0x00\n        /* \"#utility.yul\":7951:7957   */\n      dup3\n        /* \"#utility.yul\":7946:7949   */\n      dup3\n        /* \"#utility.yul\":7939:7958   */\n      mstore\n        /* \"#utility.yul\":7991:7995   */\n      0x20\n        /* \"#utility.yul\":7986:7989   */\n      dup3\n        /* \"#utility.yul\":7982:7996   */\n      add\n        /* \"#utility.yul\":7967:7996   */\n      swap1\n      pop\n        /* \"#utility.yul\":7818:8002   */\n      swap3\n      swap2\n      pop\n      pop\n      jump\t// out\n        /* \"#utility.yul\":8008:8140   */\n    tag_55:\n        /* \"#utility.yul\":8075:8079   */\n      0x00\n        /* \"#utility.yul\":8098:8101   */\n      dup2\n        /* \"#utility.yul\":8090:8101   */\n      swap1\n      pop\n        /* \"#utility.yul\":8128:8132   */\n      0x20\n        /* \"#utility.yul\":8123:8126   */\n      dup3\n        /* \"#utility.yul\":8119:8133   */\n      add\n        /* \"#utility.yul\":8111:8133   */\n      swap1\n      pop\n        /* \"#utility.yul\":8008:8140   */\n      swap2\n      swap1\n      pop\n      jump\t// out\n        /* \"#utility.yul\":8146:8254   */\n    tag_56:\n        /* \"#utility.yul\":8223:8247   */\n      tag_156\n        /* \"#utility.yul\":8241:8246   */\n      dup2\n        /* \"#utility.yul\":8223:8247   */\n      tag_31\n      jump\t// in\n    tag_156:\n        /* \"#utility.yul\":8218:8221   */\n      dup3\n        /* \"#utility.yul\":8211:8248   */\n      mstore\n        /* \"#utility.yul\":8146:8254   */\n      pop\n      pop\n      jump\t// out\n        /* \"#utility.yul\":8260:8439   */\n    tag_57:\n        /* \"#utility.yul\":8329:8339   */\n      0x00\n        /* \"#utility.yul\":8350:8396   */\n      tag_158\n        /* \"#utility.yul\":8392:8395   */\n      dup4\n        /* \"#utility.yul\":8384:8390   */\n      dup4\n        /* \"#utility.yul\":8350:8396   */\n      tag_56\n      jump\t// in\n    tag_158:\n        /* \"#utility.yul\":8428:8432   */\n      0x20\n        /* \"#utility.yul\":8423:8426   */\n      dup4\n        /* \"#utility.yul\":8419:8433   */\n      add\n        /* \"#utility.yul\":8405:8433   */\n      swap1\n      pop\n        /* \"#utility.yul\":8260:8439   */\n      swap3\n      swap2\n      pop\n      pop\n      jump\t// out\n        /* \"#utility.yul\":8445:8558   */\n    tag_58:\n        /* \"#utility.yul\":8515:8519   */\n      0x00\n        /* \"#utility.yul\":8547:8551   */\n      0x20\n        /* \"#utility.yul\":8542:8545   */\n      dup3\n        /* \"#utility.yul\":8538:8552   */\n      add\n        /* \"#utility.yul\":8530:8552   */\n      swap1\n      pop\n        /* \"#utility.yul\":8445:8558   */\n      swap2\n      swap1\n      pop\n      jump\t// out\n        /* \"#utility.yul\":8594:9326   */\n    tag_59:\n        /* \"#utility.yul\":8713:8716   */\n      0x00\n        /* \"#utility.yul\":8742:8796   */\n      tag_161\n        /* \"#utility.yul\":8790:8795   */\n      dup3\n        /* \"#utility.yul\":8742:8796   */\n      tag_53\n      jump\t// in\n    tag_161:\n        /* \"#utility.yul\":8812:8898   */\n      tag_162\n        /* \"#utility.yul\":8891:8897   */\n      dup2\n        /* \"#utility.yul\":8886:8889   */\n      dup6\n        /* \"#utility.yul\":8812:8898   */\n      tag_54\n      jump\t// in\n    tag_162:\n        /* \"#utility.yul\":8805:8898   */\n      swap4\n      pop\n        /* \"#utility.yul\":8922:8978   */\n      tag_163\n        /* \"#utility.yul\":8972:8977   */\n      dup4\n        /* \"#utility.yul\":8922:8978   */\n      tag_55\n      jump\t// in\n    tag_163:\n        /* \"#utility.yul\":9001:9008   */\n      dup1\n        /* \"#utility.yul\":9032:9033   */\n      0x00\n        /* \"#utility.yul\":9017:9301   */\n    tag_164:\n        /* \"#utility.yul\":9042:9048   */\n      dup4\n        /* \"#utility.yul\":9039:9040   */\n      dup2\n        /* \"#utility.yul\":9036:9049   */\n      lt\n        /* \"#utility.yul\":9017:9301   */\n      iszero\n      tag_166\n      jumpi\n        /* \"#utility.yul\":9118:9124   */\n      dup2\n        /* \"#utility.yul\":9112:9125   */\n      mload\n        /* \"#utility.yul\":9145:9208   */\n      tag_167\n        /* \"#utility.yul\":9204:9207   */\n      dup9\n        /* \"#utility.yul\":9189:9202   */\n      dup3\n        /* \"#utility.yul\":9145:9208   */\n      tag_57\n      jump\t// in\n    tag_167:\n        /* \"#utility.yul\":9138:9208   */\n      swap8\n      pop\n        /* \"#utility.yul\":9231:9291   */\n      tag_168\n        /* \"#utility.yul\":9284:9290   */\n      dup4\n        /* \"#utility.yul\":9231:9291   */\n      tag_58\n      jump\t// in\n    tag_168:\n        /* \"#utility.yul\":9221:9291   */\n      swap3\n      pop\n        /* \"#utility.yul\":9077:9301   */\n      pop\n        /* \"#utility.yul\":9064:9065   */\n      0x01\n        /* \"#utility.yul\":9061:9062   */\n      dup2\n        /* \"#utility.yul\":9057:9066   */\n      add\n        /* \"#utility.yul\":9052:9066   */\n      swap1\n      pop\n        /* \"#utility.yul\":9017:9301   */\n      jump(tag_164)\n    tag_166:\n        /* \"#utility.yul\":9021:9035   */\n      pop\n        /* \"#utility.yul\":9317:9320   */\n      dup6\n        /* \"#utility.yul\":9310:9320   */\n      swap4\n      pop\n        /* \"#utility.yul\":8718:9326   */\n      pop\n      pop\n      pop\n        /* \"#utility.yul\":8594:9326   */\n      swap3\n      swap2\n      pop\n      pop\n      jump\t// out\n        /* \"#utility.yul\":9332:9705   */\n    tag_16:\n        /* \"#utility.yul\":9475:9479   */\n      0x00\n        /* \"#utility.yul\":9513:9515   */\n      0x20\n        /* \"#utility.yul\":9502:9511   */\n      dup3\n        /* \"#utility.yul\":9498:9516   */\n      add\n        /* \"#utility.yul\":9490:9516   */\n      swap1\n      pop\n        /* \"#utility.yul\":9562:9571   */\n      dup2\n        /* \"#utility.yul\":9556:9560   */\n      dup2\n        /* \"#utility.yul\":9552:9572   */\n      sub\n        /* \"#utility.yul\":9548:9549   */\n      0x00\n        /* \"#utility.yul\":9537:9546   */\n      dup4\n        /* \"#utility.yul\":9533:9550   */\n      add\n        /* \"#utility.yul\":9526:9573   */\n      mstore\n        /* \"#utility.yul\":9590:9698   */\n      tag_170\n        /* \"#utility.yul\":9693:9697   */\n      dup2\n        /* \"#utility.yul\":9684:9690   */\n      dup5\n        /* \"#utility.yul\":9590:9698   */\n      tag_59\n      jump\t// in\n    tag_170:\n        /* \"#utility.yul\":9582:9698   */\n      swap1\n      pop\n        /* \"#utility.yul\":9332:9705   */\n      swap3\n      swap2\n      pop\n      pop\n      jump\t// out\n        /* \"#utility.yul\":9711:9891   */\n    tag_60:\n        /* \"#utility.yul\":9759:9836   */\n      0x4e487b7100000000000000000000000000000000000000000000000000000000\n        /* \"#utility.yul\":9756:9757   */\n      0x00\n        /* \"#utility.yul\":9749:9837   */\n      mstore\n        /* \"#utility.yul\":9856:9860   */\n      0x22\n        /* \"#utility.yul\":9853:9854   */\n      0x04\n        /* \"#utility.yul\":9846:9861   */\n      mstore\n        /* \"#utility.yul\":9880:9884   */\n      0x24\n        /* \"#utility.yul\":9877:9878   */\n      0x00\n        /* \"#utility.yul\":9870:9885   */\n      revert\n        /* \"#utility.yul\":9897:10217   */\n    tag_18:\n        /* \"#utility.yul\":9941:9947   */\n      0x00\n        /* \"#utility.yul\":9978:9979   */\n      0x02\n        /* \"#utility.yul\":9972:9976   */\n      dup3\n        /* \"#utility.yul\":9968:9980   */\n      div\n        /* \"#utility.yul\":9958:9980   */\n      swap1\n      pop\n        /* \"#utility.yul\":10025:10026   */\n      0x01\n        /* \"#utility.yul\":10019:10023   */\n      dup3\n        /* \"#utility.yul\":10015:10027   */\n      and\n        /* \"#utility.yul\":10046:10064   */\n      dup1\n        /* \"#utility.yul\":10036:10117   */\n      tag_173\n      jumpi\n        /* \"#utility.yul\":10102:10106   */\n      0x7f\n        /* \"#utility.yul\":10094:10100   */\n      dup3\n        /* \"#utility.yul\":10090:10107   */\n      and\n        /* \"#utility.yul\":10080:10107   */\n      swap2\n      pop\n        /* \"#utility.yul\":10036:10117   */\n    tag_173:\n        /* \"#utility.yul\":10164:10166   */\n      0x20\n        /* \"#utility.yul\":10156:10162   */\n      dup3\n        /* \"#utility.yul\":10153:10167   */\n      lt\n        /* \"#utility.yul\":10133:10151   */\n      dup2\n        /* \"#utility.yul\":10130:10168   */\n      sub\n        /* \"#utility.yul\":10127:10211   */\n      tag_174\n      jumpi\n        /* \"#utility.yul\":10183:10201   */\n      tag_175\n      tag_60\n      jump\t// in\n    tag_175:\n        /* \"#utility.yul\":10127:10211   */\n    tag_174:\n        /* \"#utility.yul\":9948:10217   */\n      pop\n        /* \"#utility.yul\":9897:10217   */\n      swap2\n      swap1\n      pop\n      jump\t// out\n\n    auxdata: 0xa2646970667358221220e93330ee77f25ef38a074991853efbc5f3178b2fc52e6d3c3465cf7418c87d3664736f6c634300080f0033\n}\n",
				"bytecode": {
					"linkReferences": {},
					"object": "608060405234801561001057600080fd5b506106e8806100206000396000f3fe608060405234801561001057600080fd5b50600436106100365760003560e01c8063b43c5d331461003b578063fc277a951461006c575b600080fd5b610055600480360381019061005091906101c2565b61009c565b6040516100639291906102a1565b60405180910390f35b610086600480360381019061008191906104fa565b610148565b6040516100939190610630565b60405180910390f35b60006020528060005260406000206000915090508060000154908060010180546100c590610681565b80601f01602080910402602001604051908101604052809291908181526020018280546100f190610681565b801561013e5780601f106101135761010080835404028352916020019161013e565b820191906000526020600020905b81548152906001019060200180831161012157829003601f168201915b5050505050905082565b606092915050565b6000604051905090565b600080fd5b600080fd5b600073ffffffffffffffffffffffffffffffffffffffff82169050919050565b600061018f82610164565b9050919050565b61019f81610184565b81146101aa57600080fd5b50565b6000813590506101bc81610196565b92915050565b6000602082840312156101d8576101d761015a565b5b60006101e6848285016101ad565b91505092915050565b6000819050919050565b610202816101ef565b82525050565b600081519050919050565b600082825260208201905092915050565b60005b83811015610242578082015181840152602081019050610227565b83811115610251576000848401525b50505050565b6000601f19601f8301169050919050565b600061027382610208565b61027d8185610213565b935061028d818560208601610224565b61029681610257565b840191505092915050565b60006040820190506102b660008301856101f9565b81810360208301526102c88184610268565b90509392505050565b600080fd5b7f4e487b7100000000000000000000000000000000000000000000000000000000600052604160045260246000fd5b61030e82610257565b810181811067ffffffffffffffff8211171561032d5761032c6102d6565b5b80604052505050565b6000610340610150565b905061034c8282610305565b919050565b600067ffffffffffffffff82111561036c5761036b6102d6565b5b602082029050602081019050919050565b600080fd5b61038b816101ef565b811461039657600080fd5b50565b6000813590506103a881610382565b92915050565b60006103c16103bc84610351565b610336565b905080838252602082019050602084028301858111156103e4576103e361037d565b5b835b8181101561040d57806103f98882610399565b8452602084019350506020810190506103e6565b5050509392505050565b600082601f83011261042c5761042b6102d1565b5b813561043c8482602086016103ae565b91505092915050565b600080fd5b600067ffffffffffffffff821115610465576104646102d6565b5b61046e82610257565b9050602081019050919050565b82818337600083830152505050565b600061049d6104988461044a565b610336565b9050828152602081018484840111156104b9576104b8610445565b5b6104c484828561047b565b509392505050565b600082601f8301126104e1576104e06102d1565b5b81356104f184826020860161048a565b91505092915050565b600080604083850312156105115761051061015a565b5b600083013567ffffffffffffffff81111561052f5761052e61015f565b5b61053b85828601610417565b925050602083013567ffffffffffffffff81111561055c5761055b61015f565b5b610568858286016104cc565b9150509250929050565b600081519050919050565b600082825260208201905092915050565b6000819050602082019050919050565b6105a7816101ef565b82525050565b60006105b9838361059e565b60208301905092915050565b6000602082019050919050565b60006105dd82610572565b6105e7818561057d565b93506105f28361058e565b8060005b8381101561062357815161060a88826105ad565b9750610615836105c5565b9250506001810190506105f6565b5085935050505092915050565b6000602082019050818103600083015261064a81846105d2565b905092915050565b7f4e487b7100000000000000000000000000000000000000000000000000000000600052602260045260246000fd5b6000600282049050600182168061069957607f821691505b6020821081036106ac576106ab610652565b5b5091905056fea2646970667358221220e93330ee77f25ef38a074991853efbc5f3178b2fc52e6d3c3465cf7418c87d3664736f6c634300080f0033",
					"opcodes": "PUSH1 0x80 PUSH1 0x40 MSTORE CALLVALUE DUP1 ISZERO PUSH2 0x10 JUMPI PUSH1 0x0 DUP1 REVERT JUMPDEST POP PUSH2 0x6E8 DUP1 PUSH2 0x20 PUSH1 0x0 CODECOPY PUSH1 0x0 RETURN INVALID PUSH1 0x80 PUSH1 0x40 MSTORE CALLVALUE DUP1 ISZERO PUSH2 0x10 JUMPI PUSH1 0x0 DUP1 REVERT JUMPDEST POP PUSH1 0x4 CALLDATASIZE LT PUSH2 0x36 JUMPI PUSH1 0x0 CALLDATALOAD PUSH1 0xE0 SHR DUP1 PUSH4 0xB43C5D33 EQ PUSH2 0x3B JUMPI DUP1 PUSH4 0xFC277A95 EQ PUSH2 0x6C JUMPI JUMPDEST PUSH1 0x0 DUP1 REVERT JUMPDEST PUSH2 0x55 PUSH1 0x4 DUP1 CALLDATASIZE SUB DUP2 ADD SWAP1 PUSH2 0x50 SWAP2 SWAP1 PUSH2 0x1C2 JUMP JUMPDEST PUSH2 0x9C JUMP JUMPDEST PUSH1 0x40 MLOAD PUSH2 0x63 SWAP3 SWAP2 SWAP1 PUSH2 0x2A1 JUMP JUMPDEST PUSH1 0x40 MLOAD DUP1 SWAP2 SUB SWAP1 RETURN JUMPDEST PUSH2 0x86 PUSH1 0x4 DUP1 CALLDATASIZE SUB DUP2 ADD SWAP1 PUSH2 0x81 SWAP2 SWAP1 PUSH2 0x4FA JUMP JUMPDEST PUSH2 0x148 JUMP JUMPDEST PUSH1 0x40 MLOAD PUSH2 0x93 SWAP2 SWAP1 PUSH2 0x630 JUMP JUMPDEST PUSH1 0x40 MLOAD DUP1 SWAP2 SUB SWAP1 RETURN JUMPDEST PUSH1 0x0 PUSH1 0x20 MSTORE DUP1 PUSH1 0x0 MSTORE PUSH1 0x40 PUSH1 0x0 KECCAK256 PUSH1 0x0 SWAP2 POP SWAP1 POP DUP1 PUSH1 0x0 ADD SLOAD SWAP1 DUP1 PUSH1 0x1 ADD DUP1 SLOAD PUSH2 0xC5 SWAP1 PUSH2 0x681 JUMP JUMPDEST DUP1 PUSH1 0x1F ADD PUSH1 0x20 DUP1 SWAP2 DIV MUL PUSH1 0x20 ADD PUSH1 0x40 MLOAD SWAP1 DUP2 ADD PUSH1 0x40 MSTORE DUP1 SWAP3 SWAP2 SWAP1 DUP2 DUP2 MSTORE PUSH1 0x20 ADD DUP3 DUP1 SLOAD PUSH2 0xF1 SWAP1 PUSH2 0x681 JUMP JUMPDEST DUP1 ISZERO PUSH2 0x13E JUMPI DUP1 PUSH1 0x1F LT PUSH2 0x113 JUMPI PUSH2 0x100 DUP1 DUP4 SLOAD DIV MUL DUP4 MSTORE SWAP2 PUSH1 0x20 ADD SWAP2 PUSH2 0x13E JUMP JUMPDEST DUP3 ADD SWAP2 SWAP1 PUSH1 0x0 MSTORE PUSH1 0x20 PUSH1 0x0 KECCAK256 SWAP1 JUMPDEST DUP2 SLOAD DUP2 MSTORE SWAP1 PUSH1 0x1 ADD SWAP1 PUSH1 0x20 ADD DUP1 DUP4 GT PUSH2 0x121 JUMPI DUP3 SWAP1 SUB PUSH1 0x1F AND DUP3 ADD SWAP2 JUMPDEST POP POP POP POP POP SWAP1 POP DUP3 JUMP JUMPDEST PUSH1 0x60 SWAP3 SWAP2 POP POP JUMP JUMPDEST PUSH1 0x0 PUSH1 0x40 MLOAD SWAP1 POP SWAP1 JUMP JUMPDEST PUSH1 0x0 DUP1 REVERT JUMPDEST PUSH1 0x0 DUP1 REVERT JUMPDEST PUSH1 0x0 PUSH20 0xFFFFFFFFFFFFFFFFFFFFFFFFFFFFFFFFFFFFFFFF DUP3 AND SWAP1 POP SWAP2 SWAP1 POP JUMP JUMPDEST PUSH1 0x0 PUSH2 0x18F DUP3 PUSH2 0x164 JUMP JUMPDEST SWAP1 POP SWAP2 SWAP1 POP JUMP JUMPDEST PUSH2 0x19F DUP2 PUSH2 0x184 JUMP JUMPDEST DUP2 EQ PUSH2 0x1AA JUMPI PUSH1 0x0 DUP1 REVERT JUMPDEST POP JUMP JUMPDEST PUSH1 0x0 DUP2 CALLDATALOAD SWAP1 POP PUSH2 0x1BC DUP2 PUSH2 0x196 JUMP JUMPDEST SWAP3 SWAP2 POP POP JUMP JUMPDEST PUSH1 0x0 PUSH1 0x20 DUP3 DUP5 SUB SLT ISZERO PUSH2 0x1D8 JUMPI PUSH2 0x1D7 PUSH2 0x15A JUMP JUMPDEST JUMPDEST PUSH1 0x0 PUSH2 0x1E6 DUP5 DUP3 DUP6 ADD PUSH2 0x1AD JUMP JUMPDEST SWAP2 POP POP SWAP3 SWAP2 POP POP JUMP JUMPDEST PUSH1 0x0 DUP2 SWAP1 POP SWAP2 SWAP1 POP JUMP JUMPDEST PUSH2 0x202 DUP2 PUSH2 0x1EF JUMP JUMPDEST DUP3 MSTORE POP POP JUMP JUMPDEST PUSH1 0x0 DUP2 MLOAD SWAP1 POP SWAP2 SWAP1 POP JUMP JUMPDEST PUSH1 0x0 DUP3 DUP3 MSTORE PUSH1 0x20 DUP3 ADD SWAP1 POP SWAP3 SWAP2 POP POP JUMP JUMPDEST PUSH1 0x0 JUMPDEST DUP4 DUP2 LT ISZERO PUSH2 0x242 JUMPI DUP1 DUP3 ADD MLOAD DUP2 DUP5 ADD MSTORE PUSH1 0x20 DUP2 ADD SWAP1 POP PUSH2 0x227 JUMP JUMPDEST DUP4 DUP2 GT ISZERO PUSH2 0x251 JUMPI PUSH1 0x0 DUP5 DUP5 ADD MSTORE JUMPDEST POP POP POP POP JUMP JUMPDEST PUSH1 0x0 PUSH1 0x1F NOT PUSH1 0x1F DUP4 ADD AND SWAP1 POP SWAP2 SWAP1 POP JUMP JUMPDEST PUSH1 0x0 PUSH2 0x273 DUP3 PUSH2 0x208 JUMP JUMPDEST PUSH2 0x27D DUP2 DUP6 PUSH2 0x213 JUMP JUMPDEST SWAP4 POP PUSH2 0x28D DUP2 DUP6 PUSH1 0x20 DUP7 ADD PUSH2 0x224 JUMP JUMPDEST PUSH2 0x296 DUP2 PUSH2 0x257 JUMP JUMPDEST DUP5 ADD SWAP2 POP POP SWAP3 SWAP2 POP POP JUMP JUMPDEST PUSH1 0x0 PUSH1 0x40 DUP3 ADD SWAP1 POP PUSH2 0x2B6 PUSH1 0x0 DUP4 ADD DUP6 PUSH2 0x1F9 JUMP JUMPDEST DUP2 DUP2 SUB PUSH1 0x20 DUP4 ADD MSTORE PUSH2 0x2C8 DUP2 DUP5 PUSH2 0x268 JUMP JUMPDEST SWAP1 POP SWAP4 SWAP3 POP POP POP JUMP JUMPDEST PUSH1 0x0 DUP1 REVERT JUMPDEST PUSH32 0x4E487B7100000000000000000000000000000000000000000000000000000000 PUSH1 0x0 MSTORE PUSH1 0x41 PUSH1 0x4 MSTORE PUSH1 0x24 PUSH1 0x0 REVERT JUMPDEST PUSH2 0x30E DUP3 PUSH2 0x257 JUMP JUMPDEST DUP2 ADD DUP2 DUP2 LT PUSH8 0xFFFFFFFFFFFFFFFF DUP3 GT OR ISZERO PUSH2 0x32D JUMPI PUSH2 0x32C PUSH2 0x2D6 JUMP JUMPDEST JUMPDEST DUP1 PUSH1 0x40 MSTORE POP POP POP JUMP JUMPDEST PUSH1 0x0 PUSH2 0x340 PUSH2 0x150 JUMP JUMPDEST SWAP1 POP PUSH2 0x34C DUP3 DUP3 PUSH2 0x305 JUMP JUMPDEST SWAP2 SWAP1 POP JUMP JUMPDEST PUSH1 0x0 PUSH8 0xFFFFFFFFFFFFFFFF DUP3 GT ISZERO PUSH2 0x36C JUMPI PUSH2 0x36B PUSH2 0x2D6 JUMP JUMPDEST JUMPDEST PUSH1 0x20 DUP3 MUL SWAP1 POP PUSH1 0x20 DUP2 ADD SWAP1 POP SWAP2 SWAP1 POP JUMP JUMPDEST PUSH1 0x0 DUP1 REVERT JUMPDEST PUSH2 0x38B DUP2 PUSH2 0x1EF JUMP JUMPDEST DUP2 EQ PUSH2 0x396 JUMPI PUSH1 0x0 DUP1 REVERT JUMPDEST POP JUMP JUMPDEST PUSH1 0x0 DUP2 CALLDATALOAD SWAP1 POP PUSH2 0x3A8 DUP2 PUSH2 0x382 JUMP JUMPDEST SWAP3 SWAP2 POP POP JUMP JUMPDEST PUSH1 0x0 PUSH2 0x3C1 PUSH2 0x3BC DUP5 PUSH2 0x351 JUMP JUMPDEST PUSH2 0x336 JUMP JUMPDEST SWAP1 POP DUP1 DUP4 DUP3 MSTORE PUSH1 0x20 DUP3 ADD SWAP1 POP PUSH1 0x20 DUP5 MUL DUP4 ADD DUP6 DUP2 GT ISZERO PUSH2 0x3E4 JUMPI PUSH2 0x3E3 PUSH2 0x37D JUMP JUMPDEST JUMPDEST DUP4 JUMPDEST DUP2 DUP2 LT ISZERO PUSH2 0x40D JUMPI DUP1 PUSH2 0x3F9 DUP9 DUP3 PUSH2 0x399 JUMP JUMPDEST DUP5 MSTORE PUSH1 0x20 DUP5 ADD SWAP4 POP POP PUSH1 0x20 DUP2 ADD SWAP1 POP PUSH2 0x3E6 JUMP JUMPDEST POP POP POP SWAP4 SWAP3 POP POP POP JUMP JUMPDEST PUSH1 0x0 DUP3 PUSH1 0x1F DUP4 ADD SLT PUSH2 0x42C JUMPI PUSH2 0x42B PUSH2 0x2D1 JUMP JUMPDEST JUMPDEST DUP2 CALLDATALOAD PUSH2 0x43C DUP5 DUP3 PUSH1 0x20 DUP7 ADD PUSH2 0x3AE JUMP JUMPDEST SWAP2 POP POP SWAP3 SWAP2 POP POP JUMP JUMPDEST PUSH1 0x0 DUP1 REVERT JUMPDEST PUSH1 0x0 PUSH8 0xFFFFFFFFFFFFFFFF DUP3 GT ISZERO PUSH2 0x465 JUMPI PUSH2 0x464 PUSH2 0x2D6 JUMP JUMPDEST JUMPDEST PUSH2 0x46E DUP3 PUSH2 0x257 JUMP JUMPDEST SWAP1 POP PUSH1 0x20 DUP2 ADD SWAP1 POP SWAP2 SWAP1 POP JUMP JUMPDEST DUP3 DUP2 DUP4 CALLDATACOPY PUSH1 0x0 DUP4 DUP4 ADD MSTORE POP POP POP JUMP JUMPDEST PUSH1 0x0 PUSH2 0x49D PUSH2 0x498 DUP5 PUSH2 0x44A JUMP JUMPDEST PUSH2 0x336 JUMP JUMPDEST SWAP1 POP DUP3 DUP2 MSTORE PUSH1 0x20 DUP2 ADD DUP5 DUP5 DUP5 ADD GT ISZERO PUSH2 0x4B9 JUMPI PUSH2 0x4B8 PUSH2 0x445 JUMP JUMPDEST JUMPDEST PUSH2 0x4C4 DUP5 DUP3 DUP6 PUSH2 0x47B JUMP JUMPDEST POP SWAP4 SWAP3 POP POP POP JUMP JUMPDEST PUSH1 0x0 DUP3 PUSH1 0x1F DUP4 ADD SLT PUSH2 0x4E1 JUMPI PUSH2 0x4E0 PUSH2 0x2D1 JUMP JUMPDEST JUMPDEST DUP2 CALLDATALOAD PUSH2 0x4F1 DUP5 DUP3 PUSH1 0x20 DUP7 ADD PUSH2 0x48A JUMP JUMPDEST SWAP2 POP POP SWAP3 SWAP2 POP POP JUMP JUMPDEST PUSH1 0x0 DUP1 PUSH1 0x40 DUP4 DUP6 SUB SLT ISZERO PUSH2 0x511 JUMPI PUSH2 0x510 PUSH2 0x15A JUMP JUMPDEST JUMPDEST PUSH1 0x0 DUP4 ADD CALLDATALOAD PUSH8 0xFFFFFFFFFFFFFFFF DUP2 GT ISZERO PUSH2 0x52F JUMPI PUSH2 0x52E PUSH2 0x15F JUMP JUMPDEST JUMPDEST PUSH2 0x53B DUP6 DUP3 DUP7 ADD PUSH2 0x417 JUMP JUMPDEST SWAP3 POP POP PUSH1 0x20 DUP4 ADD CALLDATALOAD PUSH8 0xFFFFFFFFFFFFFFFF DUP2 GT ISZERO PUSH2 0x55C JUMPI PUSH2 0x55B PUSH2 0x15F JUMP JUMPDEST JUMPDEST PUSH2 0x568 DUP6 DUP3 DUP7 ADD PUSH2 0x4CC JUMP JUMPDEST SWAP2 POP POP SWAP3 POP SWAP3 SWAP1 POP JUMP JUMPDEST PUSH1 0x0 DUP2 MLOAD SWAP1 POP SWAP2 SWAP1 POP JUMP JUMPDEST PUSH1 0x0 DUP3 DUP3 MSTORE PUSH1 0x20 DUP3 ADD SWAP1 POP SWAP3 SWAP2 POP POP JUMP JUMPDEST PUSH1 0x0 DUP2 SWAP1 POP PUSH1 0x20 DUP3 ADD SWAP1 POP SWAP2 SWAP1 POP JUMP JUMPDEST PUSH2 0x5A7 DUP2 PUSH2 0x1EF JUMP JUMPDEST DUP3 MSTORE POP POP JUMP JUMPDEST PUSH1 0x0 PUSH2 0x5B9 DUP4 DUP4 PUSH2 0x59E JUMP JUMPDEST PUSH1 0x20 DUP4 ADD SWAP1 POP SWAP3 SWAP2 POP POP JUMP JUMPDEST PUSH1 0x0 PUSH1 0x20 DUP3 ADD SWAP1 POP SWAP2 SWAP1 POP JUMP JUMPDEST PUSH1 0x0 PUSH2 0x5DD DUP3 PUSH2 0x572 JUMP JUMPDEST PUSH2 0x5E7 DUP2 DUP6 PUSH2 0x57D JUMP JUMPDEST SWAP4 POP PUSH2 0x5F2 DUP4 PUSH2 0x58E JUMP JUMPDEST DUP1 PUSH1 0x0 JUMPDEST DUP4 DUP2 LT ISZERO PUSH2 0x623 JUMPI DUP2 MLOAD PUSH2 0x60A DUP9 DUP3 PUSH2 0x5AD JUMP JUMPDEST SWAP8 POP PUSH2 0x615 DUP4 PUSH2 0x5C5 JUMP JUMPDEST SWAP3 POP POP PUSH1 0x1 DUP2 ADD SWAP1 POP PUSH2 0x5F6 JUMP JUMPDEST POP DUP6 SWAP4 POP POP POP POP SWAP3 SWAP2 POP POP JUMP JUMPDEST PUSH1 0x0 PUSH1 0x20 DUP3 ADD SWAP1 POP DUP2 DUP2 SUB PUSH1 0x0 DUP4 ADD MSTORE PUSH2 0x64A DUP2 DUP5 PUSH2 0x5D2 JUMP JUMPDEST SWAP1 POP SWAP3 SWAP2 POP POP JUMP JUMPDEST PUSH32 0x4E487B7100000000000000000000000000000000000000000000000000000000 PUSH1 0x0 MSTORE PUSH1 0x22 PUSH1 0x4 MSTORE PUSH1 0x24 PUSH1 0x0 REVERT JUMPDEST PUSH1 0x0 PUSH1 0x2 DUP3 DIV SWAP1 POP PUSH1 0x1 DUP3 AND DUP1 PUSH2 0x699 JUMPI PUSH1 0x7F DUP3 AND SWAP2 POP JUMPDEST PUSH1 0x20 DUP3 LT DUP2 SUB PUSH2 0x6AC JUMPI PUSH2 0x6AB PUSH2 0x652 JUMP JUMPDEST JUMPDEST POP SWAP2 SWAP1 POP JUMP INVALID LOG2 PUSH5 0x6970667358 0x22 SLT KECCAK256 0xE9 CALLER ADDRESS 0xEE PUSH24 0xF25EF38A074991853EFBC5F3178B2FC52E6D3C3465CF7418 0xC8 PUSH30 0x3664736F6C634300080F0033000000000000000000000000000000000000 "
				},
				"gasEstimates": {
					"creation": {
						"codeDepositCost": "353600",
						"executionCost": "393",
						"totalCost": "353993"
					},
					"external": {
						"examples(uint256[],string)": "infinite",
						"myStructs(address)": "infinite"
					}
				},
				"methodIdentifiers": {
					"examples(uint256[],string)": "fc277a95",
					"myStructs(address)": "b43c5d33"
				}
			},
			"storageLayout": {
				"storage": [
					{
						"astId": 11,
						"contract": "HelloWorld/26DataLocations.sol:DataLocations",
						"label": "myStructs",
						"offset": 0,
						"slot": "0",
						"type": "t_mapping(t_address,t_struct(MyStruct)6_storage)"
					}
				],
				"types": {
					"t_address": {
						"encoding": "inplace",
						"label": "address",
						"numberOfBytes": "20"
					},
					"t_mapping(t_address,t_struct(MyStruct)6_storage)": {
						"encoding": "mapping",
						"key": "t_address",
						"label": "mapping(address => struct DataLocations.MyStruct)",
						"numberOfBytes": "32",
						"value": "t_struct(MyStruct)6_storage"
					},
					"t_string_storage": {
						"encoding": "bytes",
						"label": "string",
						"numberOfBytes": "32"
					},
					"t_struct(MyStruct)6_storage": {
						"encoding": "inplace",
						"label": "struct DataLocations.MyStruct",
						"members": [
							{
								"astId": 3,
								"contract": "HelloWorld/26DataLocations.sol:DataLocations",
								"label": "foo",
								"offset": 0,
								"slot": "0",
								"type": "t_uint256"
							},
							{
								"astId": 5,
								"contract": "HelloWorld/26DataLocations.sol:DataLocations",
								"label": "text",
								"offset": 0,
								"slot": "1",
								"type": "t_string_storage"
							}
						],
						"numberOfBytes": "64"
					},
					"t_uint256": {
						"encoding": "inplace",
						"label": "uint256",
						"numberOfBytes": "32"
					}
				}
			},
			"userdoc": {
				"kind": "user",
				"methods": {},
				"version": 1
			}
		}
	}
}