{
	"HelloWorld/25Proxy.sol": {
		"Proxy": {
			"abi": [
				{
					"anonymous": false,
					"inputs": [
						{
							"indexed": false,
							"internalType": "address",
							"name": "",
							"type": "address"
						}
					],
					"name": "Deploy",
					"type": "event"
				},
				{
					"inputs": [
						{
							"internalType": "bytes",
							"name": "_code",
							"type": "bytes"
						}
					],
					"name": "deploy",
					"outputs": [
						{
							"internalType": "address",
							"name": "addr",
							"type": "address"
						}
					],
					"stateMutability": "payable",
					"type": "function"
				}
			],
			"devdoc": {
				"kind": "dev",
				"methods": {},
				"version": 1
			},
			"evm": {
				"assembly": "    /* \"HelloWorld/25Proxy.sol\":476:877  contract Proxy {... */\n  mstore(0x40, 0x80)\n  callvalue\n  dup1\n  iszero\n  tag_1\n  jumpi\n  0x00\n  dup1\n  revert\ntag_1:\n  pop\n  dataSize(sub_0)\n  dup1\n  dataOffset(sub_0)\n  0x00\n  codecopy\n  0x00\n  return\nstop\n\nsub_0: assembly {\n        /* \"HelloWorld/25Proxy.sol\":476:877  contract Proxy {... */\n      mstore(0x40, 0x80)\n      jumpi(tag_1, lt(calldatasize, 0x04))\n      shr(0xe0, calldataload(0x00))\n      dup1\n      0x774360\n      eq\n      tag_2\n      jumpi\n    tag_1:\n      0x00\n      dup1\n      revert\n        /* \"HelloWorld/25Proxy.sol\":628:875  function deploy(bytes memory _code) external payable returns (address addr) {... */\n    tag_2:\n      tag_3\n      0x04\n      dup1\n      calldatasize\n      sub\n      dup2\n      add\n      swap1\n      tag_4\n      swap2\n      swap1\n      tag_5\n      jump\t// in\n    tag_4:\n      tag_6\n      jump\t// in\n    tag_3:\n      mload(0x40)\n      tag_7\n      swap2\n      swap1\n      tag_8\n      jump\t// in\n    tag_7:\n      mload(0x40)\n      dup1\n      swap2\n      sub\n      swap1\n      return\n    tag_6:\n        /* \"HelloWorld/25Proxy.sol\":690:702  address addr */\n      0x00\n        /* \"HelloWorld/25Proxy.sol\":789:794  _code */\n      dup2\n        /* \"HelloWorld/25Proxy.sol\":783:795  mload(_code) */\n      mload\n        /* \"HelloWorld/25Proxy.sol\":776:780  0x20 */\n      0x20\n        /* \"HelloWorld/25Proxy.sol\":769:774  _code */\n      dup4\n        /* \"HelloWorld/25Proxy.sol\":765:781  add(_code, 0x20) */\n      add\n        /* \"HelloWorld/25Proxy.sol\":752:763  callvalue() */\n      callvalue\n        /* \"HelloWorld/25Proxy.sol\":745:796  create(callvalue(), add(_code, 0x20), mload(_code)) */\n      create\n        /* \"HelloWorld/25Proxy.sol\":737:796  addr := create(callvalue(), add(_code, 0x20), mload(_code)) */\n      swap1\n      pop\n        /* \"HelloWorld/25Proxy.sol\":839:840  0 */\n      0x00\n        /* \"HelloWorld/25Proxy.sol\":823:841  addr != address(0) */\n      0xffffffffffffffffffffffffffffffffffffffff\n      and\n        /* \"HelloWorld/25Proxy.sol\":823:827  addr */\n      dup2\n        /* \"HelloWorld/25Proxy.sol\":823:841  addr != address(0) */\n      0xffffffffffffffffffffffffffffffffffffffff\n      and\n      sub\n        /* \"HelloWorld/25Proxy.sol\":815:859  require(addr != address(0), \"deploy failed\") */\n      tag_10\n      jumpi\n      mload(0x40)\n      0x08c379a000000000000000000000000000000000000000000000000000000000\n      dup2\n      mstore\n      0x04\n      add\n      tag_11\n      swap1\n      tag_12\n      jump\t// in\n    tag_11:\n      mload(0x40)\n      dup1\n      swap2\n      sub\n      swap1\n      revert\n    tag_10:\n        /* \"HelloWorld/25Proxy.sol\":628:875  function deploy(bytes memory _code) external payable returns (address addr) {... */\n      swap2\n      swap1\n      pop\n      jump\t// out\n        /* \"#utility.yul\":7:82   */\n    tag_13:\n        /* \"#utility.yul\":40:46   */\n      0x00\n        /* \"#utility.yul\":73:75   */\n      0x40\n        /* \"#utility.yul\":67:76   */\n      mload\n        /* \"#utility.yul\":57:76   */\n      swap1\n      pop\n        /* \"#utility.yul\":7:82   */\n      swap1\n      jump\t// out\n        /* \"#utility.yul\":88:205   */\n    tag_14:\n        /* \"#utility.yul\":197:198   */\n      0x00\n        /* \"#utility.yul\":194:195   */\n      dup1\n        /* \"#utility.yul\":187:199   */\n      revert\n        /* \"#utility.yul\":211:328   */\n    tag_15:\n        /* \"#utility.yul\":320:321   */\n      0x00\n        /* \"#utility.yul\":317:318   */\n      dup1\n        /* \"#utility.yul\":310:322   */\n      revert\n        /* \"#utility.yul\":334:451   */\n    tag_16:\n        /* \"#utility.yul\":443:444   */\n      0x00\n        /* \"#utility.yul\":440:441   */\n      dup1\n        /* \"#utility.yul\":433:445   */\n      revert\n        /* \"#utility.yul\":457:574   */\n    tag_17:\n        /* \"#utility.yul\":566:567   */\n      0x00\n        /* \"#utility.yul\":563:564   */\n      dup1\n        /* \"#utility.yul\":556:568   */\n      revert\n        /* \"#utility.yul\":580:682   */\n    tag_18:\n        /* \"#utility.yul\":621:627   */\n      0x00\n        /* \"#utility.yul\":672:674   */\n      0x1f\n        /* \"#utility.yul\":668:675   */\n      not\n        /* \"#utility.yul\":663:665   */\n      0x1f\n        /* \"#utility.yul\":656:661   */\n      dup4\n        /* \"#utility.yul\":652:666   */\n      add\n        /* \"#utility.yul\":648:676   */\n      and\n        /* \"#utility.yul\":638:676   */\n      swap1\n      pop\n        /* \"#utility.yul\":580:682   */\n      swap2\n      swap1\n      pop\n      jump\t// out\n        /* \"#utility.yul\":688:868   */\n    tag_19:\n        /* \"#utility.yul\":736:813   */\n      0x4e487b7100000000000000000000000000000000000000000000000000000000\n        /* \"#utility.yul\":733:734   */\n      0x00\n        /* \"#utility.yul\":726:814   */\n      mstore\n        /* \"#utility.yul\":833:837   */\n      0x41\n        /* \"#utility.yul\":830:831   */\n      0x04\n        /* \"#utility.yul\":823:838   */\n      mstore\n        /* \"#utility.yul\":857:861   */\n      0x24\n        /* \"#utility.yul\":854:855   */\n      0x00\n        /* \"#utility.yul\":847:862   */\n      revert\n        /* \"#utility.yul\":874:1155   */\n    tag_20:\n        /* \"#utility.yul\":957:984   */\n      tag_41\n        /* \"#utility.yul\":979:983   */\n      dup3\n        /* \"#utility.yul\":957:984   */\n      tag_18\n      jump\t// in\n    tag_41:\n        /* \"#utility.yul\":949:955   */\n      dup2\n        /* \"#utility.yul\":945:985   */\n      add\n        /* \"#utility.yul\":1087:1093   */\n      dup2\n        /* \"#utility.yul\":1075:1085   */\n      dup2\n        /* \"#utility.yul\":1072:1094   */\n      lt\n        /* \"#utility.yul\":1051:1069   */\n      0xffffffffffffffff\n        /* \"#utility.yul\":1039:1049   */\n      dup3\n        /* \"#utility.yul\":1036:1070   */\n      gt\n        /* \"#utility.yul\":1033:1095   */\n      or\n        /* \"#utility.yul\":1030:1118   */\n      iszero\n      tag_42\n      jumpi\n        /* \"#utility.yul\":1098:1116   */\n      tag_43\n      tag_19\n      jump\t// in\n    tag_43:\n        /* \"#utility.yul\":1030:1118   */\n    tag_42:\n        /* \"#utility.yul\":1138:1148   */\n      dup1\n        /* \"#utility.yul\":1134:1136   */\n      0x40\n        /* \"#utility.yul\":1127:1149   */\n      mstore\n        /* \"#utility.yul\":917:1155   */\n      pop\n        /* \"#utility.yul\":874:1155   */\n      pop\n      pop\n      jump\t// out\n        /* \"#utility.yul\":1161:1290   */\n    tag_21:\n        /* \"#utility.yul\":1195:1201   */\n      0x00\n        /* \"#utility.yul\":1222:1242   */\n      tag_45\n      tag_13\n      jump\t// in\n    tag_45:\n        /* \"#utility.yul\":1212:1242   */\n      swap1\n      pop\n        /* \"#utility.yul\":1251:1284   */\n      tag_46\n        /* \"#utility.yul\":1279:1283   */\n      dup3\n        /* \"#utility.yul\":1271:1277   */\n      dup3\n        /* \"#utility.yul\":1251:1284   */\n      tag_20\n      jump\t// in\n    tag_46:\n        /* \"#utility.yul\":1161:1290   */\n      swap2\n      swap1\n      pop\n      jump\t// out\n        /* \"#utility.yul\":1296:1603   */\n    tag_22:\n        /* \"#utility.yul\":1357:1361   */\n      0x00\n        /* \"#utility.yul\":1447:1465   */\n      0xffffffffffffffff\n        /* \"#utility.yul\":1439:1445   */\n      dup3\n        /* \"#utility.yul\":1436:1466   */\n      gt\n        /* \"#utility.yul\":1433:1489   */\n      iszero\n      tag_48\n      jumpi\n        /* \"#utility.yul\":1469:1487   */\n      tag_49\n      tag_19\n      jump\t// in\n    tag_49:\n        /* \"#utility.yul\":1433:1489   */\n    tag_48:\n        /* \"#utility.yul\":1507:1536   */\n      tag_50\n        /* \"#utility.yul\":1529:1535   */\n      dup3\n        /* \"#utility.yul\":1507:1536   */\n      tag_18\n      jump\t// in\n    tag_50:\n        /* \"#utility.yul\":1499:1536   */\n      swap1\n      pop\n        /* \"#utility.yul\":1591:1595   */\n      0x20\n        /* \"#utility.yul\":1585:1589   */\n      dup2\n        /* \"#utility.yul\":1581:1596   */\n      add\n        /* \"#utility.yul\":1573:1596   */\n      swap1\n      pop\n        /* \"#utility.yul\":1296:1603   */\n      swap2\n      swap1\n      pop\n      jump\t// out\n        /* \"#utility.yul\":1609:1763   */\n    tag_23:\n        /* \"#utility.yul\":1693:1699   */\n      dup3\n        /* \"#utility.yul\":1688:1691   */\n      dup2\n        /* \"#utility.yul\":1683:1686   */\n      dup4\n        /* \"#utility.yul\":1670:1700   */\n      calldatacopy\n        /* \"#utility.yul\":1755:1756   */\n      0x00\n        /* \"#utility.yul\":1746:1752   */\n      dup4\n        /* \"#utility.yul\":1741:1744   */\n      dup4\n        /* \"#utility.yul\":1737:1753   */\n      add\n        /* \"#utility.yul\":1730:1757   */\n      mstore\n        /* \"#utility.yul\":1609:1763   */\n      pop\n      pop\n      pop\n      jump\t// out\n        /* \"#utility.yul\":1769:2179   */\n    tag_24:\n        /* \"#utility.yul\":1846:1851   */\n      0x00\n        /* \"#utility.yul\":1871:1936   */\n      tag_53\n        /* \"#utility.yul\":1887:1935   */\n      tag_54\n        /* \"#utility.yul\":1928:1934   */\n      dup5\n        /* \"#utility.yul\":1887:1935   */\n      tag_22\n      jump\t// in\n    tag_54:\n        /* \"#utility.yul\":1871:1936   */\n      tag_21\n      jump\t// in\n    tag_53:\n        /* \"#utility.yul\":1862:1936   */\n      swap1\n      pop\n        /* \"#utility.yul\":1959:1965   */\n      dup3\n        /* \"#utility.yul\":1952:1957   */\n      dup2\n        /* \"#utility.yul\":1945:1966   */\n      mstore\n        /* \"#utility.yul\":1997:2001   */\n      0x20\n        /* \"#utility.yul\":1990:1995   */\n      dup2\n        /* \"#utility.yul\":1986:2002   */\n      add\n        /* \"#utility.yul\":2035:2038   */\n      dup5\n        /* \"#utility.yul\":2026:2032   */\n      dup5\n        /* \"#utility.yul\":2021:2024   */\n      dup5\n        /* \"#utility.yul\":2017:2033   */\n      add\n        /* \"#utility.yul\":2014:2039   */\n      gt\n        /* \"#utility.yul\":2011:2123   */\n      iszero\n      tag_55\n      jumpi\n        /* \"#utility.yul\":2042:2121   */\n      tag_56\n      tag_17\n      jump\t// in\n    tag_56:\n        /* \"#utility.yul\":2011:2123   */\n    tag_55:\n        /* \"#utility.yul\":2132:2173   */\n      tag_57\n        /* \"#utility.yul\":2166:2172   */\n      dup5\n        /* \"#utility.yul\":2161:2164   */\n      dup3\n        /* \"#utility.yul\":2156:2159   */\n      dup6\n        /* \"#utility.yul\":2132:2173   */\n      tag_23\n      jump\t// in\n    tag_57:\n        /* \"#utility.yul\":1852:2179   */\n      pop\n        /* \"#utility.yul\":1769:2179   */\n      swap4\n      swap3\n      pop\n      pop\n      pop\n      jump\t// out\n        /* \"#utility.yul\":2198:2536   */\n    tag_25:\n        /* \"#utility.yul\":2253:2258   */\n      0x00\n        /* \"#utility.yul\":2302:2305   */\n      dup3\n        /* \"#utility.yul\":2295:2299   */\n      0x1f\n        /* \"#utility.yul\":2287:2293   */\n      dup4\n        /* \"#utility.yul\":2283:2300   */\n      add\n        /* \"#utility.yul\":2279:2306   */\n      slt\n        /* \"#utility.yul\":2269:2391   */\n      tag_59\n      jumpi\n        /* \"#utility.yul\":2310:2389   */\n      tag_60\n      tag_16\n      jump\t// in\n    tag_60:\n        /* \"#utility.yul\":2269:2391   */\n    tag_59:\n        /* \"#utility.yul\":2427:2433   */\n      dup2\n        /* \"#utility.yul\":2414:2434   */\n      calldataload\n        /* \"#utility.yul\":2452:2530   */\n      tag_61\n        /* \"#utility.yul\":2526:2529   */\n      dup5\n        /* \"#utility.yul\":2518:2524   */\n      dup3\n        /* \"#utility.yul\":2511:2515   */\n      0x20\n        /* \"#utility.yul\":2503:2509   */\n      dup7\n        /* \"#utility.yul\":2499:2516   */\n      add\n        /* \"#utility.yul\":2452:2530   */\n      tag_24\n      jump\t// in\n    tag_61:\n        /* \"#utility.yul\":2443:2530   */\n      swap2\n      pop\n        /* \"#utility.yul\":2259:2536   */\n      pop\n        /* \"#utility.yul\":2198:2536   */\n      swap3\n      swap2\n      pop\n      pop\n      jump\t// out\n        /* \"#utility.yul\":2542:3049   */\n    tag_5:\n        /* \"#utility.yul\":2610:2616   */\n      0x00\n        /* \"#utility.yul\":2659:2661   */\n      0x20\n        /* \"#utility.yul\":2647:2656   */\n      dup3\n        /* \"#utility.yul\":2638:2645   */\n      dup5\n        /* \"#utility.yul\":2634:2657   */\n      sub\n        /* \"#utility.yul\":2630:2662   */\n      slt\n        /* \"#utility.yul\":2627:2746   */\n      iszero\n      tag_63\n      jumpi\n        /* \"#utility.yul\":2665:2744   */\n      tag_64\n      tag_14\n      jump\t// in\n    tag_64:\n        /* \"#utility.yul\":2627:2746   */\n    tag_63:\n        /* \"#utility.yul\":2813:2814   */\n      0x00\n        /* \"#utility.yul\":2802:2811   */\n      dup3\n        /* \"#utility.yul\":2798:2815   */\n      add\n        /* \"#utility.yul\":2785:2816   */\n      calldataload\n        /* \"#utility.yul\":2843:2861   */\n      0xffffffffffffffff\n        /* \"#utility.yul\":2835:2841   */\n      dup2\n        /* \"#utility.yul\":2832:2862   */\n      gt\n        /* \"#utility.yul\":2829:2946   */\n      iszero\n      tag_65\n      jumpi\n        /* \"#utility.yul\":2865:2944   */\n      tag_66\n      tag_15\n      jump\t// in\n    tag_66:\n        /* \"#utility.yul\":2829:2946   */\n    tag_65:\n        /* \"#utility.yul\":2970:3032   */\n      tag_67\n        /* \"#utility.yul\":3024:3031   */\n      dup5\n        /* \"#utility.yul\":3015:3021   */\n      dup3\n        /* \"#utility.yul\":3004:3013   */\n      dup6\n        /* \"#utility.yul\":3000:3022   */\n      add\n        /* \"#utility.yul\":2970:3032   */\n      tag_25\n      jump\t// in\n    tag_67:\n        /* \"#utility.yul\":2960:3032   */\n      swap2\n      pop\n        /* \"#utility.yul\":2756:3042   */\n      pop\n        /* \"#utility.yul\":2542:3049   */\n      swap3\n      swap2\n      pop\n      pop\n      jump\t// out\n        /* \"#utility.yul\":3055:3181   */\n    tag_26:\n        /* \"#utility.yul\":3092:3099   */\n      0x00\n        /* \"#utility.yul\":3132:3174   */\n      0xffffffffffffffffffffffffffffffffffffffff\n        /* \"#utility.yul\":3125:3130   */\n      dup3\n        /* \"#utility.yul\":3121:3175   */\n      and\n        /* \"#utility.yul\":3110:3175   */\n      swap1\n      pop\n        /* \"#utility.yul\":3055:3181   */\n      swap2\n      swap1\n      pop\n      jump\t// out\n        /* \"#utility.yul\":3187:3283   */\n    tag_27:\n        /* \"#utility.yul\":3224:3231   */\n      0x00\n        /* \"#utility.yul\":3253:3277   */\n      tag_70\n        /* \"#utility.yul\":3271:3276   */\n      dup3\n        /* \"#utility.yul\":3253:3277   */\n      tag_26\n      jump\t// in\n    tag_70:\n        /* \"#utility.yul\":3242:3277   */\n      swap1\n      pop\n        /* \"#utility.yul\":3187:3283   */\n      swap2\n      swap1\n      pop\n      jump\t// out\n        /* \"#utility.yul\":3289:3407   */\n    tag_28:\n        /* \"#utility.yul\":3376:3400   */\n      tag_72\n        /* \"#utility.yul\":3394:3399   */\n      dup2\n        /* \"#utility.yul\":3376:3400   */\n      tag_27\n      jump\t// in\n    tag_72:\n        /* \"#utility.yul\":3371:3374   */\n      dup3\n        /* \"#utility.yul\":3364:3401   */\n      mstore\n        /* \"#utility.yul\":3289:3407   */\n      pop\n      pop\n      jump\t// out\n        /* \"#utility.yul\":3413:3635   */\n    tag_8:\n        /* \"#utility.yul\":3506:3510   */\n      0x00\n        /* \"#utility.yul\":3544:3546   */\n      0x20\n        /* \"#utility.yul\":3533:3542   */\n      dup3\n        /* \"#utility.yul\":3529:3547   */\n      add\n        /* \"#utility.yul\":3521:3547   */\n      swap1\n      pop\n        /* \"#utility.yul\":3557:3628   */\n      tag_74\n        /* \"#utility.yul\":3625:3626   */\n      0x00\n        /* \"#utility.yul\":3614:3623   */\n      dup4\n        /* \"#utility.yul\":3610:3627   */\n      add\n        /* \"#utility.yul\":3601:3607   */\n      dup5\n        /* \"#utility.yul\":3557:3628   */\n      tag_28\n      jump\t// in\n    tag_74:\n        /* \"#utility.yul\":3413:3635   */\n      swap3\n      swap2\n      pop\n      pop\n      jump\t// out\n        /* \"#utility.yul\":3641:3810   */\n    tag_29:\n        /* \"#utility.yul\":3725:3736   */\n      0x00\n        /* \"#utility.yul\":3759:3765   */\n      dup3\n        /* \"#utility.yul\":3754:3757   */\n      dup3\n        /* \"#utility.yul\":3747:3766   */\n      mstore\n        /* \"#utility.yul\":3799:3803   */\n      0x20\n        /* \"#utility.yul\":3794:3797   */\n      dup3\n        /* \"#utility.yul\":3790:3804   */\n      add\n        /* \"#utility.yul\":3775:3804   */\n      swap1\n      pop\n        /* \"#utility.yul\":3641:3810   */\n      swap3\n      swap2\n      pop\n      pop\n      jump\t// out\n        /* \"#utility.yul\":3816:3979   */\n    tag_30:\n        /* \"#utility.yul\":3956:3971   */\n      0x6465706c6f79206661696c656400000000000000000000000000000000000000\n        /* \"#utility.yul\":3952:3953   */\n      0x00\n        /* \"#utility.yul\":3944:3950   */\n      dup3\n        /* \"#utility.yul\":3940:3954   */\n      add\n        /* \"#utility.yul\":3933:3972   */\n      mstore\n        /* \"#utility.yul\":3816:3979   */\n      pop\n      jump\t// out\n        /* \"#utility.yul\":3985:4351   */\n    tag_31:\n        /* \"#utility.yul\":4127:4130   */\n      0x00\n        /* \"#utility.yul\":4148:4215   */\n      tag_78\n        /* \"#utility.yul\":4212:4214   */\n      0x0d\n        /* \"#utility.yul\":4207:4210   */\n      dup4\n        /* \"#utility.yul\":4148:4215   */\n      tag_29\n      jump\t// in\n    tag_78:\n        /* \"#utility.yul\":4141:4215   */\n      swap2\n      pop\n        /* \"#utility.yul\":4224:4317   */\n      tag_79\n        /* \"#utility.yul\":4313:4316   */\n      dup3\n        /* \"#utility.yul\":4224:4317   */\n      tag_30\n      jump\t// in\n    tag_79:\n        /* \"#utility.yul\":4342:4344   */\n      0x20\n        /* \"#utility.yul\":4337:4340   */\n      dup3\n        /* \"#utility.yul\":4333:4345   */\n      add\n        /* \"#utility.yul\":4326:4345   */\n      swap1\n      pop\n        /* \"#utility.yul\":3985:4351   */\n      swap2\n      swap1\n      pop\n      jump\t// out\n        /* \"#utility.yul\":4357:4776   */\n    tag_12:\n        /* \"#utility.yul\":4523:4527   */\n      0x00\n        /* \"#utility.yul\":4561:4563   */\n      0x20\n        /* \"#utility.yul\":4550:4559   */\n      dup3\n        /* \"#utility.yul\":4546:4564   */\n      add\n        /* \"#utility.yul\":4538:4564   */\n      swap1\n      pop\n        /* \"#utility.yul\":4610:4619   */\n      dup2\n        /* \"#utility.yul\":4604:4608   */\n      dup2\n        /* \"#utility.yul\":4600:4620   */\n      sub\n        /* \"#utility.yul\":4596:4597   */\n      0x00\n        /* \"#utility.yul\":4585:4594   */\n      dup4\n        /* \"#utility.yul\":4581:4598   */\n      add\n        /* \"#utility.yul\":4574:4621   */\n      mstore\n        /* \"#utility.yul\":4638:4769   */\n      tag_81\n        /* \"#utility.yul\":4764:4768   */\n      dup2\n        /* \"#utility.yul\":4638:4769   */\n      tag_31\n      jump\t// in\n    tag_81:\n        /* \"#utility.yul\":4630:4769   */\n      swap1\n      pop\n        /* \"#utility.yul\":4357:4776   */\n      swap2\n      swap1\n      pop\n      jump\t// out\n\n    auxdata: 0xa264697066735822122024c6c46733b592e55c91806d11e70ad745346a6e0ad955c50539f98b1a0583e864736f6c634300080f0033\n}\n",
				"bytecode": {
					"linkReferences": {},
					"object": "608060405234801561001057600080fd5b50610384806100206000396000f3fe60806040526004361061001d5760003560e01c806277436014610022575b600080fd5b61003c6004803603810190610037919061022c565b610052565b60405161004991906102b6565b60405180910390f35b600081516020830134f09050600073ffffffffffffffffffffffffffffffffffffffff168173ffffffffffffffffffffffffffffffffffffffff16036100cd576040517f08c379a00000000000000000000000000000000000000000000000000000000081526004016100c49061032e565b60405180910390fd5b919050565b6000604051905090565b600080fd5b600080fd5b600080fd5b600080fd5b6000601f19601f8301169050919050565b7f4e487b7100000000000000000000000000000000000000000000000000000000600052604160045260246000fd5b610139826100f0565b810181811067ffffffffffffffff8211171561015857610157610101565b5b80604052505050565b600061016b6100d2565b90506101778282610130565b919050565b600067ffffffffffffffff82111561019757610196610101565b5b6101a0826100f0565b9050602081019050919050565b82818337600083830152505050565b60006101cf6101ca8461017c565b610161565b9050828152602081018484840111156101eb576101ea6100eb565b5b6101f68482856101ad565b509392505050565b600082601f830112610213576102126100e6565b5b81356102238482602086016101bc565b91505092915050565b600060208284031215610242576102416100dc565b5b600082013567ffffffffffffffff8111156102605761025f6100e1565b5b61026c848285016101fe565b91505092915050565b600073ffffffffffffffffffffffffffffffffffffffff82169050919050565b60006102a082610275565b9050919050565b6102b081610295565b82525050565b60006020820190506102cb60008301846102a7565b92915050565b600082825260208201905092915050565b7f6465706c6f79206661696c656400000000000000000000000000000000000000600082015250565b6000610318600d836102d1565b9150610323826102e2565b602082019050919050565b600060208201905081810360008301526103478161030b565b905091905056fea264697066735822122024c6c46733b592e55c91806d11e70ad745346a6e0ad955c50539f98b1a0583e864736f6c634300080f0033",
					"opcodes": "PUSH1 0x80 PUSH1 0x40 MSTORE CALLVALUE DUP1 ISZERO PUSH2 0x10 JUMPI PUSH1 0x0 DUP1 REVERT JUMPDEST POP PUSH2 0x384 DUP1 PUSH2 0x20 PUSH1 0x0 CODECOPY PUSH1 0x0 RETURN INVALID PUSH1 0x80 PUSH1 0x40 MSTORE PUSH1 0x4 CALLDATASIZE LT PUSH2 0x1D JUMPI PUSH1 0x0 CALLDATALOAD PUSH1 0xE0 SHR DUP1 PUSH3 0x774360 EQ PUSH2 0x22 JUMPI JUMPDEST PUSH1 0x0 DUP1 REVERT JUMPDEST PUSH2 0x3C PUSH1 0x4 DUP1 CALLDATASIZE SUB DUP2 ADD SWAP1 PUSH2 0x37 SWAP2 SWAP1 PUSH2 0x22C JUMP JUMPDEST PUSH2 0x52 JUMP JUMPDEST PUSH1 0x40 MLOAD PUSH2 0x49 SWAP2 SWAP1 PUSH2 0x2B6 JUMP JUMPDEST PUSH1 0x40 MLOAD DUP1 SWAP2 SUB SWAP1 RETURN JUMPDEST PUSH1 0x0 DUP2 MLOAD PUSH1 0x20 DUP4 ADD CALLVALUE CREATE SWAP1 POP PUSH1 0x0 PUSH20 0xFFFFFFFFFFFFFFFFFFFFFFFFFFFFFFFFFFFFFFFF AND DUP2 PUSH20 0xFFFFFFFFFFFFFFFFFFFFFFFFFFFFFFFFFFFFFFFF AND SUB PUSH2 0xCD JUMPI PUSH1 0x40 MLOAD PUSH32 0x8C379A000000000000000000000000000000000000000000000000000000000 DUP2 MSTORE PUSH1 0x4 ADD PUSH2 0xC4 SWAP1 PUSH2 0x32E JUMP JUMPDEST PUSH1 0x40 MLOAD DUP1 SWAP2 SUB SWAP1 REVERT JUMPDEST SWAP2 SWAP1 POP JUMP JUMPDEST PUSH1 0x0 PUSH1 0x40 MLOAD SWAP1 POP SWAP1 JUMP JUMPDEST PUSH1 0x0 DUP1 REVERT JUMPDEST PUSH1 0x0 DUP1 REVERT JUMPDEST PUSH1 0x0 DUP1 REVERT JUMPDEST PUSH1 0x0 DUP1 REVERT JUMPDEST PUSH1 0x0 PUSH1 0x1F NOT PUSH1 0x1F DUP4 ADD AND SWAP1 POP SWAP2 SWAP1 POP JUMP JUMPDEST PUSH32 0x4E487B7100000000000000000000000000000000000000000000000000000000 PUSH1 0x0 MSTORE PUSH1 0x41 PUSH1 0x4 MSTORE PUSH1 0x24 PUSH1 0x0 REVERT JUMPDEST PUSH2 0x139 DUP3 PUSH2 0xF0 JUMP JUMPDEST DUP2 ADD DUP2 DUP2 LT PUSH8 0xFFFFFFFFFFFFFFFF DUP3 GT OR ISZERO PUSH2 0x158 JUMPI PUSH2 0x157 PUSH2 0x101 JUMP JUMPDEST JUMPDEST DUP1 PUSH1 0x40 MSTORE POP POP POP JUMP JUMPDEST PUSH1 0x0 PUSH2 0x16B PUSH2 0xD2 JUMP JUMPDEST SWAP1 POP PUSH2 0x177 DUP3 DUP3 PUSH2 0x130 JUMP JUMPDEST SWAP2 SWAP1 POP JUMP JUMPDEST PUSH1 0x0 PUSH8 0xFFFFFFFFFFFFFFFF DUP3 GT ISZERO PUSH2 0x197 JUMPI PUSH2 0x196 PUSH2 0x101 JUMP JUMPDEST JUMPDEST PUSH2 0x1A0 DUP3 PUSH2 0xF0 JUMP JUMPDEST SWAP1 POP PUSH1 0x20 DUP2 ADD SWAP1 POP SWAP2 SWAP1 POP JUMP JUMPDEST DUP3 DUP2 DUP4 CALLDATACOPY PUSH1 0x0 DUP4 DUP4 ADD MSTORE POP POP POP JUMP JUMPDEST PUSH1 0x0 PUSH2 0x1CF PUSH2 0x1CA DUP5 PUSH2 0x17C JUMP JUMPDEST PUSH2 0x161 JUMP JUMPDEST SWAP1 POP DUP3 DUP2 MSTORE PUSH1 0x20 DUP2 ADD DUP5 DUP5 DUP5 ADD GT ISZERO PUSH2 0x1EB JUMPI PUSH2 0x1EA PUSH2 0xEB JUMP JUMPDEST JUMPDEST PUSH2 0x1F6 DUP5 DUP3 DUP6 PUSH2 0x1AD JUMP JUMPDEST POP SWAP4 SWAP3 POP POP POP JUMP JUMPDEST PUSH1 0x0 DUP3 PUSH1 0x1F DUP4 ADD SLT PUSH2 0x213 JUMPI PUSH2 0x212 PUSH2 0xE6 JUMP JUMPDEST JUMPDEST DUP2 CALLDATALOAD PUSH2 0x223 DUP5 DUP3 PUSH1 0x20 DUP7 ADD PUSH2 0x1BC JUMP JUMPDEST SWAP2 POP POP SWAP3 SWAP2 POP POP JUMP JUMPDEST PUSH1 0x0 PUSH1 0x20 DUP3 DUP5 SUB SLT ISZERO PUSH2 0x242 JUMPI PUSH2 0x241 PUSH2 0xDC JUMP JUMPDEST JUMPDEST PUSH1 0x0 DUP3 ADD CALLDATALOAD PUSH8 0xFFFFFFFFFFFFFFFF DUP2 GT ISZERO PUSH2 0x260 JUMPI PUSH2 0x25F PUSH2 0xE1 JUMP JUMPDEST JUMPDEST PUSH2 0x26C DUP5 DUP3 DUP6 ADD PUSH2 0x1FE JUMP JUMPDEST SWAP2 POP POP SWAP3 SWAP2 POP POP JUMP JUMPDEST PUSH1 0x0 PUSH20 0xFFFFFFFFFFFFFFFFFFFFFFFFFFFFFFFFFFFFFFFF DUP3 AND SWAP1 POP SWAP2 SWAP1 POP JUMP JUMPDEST PUSH1 0x0 PUSH2 0x2A0 DUP3 PUSH2 0x275 JUMP JUMPDEST SWAP1 POP SWAP2 SWAP1 POP JUMP JUMPDEST PUSH2 0x2B0 DUP2 PUSH2 0x295 JUMP JUMPDEST DUP3 MSTORE POP POP JUMP JUMPDEST PUSH1 0x0 PUSH1 0x20 DUP3 ADD SWAP1 POP PUSH2 0x2CB PUSH1 0x0 DUP4 ADD DUP5 PUSH2 0x2A7 JUMP JUMPDEST SWAP3 SWAP2 POP POP JUMP JUMPDEST PUSH1 0x0 DUP3 DUP3 MSTORE PUSH1 0x20 DUP3 ADD SWAP1 POP SWAP3 SWAP2 POP POP JUMP JUMPDEST PUSH32 0x6465706C6F79206661696C656400000000000000000000000000000000000000 PUSH1 0x0 DUP3 ADD MSTORE POP JUMP JUMPDEST PUSH1 0x0 PUSH2 0x318 PUSH1 0xD DUP4 PUSH2 0x2D1 JUMP JUMPDEST SWAP2 POP PUSH2 0x323 DUP3 PUSH2 0x2E2 JUMP JUMPDEST PUSH1 0x20 DUP3 ADD SWAP1 POP SWAP2 SWAP1 POP JUMP JUMPDEST PUSH1 0x0 PUSH1 0x20 DUP3 ADD SWAP1 POP DUP2 DUP2 SUB PUSH1 0x0 DUP4 ADD MSTORE PUSH2 0x347 DUP2 PUSH2 0x30B JUMP JUMPDEST SWAP1 POP SWAP2 SWAP1 POP JUMP INVALID LOG2 PUSH5 0x6970667358 0x22 SLT KECCAK256 0x24 0xC6 0xC4 PUSH8 0x33B592E55C91806D GT 0xE7 EXP 0xD7 GASLIMIT CALLVALUE PUSH11 0x6E0AD955C50539F98B1A05 DUP4 0xE8 PUSH5 0x736F6C6343 STOP ADDMOD 0xF STOP CALLER "
				},
				"gasEstimates": {
					"creation": {
						"codeDepositCost": "180000",
						"executionCost": "226",
						"totalCost": "180226"
					},
					"external": {
						"deploy(bytes)": "infinite"
					}
				},
				"methodIdentifiers": {
					"deploy(bytes)": "00774360"
				}
			},
			"storageLayout": {
				"storage": [],
				"types": null
			},
			"userdoc": {
				"kind": "user",
				"methods": {},
				"version": 1
			}
		}
	}
}