{
	"HelloWorld/28TodoList.sol": {
		"TodoList": {
			"abi": [
				{
					"inputs": [
						{
							"internalType": "string",
							"name": "_text",
							"type": "string"
						}
					],
					"name": "create",
					"outputs": [],
					"stateMutability": "nonpayable",
					"type": "function"
				},
				{
					"inputs": [
						{
							"internalType": "uint256",
							"name": "",
							"type": "uint256"
						}
					],
					"name": "todos",
					"outputs": [
						{
							"internalType": "string",
							"name": "text",
							"type": "string"
						},
						{
							"internalType": "bool",
							"name": "completed",
							"type": "bool"
						}
					],
					"stateMutability": "view",
					"type": "function"
				},
				{
					"inputs": [
						{
							"internalType": "uint256",
							"name": "_index",
							"type": "uint256"
						},
						{
							"internalType": "string",
							"name": "_text",
							"type": "string"
						}
					],
					"name": "updateText",
					"outputs": [],
					"stateMutability": "nonpayable",
					"type": "function"
				}
			],
			"devdoc": {
				"kind": "dev",
				"methods": {},
				"version": 1
			},
			"evm": {
				"assembly": "    /* \"HelloWorld/28TodoList.sol\":58:444  contract TodoList {... */\n  mstore(0x40, 0x80)\n  callvalue\n  dup1\n  iszero\n  tag_1\n  jumpi\n  0x00\n  dup1\n  revert\ntag_1:\n  pop\n  dataSize(sub_0)\n  dup1\n  dataOffset(sub_0)\n  0x00\n  codecopy\n  0x00\n  return\nstop\n\nsub_0: assembly {\n        /* \"HelloWorld/28TodoList.sol\":58:444  contract TodoList {... */\n      mstore(0x40, 0x80)\n      callvalue\n      dup1\n      iszero\n      tag_1\n      jumpi\n      0x00\n      dup1\n      revert\n    tag_1:\n      pop\n      jumpi(tag_2, lt(calldatasize, 0x04))\n      shr(0xe0, calldataload(0x00))\n      dup1\n      0xb6a46b3b\n      eq\n      tag_3\n      jumpi\n      dup1\n      0xbc8bc2b4\n      eq\n      tag_4\n      jumpi\n      dup1\n      0xcd111614\n      eq\n      tag_5\n      jumpi\n    tag_2:\n      0x00\n      dup1\n      revert\n        /* \"HelloWorld/28TodoList.sol\":178:326  function create(string calldata _text) external {... */\n    tag_3:\n      tag_6\n      0x04\n      dup1\n      calldatasize\n      sub\n      dup2\n      add\n      swap1\n      tag_7\n      swap2\n      swap1\n      tag_8\n      jump\t// in\n    tag_7:\n      tag_9\n      jump\t// in\n    tag_6:\n      stop\n        /* \"HelloWorld/28TodoList.sol\":152:171  Todo[] public todos */\n    tag_4:\n      tag_10\n      0x04\n      dup1\n      calldatasize\n      sub\n      dup2\n      add\n      swap1\n      tag_11\n      swap2\n      swap1\n      tag_12\n      jump\t// in\n    tag_11:\n      tag_13\n      jump\t// in\n    tag_10:\n      mload(0x40)\n      tag_14\n      swap3\n      swap2\n      swap1\n      tag_15\n      jump\t// in\n    tag_14:\n      mload(0x40)\n      dup1\n      swap2\n      sub\n      swap1\n      return\n        /* \"HelloWorld/28TodoList.sol\":332:440  function updateText(uint _index, string calldata _text) external {... */\n    tag_5:\n      tag_16\n      0x04\n      dup1\n      calldatasize\n      sub\n      dup2\n      add\n      swap1\n      tag_17\n      swap2\n      swap1\n      tag_18\n      jump\t// in\n    tag_17:\n      tag_19\n      jump\t// in\n    tag_16:\n      stop\n        /* \"HelloWorld/28TodoList.sol\":178:326  function create(string calldata _text) external {... */\n    tag_9:\n        /* \"HelloWorld/28TodoList.sol\":236:241  todos */\n      0x00\n        /* \"HelloWorld/28TodoList.sol\":247:318  Todo({... */\n      mload(0x40)\n      dup1\n      0x40\n      add\n      0x40\n      mstore\n      dup1\n        /* \"HelloWorld/28TodoList.sol\":272:277  _text */\n      dup5\n      dup5\n        /* \"HelloWorld/28TodoList.sol\":247:318  Todo({... */\n      dup1\n      dup1\n      0x1f\n      add\n      0x20\n      dup1\n      swap2\n      div\n      mul\n      0x20\n      add\n      mload(0x40)\n      swap1\n      dup2\n      add\n      0x40\n      mstore\n      dup1\n      swap4\n      swap3\n      swap2\n      swap1\n      dup2\n      dup2\n      mstore\n      0x20\n      add\n      dup4\n      dup4\n      dup1\n      dup3\n      dup5\n      calldatacopy\n      0x00\n      dup2\n      dup5\n      add\n      mstore\n      not(0x1f)\n      0x1f\n      dup3\n      add\n      and\n      swap1\n      pop\n      dup1\n      dup4\n      add\n      swap3\n      pop\n      pop\n      pop\n      pop\n      pop\n      pop\n      pop\n      dup2\n      mstore\n      0x20\n      add\n        /* \"HelloWorld/28TodoList.sol\":302:307  false */\n      0x00\n        /* \"HelloWorld/28TodoList.sol\":247:318  Todo({... */\n      iszero\n      iszero\n      dup2\n      mstore\n      pop\n        /* \"HelloWorld/28TodoList.sol\":236:319  todos.push(Todo({... */\n      swap1\n      dup1\n      0x01\n      dup2\n      sload\n      add\n      dup1\n      dup3\n      sstore\n      dup1\n      swap2\n      pop\n      pop\n      0x01\n      swap1\n      sub\n      swap1\n      0x00\n      mstore\n      keccak256(0x00, 0x20)\n      swap1\n      0x02\n      mul\n      add\n      0x00\n      swap1\n      swap2\n      swap1\n      swap2\n      swap1\n      swap2\n      pop\n      0x00\n      dup3\n      add\n      mload\n      dup2\n      0x00\n      add\n      swap1\n      dup2\n      tag_22\n      swap2\n      swap1\n      tag_23\n      jump\t// in\n    tag_22:\n      pop\n      0x20\n      dup3\n      add\n      mload\n      dup2\n      0x01\n      add\n      exp(0x0100, 0x00)\n      dup2\n      sload\n      dup2\n      0xff\n      mul\n      not\n      and\n      swap1\n      dup4\n      iszero\n      iszero\n      mul\n      or\n      swap1\n      sstore\n      pop\n      pop\n      pop\n        /* \"HelloWorld/28TodoList.sol\":178:326  function create(string calldata _text) external {... */\n      pop\n      pop\n      jump\t// out\n        /* \"HelloWorld/28TodoList.sol\":152:171  Todo[] public todos */\n    tag_13:\n      0x00\n      dup2\n      dup2\n      sload\n      dup2\n      lt\n      tag_24\n      jumpi\n      0x00\n      dup1\n      revert\n    tag_24:\n      swap1\n      0x00\n      mstore\n      keccak256(0x00, 0x20)\n      swap1\n      0x02\n      mul\n      add\n      0x00\n      swap2\n      pop\n      swap1\n      pop\n      dup1\n      0x00\n      add\n      dup1\n      sload\n      tag_26\n      swap1\n      tag_27\n      jump\t// in\n    tag_26:\n      dup1\n      0x1f\n      add\n      0x20\n      dup1\n      swap2\n      div\n      mul\n      0x20\n      add\n      mload(0x40)\n      swap1\n      dup2\n      add\n      0x40\n      mstore\n      dup1\n      swap3\n      swap2\n      swap1\n      dup2\n      dup2\n      mstore\n      0x20\n      add\n      dup3\n      dup1\n      sload\n      tag_28\n      swap1\n      tag_27\n      jump\t// in\n    tag_28:\n      dup1\n      iszero\n      tag_29\n      jumpi\n      dup1\n      0x1f\n      lt\n      tag_30\n      jumpi\n      0x0100\n      dup1\n      dup4\n      sload\n      div\n      mul\n      dup4\n      mstore\n      swap2\n      0x20\n      add\n      swap2\n      jump(tag_29)\n    tag_30:\n      dup3\n      add\n      swap2\n      swap1\n      0x00\n      mstore\n      keccak256(0x00, 0x20)\n      swap1\n    tag_31:\n      dup2\n      sload\n      dup2\n      mstore\n      swap1\n      0x01\n      add\n      swap1\n      0x20\n      add\n      dup1\n      dup4\n      gt\n      tag_31\n      jumpi\n      dup3\n      swap1\n      sub\n      0x1f\n      and\n      dup3\n      add\n      swap2\n    tag_29:\n      pop\n      pop\n      pop\n      pop\n      pop\n      swap1\n      dup1\n      0x01\n      add\n      0x00\n      swap1\n      sload\n      swap1\n      0x0100\n      exp\n      swap1\n      div\n      0xff\n      and\n      swap1\n      pop\n      dup3\n      jump\t// out\n        /* \"HelloWorld/28TodoList.sol\":332:440  function updateText(uint _index, string calldata _text) external {... */\n    tag_19:\n        /* \"HelloWorld/28TodoList.sol\":428:433  _text */\n      dup2\n      dup2\n        /* \"HelloWorld/28TodoList.sol\":407:412  todos */\n      0x00\n        /* \"HelloWorld/28TodoList.sol\":413:419  _index */\n      dup6\n        /* \"HelloWorld/28TodoList.sol\":407:420  todos[_index] */\n      dup2\n      sload\n      dup2\n      lt\n      tag_33\n      jumpi\n      tag_34\n      tag_35\n      jump\t// in\n    tag_34:\n    tag_33:\n      swap1\n      0x00\n      mstore\n      keccak256(0x00, 0x20)\n      swap1\n      0x02\n      mul\n      add\n        /* \"HelloWorld/28TodoList.sol\":407:425  todos[_index].text */\n      0x00\n      add\n        /* \"HelloWorld/28TodoList.sol\":407:433  todos[_index].text = _text */\n      swap2\n      dup3\n      tag_37\n      swap3\n      swap2\n      swap1\n      tag_38\n      jump\t// in\n    tag_37:\n      pop\n        /* \"HelloWorld/28TodoList.sol\":332:440  function updateText(uint _index, string calldata _text) external {... */\n      pop\n      pop\n      pop\n      jump\t// out\n        /* \"#utility.yul\":88:205   */\n    tag_40:\n        /* \"#utility.yul\":197:198   */\n      0x00\n        /* \"#utility.yul\":194:195   */\n      dup1\n        /* \"#utility.yul\":187:199   */\n      revert\n        /* \"#utility.yul\":211:328   */\n    tag_41:\n        /* \"#utility.yul\":320:321   */\n      0x00\n        /* \"#utility.yul\":317:318   */\n      dup1\n        /* \"#utility.yul\":310:322   */\n      revert\n        /* \"#utility.yul\":334:451   */\n    tag_42:\n        /* \"#utility.yul\":443:444   */\n      0x00\n        /* \"#utility.yul\":440:441   */\n      dup1\n        /* \"#utility.yul\":433:445   */\n      revert\n        /* \"#utility.yul\":457:574   */\n    tag_43:\n        /* \"#utility.yul\":566:567   */\n      0x00\n        /* \"#utility.yul\":563:564   */\n      dup1\n        /* \"#utility.yul\":556:568   */\n      revert\n        /* \"#utility.yul\":580:697   */\n    tag_44:\n        /* \"#utility.yul\":689:690   */\n      0x00\n        /* \"#utility.yul\":686:687   */\n      dup1\n        /* \"#utility.yul\":679:691   */\n      revert\n        /* \"#utility.yul\":717:1270   */\n    tag_45:\n        /* \"#utility.yul\":775:783   */\n      0x00\n        /* \"#utility.yul\":785:791   */\n      dup1\n        /* \"#utility.yul\":835:838   */\n      dup4\n        /* \"#utility.yul\":828:832   */\n      0x1f\n        /* \"#utility.yul\":820:826   */\n      dup5\n        /* \"#utility.yul\":816:833   */\n      add\n        /* \"#utility.yul\":812:839   */\n      slt\n        /* \"#utility.yul\":802:924   */\n      tag_82\n      jumpi\n        /* \"#utility.yul\":843:922   */\n      tag_83\n      tag_42\n      jump\t// in\n    tag_83:\n        /* \"#utility.yul\":802:924   */\n    tag_82:\n        /* \"#utility.yul\":956:962   */\n      dup3\n        /* \"#utility.yul\":943:963   */\n      calldataload\n        /* \"#utility.yul\":933:963   */\n      swap1\n      pop\n        /* \"#utility.yul\":986:1004   */\n      0xffffffffffffffff\n        /* \"#utility.yul\":978:984   */\n      dup2\n        /* \"#utility.yul\":975:1005   */\n      gt\n        /* \"#utility.yul\":972:1089   */\n      iszero\n      tag_84\n      jumpi\n        /* \"#utility.yul\":1008:1087   */\n      tag_85\n      tag_43\n      jump\t// in\n    tag_85:\n        /* \"#utility.yul\":972:1089   */\n    tag_84:\n        /* \"#utility.yul\":1122:1126   */\n      0x20\n        /* \"#utility.yul\":1114:1120   */\n      dup4\n        /* \"#utility.yul\":1110:1127   */\n      add\n        /* \"#utility.yul\":1098:1127   */\n      swap2\n      pop\n        /* \"#utility.yul\":1176:1179   */\n      dup4\n        /* \"#utility.yul\":1168:1172   */\n      0x01\n        /* \"#utility.yul\":1160:1166   */\n      dup3\n        /* \"#utility.yul\":1156:1173   */\n      mul\n        /* \"#utility.yul\":1146:1154   */\n      dup4\n        /* \"#utility.yul\":1142:1174   */\n      add\n        /* \"#utility.yul\":1139:1180   */\n      gt\n        /* \"#utility.yul\":1136:1264   */\n      iszero\n      tag_86\n      jumpi\n        /* \"#utility.yul\":1183:1262   */\n      tag_87\n      tag_44\n      jump\t// in\n    tag_87:\n        /* \"#utility.yul\":1136:1264   */\n    tag_86:\n        /* \"#utility.yul\":717:1270   */\n      swap3\n      pop\n      swap3\n      swap1\n      pop\n      jump\t// out\n        /* \"#utility.yul\":1276:1805   */\n    tag_8:\n        /* \"#utility.yul\":1347:1353   */\n      0x00\n        /* \"#utility.yul\":1355:1361   */\n      dup1\n        /* \"#utility.yul\":1404:1406   */\n      0x20\n        /* \"#utility.yul\":1392:1401   */\n      dup4\n        /* \"#utility.yul\":1383:1390   */\n      dup6\n        /* \"#utility.yul\":1379:1402   */\n      sub\n        /* \"#utility.yul\":1375:1407   */\n      slt\n        /* \"#utility.yul\":1372:1491   */\n      iszero\n      tag_89\n      jumpi\n        /* \"#utility.yul\":1410:1489   */\n      tag_90\n      tag_40\n      jump\t// in\n    tag_90:\n        /* \"#utility.yul\":1372:1491   */\n    tag_89:\n        /* \"#utility.yul\":1558:1559   */\n      0x00\n        /* \"#utility.yul\":1547:1556   */\n      dup4\n        /* \"#utility.yul\":1543:1560   */\n      add\n        /* \"#utility.yul\":1530:1561   */\n      calldataload\n        /* \"#utility.yul\":1588:1606   */\n      0xffffffffffffffff\n        /* \"#utility.yul\":1580:1586   */\n      dup2\n        /* \"#utility.yul\":1577:1607   */\n      gt\n        /* \"#utility.yul\":1574:1691   */\n      iszero\n      tag_91\n      jumpi\n        /* \"#utility.yul\":1610:1689   */\n      tag_92\n      tag_41\n      jump\t// in\n    tag_92:\n        /* \"#utility.yul\":1574:1691   */\n    tag_91:\n        /* \"#utility.yul\":1723:1788   */\n      tag_93\n        /* \"#utility.yul\":1780:1787   */\n      dup6\n        /* \"#utility.yul\":1771:1777   */\n      dup3\n        /* \"#utility.yul\":1760:1769   */\n      dup7\n        /* \"#utility.yul\":1756:1778   */\n      add\n        /* \"#utility.yul\":1723:1788   */\n      tag_45\n      jump\t// in\n    tag_93:\n        /* \"#utility.yul\":1705:1788   */\n      swap3\n      pop\n      swap3\n      pop\n        /* \"#utility.yul\":1501:1798   */\n      pop\n        /* \"#utility.yul\":1276:1805   */\n      swap3\n      pop\n      swap3\n      swap1\n      pop\n      jump\t// out\n        /* \"#utility.yul\":1811:1888   */\n    tag_46:\n        /* \"#utility.yul\":1848:1855   */\n      0x00\n        /* \"#utility.yul\":1877:1882   */\n      dup2\n        /* \"#utility.yul\":1866:1882   */\n      swap1\n      pop\n        /* \"#utility.yul\":1811:1888   */\n      swap2\n      swap1\n      pop\n      jump\t// out\n        /* \"#utility.yul\":1894:2016   */\n    tag_47:\n        /* \"#utility.yul\":1967:1991   */\n      tag_96\n        /* \"#utility.yul\":1985:1990   */\n      dup2\n        /* \"#utility.yul\":1967:1991   */\n      tag_46\n      jump\t// in\n    tag_96:\n        /* \"#utility.yul\":1960:1965   */\n      dup2\n        /* \"#utility.yul\":1957:1992   */\n      eq\n        /* \"#utility.yul\":1947:2010   */\n      tag_97\n      jumpi\n        /* \"#utility.yul\":2006:2007   */\n      0x00\n        /* \"#utility.yul\":2003:2004   */\n      dup1\n        /* \"#utility.yul\":1996:2008   */\n      revert\n        /* \"#utility.yul\":1947:2010   */\n    tag_97:\n        /* \"#utility.yul\":1894:2016   */\n      pop\n      jump\t// out\n        /* \"#utility.yul\":2022:2161   */\n    tag_48:\n        /* \"#utility.yul\":2068:2073   */\n      0x00\n        /* \"#utility.yul\":2106:2112   */\n      dup2\n        /* \"#utility.yul\":2093:2113   */\n      calldataload\n        /* \"#utility.yul\":2084:2113   */\n      swap1\n      pop\n        /* \"#utility.yul\":2122:2155   */\n      tag_99\n        /* \"#utility.yul\":2149:2154   */\n      dup2\n        /* \"#utility.yul\":2122:2155   */\n      tag_47\n      jump\t// in\n    tag_99:\n        /* \"#utility.yul\":2022:2161   */\n      swap3\n      swap2\n      pop\n      pop\n      jump\t// out\n        /* \"#utility.yul\":2167:2496   */\n    tag_12:\n        /* \"#utility.yul\":2226:2232   */\n      0x00\n        /* \"#utility.yul\":2275:2277   */\n      0x20\n        /* \"#utility.yul\":2263:2272   */\n      dup3\n        /* \"#utility.yul\":2254:2261   */\n      dup5\n        /* \"#utility.yul\":2250:2273   */\n      sub\n        /* \"#utility.yul\":2246:2278   */\n      slt\n        /* \"#utility.yul\":2243:2362   */\n      iszero\n      tag_101\n      jumpi\n        /* \"#utility.yul\":2281:2360   */\n      tag_102\n      tag_40\n      jump\t// in\n    tag_102:\n        /* \"#utility.yul\":2243:2362   */\n    tag_101:\n        /* \"#utility.yul\":2401:2402   */\n      0x00\n        /* \"#utility.yul\":2426:2479   */\n      tag_103\n        /* \"#utility.yul\":2471:2478   */\n      dup5\n        /* \"#utility.yul\":2462:2468   */\n      dup3\n        /* \"#utility.yul\":2451:2460   */\n      dup6\n        /* \"#utility.yul\":2447:2469   */\n      add\n        /* \"#utility.yul\":2426:2479   */\n      tag_48\n      jump\t// in\n    tag_103:\n        /* \"#utility.yul\":2416:2479   */\n      swap2\n      pop\n        /* \"#utility.yul\":2372:2489   */\n      pop\n        /* \"#utility.yul\":2167:2496   */\n      swap3\n      swap2\n      pop\n      pop\n      jump\t// out\n        /* \"#utility.yul\":2502:2601   */\n    tag_49:\n        /* \"#utility.yul\":2554:2560   */\n      0x00\n        /* \"#utility.yul\":2588:2593   */\n      dup2\n        /* \"#utility.yul\":2582:2594   */\n      mload\n        /* \"#utility.yul\":2572:2594   */\n      swap1\n      pop\n        /* \"#utility.yul\":2502:2601   */\n      swap2\n      swap1\n      pop\n      jump\t// out\n        /* \"#utility.yul\":2607:2776   */\n    tag_50:\n        /* \"#utility.yul\":2691:2702   */\n      0x00\n        /* \"#utility.yul\":2725:2731   */\n      dup3\n        /* \"#utility.yul\":2720:2723   */\n      dup3\n        /* \"#utility.yul\":2713:2732   */\n      mstore\n        /* \"#utility.yul\":2765:2769   */\n      0x20\n        /* \"#utility.yul\":2760:2763   */\n      dup3\n        /* \"#utility.yul\":2756:2770   */\n      add\n        /* \"#utility.yul\":2741:2770   */\n      swap1\n      pop\n        /* \"#utility.yul\":2607:2776   */\n      swap3\n      swap2\n      pop\n      pop\n      jump\t// out\n        /* \"#utility.yul\":2782:3089   */\n    tag_51:\n        /* \"#utility.yul\":2850:2851   */\n      0x00\n        /* \"#utility.yul\":2860:2973   */\n    tag_107:\n        /* \"#utility.yul\":2874:2880   */\n      dup4\n        /* \"#utility.yul\":2871:2872   */\n      dup2\n        /* \"#utility.yul\":2868:2881   */\n      lt\n        /* \"#utility.yul\":2860:2973   */\n      iszero\n      tag_109\n      jumpi\n        /* \"#utility.yul\":2959:2960   */\n      dup1\n        /* \"#utility.yul\":2954:2957   */\n      dup3\n        /* \"#utility.yul\":2950:2961   */\n      add\n        /* \"#utility.yul\":2944:2962   */\n      mload\n        /* \"#utility.yul\":2940:2941   */\n      dup2\n        /* \"#utility.yul\":2935:2938   */\n      dup5\n        /* \"#utility.yul\":2931:2942   */\n      add\n        /* \"#utility.yul\":2924:2963   */\n      mstore\n        /* \"#utility.yul\":2896:2898   */\n      0x20\n        /* \"#utility.yul\":2893:2894   */\n      dup2\n        /* \"#utility.yul\":2889:2899   */\n      add\n        /* \"#utility.yul\":2884:2899   */\n      swap1\n      pop\n        /* \"#utility.yul\":2860:2973   */\n      jump(tag_107)\n    tag_109:\n        /* \"#utility.yul\":2991:2997   */\n      dup4\n        /* \"#utility.yul\":2988:2989   */\n      dup2\n        /* \"#utility.yul\":2985:2998   */\n      gt\n        /* \"#utility.yul\":2982:3083   */\n      iszero\n      tag_110\n      jumpi\n        /* \"#utility.yul\":3071:3072   */\n      0x00\n        /* \"#utility.yul\":3062:3068   */\n      dup5\n        /* \"#utility.yul\":3057:3060   */\n      dup5\n        /* \"#utility.yul\":3053:3069   */\n      add\n        /* \"#utility.yul\":3046:3073   */\n      mstore\n        /* \"#utility.yul\":2982:3083   */\n    tag_110:\n        /* \"#utility.yul\":2831:3089   */\n      pop\n        /* \"#utility.yul\":2782:3089   */\n      pop\n      pop\n      pop\n      jump\t// out\n        /* \"#utility.yul\":3095:3197   */\n    tag_52:\n        /* \"#utility.yul\":3136:3142   */\n      0x00\n        /* \"#utility.yul\":3187:3189   */\n      0x1f\n        /* \"#utility.yul\":3183:3190   */\n      not\n        /* \"#utility.yul\":3178:3180   */\n      0x1f\n        /* \"#utility.yul\":3171:3176   */\n      dup4\n        /* \"#utility.yul\":3167:3181   */\n      add\n        /* \"#utility.yul\":3163:3191   */\n      and\n        /* \"#utility.yul\":3153:3191   */\n      swap1\n      pop\n        /* \"#utility.yul\":3095:3197   */\n      swap2\n      swap1\n      pop\n      jump\t// out\n        /* \"#utility.yul\":3203:3567   */\n    tag_53:\n        /* \"#utility.yul\":3291:3294   */\n      0x00\n        /* \"#utility.yul\":3319:3358   */\n      tag_113\n        /* \"#utility.yul\":3352:3357   */\n      dup3\n        /* \"#utility.yul\":3319:3358   */\n      tag_49\n      jump\t// in\n    tag_113:\n        /* \"#utility.yul\":3374:3445   */\n      tag_114\n        /* \"#utility.yul\":3438:3444   */\n      dup2\n        /* \"#utility.yul\":3433:3436   */\n      dup6\n        /* \"#utility.yul\":3374:3445   */\n      tag_50\n      jump\t// in\n    tag_114:\n        /* \"#utility.yul\":3367:3445   */\n      swap4\n      pop\n        /* \"#utility.yul\":3454:3506   */\n      tag_115\n        /* \"#utility.yul\":3499:3505   */\n      dup2\n        /* \"#utility.yul\":3494:3497   */\n      dup6\n        /* \"#utility.yul\":3487:3491   */\n      0x20\n        /* \"#utility.yul\":3480:3485   */\n      dup7\n        /* \"#utility.yul\":3476:3492   */\n      add\n        /* \"#utility.yul\":3454:3506   */\n      tag_51\n      jump\t// in\n    tag_115:\n        /* \"#utility.yul\":3531:3560   */\n      tag_116\n        /* \"#utility.yul\":3553:3559   */\n      dup2\n        /* \"#utility.yul\":3531:3560   */\n      tag_52\n      jump\t// in\n    tag_116:\n        /* \"#utility.yul\":3526:3529   */\n      dup5\n        /* \"#utility.yul\":3522:3561   */\n      add\n        /* \"#utility.yul\":3515:3561   */\n      swap2\n      pop\n        /* \"#utility.yul\":3295:3567   */\n      pop\n        /* \"#utility.yul\":3203:3567   */\n      swap3\n      swap2\n      pop\n      pop\n      jump\t// out\n        /* \"#utility.yul\":3573:3663   */\n    tag_54:\n        /* \"#utility.yul\":3607:3614   */\n      0x00\n        /* \"#utility.yul\":3650:3655   */\n      dup2\n        /* \"#utility.yul\":3643:3656   */\n      iszero\n        /* \"#utility.yul\":3636:3657   */\n      iszero\n        /* \"#utility.yul\":3625:3657   */\n      swap1\n      pop\n        /* \"#utility.yul\":3573:3663   */\n      swap2\n      swap1\n      pop\n      jump\t// out\n        /* \"#utility.yul\":3669:3778   */\n    tag_55:\n        /* \"#utility.yul\":3750:3771   */\n      tag_119\n        /* \"#utility.yul\":3765:3770   */\n      dup2\n        /* \"#utility.yul\":3750:3771   */\n      tag_54\n      jump\t// in\n    tag_119:\n        /* \"#utility.yul\":3745:3748   */\n      dup3\n        /* \"#utility.yul\":3738:3772   */\n      mstore\n        /* \"#utility.yul\":3669:3778   */\n      pop\n      pop\n      jump\t// out\n        /* \"#utility.yul\":3784:4195   */\n    tag_15:\n        /* \"#utility.yul\":3919:3923   */\n      0x00\n        /* \"#utility.yul\":3957:3959   */\n      0x40\n        /* \"#utility.yul\":3946:3955   */\n      dup3\n        /* \"#utility.yul\":3942:3960   */\n      add\n        /* \"#utility.yul\":3934:3960   */\n      swap1\n      pop\n        /* \"#utility.yul\":4006:4015   */\n      dup2\n        /* \"#utility.yul\":4000:4004   */\n      dup2\n        /* \"#utility.yul\":3996:4016   */\n      sub\n        /* \"#utility.yul\":3992:3993   */\n      0x00\n        /* \"#utility.yul\":3981:3990   */\n      dup4\n        /* \"#utility.yul\":3977:3994   */\n      add\n        /* \"#utility.yul\":3970:4017   */\n      mstore\n        /* \"#utility.yul\":4034:4112   */\n      tag_121\n        /* \"#utility.yul\":4107:4111   */\n      dup2\n        /* \"#utility.yul\":4098:4104   */\n      dup6\n        /* \"#utility.yul\":4034:4112   */\n      tag_53\n      jump\t// in\n    tag_121:\n        /* \"#utility.yul\":4026:4112   */\n      swap1\n      pop\n        /* \"#utility.yul\":4122:4188   */\n      tag_122\n        /* \"#utility.yul\":4184:4186   */\n      0x20\n        /* \"#utility.yul\":4173:4182   */\n      dup4\n        /* \"#utility.yul\":4169:4187   */\n      add\n        /* \"#utility.yul\":4160:4166   */\n      dup5\n        /* \"#utility.yul\":4122:4188   */\n      tag_55\n      jump\t// in\n    tag_122:\n        /* \"#utility.yul\":3784:4195   */\n      swap4\n      swap3\n      pop\n      pop\n      pop\n      jump\t// out\n        /* \"#utility.yul\":4201:4875   */\n    tag_18:\n        /* \"#utility.yul\":4281:4287   */\n      0x00\n        /* \"#utility.yul\":4289:4295   */\n      dup1\n        /* \"#utility.yul\":4297:4303   */\n      0x00\n        /* \"#utility.yul\":4346:4348   */\n      0x40\n        /* \"#utility.yul\":4334:4343   */\n      dup5\n        /* \"#utility.yul\":4325:4332   */\n      dup7\n        /* \"#utility.yul\":4321:4344   */\n      sub\n        /* \"#utility.yul\":4317:4349   */\n      slt\n        /* \"#utility.yul\":4314:4433   */\n      iszero\n      tag_124\n      jumpi\n        /* \"#utility.yul\":4352:4431   */\n      tag_125\n      tag_40\n      jump\t// in\n    tag_125:\n        /* \"#utility.yul\":4314:4433   */\n    tag_124:\n        /* \"#utility.yul\":4472:4473   */\n      0x00\n        /* \"#utility.yul\":4497:4550   */\n      tag_126\n        /* \"#utility.yul\":4542:4549   */\n      dup7\n        /* \"#utility.yul\":4533:4539   */\n      dup3\n        /* \"#utility.yul\":4522:4531   */\n      dup8\n        /* \"#utility.yul\":4518:4540   */\n      add\n        /* \"#utility.yul\":4497:4550   */\n      tag_48\n      jump\t// in\n    tag_126:\n        /* \"#utility.yul\":4487:4550   */\n      swap4\n      pop\n        /* \"#utility.yul\":4443:4560   */\n      pop\n        /* \"#utility.yul\":4627:4629   */\n      0x20\n        /* \"#utility.yul\":4616:4625   */\n      dup5\n        /* \"#utility.yul\":4612:4630   */\n      add\n        /* \"#utility.yul\":4599:4631   */\n      calldataload\n        /* \"#utility.yul\":4658:4676   */\n      0xffffffffffffffff\n        /* \"#utility.yul\":4650:4656   */\n      dup2\n        /* \"#utility.yul\":4647:4677   */\n      gt\n        /* \"#utility.yul\":4644:4761   */\n      iszero\n      tag_127\n      jumpi\n        /* \"#utility.yul\":4680:4759   */\n      tag_128\n      tag_41\n      jump\t// in\n    tag_128:\n        /* \"#utility.yul\":4644:4761   */\n    tag_127:\n        /* \"#utility.yul\":4793:4858   */\n      tag_129\n        /* \"#utility.yul\":4850:4857   */\n      dup7\n        /* \"#utility.yul\":4841:4847   */\n      dup3\n        /* \"#utility.yul\":4830:4839   */\n      dup8\n        /* \"#utility.yul\":4826:4848   */\n      add\n        /* \"#utility.yul\":4793:4858   */\n      tag_45\n      jump\t// in\n    tag_129:\n        /* \"#utility.yul\":4775:4858   */\n      swap3\n      pop\n      swap3\n      pop\n        /* \"#utility.yul\":4570:4868   */\n      pop\n        /* \"#utility.yul\":4201:4875   */\n      swap3\n      pop\n      swap3\n      pop\n      swap3\n      jump\t// out\n        /* \"#utility.yul\":4881:5061   */\n    tag_56:\n        /* \"#utility.yul\":4929:5006   */\n      0x4e487b7100000000000000000000000000000000000000000000000000000000\n        /* \"#utility.yul\":4926:4927   */\n      0x00\n        /* \"#utility.yul\":4919:5007   */\n      mstore\n        /* \"#utility.yul\":5026:5030   */\n      0x41\n        /* \"#utility.yul\":5023:5024   */\n      0x04\n        /* \"#utility.yul\":5016:5031   */\n      mstore\n        /* \"#utility.yul\":5050:5054   */\n      0x24\n        /* \"#utility.yul\":5047:5048   */\n      0x00\n        /* \"#utility.yul\":5040:5055   */\n      revert\n        /* \"#utility.yul\":5067:5247   */\n    tag_57:\n        /* \"#utility.yul\":5115:5192   */\n      0x4e487b7100000000000000000000000000000000000000000000000000000000\n        /* \"#utility.yul\":5112:5113   */\n      0x00\n        /* \"#utility.yul\":5105:5193   */\n      mstore\n        /* \"#utility.yul\":5212:5216   */\n      0x22\n        /* \"#utility.yul\":5209:5210   */\n      0x04\n        /* \"#utility.yul\":5202:5217   */\n      mstore\n        /* \"#utility.yul\":5236:5240   */\n      0x24\n        /* \"#utility.yul\":5233:5234   */\n      0x00\n        /* \"#utility.yul\":5226:5241   */\n      revert\n        /* \"#utility.yul\":5253:5573   */\n    tag_27:\n        /* \"#utility.yul\":5297:5303   */\n      0x00\n        /* \"#utility.yul\":5334:5335   */\n      0x02\n        /* \"#utility.yul\":5328:5332   */\n      dup3\n        /* \"#utility.yul\":5324:5336   */\n      div\n        /* \"#utility.yul\":5314:5336   */\n      swap1\n      pop\n        /* \"#utility.yul\":5381:5382   */\n      0x01\n        /* \"#utility.yul\":5375:5379   */\n      dup3\n        /* \"#utility.yul\":5371:5383   */\n      and\n        /* \"#utility.yul\":5402:5420   */\n      dup1\n        /* \"#utility.yul\":5392:5473   */\n      tag_133\n      jumpi\n        /* \"#utility.yul\":5458:5462   */\n      0x7f\n        /* \"#utility.yul\":5450:5456   */\n      dup3\n        /* \"#utility.yul\":5446:5463   */\n      and\n        /* \"#utility.yul\":5436:5463   */\n      swap2\n      pop\n        /* \"#utility.yul\":5392:5473   */\n    tag_133:\n        /* \"#utility.yul\":5520:5522   */\n      0x20\n        /* \"#utility.yul\":5512:5518   */\n      dup3\n        /* \"#utility.yul\":5509:5523   */\n      lt\n        /* \"#utility.yul\":5489:5507   */\n      dup2\n        /* \"#utility.yul\":5486:5524   */\n      sub\n        /* \"#utility.yul\":5483:5567   */\n      tag_134\n      jumpi\n        /* \"#utility.yul\":5539:5557   */\n      tag_135\n      tag_57\n      jump\t// in\n    tag_135:\n        /* \"#utility.yul\":5483:5567   */\n    tag_134:\n        /* \"#utility.yul\":5304:5573   */\n      pop\n        /* \"#utility.yul\":5253:5573   */\n      swap2\n      swap1\n      pop\n      jump\t// out\n        /* \"#utility.yul\":5579:5720   */\n    tag_58:\n        /* \"#utility.yul\":5628:5632   */\n      0x00\n        /* \"#utility.yul\":5651:5654   */\n      dup2\n        /* \"#utility.yul\":5643:5654   */\n      swap1\n      pop\n        /* \"#utility.yul\":5674:5677   */\n      dup2\n        /* \"#utility.yul\":5671:5672   */\n      0x00\n        /* \"#utility.yul\":5664:5678   */\n      mstore\n        /* \"#utility.yul\":5708:5712   */\n      0x20\n        /* \"#utility.yul\":5705:5706   */\n      0x00\n        /* \"#utility.yul\":5695:5713   */\n      keccak256\n        /* \"#utility.yul\":5687:5713   */\n      swap1\n      pop\n        /* \"#utility.yul\":5579:5720   */\n      swap2\n      swap1\n      pop\n      jump\t// out\n        /* \"#utility.yul\":5726:5819   */\n    tag_59:\n        /* \"#utility.yul\":5763:5769   */\n      0x00\n        /* \"#utility.yul\":5810:5812   */\n      0x20\n        /* \"#utility.yul\":5805:5807   */\n      0x1f\n        /* \"#utility.yul\":5798:5803   */\n      dup4\n        /* \"#utility.yul\":5794:5808   */\n      add\n        /* \"#utility.yul\":5790:5813   */\n      div\n        /* \"#utility.yul\":5780:5813   */\n      swap1\n      pop\n        /* \"#utility.yul\":5726:5819   */\n      swap2\n      swap1\n      pop\n      jump\t// out\n        /* \"#utility.yul\":5825:5932   */\n    tag_60:\n        /* \"#utility.yul\":5869:5877   */\n      0x00\n        /* \"#utility.yul\":5919:5924   */\n      dup3\n        /* \"#utility.yul\":5913:5917   */\n      dup3\n        /* \"#utility.yul\":5909:5925   */\n      shl\n        /* \"#utility.yul\":5888:5925   */\n      swap1\n      pop\n        /* \"#utility.yul\":5825:5932   */\n      swap3\n      swap2\n      pop\n      pop\n      jump\t// out\n        /* \"#utility.yul\":5938:6331   */\n    tag_61:\n        /* \"#utility.yul\":6007:6013   */\n      0x00\n        /* \"#utility.yul\":6057:6058   */\n      0x08\n        /* \"#utility.yul\":6045:6055   */\n      dup4\n        /* \"#utility.yul\":6041:6059   */\n      mul\n        /* \"#utility.yul\":6080:6177   */\n      tag_140\n        /* \"#utility.yul\":6110:6176   */\n      0xffffffffffffffffffffffffffffffffffffffffffffffffffffffffffffffff\n        /* \"#utility.yul\":6099:6108   */\n      dup3\n        /* \"#utility.yul\":6080:6177   */\n      tag_60\n      jump\t// in\n    tag_140:\n        /* \"#utility.yul\":6198:6237   */\n      tag_141\n        /* \"#utility.yul\":6228:6236   */\n      dup7\n        /* \"#utility.yul\":6217:6226   */\n      dup4\n        /* \"#utility.yul\":6198:6237   */\n      tag_60\n      jump\t// in\n    tag_141:\n        /* \"#utility.yul\":6186:6237   */\n      swap6\n      pop\n        /* \"#utility.yul\":6270:6274   */\n      dup1\n        /* \"#utility.yul\":6266:6275   */\n      not\n        /* \"#utility.yul\":6259:6264   */\n      dup5\n        /* \"#utility.yul\":6255:6276   */\n      and\n        /* \"#utility.yul\":6246:6276   */\n      swap4\n      pop\n        /* \"#utility.yul\":6319:6323   */\n      dup1\n        /* \"#utility.yul\":6309:6317   */\n      dup7\n        /* \"#utility.yul\":6305:6324   */\n      and\n        /* \"#utility.yul\":6298:6303   */\n      dup5\n        /* \"#utility.yul\":6295:6325   */\n      or\n        /* \"#utility.yul\":6285:6325   */\n      swap3\n      pop\n        /* \"#utility.yul\":6014:6331   */\n      pop\n      pop\n        /* \"#utility.yul\":5938:6331   */\n      swap4\n      swap3\n      pop\n      pop\n      pop\n      jump\t// out\n        /* \"#utility.yul\":6337:6397   */\n    tag_62:\n        /* \"#utility.yul\":6365:6368   */\n      0x00\n        /* \"#utility.yul\":6386:6391   */\n      dup2\n        /* \"#utility.yul\":6379:6391   */\n      swap1\n      pop\n        /* \"#utility.yul\":6337:6397   */\n      swap2\n      swap1\n      pop\n      jump\t// out\n        /* \"#utility.yul\":6403:6545   */\n    tag_63:\n        /* \"#utility.yul\":6453:6462   */\n      0x00\n        /* \"#utility.yul\":6486:6539   */\n      tag_144\n        /* \"#utility.yul\":6504:6538   */\n      tag_145\n        /* \"#utility.yul\":6513:6537   */\n      tag_146\n        /* \"#utility.yul\":6531:6536   */\n      dup5\n        /* \"#utility.yul\":6513:6537   */\n      tag_46\n      jump\t// in\n    tag_146:\n        /* \"#utility.yul\":6504:6538   */\n      tag_62\n      jump\t// in\n    tag_145:\n        /* \"#utility.yul\":6486:6539   */\n      tag_46\n      jump\t// in\n    tag_144:\n        /* \"#utility.yul\":6473:6539   */\n      swap1\n      pop\n        /* \"#utility.yul\":6403:6545   */\n      swap2\n      swap1\n      pop\n      jump\t// out\n        /* \"#utility.yul\":6551:6626   */\n    tag_64:\n        /* \"#utility.yul\":6594:6597   */\n      0x00\n        /* \"#utility.yul\":6615:6620   */\n      dup2\n        /* \"#utility.yul\":6608:6620   */\n      swap1\n      pop\n        /* \"#utility.yul\":6551:6626   */\n      swap2\n      swap1\n      pop\n      jump\t// out\n        /* \"#utility.yul\":6632:6901   */\n    tag_65:\n        /* \"#utility.yul\":6742:6781   */\n      tag_149\n        /* \"#utility.yul\":6773:6780   */\n      dup4\n        /* \"#utility.yul\":6742:6781   */\n      tag_63\n      jump\t// in\n    tag_149:\n        /* \"#utility.yul\":6803:6894   */\n      tag_150\n        /* \"#utility.yul\":6852:6893   */\n      tag_151\n        /* \"#utility.yul\":6876:6892   */\n      dup3\n        /* \"#utility.yul\":6852:6893   */\n      tag_64\n      jump\t// in\n    tag_151:\n        /* \"#utility.yul\":6844:6850   */\n      dup5\n        /* \"#utility.yul\":6837:6841   */\n      dup5\n        /* \"#utility.yul\":6831:6842   */\n      sload\n        /* \"#utility.yul\":6803:6894   */\n      tag_61\n      jump\t// in\n    tag_150:\n        /* \"#utility.yul\":6797:6801   */\n      dup3\n        /* \"#utility.yul\":6790:6895   */\n      sstore\n        /* \"#utility.yul\":6708:6901   */\n      pop\n        /* \"#utility.yul\":6632:6901   */\n      pop\n      pop\n      pop\n      jump\t// out\n        /* \"#utility.yul\":6907:6980   */\n    tag_66:\n        /* \"#utility.yul\":6952:6955   */\n      0x00\n        /* \"#utility.yul\":6907:6980   */\n      swap1\n      jump\t// out\n        /* \"#utility.yul\":6986:7175   */\n    tag_67:\n        /* \"#utility.yul\":7063:7095   */\n      tag_154\n      tag_66\n      jump\t// in\n    tag_154:\n        /* \"#utility.yul\":7104:7169   */\n      tag_155\n        /* \"#utility.yul\":7162:7168   */\n      dup2\n        /* \"#utility.yul\":7154:7160   */\n      dup5\n        /* \"#utility.yul\":7148:7152   */\n      dup5\n        /* \"#utility.yul\":7104:7169   */\n      tag_65\n      jump\t// in\n    tag_155:\n        /* \"#utility.yul\":7039:7175   */\n      pop\n        /* \"#utility.yul\":6986:7175   */\n      pop\n      pop\n      jump\t// out\n        /* \"#utility.yul\":7181:7367   */\n    tag_68:\n        /* \"#utility.yul\":7241:7361   */\n    tag_157:\n        /* \"#utility.yul\":7258:7261   */\n      dup2\n        /* \"#utility.yul\":7251:7256   */\n      dup2\n        /* \"#utility.yul\":7248:7262   */\n      lt\n        /* \"#utility.yul\":7241:7361   */\n      iszero\n      tag_159\n      jumpi\n        /* \"#utility.yul\":7312:7351   */\n      tag_160\n        /* \"#utility.yul\":7349:7350   */\n      0x00\n        /* \"#utility.yul\":7342:7347   */\n      dup3\n        /* \"#utility.yul\":7312:7351   */\n      tag_67\n      jump\t// in\n    tag_160:\n        /* \"#utility.yul\":7285:7286   */\n      0x01\n        /* \"#utility.yul\":7278:7283   */\n      dup2\n        /* \"#utility.yul\":7274:7287   */\n      add\n        /* \"#utility.yul\":7265:7287   */\n      swap1\n      pop\n        /* \"#utility.yul\":7241:7361   */\n      jump(tag_157)\n    tag_159:\n        /* \"#utility.yul\":7181:7367   */\n      pop\n      pop\n      jump\t// out\n        /* \"#utility.yul\":7373:7916   */\n    tag_69:\n        /* \"#utility.yul\":7474:7476   */\n      0x1f\n        /* \"#utility.yul\":7469:7472   */\n      dup3\n        /* \"#utility.yul\":7466:7477   */\n      gt\n        /* \"#utility.yul\":7463:7909   */\n      iszero\n      tag_162\n      jumpi\n        /* \"#utility.yul\":7508:7546   */\n      tag_163\n        /* \"#utility.yul\":7540:7545   */\n      dup2\n        /* \"#utility.yul\":7508:7546   */\n      tag_58\n      jump\t// in\n    tag_163:\n        /* \"#utility.yul\":7592:7621   */\n      tag_164\n        /* \"#utility.yul\":7610:7620   */\n      dup5\n        /* \"#utility.yul\":7592:7621   */\n      tag_59\n      jump\t// in\n    tag_164:\n        /* \"#utility.yul\":7582:7590   */\n      dup2\n        /* \"#utility.yul\":7578:7622   */\n      add\n        /* \"#utility.yul\":7775:7777   */\n      0x20\n        /* \"#utility.yul\":7763:7773   */\n      dup6\n        /* \"#utility.yul\":7760:7778   */\n      lt\n        /* \"#utility.yul\":7757:7806   */\n      iszero\n      tag_165\n      jumpi\n        /* \"#utility.yul\":7796:7804   */\n      dup2\n        /* \"#utility.yul\":7781:7804   */\n      swap1\n      pop\n        /* \"#utility.yul\":7757:7806   */\n    tag_165:\n        /* \"#utility.yul\":7819:7899   */\n      tag_166\n        /* \"#utility.yul\":7875:7897   */\n      tag_167\n        /* \"#utility.yul\":7893:7896   */\n      dup6\n        /* \"#utility.yul\":7875:7897   */\n      tag_59\n      jump\t// in\n    tag_167:\n        /* \"#utility.yul\":7865:7873   */\n      dup4\n        /* \"#utility.yul\":7861:7898   */\n      add\n        /* \"#utility.yul\":7848:7859   */\n      dup3\n        /* \"#utility.yul\":7819:7899   */\n      tag_68\n      jump\t// in\n    tag_166:\n        /* \"#utility.yul\":7478:7909   */\n      pop\n      pop\n        /* \"#utility.yul\":7463:7909   */\n    tag_162:\n        /* \"#utility.yul\":7373:7916   */\n      pop\n      pop\n      pop\n      jump\t// out\n        /* \"#utility.yul\":7922:8039   */\n    tag_70:\n        /* \"#utility.yul\":7976:7984   */\n      0x00\n        /* \"#utility.yul\":8026:8031   */\n      dup3\n        /* \"#utility.yul\":8020:8024   */\n      dup3\n        /* \"#utility.yul\":8016:8032   */\n      shr\n        /* \"#utility.yul\":7995:8032   */\n      swap1\n      pop\n        /* \"#utility.yul\":7922:8039   */\n      swap3\n      swap2\n      pop\n      pop\n      jump\t// out\n        /* \"#utility.yul\":8045:8214   */\n    tag_71:\n        /* \"#utility.yul\":8089:8095   */\n      0x00\n        /* \"#utility.yul\":8122:8173   */\n      tag_170\n        /* \"#utility.yul\":8170:8171   */\n      0x00\n        /* \"#utility.yul\":8166:8172   */\n      not\n        /* \"#utility.yul\":8158:8163   */\n      dup5\n        /* \"#utility.yul\":8155:8156   */\n      0x08\n        /* \"#utility.yul\":8151:8164   */\n      mul\n        /* \"#utility.yul\":8122:8173   */\n      tag_70\n      jump\t// in\n    tag_170:\n        /* \"#utility.yul\":8118:8174   */\n      not\n        /* \"#utility.yul\":8203:8207   */\n      dup1\n        /* \"#utility.yul\":8197:8201   */\n      dup4\n        /* \"#utility.yul\":8193:8208   */\n      and\n        /* \"#utility.yul\":8183:8208   */\n      swap2\n      pop\n        /* \"#utility.yul\":8096:8214   */\n      pop\n        /* \"#utility.yul\":8045:8214   */\n      swap3\n      swap2\n      pop\n      pop\n      jump\t// out\n        /* \"#utility.yul\":8219:8514   */\n    tag_72:\n        /* \"#utility.yul\":8295:8299   */\n      0x00\n        /* \"#utility.yul\":8441:8470   */\n      tag_172\n        /* \"#utility.yul\":8466:8469   */\n      dup4\n        /* \"#utility.yul\":8460:8464   */\n      dup4\n        /* \"#utility.yul\":8441:8470   */\n      tag_71\n      jump\t// in\n    tag_172:\n        /* \"#utility.yul\":8433:8470   */\n      swap2\n      pop\n        /* \"#utility.yul\":8503:8506   */\n      dup3\n        /* \"#utility.yul\":8500:8501   */\n      0x02\n        /* \"#utility.yul\":8496:8507   */\n      mul\n        /* \"#utility.yul\":8490:8494   */\n      dup3\n        /* \"#utility.yul\":8487:8508   */\n      or\n        /* \"#utility.yul\":8479:8508   */\n      swap1\n      pop\n        /* \"#utility.yul\":8219:8514   */\n      swap3\n      swap2\n      pop\n      pop\n      jump\t// out\n        /* \"#utility.yul\":8519:9914   */\n    tag_23:\n        /* \"#utility.yul\":8636:8673   */\n      tag_174\n        /* \"#utility.yul\":8669:8672   */\n      dup3\n        /* \"#utility.yul\":8636:8673   */\n      tag_49\n      jump\t// in\n    tag_174:\n        /* \"#utility.yul\":8738:8756   */\n      0xffffffffffffffff\n        /* \"#utility.yul\":8730:8736   */\n      dup2\n        /* \"#utility.yul\":8727:8757   */\n      gt\n        /* \"#utility.yul\":8724:8780   */\n      iszero\n      tag_175\n      jumpi\n        /* \"#utility.yul\":8760:8778   */\n      tag_176\n      tag_56\n      jump\t// in\n    tag_176:\n        /* \"#utility.yul\":8724:8780   */\n    tag_175:\n        /* \"#utility.yul\":8804:8842   */\n      tag_177\n        /* \"#utility.yul\":8836:8840   */\n      dup3\n        /* \"#utility.yul\":8830:8841   */\n      sload\n        /* \"#utility.yul\":8804:8842   */\n      tag_27\n      jump\t// in\n    tag_177:\n        /* \"#utility.yul\":8889:8956   */\n      tag_178\n        /* \"#utility.yul\":8949:8955   */\n      dup3\n        /* \"#utility.yul\":8941:8947   */\n      dup3\n        /* \"#utility.yul\":8935:8939   */\n      dup6\n        /* \"#utility.yul\":8889:8956   */\n      tag_69\n      jump\t// in\n    tag_178:\n        /* \"#utility.yul\":8983:8984   */\n      0x00\n        /* \"#utility.yul\":9007:9011   */\n      0x20\n        /* \"#utility.yul\":8994:9011   */\n      swap1\n      pop\n        /* \"#utility.yul\":9039:9041   */\n      0x1f\n        /* \"#utility.yul\":9031:9037   */\n      dup4\n        /* \"#utility.yul\":9028:9042   */\n      gt\n        /* \"#utility.yul\":9056:9057   */\n      0x01\n        /* \"#utility.yul\":9051:9669   */\n      dup2\n      eq\n      tag_180\n      jumpi\n        /* \"#utility.yul\":9713:9714   */\n      0x00\n        /* \"#utility.yul\":9730:9736   */\n      dup5\n        /* \"#utility.yul\":9727:9804   */\n      iszero\n      tag_181\n      jumpi\n        /* \"#utility.yul\":9779:9788   */\n      dup3\n        /* \"#utility.yul\":9774:9777   */\n      dup8\n        /* \"#utility.yul\":9770:9789   */\n      add\n        /* \"#utility.yul\":9764:9790   */\n      mload\n        /* \"#utility.yul\":9755:9790   */\n      swap1\n      pop\n        /* \"#utility.yul\":9727:9804   */\n    tag_181:\n        /* \"#utility.yul\":9830:9897   */\n      tag_182\n        /* \"#utility.yul\":9890:9896   */\n      dup6\n        /* \"#utility.yul\":9883:9888   */\n      dup3\n        /* \"#utility.yul\":9830:9897   */\n      tag_72\n      jump\t// in\n    tag_182:\n        /* \"#utility.yul\":9824:9828   */\n      dup7\n        /* \"#utility.yul\":9817:9898   */\n      sstore\n        /* \"#utility.yul\":9686:9908   */\n      pop\n        /* \"#utility.yul\":9021:9908   */\n      jump(tag_179)\n        /* \"#utility.yul\":9051:9669   */\n    tag_180:\n        /* \"#utility.yul\":9103:9107   */\n      0x1f\n        /* \"#utility.yul\":9099:9108   */\n      not\n        /* \"#utility.yul\":9091:9097   */\n      dup5\n        /* \"#utility.yul\":9087:9109   */\n      and\n        /* \"#utility.yul\":9137:9174   */\n      tag_183\n        /* \"#utility.yul\":9169:9173   */\n      dup7\n        /* \"#utility.yul\":9137:9174   */\n      tag_58\n      jump\t// in\n    tag_183:\n        /* \"#utility.yul\":9196:9197   */\n      0x00\n        /* \"#utility.yul\":9210:9418   */\n    tag_184:\n        /* \"#utility.yul\":9224:9231   */\n      dup3\n        /* \"#utility.yul\":9221:9222   */\n      dup2\n        /* \"#utility.yul\":9218:9232   */\n      lt\n        /* \"#utility.yul\":9210:9418   */\n      iszero\n      tag_186\n      jumpi\n        /* \"#utility.yul\":9303:9312   */\n      dup5\n        /* \"#utility.yul\":9298:9301   */\n      dup10\n        /* \"#utility.yul\":9294:9313   */\n      add\n        /* \"#utility.yul\":9288:9314   */\n      mload\n        /* \"#utility.yul\":9280:9286   */\n      dup3\n        /* \"#utility.yul\":9273:9315   */\n      sstore\n        /* \"#utility.yul\":9354:9355   */\n      0x01\n        /* \"#utility.yul\":9346:9352   */\n      dup3\n        /* \"#utility.yul\":9342:9356   */\n      add\n        /* \"#utility.yul\":9332:9356   */\n      swap2\n      pop\n        /* \"#utility.yul\":9401:9403   */\n      0x20\n        /* \"#utility.yul\":9390:9399   */\n      dup6\n        /* \"#utility.yul\":9386:9404   */\n      add\n        /* \"#utility.yul\":9373:9404   */\n      swap5\n      pop\n        /* \"#utility.yul\":9247:9251   */\n      0x20\n        /* \"#utility.yul\":9244:9245   */\n      dup2\n        /* \"#utility.yul\":9240:9252   */\n      add\n        /* \"#utility.yul\":9235:9252   */\n      swap1\n      pop\n        /* \"#utility.yul\":9210:9418   */\n      jump(tag_184)\n    tag_186:\n        /* \"#utility.yul\":9446:9452   */\n      dup7\n        /* \"#utility.yul\":9437:9444   */\n      dup4\n        /* \"#utility.yul\":9434:9453   */\n      lt\n        /* \"#utility.yul\":9431:9610   */\n      iszero\n      tag_187\n      jumpi\n        /* \"#utility.yul\":9504:9513   */\n      dup5\n        /* \"#utility.yul\":9499:9502   */\n      dup10\n        /* \"#utility.yul\":9495:9514   */\n      add\n        /* \"#utility.yul\":9489:9515   */\n      mload\n        /* \"#utility.yul\":9547:9595   */\n      tag_188\n        /* \"#utility.yul\":9589:9593   */\n      0x1f\n        /* \"#utility.yul\":9581:9587   */\n      dup10\n        /* \"#utility.yul\":9577:9594   */\n      and\n        /* \"#utility.yul\":9566:9575   */\n      dup3\n        /* \"#utility.yul\":9547:9595   */\n      tag_71\n      jump\t// in\n    tag_188:\n        /* \"#utility.yul\":9539:9545   */\n      dup4\n        /* \"#utility.yul\":9532:9596   */\n      sstore\n        /* \"#utility.yul\":9454:9610   */\n      pop\n        /* \"#utility.yul\":9431:9610   */\n    tag_187:\n        /* \"#utility.yul\":9656:9657   */\n      0x01\n        /* \"#utility.yul\":9652:9653   */\n      0x02\n        /* \"#utility.yul\":9644:9650   */\n      dup9\n        /* \"#utility.yul\":9640:9654   */\n      mul\n        /* \"#utility.yul\":9636:9658   */\n      add\n        /* \"#utility.yul\":9630:9634   */\n      dup9\n        /* \"#utility.yul\":9623:9659   */\n      sstore\n        /* \"#utility.yul\":9058:9669   */\n      pop\n      pop\n      pop\n        /* \"#utility.yul\":9021:9908   */\n    tag_179:\n      pop\n        /* \"#utility.yul\":8611:9914   */\n      pop\n      pop\n      pop\n        /* \"#utility.yul\":8519:9914   */\n      pop\n      pop\n      jump\t// out\n        /* \"#utility.yul\":9920:10100   */\n    tag_35:\n        /* \"#utility.yul\":9968:10045   */\n      0x4e487b7100000000000000000000000000000000000000000000000000000000\n        /* \"#utility.yul\":9965:9966   */\n      0x00\n        /* \"#utility.yul\":9958:10046   */\n      mstore\n        /* \"#utility.yul\":10065:10069   */\n      0x32\n        /* \"#utility.yul\":10062:10063   */\n      0x04\n        /* \"#utility.yul\":10055:10070   */\n      mstore\n        /* \"#utility.yul\":10089:10093   */\n      0x24\n        /* \"#utility.yul\":10086:10087   */\n      0x00\n        /* \"#utility.yul\":10079:10094   */\n      revert\n        /* \"#utility.yul\":10106:10203   */\n    tag_73:\n        /* \"#utility.yul\":10165:10171   */\n      0x00\n        /* \"#utility.yul\":10193:10196   */\n      dup3\n        /* \"#utility.yul\":10183:10196   */\n      swap1\n      pop\n        /* \"#utility.yul\":10106:10203   */\n      swap3\n      swap2\n      pop\n      pop\n      jump\t// out\n        /* \"#utility.yul\":10209:11612   */\n    tag_38:\n        /* \"#utility.yul\":10333:10377   */\n      tag_192\n        /* \"#utility.yul\":10373:10376   */\n      dup4\n        /* \"#utility.yul\":10368:10371   */\n      dup4\n        /* \"#utility.yul\":10333:10377   */\n      tag_73\n      jump\t// in\n    tag_192:\n        /* \"#utility.yul\":10442:10460   */\n      0xffffffffffffffff\n        /* \"#utility.yul\":10434:10440   */\n      dup2\n        /* \"#utility.yul\":10431:10461   */\n      gt\n        /* \"#utility.yul\":10428:10484   */\n      iszero\n      tag_193\n      jumpi\n        /* \"#utility.yul\":10464:10482   */\n      tag_194\n      tag_56\n      jump\t// in\n    tag_194:\n        /* \"#utility.yul\":10428:10484   */\n    tag_193:\n        /* \"#utility.yul\":10508:10546   */\n      tag_195\n        /* \"#utility.yul\":10540:10544   */\n      dup3\n        /* \"#utility.yul\":10534:10545   */\n      sload\n        /* \"#utility.yul\":10508:10546   */\n      tag_27\n      jump\t// in\n    tag_195:\n        /* \"#utility.yul\":10593:10660   */\n      tag_196\n        /* \"#utility.yul\":10653:10659   */\n      dup3\n        /* \"#utility.yul\":10645:10651   */\n      dup3\n        /* \"#utility.yul\":10639:10643   */\n      dup6\n        /* \"#utility.yul\":10593:10660   */\n      tag_69\n      jump\t// in\n    tag_196:\n        /* \"#utility.yul\":10687:10688   */\n      0x00\n        /* \"#utility.yul\":10716:10718   */\n      0x1f\n        /* \"#utility.yul\":10708:10714   */\n      dup4\n        /* \"#utility.yul\":10705:10719   */\n      gt\n        /* \"#utility.yul\":10733:10734   */\n      0x01\n        /* \"#utility.yul\":10728:11360   */\n      dup2\n      eq\n      tag_198\n      jumpi\n        /* \"#utility.yul\":11404:11405   */\n      0x00\n        /* \"#utility.yul\":11421:11427   */\n      dup5\n        /* \"#utility.yul\":11418:11502   */\n      iszero\n      tag_199\n      jumpi\n        /* \"#utility.yul\":11477:11486   */\n      dup3\n        /* \"#utility.yul\":11472:11475   */\n      dup8\n        /* \"#utility.yul\":11468:11487   */\n      add\n        /* \"#utility.yul\":11455:11488   */\n      calldataload\n        /* \"#utility.yul\":11446:11488   */\n      swap1\n      pop\n        /* \"#utility.yul\":11418:11502   */\n    tag_199:\n        /* \"#utility.yul\":11528:11595   */\n      tag_200\n        /* \"#utility.yul\":11588:11594   */\n      dup6\n        /* \"#utility.yul\":11581:11586   */\n      dup3\n        /* \"#utility.yul\":11528:11595   */\n      tag_72\n      jump\t// in\n    tag_200:\n        /* \"#utility.yul\":11522:11526   */\n      dup7\n        /* \"#utility.yul\":11515:11596   */\n      sstore\n        /* \"#utility.yul\":11377:11606   */\n      pop\n        /* \"#utility.yul\":10698:11606   */\n      jump(tag_197)\n        /* \"#utility.yul\":10728:11360   */\n    tag_198:\n        /* \"#utility.yul\":10780:10784   */\n      0x1f\n        /* \"#utility.yul\":10776:10785   */\n      not\n        /* \"#utility.yul\":10768:10774   */\n      dup5\n        /* \"#utility.yul\":10764:10786   */\n      and\n        /* \"#utility.yul\":10814:10851   */\n      tag_201\n        /* \"#utility.yul\":10846:10850   */\n      dup7\n        /* \"#utility.yul\":10814:10851   */\n      tag_58\n      jump\t// in\n    tag_201:\n        /* \"#utility.yul\":10873:10874   */\n      0x00\n        /* \"#utility.yul\":10887:11102   */\n    tag_202:\n        /* \"#utility.yul\":10901:10908   */\n      dup3\n        /* \"#utility.yul\":10898:10899   */\n      dup2\n        /* \"#utility.yul\":10895:10909   */\n      lt\n        /* \"#utility.yul\":10887:11102   */\n      iszero\n      tag_204\n      jumpi\n        /* \"#utility.yul\":10987:10996   */\n      dup5\n        /* \"#utility.yul\":10982:10985   */\n      dup10\n        /* \"#utility.yul\":10978:10997   */\n      add\n        /* \"#utility.yul\":10965:10998   */\n      calldataload\n        /* \"#utility.yul\":10957:10963   */\n      dup3\n        /* \"#utility.yul\":10950:10999   */\n      sstore\n        /* \"#utility.yul\":11038:11039   */\n      0x01\n        /* \"#utility.yul\":11030:11036   */\n      dup3\n        /* \"#utility.yul\":11026:11040   */\n      add\n        /* \"#utility.yul\":11016:11040   */\n      swap2\n      pop\n        /* \"#utility.yul\":11085:11087   */\n      0x20\n        /* \"#utility.yul\":11074:11083   */\n      dup6\n        /* \"#utility.yul\":11070:11088   */\n      add\n        /* \"#utility.yul\":11057:11088   */\n      swap5\n      pop\n        /* \"#utility.yul\":10924:10928   */\n      0x20\n        /* \"#utility.yul\":10921:10922   */\n      dup2\n        /* \"#utility.yul\":10917:10929   */\n      add\n        /* \"#utility.yul\":10912:10929   */\n      swap1\n      pop\n        /* \"#utility.yul\":10887:11102   */\n      jump(tag_202)\n    tag_204:\n        /* \"#utility.yul\":11130:11136   */\n      dup7\n        /* \"#utility.yul\":11121:11128   */\n      dup4\n        /* \"#utility.yul\":11118:11137   */\n      lt\n        /* \"#utility.yul\":11115:11301   */\n      iszero\n      tag_205\n      jumpi\n        /* \"#utility.yul\":11195:11204   */\n      dup5\n        /* \"#utility.yul\":11190:11193   */\n      dup10\n        /* \"#utility.yul\":11186:11205   */\n      add\n        /* \"#utility.yul\":11173:11206   */\n      calldataload\n        /* \"#utility.yul\":11238:11286   */\n      tag_206\n        /* \"#utility.yul\":11280:11284   */\n      0x1f\n        /* \"#utility.yul\":11272:11278   */\n      dup10\n        /* \"#utility.yul\":11268:11285   */\n      and\n        /* \"#utility.yul\":11257:11266   */\n      dup3\n        /* \"#utility.yul\":11238:11286   */\n      tag_71\n      jump\t// in\n    tag_206:\n        /* \"#utility.yul\":11230:11236   */\n      dup4\n        /* \"#utility.yul\":11223:11287   */\n      sstore\n        /* \"#utility.yul\":11138:11301   */\n      pop\n        /* \"#utility.yul\":11115:11301   */\n    tag_205:\n        /* \"#utility.yul\":11347:11348   */\n      0x01\n        /* \"#utility.yul\":11343:11344   */\n      0x02\n        /* \"#utility.yul\":11335:11341   */\n      dup9\n        /* \"#utility.yul\":11331:11345   */\n      mul\n        /* \"#utility.yul\":11327:11349   */\n      add\n        /* \"#utility.yul\":11321:11325   */\n      dup9\n        /* \"#utility.yul\":11314:11350   */\n      sstore\n        /* \"#utility.yul\":10735:11360   */\n      pop\n      pop\n      pop\n        /* \"#utility.yul\":10698:11606   */\n    tag_197:\n      pop\n        /* \"#utility.yul\":10308:11612   */\n      pop\n      pop\n      pop\n        /* \"#utility.yul\":10209:11612   */\n      pop\n      pop\n      pop\n      jump\t// out\n\n    auxdata: 0xa2646970667358221220051cd6b86885ec996edd07abb6bace39d2d914fadf12788c4328b68684ce121864736f6c634300080f0033\n}\n",
				"bytecode": {
					"linkReferences": {},
					"object": "608060405234801561001057600080fd5b50610925806100206000396000f3fe608060405234801561001057600080fd5b50600436106100415760003560e01c8063b6a46b3b14610046578063bc8bc2b414610062578063cd11161414610093575b600080fd5b610060600480360381019061005b91906102e4565b6100af565b005b61007c60048036038101906100779190610367565b610172565b60405161008a929190610448565b60405180910390f35b6100ad60048036038101906100a89190610478565b61023b565b005b6000604051806040016040528084848080601f016020809104026020016040519081016040528093929190818152602001838380828437600081840152601f19601f820116905080830192505050505050508152602001600015158152509080600181540180825580915050600190039060005260206000209060020201600090919091909150600082015181600001908161014b9190610713565b5060208201518160010160006101000a81548160ff02191690831515021790555050505050565b6000818154811061018257600080fd5b90600052602060002090600202016000915090508060000180546101a590610536565b80601f01602080910402602001604051908101604052809291908181526020018280546101d190610536565b801561021e5780601f106101f35761010080835404028352916020019161021e565b820191906000526020600020905b81548152906001019060200180831161020157829003601f168201915b5050505050908060010160009054906101000a900460ff16905082565b818160008581548110610251576102506107e5565b5b9060005260206000209060020201600001918261026f92919061081f565b50505050565b600080fd5b600080fd5b600080fd5b600080fd5b600080fd5b60008083601f8401126102a4576102a361027f565b5b8235905067ffffffffffffffff8111156102c1576102c0610284565b5b6020830191508360018202830111156102dd576102dc610289565b5b9250929050565b600080602083850312156102fb576102fa610275565b5b600083013567ffffffffffffffff8111156103195761031861027a565b5b6103258582860161028e565b92509250509250929050565b6000819050919050565b61034481610331565b811461034f57600080fd5b50565b6000813590506103618161033b565b92915050565b60006020828403121561037d5761037c610275565b5b600061038b84828501610352565b91505092915050565b600081519050919050565b600082825260208201905092915050565b60005b838110156103ce5780820151818401526020810190506103b3565b838111156103dd576000848401525b50505050565b6000601f19601f8301169050919050565b60006103ff82610394565b610409818561039f565b93506104198185602086016103b0565b610422816103e3565b840191505092915050565b60008115159050919050565b6104428161042d565b82525050565b6000604082019050818103600083015261046281856103f4565b90506104716020830184610439565b9392505050565b60008060006040848603121561049157610490610275565b5b600061049f86828701610352565b935050602084013567ffffffffffffffff8111156104c0576104bf61027a565b5b6104cc8682870161028e565b92509250509250925092565b7f4e487b7100000000000000000000000000000000000000000000000000000000600052604160045260246000fd5b7f4e487b7100000000000000000000000000000000000000000000000000000000600052602260045260246000fd5b6000600282049050600182168061054e57607f821691505b60208210810361056157610560610507565b5b50919050565b60008190508160005260206000209050919050565b60006020601f8301049050919050565b600082821b905092915050565b6000600883026105c97fffffffffffffffffffffffffffffffffffffffffffffffffffffffffffffffff8261058c565b6105d3868361058c565b95508019841693508086168417925050509392505050565b6000819050919050565b600061061061060b61060684610331565b6105eb565b610331565b9050919050565b6000819050919050565b61062a836105f5565b61063e61063682610617565b848454610599565b825550505050565b600090565b610653610646565b61065e818484610621565b505050565b5b818110156106825761067760008261064b565b600181019050610664565b5050565b601f8211156106c75761069881610567565b6106a18461057c565b810160208510156106b0578190505b6106c46106bc8561057c565b830182610663565b50505b505050565b600082821c905092915050565b60006106ea600019846008026106cc565b1980831691505092915050565b600061070383836106d9565b9150826002028217905092915050565b61071c82610394565b67ffffffffffffffff811115610735576107346104d8565b5b61073f8254610536565b61074a828285610686565b600060209050601f83116001811461077d576000841561076b578287015190505b61077585826106f7565b8655506107dd565b601f19841661078b86610567565b60005b828110156107b35784890151825560018201915060208501945060208101905061078e565b868310156107d057848901516107cc601f8916826106d9565b8355505b6001600288020188555050505b505050505050565b7f4e487b7100000000000000000000000000000000000000000000000000000000600052603260045260246000fd5b600082905092915050565b6108298383610814565b67ffffffffffffffff811115610842576108416104d8565b5b61084c8254610536565b610857828285610686565b6000601f8311600181146108865760008415610874578287013590505b61087e85826106f7565b8655506108e6565b601f19841661089486610567565b60005b828110156108bc57848901358255600182019150602085019450602081019050610897565b868310156108d957848901356108d5601f8916826106d9565b8355505b6001600288020188555050505b5050505050505056fea2646970667358221220051cd6b86885ec996edd07abb6bace39d2d914fadf12788c4328b68684ce121864736f6c634300080f0033",
					"opcodes": "PUSH1 0x80 PUSH1 0x40 MSTORE CALLVALUE DUP1 ISZERO PUSH2 0x10 JUMPI PUSH1 0x0 DUP1 REVERT JUMPDEST POP PUSH2 0x925 DUP1 PUSH2 0x20 PUSH1 0x0 CODECOPY PUSH1 0x0 RETURN INVALID PUSH1 0x80 PUSH1 0x40 MSTORE CALLVALUE DUP1 ISZERO PUSH2 0x10 JUMPI PUSH1 0x0 DUP1 REVERT JUMPDEST POP PUSH1 0x4 CALLDATASIZE LT PUSH2 0x41 JUMPI PUSH1 0x0 CALLDATALOAD PUSH1 0xE0 SHR DUP1 PUSH4 0xB6A46B3B EQ PUSH2 0x46 JUMPI DUP1 PUSH4 0xBC8BC2B4 EQ PUSH2 0x62 JUMPI DUP1 PUSH4 0xCD111614 EQ PUSH2 0x93 JUMPI JUMPDEST PUSH1 0x0 DUP1 REVERT JUMPDEST PUSH2 0x60 PUSH1 0x4 DUP1 CALLDATASIZE SUB DUP2 ADD SWAP1 PUSH2 0x5B SWAP2 SWAP1 PUSH2 0x2E4 JUMP JUMPDEST PUSH2 0xAF JUMP JUMPDEST STOP JUMPDEST PUSH2 0x7C PUSH1 0x4 DUP1 CALLDATASIZE SUB DUP2 ADD SWAP1 PUSH2 0x77 SWAP2 SWAP1 PUSH2 0x367 JUMP JUMPDEST PUSH2 0x172 JUMP JUMPDEST PUSH1 0x40 MLOAD PUSH2 0x8A SWAP3 SWAP2 SWAP1 PUSH2 0x448 JUMP JUMPDEST PUSH1 0x40 MLOAD DUP1 SWAP2 SUB SWAP1 RETURN JUMPDEST PUSH2 0xAD PUSH1 0x4 DUP1 CALLDATASIZE SUB DUP2 ADD SWAP1 PUSH2 0xA8 SWAP2 SWAP1 PUSH2 0x478 JUMP JUMPDEST PUSH2 0x23B JUMP JUMPDEST STOP JUMPDEST PUSH1 0x0 PUSH1 0x40 MLOAD DUP1 PUSH1 0x40 ADD PUSH1 0x40 MSTORE DUP1 DUP5 DUP5 DUP1 DUP1 PUSH1 0x1F ADD PUSH1 0x20 DUP1 SWAP2 DIV MUL PUSH1 0x20 ADD PUSH1 0x40 MLOAD SWAP1 DUP2 ADD PUSH1 0x40 MSTORE DUP1 SWAP4 SWAP3 SWAP2 SWAP1 DUP2 DUP2 MSTORE PUSH1 0x20 ADD DUP4 DUP4 DUP1 DUP3 DUP5 CALLDATACOPY PUSH1 0x0 DUP2 DUP5 ADD MSTORE PUSH1 0x1F NOT PUSH1 0x1F DUP3 ADD AND SWAP1 POP DUP1 DUP4 ADD SWAP3 POP POP POP POP POP POP POP DUP2 MSTORE PUSH1 0x20 ADD PUSH1 0x0 ISZERO ISZERO DUP2 MSTORE POP SWAP1 DUP1 PUSH1 0x1 DUP2 SLOAD ADD DUP1 DUP3 SSTORE DUP1 SWAP2 POP POP PUSH1 0x1 SWAP1 SUB SWAP1 PUSH1 0x0 MSTORE PUSH1 0x20 PUSH1 0x0 KECCAK256 SWAP1 PUSH1 0x2 MUL ADD PUSH1 0x0 SWAP1 SWAP2 SWAP1 SWAP2 SWAP1 SWAP2 POP PUSH1 0x0 DUP3 ADD MLOAD DUP2 PUSH1 0x0 ADD SWAP1 DUP2 PUSH2 0x14B SWAP2 SWAP1 PUSH2 0x713 JUMP JUMPDEST POP PUSH1 0x20 DUP3 ADD MLOAD DUP2 PUSH1 0x1 ADD PUSH1 0x0 PUSH2 0x100 EXP DUP2 SLOAD DUP2 PUSH1 0xFF MUL NOT AND SWAP1 DUP4 ISZERO ISZERO MUL OR SWAP1 SSTORE POP POP POP POP POP JUMP JUMPDEST PUSH1 0x0 DUP2 DUP2 SLOAD DUP2 LT PUSH2 0x182 JUMPI PUSH1 0x0 DUP1 REVERT JUMPDEST SWAP1 PUSH1 0x0 MSTORE PUSH1 0x20 PUSH1 0x0 KECCAK256 SWAP1 PUSH1 0x2 MUL ADD PUSH1 0x0 SWAP2 POP SWAP1 POP DUP1 PUSH1 0x0 ADD DUP1 SLOAD PUSH2 0x1A5 SWAP1 PUSH2 0x536 JUMP JUMPDEST DUP1 PUSH1 0x1F ADD PUSH1 0x20 DUP1 SWAP2 DIV MUL PUSH1 0x20 ADD PUSH1 0x40 MLOAD SWAP1 DUP2 ADD PUSH1 0x40 MSTORE DUP1 SWAP3 SWAP2 SWAP1 DUP2 DUP2 MSTORE PUSH1 0x20 ADD DUP3 DUP1 SLOAD PUSH2 0x1D1 SWAP1 PUSH2 0x536 JUMP JUMPDEST DUP1 ISZERO PUSH2 0x21E JUMPI DUP1 PUSH1 0x1F LT PUSH2 0x1F3 JUMPI PUSH2 0x100 DUP1 DUP4 SLOAD DIV MUL DUP4 MSTORE SWAP2 PUSH1 0x20 ADD SWAP2 PUSH2 0x21E JUMP JUMPDEST DUP3 ADD SWAP2 SWAP1 PUSH1 0x0 MSTORE PUSH1 0x20 PUSH1 0x0 KECCAK256 SWAP1 JUMPDEST DUP2 SLOAD DUP2 MSTORE SWAP1 PUSH1 0x1 ADD SWAP1 PUSH1 0x20 ADD DUP1 DUP4 GT PUSH2 0x201 JUMPI DUP3 SWAP1 SUB PUSH1 0x1F AND DUP3 ADD SWAP2 JUMPDEST POP POP POP POP POP SWAP1 DUP1 PUSH1 0x1 ADD PUSH1 0x0 SWAP1 SLOAD SWAP1 PUSH2 0x100 EXP SWAP1 DIV PUSH1 0xFF AND SWAP1 POP DUP3 JUMP JUMPDEST DUP2 DUP2 PUSH1 0x0 DUP6 DUP2 SLOAD DUP2 LT PUSH2 0x251 JUMPI PUSH2 0x250 PUSH2 0x7E5 JUMP JUMPDEST JUMPDEST SWAP1 PUSH1 0x0 MSTORE PUSH1 0x20 PUSH1 0x0 KECCAK256 SWAP1 PUSH1 0x2 MUL ADD PUSH1 0x0 ADD SWAP2 DUP3 PUSH2 0x26F SWAP3 SWAP2 SWAP1 PUSH2 0x81F JUMP JUMPDEST POP POP POP POP JUMP JUMPDEST PUSH1 0x0 DUP1 REVERT JUMPDEST PUSH1 0x0 DUP1 REVERT JUMPDEST PUSH1 0x0 DUP1 REVERT JUMPDEST PUSH1 0x0 DUP1 REVERT JUMPDEST PUSH1 0x0 DUP1 REVERT JUMPDEST PUSH1 0x0 DUP1 DUP4 PUSH1 0x1F DUP5 ADD SLT PUSH2 0x2A4 JUMPI PUSH2 0x2A3 PUSH2 0x27F JUMP JUMPDEST JUMPDEST DUP3 CALLDATALOAD SWAP1 POP PUSH8 0xFFFFFFFFFFFFFFFF DUP2 GT ISZERO PUSH2 0x2C1 JUMPI PUSH2 0x2C0 PUSH2 0x284 JUMP JUMPDEST JUMPDEST PUSH1 0x20 DUP4 ADD SWAP2 POP DUP4 PUSH1 0x1 DUP3 MUL DUP4 ADD GT ISZERO PUSH2 0x2DD JUMPI PUSH2 0x2DC PUSH2 0x289 JUMP JUMPDEST JUMPDEST SWAP3 POP SWAP3 SWAP1 POP JUMP JUMPDEST PUSH1 0x0 DUP1 PUSH1 0x20 DUP4 DUP6 SUB SLT ISZERO PUSH2 0x2FB JUMPI PUSH2 0x2FA PUSH2 0x275 JUMP JUMPDEST JUMPDEST PUSH1 0x0 DUP4 ADD CALLDATALOAD PUSH8 0xFFFFFFFFFFFFFFFF DUP2 GT ISZERO PUSH2 0x319 JUMPI PUSH2 0x318 PUSH2 0x27A JUMP JUMPDEST JUMPDEST PUSH2 0x325 DUP6 DUP3 DUP7 ADD PUSH2 0x28E JUMP JUMPDEST SWAP3 POP SWAP3 POP POP SWAP3 POP SWAP3 SWAP1 POP JUMP JUMPDEST PUSH1 0x0 DUP2 SWAP1 POP SWAP2 SWAP1 POP JUMP JUMPDEST PUSH2 0x344 DUP2 PUSH2 0x331 JUMP JUMPDEST DUP2 EQ PUSH2 0x34F JUMPI PUSH1 0x0 DUP1 REVERT JUMPDEST POP JUMP JUMPDEST PUSH1 0x0 DUP2 CALLDATALOAD SWAP1 POP PUSH2 0x361 DUP2 PUSH2 0x33B JUMP JUMPDEST SWAP3 SWAP2 POP POP JUMP JUMPDEST PUSH1 0x0 PUSH1 0x20 DUP3 DUP5 SUB SLT ISZERO PUSH2 0x37D JUMPI PUSH2 0x37C PUSH2 0x275 JUMP JUMPDEST JUMPDEST PUSH1 0x0 PUSH2 0x38B DUP5 DUP3 DUP6 ADD PUSH2 0x352 JUMP JUMPDEST SWAP2 POP POP SWAP3 SWAP2 POP POP JUMP JUMPDEST PUSH1 0x0 DUP2 MLOAD SWAP1 POP SWAP2 SWAP1 POP JUMP JUMPDEST PUSH1 0x0 DUP3 DUP3 MSTORE PUSH1 0x20 DUP3 ADD SWAP1 POP SWAP3 SWAP2 POP POP JUMP JUMPDEST PUSH1 0x0 JUMPDEST DUP4 DUP2 LT ISZERO PUSH2 0x3CE JUMPI DUP1 DUP3 ADD MLOAD DUP2 DUP5 ADD MSTORE PUSH1 0x20 DUP2 ADD SWAP1 POP PUSH2 0x3B3 JUMP JUMPDEST DUP4 DUP2 GT ISZERO PUSH2 0x3DD JUMPI PUSH1 0x0 DUP5 DUP5 ADD MSTORE JUMPDEST POP POP POP POP JUMP JUMPDEST PUSH1 0x0 PUSH1 0x1F NOT PUSH1 0x1F DUP4 ADD AND SWAP1 POP SWAP2 SWAP1 POP JUMP JUMPDEST PUSH1 0x0 PUSH2 0x3FF DUP3 PUSH2 0x394 JUMP JUMPDEST PUSH2 0x409 DUP2 DUP6 PUSH2 0x39F JUMP JUMPDEST SWAP4 POP PUSH2 0x419 DUP2 DUP6 PUSH1 0x20 DUP7 ADD PUSH2 0x3B0 JUMP JUMPDEST PUSH2 0x422 DUP2 PUSH2 0x3E3 JUMP JUMPDEST DUP5 ADD SWAP2 POP POP SWAP3 SWAP2 POP POP JUMP JUMPDEST PUSH1 0x0 DUP2 ISZERO ISZERO SWAP1 POP SWAP2 SWAP1 POP JUMP JUMPDEST PUSH2 0x442 DUP2 PUSH2 0x42D JUMP JUMPDEST DUP3 MSTORE POP POP JUMP JUMPDEST PUSH1 0x0 PUSH1 0x40 DUP3 ADD SWAP1 POP DUP2 DUP2 SUB PUSH1 0x0 DUP4 ADD MSTORE PUSH2 0x462 DUP2 DUP6 PUSH2 0x3F4 JUMP JUMPDEST SWAP1 POP PUSH2 0x471 PUSH1 0x20 DUP4 ADD DUP5 PUSH2 0x439 JUMP JUMPDEST SWAP4 SWAP3 POP POP POP JUMP JUMPDEST PUSH1 0x0 DUP1 PUSH1 0x0 PUSH1 0x40 DUP5 DUP7 SUB SLT ISZERO PUSH2 0x491 JUMPI PUSH2 0x490 PUSH2 0x275 JUMP JUMPDEST JUMPDEST PUSH1 0x0 PUSH2 0x49F DUP7 DUP3 DUP8 ADD PUSH2 0x352 JUMP JUMPDEST SWAP4 POP POP PUSH1 0x20 DUP5 ADD CALLDATALOAD PUSH8 0xFFFFFFFFFFFFFFFF DUP2 GT ISZERO PUSH2 0x4C0 JUMPI PUSH2 0x4BF PUSH2 0x27A JUMP JUMPDEST JUMPDEST PUSH2 0x4CC DUP7 DUP3 DUP8 ADD PUSH2 0x28E JUMP JUMPDEST SWAP3 POP SWAP3 POP POP SWAP3 POP SWAP3 POP SWAP3 JUMP JUMPDEST PUSH32 0x4E487B7100000000000000000000000000000000000000000000000000000000 PUSH1 0x0 MSTORE PUSH1 0x41 PUSH1 0x4 MSTORE PUSH1 0x24 PUSH1 0x0 REVERT JUMPDEST PUSH32 0x4E487B7100000000000000000000000000000000000000000000000000000000 PUSH1 0x0 MSTORE PUSH1 0x22 PUSH1 0x4 MSTORE PUSH1 0x24 PUSH1 0x0 REVERT JUMPDEST PUSH1 0x0 PUSH1 0x2 DUP3 DIV SWAP1 POP PUSH1 0x1 DUP3 AND DUP1 PUSH2 0x54E JUMPI PUSH1 0x7F DUP3 AND SWAP2 POP JUMPDEST PUSH1 0x20 DUP3 LT DUP2 SUB PUSH2 0x561 JUMPI PUSH2 0x560 PUSH2 0x507 JUMP JUMPDEST JUMPDEST POP SWAP2 SWAP1 POP JUMP JUMPDEST PUSH1 0x0 DUP2 SWAP1 POP DUP2 PUSH1 0x0 MSTORE PUSH1 0x20 PUSH1 0x0 KECCAK256 SWAP1 POP SWAP2 SWAP1 POP JUMP JUMPDEST PUSH1 0x0 PUSH1 0x20 PUSH1 0x1F DUP4 ADD DIV SWAP1 POP SWAP2 SWAP1 POP JUMP JUMPDEST PUSH1 0x0 DUP3 DUP3 SHL SWAP1 POP SWAP3 SWAP2 POP POP JUMP JUMPDEST PUSH1 0x0 PUSH1 0x8 DUP4 MUL PUSH2 0x5C9 PUSH32 0xFFFFFFFFFFFFFFFFFFFFFFFFFFFFFFFFFFFFFFFFFFFFFFFFFFFFFFFFFFFFFFFF DUP3 PUSH2 0x58C JUMP JUMPDEST PUSH2 0x5D3 DUP7 DUP4 PUSH2 0x58C JUMP JUMPDEST SWAP6 POP DUP1 NOT DUP5 AND SWAP4 POP DUP1 DUP7 AND DUP5 OR SWAP3 POP POP POP SWAP4 SWAP3 POP POP POP JUMP JUMPDEST PUSH1 0x0 DUP2 SWAP1 POP SWAP2 SWAP1 POP JUMP JUMPDEST PUSH1 0x0 PUSH2 0x610 PUSH2 0x60B PUSH2 0x606 DUP5 PUSH2 0x331 JUMP JUMPDEST PUSH2 0x5EB JUMP JUMPDEST PUSH2 0x331 JUMP JUMPDEST SWAP1 POP SWAP2 SWAP1 POP JUMP JUMPDEST PUSH1 0x0 DUP2 SWAP1 POP SWAP2 SWAP1 POP JUMP JUMPDEST PUSH2 0x62A DUP4 PUSH2 0x5F5 JUMP JUMPDEST PUSH2 0x63E PUSH2 0x636 DUP3 PUSH2 0x617 JUMP JUMPDEST DUP5 DUP5 SLOAD PUSH2 0x599 JUMP JUMPDEST DUP3 SSTORE POP POP POP POP JUMP JUMPDEST PUSH1 0x0 SWAP1 JUMP JUMPDEST PUSH2 0x653 PUSH2 0x646 JUMP JUMPDEST PUSH2 0x65E DUP2 DUP5 DUP5 PUSH2 0x621 JUMP JUMPDEST POP POP POP JUMP JUMPDEST JUMPDEST DUP2 DUP2 LT ISZERO PUSH2 0x682 JUMPI PUSH2 0x677 PUSH1 0x0 DUP3 PUSH2 0x64B JUMP JUMPDEST PUSH1 0x1 DUP2 ADD SWAP1 POP PUSH2 0x664 JUMP JUMPDEST POP POP JUMP JUMPDEST PUSH1 0x1F DUP3 GT ISZERO PUSH2 0x6C7 JUMPI PUSH2 0x698 DUP2 PUSH2 0x567 JUMP JUMPDEST PUSH2 0x6A1 DUP5 PUSH2 0x57C JUMP JUMPDEST DUP2 ADD PUSH1 0x20 DUP6 LT ISZERO PUSH2 0x6B0 JUMPI DUP2 SWAP1 POP JUMPDEST PUSH2 0x6C4 PUSH2 0x6BC DUP6 PUSH2 0x57C JUMP JUMPDEST DUP4 ADD DUP3 PUSH2 0x663 JUMP JUMPDEST POP POP JUMPDEST POP POP POP JUMP JUMPDEST PUSH1 0x0 DUP3 DUP3 SHR SWAP1 POP SWAP3 SWAP2 POP POP JUMP JUMPDEST PUSH1 0x0 PUSH2 0x6EA PUSH1 0x0 NOT DUP5 PUSH1 0x8 MUL PUSH2 0x6CC JUMP JUMPDEST NOT DUP1 DUP4 AND SWAP2 POP POP SWAP3 SWAP2 POP POP JUMP JUMPDEST PUSH1 0x0 PUSH2 0x703 DUP4 DUP4 PUSH2 0x6D9 JUMP JUMPDEST SWAP2 POP DUP3 PUSH1 0x2 MUL DUP3 OR SWAP1 POP SWAP3 SWAP2 POP POP JUMP JUMPDEST PUSH2 0x71C DUP3 PUSH2 0x394 JUMP JUMPDEST PUSH8 0xFFFFFFFFFFFFFFFF DUP2 GT ISZERO PUSH2 0x735 JUMPI PUSH2 0x734 PUSH2 0x4D8 JUMP JUMPDEST JUMPDEST PUSH2 0x73F DUP3 SLOAD PUSH2 0x536 JUMP JUMPDEST PUSH2 0x74A DUP3 DUP3 DUP6 PUSH2 0x686 JUMP JUMPDEST PUSH1 0x0 PUSH1 0x20 SWAP1 POP PUSH1 0x1F DUP4 GT PUSH1 0x1 DUP2 EQ PUSH2 0x77D JUMPI PUSH1 0x0 DUP5 ISZERO PUSH2 0x76B JUMPI DUP3 DUP8 ADD MLOAD SWAP1 POP JUMPDEST PUSH2 0x775 DUP6 DUP3 PUSH2 0x6F7 JUMP JUMPDEST DUP7 SSTORE POP PUSH2 0x7DD JUMP JUMPDEST PUSH1 0x1F NOT DUP5 AND PUSH2 0x78B DUP7 PUSH2 0x567 JUMP JUMPDEST PUSH1 0x0 JUMPDEST DUP3 DUP2 LT ISZERO PUSH2 0x7B3 JUMPI DUP5 DUP10 ADD MLOAD DUP3 SSTORE PUSH1 0x1 DUP3 ADD SWAP2 POP PUSH1 0x20 DUP6 ADD SWAP5 POP PUSH1 0x20 DUP2 ADD SWAP1 POP PUSH2 0x78E JUMP JUMPDEST DUP7 DUP4 LT ISZERO PUSH2 0x7D0 JUMPI DUP5 DUP10 ADD MLOAD PUSH2 0x7CC PUSH1 0x1F DUP10 AND DUP3 PUSH2 0x6D9 JUMP JUMPDEST DUP4 SSTORE POP JUMPDEST PUSH1 0x1 PUSH1 0x2 DUP9 MUL ADD DUP9 SSTORE POP POP POP JUMPDEST POP POP POP POP POP POP JUMP JUMPDEST PUSH32 0x4E487B7100000000000000000000000000000000000000000000000000000000 PUSH1 0x0 MSTORE PUSH1 0x32 PUSH1 0x4 MSTORE PUSH1 0x24 PUSH1 0x0 REVERT JUMPDEST PUSH1 0x0 DUP3 SWAP1 POP SWAP3 SWAP2 POP POP JUMP JUMPDEST PUSH2 0x829 DUP4 DUP4 PUSH2 0x814 JUMP JUMPDEST PUSH8 0xFFFFFFFFFFFFFFFF DUP2 GT ISZERO PUSH2 0x842 JUMPI PUSH2 0x841 PUSH2 0x4D8 JUMP JUMPDEST JUMPDEST PUSH2 0x84C DUP3 SLOAD PUSH2 0x536 JUMP JUMPDEST PUSH2 0x857 DUP3 DUP3 DUP6 PUSH2 0x686 JUMP JUMPDEST PUSH1 0x0 PUSH1 0x1F DUP4 GT PUSH1 0x1 DUP2 EQ PUSH2 0x886 JUMPI PUSH1 0x0 DUP5 ISZERO PUSH2 0x874 JUMPI DUP3 DUP8 ADD CALLDATALOAD SWAP1 POP JUMPDEST PUSH2 0x87E DUP6 DUP3 PUSH2 0x6F7 JUMP JUMPDEST DUP7 SSTORE POP PUSH2 0x8E6 JUMP JUMPDEST PUSH1 0x1F NOT DUP5 AND PUSH2 0x894 DUP7 PUSH2 0x567 JUMP JUMPDEST PUSH1 0x0 JUMPDEST DUP3 DUP2 LT ISZERO PUSH2 0x8BC JUMPI DUP5 DUP10 ADD CALLDATALOAD DUP3 SSTORE PUSH1 0x1 DUP3 ADD SWAP2 POP PUSH1 0x20 DUP6 ADD SWAP5 POP PUSH1 0x20 DUP2 ADD SWAP1 POP PUSH2 0x897 JUMP JUMPDEST DUP7 DUP4 LT ISZERO PUSH2 0x8D9 JUMPI DUP5 DUP10 ADD CALLDATALOAD PUSH2 0x8D5 PUSH1 0x1F DUP10 AND DUP3 PUSH2 0x6D9 JUMP JUMPDEST DUP4 SSTORE POP JUMPDEST PUSH1 0x1 PUSH1 0x2 DUP9 MUL ADD DUP9 SSTORE POP POP POP JUMPDEST POP POP POP POP POP POP POP JUMP INVALID LOG2 PUSH5 0x6970667358 0x22 SLT KECCAK256 SDIV SHR 0xD6 0xB8 PUSH9 0x85EC996EDD07ABB6BA 0xCE CODECOPY 0xD2 0xD9 EQ STATICCALL 0xDF SLT PUSH25 0x8C4328B68684CE121864736F6C634300080F00330000000000 "
				},
				"gasEstimates": {
					"creation": {
						"codeDepositCost": "468200",
						"executionCost": "505",
						"totalCost": "468705"
					},
					"external": {
						"create(string)": "infinite",
						"todos(uint256)": "infinite",
						"updateText(uint256,string)": "infinite"
					}
				},
				"methodIdentifiers": {
					"create(string)": "b6a46b3b",
					"todos(uint256)": "bc8bc2b4",
					"updateText(uint256,string)": "cd111614"
				}
			},
			"storageLayout": {
				"storage": [
					{
						"astId": 10,
						"contract": "HelloWorld/28TodoList.sol:TodoList",
						"label": "todos",
						"offset": 0,
						"slot": "0",
						"type": "t_array(t_struct(Todo)6_storage)dyn_storage"
					}
				],
				"types": {
					"t_array(t_struct(Todo)6_storage)dyn_storage": {
						"base": "t_struct(Todo)6_storage",
						"encoding": "dynamic_array",
						"label": "struct TodoList.Todo[]",
						"numberOfBytes": "32"
					},
					"t_bool": {
						"encoding": "inplace",
						"label": "bool",
						"numberOfBytes": "1"
					},
					"t_string_storage": {
						"encoding": "bytes",
						"label": "string",
						"numberOfBytes": "32"
					},
					"t_struct(Todo)6_storage": {
						"encoding": "inplace",
						"label": "struct TodoList.Todo",
						"members": [
							{
								"astId": 3,
								"contract": "HelloWorld/28TodoList.sol:TodoList",
								"label": "text",
								"offset": 0,
								"slot": "0",
								"type": "t_string_storage"
							},
							{
								"astId": 5,
								"contract": "HelloWorld/28TodoList.sol:TodoList",
								"label": "completed",
								"offset": 0,
								"slot": "1",
								"type": "t_bool"
							}
						],
						"numberOfBytes": "64"
					}
				}
			},
			"userdoc": {
				"kind": "user",
				"methods": {},
				"version": 1
			}
		}
	}
}