{
	"HelloWorld/26DataLocations.sol": {
		"DataLocations": {
			"abi": [
				{
					"inputs": [
						{
							"internalType": "uint256[]",
							"name": "y",
							"type": "uint256[]"
						},
						{
							"internalType": "string",
							"name": "s",
							"type": "string"
						}
					],
					"name": "examples",
					"outputs": [
						{
							"internalType": "uint256[]",
							"name": "",
							"type": "uint256[]"
						}
					],
					"stateMutability": "nonpayable",
					"type": "function"
				},
				{
					"inputs": [
						{
							"internalType": "address",
							"name": "",
							"type": "address"
						}
					],
					"name": "myStructs",
					"outputs": [
						{
							"internalType": "uint256",
							"name": "foo",
							"type": "uint256"
						},
						{
							"internalType": "string",
							"name": "text",
							"type": "string"
						}
					],
					"stateMutability": "view",
					"type": "function"
				}
			],
			"devdoc": {
				"kind": "dev",
				"methods": {},
				"version": 1
			},
			"evm": {
				"assembly": "    /* \"HelloWorld/26DataLocations.sol\":57:467  contract DataLocations {... */\n  mstore(0x40, 0x80)\n  callvalue\n  dup1\n  iszero\n  tag_1\n  jumpi\n  0x00\n  dup1\n  revert\ntag_1:\n  pop\n  dataSize(sub_0)\n  dup1\n  dataOffset(sub_0)\n  0x00\n  codecopy\n  0x00\n  return\nstop\n\nsub_0: assembly {\n        /* \"HelloWorld/26DataLocations.sol\":57:467  contract DataLocations {... */\n      mstore(0x40, 0x80)\n      callvalue\n      dup1\n      iszero\n      tag_1\n      jumpi\n      0x00\n      dup1\n      revert\n    tag_1:\n      pop\n      jumpi(tag_2, lt(calldatasize, 0x04))\n      shr(0xe0, calldataload(0x00))\n      dup1\n      0xb43c5d33\n      eq\n      tag_3\n      jumpi\n      dup1\n      0xfc277a95\n      eq\n      tag_4\n      jumpi\n    tag_2:\n      0x00\n      dup1\n      revert\n        /* \"HelloWorld/26DataLocations.sol\":154:199  mapping(address => MyStruct) public myStructs */\n    tag_3:\n      tag_5\n      0x04\n      dup1\n      calldatasize\n      sub\n      dup2\n      add\n      swap1\n      tag_6\n      swap2\n      swap1\n      tag_7\n      jump\t// in\n    tag_6:\n      tag_8\n      jump\t// in\n    tag_5:\n      mload(0x40)\n      tag_9\n      swap3\n      swap2\n      swap1\n      tag_10\n      jump\t// in\n    tag_9:\n      mload(0x40)\n      dup1\n      swap2\n      sub\n      swap1\n      return\n        /* \"HelloWorld/26DataLocations.sol\":206:465  function examples(uint [] memory y, string memory s) external returns(uint[] memory) {... */\n    tag_4:\n      tag_11\n      0x04\n      dup1\n      calldatasize\n      sub\n      dup2\n      add\n      swap1\n      tag_12\n      swap2\n      swap1\n      tag_13\n      jump\t// in\n    tag_12:\n      tag_14\n      jump\t// in\n    tag_11:\n      mload(0x40)\n      tag_15\n      swap2\n      swap1\n      tag_16\n      jump\t// in\n    tag_15:\n      mload(0x40)\n      dup1\n      swap2\n      sub\n      swap1\n      return\n        /* \"HelloWorld/26DataLocations.sol\":154:199  mapping(address => MyStruct) public myStructs */\n    tag_8:\n      mstore(0x20, 0x00)\n      dup1\n      0x00\n      mstore\n      keccak256(0x00, 0x40)\n      0x00\n      swap2\n      pop\n      swap1\n      pop\n      dup1\n      0x00\n      add\n      sload\n      swap1\n      dup1\n      0x01\n      add\n      dup1\n      sload\n      tag_17\n      swap1\n      tag_18\n      jump\t// in\n    tag_17:\n      dup1\n      0x1f\n      add\n      0x20\n      dup1\n      swap2\n      div\n      mul\n      0x20\n      add\n      mload(0x40)\n      swap1\n      dup2\n      add\n      0x40\n      mstore\n      dup1\n      swap3\n      swap2\n      swap1\n      dup2\n      dup2\n      mstore\n      0x20\n      add\n      dup3\n      dup1\n      sload\n      tag_19\n      swap1\n      tag_18\n      jump\t// in\n    tag_19:\n      dup1\n      iszero\n      tag_20\n      jumpi\n      dup1\n      0x1f\n      lt\n      tag_21\n      jumpi\n      0x0100\n      dup1\n      dup4\n      sload\n      div\n      mul\n      dup4\n      mstore\n      swap2\n      0x20\n      add\n      swap2\n      jump(tag_20)\n    tag_21:\n      dup3\n      add\n      swap2\n      swap1\n      0x00\n      mstore\n      keccak256(0x00, 0x20)\n      swap1\n    tag_22:\n      dup2\n      sload\n      dup2\n      mstore\n      swap1\n      0x01\n      add\n      swap1\n      0x20\n      add\n      dup1\n      dup4\n      gt\n      tag_22\n      jumpi\n      dup3\n      swap1\n      sub\n      0x1f\n      and\n      dup3\n      add\n      swap2\n    tag_20:\n      pop\n      pop\n      pop\n      pop\n      pop\n      swap1\n      pop\n      dup3\n      jump\t// out\n        /* \"HelloWorld/26DataLocations.sol\":206:465  function examples(uint [] memory y, string memory s) external returns(uint[] memory) {... */\n    tag_14:\n        /* \"HelloWorld/26DataLocations.sol\":276:289  uint[] memory */\n      0x60\n        /* \"HelloWorld/26DataLocations.sol\":325:358  MyStruct({foo: 123, text: \"bar\"}) */\n      mload(0x40)\n      dup1\n      0x40\n      add\n      0x40\n      mstore\n      dup1\n        /* \"HelloWorld/26DataLocations.sol\":340:343  123 */\n      0x7b\n        /* \"HelloWorld/26DataLocations.sol\":325:358  MyStruct({foo: 123, text: \"bar\"}) */\n      dup2\n      mstore\n      0x20\n      add\n      mload(0x40)\n      dup1\n      0x40\n      add\n      0x40\n      mstore\n      dup1\n      0x03\n      dup2\n      mstore\n      0x20\n      add\n      0x6261720000000000000000000000000000000000000000000000000000000000\n      dup2\n      mstore\n      pop\n      dup2\n      mstore\n      pop\n        /* \"HelloWorld/26DataLocations.sol\":301:310  myStructs */\n      0x00\n        /* \"HelloWorld/26DataLocations.sol\":301:322  myStructs[msg.sender] */\n      dup1\n        /* \"HelloWorld/26DataLocations.sol\":311:321  msg.sender */\n      caller\n        /* \"HelloWorld/26DataLocations.sol\":301:322  myStructs[msg.sender] */\n      0xffffffffffffffffffffffffffffffffffffffff\n      and\n      0xffffffffffffffffffffffffffffffffffffffff\n      and\n      dup2\n      mstore\n      0x20\n      add\n      swap1\n      dup2\n      mstore\n      0x20\n      add\n      0x00\n      keccak256\n        /* \"HelloWorld/26DataLocations.sol\":301:358  myStructs[msg.sender] = MyStruct({foo: 123, text: \"bar\"}) */\n      0x00\n      dup3\n      add\n      mload\n      dup2\n      0x00\n      add\n      sstore\n      0x20\n      dup3\n      add\n      mload\n      dup2\n      0x01\n      add\n      swap1\n      dup2\n      tag_24\n      swap2\n      swap1\n      tag_25\n      jump\t// in\n    tag_24:\n      pop\n      swap1\n      pop\n      pop\n        /* \"HelloWorld/26DataLocations.sol\":369:394  MyStruct storage myStruct */\n      0x00\n        /* \"HelloWorld/26DataLocations.sol\":397:406  myStructs */\n      dup1\n        /* \"HelloWorld/26DataLocations.sol\":397:418  myStructs[msg.sender] */\n      0x00\n        /* \"HelloWorld/26DataLocations.sol\":407:417  msg.sender */\n      caller\n        /* \"HelloWorld/26DataLocations.sol\":397:418  myStructs[msg.sender] */\n      0xffffffffffffffffffffffffffffffffffffffff\n      and\n      0xffffffffffffffffffffffffffffffffffffffff\n      and\n      dup2\n      mstore\n      0x20\n      add\n      swap1\n      dup2\n      mstore\n      0x20\n      add\n      0x00\n      keccak256\n        /* \"HelloWorld/26DataLocations.sol\":369:418  MyStruct storage myStruct = myStructs[msg.sender] */\n      swap1\n      pop\n        /* \"HelloWorld/26DataLocations.sol\":428:449  myStruct.text = \"foo\" */\n      mload(0x40)\n      dup1\n      0x40\n      add\n      0x40\n      mstore\n      dup1\n      0x03\n      dup2\n      mstore\n      0x20\n      add\n      0x666f6f0000000000000000000000000000000000000000000000000000000000\n      dup2\n      mstore\n      pop\n        /* \"HelloWorld/26DataLocations.sol\":428:436  myStruct */\n      dup2\n        /* \"HelloWorld/26DataLocations.sol\":428:441  myStruct.text */\n      0x01\n      add\n        /* \"HelloWorld/26DataLocations.sol\":428:449  myStruct.text = \"foo\" */\n      swap1\n      dup2\n      tag_26\n      swap2\n      swap1\n      tag_25\n      jump\t// in\n    tag_26:\n      pop\n        /* \"HelloWorld/26DataLocations.sol\":291:465  {... */\n      pop\n        /* \"HelloWorld/26DataLocations.sol\":206:465  function examples(uint [] memory y, string memory s) external returns(uint[] memory) {... */\n      swap3\n      swap2\n      pop\n      pop\n      jump\t// out\n        /* \"#utility.yul\":7:82   */\n    tag_27:\n        /* \"#utility.yul\":40:46   */\n      0x00\n        /* \"#utility.yul\":73:75   */\n      0x40\n        /* \"#utility.yul\":67:76   */\n      mload\n        /* \"#utility.yul\":57:76   */\n      swap1\n      pop\n        /* \"#utility.yul\":7:82   */\n      swap1\n      jump\t// out\n        /* \"#utility.yul\":88:205   */\n    tag_28:\n        /* \"#utility.yul\":197:198   */\n      0x00\n        /* \"#utility.yul\":194:195   */\n      dup1\n        /* \"#utility.yul\":187:199   */\n      revert\n        /* \"#utility.yul\":211:328   */\n    tag_29:\n        /* \"#utility.yul\":320:321   */\n      0x00\n        /* \"#utility.yul\":317:318   */\n      dup1\n        /* \"#utility.yul\":310:322   */\n      revert\n        /* \"#utility.yul\":334:460   */\n    tag_30:\n        /* \"#utility.yul\":371:378   */\n      0x00\n        /* \"#utility.yul\":411:453   */\n      0xffffffffffffffffffffffffffffffffffffffff\n        /* \"#utility.yul\":404:409   */\n      dup3\n        /* \"#utility.yul\":400:454   */\n      and\n        /* \"#utility.yul\":389:454   */\n      swap1\n      pop\n        /* \"#utility.yul\":334:460   */\n      swap2\n      swap1\n      pop\n      jump\t// out\n        /* \"#utility.yul\":466:562   */\n    tag_31:\n        /* \"#utility.yul\":503:510   */\n      0x00\n        /* \"#utility.yul\":532:556   */\n      tag_85\n        /* \"#utility.yul\":550:555   */\n      dup3\n        /* \"#utility.yul\":532:556   */\n      tag_30\n      jump\t// in\n    tag_85:\n        /* \"#utility.yul\":521:556   */\n      swap1\n      pop\n        /* \"#utility.yul\":466:562   */\n      swap2\n      swap1\n      pop\n      jump\t// out\n        /* \"#utility.yul\":568:690   */\n    tag_32:\n        /* \"#utility.yul\":641:665   */\n      tag_87\n        /* \"#utility.yul\":659:664   */\n      dup2\n        /* \"#utility.yul\":641:665   */\n      tag_31\n      jump\t// in\n    tag_87:\n        /* \"#utility.yul\":634:639   */\n      dup2\n        /* \"#utility.yul\":631:666   */\n      eq\n        /* \"#utility.yul\":621:684   */\n      tag_88\n      jumpi\n        /* \"#utility.yul\":680:681   */\n      0x00\n        /* \"#utility.yul\":677:678   */\n      dup1\n        /* \"#utility.yul\":670:682   */\n      revert\n        /* \"#utility.yul\":621:684   */\n    tag_88:\n        /* \"#utility.yul\":568:690   */\n      pop\n      jump\t// out\n        /* \"#utility.yul\":696:835   */\n    tag_33:\n        /* \"#utility.yul\":742:747   */\n      0x00\n        /* \"#utility.yul\":780:786   */\n      dup2\n        /* \"#utility.yul\":767:787   */\n      calldataload\n        /* \"#utility.yul\":758:787   */\n      swap1\n      pop\n        /* \"#utility.yul\":796:829   */\n      tag_90\n        /* \"#utility.yul\":823:828   */\n      dup2\n        /* \"#utility.yul\":796:829   */\n      tag_32\n      jump\t// in\n    tag_90:\n        /* \"#utility.yul\":696:835   */\n      swap3\n      swap2\n      pop\n      pop\n      jump\t// out\n        /* \"#utility.yul\":841:1170   */\n    tag_7:\n        /* \"#utility.yul\":900:906   */\n      0x00\n        /* \"#utility.yul\":949:951   */\n      0x20\n        /* \"#utility.yul\":937:946   */\n      dup3\n        /* \"#utility.yul\":928:935   */\n      dup5\n        /* \"#utility.yul\":924:947   */\n      sub\n        /* \"#utility.yul\":920:952   */\n      slt\n        /* \"#utility.yul\":917:1036   */\n      iszero\n      tag_92\n      jumpi\n        /* \"#utility.yul\":955:1034   */\n      tag_93\n      tag_28\n      jump\t// in\n    tag_93:\n        /* \"#utility.yul\":917:1036   */\n    tag_92:\n        /* \"#utility.yul\":1075:1076   */\n      0x00\n        /* \"#utility.yul\":1100:1153   */\n      tag_94\n        /* \"#utility.yul\":1145:1152   */\n      dup5\n        /* \"#utility.yul\":1136:1142   */\n      dup3\n        /* \"#utility.yul\":1125:1134   */\n      dup6\n        /* \"#utility.yul\":1121:1143   */\n      add\n        /* \"#utility.yul\":1100:1153   */\n      tag_33\n      jump\t// in\n    tag_94:\n        /* \"#utility.yul\":1090:1153   */\n      swap2\n      pop\n        /* \"#utility.yul\":1046:1163   */\n      pop\n        /* \"#utility.yul\":841:1170   */\n      swap3\n      swap2\n      pop\n      pop\n      jump\t// out\n        /* \"#utility.yul\":1176:1253   */\n    tag_34:\n        /* \"#utility.yul\":1213:1220   */\n      0x00\n        /* \"#utility.yul\":1242:1247   */\n      dup2\n        /* \"#utility.yul\":1231:1247   */\n      swap1\n      pop\n        /* \"#utility.yul\":1176:1253   */\n      swap2\n      swap1\n      pop\n      jump\t// out\n        /* \"#utility.yul\":1259:1377   */\n    tag_35:\n        /* \"#utility.yul\":1346:1370   */\n      tag_97\n        /* \"#utility.yul\":1364:1369   */\n      dup2\n        /* \"#utility.yul\":1346:1370   */\n      tag_34\n      jump\t// in\n    tag_97:\n        /* \"#utility.yul\":1341:1344   */\n      dup3\n        /* \"#utility.yul\":1334:1371   */\n      mstore\n        /* \"#utility.yul\":1259:1377   */\n      pop\n      pop\n      jump\t// out\n        /* \"#utility.yul\":1383:1482   */\n    tag_36:\n        /* \"#utility.yul\":1435:1441   */\n      0x00\n        /* \"#utility.yul\":1469:1474   */\n      dup2\n        /* \"#utility.yul\":1463:1475   */\n      mload\n        /* \"#utility.yul\":1453:1475   */\n      swap1\n      pop\n        /* \"#utility.yul\":1383:1482   */\n      swap2\n      swap1\n      pop\n      jump\t// out\n        /* \"#utility.yul\":1488:1657   */\n    tag_37:\n        /* \"#utility.yul\":1572:1583   */\n      0x00\n        /* \"#utility.yul\":1606:1612   */\n      dup3\n        /* \"#utility.yul\":1601:1604   */\n      dup3\n        /* \"#utility.yul\":1594:1613   */\n      mstore\n        /* \"#utility.yul\":1646:1650   */\n      0x20\n        /* \"#utility.yul\":1641:1644   */\n      dup3\n        /* \"#utility.yul\":1637:1651   */\n      add\n        /* \"#utility.yul\":1622:1651   */\n      swap1\n      pop\n        /* \"#utility.yul\":1488:1657   */\n      swap3\n      swap2\n      pop\n      pop\n      jump\t// out\n        /* \"#utility.yul\":1663:1970   */\n    tag_38:\n        /* \"#utility.yul\":1731:1732   */\n      0x00\n        /* \"#utility.yul\":1741:1854   */\n    tag_101:\n        /* \"#utility.yul\":1755:1761   */\n      dup4\n        /* \"#utility.yul\":1752:1753   */\n      dup2\n        /* \"#utility.yul\":1749:1762   */\n      lt\n        /* \"#utility.yul\":1741:1854   */\n      iszero\n      tag_103\n      jumpi\n        /* \"#utility.yul\":1840:1841   */\n      dup1\n        /* \"#utility.yul\":1835:1838   */\n      dup3\n        /* \"#utility.yul\":1831:1842   */\n      add\n        /* \"#utility.yul\":1825:1843   */\n      mload\n        /* \"#utility.yul\":1821:1822   */\n      dup2\n        /* \"#utility.yul\":1816:1819   */\n      dup5\n        /* \"#utility.yul\":1812:1823   */\n      add\n        /* \"#utility.yul\":1805:1844   */\n      mstore\n        /* \"#utility.yul\":1777:1779   */\n      0x20\n        /* \"#utility.yul\":1774:1775   */\n      dup2\n        /* \"#utility.yul\":1770:1780   */\n      add\n        /* \"#utility.yul\":1765:1780   */\n      swap1\n      pop\n        /* \"#utility.yul\":1741:1854   */\n      jump(tag_101)\n    tag_103:\n        /* \"#utility.yul\":1872:1878   */\n      dup4\n        /* \"#utility.yul\":1869:1870   */\n      dup2\n        /* \"#utility.yul\":1866:1879   */\n      gt\n        /* \"#utility.yul\":1863:1964   */\n      iszero\n      tag_104\n      jumpi\n        /* \"#utility.yul\":1952:1953   */\n      0x00\n        /* \"#utility.yul\":1943:1949   */\n      dup5\n        /* \"#utility.yul\":1938:1941   */\n      dup5\n        /* \"#utility.yul\":1934:1950   */\n      add\n        /* \"#utility.yul\":1927:1954   */\n      mstore\n        /* \"#utility.yul\":1863:1964   */\n    tag_104:\n        /* \"#utility.yul\":1712:1970   */\n      pop\n        /* \"#utility.yul\":1663:1970   */\n      pop\n      pop\n      pop\n      jump\t// out\n        /* \"#utility.yul\":1976:2078   */\n    tag_39:\n        /* \"#utility.yul\":2017:2023   */\n      0x00\n        /* \"#utility.yul\":2068:2070   */\n      0x1f\n        /* \"#utility.yul\":2064:2071   */\n      not\n        /* \"#utility.yul\":2059:2061   */\n      0x1f\n        /* \"#utility.yul\":2052:2057   */\n      dup4\n        /* \"#utility.yul\":2048:2062   */\n      add\n        /* \"#utility.yul\":2044:2072   */\n      and\n        /* \"#utility.yul\":2034:2072   */\n      swap1\n      pop\n        /* \"#utility.yul\":1976:2078   */\n      swap2\n      swap1\n      pop\n      jump\t// out\n        /* \"#utility.yul\":2084:2448   */\n    tag_40:\n        /* \"#utility.yul\":2172:2175   */\n      0x00\n        /* \"#utility.yul\":2200:2239   */\n      tag_107\n        /* \"#utility.yul\":2233:2238   */\n      dup3\n        /* \"#utility.yul\":2200:2239   */\n      tag_36\n      jump\t// in\n    tag_107:\n        /* \"#utility.yul\":2255:2326   */\n      tag_108\n        /* \"#utility.yul\":2319:2325   */\n      dup2\n        /* \"#utility.yul\":2314:2317   */\n      dup6\n        /* \"#utility.yul\":2255:2326   */\n      tag_37\n      jump\t// in\n    tag_108:\n        /* \"#utility.yul\":2248:2326   */\n      swap4\n      pop\n        /* \"#utility.yul\":2335:2387   */\n      tag_109\n        /* \"#utility.yul\":2380:2386   */\n      dup2\n        /* \"#utility.yul\":2375:2378   */\n      dup6\n        /* \"#utility.yul\":2368:2372   */\n      0x20\n        /* \"#utility.yul\":2361:2366   */\n      dup7\n        /* \"#utility.yul\":2357:2373   */\n      add\n        /* \"#utility.yul\":2335:2387   */\n      tag_38\n      jump\t// in\n    tag_109:\n        /* \"#utility.yul\":2412:2441   */\n      tag_110\n        /* \"#utility.yul\":2434:2440   */\n      dup2\n        /* \"#utility.yul\":2412:2441   */\n      tag_39\n      jump\t// in\n    tag_110:\n        /* \"#utility.yul\":2407:2410   */\n      dup5\n        /* \"#utility.yul\":2403:2442   */\n      add\n        /* \"#utility.yul\":2396:2442   */\n      swap2\n      pop\n        /* \"#utility.yul\":2176:2448   */\n      pop\n        /* \"#utility.yul\":2084:2448   */\n      swap3\n      swap2\n      pop\n      pop\n      jump\t// out\n        /* \"#utility.yul\":2454:2877   */\n    tag_10:\n        /* \"#utility.yul\":2595:2599   */\n      0x00\n        /* \"#utility.yul\":2633:2635   */\n      0x40\n        /* \"#utility.yul\":2622:2631   */\n      dup3\n        /* \"#utility.yul\":2618:2636   */\n      add\n        /* \"#utility.yul\":2610:2636   */\n      swap1\n      pop\n        /* \"#utility.yul\":2646:2717   */\n      tag_112\n        /* \"#utility.yul\":2714:2715   */\n      0x00\n        /* \"#utility.yul\":2703:2712   */\n      dup4\n        /* \"#utility.yul\":2699:2716   */\n      add\n        /* \"#utility.yul\":2690:2696   */\n      dup6\n        /* \"#utility.yul\":2646:2717   */\n      tag_35\n      jump\t// in\n    tag_112:\n        /* \"#utility.yul\":2764:2773   */\n      dup2\n        /* \"#utility.yul\":2758:2762   */\n      dup2\n        /* \"#utility.yul\":2754:2774   */\n      sub\n        /* \"#utility.yul\":2749:2751   */\n      0x20\n        /* \"#utility.yul\":2738:2747   */\n      dup4\n        /* \"#utility.yul\":2734:2752   */\n      add\n        /* \"#utility.yul\":2727:2775   */\n      mstore\n        /* \"#utility.yul\":2792:2870   */\n      tag_113\n        /* \"#utility.yul\":2865:2869   */\n      dup2\n        /* \"#utility.yul\":2856:2862   */\n      dup5\n        /* \"#utility.yul\":2792:2870   */\n      tag_40\n      jump\t// in\n    tag_113:\n        /* \"#utility.yul\":2784:2870   */\n      swap1\n      pop\n        /* \"#utility.yul\":2454:2877   */\n      swap4\n      swap3\n      pop\n      pop\n      pop\n      jump\t// out\n        /* \"#utility.yul\":2883:3000   */\n    tag_41:\n        /* \"#utility.yul\":2992:2993   */\n      0x00\n        /* \"#utility.yul\":2989:2990   */\n      dup1\n        /* \"#utility.yul\":2982:2994   */\n      revert\n        /* \"#utility.yul\":3006:3186   */\n    tag_42:\n        /* \"#utility.yul\":3054:3131   */\n      0x4e487b7100000000000000000000000000000000000000000000000000000000\n        /* \"#utility.yul\":3051:3052   */\n      0x00\n        /* \"#utility.yul\":3044:3132   */\n      mstore\n        /* \"#utility.yul\":3151:3155   */\n      0x41\n        /* \"#utility.yul\":3148:3149   */\n      0x04\n        /* \"#utility.yul\":3141:3156   */\n      mstore\n        /* \"#utility.yul\":3175:3179   */\n      0x24\n        /* \"#utility.yul\":3172:3173   */\n      0x00\n        /* \"#utility.yul\":3165:3180   */\n      revert\n        /* \"#utility.yul\":3192:3473   */\n    tag_43:\n        /* \"#utility.yul\":3275:3302   */\n      tag_117\n        /* \"#utility.yul\":3297:3301   */\n      dup3\n        /* \"#utility.yul\":3275:3302   */\n      tag_39\n      jump\t// in\n    tag_117:\n        /* \"#utility.yul\":3267:3273   */\n      dup2\n        /* \"#utility.yul\":3263:3303   */\n      add\n        /* \"#utility.yul\":3405:3411   */\n      dup2\n        /* \"#utility.yul\":3393:3403   */\n      dup2\n        /* \"#utility.yul\":3390:3412   */\n      lt\n        /* \"#utility.yul\":3369:3387   */\n      0xffffffffffffffff\n        /* \"#utility.yul\":3357:3367   */\n      dup3\n        /* \"#utility.yul\":3354:3388   */\n      gt\n        /* \"#utility.yul\":3351:3413   */\n      or\n        /* \"#utility.yul\":3348:3436   */\n      iszero\n      tag_118\n      jumpi\n        /* \"#utility.yul\":3416:3434   */\n      tag_119\n      tag_42\n      jump\t// in\n    tag_119:\n        /* \"#utility.yul\":3348:3436   */\n    tag_118:\n        /* \"#utility.yul\":3456:3466   */\n      dup1\n        /* \"#utility.yul\":3452:3454   */\n      0x40\n        /* \"#utility.yul\":3445:3467   */\n      mstore\n        /* \"#utility.yul\":3235:3473   */\n      pop\n        /* \"#utility.yul\":3192:3473   */\n      pop\n      pop\n      jump\t// out\n        /* \"#utility.yul\":3479:3608   */\n    tag_44:\n        /* \"#utility.yul\":3513:3519   */\n      0x00\n        /* \"#utility.yul\":3540:3560   */\n      tag_121\n      tag_27\n      jump\t// in\n    tag_121:\n        /* \"#utility.yul\":3530:3560   */\n      swap1\n      pop\n        /* \"#utility.yul\":3569:3602   */\n      tag_122\n        /* \"#utility.yul\":3597:3601   */\n      dup3\n        /* \"#utility.yul\":3589:3595   */\n      dup3\n        /* \"#utility.yul\":3569:3602   */\n      tag_43\n      jump\t// in\n    tag_122:\n        /* \"#utility.yul\":3479:3608   */\n      swap2\n      swap1\n      pop\n      jump\t// out\n        /* \"#utility.yul\":3614:3925   */\n    tag_45:\n        /* \"#utility.yul\":3691:3695   */\n      0x00\n        /* \"#utility.yul\":3781:3799   */\n      0xffffffffffffffff\n        /* \"#utility.yul\":3773:3779   */\n      dup3\n        /* \"#utility.yul\":3770:3800   */\n      gt\n        /* \"#utility.yul\":3767:3823   */\n      iszero\n      tag_124\n      jumpi\n        /* \"#utility.yul\":3803:3821   */\n      tag_125\n      tag_42\n      jump\t// in\n    tag_125:\n        /* \"#utility.yul\":3767:3823   */\n    tag_124:\n        /* \"#utility.yul\":3853:3857   */\n      0x20\n        /* \"#utility.yul\":3845:3851   */\n      dup3\n        /* \"#utility.yul\":3841:3858   */\n      mul\n        /* \"#utility.yul\":3833:3858   */\n      swap1\n      pop\n        /* \"#utility.yul\":3913:3917   */\n      0x20\n        /* \"#utility.yul\":3907:3911   */\n      dup2\n        /* \"#utility.yul\":3903:3918   */\n      add\n        /* \"#utility.yul\":3895:3918   */\n      swap1\n      pop\n        /* \"#utility.yul\":3614:3925   */\n      swap2\n      swap1\n      pop\n      jump\t// out\n        /* \"#utility.yul\":3931:4048   */\n    tag_46:\n        /* \"#utility.yul\":4040:4041   */\n      0x00\n        /* \"#utility.yul\":4037:4038   */\n      dup1\n        /* \"#utility.yul\":4030:4042   */\n      revert\n        /* \"#utility.yul\":4054:4176   */\n    tag_47:\n        /* \"#utility.yul\":4127:4151   */\n      tag_128\n        /* \"#utility.yul\":4145:4150   */\n      dup2\n        /* \"#utility.yul\":4127:4151   */\n      tag_34\n      jump\t// in\n    tag_128:\n        /* \"#utility.yul\":4120:4125   */\n      dup2\n        /* \"#utility.yul\":4117:4152   */\n      eq\n        /* \"#utility.yul\":4107:4170   */\n      tag_129\n      jumpi\n        /* \"#utility.yul\":4166:4167   */\n      0x00\n        /* \"#utility.yul\":4163:4164   */\n      dup1\n        /* \"#utility.yul\":4156:4168   */\n      revert\n        /* \"#utility.yul\":4107:4170   */\n    tag_129:\n        /* \"#utility.yul\":4054:4176   */\n      pop\n      jump\t// out\n        /* \"#utility.yul\":4182:4321   */\n    tag_48:\n        /* \"#utility.yul\":4228:4233   */\n      0x00\n        /* \"#utility.yul\":4266:4272   */\n      dup2\n        /* \"#utility.yul\":4253:4273   */\n      calldataload\n        /* \"#utility.yul\":4244:4273   */\n      swap1\n      pop\n        /* \"#utility.yul\":4282:4315   */\n      tag_131\n        /* \"#utility.yul\":4309:4314   */\n      dup2\n        /* \"#utility.yul\":4282:4315   */\n      tag_47\n      jump\t// in\n    tag_131:\n        /* \"#utility.yul\":4182:4321   */\n      swap3\n      swap2\n      pop\n      pop\n      jump\t// out\n        /* \"#utility.yul\":4344:5054   */\n    tag_49:\n        /* \"#utility.yul\":4440:4445   */\n      0x00\n        /* \"#utility.yul\":4465:4546   */\n      tag_133\n        /* \"#utility.yul\":4481:4545   */\n      tag_134\n        /* \"#utility.yul\":4538:4544   */\n      dup5\n        /* \"#utility.yul\":4481:4545   */\n      tag_45\n      jump\t// in\n    tag_134:\n        /* \"#utility.yul\":4465:4546   */\n      tag_44\n      jump\t// in\n    tag_133:\n        /* \"#utility.yul\":4456:4546   */\n      swap1\n      pop\n        /* \"#utility.yul\":4566:4571   */\n      dup1\n        /* \"#utility.yul\":4595:4601   */\n      dup4\n        /* \"#utility.yul\":4588:4593   */\n      dup3\n        /* \"#utility.yul\":4581:4602   */\n      mstore\n        /* \"#utility.yul\":4629:4633   */\n      0x20\n        /* \"#utility.yul\":4622:4627   */\n      dup3\n        /* \"#utility.yul\":4618:4634   */\n      add\n        /* \"#utility.yul\":4611:4634   */\n      swap1\n      pop\n        /* \"#utility.yul\":4682:4686   */\n      0x20\n        /* \"#utility.yul\":4674:4680   */\n      dup5\n        /* \"#utility.yul\":4670:4687   */\n      mul\n        /* \"#utility.yul\":4662:4668   */\n      dup4\n        /* \"#utility.yul\":4658:4688   */\n      add\n        /* \"#utility.yul\":4711:4714   */\n      dup6\n        /* \"#utility.yul\":4703:4709   */\n      dup2\n        /* \"#utility.yul\":4700:4715   */\n      gt\n        /* \"#utility.yul\":4697:4819   */\n      iszero\n      tag_135\n      jumpi\n        /* \"#utility.yul\":4730:4809   */\n      tag_136\n      tag_46\n      jump\t// in\n    tag_136:\n        /* \"#utility.yul\":4697:4819   */\n    tag_135:\n        /* \"#utility.yul\":4845:4851   */\n      dup4\n        /* \"#utility.yul\":4828:5048   */\n    tag_137:\n        /* \"#utility.yul\":4862:4868   */\n      dup2\n        /* \"#utility.yul\":4857:4860   */\n      dup2\n        /* \"#utility.yul\":4854:4869   */\n      lt\n        /* \"#utility.yul\":4828:5048   */\n      iszero\n      tag_139\n      jumpi\n        /* \"#utility.yul\":4937:4940   */\n      dup1\n        /* \"#utility.yul\":4966:5003   */\n      tag_140\n        /* \"#utility.yul\":4999:5002   */\n      dup9\n        /* \"#utility.yul\":4987:4997   */\n      dup3\n        /* \"#utility.yul\":4966:5003   */\n      tag_48\n      jump\t// in\n    tag_140:\n        /* \"#utility.yul\":4961:4964   */\n      dup5\n        /* \"#utility.yul\":4954:5004   */\n      mstore\n        /* \"#utility.yul\":5033:5037   */\n      0x20\n        /* \"#utility.yul\":5028:5031   */\n      dup5\n        /* \"#utility.yul\":5024:5038   */\n      add\n        /* \"#utility.yul\":5017:5038   */\n      swap4\n      pop\n        /* \"#utility.yul\":4904:5048   */\n      pop\n        /* \"#utility.yul\":4888:4892   */\n      0x20\n        /* \"#utility.yul\":4883:4886   */\n      dup2\n        /* \"#utility.yul\":4879:4893   */\n      add\n        /* \"#utility.yul\":4872:4893   */\n      swap1\n      pop\n        /* \"#utility.yul\":4828:5048   */\n      jump(tag_137)\n    tag_139:\n        /* \"#utility.yul\":4832:4853   */\n      pop\n        /* \"#utility.yul\":4446:5054   */\n      pop\n      pop\n        /* \"#utility.yul\":4344:5054   */\n      swap4\n      swap3\n      pop\n      pop\n      pop\n      jump\t// out\n        /* \"#utility.yul\":5077:5447   */\n    tag_50:\n        /* \"#utility.yul\":5148:5153   */\n      0x00\n        /* \"#utility.yul\":5197:5200   */\n      dup3\n        /* \"#utility.yul\":5190:5194   */\n      0x1f\n        /* \"#utility.yul\":5182:5188   */\n      dup4\n        /* \"#utility.yul\":5178:5195   */\n      add\n        /* \"#utility.yul\":5174:5201   */\n      slt\n        /* \"#utility.yul\":5164:5286   */\n      tag_142\n      jumpi\n        /* \"#utility.yul\":5205:5284   */\n      tag_143\n      tag_41\n      jump\t// in\n    tag_143:\n        /* \"#utility.yul\":5164:5286   */\n    tag_142:\n        /* \"#utility.yul\":5322:5328   */\n      dup2\n        /* \"#utility.yul\":5309:5329   */\n      calldataload\n        /* \"#utility.yul\":5347:5441   */\n      tag_144\n        /* \"#utility.yul\":5437:5440   */\n      dup5\n        /* \"#utility.yul\":5429:5435   */\n      dup3\n        /* \"#utility.yul\":5422:5426   */\n      0x20\n        /* \"#utility.yul\":5414:5420   */\n      dup7\n        /* \"#utility.yul\":5410:5427   */\n      add\n        /* \"#utility.yul\":5347:5441   */\n      tag_49\n      jump\t// in\n    tag_144:\n        /* \"#utility.yul\":5338:5441   */\n      swap2\n      pop\n        /* \"#utility.yul\":5154:5447   */\n      pop\n        /* \"#utility.yul\":5077:5447   */\n      swap3\n      swap2\n      pop\n      pop\n      jump\t// out\n        /* \"#utility.yul\":5453:5570   */\n    tag_51:\n        /* \"#utility.yul\":5562:5563   */\n      0x00\n        /* \"#utility.yul\":5559:5560   */\n      dup1\n        /* \"#utility.yul\":5552:5564   */\n      revert\n        /* \"#utility.yul\":5576:5884   */\n    tag_52:\n        /* \"#utility.yul\":5638:5642   */\n      0x00\n        /* \"#utility.yul\":5728:5746   */\n      0xffffffffffffffff\n        /* \"#utility.yul\":5720:5726   */\n      dup3\n        /* \"#utility.yul\":5717:5747   */\n      gt\n        /* \"#utility.yul\":5714:5770   */\n      iszero\n      tag_147\n      jumpi\n        /* \"#utility.yul\":5750:5768   */\n      tag_148\n      tag_42\n      jump\t// in\n    tag_148:\n        /* \"#utility.yul\":5714:5770   */\n    tag_147:\n        /* \"#utility.yul\":5788:5817   */\n      tag_149\n        /* \"#utility.yul\":5810:5816   */\n      dup3\n        /* \"#utility.yul\":5788:5817   */\n      tag_39\n      jump\t// in\n    tag_149:\n        /* \"#utility.yul\":5780:5817   */\n      swap1\n      pop\n        /* \"#utility.yul\":5872:5876   */\n      0x20\n        /* \"#utility.yul\":5866:5870   */\n      dup2\n        /* \"#utility.yul\":5862:5877   */\n      add\n        /* \"#utility.yul\":5854:5877   */\n      swap1\n      pop\n        /* \"#utility.yul\":5576:5884   */\n      swap2\n      swap1\n      pop\n      jump\t// out\n        /* \"#utility.yul\":5890:6044   */\n    tag_53:\n        /* \"#utility.yul\":5974:5980   */\n      dup3\n        /* \"#utility.yul\":5969:5972   */\n      dup2\n        /* \"#utility.yul\":5964:5967   */\n      dup4\n        /* \"#utility.yul\":5951:5981   */\n      calldatacopy\n        /* \"#utility.yul\":6036:6037   */\n      0x00\n        /* \"#utility.yul\":6027:6033   */\n      dup4\n        /* \"#utility.yul\":6022:6025   */\n      dup4\n        /* \"#utility.yul\":6018:6034   */\n      add\n        /* \"#utility.yul\":6011:6038   */\n      mstore\n        /* \"#utility.yul\":5890:6044   */\n      pop\n      pop\n      pop\n      jump\t// out\n        /* \"#utility.yul\":6050:6462   */\n    tag_54:\n        /* \"#utility.yul\":6128:6133   */\n      0x00\n        /* \"#utility.yul\":6153:6219   */\n      tag_152\n        /* \"#utility.yul\":6169:6218   */\n      tag_153\n        /* \"#utility.yul\":6211:6217   */\n      dup5\n        /* \"#utility.yul\":6169:6218   */\n      tag_52\n      jump\t// in\n    tag_153:\n        /* \"#utility.yul\":6153:6219   */\n      tag_44\n      jump\t// in\n    tag_152:\n        /* \"#utility.yul\":6144:6219   */\n      swap1\n      pop\n        /* \"#utility.yul\":6242:6248   */\n      dup3\n        /* \"#utility.yul\":6235:6240   */\n      dup2\n        /* \"#utility.yul\":6228:6249   */\n      mstore\n        /* \"#utility.yul\":6280:6284   */\n      0x20\n        /* \"#utility.yul\":6273:6278   */\n      dup2\n        /* \"#utility.yul\":6269:6285   */\n      add\n        /* \"#utility.yul\":6318:6321   */\n      dup5\n        /* \"#utility.yul\":6309:6315   */\n      dup5\n        /* \"#utility.yul\":6304:6307   */\n      dup5\n        /* \"#utility.yul\":6300:6316   */\n      add\n        /* \"#utility.yul\":6297:6322   */\n      gt\n        /* \"#utility.yul\":6294:6406   */\n      iszero\n      tag_154\n      jumpi\n        /* \"#utility.yul\":6325:6404   */\n      tag_155\n      tag_51\n      jump\t// in\n    tag_155:\n        /* \"#utility.yul\":6294:6406   */\n    tag_154:\n        /* \"#utility.yul\":6415:6456   */\n      tag_156\n        /* \"#utility.yul\":6449:6455   */\n      dup5\n        /* \"#utility.yul\":6444:6447   */\n      dup3\n        /* \"#utility.yul\":6439:6442   */\n      dup6\n        /* \"#utility.yul\":6415:6456   */\n      tag_53\n      jump\t// in\n    tag_156:\n        /* \"#utility.yul\":6134:6462   */\n      pop\n        /* \"#utility.yul\":6050:6462   */\n      swap4\n      swap3\n      pop\n      pop\n      pop\n      jump\t// out\n        /* \"#utility.yul\":6482:6822   */\n    tag_55:\n        /* \"#utility.yul\":6538:6543   */\n      0x00\n        /* \"#utility.yul\":6587:6590   */\n      dup3\n        /* \"#utility.yul\":6580:6584   */\n      0x1f\n        /* \"#utility.yul\":6572:6578   */\n      dup4\n        /* \"#utility.yul\":6568:6585   */\n      add\n        /* \"#utility.yul\":6564:6591   */\n      slt\n        /* \"#utility.yul\":6554:6676   */\n      tag_158\n      jumpi\n        /* \"#utility.yul\":6595:6674   */\n      tag_159\n      tag_41\n      jump\t// in\n    tag_159:\n        /* \"#utility.yul\":6554:6676   */\n    tag_158:\n        /* \"#utility.yul\":6712:6718   */\n      dup2\n        /* \"#utility.yul\":6699:6719   */\n      calldataload\n        /* \"#utility.yul\":6737:6816   */\n      tag_160\n        /* \"#utility.yul\":6812:6815   */\n      dup5\n        /* \"#utility.yul\":6804:6810   */\n      dup3\n        /* \"#utility.yul\":6797:6801   */\n      0x20\n        /* \"#utility.yul\":6789:6795   */\n      dup7\n        /* \"#utility.yul\":6785:6802   */\n      add\n        /* \"#utility.yul\":6737:6816   */\n      tag_54\n      jump\t// in\n    tag_160:\n        /* \"#utility.yul\":6728:6816   */\n      swap2\n      pop\n        /* \"#utility.yul\":6544:6822   */\n      pop\n        /* \"#utility.yul\":6482:6822   */\n      swap3\n      swap2\n      pop\n      pop\n      jump\t// out\n        /* \"#utility.yul\":6828:7692   */\n    tag_13:\n        /* \"#utility.yul\":6931:6937   */\n      0x00\n        /* \"#utility.yul\":6939:6945   */\n      dup1\n        /* \"#utility.yul\":6988:6990   */\n      0x40\n        /* \"#utility.yul\":6976:6985   */\n      dup4\n        /* \"#utility.yul\":6967:6974   */\n      dup6\n        /* \"#utility.yul\":6963:6986   */\n      sub\n        /* \"#utility.yul\":6959:6991   */\n      slt\n        /* \"#utility.yul\":6956:7075   */\n      iszero\n      tag_162\n      jumpi\n        /* \"#utility.yul\":6994:7073   */\n      tag_163\n      tag_28\n      jump\t// in\n    tag_163:\n        /* \"#utility.yul\":6956:7075   */\n    tag_162:\n        /* \"#utility.yul\":7142:7143   */\n      0x00\n        /* \"#utility.yul\":7131:7140   */\n      dup4\n        /* \"#utility.yul\":7127:7144   */\n      add\n        /* \"#utility.yul\":7114:7145   */\n      calldataload\n        /* \"#utility.yul\":7172:7190   */\n      0xffffffffffffffff\n        /* \"#utility.yul\":7164:7170   */\n      dup2\n        /* \"#utility.yul\":7161:7191   */\n      gt\n        /* \"#utility.yul\":7158:7275   */\n      iszero\n      tag_164\n      jumpi\n        /* \"#utility.yul\":7194:7273   */\n      tag_165\n      tag_29\n      jump\t// in\n    tag_165:\n        /* \"#utility.yul\":7158:7275   */\n    tag_164:\n        /* \"#utility.yul\":7299:7377   */\n      tag_166\n        /* \"#utility.yul\":7369:7376   */\n      dup6\n        /* \"#utility.yul\":7360:7366   */\n      dup3\n        /* \"#utility.yul\":7349:7358   */\n      dup7\n        /* \"#utility.yul\":7345:7367   */\n      add\n        /* \"#utility.yul\":7299:7377   */\n      tag_50\n      jump\t// in\n    tag_166:\n        /* \"#utility.yul\":7289:7377   */\n      swap3\n      pop\n        /* \"#utility.yul\":7085:7387   */\n      pop\n        /* \"#utility.yul\":7454:7456   */\n      0x20\n        /* \"#utility.yul\":7443:7452   */\n      dup4\n        /* \"#utility.yul\":7439:7457   */\n      add\n        /* \"#utility.yul\":7426:7458   */\n      calldataload\n        /* \"#utility.yul\":7485:7503   */\n      0xffffffffffffffff\n        /* \"#utility.yul\":7477:7483   */\n      dup2\n        /* \"#utility.yul\":7474:7504   */\n      gt\n        /* \"#utility.yul\":7471:7588   */\n      iszero\n      tag_167\n      jumpi\n        /* \"#utility.yul\":7507:7586   */\n      tag_168\n      tag_29\n      jump\t// in\n    tag_168:\n        /* \"#utility.yul\":7471:7588   */\n    tag_167:\n        /* \"#utility.yul\":7612:7675   */\n      tag_169\n        /* \"#utility.yul\":7667:7674   */\n      dup6\n        /* \"#utility.yul\":7658:7664   */\n      dup3\n        /* \"#utility.yul\":7647:7656   */\n      dup7\n        /* \"#utility.yul\":7643:7665   */\n      add\n        /* \"#utility.yul\":7612:7675   */\n      tag_55\n      jump\t// in\n    tag_169:\n        /* \"#utility.yul\":7602:7675   */\n      swap2\n      pop\n        /* \"#utility.yul\":7397:7685   */\n      pop\n        /* \"#utility.yul\":6828:7692   */\n      swap3\n      pop\n      swap3\n      swap1\n      pop\n      jump\t// out\n        /* \"#utility.yul\":7698:7812   */\n    tag_56:\n        /* \"#utility.yul\":7765:7771   */\n      0x00\n        /* \"#utility.yul\":7799:7804   */\n      dup2\n        /* \"#utility.yul\":7793:7805   */\n      mload\n        /* \"#utility.yul\":7783:7805   */\n      swap1\n      pop\n        /* \"#utility.yul\":7698:7812   */\n      swap2\n      swap1\n      pop\n      jump\t// out\n        /* \"#utility.yul\":7818:8002   */\n    tag_57:\n        /* \"#utility.yul\":7917:7928   */\n      0x00\n        /* \"#utility.yul\":7951:7957   */\n      dup3\n        /* \"#utility.yul\":7946:7949   */\n      dup3\n        /* \"#utility.yul\":7939:7958   */\n      mstore\n        /* \"#utility.yul\":7991:7995   */\n      0x20\n        /* \"#utility.yul\":7986:7989   */\n      dup3\n        /* \"#utility.yul\":7982:7996   */\n      add\n        /* \"#utility.yul\":7967:7996   */\n      swap1\n      pop\n        /* \"#utility.yul\":7818:8002   */\n      swap3\n      swap2\n      pop\n      pop\n      jump\t// out\n        /* \"#utility.yul\":8008:8140   */\n    tag_58:\n        /* \"#utility.yul\":8075:8079   */\n      0x00\n        /* \"#utility.yul\":8098:8101   */\n      dup2\n        /* \"#utility.yul\":8090:8101   */\n      swap1\n      pop\n        /* \"#utility.yul\":8128:8132   */\n      0x20\n        /* \"#utility.yul\":8123:8126   */\n      dup3\n        /* \"#utility.yul\":8119:8133   */\n      add\n        /* \"#utility.yul\":8111:8133   */\n      swap1\n      pop\n        /* \"#utility.yul\":8008:8140   */\n      swap2\n      swap1\n      pop\n      jump\t// out\n        /* \"#utility.yul\":8146:8254   */\n    tag_59:\n        /* \"#utility.yul\":8223:8247   */\n      tag_174\n        /* \"#utility.yul\":8241:8246   */\n      dup2\n        /* \"#utility.yul\":8223:8247   */\n      tag_34\n      jump\t// in\n    tag_174:\n        /* \"#utility.yul\":8218:8221   */\n      dup3\n        /* \"#utility.yul\":8211:8248   */\n      mstore\n        /* \"#utility.yul\":8146:8254   */\n      pop\n      pop\n      jump\t// out\n        /* \"#utility.yul\":8260:8439   */\n    tag_60:\n        /* \"#utility.yul\":8329:8339   */\n      0x00\n        /* \"#utility.yul\":8350:8396   */\n      tag_176\n        /* \"#utility.yul\":8392:8395   */\n      dup4\n        /* \"#utility.yul\":8384:8390   */\n      dup4\n        /* \"#utility.yul\":8350:8396   */\n      tag_59\n      jump\t// in\n    tag_176:\n        /* \"#utility.yul\":8428:8432   */\n      0x20\n        /* \"#utility.yul\":8423:8426   */\n      dup4\n        /* \"#utility.yul\":8419:8433   */\n      add\n        /* \"#utility.yul\":8405:8433   */\n      swap1\n      pop\n        /* \"#utility.yul\":8260:8439   */\n      swap3\n      swap2\n      pop\n      pop\n      jump\t// out\n        /* \"#utility.yul\":8445:8558   */\n    tag_61:\n        /* \"#utility.yul\":8515:8519   */\n      0x00\n        /* \"#utility.yul\":8547:8551   */\n      0x20\n        /* \"#utility.yul\":8542:8545   */\n      dup3\n        /* \"#utility.yul\":8538:8552   */\n      add\n        /* \"#utility.yul\":8530:8552   */\n      swap1\n      pop\n        /* \"#utility.yul\":8445:8558   */\n      swap2\n      swap1\n      pop\n      jump\t// out\n        /* \"#utility.yul\":8594:9326   */\n    tag_62:\n        /* \"#utility.yul\":8713:8716   */\n      0x00\n        /* \"#utility.yul\":8742:8796   */\n      tag_179\n        /* \"#utility.yul\":8790:8795   */\n      dup3\n        /* \"#utility.yul\":8742:8796   */\n      tag_56\n      jump\t// in\n    tag_179:\n        /* \"#utility.yul\":8812:8898   */\n      tag_180\n        /* \"#utility.yul\":8891:8897   */\n      dup2\n        /* \"#utility.yul\":8886:8889   */\n      dup6\n        /* \"#utility.yul\":8812:8898   */\n      tag_57\n      jump\t// in\n    tag_180:\n        /* \"#utility.yul\":8805:8898   */\n      swap4\n      pop\n        /* \"#utility.yul\":8922:8978   */\n      tag_181\n        /* \"#utility.yul\":8972:8977   */\n      dup4\n        /* \"#utility.yul\":8922:8978   */\n      tag_58\n      jump\t// in\n    tag_181:\n        /* \"#utility.yul\":9001:9008   */\n      dup1\n        /* \"#utility.yul\":9032:9033   */\n      0x00\n        /* \"#utility.yul\":9017:9301   */\n    tag_182:\n        /* \"#utility.yul\":9042:9048   */\n      dup4\n        /* \"#utility.yul\":9039:9040   */\n      dup2\n        /* \"#utility.yul\":9036:9049   */\n      lt\n        /* \"#utility.yul\":9017:9301   */\n      iszero\n      tag_184\n      jumpi\n        /* \"#utility.yul\":9118:9124   */\n      dup2\n        /* \"#utility.yul\":9112:9125   */\n      mload\n        /* \"#utility.yul\":9145:9208   */\n      tag_185\n        /* \"#utility.yul\":9204:9207   */\n      dup9\n        /* \"#utility.yul\":9189:9202   */\n      dup3\n        /* \"#utility.yul\":9145:9208   */\n      tag_60\n      jump\t// in\n    tag_185:\n        /* \"#utility.yul\":9138:9208   */\n      swap8\n      pop\n        /* \"#utility.yul\":9231:9291   */\n      tag_186\n        /* \"#utility.yul\":9284:9290   */\n      dup4\n        /* \"#utility.yul\":9231:9291   */\n      tag_61\n      jump\t// in\n    tag_186:\n        /* \"#utility.yul\":9221:9291   */\n      swap3\n      pop\n        /* \"#utility.yul\":9077:9301   */\n      pop\n        /* \"#utility.yul\":9064:9065   */\n      0x01\n        /* \"#utility.yul\":9061:9062   */\n      dup2\n        /* \"#utility.yul\":9057:9066   */\n      add\n        /* \"#utility.yul\":9052:9066   */\n      swap1\n      pop\n        /* \"#utility.yul\":9017:9301   */\n      jump(tag_182)\n    tag_184:\n        /* \"#utility.yul\":9021:9035   */\n      pop\n        /* \"#utility.yul\":9317:9320   */\n      dup6\n        /* \"#utility.yul\":9310:9320   */\n      swap4\n      pop\n        /* \"#utility.yul\":8718:9326   */\n      pop\n      pop\n      pop\n        /* \"#utility.yul\":8594:9326   */\n      swap3\n      swap2\n      pop\n      pop\n      jump\t// out\n        /* \"#utility.yul\":9332:9705   */\n    tag_16:\n        /* \"#utility.yul\":9475:9479   */\n      0x00\n        /* \"#utility.yul\":9513:9515   */\n      0x20\n        /* \"#utility.yul\":9502:9511   */\n      dup3\n        /* \"#utility.yul\":9498:9516   */\n      add\n        /* \"#utility.yul\":9490:9516   */\n      swap1\n      pop\n        /* \"#utility.yul\":9562:9571   */\n      dup2\n        /* \"#utility.yul\":9556:9560   */\n      dup2\n        /* \"#utility.yul\":9552:9572   */\n      sub\n        /* \"#utility.yul\":9548:9549   */\n      0x00\n        /* \"#utility.yul\":9537:9546   */\n      dup4\n        /* \"#utility.yul\":9533:9550   */\n      add\n        /* \"#utility.yul\":9526:9573   */\n      mstore\n        /* \"#utility.yul\":9590:9698   */\n      tag_188\n        /* \"#utility.yul\":9693:9697   */\n      dup2\n        /* \"#utility.yul\":9684:9690   */\n      dup5\n        /* \"#utility.yul\":9590:9698   */\n      tag_62\n      jump\t// in\n    tag_188:\n        /* \"#utility.yul\":9582:9698   */\n      swap1\n      pop\n        /* \"#utility.yul\":9332:9705   */\n      swap3\n      swap2\n      pop\n      pop\n      jump\t// out\n        /* \"#utility.yul\":9711:9891   */\n    tag_63:\n        /* \"#utility.yul\":9759:9836   */\n      0x4e487b7100000000000000000000000000000000000000000000000000000000\n        /* \"#utility.yul\":9756:9757   */\n      0x00\n        /* \"#utility.yul\":9749:9837   */\n      mstore\n        /* \"#utility.yul\":9856:9860   */\n      0x22\n        /* \"#utility.yul\":9853:9854   */\n      0x04\n        /* \"#utility.yul\":9846:9861   */\n      mstore\n        /* \"#utility.yul\":9880:9884   */\n      0x24\n        /* \"#utility.yul\":9877:9878   */\n      0x00\n        /* \"#utility.yul\":9870:9885   */\n      revert\n        /* \"#utility.yul\":9897:10217   */\n    tag_18:\n        /* \"#utility.yul\":9941:9947   */\n      0x00\n        /* \"#utility.yul\":9978:9979   */\n      0x02\n        /* \"#utility.yul\":9972:9976   */\n      dup3\n        /* \"#utility.yul\":9968:9980   */\n      div\n        /* \"#utility.yul\":9958:9980   */\n      swap1\n      pop\n        /* \"#utility.yul\":10025:10026   */\n      0x01\n        /* \"#utility.yul\":10019:10023   */\n      dup3\n        /* \"#utility.yul\":10015:10027   */\n      and\n        /* \"#utility.yul\":10046:10064   */\n      dup1\n        /* \"#utility.yul\":10036:10117   */\n      tag_191\n      jumpi\n        /* \"#utility.yul\":10102:10106   */\n      0x7f\n        /* \"#utility.yul\":10094:10100   */\n      dup3\n        /* \"#utility.yul\":10090:10107   */\n      and\n        /* \"#utility.yul\":10080:10107   */\n      swap2\n      pop\n        /* \"#utility.yul\":10036:10117   */\n    tag_191:\n        /* \"#utility.yul\":10164:10166   */\n      0x20\n        /* \"#utility.yul\":10156:10162   */\n      dup3\n        /* \"#utility.yul\":10153:10167   */\n      lt\n        /* \"#utility.yul\":10133:10151   */\n      dup2\n        /* \"#utility.yul\":10130:10168   */\n      sub\n        /* \"#utility.yul\":10127:10211   */\n      tag_192\n      jumpi\n        /* \"#utility.yul\":10183:10201   */\n      tag_193\n      tag_63\n      jump\t// in\n    tag_193:\n        /* \"#utility.yul\":10127:10211   */\n    tag_192:\n        /* \"#utility.yul\":9948:10217   */\n      pop\n        /* \"#utility.yul\":9897:10217   */\n      swap2\n      swap1\n      pop\n      jump\t// out\n        /* \"#utility.yul\":10223:10364   */\n    tag_64:\n        /* \"#utility.yul\":10272:10276   */\n      0x00\n        /* \"#utility.yul\":10295:10298   */\n      dup2\n        /* \"#utility.yul\":10287:10298   */\n      swap1\n      pop\n        /* \"#utility.yul\":10318:10321   */\n      dup2\n        /* \"#utility.yul\":10315:10316   */\n      0x00\n        /* \"#utility.yul\":10308:10322   */\n      mstore\n        /* \"#utility.yul\":10352:10356   */\n      0x20\n        /* \"#utility.yul\":10349:10350   */\n      0x00\n        /* \"#utility.yul\":10339:10357   */\n      keccak256\n        /* \"#utility.yul\":10331:10357   */\n      swap1\n      pop\n        /* \"#utility.yul\":10223:10364   */\n      swap2\n      swap1\n      pop\n      jump\t// out\n        /* \"#utility.yul\":10370:10463   */\n    tag_65:\n        /* \"#utility.yul\":10407:10413   */\n      0x00\n        /* \"#utility.yul\":10454:10456   */\n      0x20\n        /* \"#utility.yul\":10449:10451   */\n      0x1f\n        /* \"#utility.yul\":10442:10447   */\n      dup4\n        /* \"#utility.yul\":10438:10452   */\n      add\n        /* \"#utility.yul\":10434:10457   */\n      div\n        /* \"#utility.yul\":10424:10457   */\n      swap1\n      pop\n        /* \"#utility.yul\":10370:10463   */\n      swap2\n      swap1\n      pop\n      jump\t// out\n        /* \"#utility.yul\":10469:10576   */\n    tag_66:\n        /* \"#utility.yul\":10513:10521   */\n      0x00\n        /* \"#utility.yul\":10563:10568   */\n      dup3\n        /* \"#utility.yul\":10557:10561   */\n      dup3\n        /* \"#utility.yul\":10553:10569   */\n      shl\n        /* \"#utility.yul\":10532:10569   */\n      swap1\n      pop\n        /* \"#utility.yul\":10469:10576   */\n      swap3\n      swap2\n      pop\n      pop\n      jump\t// out\n        /* \"#utility.yul\":10582:10975   */\n    tag_67:\n        /* \"#utility.yul\":10651:10657   */\n      0x00\n        /* \"#utility.yul\":10701:10702   */\n      0x08\n        /* \"#utility.yul\":10689:10699   */\n      dup4\n        /* \"#utility.yul\":10685:10703   */\n      mul\n        /* \"#utility.yul\":10724:10821   */\n      tag_198\n        /* \"#utility.yul\":10754:10820   */\n      0xffffffffffffffffffffffffffffffffffffffffffffffffffffffffffffffff\n        /* \"#utility.yul\":10743:10752   */\n      dup3\n        /* \"#utility.yul\":10724:10821   */\n      tag_66\n      jump\t// in\n    tag_198:\n        /* \"#utility.yul\":10842:10881   */\n      tag_199\n        /* \"#utility.yul\":10872:10880   */\n      dup7\n        /* \"#utility.yul\":10861:10870   */\n      dup4\n        /* \"#utility.yul\":10842:10881   */\n      tag_66\n      jump\t// in\n    tag_199:\n        /* \"#utility.yul\":10830:10881   */\n      swap6\n      pop\n        /* \"#utility.yul\":10914:10918   */\n      dup1\n        /* \"#utility.yul\":10910:10919   */\n      not\n        /* \"#utility.yul\":10903:10908   */\n      dup5\n        /* \"#utility.yul\":10899:10920   */\n      and\n        /* \"#utility.yul\":10890:10920   */\n      swap4\n      pop\n        /* \"#utility.yul\":10963:10967   */\n      dup1\n        /* \"#utility.yul\":10953:10961   */\n      dup7\n        /* \"#utility.yul\":10949:10968   */\n      and\n        /* \"#utility.yul\":10942:10947   */\n      dup5\n        /* \"#utility.yul\":10939:10969   */\n      or\n        /* \"#utility.yul\":10929:10969   */\n      swap3\n      pop\n        /* \"#utility.yul\":10658:10975   */\n      pop\n      pop\n        /* \"#utility.yul\":10582:10975   */\n      swap4\n      swap3\n      pop\n      pop\n      pop\n      jump\t// out\n        /* \"#utility.yul\":10981:11041   */\n    tag_68:\n        /* \"#utility.yul\":11009:11012   */\n      0x00\n        /* \"#utility.yul\":11030:11035   */\n      dup2\n        /* \"#utility.yul\":11023:11035   */\n      swap1\n      pop\n        /* \"#utility.yul\":10981:11041   */\n      swap2\n      swap1\n      pop\n      jump\t// out\n        /* \"#utility.yul\":11047:11189   */\n    tag_69:\n        /* \"#utility.yul\":11097:11106   */\n      0x00\n        /* \"#utility.yul\":11130:11183   */\n      tag_202\n        /* \"#utility.yul\":11148:11182   */\n      tag_203\n        /* \"#utility.yul\":11157:11181   */\n      tag_204\n        /* \"#utility.yul\":11175:11180   */\n      dup5\n        /* \"#utility.yul\":11157:11181   */\n      tag_34\n      jump\t// in\n    tag_204:\n        /* \"#utility.yul\":11148:11182   */\n      tag_68\n      jump\t// in\n    tag_203:\n        /* \"#utility.yul\":11130:11183   */\n      tag_34\n      jump\t// in\n    tag_202:\n        /* \"#utility.yul\":11117:11183   */\n      swap1\n      pop\n        /* \"#utility.yul\":11047:11189   */\n      swap2\n      swap1\n      pop\n      jump\t// out\n        /* \"#utility.yul\":11195:11270   */\n    tag_70:\n        /* \"#utility.yul\":11238:11241   */\n      0x00\n        /* \"#utility.yul\":11259:11264   */\n      dup2\n        /* \"#utility.yul\":11252:11264   */\n      swap1\n      pop\n        /* \"#utility.yul\":11195:11270   */\n      swap2\n      swap1\n      pop\n      jump\t// out\n        /* \"#utility.yul\":11276:11545   */\n    tag_71:\n        /* \"#utility.yul\":11386:11425   */\n      tag_207\n        /* \"#utility.yul\":11417:11424   */\n      dup4\n        /* \"#utility.yul\":11386:11425   */\n      tag_69\n      jump\t// in\n    tag_207:\n        /* \"#utility.yul\":11447:11538   */\n      tag_208\n        /* \"#utility.yul\":11496:11537   */\n      tag_209\n        /* \"#utility.yul\":11520:11536   */\n      dup3\n        /* \"#utility.yul\":11496:11537   */\n      tag_70\n      jump\t// in\n    tag_209:\n        /* \"#utility.yul\":11488:11494   */\n      dup5\n        /* \"#utility.yul\":11481:11485   */\n      dup5\n        /* \"#utility.yul\":11475:11486   */\n      sload\n        /* \"#utility.yul\":11447:11538   */\n      tag_67\n      jump\t// in\n    tag_208:\n        /* \"#utility.yul\":11441:11445   */\n      dup3\n        /* \"#utility.yul\":11434:11539   */\n      sstore\n        /* \"#utility.yul\":11352:11545   */\n      pop\n        /* \"#utility.yul\":11276:11545   */\n      pop\n      pop\n      pop\n      jump\t// out\n        /* \"#utility.yul\":11551:11624   */\n    tag_72:\n        /* \"#utility.yul\":11596:11599   */\n      0x00\n        /* \"#utility.yul\":11551:11624   */\n      swap1\n      jump\t// out\n        /* \"#utility.yul\":11630:11819   */\n    tag_73:\n        /* \"#utility.yul\":11707:11739   */\n      tag_212\n      tag_72\n      jump\t// in\n    tag_212:\n        /* \"#utility.yul\":11748:11813   */\n      tag_213\n        /* \"#utility.yul\":11806:11812   */\n      dup2\n        /* \"#utility.yul\":11798:11804   */\n      dup5\n        /* \"#utility.yul\":11792:11796   */\n      dup5\n        /* \"#utility.yul\":11748:11813   */\n      tag_71\n      jump\t// in\n    tag_213:\n        /* \"#utility.yul\":11683:11819   */\n      pop\n        /* \"#utility.yul\":11630:11819   */\n      pop\n      pop\n      jump\t// out\n        /* \"#utility.yul\":11825:12011   */\n    tag_74:\n        /* \"#utility.yul\":11885:12005   */\n    tag_215:\n        /* \"#utility.yul\":11902:11905   */\n      dup2\n        /* \"#utility.yul\":11895:11900   */\n      dup2\n        /* \"#utility.yul\":11892:11906   */\n      lt\n        /* \"#utility.yul\":11885:12005   */\n      iszero\n      tag_217\n      jumpi\n        /* \"#utility.yul\":11956:11995   */\n      tag_218\n        /* \"#utility.yul\":11993:11994   */\n      0x00\n        /* \"#utility.yul\":11986:11991   */\n      dup3\n        /* \"#utility.yul\":11956:11995   */\n      tag_73\n      jump\t// in\n    tag_218:\n        /* \"#utility.yul\":11929:11930   */\n      0x01\n        /* \"#utility.yul\":11922:11927   */\n      dup2\n        /* \"#utility.yul\":11918:11931   */\n      add\n        /* \"#utility.yul\":11909:11931   */\n      swap1\n      pop\n        /* \"#utility.yul\":11885:12005   */\n      jump(tag_215)\n    tag_217:\n        /* \"#utility.yul\":11825:12011   */\n      pop\n      pop\n      jump\t// out\n        /* \"#utility.yul\":12017:12560   */\n    tag_75:\n        /* \"#utility.yul\":12118:12120   */\n      0x1f\n        /* \"#utility.yul\":12113:12116   */\n      dup3\n        /* \"#utility.yul\":12110:12121   */\n      gt\n        /* \"#utility.yul\":12107:12553   */\n      iszero\n      tag_220\n      jumpi\n        /* \"#utility.yul\":12152:12190   */\n      tag_221\n        /* \"#utility.yul\":12184:12189   */\n      dup2\n        /* \"#utility.yul\":12152:12190   */\n      tag_64\n      jump\t// in\n    tag_221:\n        /* \"#utility.yul\":12236:12265   */\n      tag_222\n        /* \"#utility.yul\":12254:12264   */\n      dup5\n        /* \"#utility.yul\":12236:12265   */\n      tag_65\n      jump\t// in\n    tag_222:\n        /* \"#utility.yul\":12226:12234   */\n      dup2\n        /* \"#utility.yul\":12222:12266   */\n      add\n        /* \"#utility.yul\":12419:12421   */\n      0x20\n        /* \"#utility.yul\":12407:12417   */\n      dup6\n        /* \"#utility.yul\":12404:12422   */\n      lt\n        /* \"#utility.yul\":12401:12450   */\n      iszero\n      tag_223\n      jumpi\n        /* \"#utility.yul\":12440:12448   */\n      dup2\n        /* \"#utility.yul\":12425:12448   */\n      swap1\n      pop\n        /* \"#utility.yul\":12401:12450   */\n    tag_223:\n        /* \"#utility.yul\":12463:12543   */\n      tag_224\n        /* \"#utility.yul\":12519:12541   */\n      tag_225\n        /* \"#utility.yul\":12537:12540   */\n      dup6\n        /* \"#utility.yul\":12519:12541   */\n      tag_65\n      jump\t// in\n    tag_225:\n        /* \"#utility.yul\":12509:12517   */\n      dup4\n        /* \"#utility.yul\":12505:12542   */\n      add\n        /* \"#utility.yul\":12492:12503   */\n      dup3\n        /* \"#utility.yul\":12463:12543   */\n      tag_74\n      jump\t// in\n    tag_224:\n        /* \"#utility.yul\":12122:12553   */\n      pop\n      pop\n        /* \"#utility.yul\":12107:12553   */\n    tag_220:\n        /* \"#utility.yul\":12017:12560   */\n      pop\n      pop\n      pop\n      jump\t// out\n        /* \"#utility.yul\":12566:12683   */\n    tag_76:\n        /* \"#utility.yul\":12620:12628   */\n      0x00\n        /* \"#utility.yul\":12670:12675   */\n      dup3\n        /* \"#utility.yul\":12664:12668   */\n      dup3\n        /* \"#utility.yul\":12660:12676   */\n      shr\n        /* \"#utility.yul\":12639:12676   */\n      swap1\n      pop\n        /* \"#utility.yul\":12566:12683   */\n      swap3\n      swap2\n      pop\n      pop\n      jump\t// out\n        /* \"#utility.yul\":12689:12858   */\n    tag_77:\n        /* \"#utility.yul\":12733:12739   */\n      0x00\n        /* \"#utility.yul\":12766:12817   */\n      tag_228\n        /* \"#utility.yul\":12814:12815   */\n      0x00\n        /* \"#utility.yul\":12810:12816   */\n      not\n        /* \"#utility.yul\":12802:12807   */\n      dup5\n        /* \"#utility.yul\":12799:12800   */\n      0x08\n        /* \"#utility.yul\":12795:12808   */\n      mul\n        /* \"#utility.yul\":12766:12817   */\n      tag_76\n      jump\t// in\n    tag_228:\n        /* \"#utility.yul\":12762:12818   */\n      not\n        /* \"#utility.yul\":12847:12851   */\n      dup1\n        /* \"#utility.yul\":12841:12845   */\n      dup4\n        /* \"#utility.yul\":12837:12852   */\n      and\n        /* \"#utility.yul\":12827:12852   */\n      swap2\n      pop\n        /* \"#utility.yul\":12740:12858   */\n      pop\n        /* \"#utility.yul\":12689:12858   */\n      swap3\n      swap2\n      pop\n      pop\n      jump\t// out\n        /* \"#utility.yul\":12863:13158   */\n    tag_78:\n        /* \"#utility.yul\":12939:12943   */\n      0x00\n        /* \"#utility.yul\":13085:13114   */\n      tag_230\n        /* \"#utility.yul\":13110:13113   */\n      dup4\n        /* \"#utility.yul\":13104:13108   */\n      dup4\n        /* \"#utility.yul\":13085:13114   */\n      tag_77\n      jump\t// in\n    tag_230:\n        /* \"#utility.yul\":13077:13114   */\n      swap2\n      pop\n        /* \"#utility.yul\":13147:13150   */\n      dup3\n        /* \"#utility.yul\":13144:13145   */\n      0x02\n        /* \"#utility.yul\":13140:13151   */\n      mul\n        /* \"#utility.yul\":13134:13138   */\n      dup3\n        /* \"#utility.yul\":13131:13152   */\n      or\n        /* \"#utility.yul\":13123:13152   */\n      swap1\n      pop\n        /* \"#utility.yul\":12863:13158   */\n      swap3\n      swap2\n      pop\n      pop\n      jump\t// out\n        /* \"#utility.yul\":13163:14558   */\n    tag_25:\n        /* \"#utility.yul\":13280:13317   */\n      tag_232\n        /* \"#utility.yul\":13313:13316   */\n      dup3\n        /* \"#utility.yul\":13280:13317   */\n      tag_36\n      jump\t// in\n    tag_232:\n        /* \"#utility.yul\":13382:13400   */\n      0xffffffffffffffff\n        /* \"#utility.yul\":13374:13380   */\n      dup2\n        /* \"#utility.yul\":13371:13401   */\n      gt\n        /* \"#utility.yul\":13368:13424   */\n      iszero\n      tag_233\n      jumpi\n        /* \"#utility.yul\":13404:13422   */\n      tag_234\n      tag_42\n      jump\t// in\n    tag_234:\n        /* \"#utility.yul\":13368:13424   */\n    tag_233:\n        /* \"#utility.yul\":13448:13486   */\n      tag_235\n        /* \"#utility.yul\":13480:13484   */\n      dup3\n        /* \"#utility.yul\":13474:13485   */\n      sload\n        /* \"#utility.yul\":13448:13486   */\n      tag_18\n      jump\t// in\n    tag_235:\n        /* \"#utility.yul\":13533:13600   */\n      tag_236\n        /* \"#utility.yul\":13593:13599   */\n      dup3\n        /* \"#utility.yul\":13585:13591   */\n      dup3\n        /* \"#utility.yul\":13579:13583   */\n      dup6\n        /* \"#utility.yul\":13533:13600   */\n      tag_75\n      jump\t// in\n    tag_236:\n        /* \"#utility.yul\":13627:13628   */\n      0x00\n        /* \"#utility.yul\":13651:13655   */\n      0x20\n        /* \"#utility.yul\":13638:13655   */\n      swap1\n      pop\n        /* \"#utility.yul\":13683:13685   */\n      0x1f\n        /* \"#utility.yul\":13675:13681   */\n      dup4\n        /* \"#utility.yul\":13672:13686   */\n      gt\n        /* \"#utility.yul\":13700:13701   */\n      0x01\n        /* \"#utility.yul\":13695:14313   */\n      dup2\n      eq\n      tag_238\n      jumpi\n        /* \"#utility.yul\":14357:14358   */\n      0x00\n        /* \"#utility.yul\":14374:14380   */\n      dup5\n        /* \"#utility.yul\":14371:14448   */\n      iszero\n      tag_239\n      jumpi\n        /* \"#utility.yul\":14423:14432   */\n      dup3\n        /* \"#utility.yul\":14418:14421   */\n      dup8\n        /* \"#utility.yul\":14414:14433   */\n      add\n        /* \"#utility.yul\":14408:14434   */\n      mload\n        /* \"#utility.yul\":14399:14434   */\n      swap1\n      pop\n        /* \"#utility.yul\":14371:14448   */\n    tag_239:\n        /* \"#utility.yul\":14474:14541   */\n      tag_240\n        /* \"#utility.yul\":14534:14540   */\n      dup6\n        /* \"#utility.yul\":14527:14532   */\n      dup3\n        /* \"#utility.yul\":14474:14541   */\n      tag_78\n      jump\t// in\n    tag_240:\n        /* \"#utility.yul\":14468:14472   */\n      dup7\n        /* \"#utility.yul\":14461:14542   */\n      sstore\n        /* \"#utility.yul\":14330:14552   */\n      pop\n        /* \"#utility.yul\":13665:14552   */\n      jump(tag_237)\n        /* \"#utility.yul\":13695:14313   */\n    tag_238:\n        /* \"#utility.yul\":13747:13751   */\n      0x1f\n        /* \"#utility.yul\":13743:13752   */\n      not\n        /* \"#utility.yul\":13735:13741   */\n      dup5\n        /* \"#utility.yul\":13731:13753   */\n      and\n        /* \"#utility.yul\":13781:13818   */\n      tag_241\n        /* \"#utility.yul\":13813:13817   */\n      dup7\n        /* \"#utility.yul\":13781:13818   */\n      tag_64\n      jump\t// in\n    tag_241:\n        /* \"#utility.yul\":13840:13841   */\n      0x00\n        /* \"#utility.yul\":13854:14062   */\n    tag_242:\n        /* \"#utility.yul\":13868:13875   */\n      dup3\n        /* \"#utility.yul\":13865:13866   */\n      dup2\n        /* \"#utility.yul\":13862:13876   */\n      lt\n        /* \"#utility.yul\":13854:14062   */\n      iszero\n      tag_244\n      jumpi\n        /* \"#utility.yul\":13947:13956   */\n      dup5\n        /* \"#utility.yul\":13942:13945   */\n      dup10\n        /* \"#utility.yul\":13938:13957   */\n      add\n        /* \"#utility.yul\":13932:13958   */\n      mload\n        /* \"#utility.yul\":13924:13930   */\n      dup3\n        /* \"#utility.yul\":13917:13959   */\n      sstore\n        /* \"#utility.yul\":13998:13999   */\n      0x01\n        /* \"#utility.yul\":13990:13996   */\n      dup3\n        /* \"#utility.yul\":13986:14000   */\n      add\n        /* \"#utility.yul\":13976:14000   */\n      swap2\n      pop\n        /* \"#utility.yul\":14045:14047   */\n      0x20\n        /* \"#utility.yul\":14034:14043   */\n      dup6\n        /* \"#utility.yul\":14030:14048   */\n      add\n        /* \"#utility.yul\":14017:14048   */\n      swap5\n      pop\n        /* \"#utility.yul\":13891:13895   */\n      0x20\n        /* \"#utility.yul\":13888:13889   */\n      dup2\n        /* \"#utility.yul\":13884:13896   */\n      add\n        /* \"#utility.yul\":13879:13896   */\n      swap1\n      pop\n        /* \"#utility.yul\":13854:14062   */\n      jump(tag_242)\n    tag_244:\n        /* \"#utility.yul\":14090:14096   */\n      dup7\n        /* \"#utility.yul\":14081:14088   */\n      dup4\n        /* \"#utility.yul\":14078:14097   */\n      lt\n        /* \"#utility.yul\":14075:14254   */\n      iszero\n      tag_245\n      jumpi\n        /* \"#utility.yul\":14148:14157   */\n      dup5\n        /* \"#utility.yul\":14143:14146   */\n      dup10\n        /* \"#utility.yul\":14139:14158   */\n      add\n        /* \"#utility.yul\":14133:14159   */\n      mload\n        /* \"#utility.yul\":14191:14239   */\n      tag_246\n        /* \"#utility.yul\":14233:14237   */\n      0x1f\n        /* \"#utility.yul\":14225:14231   */\n      dup10\n        /* \"#utility.yul\":14221:14238   */\n      and\n        /* \"#utility.yul\":14210:14219   */\n      dup3\n        /* \"#utility.yul\":14191:14239   */\n      tag_77\n      jump\t// in\n    tag_246:\n        /* \"#utility.yul\":14183:14189   */\n      dup4\n        /* \"#utility.yul\":14176:14240   */\n      sstore\n        /* \"#utility.yul\":14098:14254   */\n      pop\n        /* \"#utility.yul\":14075:14254   */\n    tag_245:\n        /* \"#utility.yul\":14300:14301   */\n      0x01\n        /* \"#utility.yul\":14296:14297   */\n      0x02\n        /* \"#utility.yul\":14288:14294   */\n      dup9\n        /* \"#utility.yul\":14284:14298   */\n      mul\n        /* \"#utility.yul\":14280:14302   */\n      add\n        /* \"#utility.yul\":14274:14278   */\n      dup9\n        /* \"#utility.yul\":14267:14303   */\n      sstore\n        /* \"#utility.yul\":13702:14313   */\n      pop\n      pop\n      pop\n        /* \"#utility.yul\":13665:14552   */\n    tag_237:\n      pop\n        /* \"#utility.yul\":13255:14558   */\n      pop\n      pop\n      pop\n        /* \"#utility.yul\":13163:14558   */\n      pop\n      pop\n      jump\t// out\n\n    auxdata: 0xa26469706673582212204de102e4876c869fb5ebf8e7126cc5f7fafccb4aec6425858a6a69b06fcce5c364736f6c634300080f0033\n}\n",
				"bytecode": {
					"linkReferences": {},
					"object": "608060405234801561001057600080fd5b50610a9c806100206000396000f3fe608060405234801561001057600080fd5b50600436106100365760003560e01c8063b43c5d331461003b578063fc277a951461006c575b600080fd5b610055600480360381019061005091906102f8565b61009c565b6040516100639291906103d7565b60405180910390f35b61008660048036038101906100819190610630565b610148565b6040516100939190610766565b60405180910390f35b60006020528060005260406000206000915090508060000154908060010180546100c5906107b7565b80601f01602080910402602001604051908101604052809291908181526020018280546100f1906107b7565b801561013e5780601f106101135761010080835404028352916020019161013e565b820191906000526020600020905b81548152906001019060200180831161012157829003601f168201915b5050505050905082565b60606040518060400160405280607b81526020016040518060400160405280600381526020017f62617200000000000000000000000000000000000000000000000000000000008152508152506000803373ffffffffffffffffffffffffffffffffffffffff1673ffffffffffffffffffffffffffffffffffffffff1681526020019081526020016000206000820151816000015560208201518160010190816101f29190610994565b5090505060008060003373ffffffffffffffffffffffffffffffffffffffff1673ffffffffffffffffffffffffffffffffffffffff16815260200190815260200160002090506040518060400160405280600381526020017f666f6f000000000000000000000000000000000000000000000000000000000081525081600101908161027e9190610994565b505092915050565b6000604051905090565b600080fd5b600080fd5b600073ffffffffffffffffffffffffffffffffffffffff82169050919050565b60006102c58261029a565b9050919050565b6102d5816102ba565b81146102e057600080fd5b50565b6000813590506102f2816102cc565b92915050565b60006020828403121561030e5761030d610290565b5b600061031c848285016102e3565b91505092915050565b6000819050919050565b61033881610325565b82525050565b600081519050919050565b600082825260208201905092915050565b60005b8381101561037857808201518184015260208101905061035d565b83811115610387576000848401525b50505050565b6000601f19601f8301169050919050565b60006103a98261033e565b6103b38185610349565b93506103c381856020860161035a565b6103cc8161038d565b840191505092915050565b60006040820190506103ec600083018561032f565b81810360208301526103fe818461039e565b90509392505050565b600080fd5b7f4e487b7100000000000000000000000000000000000000000000000000000000600052604160045260246000fd5b6104448261038d565b810181811067ffffffffffffffff821117156104635761046261040c565b5b80604052505050565b6000610476610286565b9050610482828261043b565b919050565b600067ffffffffffffffff8211156104a2576104a161040c565b5b602082029050602081019050919050565b600080fd5b6104c181610325565b81146104cc57600080fd5b50565b6000813590506104de816104b8565b92915050565b60006104f76104f284610487565b61046c565b9050808382526020820190506020840283018581111561051a576105196104b3565b5b835b81811015610543578061052f88826104cf565b84526020840193505060208101905061051c565b5050509392505050565b600082601f83011261056257610561610407565b5b81356105728482602086016104e4565b91505092915050565b600080fd5b600067ffffffffffffffff82111561059b5761059a61040c565b5b6105a48261038d565b9050602081019050919050565b82818337600083830152505050565b60006105d36105ce84610580565b61046c565b9050828152602081018484840111156105ef576105ee61057b565b5b6105fa8482856105b1565b509392505050565b600082601f83011261061757610616610407565b5b81356106278482602086016105c0565b91505092915050565b6000806040838503121561064757610646610290565b5b600083013567ffffffffffffffff81111561066557610664610295565b5b6106718582860161054d565b925050602083013567ffffffffffffffff81111561069257610691610295565b5b61069e85828601610602565b9150509250929050565b600081519050919050565b600082825260208201905092915050565b6000819050602082019050919050565b6106dd81610325565b82525050565b60006106ef83836106d4565b60208301905092915050565b6000602082019050919050565b6000610713826106a8565b61071d81856106b3565b9350610728836106c4565b8060005b8381101561075957815161074088826106e3565b975061074b836106fb565b92505060018101905061072c565b5085935050505092915050565b600060208201905081810360008301526107808184610708565b905092915050565b7f4e487b7100000000000000000000000000000000000000000000000000000000600052602260045260246000fd5b600060028204905060018216806107cf57607f821691505b6020821081036107e2576107e1610788565b5b50919050565b60008190508160005260206000209050919050565b60006020601f8301049050919050565b600082821b905092915050565b60006008830261084a7fffffffffffffffffffffffffffffffffffffffffffffffffffffffffffffffff8261080d565b610854868361080d565b95508019841693508086168417925050509392505050565b6000819050919050565b600061089161088c61088784610325565b61086c565b610325565b9050919050565b6000819050919050565b6108ab83610876565b6108bf6108b782610898565b84845461081a565b825550505050565b600090565b6108d46108c7565b6108df8184846108a2565b505050565b5b81811015610903576108f86000826108cc565b6001810190506108e5565b5050565b601f82111561094857610919816107e8565b610922846107fd565b81016020851015610931578190505b61094561093d856107fd565b8301826108e4565b50505b505050565b600082821c905092915050565b600061096b6000198460080261094d565b1980831691505092915050565b6000610984838361095a565b9150826002028217905092915050565b61099d8261033e565b67ffffffffffffffff8111156109b6576109b561040c565b5b6109c082546107b7565b6109cb828285610907565b600060209050601f8311600181146109fe57600084156109ec578287015190505b6109f68582610978565b865550610a5e565b601f198416610a0c866107e8565b60005b82811015610a3457848901518255600182019150602085019450602081019050610a0f565b86831015610a515784890151610a4d601f89168261095a565b8355505b6001600288020188555050505b50505050505056fea26469706673582212204de102e4876c869fb5ebf8e7126cc5f7fafccb4aec6425858a6a69b06fcce5c364736f6c634300080f0033",
					"opcodes": "PUSH1 0x80 PUSH1 0x40 MSTORE CALLVALUE DUP1 ISZERO PUSH2 0x10 JUMPI PUSH1 0x0 DUP1 REVERT JUMPDEST POP PUSH2 0xA9C DUP1 PUSH2 0x20 PUSH1 0x0 CODECOPY PUSH1 0x0 RETURN INVALID PUSH1 0x80 PUSH1 0x40 MSTORE CALLVALUE DUP1 ISZERO PUSH2 0x10 JUMPI PUSH1 0x0 DUP1 REVERT JUMPDEST POP PUSH1 0x4 CALLDATASIZE LT PUSH2 0x36 JUMPI PUSH1 0x0 CALLDATALOAD PUSH1 0xE0 SHR DUP1 PUSH4 0xB43C5D33 EQ PUSH2 0x3B JUMPI DUP1 PUSH4 0xFC277A95 EQ PUSH2 0x6C JUMPI JUMPDEST PUSH1 0x0 DUP1 REVERT JUMPDEST PUSH2 0x55 PUSH1 0x4 DUP1 CALLDATASIZE SUB DUP2 ADD SWAP1 PUSH2 0x50 SWAP2 SWAP1 PUSH2 0x2F8 JUMP JUMPDEST PUSH2 0x9C JUMP JUMPDEST PUSH1 0x40 MLOAD PUSH2 0x63 SWAP3 SWAP2 SWAP1 PUSH2 0x3D7 JUMP JUMPDEST PUSH1 0x40 MLOAD DUP1 SWAP2 SUB SWAP1 RETURN JUMPDEST PUSH2 0x86 PUSH1 0x4 DUP1 CALLDATASIZE SUB DUP2 ADD SWAP1 PUSH2 0x81 SWAP2 SWAP1 PUSH2 0x630 JUMP JUMPDEST PUSH2 0x148 JUMP JUMPDEST PUSH1 0x40 MLOAD PUSH2 0x93 SWAP2 SWAP1 PUSH2 0x766 JUMP JUMPDEST PUSH1 0x40 MLOAD DUP1 SWAP2 SUB SWAP1 RETURN JUMPDEST PUSH1 0x0 PUSH1 0x20 MSTORE DUP1 PUSH1 0x0 MSTORE PUSH1 0x40 PUSH1 0x0 KECCAK256 PUSH1 0x0 SWAP2 POP SWAP1 POP DUP1 PUSH1 0x0 ADD SLOAD SWAP1 DUP1 PUSH1 0x1 ADD DUP1 SLOAD PUSH2 0xC5 SWAP1 PUSH2 0x7B7 JUMP JUMPDEST DUP1 PUSH1 0x1F ADD PUSH1 0x20 DUP1 SWAP2 DIV MUL PUSH1 0x20 ADD PUSH1 0x40 MLOAD SWAP1 DUP2 ADD PUSH1 0x40 MSTORE DUP1 SWAP3 SWAP2 SWAP1 DUP2 DUP2 MSTORE PUSH1 0x20 ADD DUP3 DUP1 SLOAD PUSH2 0xF1 SWAP1 PUSH2 0x7B7 JUMP JUMPDEST DUP1 ISZERO PUSH2 0x13E JUMPI DUP1 PUSH1 0x1F LT PUSH2 0x113 JUMPI PUSH2 0x100 DUP1 DUP4 SLOAD DIV MUL DUP4 MSTORE SWAP2 PUSH1 0x20 ADD SWAP2 PUSH2 0x13E JUMP JUMPDEST DUP3 ADD SWAP2 SWAP1 PUSH1 0x0 MSTORE PUSH1 0x20 PUSH1 0x0 KECCAK256 SWAP1 JUMPDEST DUP2 SLOAD DUP2 MSTORE SWAP1 PUSH1 0x1 ADD SWAP1 PUSH1 0x20 ADD DUP1 DUP4 GT PUSH2 0x121 JUMPI DUP3 SWAP1 SUB PUSH1 0x1F AND DUP3 ADD SWAP2 JUMPDEST POP POP POP POP POP SWAP1 POP DUP3 JUMP JUMPDEST PUSH1 0x60 PUSH1 0x40 MLOAD DUP1 PUSH1 0x40 ADD PUSH1 0x40 MSTORE DUP1 PUSH1 0x7B DUP2 MSTORE PUSH1 0x20 ADD PUSH1 0x40 MLOAD DUP1 PUSH1 0x40 ADD PUSH1 0x40 MSTORE DUP1 PUSH1 0x3 DUP2 MSTORE PUSH1 0x20 ADD PUSH32 0x6261720000000000000000000000000000000000000000000000000000000000 DUP2 MSTORE POP DUP2 MSTORE POP PUSH1 0x0 DUP1 CALLER PUSH20 0xFFFFFFFFFFFFFFFFFFFFFFFFFFFFFFFFFFFFFFFF AND PUSH20 0xFFFFFFFFFFFFFFFFFFFFFFFFFFFFFFFFFFFFFFFF AND DUP2 MSTORE PUSH1 0x20 ADD SWAP1 DUP2 MSTORE PUSH1 0x20 ADD PUSH1 0x0 KECCAK256 PUSH1 0x0 DUP3 ADD MLOAD DUP2 PUSH1 0x0 ADD SSTORE PUSH1 0x20 DUP3 ADD MLOAD DUP2 PUSH1 0x1 ADD SWAP1 DUP2 PUSH2 0x1F2 SWAP2 SWAP1 PUSH2 0x994 JUMP JUMPDEST POP SWAP1 POP POP PUSH1 0x0 DUP1 PUSH1 0x0 CALLER PUSH20 0xFFFFFFFFFFFFFFFFFFFFFFFFFFFFFFFFFFFFFFFF AND PUSH20 0xFFFFFFFFFFFFFFFFFFFFFFFFFFFFFFFFFFFFFFFF AND DUP2 MSTORE PUSH1 0x20 ADD SWAP1 DUP2 MSTORE PUSH1 0x20 ADD PUSH1 0x0 KECCAK256 SWAP1 POP PUSH1 0x40 MLOAD DUP1 PUSH1 0x40 ADD PUSH1 0x40 MSTORE DUP1 PUSH1 0x3 DUP2 MSTORE PUSH1 0x20 ADD PUSH32 0x666F6F0000000000000000000000000000000000000000000000000000000000 DUP2 MSTORE POP DUP2 PUSH1 0x1 ADD SWAP1 DUP2 PUSH2 0x27E SWAP2 SWAP1 PUSH2 0x994 JUMP JUMPDEST POP POP SWAP3 SWAP2 POP POP JUMP JUMPDEST PUSH1 0x0 PUSH1 0x40 MLOAD SWAP1 POP SWAP1 JUMP JUMPDEST PUSH1 0x0 DUP1 REVERT JUMPDEST PUSH1 0x0 DUP1 REVERT JUMPDEST PUSH1 0x0 PUSH20 0xFFFFFFFFFFFFFFFFFFFFFFFFFFFFFFFFFFFFFFFF DUP3 AND SWAP1 POP SWAP2 SWAP1 POP JUMP JUMPDEST PUSH1 0x0 PUSH2 0x2C5 DUP3 PUSH2 0x29A JUMP JUMPDEST SWAP1 POP SWAP2 SWAP1 POP JUMP JUMPDEST PUSH2 0x2D5 DUP2 PUSH2 0x2BA JUMP JUMPDEST DUP2 EQ PUSH2 0x2E0 JUMPI PUSH1 0x0 DUP1 REVERT JUMPDEST POP JUMP JUMPDEST PUSH1 0x0 DUP2 CALLDATALOAD SWAP1 POP PUSH2 0x2F2 DUP2 PUSH2 0x2CC JUMP JUMPDEST SWAP3 SWAP2 POP POP JUMP JUMPDEST PUSH1 0x0 PUSH1 0x20 DUP3 DUP5 SUB SLT ISZERO PUSH2 0x30E JUMPI PUSH2 0x30D PUSH2 0x290 JUMP JUMPDEST JUMPDEST PUSH1 0x0 PUSH2 0x31C DUP5 DUP3 DUP6 ADD PUSH2 0x2E3 JUMP JUMPDEST SWAP2 POP POP SWAP3 SWAP2 POP POP JUMP JUMPDEST PUSH1 0x0 DUP2 SWAP1 POP SWAP2 SWAP1 POP JUMP JUMPDEST PUSH2 0x338 DUP2 PUSH2 0x325 JUMP JUMPDEST DUP3 MSTORE POP POP JUMP JUMPDEST PUSH1 0x0 DUP2 MLOAD SWAP1 POP SWAP2 SWAP1 POP JUMP JUMPDEST PUSH1 0x0 DUP3 DUP3 MSTORE PUSH1 0x20 DUP3 ADD SWAP1 POP SWAP3 SWAP2 POP POP JUMP JUMPDEST PUSH1 0x0 JUMPDEST DUP4 DUP2 LT ISZERO PUSH2 0x378 JUMPI DUP1 DUP3 ADD MLOAD DUP2 DUP5 ADD MSTORE PUSH1 0x20 DUP2 ADD SWAP1 POP PUSH2 0x35D JUMP JUMPDEST DUP4 DUP2 GT ISZERO PUSH2 0x387 JUMPI PUSH1 0x0 DUP5 DUP5 ADD MSTORE JUMPDEST POP POP POP POP JUMP JUMPDEST PUSH1 0x0 PUSH1 0x1F NOT PUSH1 0x1F DUP4 ADD AND SWAP1 POP SWAP2 SWAP1 POP JUMP JUMPDEST PUSH1 0x0 PUSH2 0x3A9 DUP3 PUSH2 0x33E JUMP JUMPDEST PUSH2 0x3B3 DUP2 DUP6 PUSH2 0x349 JUMP JUMPDEST SWAP4 POP PUSH2 0x3C3 DUP2 DUP6 PUSH1 0x20 DUP7 ADD PUSH2 0x35A JUMP JUMPDEST PUSH2 0x3CC DUP2 PUSH2 0x38D JUMP JUMPDEST DUP5 ADD SWAP2 POP POP SWAP3 SWAP2 POP POP JUMP JUMPDEST PUSH1 0x0 PUSH1 0x40 DUP3 ADD SWAP1 POP PUSH2 0x3EC PUSH1 0x0 DUP4 ADD DUP6 PUSH2 0x32F JUMP JUMPDEST DUP2 DUP2 SUB PUSH1 0x20 DUP4 ADD MSTORE PUSH2 0x3FE DUP2 DUP5 PUSH2 0x39E JUMP JUMPDEST SWAP1 POP SWAP4 SWAP3 POP POP POP JUMP JUMPDEST PUSH1 0x0 DUP1 REVERT JUMPDEST PUSH32 0x4E487B7100000000000000000000000000000000000000000000000000000000 PUSH1 0x0 MSTORE PUSH1 0x41 PUSH1 0x4 MSTORE PUSH1 0x24 PUSH1 0x0 REVERT JUMPDEST PUSH2 0x444 DUP3 PUSH2 0x38D JUMP JUMPDEST DUP2 ADD DUP2 DUP2 LT PUSH8 0xFFFFFFFFFFFFFFFF DUP3 GT OR ISZERO PUSH2 0x463 JUMPI PUSH2 0x462 PUSH2 0x40C JUMP JUMPDEST JUMPDEST DUP1 PUSH1 0x40 MSTORE POP POP POP JUMP JUMPDEST PUSH1 0x0 PUSH2 0x476 PUSH2 0x286 JUMP JUMPDEST SWAP1 POP PUSH2 0x482 DUP3 DUP3 PUSH2 0x43B JUMP JUMPDEST SWAP2 SWAP1 POP JUMP JUMPDEST PUSH1 0x0 PUSH8 0xFFFFFFFFFFFFFFFF DUP3 GT ISZERO PUSH2 0x4A2 JUMPI PUSH2 0x4A1 PUSH2 0x40C JUMP JUMPDEST JUMPDEST PUSH1 0x20 DUP3 MUL SWAP1 POP PUSH1 0x20 DUP2 ADD SWAP1 POP SWAP2 SWAP1 POP JUMP JUMPDEST PUSH1 0x0 DUP1 REVERT JUMPDEST PUSH2 0x4C1 DUP2 PUSH2 0x325 JUMP JUMPDEST DUP2 EQ PUSH2 0x4CC JUMPI PUSH1 0x0 DUP1 REVERT JUMPDEST POP JUMP JUMPDEST PUSH1 0x0 DUP2 CALLDATALOAD SWAP1 POP PUSH2 0x4DE DUP2 PUSH2 0x4B8 JUMP JUMPDEST SWAP3 SWAP2 POP POP JUMP JUMPDEST PUSH1 0x0 PUSH2 0x4F7 PUSH2 0x4F2 DUP5 PUSH2 0x487 JUMP JUMPDEST PUSH2 0x46C JUMP JUMPDEST SWAP1 POP DUP1 DUP4 DUP3 MSTORE PUSH1 0x20 DUP3 ADD SWAP1 POP PUSH1 0x20 DUP5 MUL DUP4 ADD DUP6 DUP2 GT ISZERO PUSH2 0x51A JUMPI PUSH2 0x519 PUSH2 0x4B3 JUMP JUMPDEST JUMPDEST DUP4 JUMPDEST DUP2 DUP2 LT ISZERO PUSH2 0x543 JUMPI DUP1 PUSH2 0x52F DUP9 DUP3 PUSH2 0x4CF JUMP JUMPDEST DUP5 MSTORE PUSH1 0x20 DUP5 ADD SWAP4 POP POP PUSH1 0x20 DUP2 ADD SWAP1 POP PUSH2 0x51C JUMP JUMPDEST POP POP POP SWAP4 SWAP3 POP POP POP JUMP JUMPDEST PUSH1 0x0 DUP3 PUSH1 0x1F DUP4 ADD SLT PUSH2 0x562 JUMPI PUSH2 0x561 PUSH2 0x407 JUMP JUMPDEST JUMPDEST DUP2 CALLDATALOAD PUSH2 0x572 DUP5 DUP3 PUSH1 0x20 DUP7 ADD PUSH2 0x4E4 JUMP JUMPDEST SWAP2 POP POP SWAP3 SWAP2 POP POP JUMP JUMPDEST PUSH1 0x0 DUP1 REVERT JUMPDEST PUSH1 0x0 PUSH8 0xFFFFFFFFFFFFFFFF DUP3 GT ISZERO PUSH2 0x59B JUMPI PUSH2 0x59A PUSH2 0x40C JUMP JUMPDEST JUMPDEST PUSH2 0x5A4 DUP3 PUSH2 0x38D JUMP JUMPDEST SWAP1 POP PUSH1 0x20 DUP2 ADD SWAP1 POP SWAP2 SWAP1 POP JUMP JUMPDEST DUP3 DUP2 DUP4 CALLDATACOPY PUSH1 0x0 DUP4 DUP4 ADD MSTORE POP POP POP JUMP JUMPDEST PUSH1 0x0 PUSH2 0x5D3 PUSH2 0x5CE DUP5 PUSH2 0x580 JUMP JUMPDEST PUSH2 0x46C JUMP JUMPDEST SWAP1 POP DUP3 DUP2 MSTORE PUSH1 0x20 DUP2 ADD DUP5 DUP5 DUP5 ADD GT ISZERO PUSH2 0x5EF JUMPI PUSH2 0x5EE PUSH2 0x57B JUMP JUMPDEST JUMPDEST PUSH2 0x5FA DUP5 DUP3 DUP6 PUSH2 0x5B1 JUMP JUMPDEST POP SWAP4 SWAP3 POP POP POP JUMP JUMPDEST PUSH1 0x0 DUP3 PUSH1 0x1F DUP4 ADD SLT PUSH2 0x617 JUMPI PUSH2 0x616 PUSH2 0x407 JUMP JUMPDEST JUMPDEST DUP2 CALLDATALOAD PUSH2 0x627 DUP5 DUP3 PUSH1 0x20 DUP7 ADD PUSH2 0x5C0 JUMP JUMPDEST SWAP2 POP POP SWAP3 SWAP2 POP POP JUMP JUMPDEST PUSH1 0x0 DUP1 PUSH1 0x40 DUP4 DUP6 SUB SLT ISZERO PUSH2 0x647 JUMPI PUSH2 0x646 PUSH2 0x290 JUMP JUMPDEST JUMPDEST PUSH1 0x0 DUP4 ADD CALLDATALOAD PUSH8 0xFFFFFFFFFFFFFFFF DUP2 GT ISZERO PUSH2 0x665 JUMPI PUSH2 0x664 PUSH2 0x295 JUMP JUMPDEST JUMPDEST PUSH2 0x671 DUP6 DUP3 DUP7 ADD PUSH2 0x54D JUMP JUMPDEST SWAP3 POP POP PUSH1 0x20 DUP4 ADD CALLDATALOAD PUSH8 0xFFFFFFFFFFFFFFFF DUP2 GT ISZERO PUSH2 0x692 JUMPI PUSH2 0x691 PUSH2 0x295 JUMP JUMPDEST JUMPDEST PUSH2 0x69E DUP6 DUP3 DUP7 ADD PUSH2 0x602 JUMP JUMPDEST SWAP2 POP POP SWAP3 POP SWAP3 SWAP1 POP JUMP JUMPDEST PUSH1 0x0 DUP2 MLOAD SWAP1 POP SWAP2 SWAP1 POP JUMP JUMPDEST PUSH1 0x0 DUP3 DUP3 MSTORE PUSH1 0x20 DUP3 ADD SWAP1 POP SWAP3 SWAP2 POP POP JUMP JUMPDEST PUSH1 0x0 DUP2 SWAP1 POP PUSH1 0x20 DUP3 ADD SWAP1 POP SWAP2 SWAP1 POP JUMP JUMPDEST PUSH2 0x6DD DUP2 PUSH2 0x325 JUMP JUMPDEST DUP3 MSTORE POP POP JUMP JUMPDEST PUSH1 0x0 PUSH2 0x6EF DUP4 DUP4 PUSH2 0x6D4 JUMP JUMPDEST PUSH1 0x20 DUP4 ADD SWAP1 POP SWAP3 SWAP2 POP POP JUMP JUMPDEST PUSH1 0x0 PUSH1 0x20 DUP3 ADD SWAP1 POP SWAP2 SWAP1 POP JUMP JUMPDEST PUSH1 0x0 PUSH2 0x713 DUP3 PUSH2 0x6A8 JUMP JUMPDEST PUSH2 0x71D DUP2 DUP6 PUSH2 0x6B3 JUMP JUMPDEST SWAP4 POP PUSH2 0x728 DUP4 PUSH2 0x6C4 JUMP JUMPDEST DUP1 PUSH1 0x0 JUMPDEST DUP4 DUP2 LT ISZERO PUSH2 0x759 JUMPI DUP2 MLOAD PUSH2 0x740 DUP9 DUP3 PUSH2 0x6E3 JUMP JUMPDEST SWAP8 POP PUSH2 0x74B DUP4 PUSH2 0x6FB JUMP JUMPDEST SWAP3 POP POP PUSH1 0x1 DUP2 ADD SWAP1 POP PUSH2 0x72C JUMP JUMPDEST POP DUP6 SWAP4 POP POP POP POP SWAP3 SWAP2 POP POP JUMP JUMPDEST PUSH1 0x0 PUSH1 0x20 DUP3 ADD SWAP1 POP DUP2 DUP2 SUB PUSH1 0x0 DUP4 ADD MSTORE PUSH2 0x780 DUP2 DUP5 PUSH2 0x708 JUMP JUMPDEST SWAP1 POP SWAP3 SWAP2 POP POP JUMP JUMPDEST PUSH32 0x4E487B7100000000000000000000000000000000000000000000000000000000 PUSH1 0x0 MSTORE PUSH1 0x22 PUSH1 0x4 MSTORE PUSH1 0x24 PUSH1 0x0 REVERT JUMPDEST PUSH1 0x0 PUSH1 0x2 DUP3 DIV SWAP1 POP PUSH1 0x1 DUP3 AND DUP1 PUSH2 0x7CF JUMPI PUSH1 0x7F DUP3 AND SWAP2 POP JUMPDEST PUSH1 0x20 DUP3 LT DUP2 SUB PUSH2 0x7E2 JUMPI PUSH2 0x7E1 PUSH2 0x788 JUMP JUMPDEST JUMPDEST POP SWAP2 SWAP1 POP JUMP JUMPDEST PUSH1 0x0 DUP2 SWAP1 POP DUP2 PUSH1 0x0 MSTORE PUSH1 0x20 PUSH1 0x0 KECCAK256 SWAP1 POP SWAP2 SWAP1 POP JUMP JUMPDEST PUSH1 0x0 PUSH1 0x20 PUSH1 0x1F DUP4 ADD DIV SWAP1 POP SWAP2 SWAP1 POP JUMP JUMPDEST PUSH1 0x0 DUP3 DUP3 SHL SWAP1 POP SWAP3 SWAP2 POP POP JUMP JUMPDEST PUSH1 0x0 PUSH1 0x8 DUP4 MUL PUSH2 0x84A PUSH32 0xFFFFFFFFFFFFFFFFFFFFFFFFFFFFFFFFFFFFFFFFFFFFFFFFFFFFFFFFFFFFFFFF DUP3 PUSH2 0x80D JUMP JUMPDEST PUSH2 0x854 DUP7 DUP4 PUSH2 0x80D JUMP JUMPDEST SWAP6 POP DUP1 NOT DUP5 AND SWAP4 POP DUP1 DUP7 AND DUP5 OR SWAP3 POP POP POP SWAP4 SWAP3 POP POP POP JUMP JUMPDEST PUSH1 0x0 DUP2 SWAP1 POP SWAP2 SWAP1 POP JUMP JUMPDEST PUSH1 0x0 PUSH2 0x891 PUSH2 0x88C PUSH2 0x887 DUP5 PUSH2 0x325 JUMP JUMPDEST PUSH2 0x86C JUMP JUMPDEST PUSH2 0x325 JUMP JUMPDEST SWAP1 POP SWAP2 SWAP1 POP JUMP JUMPDEST PUSH1 0x0 DUP2 SWAP1 POP SWAP2 SWAP1 POP JUMP JUMPDEST PUSH2 0x8AB DUP4 PUSH2 0x876 JUMP JUMPDEST PUSH2 0x8BF PUSH2 0x8B7 DUP3 PUSH2 0x898 JUMP JUMPDEST DUP5 DUP5 SLOAD PUSH2 0x81A JUMP JUMPDEST DUP3 SSTORE POP POP POP POP JUMP JUMPDEST PUSH1 0x0 SWAP1 JUMP JUMPDEST PUSH2 0x8D4 PUSH2 0x8C7 JUMP JUMPDEST PUSH2 0x8DF DUP2 DUP5 DUP5 PUSH2 0x8A2 JUMP JUMPDEST POP POP POP JUMP JUMPDEST JUMPDEST DUP2 DUP2 LT ISZERO PUSH2 0x903 JUMPI PUSH2 0x8F8 PUSH1 0x0 DUP3 PUSH2 0x8CC JUMP JUMPDEST PUSH1 0x1 DUP2 ADD SWAP1 POP PUSH2 0x8E5 JUMP JUMPDEST POP POP JUMP JUMPDEST PUSH1 0x1F DUP3 GT ISZERO PUSH2 0x948 JUMPI PUSH2 0x919 DUP2 PUSH2 0x7E8 JUMP JUMPDEST PUSH2 0x922 DUP5 PUSH2 0x7FD JUMP JUMPDEST DUP2 ADD PUSH1 0x20 DUP6 LT ISZERO PUSH2 0x931 JUMPI DUP2 SWAP1 POP JUMPDEST PUSH2 0x945 PUSH2 0x93D DUP6 PUSH2 0x7FD JUMP JUMPDEST DUP4 ADD DUP3 PUSH2 0x8E4 JUMP JUMPDEST POP POP JUMPDEST POP POP POP JUMP JUMPDEST PUSH1 0x0 DUP3 DUP3 SHR SWAP1 POP SWAP3 SWAP2 POP POP JUMP JUMPDEST PUSH1 0x0 PUSH2 0x96B PUSH1 0x0 NOT DUP5 PUSH1 0x8 MUL PUSH2 0x94D JUMP JUMPDEST NOT DUP1 DUP4 AND SWAP2 POP POP SWAP3 SWAP2 POP POP JUMP JUMPDEST PUSH1 0x0 PUSH2 0x984 DUP4 DUP4 PUSH2 0x95A JUMP JUMPDEST SWAP2 POP DUP3 PUSH1 0x2 MUL DUP3 OR SWAP1 POP SWAP3 SWAP2 POP POP JUMP JUMPDEST PUSH2 0x99D DUP3 PUSH2 0x33E JUMP JUMPDEST PUSH8 0xFFFFFFFFFFFFFFFF DUP2 GT ISZERO PUSH2 0x9B6 JUMPI PUSH2 0x9B5 PUSH2 0x40C JUMP JUMPDEST JUMPDEST PUSH2 0x9C0 DUP3 SLOAD PUSH2 0x7B7 JUMP JUMPDEST PUSH2 0x9CB DUP3 DUP3 DUP6 PUSH2 0x907 JUMP JUMPDEST PUSH1 0x0 PUSH1 0x20 SWAP1 POP PUSH1 0x1F DUP4 GT PUSH1 0x1 DUP2 EQ PUSH2 0x9FE JUMPI PUSH1 0x0 DUP5 ISZERO PUSH2 0x9EC JUMPI DUP3 DUP8 ADD MLOAD SWAP1 POP JUMPDEST PUSH2 0x9F6 DUP6 DUP3 PUSH2 0x978 JUMP JUMPDEST DUP7 SSTORE POP PUSH2 0xA5E JUMP JUMPDEST PUSH1 0x1F NOT DUP5 AND PUSH2 0xA0C DUP7 PUSH2 0x7E8 JUMP JUMPDEST PUSH1 0x0 JUMPDEST DUP3 DUP2 LT ISZERO PUSH2 0xA34 JUMPI DUP5 DUP10 ADD MLOAD DUP3 SSTORE PUSH1 0x1 DUP3 ADD SWAP2 POP PUSH1 0x20 DUP6 ADD SWAP5 POP PUSH1 0x20 DUP2 ADD SWAP1 POP PUSH2 0xA0F JUMP JUMPDEST DUP7 DUP4 LT ISZERO PUSH2 0xA51 JUMPI DUP5 DUP10 ADD MLOAD PUSH2 0xA4D PUSH1 0x1F DUP10 AND DUP3 PUSH2 0x95A JUMP JUMPDEST DUP4 SSTORE POP JUMPDEST PUSH1 0x1 PUSH1 0x2 DUP9 MUL ADD DUP9 SSTORE POP POP POP JUMPDEST POP POP POP POP POP POP JUMP INVALID LOG2 PUSH5 0x6970667358 0x22 SLT KECCAK256 0x4D 0xE1 MUL 0xE4 DUP8 PUSH13 0x869FB5EBF8E7126CC5F7FAFCCB 0x4A 0xEC PUSH5 0x25858A6A69 0xB0 PUSH16 0xCCE5C364736F6C634300080F00330000 "
				},
				"gasEstimates": {
					"creation": {
						"codeDepositCost": "543200",
						"executionCost": "575",
						"totalCost": "543775"
					},
					"external": {
						"examples(uint256[],string)": "infinite",
						"myStructs(address)": "infinite"
					}
				},
				"methodIdentifiers": {
					"examples(uint256[],string)": "fc277a95",
					"myStructs(address)": "b43c5d33"
				}
			},
			"storageLayout": {
				"storage": [
					{
						"astId": 11,
						"contract": "HelloWorld/26DataLocations.sol:DataLocations",
						"label": "myStructs",
						"offset": 0,
						"slot": "0",
						"type": "t_mapping(t_address,t_struct(MyStruct)6_storage)"
					}
				],
				"types": {
					"t_address": {
						"encoding": "inplace",
						"label": "address",
						"numberOfBytes": "20"
					},
					"t_mapping(t_address,t_struct(MyStruct)6_storage)": {
						"encoding": "mapping",
						"key": "t_address",
						"label": "mapping(address => struct DataLocations.MyStruct)",
						"numberOfBytes": "32",
						"value": "t_struct(MyStruct)6_storage"
					},
					"t_string_storage": {
						"encoding": "bytes",
						"label": "string",
						"numberOfBytes": "32"
					},
					"t_struct(MyStruct)6_storage": {
						"encoding": "inplace",
						"label": "struct DataLocations.MyStruct",
						"members": [
							{
								"astId": 3,
								"contract": "HelloWorld/26DataLocations.sol:DataLocations",
								"label": "foo",
								"offset": 0,
								"slot": "0",
								"type": "t_uint256"
							},
							{
								"astId": 5,
								"contract": "HelloWorld/26DataLocations.sol:DataLocations",
								"label": "text",
								"offset": 0,
								"slot": "1",
								"type": "t_string_storage"
							}
						],
						"numberOfBytes": "64"
					},
					"t_uint256": {
						"encoding": "inplace",
						"label": "uint256",
						"numberOfBytes": "32"
					}
				}
			},
			"userdoc": {
				"kind": "user",
				"methods": {},
				"version": 1
			}
		}
	}
}