{
	"HelloWorld/23Structs.sol": {
		"Structs": {
			"abi": [
				{
					"inputs": [],
					"name": "car",
					"outputs": [
						{
							"internalType": "string",
							"name": "model",
							"type": "string"
						},
						{
							"internalType": "uint256",
							"name": "year",
							"type": "uint256"
						},
						{
							"internalType": "address",
							"name": "owner",
							"type": "address"
						}
					],
					"stateMutability": "view",
					"type": "function"
				},
				{
					"inputs": [
						{
							"internalType": "uint256",
							"name": "",
							"type": "uint256"
						}
					],
					"name": "cars",
					"outputs": [
						{
							"internalType": "string",
							"name": "model",
							"type": "string"
						},
						{
							"internalType": "uint256",
							"name": "year",
							"type": "uint256"
						},
						{
							"internalType": "address",
							"name": "owner",
							"type": "address"
						}
					],
					"stateMutability": "view",
					"type": "function"
				},
				{
					"inputs": [
						{
							"internalType": "address",
							"name": "",
							"type": "address"
						},
						{
							"internalType": "uint256",
							"name": "",
							"type": "uint256"
						}
					],
					"name": "carsByOwner",
					"outputs": [
						{
							"internalType": "string",
							"name": "model",
							"type": "string"
						},
						{
							"internalType": "uint256",
							"name": "year",
							"type": "uint256"
						},
						{
							"internalType": "address",
							"name": "owner",
							"type": "address"
						}
					],
					"stateMutability": "view",
					"type": "function"
				},
				{
					"inputs": [],
					"name": "examples",
					"outputs": [],
					"stateMutability": "nonpayable",
					"type": "function"
				}
			],
			"devdoc": {
				"kind": "dev",
				"methods": {},
				"version": 1
			},
			"evm": {
				"assembly": "    /* \"HelloWorld/23Structs.sol\":56:773  contract Structs {... */\n  mstore(0x40, 0x80)\n  callvalue\n  dup1\n  iszero\n  tag_1\n  jumpi\n  0x00\n  dup1\n  revert\ntag_1:\n  pop\n  dataSize(sub_0)\n  dup1\n  dataOffset(sub_0)\n  0x00\n  codecopy\n  0x00\n  return\nstop\n\nsub_0: assembly {\n        /* \"HelloWorld/23Structs.sol\":56:773  contract Structs {... */\n      mstore(0x40, 0x80)\n      callvalue\n      dup1\n      iszero\n      tag_1\n      jumpi\n      0x00\n      dup1\n      revert\n    tag_1:\n      pop\n      jumpi(tag_2, lt(calldatasize, 0x04))\n      shr(0xe0, calldataload(0x00))\n      dup1\n      0x335d00c2\n      eq\n      tag_3\n      jumpi\n      dup1\n      0xaa9fb6c8\n      eq\n      tag_4\n      jumpi\n      dup1\n      0xee26fac3\n      eq\n      tag_5\n      jumpi\n      dup1\n      0xf7746e36\n      eq\n      tag_6\n      jumpi\n    tag_2:\n      0x00\n      dup1\n      revert\n        /* \"HelloWorld/23Structs.sol\":262:771  function examples() external {... */\n    tag_3:\n      tag_7\n      tag_8\n      jump\t// in\n    tag_7:\n      stop\n        /* \"HelloWorld/23Structs.sol\":211:255  mapping(address => Car[]) public carsByOwner */\n    tag_4:\n      tag_9\n      0x04\n      dup1\n      calldatasize\n      sub\n      dup2\n      add\n      swap1\n      tag_10\n      swap2\n      swap1\n      tag_11\n      jump\t// in\n    tag_10:\n      tag_12\n      jump\t// in\n    tag_9:\n      mload(0x40)\n      tag_13\n      swap4\n      swap3\n      swap2\n      swap1\n      tag_14\n      jump\t// in\n    tag_13:\n      mload(0x40)\n      dup1\n      swap2\n      sub\n      swap1\n      return\n        /* \"HelloWorld/23Structs.sol\":167:181  Car public car */\n    tag_5:\n      tag_15\n      tag_16\n      jump\t// in\n    tag_15:\n      mload(0x40)\n      tag_17\n      swap4\n      swap3\n      swap2\n      swap1\n      tag_14\n      jump\t// in\n    tag_17:\n      mload(0x40)\n      dup1\n      swap2\n      sub\n      swap1\n      return\n        /* \"HelloWorld/23Structs.sol\":187:205  Car [] public cars */\n    tag_6:\n      tag_18\n      0x04\n      dup1\n      calldatasize\n      sub\n      dup2\n      add\n      swap1\n      tag_19\n      swap2\n      swap1\n      tag_20\n      jump\t// in\n    tag_19:\n      tag_21\n      jump\t// in\n    tag_18:\n      mload(0x40)\n      tag_22\n      swap4\n      swap3\n      swap2\n      swap1\n      tag_14\n      jump\t// in\n    tag_22:\n      mload(0x40)\n      dup1\n      swap2\n      sub\n      swap1\n      return\n        /* \"HelloWorld/23Structs.sol\":262:771  function examples() external {... */\n    tag_8:\n        /* \"HelloWorld/23Structs.sol\":301:318  Car memory toyota */\n      0x00\n        /* \"HelloWorld/23Structs.sol\":321:352  Car(\"Toyota\", 1990, msg.sender) */\n      mload(0x40)\n      dup1\n      0x60\n      add\n      0x40\n      mstore\n      dup1\n      mload(0x40)\n      dup1\n      0x40\n      add\n      0x40\n      mstore\n      dup1\n      0x06\n      dup2\n      mstore\n      0x20\n      add\n      0x546f796f74610000000000000000000000000000000000000000000000000000\n      dup2\n      mstore\n      pop\n      dup2\n      mstore\n      0x20\n      add\n        /* \"HelloWorld/23Structs.sol\":335:339  1990 */\n      0x07c6\n        /* \"HelloWorld/23Structs.sol\":321:352  Car(\"Toyota\", 1990, msg.sender) */\n      dup2\n      mstore\n      0x20\n      add\n        /* \"HelloWorld/23Structs.sol\":341:351  msg.sender */\n      caller\n        /* \"HelloWorld/23Structs.sol\":321:352  Car(\"Toyota\", 1990, msg.sender) */\n      0xffffffffffffffffffffffffffffffffffffffff\n      and\n      dup2\n      mstore\n      pop\n        /* \"HelloWorld/23Structs.sol\":301:352  Car memory toyota = Car(\"Toyota\", 1990, msg.sender) */\n      swap1\n      pop\n        /* \"HelloWorld/23Structs.sol\":362:378  Car memory lambo */\n      0x00\n        /* \"HelloWorld/23Structs.sol\":381:439  Car({year: 1980, model: \"Lamborghini\", owner: msg.sender}) */\n      mload(0x40)\n      dup1\n      0x60\n      add\n      0x40\n      mstore\n      dup1\n      mload(0x40)\n      dup1\n      0x40\n      add\n      0x40\n      mstore\n      dup1\n      0x0b\n      dup2\n      mstore\n      0x20\n      add\n      0x4c616d626f726768696e69000000000000000000000000000000000000000000\n      dup2\n      mstore\n      pop\n      dup2\n      mstore\n      0x20\n      add\n        /* \"HelloWorld/23Structs.sol\":392:396  1980 */\n      0x07bc\n        /* \"HelloWorld/23Structs.sol\":381:439  Car({year: 1980, model: \"Lamborghini\", owner: msg.sender}) */\n      dup2\n      mstore\n      0x20\n      add\n        /* \"HelloWorld/23Structs.sol\":427:437  msg.sender */\n      caller\n        /* \"HelloWorld/23Structs.sol\":381:439  Car({year: 1980, model: \"Lamborghini\", owner: msg.sender}) */\n      0xffffffffffffffffffffffffffffffffffffffff\n      and\n      dup2\n      mstore\n      pop\n        /* \"HelloWorld/23Structs.sol\":362:439  Car memory lambo = Car({year: 1980, model: \"Lamborghini\", owner: msg.sender}) */\n      swap1\n      pop\n        /* \"HelloWorld/23Structs.sol\":449:465  Car memory tesla */\n      tag_24\n      tag_25\n      jump\t// in\n    tag_24:\n        /* \"HelloWorld/23Structs.sol\":475:496  tesla.model = \"Tesla\" */\n      mload(0x40)\n      dup1\n      0x40\n      add\n      0x40\n      mstore\n      dup1\n      0x05\n      dup2\n      mstore\n      0x20\n      add\n      0x5465736c61000000000000000000000000000000000000000000000000000000\n      dup2\n      mstore\n      pop\n        /* \"HelloWorld/23Structs.sol\":475:480  tesla */\n      dup2\n        /* \"HelloWorld/23Structs.sol\":475:486  tesla.model */\n      0x00\n      add\n        /* \"HelloWorld/23Structs.sol\":475:496  tesla.model = \"Tesla\" */\n      dup2\n      swap1\n      mstore\n      pop\n        /* \"HelloWorld/23Structs.sol\":519:523  2010 */\n      0x07da\n        /* \"HelloWorld/23Structs.sol\":506:511  tesla */\n      dup2\n        /* \"HelloWorld/23Structs.sol\":506:516  tesla.year */\n      0x20\n      add\n        /* \"HelloWorld/23Structs.sol\":506:523  tesla.year = 2010 */\n      dup2\n      dup2\n      mstore\n      pop\n      pop\n        /* \"HelloWorld/23Structs.sol\":547:557  msg.sender */\n      caller\n        /* \"HelloWorld/23Structs.sol\":533:538  tesla */\n      dup2\n        /* \"HelloWorld/23Structs.sol\":533:544  tesla.owner */\n      0x40\n      add\n        /* \"HelloWorld/23Structs.sol\":533:557  tesla.owner = msg.sender */\n      swap1\n      0xffffffffffffffffffffffffffffffffffffffff\n      and\n      swap1\n      dup2\n      0xffffffffffffffffffffffffffffffffffffffff\n      and\n      dup2\n      mstore\n      pop\n      pop\n        /* \"HelloWorld/23Structs.sol\":568:572  cars */\n      0x03\n        /* \"HelloWorld/23Structs.sol\":578:584  toyota */\n      dup4\n        /* \"HelloWorld/23Structs.sol\":568:585  cars.push(toyota) */\n      swap1\n      dup1\n      0x01\n      dup2\n      sload\n      add\n      dup1\n      dup3\n      sstore\n      dup1\n      swap2\n      pop\n      pop\n      0x01\n      swap1\n      sub\n      swap1\n      0x00\n      mstore\n      keccak256(0x00, 0x20)\n      swap1\n      0x03\n      mul\n      add\n      0x00\n      swap1\n      swap2\n      swap1\n      swap2\n      swap1\n      swap2\n      pop\n      0x00\n      dup3\n      add\n      mload\n      dup2\n      0x00\n      add\n      swap1\n      dup2\n      tag_27\n      swap2\n      swap1\n      tag_28\n      jump\t// in\n    tag_27:\n      pop\n      0x20\n      dup3\n      add\n      mload\n      dup2\n      0x01\n      add\n      sstore\n      0x40\n      dup3\n      add\n      mload\n      dup2\n      0x02\n      add\n      exp(0x0100, 0x00)\n      dup2\n      sload\n      dup2\n      0xffffffffffffffffffffffffffffffffffffffff\n      mul\n      not\n      and\n      swap1\n      dup4\n      0xffffffffffffffffffffffffffffffffffffffff\n      and\n      mul\n      or\n      swap1\n      sstore\n      pop\n      pop\n      pop\n        /* \"HelloWorld/23Structs.sol\":595:599  cars */\n      0x03\n        /* \"HelloWorld/23Structs.sol\":605:610  lambo */\n      dup3\n        /* \"HelloWorld/23Structs.sol\":595:611  cars.push(lambo) */\n      swap1\n      dup1\n      0x01\n      dup2\n      sload\n      add\n      dup1\n      dup3\n      sstore\n      dup1\n      swap2\n      pop\n      pop\n      0x01\n      swap1\n      sub\n      swap1\n      0x00\n      mstore\n      keccak256(0x00, 0x20)\n      swap1\n      0x03\n      mul\n      add\n      0x00\n      swap1\n      swap2\n      swap1\n      swap2\n      swap1\n      swap2\n      pop\n      0x00\n      dup3\n      add\n      mload\n      dup2\n      0x00\n      add\n      swap1\n      dup2\n      tag_30\n      swap2\n      swap1\n      tag_28\n      jump\t// in\n    tag_30:\n      pop\n      0x20\n      dup3\n      add\n      mload\n      dup2\n      0x01\n      add\n      sstore\n      0x40\n      dup3\n      add\n      mload\n      dup2\n      0x02\n      add\n      exp(0x0100, 0x00)\n      dup2\n      sload\n      dup2\n      0xffffffffffffffffffffffffffffffffffffffff\n      mul\n      not\n      and\n      swap1\n      dup4\n      0xffffffffffffffffffffffffffffffffffffffff\n      and\n      mul\n      or\n      swap1\n      sstore\n      pop\n      pop\n      pop\n        /* \"HelloWorld/23Structs.sol\":621:625  cars */\n      0x03\n        /* \"HelloWorld/23Structs.sol\":631:636  tesla */\n      dup2\n        /* \"HelloWorld/23Structs.sol\":621:637  cars.push(tesla) */\n      swap1\n      dup1\n      0x01\n      dup2\n      sload\n      add\n      dup1\n      dup3\n      sstore\n      dup1\n      swap2\n      pop\n      pop\n      0x01\n      swap1\n      sub\n      swap1\n      0x00\n      mstore\n      keccak256(0x00, 0x20)\n      swap1\n      0x03\n      mul\n      add\n      0x00\n      swap1\n      swap2\n      swap1\n      swap2\n      swap1\n      swap2\n      pop\n      0x00\n      dup3\n      add\n      mload\n      dup2\n      0x00\n      add\n      swap1\n      dup2\n      tag_32\n      swap2\n      swap1\n      tag_28\n      jump\t// in\n    tag_32:\n      pop\n      0x20\n      dup3\n      add\n      mload\n      dup2\n      0x01\n      add\n      sstore\n      0x40\n      dup3\n      add\n      mload\n      dup2\n      0x02\n      add\n      exp(0x0100, 0x00)\n      dup2\n      sload\n      dup2\n      0xffffffffffffffffffffffffffffffffffffffff\n      mul\n      not\n      and\n      swap1\n      dup4\n      0xffffffffffffffffffffffffffffffffffffffff\n      and\n      mul\n      or\n      swap1\n      sstore\n      pop\n      pop\n      pop\n        /* \"HelloWorld/23Structs.sol\":648:652  cars */\n      0x03\n        /* \"HelloWorld/23Structs.sol\":658:690  Car(\"Ferrari\", 2020, msg.sender) */\n      mload(0x40)\n      dup1\n      0x60\n      add\n      0x40\n      mstore\n      dup1\n      mload(0x40)\n      dup1\n      0x40\n      add\n      0x40\n      mstore\n      dup1\n      0x07\n      dup2\n      mstore\n      0x20\n      add\n      0x4665727261726900000000000000000000000000000000000000000000000000\n      dup2\n      mstore\n      pop\n      dup2\n      mstore\n      0x20\n      add\n        /* \"HelloWorld/23Structs.sol\":673:677  2020 */\n      0x07e4\n        /* \"HelloWorld/23Structs.sol\":658:690  Car(\"Ferrari\", 2020, msg.sender) */\n      dup2\n      mstore\n      0x20\n      add\n        /* \"HelloWorld/23Structs.sol\":679:689  msg.sender */\n      caller\n        /* \"HelloWorld/23Structs.sol\":658:690  Car(\"Ferrari\", 2020, msg.sender) */\n      0xffffffffffffffffffffffffffffffffffffffff\n      and\n      dup2\n      mstore\n      pop\n        /* \"HelloWorld/23Structs.sol\":648:691  cars.push(Car(\"Ferrari\", 2020, msg.sender)) */\n      swap1\n      dup1\n      0x01\n      dup2\n      sload\n      add\n      dup1\n      dup3\n      sstore\n      dup1\n      swap2\n      pop\n      pop\n      0x01\n      swap1\n      sub\n      swap1\n      0x00\n      mstore\n      keccak256(0x00, 0x20)\n      swap1\n      0x03\n      mul\n      add\n      0x00\n      swap1\n      swap2\n      swap1\n      swap2\n      swap1\n      swap2\n      pop\n      0x00\n      dup3\n      add\n      mload\n      dup2\n      0x00\n      add\n      swap1\n      dup2\n      tag_34\n      swap2\n      swap1\n      tag_28\n      jump\t// in\n    tag_34:\n      pop\n      0x20\n      dup3\n      add\n      mload\n      dup2\n      0x01\n      add\n      sstore\n      0x40\n      dup3\n      add\n      mload\n      dup2\n      0x02\n      add\n      exp(0x0100, 0x00)\n      dup2\n      sload\n      dup2\n      0xffffffffffffffffffffffffffffffffffffffff\n      mul\n      not\n      and\n      swap1\n      dup4\n      0xffffffffffffffffffffffffffffffffffffffff\n      and\n      mul\n      or\n      swap1\n      sstore\n      pop\n      pop\n      pop\n        /* \"HelloWorld/23Structs.sol\":702:718  Car storage _car */\n      0x00\n        /* \"HelloWorld/23Structs.sol\":721:725  cars */\n      0x03\n        /* \"HelloWorld/23Structs.sol\":726:727  0 */\n      0x00\n        /* \"HelloWorld/23Structs.sol\":721:728  cars[0] */\n      dup2\n      sload\n      dup2\n      lt\n      tag_35\n      jumpi\n      tag_36\n      tag_37\n      jump\t// in\n    tag_36:\n    tag_35:\n      swap1\n      0x00\n      mstore\n      keccak256(0x00, 0x20)\n      swap1\n      0x03\n      mul\n      add\n        /* \"HelloWorld/23Structs.sol\":702:728  Car storage _car = cars[0] */\n      swap1\n      pop\n        /* \"HelloWorld/23Structs.sol\":750:754  1999 */\n      0x07cf\n        /* \"HelloWorld/23Structs.sol\":738:742  _car */\n      dup2\n        /* \"HelloWorld/23Structs.sol\":738:747  _car.year */\n      0x01\n      add\n        /* \"HelloWorld/23Structs.sol\":738:754  _car.year = 1999 */\n      dup2\n      swap1\n      sstore\n      pop\n        /* \"HelloWorld/23Structs.sol\":291:771  {... */\n      pop\n      pop\n      pop\n      pop\n        /* \"HelloWorld/23Structs.sol\":262:771  function examples() external {... */\n      jump\t// out\n        /* \"HelloWorld/23Structs.sol\":211:255  mapping(address => Car[]) public carsByOwner */\n    tag_12:\n      mstore(0x20, 0x04)\n      dup2\n      0x00\n      mstore\n      keccak256(0x00, 0x40)\n      dup2\n      dup2\n      sload\n      dup2\n      lt\n      tag_39\n      jumpi\n      0x00\n      dup1\n      revert\n    tag_39:\n      swap1\n      0x00\n      mstore\n      keccak256(0x00, 0x20)\n      swap1\n      0x03\n      mul\n      add\n      0x00\n      swap2\n      pop\n      swap2\n      pop\n      pop\n      dup1\n      0x00\n      add\n      dup1\n      sload\n      tag_41\n      swap1\n      tag_42\n      jump\t// in\n    tag_41:\n      dup1\n      0x1f\n      add\n      0x20\n      dup1\n      swap2\n      div\n      mul\n      0x20\n      add\n      mload(0x40)\n      swap1\n      dup2\n      add\n      0x40\n      mstore\n      dup1\n      swap3\n      swap2\n      swap1\n      dup2\n      dup2\n      mstore\n      0x20\n      add\n      dup3\n      dup1\n      sload\n      tag_43\n      swap1\n      tag_42\n      jump\t// in\n    tag_43:\n      dup1\n      iszero\n      tag_44\n      jumpi\n      dup1\n      0x1f\n      lt\n      tag_45\n      jumpi\n      0x0100\n      dup1\n      dup4\n      sload\n      div\n      mul\n      dup4\n      mstore\n      swap2\n      0x20\n      add\n      swap2\n      jump(tag_44)\n    tag_45:\n      dup3\n      add\n      swap2\n      swap1\n      0x00\n      mstore\n      keccak256(0x00, 0x20)\n      swap1\n    tag_46:\n      dup2\n      sload\n      dup2\n      mstore\n      swap1\n      0x01\n      add\n      swap1\n      0x20\n      add\n      dup1\n      dup4\n      gt\n      tag_46\n      jumpi\n      dup3\n      swap1\n      sub\n      0x1f\n      and\n      dup3\n      add\n      swap2\n    tag_44:\n      pop\n      pop\n      pop\n      pop\n      pop\n      swap1\n      dup1\n      0x01\n      add\n      sload\n      swap1\n      dup1\n      0x02\n      add\n      0x00\n      swap1\n      sload\n      swap1\n      0x0100\n      exp\n      swap1\n      div\n      0xffffffffffffffffffffffffffffffffffffffff\n      and\n      swap1\n      pop\n      dup4\n      jump\t// out\n        /* \"HelloWorld/23Structs.sol\":167:181  Car public car */\n    tag_16:\n      0x00\n      dup1\n      0x00\n      add\n      dup1\n      sload\n      tag_47\n      swap1\n      tag_42\n      jump\t// in\n    tag_47:\n      dup1\n      0x1f\n      add\n      0x20\n      dup1\n      swap2\n      div\n      mul\n      0x20\n      add\n      mload(0x40)\n      swap1\n      dup2\n      add\n      0x40\n      mstore\n      dup1\n      swap3\n      swap2\n      swap1\n      dup2\n      dup2\n      mstore\n      0x20\n      add\n      dup3\n      dup1\n      sload\n      tag_48\n      swap1\n      tag_42\n      jump\t// in\n    tag_48:\n      dup1\n      iszero\n      tag_49\n      jumpi\n      dup1\n      0x1f\n      lt\n      tag_50\n      jumpi\n      0x0100\n      dup1\n      dup4\n      sload\n      div\n      mul\n      dup4\n      mstore\n      swap2\n      0x20\n      add\n      swap2\n      jump(tag_49)\n    tag_50:\n      dup3\n      add\n      swap2\n      swap1\n      0x00\n      mstore\n      keccak256(0x00, 0x20)\n      swap1\n    tag_51:\n      dup2\n      sload\n      dup2\n      mstore\n      swap1\n      0x01\n      add\n      swap1\n      0x20\n      add\n      dup1\n      dup4\n      gt\n      tag_51\n      jumpi\n      dup3\n      swap1\n      sub\n      0x1f\n      and\n      dup3\n      add\n      swap2\n    tag_49:\n      pop\n      pop\n      pop\n      pop\n      pop\n      swap1\n      dup1\n      0x01\n      add\n      sload\n      swap1\n      dup1\n      0x02\n      add\n      0x00\n      swap1\n      sload\n      swap1\n      0x0100\n      exp\n      swap1\n      div\n      0xffffffffffffffffffffffffffffffffffffffff\n      and\n      swap1\n      pop\n      dup4\n      jump\t// out\n        /* \"HelloWorld/23Structs.sol\":187:205  Car [] public cars */\n    tag_21:\n      0x03\n      dup2\n      dup2\n      sload\n      dup2\n      lt\n      tag_52\n      jumpi\n      0x00\n      dup1\n      revert\n    tag_52:\n      swap1\n      0x00\n      mstore\n      keccak256(0x00, 0x20)\n      swap1\n      0x03\n      mul\n      add\n      0x00\n      swap2\n      pop\n      swap1\n      pop\n      dup1\n      0x00\n      add\n      dup1\n      sload\n      tag_54\n      swap1\n      tag_42\n      jump\t// in\n    tag_54:\n      dup1\n      0x1f\n      add\n      0x20\n      dup1\n      swap2\n      div\n      mul\n      0x20\n      add\n      mload(0x40)\n      swap1\n      dup2\n      add\n      0x40\n      mstore\n      dup1\n      swap3\n      swap2\n      swap1\n      dup2\n      dup2\n      mstore\n      0x20\n      add\n      dup3\n      dup1\n      sload\n      tag_55\n      swap1\n      tag_42\n      jump\t// in\n    tag_55:\n      dup1\n      iszero\n      tag_56\n      jumpi\n      dup1\n      0x1f\n      lt\n      tag_57\n      jumpi\n      0x0100\n      dup1\n      dup4\n      sload\n      div\n      mul\n      dup4\n      mstore\n      swap2\n      0x20\n      add\n      swap2\n      jump(tag_56)\n    tag_57:\n      dup3\n      add\n      swap2\n      swap1\n      0x00\n      mstore\n      keccak256(0x00, 0x20)\n      swap1\n    tag_58:\n      dup2\n      sload\n      dup2\n      mstore\n      swap1\n      0x01\n      add\n      swap1\n      0x20\n      add\n      dup1\n      dup4\n      gt\n      tag_58\n      jumpi\n      dup3\n      swap1\n      sub\n      0x1f\n      and\n      dup3\n      add\n      swap2\n    tag_56:\n      pop\n      pop\n      pop\n      pop\n      pop\n      swap1\n      dup1\n      0x01\n      add\n      sload\n      swap1\n      dup1\n      0x02\n      add\n      0x00\n      swap1\n      sload\n      swap1\n      0x0100\n      exp\n      swap1\n      div\n      0xffffffffffffffffffffffffffffffffffffffff\n      and\n      swap1\n      pop\n      dup4\n      jump\t// out\n    tag_25:\n      mload(0x40)\n      dup1\n      0x60\n      add\n      0x40\n      mstore\n      dup1\n      0x60\n      dup2\n      mstore\n      0x20\n      add\n      0x00\n      dup2\n      mstore\n      0x20\n      add\n      and(0xffffffffffffffffffffffffffffffffffffffff, 0x00)\n      dup2\n      mstore\n      pop\n      swap1\n      jump\t// out\n        /* \"#utility.yul\":88:205   */\n    tag_60:\n        /* \"#utility.yul\":197:198   */\n      0x00\n        /* \"#utility.yul\":194:195   */\n      dup1\n        /* \"#utility.yul\":187:199   */\n      revert\n        /* \"#utility.yul\":334:460   */\n    tag_62:\n        /* \"#utility.yul\":371:378   */\n      0x00\n        /* \"#utility.yul\":411:453   */\n      0xffffffffffffffffffffffffffffffffffffffff\n        /* \"#utility.yul\":404:409   */\n      dup3\n        /* \"#utility.yul\":400:454   */\n      and\n        /* \"#utility.yul\":389:454   */\n      swap1\n      pop\n        /* \"#utility.yul\":334:460   */\n      swap2\n      swap1\n      pop\n      jump\t// out\n        /* \"#utility.yul\":466:562   */\n    tag_63:\n        /* \"#utility.yul\":503:510   */\n      0x00\n        /* \"#utility.yul\":532:556   */\n      tag_99\n        /* \"#utility.yul\":550:555   */\n      dup3\n        /* \"#utility.yul\":532:556   */\n      tag_62\n      jump\t// in\n    tag_99:\n        /* \"#utility.yul\":521:556   */\n      swap1\n      pop\n        /* \"#utility.yul\":466:562   */\n      swap2\n      swap1\n      pop\n      jump\t// out\n        /* \"#utility.yul\":568:690   */\n    tag_64:\n        /* \"#utility.yul\":641:665   */\n      tag_101\n        /* \"#utility.yul\":659:664   */\n      dup2\n        /* \"#utility.yul\":641:665   */\n      tag_63\n      jump\t// in\n    tag_101:\n        /* \"#utility.yul\":634:639   */\n      dup2\n        /* \"#utility.yul\":631:666   */\n      eq\n        /* \"#utility.yul\":621:684   */\n      tag_102\n      jumpi\n        /* \"#utility.yul\":680:681   */\n      0x00\n        /* \"#utility.yul\":677:678   */\n      dup1\n        /* \"#utility.yul\":670:682   */\n      revert\n        /* \"#utility.yul\":621:684   */\n    tag_102:\n        /* \"#utility.yul\":568:690   */\n      pop\n      jump\t// out\n        /* \"#utility.yul\":696:835   */\n    tag_65:\n        /* \"#utility.yul\":742:747   */\n      0x00\n        /* \"#utility.yul\":780:786   */\n      dup2\n        /* \"#utility.yul\":767:787   */\n      calldataload\n        /* \"#utility.yul\":758:787   */\n      swap1\n      pop\n        /* \"#utility.yul\":796:829   */\n      tag_104\n        /* \"#utility.yul\":823:828   */\n      dup2\n        /* \"#utility.yul\":796:829   */\n      tag_64\n      jump\t// in\n    tag_104:\n        /* \"#utility.yul\":696:835   */\n      swap3\n      swap2\n      pop\n      pop\n      jump\t// out\n        /* \"#utility.yul\":841:918   */\n    tag_66:\n        /* \"#utility.yul\":878:885   */\n      0x00\n        /* \"#utility.yul\":907:912   */\n      dup2\n        /* \"#utility.yul\":896:912   */\n      swap1\n      pop\n        /* \"#utility.yul\":841:918   */\n      swap2\n      swap1\n      pop\n      jump\t// out\n        /* \"#utility.yul\":924:1046   */\n    tag_67:\n        /* \"#utility.yul\":997:1021   */\n      tag_107\n        /* \"#utility.yul\":1015:1020   */\n      dup2\n        /* \"#utility.yul\":997:1021   */\n      tag_66\n      jump\t// in\n    tag_107:\n        /* \"#utility.yul\":990:995   */\n      dup2\n        /* \"#utility.yul\":987:1022   */\n      eq\n        /* \"#utility.yul\":977:1040   */\n      tag_108\n      jumpi\n        /* \"#utility.yul\":1036:1037   */\n      0x00\n        /* \"#utility.yul\":1033:1034   */\n      dup1\n        /* \"#utility.yul\":1026:1038   */\n      revert\n        /* \"#utility.yul\":977:1040   */\n    tag_108:\n        /* \"#utility.yul\":924:1046   */\n      pop\n      jump\t// out\n        /* \"#utility.yul\":1052:1191   */\n    tag_68:\n        /* \"#utility.yul\":1098:1103   */\n      0x00\n        /* \"#utility.yul\":1136:1142   */\n      dup2\n        /* \"#utility.yul\":1123:1143   */\n      calldataload\n        /* \"#utility.yul\":1114:1143   */\n      swap1\n      pop\n        /* \"#utility.yul\":1152:1185   */\n      tag_110\n        /* \"#utility.yul\":1179:1184   */\n      dup2\n        /* \"#utility.yul\":1152:1185   */\n      tag_67\n      jump\t// in\n    tag_110:\n        /* \"#utility.yul\":1052:1191   */\n      swap3\n      swap2\n      pop\n      pop\n      jump\t// out\n        /* \"#utility.yul\":1197:1671   */\n    tag_11:\n        /* \"#utility.yul\":1265:1271   */\n      0x00\n        /* \"#utility.yul\":1273:1279   */\n      dup1\n        /* \"#utility.yul\":1322:1324   */\n      0x40\n        /* \"#utility.yul\":1310:1319   */\n      dup4\n        /* \"#utility.yul\":1301:1308   */\n      dup6\n        /* \"#utility.yul\":1297:1320   */\n      sub\n        /* \"#utility.yul\":1293:1325   */\n      slt\n        /* \"#utility.yul\":1290:1409   */\n      iszero\n      tag_112\n      jumpi\n        /* \"#utility.yul\":1328:1407   */\n      tag_113\n      tag_60\n      jump\t// in\n    tag_113:\n        /* \"#utility.yul\":1290:1409   */\n    tag_112:\n        /* \"#utility.yul\":1448:1449   */\n      0x00\n        /* \"#utility.yul\":1473:1526   */\n      tag_114\n        /* \"#utility.yul\":1518:1525   */\n      dup6\n        /* \"#utility.yul\":1509:1515   */\n      dup3\n        /* \"#utility.yul\":1498:1507   */\n      dup7\n        /* \"#utility.yul\":1494:1516   */\n      add\n        /* \"#utility.yul\":1473:1526   */\n      tag_65\n      jump\t// in\n    tag_114:\n        /* \"#utility.yul\":1463:1526   */\n      swap3\n      pop\n        /* \"#utility.yul\":1419:1536   */\n      pop\n        /* \"#utility.yul\":1575:1577   */\n      0x20\n        /* \"#utility.yul\":1601:1654   */\n      tag_115\n        /* \"#utility.yul\":1646:1653   */\n      dup6\n        /* \"#utility.yul\":1637:1643   */\n      dup3\n        /* \"#utility.yul\":1626:1635   */\n      dup7\n        /* \"#utility.yul\":1622:1644   */\n      add\n        /* \"#utility.yul\":1601:1654   */\n      tag_68\n      jump\t// in\n    tag_115:\n        /* \"#utility.yul\":1591:1654   */\n      swap2\n      pop\n        /* \"#utility.yul\":1546:1664   */\n      pop\n        /* \"#utility.yul\":1197:1671   */\n      swap3\n      pop\n      swap3\n      swap1\n      pop\n      jump\t// out\n        /* \"#utility.yul\":1677:1776   */\n    tag_69:\n        /* \"#utility.yul\":1729:1735   */\n      0x00\n        /* \"#utility.yul\":1763:1768   */\n      dup2\n        /* \"#utility.yul\":1757:1769   */\n      mload\n        /* \"#utility.yul\":1747:1769   */\n      swap1\n      pop\n        /* \"#utility.yul\":1677:1776   */\n      swap2\n      swap1\n      pop\n      jump\t// out\n        /* \"#utility.yul\":1782:1951   */\n    tag_70:\n        /* \"#utility.yul\":1866:1877   */\n      0x00\n        /* \"#utility.yul\":1900:1906   */\n      dup3\n        /* \"#utility.yul\":1895:1898   */\n      dup3\n        /* \"#utility.yul\":1888:1907   */\n      mstore\n        /* \"#utility.yul\":1940:1944   */\n      0x20\n        /* \"#utility.yul\":1935:1938   */\n      dup3\n        /* \"#utility.yul\":1931:1945   */\n      add\n        /* \"#utility.yul\":1916:1945   */\n      swap1\n      pop\n        /* \"#utility.yul\":1782:1951   */\n      swap3\n      swap2\n      pop\n      pop\n      jump\t// out\n        /* \"#utility.yul\":1957:2264   */\n    tag_71:\n        /* \"#utility.yul\":2025:2026   */\n      0x00\n        /* \"#utility.yul\":2035:2148   */\n    tag_119:\n        /* \"#utility.yul\":2049:2055   */\n      dup4\n        /* \"#utility.yul\":2046:2047   */\n      dup2\n        /* \"#utility.yul\":2043:2056   */\n      lt\n        /* \"#utility.yul\":2035:2148   */\n      iszero\n      tag_121\n      jumpi\n        /* \"#utility.yul\":2134:2135   */\n      dup1\n        /* \"#utility.yul\":2129:2132   */\n      dup3\n        /* \"#utility.yul\":2125:2136   */\n      add\n        /* \"#utility.yul\":2119:2137   */\n      mload\n        /* \"#utility.yul\":2115:2116   */\n      dup2\n        /* \"#utility.yul\":2110:2113   */\n      dup5\n        /* \"#utility.yul\":2106:2117   */\n      add\n        /* \"#utility.yul\":2099:2138   */\n      mstore\n        /* \"#utility.yul\":2071:2073   */\n      0x20\n        /* \"#utility.yul\":2068:2069   */\n      dup2\n        /* \"#utility.yul\":2064:2074   */\n      add\n        /* \"#utility.yul\":2059:2074   */\n      swap1\n      pop\n        /* \"#utility.yul\":2035:2148   */\n      jump(tag_119)\n    tag_121:\n        /* \"#utility.yul\":2166:2172   */\n      dup4\n        /* \"#utility.yul\":2163:2164   */\n      dup2\n        /* \"#utility.yul\":2160:2173   */\n      gt\n        /* \"#utility.yul\":2157:2258   */\n      iszero\n      tag_122\n      jumpi\n        /* \"#utility.yul\":2246:2247   */\n      0x00\n        /* \"#utility.yul\":2237:2243   */\n      dup5\n        /* \"#utility.yul\":2232:2235   */\n      dup5\n        /* \"#utility.yul\":2228:2244   */\n      add\n        /* \"#utility.yul\":2221:2248   */\n      mstore\n        /* \"#utility.yul\":2157:2258   */\n    tag_122:\n        /* \"#utility.yul\":2006:2264   */\n      pop\n        /* \"#utility.yul\":1957:2264   */\n      pop\n      pop\n      pop\n      jump\t// out\n        /* \"#utility.yul\":2270:2372   */\n    tag_72:\n        /* \"#utility.yul\":2311:2317   */\n      0x00\n        /* \"#utility.yul\":2362:2364   */\n      0x1f\n        /* \"#utility.yul\":2358:2365   */\n      not\n        /* \"#utility.yul\":2353:2355   */\n      0x1f\n        /* \"#utility.yul\":2346:2351   */\n      dup4\n        /* \"#utility.yul\":2342:2356   */\n      add\n        /* \"#utility.yul\":2338:2366   */\n      and\n        /* \"#utility.yul\":2328:2366   */\n      swap1\n      pop\n        /* \"#utility.yul\":2270:2372   */\n      swap2\n      swap1\n      pop\n      jump\t// out\n        /* \"#utility.yul\":2378:2742   */\n    tag_73:\n        /* \"#utility.yul\":2466:2469   */\n      0x00\n        /* \"#utility.yul\":2494:2533   */\n      tag_125\n        /* \"#utility.yul\":2527:2532   */\n      dup3\n        /* \"#utility.yul\":2494:2533   */\n      tag_69\n      jump\t// in\n    tag_125:\n        /* \"#utility.yul\":2549:2620   */\n      tag_126\n        /* \"#utility.yul\":2613:2619   */\n      dup2\n        /* \"#utility.yul\":2608:2611   */\n      dup6\n        /* \"#utility.yul\":2549:2620   */\n      tag_70\n      jump\t// in\n    tag_126:\n        /* \"#utility.yul\":2542:2620   */\n      swap4\n      pop\n        /* \"#utility.yul\":2629:2681   */\n      tag_127\n        /* \"#utility.yul\":2674:2680   */\n      dup2\n        /* \"#utility.yul\":2669:2672   */\n      dup6\n        /* \"#utility.yul\":2662:2666   */\n      0x20\n        /* \"#utility.yul\":2655:2660   */\n      dup7\n        /* \"#utility.yul\":2651:2667   */\n      add\n        /* \"#utility.yul\":2629:2681   */\n      tag_71\n      jump\t// in\n    tag_127:\n        /* \"#utility.yul\":2706:2735   */\n      tag_128\n        /* \"#utility.yul\":2728:2734   */\n      dup2\n        /* \"#utility.yul\":2706:2735   */\n      tag_72\n      jump\t// in\n    tag_128:\n        /* \"#utility.yul\":2701:2704   */\n      dup5\n        /* \"#utility.yul\":2697:2736   */\n      add\n        /* \"#utility.yul\":2690:2736   */\n      swap2\n      pop\n        /* \"#utility.yul\":2470:2742   */\n      pop\n        /* \"#utility.yul\":2378:2742   */\n      swap3\n      swap2\n      pop\n      pop\n      jump\t// out\n        /* \"#utility.yul\":2748:2866   */\n    tag_74:\n        /* \"#utility.yul\":2835:2859   */\n      tag_130\n        /* \"#utility.yul\":2853:2858   */\n      dup2\n        /* \"#utility.yul\":2835:2859   */\n      tag_66\n      jump\t// in\n    tag_130:\n        /* \"#utility.yul\":2830:2833   */\n      dup3\n        /* \"#utility.yul\":2823:2860   */\n      mstore\n        /* \"#utility.yul\":2748:2866   */\n      pop\n      pop\n      jump\t// out\n        /* \"#utility.yul\":2872:2990   */\n    tag_75:\n        /* \"#utility.yul\":2959:2983   */\n      tag_132\n        /* \"#utility.yul\":2977:2982   */\n      dup2\n        /* \"#utility.yul\":2959:2983   */\n      tag_63\n      jump\t// in\n    tag_132:\n        /* \"#utility.yul\":2954:2957   */\n      dup3\n        /* \"#utility.yul\":2947:2984   */\n      mstore\n        /* \"#utility.yul\":2872:2990   */\n      pop\n      pop\n      jump\t// out\n        /* \"#utility.yul\":2996:3529   */\n    tag_14:\n        /* \"#utility.yul\":3165:3169   */\n      0x00\n        /* \"#utility.yul\":3203:3205   */\n      0x60\n        /* \"#utility.yul\":3192:3201   */\n      dup3\n        /* \"#utility.yul\":3188:3206   */\n      add\n        /* \"#utility.yul\":3180:3206   */\n      swap1\n      pop\n        /* \"#utility.yul\":3252:3261   */\n      dup2\n        /* \"#utility.yul\":3246:3250   */\n      dup2\n        /* \"#utility.yul\":3242:3262   */\n      sub\n        /* \"#utility.yul\":3238:3239   */\n      0x00\n        /* \"#utility.yul\":3227:3236   */\n      dup4\n        /* \"#utility.yul\":3223:3240   */\n      add\n        /* \"#utility.yul\":3216:3263   */\n      mstore\n        /* \"#utility.yul\":3280:3358   */\n      tag_134\n        /* \"#utility.yul\":3353:3357   */\n      dup2\n        /* \"#utility.yul\":3344:3350   */\n      dup7\n        /* \"#utility.yul\":3280:3358   */\n      tag_73\n      jump\t// in\n    tag_134:\n        /* \"#utility.yul\":3272:3358   */\n      swap1\n      pop\n        /* \"#utility.yul\":3368:3440   */\n      tag_135\n        /* \"#utility.yul\":3436:3438   */\n      0x20\n        /* \"#utility.yul\":3425:3434   */\n      dup4\n        /* \"#utility.yul\":3421:3439   */\n      add\n        /* \"#utility.yul\":3412:3418   */\n      dup6\n        /* \"#utility.yul\":3368:3440   */\n      tag_74\n      jump\t// in\n    tag_135:\n        /* \"#utility.yul\":3450:3522   */\n      tag_136\n        /* \"#utility.yul\":3518:3520   */\n      0x40\n        /* \"#utility.yul\":3507:3516   */\n      dup4\n        /* \"#utility.yul\":3503:3521   */\n      add\n        /* \"#utility.yul\":3494:3500   */\n      dup5\n        /* \"#utility.yul\":3450:3522   */\n      tag_75\n      jump\t// in\n    tag_136:\n        /* \"#utility.yul\":2996:3529   */\n      swap5\n      swap4\n      pop\n      pop\n      pop\n      pop\n      jump\t// out\n        /* \"#utility.yul\":3535:3864   */\n    tag_20:\n        /* \"#utility.yul\":3594:3600   */\n      0x00\n        /* \"#utility.yul\":3643:3645   */\n      0x20\n        /* \"#utility.yul\":3631:3640   */\n      dup3\n        /* \"#utility.yul\":3622:3629   */\n      dup5\n        /* \"#utility.yul\":3618:3641   */\n      sub\n        /* \"#utility.yul\":3614:3646   */\n      slt\n        /* \"#utility.yul\":3611:3730   */\n      iszero\n      tag_138\n      jumpi\n        /* \"#utility.yul\":3649:3728   */\n      tag_139\n      tag_60\n      jump\t// in\n    tag_139:\n        /* \"#utility.yul\":3611:3730   */\n    tag_138:\n        /* \"#utility.yul\":3769:3770   */\n      0x00\n        /* \"#utility.yul\":3794:3847   */\n      tag_140\n        /* \"#utility.yul\":3839:3846   */\n      dup5\n        /* \"#utility.yul\":3830:3836   */\n      dup3\n        /* \"#utility.yul\":3819:3828   */\n      dup6\n        /* \"#utility.yul\":3815:3837   */\n      add\n        /* \"#utility.yul\":3794:3847   */\n      tag_68\n      jump\t// in\n    tag_140:\n        /* \"#utility.yul\":3784:3847   */\n      swap2\n      pop\n        /* \"#utility.yul\":3740:3857   */\n      pop\n        /* \"#utility.yul\":3535:3864   */\n      swap3\n      swap2\n      pop\n      pop\n      jump\t// out\n        /* \"#utility.yul\":3870:4050   */\n    tag_76:\n        /* \"#utility.yul\":3918:3995   */\n      0x4e487b7100000000000000000000000000000000000000000000000000000000\n        /* \"#utility.yul\":3915:3916   */\n      0x00\n        /* \"#utility.yul\":3908:3996   */\n      mstore\n        /* \"#utility.yul\":4015:4019   */\n      0x41\n        /* \"#utility.yul\":4012:4013   */\n      0x04\n        /* \"#utility.yul\":4005:4020   */\n      mstore\n        /* \"#utility.yul\":4039:4043   */\n      0x24\n        /* \"#utility.yul\":4036:4037   */\n      0x00\n        /* \"#utility.yul\":4029:4044   */\n      revert\n        /* \"#utility.yul\":4056:4236   */\n    tag_77:\n        /* \"#utility.yul\":4104:4181   */\n      0x4e487b7100000000000000000000000000000000000000000000000000000000\n        /* \"#utility.yul\":4101:4102   */\n      0x00\n        /* \"#utility.yul\":4094:4182   */\n      mstore\n        /* \"#utility.yul\":4201:4205   */\n      0x22\n        /* \"#utility.yul\":4198:4199   */\n      0x04\n        /* \"#utility.yul\":4191:4206   */\n      mstore\n        /* \"#utility.yul\":4225:4229   */\n      0x24\n        /* \"#utility.yul\":4222:4223   */\n      0x00\n        /* \"#utility.yul\":4215:4230   */\n      revert\n        /* \"#utility.yul\":4242:4562   */\n    tag_42:\n        /* \"#utility.yul\":4286:4292   */\n      0x00\n        /* \"#utility.yul\":4323:4324   */\n      0x02\n        /* \"#utility.yul\":4317:4321   */\n      dup3\n        /* \"#utility.yul\":4313:4325   */\n      div\n        /* \"#utility.yul\":4303:4325   */\n      swap1\n      pop\n        /* \"#utility.yul\":4370:4371   */\n      0x01\n        /* \"#utility.yul\":4364:4368   */\n      dup3\n        /* \"#utility.yul\":4360:4372   */\n      and\n        /* \"#utility.yul\":4391:4409   */\n      dup1\n        /* \"#utility.yul\":4381:4462   */\n      tag_144\n      jumpi\n        /* \"#utility.yul\":4447:4451   */\n      0x7f\n        /* \"#utility.yul\":4439:4445   */\n      dup3\n        /* \"#utility.yul\":4435:4452   */\n      and\n        /* \"#utility.yul\":4425:4452   */\n      swap2\n      pop\n        /* \"#utility.yul\":4381:4462   */\n    tag_144:\n        /* \"#utility.yul\":4509:4511   */\n      0x20\n        /* \"#utility.yul\":4501:4507   */\n      dup3\n        /* \"#utility.yul\":4498:4512   */\n      lt\n        /* \"#utility.yul\":4478:4496   */\n      dup2\n        /* \"#utility.yul\":4475:4513   */\n      sub\n        /* \"#utility.yul\":4472:4556   */\n      tag_145\n      jumpi\n        /* \"#utility.yul\":4528:4546   */\n      tag_146\n      tag_77\n      jump\t// in\n    tag_146:\n        /* \"#utility.yul\":4472:4556   */\n    tag_145:\n        /* \"#utility.yul\":4293:4562   */\n      pop\n        /* \"#utility.yul\":4242:4562   */\n      swap2\n      swap1\n      pop\n      jump\t// out\n        /* \"#utility.yul\":4568:4709   */\n    tag_78:\n        /* \"#utility.yul\":4617:4621   */\n      0x00\n        /* \"#utility.yul\":4640:4643   */\n      dup2\n        /* \"#utility.yul\":4632:4643   */\n      swap1\n      pop\n        /* \"#utility.yul\":4663:4666   */\n      dup2\n        /* \"#utility.yul\":4660:4661   */\n      0x00\n        /* \"#utility.yul\":4653:4667   */\n      mstore\n        /* \"#utility.yul\":4697:4701   */\n      0x20\n        /* \"#utility.yul\":4694:4695   */\n      0x00\n        /* \"#utility.yul\":4684:4702   */\n      keccak256\n        /* \"#utility.yul\":4676:4702   */\n      swap1\n      pop\n        /* \"#utility.yul\":4568:4709   */\n      swap2\n      swap1\n      pop\n      jump\t// out\n        /* \"#utility.yul\":4715:4808   */\n    tag_79:\n        /* \"#utility.yul\":4752:4758   */\n      0x00\n        /* \"#utility.yul\":4799:4801   */\n      0x20\n        /* \"#utility.yul\":4794:4796   */\n      0x1f\n        /* \"#utility.yul\":4787:4792   */\n      dup4\n        /* \"#utility.yul\":4783:4797   */\n      add\n        /* \"#utility.yul\":4779:4802   */\n      div\n        /* \"#utility.yul\":4769:4802   */\n      swap1\n      pop\n        /* \"#utility.yul\":4715:4808   */\n      swap2\n      swap1\n      pop\n      jump\t// out\n        /* \"#utility.yul\":4814:4921   */\n    tag_80:\n        /* \"#utility.yul\":4858:4866   */\n      0x00\n        /* \"#utility.yul\":4908:4913   */\n      dup3\n        /* \"#utility.yul\":4902:4906   */\n      dup3\n        /* \"#utility.yul\":4898:4914   */\n      shl\n        /* \"#utility.yul\":4877:4914   */\n      swap1\n      pop\n        /* \"#utility.yul\":4814:4921   */\n      swap3\n      swap2\n      pop\n      pop\n      jump\t// out\n        /* \"#utility.yul\":4927:5320   */\n    tag_81:\n        /* \"#utility.yul\":4996:5002   */\n      0x00\n        /* \"#utility.yul\":5046:5047   */\n      0x08\n        /* \"#utility.yul\":5034:5044   */\n      dup4\n        /* \"#utility.yul\":5030:5048   */\n      mul\n        /* \"#utility.yul\":5069:5166   */\n      tag_151\n        /* \"#utility.yul\":5099:5165   */\n      0xffffffffffffffffffffffffffffffffffffffffffffffffffffffffffffffff\n        /* \"#utility.yul\":5088:5097   */\n      dup3\n        /* \"#utility.yul\":5069:5166   */\n      tag_80\n      jump\t// in\n    tag_151:\n        /* \"#utility.yul\":5187:5226   */\n      tag_152\n        /* \"#utility.yul\":5217:5225   */\n      dup7\n        /* \"#utility.yul\":5206:5215   */\n      dup4\n        /* \"#utility.yul\":5187:5226   */\n      tag_80\n      jump\t// in\n    tag_152:\n        /* \"#utility.yul\":5175:5226   */\n      swap6\n      pop\n        /* \"#utility.yul\":5259:5263   */\n      dup1\n        /* \"#utility.yul\":5255:5264   */\n      not\n        /* \"#utility.yul\":5248:5253   */\n      dup5\n        /* \"#utility.yul\":5244:5265   */\n      and\n        /* \"#utility.yul\":5235:5265   */\n      swap4\n      pop\n        /* \"#utility.yul\":5308:5312   */\n      dup1\n        /* \"#utility.yul\":5298:5306   */\n      dup7\n        /* \"#utility.yul\":5294:5313   */\n      and\n        /* \"#utility.yul\":5287:5292   */\n      dup5\n        /* \"#utility.yul\":5284:5314   */\n      or\n        /* \"#utility.yul\":5274:5314   */\n      swap3\n      pop\n        /* \"#utility.yul\":5003:5320   */\n      pop\n      pop\n        /* \"#utility.yul\":4927:5320   */\n      swap4\n      swap3\n      pop\n      pop\n      pop\n      jump\t// out\n        /* \"#utility.yul\":5326:5386   */\n    tag_82:\n        /* \"#utility.yul\":5354:5357   */\n      0x00\n        /* \"#utility.yul\":5375:5380   */\n      dup2\n        /* \"#utility.yul\":5368:5380   */\n      swap1\n      pop\n        /* \"#utility.yul\":5326:5386   */\n      swap2\n      swap1\n      pop\n      jump\t// out\n        /* \"#utility.yul\":5392:5534   */\n    tag_83:\n        /* \"#utility.yul\":5442:5451   */\n      0x00\n        /* \"#utility.yul\":5475:5528   */\n      tag_155\n        /* \"#utility.yul\":5493:5527   */\n      tag_156\n        /* \"#utility.yul\":5502:5526   */\n      tag_157\n        /* \"#utility.yul\":5520:5525   */\n      dup5\n        /* \"#utility.yul\":5502:5526   */\n      tag_66\n      jump\t// in\n    tag_157:\n        /* \"#utility.yul\":5493:5527   */\n      tag_82\n      jump\t// in\n    tag_156:\n        /* \"#utility.yul\":5475:5528   */\n      tag_66\n      jump\t// in\n    tag_155:\n        /* \"#utility.yul\":5462:5528   */\n      swap1\n      pop\n        /* \"#utility.yul\":5392:5534   */\n      swap2\n      swap1\n      pop\n      jump\t// out\n        /* \"#utility.yul\":5540:5615   */\n    tag_84:\n        /* \"#utility.yul\":5583:5586   */\n      0x00\n        /* \"#utility.yul\":5604:5609   */\n      dup2\n        /* \"#utility.yul\":5597:5609   */\n      swap1\n      pop\n        /* \"#utility.yul\":5540:5615   */\n      swap2\n      swap1\n      pop\n      jump\t// out\n        /* \"#utility.yul\":5621:5890   */\n    tag_85:\n        /* \"#utility.yul\":5731:5770   */\n      tag_160\n        /* \"#utility.yul\":5762:5769   */\n      dup4\n        /* \"#utility.yul\":5731:5770   */\n      tag_83\n      jump\t// in\n    tag_160:\n        /* \"#utility.yul\":5792:5883   */\n      tag_161\n        /* \"#utility.yul\":5841:5882   */\n      tag_162\n        /* \"#utility.yul\":5865:5881   */\n      dup3\n        /* \"#utility.yul\":5841:5882   */\n      tag_84\n      jump\t// in\n    tag_162:\n        /* \"#utility.yul\":5833:5839   */\n      dup5\n        /* \"#utility.yul\":5826:5830   */\n      dup5\n        /* \"#utility.yul\":5820:5831   */\n      sload\n        /* \"#utility.yul\":5792:5883   */\n      tag_81\n      jump\t// in\n    tag_161:\n        /* \"#utility.yul\":5786:5790   */\n      dup3\n        /* \"#utility.yul\":5779:5884   */\n      sstore\n        /* \"#utility.yul\":5697:5890   */\n      pop\n        /* \"#utility.yul\":5621:5890   */\n      pop\n      pop\n      pop\n      jump\t// out\n        /* \"#utility.yul\":5896:5969   */\n    tag_86:\n        /* \"#utility.yul\":5941:5944   */\n      0x00\n        /* \"#utility.yul\":5896:5969   */\n      swap1\n      jump\t// out\n        /* \"#utility.yul\":5975:6164   */\n    tag_87:\n        /* \"#utility.yul\":6052:6084   */\n      tag_165\n      tag_86\n      jump\t// in\n    tag_165:\n        /* \"#utility.yul\":6093:6158   */\n      tag_166\n        /* \"#utility.yul\":6151:6157   */\n      dup2\n        /* \"#utility.yul\":6143:6149   */\n      dup5\n        /* \"#utility.yul\":6137:6141   */\n      dup5\n        /* \"#utility.yul\":6093:6158   */\n      tag_85\n      jump\t// in\n    tag_166:\n        /* \"#utility.yul\":6028:6164   */\n      pop\n        /* \"#utility.yul\":5975:6164   */\n      pop\n      pop\n      jump\t// out\n        /* \"#utility.yul\":6170:6356   */\n    tag_88:\n        /* \"#utility.yul\":6230:6350   */\n    tag_168:\n        /* \"#utility.yul\":6247:6250   */\n      dup2\n        /* \"#utility.yul\":6240:6245   */\n      dup2\n        /* \"#utility.yul\":6237:6251   */\n      lt\n        /* \"#utility.yul\":6230:6350   */\n      iszero\n      tag_170\n      jumpi\n        /* \"#utility.yul\":6301:6340   */\n      tag_171\n        /* \"#utility.yul\":6338:6339   */\n      0x00\n        /* \"#utility.yul\":6331:6336   */\n      dup3\n        /* \"#utility.yul\":6301:6340   */\n      tag_87\n      jump\t// in\n    tag_171:\n        /* \"#utility.yul\":6274:6275   */\n      0x01\n        /* \"#utility.yul\":6267:6272   */\n      dup2\n        /* \"#utility.yul\":6263:6276   */\n      add\n        /* \"#utility.yul\":6254:6276   */\n      swap1\n      pop\n        /* \"#utility.yul\":6230:6350   */\n      jump(tag_168)\n    tag_170:\n        /* \"#utility.yul\":6170:6356   */\n      pop\n      pop\n      jump\t// out\n        /* \"#utility.yul\":6362:6905   */\n    tag_89:\n        /* \"#utility.yul\":6463:6465   */\n      0x1f\n        /* \"#utility.yul\":6458:6461   */\n      dup3\n        /* \"#utility.yul\":6455:6466   */\n      gt\n        /* \"#utility.yul\":6452:6898   */\n      iszero\n      tag_173\n      jumpi\n        /* \"#utility.yul\":6497:6535   */\n      tag_174\n        /* \"#utility.yul\":6529:6534   */\n      dup2\n        /* \"#utility.yul\":6497:6535   */\n      tag_78\n      jump\t// in\n    tag_174:\n        /* \"#utility.yul\":6581:6610   */\n      tag_175\n        /* \"#utility.yul\":6599:6609   */\n      dup5\n        /* \"#utility.yul\":6581:6610   */\n      tag_79\n      jump\t// in\n    tag_175:\n        /* \"#utility.yul\":6571:6579   */\n      dup2\n        /* \"#utility.yul\":6567:6611   */\n      add\n        /* \"#utility.yul\":6764:6766   */\n      0x20\n        /* \"#utility.yul\":6752:6762   */\n      dup6\n        /* \"#utility.yul\":6749:6767   */\n      lt\n        /* \"#utility.yul\":6746:6795   */\n      iszero\n      tag_176\n      jumpi\n        /* \"#utility.yul\":6785:6793   */\n      dup2\n        /* \"#utility.yul\":6770:6793   */\n      swap1\n      pop\n        /* \"#utility.yul\":6746:6795   */\n    tag_176:\n        /* \"#utility.yul\":6808:6888   */\n      tag_177\n        /* \"#utility.yul\":6864:6886   */\n      tag_178\n        /* \"#utility.yul\":6882:6885   */\n      dup6\n        /* \"#utility.yul\":6864:6886   */\n      tag_79\n      jump\t// in\n    tag_178:\n        /* \"#utility.yul\":6854:6862   */\n      dup4\n        /* \"#utility.yul\":6850:6887   */\n      add\n        /* \"#utility.yul\":6837:6848   */\n      dup3\n        /* \"#utility.yul\":6808:6888   */\n      tag_88\n      jump\t// in\n    tag_177:\n        /* \"#utility.yul\":6467:6898   */\n      pop\n      pop\n        /* \"#utility.yul\":6452:6898   */\n    tag_173:\n        /* \"#utility.yul\":6362:6905   */\n      pop\n      pop\n      pop\n      jump\t// out\n        /* \"#utility.yul\":6911:7028   */\n    tag_90:\n        /* \"#utility.yul\":6965:6973   */\n      0x00\n        /* \"#utility.yul\":7015:7020   */\n      dup3\n        /* \"#utility.yul\":7009:7013   */\n      dup3\n        /* \"#utility.yul\":7005:7021   */\n      shr\n        /* \"#utility.yul\":6984:7021   */\n      swap1\n      pop\n        /* \"#utility.yul\":6911:7028   */\n      swap3\n      swap2\n      pop\n      pop\n      jump\t// out\n        /* \"#utility.yul\":7034:7203   */\n    tag_91:\n        /* \"#utility.yul\":7078:7084   */\n      0x00\n        /* \"#utility.yul\":7111:7162   */\n      tag_181\n        /* \"#utility.yul\":7159:7160   */\n      0x00\n        /* \"#utility.yul\":7155:7161   */\n      not\n        /* \"#utility.yul\":7147:7152   */\n      dup5\n        /* \"#utility.yul\":7144:7145   */\n      0x08\n        /* \"#utility.yul\":7140:7153   */\n      mul\n        /* \"#utility.yul\":7111:7162   */\n      tag_90\n      jump\t// in\n    tag_181:\n        /* \"#utility.yul\":7107:7163   */\n      not\n        /* \"#utility.yul\":7192:7196   */\n      dup1\n        /* \"#utility.yul\":7186:7190   */\n      dup4\n        /* \"#utility.yul\":7182:7197   */\n      and\n        /* \"#utility.yul\":7172:7197   */\n      swap2\n      pop\n        /* \"#utility.yul\":7085:7203   */\n      pop\n        /* \"#utility.yul\":7034:7203   */\n      swap3\n      swap2\n      pop\n      pop\n      jump\t// out\n        /* \"#utility.yul\":7208:7503   */\n    tag_92:\n        /* \"#utility.yul\":7284:7288   */\n      0x00\n        /* \"#utility.yul\":7430:7459   */\n      tag_183\n        /* \"#utility.yul\":7455:7458   */\n      dup4\n        /* \"#utility.yul\":7449:7453   */\n      dup4\n        /* \"#utility.yul\":7430:7459   */\n      tag_91\n      jump\t// in\n    tag_183:\n        /* \"#utility.yul\":7422:7459   */\n      swap2\n      pop\n        /* \"#utility.yul\":7492:7495   */\n      dup3\n        /* \"#utility.yul\":7489:7490   */\n      0x02\n        /* \"#utility.yul\":7485:7496   */\n      mul\n        /* \"#utility.yul\":7479:7483   */\n      dup3\n        /* \"#utility.yul\":7476:7497   */\n      or\n        /* \"#utility.yul\":7468:7497   */\n      swap1\n      pop\n        /* \"#utility.yul\":7208:7503   */\n      swap3\n      swap2\n      pop\n      pop\n      jump\t// out\n        /* \"#utility.yul\":7508:8903   */\n    tag_28:\n        /* \"#utility.yul\":7625:7662   */\n      tag_185\n        /* \"#utility.yul\":7658:7661   */\n      dup3\n        /* \"#utility.yul\":7625:7662   */\n      tag_69\n      jump\t// in\n    tag_185:\n        /* \"#utility.yul\":7727:7745   */\n      0xffffffffffffffff\n        /* \"#utility.yul\":7719:7725   */\n      dup2\n        /* \"#utility.yul\":7716:7746   */\n      gt\n        /* \"#utility.yul\":7713:7769   */\n      iszero\n      tag_186\n      jumpi\n        /* \"#utility.yul\":7749:7767   */\n      tag_187\n      tag_76\n      jump\t// in\n    tag_187:\n        /* \"#utility.yul\":7713:7769   */\n    tag_186:\n        /* \"#utility.yul\":7793:7831   */\n      tag_188\n        /* \"#utility.yul\":7825:7829   */\n      dup3\n        /* \"#utility.yul\":7819:7830   */\n      sload\n        /* \"#utility.yul\":7793:7831   */\n      tag_42\n      jump\t// in\n    tag_188:\n        /* \"#utility.yul\":7878:7945   */\n      tag_189\n        /* \"#utility.yul\":7938:7944   */\n      dup3\n        /* \"#utility.yul\":7930:7936   */\n      dup3\n        /* \"#utility.yul\":7924:7928   */\n      dup6\n        /* \"#utility.yul\":7878:7945   */\n      tag_89\n      jump\t// in\n    tag_189:\n        /* \"#utility.yul\":7972:7973   */\n      0x00\n        /* \"#utility.yul\":7996:8000   */\n      0x20\n        /* \"#utility.yul\":7983:8000   */\n      swap1\n      pop\n        /* \"#utility.yul\":8028:8030   */\n      0x1f\n        /* \"#utility.yul\":8020:8026   */\n      dup4\n        /* \"#utility.yul\":8017:8031   */\n      gt\n        /* \"#utility.yul\":8045:8046   */\n      0x01\n        /* \"#utility.yul\":8040:8658   */\n      dup2\n      eq\n      tag_191\n      jumpi\n        /* \"#utility.yul\":8702:8703   */\n      0x00\n        /* \"#utility.yul\":8719:8725   */\n      dup5\n        /* \"#utility.yul\":8716:8793   */\n      iszero\n      tag_192\n      jumpi\n        /* \"#utility.yul\":8768:8777   */\n      dup3\n        /* \"#utility.yul\":8763:8766   */\n      dup8\n        /* \"#utility.yul\":8759:8778   */\n      add\n        /* \"#utility.yul\":8753:8779   */\n      mload\n        /* \"#utility.yul\":8744:8779   */\n      swap1\n      pop\n        /* \"#utility.yul\":8716:8793   */\n    tag_192:\n        /* \"#utility.yul\":8819:8886   */\n      tag_193\n        /* \"#utility.yul\":8879:8885   */\n      dup6\n        /* \"#utility.yul\":8872:8877   */\n      dup3\n        /* \"#utility.yul\":8819:8886   */\n      tag_92\n      jump\t// in\n    tag_193:\n        /* \"#utility.yul\":8813:8817   */\n      dup7\n        /* \"#utility.yul\":8806:8887   */\n      sstore\n        /* \"#utility.yul\":8675:8897   */\n      pop\n        /* \"#utility.yul\":8010:8897   */\n      jump(tag_190)\n        /* \"#utility.yul\":8040:8658   */\n    tag_191:\n        /* \"#utility.yul\":8092:8096   */\n      0x1f\n        /* \"#utility.yul\":8088:8097   */\n      not\n        /* \"#utility.yul\":8080:8086   */\n      dup5\n        /* \"#utility.yul\":8076:8098   */\n      and\n        /* \"#utility.yul\":8126:8163   */\n      tag_194\n        /* \"#utility.yul\":8158:8162   */\n      dup7\n        /* \"#utility.yul\":8126:8163   */\n      tag_78\n      jump\t// in\n    tag_194:\n        /* \"#utility.yul\":8185:8186   */\n      0x00\n        /* \"#utility.yul\":8199:8407   */\n    tag_195:\n        /* \"#utility.yul\":8213:8220   */\n      dup3\n        /* \"#utility.yul\":8210:8211   */\n      dup2\n        /* \"#utility.yul\":8207:8221   */\n      lt\n        /* \"#utility.yul\":8199:8407   */\n      iszero\n      tag_197\n      jumpi\n        /* \"#utility.yul\":8292:8301   */\n      dup5\n        /* \"#utility.yul\":8287:8290   */\n      dup10\n        /* \"#utility.yul\":8283:8302   */\n      add\n        /* \"#utility.yul\":8277:8303   */\n      mload\n        /* \"#utility.yul\":8269:8275   */\n      dup3\n        /* \"#utility.yul\":8262:8304   */\n      sstore\n        /* \"#utility.yul\":8343:8344   */\n      0x01\n        /* \"#utility.yul\":8335:8341   */\n      dup3\n        /* \"#utility.yul\":8331:8345   */\n      add\n        /* \"#utility.yul\":8321:8345   */\n      swap2\n      pop\n        /* \"#utility.yul\":8390:8392   */\n      0x20\n        /* \"#utility.yul\":8379:8388   */\n      dup6\n        /* \"#utility.yul\":8375:8393   */\n      add\n        /* \"#utility.yul\":8362:8393   */\n      swap5\n      pop\n        /* \"#utility.yul\":8236:8240   */\n      0x20\n        /* \"#utility.yul\":8233:8234   */\n      dup2\n        /* \"#utility.yul\":8229:8241   */\n      add\n        /* \"#utility.yul\":8224:8241   */\n      swap1\n      pop\n        /* \"#utility.yul\":8199:8407   */\n      jump(tag_195)\n    tag_197:\n        /* \"#utility.yul\":8435:8441   */\n      dup7\n        /* \"#utility.yul\":8426:8433   */\n      dup4\n        /* \"#utility.yul\":8423:8442   */\n      lt\n        /* \"#utility.yul\":8420:8599   */\n      iszero\n      tag_198\n      jumpi\n        /* \"#utility.yul\":8493:8502   */\n      dup5\n        /* \"#utility.yul\":8488:8491   */\n      dup10\n        /* \"#utility.yul\":8484:8503   */\n      add\n        /* \"#utility.yul\":8478:8504   */\n      mload\n        /* \"#utility.yul\":8536:8584   */\n      tag_199\n        /* \"#utility.yul\":8578:8582   */\n      0x1f\n        /* \"#utility.yul\":8570:8576   */\n      dup10\n        /* \"#utility.yul\":8566:8583   */\n      and\n        /* \"#utility.yul\":8555:8564   */\n      dup3\n        /* \"#utility.yul\":8536:8584   */\n      tag_91\n      jump\t// in\n    tag_199:\n        /* \"#utility.yul\":8528:8534   */\n      dup4\n        /* \"#utility.yul\":8521:8585   */\n      sstore\n        /* \"#utility.yul\":8443:8599   */\n      pop\n        /* \"#utility.yul\":8420:8599   */\n    tag_198:\n        /* \"#utility.yul\":8645:8646   */\n      0x01\n        /* \"#utility.yul\":8641:8642   */\n      0x02\n        /* \"#utility.yul\":8633:8639   */\n      dup9\n        /* \"#utility.yul\":8629:8643   */\n      mul\n        /* \"#utility.yul\":8625:8647   */\n      add\n        /* \"#utility.yul\":8619:8623   */\n      dup9\n        /* \"#utility.yul\":8612:8648   */\n      sstore\n        /* \"#utility.yul\":8047:8658   */\n      pop\n      pop\n      pop\n        /* \"#utility.yul\":8010:8897   */\n    tag_190:\n      pop\n        /* \"#utility.yul\":7600:8903   */\n      pop\n      pop\n      pop\n        /* \"#utility.yul\":7508:8903   */\n      pop\n      pop\n      jump\t// out\n        /* \"#utility.yul\":8909:9089   */\n    tag_37:\n        /* \"#utility.yul\":8957:9034   */\n      0x4e487b7100000000000000000000000000000000000000000000000000000000\n        /* \"#utility.yul\":8954:8955   */\n      0x00\n        /* \"#utility.yul\":8947:9035   */\n      mstore\n        /* \"#utility.yul\":9054:9058   */\n      0x32\n        /* \"#utility.yul\":9051:9052   */\n      0x04\n        /* \"#utility.yul\":9044:9059   */\n      mstore\n        /* \"#utility.yul\":9078:9082   */\n      0x24\n        /* \"#utility.yul\":9075:9076   */\n      0x00\n        /* \"#utility.yul\":9068:9083   */\n      revert\n\n    auxdata: 0xa26469706673582212201a7d20ec5b1d6b3a106e70f074c6447bb4f56c96954c944270f24fbb9aea884d64736f6c634300080f0033\n}\n",
				"bytecode": {
					"linkReferences": {},
					"object": "608060405234801561001057600080fd5b50610d69806100206000396000f3fe608060405234801561001057600080fd5b506004361061004c5760003560e01c8063335d00c214610051578063aa9fb6c81461005b578063ee26fac31461008d578063f7746e36146100ad575b600080fd5b6100596100df565b005b61007560048036038101906100709190610895565b610534565b6040516100849392919061098c565b60405180910390f35b610095610623565b6040516100a49392919061098c565b60405180910390f35b6100c760048036038101906100c291906109ca565b6106e3565b6040516100d69392919061098c565b60405180910390f35b600060405180606001604052806040518060400160405280600681526020017f546f796f7461000000000000000000000000000000000000000000000000000081525081526020016107c681526020013373ffffffffffffffffffffffffffffffffffffffff168152509050600060405180606001604052806040518060400160405280600b81526020017f4c616d626f726768696e6900000000000000000000000000000000000000000081525081526020016107bc81526020013373ffffffffffffffffffffffffffffffffffffffff1681525090506101bf6107c5565b6040518060400160405280600581526020017f5465736c6100000000000000000000000000000000000000000000000000000081525081600001819052506107da81602001818152505033816040019073ffffffffffffffffffffffffffffffffffffffff16908173ffffffffffffffffffffffffffffffffffffffff1681525050600383908060018154018082558091505060019003906000526020600020906003020160009091909190915060008201518160000190816102829190610c32565b506020820151816001015560408201518160020160006101000a81548173ffffffffffffffffffffffffffffffffffffffff021916908373ffffffffffffffffffffffffffffffffffffffff1602179055505050600382908060018154018082558091505060019003906000526020600020906003020160009091909190915060008201518160000190816103179190610c32565b506020820151816001015560408201518160020160006101000a81548173ffffffffffffffffffffffffffffffffffffffff021916908373ffffffffffffffffffffffffffffffffffffffff1602179055505050600381908060018154018082558091505060019003906000526020600020906003020160009091909190915060008201518160000190816103ac9190610c32565b506020820151816001015560408201518160020160006101000a81548173ffffffffffffffffffffffffffffffffffffffff021916908373ffffffffffffffffffffffffffffffffffffffff1602179055505050600360405180606001604052806040518060400160405280600781526020017f466572726172690000000000000000000000000000000000000000000000000081525081526020016107e481526020013373ffffffffffffffffffffffffffffffffffffffff16815250908060018154018082558091505060019003906000526020600020906003020160009091909190915060008201518160000190816104a89190610c32565b506020820151816001015560408201518160020160006101000a81548173ffffffffffffffffffffffffffffffffffffffff021916908373ffffffffffffffffffffffffffffffffffffffff16021790555050506000600360008154811061051357610512610d04565b5b906000526020600020906003020190506107cf816001018190555050505050565b6004602052816000526040600020818154811061055057600080fd5b90600052602060002090600302016000915091505080600001805461057490610a55565b80601f01602080910402602001604051908101604052809291908181526020018280546105a090610a55565b80156105ed5780601f106105c2576101008083540402835291602001916105ed565b820191906000526020600020905b8154815290600101906020018083116105d057829003601f168201915b5050505050908060010154908060020160009054906101000a900473ffffffffffffffffffffffffffffffffffffffff16905083565b600080600001805461063490610a55565b80601f016020809104026020016040519081016040528092919081815260200182805461066090610a55565b80156106ad5780601f10610682576101008083540402835291602001916106ad565b820191906000526020600020905b81548152906001019060200180831161069057829003601f168201915b5050505050908060010154908060020160009054906101000a900473ffffffffffffffffffffffffffffffffffffffff16905083565b600381815481106106f357600080fd5b906000526020600020906003020160009150905080600001805461071690610a55565b80601f016020809104026020016040519081016040528092919081815260200182805461074290610a55565b801561078f5780601f106107645761010080835404028352916020019161078f565b820191906000526020600020905b81548152906001019060200180831161077257829003601f168201915b5050505050908060010154908060020160009054906101000a900473ffffffffffffffffffffffffffffffffffffffff16905083565b60405180606001604052806060815260200160008152602001600073ffffffffffffffffffffffffffffffffffffffff1681525090565b600080fd5b600073ffffffffffffffffffffffffffffffffffffffff82169050919050565b600061082c82610801565b9050919050565b61083c81610821565b811461084757600080fd5b50565b60008135905061085981610833565b92915050565b6000819050919050565b6108728161085f565b811461087d57600080fd5b50565b60008135905061088f81610869565b92915050565b600080604083850312156108ac576108ab6107fc565b5b60006108ba8582860161084a565b92505060206108cb85828601610880565b9150509250929050565b600081519050919050565b600082825260208201905092915050565b60005b8381101561090f5780820151818401526020810190506108f4565b8381111561091e576000848401525b50505050565b6000601f19601f8301169050919050565b6000610940826108d5565b61094a81856108e0565b935061095a8185602086016108f1565b61096381610924565b840191505092915050565b6109778161085f565b82525050565b61098681610821565b82525050565b600060608201905081810360008301526109a68186610935565b90506109b5602083018561096e565b6109c2604083018461097d565b949350505050565b6000602082840312156109e0576109df6107fc565b5b60006109ee84828501610880565b91505092915050565b7f4e487b7100000000000000000000000000000000000000000000000000000000600052604160045260246000fd5b7f4e487b7100000000000000000000000000000000000000000000000000000000600052602260045260246000fd5b60006002820490506001821680610a6d57607f821691505b602082108103610a8057610a7f610a26565b5b50919050565b60008190508160005260206000209050919050565b60006020601f8301049050919050565b600082821b905092915050565b600060088302610ae87fffffffffffffffffffffffffffffffffffffffffffffffffffffffffffffffff82610aab565b610af28683610aab565b95508019841693508086168417925050509392505050565b6000819050919050565b6000610b2f610b2a610b258461085f565b610b0a565b61085f565b9050919050565b6000819050919050565b610b4983610b14565b610b5d610b5582610b36565b848454610ab8565b825550505050565b600090565b610b72610b65565b610b7d818484610b40565b505050565b5b81811015610ba157610b96600082610b6a565b600181019050610b83565b5050565b601f821115610be657610bb781610a86565b610bc084610a9b565b81016020851015610bcf578190505b610be3610bdb85610a9b565b830182610b82565b50505b505050565b600082821c905092915050565b6000610c0960001984600802610beb565b1980831691505092915050565b6000610c228383610bf8565b9150826002028217905092915050565b610c3b826108d5565b67ffffffffffffffff811115610c5457610c536109f7565b5b610c5e8254610a55565b610c69828285610ba5565b600060209050601f831160018114610c9c5760008415610c8a578287015190505b610c948582610c16565b865550610cfc565b601f198416610caa86610a86565b60005b82811015610cd257848901518255600182019150602085019450602081019050610cad565b86831015610cef5784890151610ceb601f891682610bf8565b8355505b6001600288020188555050505b505050505050565b7f4e487b7100000000000000000000000000000000000000000000000000000000600052603260045260246000fdfea26469706673582212201a7d20ec5b1d6b3a106e70f074c6447bb4f56c96954c944270f24fbb9aea884d64736f6c634300080f0033",
					"opcodes": "PUSH1 0x80 PUSH1 0x40 MSTORE CALLVALUE DUP1 ISZERO PUSH2 0x10 JUMPI PUSH1 0x0 DUP1 REVERT JUMPDEST POP PUSH2 0xD69 DUP1 PUSH2 0x20 PUSH1 0x0 CODECOPY PUSH1 0x0 RETURN INVALID PUSH1 0x80 PUSH1 0x40 MSTORE CALLVALUE DUP1 ISZERO PUSH2 0x10 JUMPI PUSH1 0x0 DUP1 REVERT JUMPDEST POP PUSH1 0x4 CALLDATASIZE LT PUSH2 0x4C JUMPI PUSH1 0x0 CALLDATALOAD PUSH1 0xE0 SHR DUP1 PUSH4 0x335D00C2 EQ PUSH2 0x51 JUMPI DUP1 PUSH4 0xAA9FB6C8 EQ PUSH2 0x5B JUMPI DUP1 PUSH4 0xEE26FAC3 EQ PUSH2 0x8D JUMPI DUP1 PUSH4 0xF7746E36 EQ PUSH2 0xAD JUMPI JUMPDEST PUSH1 0x0 DUP1 REVERT JUMPDEST PUSH2 0x59 PUSH2 0xDF JUMP JUMPDEST STOP JUMPDEST PUSH2 0x75 PUSH1 0x4 DUP1 CALLDATASIZE SUB DUP2 ADD SWAP1 PUSH2 0x70 SWAP2 SWAP1 PUSH2 0x895 JUMP JUMPDEST PUSH2 0x534 JUMP JUMPDEST PUSH1 0x40 MLOAD PUSH2 0x84 SWAP4 SWAP3 SWAP2 SWAP1 PUSH2 0x98C JUMP JUMPDEST PUSH1 0x40 MLOAD DUP1 SWAP2 SUB SWAP1 RETURN JUMPDEST PUSH2 0x95 PUSH2 0x623 JUMP JUMPDEST PUSH1 0x40 MLOAD PUSH2 0xA4 SWAP4 SWAP3 SWAP2 SWAP1 PUSH2 0x98C JUMP JUMPDEST PUSH1 0x40 MLOAD DUP1 SWAP2 SUB SWAP1 RETURN JUMPDEST PUSH2 0xC7 PUSH1 0x4 DUP1 CALLDATASIZE SUB DUP2 ADD SWAP1 PUSH2 0xC2 SWAP2 SWAP1 PUSH2 0x9CA JUMP JUMPDEST PUSH2 0x6E3 JUMP JUMPDEST PUSH1 0x40 MLOAD PUSH2 0xD6 SWAP4 SWAP3 SWAP2 SWAP1 PUSH2 0x98C JUMP JUMPDEST PUSH1 0x40 MLOAD DUP1 SWAP2 SUB SWAP1 RETURN JUMPDEST PUSH1 0x0 PUSH1 0x40 MLOAD DUP1 PUSH1 0x60 ADD PUSH1 0x40 MSTORE DUP1 PUSH1 0x40 MLOAD DUP1 PUSH1 0x40 ADD PUSH1 0x40 MSTORE DUP1 PUSH1 0x6 DUP2 MSTORE PUSH1 0x20 ADD PUSH32 0x546F796F74610000000000000000000000000000000000000000000000000000 DUP2 MSTORE POP DUP2 MSTORE PUSH1 0x20 ADD PUSH2 0x7C6 DUP2 MSTORE PUSH1 0x20 ADD CALLER PUSH20 0xFFFFFFFFFFFFFFFFFFFFFFFFFFFFFFFFFFFFFFFF AND DUP2 MSTORE POP SWAP1 POP PUSH1 0x0 PUSH1 0x40 MLOAD DUP1 PUSH1 0x60 ADD PUSH1 0x40 MSTORE DUP1 PUSH1 0x40 MLOAD DUP1 PUSH1 0x40 ADD PUSH1 0x40 MSTORE DUP1 PUSH1 0xB DUP2 MSTORE PUSH1 0x20 ADD PUSH32 0x4C616D626F726768696E69000000000000000000000000000000000000000000 DUP2 MSTORE POP DUP2 MSTORE PUSH1 0x20 ADD PUSH2 0x7BC DUP2 MSTORE PUSH1 0x20 ADD CALLER PUSH20 0xFFFFFFFFFFFFFFFFFFFFFFFFFFFFFFFFFFFFFFFF AND DUP2 MSTORE POP SWAP1 POP PUSH2 0x1BF PUSH2 0x7C5 JUMP JUMPDEST PUSH1 0x40 MLOAD DUP1 PUSH1 0x40 ADD PUSH1 0x40 MSTORE DUP1 PUSH1 0x5 DUP2 MSTORE PUSH1 0x20 ADD PUSH32 0x5465736C61000000000000000000000000000000000000000000000000000000 DUP2 MSTORE POP DUP2 PUSH1 0x0 ADD DUP2 SWAP1 MSTORE POP PUSH2 0x7DA DUP2 PUSH1 0x20 ADD DUP2 DUP2 MSTORE POP POP CALLER DUP2 PUSH1 0x40 ADD SWAP1 PUSH20 0xFFFFFFFFFFFFFFFFFFFFFFFFFFFFFFFFFFFFFFFF AND SWAP1 DUP2 PUSH20 0xFFFFFFFFFFFFFFFFFFFFFFFFFFFFFFFFFFFFFFFF AND DUP2 MSTORE POP POP PUSH1 0x3 DUP4 SWAP1 DUP1 PUSH1 0x1 DUP2 SLOAD ADD DUP1 DUP3 SSTORE DUP1 SWAP2 POP POP PUSH1 0x1 SWAP1 SUB SWAP1 PUSH1 0x0 MSTORE PUSH1 0x20 PUSH1 0x0 KECCAK256 SWAP1 PUSH1 0x3 MUL ADD PUSH1 0x0 SWAP1 SWAP2 SWAP1 SWAP2 SWAP1 SWAP2 POP PUSH1 0x0 DUP3 ADD MLOAD DUP2 PUSH1 0x0 ADD SWAP1 DUP2 PUSH2 0x282 SWAP2 SWAP1 PUSH2 0xC32 JUMP JUMPDEST POP PUSH1 0x20 DUP3 ADD MLOAD DUP2 PUSH1 0x1 ADD SSTORE PUSH1 0x40 DUP3 ADD MLOAD DUP2 PUSH1 0x2 ADD PUSH1 0x0 PUSH2 0x100 EXP DUP2 SLOAD DUP2 PUSH20 0xFFFFFFFFFFFFFFFFFFFFFFFFFFFFFFFFFFFFFFFF MUL NOT AND SWAP1 DUP4 PUSH20 0xFFFFFFFFFFFFFFFFFFFFFFFFFFFFFFFFFFFFFFFF AND MUL OR SWAP1 SSTORE POP POP POP PUSH1 0x3 DUP3 SWAP1 DUP1 PUSH1 0x1 DUP2 SLOAD ADD DUP1 DUP3 SSTORE DUP1 SWAP2 POP POP PUSH1 0x1 SWAP1 SUB SWAP1 PUSH1 0x0 MSTORE PUSH1 0x20 PUSH1 0x0 KECCAK256 SWAP1 PUSH1 0x3 MUL ADD PUSH1 0x0 SWAP1 SWAP2 SWAP1 SWAP2 SWAP1 SWAP2 POP PUSH1 0x0 DUP3 ADD MLOAD DUP2 PUSH1 0x0 ADD SWAP1 DUP2 PUSH2 0x317 SWAP2 SWAP1 PUSH2 0xC32 JUMP JUMPDEST POP PUSH1 0x20 DUP3 ADD MLOAD DUP2 PUSH1 0x1 ADD SSTORE PUSH1 0x40 DUP3 ADD MLOAD DUP2 PUSH1 0x2 ADD PUSH1 0x0 PUSH2 0x100 EXP DUP2 SLOAD DUP2 PUSH20 0xFFFFFFFFFFFFFFFFFFFFFFFFFFFFFFFFFFFFFFFF MUL NOT AND SWAP1 DUP4 PUSH20 0xFFFFFFFFFFFFFFFFFFFFFFFFFFFFFFFFFFFFFFFF AND MUL OR SWAP1 SSTORE POP POP POP PUSH1 0x3 DUP2 SWAP1 DUP1 PUSH1 0x1 DUP2 SLOAD ADD DUP1 DUP3 SSTORE DUP1 SWAP2 POP POP PUSH1 0x1 SWAP1 SUB SWAP1 PUSH1 0x0 MSTORE PUSH1 0x20 PUSH1 0x0 KECCAK256 SWAP1 PUSH1 0x3 MUL ADD PUSH1 0x0 SWAP1 SWAP2 SWAP1 SWAP2 SWAP1 SWAP2 POP PUSH1 0x0 DUP3 ADD MLOAD DUP2 PUSH1 0x0 ADD SWAP1 DUP2 PUSH2 0x3AC SWAP2 SWAP1 PUSH2 0xC32 JUMP JUMPDEST POP PUSH1 0x20 DUP3 ADD MLOAD DUP2 PUSH1 0x1 ADD SSTORE PUSH1 0x40 DUP3 ADD MLOAD DUP2 PUSH1 0x2 ADD PUSH1 0x0 PUSH2 0x100 EXP DUP2 SLOAD DUP2 PUSH20 0xFFFFFFFFFFFFFFFFFFFFFFFFFFFFFFFFFFFFFFFF MUL NOT AND SWAP1 DUP4 PUSH20 0xFFFFFFFFFFFFFFFFFFFFFFFFFFFFFFFFFFFFFFFF AND MUL OR SWAP1 SSTORE POP POP POP PUSH1 0x3 PUSH1 0x40 MLOAD DUP1 PUSH1 0x60 ADD PUSH1 0x40 MSTORE DUP1 PUSH1 0x40 MLOAD DUP1 PUSH1 0x40 ADD PUSH1 0x40 MSTORE DUP1 PUSH1 0x7 DUP2 MSTORE PUSH1 0x20 ADD PUSH32 0x4665727261726900000000000000000000000000000000000000000000000000 DUP2 MSTORE POP DUP2 MSTORE PUSH1 0x20 ADD PUSH2 0x7E4 DUP2 MSTORE PUSH1 0x20 ADD CALLER PUSH20 0xFFFFFFFFFFFFFFFFFFFFFFFFFFFFFFFFFFFFFFFF AND DUP2 MSTORE POP SWAP1 DUP1 PUSH1 0x1 DUP2 SLOAD ADD DUP1 DUP3 SSTORE DUP1 SWAP2 POP POP PUSH1 0x1 SWAP1 SUB SWAP1 PUSH1 0x0 MSTORE PUSH1 0x20 PUSH1 0x0 KECCAK256 SWAP1 PUSH1 0x3 MUL ADD PUSH1 0x0 SWAP1 SWAP2 SWAP1 SWAP2 SWAP1 SWAP2 POP PUSH1 0x0 DUP3 ADD MLOAD DUP2 PUSH1 0x0 ADD SWAP1 DUP2 PUSH2 0x4A8 SWAP2 SWAP1 PUSH2 0xC32 JUMP JUMPDEST POP PUSH1 0x20 DUP3 ADD MLOAD DUP2 PUSH1 0x1 ADD SSTORE PUSH1 0x40 DUP3 ADD MLOAD DUP2 PUSH1 0x2 ADD PUSH1 0x0 PUSH2 0x100 EXP DUP2 SLOAD DUP2 PUSH20 0xFFFFFFFFFFFFFFFFFFFFFFFFFFFFFFFFFFFFFFFF MUL NOT AND SWAP1 DUP4 PUSH20 0xFFFFFFFFFFFFFFFFFFFFFFFFFFFFFFFFFFFFFFFF AND MUL OR SWAP1 SSTORE POP POP POP PUSH1 0x0 PUSH1 0x3 PUSH1 0x0 DUP2 SLOAD DUP2 LT PUSH2 0x513 JUMPI PUSH2 0x512 PUSH2 0xD04 JUMP JUMPDEST JUMPDEST SWAP1 PUSH1 0x0 MSTORE PUSH1 0x20 PUSH1 0x0 KECCAK256 SWAP1 PUSH1 0x3 MUL ADD SWAP1 POP PUSH2 0x7CF DUP2 PUSH1 0x1 ADD DUP2 SWAP1 SSTORE POP POP POP POP POP JUMP JUMPDEST PUSH1 0x4 PUSH1 0x20 MSTORE DUP2 PUSH1 0x0 MSTORE PUSH1 0x40 PUSH1 0x0 KECCAK256 DUP2 DUP2 SLOAD DUP2 LT PUSH2 0x550 JUMPI PUSH1 0x0 DUP1 REVERT JUMPDEST SWAP1 PUSH1 0x0 MSTORE PUSH1 0x20 PUSH1 0x0 KECCAK256 SWAP1 PUSH1 0x3 MUL ADD PUSH1 0x0 SWAP2 POP SWAP2 POP POP DUP1 PUSH1 0x0 ADD DUP1 SLOAD PUSH2 0x574 SWAP1 PUSH2 0xA55 JUMP JUMPDEST DUP1 PUSH1 0x1F ADD PUSH1 0x20 DUP1 SWAP2 DIV MUL PUSH1 0x20 ADD PUSH1 0x40 MLOAD SWAP1 DUP2 ADD PUSH1 0x40 MSTORE DUP1 SWAP3 SWAP2 SWAP1 DUP2 DUP2 MSTORE PUSH1 0x20 ADD DUP3 DUP1 SLOAD PUSH2 0x5A0 SWAP1 PUSH2 0xA55 JUMP JUMPDEST DUP1 ISZERO PUSH2 0x5ED JUMPI DUP1 PUSH1 0x1F LT PUSH2 0x5C2 JUMPI PUSH2 0x100 DUP1 DUP4 SLOAD DIV MUL DUP4 MSTORE SWAP2 PUSH1 0x20 ADD SWAP2 PUSH2 0x5ED JUMP JUMPDEST DUP3 ADD SWAP2 SWAP1 PUSH1 0x0 MSTORE PUSH1 0x20 PUSH1 0x0 KECCAK256 SWAP1 JUMPDEST DUP2 SLOAD DUP2 MSTORE SWAP1 PUSH1 0x1 ADD SWAP1 PUSH1 0x20 ADD DUP1 DUP4 GT PUSH2 0x5D0 JUMPI DUP3 SWAP1 SUB PUSH1 0x1F AND DUP3 ADD SWAP2 JUMPDEST POP POP POP POP POP SWAP1 DUP1 PUSH1 0x1 ADD SLOAD SWAP1 DUP1 PUSH1 0x2 ADD PUSH1 0x0 SWAP1 SLOAD SWAP1 PUSH2 0x100 EXP SWAP1 DIV PUSH20 0xFFFFFFFFFFFFFFFFFFFFFFFFFFFFFFFFFFFFFFFF AND SWAP1 POP DUP4 JUMP JUMPDEST PUSH1 0x0 DUP1 PUSH1 0x0 ADD DUP1 SLOAD PUSH2 0x634 SWAP1 PUSH2 0xA55 JUMP JUMPDEST DUP1 PUSH1 0x1F ADD PUSH1 0x20 DUP1 SWAP2 DIV MUL PUSH1 0x20 ADD PUSH1 0x40 MLOAD SWAP1 DUP2 ADD PUSH1 0x40 MSTORE DUP1 SWAP3 SWAP2 SWAP1 DUP2 DUP2 MSTORE PUSH1 0x20 ADD DUP3 DUP1 SLOAD PUSH2 0x660 SWAP1 PUSH2 0xA55 JUMP JUMPDEST DUP1 ISZERO PUSH2 0x6AD JUMPI DUP1 PUSH1 0x1F LT PUSH2 0x682 JUMPI PUSH2 0x100 DUP1 DUP4 SLOAD DIV MUL DUP4 MSTORE SWAP2 PUSH1 0x20 ADD SWAP2 PUSH2 0x6AD JUMP JUMPDEST DUP3 ADD SWAP2 SWAP1 PUSH1 0x0 MSTORE PUSH1 0x20 PUSH1 0x0 KECCAK256 SWAP1 JUMPDEST DUP2 SLOAD DUP2 MSTORE SWAP1 PUSH1 0x1 ADD SWAP1 PUSH1 0x20 ADD DUP1 DUP4 GT PUSH2 0x690 JUMPI DUP3 SWAP1 SUB PUSH1 0x1F AND DUP3 ADD SWAP2 JUMPDEST POP POP POP POP POP SWAP1 DUP1 PUSH1 0x1 ADD SLOAD SWAP1 DUP1 PUSH1 0x2 ADD PUSH1 0x0 SWAP1 SLOAD SWAP1 PUSH2 0x100 EXP SWAP1 DIV PUSH20 0xFFFFFFFFFFFFFFFFFFFFFFFFFFFFFFFFFFFFFFFF AND SWAP1 POP DUP4 JUMP JUMPDEST PUSH1 0x3 DUP2 DUP2 SLOAD DUP2 LT PUSH2 0x6F3 JUMPI PUSH1 0x0 DUP1 REVERT JUMPDEST SWAP1 PUSH1 0x0 MSTORE PUSH1 0x20 PUSH1 0x0 KECCAK256 SWAP1 PUSH1 0x3 MUL ADD PUSH1 0x0 SWAP2 POP SWAP1 POP DUP1 PUSH1 0x0 ADD DUP1 SLOAD PUSH2 0x716 SWAP1 PUSH2 0xA55 JUMP JUMPDEST DUP1 PUSH1 0x1F ADD PUSH1 0x20 DUP1 SWAP2 DIV MUL PUSH1 0x20 ADD PUSH1 0x40 MLOAD SWAP1 DUP2 ADD PUSH1 0x40 MSTORE DUP1 SWAP3 SWAP2 SWAP1 DUP2 DUP2 MSTORE PUSH1 0x20 ADD DUP3 DUP1 SLOAD PUSH2 0x742 SWAP1 PUSH2 0xA55 JUMP JUMPDEST DUP1 ISZERO PUSH2 0x78F JUMPI DUP1 PUSH1 0x1F LT PUSH2 0x764 JUMPI PUSH2 0x100 DUP1 DUP4 SLOAD DIV MUL DUP4 MSTORE SWAP2 PUSH1 0x20 ADD SWAP2 PUSH2 0x78F JUMP JUMPDEST DUP3 ADD SWAP2 SWAP1 PUSH1 0x0 MSTORE PUSH1 0x20 PUSH1 0x0 KECCAK256 SWAP1 JUMPDEST DUP2 SLOAD DUP2 MSTORE SWAP1 PUSH1 0x1 ADD SWAP1 PUSH1 0x20 ADD DUP1 DUP4 GT PUSH2 0x772 JUMPI DUP3 SWAP1 SUB PUSH1 0x1F AND DUP3 ADD SWAP2 JUMPDEST POP POP POP POP POP SWAP1 DUP1 PUSH1 0x1 ADD SLOAD SWAP1 DUP1 PUSH1 0x2 ADD PUSH1 0x0 SWAP1 SLOAD SWAP1 PUSH2 0x100 EXP SWAP1 DIV PUSH20 0xFFFFFFFFFFFFFFFFFFFFFFFFFFFFFFFFFFFFFFFF AND SWAP1 POP DUP4 JUMP JUMPDEST PUSH1 0x40 MLOAD DUP1 PUSH1 0x60 ADD PUSH1 0x40 MSTORE DUP1 PUSH1 0x60 DUP2 MSTORE PUSH1 0x20 ADD PUSH1 0x0 DUP2 MSTORE PUSH1 0x20 ADD PUSH1 0x0 PUSH20 0xFFFFFFFFFFFFFFFFFFFFFFFFFFFFFFFFFFFFFFFF AND DUP2 MSTORE POP SWAP1 JUMP JUMPDEST PUSH1 0x0 DUP1 REVERT JUMPDEST PUSH1 0x0 PUSH20 0xFFFFFFFFFFFFFFFFFFFFFFFFFFFFFFFFFFFFFFFF DUP3 AND SWAP1 POP SWAP2 SWAP1 POP JUMP JUMPDEST PUSH1 0x0 PUSH2 0x82C DUP3 PUSH2 0x801 JUMP JUMPDEST SWAP1 POP SWAP2 SWAP1 POP JUMP JUMPDEST PUSH2 0x83C DUP2 PUSH2 0x821 JUMP JUMPDEST DUP2 EQ PUSH2 0x847 JUMPI PUSH1 0x0 DUP1 REVERT JUMPDEST POP JUMP JUMPDEST PUSH1 0x0 DUP2 CALLDATALOAD SWAP1 POP PUSH2 0x859 DUP2 PUSH2 0x833 JUMP JUMPDEST SWAP3 SWAP2 POP POP JUMP JUMPDEST PUSH1 0x0 DUP2 SWAP1 POP SWAP2 SWAP1 POP JUMP JUMPDEST PUSH2 0x872 DUP2 PUSH2 0x85F JUMP JUMPDEST DUP2 EQ PUSH2 0x87D JUMPI PUSH1 0x0 DUP1 REVERT JUMPDEST POP JUMP JUMPDEST PUSH1 0x0 DUP2 CALLDATALOAD SWAP1 POP PUSH2 0x88F DUP2 PUSH2 0x869 JUMP JUMPDEST SWAP3 SWAP2 POP POP JUMP JUMPDEST PUSH1 0x0 DUP1 PUSH1 0x40 DUP4 DUP6 SUB SLT ISZERO PUSH2 0x8AC JUMPI PUSH2 0x8AB PUSH2 0x7FC JUMP JUMPDEST JUMPDEST PUSH1 0x0 PUSH2 0x8BA DUP6 DUP3 DUP7 ADD PUSH2 0x84A JUMP JUMPDEST SWAP3 POP POP PUSH1 0x20 PUSH2 0x8CB DUP6 DUP3 DUP7 ADD PUSH2 0x880 JUMP JUMPDEST SWAP2 POP POP SWAP3 POP SWAP3 SWAP1 POP JUMP JUMPDEST PUSH1 0x0 DUP2 MLOAD SWAP1 POP SWAP2 SWAP1 POP JUMP JUMPDEST PUSH1 0x0 DUP3 DUP3 MSTORE PUSH1 0x20 DUP3 ADD SWAP1 POP SWAP3 SWAP2 POP POP JUMP JUMPDEST PUSH1 0x0 JUMPDEST DUP4 DUP2 LT ISZERO PUSH2 0x90F JUMPI DUP1 DUP3 ADD MLOAD DUP2 DUP5 ADD MSTORE PUSH1 0x20 DUP2 ADD SWAP1 POP PUSH2 0x8F4 JUMP JUMPDEST DUP4 DUP2 GT ISZERO PUSH2 0x91E JUMPI PUSH1 0x0 DUP5 DUP5 ADD MSTORE JUMPDEST POP POP POP POP JUMP JUMPDEST PUSH1 0x0 PUSH1 0x1F NOT PUSH1 0x1F DUP4 ADD AND SWAP1 POP SWAP2 SWAP1 POP JUMP JUMPDEST PUSH1 0x0 PUSH2 0x940 DUP3 PUSH2 0x8D5 JUMP JUMPDEST PUSH2 0x94A DUP2 DUP6 PUSH2 0x8E0 JUMP JUMPDEST SWAP4 POP PUSH2 0x95A DUP2 DUP6 PUSH1 0x20 DUP7 ADD PUSH2 0x8F1 JUMP JUMPDEST PUSH2 0x963 DUP2 PUSH2 0x924 JUMP JUMPDEST DUP5 ADD SWAP2 POP POP SWAP3 SWAP2 POP POP JUMP JUMPDEST PUSH2 0x977 DUP2 PUSH2 0x85F JUMP JUMPDEST DUP3 MSTORE POP POP JUMP JUMPDEST PUSH2 0x986 DUP2 PUSH2 0x821 JUMP JUMPDEST DUP3 MSTORE POP POP JUMP JUMPDEST PUSH1 0x0 PUSH1 0x60 DUP3 ADD SWAP1 POP DUP2 DUP2 SUB PUSH1 0x0 DUP4 ADD MSTORE PUSH2 0x9A6 DUP2 DUP7 PUSH2 0x935 JUMP JUMPDEST SWAP1 POP PUSH2 0x9B5 PUSH1 0x20 DUP4 ADD DUP6 PUSH2 0x96E JUMP JUMPDEST PUSH2 0x9C2 PUSH1 0x40 DUP4 ADD DUP5 PUSH2 0x97D JUMP JUMPDEST SWAP5 SWAP4 POP POP POP POP JUMP JUMPDEST PUSH1 0x0 PUSH1 0x20 DUP3 DUP5 SUB SLT ISZERO PUSH2 0x9E0 JUMPI PUSH2 0x9DF PUSH2 0x7FC JUMP JUMPDEST JUMPDEST PUSH1 0x0 PUSH2 0x9EE DUP5 DUP3 DUP6 ADD PUSH2 0x880 JUMP JUMPDEST SWAP2 POP POP SWAP3 SWAP2 POP POP JUMP JUMPDEST PUSH32 0x4E487B7100000000000000000000000000000000000000000000000000000000 PUSH1 0x0 MSTORE PUSH1 0x41 PUSH1 0x4 MSTORE PUSH1 0x24 PUSH1 0x0 REVERT JUMPDEST PUSH32 0x4E487B7100000000000000000000000000000000000000000000000000000000 PUSH1 0x0 MSTORE PUSH1 0x22 PUSH1 0x4 MSTORE PUSH1 0x24 PUSH1 0x0 REVERT JUMPDEST PUSH1 0x0 PUSH1 0x2 DUP3 DIV SWAP1 POP PUSH1 0x1 DUP3 AND DUP1 PUSH2 0xA6D JUMPI PUSH1 0x7F DUP3 AND SWAP2 POP JUMPDEST PUSH1 0x20 DUP3 LT DUP2 SUB PUSH2 0xA80 JUMPI PUSH2 0xA7F PUSH2 0xA26 JUMP JUMPDEST JUMPDEST POP SWAP2 SWAP1 POP JUMP JUMPDEST PUSH1 0x0 DUP2 SWAP1 POP DUP2 PUSH1 0x0 MSTORE PUSH1 0x20 PUSH1 0x0 KECCAK256 SWAP1 POP SWAP2 SWAP1 POP JUMP JUMPDEST PUSH1 0x0 PUSH1 0x20 PUSH1 0x1F DUP4 ADD DIV SWAP1 POP SWAP2 SWAP1 POP JUMP JUMPDEST PUSH1 0x0 DUP3 DUP3 SHL SWAP1 POP SWAP3 SWAP2 POP POP JUMP JUMPDEST PUSH1 0x0 PUSH1 0x8 DUP4 MUL PUSH2 0xAE8 PUSH32 0xFFFFFFFFFFFFFFFFFFFFFFFFFFFFFFFFFFFFFFFFFFFFFFFFFFFFFFFFFFFFFFFF DUP3 PUSH2 0xAAB JUMP JUMPDEST PUSH2 0xAF2 DUP7 DUP4 PUSH2 0xAAB JUMP JUMPDEST SWAP6 POP DUP1 NOT DUP5 AND SWAP4 POP DUP1 DUP7 AND DUP5 OR SWAP3 POP POP POP SWAP4 SWAP3 POP POP POP JUMP JUMPDEST PUSH1 0x0 DUP2 SWAP1 POP SWAP2 SWAP1 POP JUMP JUMPDEST PUSH1 0x0 PUSH2 0xB2F PUSH2 0xB2A PUSH2 0xB25 DUP5 PUSH2 0x85F JUMP JUMPDEST PUSH2 0xB0A JUMP JUMPDEST PUSH2 0x85F JUMP JUMPDEST SWAP1 POP SWAP2 SWAP1 POP JUMP JUMPDEST PUSH1 0x0 DUP2 SWAP1 POP SWAP2 SWAP1 POP JUMP JUMPDEST PUSH2 0xB49 DUP4 PUSH2 0xB14 JUMP JUMPDEST PUSH2 0xB5D PUSH2 0xB55 DUP3 PUSH2 0xB36 JUMP JUMPDEST DUP5 DUP5 SLOAD PUSH2 0xAB8 JUMP JUMPDEST DUP3 SSTORE POP POP POP POP JUMP JUMPDEST PUSH1 0x0 SWAP1 JUMP JUMPDEST PUSH2 0xB72 PUSH2 0xB65 JUMP JUMPDEST PUSH2 0xB7D DUP2 DUP5 DUP5 PUSH2 0xB40 JUMP JUMPDEST POP POP POP JUMP JUMPDEST JUMPDEST DUP2 DUP2 LT ISZERO PUSH2 0xBA1 JUMPI PUSH2 0xB96 PUSH1 0x0 DUP3 PUSH2 0xB6A JUMP JUMPDEST PUSH1 0x1 DUP2 ADD SWAP1 POP PUSH2 0xB83 JUMP JUMPDEST POP POP JUMP JUMPDEST PUSH1 0x1F DUP3 GT ISZERO PUSH2 0xBE6 JUMPI PUSH2 0xBB7 DUP2 PUSH2 0xA86 JUMP JUMPDEST PUSH2 0xBC0 DUP5 PUSH2 0xA9B JUMP JUMPDEST DUP2 ADD PUSH1 0x20 DUP6 LT ISZERO PUSH2 0xBCF JUMPI DUP2 SWAP1 POP JUMPDEST PUSH2 0xBE3 PUSH2 0xBDB DUP6 PUSH2 0xA9B JUMP JUMPDEST DUP4 ADD DUP3 PUSH2 0xB82 JUMP JUMPDEST POP POP JUMPDEST POP POP POP JUMP JUMPDEST PUSH1 0x0 DUP3 DUP3 SHR SWAP1 POP SWAP3 SWAP2 POP POP JUMP JUMPDEST PUSH1 0x0 PUSH2 0xC09 PUSH1 0x0 NOT DUP5 PUSH1 0x8 MUL PUSH2 0xBEB JUMP JUMPDEST NOT DUP1 DUP4 AND SWAP2 POP POP SWAP3 SWAP2 POP POP JUMP JUMPDEST PUSH1 0x0 PUSH2 0xC22 DUP4 DUP4 PUSH2 0xBF8 JUMP JUMPDEST SWAP2 POP DUP3 PUSH1 0x2 MUL DUP3 OR SWAP1 POP SWAP3 SWAP2 POP POP JUMP JUMPDEST PUSH2 0xC3B DUP3 PUSH2 0x8D5 JUMP JUMPDEST PUSH8 0xFFFFFFFFFFFFFFFF DUP2 GT ISZERO PUSH2 0xC54 JUMPI PUSH2 0xC53 PUSH2 0x9F7 JUMP JUMPDEST JUMPDEST PUSH2 0xC5E DUP3 SLOAD PUSH2 0xA55 JUMP JUMPDEST PUSH2 0xC69 DUP3 DUP3 DUP6 PUSH2 0xBA5 JUMP JUMPDEST PUSH1 0x0 PUSH1 0x20 SWAP1 POP PUSH1 0x1F DUP4 GT PUSH1 0x1 DUP2 EQ PUSH2 0xC9C JUMPI PUSH1 0x0 DUP5 ISZERO PUSH2 0xC8A JUMPI DUP3 DUP8 ADD MLOAD SWAP1 POP JUMPDEST PUSH2 0xC94 DUP6 DUP3 PUSH2 0xC16 JUMP JUMPDEST DUP7 SSTORE POP PUSH2 0xCFC JUMP JUMPDEST PUSH1 0x1F NOT DUP5 AND PUSH2 0xCAA DUP7 PUSH2 0xA86 JUMP JUMPDEST PUSH1 0x0 JUMPDEST DUP3 DUP2 LT ISZERO PUSH2 0xCD2 JUMPI DUP5 DUP10 ADD MLOAD DUP3 SSTORE PUSH1 0x1 DUP3 ADD SWAP2 POP PUSH1 0x20 DUP6 ADD SWAP5 POP PUSH1 0x20 DUP2 ADD SWAP1 POP PUSH2 0xCAD JUMP JUMPDEST DUP7 DUP4 LT ISZERO PUSH2 0xCEF JUMPI DUP5 DUP10 ADD MLOAD PUSH2 0xCEB PUSH1 0x1F DUP10 AND DUP3 PUSH2 0xBF8 JUMP JUMPDEST DUP4 SSTORE POP JUMPDEST PUSH1 0x1 PUSH1 0x2 DUP9 MUL ADD DUP9 SSTORE POP POP POP JUMPDEST POP POP POP POP POP POP JUMP JUMPDEST PUSH32 0x4E487B7100000000000000000000000000000000000000000000000000000000 PUSH1 0x0 MSTORE PUSH1 0x32 PUSH1 0x4 MSTORE PUSH1 0x24 PUSH1 0x0 REVERT INVALID LOG2 PUSH5 0x6970667358 0x22 SLT KECCAK256 BYTE PUSH30 0x20EC5B1D6B3A106E70F074C6447BB4F56C96954C944270F24FBB9AEA884D PUSH5 0x736F6C6343 STOP ADDMOD 0xF STOP CALLER "
				},
				"gasEstimates": {
					"creation": {
						"codeDepositCost": "686600",
						"executionCost": "721",
						"totalCost": "687321"
					},
					"external": {
						"car()": "infinite",
						"cars(uint256)": "infinite",
						"carsByOwner(address,uint256)": "infinite",
						"examples()": "infinite"
					}
				},
				"methodIdentifiers": {
					"car()": "ee26fac3",
					"cars(uint256)": "f7746e36",
					"carsByOwner(address,uint256)": "aa9fb6c8",
					"examples()": "335d00c2"
				}
			},
			"storageLayout": {
				"storage": [
					{
						"astId": 11,
						"contract": "HelloWorld/23Structs.sol:Structs",
						"label": "car",
						"offset": 0,
						"slot": "0",
						"type": "t_struct(Car)8_storage"
					},
					{
						"astId": 15,
						"contract": "HelloWorld/23Structs.sol:Structs",
						"label": "cars",
						"offset": 0,
						"slot": "3",
						"type": "t_array(t_struct(Car)8_storage)dyn_storage"
					},
					{
						"astId": 21,
						"contract": "HelloWorld/23Structs.sol:Structs",
						"label": "carsByOwner",
						"offset": 0,
						"slot": "4",
						"type": "t_mapping(t_address,t_array(t_struct(Car)8_storage)dyn_storage)"
					}
				],
				"types": {
					"t_address": {
						"encoding": "inplace",
						"label": "address",
						"numberOfBytes": "20"
					},
					"t_array(t_struct(Car)8_storage)dyn_storage": {
						"base": "t_struct(Car)8_storage",
						"encoding": "dynamic_array",
						"label": "struct Structs.Car[]",
						"numberOfBytes": "32"
					},
					"t_mapping(t_address,t_array(t_struct(Car)8_storage)dyn_storage)": {
						"encoding": "mapping",
						"key": "t_address",
						"label": "mapping(address => struct Structs.Car[])",
						"numberOfBytes": "32",
						"value": "t_array(t_struct(Car)8_storage)dyn_storage"
					},
					"t_string_storage": {
						"encoding": "bytes",
						"label": "string",
						"numberOfBytes": "32"
					},
					"t_struct(Car)8_storage": {
						"encoding": "inplace",
						"label": "struct Structs.Car",
						"members": [
							{
								"astId": 3,
								"contract": "HelloWorld/23Structs.sol:Structs",
								"label": "model",
								"offset": 0,
								"slot": "0",
								"type": "t_string_storage"
							},
							{
								"astId": 5,
								"contract": "HelloWorld/23Structs.sol:Structs",
								"label": "year",
								"offset": 0,
								"slot": "1",
								"type": "t_uint256"
							},
							{
								"astId": 7,
								"contract": "HelloWorld/23Structs.sol:Structs",
								"label": "owner",
								"offset": 0,
								"slot": "2",
								"type": "t_address"
							}
						],
						"numberOfBytes": "96"
					},
					"t_uint256": {
						"encoding": "inplace",
						"label": "uint256",
						"numberOfBytes": "32"
					}
				}
			},
			"userdoc": {
				"kind": "user",
				"methods": {},
				"version": 1
			}
		}
	}
}