{
	"HelloWorld/27SimpleStorage.sol": {
		"SimpleStorage": {
			"abi": [
				{
					"inputs": [
						{
							"internalType": "string",
							"name": "_text",
							"type": "string"
						}
					],
					"name": "set",
					"outputs": [],
					"stateMutability": "nonpayable",
					"type": "function"
				},
				{
					"inputs": [],
					"name": "text",
					"outputs": [
						{
							"internalType": "string",
							"name": "",
							"type": "string"
						}
					],
					"stateMutability": "view",
					"type": "function"
				}
			],
			"devdoc": {
				"kind": "dev",
				"methods": {},
				"version": 1
			},
			"evm": {
				"assembly": "    /* \"HelloWorld/27SimpleStorage.sol\":58:188  contract SimpleStorage {... */\n  mstore(0x40, 0x80)\n  callvalue\n  dup1\n  iszero\n  tag_1\n  jumpi\n  0x00\n  dup1\n  revert\ntag_1:\n  pop\n  dataSize(sub_0)\n  dup1\n  dataOffset(sub_0)\n  0x00\n  codecopy\n  0x00\n  return\nstop\n\nsub_0: assembly {\n        /* \"HelloWorld/27SimpleStorage.sol\":58:188  contract SimpleStorage {... */\n      mstore(0x40, 0x80)\n      callvalue\n      dup1\n      iszero\n      tag_1\n      jumpi\n      0x00\n      dup1\n      revert\n    tag_1:\n      pop\n      jumpi(tag_2, lt(calldatasize, 0x04))\n      shr(0xe0, calldataload(0x00))\n      dup1\n      0x1f1bd692\n      eq\n      tag_3\n      jumpi\n      dup1\n      0x4ed3885e\n      eq\n      tag_4\n      jumpi\n    tag_2:\n      0x00\n      dup1\n      revert\n        /* \"HelloWorld/27SimpleStorage.sol\":87:105  string public text */\n    tag_3:\n      tag_5\n      tag_6\n      jump\t// in\n    tag_5:\n      mload(0x40)\n      tag_7\n      swap2\n      swap1\n      tag_8\n      jump\t// in\n    tag_7:\n      mload(0x40)\n      dup1\n      swap2\n      sub\n      swap1\n      return\n        /* \"HelloWorld/27SimpleStorage.sol\":112:186  function set(string calldata _text) external {... */\n    tag_4:\n      tag_9\n      0x04\n      dup1\n      calldatasize\n      sub\n      dup2\n      add\n      swap1\n      tag_10\n      swap2\n      swap1\n      tag_11\n      jump\t// in\n    tag_10:\n      tag_12\n      jump\t// in\n    tag_9:\n      stop\n        /* \"HelloWorld/27SimpleStorage.sol\":87:105  string public text */\n    tag_6:\n      0x00\n      dup1\n      sload\n      tag_13\n      swap1\n      tag_14\n      jump\t// in\n    tag_13:\n      dup1\n      0x1f\n      add\n      0x20\n      dup1\n      swap2\n      div\n      mul\n      0x20\n      add\n      mload(0x40)\n      swap1\n      dup2\n      add\n      0x40\n      mstore\n      dup1\n      swap3\n      swap2\n      swap1\n      dup2\n      dup2\n      mstore\n      0x20\n      add\n      dup3\n      dup1\n      sload\n      tag_15\n      swap1\n      tag_14\n      jump\t// in\n    tag_15:\n      dup1\n      iszero\n      tag_16\n      jumpi\n      dup1\n      0x1f\n      lt\n      tag_17\n      jumpi\n      0x0100\n      dup1\n      dup4\n      sload\n      div\n      mul\n      dup4\n      mstore\n      swap2\n      0x20\n      add\n      swap2\n      jump(tag_16)\n    tag_17:\n      dup3\n      add\n      swap2\n      swap1\n      0x00\n      mstore\n      keccak256(0x00, 0x20)\n      swap1\n    tag_18:\n      dup2\n      sload\n      dup2\n      mstore\n      swap1\n      0x01\n      add\n      swap1\n      0x20\n      add\n      dup1\n      dup4\n      gt\n      tag_18\n      jumpi\n      dup3\n      swap1\n      sub\n      0x1f\n      and\n      dup3\n      add\n      swap2\n    tag_16:\n      pop\n      pop\n      pop\n      pop\n      pop\n      dup2\n      jump\t// out\n        /* \"HelloWorld/27SimpleStorage.sol\":112:186  function set(string calldata _text) external {... */\n    tag_12:\n        /* \"HelloWorld/27SimpleStorage.sol\":174:179  _text */\n      dup2\n      dup2\n        /* \"HelloWorld/27SimpleStorage.sol\":167:171  text */\n      0x00\n        /* \"HelloWorld/27SimpleStorage.sol\":167:179  text = _text */\n      swap2\n      dup3\n      tag_20\n      swap3\n      swap2\n      swap1\n      tag_21\n      jump\t// in\n    tag_20:\n      pop\n        /* \"HelloWorld/27SimpleStorage.sol\":112:186  function set(string calldata _text) external {... */\n      pop\n      pop\n      jump\t// out\n        /* \"#utility.yul\":7:106   */\n    tag_22:\n        /* \"#utility.yul\":59:65   */\n      0x00\n        /* \"#utility.yul\":93:98   */\n      dup2\n        /* \"#utility.yul\":87:99   */\n      mload\n        /* \"#utility.yul\":77:99   */\n      swap1\n      pop\n        /* \"#utility.yul\":7:106   */\n      swap2\n      swap1\n      pop\n      jump\t// out\n        /* \"#utility.yul\":112:281   */\n    tag_23:\n        /* \"#utility.yul\":196:207   */\n      0x00\n        /* \"#utility.yul\":230:236   */\n      dup3\n        /* \"#utility.yul\":225:228   */\n      dup3\n        /* \"#utility.yul\":218:237   */\n      mstore\n        /* \"#utility.yul\":270:274   */\n      0x20\n        /* \"#utility.yul\":265:268   */\n      dup3\n        /* \"#utility.yul\":261:275   */\n      add\n        /* \"#utility.yul\":246:275   */\n      swap1\n      pop\n        /* \"#utility.yul\":112:281   */\n      swap3\n      swap2\n      pop\n      pop\n      jump\t// out\n        /* \"#utility.yul\":287:594   */\n    tag_24:\n        /* \"#utility.yul\":355:356   */\n      0x00\n        /* \"#utility.yul\":365:478   */\n    tag_57:\n        /* \"#utility.yul\":379:385   */\n      dup4\n        /* \"#utility.yul\":376:377   */\n      dup2\n        /* \"#utility.yul\":373:386   */\n      lt\n        /* \"#utility.yul\":365:478   */\n      iszero\n      tag_59\n      jumpi\n        /* \"#utility.yul\":464:465   */\n      dup1\n        /* \"#utility.yul\":459:462   */\n      dup3\n        /* \"#utility.yul\":455:466   */\n      add\n        /* \"#utility.yul\":449:467   */\n      mload\n        /* \"#utility.yul\":445:446   */\n      dup2\n        /* \"#utility.yul\":440:443   */\n      dup5\n        /* \"#utility.yul\":436:447   */\n      add\n        /* \"#utility.yul\":429:468   */\n      mstore\n        /* \"#utility.yul\":401:403   */\n      0x20\n        /* \"#utility.yul\":398:399   */\n      dup2\n        /* \"#utility.yul\":394:404   */\n      add\n        /* \"#utility.yul\":389:404   */\n      swap1\n      pop\n        /* \"#utility.yul\":365:478   */\n      jump(tag_57)\n    tag_59:\n        /* \"#utility.yul\":496:502   */\n      dup4\n        /* \"#utility.yul\":493:494   */\n      dup2\n        /* \"#utility.yul\":490:503   */\n      gt\n        /* \"#utility.yul\":487:588   */\n      iszero\n      tag_60\n      jumpi\n        /* \"#utility.yul\":576:577   */\n      0x00\n        /* \"#utility.yul\":567:573   */\n      dup5\n        /* \"#utility.yul\":562:565   */\n      dup5\n        /* \"#utility.yul\":558:574   */\n      add\n        /* \"#utility.yul\":551:578   */\n      mstore\n        /* \"#utility.yul\":487:588   */\n    tag_60:\n        /* \"#utility.yul\":336:594   */\n      pop\n        /* \"#utility.yul\":287:594   */\n      pop\n      pop\n      pop\n      jump\t// out\n        /* \"#utility.yul\":600:702   */\n    tag_25:\n        /* \"#utility.yul\":641:647   */\n      0x00\n        /* \"#utility.yul\":692:694   */\n      0x1f\n        /* \"#utility.yul\":688:695   */\n      not\n        /* \"#utility.yul\":683:685   */\n      0x1f\n        /* \"#utility.yul\":676:681   */\n      dup4\n        /* \"#utility.yul\":672:686   */\n      add\n        /* \"#utility.yul\":668:696   */\n      and\n        /* \"#utility.yul\":658:696   */\n      swap1\n      pop\n        /* \"#utility.yul\":600:702   */\n      swap2\n      swap1\n      pop\n      jump\t// out\n        /* \"#utility.yul\":708:1072   */\n    tag_26:\n        /* \"#utility.yul\":796:799   */\n      0x00\n        /* \"#utility.yul\":824:863   */\n      tag_63\n        /* \"#utility.yul\":857:862   */\n      dup3\n        /* \"#utility.yul\":824:863   */\n      tag_22\n      jump\t// in\n    tag_63:\n        /* \"#utility.yul\":879:950   */\n      tag_64\n        /* \"#utility.yul\":943:949   */\n      dup2\n        /* \"#utility.yul\":938:941   */\n      dup6\n        /* \"#utility.yul\":879:950   */\n      tag_23\n      jump\t// in\n    tag_64:\n        /* \"#utility.yul\":872:950   */\n      swap4\n      pop\n        /* \"#utility.yul\":959:1011   */\n      tag_65\n        /* \"#utility.yul\":1004:1010   */\n      dup2\n        /* \"#utility.yul\":999:1002   */\n      dup6\n        /* \"#utility.yul\":992:996   */\n      0x20\n        /* \"#utility.yul\":985:990   */\n      dup7\n        /* \"#utility.yul\":981:997   */\n      add\n        /* \"#utility.yul\":959:1011   */\n      tag_24\n      jump\t// in\n    tag_65:\n        /* \"#utility.yul\":1036:1065   */\n      tag_66\n        /* \"#utility.yul\":1058:1064   */\n      dup2\n        /* \"#utility.yul\":1036:1065   */\n      tag_25\n      jump\t// in\n    tag_66:\n        /* \"#utility.yul\":1031:1034   */\n      dup5\n        /* \"#utility.yul\":1027:1066   */\n      add\n        /* \"#utility.yul\":1020:1066   */\n      swap2\n      pop\n        /* \"#utility.yul\":800:1072   */\n      pop\n        /* \"#utility.yul\":708:1072   */\n      swap3\n      swap2\n      pop\n      pop\n      jump\t// out\n        /* \"#utility.yul\":1078:1391   */\n    tag_8:\n        /* \"#utility.yul\":1191:1195   */\n      0x00\n        /* \"#utility.yul\":1229:1231   */\n      0x20\n        /* \"#utility.yul\":1218:1227   */\n      dup3\n        /* \"#utility.yul\":1214:1232   */\n      add\n        /* \"#utility.yul\":1206:1232   */\n      swap1\n      pop\n        /* \"#utility.yul\":1278:1287   */\n      dup2\n        /* \"#utility.yul\":1272:1276   */\n      dup2\n        /* \"#utility.yul\":1268:1288   */\n      sub\n        /* \"#utility.yul\":1264:1265   */\n      0x00\n        /* \"#utility.yul\":1253:1262   */\n      dup4\n        /* \"#utility.yul\":1249:1266   */\n      add\n        /* \"#utility.yul\":1242:1289   */\n      mstore\n        /* \"#utility.yul\":1306:1384   */\n      tag_68\n        /* \"#utility.yul\":1379:1383   */\n      dup2\n        /* \"#utility.yul\":1370:1376   */\n      dup5\n        /* \"#utility.yul\":1306:1384   */\n      tag_26\n      jump\t// in\n    tag_68:\n        /* \"#utility.yul\":1298:1384   */\n      swap1\n      pop\n        /* \"#utility.yul\":1078:1391   */\n      swap3\n      swap2\n      pop\n      pop\n      jump\t// out\n        /* \"#utility.yul\":1478:1595   */\n    tag_28:\n        /* \"#utility.yul\":1587:1588   */\n      0x00\n        /* \"#utility.yul\":1584:1585   */\n      dup1\n        /* \"#utility.yul\":1577:1589   */\n      revert\n        /* \"#utility.yul\":1601:1718   */\n    tag_29:\n        /* \"#utility.yul\":1710:1711   */\n      0x00\n        /* \"#utility.yul\":1707:1708   */\n      dup1\n        /* \"#utility.yul\":1700:1712   */\n      revert\n        /* \"#utility.yul\":1724:1841   */\n    tag_30:\n        /* \"#utility.yul\":1833:1834   */\n      0x00\n        /* \"#utility.yul\":1830:1831   */\n      dup1\n        /* \"#utility.yul\":1823:1835   */\n      revert\n        /* \"#utility.yul\":1847:1964   */\n    tag_31:\n        /* \"#utility.yul\":1956:1957   */\n      0x00\n        /* \"#utility.yul\":1953:1954   */\n      dup1\n        /* \"#utility.yul\":1946:1958   */\n      revert\n        /* \"#utility.yul\":1970:2087   */\n    tag_32:\n        /* \"#utility.yul\":2079:2080   */\n      0x00\n        /* \"#utility.yul\":2076:2077   */\n      dup1\n        /* \"#utility.yul\":2069:2081   */\n      revert\n        /* \"#utility.yul\":2107:2660   */\n    tag_33:\n        /* \"#utility.yul\":2165:2173   */\n      0x00\n        /* \"#utility.yul\":2175:2181   */\n      dup1\n        /* \"#utility.yul\":2225:2228   */\n      dup4\n        /* \"#utility.yul\":2218:2222   */\n      0x1f\n        /* \"#utility.yul\":2210:2216   */\n      dup5\n        /* \"#utility.yul\":2206:2223   */\n      add\n        /* \"#utility.yul\":2202:2229   */\n      slt\n        /* \"#utility.yul\":2192:2314   */\n      tag_76\n      jumpi\n        /* \"#utility.yul\":2233:2312   */\n      tag_77\n      tag_30\n      jump\t// in\n    tag_77:\n        /* \"#utility.yul\":2192:2314   */\n    tag_76:\n        /* \"#utility.yul\":2346:2352   */\n      dup3\n        /* \"#utility.yul\":2333:2353   */\n      calldataload\n        /* \"#utility.yul\":2323:2353   */\n      swap1\n      pop\n        /* \"#utility.yul\":2376:2394   */\n      0xffffffffffffffff\n        /* \"#utility.yul\":2368:2374   */\n      dup2\n        /* \"#utility.yul\":2365:2395   */\n      gt\n        /* \"#utility.yul\":2362:2479   */\n      iszero\n      tag_78\n      jumpi\n        /* \"#utility.yul\":2398:2477   */\n      tag_79\n      tag_31\n      jump\t// in\n    tag_79:\n        /* \"#utility.yul\":2362:2479   */\n    tag_78:\n        /* \"#utility.yul\":2512:2516   */\n      0x20\n        /* \"#utility.yul\":2504:2510   */\n      dup4\n        /* \"#utility.yul\":2500:2517   */\n      add\n        /* \"#utility.yul\":2488:2517   */\n      swap2\n      pop\n        /* \"#utility.yul\":2566:2569   */\n      dup4\n        /* \"#utility.yul\":2558:2562   */\n      0x01\n        /* \"#utility.yul\":2550:2556   */\n      dup3\n        /* \"#utility.yul\":2546:2563   */\n      mul\n        /* \"#utility.yul\":2536:2544   */\n      dup4\n        /* \"#utility.yul\":2532:2564   */\n      add\n        /* \"#utility.yul\":2529:2570   */\n      gt\n        /* \"#utility.yul\":2526:2654   */\n      iszero\n      tag_80\n      jumpi\n        /* \"#utility.yul\":2573:2652   */\n      tag_81\n      tag_32\n      jump\t// in\n    tag_81:\n        /* \"#utility.yul\":2526:2654   */\n    tag_80:\n        /* \"#utility.yul\":2107:2660   */\n      swap3\n      pop\n      swap3\n      swap1\n      pop\n      jump\t// out\n        /* \"#utility.yul\":2666:3195   */\n    tag_11:\n        /* \"#utility.yul\":2737:2743   */\n      0x00\n        /* \"#utility.yul\":2745:2751   */\n      dup1\n        /* \"#utility.yul\":2794:2796   */\n      0x20\n        /* \"#utility.yul\":2782:2791   */\n      dup4\n        /* \"#utility.yul\":2773:2780   */\n      dup6\n        /* \"#utility.yul\":2769:2792   */\n      sub\n        /* \"#utility.yul\":2765:2797   */\n      slt\n        /* \"#utility.yul\":2762:2881   */\n      iszero\n      tag_83\n      jumpi\n        /* \"#utility.yul\":2800:2879   */\n      tag_84\n      tag_28\n      jump\t// in\n    tag_84:\n        /* \"#utility.yul\":2762:2881   */\n    tag_83:\n        /* \"#utility.yul\":2948:2949   */\n      0x00\n        /* \"#utility.yul\":2937:2946   */\n      dup4\n        /* \"#utility.yul\":2933:2950   */\n      add\n        /* \"#utility.yul\":2920:2951   */\n      calldataload\n        /* \"#utility.yul\":2978:2996   */\n      0xffffffffffffffff\n        /* \"#utility.yul\":2970:2976   */\n      dup2\n        /* \"#utility.yul\":2967:2997   */\n      gt\n        /* \"#utility.yul\":2964:3081   */\n      iszero\n      tag_85\n      jumpi\n        /* \"#utility.yul\":3000:3079   */\n      tag_86\n      tag_29\n      jump\t// in\n    tag_86:\n        /* \"#utility.yul\":2964:3081   */\n    tag_85:\n        /* \"#utility.yul\":3113:3178   */\n      tag_87\n        /* \"#utility.yul\":3170:3177   */\n      dup6\n        /* \"#utility.yul\":3161:3167   */\n      dup3\n        /* \"#utility.yul\":3150:3159   */\n      dup7\n        /* \"#utility.yul\":3146:3168   */\n      add\n        /* \"#utility.yul\":3113:3178   */\n      tag_33\n      jump\t// in\n    tag_87:\n        /* \"#utility.yul\":3095:3178   */\n      swap3\n      pop\n      swap3\n      pop\n        /* \"#utility.yul\":2891:3188   */\n      pop\n        /* \"#utility.yul\":2666:3195   */\n      swap3\n      pop\n      swap3\n      swap1\n      pop\n      jump\t// out\n        /* \"#utility.yul\":3201:3381   */\n    tag_34:\n        /* \"#utility.yul\":3249:3326   */\n      0x4e487b7100000000000000000000000000000000000000000000000000000000\n        /* \"#utility.yul\":3246:3247   */\n      0x00\n        /* \"#utility.yul\":3239:3327   */\n      mstore\n        /* \"#utility.yul\":3346:3350   */\n      0x22\n        /* \"#utility.yul\":3343:3344   */\n      0x04\n        /* \"#utility.yul\":3336:3351   */\n      mstore\n        /* \"#utility.yul\":3370:3374   */\n      0x24\n        /* \"#utility.yul\":3367:3368   */\n      0x00\n        /* \"#utility.yul\":3360:3375   */\n      revert\n        /* \"#utility.yul\":3387:3707   */\n    tag_14:\n        /* \"#utility.yul\":3431:3437   */\n      0x00\n        /* \"#utility.yul\":3468:3469   */\n      0x02\n        /* \"#utility.yul\":3462:3466   */\n      dup3\n        /* \"#utility.yul\":3458:3470   */\n      div\n        /* \"#utility.yul\":3448:3470   */\n      swap1\n      pop\n        /* \"#utility.yul\":3515:3516   */\n      0x01\n        /* \"#utility.yul\":3509:3513   */\n      dup3\n        /* \"#utility.yul\":3505:3517   */\n      and\n        /* \"#utility.yul\":3536:3554   */\n      dup1\n        /* \"#utility.yul\":3526:3607   */\n      tag_90\n      jumpi\n        /* \"#utility.yul\":3592:3596   */\n      0x7f\n        /* \"#utility.yul\":3584:3590   */\n      dup3\n        /* \"#utility.yul\":3580:3597   */\n      and\n        /* \"#utility.yul\":3570:3597   */\n      swap2\n      pop\n        /* \"#utility.yul\":3526:3607   */\n    tag_90:\n        /* \"#utility.yul\":3654:3656   */\n      0x20\n        /* \"#utility.yul\":3646:3652   */\n      dup3\n        /* \"#utility.yul\":3643:3657   */\n      lt\n        /* \"#utility.yul\":3623:3641   */\n      dup2\n        /* \"#utility.yul\":3620:3658   */\n      sub\n        /* \"#utility.yul\":3617:3701   */\n      tag_91\n      jumpi\n        /* \"#utility.yul\":3673:3691   */\n      tag_92\n      tag_34\n      jump\t// in\n    tag_92:\n        /* \"#utility.yul\":3617:3701   */\n    tag_91:\n        /* \"#utility.yul\":3438:3707   */\n      pop\n        /* \"#utility.yul\":3387:3707   */\n      swap2\n      swap1\n      pop\n      jump\t// out\n        /* \"#utility.yul\":3713:3810   */\n    tag_35:\n        /* \"#utility.yul\":3772:3778   */\n      0x00\n        /* \"#utility.yul\":3800:3803   */\n      dup3\n        /* \"#utility.yul\":3790:3803   */\n      swap1\n      pop\n        /* \"#utility.yul\":3713:3810   */\n      swap3\n      swap2\n      pop\n      pop\n      jump\t// out\n        /* \"#utility.yul\":3816:3996   */\n    tag_36:\n        /* \"#utility.yul\":3864:3941   */\n      0x4e487b7100000000000000000000000000000000000000000000000000000000\n        /* \"#utility.yul\":3861:3862   */\n      0x00\n        /* \"#utility.yul\":3854:3942   */\n      mstore\n        /* \"#utility.yul\":3961:3965   */\n      0x41\n        /* \"#utility.yul\":3958:3959   */\n      0x04\n        /* \"#utility.yul\":3951:3966   */\n      mstore\n        /* \"#utility.yul\":3985:3989   */\n      0x24\n        /* \"#utility.yul\":3982:3983   */\n      0x00\n        /* \"#utility.yul\":3975:3990   */\n      revert\n        /* \"#utility.yul\":4002:4143   */\n    tag_37:\n        /* \"#utility.yul\":4051:4055   */\n      0x00\n        /* \"#utility.yul\":4074:4077   */\n      dup2\n        /* \"#utility.yul\":4066:4077   */\n      swap1\n      pop\n        /* \"#utility.yul\":4097:4100   */\n      dup2\n        /* \"#utility.yul\":4094:4095   */\n      0x00\n        /* \"#utility.yul\":4087:4101   */\n      mstore\n        /* \"#utility.yul\":4131:4135   */\n      0x20\n        /* \"#utility.yul\":4128:4129   */\n      0x00\n        /* \"#utility.yul\":4118:4136   */\n      keccak256\n        /* \"#utility.yul\":4110:4136   */\n      swap1\n      pop\n        /* \"#utility.yul\":4002:4143   */\n      swap2\n      swap1\n      pop\n      jump\t// out\n        /* \"#utility.yul\":4149:4242   */\n    tag_38:\n        /* \"#utility.yul\":4186:4192   */\n      0x00\n        /* \"#utility.yul\":4233:4235   */\n      0x20\n        /* \"#utility.yul\":4228:4230   */\n      0x1f\n        /* \"#utility.yul\":4221:4226   */\n      dup4\n        /* \"#utility.yul\":4217:4231   */\n      add\n        /* \"#utility.yul\":4213:4236   */\n      div\n        /* \"#utility.yul\":4203:4236   */\n      swap1\n      pop\n        /* \"#utility.yul\":4149:4242   */\n      swap2\n      swap1\n      pop\n      jump\t// out\n        /* \"#utility.yul\":4248:4355   */\n    tag_39:\n        /* \"#utility.yul\":4292:4300   */\n      0x00\n        /* \"#utility.yul\":4342:4347   */\n      dup3\n        /* \"#utility.yul\":4336:4340   */\n      dup3\n        /* \"#utility.yul\":4332:4348   */\n      shl\n        /* \"#utility.yul\":4311:4348   */\n      swap1\n      pop\n        /* \"#utility.yul\":4248:4355   */\n      swap3\n      swap2\n      pop\n      pop\n      jump\t// out\n        /* \"#utility.yul\":4361:4754   */\n    tag_40:\n        /* \"#utility.yul\":4430:4436   */\n      0x00\n        /* \"#utility.yul\":4480:4481   */\n      0x08\n        /* \"#utility.yul\":4468:4478   */\n      dup4\n        /* \"#utility.yul\":4464:4482   */\n      mul\n        /* \"#utility.yul\":4503:4600   */\n      tag_99\n        /* \"#utility.yul\":4533:4599   */\n      0xffffffffffffffffffffffffffffffffffffffffffffffffffffffffffffffff\n        /* \"#utility.yul\":4522:4531   */\n      dup3\n        /* \"#utility.yul\":4503:4600   */\n      tag_39\n      jump\t// in\n    tag_99:\n        /* \"#utility.yul\":4621:4660   */\n      tag_100\n        /* \"#utility.yul\":4651:4659   */\n      dup7\n        /* \"#utility.yul\":4640:4649   */\n      dup4\n        /* \"#utility.yul\":4621:4660   */\n      tag_39\n      jump\t// in\n    tag_100:\n        /* \"#utility.yul\":4609:4660   */\n      swap6\n      pop\n        /* \"#utility.yul\":4693:4697   */\n      dup1\n        /* \"#utility.yul\":4689:4698   */\n      not\n        /* \"#utility.yul\":4682:4687   */\n      dup5\n        /* \"#utility.yul\":4678:4699   */\n      and\n        /* \"#utility.yul\":4669:4699   */\n      swap4\n      pop\n        /* \"#utility.yul\":4742:4746   */\n      dup1\n        /* \"#utility.yul\":4732:4740   */\n      dup7\n        /* \"#utility.yul\":4728:4747   */\n      and\n        /* \"#utility.yul\":4721:4726   */\n      dup5\n        /* \"#utility.yul\":4718:4748   */\n      or\n        /* \"#utility.yul\":4708:4748   */\n      swap3\n      pop\n        /* \"#utility.yul\":4437:4754   */\n      pop\n      pop\n        /* \"#utility.yul\":4361:4754   */\n      swap4\n      swap3\n      pop\n      pop\n      pop\n      jump\t// out\n        /* \"#utility.yul\":4760:4837   */\n    tag_41:\n        /* \"#utility.yul\":4797:4804   */\n      0x00\n        /* \"#utility.yul\":4826:4831   */\n      dup2\n        /* \"#utility.yul\":4815:4831   */\n      swap1\n      pop\n        /* \"#utility.yul\":4760:4837   */\n      swap2\n      swap1\n      pop\n      jump\t// out\n        /* \"#utility.yul\":4843:4903   */\n    tag_42:\n        /* \"#utility.yul\":4871:4874   */\n      0x00\n        /* \"#utility.yul\":4892:4897   */\n      dup2\n        /* \"#utility.yul\":4885:4897   */\n      swap1\n      pop\n        /* \"#utility.yul\":4843:4903   */\n      swap2\n      swap1\n      pop\n      jump\t// out\n        /* \"#utility.yul\":4909:5051   */\n    tag_43:\n        /* \"#utility.yul\":4959:4968   */\n      0x00\n        /* \"#utility.yul\":4992:5045   */\n      tag_104\n        /* \"#utility.yul\":5010:5044   */\n      tag_105\n        /* \"#utility.yul\":5019:5043   */\n      tag_106\n        /* \"#utility.yul\":5037:5042   */\n      dup5\n        /* \"#utility.yul\":5019:5043   */\n      tag_41\n      jump\t// in\n    tag_106:\n        /* \"#utility.yul\":5010:5044   */\n      tag_42\n      jump\t// in\n    tag_105:\n        /* \"#utility.yul\":4992:5045   */\n      tag_41\n      jump\t// in\n    tag_104:\n        /* \"#utility.yul\":4979:5045   */\n      swap1\n      pop\n        /* \"#utility.yul\":4909:5051   */\n      swap2\n      swap1\n      pop\n      jump\t// out\n        /* \"#utility.yul\":5057:5132   */\n    tag_44:\n        /* \"#utility.yul\":5100:5103   */\n      0x00\n        /* \"#utility.yul\":5121:5126   */\n      dup2\n        /* \"#utility.yul\":5114:5126   */\n      swap1\n      pop\n        /* \"#utility.yul\":5057:5132   */\n      swap2\n      swap1\n      pop\n      jump\t// out\n        /* \"#utility.yul\":5138:5407   */\n    tag_45:\n        /* \"#utility.yul\":5248:5287   */\n      tag_109\n        /* \"#utility.yul\":5279:5286   */\n      dup4\n        /* \"#utility.yul\":5248:5287   */\n      tag_43\n      jump\t// in\n    tag_109:\n        /* \"#utility.yul\":5309:5400   */\n      tag_110\n        /* \"#utility.yul\":5358:5399   */\n      tag_111\n        /* \"#utility.yul\":5382:5398   */\n      dup3\n        /* \"#utility.yul\":5358:5399   */\n      tag_44\n      jump\t// in\n    tag_111:\n        /* \"#utility.yul\":5350:5356   */\n      dup5\n        /* \"#utility.yul\":5343:5347   */\n      dup5\n        /* \"#utility.yul\":5337:5348   */\n      sload\n        /* \"#utility.yul\":5309:5400   */\n      tag_40\n      jump\t// in\n    tag_110:\n        /* \"#utility.yul\":5303:5307   */\n      dup3\n        /* \"#utility.yul\":5296:5401   */\n      sstore\n        /* \"#utility.yul\":5214:5407   */\n      pop\n        /* \"#utility.yul\":5138:5407   */\n      pop\n      pop\n      pop\n      jump\t// out\n        /* \"#utility.yul\":5413:5486   */\n    tag_46:\n        /* \"#utility.yul\":5458:5461   */\n      0x00\n        /* \"#utility.yul\":5413:5486   */\n      swap1\n      jump\t// out\n        /* \"#utility.yul\":5492:5681   */\n    tag_47:\n        /* \"#utility.yul\":5569:5601   */\n      tag_114\n      tag_46\n      jump\t// in\n    tag_114:\n        /* \"#utility.yul\":5610:5675   */\n      tag_115\n        /* \"#utility.yul\":5668:5674   */\n      dup2\n        /* \"#utility.yul\":5660:5666   */\n      dup5\n        /* \"#utility.yul\":5654:5658   */\n      dup5\n        /* \"#utility.yul\":5610:5675   */\n      tag_45\n      jump\t// in\n    tag_115:\n        /* \"#utility.yul\":5545:5681   */\n      pop\n        /* \"#utility.yul\":5492:5681   */\n      pop\n      pop\n      jump\t// out\n        /* \"#utility.yul\":5687:5873   */\n    tag_48:\n        /* \"#utility.yul\":5747:5867   */\n    tag_117:\n        /* \"#utility.yul\":5764:5767   */\n      dup2\n        /* \"#utility.yul\":5757:5762   */\n      dup2\n        /* \"#utility.yul\":5754:5768   */\n      lt\n        /* \"#utility.yul\":5747:5867   */\n      iszero\n      tag_119\n      jumpi\n        /* \"#utility.yul\":5818:5857   */\n      tag_120\n        /* \"#utility.yul\":5855:5856   */\n      0x00\n        /* \"#utility.yul\":5848:5853   */\n      dup3\n        /* \"#utility.yul\":5818:5857   */\n      tag_47\n      jump\t// in\n    tag_120:\n        /* \"#utility.yul\":5791:5792   */\n      0x01\n        /* \"#utility.yul\":5784:5789   */\n      dup2\n        /* \"#utility.yul\":5780:5793   */\n      add\n        /* \"#utility.yul\":5771:5793   */\n      swap1\n      pop\n        /* \"#utility.yul\":5747:5867   */\n      jump(tag_117)\n    tag_119:\n        /* \"#utility.yul\":5687:5873   */\n      pop\n      pop\n      jump\t// out\n        /* \"#utility.yul\":5879:6422   */\n    tag_49:\n        /* \"#utility.yul\":5980:5982   */\n      0x1f\n        /* \"#utility.yul\":5975:5978   */\n      dup3\n        /* \"#utility.yul\":5972:5983   */\n      gt\n        /* \"#utility.yul\":5969:6415   */\n      iszero\n      tag_122\n      jumpi\n        /* \"#utility.yul\":6014:6052   */\n      tag_123\n        /* \"#utility.yul\":6046:6051   */\n      dup2\n        /* \"#utility.yul\":6014:6052   */\n      tag_37\n      jump\t// in\n    tag_123:\n        /* \"#utility.yul\":6098:6127   */\n      tag_124\n        /* \"#utility.yul\":6116:6126   */\n      dup5\n        /* \"#utility.yul\":6098:6127   */\n      tag_38\n      jump\t// in\n    tag_124:\n        /* \"#utility.yul\":6088:6096   */\n      dup2\n        /* \"#utility.yul\":6084:6128   */\n      add\n        /* \"#utility.yul\":6281:6283   */\n      0x20\n        /* \"#utility.yul\":6269:6279   */\n      dup6\n        /* \"#utility.yul\":6266:6284   */\n      lt\n        /* \"#utility.yul\":6263:6312   */\n      iszero\n      tag_125\n      jumpi\n        /* \"#utility.yul\":6302:6310   */\n      dup2\n        /* \"#utility.yul\":6287:6310   */\n      swap1\n      pop\n        /* \"#utility.yul\":6263:6312   */\n    tag_125:\n        /* \"#utility.yul\":6325:6405   */\n      tag_126\n        /* \"#utility.yul\":6381:6403   */\n      tag_127\n        /* \"#utility.yul\":6399:6402   */\n      dup6\n        /* \"#utility.yul\":6381:6403   */\n      tag_38\n      jump\t// in\n    tag_127:\n        /* \"#utility.yul\":6371:6379   */\n      dup4\n        /* \"#utility.yul\":6367:6404   */\n      add\n        /* \"#utility.yul\":6354:6365   */\n      dup3\n        /* \"#utility.yul\":6325:6405   */\n      tag_48\n      jump\t// in\n    tag_126:\n        /* \"#utility.yul\":5984:6415   */\n      pop\n      pop\n        /* \"#utility.yul\":5969:6415   */\n    tag_122:\n        /* \"#utility.yul\":5879:6422   */\n      pop\n      pop\n      pop\n      jump\t// out\n        /* \"#utility.yul\":6428:6545   */\n    tag_50:\n        /* \"#utility.yul\":6482:6490   */\n      0x00\n        /* \"#utility.yul\":6532:6537   */\n      dup3\n        /* \"#utility.yul\":6526:6530   */\n      dup3\n        /* \"#utility.yul\":6522:6538   */\n      shr\n        /* \"#utility.yul\":6501:6538   */\n      swap1\n      pop\n        /* \"#utility.yul\":6428:6545   */\n      swap3\n      swap2\n      pop\n      pop\n      jump\t// out\n        /* \"#utility.yul\":6551:6720   */\n    tag_51:\n        /* \"#utility.yul\":6595:6601   */\n      0x00\n        /* \"#utility.yul\":6628:6679   */\n      tag_130\n        /* \"#utility.yul\":6676:6677   */\n      0x00\n        /* \"#utility.yul\":6672:6678   */\n      not\n        /* \"#utility.yul\":6664:6669   */\n      dup5\n        /* \"#utility.yul\":6661:6662   */\n      0x08\n        /* \"#utility.yul\":6657:6670   */\n      mul\n        /* \"#utility.yul\":6628:6679   */\n      tag_50\n      jump\t// in\n    tag_130:\n        /* \"#utility.yul\":6624:6680   */\n      not\n        /* \"#utility.yul\":6709:6713   */\n      dup1\n        /* \"#utility.yul\":6703:6707   */\n      dup4\n        /* \"#utility.yul\":6699:6714   */\n      and\n        /* \"#utility.yul\":6689:6714   */\n      swap2\n      pop\n        /* \"#utility.yul\":6602:6720   */\n      pop\n        /* \"#utility.yul\":6551:6720   */\n      swap3\n      swap2\n      pop\n      pop\n      jump\t// out\n        /* \"#utility.yul\":6725:7020   */\n    tag_52:\n        /* \"#utility.yul\":6801:6805   */\n      0x00\n        /* \"#utility.yul\":6947:6976   */\n      tag_132\n        /* \"#utility.yul\":6972:6975   */\n      dup4\n        /* \"#utility.yul\":6966:6970   */\n      dup4\n        /* \"#utility.yul\":6947:6976   */\n      tag_51\n      jump\t// in\n    tag_132:\n        /* \"#utility.yul\":6939:6976   */\n      swap2\n      pop\n        /* \"#utility.yul\":7009:7012   */\n      dup3\n        /* \"#utility.yul\":7006:7007   */\n      0x02\n        /* \"#utility.yul\":7002:7013   */\n      mul\n        /* \"#utility.yul\":6996:7000   */\n      dup3\n        /* \"#utility.yul\":6993:7014   */\n      or\n        /* \"#utility.yul\":6985:7014   */\n      swap1\n      pop\n        /* \"#utility.yul\":6725:7020   */\n      swap3\n      swap2\n      pop\n      pop\n      jump\t// out\n        /* \"#utility.yul\":7025:8428   */\n    tag_21:\n        /* \"#utility.yul\":7149:7193   */\n      tag_134\n        /* \"#utility.yul\":7189:7192   */\n      dup4\n        /* \"#utility.yul\":7184:7187   */\n      dup4\n        /* \"#utility.yul\":7149:7193   */\n      tag_35\n      jump\t// in\n    tag_134:\n        /* \"#utility.yul\":7258:7276   */\n      0xffffffffffffffff\n        /* \"#utility.yul\":7250:7256   */\n      dup2\n        /* \"#utility.yul\":7247:7277   */\n      gt\n        /* \"#utility.yul\":7244:7300   */\n      iszero\n      tag_135\n      jumpi\n        /* \"#utility.yul\":7280:7298   */\n      tag_136\n      tag_36\n      jump\t// in\n    tag_136:\n        /* \"#utility.yul\":7244:7300   */\n    tag_135:\n        /* \"#utility.yul\":7324:7362   */\n      tag_137\n        /* \"#utility.yul\":7356:7360   */\n      dup3\n        /* \"#utility.yul\":7350:7361   */\n      sload\n        /* \"#utility.yul\":7324:7362   */\n      tag_14\n      jump\t// in\n    tag_137:\n        /* \"#utility.yul\":7409:7476   */\n      tag_138\n        /* \"#utility.yul\":7469:7475   */\n      dup3\n        /* \"#utility.yul\":7461:7467   */\n      dup3\n        /* \"#utility.yul\":7455:7459   */\n      dup6\n        /* \"#utility.yul\":7409:7476   */\n      tag_49\n      jump\t// in\n    tag_138:\n        /* \"#utility.yul\":7503:7504   */\n      0x00\n        /* \"#utility.yul\":7532:7534   */\n      0x1f\n        /* \"#utility.yul\":7524:7530   */\n      dup4\n        /* \"#utility.yul\":7521:7535   */\n      gt\n        /* \"#utility.yul\":7549:7550   */\n      0x01\n        /* \"#utility.yul\":7544:8176   */\n      dup2\n      eq\n      tag_140\n      jumpi\n        /* \"#utility.yul\":8220:8221   */\n      0x00\n        /* \"#utility.yul\":8237:8243   */\n      dup5\n        /* \"#utility.yul\":8234:8318   */\n      iszero\n      tag_141\n      jumpi\n        /* \"#utility.yul\":8293:8302   */\n      dup3\n        /* \"#utility.yul\":8288:8291   */\n      dup8\n        /* \"#utility.yul\":8284:8303   */\n      add\n        /* \"#utility.yul\":8271:8304   */\n      calldataload\n        /* \"#utility.yul\":8262:8304   */\n      swap1\n      pop\n        /* \"#utility.yul\":8234:8318   */\n    tag_141:\n        /* \"#utility.yul\":8344:8411   */\n      tag_142\n        /* \"#utility.yul\":8404:8410   */\n      dup6\n        /* \"#utility.yul\":8397:8402   */\n      dup3\n        /* \"#utility.yul\":8344:8411   */\n      tag_52\n      jump\t// in\n    tag_142:\n        /* \"#utility.yul\":8338:8342   */\n      dup7\n        /* \"#utility.yul\":8331:8412   */\n      sstore\n        /* \"#utility.yul\":8193:8422   */\n      pop\n        /* \"#utility.yul\":7514:8422   */\n      jump(tag_139)\n        /* \"#utility.yul\":7544:8176   */\n    tag_140:\n        /* \"#utility.yul\":7596:7600   */\n      0x1f\n        /* \"#utility.yul\":7592:7601   */\n      not\n        /* \"#utility.yul\":7584:7590   */\n      dup5\n        /* \"#utility.yul\":7580:7602   */\n      and\n        /* \"#utility.yul\":7630:7667   */\n      tag_143\n        /* \"#utility.yul\":7662:7666   */\n      dup7\n        /* \"#utility.yul\":7630:7667   */\n      tag_37\n      jump\t// in\n    tag_143:\n        /* \"#utility.yul\":7689:7690   */\n      0x00\n        /* \"#utility.yul\":7703:7918   */\n    tag_144:\n        /* \"#utility.yul\":7717:7724   */\n      dup3\n        /* \"#utility.yul\":7714:7715   */\n      dup2\n        /* \"#utility.yul\":7711:7725   */\n      lt\n        /* \"#utility.yul\":7703:7918   */\n      iszero\n      tag_146\n      jumpi\n        /* \"#utility.yul\":7803:7812   */\n      dup5\n        /* \"#utility.yul\":7798:7801   */\n      dup10\n        /* \"#utility.yul\":7794:7813   */\n      add\n        /* \"#utility.yul\":7781:7814   */\n      calldataload\n        /* \"#utility.yul\":7773:7779   */\n      dup3\n        /* \"#utility.yul\":7766:7815   */\n      sstore\n        /* \"#utility.yul\":7854:7855   */\n      0x01\n        /* \"#utility.yul\":7846:7852   */\n      dup3\n        /* \"#utility.yul\":7842:7856   */\n      add\n        /* \"#utility.yul\":7832:7856   */\n      swap2\n      pop\n        /* \"#utility.yul\":7901:7903   */\n      0x20\n        /* \"#utility.yul\":7890:7899   */\n      dup6\n        /* \"#utility.yul\":7886:7904   */\n      add\n        /* \"#utility.yul\":7873:7904   */\n      swap5\n      pop\n        /* \"#utility.yul\":7740:7744   */\n      0x20\n        /* \"#utility.yul\":7737:7738   */\n      dup2\n        /* \"#utility.yul\":7733:7745   */\n      add\n        /* \"#utility.yul\":7728:7745   */\n      swap1\n      pop\n        /* \"#utility.yul\":7703:7918   */\n      jump(tag_144)\n    tag_146:\n        /* \"#utility.yul\":7946:7952   */\n      dup7\n        /* \"#utility.yul\":7937:7944   */\n      dup4\n        /* \"#utility.yul\":7934:7953   */\n      lt\n        /* \"#utility.yul\":7931:8117   */\n      iszero\n      tag_147\n      jumpi\n        /* \"#utility.yul\":8011:8020   */\n      dup5\n        /* \"#utility.yul\":8006:8009   */\n      dup10\n        /* \"#utility.yul\":8002:8021   */\n      add\n        /* \"#utility.yul\":7989:8022   */\n      calldataload\n        /* \"#utility.yul\":8054:8102   */\n      tag_148\n        /* \"#utility.yul\":8096:8100   */\n      0x1f\n        /* \"#utility.yul\":8088:8094   */\n      dup10\n        /* \"#utility.yul\":8084:8101   */\n      and\n        /* \"#utility.yul\":8073:8082   */\n      dup3\n        /* \"#utility.yul\":8054:8102   */\n      tag_51\n      jump\t// in\n    tag_148:\n        /* \"#utility.yul\":8046:8052   */\n      dup4\n        /* \"#utility.yul\":8039:8103   */\n      sstore\n        /* \"#utility.yul\":7954:8117   */\n      pop\n        /* \"#utility.yul\":7931:8117   */\n    tag_147:\n        /* \"#utility.yul\":8163:8164   */\n      0x01\n        /* \"#utility.yul\":8159:8160   */\n      0x02\n        /* \"#utility.yul\":8151:8157   */\n      dup9\n        /* \"#utility.yul\":8147:8161   */\n      mul\n        /* \"#utility.yul\":8143:8165   */\n      add\n        /* \"#utility.yul\":8137:8141   */\n      dup9\n        /* \"#utility.yul\":8130:8166   */\n      sstore\n        /* \"#utility.yul\":7551:8176   */\n      pop\n      pop\n      pop\n        /* \"#utility.yul\":7514:8422   */\n    tag_139:\n      pop\n        /* \"#utility.yul\":7124:8428   */\n      pop\n      pop\n      pop\n        /* \"#utility.yul\":7025:8428   */\n      pop\n      pop\n      pop\n      jump\t// out\n\n    auxdata: 0xa2646970667358221220a15e25df5db509b59cec3af1210f59435f61bb5536b7c4683fa346c1d19b2ece64736f6c634300080f0033\n}\n",
				"bytecode": {
					"linkReferences": {},
					"object": "608060405234801561001057600080fd5b506105e6806100206000396000f3fe608060405234801561001057600080fd5b50600436106100365760003560e01c80631f1bd6921461003b5780634ed3885e14610059575b600080fd5b610043610075565b60405161005091906101b2565b60405180910390f35b610073600480360381019061006e9190610243565b610103565b005b60008054610082906102bf565b80601f01602080910402602001604051908101604052809291908181526020018280546100ae906102bf565b80156100fb5780601f106100d0576101008083540402835291602001916100fb565b820191906000526020600020905b8154815290600101906020018083116100de57829003601f168201915b505050505081565b8181600091826101149291906104e0565b505050565b600081519050919050565b600082825260208201905092915050565b60005b83811015610153578082015181840152602081019050610138565b83811115610162576000848401525b50505050565b6000601f19601f8301169050919050565b600061018482610119565b61018e8185610124565b935061019e818560208601610135565b6101a781610168565b840191505092915050565b600060208201905081810360008301526101cc8184610179565b905092915050565b600080fd5b600080fd5b600080fd5b600080fd5b600080fd5b60008083601f840112610203576102026101de565b5b8235905067ffffffffffffffff8111156102205761021f6101e3565b5b60208301915083600182028301111561023c5761023b6101e8565b5b9250929050565b6000806020838503121561025a576102596101d4565b5b600083013567ffffffffffffffff811115610278576102776101d9565b5b610284858286016101ed565b92509250509250929050565b7f4e487b7100000000000000000000000000000000000000000000000000000000600052602260045260246000fd5b600060028204905060018216806102d757607f821691505b6020821081036102ea576102e9610290565b5b50919050565b600082905092915050565b7f4e487b7100000000000000000000000000000000000000000000000000000000600052604160045260246000fd5b60008190508160005260206000209050919050565b60006020601f8301049050919050565b600082821b905092915050565b60006008830261038c7fffffffffffffffffffffffffffffffffffffffffffffffffffffffffffffffff8261034f565b610396868361034f565b95508019841693508086168417925050509392505050565b6000819050919050565b6000819050919050565b60006103dd6103d86103d3846103ae565b6103b8565b6103ae565b9050919050565b6000819050919050565b6103f7836103c2565b61040b610403826103e4565b84845461035c565b825550505050565b600090565b610420610413565b61042b8184846103ee565b505050565b5b8181101561044f57610444600082610418565b600181019050610431565b5050565b601f821115610494576104658161032a565b61046e8461033f565b8101602085101561047d578190505b6104916104898561033f565b830182610430565b50505b505050565b600082821c905092915050565b60006104b760001984600802610499565b1980831691505092915050565b60006104d083836104a6565b9150826002028217905092915050565b6104ea83836102f0565b67ffffffffffffffff811115610503576105026102fb565b5b61050d82546102bf565b610518828285610453565b6000601f8311600181146105475760008415610535578287013590505b61053f85826104c4565b8655506105a7565b601f1984166105558661032a565b60005b8281101561057d57848901358255600182019150602085019450602081019050610558565b8683101561059a5784890135610596601f8916826104a6565b8355505b6001600288020188555050505b5050505050505056fea2646970667358221220a15e25df5db509b59cec3af1210f59435f61bb5536b7c4683fa346c1d19b2ece64736f6c634300080f0033",
					"opcodes": "PUSH1 0x80 PUSH1 0x40 MSTORE CALLVALUE DUP1 ISZERO PUSH2 0x10 JUMPI PUSH1 0x0 DUP1 REVERT JUMPDEST POP PUSH2 0x5E6 DUP1 PUSH2 0x20 PUSH1 0x0 CODECOPY PUSH1 0x0 RETURN INVALID PUSH1 0x80 PUSH1 0x40 MSTORE CALLVALUE DUP1 ISZERO PUSH2 0x10 JUMPI PUSH1 0x0 DUP1 REVERT JUMPDEST POP PUSH1 0x4 CALLDATASIZE LT PUSH2 0x36 JUMPI PUSH1 0x0 CALLDATALOAD PUSH1 0xE0 SHR DUP1 PUSH4 0x1F1BD692 EQ PUSH2 0x3B JUMPI DUP1 PUSH4 0x4ED3885E EQ PUSH2 0x59 JUMPI JUMPDEST PUSH1 0x0 DUP1 REVERT JUMPDEST PUSH2 0x43 PUSH2 0x75 JUMP JUMPDEST PUSH1 0x40 MLOAD PUSH2 0x50 SWAP2 SWAP1 PUSH2 0x1B2 JUMP JUMPDEST PUSH1 0x40 MLOAD DUP1 SWAP2 SUB SWAP1 RETURN JUMPDEST PUSH2 0x73 PUSH1 0x4 DUP1 CALLDATASIZE SUB DUP2 ADD SWAP1 PUSH2 0x6E SWAP2 SWAP1 PUSH2 0x243 JUMP JUMPDEST PUSH2 0x103 JUMP JUMPDEST STOP JUMPDEST PUSH1 0x0 DUP1 SLOAD PUSH2 0x82 SWAP1 PUSH2 0x2BF JUMP JUMPDEST DUP1 PUSH1 0x1F ADD PUSH1 0x20 DUP1 SWAP2 DIV MUL PUSH1 0x20 ADD PUSH1 0x40 MLOAD SWAP1 DUP2 ADD PUSH1 0x40 MSTORE DUP1 SWAP3 SWAP2 SWAP1 DUP2 DUP2 MSTORE PUSH1 0x20 ADD DUP3 DUP1 SLOAD PUSH2 0xAE SWAP1 PUSH2 0x2BF JUMP JUMPDEST DUP1 ISZERO PUSH2 0xFB JUMPI DUP1 PUSH1 0x1F LT PUSH2 0xD0 JUMPI PUSH2 0x100 DUP1 DUP4 SLOAD DIV MUL DUP4 MSTORE SWAP2 PUSH1 0x20 ADD SWAP2 PUSH2 0xFB JUMP JUMPDEST DUP3 ADD SWAP2 SWAP1 PUSH1 0x0 MSTORE PUSH1 0x20 PUSH1 0x0 KECCAK256 SWAP1 JUMPDEST DUP2 SLOAD DUP2 MSTORE SWAP1 PUSH1 0x1 ADD SWAP1 PUSH1 0x20 ADD DUP1 DUP4 GT PUSH2 0xDE JUMPI DUP3 SWAP1 SUB PUSH1 0x1F AND DUP3 ADD SWAP2 JUMPDEST POP POP POP POP POP DUP2 JUMP JUMPDEST DUP2 DUP2 PUSH1 0x0 SWAP2 DUP3 PUSH2 0x114 SWAP3 SWAP2 SWAP1 PUSH2 0x4E0 JUMP JUMPDEST POP POP POP JUMP JUMPDEST PUSH1 0x0 DUP2 MLOAD SWAP1 POP SWAP2 SWAP1 POP JUMP JUMPDEST PUSH1 0x0 DUP3 DUP3 MSTORE PUSH1 0x20 DUP3 ADD SWAP1 POP SWAP3 SWAP2 POP POP JUMP JUMPDEST PUSH1 0x0 JUMPDEST DUP4 DUP2 LT ISZERO PUSH2 0x153 JUMPI DUP1 DUP3 ADD MLOAD DUP2 DUP5 ADD MSTORE PUSH1 0x20 DUP2 ADD SWAP1 POP PUSH2 0x138 JUMP JUMPDEST DUP4 DUP2 GT ISZERO PUSH2 0x162 JUMPI PUSH1 0x0 DUP5 DUP5 ADD MSTORE JUMPDEST POP POP POP POP JUMP JUMPDEST PUSH1 0x0 PUSH1 0x1F NOT PUSH1 0x1F DUP4 ADD AND SWAP1 POP SWAP2 SWAP1 POP JUMP JUMPDEST PUSH1 0x0 PUSH2 0x184 DUP3 PUSH2 0x119 JUMP JUMPDEST PUSH2 0x18E DUP2 DUP6 PUSH2 0x124 JUMP JUMPDEST SWAP4 POP PUSH2 0x19E DUP2 DUP6 PUSH1 0x20 DUP7 ADD PUSH2 0x135 JUMP JUMPDEST PUSH2 0x1A7 DUP2 PUSH2 0x168 JUMP JUMPDEST DUP5 ADD SWAP2 POP POP SWAP3 SWAP2 POP POP JUMP JUMPDEST PUSH1 0x0 PUSH1 0x20 DUP3 ADD SWAP1 POP DUP2 DUP2 SUB PUSH1 0x0 DUP4 ADD MSTORE PUSH2 0x1CC DUP2 DUP5 PUSH2 0x179 JUMP JUMPDEST SWAP1 POP SWAP3 SWAP2 POP POP JUMP JUMPDEST PUSH1 0x0 DUP1 REVERT JUMPDEST PUSH1 0x0 DUP1 REVERT JUMPDEST PUSH1 0x0 DUP1 REVERT JUMPDEST PUSH1 0x0 DUP1 REVERT JUMPDEST PUSH1 0x0 DUP1 REVERT JUMPDEST PUSH1 0x0 DUP1 DUP4 PUSH1 0x1F DUP5 ADD SLT PUSH2 0x203 JUMPI PUSH2 0x202 PUSH2 0x1DE JUMP JUMPDEST JUMPDEST DUP3 CALLDATALOAD SWAP1 POP PUSH8 0xFFFFFFFFFFFFFFFF DUP2 GT ISZERO PUSH2 0x220 JUMPI PUSH2 0x21F PUSH2 0x1E3 JUMP JUMPDEST JUMPDEST PUSH1 0x20 DUP4 ADD SWAP2 POP DUP4 PUSH1 0x1 DUP3 MUL DUP4 ADD GT ISZERO PUSH2 0x23C JUMPI PUSH2 0x23B PUSH2 0x1E8 JUMP JUMPDEST JUMPDEST SWAP3 POP SWAP3 SWAP1 POP JUMP JUMPDEST PUSH1 0x0 DUP1 PUSH1 0x20 DUP4 DUP6 SUB SLT ISZERO PUSH2 0x25A JUMPI PUSH2 0x259 PUSH2 0x1D4 JUMP JUMPDEST JUMPDEST PUSH1 0x0 DUP4 ADD CALLDATALOAD PUSH8 0xFFFFFFFFFFFFFFFF DUP2 GT ISZERO PUSH2 0x278 JUMPI PUSH2 0x277 PUSH2 0x1D9 JUMP JUMPDEST JUMPDEST PUSH2 0x284 DUP6 DUP3 DUP7 ADD PUSH2 0x1ED JUMP JUMPDEST SWAP3 POP SWAP3 POP POP SWAP3 POP SWAP3 SWAP1 POP JUMP JUMPDEST PUSH32 0x4E487B7100000000000000000000000000000000000000000000000000000000 PUSH1 0x0 MSTORE PUSH1 0x22 PUSH1 0x4 MSTORE PUSH1 0x24 PUSH1 0x0 REVERT JUMPDEST PUSH1 0x0 PUSH1 0x2 DUP3 DIV SWAP1 POP PUSH1 0x1 DUP3 AND DUP1 PUSH2 0x2D7 JUMPI PUSH1 0x7F DUP3 AND SWAP2 POP JUMPDEST PUSH1 0x20 DUP3 LT DUP2 SUB PUSH2 0x2EA JUMPI PUSH2 0x2E9 PUSH2 0x290 JUMP JUMPDEST JUMPDEST POP SWAP2 SWAP1 POP JUMP JUMPDEST PUSH1 0x0 DUP3 SWAP1 POP SWAP3 SWAP2 POP POP JUMP JUMPDEST PUSH32 0x4E487B7100000000000000000000000000000000000000000000000000000000 PUSH1 0x0 MSTORE PUSH1 0x41 PUSH1 0x4 MSTORE PUSH1 0x24 PUSH1 0x0 REVERT JUMPDEST PUSH1 0x0 DUP2 SWAP1 POP DUP2 PUSH1 0x0 MSTORE PUSH1 0x20 PUSH1 0x0 KECCAK256 SWAP1 POP SWAP2 SWAP1 POP JUMP JUMPDEST PUSH1 0x0 PUSH1 0x20 PUSH1 0x1F DUP4 ADD DIV SWAP1 POP SWAP2 SWAP1 POP JUMP JUMPDEST PUSH1 0x0 DUP3 DUP3 SHL SWAP1 POP SWAP3 SWAP2 POP POP JUMP JUMPDEST PUSH1 0x0 PUSH1 0x8 DUP4 MUL PUSH2 0x38C PUSH32 0xFFFFFFFFFFFFFFFFFFFFFFFFFFFFFFFFFFFFFFFFFFFFFFFFFFFFFFFFFFFFFFFF DUP3 PUSH2 0x34F JUMP JUMPDEST PUSH2 0x396 DUP7 DUP4 PUSH2 0x34F JUMP JUMPDEST SWAP6 POP DUP1 NOT DUP5 AND SWAP4 POP DUP1 DUP7 AND DUP5 OR SWAP3 POP POP POP SWAP4 SWAP3 POP POP POP JUMP JUMPDEST PUSH1 0x0 DUP2 SWAP1 POP SWAP2 SWAP1 POP JUMP JUMPDEST PUSH1 0x0 DUP2 SWAP1 POP SWAP2 SWAP1 POP JUMP JUMPDEST PUSH1 0x0 PUSH2 0x3DD PUSH2 0x3D8 PUSH2 0x3D3 DUP5 PUSH2 0x3AE JUMP JUMPDEST PUSH2 0x3B8 JUMP JUMPDEST PUSH2 0x3AE JUMP JUMPDEST SWAP1 POP SWAP2 SWAP1 POP JUMP JUMPDEST PUSH1 0x0 DUP2 SWAP1 POP SWAP2 SWAP1 POP JUMP JUMPDEST PUSH2 0x3F7 DUP4 PUSH2 0x3C2 JUMP JUMPDEST PUSH2 0x40B PUSH2 0x403 DUP3 PUSH2 0x3E4 JUMP JUMPDEST DUP5 DUP5 SLOAD PUSH2 0x35C JUMP JUMPDEST DUP3 SSTORE POP POP POP POP JUMP JUMPDEST PUSH1 0x0 SWAP1 JUMP JUMPDEST PUSH2 0x420 PUSH2 0x413 JUMP JUMPDEST PUSH2 0x42B DUP2 DUP5 DUP5 PUSH2 0x3EE JUMP JUMPDEST POP POP POP JUMP JUMPDEST JUMPDEST DUP2 DUP2 LT ISZERO PUSH2 0x44F JUMPI PUSH2 0x444 PUSH1 0x0 DUP3 PUSH2 0x418 JUMP JUMPDEST PUSH1 0x1 DUP2 ADD SWAP1 POP PUSH2 0x431 JUMP JUMPDEST POP POP JUMP JUMPDEST PUSH1 0x1F DUP3 GT ISZERO PUSH2 0x494 JUMPI PUSH2 0x465 DUP2 PUSH2 0x32A JUMP JUMPDEST PUSH2 0x46E DUP5 PUSH2 0x33F JUMP JUMPDEST DUP2 ADD PUSH1 0x20 DUP6 LT ISZERO PUSH2 0x47D JUMPI DUP2 SWAP1 POP JUMPDEST PUSH2 0x491 PUSH2 0x489 DUP6 PUSH2 0x33F JUMP JUMPDEST DUP4 ADD DUP3 PUSH2 0x430 JUMP JUMPDEST POP POP JUMPDEST POP POP POP JUMP JUMPDEST PUSH1 0x0 DUP3 DUP3 SHR SWAP1 POP SWAP3 SWAP2 POP POP JUMP JUMPDEST PUSH1 0x0 PUSH2 0x4B7 PUSH1 0x0 NOT DUP5 PUSH1 0x8 MUL PUSH2 0x499 JUMP JUMPDEST NOT DUP1 DUP4 AND SWAP2 POP POP SWAP3 SWAP2 POP POP JUMP JUMPDEST PUSH1 0x0 PUSH2 0x4D0 DUP4 DUP4 PUSH2 0x4A6 JUMP JUMPDEST SWAP2 POP DUP3 PUSH1 0x2 MUL DUP3 OR SWAP1 POP SWAP3 SWAP2 POP POP JUMP JUMPDEST PUSH2 0x4EA DUP4 DUP4 PUSH2 0x2F0 JUMP JUMPDEST PUSH8 0xFFFFFFFFFFFFFFFF DUP2 GT ISZERO PUSH2 0x503 JUMPI PUSH2 0x502 PUSH2 0x2FB JUMP JUMPDEST JUMPDEST PUSH2 0x50D DUP3 SLOAD PUSH2 0x2BF JUMP JUMPDEST PUSH2 0x518 DUP3 DUP3 DUP6 PUSH2 0x453 JUMP JUMPDEST PUSH1 0x0 PUSH1 0x1F DUP4 GT PUSH1 0x1 DUP2 EQ PUSH2 0x547 JUMPI PUSH1 0x0 DUP5 ISZERO PUSH2 0x535 JUMPI DUP3 DUP8 ADD CALLDATALOAD SWAP1 POP JUMPDEST PUSH2 0x53F DUP6 DUP3 PUSH2 0x4C4 JUMP JUMPDEST DUP7 SSTORE POP PUSH2 0x5A7 JUMP JUMPDEST PUSH1 0x1F NOT DUP5 AND PUSH2 0x555 DUP7 PUSH2 0x32A JUMP JUMPDEST PUSH1 0x0 JUMPDEST DUP3 DUP2 LT ISZERO PUSH2 0x57D JUMPI DUP5 DUP10 ADD CALLDATALOAD DUP3 SSTORE PUSH1 0x1 DUP3 ADD SWAP2 POP PUSH1 0x20 DUP6 ADD SWAP5 POP PUSH1 0x20 DUP2 ADD SWAP1 POP PUSH2 0x558 JUMP JUMPDEST DUP7 DUP4 LT ISZERO PUSH2 0x59A JUMPI DUP5 DUP10 ADD CALLDATALOAD PUSH2 0x596 PUSH1 0x1F DUP10 AND DUP3 PUSH2 0x4A6 JUMP JUMPDEST DUP4 SSTORE POP JUMPDEST PUSH1 0x1 PUSH1 0x2 DUP9 MUL ADD DUP9 SSTORE POP POP POP JUMPDEST POP POP POP POP POP POP POP JUMP INVALID LOG2 PUSH5 0x6970667358 0x22 SLT KECCAK256 LOG1 0x5E 0x25 0xDF 0x5D 0xB5 MULMOD 0xB5 SWAP13 0xEC GASPRICE CALL 0x21 0xF MSIZE NUMBER 0x5F PUSH2 0xBB55 CALLDATASIZE 0xB7 0xC4 PUSH9 0x3FA346C1D19B2ECE64 PUSH20 0x6F6C634300080F00330000000000000000000000 "
				},
				"gasEstimates": {
					"creation": {
						"codeDepositCost": "302000",
						"executionCost": "343",
						"totalCost": "302343"
					},
					"external": {
						"set(string)": "infinite",
						"text()": "infinite"
					}
				},
				"methodIdentifiers": {
					"set(string)": "4ed3885e",
					"text()": "1f1bd692"
				}
			},
			"storageLayout": {
				"storage": [
					{
						"astId": 3,
						"contract": "HelloWorld/27SimpleStorage.sol:SimpleStorage",
						"label": "text",
						"offset": 0,
						"slot": "0",
						"type": "t_string_storage"
					}
				],
				"types": {
					"t_string_storage": {
						"encoding": "bytes",
						"label": "string",
						"numberOfBytes": "32"
					}
				}
			},
			"userdoc": {
				"kind": "user",
				"methods": {},
				"version": 1
			}
		}
	}
}