{
	"HelloWorld/28TodoList.sol": {
		"TodoList": {
			"abi": [
				{
					"inputs": [
						{
							"internalType": "string",
							"name": "_text",
							"type": "string"
						}
					],
					"name": "create",
					"outputs": [],
					"stateMutability": "nonpayable",
					"type": "function"
				},
				{
					"inputs": [
						{
							"internalType": "uint256",
							"name": "_index",
							"type": "uint256"
						}
					],
					"name": "get",
					"outputs": [
						{
							"internalType": "string",
							"name": "",
							"type": "string"
						},
						{
							"internalType": "bool",
							"name": "",
							"type": "bool"
						}
					],
					"stateMutability": "view",
					"type": "function"
				},
				{
					"inputs": [
						{
							"internalType": "uint256",
							"name": "",
							"type": "uint256"
						}
					],
					"name": "todos",
					"outputs": [
						{
							"internalType": "string",
							"name": "text",
							"type": "string"
						},
						{
							"internalType": "bool",
							"name": "completed",
							"type": "bool"
						}
					],
					"stateMutability": "view",
					"type": "function"
				},
				{
					"inputs": [
						{
							"internalType": "uint256",
							"name": "_index",
							"type": "uint256"
						},
						{
							"internalType": "string",
							"name": "_text",
							"type": "string"
						}
					],
					"name": "updateText",
					"outputs": [],
					"stateMutability": "nonpayable",
					"type": "function"
				}
			],
			"devdoc": {
				"kind": "dev",
				"methods": {},
				"version": 1
			},
			"evm": {
				"assembly": "    /* \"HelloWorld/28TodoList.sol\":58:536  contract TodoList {... */\n  mstore(0x40, 0x80)\n  callvalue\n  dup1\n  iszero\n  tag_1\n  jumpi\n  0x00\n  dup1\n  revert\ntag_1:\n  pop\n  dataSize(sub_0)\n  dup1\n  dataOffset(sub_0)\n  0x00\n  codecopy\n  0x00\n  return\nstop\n\nsub_0: assembly {\n        /* \"HelloWorld/28TodoList.sol\":58:536  contract TodoList {... */\n      mstore(0x40, 0x80)\n      callvalue\n      dup1\n      iszero\n      tag_1\n      jumpi\n      0x00\n      dup1\n      revert\n    tag_1:\n      pop\n      jumpi(tag_2, lt(calldatasize, 0x04))\n      shr(0xe0, calldataload(0x00))\n      dup1\n      0x9507d39a\n      eq\n      tag_3\n      jumpi\n      dup1\n      0xb6a46b3b\n      eq\n      tag_4\n      jumpi\n      dup1\n      0xbc8bc2b4\n      eq\n      tag_5\n      jumpi\n      dup1\n      0xcd111614\n      eq\n      tag_6\n      jumpi\n    tag_2:\n      0x00\n      dup1\n      revert\n        /* \"HelloWorld/28TodoList.sol\":447:533  function get(uint _index) external view returns (string memory, bool) {... */\n    tag_3:\n      tag_7\n      0x04\n      dup1\n      calldatasize\n      sub\n      dup2\n      add\n      swap1\n      tag_8\n      swap2\n      swap1\n      tag_9\n      jump\t// in\n    tag_8:\n      tag_10\n      jump\t// in\n    tag_7:\n      mload(0x40)\n      tag_11\n      swap3\n      swap2\n      swap1\n      tag_12\n      jump\t// in\n    tag_11:\n      mload(0x40)\n      dup1\n      swap2\n      sub\n      swap1\n      return\n        /* \"HelloWorld/28TodoList.sol\":178:326  function create(string calldata _text) external {... */\n    tag_4:\n      tag_13\n      0x04\n      dup1\n      calldatasize\n      sub\n      dup2\n      add\n      swap1\n      tag_14\n      swap2\n      swap1\n      tag_15\n      jump\t// in\n    tag_14:\n      tag_16\n      jump\t// in\n    tag_13:\n      stop\n        /* \"HelloWorld/28TodoList.sol\":152:171  Todo[] public todos */\n    tag_5:\n      tag_17\n      0x04\n      dup1\n      calldatasize\n      sub\n      dup2\n      add\n      swap1\n      tag_18\n      swap2\n      swap1\n      tag_9\n      jump\t// in\n    tag_18:\n      tag_19\n      jump\t// in\n    tag_17:\n      mload(0x40)\n      tag_20\n      swap3\n      swap2\n      swap1\n      tag_12\n      jump\t// in\n    tag_20:\n      mload(0x40)\n      dup1\n      swap2\n      sub\n      swap1\n      return\n        /* \"HelloWorld/28TodoList.sol\":332:440  function updateText(uint _index, string calldata _text) external {... */\n    tag_6:\n      tag_21\n      0x04\n      dup1\n      calldatasize\n      sub\n      dup2\n      add\n      swap1\n      tag_22\n      swap2\n      swap1\n      tag_23\n      jump\t// in\n    tag_22:\n      tag_24\n      jump\t// in\n    tag_21:\n      stop\n        /* \"HelloWorld/28TodoList.sol\":447:533  function get(uint _index) external view returns (string memory, bool) {... */\n    tag_10:\n        /* \"HelloWorld/28TodoList.sol\":496:509  string memory */\n      0x60\n        /* \"HelloWorld/28TodoList.sol\":511:515  bool */\n      0x00\n        /* \"HelloWorld/28TodoList.sol\":447:533  function get(uint _index) external view returns (string memory, bool) {... */\n      swap2\n      pop\n      swap2\n      jump\t// out\n        /* \"HelloWorld/28TodoList.sol\":178:326  function create(string calldata _text) external {... */\n    tag_16:\n        /* \"HelloWorld/28TodoList.sol\":236:241  todos */\n      0x00\n        /* \"HelloWorld/28TodoList.sol\":247:318  Todo({... */\n      mload(0x40)\n      dup1\n      0x40\n      add\n      0x40\n      mstore\n      dup1\n        /* \"HelloWorld/28TodoList.sol\":272:277  _text */\n      dup5\n      dup5\n        /* \"HelloWorld/28TodoList.sol\":247:318  Todo({... */\n      dup1\n      dup1\n      0x1f\n      add\n      0x20\n      dup1\n      swap2\n      div\n      mul\n      0x20\n      add\n      mload(0x40)\n      swap1\n      dup2\n      add\n      0x40\n      mstore\n      dup1\n      swap4\n      swap3\n      swap2\n      swap1\n      dup2\n      dup2\n      mstore\n      0x20\n      add\n      dup4\n      dup4\n      dup1\n      dup3\n      dup5\n      calldatacopy\n      0x00\n      dup2\n      dup5\n      add\n      mstore\n      not(0x1f)\n      0x1f\n      dup3\n      add\n      and\n      swap1\n      pop\n      dup1\n      dup4\n      add\n      swap3\n      pop\n      pop\n      pop\n      pop\n      pop\n      pop\n      pop\n      dup2\n      mstore\n      0x20\n      add\n        /* \"HelloWorld/28TodoList.sol\":302:307  false */\n      0x00\n        /* \"HelloWorld/28TodoList.sol\":247:318  Todo({... */\n      iszero\n      iszero\n      dup2\n      mstore\n      pop\n        /* \"HelloWorld/28TodoList.sol\":236:319  todos.push(Todo({... */\n      swap1\n      dup1\n      0x01\n      dup2\n      sload\n      add\n      dup1\n      dup3\n      sstore\n      dup1\n      swap2\n      pop\n      pop\n      0x01\n      swap1\n      sub\n      swap1\n      0x00\n      mstore\n      keccak256(0x00, 0x20)\n      swap1\n      0x02\n      mul\n      add\n      0x00\n      swap1\n      swap2\n      swap1\n      swap2\n      swap1\n      swap2\n      pop\n      0x00\n      dup3\n      add\n      mload\n      dup2\n      0x00\n      add\n      swap1\n      dup2\n      tag_28\n      swap2\n      swap1\n      tag_29\n      jump\t// in\n    tag_28:\n      pop\n      0x20\n      dup3\n      add\n      mload\n      dup2\n      0x01\n      add\n      exp(0x0100, 0x00)\n      dup2\n      sload\n      dup2\n      0xff\n      mul\n      not\n      and\n      swap1\n      dup4\n      iszero\n      iszero\n      mul\n      or\n      swap1\n      sstore\n      pop\n      pop\n      pop\n        /* \"HelloWorld/28TodoList.sol\":178:326  function create(string calldata _text) external {... */\n      pop\n      pop\n      jump\t// out\n        /* \"HelloWorld/28TodoList.sol\":152:171  Todo[] public todos */\n    tag_19:\n      0x00\n      dup2\n      dup2\n      sload\n      dup2\n      lt\n      tag_30\n      jumpi\n      0x00\n      dup1\n      revert\n    tag_30:\n      swap1\n      0x00\n      mstore\n      keccak256(0x00, 0x20)\n      swap1\n      0x02\n      mul\n      add\n      0x00\n      swap2\n      pop\n      swap1\n      pop\n      dup1\n      0x00\n      add\n      dup1\n      sload\n      tag_32\n      swap1\n      tag_33\n      jump\t// in\n    tag_32:\n      dup1\n      0x1f\n      add\n      0x20\n      dup1\n      swap2\n      div\n      mul\n      0x20\n      add\n      mload(0x40)\n      swap1\n      dup2\n      add\n      0x40\n      mstore\n      dup1\n      swap3\n      swap2\n      swap1\n      dup2\n      dup2\n      mstore\n      0x20\n      add\n      dup3\n      dup1\n      sload\n      tag_34\n      swap1\n      tag_33\n      jump\t// in\n    tag_34:\n      dup1\n      iszero\n      tag_35\n      jumpi\n      dup1\n      0x1f\n      lt\n      tag_36\n      jumpi\n      0x0100\n      dup1\n      dup4\n      sload\n      div\n      mul\n      dup4\n      mstore\n      swap2\n      0x20\n      add\n      swap2\n      jump(tag_35)\n    tag_36:\n      dup3\n      add\n      swap2\n      swap1\n      0x00\n      mstore\n      keccak256(0x00, 0x20)\n      swap1\n    tag_37:\n      dup2\n      sload\n      dup2\n      mstore\n      swap1\n      0x01\n      add\n      swap1\n      0x20\n      add\n      dup1\n      dup4\n      gt\n      tag_37\n      jumpi\n      dup3\n      swap1\n      sub\n      0x1f\n      and\n      dup3\n      add\n      swap2\n    tag_35:\n      pop\n      pop\n      pop\n      pop\n      pop\n      swap1\n      dup1\n      0x01\n      add\n      0x00\n      swap1\n      sload\n      swap1\n      0x0100\n      exp\n      swap1\n      div\n      0xff\n      and\n      swap1\n      pop\n      dup3\n      jump\t// out\n        /* \"HelloWorld/28TodoList.sol\":332:440  function updateText(uint _index, string calldata _text) external {... */\n    tag_24:\n        /* \"HelloWorld/28TodoList.sol\":428:433  _text */\n      dup2\n      dup2\n        /* \"HelloWorld/28TodoList.sol\":407:412  todos */\n      0x00\n        /* \"HelloWorld/28TodoList.sol\":413:419  _index */\n      dup6\n        /* \"HelloWorld/28TodoList.sol\":407:420  todos[_index] */\n      dup2\n      sload\n      dup2\n      lt\n      tag_39\n      jumpi\n      tag_40\n      tag_41\n      jump\t// in\n    tag_40:\n    tag_39:\n      swap1\n      0x00\n      mstore\n      keccak256(0x00, 0x20)\n      swap1\n      0x02\n      mul\n      add\n        /* \"HelloWorld/28TodoList.sol\":407:425  todos[_index].text */\n      0x00\n      add\n        /* \"HelloWorld/28TodoList.sol\":407:433  todos[_index].text = _text */\n      swap2\n      dup3\n      tag_43\n      swap3\n      swap2\n      swap1\n      tag_44\n      jump\t// in\n    tag_43:\n      pop\n        /* \"HelloWorld/28TodoList.sol\":332:440  function updateText(uint _index, string calldata _text) external {... */\n      pop\n      pop\n      pop\n      jump\t// out\n        /* \"#utility.yul\":88:205   */\n    tag_46:\n        /* \"#utility.yul\":197:198   */\n      0x00\n        /* \"#utility.yul\":194:195   */\n      dup1\n        /* \"#utility.yul\":187:199   */\n      revert\n        /* \"#utility.yul\":211:328   */\n    tag_47:\n        /* \"#utility.yul\":320:321   */\n      0x00\n        /* \"#utility.yul\":317:318   */\n      dup1\n        /* \"#utility.yul\":310:322   */\n      revert\n        /* \"#utility.yul\":334:411   */\n    tag_48:\n        /* \"#utility.yul\":371:378   */\n      0x00\n        /* \"#utility.yul\":400:405   */\n      dup2\n        /* \"#utility.yul\":389:405   */\n      swap1\n      pop\n        /* \"#utility.yul\":334:411   */\n      swap2\n      swap1\n      pop\n      jump\t// out\n        /* \"#utility.yul\":417:539   */\n    tag_49:\n        /* \"#utility.yul\":490:514   */\n      tag_86\n        /* \"#utility.yul\":508:513   */\n      dup2\n        /* \"#utility.yul\":490:514   */\n      tag_48\n      jump\t// in\n    tag_86:\n        /* \"#utility.yul\":483:488   */\n      dup2\n        /* \"#utility.yul\":480:515   */\n      eq\n        /* \"#utility.yul\":470:533   */\n      tag_87\n      jumpi\n        /* \"#utility.yul\":529:530   */\n      0x00\n        /* \"#utility.yul\":526:527   */\n      dup1\n        /* \"#utility.yul\":519:531   */\n      revert\n        /* \"#utility.yul\":470:533   */\n    tag_87:\n        /* \"#utility.yul\":417:539   */\n      pop\n      jump\t// out\n        /* \"#utility.yul\":545:684   */\n    tag_50:\n        /* \"#utility.yul\":591:596   */\n      0x00\n        /* \"#utility.yul\":629:635   */\n      dup2\n        /* \"#utility.yul\":616:636   */\n      calldataload\n        /* \"#utility.yul\":607:636   */\n      swap1\n      pop\n        /* \"#utility.yul\":645:678   */\n      tag_89\n        /* \"#utility.yul\":672:677   */\n      dup2\n        /* \"#utility.yul\":645:678   */\n      tag_49\n      jump\t// in\n    tag_89:\n        /* \"#utility.yul\":545:684   */\n      swap3\n      swap2\n      pop\n      pop\n      jump\t// out\n        /* \"#utility.yul\":690:1019   */\n    tag_9:\n        /* \"#utility.yul\":749:755   */\n      0x00\n        /* \"#utility.yul\":798:800   */\n      0x20\n        /* \"#utility.yul\":786:795   */\n      dup3\n        /* \"#utility.yul\":777:784   */\n      dup5\n        /* \"#utility.yul\":773:796   */\n      sub\n        /* \"#utility.yul\":769:801   */\n      slt\n        /* \"#utility.yul\":766:885   */\n      iszero\n      tag_91\n      jumpi\n        /* \"#utility.yul\":804:883   */\n      tag_92\n      tag_46\n      jump\t// in\n    tag_92:\n        /* \"#utility.yul\":766:885   */\n    tag_91:\n        /* \"#utility.yul\":924:925   */\n      0x00\n        /* \"#utility.yul\":949:1002   */\n      tag_93\n        /* \"#utility.yul\":994:1001   */\n      dup5\n        /* \"#utility.yul\":985:991   */\n      dup3\n        /* \"#utility.yul\":974:983   */\n      dup6\n        /* \"#utility.yul\":970:992   */\n      add\n        /* \"#utility.yul\":949:1002   */\n      tag_50\n      jump\t// in\n    tag_93:\n        /* \"#utility.yul\":939:1002   */\n      swap2\n      pop\n        /* \"#utility.yul\":895:1012   */\n      pop\n        /* \"#utility.yul\":690:1019   */\n      swap3\n      swap2\n      pop\n      pop\n      jump\t// out\n        /* \"#utility.yul\":1025:1124   */\n    tag_51:\n        /* \"#utility.yul\":1077:1083   */\n      0x00\n        /* \"#utility.yul\":1111:1116   */\n      dup2\n        /* \"#utility.yul\":1105:1117   */\n      mload\n        /* \"#utility.yul\":1095:1117   */\n      swap1\n      pop\n        /* \"#utility.yul\":1025:1124   */\n      swap2\n      swap1\n      pop\n      jump\t// out\n        /* \"#utility.yul\":1130:1299   */\n    tag_52:\n        /* \"#utility.yul\":1214:1225   */\n      0x00\n        /* \"#utility.yul\":1248:1254   */\n      dup3\n        /* \"#utility.yul\":1243:1246   */\n      dup3\n        /* \"#utility.yul\":1236:1255   */\n      mstore\n        /* \"#utility.yul\":1288:1292   */\n      0x20\n        /* \"#utility.yul\":1283:1286   */\n      dup3\n        /* \"#utility.yul\":1279:1293   */\n      add\n        /* \"#utility.yul\":1264:1293   */\n      swap1\n      pop\n        /* \"#utility.yul\":1130:1299   */\n      swap3\n      swap2\n      pop\n      pop\n      jump\t// out\n        /* \"#utility.yul\":1305:1612   */\n    tag_53:\n        /* \"#utility.yul\":1373:1374   */\n      0x00\n        /* \"#utility.yul\":1383:1496   */\n    tag_97:\n        /* \"#utility.yul\":1397:1403   */\n      dup4\n        /* \"#utility.yul\":1394:1395   */\n      dup2\n        /* \"#utility.yul\":1391:1404   */\n      lt\n        /* \"#utility.yul\":1383:1496   */\n      iszero\n      tag_99\n      jumpi\n        /* \"#utility.yul\":1482:1483   */\n      dup1\n        /* \"#utility.yul\":1477:1480   */\n      dup3\n        /* \"#utility.yul\":1473:1484   */\n      add\n        /* \"#utility.yul\":1467:1485   */\n      mload\n        /* \"#utility.yul\":1463:1464   */\n      dup2\n        /* \"#utility.yul\":1458:1461   */\n      dup5\n        /* \"#utility.yul\":1454:1465   */\n      add\n        /* \"#utility.yul\":1447:1486   */\n      mstore\n        /* \"#utility.yul\":1419:1421   */\n      0x20\n        /* \"#utility.yul\":1416:1417   */\n      dup2\n        /* \"#utility.yul\":1412:1422   */\n      add\n        /* \"#utility.yul\":1407:1422   */\n      swap1\n      pop\n        /* \"#utility.yul\":1383:1496   */\n      jump(tag_97)\n    tag_99:\n        /* \"#utility.yul\":1514:1520   */\n      dup4\n        /* \"#utility.yul\":1511:1512   */\n      dup2\n        /* \"#utility.yul\":1508:1521   */\n      gt\n        /* \"#utility.yul\":1505:1606   */\n      iszero\n      tag_100\n      jumpi\n        /* \"#utility.yul\":1594:1595   */\n      0x00\n        /* \"#utility.yul\":1585:1591   */\n      dup5\n        /* \"#utility.yul\":1580:1583   */\n      dup5\n        /* \"#utility.yul\":1576:1592   */\n      add\n        /* \"#utility.yul\":1569:1596   */\n      mstore\n        /* \"#utility.yul\":1505:1606   */\n    tag_100:\n        /* \"#utility.yul\":1354:1612   */\n      pop\n        /* \"#utility.yul\":1305:1612   */\n      pop\n      pop\n      pop\n      jump\t// out\n        /* \"#utility.yul\":1618:1720   */\n    tag_54:\n        /* \"#utility.yul\":1659:1665   */\n      0x00\n        /* \"#utility.yul\":1710:1712   */\n      0x1f\n        /* \"#utility.yul\":1706:1713   */\n      not\n        /* \"#utility.yul\":1701:1703   */\n      0x1f\n        /* \"#utility.yul\":1694:1699   */\n      dup4\n        /* \"#utility.yul\":1690:1704   */\n      add\n        /* \"#utility.yul\":1686:1714   */\n      and\n        /* \"#utility.yul\":1676:1714   */\n      swap1\n      pop\n        /* \"#utility.yul\":1618:1720   */\n      swap2\n      swap1\n      pop\n      jump\t// out\n        /* \"#utility.yul\":1726:2090   */\n    tag_55:\n        /* \"#utility.yul\":1814:1817   */\n      0x00\n        /* \"#utility.yul\":1842:1881   */\n      tag_103\n        /* \"#utility.yul\":1875:1880   */\n      dup3\n        /* \"#utility.yul\":1842:1881   */\n      tag_51\n      jump\t// in\n    tag_103:\n        /* \"#utility.yul\":1897:1968   */\n      tag_104\n        /* \"#utility.yul\":1961:1967   */\n      dup2\n        /* \"#utility.yul\":1956:1959   */\n      dup6\n        /* \"#utility.yul\":1897:1968   */\n      tag_52\n      jump\t// in\n    tag_104:\n        /* \"#utility.yul\":1890:1968   */\n      swap4\n      pop\n        /* \"#utility.yul\":1977:2029   */\n      tag_105\n        /* \"#utility.yul\":2022:2028   */\n      dup2\n        /* \"#utility.yul\":2017:2020   */\n      dup6\n        /* \"#utility.yul\":2010:2014   */\n      0x20\n        /* \"#utility.yul\":2003:2008   */\n      dup7\n        /* \"#utility.yul\":1999:2015   */\n      add\n        /* \"#utility.yul\":1977:2029   */\n      tag_53\n      jump\t// in\n    tag_105:\n        /* \"#utility.yul\":2054:2083   */\n      tag_106\n        /* \"#utility.yul\":2076:2082   */\n      dup2\n        /* \"#utility.yul\":2054:2083   */\n      tag_54\n      jump\t// in\n    tag_106:\n        /* \"#utility.yul\":2049:2052   */\n      dup5\n        /* \"#utility.yul\":2045:2084   */\n      add\n        /* \"#utility.yul\":2038:2084   */\n      swap2\n      pop\n        /* \"#utility.yul\":1818:2090   */\n      pop\n        /* \"#utility.yul\":1726:2090   */\n      swap3\n      swap2\n      pop\n      pop\n      jump\t// out\n        /* \"#utility.yul\":2096:2186   */\n    tag_56:\n        /* \"#utility.yul\":2130:2137   */\n      0x00\n        /* \"#utility.yul\":2173:2178   */\n      dup2\n        /* \"#utility.yul\":2166:2179   */\n      iszero\n        /* \"#utility.yul\":2159:2180   */\n      iszero\n        /* \"#utility.yul\":2148:2180   */\n      swap1\n      pop\n        /* \"#utility.yul\":2096:2186   */\n      swap2\n      swap1\n      pop\n      jump\t// out\n        /* \"#utility.yul\":2192:2301   */\n    tag_57:\n        /* \"#utility.yul\":2273:2294   */\n      tag_109\n        /* \"#utility.yul\":2288:2293   */\n      dup2\n        /* \"#utility.yul\":2273:2294   */\n      tag_56\n      jump\t// in\n    tag_109:\n        /* \"#utility.yul\":2268:2271   */\n      dup3\n        /* \"#utility.yul\":2261:2295   */\n      mstore\n        /* \"#utility.yul\":2192:2301   */\n      pop\n      pop\n      jump\t// out\n        /* \"#utility.yul\":2307:2718   */\n    tag_12:\n        /* \"#utility.yul\":2442:2446   */\n      0x00\n        /* \"#utility.yul\":2480:2482   */\n      0x40\n        /* \"#utility.yul\":2469:2478   */\n      dup3\n        /* \"#utility.yul\":2465:2483   */\n      add\n        /* \"#utility.yul\":2457:2483   */\n      swap1\n      pop\n        /* \"#utility.yul\":2529:2538   */\n      dup2\n        /* \"#utility.yul\":2523:2527   */\n      dup2\n        /* \"#utility.yul\":2519:2539   */\n      sub\n        /* \"#utility.yul\":2515:2516   */\n      0x00\n        /* \"#utility.yul\":2504:2513   */\n      dup4\n        /* \"#utility.yul\":2500:2517   */\n      add\n        /* \"#utility.yul\":2493:2540   */\n      mstore\n        /* \"#utility.yul\":2557:2635   */\n      tag_111\n        /* \"#utility.yul\":2630:2634   */\n      dup2\n        /* \"#utility.yul\":2621:2627   */\n      dup6\n        /* \"#utility.yul\":2557:2635   */\n      tag_55\n      jump\t// in\n    tag_111:\n        /* \"#utility.yul\":2549:2635   */\n      swap1\n      pop\n        /* \"#utility.yul\":2645:2711   */\n      tag_112\n        /* \"#utility.yul\":2707:2709   */\n      0x20\n        /* \"#utility.yul\":2696:2705   */\n      dup4\n        /* \"#utility.yul\":2692:2710   */\n      add\n        /* \"#utility.yul\":2683:2689   */\n      dup5\n        /* \"#utility.yul\":2645:2711   */\n      tag_57\n      jump\t// in\n    tag_112:\n        /* \"#utility.yul\":2307:2718   */\n      swap4\n      swap3\n      pop\n      pop\n      pop\n      jump\t// out\n        /* \"#utility.yul\":2724:2841   */\n    tag_58:\n        /* \"#utility.yul\":2833:2834   */\n      0x00\n        /* \"#utility.yul\":2830:2831   */\n      dup1\n        /* \"#utility.yul\":2823:2835   */\n      revert\n        /* \"#utility.yul\":2847:2964   */\n    tag_59:\n        /* \"#utility.yul\":2956:2957   */\n      0x00\n        /* \"#utility.yul\":2953:2954   */\n      dup1\n        /* \"#utility.yul\":2946:2958   */\n      revert\n        /* \"#utility.yul\":2970:3087   */\n    tag_60:\n        /* \"#utility.yul\":3079:3080   */\n      0x00\n        /* \"#utility.yul\":3076:3077   */\n      dup1\n        /* \"#utility.yul\":3069:3081   */\n      revert\n        /* \"#utility.yul\":3107:3660   */\n    tag_61:\n        /* \"#utility.yul\":3165:3173   */\n      0x00\n        /* \"#utility.yul\":3175:3181   */\n      dup1\n        /* \"#utility.yul\":3225:3228   */\n      dup4\n        /* \"#utility.yul\":3218:3222   */\n      0x1f\n        /* \"#utility.yul\":3210:3216   */\n      dup5\n        /* \"#utility.yul\":3206:3223   */\n      add\n        /* \"#utility.yul\":3202:3229   */\n      slt\n        /* \"#utility.yul\":3192:3314   */\n      tag_117\n      jumpi\n        /* \"#utility.yul\":3233:3312   */\n      tag_118\n      tag_58\n      jump\t// in\n    tag_118:\n        /* \"#utility.yul\":3192:3314   */\n    tag_117:\n        /* \"#utility.yul\":3346:3352   */\n      dup3\n        /* \"#utility.yul\":3333:3353   */\n      calldataload\n        /* \"#utility.yul\":3323:3353   */\n      swap1\n      pop\n        /* \"#utility.yul\":3376:3394   */\n      0xffffffffffffffff\n        /* \"#utility.yul\":3368:3374   */\n      dup2\n        /* \"#utility.yul\":3365:3395   */\n      gt\n        /* \"#utility.yul\":3362:3479   */\n      iszero\n      tag_119\n      jumpi\n        /* \"#utility.yul\":3398:3477   */\n      tag_120\n      tag_59\n      jump\t// in\n    tag_120:\n        /* \"#utility.yul\":3362:3479   */\n    tag_119:\n        /* \"#utility.yul\":3512:3516   */\n      0x20\n        /* \"#utility.yul\":3504:3510   */\n      dup4\n        /* \"#utility.yul\":3500:3517   */\n      add\n        /* \"#utility.yul\":3488:3517   */\n      swap2\n      pop\n        /* \"#utility.yul\":3566:3569   */\n      dup4\n        /* \"#utility.yul\":3558:3562   */\n      0x01\n        /* \"#utility.yul\":3550:3556   */\n      dup3\n        /* \"#utility.yul\":3546:3563   */\n      mul\n        /* \"#utility.yul\":3536:3544   */\n      dup4\n        /* \"#utility.yul\":3532:3564   */\n      add\n        /* \"#utility.yul\":3529:3570   */\n      gt\n        /* \"#utility.yul\":3526:3654   */\n      iszero\n      tag_121\n      jumpi\n        /* \"#utility.yul\":3573:3652   */\n      tag_122\n      tag_60\n      jump\t// in\n    tag_122:\n        /* \"#utility.yul\":3526:3654   */\n    tag_121:\n        /* \"#utility.yul\":3107:3660   */\n      swap3\n      pop\n      swap3\n      swap1\n      pop\n      jump\t// out\n        /* \"#utility.yul\":3666:4195   */\n    tag_15:\n        /* \"#utility.yul\":3737:3743   */\n      0x00\n        /* \"#utility.yul\":3745:3751   */\n      dup1\n        /* \"#utility.yul\":3794:3796   */\n      0x20\n        /* \"#utility.yul\":3782:3791   */\n      dup4\n        /* \"#utility.yul\":3773:3780   */\n      dup6\n        /* \"#utility.yul\":3769:3792   */\n      sub\n        /* \"#utility.yul\":3765:3797   */\n      slt\n        /* \"#utility.yul\":3762:3881   */\n      iszero\n      tag_124\n      jumpi\n        /* \"#utility.yul\":3800:3879   */\n      tag_125\n      tag_46\n      jump\t// in\n    tag_125:\n        /* \"#utility.yul\":3762:3881   */\n    tag_124:\n        /* \"#utility.yul\":3948:3949   */\n      0x00\n        /* \"#utility.yul\":3937:3946   */\n      dup4\n        /* \"#utility.yul\":3933:3950   */\n      add\n        /* \"#utility.yul\":3920:3951   */\n      calldataload\n        /* \"#utility.yul\":3978:3996   */\n      0xffffffffffffffff\n        /* \"#utility.yul\":3970:3976   */\n      dup2\n        /* \"#utility.yul\":3967:3997   */\n      gt\n        /* \"#utility.yul\":3964:4081   */\n      iszero\n      tag_126\n      jumpi\n        /* \"#utility.yul\":4000:4079   */\n      tag_127\n      tag_47\n      jump\t// in\n    tag_127:\n        /* \"#utility.yul\":3964:4081   */\n    tag_126:\n        /* \"#utility.yul\":4113:4178   */\n      tag_128\n        /* \"#utility.yul\":4170:4177   */\n      dup6\n        /* \"#utility.yul\":4161:4167   */\n      dup3\n        /* \"#utility.yul\":4150:4159   */\n      dup7\n        /* \"#utility.yul\":4146:4168   */\n      add\n        /* \"#utility.yul\":4113:4178   */\n      tag_61\n      jump\t// in\n    tag_128:\n        /* \"#utility.yul\":4095:4178   */\n      swap3\n      pop\n      swap3\n      pop\n        /* \"#utility.yul\":3891:4188   */\n      pop\n        /* \"#utility.yul\":3666:4195   */\n      swap3\n      pop\n      swap3\n      swap1\n      pop\n      jump\t// out\n        /* \"#utility.yul\":4201:4875   */\n    tag_23:\n        /* \"#utility.yul\":4281:4287   */\n      0x00\n        /* \"#utility.yul\":4289:4295   */\n      dup1\n        /* \"#utility.yul\":4297:4303   */\n      0x00\n        /* \"#utility.yul\":4346:4348   */\n      0x40\n        /* \"#utility.yul\":4334:4343   */\n      dup5\n        /* \"#utility.yul\":4325:4332   */\n      dup7\n        /* \"#utility.yul\":4321:4344   */\n      sub\n        /* \"#utility.yul\":4317:4349   */\n      slt\n        /* \"#utility.yul\":4314:4433   */\n      iszero\n      tag_130\n      jumpi\n        /* \"#utility.yul\":4352:4431   */\n      tag_131\n      tag_46\n      jump\t// in\n    tag_131:\n        /* \"#utility.yul\":4314:4433   */\n    tag_130:\n        /* \"#utility.yul\":4472:4473   */\n      0x00\n        /* \"#utility.yul\":4497:4550   */\n      tag_132\n        /* \"#utility.yul\":4542:4549   */\n      dup7\n        /* \"#utility.yul\":4533:4539   */\n      dup3\n        /* \"#utility.yul\":4522:4531   */\n      dup8\n        /* \"#utility.yul\":4518:4540   */\n      add\n        /* \"#utility.yul\":4497:4550   */\n      tag_50\n      jump\t// in\n    tag_132:\n        /* \"#utility.yul\":4487:4550   */\n      swap4\n      pop\n        /* \"#utility.yul\":4443:4560   */\n      pop\n        /* \"#utility.yul\":4627:4629   */\n      0x20\n        /* \"#utility.yul\":4616:4625   */\n      dup5\n        /* \"#utility.yul\":4612:4630   */\n      add\n        /* \"#utility.yul\":4599:4631   */\n      calldataload\n        /* \"#utility.yul\":4658:4676   */\n      0xffffffffffffffff\n        /* \"#utility.yul\":4650:4656   */\n      dup2\n        /* \"#utility.yul\":4647:4677   */\n      gt\n        /* \"#utility.yul\":4644:4761   */\n      iszero\n      tag_133\n      jumpi\n        /* \"#utility.yul\":4680:4759   */\n      tag_134\n      tag_47\n      jump\t// in\n    tag_134:\n        /* \"#utility.yul\":4644:4761   */\n    tag_133:\n        /* \"#utility.yul\":4793:4858   */\n      tag_135\n        /* \"#utility.yul\":4850:4857   */\n      dup7\n        /* \"#utility.yul\":4841:4847   */\n      dup3\n        /* \"#utility.yul\":4830:4839   */\n      dup8\n        /* \"#utility.yul\":4826:4848   */\n      add\n        /* \"#utility.yul\":4793:4858   */\n      tag_61\n      jump\t// in\n    tag_135:\n        /* \"#utility.yul\":4775:4858   */\n      swap3\n      pop\n      swap3\n      pop\n        /* \"#utility.yul\":4570:4868   */\n      pop\n        /* \"#utility.yul\":4201:4875   */\n      swap3\n      pop\n      swap3\n      pop\n      swap3\n      jump\t// out\n        /* \"#utility.yul\":4881:5061   */\n    tag_62:\n        /* \"#utility.yul\":4929:5006   */\n      0x4e487b7100000000000000000000000000000000000000000000000000000000\n        /* \"#utility.yul\":4926:4927   */\n      0x00\n        /* \"#utility.yul\":4919:5007   */\n      mstore\n        /* \"#utility.yul\":5026:5030   */\n      0x41\n        /* \"#utility.yul\":5023:5024   */\n      0x04\n        /* \"#utility.yul\":5016:5031   */\n      mstore\n        /* \"#utility.yul\":5050:5054   */\n      0x24\n        /* \"#utility.yul\":5047:5048   */\n      0x00\n        /* \"#utility.yul\":5040:5055   */\n      revert\n        /* \"#utility.yul\":5067:5247   */\n    tag_63:\n        /* \"#utility.yul\":5115:5192   */\n      0x4e487b7100000000000000000000000000000000000000000000000000000000\n        /* \"#utility.yul\":5112:5113   */\n      0x00\n        /* \"#utility.yul\":5105:5193   */\n      mstore\n        /* \"#utility.yul\":5212:5216   */\n      0x22\n        /* \"#utility.yul\":5209:5210   */\n      0x04\n        /* \"#utility.yul\":5202:5217   */\n      mstore\n        /* \"#utility.yul\":5236:5240   */\n      0x24\n        /* \"#utility.yul\":5233:5234   */\n      0x00\n        /* \"#utility.yul\":5226:5241   */\n      revert\n        /* \"#utility.yul\":5253:5573   */\n    tag_33:\n        /* \"#utility.yul\":5297:5303   */\n      0x00\n        /* \"#utility.yul\":5334:5335   */\n      0x02\n        /* \"#utility.yul\":5328:5332   */\n      dup3\n        /* \"#utility.yul\":5324:5336   */\n      div\n        /* \"#utility.yul\":5314:5336   */\n      swap1\n      pop\n        /* \"#utility.yul\":5381:5382   */\n      0x01\n        /* \"#utility.yul\":5375:5379   */\n      dup3\n        /* \"#utility.yul\":5371:5383   */\n      and\n        /* \"#utility.yul\":5402:5420   */\n      dup1\n        /* \"#utility.yul\":5392:5473   */\n      tag_139\n      jumpi\n        /* \"#utility.yul\":5458:5462   */\n      0x7f\n        /* \"#utility.yul\":5450:5456   */\n      dup3\n        /* \"#utility.yul\":5446:5463   */\n      and\n        /* \"#utility.yul\":5436:5463   */\n      swap2\n      pop\n        /* \"#utility.yul\":5392:5473   */\n    tag_139:\n        /* \"#utility.yul\":5520:5522   */\n      0x20\n        /* \"#utility.yul\":5512:5518   */\n      dup3\n        /* \"#utility.yul\":5509:5523   */\n      lt\n        /* \"#utility.yul\":5489:5507   */\n      dup2\n        /* \"#utility.yul\":5486:5524   */\n      sub\n        /* \"#utility.yul\":5483:5567   */\n      tag_140\n      jumpi\n        /* \"#utility.yul\":5539:5557   */\n      tag_141\n      tag_63\n      jump\t// in\n    tag_141:\n        /* \"#utility.yul\":5483:5567   */\n    tag_140:\n        /* \"#utility.yul\":5304:5573   */\n      pop\n        /* \"#utility.yul\":5253:5573   */\n      swap2\n      swap1\n      pop\n      jump\t// out\n        /* \"#utility.yul\":5579:5720   */\n    tag_64:\n        /* \"#utility.yul\":5628:5632   */\n      0x00\n        /* \"#utility.yul\":5651:5654   */\n      dup2\n        /* \"#utility.yul\":5643:5654   */\n      swap1\n      pop\n        /* \"#utility.yul\":5674:5677   */\n      dup2\n        /* \"#utility.yul\":5671:5672   */\n      0x00\n        /* \"#utility.yul\":5664:5678   */\n      mstore\n        /* \"#utility.yul\":5708:5712   */\n      0x20\n        /* \"#utility.yul\":5705:5706   */\n      0x00\n        /* \"#utility.yul\":5695:5713   */\n      keccak256\n        /* \"#utility.yul\":5687:5713   */\n      swap1\n      pop\n        /* \"#utility.yul\":5579:5720   */\n      swap2\n      swap1\n      pop\n      jump\t// out\n        /* \"#utility.yul\":5726:5819   */\n    tag_65:\n        /* \"#utility.yul\":5763:5769   */\n      0x00\n        /* \"#utility.yul\":5810:5812   */\n      0x20\n        /* \"#utility.yul\":5805:5807   */\n      0x1f\n        /* \"#utility.yul\":5798:5803   */\n      dup4\n        /* \"#utility.yul\":5794:5808   */\n      add\n        /* \"#utility.yul\":5790:5813   */\n      div\n        /* \"#utility.yul\":5780:5813   */\n      swap1\n      pop\n        /* \"#utility.yul\":5726:5819   */\n      swap2\n      swap1\n      pop\n      jump\t// out\n        /* \"#utility.yul\":5825:5932   */\n    tag_66:\n        /* \"#utility.yul\":5869:5877   */\n      0x00\n        /* \"#utility.yul\":5919:5924   */\n      dup3\n        /* \"#utility.yul\":5913:5917   */\n      dup3\n        /* \"#utility.yul\":5909:5925   */\n      shl\n        /* \"#utility.yul\":5888:5925   */\n      swap1\n      pop\n        /* \"#utility.yul\":5825:5932   */\n      swap3\n      swap2\n      pop\n      pop\n      jump\t// out\n        /* \"#utility.yul\":5938:6331   */\n    tag_67:\n        /* \"#utility.yul\":6007:6013   */\n      0x00\n        /* \"#utility.yul\":6057:6058   */\n      0x08\n        /* \"#utility.yul\":6045:6055   */\n      dup4\n        /* \"#utility.yul\":6041:6059   */\n      mul\n        /* \"#utility.yul\":6080:6177   */\n      tag_146\n        /* \"#utility.yul\":6110:6176   */\n      0xffffffffffffffffffffffffffffffffffffffffffffffffffffffffffffffff\n        /* \"#utility.yul\":6099:6108   */\n      dup3\n        /* \"#utility.yul\":6080:6177   */\n      tag_66\n      jump\t// in\n    tag_146:\n        /* \"#utility.yul\":6198:6237   */\n      tag_147\n        /* \"#utility.yul\":6228:6236   */\n      dup7\n        /* \"#utility.yul\":6217:6226   */\n      dup4\n        /* \"#utility.yul\":6198:6237   */\n      tag_66\n      jump\t// in\n    tag_147:\n        /* \"#utility.yul\":6186:6237   */\n      swap6\n      pop\n        /* \"#utility.yul\":6270:6274   */\n      dup1\n        /* \"#utility.yul\":6266:6275   */\n      not\n        /* \"#utility.yul\":6259:6264   */\n      dup5\n        /* \"#utility.yul\":6255:6276   */\n      and\n        /* \"#utility.yul\":6246:6276   */\n      swap4\n      pop\n        /* \"#utility.yul\":6319:6323   */\n      dup1\n        /* \"#utility.yul\":6309:6317   */\n      dup7\n        /* \"#utility.yul\":6305:6324   */\n      and\n        /* \"#utility.yul\":6298:6303   */\n      dup5\n        /* \"#utility.yul\":6295:6325   */\n      or\n        /* \"#utility.yul\":6285:6325   */\n      swap3\n      pop\n        /* \"#utility.yul\":6014:6331   */\n      pop\n      pop\n        /* \"#utility.yul\":5938:6331   */\n      swap4\n      swap3\n      pop\n      pop\n      pop\n      jump\t// out\n        /* \"#utility.yul\":6337:6397   */\n    tag_68:\n        /* \"#utility.yul\":6365:6368   */\n      0x00\n        /* \"#utility.yul\":6386:6391   */\n      dup2\n        /* \"#utility.yul\":6379:6391   */\n      swap1\n      pop\n        /* \"#utility.yul\":6337:6397   */\n      swap2\n      swap1\n      pop\n      jump\t// out\n        /* \"#utility.yul\":6403:6545   */\n    tag_69:\n        /* \"#utility.yul\":6453:6462   */\n      0x00\n        /* \"#utility.yul\":6486:6539   */\n      tag_150\n        /* \"#utility.yul\":6504:6538   */\n      tag_151\n        /* \"#utility.yul\":6513:6537   */\n      tag_152\n        /* \"#utility.yul\":6531:6536   */\n      dup5\n        /* \"#utility.yul\":6513:6537   */\n      tag_48\n      jump\t// in\n    tag_152:\n        /* \"#utility.yul\":6504:6538   */\n      tag_68\n      jump\t// in\n    tag_151:\n        /* \"#utility.yul\":6486:6539   */\n      tag_48\n      jump\t// in\n    tag_150:\n        /* \"#utility.yul\":6473:6539   */\n      swap1\n      pop\n        /* \"#utility.yul\":6403:6545   */\n      swap2\n      swap1\n      pop\n      jump\t// out\n        /* \"#utility.yul\":6551:6626   */\n    tag_70:\n        /* \"#utility.yul\":6594:6597   */\n      0x00\n        /* \"#utility.yul\":6615:6620   */\n      dup2\n        /* \"#utility.yul\":6608:6620   */\n      swap1\n      pop\n        /* \"#utility.yul\":6551:6626   */\n      swap2\n      swap1\n      pop\n      jump\t// out\n        /* \"#utility.yul\":6632:6901   */\n    tag_71:\n        /* \"#utility.yul\":6742:6781   */\n      tag_155\n        /* \"#utility.yul\":6773:6780   */\n      dup4\n        /* \"#utility.yul\":6742:6781   */\n      tag_69\n      jump\t// in\n    tag_155:\n        /* \"#utility.yul\":6803:6894   */\n      tag_156\n        /* \"#utility.yul\":6852:6893   */\n      tag_157\n        /* \"#utility.yul\":6876:6892   */\n      dup3\n        /* \"#utility.yul\":6852:6893   */\n      tag_70\n      jump\t// in\n    tag_157:\n        /* \"#utility.yul\":6844:6850   */\n      dup5\n        /* \"#utility.yul\":6837:6841   */\n      dup5\n        /* \"#utility.yul\":6831:6842   */\n      sload\n        /* \"#utility.yul\":6803:6894   */\n      tag_67\n      jump\t// in\n    tag_156:\n        /* \"#utility.yul\":6797:6801   */\n      dup3\n        /* \"#utility.yul\":6790:6895   */\n      sstore\n        /* \"#utility.yul\":6708:6901   */\n      pop\n        /* \"#utility.yul\":6632:6901   */\n      pop\n      pop\n      pop\n      jump\t// out\n        /* \"#utility.yul\":6907:6980   */\n    tag_72:\n        /* \"#utility.yul\":6952:6955   */\n      0x00\n        /* \"#utility.yul\":6907:6980   */\n      swap1\n      jump\t// out\n        /* \"#utility.yul\":6986:7175   */\n    tag_73:\n        /* \"#utility.yul\":7063:7095   */\n      tag_160\n      tag_72\n      jump\t// in\n    tag_160:\n        /* \"#utility.yul\":7104:7169   */\n      tag_161\n        /* \"#utility.yul\":7162:7168   */\n      dup2\n        /* \"#utility.yul\":7154:7160   */\n      dup5\n        /* \"#utility.yul\":7148:7152   */\n      dup5\n        /* \"#utility.yul\":7104:7169   */\n      tag_71\n      jump\t// in\n    tag_161:\n        /* \"#utility.yul\":7039:7175   */\n      pop\n        /* \"#utility.yul\":6986:7175   */\n      pop\n      pop\n      jump\t// out\n        /* \"#utility.yul\":7181:7367   */\n    tag_74:\n        /* \"#utility.yul\":7241:7361   */\n    tag_163:\n        /* \"#utility.yul\":7258:7261   */\n      dup2\n        /* \"#utility.yul\":7251:7256   */\n      dup2\n        /* \"#utility.yul\":7248:7262   */\n      lt\n        /* \"#utility.yul\":7241:7361   */\n      iszero\n      tag_165\n      jumpi\n        /* \"#utility.yul\":7312:7351   */\n      tag_166\n        /* \"#utility.yul\":7349:7350   */\n      0x00\n        /* \"#utility.yul\":7342:7347   */\n      dup3\n        /* \"#utility.yul\":7312:7351   */\n      tag_73\n      jump\t// in\n    tag_166:\n        /* \"#utility.yul\":7285:7286   */\n      0x01\n        /* \"#utility.yul\":7278:7283   */\n      dup2\n        /* \"#utility.yul\":7274:7287   */\n      add\n        /* \"#utility.yul\":7265:7287   */\n      swap1\n      pop\n        /* \"#utility.yul\":7241:7361   */\n      jump(tag_163)\n    tag_165:\n        /* \"#utility.yul\":7181:7367   */\n      pop\n      pop\n      jump\t// out\n        /* \"#utility.yul\":7373:7916   */\n    tag_75:\n        /* \"#utility.yul\":7474:7476   */\n      0x1f\n        /* \"#utility.yul\":7469:7472   */\n      dup3\n        /* \"#utility.yul\":7466:7477   */\n      gt\n        /* \"#utility.yul\":7463:7909   */\n      iszero\n      tag_168\n      jumpi\n        /* \"#utility.yul\":7508:7546   */\n      tag_169\n        /* \"#utility.yul\":7540:7545   */\n      dup2\n        /* \"#utility.yul\":7508:7546   */\n      tag_64\n      jump\t// in\n    tag_169:\n        /* \"#utility.yul\":7592:7621   */\n      tag_170\n        /* \"#utility.yul\":7610:7620   */\n      dup5\n        /* \"#utility.yul\":7592:7621   */\n      tag_65\n      jump\t// in\n    tag_170:\n        /* \"#utility.yul\":7582:7590   */\n      dup2\n        /* \"#utility.yul\":7578:7622   */\n      add\n        /* \"#utility.yul\":7775:7777   */\n      0x20\n        /* \"#utility.yul\":7763:7773   */\n      dup6\n        /* \"#utility.yul\":7760:7778   */\n      lt\n        /* \"#utility.yul\":7757:7806   */\n      iszero\n      tag_171\n      jumpi\n        /* \"#utility.yul\":7796:7804   */\n      dup2\n        /* \"#utility.yul\":7781:7804   */\n      swap1\n      pop\n        /* \"#utility.yul\":7757:7806   */\n    tag_171:\n        /* \"#utility.yul\":7819:7899   */\n      tag_172\n        /* \"#utility.yul\":7875:7897   */\n      tag_173\n        /* \"#utility.yul\":7893:7896   */\n      dup6\n        /* \"#utility.yul\":7875:7897   */\n      tag_65\n      jump\t// in\n    tag_173:\n        /* \"#utility.yul\":7865:7873   */\n      dup4\n        /* \"#utility.yul\":7861:7898   */\n      add\n        /* \"#utility.yul\":7848:7859   */\n      dup3\n        /* \"#utility.yul\":7819:7899   */\n      tag_74\n      jump\t// in\n    tag_172:\n        /* \"#utility.yul\":7478:7909   */\n      pop\n      pop\n        /* \"#utility.yul\":7463:7909   */\n    tag_168:\n        /* \"#utility.yul\":7373:7916   */\n      pop\n      pop\n      pop\n      jump\t// out\n        /* \"#utility.yul\":7922:8039   */\n    tag_76:\n        /* \"#utility.yul\":7976:7984   */\n      0x00\n        /* \"#utility.yul\":8026:8031   */\n      dup3\n        /* \"#utility.yul\":8020:8024   */\n      dup3\n        /* \"#utility.yul\":8016:8032   */\n      shr\n        /* \"#utility.yul\":7995:8032   */\n      swap1\n      pop\n        /* \"#utility.yul\":7922:8039   */\n      swap3\n      swap2\n      pop\n      pop\n      jump\t// out\n        /* \"#utility.yul\":8045:8214   */\n    tag_77:\n        /* \"#utility.yul\":8089:8095   */\n      0x00\n        /* \"#utility.yul\":8122:8173   */\n      tag_176\n        /* \"#utility.yul\":8170:8171   */\n      0x00\n        /* \"#utility.yul\":8166:8172   */\n      not\n        /* \"#utility.yul\":8158:8163   */\n      dup5\n        /* \"#utility.yul\":8155:8156   */\n      0x08\n        /* \"#utility.yul\":8151:8164   */\n      mul\n        /* \"#utility.yul\":8122:8173   */\n      tag_76\n      jump\t// in\n    tag_176:\n        /* \"#utility.yul\":8118:8174   */\n      not\n        /* \"#utility.yul\":8203:8207   */\n      dup1\n        /* \"#utility.yul\":8197:8201   */\n      dup4\n        /* \"#utility.yul\":8193:8208   */\n      and\n        /* \"#utility.yul\":8183:8208   */\n      swap2\n      pop\n        /* \"#utility.yul\":8096:8214   */\n      pop\n        /* \"#utility.yul\":8045:8214   */\n      swap3\n      swap2\n      pop\n      pop\n      jump\t// out\n        /* \"#utility.yul\":8219:8514   */\n    tag_78:\n        /* \"#utility.yul\":8295:8299   */\n      0x00\n        /* \"#utility.yul\":8441:8470   */\n      tag_178\n        /* \"#utility.yul\":8466:8469   */\n      dup4\n        /* \"#utility.yul\":8460:8464   */\n      dup4\n        /* \"#utility.yul\":8441:8470   */\n      tag_77\n      jump\t// in\n    tag_178:\n        /* \"#utility.yul\":8433:8470   */\n      swap2\n      pop\n        /* \"#utility.yul\":8503:8506   */\n      dup3\n        /* \"#utility.yul\":8500:8501   */\n      0x02\n        /* \"#utility.yul\":8496:8507   */\n      mul\n        /* \"#utility.yul\":8490:8494   */\n      dup3\n        /* \"#utility.yul\":8487:8508   */\n      or\n        /* \"#utility.yul\":8479:8508   */\n      swap1\n      pop\n        /* \"#utility.yul\":8219:8514   */\n      swap3\n      swap2\n      pop\n      pop\n      jump\t// out\n        /* \"#utility.yul\":8519:9914   */\n    tag_29:\n        /* \"#utility.yul\":8636:8673   */\n      tag_180\n        /* \"#utility.yul\":8669:8672   */\n      dup3\n        /* \"#utility.yul\":8636:8673   */\n      tag_51\n      jump\t// in\n    tag_180:\n        /* \"#utility.yul\":8738:8756   */\n      0xffffffffffffffff\n        /* \"#utility.yul\":8730:8736   */\n      dup2\n        /* \"#utility.yul\":8727:8757   */\n      gt\n        /* \"#utility.yul\":8724:8780   */\n      iszero\n      tag_181\n      jumpi\n        /* \"#utility.yul\":8760:8778   */\n      tag_182\n      tag_62\n      jump\t// in\n    tag_182:\n        /* \"#utility.yul\":8724:8780   */\n    tag_181:\n        /* \"#utility.yul\":8804:8842   */\n      tag_183\n        /* \"#utility.yul\":8836:8840   */\n      dup3\n        /* \"#utility.yul\":8830:8841   */\n      sload\n        /* \"#utility.yul\":8804:8842   */\n      tag_33\n      jump\t// in\n    tag_183:\n        /* \"#utility.yul\":8889:8956   */\n      tag_184\n        /* \"#utility.yul\":8949:8955   */\n      dup3\n        /* \"#utility.yul\":8941:8947   */\n      dup3\n        /* \"#utility.yul\":8935:8939   */\n      dup6\n        /* \"#utility.yul\":8889:8956   */\n      tag_75\n      jump\t// in\n    tag_184:\n        /* \"#utility.yul\":8983:8984   */\n      0x00\n        /* \"#utility.yul\":9007:9011   */\n      0x20\n        /* \"#utility.yul\":8994:9011   */\n      swap1\n      pop\n        /* \"#utility.yul\":9039:9041   */\n      0x1f\n        /* \"#utility.yul\":9031:9037   */\n      dup4\n        /* \"#utility.yul\":9028:9042   */\n      gt\n        /* \"#utility.yul\":9056:9057   */\n      0x01\n        /* \"#utility.yul\":9051:9669   */\n      dup2\n      eq\n      tag_186\n      jumpi\n        /* \"#utility.yul\":9713:9714   */\n      0x00\n        /* \"#utility.yul\":9730:9736   */\n      dup5\n        /* \"#utility.yul\":9727:9804   */\n      iszero\n      tag_187\n      jumpi\n        /* \"#utility.yul\":9779:9788   */\n      dup3\n        /* \"#utility.yul\":9774:9777   */\n      dup8\n        /* \"#utility.yul\":9770:9789   */\n      add\n        /* \"#utility.yul\":9764:9790   */\n      mload\n        /* \"#utility.yul\":9755:9790   */\n      swap1\n      pop\n        /* \"#utility.yul\":9727:9804   */\n    tag_187:\n        /* \"#utility.yul\":9830:9897   */\n      tag_188\n        /* \"#utility.yul\":9890:9896   */\n      dup6\n        /* \"#utility.yul\":9883:9888   */\n      dup3\n        /* \"#utility.yul\":9830:9897   */\n      tag_78\n      jump\t// in\n    tag_188:\n        /* \"#utility.yul\":9824:9828   */\n      dup7\n        /* \"#utility.yul\":9817:9898   */\n      sstore\n        /* \"#utility.yul\":9686:9908   */\n      pop\n        /* \"#utility.yul\":9021:9908   */\n      jump(tag_185)\n        /* \"#utility.yul\":9051:9669   */\n    tag_186:\n        /* \"#utility.yul\":9103:9107   */\n      0x1f\n        /* \"#utility.yul\":9099:9108   */\n      not\n        /* \"#utility.yul\":9091:9097   */\n      dup5\n        /* \"#utility.yul\":9087:9109   */\n      and\n        /* \"#utility.yul\":9137:9174   */\n      tag_189\n        /* \"#utility.yul\":9169:9173   */\n      dup7\n        /* \"#utility.yul\":9137:9174   */\n      tag_64\n      jump\t// in\n    tag_189:\n        /* \"#utility.yul\":9196:9197   */\n      0x00\n        /* \"#utility.yul\":9210:9418   */\n    tag_190:\n        /* \"#utility.yul\":9224:9231   */\n      dup3\n        /* \"#utility.yul\":9221:9222   */\n      dup2\n        /* \"#utility.yul\":9218:9232   */\n      lt\n        /* \"#utility.yul\":9210:9418   */\n      iszero\n      tag_192\n      jumpi\n        /* \"#utility.yul\":9303:9312   */\n      dup5\n        /* \"#utility.yul\":9298:9301   */\n      dup10\n        /* \"#utility.yul\":9294:9313   */\n      add\n        /* \"#utility.yul\":9288:9314   */\n      mload\n        /* \"#utility.yul\":9280:9286   */\n      dup3\n        /* \"#utility.yul\":9273:9315   */\n      sstore\n        /* \"#utility.yul\":9354:9355   */\n      0x01\n        /* \"#utility.yul\":9346:9352   */\n      dup3\n        /* \"#utility.yul\":9342:9356   */\n      add\n        /* \"#utility.yul\":9332:9356   */\n      swap2\n      pop\n        /* \"#utility.yul\":9401:9403   */\n      0x20\n        /* \"#utility.yul\":9390:9399   */\n      dup6\n        /* \"#utility.yul\":9386:9404   */\n      add\n        /* \"#utility.yul\":9373:9404   */\n      swap5\n      pop\n        /* \"#utility.yul\":9247:9251   */\n      0x20\n        /* \"#utility.yul\":9244:9245   */\n      dup2\n        /* \"#utility.yul\":9240:9252   */\n      add\n        /* \"#utility.yul\":9235:9252   */\n      swap1\n      pop\n        /* \"#utility.yul\":9210:9418   */\n      jump(tag_190)\n    tag_192:\n        /* \"#utility.yul\":9446:9452   */\n      dup7\n        /* \"#utility.yul\":9437:9444   */\n      dup4\n        /* \"#utility.yul\":9434:9453   */\n      lt\n        /* \"#utility.yul\":9431:9610   */\n      iszero\n      tag_193\n      jumpi\n        /* \"#utility.yul\":9504:9513   */\n      dup5\n        /* \"#utility.yul\":9499:9502   */\n      dup10\n        /* \"#utility.yul\":9495:9514   */\n      add\n        /* \"#utility.yul\":9489:9515   */\n      mload\n        /* \"#utility.yul\":9547:9595   */\n      tag_194\n        /* \"#utility.yul\":9589:9593   */\n      0x1f\n        /* \"#utility.yul\":9581:9587   */\n      dup10\n        /* \"#utility.yul\":9577:9594   */\n      and\n        /* \"#utility.yul\":9566:9575   */\n      dup3\n        /* \"#utility.yul\":9547:9595   */\n      tag_77\n      jump\t// in\n    tag_194:\n        /* \"#utility.yul\":9539:9545   */\n      dup4\n        /* \"#utility.yul\":9532:9596   */\n      sstore\n        /* \"#utility.yul\":9454:9610   */\n      pop\n        /* \"#utility.yul\":9431:9610   */\n    tag_193:\n        /* \"#utility.yul\":9656:9657   */\n      0x01\n        /* \"#utility.yul\":9652:9653   */\n      0x02\n        /* \"#utility.yul\":9644:9650   */\n      dup9\n        /* \"#utility.yul\":9640:9654   */\n      mul\n        /* \"#utility.yul\":9636:9658   */\n      add\n        /* \"#utility.yul\":9630:9634   */\n      dup9\n        /* \"#utility.yul\":9623:9659   */\n      sstore\n        /* \"#utility.yul\":9058:9669   */\n      pop\n      pop\n      pop\n        /* \"#utility.yul\":9021:9908   */\n    tag_185:\n      pop\n        /* \"#utility.yul\":8611:9914   */\n      pop\n      pop\n      pop\n        /* \"#utility.yul\":8519:9914   */\n      pop\n      pop\n      jump\t// out\n        /* \"#utility.yul\":9920:10100   */\n    tag_41:\n        /* \"#utility.yul\":9968:10045   */\n      0x4e487b7100000000000000000000000000000000000000000000000000000000\n        /* \"#utility.yul\":9965:9966   */\n      0x00\n        /* \"#utility.yul\":9958:10046   */\n      mstore\n        /* \"#utility.yul\":10065:10069   */\n      0x32\n        /* \"#utility.yul\":10062:10063   */\n      0x04\n        /* \"#utility.yul\":10055:10070   */\n      mstore\n        /* \"#utility.yul\":10089:10093   */\n      0x24\n        /* \"#utility.yul\":10086:10087   */\n      0x00\n        /* \"#utility.yul\":10079:10094   */\n      revert\n        /* \"#utility.yul\":10106:10203   */\n    tag_79:\n        /* \"#utility.yul\":10165:10171   */\n      0x00\n        /* \"#utility.yul\":10193:10196   */\n      dup3\n        /* \"#utility.yul\":10183:10196   */\n      swap1\n      pop\n        /* \"#utility.yul\":10106:10203   */\n      swap3\n      swap2\n      pop\n      pop\n      jump\t// out\n        /* \"#utility.yul\":10209:11612   */\n    tag_44:\n        /* \"#utility.yul\":10333:10377   */\n      tag_198\n        /* \"#utility.yul\":10373:10376   */\n      dup4\n        /* \"#utility.yul\":10368:10371   */\n      dup4\n        /* \"#utility.yul\":10333:10377   */\n      tag_79\n      jump\t// in\n    tag_198:\n        /* \"#utility.yul\":10442:10460   */\n      0xffffffffffffffff\n        /* \"#utility.yul\":10434:10440   */\n      dup2\n        /* \"#utility.yul\":10431:10461   */\n      gt\n        /* \"#utility.yul\":10428:10484   */\n      iszero\n      tag_199\n      jumpi\n        /* \"#utility.yul\":10464:10482   */\n      tag_200\n      tag_62\n      jump\t// in\n    tag_200:\n        /* \"#utility.yul\":10428:10484   */\n    tag_199:\n        /* \"#utility.yul\":10508:10546   */\n      tag_201\n        /* \"#utility.yul\":10540:10544   */\n      dup3\n        /* \"#utility.yul\":10534:10545   */\n      sload\n        /* \"#utility.yul\":10508:10546   */\n      tag_33\n      jump\t// in\n    tag_201:\n        /* \"#utility.yul\":10593:10660   */\n      tag_202\n        /* \"#utility.yul\":10653:10659   */\n      dup3\n        /* \"#utility.yul\":10645:10651   */\n      dup3\n        /* \"#utility.yul\":10639:10643   */\n      dup6\n        /* \"#utility.yul\":10593:10660   */\n      tag_75\n      jump\t// in\n    tag_202:\n        /* \"#utility.yul\":10687:10688   */\n      0x00\n        /* \"#utility.yul\":10716:10718   */\n      0x1f\n        /* \"#utility.yul\":10708:10714   */\n      dup4\n        /* \"#utility.yul\":10705:10719   */\n      gt\n        /* \"#utility.yul\":10733:10734   */\n      0x01\n        /* \"#utility.yul\":10728:11360   */\n      dup2\n      eq\n      tag_204\n      jumpi\n        /* \"#utility.yul\":11404:11405   */\n      0x00\n        /* \"#utility.yul\":11421:11427   */\n      dup5\n        /* \"#utility.yul\":11418:11502   */\n      iszero\n      tag_205\n      jumpi\n        /* \"#utility.yul\":11477:11486   */\n      dup3\n        /* \"#utility.yul\":11472:11475   */\n      dup8\n        /* \"#utility.yul\":11468:11487   */\n      add\n        /* \"#utility.yul\":11455:11488   */\n      calldataload\n        /* \"#utility.yul\":11446:11488   */\n      swap1\n      pop\n        /* \"#utility.yul\":11418:11502   */\n    tag_205:\n        /* \"#utility.yul\":11528:11595   */\n      tag_206\n        /* \"#utility.yul\":11588:11594   */\n      dup6\n        /* \"#utility.yul\":11581:11586   */\n      dup3\n        /* \"#utility.yul\":11528:11595   */\n      tag_78\n      jump\t// in\n    tag_206:\n        /* \"#utility.yul\":11522:11526   */\n      dup7\n        /* \"#utility.yul\":11515:11596   */\n      sstore\n        /* \"#utility.yul\":11377:11606   */\n      pop\n        /* \"#utility.yul\":10698:11606   */\n      jump(tag_203)\n        /* \"#utility.yul\":10728:11360   */\n    tag_204:\n        /* \"#utility.yul\":10780:10784   */\n      0x1f\n        /* \"#utility.yul\":10776:10785   */\n      not\n        /* \"#utility.yul\":10768:10774   */\n      dup5\n        /* \"#utility.yul\":10764:10786   */\n      and\n        /* \"#utility.yul\":10814:10851   */\n      tag_207\n        /* \"#utility.yul\":10846:10850   */\n      dup7\n        /* \"#utility.yul\":10814:10851   */\n      tag_64\n      jump\t// in\n    tag_207:\n        /* \"#utility.yul\":10873:10874   */\n      0x00\n        /* \"#utility.yul\":10887:11102   */\n    tag_208:\n        /* \"#utility.yul\":10901:10908   */\n      dup3\n        /* \"#utility.yul\":10898:10899   */\n      dup2\n        /* \"#utility.yul\":10895:10909   */\n      lt\n        /* \"#utility.yul\":10887:11102   */\n      iszero\n      tag_210\n      jumpi\n        /* \"#utility.yul\":10987:10996   */\n      dup5\n        /* \"#utility.yul\":10982:10985   */\n      dup10\n        /* \"#utility.yul\":10978:10997   */\n      add\n        /* \"#utility.yul\":10965:10998   */\n      calldataload\n        /* \"#utility.yul\":10957:10963   */\n      dup3\n        /* \"#utility.yul\":10950:10999   */\n      sstore\n        /* \"#utility.yul\":11038:11039   */\n      0x01\n        /* \"#utility.yul\":11030:11036   */\n      dup3\n        /* \"#utility.yul\":11026:11040   */\n      add\n        /* \"#utility.yul\":11016:11040   */\n      swap2\n      pop\n        /* \"#utility.yul\":11085:11087   */\n      0x20\n        /* \"#utility.yul\":11074:11083   */\n      dup6\n        /* \"#utility.yul\":11070:11088   */\n      add\n        /* \"#utility.yul\":11057:11088   */\n      swap5\n      pop\n        /* \"#utility.yul\":10924:10928   */\n      0x20\n        /* \"#utility.yul\":10921:10922   */\n      dup2\n        /* \"#utility.yul\":10917:10929   */\n      add\n        /* \"#utility.yul\":10912:10929   */\n      swap1\n      pop\n        /* \"#utility.yul\":10887:11102   */\n      jump(tag_208)\n    tag_210:\n        /* \"#utility.yul\":11130:11136   */\n      dup7\n        /* \"#utility.yul\":11121:11128   */\n      dup4\n        /* \"#utility.yul\":11118:11137   */\n      lt\n        /* \"#utility.yul\":11115:11301   */\n      iszero\n      tag_211\n      jumpi\n        /* \"#utility.yul\":11195:11204   */\n      dup5\n        /* \"#utility.yul\":11190:11193   */\n      dup10\n        /* \"#utility.yul\":11186:11205   */\n      add\n        /* \"#utility.yul\":11173:11206   */\n      calldataload\n        /* \"#utility.yul\":11238:11286   */\n      tag_212\n        /* \"#utility.yul\":11280:11284   */\n      0x1f\n        /* \"#utility.yul\":11272:11278   */\n      dup10\n        /* \"#utility.yul\":11268:11285   */\n      and\n        /* \"#utility.yul\":11257:11266   */\n      dup3\n        /* \"#utility.yul\":11238:11286   */\n      tag_77\n      jump\t// in\n    tag_212:\n        /* \"#utility.yul\":11230:11236   */\n      dup4\n        /* \"#utility.yul\":11223:11287   */\n      sstore\n        /* \"#utility.yul\":11138:11301   */\n      pop\n        /* \"#utility.yul\":11115:11301   */\n    tag_211:\n        /* \"#utility.yul\":11347:11348   */\n      0x01\n        /* \"#utility.yul\":11343:11344   */\n      0x02\n        /* \"#utility.yul\":11335:11341   */\n      dup9\n        /* \"#utility.yul\":11331:11345   */\n      mul\n        /* \"#utility.yul\":11327:11349   */\n      add\n        /* \"#utility.yul\":11321:11325   */\n      dup9\n        /* \"#utility.yul\":11314:11350   */\n      sstore\n        /* \"#utility.yul\":10735:11360   */\n      pop\n      pop\n      pop\n        /* \"#utility.yul\":10698:11606   */\n    tag_203:\n      pop\n        /* \"#utility.yul\":10308:11612   */\n      pop\n      pop\n      pop\n        /* \"#utility.yul\":10209:11612   */\n      pop\n      pop\n      pop\n      jump\t// out\n\n    auxdata: 0xa2646970667358221220cb23fda063c62aee7f353b966d6aa157079b06f4d9cc413993128092fb9714a964736f6c634300080f0033\n}\n",
				"bytecode": {
					"linkReferences": {},
					"object": "608060405234801561001057600080fd5b5061096a806100206000396000f3fe608060405234801561001057600080fd5b506004361061004c5760003560e01c80639507d39a14610051578063b6a46b3b14610082578063bc8bc2b41461009e578063cd111614146100cf575b600080fd5b61006b600480360381019061006691906102fa565b6100eb565b6040516100799291906103db565b60405180910390f35b61009c60048036038101906100979190610470565b6100f4565b005b6100b860048036038101906100b391906102fa565b6101b7565b6040516100c69291906103db565b60405180910390f35b6100e960048036038101906100e491906104bd565b610280565b005b60606000915091565b6000604051806040016040528084848080601f016020809104026020016040519081016040528093929190818152602001838380828437600081840152601f19601f82011690508083019250505050505050815260200160001515815250908060018154018082558091505060019003906000526020600020906002020160009091909190915060008201518160000190816101909190610758565b5060208201518160010160006101000a81548160ff02191690831515021790555050505050565b600081815481106101c757600080fd5b90600052602060002090600202016000915090508060000180546101ea9061057b565b80601f01602080910402602001604051908101604052809291908181526020018280546102169061057b565b80156102635780601f1061023857610100808354040283529160200191610263565b820191906000526020600020905b81548152906001019060200180831161024657829003601f168201915b5050505050908060010160009054906101000a900460ff16905082565b8181600085815481106102965761029561082a565b5b906000526020600020906002020160000191826102b4929190610864565b50505050565b600080fd5b600080fd5b6000819050919050565b6102d7816102c4565b81146102e257600080fd5b50565b6000813590506102f4816102ce565b92915050565b6000602082840312156103105761030f6102ba565b5b600061031e848285016102e5565b91505092915050565b600081519050919050565b600082825260208201905092915050565b60005b83811015610361578082015181840152602081019050610346565b83811115610370576000848401525b50505050565b6000601f19601f8301169050919050565b600061039282610327565b61039c8185610332565b93506103ac818560208601610343565b6103b581610376565b840191505092915050565b60008115159050919050565b6103d5816103c0565b82525050565b600060408201905081810360008301526103f58185610387565b905061040460208301846103cc565b9392505050565b600080fd5b600080fd5b600080fd5b60008083601f8401126104305761042f61040b565b5b8235905067ffffffffffffffff81111561044d5761044c610410565b5b60208301915083600182028301111561046957610468610415565b5b9250929050565b60008060208385031215610487576104866102ba565b5b600083013567ffffffffffffffff8111156104a5576104a46102bf565b5b6104b18582860161041a565b92509250509250929050565b6000806000604084860312156104d6576104d56102ba565b5b60006104e4868287016102e5565b935050602084013567ffffffffffffffff811115610505576105046102bf565b5b6105118682870161041a565b92509250509250925092565b7f4e487b7100000000000000000000000000000000000000000000000000000000600052604160045260246000fd5b7f4e487b7100000000000000000000000000000000000000000000000000000000600052602260045260246000fd5b6000600282049050600182168061059357607f821691505b6020821081036105a6576105a561054c565b5b50919050565b60008190508160005260206000209050919050565b60006020601f8301049050919050565b600082821b905092915050565b60006008830261060e7fffffffffffffffffffffffffffffffffffffffffffffffffffffffffffffffff826105d1565b61061886836105d1565b95508019841693508086168417925050509392505050565b6000819050919050565b600061065561065061064b846102c4565b610630565b6102c4565b9050919050565b6000819050919050565b61066f8361063a565b61068361067b8261065c565b8484546105de565b825550505050565b600090565b61069861068b565b6106a3818484610666565b505050565b5b818110156106c7576106bc600082610690565b6001810190506106a9565b5050565b601f82111561070c576106dd816105ac565b6106e6846105c1565b810160208510156106f5578190505b610709610701856105c1565b8301826106a8565b50505b505050565b600082821c905092915050565b600061072f60001984600802610711565b1980831691505092915050565b6000610748838361071e565b9150826002028217905092915050565b61076182610327565b67ffffffffffffffff81111561077a5761077961051d565b5b610784825461057b565b61078f8282856106cb565b600060209050601f8311600181146107c257600084156107b0578287015190505b6107ba858261073c565b865550610822565b601f1984166107d0866105ac565b60005b828110156107f8578489015182556001820191506020850194506020810190506107d3565b868310156108155784890151610811601f89168261071e565b8355505b6001600288020188555050505b505050505050565b7f4e487b7100000000000000000000000000000000000000000000000000000000600052603260045260246000fd5b600082905092915050565b61086e8383610859565b67ffffffffffffffff8111156108875761088661051d565b5b610891825461057b565b61089c8282856106cb565b6000601f8311600181146108cb57600084156108b9578287013590505b6108c3858261073c565b86555061092b565b601f1984166108d9866105ac565b60005b82811015610901578489013582556001820191506020850194506020810190506108dc565b8683101561091e578489013561091a601f89168261071e565b8355505b6001600288020188555050505b5050505050505056fea2646970667358221220cb23fda063c62aee7f353b966d6aa157079b06f4d9cc413993128092fb9714a964736f6c634300080f0033",
					"opcodes": "PUSH1 0x80 PUSH1 0x40 MSTORE CALLVALUE DUP1 ISZERO PUSH2 0x10 JUMPI PUSH1 0x0 DUP1 REVERT JUMPDEST POP PUSH2 0x96A DUP1 PUSH2 0x20 PUSH1 0x0 CODECOPY PUSH1 0x0 RETURN INVALID PUSH1 0x80 PUSH1 0x40 MSTORE CALLVALUE DUP1 ISZERO PUSH2 0x10 JUMPI PUSH1 0x0 DUP1 REVERT JUMPDEST POP PUSH1 0x4 CALLDATASIZE LT PUSH2 0x4C JUMPI PUSH1 0x0 CALLDATALOAD PUSH1 0xE0 SHR DUP1 PUSH4 0x9507D39A EQ PUSH2 0x51 JUMPI DUP1 PUSH4 0xB6A46B3B EQ PUSH2 0x82 JUMPI DUP1 PUSH4 0xBC8BC2B4 EQ PUSH2 0x9E JUMPI DUP1 PUSH4 0xCD111614 EQ PUSH2 0xCF JUMPI JUMPDEST PUSH1 0x0 DUP1 REVERT JUMPDEST PUSH2 0x6B PUSH1 0x4 DUP1 CALLDATASIZE SUB DUP2 ADD SWAP1 PUSH2 0x66 SWAP2 SWAP1 PUSH2 0x2FA JUMP JUMPDEST PUSH2 0xEB JUMP JUMPDEST PUSH1 0x40 MLOAD PUSH2 0x79 SWAP3 SWAP2 SWAP1 PUSH2 0x3DB JUMP JUMPDEST PUSH1 0x40 MLOAD DUP1 SWAP2 SUB SWAP1 RETURN JUMPDEST PUSH2 0x9C PUSH1 0x4 DUP1 CALLDATASIZE SUB DUP2 ADD SWAP1 PUSH2 0x97 SWAP2 SWAP1 PUSH2 0x470 JUMP JUMPDEST PUSH2 0xF4 JUMP JUMPDEST STOP JUMPDEST PUSH2 0xB8 PUSH1 0x4 DUP1 CALLDATASIZE SUB DUP2 ADD SWAP1 PUSH2 0xB3 SWAP2 SWAP1 PUSH2 0x2FA JUMP JUMPDEST PUSH2 0x1B7 JUMP JUMPDEST PUSH1 0x40 MLOAD PUSH2 0xC6 SWAP3 SWAP2 SWAP1 PUSH2 0x3DB JUMP JUMPDEST PUSH1 0x40 MLOAD DUP1 SWAP2 SUB SWAP1 RETURN JUMPDEST PUSH2 0xE9 PUSH1 0x4 DUP1 CALLDATASIZE SUB DUP2 ADD SWAP1 PUSH2 0xE4 SWAP2 SWAP1 PUSH2 0x4BD JUMP JUMPDEST PUSH2 0x280 JUMP JUMPDEST STOP JUMPDEST PUSH1 0x60 PUSH1 0x0 SWAP2 POP SWAP2 JUMP JUMPDEST PUSH1 0x0 PUSH1 0x40 MLOAD DUP1 PUSH1 0x40 ADD PUSH1 0x40 MSTORE DUP1 DUP5 DUP5 DUP1 DUP1 PUSH1 0x1F ADD PUSH1 0x20 DUP1 SWAP2 DIV MUL PUSH1 0x20 ADD PUSH1 0x40 MLOAD SWAP1 DUP2 ADD PUSH1 0x40 MSTORE DUP1 SWAP4 SWAP3 SWAP2 SWAP1 DUP2 DUP2 MSTORE PUSH1 0x20 ADD DUP4 DUP4 DUP1 DUP3 DUP5 CALLDATACOPY PUSH1 0x0 DUP2 DUP5 ADD MSTORE PUSH1 0x1F NOT PUSH1 0x1F DUP3 ADD AND SWAP1 POP DUP1 DUP4 ADD SWAP3 POP POP POP POP POP POP POP DUP2 MSTORE PUSH1 0x20 ADD PUSH1 0x0 ISZERO ISZERO DUP2 MSTORE POP SWAP1 DUP1 PUSH1 0x1 DUP2 SLOAD ADD DUP1 DUP3 SSTORE DUP1 SWAP2 POP POP PUSH1 0x1 SWAP1 SUB SWAP1 PUSH1 0x0 MSTORE PUSH1 0x20 PUSH1 0x0 KECCAK256 SWAP1 PUSH1 0x2 MUL ADD PUSH1 0x0 SWAP1 SWAP2 SWAP1 SWAP2 SWAP1 SWAP2 POP PUSH1 0x0 DUP3 ADD MLOAD DUP2 PUSH1 0x0 ADD SWAP1 DUP2 PUSH2 0x190 SWAP2 SWAP1 PUSH2 0x758 JUMP JUMPDEST POP PUSH1 0x20 DUP3 ADD MLOAD DUP2 PUSH1 0x1 ADD PUSH1 0x0 PUSH2 0x100 EXP DUP2 SLOAD DUP2 PUSH1 0xFF MUL NOT AND SWAP1 DUP4 ISZERO ISZERO MUL OR SWAP1 SSTORE POP POP POP POP POP JUMP JUMPDEST PUSH1 0x0 DUP2 DUP2 SLOAD DUP2 LT PUSH2 0x1C7 JUMPI PUSH1 0x0 DUP1 REVERT JUMPDEST SWAP1 PUSH1 0x0 MSTORE PUSH1 0x20 PUSH1 0x0 KECCAK256 SWAP1 PUSH1 0x2 MUL ADD PUSH1 0x0 SWAP2 POP SWAP1 POP DUP1 PUSH1 0x0 ADD DUP1 SLOAD PUSH2 0x1EA SWAP1 PUSH2 0x57B JUMP JUMPDEST DUP1 PUSH1 0x1F ADD PUSH1 0x20 DUP1 SWAP2 DIV MUL PUSH1 0x20 ADD PUSH1 0x40 MLOAD SWAP1 DUP2 ADD PUSH1 0x40 MSTORE DUP1 SWAP3 SWAP2 SWAP1 DUP2 DUP2 MSTORE PUSH1 0x20 ADD DUP3 DUP1 SLOAD PUSH2 0x216 SWAP1 PUSH2 0x57B JUMP JUMPDEST DUP1 ISZERO PUSH2 0x263 JUMPI DUP1 PUSH1 0x1F LT PUSH2 0x238 JUMPI PUSH2 0x100 DUP1 DUP4 SLOAD DIV MUL DUP4 MSTORE SWAP2 PUSH1 0x20 ADD SWAP2 PUSH2 0x263 JUMP JUMPDEST DUP3 ADD SWAP2 SWAP1 PUSH1 0x0 MSTORE PUSH1 0x20 PUSH1 0x0 KECCAK256 SWAP1 JUMPDEST DUP2 SLOAD DUP2 MSTORE SWAP1 PUSH1 0x1 ADD SWAP1 PUSH1 0x20 ADD DUP1 DUP4 GT PUSH2 0x246 JUMPI DUP3 SWAP1 SUB PUSH1 0x1F AND DUP3 ADD SWAP2 JUMPDEST POP POP POP POP POP SWAP1 DUP1 PUSH1 0x1 ADD PUSH1 0x0 SWAP1 SLOAD SWAP1 PUSH2 0x100 EXP SWAP1 DIV PUSH1 0xFF AND SWAP1 POP DUP3 JUMP JUMPDEST DUP2 DUP2 PUSH1 0x0 DUP6 DUP2 SLOAD DUP2 LT PUSH2 0x296 JUMPI PUSH2 0x295 PUSH2 0x82A JUMP JUMPDEST JUMPDEST SWAP1 PUSH1 0x0 MSTORE PUSH1 0x20 PUSH1 0x0 KECCAK256 SWAP1 PUSH1 0x2 MUL ADD PUSH1 0x0 ADD SWAP2 DUP3 PUSH2 0x2B4 SWAP3 SWAP2 SWAP1 PUSH2 0x864 JUMP JUMPDEST POP POP POP POP JUMP JUMPDEST PUSH1 0x0 DUP1 REVERT JUMPDEST PUSH1 0x0 DUP1 REVERT JUMPDEST PUSH1 0x0 DUP2 SWAP1 POP SWAP2 SWAP1 POP JUMP JUMPDEST PUSH2 0x2D7 DUP2 PUSH2 0x2C4 JUMP JUMPDEST DUP2 EQ PUSH2 0x2E2 JUMPI PUSH1 0x0 DUP1 REVERT JUMPDEST POP JUMP JUMPDEST PUSH1 0x0 DUP2 CALLDATALOAD SWAP1 POP PUSH2 0x2F4 DUP2 PUSH2 0x2CE JUMP JUMPDEST SWAP3 SWAP2 POP POP JUMP JUMPDEST PUSH1 0x0 PUSH1 0x20 DUP3 DUP5 SUB SLT ISZERO PUSH2 0x310 JUMPI PUSH2 0x30F PUSH2 0x2BA JUMP JUMPDEST JUMPDEST PUSH1 0x0 PUSH2 0x31E DUP5 DUP3 DUP6 ADD PUSH2 0x2E5 JUMP JUMPDEST SWAP2 POP POP SWAP3 SWAP2 POP POP JUMP JUMPDEST PUSH1 0x0 DUP2 MLOAD SWAP1 POP SWAP2 SWAP1 POP JUMP JUMPDEST PUSH1 0x0 DUP3 DUP3 MSTORE PUSH1 0x20 DUP3 ADD SWAP1 POP SWAP3 SWAP2 POP POP JUMP JUMPDEST PUSH1 0x0 JUMPDEST DUP4 DUP2 LT ISZERO PUSH2 0x361 JUMPI DUP1 DUP3 ADD MLOAD DUP2 DUP5 ADD MSTORE PUSH1 0x20 DUP2 ADD SWAP1 POP PUSH2 0x346 JUMP JUMPDEST DUP4 DUP2 GT ISZERO PUSH2 0x370 JUMPI PUSH1 0x0 DUP5 DUP5 ADD MSTORE JUMPDEST POP POP POP POP JUMP JUMPDEST PUSH1 0x0 PUSH1 0x1F NOT PUSH1 0x1F DUP4 ADD AND SWAP1 POP SWAP2 SWAP1 POP JUMP JUMPDEST PUSH1 0x0 PUSH2 0x392 DUP3 PUSH2 0x327 JUMP JUMPDEST PUSH2 0x39C DUP2 DUP6 PUSH2 0x332 JUMP JUMPDEST SWAP4 POP PUSH2 0x3AC DUP2 DUP6 PUSH1 0x20 DUP7 ADD PUSH2 0x343 JUMP JUMPDEST PUSH2 0x3B5 DUP2 PUSH2 0x376 JUMP JUMPDEST DUP5 ADD SWAP2 POP POP SWAP3 SWAP2 POP POP JUMP JUMPDEST PUSH1 0x0 DUP2 ISZERO ISZERO SWAP1 POP SWAP2 SWAP1 POP JUMP JUMPDEST PUSH2 0x3D5 DUP2 PUSH2 0x3C0 JUMP JUMPDEST DUP3 MSTORE POP POP JUMP JUMPDEST PUSH1 0x0 PUSH1 0x40 DUP3 ADD SWAP1 POP DUP2 DUP2 SUB PUSH1 0x0 DUP4 ADD MSTORE PUSH2 0x3F5 DUP2 DUP6 PUSH2 0x387 JUMP JUMPDEST SWAP1 POP PUSH2 0x404 PUSH1 0x20 DUP4 ADD DUP5 PUSH2 0x3CC JUMP JUMPDEST SWAP4 SWAP3 POP POP POP JUMP JUMPDEST PUSH1 0x0 DUP1 REVERT JUMPDEST PUSH1 0x0 DUP1 REVERT JUMPDEST PUSH1 0x0 DUP1 REVERT JUMPDEST PUSH1 0x0 DUP1 DUP4 PUSH1 0x1F DUP5 ADD SLT PUSH2 0x430 JUMPI PUSH2 0x42F PUSH2 0x40B JUMP JUMPDEST JUMPDEST DUP3 CALLDATALOAD SWAP1 POP PUSH8 0xFFFFFFFFFFFFFFFF DUP2 GT ISZERO PUSH2 0x44D JUMPI PUSH2 0x44C PUSH2 0x410 JUMP JUMPDEST JUMPDEST PUSH1 0x20 DUP4 ADD SWAP2 POP DUP4 PUSH1 0x1 DUP3 MUL DUP4 ADD GT ISZERO PUSH2 0x469 JUMPI PUSH2 0x468 PUSH2 0x415 JUMP JUMPDEST JUMPDEST SWAP3 POP SWAP3 SWAP1 POP JUMP JUMPDEST PUSH1 0x0 DUP1 PUSH1 0x20 DUP4 DUP6 SUB SLT ISZERO PUSH2 0x487 JUMPI PUSH2 0x486 PUSH2 0x2BA JUMP JUMPDEST JUMPDEST PUSH1 0x0 DUP4 ADD CALLDATALOAD PUSH8 0xFFFFFFFFFFFFFFFF DUP2 GT ISZERO PUSH2 0x4A5 JUMPI PUSH2 0x4A4 PUSH2 0x2BF JUMP JUMPDEST JUMPDEST PUSH2 0x4B1 DUP6 DUP3 DUP7 ADD PUSH2 0x41A JUMP JUMPDEST SWAP3 POP SWAP3 POP POP SWAP3 POP SWAP3 SWAP1 POP JUMP JUMPDEST PUSH1 0x0 DUP1 PUSH1 0x0 PUSH1 0x40 DUP5 DUP7 SUB SLT ISZERO PUSH2 0x4D6 JUMPI PUSH2 0x4D5 PUSH2 0x2BA JUMP JUMPDEST JUMPDEST PUSH1 0x0 PUSH2 0x4E4 DUP7 DUP3 DUP8 ADD PUSH2 0x2E5 JUMP JUMPDEST SWAP4 POP POP PUSH1 0x20 DUP5 ADD CALLDATALOAD PUSH8 0xFFFFFFFFFFFFFFFF DUP2 GT ISZERO PUSH2 0x505 JUMPI PUSH2 0x504 PUSH2 0x2BF JUMP JUMPDEST JUMPDEST PUSH2 0x511 DUP7 DUP3 DUP8 ADD PUSH2 0x41A JUMP JUMPDEST SWAP3 POP SWAP3 POP POP SWAP3 POP SWAP3 POP SWAP3 JUMP JUMPDEST PUSH32 0x4E487B7100000000000000000000000000000000000000000000000000000000 PUSH1 0x0 MSTORE PUSH1 0x41 PUSH1 0x4 MSTORE PUSH1 0x24 PUSH1 0x0 REVERT JUMPDEST PUSH32 0x4E487B7100000000000000000000000000000000000000000000000000000000 PUSH1 0x0 MSTORE PUSH1 0x22 PUSH1 0x4 MSTORE PUSH1 0x24 PUSH1 0x0 REVERT JUMPDEST PUSH1 0x0 PUSH1 0x2 DUP3 DIV SWAP1 POP PUSH1 0x1 DUP3 AND DUP1 PUSH2 0x593 JUMPI PUSH1 0x7F DUP3 AND SWAP2 POP JUMPDEST PUSH1 0x20 DUP3 LT DUP2 SUB PUSH2 0x5A6 JUMPI PUSH2 0x5A5 PUSH2 0x54C JUMP JUMPDEST JUMPDEST POP SWAP2 SWAP1 POP JUMP JUMPDEST PUSH1 0x0 DUP2 SWAP1 POP DUP2 PUSH1 0x0 MSTORE PUSH1 0x20 PUSH1 0x0 KECCAK256 SWAP1 POP SWAP2 SWAP1 POP JUMP JUMPDEST PUSH1 0x0 PUSH1 0x20 PUSH1 0x1F DUP4 ADD DIV SWAP1 POP SWAP2 SWAP1 POP JUMP JUMPDEST PUSH1 0x0 DUP3 DUP3 SHL SWAP1 POP SWAP3 SWAP2 POP POP JUMP JUMPDEST PUSH1 0x0 PUSH1 0x8 DUP4 MUL PUSH2 0x60E PUSH32 0xFFFFFFFFFFFFFFFFFFFFFFFFFFFFFFFFFFFFFFFFFFFFFFFFFFFFFFFFFFFFFFFF DUP3 PUSH2 0x5D1 JUMP JUMPDEST PUSH2 0x618 DUP7 DUP4 PUSH2 0x5D1 JUMP JUMPDEST SWAP6 POP DUP1 NOT DUP5 AND SWAP4 POP DUP1 DUP7 AND DUP5 OR SWAP3 POP POP POP SWAP4 SWAP3 POP POP POP JUMP JUMPDEST PUSH1 0x0 DUP2 SWAP1 POP SWAP2 SWAP1 POP JUMP JUMPDEST PUSH1 0x0 PUSH2 0x655 PUSH2 0x650 PUSH2 0x64B DUP5 PUSH2 0x2C4 JUMP JUMPDEST PUSH2 0x630 JUMP JUMPDEST PUSH2 0x2C4 JUMP JUMPDEST SWAP1 POP SWAP2 SWAP1 POP JUMP JUMPDEST PUSH1 0x0 DUP2 SWAP1 POP SWAP2 SWAP1 POP JUMP JUMPDEST PUSH2 0x66F DUP4 PUSH2 0x63A JUMP JUMPDEST PUSH2 0x683 PUSH2 0x67B DUP3 PUSH2 0x65C JUMP JUMPDEST DUP5 DUP5 SLOAD PUSH2 0x5DE JUMP JUMPDEST DUP3 SSTORE POP POP POP POP JUMP JUMPDEST PUSH1 0x0 SWAP1 JUMP JUMPDEST PUSH2 0x698 PUSH2 0x68B JUMP JUMPDEST PUSH2 0x6A3 DUP2 DUP5 DUP5 PUSH2 0x666 JUMP JUMPDEST POP POP POP JUMP JUMPDEST JUMPDEST DUP2 DUP2 LT ISZERO PUSH2 0x6C7 JUMPI PUSH2 0x6BC PUSH1 0x0 DUP3 PUSH2 0x690 JUMP JUMPDEST PUSH1 0x1 DUP2 ADD SWAP1 POP PUSH2 0x6A9 JUMP JUMPDEST POP POP JUMP JUMPDEST PUSH1 0x1F DUP3 GT ISZERO PUSH2 0x70C JUMPI PUSH2 0x6DD DUP2 PUSH2 0x5AC JUMP JUMPDEST PUSH2 0x6E6 DUP5 PUSH2 0x5C1 JUMP JUMPDEST DUP2 ADD PUSH1 0x20 DUP6 LT ISZERO PUSH2 0x6F5 JUMPI DUP2 SWAP1 POP JUMPDEST PUSH2 0x709 PUSH2 0x701 DUP6 PUSH2 0x5C1 JUMP JUMPDEST DUP4 ADD DUP3 PUSH2 0x6A8 JUMP JUMPDEST POP POP JUMPDEST POP POP POP JUMP JUMPDEST PUSH1 0x0 DUP3 DUP3 SHR SWAP1 POP SWAP3 SWAP2 POP POP JUMP JUMPDEST PUSH1 0x0 PUSH2 0x72F PUSH1 0x0 NOT DUP5 PUSH1 0x8 MUL PUSH2 0x711 JUMP JUMPDEST NOT DUP1 DUP4 AND SWAP2 POP POP SWAP3 SWAP2 POP POP JUMP JUMPDEST PUSH1 0x0 PUSH2 0x748 DUP4 DUP4 PUSH2 0x71E JUMP JUMPDEST SWAP2 POP DUP3 PUSH1 0x2 MUL DUP3 OR SWAP1 POP SWAP3 SWAP2 POP POP JUMP JUMPDEST PUSH2 0x761 DUP3 PUSH2 0x327 JUMP JUMPDEST PUSH8 0xFFFFFFFFFFFFFFFF DUP2 GT ISZERO PUSH2 0x77A JUMPI PUSH2 0x779 PUSH2 0x51D JUMP JUMPDEST JUMPDEST PUSH2 0x784 DUP3 SLOAD PUSH2 0x57B JUMP JUMPDEST PUSH2 0x78F DUP3 DUP3 DUP6 PUSH2 0x6CB JUMP JUMPDEST PUSH1 0x0 PUSH1 0x20 SWAP1 POP PUSH1 0x1F DUP4 GT PUSH1 0x1 DUP2 EQ PUSH2 0x7C2 JUMPI PUSH1 0x0 DUP5 ISZERO PUSH2 0x7B0 JUMPI DUP3 DUP8 ADD MLOAD SWAP1 POP JUMPDEST PUSH2 0x7BA DUP6 DUP3 PUSH2 0x73C JUMP JUMPDEST DUP7 SSTORE POP PUSH2 0x822 JUMP JUMPDEST PUSH1 0x1F NOT DUP5 AND PUSH2 0x7D0 DUP7 PUSH2 0x5AC JUMP JUMPDEST PUSH1 0x0 JUMPDEST DUP3 DUP2 LT ISZERO PUSH2 0x7F8 JUMPI DUP5 DUP10 ADD MLOAD DUP3 SSTORE PUSH1 0x1 DUP3 ADD SWAP2 POP PUSH1 0x20 DUP6 ADD SWAP5 POP PUSH1 0x20 DUP2 ADD SWAP1 POP PUSH2 0x7D3 JUMP JUMPDEST DUP7 DUP4 LT ISZERO PUSH2 0x815 JUMPI DUP5 DUP10 ADD MLOAD PUSH2 0x811 PUSH1 0x1F DUP10 AND DUP3 PUSH2 0x71E JUMP JUMPDEST DUP4 SSTORE POP JUMPDEST PUSH1 0x1 PUSH1 0x2 DUP9 MUL ADD DUP9 SSTORE POP POP POP JUMPDEST POP POP POP POP POP POP JUMP JUMPDEST PUSH32 0x4E487B7100000000000000000000000000000000000000000000000000000000 PUSH1 0x0 MSTORE PUSH1 0x32 PUSH1 0x4 MSTORE PUSH1 0x24 PUSH1 0x0 REVERT JUMPDEST PUSH1 0x0 DUP3 SWAP1 POP SWAP3 SWAP2 POP POP JUMP JUMPDEST PUSH2 0x86E DUP4 DUP4 PUSH2 0x859 JUMP JUMPDEST PUSH8 0xFFFFFFFFFFFFFFFF DUP2 GT ISZERO PUSH2 0x887 JUMPI PUSH2 0x886 PUSH2 0x51D JUMP JUMPDEST JUMPDEST PUSH2 0x891 DUP3 SLOAD PUSH2 0x57B JUMP JUMPDEST PUSH2 0x89C DUP3 DUP3 DUP6 PUSH2 0x6CB JUMP JUMPDEST PUSH1 0x0 PUSH1 0x1F DUP4 GT PUSH1 0x1 DUP2 EQ PUSH2 0x8CB JUMPI PUSH1 0x0 DUP5 ISZERO PUSH2 0x8B9 JUMPI DUP3 DUP8 ADD CALLDATALOAD SWAP1 POP JUMPDEST PUSH2 0x8C3 DUP6 DUP3 PUSH2 0x73C JUMP JUMPDEST DUP7 SSTORE POP PUSH2 0x92B JUMP JUMPDEST PUSH1 0x1F NOT DUP5 AND PUSH2 0x8D9 DUP7 PUSH2 0x5AC JUMP JUMPDEST PUSH1 0x0 JUMPDEST DUP3 DUP2 LT ISZERO PUSH2 0x901 JUMPI DUP5 DUP10 ADD CALLDATALOAD DUP3 SSTORE PUSH1 0x1 DUP3 ADD SWAP2 POP PUSH1 0x20 DUP6 ADD SWAP5 POP PUSH1 0x20 DUP2 ADD SWAP1 POP PUSH2 0x8DC JUMP JUMPDEST DUP7 DUP4 LT ISZERO PUSH2 0x91E JUMPI DUP5 DUP10 ADD CALLDATALOAD PUSH2 0x91A PUSH1 0x1F DUP10 AND DUP3 PUSH2 0x71E JUMP JUMPDEST DUP4 SSTORE POP JUMPDEST PUSH1 0x1 PUSH1 0x2 DUP9 MUL ADD DUP9 SSTORE POP POP POP JUMPDEST POP POP POP POP POP POP POP JUMP INVALID LOG2 PUSH5 0x6970667358 0x22 SLT KECCAK256 0xCB 0x23 REVERT LOG0 PUSH4 0xC62AEE7F CALLDATALOAD EXTCODESIZE SWAP7 PUSH14 0x6AA157079B06F4D9CC4139931280 SWAP3 0xFB SWAP8 EQ 0xA9 PUSH5 0x736F6C6343 STOP ADDMOD 0xF STOP CALLER "
				},
				"gasEstimates": {
					"creation": {
						"codeDepositCost": "482000",
						"executionCost": "518",
						"totalCost": "482518"
					},
					"external": {
						"create(string)": "infinite",
						"get(uint256)": "infinite",
						"todos(uint256)": "infinite",
						"updateText(uint256,string)": "infinite"
					}
				},
				"methodIdentifiers": {
					"create(string)": "b6a46b3b",
					"get(uint256)": "9507d39a",
					"todos(uint256)": "bc8bc2b4",
					"updateText(uint256,string)": "cd111614"
				}
			},
			"storageLayout": {
				"storage": [
					{
						"astId": 10,
						"contract": "HelloWorld/28TodoList.sol:TodoList",
						"label": "todos",
						"offset": 0,
						"slot": "0",
						"type": "t_array(t_struct(Todo)6_storage)dyn_storage"
					}
				],
				"types": {
					"t_array(t_struct(Todo)6_storage)dyn_storage": {
						"base": "t_struct(Todo)6_storage",
						"encoding": "dynamic_array",
						"label": "struct TodoList.Todo[]",
						"numberOfBytes": "32"
					},
					"t_bool": {
						"encoding": "inplace",
						"label": "bool",
						"numberOfBytes": "1"
					},
					"t_string_storage": {
						"encoding": "bytes",
						"label": "string",
						"numberOfBytes": "32"
					},
					"t_struct(Todo)6_storage": {
						"encoding": "inplace",
						"label": "struct TodoList.Todo",
						"members": [
							{
								"astId": 3,
								"contract": "HelloWorld/28TodoList.sol:TodoList",
								"label": "text",
								"offset": 0,
								"slot": "0",
								"type": "t_string_storage"
							},
							{
								"astId": 5,
								"contract": "HelloWorld/28TodoList.sol:TodoList",
								"label": "completed",
								"offset": 0,
								"slot": "1",
								"type": "t_bool"
							}
						],
						"numberOfBytes": "64"
					}
				}
			},
			"userdoc": {
				"kind": "user",
				"methods": {},
				"version": 1
			}
		}
	}
}