{
	"HelloWorld/23Structs.sol": {
		"Structs": {
			"abi": [
				{
					"inputs": [],
					"name": "car",
					"outputs": [
						{
							"internalType": "string",
							"name": "model",
							"type": "string"
						},
						{
							"internalType": "uint256",
							"name": "year",
							"type": "uint256"
						},
						{
							"internalType": "address",
							"name": "owner",
							"type": "address"
						}
					],
					"stateMutability": "view",
					"type": "function"
				},
				{
					"inputs": [
						{
							"internalType": "uint256",
							"name": "",
							"type": "uint256"
						}
					],
					"name": "cars",
					"outputs": [
						{
							"internalType": "string",
							"name": "model",
							"type": "string"
						},
						{
							"internalType": "uint256",
							"name": "year",
							"type": "uint256"
						},
						{
							"internalType": "address",
							"name": "owner",
							"type": "address"
						}
					],
					"stateMutability": "view",
					"type": "function"
				}
			],
			"devdoc": {
				"kind": "dev",
				"methods": {},
				"version": 1
			},
			"evm": {
				"assembly": "    /* \"HelloWorld/23Structs.sol\":56:213  contract Structs {... */\n  mstore(0x40, 0x80)\n  callvalue\n  dup1\n  iszero\n  tag_1\n  jumpi\n  0x00\n  dup1\n  revert\ntag_1:\n  pop\n  dataSize(sub_0)\n  dup1\n  dataOffset(sub_0)\n  0x00\n  codecopy\n  0x00\n  return\nstop\n\nsub_0: assembly {\n        /* \"HelloWorld/23Structs.sol\":56:213  contract Structs {... */\n      mstore(0x40, 0x80)\n      callvalue\n      dup1\n      iszero\n      tag_1\n      jumpi\n      0x00\n      dup1\n      revert\n    tag_1:\n      pop\n      jumpi(tag_2, lt(calldatasize, 0x04))\n      shr(0xe0, calldataload(0x00))\n      dup1\n      0xee26fac3\n      eq\n      tag_3\n      jumpi\n      dup1\n      0xf7746e36\n      eq\n      tag_4\n      jumpi\n    tag_2:\n      0x00\n      dup1\n      revert\n        /* \"HelloWorld/23Structs.sol\":167:181  Car public car */\n    tag_3:\n      tag_5\n      tag_6\n      jump\t// in\n    tag_5:\n      mload(0x40)\n      tag_7\n      swap4\n      swap3\n      swap2\n      swap1\n      tag_8\n      jump\t// in\n    tag_7:\n      mload(0x40)\n      dup1\n      swap2\n      sub\n      swap1\n      return\n        /* \"HelloWorld/23Structs.sol\":187:205  Car [] public cars */\n    tag_4:\n      tag_9\n      0x04\n      dup1\n      calldatasize\n      sub\n      dup2\n      add\n      swap1\n      tag_10\n      swap2\n      swap1\n      tag_11\n      jump\t// in\n    tag_10:\n      tag_12\n      jump\t// in\n    tag_9:\n      mload(0x40)\n      tag_13\n      swap4\n      swap3\n      swap2\n      swap1\n      tag_8\n      jump\t// in\n    tag_13:\n      mload(0x40)\n      dup1\n      swap2\n      sub\n      swap1\n      return\n        /* \"HelloWorld/23Structs.sol\":167:181  Car public car */\n    tag_6:\n      0x00\n      dup1\n      0x00\n      add\n      dup1\n      sload\n      tag_14\n      swap1\n      tag_15\n      jump\t// in\n    tag_14:\n      dup1\n      0x1f\n      add\n      0x20\n      dup1\n      swap2\n      div\n      mul\n      0x20\n      add\n      mload(0x40)\n      swap1\n      dup2\n      add\n      0x40\n      mstore\n      dup1\n      swap3\n      swap2\n      swap1\n      dup2\n      dup2\n      mstore\n      0x20\n      add\n      dup3\n      dup1\n      sload\n      tag_16\n      swap1\n      tag_15\n      jump\t// in\n    tag_16:\n      dup1\n      iszero\n      tag_17\n      jumpi\n      dup1\n      0x1f\n      lt\n      tag_18\n      jumpi\n      0x0100\n      dup1\n      dup4\n      sload\n      div\n      mul\n      dup4\n      mstore\n      swap2\n      0x20\n      add\n      swap2\n      jump(tag_17)\n    tag_18:\n      dup3\n      add\n      swap2\n      swap1\n      0x00\n      mstore\n      keccak256(0x00, 0x20)\n      swap1\n    tag_19:\n      dup2\n      sload\n      dup2\n      mstore\n      swap1\n      0x01\n      add\n      swap1\n      0x20\n      add\n      dup1\n      dup4\n      gt\n      tag_19\n      jumpi\n      dup3\n      swap1\n      sub\n      0x1f\n      and\n      dup3\n      add\n      swap2\n    tag_17:\n      pop\n      pop\n      pop\n      pop\n      pop\n      swap1\n      dup1\n      0x01\n      add\n      sload\n      swap1\n      dup1\n      0x02\n      add\n      0x00\n      swap1\n      sload\n      swap1\n      0x0100\n      exp\n      swap1\n      div\n      0xffffffffffffffffffffffffffffffffffffffff\n      and\n      swap1\n      pop\n      dup4\n      jump\t// out\n        /* \"HelloWorld/23Structs.sol\":187:205  Car [] public cars */\n    tag_12:\n      0x03\n      dup2\n      dup2\n      sload\n      dup2\n      lt\n      tag_20\n      jumpi\n      0x00\n      dup1\n      revert\n    tag_20:\n      swap1\n      0x00\n      mstore\n      keccak256(0x00, 0x20)\n      swap1\n      0x03\n      mul\n      add\n      0x00\n      swap2\n      pop\n      swap1\n      pop\n      dup1\n      0x00\n      add\n      dup1\n      sload\n      tag_22\n      swap1\n      tag_15\n      jump\t// in\n    tag_22:\n      dup1\n      0x1f\n      add\n      0x20\n      dup1\n      swap2\n      div\n      mul\n      0x20\n      add\n      mload(0x40)\n      swap1\n      dup2\n      add\n      0x40\n      mstore\n      dup1\n      swap3\n      swap2\n      swap1\n      dup2\n      dup2\n      mstore\n      0x20\n      add\n      dup3\n      dup1\n      sload\n      tag_23\n      swap1\n      tag_15\n      jump\t// in\n    tag_23:\n      dup1\n      iszero\n      tag_24\n      jumpi\n      dup1\n      0x1f\n      lt\n      tag_25\n      jumpi\n      0x0100\n      dup1\n      dup4\n      sload\n      div\n      mul\n      dup4\n      mstore\n      swap2\n      0x20\n      add\n      swap2\n      jump(tag_24)\n    tag_25:\n      dup3\n      add\n      swap2\n      swap1\n      0x00\n      mstore\n      keccak256(0x00, 0x20)\n      swap1\n    tag_26:\n      dup2\n      sload\n      dup2\n      mstore\n      swap1\n      0x01\n      add\n      swap1\n      0x20\n      add\n      dup1\n      dup4\n      gt\n      tag_26\n      jumpi\n      dup3\n      swap1\n      sub\n      0x1f\n      and\n      dup3\n      add\n      swap2\n    tag_24:\n      pop\n      pop\n      pop\n      pop\n      pop\n      swap1\n      dup1\n      0x01\n      add\n      sload\n      swap1\n      dup1\n      0x02\n      add\n      0x00\n      swap1\n      sload\n      swap1\n      0x0100\n      exp\n      swap1\n      div\n      0xffffffffffffffffffffffffffffffffffffffff\n      and\n      swap1\n      pop\n      dup4\n      jump\t// out\n        /* \"#utility.yul\":7:106   */\n    tag_27:\n        /* \"#utility.yul\":59:65   */\n      0x00\n        /* \"#utility.yul\":93:98   */\n      dup2\n        /* \"#utility.yul\":87:99   */\n      mload\n        /* \"#utility.yul\":77:99   */\n      swap1\n      pop\n        /* \"#utility.yul\":7:106   */\n      swap2\n      swap1\n      pop\n      jump\t// out\n        /* \"#utility.yul\":112:281   */\n    tag_28:\n        /* \"#utility.yul\":196:207   */\n      0x00\n        /* \"#utility.yul\":230:236   */\n      dup3\n        /* \"#utility.yul\":225:228   */\n      dup3\n        /* \"#utility.yul\":218:237   */\n      mstore\n        /* \"#utility.yul\":270:274   */\n      0x20\n        /* \"#utility.yul\":265:268   */\n      dup3\n        /* \"#utility.yul\":261:275   */\n      add\n        /* \"#utility.yul\":246:275   */\n      swap1\n      pop\n        /* \"#utility.yul\":112:281   */\n      swap3\n      swap2\n      pop\n      pop\n      jump\t// out\n        /* \"#utility.yul\":287:594   */\n    tag_29:\n        /* \"#utility.yul\":355:356   */\n      0x00\n        /* \"#utility.yul\":365:478   */\n    tag_47:\n        /* \"#utility.yul\":379:385   */\n      dup4\n        /* \"#utility.yul\":376:377   */\n      dup2\n        /* \"#utility.yul\":373:386   */\n      lt\n        /* \"#utility.yul\":365:478   */\n      iszero\n      tag_49\n      jumpi\n        /* \"#utility.yul\":464:465   */\n      dup1\n        /* \"#utility.yul\":459:462   */\n      dup3\n        /* \"#utility.yul\":455:466   */\n      add\n        /* \"#utility.yul\":449:467   */\n      mload\n        /* \"#utility.yul\":445:446   */\n      dup2\n        /* \"#utility.yul\":440:443   */\n      dup5\n        /* \"#utility.yul\":436:447   */\n      add\n        /* \"#utility.yul\":429:468   */\n      mstore\n        /* \"#utility.yul\":401:403   */\n      0x20\n        /* \"#utility.yul\":398:399   */\n      dup2\n        /* \"#utility.yul\":394:404   */\n      add\n        /* \"#utility.yul\":389:404   */\n      swap1\n      pop\n        /* \"#utility.yul\":365:478   */\n      jump(tag_47)\n    tag_49:\n        /* \"#utility.yul\":496:502   */\n      dup4\n        /* \"#utility.yul\":493:494   */\n      dup2\n        /* \"#utility.yul\":490:503   */\n      gt\n        /* \"#utility.yul\":487:588   */\n      iszero\n      tag_50\n      jumpi\n        /* \"#utility.yul\":576:577   */\n      0x00\n        /* \"#utility.yul\":567:573   */\n      dup5\n        /* \"#utility.yul\":562:565   */\n      dup5\n        /* \"#utility.yul\":558:574   */\n      add\n        /* \"#utility.yul\":551:578   */\n      mstore\n        /* \"#utility.yul\":487:588   */\n    tag_50:\n        /* \"#utility.yul\":336:594   */\n      pop\n        /* \"#utility.yul\":287:594   */\n      pop\n      pop\n      pop\n      jump\t// out\n        /* \"#utility.yul\":600:702   */\n    tag_30:\n        /* \"#utility.yul\":641:647   */\n      0x00\n        /* \"#utility.yul\":692:694   */\n      0x1f\n        /* \"#utility.yul\":688:695   */\n      not\n        /* \"#utility.yul\":683:685   */\n      0x1f\n        /* \"#utility.yul\":676:681   */\n      dup4\n        /* \"#utility.yul\":672:686   */\n      add\n        /* \"#utility.yul\":668:696   */\n      and\n        /* \"#utility.yul\":658:696   */\n      swap1\n      pop\n        /* \"#utility.yul\":600:702   */\n      swap2\n      swap1\n      pop\n      jump\t// out\n        /* \"#utility.yul\":708:1072   */\n    tag_31:\n        /* \"#utility.yul\":796:799   */\n      0x00\n        /* \"#utility.yul\":824:863   */\n      tag_53\n        /* \"#utility.yul\":857:862   */\n      dup3\n        /* \"#utility.yul\":824:863   */\n      tag_27\n      jump\t// in\n    tag_53:\n        /* \"#utility.yul\":879:950   */\n      tag_54\n        /* \"#utility.yul\":943:949   */\n      dup2\n        /* \"#utility.yul\":938:941   */\n      dup6\n        /* \"#utility.yul\":879:950   */\n      tag_28\n      jump\t// in\n    tag_54:\n        /* \"#utility.yul\":872:950   */\n      swap4\n      pop\n        /* \"#utility.yul\":959:1011   */\n      tag_55\n        /* \"#utility.yul\":1004:1010   */\n      dup2\n        /* \"#utility.yul\":999:1002   */\n      dup6\n        /* \"#utility.yul\":992:996   */\n      0x20\n        /* \"#utility.yul\":985:990   */\n      dup7\n        /* \"#utility.yul\":981:997   */\n      add\n        /* \"#utility.yul\":959:1011   */\n      tag_29\n      jump\t// in\n    tag_55:\n        /* \"#utility.yul\":1036:1065   */\n      tag_56\n        /* \"#utility.yul\":1058:1064   */\n      dup2\n        /* \"#utility.yul\":1036:1065   */\n      tag_30\n      jump\t// in\n    tag_56:\n        /* \"#utility.yul\":1031:1034   */\n      dup5\n        /* \"#utility.yul\":1027:1066   */\n      add\n        /* \"#utility.yul\":1020:1066   */\n      swap2\n      pop\n        /* \"#utility.yul\":800:1072   */\n      pop\n        /* \"#utility.yul\":708:1072   */\n      swap3\n      swap2\n      pop\n      pop\n      jump\t// out\n        /* \"#utility.yul\":1078:1155   */\n    tag_32:\n        /* \"#utility.yul\":1115:1122   */\n      0x00\n        /* \"#utility.yul\":1144:1149   */\n      dup2\n        /* \"#utility.yul\":1133:1149   */\n      swap1\n      pop\n        /* \"#utility.yul\":1078:1155   */\n      swap2\n      swap1\n      pop\n      jump\t// out\n        /* \"#utility.yul\":1161:1279   */\n    tag_33:\n        /* \"#utility.yul\":1248:1272   */\n      tag_59\n        /* \"#utility.yul\":1266:1271   */\n      dup2\n        /* \"#utility.yul\":1248:1272   */\n      tag_32\n      jump\t// in\n    tag_59:\n        /* \"#utility.yul\":1243:1246   */\n      dup3\n        /* \"#utility.yul\":1236:1273   */\n      mstore\n        /* \"#utility.yul\":1161:1279   */\n      pop\n      pop\n      jump\t// out\n        /* \"#utility.yul\":1285:1411   */\n    tag_34:\n        /* \"#utility.yul\":1322:1329   */\n      0x00\n        /* \"#utility.yul\":1362:1404   */\n      0xffffffffffffffffffffffffffffffffffffffff\n        /* \"#utility.yul\":1355:1360   */\n      dup3\n        /* \"#utility.yul\":1351:1405   */\n      and\n        /* \"#utility.yul\":1340:1405   */\n      swap1\n      pop\n        /* \"#utility.yul\":1285:1411   */\n      swap2\n      swap1\n      pop\n      jump\t// out\n        /* \"#utility.yul\":1417:1513   */\n    tag_35:\n        /* \"#utility.yul\":1454:1461   */\n      0x00\n        /* \"#utility.yul\":1483:1507   */\n      tag_62\n        /* \"#utility.yul\":1501:1506   */\n      dup3\n        /* \"#utility.yul\":1483:1507   */\n      tag_34\n      jump\t// in\n    tag_62:\n        /* \"#utility.yul\":1472:1507   */\n      swap1\n      pop\n        /* \"#utility.yul\":1417:1513   */\n      swap2\n      swap1\n      pop\n      jump\t// out\n        /* \"#utility.yul\":1519:1637   */\n    tag_36:\n        /* \"#utility.yul\":1606:1630   */\n      tag_64\n        /* \"#utility.yul\":1624:1629   */\n      dup2\n        /* \"#utility.yul\":1606:1630   */\n      tag_35\n      jump\t// in\n    tag_64:\n        /* \"#utility.yul\":1601:1604   */\n      dup3\n        /* \"#utility.yul\":1594:1631   */\n      mstore\n        /* \"#utility.yul\":1519:1637   */\n      pop\n      pop\n      jump\t// out\n        /* \"#utility.yul\":1643:2176   */\n    tag_8:\n        /* \"#utility.yul\":1812:1816   */\n      0x00\n        /* \"#utility.yul\":1850:1852   */\n      0x60\n        /* \"#utility.yul\":1839:1848   */\n      dup3\n        /* \"#utility.yul\":1835:1853   */\n      add\n        /* \"#utility.yul\":1827:1853   */\n      swap1\n      pop\n        /* \"#utility.yul\":1899:1908   */\n      dup2\n        /* \"#utility.yul\":1893:1897   */\n      dup2\n        /* \"#utility.yul\":1889:1909   */\n      sub\n        /* \"#utility.yul\":1885:1886   */\n      0x00\n        /* \"#utility.yul\":1874:1883   */\n      dup4\n        /* \"#utility.yul\":1870:1887   */\n      add\n        /* \"#utility.yul\":1863:1910   */\n      mstore\n        /* \"#utility.yul\":1927:2005   */\n      tag_66\n        /* \"#utility.yul\":2000:2004   */\n      dup2\n        /* \"#utility.yul\":1991:1997   */\n      dup7\n        /* \"#utility.yul\":1927:2005   */\n      tag_31\n      jump\t// in\n    tag_66:\n        /* \"#utility.yul\":1919:2005   */\n      swap1\n      pop\n        /* \"#utility.yul\":2015:2087   */\n      tag_67\n        /* \"#utility.yul\":2083:2085   */\n      0x20\n        /* \"#utility.yul\":2072:2081   */\n      dup4\n        /* \"#utility.yul\":2068:2086   */\n      add\n        /* \"#utility.yul\":2059:2065   */\n      dup6\n        /* \"#utility.yul\":2015:2087   */\n      tag_33\n      jump\t// in\n    tag_67:\n        /* \"#utility.yul\":2097:2169   */\n      tag_68\n        /* \"#utility.yul\":2165:2167   */\n      0x40\n        /* \"#utility.yul\":2154:2163   */\n      dup4\n        /* \"#utility.yul\":2150:2168   */\n      add\n        /* \"#utility.yul\":2141:2147   */\n      dup5\n        /* \"#utility.yul\":2097:2169   */\n      tag_36\n      jump\t// in\n    tag_68:\n        /* \"#utility.yul\":1643:2176   */\n      swap5\n      swap4\n      pop\n      pop\n      pop\n      pop\n      jump\t// out\n        /* \"#utility.yul\":2263:2380   */\n    tag_38:\n        /* \"#utility.yul\":2372:2373   */\n      0x00\n        /* \"#utility.yul\":2369:2370   */\n      dup1\n        /* \"#utility.yul\":2362:2374   */\n      revert\n        /* \"#utility.yul\":2509:2631   */\n    tag_40:\n        /* \"#utility.yul\":2582:2606   */\n      tag_73\n        /* \"#utility.yul\":2600:2605   */\n      dup2\n        /* \"#utility.yul\":2582:2606   */\n      tag_32\n      jump\t// in\n    tag_73:\n        /* \"#utility.yul\":2575:2580   */\n      dup2\n        /* \"#utility.yul\":2572:2607   */\n      eq\n        /* \"#utility.yul\":2562:2625   */\n      tag_74\n      jumpi\n        /* \"#utility.yul\":2621:2622   */\n      0x00\n        /* \"#utility.yul\":2618:2619   */\n      dup1\n        /* \"#utility.yul\":2611:2623   */\n      revert\n        /* \"#utility.yul\":2562:2625   */\n    tag_74:\n        /* \"#utility.yul\":2509:2631   */\n      pop\n      jump\t// out\n        /* \"#utility.yul\":2637:2776   */\n    tag_41:\n        /* \"#utility.yul\":2683:2688   */\n      0x00\n        /* \"#utility.yul\":2721:2727   */\n      dup2\n        /* \"#utility.yul\":2708:2728   */\n      calldataload\n        /* \"#utility.yul\":2699:2728   */\n      swap1\n      pop\n        /* \"#utility.yul\":2737:2770   */\n      tag_76\n        /* \"#utility.yul\":2764:2769   */\n      dup2\n        /* \"#utility.yul\":2737:2770   */\n      tag_40\n      jump\t// in\n    tag_76:\n        /* \"#utility.yul\":2637:2776   */\n      swap3\n      swap2\n      pop\n      pop\n      jump\t// out\n        /* \"#utility.yul\":2782:3111   */\n    tag_11:\n        /* \"#utility.yul\":2841:2847   */\n      0x00\n        /* \"#utility.yul\":2890:2892   */\n      0x20\n        /* \"#utility.yul\":2878:2887   */\n      dup3\n        /* \"#utility.yul\":2869:2876   */\n      dup5\n        /* \"#utility.yul\":2865:2888   */\n      sub\n        /* \"#utility.yul\":2861:2893   */\n      slt\n        /* \"#utility.yul\":2858:2977   */\n      iszero\n      tag_78\n      jumpi\n        /* \"#utility.yul\":2896:2975   */\n      tag_79\n      tag_38\n      jump\t// in\n    tag_79:\n        /* \"#utility.yul\":2858:2977   */\n    tag_78:\n        /* \"#utility.yul\":3016:3017   */\n      0x00\n        /* \"#utility.yul\":3041:3094   */\n      tag_80\n        /* \"#utility.yul\":3086:3093   */\n      dup5\n        /* \"#utility.yul\":3077:3083   */\n      dup3\n        /* \"#utility.yul\":3066:3075   */\n      dup6\n        /* \"#utility.yul\":3062:3084   */\n      add\n        /* \"#utility.yul\":3041:3094   */\n      tag_41\n      jump\t// in\n    tag_80:\n        /* \"#utility.yul\":3031:3094   */\n      swap2\n      pop\n        /* \"#utility.yul\":2987:3104   */\n      pop\n        /* \"#utility.yul\":2782:3111   */\n      swap3\n      swap2\n      pop\n      pop\n      jump\t// out\n        /* \"#utility.yul\":3117:3297   */\n    tag_42:\n        /* \"#utility.yul\":3165:3242   */\n      0x4e487b7100000000000000000000000000000000000000000000000000000000\n        /* \"#utility.yul\":3162:3163   */\n      0x00\n        /* \"#utility.yul\":3155:3243   */\n      mstore\n        /* \"#utility.yul\":3262:3266   */\n      0x22\n        /* \"#utility.yul\":3259:3260   */\n      0x04\n        /* \"#utility.yul\":3252:3267   */\n      mstore\n        /* \"#utility.yul\":3286:3290   */\n      0x24\n        /* \"#utility.yul\":3283:3284   */\n      0x00\n        /* \"#utility.yul\":3276:3291   */\n      revert\n        /* \"#utility.yul\":3303:3623   */\n    tag_15:\n        /* \"#utility.yul\":3347:3353   */\n      0x00\n        /* \"#utility.yul\":3384:3385   */\n      0x02\n        /* \"#utility.yul\":3378:3382   */\n      dup3\n        /* \"#utility.yul\":3374:3386   */\n      div\n        /* \"#utility.yul\":3364:3386   */\n      swap1\n      pop\n        /* \"#utility.yul\":3431:3432   */\n      0x01\n        /* \"#utility.yul\":3425:3429   */\n      dup3\n        /* \"#utility.yul\":3421:3433   */\n      and\n        /* \"#utility.yul\":3452:3470   */\n      dup1\n        /* \"#utility.yul\":3442:3523   */\n      tag_83\n      jumpi\n        /* \"#utility.yul\":3508:3512   */\n      0x7f\n        /* \"#utility.yul\":3500:3506   */\n      dup3\n        /* \"#utility.yul\":3496:3513   */\n      and\n        /* \"#utility.yul\":3486:3513   */\n      swap2\n      pop\n        /* \"#utility.yul\":3442:3523   */\n    tag_83:\n        /* \"#utility.yul\":3570:3572   */\n      0x20\n        /* \"#utility.yul\":3562:3568   */\n      dup3\n        /* \"#utility.yul\":3559:3573   */\n      lt\n        /* \"#utility.yul\":3539:3557   */\n      dup2\n        /* \"#utility.yul\":3536:3574   */\n      sub\n        /* \"#utility.yul\":3533:3617   */\n      tag_84\n      jumpi\n        /* \"#utility.yul\":3589:3607   */\n      tag_85\n      tag_42\n      jump\t// in\n    tag_85:\n        /* \"#utility.yul\":3533:3617   */\n    tag_84:\n        /* \"#utility.yul\":3354:3623   */\n      pop\n        /* \"#utility.yul\":3303:3623   */\n      swap2\n      swap1\n      pop\n      jump\t// out\n\n    auxdata: 0xa264697066735822122035991d2fdda76c7a792159b3d6e680dcfd1b0be417bdb1ff797d257c3420e2f864736f6c634300080f0033\n}\n",
				"bytecode": {
					"linkReferences": {},
					"object": "608060405234801561001057600080fd5b50610454806100206000396000f3fe608060405234801561001057600080fd5b50600436106100365760003560e01c8063ee26fac31461003b578063f7746e361461005b575b600080fd5b61004361008d565b60405161005293929190610322565b60405180910390f35b61007560048036038101906100709190610391565b61014d565b60405161008493929190610322565b60405180910390f35b600080600001805461009e906103ed565b80601f01602080910402602001604051908101604052809291908181526020018280546100ca906103ed565b80156101175780601f106100ec57610100808354040283529160200191610117565b820191906000526020600020905b8154815290600101906020018083116100fa57829003601f168201915b5050505050908060010154908060020160009054906101000a900473ffffffffffffffffffffffffffffffffffffffff16905083565b6003818154811061015d57600080fd5b9060005260206000209060030201600091509050806000018054610180906103ed565b80601f01602080910402602001604051908101604052809291908181526020018280546101ac906103ed565b80156101f95780601f106101ce576101008083540402835291602001916101f9565b820191906000526020600020905b8154815290600101906020018083116101dc57829003601f168201915b5050505050908060010154908060020160009054906101000a900473ffffffffffffffffffffffffffffffffffffffff16905083565b600081519050919050565b600082825260208201905092915050565b60005b8381101561026957808201518184015260208101905061024e565b83811115610278576000848401525b50505050565b6000601f19601f8301169050919050565b600061029a8261022f565b6102a4818561023a565b93506102b481856020860161024b565b6102bd8161027e565b840191505092915050565b6000819050919050565b6102db816102c8565b82525050565b600073ffffffffffffffffffffffffffffffffffffffff82169050919050565b600061030c826102e1565b9050919050565b61031c81610301565b82525050565b6000606082019050818103600083015261033c818661028f565b905061034b60208301856102d2565b6103586040830184610313565b949350505050565b600080fd5b61036e816102c8565b811461037957600080fd5b50565b60008135905061038b81610365565b92915050565b6000602082840312156103a7576103a6610360565b5b60006103b58482850161037c565b91505092915050565b7f4e487b7100000000000000000000000000000000000000000000000000000000600052602260045260246000fd5b6000600282049050600182168061040557607f821691505b602082108103610418576104176103be565b5b5091905056fea264697066735822122035991d2fdda76c7a792159b3d6e680dcfd1b0be417bdb1ff797d257c3420e2f864736f6c634300080f0033",
					"opcodes": "PUSH1 0x80 PUSH1 0x40 MSTORE CALLVALUE DUP1 ISZERO PUSH2 0x10 JUMPI PUSH1 0x0 DUP1 REVERT JUMPDEST POP PUSH2 0x454 DUP1 PUSH2 0x20 PUSH1 0x0 CODECOPY PUSH1 0x0 RETURN INVALID PUSH1 0x80 PUSH1 0x40 MSTORE CALLVALUE DUP1 ISZERO PUSH2 0x10 JUMPI PUSH1 0x0 DUP1 REVERT JUMPDEST POP PUSH1 0x4 CALLDATASIZE LT PUSH2 0x36 JUMPI PUSH1 0x0 CALLDATALOAD PUSH1 0xE0 SHR DUP1 PUSH4 0xEE26FAC3 EQ PUSH2 0x3B JUMPI DUP1 PUSH4 0xF7746E36 EQ PUSH2 0x5B JUMPI JUMPDEST PUSH1 0x0 DUP1 REVERT JUMPDEST PUSH2 0x43 PUSH2 0x8D JUMP JUMPDEST PUSH1 0x40 MLOAD PUSH2 0x52 SWAP4 SWAP3 SWAP2 SWAP1 PUSH2 0x322 JUMP JUMPDEST PUSH1 0x40 MLOAD DUP1 SWAP2 SUB SWAP1 RETURN JUMPDEST PUSH2 0x75 PUSH1 0x4 DUP1 CALLDATASIZE SUB DUP2 ADD SWAP1 PUSH2 0x70 SWAP2 SWAP1 PUSH2 0x391 JUMP JUMPDEST PUSH2 0x14D JUMP JUMPDEST PUSH1 0x40 MLOAD PUSH2 0x84 SWAP4 SWAP3 SWAP2 SWAP1 PUSH2 0x322 JUMP JUMPDEST PUSH1 0x40 MLOAD DUP1 SWAP2 SUB SWAP1 RETURN JUMPDEST PUSH1 0x0 DUP1 PUSH1 0x0 ADD DUP1 SLOAD PUSH2 0x9E SWAP1 PUSH2 0x3ED JUMP JUMPDEST DUP1 PUSH1 0x1F ADD PUSH1 0x20 DUP1 SWAP2 DIV MUL PUSH1 0x20 ADD PUSH1 0x40 MLOAD SWAP1 DUP2 ADD PUSH1 0x40 MSTORE DUP1 SWAP3 SWAP2 SWAP1 DUP2 DUP2 MSTORE PUSH1 0x20 ADD DUP3 DUP1 SLOAD PUSH2 0xCA SWAP1 PUSH2 0x3ED JUMP JUMPDEST DUP1 ISZERO PUSH2 0x117 JUMPI DUP1 PUSH1 0x1F LT PUSH2 0xEC JUMPI PUSH2 0x100 DUP1 DUP4 SLOAD DIV MUL DUP4 MSTORE SWAP2 PUSH1 0x20 ADD SWAP2 PUSH2 0x117 JUMP JUMPDEST DUP3 ADD SWAP2 SWAP1 PUSH1 0x0 MSTORE PUSH1 0x20 PUSH1 0x0 KECCAK256 SWAP1 JUMPDEST DUP2 SLOAD DUP2 MSTORE SWAP1 PUSH1 0x1 ADD SWAP1 PUSH1 0x20 ADD DUP1 DUP4 GT PUSH2 0xFA JUMPI DUP3 SWAP1 SUB PUSH1 0x1F AND DUP3 ADD SWAP2 JUMPDEST POP POP POP POP POP SWAP1 DUP1 PUSH1 0x1 ADD SLOAD SWAP1 DUP1 PUSH1 0x2 ADD PUSH1 0x0 SWAP1 SLOAD SWAP1 PUSH2 0x100 EXP SWAP1 DIV PUSH20 0xFFFFFFFFFFFFFFFFFFFFFFFFFFFFFFFFFFFFFFFF AND SWAP1 POP DUP4 JUMP JUMPDEST PUSH1 0x3 DUP2 DUP2 SLOAD DUP2 LT PUSH2 0x15D JUMPI PUSH1 0x0 DUP1 REVERT JUMPDEST SWAP1 PUSH1 0x0 MSTORE PUSH1 0x20 PUSH1 0x0 KECCAK256 SWAP1 PUSH1 0x3 MUL ADD PUSH1 0x0 SWAP2 POP SWAP1 POP DUP1 PUSH1 0x0 ADD DUP1 SLOAD PUSH2 0x180 SWAP1 PUSH2 0x3ED JUMP JUMPDEST DUP1 PUSH1 0x1F ADD PUSH1 0x20 DUP1 SWAP2 DIV MUL PUSH1 0x20 ADD PUSH1 0x40 MLOAD SWAP1 DUP2 ADD PUSH1 0x40 MSTORE DUP1 SWAP3 SWAP2 SWAP1 DUP2 DUP2 MSTORE PUSH1 0x20 ADD DUP3 DUP1 SLOAD PUSH2 0x1AC SWAP1 PUSH2 0x3ED JUMP JUMPDEST DUP1 ISZERO PUSH2 0x1F9 JUMPI DUP1 PUSH1 0x1F LT PUSH2 0x1CE JUMPI PUSH2 0x100 DUP1 DUP4 SLOAD DIV MUL DUP4 MSTORE SWAP2 PUSH1 0x20 ADD SWAP2 PUSH2 0x1F9 JUMP JUMPDEST DUP3 ADD SWAP2 SWAP1 PUSH1 0x0 MSTORE PUSH1 0x20 PUSH1 0x0 KECCAK256 SWAP1 JUMPDEST DUP2 SLOAD DUP2 MSTORE SWAP1 PUSH1 0x1 ADD SWAP1 PUSH1 0x20 ADD DUP1 DUP4 GT PUSH2 0x1DC JUMPI DUP3 SWAP1 SUB PUSH1 0x1F AND DUP3 ADD SWAP2 JUMPDEST POP POP POP POP POP SWAP1 DUP1 PUSH1 0x1 ADD SLOAD SWAP1 DUP1 PUSH1 0x2 ADD PUSH1 0x0 SWAP1 SLOAD SWAP1 PUSH2 0x100 EXP SWAP1 DIV PUSH20 0xFFFFFFFFFFFFFFFFFFFFFFFFFFFFFFFFFFFFFFFF AND SWAP1 POP DUP4 JUMP JUMPDEST PUSH1 0x0 DUP2 MLOAD SWAP1 POP SWAP2 SWAP1 POP JUMP JUMPDEST PUSH1 0x0 DUP3 DUP3 MSTORE PUSH1 0x20 DUP3 ADD SWAP1 POP SWAP3 SWAP2 POP POP JUMP JUMPDEST PUSH1 0x0 JUMPDEST DUP4 DUP2 LT ISZERO PUSH2 0x269 JUMPI DUP1 DUP3 ADD MLOAD DUP2 DUP5 ADD MSTORE PUSH1 0x20 DUP2 ADD SWAP1 POP PUSH2 0x24E JUMP JUMPDEST DUP4 DUP2 GT ISZERO PUSH2 0x278 JUMPI PUSH1 0x0 DUP5 DUP5 ADD MSTORE JUMPDEST POP POP POP POP JUMP JUMPDEST PUSH1 0x0 PUSH1 0x1F NOT PUSH1 0x1F DUP4 ADD AND SWAP1 POP SWAP2 SWAP1 POP JUMP JUMPDEST PUSH1 0x0 PUSH2 0x29A DUP3 PUSH2 0x22F JUMP JUMPDEST PUSH2 0x2A4 DUP2 DUP6 PUSH2 0x23A JUMP JUMPDEST SWAP4 POP PUSH2 0x2B4 DUP2 DUP6 PUSH1 0x20 DUP7 ADD PUSH2 0x24B JUMP JUMPDEST PUSH2 0x2BD DUP2 PUSH2 0x27E JUMP JUMPDEST DUP5 ADD SWAP2 POP POP SWAP3 SWAP2 POP POP JUMP JUMPDEST PUSH1 0x0 DUP2 SWAP1 POP SWAP2 SWAP1 POP JUMP JUMPDEST PUSH2 0x2DB DUP2 PUSH2 0x2C8 JUMP JUMPDEST DUP3 MSTORE POP POP JUMP JUMPDEST PUSH1 0x0 PUSH20 0xFFFFFFFFFFFFFFFFFFFFFFFFFFFFFFFFFFFFFFFF DUP3 AND SWAP1 POP SWAP2 SWAP1 POP JUMP JUMPDEST PUSH1 0x0 PUSH2 0x30C DUP3 PUSH2 0x2E1 JUMP JUMPDEST SWAP1 POP SWAP2 SWAP1 POP JUMP JUMPDEST PUSH2 0x31C DUP2 PUSH2 0x301 JUMP JUMPDEST DUP3 MSTORE POP POP JUMP JUMPDEST PUSH1 0x0 PUSH1 0x60 DUP3 ADD SWAP1 POP DUP2 DUP2 SUB PUSH1 0x0 DUP4 ADD MSTORE PUSH2 0x33C DUP2 DUP7 PUSH2 0x28F JUMP JUMPDEST SWAP1 POP PUSH2 0x34B PUSH1 0x20 DUP4 ADD DUP6 PUSH2 0x2D2 JUMP JUMPDEST PUSH2 0x358 PUSH1 0x40 DUP4 ADD DUP5 PUSH2 0x313 JUMP JUMPDEST SWAP5 SWAP4 POP POP POP POP JUMP JUMPDEST PUSH1 0x0 DUP1 REVERT JUMPDEST PUSH2 0x36E DUP2 PUSH2 0x2C8 JUMP JUMPDEST DUP2 EQ PUSH2 0x379 JUMPI PUSH1 0x0 DUP1 REVERT JUMPDEST POP JUMP JUMPDEST PUSH1 0x0 DUP2 CALLDATALOAD SWAP1 POP PUSH2 0x38B DUP2 PUSH2 0x365 JUMP JUMPDEST SWAP3 SWAP2 POP POP JUMP JUMPDEST PUSH1 0x0 PUSH1 0x20 DUP3 DUP5 SUB SLT ISZERO PUSH2 0x3A7 JUMPI PUSH2 0x3A6 PUSH2 0x360 JUMP JUMPDEST JUMPDEST PUSH1 0x0 PUSH2 0x3B5 DUP5 DUP3 DUP6 ADD PUSH2 0x37C JUMP JUMPDEST SWAP2 POP POP SWAP3 SWAP2 POP POP JUMP JUMPDEST PUSH32 0x4E487B7100000000000000000000000000000000000000000000000000000000 PUSH1 0x0 MSTORE PUSH1 0x22 PUSH1 0x4 MSTORE PUSH1 0x24 PUSH1 0x0 REVERT JUMPDEST PUSH1 0x0 PUSH1 0x2 DUP3 DIV SWAP1 POP PUSH1 0x1 DUP3 AND DUP1 PUSH2 0x405 JUMPI PUSH1 0x7F DUP3 AND SWAP2 POP JUMPDEST PUSH1 0x20 DUP3 LT DUP2 SUB PUSH2 0x418 JUMPI PUSH2 0x417 PUSH2 0x3BE JUMP JUMPDEST JUMPDEST POP SWAP2 SWAP1 POP JUMP INVALID LOG2 PUSH5 0x6970667358 0x22 SLT KECCAK256 CALLDATALOAD SWAP10 SAR 0x2F 0xDD 0xA7 PUSH13 0x7A792159B3D6E680DCFD1B0BE4 OR 0xBD 0xB1 SELFDESTRUCT PUSH26 0x7D257C3420E2F864736F6C634300080F00330000000000000000 "
				},
				"gasEstimates": {
					"creation": {
						"codeDepositCost": "221600",
						"executionCost": "263",
						"totalCost": "221863"
					},
					"external": {
						"car()": "infinite",
						"cars(uint256)": "infinite"
					}
				},
				"methodIdentifiers": {
					"car()": "ee26fac3",
					"cars(uint256)": "f7746e36"
				}
			},
			"storageLayout": {
				"storage": [
					{
						"astId": 11,
						"contract": "HelloWorld/23Structs.sol:Structs",
						"label": "car",
						"offset": 0,
						"slot": "0",
						"type": "t_struct(Car)8_storage"
					},
					{
						"astId": 15,
						"contract": "HelloWorld/23Structs.sol:Structs",
						"label": "cars",
						"offset": 0,
						"slot": "3",
						"type": "t_array(t_struct(Car)8_storage)dyn_storage"
					}
				],
				"types": {
					"t_address": {
						"encoding": "inplace",
						"label": "address",
						"numberOfBytes": "20"
					},
					"t_array(t_struct(Car)8_storage)dyn_storage": {
						"base": "t_struct(Car)8_storage",
						"encoding": "dynamic_array",
						"label": "struct Structs.Car[]",
						"numberOfBytes": "32"
					},
					"t_string_storage": {
						"encoding": "bytes",
						"label": "string",
						"numberOfBytes": "32"
					},
					"t_struct(Car)8_storage": {
						"encoding": "inplace",
						"label": "struct Structs.Car",
						"members": [
							{
								"astId": 3,
								"contract": "HelloWorld/23Structs.sol:Structs",
								"label": "model",
								"offset": 0,
								"slot": "0",
								"type": "t_string_storage"
							},
							{
								"astId": 5,
								"contract": "HelloWorld/23Structs.sol:Structs",
								"label": "year",
								"offset": 0,
								"slot": "1",
								"type": "t_uint256"
							},
							{
								"astId": 7,
								"contract": "HelloWorld/23Structs.sol:Structs",
								"label": "owner",
								"offset": 0,
								"slot": "2",
								"type": "t_address"
							}
						],
						"numberOfBytes": "96"
					},
					"t_uint256": {
						"encoding": "inplace",
						"label": "uint256",
						"numberOfBytes": "32"
					}
				}
			},
			"userdoc": {
				"kind": "user",
				"methods": {},
				"version": 1
			}
		}
	}
}