{
	"HelloWorld/14FunctionModifier.sol": {
		"FunctionModifier": {
			"abi": [
				{
					"inputs": [],
					"name": "count",
					"outputs": [
						{
							"internalType": "uint256",
							"name": "",
							"type": "uint256"
						}
					],
					"stateMutability": "view",
					"type": "function"
				},
				{
					"inputs": [],
					"name": "dec",
					"outputs": [],
					"stateMutability": "nonpayable",
					"type": "function"
				},
				{
					"inputs": [],
					"name": "foo",
					"outputs": [],
					"stateMutability": "nonpayable",
					"type": "function"
				},
				{
					"inputs": [],
					"name": "inc",
					"outputs": [],
					"stateMutability": "nonpayable",
					"type": "function"
				},
				{
					"inputs": [
						{
							"internalType": "uint256",
							"name": "_x",
							"type": "uint256"
						}
					],
					"name": "incBy",
					"outputs": [],
					"stateMutability": "nonpayable",
					"type": "function"
				},
				{
					"inputs": [],
					"name": "paused",
					"outputs": [
						{
							"internalType": "bool",
							"name": "",
							"type": "bool"
						}
					],
					"stateMutability": "view",
					"type": "function"
				},
				{
					"inputs": [
						{
							"internalType": "bool",
							"name": "_paused",
							"type": "bool"
						}
					],
					"name": "setPause",
					"outputs": [],
					"stateMutability": "nonpayable",
					"type": "function"
				}
			],
			"devdoc": {
				"kind": "dev",
				"methods": {},
				"version": 1
			},
			"evm": {
				"assembly": "    /* \"HelloWorld/14FunctionModifier.sol\":57:769  contract FunctionModifier {... */\n  mstore(0x40, 0x80)\n  callvalue\n  dup1\n  iszero\n  tag_1\n  jumpi\n  0x00\n  dup1\n  revert\ntag_1:\n  pop\n  dataSize(sub_0)\n  dup1\n  dataOffset(sub_0)\n  0x00\n  codecopy\n  0x00\n  return\nstop\n\nsub_0: assembly {\n        /* \"HelloWorld/14FunctionModifier.sol\":57:769  contract FunctionModifier {... */\n      mstore(0x40, 0x80)\n      callvalue\n      dup1\n      iszero\n      tag_1\n      jumpi\n      0x00\n      dup1\n      revert\n    tag_1:\n      pop\n      jumpi(tag_2, lt(calldatasize, 0x04))\n      shr(0xe0, calldataload(0x00))\n      dup1\n      0x70119d06\n      gt\n      tag_10\n      jumpi\n      dup1\n      0x70119d06\n      eq\n      tag_6\n      jumpi\n      dup1\n      0xb3bcfa82\n      eq\n      tag_7\n      jumpi\n      dup1\n      0xbedb86fb\n      eq\n      tag_8\n      jumpi\n      dup1\n      0xc2985578\n      eq\n      tag_9\n      jumpi\n      jump(tag_2)\n    tag_10:\n      dup1\n      0x06661abd\n      eq\n      tag_3\n      jumpi\n      dup1\n      0x371303c0\n      eq\n      tag_4\n      jumpi\n      dup1\n      0x5c975abb\n      eq\n      tag_5\n      jumpi\n    tag_2:\n      0x00\n      dup1\n      revert\n        /* \"HelloWorld/14FunctionModifier.sol\":113:130  uint public count */\n    tag_3:\n      tag_11\n      tag_12\n      jump\t// in\n    tag_11:\n      mload(0x40)\n      tag_13\n      swap2\n      swap1\n      tag_14\n      jump\t// in\n    tag_13:\n      mload(0x40)\n      dup1\n      swap2\n      sub\n      swap1\n      return\n        /* \"HelloWorld/14FunctionModifier.sol\":305:370  function inc() external whenNotPaused {... */\n    tag_4:\n      tag_15\n      tag_16\n      jump\t// in\n    tag_15:\n      stop\n        /* \"HelloWorld/14FunctionModifier.sol\":89:107  bool public paused */\n    tag_5:\n      tag_17\n      tag_18\n      jump\t// in\n    tag_17:\n      mload(0x40)\n      tag_19\n      swap2\n      swap1\n      tag_20\n      jump\t// in\n    tag_19:\n      mload(0x40)\n      dup1\n      swap2\n      sub\n      swap1\n      return\n        /* \"HelloWorld/14FunctionModifier.sol\":532:615  function incBy(uint _x) external whenNotPaused cap(_x) {... */\n    tag_6:\n      tag_21\n      0x04\n      dup1\n      calldatasize\n      sub\n      dup2\n      add\n      swap1\n      tag_22\n      swap2\n      swap1\n      tag_23\n      jump\t// in\n    tag_22:\n      tag_24\n      jump\t// in\n    tag_21:\n      stop\n        /* \"HelloWorld/14FunctionModifier.sol\":376:441  function dec() external whenNotPaused {... */\n    tag_7:\n      tag_25\n      tag_26\n      jump\t// in\n    tag_25:\n      stop\n        /* \"HelloWorld/14FunctionModifier.sol\":137:211  function setPause(bool _paused) external {... */\n    tag_8:\n      tag_27\n      0x04\n      dup1\n      calldatasize\n      sub\n      dup2\n      add\n      swap1\n      tag_28\n      swap2\n      swap1\n      tag_29\n      jump\t// in\n    tag_28:\n      tag_30\n      jump\t// in\n    tag_27:\n      stop\n        /* \"HelloWorld/14FunctionModifier.sol\":706:765  function foo() external sandwich{... */\n    tag_9:\n      tag_31\n      tag_32\n      jump\t// in\n    tag_31:\n      stop\n        /* \"HelloWorld/14FunctionModifier.sol\":113:130  uint public count */\n    tag_12:\n      sload(0x01)\n      dup2\n      jump\t// out\n        /* \"HelloWorld/14FunctionModifier.sol\":305:370  function inc() external whenNotPaused {... */\n    tag_16:\n        /* \"HelloWorld/14FunctionModifier.sol\":265:271  paused */\n      0x00\n      dup1\n      sload\n      swap1\n      0x0100\n      exp\n      swap1\n      div\n      0xff\n      and\n        /* \"HelloWorld/14FunctionModifier.sol\":264:271  !paused */\n      iszero\n        /* \"HelloWorld/14FunctionModifier.sol\":256:282  require(!paused, \"paused\") */\n      tag_34\n      jumpi\n      mload(0x40)\n      0x08c379a000000000000000000000000000000000000000000000000000000000\n      dup2\n      mstore\n      0x04\n      add\n      tag_35\n      swap1\n      tag_36\n      jump\t// in\n    tag_35:\n      mload(0x40)\n      dup1\n      swap2\n      sub\n      swap1\n      revert\n    tag_34:\n        /* \"HelloWorld/14FunctionModifier.sol\":362:363  1 */\n      0x01\n        /* \"HelloWorld/14FunctionModifier.sol\":353:358  count */\n      dup1\n      0x00\n        /* \"HelloWorld/14FunctionModifier.sol\":353:363  count += 1 */\n      dup3\n      dup3\n      sload\n      tag_38\n      swap2\n      swap1\n      tag_39\n      jump\t// in\n    tag_38:\n      swap3\n      pop\n      pop\n      dup2\n      swap1\n      sstore\n      pop\n        /* \"HelloWorld/14FunctionModifier.sol\":305:370  function inc() external whenNotPaused {... */\n      jump\t// out\n        /* \"HelloWorld/14FunctionModifier.sol\":89:107  bool public paused */\n    tag_18:\n      0x00\n      dup1\n      sload\n      swap1\n      0x0100\n      exp\n      swap1\n      div\n      0xff\n      and\n      dup2\n      jump\t// out\n        /* \"HelloWorld/14FunctionModifier.sol\":532:615  function incBy(uint _x) external whenNotPaused cap(_x) {... */\n    tag_24:\n        /* \"HelloWorld/14FunctionModifier.sol\":265:271  paused */\n      0x00\n      dup1\n      sload\n      swap1\n      0x0100\n      exp\n      swap1\n      div\n      0xff\n      and\n        /* \"HelloWorld/14FunctionModifier.sol\":264:271  !paused */\n      iszero\n        /* \"HelloWorld/14FunctionModifier.sol\":256:282  require(!paused, \"paused\") */\n      tag_41\n      jumpi\n      mload(0x40)\n      0x08c379a000000000000000000000000000000000000000000000000000000000\n      dup2\n      mstore\n      0x04\n      add\n      tag_42\n      swap1\n      tag_36\n      jump\t// in\n    tag_42:\n      mload(0x40)\n      dup1\n      swap2\n      sub\n      swap1\n      revert\n    tag_41:\n        /* \"HelloWorld/14FunctionModifier.sol\":583:585  _x */\n      dup1\n        /* \"HelloWorld/14FunctionModifier.sol\":492:495  100 */\n      0x64\n        /* \"HelloWorld/14FunctionModifier.sol\":487:489  _x */\n      dup2\n        /* \"HelloWorld/14FunctionModifier.sol\":487:495  _x < 100 */\n      lt\n        /* \"HelloWorld/14FunctionModifier.sol\":479:508  require(_x < 100, \"x >= 100\") */\n      tag_44\n      jumpi\n      mload(0x40)\n      0x08c379a000000000000000000000000000000000000000000000000000000000\n      dup2\n      mstore\n      0x04\n      add\n      tag_45\n      swap1\n      tag_46\n      jump\t// in\n    tag_45:\n      mload(0x40)\n      dup1\n      swap2\n      sub\n      swap1\n      revert\n    tag_44:\n        /* \"HelloWorld/14FunctionModifier.sol\":606:608  _x */\n      dup2\n        /* \"HelloWorld/14FunctionModifier.sol\":597:602  count */\n      0x01\n      0x00\n        /* \"HelloWorld/14FunctionModifier.sol\":597:608  count += _x */\n      dup3\n      dup3\n      sload\n      tag_48\n      swap2\n      swap1\n      tag_39\n      jump\t// in\n    tag_48:\n      swap3\n      pop\n      pop\n      dup2\n      swap1\n      sstore\n      pop\n        /* \"HelloWorld/14FunctionModifier.sol\":292:293  _ */\n      pop\n        /* \"HelloWorld/14FunctionModifier.sol\":532:615  function incBy(uint _x) external whenNotPaused cap(_x) {... */\n      pop\n      jump\t// out\n        /* \"HelloWorld/14FunctionModifier.sol\":376:441  function dec() external whenNotPaused {... */\n    tag_26:\n        /* \"HelloWorld/14FunctionModifier.sol\":265:271  paused */\n      0x00\n      dup1\n      sload\n      swap1\n      0x0100\n      exp\n      swap1\n      div\n      0xff\n      and\n        /* \"HelloWorld/14FunctionModifier.sol\":264:271  !paused */\n      iszero\n        /* \"HelloWorld/14FunctionModifier.sol\":256:282  require(!paused, \"paused\") */\n      tag_50\n      jumpi\n      mload(0x40)\n      0x08c379a000000000000000000000000000000000000000000000000000000000\n      dup2\n      mstore\n      0x04\n      add\n      tag_51\n      swap1\n      tag_36\n      jump\t// in\n    tag_51:\n      mload(0x40)\n      dup1\n      swap2\n      sub\n      swap1\n      revert\n    tag_50:\n        /* \"HelloWorld/14FunctionModifier.sol\":433:434  1 */\n      0x01\n        /* \"HelloWorld/14FunctionModifier.sol\":424:429  count */\n      dup1\n      0x00\n        /* \"HelloWorld/14FunctionModifier.sol\":424:434  count -= 1 */\n      dup3\n      dup3\n      sload\n      tag_53\n      swap2\n      swap1\n      tag_54\n      jump\t// in\n    tag_53:\n      swap3\n      pop\n      pop\n      dup2\n      swap1\n      sstore\n      pop\n        /* \"HelloWorld/14FunctionModifier.sol\":376:441  function dec() external whenNotPaused {... */\n      jump\t// out\n        /* \"HelloWorld/14FunctionModifier.sol\":137:211  function setPause(bool _paused) external {... */\n    tag_30:\n        /* \"HelloWorld/14FunctionModifier.sol\":197:204  _paused */\n      dup1\n        /* \"HelloWorld/14FunctionModifier.sol\":188:194  paused */\n      0x00\n      dup1\n        /* \"HelloWorld/14FunctionModifier.sol\":188:204  paused = _paused */\n      0x0100\n      exp\n      dup2\n      sload\n      dup2\n      0xff\n      mul\n      not\n      and\n      swap1\n      dup4\n      iszero\n      iszero\n      mul\n      or\n      swap1\n      sstore\n      pop\n        /* \"HelloWorld/14FunctionModifier.sol\":137:211  function setPause(bool _paused) external {... */\n      pop\n      jump\t// out\n        /* \"HelloWorld/14FunctionModifier.sol\":706:765  function foo() external sandwich{... */\n    tag_32:\n        /* \"HelloWorld/14FunctionModifier.sol\":660:662  10 */\n      0x0a\n        /* \"HelloWorld/14FunctionModifier.sol\":651:656  count */\n      0x01\n      0x00\n        /* \"HelloWorld/14FunctionModifier.sol\":651:662  count += 10 */\n      dup3\n      dup3\n      sload\n      tag_57\n      swap2\n      swap1\n      tag_39\n      jump\t// in\n    tag_57:\n      swap3\n      pop\n      pop\n      dup2\n      swap1\n      sstore\n      pop\n        /* \"HelloWorld/14FunctionModifier.sol\":757:758  1 */\n      0x01\n        /* \"HelloWorld/14FunctionModifier.sol\":748:753  count */\n      dup1\n      0x00\n        /* \"HelloWorld/14FunctionModifier.sol\":748:758  count += 1 */\n      dup3\n      dup3\n      sload\n      tag_59\n      swap2\n      swap1\n      tag_39\n      jump\t// in\n    tag_59:\n      swap3\n      pop\n      pop\n      dup2\n      swap1\n      sstore\n      pop\n        /* \"HelloWorld/14FunctionModifier.sol\":692:693  2 */\n      0x02\n        /* \"HelloWorld/14FunctionModifier.sol\":683:688  count */\n      0x01\n      0x00\n        /* \"HelloWorld/14FunctionModifier.sol\":683:693  count *= 2 */\n      dup3\n      dup3\n      sload\n      tag_60\n      swap2\n      swap1\n      tag_61\n      jump\t// in\n    tag_60:\n      swap3\n      pop\n      pop\n      dup2\n      swap1\n      sstore\n      pop\n        /* \"HelloWorld/14FunctionModifier.sol\":706:765  function foo() external sandwich{... */\n      jump\t// out\n        /* \"#utility.yul\":7:84   */\n    tag_62:\n        /* \"#utility.yul\":44:51   */\n      0x00\n        /* \"#utility.yul\":73:78   */\n      dup2\n        /* \"#utility.yul\":62:78   */\n      swap1\n      pop\n        /* \"#utility.yul\":7:84   */\n      swap2\n      swap1\n      pop\n      jump\t// out\n        /* \"#utility.yul\":90:208   */\n    tag_63:\n        /* \"#utility.yul\":177:201   */\n      tag_82\n        /* \"#utility.yul\":195:200   */\n      dup2\n        /* \"#utility.yul\":177:201   */\n      tag_62\n      jump\t// in\n    tag_82:\n        /* \"#utility.yul\":172:175   */\n      dup3\n        /* \"#utility.yul\":165:202   */\n      mstore\n        /* \"#utility.yul\":90:208   */\n      pop\n      pop\n      jump\t// out\n        /* \"#utility.yul\":214:436   */\n    tag_14:\n        /* \"#utility.yul\":307:311   */\n      0x00\n        /* \"#utility.yul\":345:347   */\n      0x20\n        /* \"#utility.yul\":334:343   */\n      dup3\n        /* \"#utility.yul\":330:348   */\n      add\n        /* \"#utility.yul\":322:348   */\n      swap1\n      pop\n        /* \"#utility.yul\":358:429   */\n      tag_84\n        /* \"#utility.yul\":426:427   */\n      0x00\n        /* \"#utility.yul\":415:424   */\n      dup4\n        /* \"#utility.yul\":411:428   */\n      add\n        /* \"#utility.yul\":402:408   */\n      dup5\n        /* \"#utility.yul\":358:429   */\n      tag_63\n      jump\t// in\n    tag_84:\n        /* \"#utility.yul\":214:436   */\n      swap3\n      swap2\n      pop\n      pop\n      jump\t// out\n        /* \"#utility.yul\":442:532   */\n    tag_64:\n        /* \"#utility.yul\":476:483   */\n      0x00\n        /* \"#utility.yul\":519:524   */\n      dup2\n        /* \"#utility.yul\":512:525   */\n      iszero\n        /* \"#utility.yul\":505:526   */\n      iszero\n        /* \"#utility.yul\":494:526   */\n      swap1\n      pop\n        /* \"#utility.yul\":442:532   */\n      swap2\n      swap1\n      pop\n      jump\t// out\n        /* \"#utility.yul\":538:647   */\n    tag_65:\n        /* \"#utility.yul\":619:640   */\n      tag_87\n        /* \"#utility.yul\":634:639   */\n      dup2\n        /* \"#utility.yul\":619:640   */\n      tag_64\n      jump\t// in\n    tag_87:\n        /* \"#utility.yul\":614:617   */\n      dup3\n        /* \"#utility.yul\":607:641   */\n      mstore\n        /* \"#utility.yul\":538:647   */\n      pop\n      pop\n      jump\t// out\n        /* \"#utility.yul\":653:863   */\n    tag_20:\n        /* \"#utility.yul\":740:744   */\n      0x00\n        /* \"#utility.yul\":778:780   */\n      0x20\n        /* \"#utility.yul\":767:776   */\n      dup3\n        /* \"#utility.yul\":763:781   */\n      add\n        /* \"#utility.yul\":755:781   */\n      swap1\n      pop\n        /* \"#utility.yul\":791:856   */\n      tag_89\n        /* \"#utility.yul\":853:854   */\n      0x00\n        /* \"#utility.yul\":842:851   */\n      dup4\n        /* \"#utility.yul\":838:855   */\n      add\n        /* \"#utility.yul\":829:835   */\n      dup5\n        /* \"#utility.yul\":791:856   */\n      tag_65\n      jump\t// in\n    tag_89:\n        /* \"#utility.yul\":653:863   */\n      swap3\n      swap2\n      pop\n      pop\n      jump\t// out\n        /* \"#utility.yul\":950:1067   */\n    tag_67:\n        /* \"#utility.yul\":1059:1060   */\n      0x00\n        /* \"#utility.yul\":1056:1057   */\n      dup1\n        /* \"#utility.yul\":1049:1061   */\n      revert\n        /* \"#utility.yul\":1196:1318   */\n    tag_69:\n        /* \"#utility.yul\":1269:1293   */\n      tag_94\n        /* \"#utility.yul\":1287:1292   */\n      dup2\n        /* \"#utility.yul\":1269:1293   */\n      tag_62\n      jump\t// in\n    tag_94:\n        /* \"#utility.yul\":1262:1267   */\n      dup2\n        /* \"#utility.yul\":1259:1294   */\n      eq\n        /* \"#utility.yul\":1249:1312   */\n      tag_95\n      jumpi\n        /* \"#utility.yul\":1308:1309   */\n      0x00\n        /* \"#utility.yul\":1305:1306   */\n      dup1\n        /* \"#utility.yul\":1298:1310   */\n      revert\n        /* \"#utility.yul\":1249:1312   */\n    tag_95:\n        /* \"#utility.yul\":1196:1318   */\n      pop\n      jump\t// out\n        /* \"#utility.yul\":1324:1463   */\n    tag_70:\n        /* \"#utility.yul\":1370:1375   */\n      0x00\n        /* \"#utility.yul\":1408:1414   */\n      dup2\n        /* \"#utility.yul\":1395:1415   */\n      calldataload\n        /* \"#utility.yul\":1386:1415   */\n      swap1\n      pop\n        /* \"#utility.yul\":1424:1457   */\n      tag_97\n        /* \"#utility.yul\":1451:1456   */\n      dup2\n        /* \"#utility.yul\":1424:1457   */\n      tag_69\n      jump\t// in\n    tag_97:\n        /* \"#utility.yul\":1324:1463   */\n      swap3\n      swap2\n      pop\n      pop\n      jump\t// out\n        /* \"#utility.yul\":1469:1798   */\n    tag_23:\n        /* \"#utility.yul\":1528:1534   */\n      0x00\n        /* \"#utility.yul\":1577:1579   */\n      0x20\n        /* \"#utility.yul\":1565:1574   */\n      dup3\n        /* \"#utility.yul\":1556:1563   */\n      dup5\n        /* \"#utility.yul\":1552:1575   */\n      sub\n        /* \"#utility.yul\":1548:1580   */\n      slt\n        /* \"#utility.yul\":1545:1664   */\n      iszero\n      tag_99\n      jumpi\n        /* \"#utility.yul\":1583:1662   */\n      tag_100\n      tag_67\n      jump\t// in\n    tag_100:\n        /* \"#utility.yul\":1545:1664   */\n    tag_99:\n        /* \"#utility.yul\":1703:1704   */\n      0x00\n        /* \"#utility.yul\":1728:1781   */\n      tag_101\n        /* \"#utility.yul\":1773:1780   */\n      dup5\n        /* \"#utility.yul\":1764:1770   */\n      dup3\n        /* \"#utility.yul\":1753:1762   */\n      dup6\n        /* \"#utility.yul\":1749:1771   */\n      add\n        /* \"#utility.yul\":1728:1781   */\n      tag_70\n      jump\t// in\n    tag_101:\n        /* \"#utility.yul\":1718:1781   */\n      swap2\n      pop\n        /* \"#utility.yul\":1674:1791   */\n      pop\n        /* \"#utility.yul\":1469:1798   */\n      swap3\n      swap2\n      pop\n      pop\n      jump\t// out\n        /* \"#utility.yul\":1804:1920   */\n    tag_71:\n        /* \"#utility.yul\":1874:1895   */\n      tag_103\n        /* \"#utility.yul\":1889:1894   */\n      dup2\n        /* \"#utility.yul\":1874:1895   */\n      tag_64\n      jump\t// in\n    tag_103:\n        /* \"#utility.yul\":1867:1872   */\n      dup2\n        /* \"#utility.yul\":1864:1896   */\n      eq\n        /* \"#utility.yul\":1854:1914   */\n      tag_104\n      jumpi\n        /* \"#utility.yul\":1910:1911   */\n      0x00\n        /* \"#utility.yul\":1907:1908   */\n      dup1\n        /* \"#utility.yul\":1900:1912   */\n      revert\n        /* \"#utility.yul\":1854:1914   */\n    tag_104:\n        /* \"#utility.yul\":1804:1920   */\n      pop\n      jump\t// out\n        /* \"#utility.yul\":1926:2059   */\n    tag_72:\n        /* \"#utility.yul\":1969:1974   */\n      0x00\n        /* \"#utility.yul\":2007:2013   */\n      dup2\n        /* \"#utility.yul\":1994:2014   */\n      calldataload\n        /* \"#utility.yul\":1985:2014   */\n      swap1\n      pop\n        /* \"#utility.yul\":2023:2053   */\n      tag_106\n        /* \"#utility.yul\":2047:2052   */\n      dup2\n        /* \"#utility.yul\":2023:2053   */\n      tag_71\n      jump\t// in\n    tag_106:\n        /* \"#utility.yul\":1926:2059   */\n      swap3\n      swap2\n      pop\n      pop\n      jump\t// out\n        /* \"#utility.yul\":2065:2388   */\n    tag_29:\n        /* \"#utility.yul\":2121:2127   */\n      0x00\n        /* \"#utility.yul\":2170:2172   */\n      0x20\n        /* \"#utility.yul\":2158:2167   */\n      dup3\n        /* \"#utility.yul\":2149:2156   */\n      dup5\n        /* \"#utility.yul\":2145:2168   */\n      sub\n        /* \"#utility.yul\":2141:2173   */\n      slt\n        /* \"#utility.yul\":2138:2257   */\n      iszero\n      tag_108\n      jumpi\n        /* \"#utility.yul\":2176:2255   */\n      tag_109\n      tag_67\n      jump\t// in\n    tag_109:\n        /* \"#utility.yul\":2138:2257   */\n    tag_108:\n        /* \"#utility.yul\":2296:2297   */\n      0x00\n        /* \"#utility.yul\":2321:2371   */\n      tag_110\n        /* \"#utility.yul\":2363:2370   */\n      dup5\n        /* \"#utility.yul\":2354:2360   */\n      dup3\n        /* \"#utility.yul\":2343:2352   */\n      dup6\n        /* \"#utility.yul\":2339:2361   */\n      add\n        /* \"#utility.yul\":2321:2371   */\n      tag_72\n      jump\t// in\n    tag_110:\n        /* \"#utility.yul\":2311:2371   */\n      swap2\n      pop\n        /* \"#utility.yul\":2267:2381   */\n      pop\n        /* \"#utility.yul\":2065:2388   */\n      swap3\n      swap2\n      pop\n      pop\n      jump\t// out\n        /* \"#utility.yul\":2394:2563   */\n    tag_73:\n        /* \"#utility.yul\":2478:2489   */\n      0x00\n        /* \"#utility.yul\":2512:2518   */\n      dup3\n        /* \"#utility.yul\":2507:2510   */\n      dup3\n        /* \"#utility.yul\":2500:2519   */\n      mstore\n        /* \"#utility.yul\":2552:2556   */\n      0x20\n        /* \"#utility.yul\":2547:2550   */\n      dup3\n        /* \"#utility.yul\":2543:2557   */\n      add\n        /* \"#utility.yul\":2528:2557   */\n      swap1\n      pop\n        /* \"#utility.yul\":2394:2563   */\n      swap3\n      swap2\n      pop\n      pop\n      jump\t// out\n        /* \"#utility.yul\":2569:2725   */\n    tag_74:\n        /* \"#utility.yul\":2709:2717   */\n      0x7061757365640000000000000000000000000000000000000000000000000000\n        /* \"#utility.yul\":2705:2706   */\n      0x00\n        /* \"#utility.yul\":2697:2703   */\n      dup3\n        /* \"#utility.yul\":2693:2707   */\n      add\n        /* \"#utility.yul\":2686:2718   */\n      mstore\n        /* \"#utility.yul\":2569:2725   */\n      pop\n      jump\t// out\n        /* \"#utility.yul\":2731:3096   */\n    tag_75:\n        /* \"#utility.yul\":2873:2876   */\n      0x00\n        /* \"#utility.yul\":2894:2960   */\n      tag_114\n        /* \"#utility.yul\":2958:2959   */\n      0x06\n        /* \"#utility.yul\":2953:2956   */\n      dup4\n        /* \"#utility.yul\":2894:2960   */\n      tag_73\n      jump\t// in\n    tag_114:\n        /* \"#utility.yul\":2887:2960   */\n      swap2\n      pop\n        /* \"#utility.yul\":2969:3062   */\n      tag_115\n        /* \"#utility.yul\":3058:3061   */\n      dup3\n        /* \"#utility.yul\":2969:3062   */\n      tag_74\n      jump\t// in\n    tag_115:\n        /* \"#utility.yul\":3087:3089   */\n      0x20\n        /* \"#utility.yul\":3082:3085   */\n      dup3\n        /* \"#utility.yul\":3078:3090   */\n      add\n        /* \"#utility.yul\":3071:3090   */\n      swap1\n      pop\n        /* \"#utility.yul\":2731:3096   */\n      swap2\n      swap1\n      pop\n      jump\t// out\n        /* \"#utility.yul\":3102:3521   */\n    tag_36:\n        /* \"#utility.yul\":3268:3272   */\n      0x00\n        /* \"#utility.yul\":3306:3308   */\n      0x20\n        /* \"#utility.yul\":3295:3304   */\n      dup3\n        /* \"#utility.yul\":3291:3309   */\n      add\n        /* \"#utility.yul\":3283:3309   */\n      swap1\n      pop\n        /* \"#utility.yul\":3355:3364   */\n      dup2\n        /* \"#utility.yul\":3349:3353   */\n      dup2\n        /* \"#utility.yul\":3345:3365   */\n      sub\n        /* \"#utility.yul\":3341:3342   */\n      0x00\n        /* \"#utility.yul\":3330:3339   */\n      dup4\n        /* \"#utility.yul\":3326:3343   */\n      add\n        /* \"#utility.yul\":3319:3366   */\n      mstore\n        /* \"#utility.yul\":3383:3514   */\n      tag_117\n        /* \"#utility.yul\":3509:3513   */\n      dup2\n        /* \"#utility.yul\":3383:3514   */\n      tag_75\n      jump\t// in\n    tag_117:\n        /* \"#utility.yul\":3375:3514   */\n      swap1\n      pop\n        /* \"#utility.yul\":3102:3521   */\n      swap2\n      swap1\n      pop\n      jump\t// out\n        /* \"#utility.yul\":3527:3707   */\n    tag_76:\n        /* \"#utility.yul\":3575:3652   */\n      0x4e487b7100000000000000000000000000000000000000000000000000000000\n        /* \"#utility.yul\":3572:3573   */\n      0x00\n        /* \"#utility.yul\":3565:3653   */\n      mstore\n        /* \"#utility.yul\":3672:3676   */\n      0x11\n        /* \"#utility.yul\":3669:3670   */\n      0x04\n        /* \"#utility.yul\":3662:3677   */\n      mstore\n        /* \"#utility.yul\":3696:3700   */\n      0x24\n        /* \"#utility.yul\":3693:3694   */\n      0x00\n        /* \"#utility.yul\":3686:3701   */\n      revert\n        /* \"#utility.yul\":3713:4018   */\n    tag_39:\n        /* \"#utility.yul\":3753:3756   */\n      0x00\n        /* \"#utility.yul\":3772:3792   */\n      tag_120\n        /* \"#utility.yul\":3790:3791   */\n      dup3\n        /* \"#utility.yul\":3772:3792   */\n      tag_62\n      jump\t// in\n    tag_120:\n        /* \"#utility.yul\":3767:3792   */\n      swap2\n      pop\n        /* \"#utility.yul\":3806:3826   */\n      tag_121\n        /* \"#utility.yul\":3824:3825   */\n      dup4\n        /* \"#utility.yul\":3806:3826   */\n      tag_62\n      jump\t// in\n    tag_121:\n        /* \"#utility.yul\":3801:3826   */\n      swap3\n      pop\n        /* \"#utility.yul\":3960:3961   */\n      dup3\n        /* \"#utility.yul\":3892:3958   */\n      0xffffffffffffffffffffffffffffffffffffffffffffffffffffffffffffffff\n        /* \"#utility.yul\":3888:3962   */\n      sub\n        /* \"#utility.yul\":3885:3886   */\n      dup3\n        /* \"#utility.yul\":3882:3963   */\n      gt\n        /* \"#utility.yul\":3879:3986   */\n      iszero\n      tag_122\n      jumpi\n        /* \"#utility.yul\":3966:3984   */\n      tag_123\n      tag_76\n      jump\t// in\n    tag_123:\n        /* \"#utility.yul\":3879:3986   */\n    tag_122:\n        /* \"#utility.yul\":4010:4011   */\n      dup3\n        /* \"#utility.yul\":4007:4008   */\n      dup3\n        /* \"#utility.yul\":4003:4012   */\n      add\n        /* \"#utility.yul\":3996:4012   */\n      swap1\n      pop\n        /* \"#utility.yul\":3713:4018   */\n      swap3\n      swap2\n      pop\n      pop\n      jump\t// out\n        /* \"#utility.yul\":4024:4182   */\n    tag_77:\n        /* \"#utility.yul\":4164:4174   */\n      0x78203e3d20313030000000000000000000000000000000000000000000000000\n        /* \"#utility.yul\":4160:4161   */\n      0x00\n        /* \"#utility.yul\":4152:4158   */\n      dup3\n        /* \"#utility.yul\":4148:4162   */\n      add\n        /* \"#utility.yul\":4141:4175   */\n      mstore\n        /* \"#utility.yul\":4024:4182   */\n      pop\n      jump\t// out\n        /* \"#utility.yul\":4188:4553   */\n    tag_78:\n        /* \"#utility.yul\":4330:4333   */\n      0x00\n        /* \"#utility.yul\":4351:4417   */\n      tag_126\n        /* \"#utility.yul\":4415:4416   */\n      0x08\n        /* \"#utility.yul\":4410:4413   */\n      dup4\n        /* \"#utility.yul\":4351:4417   */\n      tag_73\n      jump\t// in\n    tag_126:\n        /* \"#utility.yul\":4344:4417   */\n      swap2\n      pop\n        /* \"#utility.yul\":4426:4519   */\n      tag_127\n        /* \"#utility.yul\":4515:4518   */\n      dup3\n        /* \"#utility.yul\":4426:4519   */\n      tag_77\n      jump\t// in\n    tag_127:\n        /* \"#utility.yul\":4544:4546   */\n      0x20\n        /* \"#utility.yul\":4539:4542   */\n      dup3\n        /* \"#utility.yul\":4535:4547   */\n      add\n        /* \"#utility.yul\":4528:4547   */\n      swap1\n      pop\n        /* \"#utility.yul\":4188:4553   */\n      swap2\n      swap1\n      pop\n      jump\t// out\n        /* \"#utility.yul\":4559:4978   */\n    tag_46:\n        /* \"#utility.yul\":4725:4729   */\n      0x00\n        /* \"#utility.yul\":4763:4765   */\n      0x20\n        /* \"#utility.yul\":4752:4761   */\n      dup3\n        /* \"#utility.yul\":4748:4766   */\n      add\n        /* \"#utility.yul\":4740:4766   */\n      swap1\n      pop\n        /* \"#utility.yul\":4812:4821   */\n      dup2\n        /* \"#utility.yul\":4806:4810   */\n      dup2\n        /* \"#utility.yul\":4802:4822   */\n      sub\n        /* \"#utility.yul\":4798:4799   */\n      0x00\n        /* \"#utility.yul\":4787:4796   */\n      dup4\n        /* \"#utility.yul\":4783:4800   */\n      add\n        /* \"#utility.yul\":4776:4823   */\n      mstore\n        /* \"#utility.yul\":4840:4971   */\n      tag_129\n        /* \"#utility.yul\":4966:4970   */\n      dup2\n        /* \"#utility.yul\":4840:4971   */\n      tag_78\n      jump\t// in\n    tag_129:\n        /* \"#utility.yul\":4832:4971   */\n      swap1\n      pop\n        /* \"#utility.yul\":4559:4978   */\n      swap2\n      swap1\n      pop\n      jump\t// out\n        /* \"#utility.yul\":4984:5175   */\n    tag_54:\n        /* \"#utility.yul\":5024:5028   */\n      0x00\n        /* \"#utility.yul\":5044:5064   */\n      tag_131\n        /* \"#utility.yul\":5062:5063   */\n      dup3\n        /* \"#utility.yul\":5044:5064   */\n      tag_62\n      jump\t// in\n    tag_131:\n        /* \"#utility.yul\":5039:5064   */\n      swap2\n      pop\n        /* \"#utility.yul\":5078:5098   */\n      tag_132\n        /* \"#utility.yul\":5096:5097   */\n      dup4\n        /* \"#utility.yul\":5078:5098   */\n      tag_62\n      jump\t// in\n    tag_132:\n        /* \"#utility.yul\":5073:5098   */\n      swap3\n      pop\n        /* \"#utility.yul\":5117:5118   */\n      dup3\n        /* \"#utility.yul\":5114:5115   */\n      dup3\n        /* \"#utility.yul\":5111:5119   */\n      lt\n        /* \"#utility.yul\":5108:5142   */\n      iszero\n      tag_133\n      jumpi\n        /* \"#utility.yul\":5122:5140   */\n      tag_134\n      tag_76\n      jump\t// in\n    tag_134:\n        /* \"#utility.yul\":5108:5142   */\n    tag_133:\n        /* \"#utility.yul\":5167:5168   */\n      dup3\n        /* \"#utility.yul\":5164:5165   */\n      dup3\n        /* \"#utility.yul\":5160:5169   */\n      sub\n        /* \"#utility.yul\":5152:5169   */\n      swap1\n      pop\n        /* \"#utility.yul\":4984:5175   */\n      swap3\n      swap2\n      pop\n      pop\n      jump\t// out\n        /* \"#utility.yul\":5181:5529   */\n    tag_61:\n        /* \"#utility.yul\":5221:5228   */\n      0x00\n        /* \"#utility.yul\":5244:5264   */\n      tag_136\n        /* \"#utility.yul\":5262:5263   */\n      dup3\n        /* \"#utility.yul\":5244:5264   */\n      tag_62\n      jump\t// in\n    tag_136:\n        /* \"#utility.yul\":5239:5264   */\n      swap2\n      pop\n        /* \"#utility.yul\":5278:5298   */\n      tag_137\n        /* \"#utility.yul\":5296:5297   */\n      dup4\n        /* \"#utility.yul\":5278:5298   */\n      tag_62\n      jump\t// in\n    tag_137:\n        /* \"#utility.yul\":5273:5298   */\n      swap3\n      pop\n        /* \"#utility.yul\":5466:5467   */\n      dup2\n        /* \"#utility.yul\":5398:5464   */\n      0xffffffffffffffffffffffffffffffffffffffffffffffffffffffffffffffff\n        /* \"#utility.yul\":5394:5468   */\n      div\n        /* \"#utility.yul\":5391:5392   */\n      dup4\n        /* \"#utility.yul\":5388:5469   */\n      gt\n        /* \"#utility.yul\":5383:5384   */\n      dup3\n        /* \"#utility.yul\":5376:5385   */\n      iszero\n        /* \"#utility.yul\":5369:5386   */\n      iszero\n        /* \"#utility.yul\":5365:5470   */\n      and\n        /* \"#utility.yul\":5362:5493   */\n      iszero\n      tag_138\n      jumpi\n        /* \"#utility.yul\":5473:5491   */\n      tag_139\n      tag_76\n      jump\t// in\n    tag_139:\n        /* \"#utility.yul\":5362:5493   */\n    tag_138:\n        /* \"#utility.yul\":5521:5522   */\n      dup3\n        /* \"#utility.yul\":5518:5519   */\n      dup3\n        /* \"#utility.yul\":5514:5523   */\n      mul\n        /* \"#utility.yul\":5503:5523   */\n      swap1\n      pop\n        /* \"#utility.yul\":5181:5529   */\n      swap3\n      swap2\n      pop\n      pop\n      jump\t// out\n\n    auxdata: 0xa26469706673582212208050693a0702c10e2c19855ec140748543312e40963cc366674f1f0dca92a78664736f6c634300080f0033\n}\n",
				"bytecode": {
					"linkReferences": {},
					"object": "608060405234801561001057600080fd5b5061066a806100206000396000f3fe608060405234801561001057600080fd5b506004361061007d5760003560e01c806370119d061161005b57806370119d06146100c8578063b3bcfa82146100e4578063bedb86fb146100ee578063c29855781461010a5761007d565b806306661abd14610082578063371303c0146100a05780635c975abb146100aa575b600080fd5b61008a610114565b6040516100979190610330565b60405180910390f35b6100a861011a565b005b6100b2610183565b6040516100bf9190610366565b60405180910390f35b6100e260048036038101906100dd91906103b2565b610194565b005b6100ec610243565b005b6101086004803603810190610103919061040b565b6102ac565b005b6101126102c8565b005b60015481565b60008054906101000a900460ff1615610168576040517f08c379a000000000000000000000000000000000000000000000000000000000815260040161015f90610495565b60405180910390fd5b600180600082825461017a91906104e4565b92505081905550565b60008054906101000a900460ff1681565b60008054906101000a900460ff16156101e2576040517f08c379a00000000000000000000000000000000000000000000000000000000081526004016101d990610495565b60405180910390fd5b8060648110610226576040517f08c379a000000000000000000000000000000000000000000000000000000000815260040161021d90610586565b60405180910390fd5b816001600082825461023891906104e4565b925050819055505050565b60008054906101000a900460ff1615610291576040517f08c379a000000000000000000000000000000000000000000000000000000000815260040161028890610495565b60405180910390fd5b60018060008282546102a391906105a6565b92505081905550565b806000806101000a81548160ff02191690831515021790555050565b600a600160008282546102db91906104e4565b9250508190555060018060008282546102f491906104e4565b9250508190555060026001600082825461030e91906105da565b92505081905550565b6000819050919050565b61032a81610317565b82525050565b60006020820190506103456000830184610321565b92915050565b60008115159050919050565b6103608161034b565b82525050565b600060208201905061037b6000830184610357565b92915050565b600080fd5b61038f81610317565b811461039a57600080fd5b50565b6000813590506103ac81610386565b92915050565b6000602082840312156103c8576103c7610381565b5b60006103d68482850161039d565b91505092915050565b6103e88161034b565b81146103f357600080fd5b50565b600081359050610405816103df565b92915050565b60006020828403121561042157610420610381565b5b600061042f848285016103f6565b91505092915050565b600082825260208201905092915050565b7f7061757365640000000000000000000000000000000000000000000000000000600082015250565b600061047f600683610438565b915061048a82610449565b602082019050919050565b600060208201905081810360008301526104ae81610472565b9050919050565b7f4e487b7100000000000000000000000000000000000000000000000000000000600052601160045260246000fd5b60006104ef82610317565b91506104fa83610317565b9250827fffffffffffffffffffffffffffffffffffffffffffffffffffffffffffffffff0382111561052f5761052e6104b5565b5b828201905092915050565b7f78203e3d20313030000000000000000000000000000000000000000000000000600082015250565b6000610570600883610438565b915061057b8261053a565b602082019050919050565b6000602082019050818103600083015261059f81610563565b9050919050565b60006105b182610317565b91506105bc83610317565b9250828210156105cf576105ce6104b5565b5b828203905092915050565b60006105e582610317565b91506105f083610317565b9250817fffffffffffffffffffffffffffffffffffffffffffffffffffffffffffffffff0483118215151615610629576106286104b5565b5b82820290509291505056fea26469706673582212208050693a0702c10e2c19855ec140748543312e40963cc366674f1f0dca92a78664736f6c634300080f0033",
					"opcodes": "PUSH1 0x80 PUSH1 0x40 MSTORE CALLVALUE DUP1 ISZERO PUSH2 0x10 JUMPI PUSH1 0x0 DUP1 REVERT JUMPDEST POP PUSH2 0x66A DUP1 PUSH2 0x20 PUSH1 0x0 CODECOPY PUSH1 0x0 RETURN INVALID PUSH1 0x80 PUSH1 0x40 MSTORE CALLVALUE DUP1 ISZERO PUSH2 0x10 JUMPI PUSH1 0x0 DUP1 REVERT JUMPDEST POP PUSH1 0x4 CALLDATASIZE LT PUSH2 0x7D JUMPI PUSH1 0x0 CALLDATALOAD PUSH1 0xE0 SHR DUP1 PUSH4 0x70119D06 GT PUSH2 0x5B JUMPI DUP1 PUSH4 0x70119D06 EQ PUSH2 0xC8 JUMPI DUP1 PUSH4 0xB3BCFA82 EQ PUSH2 0xE4 JUMPI DUP1 PUSH4 0xBEDB86FB EQ PUSH2 0xEE JUMPI DUP1 PUSH4 0xC2985578 EQ PUSH2 0x10A JUMPI PUSH2 0x7D JUMP JUMPDEST DUP1 PUSH4 0x6661ABD EQ PUSH2 0x82 JUMPI DUP1 PUSH4 0x371303C0 EQ PUSH2 0xA0 JUMPI DUP1 PUSH4 0x5C975ABB EQ PUSH2 0xAA JUMPI JUMPDEST PUSH1 0x0 DUP1 REVERT JUMPDEST PUSH2 0x8A PUSH2 0x114 JUMP JUMPDEST PUSH1 0x40 MLOAD PUSH2 0x97 SWAP2 SWAP1 PUSH2 0x330 JUMP JUMPDEST PUSH1 0x40 MLOAD DUP1 SWAP2 SUB SWAP1 RETURN JUMPDEST PUSH2 0xA8 PUSH2 0x11A JUMP JUMPDEST STOP JUMPDEST PUSH2 0xB2 PUSH2 0x183 JUMP JUMPDEST PUSH1 0x40 MLOAD PUSH2 0xBF SWAP2 SWAP1 PUSH2 0x366 JUMP JUMPDEST PUSH1 0x40 MLOAD DUP1 SWAP2 SUB SWAP1 RETURN JUMPDEST PUSH2 0xE2 PUSH1 0x4 DUP1 CALLDATASIZE SUB DUP2 ADD SWAP1 PUSH2 0xDD SWAP2 SWAP1 PUSH2 0x3B2 JUMP JUMPDEST PUSH2 0x194 JUMP JUMPDEST STOP JUMPDEST PUSH2 0xEC PUSH2 0x243 JUMP JUMPDEST STOP JUMPDEST PUSH2 0x108 PUSH1 0x4 DUP1 CALLDATASIZE SUB DUP2 ADD SWAP1 PUSH2 0x103 SWAP2 SWAP1 PUSH2 0x40B JUMP JUMPDEST PUSH2 0x2AC JUMP JUMPDEST STOP JUMPDEST PUSH2 0x112 PUSH2 0x2C8 JUMP JUMPDEST STOP JUMPDEST PUSH1 0x1 SLOAD DUP2 JUMP JUMPDEST PUSH1 0x0 DUP1 SLOAD SWAP1 PUSH2 0x100 EXP SWAP1 DIV PUSH1 0xFF AND ISZERO PUSH2 0x168 JUMPI PUSH1 0x40 MLOAD PUSH32 0x8C379A000000000000000000000000000000000000000000000000000000000 DUP2 MSTORE PUSH1 0x4 ADD PUSH2 0x15F SWAP1 PUSH2 0x495 JUMP JUMPDEST PUSH1 0x40 MLOAD DUP1 SWAP2 SUB SWAP1 REVERT JUMPDEST PUSH1 0x1 DUP1 PUSH1 0x0 DUP3 DUP3 SLOAD PUSH2 0x17A SWAP2 SWAP1 PUSH2 0x4E4 JUMP JUMPDEST SWAP3 POP POP DUP2 SWAP1 SSTORE POP JUMP JUMPDEST PUSH1 0x0 DUP1 SLOAD SWAP1 PUSH2 0x100 EXP SWAP1 DIV PUSH1 0xFF AND DUP2 JUMP JUMPDEST PUSH1 0x0 DUP1 SLOAD SWAP1 PUSH2 0x100 EXP SWAP1 DIV PUSH1 0xFF AND ISZERO PUSH2 0x1E2 JUMPI PUSH1 0x40 MLOAD PUSH32 0x8C379A000000000000000000000000000000000000000000000000000000000 DUP2 MSTORE PUSH1 0x4 ADD PUSH2 0x1D9 SWAP1 PUSH2 0x495 JUMP JUMPDEST PUSH1 0x40 MLOAD DUP1 SWAP2 SUB SWAP1 REVERT JUMPDEST DUP1 PUSH1 0x64 DUP2 LT PUSH2 0x226 JUMPI PUSH1 0x40 MLOAD PUSH32 0x8C379A000000000000000000000000000000000000000000000000000000000 DUP2 MSTORE PUSH1 0x4 ADD PUSH2 0x21D SWAP1 PUSH2 0x586 JUMP JUMPDEST PUSH1 0x40 MLOAD DUP1 SWAP2 SUB SWAP1 REVERT JUMPDEST DUP2 PUSH1 0x1 PUSH1 0x0 DUP3 DUP3 SLOAD PUSH2 0x238 SWAP2 SWAP1 PUSH2 0x4E4 JUMP JUMPDEST SWAP3 POP POP DUP2 SWAP1 SSTORE POP POP POP JUMP JUMPDEST PUSH1 0x0 DUP1 SLOAD SWAP1 PUSH2 0x100 EXP SWAP1 DIV PUSH1 0xFF AND ISZERO PUSH2 0x291 JUMPI PUSH1 0x40 MLOAD PUSH32 0x8C379A000000000000000000000000000000000000000000000000000000000 DUP2 MSTORE PUSH1 0x4 ADD PUSH2 0x288 SWAP1 PUSH2 0x495 JUMP JUMPDEST PUSH1 0x40 MLOAD DUP1 SWAP2 SUB SWAP1 REVERT JUMPDEST PUSH1 0x1 DUP1 PUSH1 0x0 DUP3 DUP3 SLOAD PUSH2 0x2A3 SWAP2 SWAP1 PUSH2 0x5A6 JUMP JUMPDEST SWAP3 POP POP DUP2 SWAP1 SSTORE POP JUMP JUMPDEST DUP1 PUSH1 0x0 DUP1 PUSH2 0x100 EXP DUP2 SLOAD DUP2 PUSH1 0xFF MUL NOT AND SWAP1 DUP4 ISZERO ISZERO MUL OR SWAP1 SSTORE POP POP JUMP JUMPDEST PUSH1 0xA PUSH1 0x1 PUSH1 0x0 DUP3 DUP3 SLOAD PUSH2 0x2DB SWAP2 SWAP1 PUSH2 0x4E4 JUMP JUMPDEST SWAP3 POP POP DUP2 SWAP1 SSTORE POP PUSH1 0x1 DUP1 PUSH1 0x0 DUP3 DUP3 SLOAD PUSH2 0x2F4 SWAP2 SWAP1 PUSH2 0x4E4 JUMP JUMPDEST SWAP3 POP POP DUP2 SWAP1 SSTORE POP PUSH1 0x2 PUSH1 0x1 PUSH1 0x0 DUP3 DUP3 SLOAD PUSH2 0x30E SWAP2 SWAP1 PUSH2 0x5DA JUMP JUMPDEST SWAP3 POP POP DUP2 SWAP1 SSTORE POP JUMP JUMPDEST PUSH1 0x0 DUP2 SWAP1 POP SWAP2 SWAP1 POP JUMP JUMPDEST PUSH2 0x32A DUP2 PUSH2 0x317 JUMP JUMPDEST DUP3 MSTORE POP POP JUMP JUMPDEST PUSH1 0x0 PUSH1 0x20 DUP3 ADD SWAP1 POP PUSH2 0x345 PUSH1 0x0 DUP4 ADD DUP5 PUSH2 0x321 JUMP JUMPDEST SWAP3 SWAP2 POP POP JUMP JUMPDEST PUSH1 0x0 DUP2 ISZERO ISZERO SWAP1 POP SWAP2 SWAP1 POP JUMP JUMPDEST PUSH2 0x360 DUP2 PUSH2 0x34B JUMP JUMPDEST DUP3 MSTORE POP POP JUMP JUMPDEST PUSH1 0x0 PUSH1 0x20 DUP3 ADD SWAP1 POP PUSH2 0x37B PUSH1 0x0 DUP4 ADD DUP5 PUSH2 0x357 JUMP JUMPDEST SWAP3 SWAP2 POP POP JUMP JUMPDEST PUSH1 0x0 DUP1 REVERT JUMPDEST PUSH2 0x38F DUP2 PUSH2 0x317 JUMP JUMPDEST DUP2 EQ PUSH2 0x39A JUMPI PUSH1 0x0 DUP1 REVERT JUMPDEST POP JUMP JUMPDEST PUSH1 0x0 DUP2 CALLDATALOAD SWAP1 POP PUSH2 0x3AC DUP2 PUSH2 0x386 JUMP JUMPDEST SWAP3 SWAP2 POP POP JUMP JUMPDEST PUSH1 0x0 PUSH1 0x20 DUP3 DUP5 SUB SLT ISZERO PUSH2 0x3C8 JUMPI PUSH2 0x3C7 PUSH2 0x381 JUMP JUMPDEST JUMPDEST PUSH1 0x0 PUSH2 0x3D6 DUP5 DUP3 DUP6 ADD PUSH2 0x39D JUMP JUMPDEST SWAP2 POP POP SWAP3 SWAP2 POP POP JUMP JUMPDEST PUSH2 0x3E8 DUP2 PUSH2 0x34B JUMP JUMPDEST DUP2 EQ PUSH2 0x3F3 JUMPI PUSH1 0x0 DUP1 REVERT JUMPDEST POP JUMP JUMPDEST PUSH1 0x0 DUP2 CALLDATALOAD SWAP1 POP PUSH2 0x405 DUP2 PUSH2 0x3DF JUMP JUMPDEST SWAP3 SWAP2 POP POP JUMP JUMPDEST PUSH1 0x0 PUSH1 0x20 DUP3 DUP5 SUB SLT ISZERO PUSH2 0x421 JUMPI PUSH2 0x420 PUSH2 0x381 JUMP JUMPDEST JUMPDEST PUSH1 0x0 PUSH2 0x42F DUP5 DUP3 DUP6 ADD PUSH2 0x3F6 JUMP JUMPDEST SWAP2 POP POP SWAP3 SWAP2 POP POP JUMP JUMPDEST PUSH1 0x0 DUP3 DUP3 MSTORE PUSH1 0x20 DUP3 ADD SWAP1 POP SWAP3 SWAP2 POP POP JUMP JUMPDEST PUSH32 0x7061757365640000000000000000000000000000000000000000000000000000 PUSH1 0x0 DUP3 ADD MSTORE POP JUMP JUMPDEST PUSH1 0x0 PUSH2 0x47F PUSH1 0x6 DUP4 PUSH2 0x438 JUMP JUMPDEST SWAP2 POP PUSH2 0x48A DUP3 PUSH2 0x449 JUMP JUMPDEST PUSH1 0x20 DUP3 ADD SWAP1 POP SWAP2 SWAP1 POP JUMP JUMPDEST PUSH1 0x0 PUSH1 0x20 DUP3 ADD SWAP1 POP DUP2 DUP2 SUB PUSH1 0x0 DUP4 ADD MSTORE PUSH2 0x4AE DUP2 PUSH2 0x472 JUMP JUMPDEST SWAP1 POP SWAP2 SWAP1 POP JUMP JUMPDEST PUSH32 0x4E487B7100000000000000000000000000000000000000000000000000000000 PUSH1 0x0 MSTORE PUSH1 0x11 PUSH1 0x4 MSTORE PUSH1 0x24 PUSH1 0x0 REVERT JUMPDEST PUSH1 0x0 PUSH2 0x4EF DUP3 PUSH2 0x317 JUMP JUMPDEST SWAP2 POP PUSH2 0x4FA DUP4 PUSH2 0x317 JUMP JUMPDEST SWAP3 POP DUP3 PUSH32 0xFFFFFFFFFFFFFFFFFFFFFFFFFFFFFFFFFFFFFFFFFFFFFFFFFFFFFFFFFFFFFFFF SUB DUP3 GT ISZERO PUSH2 0x52F JUMPI PUSH2 0x52E PUSH2 0x4B5 JUMP JUMPDEST JUMPDEST DUP3 DUP3 ADD SWAP1 POP SWAP3 SWAP2 POP POP JUMP JUMPDEST PUSH32 0x78203E3D20313030000000000000000000000000000000000000000000000000 PUSH1 0x0 DUP3 ADD MSTORE POP JUMP JUMPDEST PUSH1 0x0 PUSH2 0x570 PUSH1 0x8 DUP4 PUSH2 0x438 JUMP JUMPDEST SWAP2 POP PUSH2 0x57B DUP3 PUSH2 0x53A JUMP JUMPDEST PUSH1 0x20 DUP3 ADD SWAP1 POP SWAP2 SWAP1 POP JUMP JUMPDEST PUSH1 0x0 PUSH1 0x20 DUP3 ADD SWAP1 POP DUP2 DUP2 SUB PUSH1 0x0 DUP4 ADD MSTORE PUSH2 0x59F DUP2 PUSH2 0x563 JUMP JUMPDEST SWAP1 POP SWAP2 SWAP1 POP JUMP JUMPDEST PUSH1 0x0 PUSH2 0x5B1 DUP3 PUSH2 0x317 JUMP JUMPDEST SWAP2 POP PUSH2 0x5BC DUP4 PUSH2 0x317 JUMP JUMPDEST SWAP3 POP DUP3 DUP3 LT ISZERO PUSH2 0x5CF JUMPI PUSH2 0x5CE PUSH2 0x4B5 JUMP JUMPDEST JUMPDEST DUP3 DUP3 SUB SWAP1 POP SWAP3 SWAP2 POP POP JUMP JUMPDEST PUSH1 0x0 PUSH2 0x5E5 DUP3 PUSH2 0x317 JUMP JUMPDEST SWAP2 POP PUSH2 0x5F0 DUP4 PUSH2 0x317 JUMP JUMPDEST SWAP3 POP DUP2 PUSH32 0xFFFFFFFFFFFFFFFFFFFFFFFFFFFFFFFFFFFFFFFFFFFFFFFFFFFFFFFFFFFFFFFF DIV DUP4 GT DUP3 ISZERO ISZERO AND ISZERO PUSH2 0x629 JUMPI PUSH2 0x628 PUSH2 0x4B5 JUMP JUMPDEST JUMPDEST DUP3 DUP3 MUL SWAP1 POP SWAP3 SWAP2 POP POP JUMP INVALID LOG2 PUSH5 0x6970667358 0x22 SLT KECCAK256 DUP1 POP PUSH10 0x3A0702C10E2C19855EC1 BLOCKHASH PUSH21 0x8543312E40963CC366674F1F0DCA92A78664736F6C PUSH4 0x4300080F STOP CALLER "
				},
				"gasEstimates": {
					"creation": {
						"codeDepositCost": "328400",
						"executionCost": "368",
						"totalCost": "328768"
					},
					"external": {
						"count()": "2430",
						"dec()": "infinite",
						"foo()": "infinite",
						"inc()": "infinite",
						"incBy(uint256)": "infinite",
						"paused()": "2513",
						"setPause(bool)": "24723"
					}
				},
				"methodIdentifiers": {
					"count()": "06661abd",
					"dec()": "b3bcfa82",
					"foo()": "c2985578",
					"inc()": "371303c0",
					"incBy(uint256)": "70119d06",
					"paused()": "5c975abb",
					"setPause(bool)": "bedb86fb"
				}
			},
			"storageLayout": {
				"storage": [
					{
						"astId": 3,
						"contract": "HelloWorld/14FunctionModifier.sol:FunctionModifier",
						"label": "paused",
						"offset": 0,
						"slot": "0",
						"type": "t_bool"
					},
					{
						"astId": 5,
						"contract": "HelloWorld/14FunctionModifier.sol:FunctionModifier",
						"label": "count",
						"offset": 0,
						"slot": "1",
						"type": "t_uint256"
					}
				],
				"types": {
					"t_bool": {
						"encoding": "inplace",
						"label": "bool",
						"numberOfBytes": "1"
					},
					"t_uint256": {
						"encoding": "inplace",
						"label": "uint256",
						"numberOfBytes": "32"
					}
				}
			},
			"userdoc": {
				"kind": "user",
				"methods": {},
				"version": 1
			}
		}
	}
}