{
	"HelloWorld/23Structs.sol": {
		"Structs": {
			"abi": [
				{
					"inputs": [],
					"name": "car",
					"outputs": [
						{
							"internalType": "string",
							"name": "model",
							"type": "string"
						},
						{
							"internalType": "uint256",
							"name": "year",
							"type": "uint256"
						},
						{
							"internalType": "address",
							"name": "owner",
							"type": "address"
						}
					],
					"stateMutability": "view",
					"type": "function"
				},
				{
					"inputs": [
						{
							"internalType": "uint256",
							"name": "",
							"type": "uint256"
						}
					],
					"name": "cars",
					"outputs": [
						{
							"internalType": "string",
							"name": "model",
							"type": "string"
						},
						{
							"internalType": "uint256",
							"name": "year",
							"type": "uint256"
						},
						{
							"internalType": "address",
							"name": "owner",
							"type": "address"
						}
					],
					"stateMutability": "view",
					"type": "function"
				},
				{
					"inputs": [
						{
							"internalType": "address",
							"name": "",
							"type": "address"
						},
						{
							"internalType": "uint256",
							"name": "",
							"type": "uint256"
						}
					],
					"name": "carsByOwner",
					"outputs": [
						{
							"internalType": "string",
							"name": "model",
							"type": "string"
						},
						{
							"internalType": "uint256",
							"name": "year",
							"type": "uint256"
						},
						{
							"internalType": "address",
							"name": "owner",
							"type": "address"
						}
					],
					"stateMutability": "view",
					"type": "function"
				},
				{
					"inputs": [],
					"name": "examples",
					"outputs": [],
					"stateMutability": "nonpayable",
					"type": "function"
				}
			],
			"devdoc": {
				"kind": "dev",
				"methods": {},
				"version": 1
			},
			"evm": {
				"assembly": "    /* \"HelloWorld/23Structs.sol\":56:575  contract Structs {... */\n  mstore(0x40, 0x80)\n  callvalue\n  dup1\n  iszero\n  tag_1\n  jumpi\n  0x00\n  dup1\n  revert\ntag_1:\n  pop\n  dataSize(sub_0)\n  dup1\n  dataOffset(sub_0)\n  0x00\n  codecopy\n  0x00\n  return\nstop\n\nsub_0: assembly {\n        /* \"HelloWorld/23Structs.sol\":56:575  contract Structs {... */\n      mstore(0x40, 0x80)\n      callvalue\n      dup1\n      iszero\n      tag_1\n      jumpi\n      0x00\n      dup1\n      revert\n    tag_1:\n      pop\n      jumpi(tag_2, lt(calldatasize, 0x04))\n      shr(0xe0, calldataload(0x00))\n      dup1\n      0x335d00c2\n      eq\n      tag_3\n      jumpi\n      dup1\n      0xaa9fb6c8\n      eq\n      tag_4\n      jumpi\n      dup1\n      0xee26fac3\n      eq\n      tag_5\n      jumpi\n      dup1\n      0xf7746e36\n      eq\n      tag_6\n      jumpi\n    tag_2:\n      0x00\n      dup1\n      revert\n        /* \"HelloWorld/23Structs.sol\":262:573  function examples() external {... */\n    tag_3:\n      tag_7\n      tag_8\n      jump\t// in\n    tag_7:\n      stop\n        /* \"HelloWorld/23Structs.sol\":211:255  mapping(address => Car[]) public carsByOwner */\n    tag_4:\n      tag_9\n      0x04\n      dup1\n      calldatasize\n      sub\n      dup2\n      add\n      swap1\n      tag_10\n      swap2\n      swap1\n      tag_11\n      jump\t// in\n    tag_10:\n      tag_12\n      jump\t// in\n    tag_9:\n      mload(0x40)\n      tag_13\n      swap4\n      swap3\n      swap2\n      swap1\n      tag_14\n      jump\t// in\n    tag_13:\n      mload(0x40)\n      dup1\n      swap2\n      sub\n      swap1\n      return\n        /* \"HelloWorld/23Structs.sol\":167:181  Car public car */\n    tag_5:\n      tag_15\n      tag_16\n      jump\t// in\n    tag_15:\n      mload(0x40)\n      tag_17\n      swap4\n      swap3\n      swap2\n      swap1\n      tag_14\n      jump\t// in\n    tag_17:\n      mload(0x40)\n      dup1\n      swap2\n      sub\n      swap1\n      return\n        /* \"HelloWorld/23Structs.sol\":187:205  Car [] public cars */\n    tag_6:\n      tag_18\n      0x04\n      dup1\n      calldatasize\n      sub\n      dup2\n      add\n      swap1\n      tag_19\n      swap2\n      swap1\n      tag_20\n      jump\t// in\n    tag_19:\n      tag_21\n      jump\t// in\n    tag_18:\n      mload(0x40)\n      tag_22\n      swap4\n      swap3\n      swap2\n      swap1\n      tag_14\n      jump\t// in\n    tag_22:\n      mload(0x40)\n      dup1\n      swap2\n      sub\n      swap1\n      return\n        /* \"HelloWorld/23Structs.sol\":262:573  function examples() external {... */\n    tag_8:\n        /* \"HelloWorld/23Structs.sol\":301:318  Car memory toyota */\n      0x00\n        /* \"HelloWorld/23Structs.sol\":321:352  Car(\"Toyota\", 1990, msg.sender) */\n      mload(0x40)\n      dup1\n      0x60\n      add\n      0x40\n      mstore\n      dup1\n      mload(0x40)\n      dup1\n      0x40\n      add\n      0x40\n      mstore\n      dup1\n      0x06\n      dup2\n      mstore\n      0x20\n      add\n      0x546f796f74610000000000000000000000000000000000000000000000000000\n      dup2\n      mstore\n      pop\n      dup2\n      mstore\n      0x20\n      add\n        /* \"HelloWorld/23Structs.sol\":335:339  1990 */\n      0x07c6\n        /* \"HelloWorld/23Structs.sol\":321:352  Car(\"Toyota\", 1990, msg.sender) */\n      dup2\n      mstore\n      0x20\n      add\n        /* \"HelloWorld/23Structs.sol\":341:351  msg.sender */\n      caller\n        /* \"HelloWorld/23Structs.sol\":321:352  Car(\"Toyota\", 1990, msg.sender) */\n      0xffffffffffffffffffffffffffffffffffffffff\n      and\n      dup2\n      mstore\n      pop\n        /* \"HelloWorld/23Structs.sol\":301:352  Car memory toyota = Car(\"Toyota\", 1990, msg.sender) */\n      swap1\n      pop\n        /* \"HelloWorld/23Structs.sol\":362:378  Car memory lambo */\n      0x00\n        /* \"HelloWorld/23Structs.sol\":381:439  Car({year: 1980, model: \"Lamborghini\", owner: msg.sender}) */\n      mload(0x40)\n      dup1\n      0x60\n      add\n      0x40\n      mstore\n      dup1\n      mload(0x40)\n      dup1\n      0x40\n      add\n      0x40\n      mstore\n      dup1\n      0x0b\n      dup2\n      mstore\n      0x20\n      add\n      0x4c616d626f726768696e69000000000000000000000000000000000000000000\n      dup2\n      mstore\n      pop\n      dup2\n      mstore\n      0x20\n      add\n        /* \"HelloWorld/23Structs.sol\":392:396  1980 */\n      0x07bc\n        /* \"HelloWorld/23Structs.sol\":381:439  Car({year: 1980, model: \"Lamborghini\", owner: msg.sender}) */\n      dup2\n      mstore\n      0x20\n      add\n        /* \"HelloWorld/23Structs.sol\":427:437  msg.sender */\n      caller\n        /* \"HelloWorld/23Structs.sol\":381:439  Car({year: 1980, model: \"Lamborghini\", owner: msg.sender}) */\n      0xffffffffffffffffffffffffffffffffffffffff\n      and\n      dup2\n      mstore\n      pop\n        /* \"HelloWorld/23Structs.sol\":362:439  Car memory lambo = Car({year: 1980, model: \"Lamborghini\", owner: msg.sender}) */\n      swap1\n      pop\n        /* \"HelloWorld/23Structs.sol\":449:465  Car memory tesla */\n      tag_24\n      tag_25\n      jump\t// in\n    tag_24:\n        /* \"HelloWorld/23Structs.sol\":475:496  tesla.model = \"Tesla\" */\n      mload(0x40)\n      dup1\n      0x40\n      add\n      0x40\n      mstore\n      dup1\n      0x05\n      dup2\n      mstore\n      0x20\n      add\n      0x5465736c61000000000000000000000000000000000000000000000000000000\n      dup2\n      mstore\n      pop\n        /* \"HelloWorld/23Structs.sol\":475:480  tesla */\n      dup2\n        /* \"HelloWorld/23Structs.sol\":475:486  tesla.model */\n      0x00\n      add\n        /* \"HelloWorld/23Structs.sol\":475:496  tesla.model = \"Tesla\" */\n      dup2\n      swap1\n      mstore\n      pop\n        /* \"HelloWorld/23Structs.sol\":519:523  2010 */\n      0x07da\n        /* \"HelloWorld/23Structs.sol\":506:511  tesla */\n      dup2\n        /* \"HelloWorld/23Structs.sol\":506:516  tesla.year */\n      0x20\n      add\n        /* \"HelloWorld/23Structs.sol\":506:523  tesla.year = 2010 */\n      dup2\n      dup2\n      mstore\n      pop\n      pop\n        /* \"HelloWorld/23Structs.sol\":547:557  msg.sender */\n      caller\n        /* \"HelloWorld/23Structs.sol\":533:538  tesla */\n      dup2\n        /* \"HelloWorld/23Structs.sol\":533:544  tesla.owner */\n      0x40\n      add\n        /* \"HelloWorld/23Structs.sol\":533:557  tesla.owner = msg.sender */\n      swap1\n      0xffffffffffffffffffffffffffffffffffffffff\n      and\n      swap1\n      dup2\n      0xffffffffffffffffffffffffffffffffffffffff\n      and\n      dup2\n      mstore\n      pop\n      pop\n        /* \"HelloWorld/23Structs.sol\":291:573  {... */\n      pop\n      pop\n      pop\n        /* \"HelloWorld/23Structs.sol\":262:573  function examples() external {... */\n      jump\t// out\n        /* \"HelloWorld/23Structs.sol\":211:255  mapping(address => Car[]) public carsByOwner */\n    tag_12:\n      mstore(0x20, 0x04)\n      dup2\n      0x00\n      mstore\n      keccak256(0x00, 0x40)\n      dup2\n      dup2\n      sload\n      dup2\n      lt\n      tag_26\n      jumpi\n      0x00\n      dup1\n      revert\n    tag_26:\n      swap1\n      0x00\n      mstore\n      keccak256(0x00, 0x20)\n      swap1\n      0x03\n      mul\n      add\n      0x00\n      swap2\n      pop\n      swap2\n      pop\n      pop\n      dup1\n      0x00\n      add\n      dup1\n      sload\n      tag_28\n      swap1\n      tag_29\n      jump\t// in\n    tag_28:\n      dup1\n      0x1f\n      add\n      0x20\n      dup1\n      swap2\n      div\n      mul\n      0x20\n      add\n      mload(0x40)\n      swap1\n      dup2\n      add\n      0x40\n      mstore\n      dup1\n      swap3\n      swap2\n      swap1\n      dup2\n      dup2\n      mstore\n      0x20\n      add\n      dup3\n      dup1\n      sload\n      tag_30\n      swap1\n      tag_29\n      jump\t// in\n    tag_30:\n      dup1\n      iszero\n      tag_31\n      jumpi\n      dup1\n      0x1f\n      lt\n      tag_32\n      jumpi\n      0x0100\n      dup1\n      dup4\n      sload\n      div\n      mul\n      dup4\n      mstore\n      swap2\n      0x20\n      add\n      swap2\n      jump(tag_31)\n    tag_32:\n      dup3\n      add\n      swap2\n      swap1\n      0x00\n      mstore\n      keccak256(0x00, 0x20)\n      swap1\n    tag_33:\n      dup2\n      sload\n      dup2\n      mstore\n      swap1\n      0x01\n      add\n      swap1\n      0x20\n      add\n      dup1\n      dup4\n      gt\n      tag_33\n      jumpi\n      dup3\n      swap1\n      sub\n      0x1f\n      and\n      dup3\n      add\n      swap2\n    tag_31:\n      pop\n      pop\n      pop\n      pop\n      pop\n      swap1\n      dup1\n      0x01\n      add\n      sload\n      swap1\n      dup1\n      0x02\n      add\n      0x00\n      swap1\n      sload\n      swap1\n      0x0100\n      exp\n      swap1\n      div\n      0xffffffffffffffffffffffffffffffffffffffff\n      and\n      swap1\n      pop\n      dup4\n      jump\t// out\n        /* \"HelloWorld/23Structs.sol\":167:181  Car public car */\n    tag_16:\n      0x00\n      dup1\n      0x00\n      add\n      dup1\n      sload\n      tag_34\n      swap1\n      tag_29\n      jump\t// in\n    tag_34:\n      dup1\n      0x1f\n      add\n      0x20\n      dup1\n      swap2\n      div\n      mul\n      0x20\n      add\n      mload(0x40)\n      swap1\n      dup2\n      add\n      0x40\n      mstore\n      dup1\n      swap3\n      swap2\n      swap1\n      dup2\n      dup2\n      mstore\n      0x20\n      add\n      dup3\n      dup1\n      sload\n      tag_35\n      swap1\n      tag_29\n      jump\t// in\n    tag_35:\n      dup1\n      iszero\n      tag_36\n      jumpi\n      dup1\n      0x1f\n      lt\n      tag_37\n      jumpi\n      0x0100\n      dup1\n      dup4\n      sload\n      div\n      mul\n      dup4\n      mstore\n      swap2\n      0x20\n      add\n      swap2\n      jump(tag_36)\n    tag_37:\n      dup3\n      add\n      swap2\n      swap1\n      0x00\n      mstore\n      keccak256(0x00, 0x20)\n      swap1\n    tag_38:\n      dup2\n      sload\n      dup2\n      mstore\n      swap1\n      0x01\n      add\n      swap1\n      0x20\n      add\n      dup1\n      dup4\n      gt\n      tag_38\n      jumpi\n      dup3\n      swap1\n      sub\n      0x1f\n      and\n      dup3\n      add\n      swap2\n    tag_36:\n      pop\n      pop\n      pop\n      pop\n      pop\n      swap1\n      dup1\n      0x01\n      add\n      sload\n      swap1\n      dup1\n      0x02\n      add\n      0x00\n      swap1\n      sload\n      swap1\n      0x0100\n      exp\n      swap1\n      div\n      0xffffffffffffffffffffffffffffffffffffffff\n      and\n      swap1\n      pop\n      dup4\n      jump\t// out\n        /* \"HelloWorld/23Structs.sol\":187:205  Car [] public cars */\n    tag_21:\n      0x03\n      dup2\n      dup2\n      sload\n      dup2\n      lt\n      tag_39\n      jumpi\n      0x00\n      dup1\n      revert\n    tag_39:\n      swap1\n      0x00\n      mstore\n      keccak256(0x00, 0x20)\n      swap1\n      0x03\n      mul\n      add\n      0x00\n      swap2\n      pop\n      swap1\n      pop\n      dup1\n      0x00\n      add\n      dup1\n      sload\n      tag_41\n      swap1\n      tag_29\n      jump\t// in\n    tag_41:\n      dup1\n      0x1f\n      add\n      0x20\n      dup1\n      swap2\n      div\n      mul\n      0x20\n      add\n      mload(0x40)\n      swap1\n      dup2\n      add\n      0x40\n      mstore\n      dup1\n      swap3\n      swap2\n      swap1\n      dup2\n      dup2\n      mstore\n      0x20\n      add\n      dup3\n      dup1\n      sload\n      tag_42\n      swap1\n      tag_29\n      jump\t// in\n    tag_42:\n      dup1\n      iszero\n      tag_43\n      jumpi\n      dup1\n      0x1f\n      lt\n      tag_44\n      jumpi\n      0x0100\n      dup1\n      dup4\n      sload\n      div\n      mul\n      dup4\n      mstore\n      swap2\n      0x20\n      add\n      swap2\n      jump(tag_43)\n    tag_44:\n      dup3\n      add\n      swap2\n      swap1\n      0x00\n      mstore\n      keccak256(0x00, 0x20)\n      swap1\n    tag_45:\n      dup2\n      sload\n      dup2\n      mstore\n      swap1\n      0x01\n      add\n      swap1\n      0x20\n      add\n      dup1\n      dup4\n      gt\n      tag_45\n      jumpi\n      dup3\n      swap1\n      sub\n      0x1f\n      and\n      dup3\n      add\n      swap2\n    tag_43:\n      pop\n      pop\n      pop\n      pop\n      pop\n      swap1\n      dup1\n      0x01\n      add\n      sload\n      swap1\n      dup1\n      0x02\n      add\n      0x00\n      swap1\n      sload\n      swap1\n      0x0100\n      exp\n      swap1\n      div\n      0xffffffffffffffffffffffffffffffffffffffff\n      and\n      swap1\n      pop\n      dup4\n      jump\t// out\n    tag_25:\n      mload(0x40)\n      dup1\n      0x60\n      add\n      0x40\n      mstore\n      dup1\n      0x60\n      dup2\n      mstore\n      0x20\n      add\n      0x00\n      dup2\n      mstore\n      0x20\n      add\n      and(0xffffffffffffffffffffffffffffffffffffffff, 0x00)\n      dup2\n      mstore\n      pop\n      swap1\n      jump\t// out\n        /* \"#utility.yul\":88:205   */\n    tag_47:\n        /* \"#utility.yul\":197:198   */\n      0x00\n        /* \"#utility.yul\":194:195   */\n      dup1\n        /* \"#utility.yul\":187:199   */\n      revert\n        /* \"#utility.yul\":334:460   */\n    tag_49:\n        /* \"#utility.yul\":371:378   */\n      0x00\n        /* \"#utility.yul\":411:453   */\n      0xffffffffffffffffffffffffffffffffffffffff\n        /* \"#utility.yul\":404:409   */\n      dup3\n        /* \"#utility.yul\":400:454   */\n      and\n        /* \"#utility.yul\":389:454   */\n      swap1\n      pop\n        /* \"#utility.yul\":334:460   */\n      swap2\n      swap1\n      pop\n      jump\t// out\n        /* \"#utility.yul\":466:562   */\n    tag_50:\n        /* \"#utility.yul\":503:510   */\n      0x00\n        /* \"#utility.yul\":532:556   */\n      tag_70\n        /* \"#utility.yul\":550:555   */\n      dup3\n        /* \"#utility.yul\":532:556   */\n      tag_49\n      jump\t// in\n    tag_70:\n        /* \"#utility.yul\":521:556   */\n      swap1\n      pop\n        /* \"#utility.yul\":466:562   */\n      swap2\n      swap1\n      pop\n      jump\t// out\n        /* \"#utility.yul\":568:690   */\n    tag_51:\n        /* \"#utility.yul\":641:665   */\n      tag_72\n        /* \"#utility.yul\":659:664   */\n      dup2\n        /* \"#utility.yul\":641:665   */\n      tag_50\n      jump\t// in\n    tag_72:\n        /* \"#utility.yul\":634:639   */\n      dup2\n        /* \"#utility.yul\":631:666   */\n      eq\n        /* \"#utility.yul\":621:684   */\n      tag_73\n      jumpi\n        /* \"#utility.yul\":680:681   */\n      0x00\n        /* \"#utility.yul\":677:678   */\n      dup1\n        /* \"#utility.yul\":670:682   */\n      revert\n        /* \"#utility.yul\":621:684   */\n    tag_73:\n        /* \"#utility.yul\":568:690   */\n      pop\n      jump\t// out\n        /* \"#utility.yul\":696:835   */\n    tag_52:\n        /* \"#utility.yul\":742:747   */\n      0x00\n        /* \"#utility.yul\":780:786   */\n      dup2\n        /* \"#utility.yul\":767:787   */\n      calldataload\n        /* \"#utility.yul\":758:787   */\n      swap1\n      pop\n        /* \"#utility.yul\":796:829   */\n      tag_75\n        /* \"#utility.yul\":823:828   */\n      dup2\n        /* \"#utility.yul\":796:829   */\n      tag_51\n      jump\t// in\n    tag_75:\n        /* \"#utility.yul\":696:835   */\n      swap3\n      swap2\n      pop\n      pop\n      jump\t// out\n        /* \"#utility.yul\":841:918   */\n    tag_53:\n        /* \"#utility.yul\":878:885   */\n      0x00\n        /* \"#utility.yul\":907:912   */\n      dup2\n        /* \"#utility.yul\":896:912   */\n      swap1\n      pop\n        /* \"#utility.yul\":841:918   */\n      swap2\n      swap1\n      pop\n      jump\t// out\n        /* \"#utility.yul\":924:1046   */\n    tag_54:\n        /* \"#utility.yul\":997:1021   */\n      tag_78\n        /* \"#utility.yul\":1015:1020   */\n      dup2\n        /* \"#utility.yul\":997:1021   */\n      tag_53\n      jump\t// in\n    tag_78:\n        /* \"#utility.yul\":990:995   */\n      dup2\n        /* \"#utility.yul\":987:1022   */\n      eq\n        /* \"#utility.yul\":977:1040   */\n      tag_79\n      jumpi\n        /* \"#utility.yul\":1036:1037   */\n      0x00\n        /* \"#utility.yul\":1033:1034   */\n      dup1\n        /* \"#utility.yul\":1026:1038   */\n      revert\n        /* \"#utility.yul\":977:1040   */\n    tag_79:\n        /* \"#utility.yul\":924:1046   */\n      pop\n      jump\t// out\n        /* \"#utility.yul\":1052:1191   */\n    tag_55:\n        /* \"#utility.yul\":1098:1103   */\n      0x00\n        /* \"#utility.yul\":1136:1142   */\n      dup2\n        /* \"#utility.yul\":1123:1143   */\n      calldataload\n        /* \"#utility.yul\":1114:1143   */\n      swap1\n      pop\n        /* \"#utility.yul\":1152:1185   */\n      tag_81\n        /* \"#utility.yul\":1179:1184   */\n      dup2\n        /* \"#utility.yul\":1152:1185   */\n      tag_54\n      jump\t// in\n    tag_81:\n        /* \"#utility.yul\":1052:1191   */\n      swap3\n      swap2\n      pop\n      pop\n      jump\t// out\n        /* \"#utility.yul\":1197:1671   */\n    tag_11:\n        /* \"#utility.yul\":1265:1271   */\n      0x00\n        /* \"#utility.yul\":1273:1279   */\n      dup1\n        /* \"#utility.yul\":1322:1324   */\n      0x40\n        /* \"#utility.yul\":1310:1319   */\n      dup4\n        /* \"#utility.yul\":1301:1308   */\n      dup6\n        /* \"#utility.yul\":1297:1320   */\n      sub\n        /* \"#utility.yul\":1293:1325   */\n      slt\n        /* \"#utility.yul\":1290:1409   */\n      iszero\n      tag_83\n      jumpi\n        /* \"#utility.yul\":1328:1407   */\n      tag_84\n      tag_47\n      jump\t// in\n    tag_84:\n        /* \"#utility.yul\":1290:1409   */\n    tag_83:\n        /* \"#utility.yul\":1448:1449   */\n      0x00\n        /* \"#utility.yul\":1473:1526   */\n      tag_85\n        /* \"#utility.yul\":1518:1525   */\n      dup6\n        /* \"#utility.yul\":1509:1515   */\n      dup3\n        /* \"#utility.yul\":1498:1507   */\n      dup7\n        /* \"#utility.yul\":1494:1516   */\n      add\n        /* \"#utility.yul\":1473:1526   */\n      tag_52\n      jump\t// in\n    tag_85:\n        /* \"#utility.yul\":1463:1526   */\n      swap3\n      pop\n        /* \"#utility.yul\":1419:1536   */\n      pop\n        /* \"#utility.yul\":1575:1577   */\n      0x20\n        /* \"#utility.yul\":1601:1654   */\n      tag_86\n        /* \"#utility.yul\":1646:1653   */\n      dup6\n        /* \"#utility.yul\":1637:1643   */\n      dup3\n        /* \"#utility.yul\":1626:1635   */\n      dup7\n        /* \"#utility.yul\":1622:1644   */\n      add\n        /* \"#utility.yul\":1601:1654   */\n      tag_55\n      jump\t// in\n    tag_86:\n        /* \"#utility.yul\":1591:1654   */\n      swap2\n      pop\n        /* \"#utility.yul\":1546:1664   */\n      pop\n        /* \"#utility.yul\":1197:1671   */\n      swap3\n      pop\n      swap3\n      swap1\n      pop\n      jump\t// out\n        /* \"#utility.yul\":1677:1776   */\n    tag_56:\n        /* \"#utility.yul\":1729:1735   */\n      0x00\n        /* \"#utility.yul\":1763:1768   */\n      dup2\n        /* \"#utility.yul\":1757:1769   */\n      mload\n        /* \"#utility.yul\":1747:1769   */\n      swap1\n      pop\n        /* \"#utility.yul\":1677:1776   */\n      swap2\n      swap1\n      pop\n      jump\t// out\n        /* \"#utility.yul\":1782:1951   */\n    tag_57:\n        /* \"#utility.yul\":1866:1877   */\n      0x00\n        /* \"#utility.yul\":1900:1906   */\n      dup3\n        /* \"#utility.yul\":1895:1898   */\n      dup3\n        /* \"#utility.yul\":1888:1907   */\n      mstore\n        /* \"#utility.yul\":1940:1944   */\n      0x20\n        /* \"#utility.yul\":1935:1938   */\n      dup3\n        /* \"#utility.yul\":1931:1945   */\n      add\n        /* \"#utility.yul\":1916:1945   */\n      swap1\n      pop\n        /* \"#utility.yul\":1782:1951   */\n      swap3\n      swap2\n      pop\n      pop\n      jump\t// out\n        /* \"#utility.yul\":1957:2264   */\n    tag_58:\n        /* \"#utility.yul\":2025:2026   */\n      0x00\n        /* \"#utility.yul\":2035:2148   */\n    tag_90:\n        /* \"#utility.yul\":2049:2055   */\n      dup4\n        /* \"#utility.yul\":2046:2047   */\n      dup2\n        /* \"#utility.yul\":2043:2056   */\n      lt\n        /* \"#utility.yul\":2035:2148   */\n      iszero\n      tag_92\n      jumpi\n        /* \"#utility.yul\":2134:2135   */\n      dup1\n        /* \"#utility.yul\":2129:2132   */\n      dup3\n        /* \"#utility.yul\":2125:2136   */\n      add\n        /* \"#utility.yul\":2119:2137   */\n      mload\n        /* \"#utility.yul\":2115:2116   */\n      dup2\n        /* \"#utility.yul\":2110:2113   */\n      dup5\n        /* \"#utility.yul\":2106:2117   */\n      add\n        /* \"#utility.yul\":2099:2138   */\n      mstore\n        /* \"#utility.yul\":2071:2073   */\n      0x20\n        /* \"#utility.yul\":2068:2069   */\n      dup2\n        /* \"#utility.yul\":2064:2074   */\n      add\n        /* \"#utility.yul\":2059:2074   */\n      swap1\n      pop\n        /* \"#utility.yul\":2035:2148   */\n      jump(tag_90)\n    tag_92:\n        /* \"#utility.yul\":2166:2172   */\n      dup4\n        /* \"#utility.yul\":2163:2164   */\n      dup2\n        /* \"#utility.yul\":2160:2173   */\n      gt\n        /* \"#utility.yul\":2157:2258   */\n      iszero\n      tag_93\n      jumpi\n        /* \"#utility.yul\":2246:2247   */\n      0x00\n        /* \"#utility.yul\":2237:2243   */\n      dup5\n        /* \"#utility.yul\":2232:2235   */\n      dup5\n        /* \"#utility.yul\":2228:2244   */\n      add\n        /* \"#utility.yul\":2221:2248   */\n      mstore\n        /* \"#utility.yul\":2157:2258   */\n    tag_93:\n        /* \"#utility.yul\":2006:2264   */\n      pop\n        /* \"#utility.yul\":1957:2264   */\n      pop\n      pop\n      pop\n      jump\t// out\n        /* \"#utility.yul\":2270:2372   */\n    tag_59:\n        /* \"#utility.yul\":2311:2317   */\n      0x00\n        /* \"#utility.yul\":2362:2364   */\n      0x1f\n        /* \"#utility.yul\":2358:2365   */\n      not\n        /* \"#utility.yul\":2353:2355   */\n      0x1f\n        /* \"#utility.yul\":2346:2351   */\n      dup4\n        /* \"#utility.yul\":2342:2356   */\n      add\n        /* \"#utility.yul\":2338:2366   */\n      and\n        /* \"#utility.yul\":2328:2366   */\n      swap1\n      pop\n        /* \"#utility.yul\":2270:2372   */\n      swap2\n      swap1\n      pop\n      jump\t// out\n        /* \"#utility.yul\":2378:2742   */\n    tag_60:\n        /* \"#utility.yul\":2466:2469   */\n      0x00\n        /* \"#utility.yul\":2494:2533   */\n      tag_96\n        /* \"#utility.yul\":2527:2532   */\n      dup3\n        /* \"#utility.yul\":2494:2533   */\n      tag_56\n      jump\t// in\n    tag_96:\n        /* \"#utility.yul\":2549:2620   */\n      tag_97\n        /* \"#utility.yul\":2613:2619   */\n      dup2\n        /* \"#utility.yul\":2608:2611   */\n      dup6\n        /* \"#utility.yul\":2549:2620   */\n      tag_57\n      jump\t// in\n    tag_97:\n        /* \"#utility.yul\":2542:2620   */\n      swap4\n      pop\n        /* \"#utility.yul\":2629:2681   */\n      tag_98\n        /* \"#utility.yul\":2674:2680   */\n      dup2\n        /* \"#utility.yul\":2669:2672   */\n      dup6\n        /* \"#utility.yul\":2662:2666   */\n      0x20\n        /* \"#utility.yul\":2655:2660   */\n      dup7\n        /* \"#utility.yul\":2651:2667   */\n      add\n        /* \"#utility.yul\":2629:2681   */\n      tag_58\n      jump\t// in\n    tag_98:\n        /* \"#utility.yul\":2706:2735   */\n      tag_99\n        /* \"#utility.yul\":2728:2734   */\n      dup2\n        /* \"#utility.yul\":2706:2735   */\n      tag_59\n      jump\t// in\n    tag_99:\n        /* \"#utility.yul\":2701:2704   */\n      dup5\n        /* \"#utility.yul\":2697:2736   */\n      add\n        /* \"#utility.yul\":2690:2736   */\n      swap2\n      pop\n        /* \"#utility.yul\":2470:2742   */\n      pop\n        /* \"#utility.yul\":2378:2742   */\n      swap3\n      swap2\n      pop\n      pop\n      jump\t// out\n        /* \"#utility.yul\":2748:2866   */\n    tag_61:\n        /* \"#utility.yul\":2835:2859   */\n      tag_101\n        /* \"#utility.yul\":2853:2858   */\n      dup2\n        /* \"#utility.yul\":2835:2859   */\n      tag_53\n      jump\t// in\n    tag_101:\n        /* \"#utility.yul\":2830:2833   */\n      dup3\n        /* \"#utility.yul\":2823:2860   */\n      mstore\n        /* \"#utility.yul\":2748:2866   */\n      pop\n      pop\n      jump\t// out\n        /* \"#utility.yul\":2872:2990   */\n    tag_62:\n        /* \"#utility.yul\":2959:2983   */\n      tag_103\n        /* \"#utility.yul\":2977:2982   */\n      dup2\n        /* \"#utility.yul\":2959:2983   */\n      tag_50\n      jump\t// in\n    tag_103:\n        /* \"#utility.yul\":2954:2957   */\n      dup3\n        /* \"#utility.yul\":2947:2984   */\n      mstore\n        /* \"#utility.yul\":2872:2990   */\n      pop\n      pop\n      jump\t// out\n        /* \"#utility.yul\":2996:3529   */\n    tag_14:\n        /* \"#utility.yul\":3165:3169   */\n      0x00\n        /* \"#utility.yul\":3203:3205   */\n      0x60\n        /* \"#utility.yul\":3192:3201   */\n      dup3\n        /* \"#utility.yul\":3188:3206   */\n      add\n        /* \"#utility.yul\":3180:3206   */\n      swap1\n      pop\n        /* \"#utility.yul\":3252:3261   */\n      dup2\n        /* \"#utility.yul\":3246:3250   */\n      dup2\n        /* \"#utility.yul\":3242:3262   */\n      sub\n        /* \"#utility.yul\":3238:3239   */\n      0x00\n        /* \"#utility.yul\":3227:3236   */\n      dup4\n        /* \"#utility.yul\":3223:3240   */\n      add\n        /* \"#utility.yul\":3216:3263   */\n      mstore\n        /* \"#utility.yul\":3280:3358   */\n      tag_105\n        /* \"#utility.yul\":3353:3357   */\n      dup2\n        /* \"#utility.yul\":3344:3350   */\n      dup7\n        /* \"#utility.yul\":3280:3358   */\n      tag_60\n      jump\t// in\n    tag_105:\n        /* \"#utility.yul\":3272:3358   */\n      swap1\n      pop\n        /* \"#utility.yul\":3368:3440   */\n      tag_106\n        /* \"#utility.yul\":3436:3438   */\n      0x20\n        /* \"#utility.yul\":3425:3434   */\n      dup4\n        /* \"#utility.yul\":3421:3439   */\n      add\n        /* \"#utility.yul\":3412:3418   */\n      dup6\n        /* \"#utility.yul\":3368:3440   */\n      tag_61\n      jump\t// in\n    tag_106:\n        /* \"#utility.yul\":3450:3522   */\n      tag_107\n        /* \"#utility.yul\":3518:3520   */\n      0x40\n        /* \"#utility.yul\":3507:3516   */\n      dup4\n        /* \"#utility.yul\":3503:3521   */\n      add\n        /* \"#utility.yul\":3494:3500   */\n      dup5\n        /* \"#utility.yul\":3450:3522   */\n      tag_62\n      jump\t// in\n    tag_107:\n        /* \"#utility.yul\":2996:3529   */\n      swap5\n      swap4\n      pop\n      pop\n      pop\n      pop\n      jump\t// out\n        /* \"#utility.yul\":3535:3864   */\n    tag_20:\n        /* \"#utility.yul\":3594:3600   */\n      0x00\n        /* \"#utility.yul\":3643:3645   */\n      0x20\n        /* \"#utility.yul\":3631:3640   */\n      dup3\n        /* \"#utility.yul\":3622:3629   */\n      dup5\n        /* \"#utility.yul\":3618:3641   */\n      sub\n        /* \"#utility.yul\":3614:3646   */\n      slt\n        /* \"#utility.yul\":3611:3730   */\n      iszero\n      tag_109\n      jumpi\n        /* \"#utility.yul\":3649:3728   */\n      tag_110\n      tag_47\n      jump\t// in\n    tag_110:\n        /* \"#utility.yul\":3611:3730   */\n    tag_109:\n        /* \"#utility.yul\":3769:3770   */\n      0x00\n        /* \"#utility.yul\":3794:3847   */\n      tag_111\n        /* \"#utility.yul\":3839:3846   */\n      dup5\n        /* \"#utility.yul\":3830:3836   */\n      dup3\n        /* \"#utility.yul\":3819:3828   */\n      dup6\n        /* \"#utility.yul\":3815:3837   */\n      add\n        /* \"#utility.yul\":3794:3847   */\n      tag_55\n      jump\t// in\n    tag_111:\n        /* \"#utility.yul\":3784:3847   */\n      swap2\n      pop\n        /* \"#utility.yul\":3740:3857   */\n      pop\n        /* \"#utility.yul\":3535:3864   */\n      swap3\n      swap2\n      pop\n      pop\n      jump\t// out\n        /* \"#utility.yul\":3870:4050   */\n    tag_63:\n        /* \"#utility.yul\":3918:3995   */\n      0x4e487b7100000000000000000000000000000000000000000000000000000000\n        /* \"#utility.yul\":3915:3916   */\n      0x00\n        /* \"#utility.yul\":3908:3996   */\n      mstore\n        /* \"#utility.yul\":4015:4019   */\n      0x22\n        /* \"#utility.yul\":4012:4013   */\n      0x04\n        /* \"#utility.yul\":4005:4020   */\n      mstore\n        /* \"#utility.yul\":4039:4043   */\n      0x24\n        /* \"#utility.yul\":4036:4037   */\n      0x00\n        /* \"#utility.yul\":4029:4044   */\n      revert\n        /* \"#utility.yul\":4056:4376   */\n    tag_29:\n        /* \"#utility.yul\":4100:4106   */\n      0x00\n        /* \"#utility.yul\":4137:4138   */\n      0x02\n        /* \"#utility.yul\":4131:4135   */\n      dup3\n        /* \"#utility.yul\":4127:4139   */\n      div\n        /* \"#utility.yul\":4117:4139   */\n      swap1\n      pop\n        /* \"#utility.yul\":4184:4185   */\n      0x01\n        /* \"#utility.yul\":4178:4182   */\n      dup3\n        /* \"#utility.yul\":4174:4186   */\n      and\n        /* \"#utility.yul\":4205:4223   */\n      dup1\n        /* \"#utility.yul\":4195:4276   */\n      tag_114\n      jumpi\n        /* \"#utility.yul\":4261:4265   */\n      0x7f\n        /* \"#utility.yul\":4253:4259   */\n      dup3\n        /* \"#utility.yul\":4249:4266   */\n      and\n        /* \"#utility.yul\":4239:4266   */\n      swap2\n      pop\n        /* \"#utility.yul\":4195:4276   */\n    tag_114:\n        /* \"#utility.yul\":4323:4325   */\n      0x20\n        /* \"#utility.yul\":4315:4321   */\n      dup3\n        /* \"#utility.yul\":4312:4326   */\n      lt\n        /* \"#utility.yul\":4292:4310   */\n      dup2\n        /* \"#utility.yul\":4289:4327   */\n      sub\n        /* \"#utility.yul\":4286:4370   */\n      tag_115\n      jumpi\n        /* \"#utility.yul\":4342:4360   */\n      tag_116\n      tag_63\n      jump\t// in\n    tag_116:\n        /* \"#utility.yul\":4286:4370   */\n    tag_115:\n        /* \"#utility.yul\":4107:4376   */\n      pop\n        /* \"#utility.yul\":4056:4376   */\n      swap2\n      swap1\n      pop\n      jump\t// out\n\n    auxdata: 0xa26469706673582212204d282f2f3e8af6069a1de08b4284ce645910db035d911c7160481a83d9d61e1764736f6c634300080f0033\n}\n",
				"bytecode": {
					"linkReferences": {},
					"object": "608060405234801561001057600080fd5b5061079f806100206000396000f3fe608060405234801561001057600080fd5b506004361061004c5760003560e01c8063335d00c214610051578063aa9fb6c81461005b578063ee26fac31461008d578063f7746e36146100ad575b600080fd5b6100596100df565b005b610075600480360381019061007091906105a7565b610246565b6040516100849392919061069e565b60405180910390f35b610095610335565b6040516100a49392919061069e565b60405180910390f35b6100c760048036038101906100c291906106dc565b6103f5565b6040516100d69392919061069e565b60405180910390f35b600060405180606001604052806040518060400160405280600681526020017f546f796f7461000000000000000000000000000000000000000000000000000081525081526020016107c681526020013373ffffffffffffffffffffffffffffffffffffffff168152509050600060405180606001604052806040518060400160405280600b81526020017f4c616d626f726768696e6900000000000000000000000000000000000000000081525081526020016107bc81526020013373ffffffffffffffffffffffffffffffffffffffff1681525090506101bf6104d7565b6040518060400160405280600581526020017f5465736c6100000000000000000000000000000000000000000000000000000081525081600001819052506107da81602001818152505033816040019073ffffffffffffffffffffffffffffffffffffffff16908173ffffffffffffffffffffffffffffffffffffffff1681525050505050565b6004602052816000526040600020818154811061026257600080fd5b90600052602060002090600302016000915091505080600001805461028690610738565b80601f01602080910402602001604051908101604052809291908181526020018280546102b290610738565b80156102ff5780601f106102d4576101008083540402835291602001916102ff565b820191906000526020600020905b8154815290600101906020018083116102e257829003601f168201915b5050505050908060010154908060020160009054906101000a900473ffffffffffffffffffffffffffffffffffffffff16905083565b600080600001805461034690610738565b80601f016020809104026020016040519081016040528092919081815260200182805461037290610738565b80156103bf5780601f10610394576101008083540402835291602001916103bf565b820191906000526020600020905b8154815290600101906020018083116103a257829003601f168201915b5050505050908060010154908060020160009054906101000a900473ffffffffffffffffffffffffffffffffffffffff16905083565b6003818154811061040557600080fd5b906000526020600020906003020160009150905080600001805461042890610738565b80601f016020809104026020016040519081016040528092919081815260200182805461045490610738565b80156104a15780601f10610476576101008083540402835291602001916104a1565b820191906000526020600020905b81548152906001019060200180831161048457829003601f168201915b5050505050908060010154908060020160009054906101000a900473ffffffffffffffffffffffffffffffffffffffff16905083565b60405180606001604052806060815260200160008152602001600073ffffffffffffffffffffffffffffffffffffffff1681525090565b600080fd5b600073ffffffffffffffffffffffffffffffffffffffff82169050919050565b600061053e82610513565b9050919050565b61054e81610533565b811461055957600080fd5b50565b60008135905061056b81610545565b92915050565b6000819050919050565b61058481610571565b811461058f57600080fd5b50565b6000813590506105a18161057b565b92915050565b600080604083850312156105be576105bd61050e565b5b60006105cc8582860161055c565b92505060206105dd85828601610592565b9150509250929050565b600081519050919050565b600082825260208201905092915050565b60005b83811015610621578082015181840152602081019050610606565b83811115610630576000848401525b50505050565b6000601f19601f8301169050919050565b6000610652826105e7565b61065c81856105f2565b935061066c818560208601610603565b61067581610636565b840191505092915050565b61068981610571565b82525050565b61069881610533565b82525050565b600060608201905081810360008301526106b88186610647565b90506106c76020830185610680565b6106d4604083018461068f565b949350505050565b6000602082840312156106f2576106f161050e565b5b600061070084828501610592565b91505092915050565b7f4e487b7100000000000000000000000000000000000000000000000000000000600052602260045260246000fd5b6000600282049050600182168061075057607f821691505b60208210810361076357610762610709565b5b5091905056fea26469706673582212204d282f2f3e8af6069a1de08b4284ce645910db035d911c7160481a83d9d61e1764736f6c634300080f0033",
					"opcodes": "PUSH1 0x80 PUSH1 0x40 MSTORE CALLVALUE DUP1 ISZERO PUSH2 0x10 JUMPI PUSH1 0x0 DUP1 REVERT JUMPDEST POP PUSH2 0x79F DUP1 PUSH2 0x20 PUSH1 0x0 CODECOPY PUSH1 0x0 RETURN INVALID PUSH1 0x80 PUSH1 0x40 MSTORE CALLVALUE DUP1 ISZERO PUSH2 0x10 JUMPI PUSH1 0x0 DUP1 REVERT JUMPDEST POP PUSH1 0x4 CALLDATASIZE LT PUSH2 0x4C JUMPI PUSH1 0x0 CALLDATALOAD PUSH1 0xE0 SHR DUP1 PUSH4 0x335D00C2 EQ PUSH2 0x51 JUMPI DUP1 PUSH4 0xAA9FB6C8 EQ PUSH2 0x5B JUMPI DUP1 PUSH4 0xEE26FAC3 EQ PUSH2 0x8D JUMPI DUP1 PUSH4 0xF7746E36 EQ PUSH2 0xAD JUMPI JUMPDEST PUSH1 0x0 DUP1 REVERT JUMPDEST PUSH2 0x59 PUSH2 0xDF JUMP JUMPDEST STOP JUMPDEST PUSH2 0x75 PUSH1 0x4 DUP1 CALLDATASIZE SUB DUP2 ADD SWAP1 PUSH2 0x70 SWAP2 SWAP1 PUSH2 0x5A7 JUMP JUMPDEST PUSH2 0x246 JUMP JUMPDEST PUSH1 0x40 MLOAD PUSH2 0x84 SWAP4 SWAP3 SWAP2 SWAP1 PUSH2 0x69E JUMP JUMPDEST PUSH1 0x40 MLOAD DUP1 SWAP2 SUB SWAP1 RETURN JUMPDEST PUSH2 0x95 PUSH2 0x335 JUMP JUMPDEST PUSH1 0x40 MLOAD PUSH2 0xA4 SWAP4 SWAP3 SWAP2 SWAP1 PUSH2 0x69E JUMP JUMPDEST PUSH1 0x40 MLOAD DUP1 SWAP2 SUB SWAP1 RETURN JUMPDEST PUSH2 0xC7 PUSH1 0x4 DUP1 CALLDATASIZE SUB DUP2 ADD SWAP1 PUSH2 0xC2 SWAP2 SWAP1 PUSH2 0x6DC JUMP JUMPDEST PUSH2 0x3F5 JUMP JUMPDEST PUSH1 0x40 MLOAD PUSH2 0xD6 SWAP4 SWAP3 SWAP2 SWAP1 PUSH2 0x69E JUMP JUMPDEST PUSH1 0x40 MLOAD DUP1 SWAP2 SUB SWAP1 RETURN JUMPDEST PUSH1 0x0 PUSH1 0x40 MLOAD DUP1 PUSH1 0x60 ADD PUSH1 0x40 MSTORE DUP1 PUSH1 0x40 MLOAD DUP1 PUSH1 0x40 ADD PUSH1 0x40 MSTORE DUP1 PUSH1 0x6 DUP2 MSTORE PUSH1 0x20 ADD PUSH32 0x546F796F74610000000000000000000000000000000000000000000000000000 DUP2 MSTORE POP DUP2 MSTORE PUSH1 0x20 ADD PUSH2 0x7C6 DUP2 MSTORE PUSH1 0x20 ADD CALLER PUSH20 0xFFFFFFFFFFFFFFFFFFFFFFFFFFFFFFFFFFFFFFFF AND DUP2 MSTORE POP SWAP1 POP PUSH1 0x0 PUSH1 0x40 MLOAD DUP1 PUSH1 0x60 ADD PUSH1 0x40 MSTORE DUP1 PUSH1 0x40 MLOAD DUP1 PUSH1 0x40 ADD PUSH1 0x40 MSTORE DUP1 PUSH1 0xB DUP2 MSTORE PUSH1 0x20 ADD PUSH32 0x4C616D626F726768696E69000000000000000000000000000000000000000000 DUP2 MSTORE POP DUP2 MSTORE PUSH1 0x20 ADD PUSH2 0x7BC DUP2 MSTORE PUSH1 0x20 ADD CALLER PUSH20 0xFFFFFFFFFFFFFFFFFFFFFFFFFFFFFFFFFFFFFFFF AND DUP2 MSTORE POP SWAP1 POP PUSH2 0x1BF PUSH2 0x4D7 JUMP JUMPDEST PUSH1 0x40 MLOAD DUP1 PUSH1 0x40 ADD PUSH1 0x40 MSTORE DUP1 PUSH1 0x5 DUP2 MSTORE PUSH1 0x20 ADD PUSH32 0x5465736C61000000000000000000000000000000000000000000000000000000 DUP2 MSTORE POP DUP2 PUSH1 0x0 ADD DUP2 SWAP1 MSTORE POP PUSH2 0x7DA DUP2 PUSH1 0x20 ADD DUP2 DUP2 MSTORE POP POP CALLER DUP2 PUSH1 0x40 ADD SWAP1 PUSH20 0xFFFFFFFFFFFFFFFFFFFFFFFFFFFFFFFFFFFFFFFF AND SWAP1 DUP2 PUSH20 0xFFFFFFFFFFFFFFFFFFFFFFFFFFFFFFFFFFFFFFFF AND DUP2 MSTORE POP POP POP POP POP JUMP JUMPDEST PUSH1 0x4 PUSH1 0x20 MSTORE DUP2 PUSH1 0x0 MSTORE PUSH1 0x40 PUSH1 0x0 KECCAK256 DUP2 DUP2 SLOAD DUP2 LT PUSH2 0x262 JUMPI PUSH1 0x0 DUP1 REVERT JUMPDEST SWAP1 PUSH1 0x0 MSTORE PUSH1 0x20 PUSH1 0x0 KECCAK256 SWAP1 PUSH1 0x3 MUL ADD PUSH1 0x0 SWAP2 POP SWAP2 POP POP DUP1 PUSH1 0x0 ADD DUP1 SLOAD PUSH2 0x286 SWAP1 PUSH2 0x738 JUMP JUMPDEST DUP1 PUSH1 0x1F ADD PUSH1 0x20 DUP1 SWAP2 DIV MUL PUSH1 0x20 ADD PUSH1 0x40 MLOAD SWAP1 DUP2 ADD PUSH1 0x40 MSTORE DUP1 SWAP3 SWAP2 SWAP1 DUP2 DUP2 MSTORE PUSH1 0x20 ADD DUP3 DUP1 SLOAD PUSH2 0x2B2 SWAP1 PUSH2 0x738 JUMP JUMPDEST DUP1 ISZERO PUSH2 0x2FF JUMPI DUP1 PUSH1 0x1F LT PUSH2 0x2D4 JUMPI PUSH2 0x100 DUP1 DUP4 SLOAD DIV MUL DUP4 MSTORE SWAP2 PUSH1 0x20 ADD SWAP2 PUSH2 0x2FF JUMP JUMPDEST DUP3 ADD SWAP2 SWAP1 PUSH1 0x0 MSTORE PUSH1 0x20 PUSH1 0x0 KECCAK256 SWAP1 JUMPDEST DUP2 SLOAD DUP2 MSTORE SWAP1 PUSH1 0x1 ADD SWAP1 PUSH1 0x20 ADD DUP1 DUP4 GT PUSH2 0x2E2 JUMPI DUP3 SWAP1 SUB PUSH1 0x1F AND DUP3 ADD SWAP2 JUMPDEST POP POP POP POP POP SWAP1 DUP1 PUSH1 0x1 ADD SLOAD SWAP1 DUP1 PUSH1 0x2 ADD PUSH1 0x0 SWAP1 SLOAD SWAP1 PUSH2 0x100 EXP SWAP1 DIV PUSH20 0xFFFFFFFFFFFFFFFFFFFFFFFFFFFFFFFFFFFFFFFF AND SWAP1 POP DUP4 JUMP JUMPDEST PUSH1 0x0 DUP1 PUSH1 0x0 ADD DUP1 SLOAD PUSH2 0x346 SWAP1 PUSH2 0x738 JUMP JUMPDEST DUP1 PUSH1 0x1F ADD PUSH1 0x20 DUP1 SWAP2 DIV MUL PUSH1 0x20 ADD PUSH1 0x40 MLOAD SWAP1 DUP2 ADD PUSH1 0x40 MSTORE DUP1 SWAP3 SWAP2 SWAP1 DUP2 DUP2 MSTORE PUSH1 0x20 ADD DUP3 DUP1 SLOAD PUSH2 0x372 SWAP1 PUSH2 0x738 JUMP JUMPDEST DUP1 ISZERO PUSH2 0x3BF JUMPI DUP1 PUSH1 0x1F LT PUSH2 0x394 JUMPI PUSH2 0x100 DUP1 DUP4 SLOAD DIV MUL DUP4 MSTORE SWAP2 PUSH1 0x20 ADD SWAP2 PUSH2 0x3BF JUMP JUMPDEST DUP3 ADD SWAP2 SWAP1 PUSH1 0x0 MSTORE PUSH1 0x20 PUSH1 0x0 KECCAK256 SWAP1 JUMPDEST DUP2 SLOAD DUP2 MSTORE SWAP1 PUSH1 0x1 ADD SWAP1 PUSH1 0x20 ADD DUP1 DUP4 GT PUSH2 0x3A2 JUMPI DUP3 SWAP1 SUB PUSH1 0x1F AND DUP3 ADD SWAP2 JUMPDEST POP POP POP POP POP SWAP1 DUP1 PUSH1 0x1 ADD SLOAD SWAP1 DUP1 PUSH1 0x2 ADD PUSH1 0x0 SWAP1 SLOAD SWAP1 PUSH2 0x100 EXP SWAP1 DIV PUSH20 0xFFFFFFFFFFFFFFFFFFFFFFFFFFFFFFFFFFFFFFFF AND SWAP1 POP DUP4 JUMP JUMPDEST PUSH1 0x3 DUP2 DUP2 SLOAD DUP2 LT PUSH2 0x405 JUMPI PUSH1 0x0 DUP1 REVERT JUMPDEST SWAP1 PUSH1 0x0 MSTORE PUSH1 0x20 PUSH1 0x0 KECCAK256 SWAP1 PUSH1 0x3 MUL ADD PUSH1 0x0 SWAP2 POP SWAP1 POP DUP1 PUSH1 0x0 ADD DUP1 SLOAD PUSH2 0x428 SWAP1 PUSH2 0x738 JUMP JUMPDEST DUP1 PUSH1 0x1F ADD PUSH1 0x20 DUP1 SWAP2 DIV MUL PUSH1 0x20 ADD PUSH1 0x40 MLOAD SWAP1 DUP2 ADD PUSH1 0x40 MSTORE DUP1 SWAP3 SWAP2 SWAP1 DUP2 DUP2 MSTORE PUSH1 0x20 ADD DUP3 DUP1 SLOAD PUSH2 0x454 SWAP1 PUSH2 0x738 JUMP JUMPDEST DUP1 ISZERO PUSH2 0x4A1 JUMPI DUP1 PUSH1 0x1F LT PUSH2 0x476 JUMPI PUSH2 0x100 DUP1 DUP4 SLOAD DIV MUL DUP4 MSTORE SWAP2 PUSH1 0x20 ADD SWAP2 PUSH2 0x4A1 JUMP JUMPDEST DUP3 ADD SWAP2 SWAP1 PUSH1 0x0 MSTORE PUSH1 0x20 PUSH1 0x0 KECCAK256 SWAP1 JUMPDEST DUP2 SLOAD DUP2 MSTORE SWAP1 PUSH1 0x1 ADD SWAP1 PUSH1 0x20 ADD DUP1 DUP4 GT PUSH2 0x484 JUMPI DUP3 SWAP1 SUB PUSH1 0x1F AND DUP3 ADD SWAP2 JUMPDEST POP POP POP POP POP SWAP1 DUP1 PUSH1 0x1 ADD SLOAD SWAP1 DUP1 PUSH1 0x2 ADD PUSH1 0x0 SWAP1 SLOAD SWAP1 PUSH2 0x100 EXP SWAP1 DIV PUSH20 0xFFFFFFFFFFFFFFFFFFFFFFFFFFFFFFFFFFFFFFFF AND SWAP1 POP DUP4 JUMP JUMPDEST PUSH1 0x40 MLOAD DUP1 PUSH1 0x60 ADD PUSH1 0x40 MSTORE DUP1 PUSH1 0x60 DUP2 MSTORE PUSH1 0x20 ADD PUSH1 0x0 DUP2 MSTORE PUSH1 0x20 ADD PUSH1 0x0 PUSH20 0xFFFFFFFFFFFFFFFFFFFFFFFFFFFFFFFFFFFFFFFF AND DUP2 MSTORE POP SWAP1 JUMP JUMPDEST PUSH1 0x0 DUP1 REVERT JUMPDEST PUSH1 0x0 PUSH20 0xFFFFFFFFFFFFFFFFFFFFFFFFFFFFFFFFFFFFFFFF DUP3 AND SWAP1 POP SWAP2 SWAP1 POP JUMP JUMPDEST PUSH1 0x0 PUSH2 0x53E DUP3 PUSH2 0x513 JUMP JUMPDEST SWAP1 POP SWAP2 SWAP1 POP JUMP JUMPDEST PUSH2 0x54E DUP2 PUSH2 0x533 JUMP JUMPDEST DUP2 EQ PUSH2 0x559 JUMPI PUSH1 0x0 DUP1 REVERT JUMPDEST POP JUMP JUMPDEST PUSH1 0x0 DUP2 CALLDATALOAD SWAP1 POP PUSH2 0x56B DUP2 PUSH2 0x545 JUMP JUMPDEST SWAP3 SWAP2 POP POP JUMP JUMPDEST PUSH1 0x0 DUP2 SWAP1 POP SWAP2 SWAP1 POP JUMP JUMPDEST PUSH2 0x584 DUP2 PUSH2 0x571 JUMP JUMPDEST DUP2 EQ PUSH2 0x58F JUMPI PUSH1 0x0 DUP1 REVERT JUMPDEST POP JUMP JUMPDEST PUSH1 0x0 DUP2 CALLDATALOAD SWAP1 POP PUSH2 0x5A1 DUP2 PUSH2 0x57B JUMP JUMPDEST SWAP3 SWAP2 POP POP JUMP JUMPDEST PUSH1 0x0 DUP1 PUSH1 0x40 DUP4 DUP6 SUB SLT ISZERO PUSH2 0x5BE JUMPI PUSH2 0x5BD PUSH2 0x50E JUMP JUMPDEST JUMPDEST PUSH1 0x0 PUSH2 0x5CC DUP6 DUP3 DUP7 ADD PUSH2 0x55C JUMP JUMPDEST SWAP3 POP POP PUSH1 0x20 PUSH2 0x5DD DUP6 DUP3 DUP7 ADD PUSH2 0x592 JUMP JUMPDEST SWAP2 POP POP SWAP3 POP SWAP3 SWAP1 POP JUMP JUMPDEST PUSH1 0x0 DUP2 MLOAD SWAP1 POP SWAP2 SWAP1 POP JUMP JUMPDEST PUSH1 0x0 DUP3 DUP3 MSTORE PUSH1 0x20 DUP3 ADD SWAP1 POP SWAP3 SWAP2 POP POP JUMP JUMPDEST PUSH1 0x0 JUMPDEST DUP4 DUP2 LT ISZERO PUSH2 0x621 JUMPI DUP1 DUP3 ADD MLOAD DUP2 DUP5 ADD MSTORE PUSH1 0x20 DUP2 ADD SWAP1 POP PUSH2 0x606 JUMP JUMPDEST DUP4 DUP2 GT ISZERO PUSH2 0x630 JUMPI PUSH1 0x0 DUP5 DUP5 ADD MSTORE JUMPDEST POP POP POP POP JUMP JUMPDEST PUSH1 0x0 PUSH1 0x1F NOT PUSH1 0x1F DUP4 ADD AND SWAP1 POP SWAP2 SWAP1 POP JUMP JUMPDEST PUSH1 0x0 PUSH2 0x652 DUP3 PUSH2 0x5E7 JUMP JUMPDEST PUSH2 0x65C DUP2 DUP6 PUSH2 0x5F2 JUMP JUMPDEST SWAP4 POP PUSH2 0x66C DUP2 DUP6 PUSH1 0x20 DUP7 ADD PUSH2 0x603 JUMP JUMPDEST PUSH2 0x675 DUP2 PUSH2 0x636 JUMP JUMPDEST DUP5 ADD SWAP2 POP POP SWAP3 SWAP2 POP POP JUMP JUMPDEST PUSH2 0x689 DUP2 PUSH2 0x571 JUMP JUMPDEST DUP3 MSTORE POP POP JUMP JUMPDEST PUSH2 0x698 DUP2 PUSH2 0x533 JUMP JUMPDEST DUP3 MSTORE POP POP JUMP JUMPDEST PUSH1 0x0 PUSH1 0x60 DUP3 ADD SWAP1 POP DUP2 DUP2 SUB PUSH1 0x0 DUP4 ADD MSTORE PUSH2 0x6B8 DUP2 DUP7 PUSH2 0x647 JUMP JUMPDEST SWAP1 POP PUSH2 0x6C7 PUSH1 0x20 DUP4 ADD DUP6 PUSH2 0x680 JUMP JUMPDEST PUSH2 0x6D4 PUSH1 0x40 DUP4 ADD DUP5 PUSH2 0x68F JUMP JUMPDEST SWAP5 SWAP4 POP POP POP POP JUMP JUMPDEST PUSH1 0x0 PUSH1 0x20 DUP3 DUP5 SUB SLT ISZERO PUSH2 0x6F2 JUMPI PUSH2 0x6F1 PUSH2 0x50E JUMP JUMPDEST JUMPDEST PUSH1 0x0 PUSH2 0x700 DUP5 DUP3 DUP6 ADD PUSH2 0x592 JUMP JUMPDEST SWAP2 POP POP SWAP3 SWAP2 POP POP JUMP JUMPDEST PUSH32 0x4E487B7100000000000000000000000000000000000000000000000000000000 PUSH1 0x0 MSTORE PUSH1 0x22 PUSH1 0x4 MSTORE PUSH1 0x24 PUSH1 0x0 REVERT JUMPDEST PUSH1 0x0 PUSH1 0x2 DUP3 DIV SWAP1 POP PUSH1 0x1 DUP3 AND DUP1 PUSH2 0x750 JUMPI PUSH1 0x7F DUP3 AND SWAP2 POP JUMPDEST PUSH1 0x20 DUP3 LT DUP2 SUB PUSH2 0x763 JUMPI PUSH2 0x762 PUSH2 0x709 JUMP JUMPDEST JUMPDEST POP SWAP2 SWAP1 POP JUMP INVALID LOG2 PUSH5 0x6970667358 0x22 SLT KECCAK256 0x4D 0x28 0x2F 0x2F RETURNDATACOPY DUP11 0xF6 MOD SWAP11 SAR 0xE0 DUP12 TIMESTAMP DUP5 0xCE PUSH5 0x5910DB035D SWAP2 SHR PUSH18 0x60481A83D9D61E1764736F6C634300080F00 CALLER "
				},
				"gasEstimates": {
					"creation": {
						"codeDepositCost": "390200",
						"executionCost": "424",
						"totalCost": "390624"
					},
					"external": {
						"car()": "infinite",
						"cars(uint256)": "infinite",
						"carsByOwner(address,uint256)": "infinite",
						"examples()": "661"
					}
				},
				"methodIdentifiers": {
					"car()": "ee26fac3",
					"cars(uint256)": "f7746e36",
					"carsByOwner(address,uint256)": "aa9fb6c8",
					"examples()": "335d00c2"
				}
			},
			"storageLayout": {
				"storage": [
					{
						"astId": 11,
						"contract": "HelloWorld/23Structs.sol:Structs",
						"label": "car",
						"offset": 0,
						"slot": "0",
						"type": "t_struct(Car)8_storage"
					},
					{
						"astId": 15,
						"contract": "HelloWorld/23Structs.sol:Structs",
						"label": "cars",
						"offset": 0,
						"slot": "3",
						"type": "t_array(t_struct(Car)8_storage)dyn_storage"
					},
					{
						"astId": 21,
						"contract": "HelloWorld/23Structs.sol:Structs",
						"label": "carsByOwner",
						"offset": 0,
						"slot": "4",
						"type": "t_mapping(t_address,t_array(t_struct(Car)8_storage)dyn_storage)"
					}
				],
				"types": {
					"t_address": {
						"encoding": "inplace",
						"label": "address",
						"numberOfBytes": "20"
					},
					"t_array(t_struct(Car)8_storage)dyn_storage": {
						"base": "t_struct(Car)8_storage",
						"encoding": "dynamic_array",
						"label": "struct Structs.Car[]",
						"numberOfBytes": "32"
					},
					"t_mapping(t_address,t_array(t_struct(Car)8_storage)dyn_storage)": {
						"encoding": "mapping",
						"key": "t_address",
						"label": "mapping(address => struct Structs.Car[])",
						"numberOfBytes": "32",
						"value": "t_array(t_struct(Car)8_storage)dyn_storage"
					},
					"t_string_storage": {
						"encoding": "bytes",
						"label": "string",
						"numberOfBytes": "32"
					},
					"t_struct(Car)8_storage": {
						"encoding": "inplace",
						"label": "struct Structs.Car",
						"members": [
							{
								"astId": 3,
								"contract": "HelloWorld/23Structs.sol:Structs",
								"label": "model",
								"offset": 0,
								"slot": "0",
								"type": "t_string_storage"
							},
							{
								"astId": 5,
								"contract": "HelloWorld/23Structs.sol:Structs",
								"label": "year",
								"offset": 0,
								"slot": "1",
								"type": "t_uint256"
							},
							{
								"astId": 7,
								"contract": "HelloWorld/23Structs.sol:Structs",
								"label": "owner",
								"offset": 0,
								"slot": "2",
								"type": "t_address"
							}
						],
						"numberOfBytes": "96"
					},
					"t_uint256": {
						"encoding": "inplace",
						"label": "uint256",
						"numberOfBytes": "32"
					}
				}
			},
			"userdoc": {
				"kind": "user",
				"methods": {},
				"version": 1
			}
		}
	}
}