{
	"contracts/TwoArray.sol": {
		"TwoArray": {
			"abi": [
				{
					"inputs": [],
					"name": "add",
					"outputs": [
						{
							"internalType": "uint256",
							"name": "",
							"type": "uint256"
						}
					],
					"stateMutability": "view",
					"type": "function"
				},
				{
					"inputs": [],
					"name": "getContent",
					"outputs": [
						{
							"internalType": "uint256[2][3]",
							"name": "",
							"type": "uint256[2][3]"
						}
					],
					"stateMutability": "view",
					"type": "function"
				},
				{
					"inputs": [],
					"name": "getOneLength",
					"outputs": [
						{
							"internalType": "uint256",
							"name": "",
							"type": "uint256"
						}
					],
					"stateMutability": "view",
					"type": "function"
				},
				{
					"inputs": [],
					"name": "getTwoLength",
					"outputs": [
						{
							"internalType": "uint256",
							"name": "",
							"type": "uint256"
						}
					],
					"stateMutability": "view",
					"type": "function"
				}
			],
			"devdoc": {
				"kind": "dev",
				"methods": {},
				"version": 1
			},
			"evm": {
				"assembly": "    /* \"contracts/TwoArray.sol\":56:638  contract TwoArray {... */\n  mstore(0x40, 0x80)\n    /* \"contracts/TwoArray.sol\":80:118  uint[2][3] grade = [[1,2],[3,4],[5,6]] */\n  mload(0x40)\n  dup1\n  0x60\n  add\n  0x40\n  mstore\n  dup1\n  mload(0x40)\n  dup1\n  0x40\n  add\n  0x40\n  mstore\n  dup1\n    /* \"contracts/TwoArray.sol\":101:102  1 */\n  0x01\n    /* \"contracts/TwoArray.sol\":80:118  uint[2][3] grade = [[1,2],[3,4],[5,6]] */\n  0xff\n  and\n  dup2\n  mstore\n  0x20\n  add\n    /* \"contracts/TwoArray.sol\":103:104  2 */\n  0x02\n    /* \"contracts/TwoArray.sol\":80:118  uint[2][3] grade = [[1,2],[3,4],[5,6]] */\n  0xff\n  and\n  dup2\n  mstore\n  pop\n  dup2\n  mstore\n  0x20\n  add\n  mload(0x40)\n  dup1\n  0x40\n  add\n  0x40\n  mstore\n  dup1\n    /* \"contracts/TwoArray.sol\":107:108  3 */\n  0x03\n    /* \"contracts/TwoArray.sol\":80:118  uint[2][3] grade = [[1,2],[3,4],[5,6]] */\n  0xff\n  and\n  dup2\n  mstore\n  0x20\n  add\n    /* \"contracts/TwoArray.sol\":109:110  4 */\n  0x04\n    /* \"contracts/TwoArray.sol\":80:118  uint[2][3] grade = [[1,2],[3,4],[5,6]] */\n  0xff\n  and\n  dup2\n  mstore\n  pop\n  dup2\n  mstore\n  0x20\n  add\n  mload(0x40)\n  dup1\n  0x40\n  add\n  0x40\n  mstore\n  dup1\n    /* \"contracts/TwoArray.sol\":113:114  5 */\n  0x05\n    /* \"contracts/TwoArray.sol\":80:118  uint[2][3] grade = [[1,2],[3,4],[5,6]] */\n  0xff\n  and\n  dup2\n  mstore\n  0x20\n  add\n    /* \"contracts/TwoArray.sol\":115:116  6 */\n  0x06\n    /* \"contracts/TwoArray.sol\":80:118  uint[2][3] grade = [[1,2],[3,4],[5,6]] */\n  0xff\n  and\n  dup2\n  mstore\n  pop\n  dup2\n  mstore\n  pop\n  0x00\n  swap1\n  0x03\n  tag_1\n  swap3\n  swap2\n  swap1\n  tag_2\n  jump\t// in\ntag_1:\n  pop\n    /* \"contracts/TwoArray.sol\":56:638  contract TwoArray {... */\n  callvalue\n  dup1\n  iszero\n  tag_3\n  jumpi\n  0x00\n  dup1\n  revert\ntag_3:\n  pop\n  jump(tag_4)\ntag_2:\n  dup3\n  mul(0x02, 0x03)\n  dup2\n  add\n  swap3\n  dup3\n  iszero\n  tag_5\n  jumpi\n  swap2\n  0x20\n  mul\n  dup3\n  add\ntag_6:\n  dup3\n  dup2\n  gt\n  iszero\n  tag_7\n  jumpi\n  dup3\n  mload\n  dup3\n  swap1\n  0x02\n  tag_8\n  swap3\n  swap2\n  swap1\n  tag_9\n  jump\t// in\ntag_8:\n  pop\n  swap2\n  0x20\n  add\n  swap2\n  swap1\n  0x02\n  add\n  swap1\n  jump(tag_6)\ntag_7:\ntag_5:\n  pop\n  swap1\n  pop\n  tag_10\n  swap2\n  swap1\n  tag_11\n  jump\t// in\ntag_10:\n  pop\n  swap1\n  jump\t// out\ntag_9:\n  dup3\n  0x02\n  dup2\n  add\n  swap3\n  dup3\n  iszero\n  tag_12\n  jumpi\n  swap2\n  0x20\n  mul\n  dup3\n  add\ntag_13:\n  dup3\n  dup2\n  gt\n  iszero\n  tag_14\n  jumpi\n  dup3\n  mload\n  dup3\n  swap1\n  0xff\n  and\n  swap1\n  sstore\n  swap2\n  0x20\n  add\n  swap2\n  swap1\n  0x01\n  add\n  swap1\n  jump(tag_13)\ntag_14:\ntag_12:\n  pop\n  swap1\n  pop\n  tag_15\n  swap2\n  swap1\n  tag_16\n  jump\t// in\ntag_15:\n  pop\n  swap1\n  jump\t// out\ntag_11:\ntag_17:\n  dup1\n  dup3\n  gt\n  iszero\n  tag_18\n  jumpi\n  0x00\n  dup2\n  dup2\n  tag_19\n  swap2\n  swap1\n  tag_20\n  jump\t// in\ntag_19:\n  pop\n  0x02\n  add\n  jump(tag_17)\ntag_18:\n  pop\n  swap1\n  jump\t// out\ntag_16:\ntag_21:\n  dup1\n  dup3\n  gt\n  iszero\n  tag_22\n  jumpi\n  0x00\n  dup2\n  0x00\n  swap1\n  sstore\n  pop\n  0x01\n  add\n  jump(tag_21)\ntag_22:\n  pop\n  swap1\n  jump\t// out\ntag_20:\n  pop\n  0x00\n  dup2\n  sstore\n  0x01\n  add\n  0x00\n  swap1\n  sstore\n  jump\t// out\ntag_4:\n  dataSize(sub_0)\n  dup1\n  dataOffset(sub_0)\n  0x00\n  codecopy\n  0x00\n  return\nstop\n\nsub_0: assembly {\n        /* \"contracts/TwoArray.sol\":56:638  contract TwoArray {... */\n      mstore(0x40, 0x80)\n      callvalue\n      dup1\n      iszero\n      tag_1\n      jumpi\n      0x00\n      dup1\n      revert\n    tag_1:\n      pop\n      jumpi(tag_2, lt(calldatasize, 0x04))\n      shr(0xe0, calldataload(0x00))\n      dup1\n      0x4f2be91f\n      eq\n      tag_3\n      jumpi\n      dup1\n      0x59016c79\n      eq\n      tag_4\n      jumpi\n      dup1\n      0x63f5a649\n      eq\n      tag_5\n      jumpi\n      dup1\n      0xa6f89f0e\n      eq\n      tag_6\n      jumpi\n    tag_2:\n      0x00\n      dup1\n      revert\n        /* \"contracts/TwoArray.sol\":412:628  function add() public view returns(uint) {... */\n    tag_3:\n      tag_7\n      tag_8\n      jump\t// in\n    tag_7:\n      mload(0x40)\n      tag_9\n      swap2\n      swap1\n      tag_10\n      jump\t// in\n    tag_9:\n      mload(0x40)\n      dup1\n      swap2\n      sub\n      swap1\n      return\n        /* \"contracts/TwoArray.sol\":316:406  function getContent() public view returns(uint[2][3] memory) {... */\n    tag_4:\n      tag_11\n      tag_12\n      jump\t// in\n    tag_11:\n      mload(0x40)\n      tag_13\n      swap2\n      swap1\n      tag_14\n      jump\t// in\n    tag_13:\n      mload(0x40)\n      dup1\n      swap2\n      sub\n      swap1\n      return\n        /* \"contracts/TwoArray.sol\":221:310  function getTwoLength() public view returns(uint) {... */\n    tag_5:\n      tag_15\n      tag_16\n      jump\t// in\n    tag_15:\n      mload(0x40)\n      tag_17\n      swap2\n      swap1\n      tag_10\n      jump\t// in\n    tag_17:\n      mload(0x40)\n      dup1\n      swap2\n      sub\n      swap1\n      return\n        /* \"contracts/TwoArray.sol\":129:215  function getOneLength() public view returns(uint) {... */\n    tag_6:\n      tag_18\n      tag_19\n      jump\t// in\n    tag_18:\n      mload(0x40)\n      tag_20\n      swap2\n      swap1\n      tag_10\n      jump\t// in\n    tag_20:\n      mload(0x40)\n      dup1\n      swap2\n      sub\n      swap1\n      return\n        /* \"contracts/TwoArray.sol\":412:628  function add() public view returns(uint) {... */\n    tag_8:\n        /* \"contracts/TwoArray.sol\":447:451  uint */\n      0x00\n        /* \"contracts/TwoArray.sol\":463:471  uint sum */\n      dup1\n        /* \"contracts/TwoArray.sol\":474:475  0 */\n      0x00\n        /* \"contracts/TwoArray.sol\":463:475  uint sum = 0 */\n      swap1\n      pop\n        /* \"contracts/TwoArray.sol\":489:495  uint i */\n      0x00\n        /* \"contracts/TwoArray.sol\":485:622  for(uint i = 0; i < grade.length; i++) {... */\n    tag_22:\n        /* \"contracts/TwoArray.sol\":505:517  grade.length */\n      0x03\n        /* \"contracts/TwoArray.sol\":501:502  i */\n      dup2\n        /* \"contracts/TwoArray.sol\":501:517  i < grade.length */\n      lt\n        /* \"contracts/TwoArray.sol\":485:622  for(uint i = 0; i < grade.length; i++) {... */\n      iszero\n      tag_23\n      jumpi\n        /* \"contracts/TwoArray.sol\":542:548  uint j */\n      0x00\n        /* \"contracts/TwoArray.sol\":538:612  for(uint j = 0; j < grade[0].length; j++) {... */\n    tag_25:\n        /* \"contracts/TwoArray.sol\":558:563  grade */\n      0x00\n        /* \"contracts/TwoArray.sol\":564:565  0 */\n      dup1\n        /* \"contracts/TwoArray.sol\":558:566  grade[0] */\n      0x03\n      dup2\n      lt\n      tag_28\n      jumpi\n      tag_29\n      tag_30\n      jump\t// in\n    tag_29:\n    tag_28:\n      pop\n      pop\n        /* \"contracts/TwoArray.sol\":558:573  grade[0].length */\n      0x02\n        /* \"contracts/TwoArray.sol\":554:555  j */\n      dup2\n        /* \"contracts/TwoArray.sol\":554:573  j < grade[0].length */\n      lt\n        /* \"contracts/TwoArray.sol\":538:612  for(uint j = 0; j < grade[0].length; j++) {... */\n      iszero\n      tag_26\n      jumpi\n        /* \"contracts/TwoArray.sol\":575:578  j++ */\n      dup1\n      dup1\n      tag_32\n      swap1\n      tag_33\n      jump\t// in\n    tag_32:\n      swap2\n      pop\n      pop\n        /* \"contracts/TwoArray.sol\":538:612  for(uint j = 0; j < grade[0].length; j++) {... */\n      jump(tag_25)\n    tag_26:\n      pop\n        /* \"contracts/TwoArray.sol\":519:522  i++ */\n      dup1\n      dup1\n      tag_34\n      swap1\n      tag_33\n      jump\t// in\n    tag_34:\n      swap2\n      pop\n      pop\n        /* \"contracts/TwoArray.sol\":485:622  for(uint i = 0; i < grade.length; i++) {... */\n      jump(tag_22)\n    tag_23:\n      pop\n        /* \"contracts/TwoArray.sol\":453:628  {... */\n      pop\n        /* \"contracts/TwoArray.sol\":412:628  function add() public view returns(uint) {... */\n      swap1\n      jump\t// out\n        /* \"contracts/TwoArray.sol\":316:406  function getContent() public view returns(uint[2][3] memory) {... */\n    tag_12:\n        /* \"contracts/TwoArray.sol\":358:375  uint[2][3] memory */\n      tag_35\n      tag_36\n      jump\t// in\n    tag_35:\n        /* \"contracts/TwoArray.sol\":394:399  grade */\n      0x00\n        /* \"contracts/TwoArray.sol\":387:399  return grade */\n      0x03\n      dup1\n      0x20\n      mul\n      mload(0x40)\n      swap1\n      dup2\n      add\n      0x40\n      mstore\n      dup1\n      swap3\n      swap2\n      swap1\n      0x00\n      swap1\n    tag_38:\n      dup3\n      dup3\n      lt\n      iszero\n      tag_39\n      jumpi\n      dup4\n      dup3\n      0x02\n      mul\n      add\n      0x02\n      dup1\n      0x20\n      mul\n      mload(0x40)\n      swap1\n      dup2\n      add\n      0x40\n      mstore\n      dup1\n      swap3\n      swap2\n      swap1\n      dup3\n      0x02\n      dup1\n      iszero\n      tag_41\n      jumpi\n      0x20\n      mul\n      dup3\n      add\n      swap2\n    tag_42:\n      dup2\n      sload\n      dup2\n      mstore\n      0x20\n      add\n      swap1\n      0x01\n      add\n      swap1\n      dup1\n      dup4\n      gt\n      tag_42\n      jumpi\n    tag_41:\n      pop\n      pop\n      pop\n      pop\n      pop\n      dup2\n      mstore\n      0x20\n      add\n      swap1\n      0x01\n      add\n      swap1\n      jump(tag_38)\n    tag_39:\n      pop\n      pop\n      pop\n      pop\n      swap1\n      pop\n        /* \"contracts/TwoArray.sol\":316:406  function getContent() public view returns(uint[2][3] memory) {... */\n      swap1\n      jump\t// out\n        /* \"contracts/TwoArray.sol\":221:310  function getTwoLength() public view returns(uint) {... */\n    tag_16:\n        /* \"contracts/TwoArray.sol\":265:269  uint */\n      0x00\n        /* \"contracts/TwoArray.sol\":288:293  grade */\n      dup1\n        /* \"contracts/TwoArray.sol\":294:295  0 */\n      0x00\n        /* \"contracts/TwoArray.sol\":288:296  grade[0] */\n      0x03\n      dup2\n      lt\n      tag_44\n      jumpi\n      tag_45\n      tag_30\n      jump\t// in\n    tag_45:\n    tag_44:\n      pop\n      pop\n        /* \"contracts/TwoArray.sol\":288:303  grade[0].length */\n      0x02\n        /* \"contracts/TwoArray.sol\":281:303  return grade[0].length */\n      swap1\n      pop\n        /* \"contracts/TwoArray.sol\":221:310  function getTwoLength() public view returns(uint) {... */\n      swap1\n      jump\t// out\n        /* \"contracts/TwoArray.sol\":129:215  function getOneLength() public view returns(uint) {... */\n    tag_19:\n        /* \"contracts/TwoArray.sol\":173:177  uint */\n      0x00\n        /* \"contracts/TwoArray.sol\":196:208  grade.length */\n      0x03\n        /* \"contracts/TwoArray.sol\":189:208  return grade.length */\n      swap1\n      pop\n        /* \"contracts/TwoArray.sol\":129:215  function getOneLength() public view returns(uint) {... */\n      swap1\n      jump\t// out\n    tag_36:\n      mload(0x40)\n      dup1\n      0x60\n      add\n      0x40\n      mstore\n      dup1\n      0x03\n      swap1\n    tag_48:\n      tag_49\n      tag_50\n      jump\t// in\n    tag_49:\n      dup2\n      mstore\n      0x20\n      add\n      swap1\n      0x01\n      swap1\n      sub\n      swap1\n      dup2\n      tag_48\n      jumpi\n      swap1\n      pop\n      pop\n      swap1\n      jump\t// out\n    tag_50:\n      mload(0x40)\n      dup1\n      0x40\n      add\n      0x40\n      mstore\n      dup1\n      0x02\n      swap1\n      0x20\n      dup3\n      mul\n      dup1\n      calldatasize\n      dup4\n      calldatacopy\n      dup1\n      dup3\n      add\n      swap2\n      pop\n      pop\n      swap1\n      pop\n      pop\n      swap1\n      jump\t// out\n        /* \"#utility.yul\":7:84   */\n    tag_51:\n        /* \"#utility.yul\":44:51   */\n      0x00\n        /* \"#utility.yul\":73:78   */\n      dup2\n        /* \"#utility.yul\":62:78   */\n      swap1\n      pop\n        /* \"#utility.yul\":7:84   */\n      swap2\n      swap1\n      pop\n      jump\t// out\n        /* \"#utility.yul\":90:208   */\n    tag_52:\n        /* \"#utility.yul\":177:201   */\n      tag_70\n        /* \"#utility.yul\":195:200   */\n      dup2\n        /* \"#utility.yul\":177:201   */\n      tag_51\n      jump\t// in\n    tag_70:\n        /* \"#utility.yul\":172:175   */\n      dup3\n        /* \"#utility.yul\":165:202   */\n      mstore\n        /* \"#utility.yul\":90:208   */\n      pop\n      pop\n      jump\t// out\n        /* \"#utility.yul\":214:436   */\n    tag_10:\n        /* \"#utility.yul\":307:311   */\n      0x00\n        /* \"#utility.yul\":345:347   */\n      0x20\n        /* \"#utility.yul\":334:343   */\n      dup3\n        /* \"#utility.yul\":330:348   */\n      add\n        /* \"#utility.yul\":322:348   */\n      swap1\n      pop\n        /* \"#utility.yul\":358:429   */\n      tag_72\n        /* \"#utility.yul\":426:427   */\n      0x00\n        /* \"#utility.yul\":415:424   */\n      dup4\n        /* \"#utility.yul\":411:428   */\n      add\n        /* \"#utility.yul\":402:408   */\n      dup5\n        /* \"#utility.yul\":358:429   */\n      tag_52\n      jump\t// in\n    tag_72:\n        /* \"#utility.yul\":214:436   */\n      swap3\n      swap2\n      pop\n      pop\n      jump\t// out\n        /* \"#utility.yul\":442:569   */\n    tag_53:\n        /* \"#utility.yul\":530:536   */\n      0x00\n        /* \"#utility.yul\":558:562   */\n      0x03\n        /* \"#utility.yul\":548:562   */\n      swap1\n      pop\n        /* \"#utility.yul\":442:569   */\n      swap2\n      swap1\n      pop\n      jump\t// out\n        /* \"#utility.yul\":575:741   */\n    tag_54:\n        /* \"#utility.yul\":695:706   */\n      0x00\n        /* \"#utility.yul\":732:735   */\n      dup2\n        /* \"#utility.yul\":717:735   */\n      swap1\n      pop\n        /* \"#utility.yul\":575:741   */\n      swap3\n      swap2\n      pop\n      pop\n      jump\t// out\n        /* \"#utility.yul\":747:868   */\n    tag_55:\n        /* \"#utility.yul\":835:839   */\n      0x00\n        /* \"#utility.yul\":858:861   */\n      dup2\n        /* \"#utility.yul\":850:861   */\n      swap1\n      pop\n        /* \"#utility.yul\":747:868   */\n      swap2\n      swap1\n      pop\n      jump\t// out\n        /* \"#utility.yul\":874:978   */\n    tag_56:\n        /* \"#utility.yul\":939:945   */\n      0x00\n        /* \"#utility.yul\":967:971   */\n      0x02\n        /* \"#utility.yul\":957:971   */\n      swap1\n      pop\n        /* \"#utility.yul\":874:978   */\n      swap2\n      swap1\n      pop\n      jump\t// out\n        /* \"#utility.yul\":984:1117   */\n    tag_57:\n        /* \"#utility.yul\":1071:1082   */\n      0x00\n        /* \"#utility.yul\":1108:1111   */\n      dup2\n        /* \"#utility.yul\":1093:1111   */\n      swap1\n      pop\n        /* \"#utility.yul\":984:1117   */\n      swap3\n      swap2\n      pop\n      pop\n      jump\t// out\n        /* \"#utility.yul\":1123:1221   */\n    tag_58:\n        /* \"#utility.yul\":1188:1192   */\n      0x00\n        /* \"#utility.yul\":1211:1214   */\n      dup2\n        /* \"#utility.yul\":1203:1214   */\n      swap1\n      pop\n        /* \"#utility.yul\":1123:1221   */\n      swap2\n      swap1\n      pop\n      jump\t// out\n        /* \"#utility.yul\":1227:1335   */\n    tag_59:\n        /* \"#utility.yul\":1304:1328   */\n      tag_80\n        /* \"#utility.yul\":1322:1327   */\n      dup2\n        /* \"#utility.yul\":1304:1328   */\n      tag_51\n      jump\t// in\n    tag_80:\n        /* \"#utility.yul\":1299:1302   */\n      dup3\n        /* \"#utility.yul\":1292:1329   */\n      mstore\n        /* \"#utility.yul\":1227:1335   */\n      pop\n      pop\n      jump\t// out\n        /* \"#utility.yul\":1341:1520   */\n    tag_60:\n        /* \"#utility.yul\":1410:1420   */\n      0x00\n        /* \"#utility.yul\":1431:1477   */\n      tag_82\n        /* \"#utility.yul\":1473:1476   */\n      dup4\n        /* \"#utility.yul\":1465:1471   */\n      dup4\n        /* \"#utility.yul\":1431:1477   */\n      tag_59\n      jump\t// in\n    tag_82:\n        /* \"#utility.yul\":1509:1513   */\n      0x20\n        /* \"#utility.yul\":1504:1507   */\n      dup4\n        /* \"#utility.yul\":1500:1514   */\n      add\n        /* \"#utility.yul\":1486:1514   */\n      swap1\n      pop\n        /* \"#utility.yul\":1341:1520   */\n      swap3\n      swap2\n      pop\n      pop\n      jump\t// out\n        /* \"#utility.yul\":1526:1637   */\n    tag_61:\n        /* \"#utility.yul\":1594:1598   */\n      0x00\n        /* \"#utility.yul\":1626:1630   */\n      0x20\n        /* \"#utility.yul\":1621:1624   */\n      dup3\n        /* \"#utility.yul\":1617:1631   */\n      add\n        /* \"#utility.yul\":1609:1631   */\n      swap1\n      pop\n        /* \"#utility.yul\":1526:1637   */\n      swap2\n      swap1\n      pop\n      jump\t// out\n        /* \"#utility.yul\":1675:2349   */\n    tag_62:\n        /* \"#utility.yul\":1801:1853   */\n      tag_85\n        /* \"#utility.yul\":1847:1852   */\n      dup2\n        /* \"#utility.yul\":1801:1853   */\n      tag_56\n      jump\t// in\n    tag_85:\n        /* \"#utility.yul\":1869:1943   */\n      tag_86\n        /* \"#utility.yul\":1936:1942   */\n      dup2\n        /* \"#utility.yul\":1931:1934   */\n      dup5\n        /* \"#utility.yul\":1869:1943   */\n      tag_57\n      jump\t// in\n    tag_86:\n        /* \"#utility.yul\":1862:1943   */\n      swap3\n      pop\n        /* \"#utility.yul\":1967:2021   */\n      tag_87\n        /* \"#utility.yul\":2015:2020   */\n      dup3\n        /* \"#utility.yul\":1967:2021   */\n      tag_58\n      jump\t// in\n    tag_87:\n        /* \"#utility.yul\":2044:2051   */\n      dup1\n        /* \"#utility.yul\":2075:2076   */\n      0x00\n        /* \"#utility.yul\":2060:2342   */\n    tag_88:\n        /* \"#utility.yul\":2085:2091   */\n      dup4\n        /* \"#utility.yul\":2082:2083   */\n      dup2\n        /* \"#utility.yul\":2079:2092   */\n      lt\n        /* \"#utility.yul\":2060:2342   */\n      iszero\n      tag_90\n      jumpi\n        /* \"#utility.yul\":2161:2167   */\n      dup2\n        /* \"#utility.yul\":2155:2168   */\n      mload\n        /* \"#utility.yul\":2188:2251   */\n      tag_91\n        /* \"#utility.yul\":2247:2250   */\n      dup8\n        /* \"#utility.yul\":2232:2245   */\n      dup3\n        /* \"#utility.yul\":2188:2251   */\n      tag_60\n      jump\t// in\n    tag_91:\n        /* \"#utility.yul\":2181:2251   */\n      swap7\n      pop\n        /* \"#utility.yul\":2274:2332   */\n      tag_92\n        /* \"#utility.yul\":2325:2331   */\n      dup4\n        /* \"#utility.yul\":2274:2332   */\n      tag_61\n      jump\t// in\n    tag_92:\n        /* \"#utility.yul\":2264:2332   */\n      swap3\n      pop\n        /* \"#utility.yul\":2120:2342   */\n      pop\n        /* \"#utility.yul\":2107:2108   */\n      0x01\n        /* \"#utility.yul\":2104:2105   */\n      dup2\n        /* \"#utility.yul\":2100:2109   */\n      add\n        /* \"#utility.yul\":2095:2109   */\n      swap1\n      pop\n        /* \"#utility.yul\":2060:2342   */\n      jump(tag_88)\n    tag_90:\n        /* \"#utility.yul\":2064:2078   */\n      pop\n        /* \"#utility.yul\":1777:2349   */\n      pop\n      pop\n      pop\n        /* \"#utility.yul\":1675:2349   */\n      pop\n      pop\n      jump\t// out\n        /* \"#utility.yul\":2355:2626   */\n    tag_63:\n        /* \"#utility.yul\":2470:2480   */\n      0x00\n        /* \"#utility.yul\":2491:2583   */\n      tag_94\n        /* \"#utility.yul\":2579:2582   */\n      dup4\n        /* \"#utility.yul\":2571:2577   */\n      dup4\n        /* \"#utility.yul\":2491:2583   */\n      tag_62\n      jump\t// in\n    tag_94:\n        /* \"#utility.yul\":2615:2619   */\n      0x40\n        /* \"#utility.yul\":2610:2613   */\n      dup4\n        /* \"#utility.yul\":2606:2620   */\n      add\n        /* \"#utility.yul\":2592:2620   */\n      swap1\n      pop\n        /* \"#utility.yul\":2355:2626   */\n      swap3\n      swap2\n      pop\n      pop\n      jump\t// out\n        /* \"#utility.yul\":2632:2766   */\n    tag_64:\n        /* \"#utility.yul\":2723:2727   */\n      0x00\n        /* \"#utility.yul\":2755:2759   */\n      0x20\n        /* \"#utility.yul\":2750:2753   */\n      dup3\n        /* \"#utility.yul\":2746:2760   */\n      add\n        /* \"#utility.yul\":2738:2760   */\n      swap1\n      pop\n        /* \"#utility.yul\":2632:2766   */\n      swap2\n      swap1\n      pop\n      jump\t// out\n        /* \"#utility.yul\":2810:3688   */\n    tag_65:\n        /* \"#utility.yul\":2992:3067   */\n      tag_97\n        /* \"#utility.yul\":3061:3066   */\n      dup2\n        /* \"#utility.yul\":2992:3067   */\n      tag_53\n      jump\t// in\n    tag_97:\n        /* \"#utility.yul\":3083:3190   */\n      tag_98\n        /* \"#utility.yul\":3183:3189   */\n      dup2\n        /* \"#utility.yul\":3178:3181   */\n      dup5\n        /* \"#utility.yul\":3083:3190   */\n      tag_54\n      jump\t// in\n    tag_98:\n        /* \"#utility.yul\":3076:3190   */\n      swap3\n      pop\n        /* \"#utility.yul\":3214:3291   */\n      tag_99\n        /* \"#utility.yul\":3285:3290   */\n      dup3\n        /* \"#utility.yul\":3214:3291   */\n      tag_55\n      jump\t// in\n    tag_99:\n        /* \"#utility.yul\":3314:3321   */\n      dup1\n        /* \"#utility.yul\":3345:3346   */\n      0x00\n        /* \"#utility.yul\":3330:3681   */\n    tag_100:\n        /* \"#utility.yul\":3355:3361   */\n      dup4\n        /* \"#utility.yul\":3352:3353   */\n      dup2\n        /* \"#utility.yul\":3349:3362   */\n      lt\n        /* \"#utility.yul\":3330:3681   */\n      iszero\n      tag_102\n      jumpi\n        /* \"#utility.yul\":3431:3437   */\n      dup2\n        /* \"#utility.yul\":3425:3438   */\n      mload\n        /* \"#utility.yul\":3458:3567   */\n      tag_103\n        /* \"#utility.yul\":3563:3566   */\n      dup8\n        /* \"#utility.yul\":3548:3561   */\n      dup3\n        /* \"#utility.yul\":3458:3567   */\n      tag_63\n      jump\t// in\n    tag_103:\n        /* \"#utility.yul\":3451:3567   */\n      swap7\n      pop\n        /* \"#utility.yul\":3590:3671   */\n      tag_104\n        /* \"#utility.yul\":3664:3670   */\n      dup4\n        /* \"#utility.yul\":3590:3671   */\n      tag_64\n      jump\t// in\n    tag_104:\n        /* \"#utility.yul\":3580:3671   */\n      swap3\n      pop\n        /* \"#utility.yul\":3390:3681   */\n      pop\n        /* \"#utility.yul\":3377:3378   */\n      0x01\n        /* \"#utility.yul\":3374:3375   */\n      dup2\n        /* \"#utility.yul\":3370:3379   */\n      add\n        /* \"#utility.yul\":3365:3379   */\n      swap1\n      pop\n        /* \"#utility.yul\":3330:3681   */\n      jump(tag_100)\n    tag_102:\n        /* \"#utility.yul\":3334:3348   */\n      pop\n        /* \"#utility.yul\":2968:3688   */\n      pop\n      pop\n      pop\n        /* \"#utility.yul\":2810:3688   */\n      pop\n      pop\n      jump\t// out\n        /* \"#utility.yul\":3694:4101   */\n    tag_14:\n        /* \"#utility.yul\":3879:3883   */\n      0x00\n        /* \"#utility.yul\":3917:3920   */\n      0xc0\n        /* \"#utility.yul\":3906:3915   */\n      dup3\n        /* \"#utility.yul\":3902:3921   */\n      add\n        /* \"#utility.yul\":3894:3921   */\n      swap1\n      pop\n        /* \"#utility.yul\":3931:4094   */\n      tag_106\n        /* \"#utility.yul\":4091:4092   */\n      0x00\n        /* \"#utility.yul\":4080:4089   */\n      dup4\n        /* \"#utility.yul\":4076:4093   */\n      add\n        /* \"#utility.yul\":4067:4073   */\n      dup5\n        /* \"#utility.yul\":3931:4094   */\n      tag_65\n      jump\t// in\n    tag_106:\n        /* \"#utility.yul\":3694:4101   */\n      swap3\n      swap2\n      pop\n      pop\n      jump\t// out\n        /* \"#utility.yul\":4107:4287   */\n    tag_30:\n        /* \"#utility.yul\":4155:4232   */\n      0x4e487b7100000000000000000000000000000000000000000000000000000000\n        /* \"#utility.yul\":4152:4153   */\n      0x00\n        /* \"#utility.yul\":4145:4233   */\n      mstore\n        /* \"#utility.yul\":4252:4256   */\n      0x32\n        /* \"#utility.yul\":4249:4250   */\n      0x04\n        /* \"#utility.yul\":4242:4257   */\n      mstore\n        /* \"#utility.yul\":4276:4280   */\n      0x24\n        /* \"#utility.yul\":4273:4274   */\n      0x00\n        /* \"#utility.yul\":4266:4281   */\n      revert\n        /* \"#utility.yul\":4293:4473   */\n    tag_66:\n        /* \"#utility.yul\":4341:4418   */\n      0x4e487b7100000000000000000000000000000000000000000000000000000000\n        /* \"#utility.yul\":4338:4339   */\n      0x00\n        /* \"#utility.yul\":4331:4419   */\n      mstore\n        /* \"#utility.yul\":4438:4442   */\n      0x11\n        /* \"#utility.yul\":4435:4436   */\n      0x04\n        /* \"#utility.yul\":4428:4443   */\n      mstore\n        /* \"#utility.yul\":4462:4466   */\n      0x24\n        /* \"#utility.yul\":4459:4460   */\n      0x00\n        /* \"#utility.yul\":4452:4467   */\n      revert\n        /* \"#utility.yul\":4479:4712   */\n    tag_33:\n        /* \"#utility.yul\":4518:4521   */\n      0x00\n        /* \"#utility.yul\":4541:4565   */\n      tag_110\n        /* \"#utility.yul\":4559:4564   */\n      dup3\n        /* \"#utility.yul\":4541:4565   */\n      tag_51\n      jump\t// in\n    tag_110:\n        /* \"#utility.yul\":4532:4565   */\n      swap2\n      pop\n        /* \"#utility.yul\":4587:4653   */\n      0xffffffffffffffffffffffffffffffffffffffffffffffffffffffffffffffff\n        /* \"#utility.yul\":4580:4585   */\n      dup3\n        /* \"#utility.yul\":4577:4654   */\n      sub\n        /* \"#utility.yul\":4574:4677   */\n      tag_111\n      jumpi\n        /* \"#utility.yul\":4657:4675   */\n      tag_112\n      tag_66\n      jump\t// in\n    tag_112:\n        /* \"#utility.yul\":4574:4677   */\n    tag_111:\n        /* \"#utility.yul\":4704:4705   */\n      0x01\n        /* \"#utility.yul\":4697:4702   */\n      dup3\n        /* \"#utility.yul\":4693:4706   */\n      add\n        /* \"#utility.yul\":4686:4706   */\n      swap1\n      pop\n        /* \"#utility.yul\":4479:4712   */\n      swap2\n      swap1\n      pop\n      jump\t// out\n\n    auxdata: 0xa264697066735822122042009b02a952563c6f2e8966a88a1f668529d15d0dea5ee3e6c3a452cb77f40664736f6c634300080f0033\n}\n",
				"bytecode": {
					"linkReferences": {},
					"object": "608060405260405180606001604052806040518060400160405280600160ff168152602001600260ff1681525081526020016040518060400160405280600360ff168152602001600460ff1681525081526020016040518060400160405280600560ff168152602001600660ff168152508152506000906003610083929190610096565b5034801561009057600080fd5b5061017b565b82600360020281019282156100d6579160200282015b828111156100d5578251829060026100c59291906100e7565b50916020019190600201906100ac565b5b5090506100e3919061012c565b5090565b826002810192821561011b579160200282015b8281111561011a578251829060ff169055916020019190600101906100fa565b5b5090506101289190610150565b5090565b5b8082111561014c5760008181610143919061016d565b5060020161012d565b5090565b5b80821115610169576000816000905550600101610151565b5090565b506000815560010160009055565b6104968061018a6000396000f3fe608060405234801561001057600080fd5b506004361061004c5760003560e01c80634f2be91f1461005157806359016c791461006f57806363f5a6491461008d578063a6f89f0e146100ab575b600080fd5b6100596100c9565b604051610066919061023d565b60405180910390f35b61007761012a565b604051610084919061039f565b60405180910390f35b6100956101ad565b6040516100a2919061023d565b60405180910390f35b6100b36101cc565b6040516100c0919061023d565b60405180910390f35b6000806000905060005b60038110156101255760005b600080600381106100f3576100f26103ba565b5b5050600281101561011157808061010990610418565b9150506100df565b50808061011d90610418565b9150506100d3565b505090565b6101326101d5565b6000600380602002604051908101604052809291906000905b828210156101a457838260020201600280602002604051908101604052809291908260028015610190576020028201915b81548152602001906001019080831161017c575b50505050508152602001906001019061014b565b50505050905090565b6000806000600381106101c3576101c26103ba565b5b50506002905090565b60006003905090565b60405180606001604052806003905b6101ec610202565b8152602001906001900390816101e45790505090565b6040518060400160405280600290602082028036833780820191505090505090565b6000819050919050565b61023781610224565b82525050565b6000602082019050610252600083018461022e565b92915050565b600060039050919050565b600081905092915050565b6000819050919050565b600060029050919050565b600081905092915050565b6000819050919050565b6102a181610224565b82525050565b60006102b38383610298565b60208301905092915050565b6000602082019050919050565b6102d581610278565b6102df8184610283565b92506102ea8261028e565b8060005b8381101561031b57815161030287826102a7565b965061030d836102bf565b9250506001810190506102ee565b505050505050565b600061032f83836102cc565b60408301905092915050565b6000602082019050919050565b61035181610258565b61035b8184610263565b92506103668261026e565b8060005b8381101561039757815161037e8782610323565b96506103898361033b565b92505060018101905061036a565b505050505050565b600060c0820190506103b46000830184610348565b92915050565b7f4e487b7100000000000000000000000000000000000000000000000000000000600052603260045260246000fd5b7f4e487b7100000000000000000000000000000000000000000000000000000000600052601160045260246000fd5b600061042382610224565b91507fffffffffffffffffffffffffffffffffffffffffffffffffffffffffffffffff8203610455576104546103e9565b5b60018201905091905056fea264697066735822122042009b02a952563c6f2e8966a88a1f668529d15d0dea5ee3e6c3a452cb77f40664736f6c634300080f0033",
					"opcodes": "PUSH1 0x80 PUSH1 0x40 MSTORE PUSH1 0x40 MLOAD DUP1 PUSH1 0x60 ADD PUSH1 0x40 MSTORE DUP1 PUSH1 0x40 MLOAD DUP1 PUSH1 0x40 ADD PUSH1 0x40 MSTORE DUP1 PUSH1 0x1 PUSH1 0xFF AND DUP2 MSTORE PUSH1 0x20 ADD PUSH1 0x2 PUSH1 0xFF AND DUP2 MSTORE POP DUP2 MSTORE PUSH1 0x20 ADD PUSH1 0x40 MLOAD DUP1 PUSH1 0x40 ADD PUSH1 0x40 MSTORE DUP1 PUSH1 0x3 PUSH1 0xFF AND DUP2 MSTORE PUSH1 0x20 ADD PUSH1 0x4 PUSH1 0xFF AND DUP2 MSTORE POP DUP2 MSTORE PUSH1 0x20 ADD PUSH1 0x40 MLOAD DUP1 PUSH1 0x40 ADD PUSH1 0x40 MSTORE DUP1 PUSH1 0x5 PUSH1 0xFF AND DUP2 MSTORE PUSH1 0x20 ADD PUSH1 0x6 PUSH1 0xFF AND DUP2 MSTORE POP DUP2 MSTORE POP PUSH1 0x0 SWAP1 PUSH1 0x3 PUSH2 0x83 SWAP3 SWAP2 SWAP1 PUSH2 0x96 JUMP JUMPDEST POP CALLVALUE DUP1 ISZERO PUSH2 0x90 JUMPI PUSH1 0x0 DUP1 REVERT JUMPDEST POP PUSH2 0x17B JUMP JUMPDEST DUP3 PUSH1 0x3 PUSH1 0x2 MUL DUP2 ADD SWAP3 DUP3 ISZERO PUSH2 0xD6 JUMPI SWAP2 PUSH1 0x20 MUL DUP3 ADD JUMPDEST DUP3 DUP2 GT ISZERO PUSH2 0xD5 JUMPI DUP3 MLOAD DUP3 SWAP1 PUSH1 0x2 PUSH2 0xC5 SWAP3 SWAP2 SWAP1 PUSH2 0xE7 JUMP JUMPDEST POP SWAP2 PUSH1 0x20 ADD SWAP2 SWAP1 PUSH1 0x2 ADD SWAP1 PUSH2 0xAC JUMP JUMPDEST JUMPDEST POP SWAP1 POP PUSH2 0xE3 SWAP2 SWAP1 PUSH2 0x12C JUMP JUMPDEST POP SWAP1 JUMP JUMPDEST DUP3 PUSH1 0x2 DUP2 ADD SWAP3 DUP3 ISZERO PUSH2 0x11B JUMPI SWAP2 PUSH1 0x20 MUL DUP3 ADD JUMPDEST DUP3 DUP2 GT ISZERO PUSH2 0x11A JUMPI DUP3 MLOAD DUP3 SWAP1 PUSH1 0xFF AND SWAP1 SSTORE SWAP2 PUSH1 0x20 ADD SWAP2 SWAP1 PUSH1 0x1 ADD SWAP1 PUSH2 0xFA JUMP JUMPDEST JUMPDEST POP SWAP1 POP PUSH2 0x128 SWAP2 SWAP1 PUSH2 0x150 JUMP JUMPDEST POP SWAP1 JUMP JUMPDEST JUMPDEST DUP1 DUP3 GT ISZERO PUSH2 0x14C JUMPI PUSH1 0x0 DUP2 DUP2 PUSH2 0x143 SWAP2 SWAP1 PUSH2 0x16D JUMP JUMPDEST POP PUSH1 0x2 ADD PUSH2 0x12D JUMP JUMPDEST POP SWAP1 JUMP JUMPDEST JUMPDEST DUP1 DUP3 GT ISZERO PUSH2 0x169 JUMPI PUSH1 0x0 DUP2 PUSH1 0x0 SWAP1 SSTORE POP PUSH1 0x1 ADD PUSH2 0x151 JUMP JUMPDEST POP SWAP1 JUMP JUMPDEST POP PUSH1 0x0 DUP2 SSTORE PUSH1 0x1 ADD PUSH1 0x0 SWAP1 SSTORE JUMP JUMPDEST PUSH2 0x496 DUP1 PUSH2 0x18A PUSH1 0x0 CODECOPY PUSH1 0x0 RETURN INVALID PUSH1 0x80 PUSH1 0x40 MSTORE CALLVALUE DUP1 ISZERO PUSH2 0x10 JUMPI PUSH1 0x0 DUP1 REVERT JUMPDEST POP PUSH1 0x4 CALLDATASIZE LT PUSH2 0x4C JUMPI PUSH1 0x0 CALLDATALOAD PUSH1 0xE0 SHR DUP1 PUSH4 0x4F2BE91F EQ PUSH2 0x51 JUMPI DUP1 PUSH4 0x59016C79 EQ PUSH2 0x6F JUMPI DUP1 PUSH4 0x63F5A649 EQ PUSH2 0x8D JUMPI DUP1 PUSH4 0xA6F89F0E EQ PUSH2 0xAB JUMPI JUMPDEST PUSH1 0x0 DUP1 REVERT JUMPDEST PUSH2 0x59 PUSH2 0xC9 JUMP JUMPDEST PUSH1 0x40 MLOAD PUSH2 0x66 SWAP2 SWAP1 PUSH2 0x23D JUMP JUMPDEST PUSH1 0x40 MLOAD DUP1 SWAP2 SUB SWAP1 RETURN JUMPDEST PUSH2 0x77 PUSH2 0x12A JUMP JUMPDEST PUSH1 0x40 MLOAD PUSH2 0x84 SWAP2 SWAP1 PUSH2 0x39F JUMP JUMPDEST PUSH1 0x40 MLOAD DUP1 SWAP2 SUB SWAP1 RETURN JUMPDEST PUSH2 0x95 PUSH2 0x1AD JUMP JUMPDEST PUSH1 0x40 MLOAD PUSH2 0xA2 SWAP2 SWAP1 PUSH2 0x23D JUMP JUMPDEST PUSH1 0x40 MLOAD DUP1 SWAP2 SUB SWAP1 RETURN JUMPDEST PUSH2 0xB3 PUSH2 0x1CC JUMP JUMPDEST PUSH1 0x40 MLOAD PUSH2 0xC0 SWAP2 SWAP1 PUSH2 0x23D JUMP JUMPDEST PUSH1 0x40 MLOAD DUP1 SWAP2 SUB SWAP1 RETURN JUMPDEST PUSH1 0x0 DUP1 PUSH1 0x0 SWAP1 POP PUSH1 0x0 JUMPDEST PUSH1 0x3 DUP2 LT ISZERO PUSH2 0x125 JUMPI PUSH1 0x0 JUMPDEST PUSH1 0x0 DUP1 PUSH1 0x3 DUP2 LT PUSH2 0xF3 JUMPI PUSH2 0xF2 PUSH2 0x3BA JUMP JUMPDEST JUMPDEST POP POP PUSH1 0x2 DUP2 LT ISZERO PUSH2 0x111 JUMPI DUP1 DUP1 PUSH2 0x109 SWAP1 PUSH2 0x418 JUMP JUMPDEST SWAP2 POP POP PUSH2 0xDF JUMP JUMPDEST POP DUP1 DUP1 PUSH2 0x11D SWAP1 PUSH2 0x418 JUMP JUMPDEST SWAP2 POP POP PUSH2 0xD3 JUMP JUMPDEST POP POP SWAP1 JUMP JUMPDEST PUSH2 0x132 PUSH2 0x1D5 JUMP JUMPDEST PUSH1 0x0 PUSH1 0x3 DUP1 PUSH1 0x20 MUL PUSH1 0x40 MLOAD SWAP1 DUP2 ADD PUSH1 0x40 MSTORE DUP1 SWAP3 SWAP2 SWAP1 PUSH1 0x0 SWAP1 JUMPDEST DUP3 DUP3 LT ISZERO PUSH2 0x1A4 JUMPI DUP4 DUP3 PUSH1 0x2 MUL ADD PUSH1 0x2 DUP1 PUSH1 0x20 MUL PUSH1 0x40 MLOAD SWAP1 DUP2 ADD PUSH1 0x40 MSTORE DUP1 SWAP3 SWAP2 SWAP1 DUP3 PUSH1 0x2 DUP1 ISZERO PUSH2 0x190 JUMPI PUSH1 0x20 MUL DUP3 ADD SWAP2 JUMPDEST DUP2 SLOAD DUP2 MSTORE PUSH1 0x20 ADD SWAP1 PUSH1 0x1 ADD SWAP1 DUP1 DUP4 GT PUSH2 0x17C JUMPI JUMPDEST POP POP POP POP POP DUP2 MSTORE PUSH1 0x20 ADD SWAP1 PUSH1 0x1 ADD SWAP1 PUSH2 0x14B JUMP JUMPDEST POP POP POP POP SWAP1 POP SWAP1 JUMP JUMPDEST PUSH1 0x0 DUP1 PUSH1 0x0 PUSH1 0x3 DUP2 LT PUSH2 0x1C3 JUMPI PUSH2 0x1C2 PUSH2 0x3BA JUMP JUMPDEST JUMPDEST POP POP PUSH1 0x2 SWAP1 POP SWAP1 JUMP JUMPDEST PUSH1 0x0 PUSH1 0x3 SWAP1 POP SWAP1 JUMP JUMPDEST PUSH1 0x40 MLOAD DUP1 PUSH1 0x60 ADD PUSH1 0x40 MSTORE DUP1 PUSH1 0x3 SWAP1 JUMPDEST PUSH2 0x1EC PUSH2 0x202 JUMP JUMPDEST DUP2 MSTORE PUSH1 0x20 ADD SWAP1 PUSH1 0x1 SWAP1 SUB SWAP1 DUP2 PUSH2 0x1E4 JUMPI SWAP1 POP POP SWAP1 JUMP JUMPDEST PUSH1 0x40 MLOAD DUP1 PUSH1 0x40 ADD PUSH1 0x40 MSTORE DUP1 PUSH1 0x2 SWAP1 PUSH1 0x20 DUP3 MUL DUP1 CALLDATASIZE DUP4 CALLDATACOPY DUP1 DUP3 ADD SWAP2 POP POP SWAP1 POP POP SWAP1 JUMP JUMPDEST PUSH1 0x0 DUP2 SWAP1 POP SWAP2 SWAP1 POP JUMP JUMPDEST PUSH2 0x237 DUP2 PUSH2 0x224 JUMP JUMPDEST DUP3 MSTORE POP POP JUMP JUMPDEST PUSH1 0x0 PUSH1 0x20 DUP3 ADD SWAP1 POP PUSH2 0x252 PUSH1 0x0 DUP4 ADD DUP5 PUSH2 0x22E JUMP JUMPDEST SWAP3 SWAP2 POP POP JUMP JUMPDEST PUSH1 0x0 PUSH1 0x3 SWAP1 POP SWAP2 SWAP1 POP JUMP JUMPDEST PUSH1 0x0 DUP2 SWAP1 POP SWAP3 SWAP2 POP POP JUMP JUMPDEST PUSH1 0x0 DUP2 SWAP1 POP SWAP2 SWAP1 POP JUMP JUMPDEST PUSH1 0x0 PUSH1 0x2 SWAP1 POP SWAP2 SWAP1 POP JUMP JUMPDEST PUSH1 0x0 DUP2 SWAP1 POP SWAP3 SWAP2 POP POP JUMP JUMPDEST PUSH1 0x0 DUP2 SWAP1 POP SWAP2 SWAP1 POP JUMP JUMPDEST PUSH2 0x2A1 DUP2 PUSH2 0x224 JUMP JUMPDEST DUP3 MSTORE POP POP JUMP JUMPDEST PUSH1 0x0 PUSH2 0x2B3 DUP4 DUP4 PUSH2 0x298 JUMP JUMPDEST PUSH1 0x20 DUP4 ADD SWAP1 POP SWAP3 SWAP2 POP POP JUMP JUMPDEST PUSH1 0x0 PUSH1 0x20 DUP3 ADD SWAP1 POP SWAP2 SWAP1 POP JUMP JUMPDEST PUSH2 0x2D5 DUP2 PUSH2 0x278 JUMP JUMPDEST PUSH2 0x2DF DUP2 DUP5 PUSH2 0x283 JUMP JUMPDEST SWAP3 POP PUSH2 0x2EA DUP3 PUSH2 0x28E JUMP JUMPDEST DUP1 PUSH1 0x0 JUMPDEST DUP4 DUP2 LT ISZERO PUSH2 0x31B JUMPI DUP2 MLOAD PUSH2 0x302 DUP8 DUP3 PUSH2 0x2A7 JUMP JUMPDEST SWAP7 POP PUSH2 0x30D DUP4 PUSH2 0x2BF JUMP JUMPDEST SWAP3 POP POP PUSH1 0x1 DUP2 ADD SWAP1 POP PUSH2 0x2EE JUMP JUMPDEST POP POP POP POP POP POP JUMP JUMPDEST PUSH1 0x0 PUSH2 0x32F DUP4 DUP4 PUSH2 0x2CC JUMP JUMPDEST PUSH1 0x40 DUP4 ADD SWAP1 POP SWAP3 SWAP2 POP POP JUMP JUMPDEST PUSH1 0x0 PUSH1 0x20 DUP3 ADD SWAP1 POP SWAP2 SWAP1 POP JUMP JUMPDEST PUSH2 0x351 DUP2 PUSH2 0x258 JUMP JUMPDEST PUSH2 0x35B DUP2 DUP5 PUSH2 0x263 JUMP JUMPDEST SWAP3 POP PUSH2 0x366 DUP3 PUSH2 0x26E JUMP JUMPDEST DUP1 PUSH1 0x0 JUMPDEST DUP4 DUP2 LT ISZERO PUSH2 0x397 JUMPI DUP2 MLOAD PUSH2 0x37E DUP8 DUP3 PUSH2 0x323 JUMP JUMPDEST SWAP7 POP PUSH2 0x389 DUP4 PUSH2 0x33B JUMP JUMPDEST SWAP3 POP POP PUSH1 0x1 DUP2 ADD SWAP1 POP PUSH2 0x36A JUMP JUMPDEST POP POP POP POP POP POP JUMP JUMPDEST PUSH1 0x0 PUSH1 0xC0 DUP3 ADD SWAP1 POP PUSH2 0x3B4 PUSH1 0x0 DUP4 ADD DUP5 PUSH2 0x348 JUMP JUMPDEST SWAP3 SWAP2 POP POP JUMP JUMPDEST PUSH32 0x4E487B7100000000000000000000000000000000000000000000000000000000 PUSH1 0x0 MSTORE PUSH1 0x32 PUSH1 0x4 MSTORE PUSH1 0x24 PUSH1 0x0 REVERT JUMPDEST PUSH32 0x4E487B7100000000000000000000000000000000000000000000000000000000 PUSH1 0x0 MSTORE PUSH1 0x11 PUSH1 0x4 MSTORE PUSH1 0x24 PUSH1 0x0 REVERT JUMPDEST PUSH1 0x0 PUSH2 0x423 DUP3 PUSH2 0x224 JUMP JUMPDEST SWAP2 POP PUSH32 0xFFFFFFFFFFFFFFFFFFFFFFFFFFFFFFFFFFFFFFFFFFFFFFFFFFFFFFFFFFFFFFFF DUP3 SUB PUSH2 0x455 JUMPI PUSH2 0x454 PUSH2 0x3E9 JUMP JUMPDEST JUMPDEST PUSH1 0x1 DUP3 ADD SWAP1 POP SWAP2 SWAP1 POP JUMP INVALID LOG2 PUSH5 0x6970667358 0x22 SLT KECCAK256 TIMESTAMP STOP SWAP12 MUL 0xA9 MSTORE JUMP EXTCODECOPY PUSH16 0x2E8966A88A1F668529D15D0DEA5EE3E6 0xC3 LOG4 MSTORE 0xCB PUSH24 0xF40664736F6C634300080F00330000000000000000000000 "
				},
				"gasEstimates": {
					"creation": {
						"codeDepositCost": "234800",
						"executionCost": "infinite",
						"totalCost": "infinite"
					},
					"external": {
						"add()": "infinite",
						"getContent()": "infinite",
						"getOneLength()": "381",
						"getTwoLength()": "392"
					}
				},
				"methodIdentifiers": {
					"add()": "4f2be91f",
					"getContent()": "59016c79",
					"getOneLength()": "a6f89f0e",
					"getTwoLength()": "63f5a649"
				}
			},
			"storageLayout": {
				"storage": [
					{
						"astId": 17,
						"contract": "contracts/TwoArray.sol:TwoArray",
						"label": "grade",
						"offset": 0,
						"slot": "0",
						"type": "t_array(t_array(t_uint256)2_storage)3_storage"
					}
				],
				"types": {
					"t_array(t_array(t_uint256)2_storage)3_storage": {
						"base": "t_array(t_uint256)2_storage",
						"encoding": "inplace",
						"label": "uint256[2][3]",
						"numberOfBytes": "192"
					},
					"t_array(t_uint256)2_storage": {
						"base": "t_uint256",
						"encoding": "inplace",
						"label": "uint256[2]",
						"numberOfBytes": "64"
					},
					"t_uint256": {
						"encoding": "inplace",
						"label": "uint256",
						"numberOfBytes": "32"
					}
				}
			},
			"userdoc": {
				"kind": "user",
				"methods": {},
				"version": 1
			}
		}
	}
}