{
	"contracts/address.sol": {
		"Address": {
			"abi": [
				{
					"inputs": [],
					"name": "account",
					"outputs": [
						{
							"internalType": "address",
							"name": "",
							"type": "address"
						}
					],
					"stateMutability": "view",
					"type": "function"
				},
				{
					"inputs": [],
					"name": "changeIt",
					"outputs": [
						{
							"internalType": "uint160",
							"name": "",
							"type": "uint160"
						}
					],
					"stateMutability": "view",
					"type": "function"
				},
				{
					"inputs": [],
					"name": "changeIt2",
					"outputs": [
						{
							"internalType": "address",
							"name": "",
							"type": "address"
						}
					],
					"stateMutability": "view",
					"type": "function"
				}
			],
			"devdoc": {
				"kind": "dev",
				"methods": {},
				"version": 1
			},
			"evm": {
				"assembly": "    /* \"contracts/address.sol\":57:373  contract Address {... */\n  mstore(0x40, 0x80)\n    /* \"contracts/address.sol\":105:147  0x5B38Da6a701c568545dCfcB03FcB875f56beddC4 */\n  0x5b38da6a701c568545dcfcb03fcb875f56beddc4\n    /* \"contracts/address.sol\":80:147  address public account = 0x5B38Da6a701c568545dCfcB03FcB875f56beddC4 */\n  0x00\n  dup1\n  0x0100\n  exp\n  dup2\n  sload\n  dup2\n  0xffffffffffffffffffffffffffffffffffffffff\n  mul\n  not\n  and\n  swap1\n  dup4\n  0xffffffffffffffffffffffffffffffffffffffff\n  and\n  mul\n  or\n  swap1\n  sstore\n  pop\n    /* \"contracts/address.sol\":57:373  contract Address {... */\n  callvalue\n  dup1\n  iszero\n  tag_1\n  jumpi\n  0x00\n  dup1\n  revert\ntag_1:\n  pop\n  dataSize(sub_0)\n  dup1\n  dataOffset(sub_0)\n  0x00\n  codecopy\n  0x00\n  return\nstop\n\nsub_0: assembly {\n        /* \"contracts/address.sol\":57:373  contract Address {... */\n      mstore(0x40, 0x80)\n      callvalue\n      dup1\n      iszero\n      tag_1\n      jumpi\n      0x00\n      dup1\n      revert\n    tag_1:\n      pop\n      jumpi(tag_2, lt(calldatasize, 0x04))\n      shr(0xe0, calldataload(0x00))\n      dup1\n      0x27b5c175\n      eq\n      tag_3\n      jumpi\n      dup1\n      0x5dab2420\n      eq\n      tag_4\n      jumpi\n      dup1\n      0xe5c5d723\n      eq\n      tag_5\n      jumpi\n    tag_2:\n      0x00\n      dup1\n      revert\n        /* \"contracts/address.sol\":154:296  function  changeIt() public view returns(uint160) {... */\n    tag_3:\n      tag_6\n      tag_7\n      jump\t// in\n    tag_6:\n      mload(0x40)\n      tag_8\n      swap2\n      swap1\n      tag_9\n      jump\t// in\n    tag_8:\n      mload(0x40)\n      dup1\n      swap2\n      sub\n      swap1\n      return\n        /* \"contracts/address.sol\":80:147  address public account = 0x5B38Da6a701c568545dCfcB03FcB875f56beddC4 */\n    tag_4:\n      tag_10\n      tag_11\n      jump\t// in\n    tag_10:\n      mload(0x40)\n      tag_12\n      swap2\n      swap1\n      tag_13\n      jump\t// in\n    tag_12:\n      mload(0x40)\n      dup1\n      swap2\n      sub\n      swap1\n      return\n        /* \"contracts/address.sol\":302:368  function changeIt2() public view returns(address) {... */\n    tag_5:\n      tag_14\n      tag_15\n      jump\t// in\n    tag_14:\n      mload(0x40)\n      tag_16\n      swap2\n      swap1\n      tag_13\n      jump\t// in\n    tag_16:\n      mload(0x40)\n      dup1\n      swap2\n      sub\n      swap1\n      return\n        /* \"contracts/address.sol\":154:296  function  changeIt() public view returns(uint160) {... */\n    tag_7:\n        /* \"contracts/address.sol\":195:202  uint160 */\n      0x00\n        /* \"contracts/address.sol\":229:236  account */\n      dup1\n      0x00\n      swap1\n      sload\n      swap1\n      0x0100\n      exp\n      swap1\n      div\n      0xffffffffffffffffffffffffffffffffffffffff\n      and\n        /* \"contracts/address.sol\":214:237  return uint160(account) */\n      swap1\n      pop\n        /* \"contracts/address.sol\":154:296  function  changeIt() public view returns(uint160) {... */\n      swap1\n      jump\t// out\n        /* \"contracts/address.sol\":80:147  address public account = 0x5B38Da6a701c568545dCfcB03FcB875f56beddC4 */\n    tag_11:\n      0x00\n      dup1\n      sload\n      swap1\n      0x0100\n      exp\n      swap1\n      div\n      0xffffffffffffffffffffffffffffffffffffffff\n      and\n      dup2\n      jump\t// out\n        /* \"contracts/address.sol\":302:368  function changeIt2() public view returns(address) {... */\n    tag_15:\n        /* \"contracts/address.sol\":343:350  address */\n      0x00\n        /* \"contracts/address.sol\":302:368  function changeIt2() public view returns(address) {... */\n      swap1\n      jump\t// out\n        /* \"#utility.yul\":7:133   */\n    tag_19:\n        /* \"#utility.yul\":44:51   */\n      0x00\n        /* \"#utility.yul\":84:126   */\n      0xffffffffffffffffffffffffffffffffffffffff\n        /* \"#utility.yul\":77:82   */\n      dup3\n        /* \"#utility.yul\":73:127   */\n      and\n        /* \"#utility.yul\":62:127   */\n      swap1\n      pop\n        /* \"#utility.yul\":7:133   */\n      swap2\n      swap1\n      pop\n      jump\t// out\n        /* \"#utility.yul\":139:257   */\n    tag_20:\n        /* \"#utility.yul\":226:250   */\n      tag_26\n        /* \"#utility.yul\":244:249   */\n      dup2\n        /* \"#utility.yul\":226:250   */\n      tag_19\n      jump\t// in\n    tag_26:\n        /* \"#utility.yul\":221:224   */\n      dup3\n        /* \"#utility.yul\":214:251   */\n      mstore\n        /* \"#utility.yul\":139:257   */\n      pop\n      pop\n      jump\t// out\n        /* \"#utility.yul\":263:485   */\n    tag_9:\n        /* \"#utility.yul\":356:360   */\n      0x00\n        /* \"#utility.yul\":394:396   */\n      0x20\n        /* \"#utility.yul\":383:392   */\n      dup3\n        /* \"#utility.yul\":379:397   */\n      add\n        /* \"#utility.yul\":371:397   */\n      swap1\n      pop\n        /* \"#utility.yul\":407:478   */\n      tag_28\n        /* \"#utility.yul\":475:476   */\n      0x00\n        /* \"#utility.yul\":464:473   */\n      dup4\n        /* \"#utility.yul\":460:477   */\n      add\n        /* \"#utility.yul\":451:457   */\n      dup5\n        /* \"#utility.yul\":407:478   */\n      tag_20\n      jump\t// in\n    tag_28:\n        /* \"#utility.yul\":263:485   */\n      swap3\n      swap2\n      pop\n      pop\n      jump\t// out\n        /* \"#utility.yul\":491:587   */\n    tag_21:\n        /* \"#utility.yul\":528:535   */\n      0x00\n        /* \"#utility.yul\":557:581   */\n      tag_30\n        /* \"#utility.yul\":575:580   */\n      dup3\n        /* \"#utility.yul\":557:581   */\n      tag_19\n      jump\t// in\n    tag_30:\n        /* \"#utility.yul\":546:581   */\n      swap1\n      pop\n        /* \"#utility.yul\":491:587   */\n      swap2\n      swap1\n      pop\n      jump\t// out\n        /* \"#utility.yul\":593:711   */\n    tag_22:\n        /* \"#utility.yul\":680:704   */\n      tag_32\n        /* \"#utility.yul\":698:703   */\n      dup2\n        /* \"#utility.yul\":680:704   */\n      tag_21\n      jump\t// in\n    tag_32:\n        /* \"#utility.yul\":675:678   */\n      dup3\n        /* \"#utility.yul\":668:705   */\n      mstore\n        /* \"#utility.yul\":593:711   */\n      pop\n      pop\n      jump\t// out\n        /* \"#utility.yul\":717:939   */\n    tag_13:\n        /* \"#utility.yul\":810:814   */\n      0x00\n        /* \"#utility.yul\":848:850   */\n      0x20\n        /* \"#utility.yul\":837:846   */\n      dup3\n        /* \"#utility.yul\":833:851   */\n      add\n        /* \"#utility.yul\":825:851   */\n      swap1\n      pop\n        /* \"#utility.yul\":861:932   */\n      tag_34\n        /* \"#utility.yul\":929:930   */\n      0x00\n        /* \"#utility.yul\":918:927   */\n      dup4\n        /* \"#utility.yul\":914:931   */\n      add\n        /* \"#utility.yul\":905:911   */\n      dup5\n        /* \"#utility.yul\":861:932   */\n      tag_22\n      jump\t// in\n    tag_34:\n        /* \"#utility.yul\":717:939   */\n      swap3\n      swap2\n      pop\n      pop\n      jump\t// out\n\n    auxdata: 0xa264697066735822122011968d02696fa5584140b83c0ac3891ea81125215d485b77465dcc573539930364736f6c634300080f0033\n}\n",
				"bytecode": {
					"linkReferences": {},
					"object": "6080604052735b38da6a701c568545dcfcb03fcb875f56beddc46000806101000a81548173ffffffffffffffffffffffffffffffffffffffff021916908373ffffffffffffffffffffffffffffffffffffffff16021790555034801561006457600080fd5b506101ae806100746000396000f3fe608060405234801561001057600080fd5b50600436106100415760003560e01c806327b5c175146100465780635dab242014610064578063e5c5d72314610082575b600080fd5b61004e6100a0565b60405161005b9190610121565b60405180910390f35b61006c6100c9565b604051610079919061015d565b60405180910390f35b61008a6100ed565b604051610097919061015d565b60405180910390f35b60008060009054906101000a900473ffffffffffffffffffffffffffffffffffffffff16905090565b60008054906101000a900473ffffffffffffffffffffffffffffffffffffffff1681565b600090565b600073ffffffffffffffffffffffffffffffffffffffff82169050919050565b61011b816100f2565b82525050565b60006020820190506101366000830184610112565b92915050565b6000610147826100f2565b9050919050565b6101578161013c565b82525050565b6000602082019050610172600083018461014e565b9291505056fea264697066735822122011968d02696fa5584140b83c0ac3891ea81125215d485b77465dcc573539930364736f6c634300080f0033",
					"opcodes": "PUSH1 0x80 PUSH1 0x40 MSTORE PUSH20 0x5B38DA6A701C568545DCFCB03FCB875F56BEDDC4 PUSH1 0x0 DUP1 PUSH2 0x100 EXP DUP2 SLOAD DUP2 PUSH20 0xFFFFFFFFFFFFFFFFFFFFFFFFFFFFFFFFFFFFFFFF MUL NOT AND SWAP1 DUP4 PUSH20 0xFFFFFFFFFFFFFFFFFFFFFFFFFFFFFFFFFFFFFFFF AND MUL OR SWAP1 SSTORE POP CALLVALUE DUP1 ISZERO PUSH2 0x64 JUMPI PUSH1 0x0 DUP1 REVERT JUMPDEST POP PUSH2 0x1AE DUP1 PUSH2 0x74 PUSH1 0x0 CODECOPY PUSH1 0x0 RETURN INVALID PUSH1 0x80 PUSH1 0x40 MSTORE CALLVALUE DUP1 ISZERO PUSH2 0x10 JUMPI PUSH1 0x0 DUP1 REVERT JUMPDEST POP PUSH1 0x4 CALLDATASIZE LT PUSH2 0x41 JUMPI PUSH1 0x0 CALLDATALOAD PUSH1 0xE0 SHR DUP1 PUSH4 0x27B5C175 EQ PUSH2 0x46 JUMPI DUP1 PUSH4 0x5DAB2420 EQ PUSH2 0x64 JUMPI DUP1 PUSH4 0xE5C5D723 EQ PUSH2 0x82 JUMPI JUMPDEST PUSH1 0x0 DUP1 REVERT JUMPDEST PUSH2 0x4E PUSH2 0xA0 JUMP JUMPDEST PUSH1 0x40 MLOAD PUSH2 0x5B SWAP2 SWAP1 PUSH2 0x121 JUMP JUMPDEST PUSH1 0x40 MLOAD DUP1 SWAP2 SUB SWAP1 RETURN JUMPDEST PUSH2 0x6C PUSH2 0xC9 JUMP JUMPDEST PUSH1 0x40 MLOAD PUSH2 0x79 SWAP2 SWAP1 PUSH2 0x15D JUMP JUMPDEST PUSH1 0x40 MLOAD DUP1 SWAP2 SUB SWAP1 RETURN JUMPDEST PUSH2 0x8A PUSH2 0xED JUMP JUMPDEST PUSH1 0x40 MLOAD PUSH2 0x97 SWAP2 SWAP1 PUSH2 0x15D JUMP JUMPDEST PUSH1 0x40 MLOAD DUP1 SWAP2 SUB SWAP1 RETURN JUMPDEST PUSH1 0x0 DUP1 PUSH1 0x0 SWAP1 SLOAD SWAP1 PUSH2 0x100 EXP SWAP1 DIV PUSH20 0xFFFFFFFFFFFFFFFFFFFFFFFFFFFFFFFFFFFFFFFF AND SWAP1 POP SWAP1 JUMP JUMPDEST PUSH1 0x0 DUP1 SLOAD SWAP1 PUSH2 0x100 EXP SWAP1 DIV PUSH20 0xFFFFFFFFFFFFFFFFFFFFFFFFFFFFFFFFFFFFFFFF AND DUP2 JUMP JUMPDEST PUSH1 0x0 SWAP1 JUMP JUMPDEST PUSH1 0x0 PUSH20 0xFFFFFFFFFFFFFFFFFFFFFFFFFFFFFFFFFFFFFFFF DUP3 AND SWAP1 POP SWAP2 SWAP1 POP JUMP JUMPDEST PUSH2 0x11B DUP2 PUSH2 0xF2 JUMP JUMPDEST DUP3 MSTORE POP POP JUMP JUMPDEST PUSH1 0x0 PUSH1 0x20 DUP3 ADD SWAP1 POP PUSH2 0x136 PUSH1 0x0 DUP4 ADD DUP5 PUSH2 0x112 JUMP JUMPDEST SWAP3 SWAP2 POP POP JUMP JUMPDEST PUSH1 0x0 PUSH2 0x147 DUP3 PUSH2 0xF2 JUMP JUMPDEST SWAP1 POP SWAP2 SWAP1 POP JUMP JUMPDEST PUSH2 0x157 DUP2 PUSH2 0x13C JUMP JUMPDEST DUP3 MSTORE POP POP JUMP JUMPDEST PUSH1 0x0 PUSH1 0x20 DUP3 ADD SWAP1 POP PUSH2 0x172 PUSH1 0x0 DUP4 ADD DUP5 PUSH2 0x14E JUMP JUMPDEST SWAP3 SWAP2 POP POP JUMP INVALID LOG2 PUSH5 0x6970667358 0x22 SLT KECCAK256 GT SWAP7 DUP14 MUL PUSH10 0x6FA5584140B83C0AC389 0x1E 0xA8 GT 0x25 0x21 0x5D BASEFEE JUMPDEST PUSH24 0x465DCC573539930364736F6C634300080F00330000000000 "
				},
				"gasEstimates": {
					"creation": {
						"codeDepositCost": "86000",
						"executionCost": "24402",
						"totalCost": "110402"
					},
					"external": {
						"account()": "2511",
						"changeIt()": "2457",
						"changeIt2()": "400"
					}
				},
				"methodIdentifiers": {
					"account()": "5dab2420",
					"changeIt()": "27b5c175",
					"changeIt2()": "e5c5d723"
				}
			},
			"storageLayout": {
				"storage": [
					{
						"astId": 4,
						"contract": "contracts/address.sol:Address",
						"label": "account",
						"offset": 0,
						"slot": "0",
						"type": "t_address"
					}
				],
				"types": {
					"t_address": {
						"encoding": "inplace",
						"label": "address",
						"numberOfBytes": "20"
					}
				}
			},
			"userdoc": {
				"kind": "user",
				"methods": {},
				"version": 1
			}
		}
	}
}