{
	"contracts/TwoArray.sol": {
		"TwoArray": {
			"abi": [
				{
					"inputs": [],
					"name": "getContent",
					"outputs": [
						{
							"internalType": "uint256[2][3]",
							"name": "",
							"type": "uint256[2][3]"
						}
					],
					"stateMutability": "view",
					"type": "function"
				},
				{
					"inputs": [],
					"name": "getOneLength",
					"outputs": [
						{
							"internalType": "uint256",
							"name": "",
							"type": "uint256"
						}
					],
					"stateMutability": "view",
					"type": "function"
				},
				{
					"inputs": [],
					"name": "getTwoLength",
					"outputs": [
						{
							"internalType": "uint256",
							"name": "",
							"type": "uint256"
						}
					],
					"stateMutability": "view",
					"type": "function"
				}
			],
			"devdoc": {
				"kind": "dev",
				"methods": {},
				"version": 1
			},
			"evm": {
				"assembly": "    /* \"contracts/TwoArray.sol\":56:425  contract TwoArray {... */\n  mstore(0x40, 0x80)\n    /* \"contracts/TwoArray.sol\":80:118  uint[2][3] grade = [[1,2],[3,4],[5,6]] */\n  mload(0x40)\n  dup1\n  0x60\n  add\n  0x40\n  mstore\n  dup1\n  mload(0x40)\n  dup1\n  0x40\n  add\n  0x40\n  mstore\n  dup1\n    /* \"contracts/TwoArray.sol\":101:102  1 */\n  0x01\n    /* \"contracts/TwoArray.sol\":80:118  uint[2][3] grade = [[1,2],[3,4],[5,6]] */\n  0xff\n  and\n  dup2\n  mstore\n  0x20\n  add\n    /* \"contracts/TwoArray.sol\":103:104  2 */\n  0x02\n    /* \"contracts/TwoArray.sol\":80:118  uint[2][3] grade = [[1,2],[3,4],[5,6]] */\n  0xff\n  and\n  dup2\n  mstore\n  pop\n  dup2\n  mstore\n  0x20\n  add\n  mload(0x40)\n  dup1\n  0x40\n  add\n  0x40\n  mstore\n  dup1\n    /* \"contracts/TwoArray.sol\":107:108  3 */\n  0x03\n    /* \"contracts/TwoArray.sol\":80:118  uint[2][3] grade = [[1,2],[3,4],[5,6]] */\n  0xff\n  and\n  dup2\n  mstore\n  0x20\n  add\n    /* \"contracts/TwoArray.sol\":109:110  4 */\n  0x04\n    /* \"contracts/TwoArray.sol\":80:118  uint[2][3] grade = [[1,2],[3,4],[5,6]] */\n  0xff\n  and\n  dup2\n  mstore\n  pop\n  dup2\n  mstore\n  0x20\n  add\n  mload(0x40)\n  dup1\n  0x40\n  add\n  0x40\n  mstore\n  dup1\n    /* \"contracts/TwoArray.sol\":113:114  5 */\n  0x05\n    /* \"contracts/TwoArray.sol\":80:118  uint[2][3] grade = [[1,2],[3,4],[5,6]] */\n  0xff\n  and\n  dup2\n  mstore\n  0x20\n  add\n    /* \"contracts/TwoArray.sol\":115:116  6 */\n  0x06\n    /* \"contracts/TwoArray.sol\":80:118  uint[2][3] grade = [[1,2],[3,4],[5,6]] */\n  0xff\n  and\n  dup2\n  mstore\n  pop\n  dup2\n  mstore\n  pop\n  0x00\n  swap1\n  0x03\n  tag_1\n  swap3\n  swap2\n  swap1\n  tag_2\n  jump\t// in\ntag_1:\n  pop\n    /* \"contracts/TwoArray.sol\":56:425  contract TwoArray {... */\n  callvalue\n  dup1\n  iszero\n  tag_3\n  jumpi\n  0x00\n  dup1\n  revert\ntag_3:\n  pop\n  jump(tag_4)\ntag_2:\n  dup3\n  mul(0x02, 0x03)\n  dup2\n  add\n  swap3\n  dup3\n  iszero\n  tag_5\n  jumpi\n  swap2\n  0x20\n  mul\n  dup3\n  add\ntag_6:\n  dup3\n  dup2\n  gt\n  iszero\n  tag_7\n  jumpi\n  dup3\n  mload\n  dup3\n  swap1\n  0x02\n  tag_8\n  swap3\n  swap2\n  swap1\n  tag_9\n  jump\t// in\ntag_8:\n  pop\n  swap2\n  0x20\n  add\n  swap2\n  swap1\n  0x02\n  add\n  swap1\n  jump(tag_6)\ntag_7:\ntag_5:\n  pop\n  swap1\n  pop\n  tag_10\n  swap2\n  swap1\n  tag_11\n  jump\t// in\ntag_10:\n  pop\n  swap1\n  jump\t// out\ntag_9:\n  dup3\n  0x02\n  dup2\n  add\n  swap3\n  dup3\n  iszero\n  tag_12\n  jumpi\n  swap2\n  0x20\n  mul\n  dup3\n  add\ntag_13:\n  dup3\n  dup2\n  gt\n  iszero\n  tag_14\n  jumpi\n  dup3\n  mload\n  dup3\n  swap1\n  0xff\n  and\n  swap1\n  sstore\n  swap2\n  0x20\n  add\n  swap2\n  swap1\n  0x01\n  add\n  swap1\n  jump(tag_13)\ntag_14:\ntag_12:\n  pop\n  swap1\n  pop\n  tag_15\n  swap2\n  swap1\n  tag_16\n  jump\t// in\ntag_15:\n  pop\n  swap1\n  jump\t// out\ntag_11:\ntag_17:\n  dup1\n  dup3\n  gt\n  iszero\n  tag_18\n  jumpi\n  0x00\n  dup2\n  dup2\n  tag_19\n  swap2\n  swap1\n  tag_20\n  jump\t// in\ntag_19:\n  pop\n  0x02\n  add\n  jump(tag_17)\ntag_18:\n  pop\n  swap1\n  jump\t// out\ntag_16:\ntag_21:\n  dup1\n  dup3\n  gt\n  iszero\n  tag_22\n  jumpi\n  0x00\n  dup2\n  0x00\n  swap1\n  sstore\n  pop\n  0x01\n  add\n  jump(tag_21)\ntag_22:\n  pop\n  swap1\n  jump\t// out\ntag_20:\n  pop\n  0x00\n  dup2\n  sstore\n  0x01\n  add\n  0x00\n  swap1\n  sstore\n  jump\t// out\ntag_4:\n  dataSize(sub_0)\n  dup1\n  dataOffset(sub_0)\n  0x00\n  codecopy\n  0x00\n  return\nstop\n\nsub_0: assembly {\n        /* \"contracts/TwoArray.sol\":56:425  contract TwoArray {... */\n      mstore(0x40, 0x80)\n      callvalue\n      dup1\n      iszero\n      tag_1\n      jumpi\n      0x00\n      dup1\n      revert\n    tag_1:\n      pop\n      jumpi(tag_2, lt(calldatasize, 0x04))\n      shr(0xe0, calldataload(0x00))\n      dup1\n      0x59016c79\n      eq\n      tag_3\n      jumpi\n      dup1\n      0x63f5a649\n      eq\n      tag_4\n      jumpi\n      dup1\n      0xa6f89f0e\n      eq\n      tag_5\n      jumpi\n    tag_2:\n      0x00\n      dup1\n      revert\n        /* \"contracts/TwoArray.sol\":316:406  function getContent() public view returns(uint[2][3] memory) {... */\n    tag_3:\n      tag_6\n      tag_7\n      jump\t// in\n    tag_6:\n      mload(0x40)\n      tag_8\n      swap2\n      swap1\n      tag_9\n      jump\t// in\n    tag_8:\n      mload(0x40)\n      dup1\n      swap2\n      sub\n      swap1\n      return\n        /* \"contracts/TwoArray.sol\":221:310  function getTwoLength() public view returns(uint) {... */\n    tag_4:\n      tag_10\n      tag_11\n      jump\t// in\n    tag_10:\n      mload(0x40)\n      tag_12\n      swap2\n      swap1\n      tag_13\n      jump\t// in\n    tag_12:\n      mload(0x40)\n      dup1\n      swap2\n      sub\n      swap1\n      return\n        /* \"contracts/TwoArray.sol\":129:215  function getOneLength() public view returns(uint) {... */\n    tag_5:\n      tag_14\n      tag_15\n      jump\t// in\n    tag_14:\n      mload(0x40)\n      tag_16\n      swap2\n      swap1\n      tag_13\n      jump\t// in\n    tag_16:\n      mload(0x40)\n      dup1\n      swap2\n      sub\n      swap1\n      return\n        /* \"contracts/TwoArray.sol\":316:406  function getContent() public view returns(uint[2][3] memory) {... */\n    tag_7:\n        /* \"contracts/TwoArray.sol\":358:375  uint[2][3] memory */\n      tag_17\n      tag_18\n      jump\t// in\n    tag_17:\n        /* \"contracts/TwoArray.sol\":394:399  grade */\n      0x00\n        /* \"contracts/TwoArray.sol\":387:399  return grade */\n      0x03\n      dup1\n      0x20\n      mul\n      mload(0x40)\n      swap1\n      dup2\n      add\n      0x40\n      mstore\n      dup1\n      swap3\n      swap2\n      swap1\n      0x00\n      swap1\n    tag_20:\n      dup3\n      dup3\n      lt\n      iszero\n      tag_21\n      jumpi\n      dup4\n      dup3\n      0x02\n      mul\n      add\n      0x02\n      dup1\n      0x20\n      mul\n      mload(0x40)\n      swap1\n      dup2\n      add\n      0x40\n      mstore\n      dup1\n      swap3\n      swap2\n      swap1\n      dup3\n      0x02\n      dup1\n      iszero\n      tag_23\n      jumpi\n      0x20\n      mul\n      dup3\n      add\n      swap2\n    tag_24:\n      dup2\n      sload\n      dup2\n      mstore\n      0x20\n      add\n      swap1\n      0x01\n      add\n      swap1\n      dup1\n      dup4\n      gt\n      tag_24\n      jumpi\n    tag_23:\n      pop\n      pop\n      pop\n      pop\n      pop\n      dup2\n      mstore\n      0x20\n      add\n      swap1\n      0x01\n      add\n      swap1\n      jump(tag_20)\n    tag_21:\n      pop\n      pop\n      pop\n      pop\n      swap1\n      pop\n        /* \"contracts/TwoArray.sol\":316:406  function getContent() public view returns(uint[2][3] memory) {... */\n      swap1\n      jump\t// out\n        /* \"contracts/TwoArray.sol\":221:310  function getTwoLength() public view returns(uint) {... */\n    tag_11:\n        /* \"contracts/TwoArray.sol\":265:269  uint */\n      0x00\n        /* \"contracts/TwoArray.sol\":288:293  grade */\n      dup1\n        /* \"contracts/TwoArray.sol\":294:295  0 */\n      0x00\n        /* \"contracts/TwoArray.sol\":288:296  grade[0] */\n      0x03\n      dup2\n      lt\n      tag_26\n      jumpi\n      tag_27\n      tag_28\n      jump\t// in\n    tag_27:\n    tag_26:\n      pop\n      pop\n        /* \"contracts/TwoArray.sol\":288:303  grade[0].length */\n      0x02\n        /* \"contracts/TwoArray.sol\":281:303  return grade[0].length */\n      swap1\n      pop\n        /* \"contracts/TwoArray.sol\":221:310  function getTwoLength() public view returns(uint) {... */\n      swap1\n      jump\t// out\n        /* \"contracts/TwoArray.sol\":129:215  function getOneLength() public view returns(uint) {... */\n    tag_15:\n        /* \"contracts/TwoArray.sol\":173:177  uint */\n      0x00\n        /* \"contracts/TwoArray.sol\":196:208  grade.length */\n      0x03\n        /* \"contracts/TwoArray.sol\":189:208  return grade.length */\n      swap1\n      pop\n        /* \"contracts/TwoArray.sol\":129:215  function getOneLength() public view returns(uint) {... */\n      swap1\n      jump\t// out\n    tag_18:\n      mload(0x40)\n      dup1\n      0x60\n      add\n      0x40\n      mstore\n      dup1\n      0x03\n      swap1\n    tag_31:\n      tag_32\n      tag_33\n      jump\t// in\n    tag_32:\n      dup2\n      mstore\n      0x20\n      add\n      swap1\n      0x01\n      swap1\n      sub\n      swap1\n      dup2\n      tag_31\n      jumpi\n      swap1\n      pop\n      pop\n      swap1\n      jump\t// out\n    tag_33:\n      mload(0x40)\n      dup1\n      0x40\n      add\n      0x40\n      mstore\n      dup1\n      0x02\n      swap1\n      0x20\n      dup3\n      mul\n      dup1\n      calldatasize\n      dup4\n      calldatacopy\n      dup1\n      dup3\n      add\n      swap2\n      pop\n      pop\n      swap1\n      pop\n      pop\n      swap1\n      jump\t// out\n        /* \"#utility.yul\":7:134   */\n    tag_34:\n        /* \"#utility.yul\":95:101   */\n      0x00\n        /* \"#utility.yul\":123:127   */\n      0x03\n        /* \"#utility.yul\":113:127   */\n      swap1\n      pop\n        /* \"#utility.yul\":7:134   */\n      swap2\n      swap1\n      pop\n      jump\t// out\n        /* \"#utility.yul\":140:306   */\n    tag_35:\n        /* \"#utility.yul\":260:271   */\n      0x00\n        /* \"#utility.yul\":297:300   */\n      dup2\n        /* \"#utility.yul\":282:300   */\n      swap1\n      pop\n        /* \"#utility.yul\":140:306   */\n      swap3\n      swap2\n      pop\n      pop\n      jump\t// out\n        /* \"#utility.yul\":312:433   */\n    tag_36:\n        /* \"#utility.yul\":400:404   */\n      0x00\n        /* \"#utility.yul\":423:426   */\n      dup2\n        /* \"#utility.yul\":415:426   */\n      swap1\n      pop\n        /* \"#utility.yul\":312:433   */\n      swap2\n      swap1\n      pop\n      jump\t// out\n        /* \"#utility.yul\":439:543   */\n    tag_37:\n        /* \"#utility.yul\":504:510   */\n      0x00\n        /* \"#utility.yul\":532:536   */\n      0x02\n        /* \"#utility.yul\":522:536   */\n      swap1\n      pop\n        /* \"#utility.yul\":439:543   */\n      swap2\n      swap1\n      pop\n      jump\t// out\n        /* \"#utility.yul\":549:682   */\n    tag_38:\n        /* \"#utility.yul\":636:647   */\n      0x00\n        /* \"#utility.yul\":673:676   */\n      dup2\n        /* \"#utility.yul\":658:676   */\n      swap1\n      pop\n        /* \"#utility.yul\":549:682   */\n      swap3\n      swap2\n      pop\n      pop\n      jump\t// out\n        /* \"#utility.yul\":688:786   */\n    tag_39:\n        /* \"#utility.yul\":753:757   */\n      0x00\n        /* \"#utility.yul\":776:779   */\n      dup2\n        /* \"#utility.yul\":768:779   */\n      swap1\n      pop\n        /* \"#utility.yul\":688:786   */\n      swap2\n      swap1\n      pop\n      jump\t// out\n        /* \"#utility.yul\":792:869   */\n    tag_40:\n        /* \"#utility.yul\":829:836   */\n      0x00\n        /* \"#utility.yul\":858:863   */\n      dup2\n        /* \"#utility.yul\":847:863   */\n      swap1\n      pop\n        /* \"#utility.yul\":792:869   */\n      swap2\n      swap1\n      pop\n      jump\t// out\n        /* \"#utility.yul\":875:983   */\n    tag_41:\n        /* \"#utility.yul\":952:976   */\n      tag_58\n        /* \"#utility.yul\":970:975   */\n      dup2\n        /* \"#utility.yul\":952:976   */\n      tag_40\n      jump\t// in\n    tag_58:\n        /* \"#utility.yul\":947:950   */\n      dup3\n        /* \"#utility.yul\":940:977   */\n      mstore\n        /* \"#utility.yul\":875:983   */\n      pop\n      pop\n      jump\t// out\n        /* \"#utility.yul\":989:1168   */\n    tag_42:\n        /* \"#utility.yul\":1058:1068   */\n      0x00\n        /* \"#utility.yul\":1079:1125   */\n      tag_60\n        /* \"#utility.yul\":1121:1124   */\n      dup4\n        /* \"#utility.yul\":1113:1119   */\n      dup4\n        /* \"#utility.yul\":1079:1125   */\n      tag_41\n      jump\t// in\n    tag_60:\n        /* \"#utility.yul\":1157:1161   */\n      0x20\n        /* \"#utility.yul\":1152:1155   */\n      dup4\n        /* \"#utility.yul\":1148:1162   */\n      add\n        /* \"#utility.yul\":1134:1162   */\n      swap1\n      pop\n        /* \"#utility.yul\":989:1168   */\n      swap3\n      swap2\n      pop\n      pop\n      jump\t// out\n        /* \"#utility.yul\":1174:1285   */\n    tag_43:\n        /* \"#utility.yul\":1242:1246   */\n      0x00\n        /* \"#utility.yul\":1274:1278   */\n      0x20\n        /* \"#utility.yul\":1269:1272   */\n      dup3\n        /* \"#utility.yul\":1265:1279   */\n      add\n        /* \"#utility.yul\":1257:1279   */\n      swap1\n      pop\n        /* \"#utility.yul\":1174:1285   */\n      swap2\n      swap1\n      pop\n      jump\t// out\n        /* \"#utility.yul\":1323:1997   */\n    tag_44:\n        /* \"#utility.yul\":1449:1501   */\n      tag_63\n        /* \"#utility.yul\":1495:1500   */\n      dup2\n        /* \"#utility.yul\":1449:1501   */\n      tag_37\n      jump\t// in\n    tag_63:\n        /* \"#utility.yul\":1517:1591   */\n      tag_64\n        /* \"#utility.yul\":1584:1590   */\n      dup2\n        /* \"#utility.yul\":1579:1582   */\n      dup5\n        /* \"#utility.yul\":1517:1591   */\n      tag_38\n      jump\t// in\n    tag_64:\n        /* \"#utility.yul\":1510:1591   */\n      swap3\n      pop\n        /* \"#utility.yul\":1615:1669   */\n      tag_65\n        /* \"#utility.yul\":1663:1668   */\n      dup3\n        /* \"#utility.yul\":1615:1669   */\n      tag_39\n      jump\t// in\n    tag_65:\n        /* \"#utility.yul\":1692:1699   */\n      dup1\n        /* \"#utility.yul\":1723:1724   */\n      0x00\n        /* \"#utility.yul\":1708:1990   */\n    tag_66:\n        /* \"#utility.yul\":1733:1739   */\n      dup4\n        /* \"#utility.yul\":1730:1731   */\n      dup2\n        /* \"#utility.yul\":1727:1740   */\n      lt\n        /* \"#utility.yul\":1708:1990   */\n      iszero\n      tag_68\n      jumpi\n        /* \"#utility.yul\":1809:1815   */\n      dup2\n        /* \"#utility.yul\":1803:1816   */\n      mload\n        /* \"#utility.yul\":1836:1899   */\n      tag_69\n        /* \"#utility.yul\":1895:1898   */\n      dup8\n        /* \"#utility.yul\":1880:1893   */\n      dup3\n        /* \"#utility.yul\":1836:1899   */\n      tag_42\n      jump\t// in\n    tag_69:\n        /* \"#utility.yul\":1829:1899   */\n      swap7\n      pop\n        /* \"#utility.yul\":1922:1980   */\n      tag_70\n        /* \"#utility.yul\":1973:1979   */\n      dup4\n        /* \"#utility.yul\":1922:1980   */\n      tag_43\n      jump\t// in\n    tag_70:\n        /* \"#utility.yul\":1912:1980   */\n      swap3\n      pop\n        /* \"#utility.yul\":1768:1990   */\n      pop\n        /* \"#utility.yul\":1755:1756   */\n      0x01\n        /* \"#utility.yul\":1752:1753   */\n      dup2\n        /* \"#utility.yul\":1748:1757   */\n      add\n        /* \"#utility.yul\":1743:1757   */\n      swap1\n      pop\n        /* \"#utility.yul\":1708:1990   */\n      jump(tag_66)\n    tag_68:\n        /* \"#utility.yul\":1712:1726   */\n      pop\n        /* \"#utility.yul\":1425:1997   */\n      pop\n      pop\n      pop\n        /* \"#utility.yul\":1323:1997   */\n      pop\n      pop\n      jump\t// out\n        /* \"#utility.yul\":2003:2274   */\n    tag_45:\n        /* \"#utility.yul\":2118:2128   */\n      0x00\n        /* \"#utility.yul\":2139:2231   */\n      tag_72\n        /* \"#utility.yul\":2227:2230   */\n      dup4\n        /* \"#utility.yul\":2219:2225   */\n      dup4\n        /* \"#utility.yul\":2139:2231   */\n      tag_44\n      jump\t// in\n    tag_72:\n        /* \"#utility.yul\":2263:2267   */\n      0x40\n        /* \"#utility.yul\":2258:2261   */\n      dup4\n        /* \"#utility.yul\":2254:2268   */\n      add\n        /* \"#utility.yul\":2240:2268   */\n      swap1\n      pop\n        /* \"#utility.yul\":2003:2274   */\n      swap3\n      swap2\n      pop\n      pop\n      jump\t// out\n        /* \"#utility.yul\":2280:2414   */\n    tag_46:\n        /* \"#utility.yul\":2371:2375   */\n      0x00\n        /* \"#utility.yul\":2403:2407   */\n      0x20\n        /* \"#utility.yul\":2398:2401   */\n      dup3\n        /* \"#utility.yul\":2394:2408   */\n      add\n        /* \"#utility.yul\":2386:2408   */\n      swap1\n      pop\n        /* \"#utility.yul\":2280:2414   */\n      swap2\n      swap1\n      pop\n      jump\t// out\n        /* \"#utility.yul\":2458:3336   */\n    tag_47:\n        /* \"#utility.yul\":2640:2715   */\n      tag_75\n        /* \"#utility.yul\":2709:2714   */\n      dup2\n        /* \"#utility.yul\":2640:2715   */\n      tag_34\n      jump\t// in\n    tag_75:\n        /* \"#utility.yul\":2731:2838   */\n      tag_76\n        /* \"#utility.yul\":2831:2837   */\n      dup2\n        /* \"#utility.yul\":2826:2829   */\n      dup5\n        /* \"#utility.yul\":2731:2838   */\n      tag_35\n      jump\t// in\n    tag_76:\n        /* \"#utility.yul\":2724:2838   */\n      swap3\n      pop\n        /* \"#utility.yul\":2862:2939   */\n      tag_77\n        /* \"#utility.yul\":2933:2938   */\n      dup3\n        /* \"#utility.yul\":2862:2939   */\n      tag_36\n      jump\t// in\n    tag_77:\n        /* \"#utility.yul\":2962:2969   */\n      dup1\n        /* \"#utility.yul\":2993:2994   */\n      0x00\n        /* \"#utility.yul\":2978:3329   */\n    tag_78:\n        /* \"#utility.yul\":3003:3009   */\n      dup4\n        /* \"#utility.yul\":3000:3001   */\n      dup2\n        /* \"#utility.yul\":2997:3010   */\n      lt\n        /* \"#utility.yul\":2978:3329   */\n      iszero\n      tag_80\n      jumpi\n        /* \"#utility.yul\":3079:3085   */\n      dup2\n        /* \"#utility.yul\":3073:3086   */\n      mload\n        /* \"#utility.yul\":3106:3215   */\n      tag_81\n        /* \"#utility.yul\":3211:3214   */\n      dup8\n        /* \"#utility.yul\":3196:3209   */\n      dup3\n        /* \"#utility.yul\":3106:3215   */\n      tag_45\n      jump\t// in\n    tag_81:\n        /* \"#utility.yul\":3099:3215   */\n      swap7\n      pop\n        /* \"#utility.yul\":3238:3319   */\n      tag_82\n        /* \"#utility.yul\":3312:3318   */\n      dup4\n        /* \"#utility.yul\":3238:3319   */\n      tag_46\n      jump\t// in\n    tag_82:\n        /* \"#utility.yul\":3228:3319   */\n      swap3\n      pop\n        /* \"#utility.yul\":3038:3329   */\n      pop\n        /* \"#utility.yul\":3025:3026   */\n      0x01\n        /* \"#utility.yul\":3022:3023   */\n      dup2\n        /* \"#utility.yul\":3018:3027   */\n      add\n        /* \"#utility.yul\":3013:3027   */\n      swap1\n      pop\n        /* \"#utility.yul\":2978:3329   */\n      jump(tag_78)\n    tag_80:\n        /* \"#utility.yul\":2982:2996   */\n      pop\n        /* \"#utility.yul\":2616:3336   */\n      pop\n      pop\n      pop\n        /* \"#utility.yul\":2458:3336   */\n      pop\n      pop\n      jump\t// out\n        /* \"#utility.yul\":3342:3749   */\n    tag_9:\n        /* \"#utility.yul\":3527:3531   */\n      0x00\n        /* \"#utility.yul\":3565:3568   */\n      0xc0\n        /* \"#utility.yul\":3554:3563   */\n      dup3\n        /* \"#utility.yul\":3550:3569   */\n      add\n        /* \"#utility.yul\":3542:3569   */\n      swap1\n      pop\n        /* \"#utility.yul\":3579:3742   */\n      tag_84\n        /* \"#utility.yul\":3739:3740   */\n      0x00\n        /* \"#utility.yul\":3728:3737   */\n      dup4\n        /* \"#utility.yul\":3724:3741   */\n      add\n        /* \"#utility.yul\":3715:3721   */\n      dup5\n        /* \"#utility.yul\":3579:3742   */\n      tag_47\n      jump\t// in\n    tag_84:\n        /* \"#utility.yul\":3342:3749   */\n      swap3\n      swap2\n      pop\n      pop\n      jump\t// out\n        /* \"#utility.yul\":3755:3873   */\n    tag_48:\n        /* \"#utility.yul\":3842:3866   */\n      tag_86\n        /* \"#utility.yul\":3860:3865   */\n      dup2\n        /* \"#utility.yul\":3842:3866   */\n      tag_40\n      jump\t// in\n    tag_86:\n        /* \"#utility.yul\":3837:3840   */\n      dup3\n        /* \"#utility.yul\":3830:3867   */\n      mstore\n        /* \"#utility.yul\":3755:3873   */\n      pop\n      pop\n      jump\t// out\n        /* \"#utility.yul\":3879:4101   */\n    tag_13:\n        /* \"#utility.yul\":3972:3976   */\n      0x00\n        /* \"#utility.yul\":4010:4012   */\n      0x20\n        /* \"#utility.yul\":3999:4008   */\n      dup3\n        /* \"#utility.yul\":3995:4013   */\n      add\n        /* \"#utility.yul\":3987:4013   */\n      swap1\n      pop\n        /* \"#utility.yul\":4023:4094   */\n      tag_88\n        /* \"#utility.yul\":4091:4092   */\n      0x00\n        /* \"#utility.yul\":4080:4089   */\n      dup4\n        /* \"#utility.yul\":4076:4093   */\n      add\n        /* \"#utility.yul\":4067:4073   */\n      dup5\n        /* \"#utility.yul\":4023:4094   */\n      tag_48\n      jump\t// in\n    tag_88:\n        /* \"#utility.yul\":3879:4101   */\n      swap3\n      swap2\n      pop\n      pop\n      jump\t// out\n        /* \"#utility.yul\":4107:4287   */\n    tag_28:\n        /* \"#utility.yul\":4155:4232   */\n      0x4e487b7100000000000000000000000000000000000000000000000000000000\n        /* \"#utility.yul\":4152:4153   */\n      0x00\n        /* \"#utility.yul\":4145:4233   */\n      mstore\n        /* \"#utility.yul\":4252:4256   */\n      0x32\n        /* \"#utility.yul\":4249:4250   */\n      0x04\n        /* \"#utility.yul\":4242:4257   */\n      mstore\n        /* \"#utility.yul\":4276:4280   */\n      0x24\n        /* \"#utility.yul\":4273:4274   */\n      0x00\n        /* \"#utility.yul\":4266:4281   */\n      revert\n\n    auxdata: 0xa26469706673582212203f0c0cad4c3cdf6e292bbb6c40b40dea13ae9891f066a93e3009c64baabadaf864736f6c634300080f0033\n}\n",
				"bytecode": {
					"linkReferences": {},
					"object": "608060405260405180606001604052806040518060400160405280600160ff168152602001600260ff1681525081526020016040518060400160405280600360ff168152602001600460ff1681525081526020016040518060400160405280600560ff168152602001600660ff168152508152506000906003610083929190610096565b5034801561009057600080fd5b5061017b565b82600360020281019282156100d6579160200282015b828111156100d5578251829060026100c59291906100e7565b50916020019190600201906100ac565b5b5090506100e3919061012c565b5090565b826002810192821561011b579160200282015b8281111561011a578251829060ff169055916020019190600101906100fa565b5b5090506101289190610150565b5090565b5b8082111561014c5760008181610143919061016d565b5060020161012d565b5090565b5b80821115610169576000816000905550600101610151565b5090565b506000815560010160009055565b6103958061018a6000396000f3fe608060405234801561001057600080fd5b50600436106100415760003560e01c806359016c791461004657806363f5a64914610064578063a6f89f0e14610082575b600080fd5b61004e6100a0565b60405161005b91906102eb565b60405180910390f35b61006c610123565b6040516100799190610315565b60405180910390f35b61008a610142565b6040516100979190610315565b60405180910390f35b6100a861014b565b6000600380602002604051908101604052809291906000905b8282101561011a57838260020201600280602002604051908101604052809291908260028015610106576020028201915b8154815260200190600101908083116100f2575b5050505050815260200190600101906100c1565b50505050905090565b60008060006003811061013957610138610330565b5b50506002905090565b60006003905090565b60405180606001604052806003905b610162610178565b81526020019060019003908161015a5790505090565b6040518060400160405280600290602082028036833780820191505090505090565b600060039050919050565b600081905092915050565b6000819050919050565b600060029050919050565b600081905092915050565b6000819050919050565b6000819050919050565b6101ed816101da565b82525050565b60006101ff83836101e4565b60208301905092915050565b6000602082019050919050565b610221816101ba565b61022b81846101c5565b9250610236826101d0565b8060005b8381101561026757815161024e87826101f3565b96506102598361020b565b92505060018101905061023a565b505050505050565b600061027b8383610218565b60408301905092915050565b6000602082019050919050565b61029d8161019a565b6102a781846101a5565b92506102b2826101b0565b8060005b838110156102e35781516102ca878261026f565b96506102d583610287565b9250506001810190506102b6565b505050505050565b600060c0820190506103006000830184610294565b92915050565b61030f816101da565b82525050565b600060208201905061032a6000830184610306565b92915050565b7f4e487b7100000000000000000000000000000000000000000000000000000000600052603260045260246000fdfea26469706673582212203f0c0cad4c3cdf6e292bbb6c40b40dea13ae9891f066a93e3009c64baabadaf864736f6c634300080f0033",
					"opcodes": "PUSH1 0x80 PUSH1 0x40 MSTORE PUSH1 0x40 MLOAD DUP1 PUSH1 0x60 ADD PUSH1 0x40 MSTORE DUP1 PUSH1 0x40 MLOAD DUP1 PUSH1 0x40 ADD PUSH1 0x40 MSTORE DUP1 PUSH1 0x1 PUSH1 0xFF AND DUP2 MSTORE PUSH1 0x20 ADD PUSH1 0x2 PUSH1 0xFF AND DUP2 MSTORE POP DUP2 MSTORE PUSH1 0x20 ADD PUSH1 0x40 MLOAD DUP1 PUSH1 0x40 ADD PUSH1 0x40 MSTORE DUP1 PUSH1 0x3 PUSH1 0xFF AND DUP2 MSTORE PUSH1 0x20 ADD PUSH1 0x4 PUSH1 0xFF AND DUP2 MSTORE POP DUP2 MSTORE PUSH1 0x20 ADD PUSH1 0x40 MLOAD DUP1 PUSH1 0x40 ADD PUSH1 0x40 MSTORE DUP1 PUSH1 0x5 PUSH1 0xFF AND DUP2 MSTORE PUSH1 0x20 ADD PUSH1 0x6 PUSH1 0xFF AND DUP2 MSTORE POP DUP2 MSTORE POP PUSH1 0x0 SWAP1 PUSH1 0x3 PUSH2 0x83 SWAP3 SWAP2 SWAP1 PUSH2 0x96 JUMP JUMPDEST POP CALLVALUE DUP1 ISZERO PUSH2 0x90 JUMPI PUSH1 0x0 DUP1 REVERT JUMPDEST POP PUSH2 0x17B JUMP JUMPDEST DUP3 PUSH1 0x3 PUSH1 0x2 MUL DUP2 ADD SWAP3 DUP3 ISZERO PUSH2 0xD6 JUMPI SWAP2 PUSH1 0x20 MUL DUP3 ADD JUMPDEST DUP3 DUP2 GT ISZERO PUSH2 0xD5 JUMPI DUP3 MLOAD DUP3 SWAP1 PUSH1 0x2 PUSH2 0xC5 SWAP3 SWAP2 SWAP1 PUSH2 0xE7 JUMP JUMPDEST POP SWAP2 PUSH1 0x20 ADD SWAP2 SWAP1 PUSH1 0x2 ADD SWAP1 PUSH2 0xAC JUMP JUMPDEST JUMPDEST POP SWAP1 POP PUSH2 0xE3 SWAP2 SWAP1 PUSH2 0x12C JUMP JUMPDEST POP SWAP1 JUMP JUMPDEST DUP3 PUSH1 0x2 DUP2 ADD SWAP3 DUP3 ISZERO PUSH2 0x11B JUMPI SWAP2 PUSH1 0x20 MUL DUP3 ADD JUMPDEST DUP3 DUP2 GT ISZERO PUSH2 0x11A JUMPI DUP3 MLOAD DUP3 SWAP1 PUSH1 0xFF AND SWAP1 SSTORE SWAP2 PUSH1 0x20 ADD SWAP2 SWAP1 PUSH1 0x1 ADD SWAP1 PUSH2 0xFA JUMP JUMPDEST JUMPDEST POP SWAP1 POP PUSH2 0x128 SWAP2 SWAP1 PUSH2 0x150 JUMP JUMPDEST POP SWAP1 JUMP JUMPDEST JUMPDEST DUP1 DUP3 GT ISZERO PUSH2 0x14C JUMPI PUSH1 0x0 DUP2 DUP2 PUSH2 0x143 SWAP2 SWAP1 PUSH2 0x16D JUMP JUMPDEST POP PUSH1 0x2 ADD PUSH2 0x12D JUMP JUMPDEST POP SWAP1 JUMP JUMPDEST JUMPDEST DUP1 DUP3 GT ISZERO PUSH2 0x169 JUMPI PUSH1 0x0 DUP2 PUSH1 0x0 SWAP1 SSTORE POP PUSH1 0x1 ADD PUSH2 0x151 JUMP JUMPDEST POP SWAP1 JUMP JUMPDEST POP PUSH1 0x0 DUP2 SSTORE PUSH1 0x1 ADD PUSH1 0x0 SWAP1 SSTORE JUMP JUMPDEST PUSH2 0x395 DUP1 PUSH2 0x18A PUSH1 0x0 CODECOPY PUSH1 0x0 RETURN INVALID PUSH1 0x80 PUSH1 0x40 MSTORE CALLVALUE DUP1 ISZERO PUSH2 0x10 JUMPI PUSH1 0x0 DUP1 REVERT JUMPDEST POP PUSH1 0x4 CALLDATASIZE LT PUSH2 0x41 JUMPI PUSH1 0x0 CALLDATALOAD PUSH1 0xE0 SHR DUP1 PUSH4 0x59016C79 EQ PUSH2 0x46 JUMPI DUP1 PUSH4 0x63F5A649 EQ PUSH2 0x64 JUMPI DUP1 PUSH4 0xA6F89F0E EQ PUSH2 0x82 JUMPI JUMPDEST PUSH1 0x0 DUP1 REVERT JUMPDEST PUSH2 0x4E PUSH2 0xA0 JUMP JUMPDEST PUSH1 0x40 MLOAD PUSH2 0x5B SWAP2 SWAP1 PUSH2 0x2EB JUMP JUMPDEST PUSH1 0x40 MLOAD DUP1 SWAP2 SUB SWAP1 RETURN JUMPDEST PUSH2 0x6C PUSH2 0x123 JUMP JUMPDEST PUSH1 0x40 MLOAD PUSH2 0x79 SWAP2 SWAP1 PUSH2 0x315 JUMP JUMPDEST PUSH1 0x40 MLOAD DUP1 SWAP2 SUB SWAP1 RETURN JUMPDEST PUSH2 0x8A PUSH2 0x142 JUMP JUMPDEST PUSH1 0x40 MLOAD PUSH2 0x97 SWAP2 SWAP1 PUSH2 0x315 JUMP JUMPDEST PUSH1 0x40 MLOAD DUP1 SWAP2 SUB SWAP1 RETURN JUMPDEST PUSH2 0xA8 PUSH2 0x14B JUMP JUMPDEST PUSH1 0x0 PUSH1 0x3 DUP1 PUSH1 0x20 MUL PUSH1 0x40 MLOAD SWAP1 DUP2 ADD PUSH1 0x40 MSTORE DUP1 SWAP3 SWAP2 SWAP1 PUSH1 0x0 SWAP1 JUMPDEST DUP3 DUP3 LT ISZERO PUSH2 0x11A JUMPI DUP4 DUP3 PUSH1 0x2 MUL ADD PUSH1 0x2 DUP1 PUSH1 0x20 MUL PUSH1 0x40 MLOAD SWAP1 DUP2 ADD PUSH1 0x40 MSTORE DUP1 SWAP3 SWAP2 SWAP1 DUP3 PUSH1 0x2 DUP1 ISZERO PUSH2 0x106 JUMPI PUSH1 0x20 MUL DUP3 ADD SWAP2 JUMPDEST DUP2 SLOAD DUP2 MSTORE PUSH1 0x20 ADD SWAP1 PUSH1 0x1 ADD SWAP1 DUP1 DUP4 GT PUSH2 0xF2 JUMPI JUMPDEST POP POP POP POP POP DUP2 MSTORE PUSH1 0x20 ADD SWAP1 PUSH1 0x1 ADD SWAP1 PUSH2 0xC1 JUMP JUMPDEST POP POP POP POP SWAP1 POP SWAP1 JUMP JUMPDEST PUSH1 0x0 DUP1 PUSH1 0x0 PUSH1 0x3 DUP2 LT PUSH2 0x139 JUMPI PUSH2 0x138 PUSH2 0x330 JUMP JUMPDEST JUMPDEST POP POP PUSH1 0x2 SWAP1 POP SWAP1 JUMP JUMPDEST PUSH1 0x0 PUSH1 0x3 SWAP1 POP SWAP1 JUMP JUMPDEST PUSH1 0x40 MLOAD DUP1 PUSH1 0x60 ADD PUSH1 0x40 MSTORE DUP1 PUSH1 0x3 SWAP1 JUMPDEST PUSH2 0x162 PUSH2 0x178 JUMP JUMPDEST DUP2 MSTORE PUSH1 0x20 ADD SWAP1 PUSH1 0x1 SWAP1 SUB SWAP1 DUP2 PUSH2 0x15A JUMPI SWAP1 POP POP SWAP1 JUMP JUMPDEST PUSH1 0x40 MLOAD DUP1 PUSH1 0x40 ADD PUSH1 0x40 MSTORE DUP1 PUSH1 0x2 SWAP1 PUSH1 0x20 DUP3 MUL DUP1 CALLDATASIZE DUP4 CALLDATACOPY DUP1 DUP3 ADD SWAP2 POP POP SWAP1 POP POP SWAP1 JUMP JUMPDEST PUSH1 0x0 PUSH1 0x3 SWAP1 POP SWAP2 SWAP1 POP JUMP JUMPDEST PUSH1 0x0 DUP2 SWAP1 POP SWAP3 SWAP2 POP POP JUMP JUMPDEST PUSH1 0x0 DUP2 SWAP1 POP SWAP2 SWAP1 POP JUMP JUMPDEST PUSH1 0x0 PUSH1 0x2 SWAP1 POP SWAP2 SWAP1 POP JUMP JUMPDEST PUSH1 0x0 DUP2 SWAP1 POP SWAP3 SWAP2 POP POP JUMP JUMPDEST PUSH1 0x0 DUP2 SWAP1 POP SWAP2 SWAP1 POP JUMP JUMPDEST PUSH1 0x0 DUP2 SWAP1 POP SWAP2 SWAP1 POP JUMP JUMPDEST PUSH2 0x1ED DUP2 PUSH2 0x1DA JUMP JUMPDEST DUP3 MSTORE POP POP JUMP JUMPDEST PUSH1 0x0 PUSH2 0x1FF DUP4 DUP4 PUSH2 0x1E4 JUMP JUMPDEST PUSH1 0x20 DUP4 ADD SWAP1 POP SWAP3 SWAP2 POP POP JUMP JUMPDEST PUSH1 0x0 PUSH1 0x20 DUP3 ADD SWAP1 POP SWAP2 SWAP1 POP JUMP JUMPDEST PUSH2 0x221 DUP2 PUSH2 0x1BA JUMP JUMPDEST PUSH2 0x22B DUP2 DUP5 PUSH2 0x1C5 JUMP JUMPDEST SWAP3 POP PUSH2 0x236 DUP3 PUSH2 0x1D0 JUMP JUMPDEST DUP1 PUSH1 0x0 JUMPDEST DUP4 DUP2 LT ISZERO PUSH2 0x267 JUMPI DUP2 MLOAD PUSH2 0x24E DUP8 DUP3 PUSH2 0x1F3 JUMP JUMPDEST SWAP7 POP PUSH2 0x259 DUP4 PUSH2 0x20B JUMP JUMPDEST SWAP3 POP POP PUSH1 0x1 DUP2 ADD SWAP1 POP PUSH2 0x23A JUMP JUMPDEST POP POP POP POP POP POP JUMP JUMPDEST PUSH1 0x0 PUSH2 0x27B DUP4 DUP4 PUSH2 0x218 JUMP JUMPDEST PUSH1 0x40 DUP4 ADD SWAP1 POP SWAP3 SWAP2 POP POP JUMP JUMPDEST PUSH1 0x0 PUSH1 0x20 DUP3 ADD SWAP1 POP SWAP2 SWAP1 POP JUMP JUMPDEST PUSH2 0x29D DUP2 PUSH2 0x19A JUMP JUMPDEST PUSH2 0x2A7 DUP2 DUP5 PUSH2 0x1A5 JUMP JUMPDEST SWAP3 POP PUSH2 0x2B2 DUP3 PUSH2 0x1B0 JUMP JUMPDEST DUP1 PUSH1 0x0 JUMPDEST DUP4 DUP2 LT ISZERO PUSH2 0x2E3 JUMPI DUP2 MLOAD PUSH2 0x2CA DUP8 DUP3 PUSH2 0x26F JUMP JUMPDEST SWAP7 POP PUSH2 0x2D5 DUP4 PUSH2 0x287 JUMP JUMPDEST SWAP3 POP POP PUSH1 0x1 DUP2 ADD SWAP1 POP PUSH2 0x2B6 JUMP JUMPDEST POP POP POP POP POP POP JUMP JUMPDEST PUSH1 0x0 PUSH1 0xC0 DUP3 ADD SWAP1 POP PUSH2 0x300 PUSH1 0x0 DUP4 ADD DUP5 PUSH2 0x294 JUMP JUMPDEST SWAP3 SWAP2 POP POP JUMP JUMPDEST PUSH2 0x30F DUP2 PUSH2 0x1DA JUMP JUMPDEST DUP3 MSTORE POP POP JUMP JUMPDEST PUSH1 0x0 PUSH1 0x20 DUP3 ADD SWAP1 POP PUSH2 0x32A PUSH1 0x0 DUP4 ADD DUP5 PUSH2 0x306 JUMP JUMPDEST SWAP3 SWAP2 POP POP JUMP JUMPDEST PUSH32 0x4E487B7100000000000000000000000000000000000000000000000000000000 PUSH1 0x0 MSTORE PUSH1 0x32 PUSH1 0x4 MSTORE PUSH1 0x24 PUSH1 0x0 REVERT INVALID LOG2 PUSH5 0x6970667358 0x22 SLT KECCAK256 EXTCODEHASH 0xC 0xC 0xAD 0x4C EXTCODECOPY 0xDF PUSH15 0x292BBB6C40B40DEA13AE9891F066A9 RETURNDATACOPY ADDRESS MULMOD 0xC6 0x4B 0xAA 0xBA 0xDA 0xF8 PUSH5 0x736F6C6343 STOP ADDMOD 0xF STOP CALLER "
				},
				"gasEstimates": {
					"creation": {
						"codeDepositCost": "183400",
						"executionCost": "infinite",
						"totalCost": "infinite"
					},
					"external": {
						"getContent()": "infinite",
						"getOneLength()": "359",
						"getTwoLength()": "370"
					}
				},
				"methodIdentifiers": {
					"getContent()": "59016c79",
					"getOneLength()": "a6f89f0e",
					"getTwoLength()": "63f5a649"
				}
			},
			"storageLayout": {
				"storage": [
					{
						"astId": 17,
						"contract": "contracts/TwoArray.sol:TwoArray",
						"label": "grade",
						"offset": 0,
						"slot": "0",
						"type": "t_array(t_array(t_uint256)2_storage)3_storage"
					}
				],
				"types": {
					"t_array(t_array(t_uint256)2_storage)3_storage": {
						"base": "t_array(t_uint256)2_storage",
						"encoding": "inplace",
						"label": "uint256[2][3]",
						"numberOfBytes": "192"
					},
					"t_array(t_uint256)2_storage": {
						"base": "t_uint256",
						"encoding": "inplace",
						"label": "uint256[2]",
						"numberOfBytes": "64"
					},
					"t_uint256": {
						"encoding": "inplace",
						"label": "uint256",
						"numberOfBytes": "32"
					}
				}
			},
			"userdoc": {
				"kind": "user",
				"methods": {},
				"version": 1
			}
		}
	}
}