{
	"contracts/StorageFactory.sol": {
		"StorageFactory": {
			"abi": [
				{
					"inputs": [],
					"name": "createSimpleStorageContract",
					"outputs": [],
					"stateMutability": "nonpayable",
					"type": "function"
				},
				{
					"inputs": [
						{
							"internalType": "uint256",
							"name": "_simpleStorageIndex",
							"type": "uint256"
						}
					],
					"name": "sfGet",
					"outputs": [
						{
							"internalType": "uint256",
							"name": "",
							"type": "uint256"
						}
					],
					"stateMutability": "view",
					"type": "function"
				},
				{
					"inputs": [
						{
							"internalType": "uint256",
							"name": "_simpleStorageIndex",
							"type": "uint256"
						},
						{
							"internalType": "uint256",
							"name": "_simpleStorageNumber",
							"type": "uint256"
						}
					],
					"name": "sfStore",
					"outputs": [],
					"stateMutability": "nonpayable",
					"type": "function"
				},
				{
					"inputs": [
						{
							"internalType": "uint256",
							"name": "",
							"type": "uint256"
						}
					],
					"name": "simpleStorageArray",
					"outputs": [
						{
							"internalType": "contract SimpleStorage",
							"name": "",
							"type": "address"
						}
					],
					"stateMutability": "view",
					"type": "function"
				}
			],
			"devdoc": {
				"kind": "dev",
				"methods": {},
				"version": 1
			},
			"evm": {
				"assembly": "    /* \"contracts/StorageFactory.sol\":89:614  contract StorageFactory {... */\n  mstore(0x40, 0x80)\n  callvalue\n  dup1\n  iszero\n  tag_1\n  jumpi\n  0x00\n  dup1\n  revert\ntag_1:\n  pop\n  dataSize(sub_0)\n  dup1\n  dataOffset(sub_0)\n  0x00\n  codecopy\n  0x00\n  return\nstop\n\nsub_0: assembly {\n        /* \"contracts/StorageFactory.sol\":89:614  contract StorageFactory {... */\n      mstore(0x40, 0x80)\n      callvalue\n      dup1\n      iszero\n      tag_1\n      jumpi\n      0x00\n      dup1\n      revert\n    tag_1:\n      pop\n      jumpi(tag_2, lt(calldatasize, 0x04))\n      shr(0xe0, calldataload(0x00))\n      dup1\n      0x1563700f\n      eq\n      tag_3\n      jumpi\n      dup1\n      0x1dda6541\n      eq\n      tag_4\n      jumpi\n      dup1\n      0x64591bf1\n      eq\n      tag_5\n      jumpi\n      dup1\n      0xc5f19c20\n      eq\n      tag_6\n      jumpi\n    tag_2:\n      0x00\n      dup1\n      revert\n        /* \"contracts/StorageFactory.sol\":311:469  function sfStore(uint256 _simpleStorageIndex, uint256 _simpleStorageNumber) public {... */\n    tag_3:\n      tag_7\n      0x04\n      dup1\n      calldatasize\n      sub\n      dup2\n      add\n      swap1\n      tag_8\n      swap2\n      swap1\n      tag_9\n      jump\t// in\n    tag_8:\n      tag_10\n      jump\t// in\n    tag_7:\n      stop\n        /* \"contracts/StorageFactory.sol\":162:307  function createSimpleStorageContract() public {... */\n    tag_4:\n      tag_11\n      tag_12\n      jump\t// in\n    tag_11:\n      stop\n        /* \"contracts/StorageFactory.sol\":117:158  SimpleStorage[] public simpleStorageArray */\n    tag_5:\n      tag_13\n      0x04\n      dup1\n      calldatasize\n      sub\n      dup2\n      add\n      swap1\n      tag_14\n      swap2\n      swap1\n      tag_15\n      jump\t// in\n    tag_14:\n      tag_16\n      jump\t// in\n    tag_13:\n      mload(0x40)\n      tag_17\n      swap2\n      swap1\n      tag_18\n      jump\t// in\n    tag_17:\n      mload(0x40)\n      dup1\n      swap2\n      sub\n      swap1\n      return\n        /* \"contracts/StorageFactory.sol\":472:611  function sfGet(uint256 _simpleStorageIndex) public view returns (uint256) {... */\n    tag_6:\n      tag_19\n      0x04\n      dup1\n      calldatasize\n      sub\n      dup2\n      add\n      swap1\n      tag_20\n      swap2\n      swap1\n      tag_15\n      jump\t// in\n    tag_20:\n      tag_21\n      jump\t// in\n    tag_19:\n      mload(0x40)\n      tag_22\n      swap2\n      swap1\n      tag_23\n      jump\t// in\n    tag_22:\n      mload(0x40)\n      dup1\n      swap2\n      sub\n      swap1\n      return\n        /* \"contracts/StorageFactory.sol\":311:469  function sfStore(uint256 _simpleStorageIndex, uint256 _simpleStorageNumber) public {... */\n    tag_10:\n        /* \"contracts/StorageFactory.sol\":398:416  simpleStorageArray */\n      0x00\n        /* \"contracts/StorageFactory.sol\":417:436  _simpleStorageIndex */\n      dup3\n        /* \"contracts/StorageFactory.sol\":398:437  simpleStorageArray[_simpleStorageIndex] */\n      dup2\n      sload\n      dup2\n      lt\n      tag_25\n      jumpi\n      tag_26\n      tag_27\n      jump\t// in\n    tag_26:\n    tag_25:\n      swap1\n      0x00\n      mstore\n      keccak256(0x00, 0x20)\n      add\n      0x00\n      swap1\n      sload\n      swap1\n      0x0100\n      exp\n      swap1\n      div\n      0xffffffffffffffffffffffffffffffffffffffff\n      and\n        /* \"contracts/StorageFactory.sol\":398:443  simpleStorageArray[_simpleStorageIndex].store */\n      0xffffffffffffffffffffffffffffffffffffffff\n      and\n      0x6057361d\n        /* \"contracts/StorageFactory.sol\":444:464  _simpleStorageNumber */\n      dup3\n        /* \"contracts/StorageFactory.sol\":398:465  simpleStorageArray[_simpleStorageIndex].store(_simpleStorageNumber) */\n      mload(0x40)\n      dup3\n      0xffffffff\n      and\n      0xe0\n      shl\n      dup2\n      mstore\n      0x04\n      add\n      tag_29\n      swap2\n      swap1\n      tag_23\n      jump\t// in\n    tag_29:\n      0x00\n      mload(0x40)\n      dup1\n      dup4\n      sub\n      dup2\n      0x00\n      dup8\n      dup1\n      extcodesize\n      iszero\n      dup1\n      iszero\n      tag_30\n      jumpi\n      0x00\n      dup1\n      revert\n    tag_30:\n      pop\n      gas\n      call\n      iszero\n      dup1\n      iszero\n      tag_32\n      jumpi\n      returndatasize\n      0x00\n      dup1\n      returndatacopy\n      revert(0x00, returndatasize)\n    tag_32:\n      pop\n      pop\n      pop\n      pop\n        /* \"contracts/StorageFactory.sol\":311:469  function sfStore(uint256 _simpleStorageIndex, uint256 _simpleStorageNumber) public {... */\n      pop\n      pop\n      jump\t// out\n        /* \"contracts/StorageFactory.sol\":162:307  function createSimpleStorageContract() public {... */\n    tag_12:\n        /* \"contracts/StorageFactory.sol\":212:239  SimpleStorage simpleStorage */\n      0x00\n        /* \"contracts/StorageFactory.sol\":242:261  new SimpleStorage() */\n      mload(0x40)\n      tag_34\n      swap1\n      tag_35\n      jump\t// in\n    tag_34:\n      mload(0x40)\n      dup1\n      swap2\n      sub\n      swap1\n      0x00\n      create\n      dup1\n      iszero\n      dup1\n      iszero\n      tag_36\n      jumpi\n      returndatasize\n      0x00\n      dup1\n      returndatacopy\n      revert(0x00, returndatasize)\n    tag_36:\n      pop\n        /* \"contracts/StorageFactory.sol\":212:261  SimpleStorage simpleStorage = new SimpleStorage() */\n      swap1\n      pop\n        /* \"contracts/StorageFactory.sol\":265:283  simpleStorageArray */\n      0x00\n        /* \"contracts/StorageFactory.sol\":289:302  simpleStorage */\n      dup2\n        /* \"contracts/StorageFactory.sol\":265:303  simpleStorageArray.push(simpleStorage) */\n      swap1\n      dup1\n      0x01\n      dup2\n      sload\n      add\n      dup1\n      dup3\n      sstore\n      dup1\n      swap2\n      pop\n      pop\n      0x01\n      swap1\n      sub\n      swap1\n      0x00\n      mstore\n      keccak256(0x00, 0x20)\n      add\n      0x00\n      swap1\n      swap2\n      swap1\n      swap2\n      swap1\n      swap2\n      0x0100\n      exp\n      dup2\n      sload\n      dup2\n      0xffffffffffffffffffffffffffffffffffffffff\n      mul\n      not\n      and\n      swap1\n      dup4\n      0xffffffffffffffffffffffffffffffffffffffff\n      and\n      mul\n      or\n      swap1\n      sstore\n      pop\n        /* \"contracts/StorageFactory.sol\":208:307  {... */\n      pop\n        /* \"contracts/StorageFactory.sol\":162:307  function createSimpleStorageContract() public {... */\n      jump\t// out\n        /* \"contracts/StorageFactory.sol\":117:158  SimpleStorage[] public simpleStorageArray */\n    tag_16:\n      0x00\n      dup2\n      dup2\n      sload\n      dup2\n      lt\n      tag_38\n      jumpi\n      0x00\n      dup1\n      revert\n    tag_38:\n      swap1\n      0x00\n      mstore\n      keccak256(0x00, 0x20)\n      add\n      0x00\n      swap2\n      pop\n      sload\n      swap1\n      0x0100\n      exp\n      swap1\n      div\n      0xffffffffffffffffffffffffffffffffffffffff\n      and\n      dup2\n      jump\t// out\n        /* \"contracts/StorageFactory.sol\":472:611  function sfGet(uint256 _simpleStorageIndex) public view returns (uint256) {... */\n    tag_21:\n        /* \"contracts/StorageFactory.sol\":537:544  uint256 */\n      0x00\n        /* \"contracts/StorageFactory.sol\":557:575  simpleStorageArray */\n      dup1\n        /* \"contracts/StorageFactory.sol\":576:595  _simpleStorageIndex */\n      dup3\n        /* \"contracts/StorageFactory.sol\":557:596  simpleStorageArray[_simpleStorageIndex] */\n      dup2\n      sload\n      dup2\n      lt\n      tag_41\n      jumpi\n      tag_42\n      tag_27\n      jump\t// in\n    tag_42:\n    tag_41:\n      swap1\n      0x00\n      mstore\n      keccak256(0x00, 0x20)\n      add\n      0x00\n      swap1\n      sload\n      swap1\n      0x0100\n      exp\n      swap1\n      div\n      0xffffffffffffffffffffffffffffffffffffffff\n      and\n        /* \"contracts/StorageFactory.sol\":557:605  simpleStorageArray[_simpleStorageIndex].retrieve */\n      0xffffffffffffffffffffffffffffffffffffffff\n      and\n      0x2e64cec1\n        /* \"contracts/StorageFactory.sol\":557:607  simpleStorageArray[_simpleStorageIndex].retrieve() */\n      mload(0x40)\n      dup2\n      0xffffffff\n      and\n      0xe0\n      shl\n      dup2\n      mstore\n      0x04\n      add\n      0x20\n      mload(0x40)\n      dup1\n      dup4\n      sub\n      dup2\n      dup7\n      gas\n      staticcall\n      iszero\n      dup1\n      iszero\n      tag_45\n      jumpi\n      returndatasize\n      0x00\n      dup1\n      returndatacopy\n      revert(0x00, returndatasize)\n    tag_45:\n      pop\n      pop\n      pop\n      pop\n      mload(0x40)\n      returndatasize\n      not(0x1f)\n      0x1f\n      dup3\n      add\n      and\n      dup3\n      add\n      dup1\n      0x40\n      mstore\n      pop\n      dup2\n      add\n      swap1\n      tag_46\n      swap2\n      swap1\n      tag_47\n      jump\t// in\n    tag_46:\n        /* \"contracts/StorageFactory.sol\":550:607  return simpleStorageArray[_simpleStorageIndex].retrieve() */\n      swap1\n      pop\n        /* \"contracts/StorageFactory.sol\":472:611  function sfGet(uint256 _simpleStorageIndex) public view returns (uint256) {... */\n      swap2\n      swap1\n      pop\n      jump\t// out\n    tag_35:\n      dataSize(sub_0)\n      dup1\n      dataOffset(sub_0)\n      dup4\n      codecopy\n      add\n      swap1\n      jump\t// out\n        /* \"#utility.yul\":88:205   */\n    tag_49:\n        /* \"#utility.yul\":197:198   */\n      0x00\n        /* \"#utility.yul\":194:195   */\n      dup1\n        /* \"#utility.yul\":187:199   */\n      revert\n        /* \"#utility.yul\":334:411   */\n    tag_51:\n        /* \"#utility.yul\":371:378   */\n      0x00\n        /* \"#utility.yul\":400:405   */\n      dup2\n        /* \"#utility.yul\":389:405   */\n      swap1\n      pop\n        /* \"#utility.yul\":334:411   */\n      swap2\n      swap1\n      pop\n      jump\t// out\n        /* \"#utility.yul\":417:539   */\n    tag_52:\n        /* \"#utility.yul\":490:514   */\n      tag_68\n        /* \"#utility.yul\":508:513   */\n      dup2\n        /* \"#utility.yul\":490:514   */\n      tag_51\n      jump\t// in\n    tag_68:\n        /* \"#utility.yul\":483:488   */\n      dup2\n        /* \"#utility.yul\":480:515   */\n      eq\n        /* \"#utility.yul\":470:533   */\n      tag_69\n      jumpi\n        /* \"#utility.yul\":529:530   */\n      0x00\n        /* \"#utility.yul\":526:527   */\n      dup1\n        /* \"#utility.yul\":519:531   */\n      revert\n        /* \"#utility.yul\":470:533   */\n    tag_69:\n        /* \"#utility.yul\":417:539   */\n      pop\n      jump\t// out\n        /* \"#utility.yul\":545:684   */\n    tag_53:\n        /* \"#utility.yul\":591:596   */\n      0x00\n        /* \"#utility.yul\":629:635   */\n      dup2\n        /* \"#utility.yul\":616:636   */\n      calldataload\n        /* \"#utility.yul\":607:636   */\n      swap1\n      pop\n        /* \"#utility.yul\":645:678   */\n      tag_71\n        /* \"#utility.yul\":672:677   */\n      dup2\n        /* \"#utility.yul\":645:678   */\n      tag_52\n      jump\t// in\n    tag_71:\n        /* \"#utility.yul\":545:684   */\n      swap3\n      swap2\n      pop\n      pop\n      jump\t// out\n        /* \"#utility.yul\":690:1164   */\n    tag_9:\n        /* \"#utility.yul\":758:764   */\n      0x00\n        /* \"#utility.yul\":766:772   */\n      dup1\n        /* \"#utility.yul\":815:817   */\n      0x40\n        /* \"#utility.yul\":803:812   */\n      dup4\n        /* \"#utility.yul\":794:801   */\n      dup6\n        /* \"#utility.yul\":790:813   */\n      sub\n        /* \"#utility.yul\":786:818   */\n      slt\n        /* \"#utility.yul\":783:902   */\n      iszero\n      tag_73\n      jumpi\n        /* \"#utility.yul\":821:900   */\n      tag_74\n      tag_49\n      jump\t// in\n    tag_74:\n        /* \"#utility.yul\":783:902   */\n    tag_73:\n        /* \"#utility.yul\":941:942   */\n      0x00\n        /* \"#utility.yul\":966:1019   */\n      tag_75\n        /* \"#utility.yul\":1011:1018   */\n      dup6\n        /* \"#utility.yul\":1002:1008   */\n      dup3\n        /* \"#utility.yul\":991:1000   */\n      dup7\n        /* \"#utility.yul\":987:1009   */\n      add\n        /* \"#utility.yul\":966:1019   */\n      tag_53\n      jump\t// in\n    tag_75:\n        /* \"#utility.yul\":956:1019   */\n      swap3\n      pop\n        /* \"#utility.yul\":912:1029   */\n      pop\n        /* \"#utility.yul\":1068:1070   */\n      0x20\n        /* \"#utility.yul\":1094:1147   */\n      tag_76\n        /* \"#utility.yul\":1139:1146   */\n      dup6\n        /* \"#utility.yul\":1130:1136   */\n      dup3\n        /* \"#utility.yul\":1119:1128   */\n      dup7\n        /* \"#utility.yul\":1115:1137   */\n      add\n        /* \"#utility.yul\":1094:1147   */\n      tag_53\n      jump\t// in\n    tag_76:\n        /* \"#utility.yul\":1084:1147   */\n      swap2\n      pop\n        /* \"#utility.yul\":1039:1157   */\n      pop\n        /* \"#utility.yul\":690:1164   */\n      swap3\n      pop\n      swap3\n      swap1\n      pop\n      jump\t// out\n        /* \"#utility.yul\":1170:1499   */\n    tag_15:\n        /* \"#utility.yul\":1229:1235   */\n      0x00\n        /* \"#utility.yul\":1278:1280   */\n      0x20\n        /* \"#utility.yul\":1266:1275   */\n      dup3\n        /* \"#utility.yul\":1257:1264   */\n      dup5\n        /* \"#utility.yul\":1253:1276   */\n      sub\n        /* \"#utility.yul\":1249:1281   */\n      slt\n        /* \"#utility.yul\":1246:1365   */\n      iszero\n      tag_78\n      jumpi\n        /* \"#utility.yul\":1284:1363   */\n      tag_79\n      tag_49\n      jump\t// in\n    tag_79:\n        /* \"#utility.yul\":1246:1365   */\n    tag_78:\n        /* \"#utility.yul\":1404:1405   */\n      0x00\n        /* \"#utility.yul\":1429:1482   */\n      tag_80\n        /* \"#utility.yul\":1474:1481   */\n      dup5\n        /* \"#utility.yul\":1465:1471   */\n      dup3\n        /* \"#utility.yul\":1454:1463   */\n      dup6\n        /* \"#utility.yul\":1450:1472   */\n      add\n        /* \"#utility.yul\":1429:1482   */\n      tag_53\n      jump\t// in\n    tag_80:\n        /* \"#utility.yul\":1419:1482   */\n      swap2\n      pop\n        /* \"#utility.yul\":1375:1492   */\n      pop\n        /* \"#utility.yul\":1170:1499   */\n      swap3\n      swap2\n      pop\n      pop\n      jump\t// out\n        /* \"#utility.yul\":1505:1631   */\n    tag_54:\n        /* \"#utility.yul\":1542:1549   */\n      0x00\n        /* \"#utility.yul\":1582:1624   */\n      0xffffffffffffffffffffffffffffffffffffffff\n        /* \"#utility.yul\":1575:1580   */\n      dup3\n        /* \"#utility.yul\":1571:1625   */\n      and\n        /* \"#utility.yul\":1560:1625   */\n      swap1\n      pop\n        /* \"#utility.yul\":1505:1631   */\n      swap2\n      swap1\n      pop\n      jump\t// out\n        /* \"#utility.yul\":1637:1697   */\n    tag_55:\n        /* \"#utility.yul\":1665:1668   */\n      0x00\n        /* \"#utility.yul\":1686:1691   */\n      dup2\n        /* \"#utility.yul\":1679:1691   */\n      swap1\n      pop\n        /* \"#utility.yul\":1637:1697   */\n      swap2\n      swap1\n      pop\n      jump\t// out\n        /* \"#utility.yul\":1703:1845   */\n    tag_56:\n        /* \"#utility.yul\":1753:1762   */\n      0x00\n        /* \"#utility.yul\":1786:1839   */\n      tag_84\n        /* \"#utility.yul\":1804:1838   */\n      tag_85\n        /* \"#utility.yul\":1813:1837   */\n      tag_86\n        /* \"#utility.yul\":1831:1836   */\n      dup5\n        /* \"#utility.yul\":1813:1837   */\n      tag_54\n      jump\t// in\n    tag_86:\n        /* \"#utility.yul\":1804:1838   */\n      tag_55\n      jump\t// in\n    tag_85:\n        /* \"#utility.yul\":1786:1839   */\n      tag_54\n      jump\t// in\n    tag_84:\n        /* \"#utility.yul\":1773:1839   */\n      swap1\n      pop\n        /* \"#utility.yul\":1703:1845   */\n      swap2\n      swap1\n      pop\n      jump\t// out\n        /* \"#utility.yul\":1851:1977   */\n    tag_57:\n        /* \"#utility.yul\":1901:1910   */\n      0x00\n        /* \"#utility.yul\":1934:1971   */\n      tag_88\n        /* \"#utility.yul\":1965:1970   */\n      dup3\n        /* \"#utility.yul\":1934:1971   */\n      tag_56\n      jump\t// in\n    tag_88:\n        /* \"#utility.yul\":1921:1971   */\n      swap1\n      pop\n        /* \"#utility.yul\":1851:1977   */\n      swap2\n      swap1\n      pop\n      jump\t// out\n        /* \"#utility.yul\":1983:2129   */\n    tag_58:\n        /* \"#utility.yul\":2053:2062   */\n      0x00\n        /* \"#utility.yul\":2086:2123   */\n      tag_90\n        /* \"#utility.yul\":2117:2122   */\n      dup3\n        /* \"#utility.yul\":2086:2123   */\n      tag_57\n      jump\t// in\n    tag_90:\n        /* \"#utility.yul\":2073:2123   */\n      swap1\n      pop\n        /* \"#utility.yul\":1983:2129   */\n      swap2\n      swap1\n      pop\n      jump\t// out\n        /* \"#utility.yul\":2135:2306   */\n    tag_59:\n        /* \"#utility.yul\":2242:2299   */\n      tag_92\n        /* \"#utility.yul\":2293:2298   */\n      dup2\n        /* \"#utility.yul\":2242:2299   */\n      tag_58\n      jump\t// in\n    tag_92:\n        /* \"#utility.yul\":2237:2240   */\n      dup3\n        /* \"#utility.yul\":2230:2300   */\n      mstore\n        /* \"#utility.yul\":2135:2306   */\n      pop\n      pop\n      jump\t// out\n        /* \"#utility.yul\":2312:2574   */\n    tag_18:\n        /* \"#utility.yul\":2425:2429   */\n      0x00\n        /* \"#utility.yul\":2463:2465   */\n      0x20\n        /* \"#utility.yul\":2452:2461   */\n      dup3\n        /* \"#utility.yul\":2448:2466   */\n      add\n        /* \"#utility.yul\":2440:2466   */\n      swap1\n      pop\n        /* \"#utility.yul\":2476:2567   */\n      tag_94\n        /* \"#utility.yul\":2564:2565   */\n      0x00\n        /* \"#utility.yul\":2553:2562   */\n      dup4\n        /* \"#utility.yul\":2549:2566   */\n      add\n        /* \"#utility.yul\":2540:2546   */\n      dup5\n        /* \"#utility.yul\":2476:2567   */\n      tag_59\n      jump\t// in\n    tag_94:\n        /* \"#utility.yul\":2312:2574   */\n      swap3\n      swap2\n      pop\n      pop\n      jump\t// out\n        /* \"#utility.yul\":2580:2698   */\n    tag_60:\n        /* \"#utility.yul\":2667:2691   */\n      tag_96\n        /* \"#utility.yul\":2685:2690   */\n      dup2\n        /* \"#utility.yul\":2667:2691   */\n      tag_51\n      jump\t// in\n    tag_96:\n        /* \"#utility.yul\":2662:2665   */\n      dup3\n        /* \"#utility.yul\":2655:2692   */\n      mstore\n        /* \"#utility.yul\":2580:2698   */\n      pop\n      pop\n      jump\t// out\n        /* \"#utility.yul\":2704:2926   */\n    tag_23:\n        /* \"#utility.yul\":2797:2801   */\n      0x00\n        /* \"#utility.yul\":2835:2837   */\n      0x20\n        /* \"#utility.yul\":2824:2833   */\n      dup3\n        /* \"#utility.yul\":2820:2838   */\n      add\n        /* \"#utility.yul\":2812:2838   */\n      swap1\n      pop\n        /* \"#utility.yul\":2848:2919   */\n      tag_98\n        /* \"#utility.yul\":2916:2917   */\n      0x00\n        /* \"#utility.yul\":2905:2914   */\n      dup4\n        /* \"#utility.yul\":2901:2918   */\n      add\n        /* \"#utility.yul\":2892:2898   */\n      dup5\n        /* \"#utility.yul\":2848:2919   */\n      tag_60\n      jump\t// in\n    tag_98:\n        /* \"#utility.yul\":2704:2926   */\n      swap3\n      swap2\n      pop\n      pop\n      jump\t// out\n        /* \"#utility.yul\":2932:3112   */\n    tag_27:\n        /* \"#utility.yul\":2980:3057   */\n      0x4e487b7100000000000000000000000000000000000000000000000000000000\n        /* \"#utility.yul\":2977:2978   */\n      0x00\n        /* \"#utility.yul\":2970:3058   */\n      mstore\n        /* \"#utility.yul\":3077:3081   */\n      0x32\n        /* \"#utility.yul\":3074:3075   */\n      0x04\n        /* \"#utility.yul\":3067:3082   */\n      mstore\n        /* \"#utility.yul\":3101:3105   */\n      0x24\n        /* \"#utility.yul\":3098:3099   */\n      0x00\n        /* \"#utility.yul\":3091:3106   */\n      revert\n        /* \"#utility.yul\":3118:3261   */\n    tag_61:\n        /* \"#utility.yul\":3175:3180   */\n      0x00\n        /* \"#utility.yul\":3206:3212   */\n      dup2\n        /* \"#utility.yul\":3200:3213   */\n      mload\n        /* \"#utility.yul\":3191:3213   */\n      swap1\n      pop\n        /* \"#utility.yul\":3222:3255   */\n      tag_101\n        /* \"#utility.yul\":3249:3254   */\n      dup2\n        /* \"#utility.yul\":3222:3255   */\n      tag_52\n      jump\t// in\n    tag_101:\n        /* \"#utility.yul\":3118:3261   */\n      swap3\n      swap2\n      pop\n      pop\n      jump\t// out\n        /* \"#utility.yul\":3267:3618   */\n    tag_47:\n        /* \"#utility.yul\":3337:3343   */\n      0x00\n        /* \"#utility.yul\":3386:3388   */\n      0x20\n        /* \"#utility.yul\":3374:3383   */\n      dup3\n        /* \"#utility.yul\":3365:3372   */\n      dup5\n        /* \"#utility.yul\":3361:3384   */\n      sub\n        /* \"#utility.yul\":3357:3389   */\n      slt\n        /* \"#utility.yul\":3354:3473   */\n      iszero\n      tag_103\n      jumpi\n        /* \"#utility.yul\":3392:3471   */\n      tag_104\n      tag_49\n      jump\t// in\n    tag_104:\n        /* \"#utility.yul\":3354:3473   */\n    tag_103:\n        /* \"#utility.yul\":3512:3513   */\n      0x00\n        /* \"#utility.yul\":3537:3601   */\n      tag_105\n        /* \"#utility.yul\":3593:3600   */\n      dup5\n        /* \"#utility.yul\":3584:3590   */\n      dup3\n        /* \"#utility.yul\":3573:3582   */\n      dup6\n        /* \"#utility.yul\":3569:3591   */\n      add\n        /* \"#utility.yul\":3537:3601   */\n      tag_61\n      jump\t// in\n    tag_105:\n        /* \"#utility.yul\":3527:3601   */\n      swap2\n      pop\n        /* \"#utility.yul\":3483:3611   */\n      pop\n        /* \"#utility.yul\":3267:3618   */\n      swap3\n      swap2\n      pop\n      pop\n      jump\t// out\n    stop\n\n    sub_0: assembly {\n            /* \"contracts/SimpleStorage.sol\":350:1049  contract SimpleStorage {... */\n          mstore(0x40, 0x80)\n          callvalue\n          dup1\n          iszero\n          tag_1\n          jumpi\n          0x00\n          dup1\n          revert\n        tag_1:\n          pop\n          dataSize(sub_0)\n          dup1\n          dataOffset(sub_0)\n          0x00\n          codecopy\n          0x00\n          return\n        stop\n\n        sub_0: assembly {\n                /* \"contracts/SimpleStorage.sol\":350:1049  contract SimpleStorage {... */\n              mstore(0x40, 0x80)\n              callvalue\n              dup1\n              iszero\n              tag_1\n              jumpi\n              0x00\n              dup1\n              revert\n            tag_1:\n              pop\n              jumpi(tag_2, lt(calldatasize, 0x04))\n              shr(0xe0, calldataload(0x00))\n              dup1\n              0x2e64cec1\n              eq\n              tag_3\n              jumpi\n              dup1\n              0x471f7cdf\n              eq\n              tag_4\n              jumpi\n              dup1\n              0x6057361d\n              eq\n              tag_5\n              jumpi\n              dup1\n              0x6f760f41\n              eq\n              tag_6\n              jumpi\n              dup1\n              0x8bab8dd5\n              eq\n              tag_7\n              jumpi\n              dup1\n              0x9e7a13ad\n              eq\n              tag_8\n              jumpi\n            tag_2:\n              0x00\n              dup1\n              revert\n                /* \"contracts/SimpleStorage.sol\":767:853  function retrieve() public view returns(uint256){... */\n            tag_3:\n              tag_9\n              tag_10\n              jump\t// in\n            tag_9:\n              mload(0x40)\n              tag_11\n              swap2\n              swap1\n              tag_12\n              jump\t// in\n            tag_11:\n              mload(0x40)\n              dup1\n              swap2\n              sub\n              swap1\n              return\n                /* \"contracts/SimpleStorage.sol\":379:408  uint256 public favoriteNumber */\n            tag_4:\n              tag_13\n              tag_14\n              jump\t// in\n            tag_13:\n              mload(0x40)\n              tag_15\n              swap2\n              swap1\n              tag_12\n              jump\t// in\n            tag_15:\n              mload(0x40)\n              dup1\n              swap2\n              sub\n              swap1\n              return\n                /* \"contracts/SimpleStorage.sol\":658:762  function store(uint256 _favoriteNumber) public virtual {... */\n            tag_5:\n              tag_16\n              0x04\n              dup1\n              calldatasize\n              sub\n              dup2\n              add\n              swap1\n              tag_17\n              swap2\n              swap1\n              tag_18\n              jump\t// in\n            tag_17:\n              tag_19\n              jump\t// in\n            tag_16:\n              stop\n                /* \"contracts/SimpleStorage.sol\":859:1046  function addPerson(string memory _name, uint256 _favoriteNumber) public {... */\n            tag_6:\n              tag_20\n              0x04\n              dup1\n              calldatasize\n              sub\n              dup2\n              add\n              swap1\n              tag_21\n              swap2\n              swap1\n              tag_22\n              jump\t// in\n            tag_21:\n              tag_23\n              jump\t// in\n            tag_20:\n              stop\n                /* \"contracts/SimpleStorage.sol\":488:542  mapping(string => uint256) public nameToFavoriteNumber */\n            tag_7:\n              tag_24\n              0x04\n              dup1\n              calldatasize\n              sub\n              dup2\n              add\n              swap1\n              tag_25\n              swap2\n              swap1\n              tag_26\n              jump\t// in\n            tag_25:\n              tag_27\n              jump\t// in\n            tag_24:\n              mload(0x40)\n              tag_28\n              swap2\n              swap1\n              tag_12\n              jump\t// in\n            tag_28:\n              mload(0x40)\n              dup1\n              swap2\n              sub\n              swap1\n              return\n                /* \"contracts/SimpleStorage.sol\":629:651  People[] public people */\n            tag_8:\n              tag_29\n              0x04\n              dup1\n              calldatasize\n              sub\n              dup2\n              add\n              swap1\n              tag_30\n              swap2\n              swap1\n              tag_18\n              jump\t// in\n            tag_30:\n              tag_31\n              jump\t// in\n            tag_29:\n              mload(0x40)\n              tag_32\n              swap3\n              swap2\n              swap1\n              tag_33\n              jump\t// in\n            tag_32:\n              mload(0x40)\n              dup1\n              swap2\n              sub\n              swap1\n              return\n                /* \"contracts/SimpleStorage.sol\":767:853  function retrieve() public view returns(uint256){... */\n            tag_10:\n                /* \"contracts/SimpleStorage.sol\":807:814  uint256 */\n              0x00\n                /* \"contracts/SimpleStorage.sol\":832:846  favoriteNumber */\n              dup1\n              sload\n                /* \"contracts/SimpleStorage.sol\":825:846  return favoriteNumber */\n              swap1\n              pop\n                /* \"contracts/SimpleStorage.sol\":767:853  function retrieve() public view returns(uint256){... */\n              swap1\n              jump\t// out\n                /* \"contracts/SimpleStorage.sol\":379:408  uint256 public favoriteNumber */\n            tag_14:\n              sload(0x00)\n              dup2\n              jump\t// out\n                /* \"contracts/SimpleStorage.sol\":658:762  function store(uint256 _favoriteNumber) public virtual {... */\n            tag_19:\n                /* \"contracts/SimpleStorage.sol\":740:755  _favoriteNumber */\n              dup1\n                /* \"contracts/SimpleStorage.sol\":723:737  favoriteNumber */\n              0x00\n                /* \"contracts/SimpleStorage.sol\":723:755  favoriteNumber = _favoriteNumber */\n              dup2\n              swap1\n              sstore\n              pop\n                /* \"contracts/SimpleStorage.sol\":658:762  function store(uint256 _favoriteNumber) public virtual {... */\n              pop\n              jump\t// out\n                /* \"contracts/SimpleStorage.sol\":859:1046  function addPerson(string memory _name, uint256 _favoriteNumber) public {... */\n            tag_23:\n                /* \"contracts/SimpleStorage.sol\":941:947  people */\n              0x02\n                /* \"contracts/SimpleStorage.sol\":953:983  People(_favoriteNumber, _name) */\n              mload(0x40)\n              dup1\n              0x40\n              add\n              0x40\n              mstore\n              dup1\n                /* \"contracts/SimpleStorage.sol\":960:975  _favoriteNumber */\n              dup4\n                /* \"contracts/SimpleStorage.sol\":953:983  People(_favoriteNumber, _name) */\n              dup2\n              mstore\n              0x20\n              add\n                /* \"contracts/SimpleStorage.sol\":977:982  _name */\n              dup5\n                /* \"contracts/SimpleStorage.sol\":953:983  People(_favoriteNumber, _name) */\n              dup2\n              mstore\n              pop\n                /* \"contracts/SimpleStorage.sol\":941:984  people.push(People(_favoriteNumber, _name)) */\n              swap1\n              dup1\n              0x01\n              dup2\n              sload\n              add\n              dup1\n              dup3\n              sstore\n              dup1\n              swap2\n              pop\n              pop\n              0x01\n              swap1\n              sub\n              swap1\n              0x00\n              mstore\n              keccak256(0x00, 0x20)\n              swap1\n              0x02\n              mul\n              add\n              0x00\n              swap1\n              swap2\n              swap1\n              swap2\n              swap1\n              swap2\n              pop\n              0x00\n              dup3\n              add\n              mload\n              dup2\n              0x00\n              add\n              sstore\n              0x20\n              dup3\n              add\n              mload\n              dup2\n              0x01\n              add\n              swap1\n              dup2\n              tag_38\n              swap2\n              swap1\n              tag_39\n              jump\t// in\n            tag_38:\n              pop\n              pop\n              pop\n                /* \"contracts/SimpleStorage.sol\":1024:1039  _favoriteNumber */\n              dup1\n                /* \"contracts/SimpleStorage.sol\":994:1014  nameToFavoriteNumber */\n              0x01\n                /* \"contracts/SimpleStorage.sol\":1015:1020  _name */\n              dup4\n                /* \"contracts/SimpleStorage.sol\":994:1021  nameToFavoriteNumber[_name] */\n              mload(0x40)\n              tag_40\n              swap2\n              swap1\n              tag_41\n              jump\t// in\n            tag_40:\n              swap1\n              dup2\n              mstore\n              0x20\n              add\n              mload(0x40)\n              dup1\n              swap2\n              sub\n              swap1\n              keccak256\n                /* \"contracts/SimpleStorage.sol\":994:1039  nameToFavoriteNumber[_name] = _favoriteNumber */\n              dup2\n              swap1\n              sstore\n              pop\n                /* \"contracts/SimpleStorage.sol\":859:1046  function addPerson(string memory _name, uint256 _favoriteNumber) public {... */\n              pop\n              pop\n              jump\t// out\n                /* \"contracts/SimpleStorage.sol\":488:542  mapping(string => uint256) public nameToFavoriteNumber */\n            tag_27:\n              0x01\n              dup2\n              dup1\n              mload\n              0x20\n              dup2\n              add\n              dup3\n              add\n              dup1\n              mload\n              dup5\n              dup3\n              mstore\n              0x20\n              dup4\n              add\n              0x20\n              dup6\n              add\n              keccak256\n              dup2\n              dup4\n              mstore\n              dup1\n              swap6\n              pop\n              pop\n              pop\n              pop\n              pop\n              pop\n              0x00\n              swap2\n              pop\n              swap1\n              pop\n              sload\n              dup2\n              jump\t// out\n                /* \"contracts/SimpleStorage.sol\":629:651  People[] public people */\n            tag_31:\n              0x02\n              dup2\n              dup2\n              sload\n              dup2\n              lt\n              tag_42\n              jumpi\n              0x00\n              dup1\n              revert\n            tag_42:\n              swap1\n              0x00\n              mstore\n              keccak256(0x00, 0x20)\n              swap1\n              0x02\n              mul\n              add\n              0x00\n              swap2\n              pop\n              swap1\n              pop\n              dup1\n              0x00\n              add\n              sload\n              swap1\n              dup1\n              0x01\n              add\n              dup1\n              sload\n              tag_44\n              swap1\n              tag_45\n              jump\t// in\n            tag_44:\n              dup1\n              0x1f\n              add\n              0x20\n              dup1\n              swap2\n              div\n              mul\n              0x20\n              add\n              mload(0x40)\n              swap1\n              dup2\n              add\n              0x40\n              mstore\n              dup1\n              swap3\n              swap2\n              swap1\n              dup2\n              dup2\n              mstore\n              0x20\n              add\n              dup3\n              dup1\n              sload\n              tag_46\n              swap1\n              tag_45\n              jump\t// in\n            tag_46:\n              dup1\n              iszero\n              tag_47\n              jumpi\n              dup1\n              0x1f\n              lt\n              tag_48\n              jumpi\n              0x0100\n              dup1\n              dup4\n              sload\n              div\n              mul\n              dup4\n              mstore\n              swap2\n              0x20\n              add\n              swap2\n              jump(tag_47)\n            tag_48:\n              dup3\n              add\n              swap2\n              swap1\n              0x00\n              mstore\n              keccak256(0x00, 0x20)\n              swap1\n            tag_49:\n              dup2\n              sload\n              dup2\n              mstore\n              swap1\n              0x01\n              add\n              swap1\n              0x20\n              add\n              dup1\n              dup4\n              gt\n              tag_49\n              jumpi\n              dup3\n              swap1\n              sub\n              0x1f\n              and\n              dup3\n              add\n              swap2\n            tag_47:\n              pop\n              pop\n              pop\n              pop\n              pop\n              swap1\n              pop\n              dup3\n              jump\t// out\n                /* \"#utility.yul\":7:84   */\n            tag_50:\n                /* \"#utility.yul\":44:51   */\n              0x00\n                /* \"#utility.yul\":73:78   */\n              dup2\n                /* \"#utility.yul\":62:78   */\n              swap1\n              pop\n                /* \"#utility.yul\":7:84   */\n              swap2\n              swap1\n              pop\n              jump\t// out\n                /* \"#utility.yul\":90:208   */\n            tag_51:\n                /* \"#utility.yul\":177:201   */\n              tag_92\n                /* \"#utility.yul\":195:200   */\n              dup2\n                /* \"#utility.yul\":177:201   */\n              tag_50\n              jump\t// in\n            tag_92:\n                /* \"#utility.yul\":172:175   */\n              dup3\n                /* \"#utility.yul\":165:202   */\n              mstore\n                /* \"#utility.yul\":90:208   */\n              pop\n              pop\n              jump\t// out\n                /* \"#utility.yul\":214:436   */\n            tag_12:\n                /* \"#utility.yul\":307:311   */\n              0x00\n                /* \"#utility.yul\":345:347   */\n              0x20\n                /* \"#utility.yul\":334:343   */\n              dup3\n                /* \"#utility.yul\":330:348   */\n              add\n                /* \"#utility.yul\":322:348   */\n              swap1\n              pop\n                /* \"#utility.yul\":358:429   */\n              tag_94\n                /* \"#utility.yul\":426:427   */\n              0x00\n                /* \"#utility.yul\":415:424   */\n              dup4\n                /* \"#utility.yul\":411:428   */\n              add\n                /* \"#utility.yul\":402:408   */\n              dup5\n                /* \"#utility.yul\":358:429   */\n              tag_51\n              jump\t// in\n            tag_94:\n                /* \"#utility.yul\":214:436   */\n              swap3\n              swap2\n              pop\n              pop\n              jump\t// out\n                /* \"#utility.yul\":442:517   */\n            tag_52:\n                /* \"#utility.yul\":475:481   */\n              0x00\n                /* \"#utility.yul\":508:510   */\n              0x40\n                /* \"#utility.yul\":502:511   */\n              mload\n                /* \"#utility.yul\":492:511   */\n              swap1\n              pop\n                /* \"#utility.yul\":442:517   */\n              swap1\n              jump\t// out\n                /* \"#utility.yul\":523:640   */\n            tag_53:\n                /* \"#utility.yul\":632:633   */\n              0x00\n                /* \"#utility.yul\":629:630   */\n              dup1\n                /* \"#utility.yul\":622:634   */\n              revert\n                /* \"#utility.yul\":646:763   */\n            tag_54:\n                /* \"#utility.yul\":755:756   */\n              0x00\n                /* \"#utility.yul\":752:753   */\n              dup1\n                /* \"#utility.yul\":745:757   */\n              revert\n                /* \"#utility.yul\":769:891   */\n            tag_55:\n                /* \"#utility.yul\":842:866   */\n              tag_99\n                /* \"#utility.yul\":860:865   */\n              dup2\n                /* \"#utility.yul\":842:866   */\n              tag_50\n              jump\t// in\n            tag_99:\n                /* \"#utility.yul\":835:840   */\n              dup2\n                /* \"#utility.yul\":832:867   */\n              eq\n                /* \"#utility.yul\":822:885   */\n              tag_100\n              jumpi\n                /* \"#utility.yul\":881:882   */\n              0x00\n                /* \"#utility.yul\":878:879   */\n              dup1\n                /* \"#utility.yul\":871:883   */\n              revert\n                /* \"#utility.yul\":822:885   */\n            tag_100:\n                /* \"#utility.yul\":769:891   */\n              pop\n              jump\t// out\n                /* \"#utility.yul\":897:1036   */\n            tag_56:\n                /* \"#utility.yul\":943:948   */\n              0x00\n                /* \"#utility.yul\":981:987   */\n              dup2\n                /* \"#utility.yul\":968:988   */\n              calldataload\n                /* \"#utility.yul\":959:988   */\n              swap1\n              pop\n                /* \"#utility.yul\":997:1030   */\n              tag_102\n                /* \"#utility.yul\":1024:1029   */\n              dup2\n                /* \"#utility.yul\":997:1030   */\n              tag_55\n              jump\t// in\n            tag_102:\n                /* \"#utility.yul\":897:1036   */\n              swap3\n              swap2\n              pop\n              pop\n              jump\t// out\n                /* \"#utility.yul\":1042:1371   */\n            tag_18:\n                /* \"#utility.yul\":1101:1107   */\n              0x00\n                /* \"#utility.yul\":1150:1152   */\n              0x20\n                /* \"#utility.yul\":1138:1147   */\n              dup3\n                /* \"#utility.yul\":1129:1136   */\n              dup5\n                /* \"#utility.yul\":1125:1148   */\n              sub\n                /* \"#utility.yul\":1121:1153   */\n              slt\n                /* \"#utility.yul\":1118:1237   */\n              iszero\n              tag_104\n              jumpi\n                /* \"#utility.yul\":1156:1235   */\n              tag_105\n              tag_53\n              jump\t// in\n            tag_105:\n                /* \"#utility.yul\":1118:1237   */\n            tag_104:\n                /* \"#utility.yul\":1276:1277   */\n              0x00\n                /* \"#utility.yul\":1301:1354   */\n              tag_106\n                /* \"#utility.yul\":1346:1353   */\n              dup5\n                /* \"#utility.yul\":1337:1343   */\n              dup3\n                /* \"#utility.yul\":1326:1335   */\n              dup6\n                /* \"#utility.yul\":1322:1344   */\n              add\n                /* \"#utility.yul\":1301:1354   */\n              tag_56\n              jump\t// in\n            tag_106:\n                /* \"#utility.yul\":1291:1354   */\n              swap2\n              pop\n                /* \"#utility.yul\":1247:1364   */\n              pop\n                /* \"#utility.yul\":1042:1371   */\n              swap3\n              swap2\n              pop\n              pop\n              jump\t// out\n                /* \"#utility.yul\":1377:1494   */\n            tag_57:\n                /* \"#utility.yul\":1486:1487   */\n              0x00\n                /* \"#utility.yul\":1483:1484   */\n              dup1\n                /* \"#utility.yul\":1476:1488   */\n              revert\n                /* \"#utility.yul\":1500:1617   */\n            tag_58:\n                /* \"#utility.yul\":1609:1610   */\n              0x00\n                /* \"#utility.yul\":1606:1607   */\n              dup1\n                /* \"#utility.yul\":1599:1611   */\n              revert\n                /* \"#utility.yul\":1623:1725   */\n            tag_59:\n                /* \"#utility.yul\":1664:1670   */\n              0x00\n                /* \"#utility.yul\":1715:1717   */\n              0x1f\n                /* \"#utility.yul\":1711:1718   */\n              not\n                /* \"#utility.yul\":1706:1708   */\n              0x1f\n                /* \"#utility.yul\":1699:1704   */\n              dup4\n                /* \"#utility.yul\":1695:1709   */\n              add\n                /* \"#utility.yul\":1691:1719   */\n              and\n                /* \"#utility.yul\":1681:1719   */\n              swap1\n              pop\n                /* \"#utility.yul\":1623:1725   */\n              swap2\n              swap1\n              pop\n              jump\t// out\n                /* \"#utility.yul\":1731:1911   */\n            tag_60:\n                /* \"#utility.yul\":1779:1856   */\n              0x4e487b7100000000000000000000000000000000000000000000000000000000\n                /* \"#utility.yul\":1776:1777   */\n              0x00\n                /* \"#utility.yul\":1769:1857   */\n              mstore\n                /* \"#utility.yul\":1876:1880   */\n              0x41\n                /* \"#utility.yul\":1873:1874   */\n              0x04\n                /* \"#utility.yul\":1866:1881   */\n              mstore\n                /* \"#utility.yul\":1900:1904   */\n              0x24\n                /* \"#utility.yul\":1897:1898   */\n              0x00\n                /* \"#utility.yul\":1890:1905   */\n              revert\n                /* \"#utility.yul\":1917:2198   */\n            tag_61:\n                /* \"#utility.yul\":2000:2027   */\n              tag_112\n                /* \"#utility.yul\":2022:2026   */\n              dup3\n                /* \"#utility.yul\":2000:2027   */\n              tag_59\n              jump\t// in\n            tag_112:\n                /* \"#utility.yul\":1992:1998   */\n              dup2\n                /* \"#utility.yul\":1988:2028   */\n              add\n                /* \"#utility.yul\":2130:2136   */\n              dup2\n                /* \"#utility.yul\":2118:2128   */\n              dup2\n                /* \"#utility.yul\":2115:2137   */\n              lt\n                /* \"#utility.yul\":2094:2112   */\n              0xffffffffffffffff\n                /* \"#utility.yul\":2082:2092   */\n              dup3\n                /* \"#utility.yul\":2079:2113   */\n              gt\n                /* \"#utility.yul\":2076:2138   */\n              or\n                /* \"#utility.yul\":2073:2161   */\n              iszero\n              tag_113\n              jumpi\n                /* \"#utility.yul\":2141:2159   */\n              tag_114\n              tag_60\n              jump\t// in\n            tag_114:\n                /* \"#utility.yul\":2073:2161   */\n            tag_113:\n                /* \"#utility.yul\":2181:2191   */\n              dup1\n                /* \"#utility.yul\":2177:2179   */\n              0x40\n                /* \"#utility.yul\":2170:2192   */\n              mstore\n                /* \"#utility.yul\":1960:2198   */\n              pop\n                /* \"#utility.yul\":1917:2198   */\n              pop\n              pop\n              jump\t// out\n                /* \"#utility.yul\":2204:2333   */\n            tag_62:\n                /* \"#utility.yul\":2238:2244   */\n              0x00\n                /* \"#utility.yul\":2265:2285   */\n              tag_116\n              tag_52\n              jump\t// in\n            tag_116:\n                /* \"#utility.yul\":2255:2285   */\n              swap1\n              pop\n                /* \"#utility.yul\":2294:2327   */\n              tag_117\n                /* \"#utility.yul\":2322:2326   */\n              dup3\n                /* \"#utility.yul\":2314:2320   */\n              dup3\n                /* \"#utility.yul\":2294:2327   */\n              tag_61\n              jump\t// in\n            tag_117:\n                /* \"#utility.yul\":2204:2333   */\n              swap2\n              swap1\n              pop\n              jump\t// out\n                /* \"#utility.yul\":2339:2647   */\n            tag_63:\n                /* \"#utility.yul\":2401:2405   */\n              0x00\n                /* \"#utility.yul\":2491:2509   */\n              0xffffffffffffffff\n                /* \"#utility.yul\":2483:2489   */\n              dup3\n                /* \"#utility.yul\":2480:2510   */\n              gt\n                /* \"#utility.yul\":2477:2533   */\n              iszero\n              tag_119\n              jumpi\n                /* \"#utility.yul\":2513:2531   */\n              tag_120\n              tag_60\n              jump\t// in\n            tag_120:\n                /* \"#utility.yul\":2477:2533   */\n            tag_119:\n                /* \"#utility.yul\":2551:2580   */\n              tag_121\n                /* \"#utility.yul\":2573:2579   */\n              dup3\n                /* \"#utility.yul\":2551:2580   */\n              tag_59\n              jump\t// in\n            tag_121:\n                /* \"#utility.yul\":2543:2580   */\n              swap1\n              pop\n                /* \"#utility.yul\":2635:2639   */\n              0x20\n                /* \"#utility.yul\":2629:2633   */\n              dup2\n                /* \"#utility.yul\":2625:2640   */\n              add\n                /* \"#utility.yul\":2617:2640   */\n              swap1\n              pop\n                /* \"#utility.yul\":2339:2647   */\n              swap2\n              swap1\n              pop\n              jump\t// out\n                /* \"#utility.yul\":2653:2807   */\n            tag_64:\n                /* \"#utility.yul\":2737:2743   */\n              dup3\n                /* \"#utility.yul\":2732:2735   */\n              dup2\n                /* \"#utility.yul\":2727:2730   */\n              dup4\n                /* \"#utility.yul\":2714:2744   */\n              calldatacopy\n                /* \"#utility.yul\":2799:2800   */\n              0x00\n                /* \"#utility.yul\":2790:2796   */\n              dup4\n                /* \"#utility.yul\":2785:2788   */\n              dup4\n                /* \"#utility.yul\":2781:2797   */\n              add\n                /* \"#utility.yul\":2774:2801   */\n              mstore\n                /* \"#utility.yul\":2653:2807   */\n              pop\n              pop\n              pop\n              jump\t// out\n                /* \"#utility.yul\":2813:3225   */\n            tag_65:\n                /* \"#utility.yul\":2891:2896   */\n              0x00\n                /* \"#utility.yul\":2916:2982   */\n              tag_124\n                /* \"#utility.yul\":2932:2981   */\n              tag_125\n                /* \"#utility.yul\":2974:2980   */\n              dup5\n                /* \"#utility.yul\":2932:2981   */\n              tag_63\n              jump\t// in\n            tag_125:\n                /* \"#utility.yul\":2916:2982   */\n              tag_62\n              jump\t// in\n            tag_124:\n                /* \"#utility.yul\":2907:2982   */\n              swap1\n              pop\n                /* \"#utility.yul\":3005:3011   */\n              dup3\n                /* \"#utility.yul\":2998:3003   */\n              dup2\n                /* \"#utility.yul\":2991:3012   */\n              mstore\n                /* \"#utility.yul\":3043:3047   */\n              0x20\n                /* \"#utility.yul\":3036:3041   */\n              dup2\n                /* \"#utility.yul\":3032:3048   */\n              add\n                /* \"#utility.yul\":3081:3084   */\n              dup5\n                /* \"#utility.yul\":3072:3078   */\n              dup5\n                /* \"#utility.yul\":3067:3070   */\n              dup5\n                /* \"#utility.yul\":3063:3079   */\n              add\n                /* \"#utility.yul\":3060:3085   */\n              gt\n                /* \"#utility.yul\":3057:3169   */\n              iszero\n              tag_126\n              jumpi\n                /* \"#utility.yul\":3088:3167   */\n              tag_127\n              tag_58\n              jump\t// in\n            tag_127:\n                /* \"#utility.yul\":3057:3169   */\n            tag_126:\n                /* \"#utility.yul\":3178:3219   */\n              tag_128\n                /* \"#utility.yul\":3212:3218   */\n              dup5\n                /* \"#utility.yul\":3207:3210   */\n              dup3\n                /* \"#utility.yul\":3202:3205   */\n              dup6\n                /* \"#utility.yul\":3178:3219   */\n              tag_64\n              jump\t// in\n            tag_128:\n                /* \"#utility.yul\":2897:3225   */\n              pop\n                /* \"#utility.yul\":2813:3225   */\n              swap4\n              swap3\n              pop\n              pop\n              pop\n              jump\t// out\n                /* \"#utility.yul\":3245:3585   */\n            tag_66:\n                /* \"#utility.yul\":3301:3306   */\n              0x00\n                /* \"#utility.yul\":3350:3353   */\n              dup3\n                /* \"#utility.yul\":3343:3347   */\n              0x1f\n                /* \"#utility.yul\":3335:3341   */\n              dup4\n                /* \"#utility.yul\":3331:3348   */\n              add\n                /* \"#utility.yul\":3327:3354   */\n              slt\n                /* \"#utility.yul\":3317:3439   */\n              tag_130\n              jumpi\n                /* \"#utility.yul\":3358:3437   */\n              tag_131\n              tag_57\n              jump\t// in\n            tag_131:\n                /* \"#utility.yul\":3317:3439   */\n            tag_130:\n                /* \"#utility.yul\":3475:3481   */\n              dup2\n                /* \"#utility.yul\":3462:3482   */\n              calldataload\n                /* \"#utility.yul\":3500:3579   */\n              tag_132\n                /* \"#utility.yul\":3575:3578   */\n              dup5\n                /* \"#utility.yul\":3567:3573   */\n              dup3\n                /* \"#utility.yul\":3560:3564   */\n              0x20\n                /* \"#utility.yul\":3552:3558   */\n              dup7\n                /* \"#utility.yul\":3548:3565   */\n              add\n                /* \"#utility.yul\":3500:3579   */\n              tag_65\n              jump\t// in\n            tag_132:\n                /* \"#utility.yul\":3491:3579   */\n              swap2\n              pop\n                /* \"#utility.yul\":3307:3585   */\n              pop\n                /* \"#utility.yul\":3245:3585   */\n              swap3\n              swap2\n              pop\n              pop\n              jump\t// out\n                /* \"#utility.yul\":3591:4245   */\n            tag_22:\n                /* \"#utility.yul\":3669:3675   */\n              0x00\n                /* \"#utility.yul\":3677:3683   */\n              dup1\n                /* \"#utility.yul\":3726:3728   */\n              0x40\n                /* \"#utility.yul\":3714:3723   */\n              dup4\n                /* \"#utility.yul\":3705:3712   */\n              dup6\n                /* \"#utility.yul\":3701:3724   */\n              sub\n                /* \"#utility.yul\":3697:3729   */\n              slt\n                /* \"#utility.yul\":3694:3813   */\n              iszero\n              tag_134\n              jumpi\n                /* \"#utility.yul\":3732:3811   */\n              tag_135\n              tag_53\n              jump\t// in\n            tag_135:\n                /* \"#utility.yul\":3694:3813   */\n            tag_134:\n                /* \"#utility.yul\":3880:3881   */\n              0x00\n                /* \"#utility.yul\":3869:3878   */\n              dup4\n                /* \"#utility.yul\":3865:3882   */\n              add\n                /* \"#utility.yul\":3852:3883   */\n              calldataload\n                /* \"#utility.yul\":3910:3928   */\n              0xffffffffffffffff\n                /* \"#utility.yul\":3902:3908   */\n              dup2\n                /* \"#utility.yul\":3899:3929   */\n              gt\n                /* \"#utility.yul\":3896:4013   */\n              iszero\n              tag_136\n              jumpi\n                /* \"#utility.yul\":3932:4011   */\n              tag_137\n              tag_54\n              jump\t// in\n            tag_137:\n                /* \"#utility.yul\":3896:4013   */\n            tag_136:\n                /* \"#utility.yul\":4037:4100   */\n              tag_138\n                /* \"#utility.yul\":4092:4099   */\n              dup6\n                /* \"#utility.yul\":4083:4089   */\n              dup3\n                /* \"#utility.yul\":4072:4081   */\n              dup7\n                /* \"#utility.yul\":4068:4090   */\n              add\n                /* \"#utility.yul\":4037:4100   */\n              tag_66\n              jump\t// in\n            tag_138:\n                /* \"#utility.yul\":4027:4100   */\n              swap3\n              pop\n                /* \"#utility.yul\":3823:4110   */\n              pop\n                /* \"#utility.yul\":4149:4151   */\n              0x20\n                /* \"#utility.yul\":4175:4228   */\n              tag_139\n                /* \"#utility.yul\":4220:4227   */\n              dup6\n                /* \"#utility.yul\":4211:4217   */\n              dup3\n                /* \"#utility.yul\":4200:4209   */\n              dup7\n                /* \"#utility.yul\":4196:4218   */\n              add\n                /* \"#utility.yul\":4175:4228   */\n              tag_56\n              jump\t// in\n            tag_139:\n                /* \"#utility.yul\":4165:4228   */\n              swap2\n              pop\n                /* \"#utility.yul\":4120:4238   */\n              pop\n                /* \"#utility.yul\":3591:4245   */\n              swap3\n              pop\n              swap3\n              swap1\n              pop\n              jump\t// out\n                /* \"#utility.yul\":4251:4760   */\n            tag_26:\n                /* \"#utility.yul\":4320:4326   */\n              0x00\n                /* \"#utility.yul\":4369:4371   */\n              0x20\n                /* \"#utility.yul\":4357:4366   */\n              dup3\n                /* \"#utility.yul\":4348:4355   */\n              dup5\n                /* \"#utility.yul\":4344:4367   */\n              sub\n                /* \"#utility.yul\":4340:4372   */\n              slt\n                /* \"#utility.yul\":4337:4456   */\n              iszero\n              tag_141\n              jumpi\n                /* \"#utility.yul\":4375:4454   */\n              tag_142\n              tag_53\n              jump\t// in\n            tag_142:\n                /* \"#utility.yul\":4337:4456   */\n            tag_141:\n                /* \"#utility.yul\":4523:4524   */\n              0x00\n                /* \"#utility.yul\":4512:4521   */\n              dup3\n                /* \"#utility.yul\":4508:4525   */\n              add\n                /* \"#utility.yul\":4495:4526   */\n              calldataload\n                /* \"#utility.yul\":4553:4571   */\n              0xffffffffffffffff\n                /* \"#utility.yul\":4545:4551   */\n              dup2\n                /* \"#utility.yul\":4542:4572   */\n              gt\n                /* \"#utility.yul\":4539:4656   */\n              iszero\n              tag_143\n              jumpi\n                /* \"#utility.yul\":4575:4654   */\n              tag_144\n              tag_54\n              jump\t// in\n            tag_144:\n                /* \"#utility.yul\":4539:4656   */\n            tag_143:\n                /* \"#utility.yul\":4680:4743   */\n              tag_145\n                /* \"#utility.yul\":4735:4742   */\n              dup5\n                /* \"#utility.yul\":4726:4732   */\n              dup3\n                /* \"#utility.yul\":4715:4724   */\n              dup6\n                /* \"#utility.yul\":4711:4733   */\n              add\n                /* \"#utility.yul\":4680:4743   */\n              tag_66\n              jump\t// in\n            tag_145:\n                /* \"#utility.yul\":4670:4743   */\n              swap2\n              pop\n                /* \"#utility.yul\":4466:4753   */\n              pop\n                /* \"#utility.yul\":4251:4760   */\n              swap3\n              swap2\n              pop\n              pop\n              jump\t// out\n                /* \"#utility.yul\":4766:4865   */\n            tag_67:\n                /* \"#utility.yul\":4818:4824   */\n              0x00\n                /* \"#utility.yul\":4852:4857   */\n              dup2\n                /* \"#utility.yul\":4846:4858   */\n              mload\n                /* \"#utility.yul\":4836:4858   */\n              swap1\n              pop\n                /* \"#utility.yul\":4766:4865   */\n              swap2\n              swap1\n              pop\n              jump\t// out\n                /* \"#utility.yul\":4871:5040   */\n            tag_68:\n                /* \"#utility.yul\":4955:4966   */\n              0x00\n                /* \"#utility.yul\":4989:4995   */\n              dup3\n                /* \"#utility.yul\":4984:4987   */\n              dup3\n                /* \"#utility.yul\":4977:4996   */\n              mstore\n                /* \"#utility.yul\":5029:5033   */\n              0x20\n                /* \"#utility.yul\":5024:5027   */\n              dup3\n                /* \"#utility.yul\":5020:5034   */\n              add\n                /* \"#utility.yul\":5005:5034   */\n              swap1\n              pop\n                /* \"#utility.yul\":4871:5040   */\n              swap3\n              swap2\n              pop\n              pop\n              jump\t// out\n                /* \"#utility.yul\":5046:5353   */\n            tag_69:\n                /* \"#utility.yul\":5114:5115   */\n              0x00\n                /* \"#utility.yul\":5124:5237   */\n            tag_149:\n                /* \"#utility.yul\":5138:5144   */\n              dup4\n                /* \"#utility.yul\":5135:5136   */\n              dup2\n                /* \"#utility.yul\":5132:5145   */\n              lt\n                /* \"#utility.yul\":5124:5237   */\n              iszero\n              tag_151\n              jumpi\n                /* \"#utility.yul\":5223:5224   */\n              dup1\n                /* \"#utility.yul\":5218:5221   */\n              dup3\n                /* \"#utility.yul\":5214:5225   */\n              add\n                /* \"#utility.yul\":5208:5226   */\n              mload\n                /* \"#utility.yul\":5204:5205   */\n              dup2\n                /* \"#utility.yul\":5199:5202   */\n              dup5\n                /* \"#utility.yul\":5195:5206   */\n              add\n                /* \"#utility.yul\":5188:5227   */\n              mstore\n                /* \"#utility.yul\":5160:5162   */\n              0x20\n                /* \"#utility.yul\":5157:5158   */\n              dup2\n                /* \"#utility.yul\":5153:5163   */\n              add\n                /* \"#utility.yul\":5148:5163   */\n              swap1\n              pop\n                /* \"#utility.yul\":5124:5237   */\n              jump(tag_149)\n            tag_151:\n                /* \"#utility.yul\":5255:5261   */\n              dup4\n                /* \"#utility.yul\":5252:5253   */\n              dup2\n                /* \"#utility.yul\":5249:5262   */\n              gt\n                /* \"#utility.yul\":5246:5347   */\n              iszero\n              tag_152\n              jumpi\n                /* \"#utility.yul\":5335:5336   */\n              0x00\n                /* \"#utility.yul\":5326:5332   */\n              dup5\n                /* \"#utility.yul\":5321:5324   */\n              dup5\n                /* \"#utility.yul\":5317:5333   */\n              add\n                /* \"#utility.yul\":5310:5337   */\n              mstore\n                /* \"#utility.yul\":5246:5347   */\n            tag_152:\n                /* \"#utility.yul\":5095:5353   */\n              pop\n                /* \"#utility.yul\":5046:5353   */\n              pop\n              pop\n              pop\n              jump\t// out\n                /* \"#utility.yul\":5359:5723   */\n            tag_70:\n                /* \"#utility.yul\":5447:5450   */\n              0x00\n                /* \"#utility.yul\":5475:5514   */\n              tag_154\n                /* \"#utility.yul\":5508:5513   */\n              dup3\n                /* \"#utility.yul\":5475:5514   */\n              tag_67\n              jump\t// in\n            tag_154:\n                /* \"#utility.yul\":5530:5601   */\n              tag_155\n                /* \"#utility.yul\":5594:5600   */\n              dup2\n                /* \"#utility.yul\":5589:5592   */\n              dup6\n                /* \"#utility.yul\":5530:5601   */\n              tag_68\n              jump\t// in\n            tag_155:\n                /* \"#utility.yul\":5523:5601   */\n              swap4\n              pop\n                /* \"#utility.yul\":5610:5662   */\n              tag_156\n                /* \"#utility.yul\":5655:5661   */\n              dup2\n                /* \"#utility.yul\":5650:5653   */\n              dup6\n                /* \"#utility.yul\":5643:5647   */\n              0x20\n                /* \"#utility.yul\":5636:5641   */\n              dup7\n                /* \"#utility.yul\":5632:5648   */\n              add\n                /* \"#utility.yul\":5610:5662   */\n              tag_69\n              jump\t// in\n            tag_156:\n                /* \"#utility.yul\":5687:5716   */\n              tag_157\n                /* \"#utility.yul\":5709:5715   */\n              dup2\n                /* \"#utility.yul\":5687:5716   */\n              tag_59\n              jump\t// in\n            tag_157:\n                /* \"#utility.yul\":5682:5685   */\n              dup5\n                /* \"#utility.yul\":5678:5717   */\n              add\n                /* \"#utility.yul\":5671:5717   */\n              swap2\n              pop\n                /* \"#utility.yul\":5451:5723   */\n              pop\n                /* \"#utility.yul\":5359:5723   */\n              swap3\n              swap2\n              pop\n              pop\n              jump\t// out\n                /* \"#utility.yul\":5729:6152   */\n            tag_33:\n                /* \"#utility.yul\":5870:5874   */\n              0x00\n                /* \"#utility.yul\":5908:5910   */\n              0x40\n                /* \"#utility.yul\":5897:5906   */\n              dup3\n                /* \"#utility.yul\":5893:5911   */\n              add\n                /* \"#utility.yul\":5885:5911   */\n              swap1\n              pop\n                /* \"#utility.yul\":5921:5992   */\n              tag_159\n                /* \"#utility.yul\":5989:5990   */\n              0x00\n                /* \"#utility.yul\":5978:5987   */\n              dup4\n                /* \"#utility.yul\":5974:5991   */\n              add\n                /* \"#utility.yul\":5965:5971   */\n              dup6\n                /* \"#utility.yul\":5921:5992   */\n              tag_51\n              jump\t// in\n            tag_159:\n                /* \"#utility.yul\":6039:6048   */\n              dup2\n                /* \"#utility.yul\":6033:6037   */\n              dup2\n                /* \"#utility.yul\":6029:6049   */\n              sub\n                /* \"#utility.yul\":6024:6026   */\n              0x20\n                /* \"#utility.yul\":6013:6022   */\n              dup4\n                /* \"#utility.yul\":6009:6027   */\n              add\n                /* \"#utility.yul\":6002:6050   */\n              mstore\n                /* \"#utility.yul\":6067:6145   */\n              tag_160\n                /* \"#utility.yul\":6140:6144   */\n              dup2\n                /* \"#utility.yul\":6131:6137   */\n              dup5\n                /* \"#utility.yul\":6067:6145   */\n              tag_70\n              jump\t// in\n            tag_160:\n                /* \"#utility.yul\":6059:6145   */\n              swap1\n              pop\n                /* \"#utility.yul\":5729:6152   */\n              swap4\n              swap3\n              pop\n              pop\n              pop\n              jump\t// out\n                /* \"#utility.yul\":6158:6338   */\n            tag_71:\n                /* \"#utility.yul\":6206:6283   */\n              0x4e487b7100000000000000000000000000000000000000000000000000000000\n                /* \"#utility.yul\":6203:6204   */\n              0x00\n                /* \"#utility.yul\":6196:6284   */\n              mstore\n                /* \"#utility.yul\":6303:6307   */\n              0x22\n                /* \"#utility.yul\":6300:6301   */\n              0x04\n                /* \"#utility.yul\":6293:6308   */\n              mstore\n                /* \"#utility.yul\":6327:6331   */\n              0x24\n                /* \"#utility.yul\":6324:6325   */\n              0x00\n                /* \"#utility.yul\":6317:6332   */\n              revert\n                /* \"#utility.yul\":6344:6664   */\n            tag_45:\n                /* \"#utility.yul\":6388:6394   */\n              0x00\n                /* \"#utility.yul\":6425:6426   */\n              0x02\n                /* \"#utility.yul\":6419:6423   */\n              dup3\n                /* \"#utility.yul\":6415:6427   */\n              div\n                /* \"#utility.yul\":6405:6427   */\n              swap1\n              pop\n                /* \"#utility.yul\":6472:6473   */\n              0x01\n                /* \"#utility.yul\":6466:6470   */\n              dup3\n                /* \"#utility.yul\":6462:6474   */\n              and\n                /* \"#utility.yul\":6493:6511   */\n              dup1\n                /* \"#utility.yul\":6483:6564   */\n              tag_163\n              jumpi\n                /* \"#utility.yul\":6549:6553   */\n              0x7f\n                /* \"#utility.yul\":6541:6547   */\n              dup3\n                /* \"#utility.yul\":6537:6554   */\n              and\n                /* \"#utility.yul\":6527:6554   */\n              swap2\n              pop\n                /* \"#utility.yul\":6483:6564   */\n            tag_163:\n                /* \"#utility.yul\":6611:6613   */\n              0x20\n                /* \"#utility.yul\":6603:6609   */\n              dup3\n                /* \"#utility.yul\":6600:6614   */\n              lt\n                /* \"#utility.yul\":6580:6598   */\n              dup2\n                /* \"#utility.yul\":6577:6615   */\n              sub\n                /* \"#utility.yul\":6574:6658   */\n              tag_164\n              jumpi\n                /* \"#utility.yul\":6630:6648   */\n              tag_165\n              tag_71\n              jump\t// in\n            tag_165:\n                /* \"#utility.yul\":6574:6658   */\n            tag_164:\n                /* \"#utility.yul\":6395:6664   */\n              pop\n                /* \"#utility.yul\":6344:6664   */\n              swap2\n              swap1\n              pop\n              jump\t// out\n                /* \"#utility.yul\":6670:6811   */\n            tag_72:\n                /* \"#utility.yul\":6719:6723   */\n              0x00\n                /* \"#utility.yul\":6742:6745   */\n              dup2\n                /* \"#utility.yul\":6734:6745   */\n              swap1\n              pop\n                /* \"#utility.yul\":6765:6768   */\n              dup2\n                /* \"#utility.yul\":6762:6763   */\n              0x00\n                /* \"#utility.yul\":6755:6769   */\n              mstore\n                /* \"#utility.yul\":6799:6803   */\n              0x20\n                /* \"#utility.yul\":6796:6797   */\n              0x00\n                /* \"#utility.yul\":6786:6804   */\n              keccak256\n                /* \"#utility.yul\":6778:6804   */\n              swap1\n              pop\n                /* \"#utility.yul\":6670:6811   */\n              swap2\n              swap1\n              pop\n              jump\t// out\n                /* \"#utility.yul\":6817:6910   */\n            tag_73:\n                /* \"#utility.yul\":6854:6860   */\n              0x00\n                /* \"#utility.yul\":6901:6903   */\n              0x20\n                /* \"#utility.yul\":6896:6898   */\n              0x1f\n                /* \"#utility.yul\":6889:6894   */\n              dup4\n                /* \"#utility.yul\":6885:6899   */\n              add\n                /* \"#utility.yul\":6881:6904   */\n              div\n                /* \"#utility.yul\":6871:6904   */\n              swap1\n              pop\n                /* \"#utility.yul\":6817:6910   */\n              swap2\n              swap1\n              pop\n              jump\t// out\n                /* \"#utility.yul\":6916:7023   */\n            tag_74:\n                /* \"#utility.yul\":6960:6968   */\n              0x00\n                /* \"#utility.yul\":7010:7015   */\n              dup3\n                /* \"#utility.yul\":7004:7008   */\n              dup3\n                /* \"#utility.yul\":7000:7016   */\n              shl\n                /* \"#utility.yul\":6979:7016   */\n              swap1\n              pop\n                /* \"#utility.yul\":6916:7023   */\n              swap3\n              swap2\n              pop\n              pop\n              jump\t// out\n                /* \"#utility.yul\":7029:7422   */\n            tag_75:\n                /* \"#utility.yul\":7098:7104   */\n              0x00\n                /* \"#utility.yul\":7148:7149   */\n              0x08\n                /* \"#utility.yul\":7136:7146   */\n              dup4\n                /* \"#utility.yul\":7132:7150   */\n              mul\n                /* \"#utility.yul\":7171:7268   */\n              tag_170\n                /* \"#utility.yul\":7201:7267   */\n              0xffffffffffffffffffffffffffffffffffffffffffffffffffffffffffffffff\n                /* \"#utility.yul\":7190:7199   */\n              dup3\n                /* \"#utility.yul\":7171:7268   */\n              tag_74\n              jump\t// in\n            tag_170:\n                /* \"#utility.yul\":7289:7328   */\n              tag_171\n                /* \"#utility.yul\":7319:7327   */\n              dup7\n                /* \"#utility.yul\":7308:7317   */\n              dup4\n                /* \"#utility.yul\":7289:7328   */\n              tag_74\n              jump\t// in\n            tag_171:\n                /* \"#utility.yul\":7277:7328   */\n              swap6\n              pop\n                /* \"#utility.yul\":7361:7365   */\n              dup1\n                /* \"#utility.yul\":7357:7366   */\n              not\n                /* \"#utility.yul\":7350:7355   */\n              dup5\n                /* \"#utility.yul\":7346:7367   */\n              and\n                /* \"#utility.yul\":7337:7367   */\n              swap4\n              pop\n                /* \"#utility.yul\":7410:7414   */\n              dup1\n                /* \"#utility.yul\":7400:7408   */\n              dup7\n                /* \"#utility.yul\":7396:7415   */\n              and\n                /* \"#utility.yul\":7389:7394   */\n              dup5\n                /* \"#utility.yul\":7386:7416   */\n              or\n                /* \"#utility.yul\":7376:7416   */\n              swap3\n              pop\n                /* \"#utility.yul\":7105:7422   */\n              pop\n              pop\n                /* \"#utility.yul\":7029:7422   */\n              swap4\n              swap3\n              pop\n              pop\n              pop\n              jump\t// out\n                /* \"#utility.yul\":7428:7488   */\n            tag_76:\n                /* \"#utility.yul\":7456:7459   */\n              0x00\n                /* \"#utility.yul\":7477:7482   */\n              dup2\n                /* \"#utility.yul\":7470:7482   */\n              swap1\n              pop\n                /* \"#utility.yul\":7428:7488   */\n              swap2\n              swap1\n              pop\n              jump\t// out\n                /* \"#utility.yul\":7494:7636   */\n            tag_77:\n                /* \"#utility.yul\":7544:7553   */\n              0x00\n                /* \"#utility.yul\":7577:7630   */\n              tag_174\n                /* \"#utility.yul\":7595:7629   */\n              tag_175\n                /* \"#utility.yul\":7604:7628   */\n              tag_176\n                /* \"#utility.yul\":7622:7627   */\n              dup5\n                /* \"#utility.yul\":7604:7628   */\n              tag_50\n              jump\t// in\n            tag_176:\n                /* \"#utility.yul\":7595:7629   */\n              tag_76\n              jump\t// in\n            tag_175:\n                /* \"#utility.yul\":7577:7630   */\n              tag_50\n              jump\t// in\n            tag_174:\n                /* \"#utility.yul\":7564:7630   */\n              swap1\n              pop\n                /* \"#utility.yul\":7494:7636   */\n              swap2\n              swap1\n              pop\n              jump\t// out\n                /* \"#utility.yul\":7642:7717   */\n            tag_78:\n                /* \"#utility.yul\":7685:7688   */\n              0x00\n                /* \"#utility.yul\":7706:7711   */\n              dup2\n                /* \"#utility.yul\":7699:7711   */\n              swap1\n              pop\n                /* \"#utility.yul\":7642:7717   */\n              swap2\n              swap1\n              pop\n              jump\t// out\n                /* \"#utility.yul\":7723:7992   */\n            tag_79:\n                /* \"#utility.yul\":7833:7872   */\n              tag_179\n                /* \"#utility.yul\":7864:7871   */\n              dup4\n                /* \"#utility.yul\":7833:7872   */\n              tag_77\n              jump\t// in\n            tag_179:\n                /* \"#utility.yul\":7894:7985   */\n              tag_180\n                /* \"#utility.yul\":7943:7984   */\n              tag_181\n                /* \"#utility.yul\":7967:7983   */\n              dup3\n                /* \"#utility.yul\":7943:7984   */\n              tag_78\n              jump\t// in\n            tag_181:\n                /* \"#utility.yul\":7935:7941   */\n              dup5\n                /* \"#utility.yul\":7928:7932   */\n              dup5\n                /* \"#utility.yul\":7922:7933   */\n              sload\n                /* \"#utility.yul\":7894:7985   */\n              tag_75\n              jump\t// in\n            tag_180:\n                /* \"#utility.yul\":7888:7892   */\n              dup3\n                /* \"#utility.yul\":7881:7986   */\n              sstore\n                /* \"#utility.yul\":7799:7992   */\n              pop\n                /* \"#utility.yul\":7723:7992   */\n              pop\n              pop\n              pop\n              jump\t// out\n                /* \"#utility.yul\":7998:8071   */\n            tag_80:\n                /* \"#utility.yul\":8043:8046   */\n              0x00\n                /* \"#utility.yul\":7998:8071   */\n              swap1\n              jump\t// out\n                /* \"#utility.yul\":8077:8266   */\n            tag_81:\n                /* \"#utility.yul\":8154:8186   */\n              tag_184\n              tag_80\n              jump\t// in\n            tag_184:\n                /* \"#utility.yul\":8195:8260   */\n              tag_185\n                /* \"#utility.yul\":8253:8259   */\n              dup2\n                /* \"#utility.yul\":8245:8251   */\n              dup5\n                /* \"#utility.yul\":8239:8243   */\n              dup5\n                /* \"#utility.yul\":8195:8260   */\n              tag_79\n              jump\t// in\n            tag_185:\n                /* \"#utility.yul\":8130:8266   */\n              pop\n                /* \"#utility.yul\":8077:8266   */\n              pop\n              pop\n              jump\t// out\n                /* \"#utility.yul\":8272:8458   */\n            tag_82:\n                /* \"#utility.yul\":8332:8452   */\n            tag_187:\n                /* \"#utility.yul\":8349:8352   */\n              dup2\n                /* \"#utility.yul\":8342:8347   */\n              dup2\n                /* \"#utility.yul\":8339:8353   */\n              lt\n                /* \"#utility.yul\":8332:8452   */\n              iszero\n              tag_189\n              jumpi\n                /* \"#utility.yul\":8403:8442   */\n              tag_190\n                /* \"#utility.yul\":8440:8441   */\n              0x00\n                /* \"#utility.yul\":8433:8438   */\n              dup3\n                /* \"#utility.yul\":8403:8442   */\n              tag_81\n              jump\t// in\n            tag_190:\n                /* \"#utility.yul\":8376:8377   */\n              0x01\n                /* \"#utility.yul\":8369:8374   */\n              dup2\n                /* \"#utility.yul\":8365:8378   */\n              add\n                /* \"#utility.yul\":8356:8378   */\n              swap1\n              pop\n                /* \"#utility.yul\":8332:8452   */\n              jump(tag_187)\n            tag_189:\n                /* \"#utility.yul\":8272:8458   */\n              pop\n              pop\n              jump\t// out\n                /* \"#utility.yul\":8464:9007   */\n            tag_83:\n                /* \"#utility.yul\":8565:8567   */\n              0x1f\n                /* \"#utility.yul\":8560:8563   */\n              dup3\n                /* \"#utility.yul\":8557:8568   */\n              gt\n                /* \"#utility.yul\":8554:9000   */\n              iszero\n              tag_192\n              jumpi\n                /* \"#utility.yul\":8599:8637   */\n              tag_193\n                /* \"#utility.yul\":8631:8636   */\n              dup2\n                /* \"#utility.yul\":8599:8637   */\n              tag_72\n              jump\t// in\n            tag_193:\n                /* \"#utility.yul\":8683:8712   */\n              tag_194\n                /* \"#utility.yul\":8701:8711   */\n              dup5\n                /* \"#utility.yul\":8683:8712   */\n              tag_73\n              jump\t// in\n            tag_194:\n                /* \"#utility.yul\":8673:8681   */\n              dup2\n                /* \"#utility.yul\":8669:8713   */\n              add\n                /* \"#utility.yul\":8866:8868   */\n              0x20\n                /* \"#utility.yul\":8854:8864   */\n              dup6\n                /* \"#utility.yul\":8851:8869   */\n              lt\n                /* \"#utility.yul\":8848:8897   */\n              iszero\n              tag_195\n              jumpi\n                /* \"#utility.yul\":8887:8895   */\n              dup2\n                /* \"#utility.yul\":8872:8895   */\n              swap1\n              pop\n                /* \"#utility.yul\":8848:8897   */\n            tag_195:\n                /* \"#utility.yul\":8910:8990   */\n              tag_196\n                /* \"#utility.yul\":8966:8988   */\n              tag_197\n                /* \"#utility.yul\":8984:8987   */\n              dup6\n                /* \"#utility.yul\":8966:8988   */\n              tag_73\n              jump\t// in\n            tag_197:\n                /* \"#utility.yul\":8956:8964   */\n              dup4\n                /* \"#utility.yul\":8952:8989   */\n              add\n                /* \"#utility.yul\":8939:8950   */\n              dup3\n                /* \"#utility.yul\":8910:8990   */\n              tag_82\n              jump\t// in\n            tag_196:\n                /* \"#utility.yul\":8569:9000   */\n              pop\n              pop\n                /* \"#utility.yul\":8554:9000   */\n            tag_192:\n                /* \"#utility.yul\":8464:9007   */\n              pop\n              pop\n              pop\n              jump\t// out\n                /* \"#utility.yul\":9013:9130   */\n            tag_84:\n                /* \"#utility.yul\":9067:9075   */\n              0x00\n                /* \"#utility.yul\":9117:9122   */\n              dup3\n                /* \"#utility.yul\":9111:9115   */\n              dup3\n                /* \"#utility.yul\":9107:9123   */\n              shr\n                /* \"#utility.yul\":9086:9123   */\n              swap1\n              pop\n                /* \"#utility.yul\":9013:9130   */\n              swap3\n              swap2\n              pop\n              pop\n              jump\t// out\n                /* \"#utility.yul\":9136:9305   */\n            tag_85:\n                /* \"#utility.yul\":9180:9186   */\n              0x00\n                /* \"#utility.yul\":9213:9264   */\n              tag_200\n                /* \"#utility.yul\":9261:9262   */\n              0x00\n                /* \"#utility.yul\":9257:9263   */\n              not\n                /* \"#utility.yul\":9249:9254   */\n              dup5\n                /* \"#utility.yul\":9246:9247   */\n              0x08\n                /* \"#utility.yul\":9242:9255   */\n              mul\n                /* \"#utility.yul\":9213:9264   */\n              tag_84\n              jump\t// in\n            tag_200:\n                /* \"#utility.yul\":9209:9265   */\n              not\n                /* \"#utility.yul\":9294:9298   */\n              dup1\n                /* \"#utility.yul\":9288:9292   */\n              dup4\n                /* \"#utility.yul\":9284:9299   */\n              and\n                /* \"#utility.yul\":9274:9299   */\n              swap2\n              pop\n                /* \"#utility.yul\":9187:9305   */\n              pop\n                /* \"#utility.yul\":9136:9305   */\n              swap3\n              swap2\n              pop\n              pop\n              jump\t// out\n                /* \"#utility.yul\":9310:9605   */\n            tag_86:\n                /* \"#utility.yul\":9386:9390   */\n              0x00\n                /* \"#utility.yul\":9532:9561   */\n              tag_202\n                /* \"#utility.yul\":9557:9560   */\n              dup4\n                /* \"#utility.yul\":9551:9555   */\n              dup4\n                /* \"#utility.yul\":9532:9561   */\n              tag_85\n              jump\t// in\n            tag_202:\n                /* \"#utility.yul\":9524:9561   */\n              swap2\n              pop\n                /* \"#utility.yul\":9594:9597   */\n              dup3\n                /* \"#utility.yul\":9591:9592   */\n              0x02\n                /* \"#utility.yul\":9587:9598   */\n              mul\n                /* \"#utility.yul\":9581:9585   */\n              dup3\n                /* \"#utility.yul\":9578:9599   */\n              or\n                /* \"#utility.yul\":9570:9599   */\n              swap1\n              pop\n                /* \"#utility.yul\":9310:9605   */\n              swap3\n              swap2\n              pop\n              pop\n              jump\t// out\n                /* \"#utility.yul\":9610:11005   */\n            tag_39:\n                /* \"#utility.yul\":9727:9764   */\n              tag_204\n                /* \"#utility.yul\":9760:9763   */\n              dup3\n                /* \"#utility.yul\":9727:9764   */\n              tag_67\n              jump\t// in\n            tag_204:\n                /* \"#utility.yul\":9829:9847   */\n              0xffffffffffffffff\n                /* \"#utility.yul\":9821:9827   */\n              dup2\n                /* \"#utility.yul\":9818:9848   */\n              gt\n                /* \"#utility.yul\":9815:9871   */\n              iszero\n              tag_205\n              jumpi\n                /* \"#utility.yul\":9851:9869   */\n              tag_206\n              tag_60\n              jump\t// in\n            tag_206:\n                /* \"#utility.yul\":9815:9871   */\n            tag_205:\n                /* \"#utility.yul\":9895:9933   */\n              tag_207\n                /* \"#utility.yul\":9927:9931   */\n              dup3\n                /* \"#utility.yul\":9921:9932   */\n              sload\n                /* \"#utility.yul\":9895:9933   */\n              tag_45\n              jump\t// in\n            tag_207:\n                /* \"#utility.yul\":9980:10047   */\n              tag_208\n                /* \"#utility.yul\":10040:10046   */\n              dup3\n                /* \"#utility.yul\":10032:10038   */\n              dup3\n                /* \"#utility.yul\":10026:10030   */\n              dup6\n                /* \"#utility.yul\":9980:10047   */\n              tag_83\n              jump\t// in\n            tag_208:\n                /* \"#utility.yul\":10074:10075   */\n              0x00\n                /* \"#utility.yul\":10098:10102   */\n              0x20\n                /* \"#utility.yul\":10085:10102   */\n              swap1\n              pop\n                /* \"#utility.yul\":10130:10132   */\n              0x1f\n                /* \"#utility.yul\":10122:10128   */\n              dup4\n                /* \"#utility.yul\":10119:10133   */\n              gt\n                /* \"#utility.yul\":10147:10148   */\n              0x01\n                /* \"#utility.yul\":10142:10760   */\n              dup2\n              eq\n              tag_210\n              jumpi\n                /* \"#utility.yul\":10804:10805   */\n              0x00\n                /* \"#utility.yul\":10821:10827   */\n              dup5\n                /* \"#utility.yul\":10818:10895   */\n              iszero\n              tag_211\n              jumpi\n                /* \"#utility.yul\":10870:10879   */\n              dup3\n                /* \"#utility.yul\":10865:10868   */\n              dup8\n                /* \"#utility.yul\":10861:10880   */\n              add\n                /* \"#utility.yul\":10855:10881   */\n              mload\n                /* \"#utility.yul\":10846:10881   */\n              swap1\n              pop\n                /* \"#utility.yul\":10818:10895   */\n            tag_211:\n                /* \"#utility.yul\":10921:10988   */\n              tag_212\n                /* \"#utility.yul\":10981:10987   */\n              dup6\n                /* \"#utility.yul\":10974:10979   */\n              dup3\n                /* \"#utility.yul\":10921:10988   */\n              tag_86\n              jump\t// in\n            tag_212:\n                /* \"#utility.yul\":10915:10919   */\n              dup7\n                /* \"#utility.yul\":10908:10989   */\n              sstore\n                /* \"#utility.yul\":10777:10999   */\n              pop\n                /* \"#utility.yul\":10112:10999   */\n              jump(tag_209)\n                /* \"#utility.yul\":10142:10760   */\n            tag_210:\n                /* \"#utility.yul\":10194:10198   */\n              0x1f\n                /* \"#utility.yul\":10190:10199   */\n              not\n                /* \"#utility.yul\":10182:10188   */\n              dup5\n                /* \"#utility.yul\":10178:10200   */\n              and\n                /* \"#utility.yul\":10228:10265   */\n              tag_213\n                /* \"#utility.yul\":10260:10264   */\n              dup7\n                /* \"#utility.yul\":10228:10265   */\n              tag_72\n              jump\t// in\n            tag_213:\n                /* \"#utility.yul\":10287:10288   */\n              0x00\n                /* \"#utility.yul\":10301:10509   */\n            tag_214:\n                /* \"#utility.yul\":10315:10322   */\n              dup3\n                /* \"#utility.yul\":10312:10313   */\n              dup2\n                /* \"#utility.yul\":10309:10323   */\n              lt\n                /* \"#utility.yul\":10301:10509   */\n              iszero\n              tag_216\n              jumpi\n                /* \"#utility.yul\":10394:10403   */\n              dup5\n                /* \"#utility.yul\":10389:10392   */\n              dup10\n                /* \"#utility.yul\":10385:10404   */\n              add\n                /* \"#utility.yul\":10379:10405   */\n              mload\n                /* \"#utility.yul\":10371:10377   */\n              dup3\n                /* \"#utility.yul\":10364:10406   */\n              sstore\n                /* \"#utility.yul\":10445:10446   */\n              0x01\n                /* \"#utility.yul\":10437:10443   */\n              dup3\n                /* \"#utility.yul\":10433:10447   */\n              add\n                /* \"#utility.yul\":10423:10447   */\n              swap2\n              pop\n                /* \"#utility.yul\":10492:10494   */\n              0x20\n                /* \"#utility.yul\":10481:10490   */\n              dup6\n                /* \"#utility.yul\":10477:10495   */\n              add\n                /* \"#utility.yul\":10464:10495   */\n              swap5\n              pop\n                /* \"#utility.yul\":10338:10342   */\n              0x20\n                /* \"#utility.yul\":10335:10336   */\n              dup2\n                /* \"#utility.yul\":10331:10343   */\n              add\n                /* \"#utility.yul\":10326:10343   */\n              swap1\n              pop\n                /* \"#utility.yul\":10301:10509   */\n              jump(tag_214)\n            tag_216:\n                /* \"#utility.yul\":10537:10543   */\n              dup7\n                /* \"#utility.yul\":10528:10535   */\n              dup4\n                /* \"#utility.yul\":10525:10544   */\n              lt\n                /* \"#utility.yul\":10522:10701   */\n              iszero\n              tag_217\n              jumpi\n                /* \"#utility.yul\":10595:10604   */\n              dup5\n                /* \"#utility.yul\":10590:10593   */\n              dup10\n                /* \"#utility.yul\":10586:10605   */\n              add\n                /* \"#utility.yul\":10580:10606   */\n              mload\n                /* \"#utility.yul\":10638:10686   */\n              tag_218\n                /* \"#utility.yul\":10680:10684   */\n              0x1f\n                /* \"#utility.yul\":10672:10678   */\n              dup10\n                /* \"#utility.yul\":10668:10685   */\n              and\n                /* \"#utility.yul\":10657:10666   */\n              dup3\n                /* \"#utility.yul\":10638:10686   */\n              tag_85\n              jump\t// in\n            tag_218:\n                /* \"#utility.yul\":10630:10636   */\n              dup4\n                /* \"#utility.yul\":10623:10687   */\n              sstore\n                /* \"#utility.yul\":10545:10701   */\n              pop\n                /* \"#utility.yul\":10522:10701   */\n            tag_217:\n                /* \"#utility.yul\":10747:10748   */\n              0x01\n                /* \"#utility.yul\":10743:10744   */\n              0x02\n                /* \"#utility.yul\":10735:10741   */\n              dup9\n                /* \"#utility.yul\":10731:10745   */\n              mul\n                /* \"#utility.yul\":10727:10749   */\n              add\n                /* \"#utility.yul\":10721:10725   */\n              dup9\n                /* \"#utility.yul\":10714:10750   */\n              sstore\n                /* \"#utility.yul\":10149:10760   */\n              pop\n              pop\n              pop\n                /* \"#utility.yul\":10112:10999   */\n            tag_209:\n              pop\n                /* \"#utility.yul\":9702:11005   */\n              pop\n              pop\n              pop\n                /* \"#utility.yul\":9610:11005   */\n              pop\n              pop\n              jump\t// out\n                /* \"#utility.yul\":11011:11159   */\n            tag_87:\n                /* \"#utility.yul\":11113:11124   */\n              0x00\n                /* \"#utility.yul\":11150:11153   */\n              dup2\n                /* \"#utility.yul\":11135:11153   */\n              swap1\n              pop\n                /* \"#utility.yul\":11011:11159   */\n              swap3\n              swap2\n              pop\n              pop\n              jump\t// out\n                /* \"#utility.yul\":11165:11542   */\n            tag_88:\n                /* \"#utility.yul\":11271:11274   */\n              0x00\n                /* \"#utility.yul\":11299:11338   */\n              tag_221\n                /* \"#utility.yul\":11332:11337   */\n              dup3\n                /* \"#utility.yul\":11299:11338   */\n              tag_67\n              jump\t// in\n            tag_221:\n                /* \"#utility.yul\":11354:11443   */\n              tag_222\n                /* \"#utility.yul\":11436:11442   */\n              dup2\n                /* \"#utility.yul\":11431:11434   */\n              dup6\n                /* \"#utility.yul\":11354:11443   */\n              tag_87\n              jump\t// in\n            tag_222:\n                /* \"#utility.yul\":11347:11443   */\n              swap4\n              pop\n                /* \"#utility.yul\":11452:11504   */\n              tag_223\n                /* \"#utility.yul\":11497:11503   */\n              dup2\n                /* \"#utility.yul\":11492:11495   */\n              dup6\n                /* \"#utility.yul\":11485:11489   */\n              0x20\n                /* \"#utility.yul\":11478:11483   */\n              dup7\n                /* \"#utility.yul\":11474:11490   */\n              add\n                /* \"#utility.yul\":11452:11504   */\n              tag_69\n              jump\t// in\n            tag_223:\n                /* \"#utility.yul\":11529:11535   */\n              dup1\n                /* \"#utility.yul\":11524:11527   */\n              dup5\n                /* \"#utility.yul\":11520:11536   */\n              add\n                /* \"#utility.yul\":11513:11536   */\n              swap2\n              pop\n                /* \"#utility.yul\":11275:11542   */\n              pop\n                /* \"#utility.yul\":11165:11542   */\n              swap3\n              swap2\n              pop\n              pop\n              jump\t// out\n                /* \"#utility.yul\":11548:11823   */\n            tag_41:\n                /* \"#utility.yul\":11680:11683   */\n              0x00\n                /* \"#utility.yul\":11702:11797   */\n              tag_225\n                /* \"#utility.yul\":11793:11796   */\n              dup3\n                /* \"#utility.yul\":11784:11790   */\n              dup5\n                /* \"#utility.yul\":11702:11797   */\n              tag_88\n              jump\t// in\n            tag_225:\n                /* \"#utility.yul\":11695:11797   */\n              swap2\n              pop\n                /* \"#utility.yul\":11814:11817   */\n              dup2\n                /* \"#utility.yul\":11807:11817   */\n              swap1\n              pop\n                /* \"#utility.yul\":11548:11823   */\n              swap3\n              swap2\n              pop\n              pop\n              jump\t// out\n\n            auxdata: 0xa26469706673582212200e11ebf583adabfb81012bff53bd36698f8f36ae5392d0ffda907b56ad661dbe64736f6c634300080f0033\n        }\n    }\n\n    auxdata: 0xa2646970667358221220db481786788d0cfcacee2c8a02adede901ff33722a869a61ade031c9e8b2933964736f6c634300080f0033\n}\n",
				"bytecode": {
					"linkReferences": {},
					"object": "608060405234801561001057600080fd5b50610ebe806100206000396000f3fe608060405234801561001057600080fd5b506004361061004c5760003560e01c80631563700f146100515780631dda65411461006d57806364591bf114610077578063c5f19c20146100a7575b600080fd5b61006b60048036038101906100669190610353565b6100d7565b005b610075610184565b005b610091600480360381019061008c9190610393565b610217565b60405161009e919061043f565b60405180910390f35b6100c160048036038101906100bc9190610393565b610256565b6040516100ce9190610469565b60405180910390f35b600082815481106100eb576100ea610484565b5b9060005260206000200160009054906101000a900473ffffffffffffffffffffffffffffffffffffffff1673ffffffffffffffffffffffffffffffffffffffff16636057361d826040518263ffffffff1660e01b815260040161014e9190610469565b600060405180830381600087803b15801561016857600080fd5b505af115801561017c573d6000803e3d6000fd5b505050505050565b60006040516101929061030b565b604051809103906000f0801580156101ae573d6000803e3d6000fd5b5090506000819080600181540180825580915050600190039060005260206000200160009091909190916101000a81548173ffffffffffffffffffffffffffffffffffffffff021916908373ffffffffffffffffffffffffffffffffffffffff16021790555050565b6000818154811061022757600080fd5b906000526020600020016000915054906101000a900473ffffffffffffffffffffffffffffffffffffffff1681565b600080828154811061026b5761026a610484565b5b9060005260206000200160009054906101000a900473ffffffffffffffffffffffffffffffffffffffff1673ffffffffffffffffffffffffffffffffffffffff16632e64cec16040518163ffffffff1660e01b8152600401602060405180830381865afa1580156102e0573d6000803e3d6000fd5b505050506040513d601f19601f8201168201806040525081019061030491906104c8565b9050919050565b610993806104f683390190565b600080fd5b6000819050919050565b6103308161031d565b811461033b57600080fd5b50565b60008135905061034d81610327565b92915050565b6000806040838503121561036a57610369610318565b5b60006103788582860161033e565b92505060206103898582860161033e565b9150509250929050565b6000602082840312156103a9576103a8610318565b5b60006103b78482850161033e565b91505092915050565b600073ffffffffffffffffffffffffffffffffffffffff82169050919050565b6000819050919050565b60006104056104006103fb846103c0565b6103e0565b6103c0565b9050919050565b6000610417826103ea565b9050919050565b60006104298261040c565b9050919050565b6104398161041e565b82525050565b60006020820190506104546000830184610430565b92915050565b6104638161031d565b82525050565b600060208201905061047e600083018461045a565b92915050565b7f4e487b7100000000000000000000000000000000000000000000000000000000600052603260045260246000fd5b6000815190506104c281610327565b92915050565b6000602082840312156104de576104dd610318565b5b60006104ec848285016104b3565b9150509291505056fe608060405234801561001057600080fd5b50610973806100206000396000f3fe608060405234801561001057600080fd5b50600436106100625760003560e01c80632e64cec114610067578063471f7cdf146100855780636057361d146100a35780636f760f41146100bf5780638bab8dd5146100db5780639e7a13ad1461010b575b600080fd5b61006f61013c565b60405161007c91906102e1565b60405180910390f35b61008d610145565b60405161009a91906102e1565b60405180910390f35b6100bd60048036038101906100b8919061033c565b61014b565b005b6100d960048036038101906100d491906104af565b610155565b005b6100f560048036038101906100f0919061050b565b6101de565b60405161010291906102e1565b60405180910390f35b6101256004803603810190610120919061033c565b61020c565b6040516101339291906105dc565b60405180910390f35b60008054905090565b60005481565b8060008190555050565b600260405180604001604052808381526020018481525090806001815401808255809150506001900390600052602060002090600202016000909190919091506000820151816000015560208201518160010190816101b49190610818565b505050806001836040516101c89190610926565b9081526020016040518091039020819055505050565b6001818051602081018201805184825260208301602085012081835280955050505050506000915090505481565b6002818154811061021c57600080fd5b90600052602060002090600202016000915090508060000154908060010180546102459061063b565b80601f01602080910402602001604051908101604052809291908181526020018280546102719061063b565b80156102be5780601f10610293576101008083540402835291602001916102be565b820191906000526020600020905b8154815290600101906020018083116102a157829003601f168201915b5050505050905082565b6000819050919050565b6102db816102c8565b82525050565b60006020820190506102f660008301846102d2565b92915050565b6000604051905090565b600080fd5b600080fd5b610319816102c8565b811461032457600080fd5b50565b60008135905061033681610310565b92915050565b60006020828403121561035257610351610306565b5b600061036084828501610327565b91505092915050565b600080fd5b600080fd5b6000601f19601f8301169050919050565b7f4e487b7100000000000000000000000000000000000000000000000000000000600052604160045260246000fd5b6103bc82610373565b810181811067ffffffffffffffff821117156103db576103da610384565b5b80604052505050565b60006103ee6102fc565b90506103fa82826103b3565b919050565b600067ffffffffffffffff82111561041a57610419610384565b5b61042382610373565b9050602081019050919050565b82818337600083830152505050565b600061045261044d846103ff565b6103e4565b90508281526020810184848401111561046e5761046d61036e565b5b610479848285610430565b509392505050565b600082601f83011261049657610495610369565b5b81356104a684826020860161043f565b91505092915050565b600080604083850312156104c6576104c5610306565b5b600083013567ffffffffffffffff8111156104e4576104e361030b565b5b6104f085828601610481565b925050602061050185828601610327565b9150509250929050565b60006020828403121561052157610520610306565b5b600082013567ffffffffffffffff81111561053f5761053e61030b565b5b61054b84828501610481565b91505092915050565b600081519050919050565b600082825260208201905092915050565b60005b8381101561058e578082015181840152602081019050610573565b8381111561059d576000848401525b50505050565b60006105ae82610554565b6105b8818561055f565b93506105c8818560208601610570565b6105d181610373565b840191505092915050565b60006040820190506105f160008301856102d2565b818103602083015261060381846105a3565b90509392505050565b7f4e487b7100000000000000000000000000000000000000000000000000000000600052602260045260246000fd5b6000600282049050600182168061065357607f821691505b6020821081036106665761066561060c565b5b50919050565b60008190508160005260206000209050919050565b60006020601f8301049050919050565b600082821b905092915050565b6000600883026106ce7fffffffffffffffffffffffffffffffffffffffffffffffffffffffffffffffff82610691565b6106d88683610691565b95508019841693508086168417925050509392505050565b6000819050919050565b600061071561071061070b846102c8565b6106f0565b6102c8565b9050919050565b6000819050919050565b61072f836106fa565b61074361073b8261071c565b84845461069e565b825550505050565b600090565b61075861074b565b610763818484610726565b505050565b5b818110156107875761077c600082610750565b600181019050610769565b5050565b601f8211156107cc5761079d8161066c565b6107a684610681565b810160208510156107b5578190505b6107c96107c185610681565b830182610768565b50505b505050565b600082821c905092915050565b60006107ef600019846008026107d1565b1980831691505092915050565b600061080883836107de565b9150826002028217905092915050565b61082182610554565b67ffffffffffffffff81111561083a57610839610384565b5b610844825461063b565b61084f82828561078b565b600060209050601f8311600181146108825760008415610870578287015190505b61087a85826107fc565b8655506108e2565b601f1984166108908661066c565b60005b828110156108b857848901518255600182019150602085019450602081019050610893565b868310156108d557848901516108d1601f8916826107de565b8355505b6001600288020188555050505b505050505050565b600081905092915050565b600061090082610554565b61090a81856108ea565b935061091a818560208601610570565b80840191505092915050565b600061093282846108f5565b91508190509291505056fea26469706673582212200e11ebf583adabfb81012bff53bd36698f8f36ae5392d0ffda907b56ad661dbe64736f6c634300080f0033a2646970667358221220db481786788d0cfcacee2c8a02adede901ff33722a869a61ade031c9e8b2933964736f6c634300080f0033",
					"opcodes": "PUSH1 0x80 PUSH1 0x40 MSTORE CALLVALUE DUP1 ISZERO PUSH2 0x10 JUMPI PUSH1 0x0 DUP1 REVERT JUMPDEST POP PUSH2 0xEBE DUP1 PUSH2 0x20 PUSH1 0x0 CODECOPY PUSH1 0x0 RETURN INVALID PUSH1 0x80 PUSH1 0x40 MSTORE CALLVALUE DUP1 ISZERO PUSH2 0x10 JUMPI PUSH1 0x0 DUP1 REVERT JUMPDEST POP PUSH1 0x4 CALLDATASIZE LT PUSH2 0x4C JUMPI PUSH1 0x0 CALLDATALOAD PUSH1 0xE0 SHR DUP1 PUSH4 0x1563700F EQ PUSH2 0x51 JUMPI DUP1 PUSH4 0x1DDA6541 EQ PUSH2 0x6D JUMPI DUP1 PUSH4 0x64591BF1 EQ PUSH2 0x77 JUMPI DUP1 PUSH4 0xC5F19C20 EQ PUSH2 0xA7 JUMPI JUMPDEST PUSH1 0x0 DUP1 REVERT JUMPDEST PUSH2 0x6B PUSH1 0x4 DUP1 CALLDATASIZE SUB DUP2 ADD SWAP1 PUSH2 0x66 SWAP2 SWAP1 PUSH2 0x353 JUMP JUMPDEST PUSH2 0xD7 JUMP JUMPDEST STOP JUMPDEST PUSH2 0x75 PUSH2 0x184 JUMP JUMPDEST STOP JUMPDEST PUSH2 0x91 PUSH1 0x4 DUP1 CALLDATASIZE SUB DUP2 ADD SWAP1 PUSH2 0x8C SWAP2 SWAP1 PUSH2 0x393 JUMP JUMPDEST PUSH2 0x217 JUMP JUMPDEST PUSH1 0x40 MLOAD PUSH2 0x9E SWAP2 SWAP1 PUSH2 0x43F JUMP JUMPDEST PUSH1 0x40 MLOAD DUP1 SWAP2 SUB SWAP1 RETURN JUMPDEST PUSH2 0xC1 PUSH1 0x4 DUP1 CALLDATASIZE SUB DUP2 ADD SWAP1 PUSH2 0xBC SWAP2 SWAP1 PUSH2 0x393 JUMP JUMPDEST PUSH2 0x256 JUMP JUMPDEST PUSH1 0x40 MLOAD PUSH2 0xCE SWAP2 SWAP1 PUSH2 0x469 JUMP JUMPDEST PUSH1 0x40 MLOAD DUP1 SWAP2 SUB SWAP1 RETURN JUMPDEST PUSH1 0x0 DUP3 DUP2 SLOAD DUP2 LT PUSH2 0xEB JUMPI PUSH2 0xEA PUSH2 0x484 JUMP JUMPDEST JUMPDEST SWAP1 PUSH1 0x0 MSTORE PUSH1 0x20 PUSH1 0x0 KECCAK256 ADD PUSH1 0x0 SWAP1 SLOAD SWAP1 PUSH2 0x100 EXP SWAP1 DIV PUSH20 0xFFFFFFFFFFFFFFFFFFFFFFFFFFFFFFFFFFFFFFFF AND PUSH20 0xFFFFFFFFFFFFFFFFFFFFFFFFFFFFFFFFFFFFFFFF AND PUSH4 0x6057361D DUP3 PUSH1 0x40 MLOAD DUP3 PUSH4 0xFFFFFFFF AND PUSH1 0xE0 SHL DUP2 MSTORE PUSH1 0x4 ADD PUSH2 0x14E SWAP2 SWAP1 PUSH2 0x469 JUMP JUMPDEST PUSH1 0x0 PUSH1 0x40 MLOAD DUP1 DUP4 SUB DUP2 PUSH1 0x0 DUP8 DUP1 EXTCODESIZE ISZERO DUP1 ISZERO PUSH2 0x168 JUMPI PUSH1 0x0 DUP1 REVERT JUMPDEST POP GAS CALL ISZERO DUP1 ISZERO PUSH2 0x17C JUMPI RETURNDATASIZE PUSH1 0x0 DUP1 RETURNDATACOPY RETURNDATASIZE PUSH1 0x0 REVERT JUMPDEST POP POP POP POP POP POP JUMP JUMPDEST PUSH1 0x0 PUSH1 0x40 MLOAD PUSH2 0x192 SWAP1 PUSH2 0x30B JUMP JUMPDEST PUSH1 0x40 MLOAD DUP1 SWAP2 SUB SWAP1 PUSH1 0x0 CREATE DUP1 ISZERO DUP1 ISZERO PUSH2 0x1AE JUMPI RETURNDATASIZE PUSH1 0x0 DUP1 RETURNDATACOPY RETURNDATASIZE PUSH1 0x0 REVERT JUMPDEST POP SWAP1 POP PUSH1 0x0 DUP2 SWAP1 DUP1 PUSH1 0x1 DUP2 SLOAD ADD DUP1 DUP3 SSTORE DUP1 SWAP2 POP POP PUSH1 0x1 SWAP1 SUB SWAP1 PUSH1 0x0 MSTORE PUSH1 0x20 PUSH1 0x0 KECCAK256 ADD PUSH1 0x0 SWAP1 SWAP2 SWAP1 SWAP2 SWAP1 SWAP2 PUSH2 0x100 EXP DUP2 SLOAD DUP2 PUSH20 0xFFFFFFFFFFFFFFFFFFFFFFFFFFFFFFFFFFFFFFFF MUL NOT AND SWAP1 DUP4 PUSH20 0xFFFFFFFFFFFFFFFFFFFFFFFFFFFFFFFFFFFFFFFF AND MUL OR SWAP1 SSTORE POP POP JUMP JUMPDEST PUSH1 0x0 DUP2 DUP2 SLOAD DUP2 LT PUSH2 0x227 JUMPI PUSH1 0x0 DUP1 REVERT JUMPDEST SWAP1 PUSH1 0x0 MSTORE PUSH1 0x20 PUSH1 0x0 KECCAK256 ADD PUSH1 0x0 SWAP2 POP SLOAD SWAP1 PUSH2 0x100 EXP SWAP1 DIV PUSH20 0xFFFFFFFFFFFFFFFFFFFFFFFFFFFFFFFFFFFFFFFF AND DUP2 JUMP JUMPDEST PUSH1 0x0 DUP1 DUP3 DUP2 SLOAD DUP2 LT PUSH2 0x26B JUMPI PUSH2 0x26A PUSH2 0x484 JUMP JUMPDEST JUMPDEST SWAP1 PUSH1 0x0 MSTORE PUSH1 0x20 PUSH1 0x0 KECCAK256 ADD PUSH1 0x0 SWAP1 SLOAD SWAP1 PUSH2 0x100 EXP SWAP1 DIV PUSH20 0xFFFFFFFFFFFFFFFFFFFFFFFFFFFFFFFFFFFFFFFF AND PUSH20 0xFFFFFFFFFFFFFFFFFFFFFFFFFFFFFFFFFFFFFFFF AND PUSH4 0x2E64CEC1 PUSH1 0x40 MLOAD DUP2 PUSH4 0xFFFFFFFF AND PUSH1 0xE0 SHL DUP2 MSTORE PUSH1 0x4 ADD PUSH1 0x20 PUSH1 0x40 MLOAD DUP1 DUP4 SUB DUP2 DUP7 GAS STATICCALL ISZERO DUP1 ISZERO PUSH2 0x2E0 JUMPI RETURNDATASIZE PUSH1 0x0 DUP1 RETURNDATACOPY RETURNDATASIZE PUSH1 0x0 REVERT JUMPDEST POP POP POP POP PUSH1 0x40 MLOAD RETURNDATASIZE PUSH1 0x1F NOT PUSH1 0x1F DUP3 ADD AND DUP3 ADD DUP1 PUSH1 0x40 MSTORE POP DUP2 ADD SWAP1 PUSH2 0x304 SWAP2 SWAP1 PUSH2 0x4C8 JUMP JUMPDEST SWAP1 POP SWAP2 SWAP1 POP JUMP JUMPDEST PUSH2 0x993 DUP1 PUSH2 0x4F6 DUP4 CODECOPY ADD SWAP1 JUMP JUMPDEST PUSH1 0x0 DUP1 REVERT JUMPDEST PUSH1 0x0 DUP2 SWAP1 POP SWAP2 SWAP1 POP JUMP JUMPDEST PUSH2 0x330 DUP2 PUSH2 0x31D JUMP JUMPDEST DUP2 EQ PUSH2 0x33B JUMPI PUSH1 0x0 DUP1 REVERT JUMPDEST POP JUMP JUMPDEST PUSH1 0x0 DUP2 CALLDATALOAD SWAP1 POP PUSH2 0x34D DUP2 PUSH2 0x327 JUMP JUMPDEST SWAP3 SWAP2 POP POP JUMP JUMPDEST PUSH1 0x0 DUP1 PUSH1 0x40 DUP4 DUP6 SUB SLT ISZERO PUSH2 0x36A JUMPI PUSH2 0x369 PUSH2 0x318 JUMP JUMPDEST JUMPDEST PUSH1 0x0 PUSH2 0x378 DUP6 DUP3 DUP7 ADD PUSH2 0x33E JUMP JUMPDEST SWAP3 POP POP PUSH1 0x20 PUSH2 0x389 DUP6 DUP3 DUP7 ADD PUSH2 0x33E JUMP JUMPDEST SWAP2 POP POP SWAP3 POP SWAP3 SWAP1 POP JUMP JUMPDEST PUSH1 0x0 PUSH1 0x20 DUP3 DUP5 SUB SLT ISZERO PUSH2 0x3A9 JUMPI PUSH2 0x3A8 PUSH2 0x318 JUMP JUMPDEST JUMPDEST PUSH1 0x0 PUSH2 0x3B7 DUP5 DUP3 DUP6 ADD PUSH2 0x33E JUMP JUMPDEST SWAP2 POP POP SWAP3 SWAP2 POP POP JUMP JUMPDEST PUSH1 0x0 PUSH20 0xFFFFFFFFFFFFFFFFFFFFFFFFFFFFFFFFFFFFFFFF DUP3 AND SWAP1 POP SWAP2 SWAP1 POP JUMP JUMPDEST PUSH1 0x0 DUP2 SWAP1 POP SWAP2 SWAP1 POP JUMP JUMPDEST PUSH1 0x0 PUSH2 0x405 PUSH2 0x400 PUSH2 0x3FB DUP5 PUSH2 0x3C0 JUMP JUMPDEST PUSH2 0x3E0 JUMP JUMPDEST PUSH2 0x3C0 JUMP JUMPDEST SWAP1 POP SWAP2 SWAP1 POP JUMP JUMPDEST PUSH1 0x0 PUSH2 0x417 DUP3 PUSH2 0x3EA JUMP JUMPDEST SWAP1 POP SWAP2 SWAP1 POP JUMP JUMPDEST PUSH1 0x0 PUSH2 0x429 DUP3 PUSH2 0x40C JUMP JUMPDEST SWAP1 POP SWAP2 SWAP1 POP JUMP JUMPDEST PUSH2 0x439 DUP2 PUSH2 0x41E JUMP JUMPDEST DUP3 MSTORE POP POP JUMP JUMPDEST PUSH1 0x0 PUSH1 0x20 DUP3 ADD SWAP1 POP PUSH2 0x454 PUSH1 0x0 DUP4 ADD DUP5 PUSH2 0x430 JUMP JUMPDEST SWAP3 SWAP2 POP POP JUMP JUMPDEST PUSH2 0x463 DUP2 PUSH2 0x31D JUMP JUMPDEST DUP3 MSTORE POP POP JUMP JUMPDEST PUSH1 0x0 PUSH1 0x20 DUP3 ADD SWAP1 POP PUSH2 0x47E PUSH1 0x0 DUP4 ADD DUP5 PUSH2 0x45A JUMP JUMPDEST SWAP3 SWAP2 POP POP JUMP JUMPDEST PUSH32 0x4E487B7100000000000000000000000000000000000000000000000000000000 PUSH1 0x0 MSTORE PUSH1 0x32 PUSH1 0x4 MSTORE PUSH1 0x24 PUSH1 0x0 REVERT JUMPDEST PUSH1 0x0 DUP2 MLOAD SWAP1 POP PUSH2 0x4C2 DUP2 PUSH2 0x327 JUMP JUMPDEST SWAP3 SWAP2 POP POP JUMP JUMPDEST PUSH1 0x0 PUSH1 0x20 DUP3 DUP5 SUB SLT ISZERO PUSH2 0x4DE JUMPI PUSH2 0x4DD PUSH2 0x318 JUMP JUMPDEST JUMPDEST PUSH1 0x0 PUSH2 0x4EC DUP5 DUP3 DUP6 ADD PUSH2 0x4B3 JUMP JUMPDEST SWAP2 POP POP SWAP3 SWAP2 POP POP JUMP INVALID PUSH1 0x80 PUSH1 0x40 MSTORE CALLVALUE DUP1 ISZERO PUSH2 0x10 JUMPI PUSH1 0x0 DUP1 REVERT JUMPDEST POP PUSH2 0x973 DUP1 PUSH2 0x20 PUSH1 0x0 CODECOPY PUSH1 0x0 RETURN INVALID PUSH1 0x80 PUSH1 0x40 MSTORE CALLVALUE DUP1 ISZERO PUSH2 0x10 JUMPI PUSH1 0x0 DUP1 REVERT JUMPDEST POP PUSH1 0x4 CALLDATASIZE LT PUSH2 0x62 JUMPI PUSH1 0x0 CALLDATALOAD PUSH1 0xE0 SHR DUP1 PUSH4 0x2E64CEC1 EQ PUSH2 0x67 JUMPI DUP1 PUSH4 0x471F7CDF EQ PUSH2 0x85 JUMPI DUP1 PUSH4 0x6057361D EQ PUSH2 0xA3 JUMPI DUP1 PUSH4 0x6F760F41 EQ PUSH2 0xBF JUMPI DUP1 PUSH4 0x8BAB8DD5 EQ PUSH2 0xDB JUMPI DUP1 PUSH4 0x9E7A13AD EQ PUSH2 0x10B JUMPI JUMPDEST PUSH1 0x0 DUP1 REVERT JUMPDEST PUSH2 0x6F PUSH2 0x13C JUMP JUMPDEST PUSH1 0x40 MLOAD PUSH2 0x7C SWAP2 SWAP1 PUSH2 0x2E1 JUMP JUMPDEST PUSH1 0x40 MLOAD DUP1 SWAP2 SUB SWAP1 RETURN JUMPDEST PUSH2 0x8D PUSH2 0x145 JUMP JUMPDEST PUSH1 0x40 MLOAD PUSH2 0x9A SWAP2 SWAP1 PUSH2 0x2E1 JUMP JUMPDEST PUSH1 0x40 MLOAD DUP1 SWAP2 SUB SWAP1 RETURN JUMPDEST PUSH2 0xBD PUSH1 0x4 DUP1 CALLDATASIZE SUB DUP2 ADD SWAP1 PUSH2 0xB8 SWAP2 SWAP1 PUSH2 0x33C JUMP JUMPDEST PUSH2 0x14B JUMP JUMPDEST STOP JUMPDEST PUSH2 0xD9 PUSH1 0x4 DUP1 CALLDATASIZE SUB DUP2 ADD SWAP1 PUSH2 0xD4 SWAP2 SWAP1 PUSH2 0x4AF JUMP JUMPDEST PUSH2 0x155 JUMP JUMPDEST STOP JUMPDEST PUSH2 0xF5 PUSH1 0x4 DUP1 CALLDATASIZE SUB DUP2 ADD SWAP1 PUSH2 0xF0 SWAP2 SWAP1 PUSH2 0x50B JUMP JUMPDEST PUSH2 0x1DE JUMP JUMPDEST PUSH1 0x40 MLOAD PUSH2 0x102 SWAP2 SWAP1 PUSH2 0x2E1 JUMP JUMPDEST PUSH1 0x40 MLOAD DUP1 SWAP2 SUB SWAP1 RETURN JUMPDEST PUSH2 0x125 PUSH1 0x4 DUP1 CALLDATASIZE SUB DUP2 ADD SWAP1 PUSH2 0x120 SWAP2 SWAP1 PUSH2 0x33C JUMP JUMPDEST PUSH2 0x20C JUMP JUMPDEST PUSH1 0x40 MLOAD PUSH2 0x133 SWAP3 SWAP2 SWAP1 PUSH2 0x5DC JUMP JUMPDEST PUSH1 0x40 MLOAD DUP1 SWAP2 SUB SWAP1 RETURN JUMPDEST PUSH1 0x0 DUP1 SLOAD SWAP1 POP SWAP1 JUMP JUMPDEST PUSH1 0x0 SLOAD DUP2 JUMP JUMPDEST DUP1 PUSH1 0x0 DUP2 SWAP1 SSTORE POP POP JUMP JUMPDEST PUSH1 0x2 PUSH1 0x40 MLOAD DUP1 PUSH1 0x40 ADD PUSH1 0x40 MSTORE DUP1 DUP4 DUP2 MSTORE PUSH1 0x20 ADD DUP5 DUP2 MSTORE POP SWAP1 DUP1 PUSH1 0x1 DUP2 SLOAD ADD DUP1 DUP3 SSTORE DUP1 SWAP2 POP POP PUSH1 0x1 SWAP1 SUB SWAP1 PUSH1 0x0 MSTORE PUSH1 0x20 PUSH1 0x0 KECCAK256 SWAP1 PUSH1 0x2 MUL ADD PUSH1 0x0 SWAP1 SWAP2 SWAP1 SWAP2 SWAP1 SWAP2 POP PUSH1 0x0 DUP3 ADD MLOAD DUP2 PUSH1 0x0 ADD SSTORE PUSH1 0x20 DUP3 ADD MLOAD DUP2 PUSH1 0x1 ADD SWAP1 DUP2 PUSH2 0x1B4 SWAP2 SWAP1 PUSH2 0x818 JUMP JUMPDEST POP POP POP DUP1 PUSH1 0x1 DUP4 PUSH1 0x40 MLOAD PUSH2 0x1C8 SWAP2 SWAP1 PUSH2 0x926 JUMP JUMPDEST SWAP1 DUP2 MSTORE PUSH1 0x20 ADD PUSH1 0x40 MLOAD DUP1 SWAP2 SUB SWAP1 KECCAK256 DUP2 SWAP1 SSTORE POP POP POP JUMP JUMPDEST PUSH1 0x1 DUP2 DUP1 MLOAD PUSH1 0x20 DUP2 ADD DUP3 ADD DUP1 MLOAD DUP5 DUP3 MSTORE PUSH1 0x20 DUP4 ADD PUSH1 0x20 DUP6 ADD KECCAK256 DUP2 DUP4 MSTORE DUP1 SWAP6 POP POP POP POP POP POP PUSH1 0x0 SWAP2 POP SWAP1 POP SLOAD DUP2 JUMP JUMPDEST PUSH1 0x2 DUP2 DUP2 SLOAD DUP2 LT PUSH2 0x21C JUMPI PUSH1 0x0 DUP1 REVERT JUMPDEST SWAP1 PUSH1 0x0 MSTORE PUSH1 0x20 PUSH1 0x0 KECCAK256 SWAP1 PUSH1 0x2 MUL ADD PUSH1 0x0 SWAP2 POP SWAP1 POP DUP1 PUSH1 0x0 ADD SLOAD SWAP1 DUP1 PUSH1 0x1 ADD DUP1 SLOAD PUSH2 0x245 SWAP1 PUSH2 0x63B JUMP JUMPDEST DUP1 PUSH1 0x1F ADD PUSH1 0x20 DUP1 SWAP2 DIV MUL PUSH1 0x20 ADD PUSH1 0x40 MLOAD SWAP1 DUP2 ADD PUSH1 0x40 MSTORE DUP1 SWAP3 SWAP2 SWAP1 DUP2 DUP2 MSTORE PUSH1 0x20 ADD DUP3 DUP1 SLOAD PUSH2 0x271 SWAP1 PUSH2 0x63B JUMP JUMPDEST DUP1 ISZERO PUSH2 0x2BE JUMPI DUP1 PUSH1 0x1F LT PUSH2 0x293 JUMPI PUSH2 0x100 DUP1 DUP4 SLOAD DIV MUL DUP4 MSTORE SWAP2 PUSH1 0x20 ADD SWAP2 PUSH2 0x2BE JUMP JUMPDEST DUP3 ADD SWAP2 SWAP1 PUSH1 0x0 MSTORE PUSH1 0x20 PUSH1 0x0 KECCAK256 SWAP1 JUMPDEST DUP2 SLOAD DUP2 MSTORE SWAP1 PUSH1 0x1 ADD SWAP1 PUSH1 0x20 ADD DUP1 DUP4 GT PUSH2 0x2A1 JUMPI DUP3 SWAP1 SUB PUSH1 0x1F AND DUP3 ADD SWAP2 JUMPDEST POP POP POP POP POP SWAP1 POP DUP3 JUMP JUMPDEST PUSH1 0x0 DUP2 SWAP1 POP SWAP2 SWAP1 POP JUMP JUMPDEST PUSH2 0x2DB DUP2 PUSH2 0x2C8 JUMP JUMPDEST DUP3 MSTORE POP POP JUMP JUMPDEST PUSH1 0x0 PUSH1 0x20 DUP3 ADD SWAP1 POP PUSH2 0x2F6 PUSH1 0x0 DUP4 ADD DUP5 PUSH2 0x2D2 JUMP JUMPDEST SWAP3 SWAP2 POP POP JUMP JUMPDEST PUSH1 0x0 PUSH1 0x40 MLOAD SWAP1 POP SWAP1 JUMP JUMPDEST PUSH1 0x0 DUP1 REVERT JUMPDEST PUSH1 0x0 DUP1 REVERT JUMPDEST PUSH2 0x319 DUP2 PUSH2 0x2C8 JUMP JUMPDEST DUP2 EQ PUSH2 0x324 JUMPI PUSH1 0x0 DUP1 REVERT JUMPDEST POP JUMP JUMPDEST PUSH1 0x0 DUP2 CALLDATALOAD SWAP1 POP PUSH2 0x336 DUP2 PUSH2 0x310 JUMP JUMPDEST SWAP3 SWAP2 POP POP JUMP JUMPDEST PUSH1 0x0 PUSH1 0x20 DUP3 DUP5 SUB SLT ISZERO PUSH2 0x352 JUMPI PUSH2 0x351 PUSH2 0x306 JUMP JUMPDEST JUMPDEST PUSH1 0x0 PUSH2 0x360 DUP5 DUP3 DUP6 ADD PUSH2 0x327 JUMP JUMPDEST SWAP2 POP POP SWAP3 SWAP2 POP POP JUMP JUMPDEST PUSH1 0x0 DUP1 REVERT JUMPDEST PUSH1 0x0 DUP1 REVERT JUMPDEST PUSH1 0x0 PUSH1 0x1F NOT PUSH1 0x1F DUP4 ADD AND SWAP1 POP SWAP2 SWAP1 POP JUMP JUMPDEST PUSH32 0x4E487B7100000000000000000000000000000000000000000000000000000000 PUSH1 0x0 MSTORE PUSH1 0x41 PUSH1 0x4 MSTORE PUSH1 0x24 PUSH1 0x0 REVERT JUMPDEST PUSH2 0x3BC DUP3 PUSH2 0x373 JUMP JUMPDEST DUP2 ADD DUP2 DUP2 LT PUSH8 0xFFFFFFFFFFFFFFFF DUP3 GT OR ISZERO PUSH2 0x3DB JUMPI PUSH2 0x3DA PUSH2 0x384 JUMP JUMPDEST JUMPDEST DUP1 PUSH1 0x40 MSTORE POP POP POP JUMP JUMPDEST PUSH1 0x0 PUSH2 0x3EE PUSH2 0x2FC JUMP JUMPDEST SWAP1 POP PUSH2 0x3FA DUP3 DUP3 PUSH2 0x3B3 JUMP JUMPDEST SWAP2 SWAP1 POP JUMP JUMPDEST PUSH1 0x0 PUSH8 0xFFFFFFFFFFFFFFFF DUP3 GT ISZERO PUSH2 0x41A JUMPI PUSH2 0x419 PUSH2 0x384 JUMP JUMPDEST JUMPDEST PUSH2 0x423 DUP3 PUSH2 0x373 JUMP JUMPDEST SWAP1 POP PUSH1 0x20 DUP2 ADD SWAP1 POP SWAP2 SWAP1 POP JUMP JUMPDEST DUP3 DUP2 DUP4 CALLDATACOPY PUSH1 0x0 DUP4 DUP4 ADD MSTORE POP POP POP JUMP JUMPDEST PUSH1 0x0 PUSH2 0x452 PUSH2 0x44D DUP5 PUSH2 0x3FF JUMP JUMPDEST PUSH2 0x3E4 JUMP JUMPDEST SWAP1 POP DUP3 DUP2 MSTORE PUSH1 0x20 DUP2 ADD DUP5 DUP5 DUP5 ADD GT ISZERO PUSH2 0x46E JUMPI PUSH2 0x46D PUSH2 0x36E JUMP JUMPDEST JUMPDEST PUSH2 0x479 DUP5 DUP3 DUP6 PUSH2 0x430 JUMP JUMPDEST POP SWAP4 SWAP3 POP POP POP JUMP JUMPDEST PUSH1 0x0 DUP3 PUSH1 0x1F DUP4 ADD SLT PUSH2 0x496 JUMPI PUSH2 0x495 PUSH2 0x369 JUMP JUMPDEST JUMPDEST DUP2 CALLDATALOAD PUSH2 0x4A6 DUP5 DUP3 PUSH1 0x20 DUP7 ADD PUSH2 0x43F JUMP JUMPDEST SWAP2 POP POP SWAP3 SWAP2 POP POP JUMP JUMPDEST PUSH1 0x0 DUP1 PUSH1 0x40 DUP4 DUP6 SUB SLT ISZERO PUSH2 0x4C6 JUMPI PUSH2 0x4C5 PUSH2 0x306 JUMP JUMPDEST JUMPDEST PUSH1 0x0 DUP4 ADD CALLDATALOAD PUSH8 0xFFFFFFFFFFFFFFFF DUP2 GT ISZERO PUSH2 0x4E4 JUMPI PUSH2 0x4E3 PUSH2 0x30B JUMP JUMPDEST JUMPDEST PUSH2 0x4F0 DUP6 DUP3 DUP7 ADD PUSH2 0x481 JUMP JUMPDEST SWAP3 POP POP PUSH1 0x20 PUSH2 0x501 DUP6 DUP3 DUP7 ADD PUSH2 0x327 JUMP JUMPDEST SWAP2 POP POP SWAP3 POP SWAP3 SWAP1 POP JUMP JUMPDEST PUSH1 0x0 PUSH1 0x20 DUP3 DUP5 SUB SLT ISZERO PUSH2 0x521 JUMPI PUSH2 0x520 PUSH2 0x306 JUMP JUMPDEST JUMPDEST PUSH1 0x0 DUP3 ADD CALLDATALOAD PUSH8 0xFFFFFFFFFFFFFFFF DUP2 GT ISZERO PUSH2 0x53F JUMPI PUSH2 0x53E PUSH2 0x30B JUMP JUMPDEST JUMPDEST PUSH2 0x54B DUP5 DUP3 DUP6 ADD PUSH2 0x481 JUMP JUMPDEST SWAP2 POP POP SWAP3 SWAP2 POP POP JUMP JUMPDEST PUSH1 0x0 DUP2 MLOAD SWAP1 POP SWAP2 SWAP1 POP JUMP JUMPDEST PUSH1 0x0 DUP3 DUP3 MSTORE PUSH1 0x20 DUP3 ADD SWAP1 POP SWAP3 SWAP2 POP POP JUMP JUMPDEST PUSH1 0x0 JUMPDEST DUP4 DUP2 LT ISZERO PUSH2 0x58E JUMPI DUP1 DUP3 ADD MLOAD DUP2 DUP5 ADD MSTORE PUSH1 0x20 DUP2 ADD SWAP1 POP PUSH2 0x573 JUMP JUMPDEST DUP4 DUP2 GT ISZERO PUSH2 0x59D JUMPI PUSH1 0x0 DUP5 DUP5 ADD MSTORE JUMPDEST POP POP POP POP JUMP JUMPDEST PUSH1 0x0 PUSH2 0x5AE DUP3 PUSH2 0x554 JUMP JUMPDEST PUSH2 0x5B8 DUP2 DUP6 PUSH2 0x55F JUMP JUMPDEST SWAP4 POP PUSH2 0x5C8 DUP2 DUP6 PUSH1 0x20 DUP7 ADD PUSH2 0x570 JUMP JUMPDEST PUSH2 0x5D1 DUP2 PUSH2 0x373 JUMP JUMPDEST DUP5 ADD SWAP2 POP POP SWAP3 SWAP2 POP POP JUMP JUMPDEST PUSH1 0x0 PUSH1 0x40 DUP3 ADD SWAP1 POP PUSH2 0x5F1 PUSH1 0x0 DUP4 ADD DUP6 PUSH2 0x2D2 JUMP JUMPDEST DUP2 DUP2 SUB PUSH1 0x20 DUP4 ADD MSTORE PUSH2 0x603 DUP2 DUP5 PUSH2 0x5A3 JUMP JUMPDEST SWAP1 POP SWAP4 SWAP3 POP POP POP JUMP JUMPDEST PUSH32 0x4E487B7100000000000000000000000000000000000000000000000000000000 PUSH1 0x0 MSTORE PUSH1 0x22 PUSH1 0x4 MSTORE PUSH1 0x24 PUSH1 0x0 REVERT JUMPDEST PUSH1 0x0 PUSH1 0x2 DUP3 DIV SWAP1 POP PUSH1 0x1 DUP3 AND DUP1 PUSH2 0x653 JUMPI PUSH1 0x7F DUP3 AND SWAP2 POP JUMPDEST PUSH1 0x20 DUP3 LT DUP2 SUB PUSH2 0x666 JUMPI PUSH2 0x665 PUSH2 0x60C JUMP JUMPDEST JUMPDEST POP SWAP2 SWAP1 POP JUMP JUMPDEST PUSH1 0x0 DUP2 SWAP1 POP DUP2 PUSH1 0x0 MSTORE PUSH1 0x20 PUSH1 0x0 KECCAK256 SWAP1 POP SWAP2 SWAP1 POP JUMP JUMPDEST PUSH1 0x0 PUSH1 0x20 PUSH1 0x1F DUP4 ADD DIV SWAP1 POP SWAP2 SWAP1 POP JUMP JUMPDEST PUSH1 0x0 DUP3 DUP3 SHL SWAP1 POP SWAP3 SWAP2 POP POP JUMP JUMPDEST PUSH1 0x0 PUSH1 0x8 DUP4 MUL PUSH2 0x6CE PUSH32 0xFFFFFFFFFFFFFFFFFFFFFFFFFFFFFFFFFFFFFFFFFFFFFFFFFFFFFFFFFFFFFFFF DUP3 PUSH2 0x691 JUMP JUMPDEST PUSH2 0x6D8 DUP7 DUP4 PUSH2 0x691 JUMP JUMPDEST SWAP6 POP DUP1 NOT DUP5 AND SWAP4 POP DUP1 DUP7 AND DUP5 OR SWAP3 POP POP POP SWAP4 SWAP3 POP POP POP JUMP JUMPDEST PUSH1 0x0 DUP2 SWAP1 POP SWAP2 SWAP1 POP JUMP JUMPDEST PUSH1 0x0 PUSH2 0x715 PUSH2 0x710 PUSH2 0x70B DUP5 PUSH2 0x2C8 JUMP JUMPDEST PUSH2 0x6F0 JUMP JUMPDEST PUSH2 0x2C8 JUMP JUMPDEST SWAP1 POP SWAP2 SWAP1 POP JUMP JUMPDEST PUSH1 0x0 DUP2 SWAP1 POP SWAP2 SWAP1 POP JUMP JUMPDEST PUSH2 0x72F DUP4 PUSH2 0x6FA JUMP JUMPDEST PUSH2 0x743 PUSH2 0x73B DUP3 PUSH2 0x71C JUMP JUMPDEST DUP5 DUP5 SLOAD PUSH2 0x69E JUMP JUMPDEST DUP3 SSTORE POP POP POP POP JUMP JUMPDEST PUSH1 0x0 SWAP1 JUMP JUMPDEST PUSH2 0x758 PUSH2 0x74B JUMP JUMPDEST PUSH2 0x763 DUP2 DUP5 DUP5 PUSH2 0x726 JUMP JUMPDEST POP POP POP JUMP JUMPDEST JUMPDEST DUP2 DUP2 LT ISZERO PUSH2 0x787 JUMPI PUSH2 0x77C PUSH1 0x0 DUP3 PUSH2 0x750 JUMP JUMPDEST PUSH1 0x1 DUP2 ADD SWAP1 POP PUSH2 0x769 JUMP JUMPDEST POP POP JUMP JUMPDEST PUSH1 0x1F DUP3 GT ISZERO PUSH2 0x7CC JUMPI PUSH2 0x79D DUP2 PUSH2 0x66C JUMP JUMPDEST PUSH2 0x7A6 DUP5 PUSH2 0x681 JUMP JUMPDEST DUP2 ADD PUSH1 0x20 DUP6 LT ISZERO PUSH2 0x7B5 JUMPI DUP2 SWAP1 POP JUMPDEST PUSH2 0x7C9 PUSH2 0x7C1 DUP6 PUSH2 0x681 JUMP JUMPDEST DUP4 ADD DUP3 PUSH2 0x768 JUMP JUMPDEST POP POP JUMPDEST POP POP POP JUMP JUMPDEST PUSH1 0x0 DUP3 DUP3 SHR SWAP1 POP SWAP3 SWAP2 POP POP JUMP JUMPDEST PUSH1 0x0 PUSH2 0x7EF PUSH1 0x0 NOT DUP5 PUSH1 0x8 MUL PUSH2 0x7D1 JUMP JUMPDEST NOT DUP1 DUP4 AND SWAP2 POP POP SWAP3 SWAP2 POP POP JUMP JUMPDEST PUSH1 0x0 PUSH2 0x808 DUP4 DUP4 PUSH2 0x7DE JUMP JUMPDEST SWAP2 POP DUP3 PUSH1 0x2 MUL DUP3 OR SWAP1 POP SWAP3 SWAP2 POP POP JUMP JUMPDEST PUSH2 0x821 DUP3 PUSH2 0x554 JUMP JUMPDEST PUSH8 0xFFFFFFFFFFFFFFFF DUP2 GT ISZERO PUSH2 0x83A JUMPI PUSH2 0x839 PUSH2 0x384 JUMP JUMPDEST JUMPDEST PUSH2 0x844 DUP3 SLOAD PUSH2 0x63B JUMP JUMPDEST PUSH2 0x84F DUP3 DUP3 DUP6 PUSH2 0x78B JUMP JUMPDEST PUSH1 0x0 PUSH1 0x20 SWAP1 POP PUSH1 0x1F DUP4 GT PUSH1 0x1 DUP2 EQ PUSH2 0x882 JUMPI PUSH1 0x0 DUP5 ISZERO PUSH2 0x870 JUMPI DUP3 DUP8 ADD MLOAD SWAP1 POP JUMPDEST PUSH2 0x87A DUP6 DUP3 PUSH2 0x7FC JUMP JUMPDEST DUP7 SSTORE POP PUSH2 0x8E2 JUMP JUMPDEST PUSH1 0x1F NOT DUP5 AND PUSH2 0x890 DUP7 PUSH2 0x66C JUMP JUMPDEST PUSH1 0x0 JUMPDEST DUP3 DUP2 LT ISZERO PUSH2 0x8B8 JUMPI DUP5 DUP10 ADD MLOAD DUP3 SSTORE PUSH1 0x1 DUP3 ADD SWAP2 POP PUSH1 0x20 DUP6 ADD SWAP5 POP PUSH1 0x20 DUP2 ADD SWAP1 POP PUSH2 0x893 JUMP JUMPDEST DUP7 DUP4 LT ISZERO PUSH2 0x8D5 JUMPI DUP5 DUP10 ADD MLOAD PUSH2 0x8D1 PUSH1 0x1F DUP10 AND DUP3 PUSH2 0x7DE JUMP JUMPDEST DUP4 SSTORE POP JUMPDEST PUSH1 0x1 PUSH1 0x2 DUP9 MUL ADD DUP9 SSTORE POP POP POP JUMPDEST POP POP POP POP POP POP JUMP JUMPDEST PUSH1 0x0 DUP2 SWAP1 POP SWAP3 SWAP2 POP POP JUMP JUMPDEST PUSH1 0x0 PUSH2 0x900 DUP3 PUSH2 0x554 JUMP JUMPDEST PUSH2 0x90A DUP2 DUP6 PUSH2 0x8EA JUMP JUMPDEST SWAP4 POP PUSH2 0x91A DUP2 DUP6 PUSH1 0x20 DUP7 ADD PUSH2 0x570 JUMP JUMPDEST DUP1 DUP5 ADD SWAP2 POP POP SWAP3 SWAP2 POP POP JUMP JUMPDEST PUSH1 0x0 PUSH2 0x932 DUP3 DUP5 PUSH2 0x8F5 JUMP JUMPDEST SWAP2 POP DUP2 SWAP1 POP SWAP3 SWAP2 POP POP JUMP INVALID LOG2 PUSH5 0x6970667358 0x22 SLT KECCAK256 0xE GT 0xEB CREATE2 DUP4 0xAD 0xAB 0xFB DUP2 ADD 0x2B SELFDESTRUCT MSTORE8 0xBD CALLDATASIZE PUSH10 0x8F8F36AE5392D0FFDA90 PUSH28 0x56AD661DBE64736F6C634300080F0033A2646970667358221220DB48 OR DUP7 PUSH25 0x8D0CFCACEE2C8A02ADEDE901FF33722A869A61ADE031C9E8B2 SWAP4 CODECOPY PUSH5 0x736F6C6343 STOP ADDMOD 0xF STOP CALLER "
				},
				"gasEstimates": {
					"creation": {
						"codeDepositCost": "754800",
						"executionCost": "786",
						"totalCost": "755586"
					},
					"external": {
						"createSimpleStorageContract()": "infinite",
						"sfGet(uint256)": "infinite",
						"sfStore(uint256,uint256)": "infinite",
						"simpleStorageArray(uint256)": "infinite"
					}
				},
				"methodIdentifiers": {
					"createSimpleStorageContract()": "1dda6541",
					"sfGet(uint256)": "c5f19c20",
					"sfStore(uint256,uint256)": "1563700f",
					"simpleStorageArray(uint256)": "64591bf1"
				}
			},
			"storageLayout": {
				"storage": [
					{
						"astId": 65,
						"contract": "contracts/StorageFactory.sol:StorageFactory",
						"label": "simpleStorageArray",
						"offset": 0,
						"slot": "0",
						"type": "t_array(t_contract(SimpleStorage)58)dyn_storage"
					}
				],
				"types": {
					"t_array(t_contract(SimpleStorage)58)dyn_storage": {
						"base": "t_contract(SimpleStorage)58",
						"encoding": "dynamic_array",
						"label": "contract SimpleStorage[]",
						"numberOfBytes": "32"
					},
					"t_contract(SimpleStorage)58": {
						"encoding": "inplace",
						"label": "contract SimpleStorage",
						"numberOfBytes": "20"
					}
				}
			},
			"userdoc": {
				"kind": "user",
				"methods": {},
				"version": 1
			}
		}
	}
}