{
	"contracts/Test.sol": {
		"Test": {
			"abi": [
				{
					"inputs": [],
					"name": "getChoice",
					"outputs": [
						{
							"internalType": "enum Test.ActionChoices",
							"name": "",
							"type": "uint8"
						}
					],
					"stateMutability": "view",
					"type": "function"
				},
				{
					"inputs": [],
					"name": "setGoStraight",
					"outputs": [],
					"stateMutability": "nonpayable",
					"type": "function"
				}
			],
			"devdoc": {
				"kind": "dev",
				"methods": {},
				"version": 1
			},
			"evm": {
				"assembly": "    /* \"contracts/Test.sol\":56:386  contract Test {... */\n  mstore(0x40, 0x80)\n  callvalue\n  dup1\n  iszero\n  tag_1\n  jumpi\n  0x00\n  dup1\n  revert\ntag_1:\n  pop\n  dataSize(sub_0)\n  dup1\n  dataOffset(sub_0)\n  0x00\n  codecopy\n  0x00\n  return\nstop\n\nsub_0: assembly {\n        /* \"contracts/Test.sol\":56:386  contract Test {... */\n      mstore(0x40, 0x80)\n      callvalue\n      dup1\n      iszero\n      tag_1\n      jumpi\n      0x00\n      dup1\n      revert\n    tag_1:\n      pop\n      jumpi(tag_2, lt(calldatasize, 0x04))\n      shr(0xe0, calldataload(0x00))\n      dup1\n      0x46aadaa5\n      eq\n      tag_3\n      jumpi\n      dup1\n      0x67cb61b6\n      eq\n      tag_4\n      jumpi\n    tag_2:\n      0x00\n      dup1\n      revert\n        /* \"contracts/Test.sol\":236:318  function setGoStraight() public {... */\n    tag_3:\n      tag_5\n      tag_6\n      jump\t// in\n    tag_5:\n      stop\n        /* \"contracts/Test.sol\":324:383  function getChoice() public view returns (ActionChoices) {} */\n    tag_4:\n      tag_7\n      tag_8\n      jump\t// in\n    tag_7:\n      mload(0x40)\n      tag_9\n      swap2\n      swap1\n      tag_10\n      jump\t// in\n    tag_9:\n      mload(0x40)\n      dup1\n      swap2\n      sub\n      swap1\n      return\n        /* \"contracts/Test.sol\":236:318  function setGoStraight() public {... */\n    tag_6:\n        /* \"contracts/Test.sol\":287:311  ActionChoices.GoStraight */\n      0x02\n        /* \"contracts/Test.sol\":278:284  choice */\n      0x00\n      dup1\n        /* \"contracts/Test.sol\":278:311  choice = ActionChoices.GoStraight */\n      0x0100\n      exp\n      dup2\n      sload\n      dup2\n      0xff\n      mul\n      not\n      and\n      swap1\n      dup4\n      0x03\n      dup2\n      gt\n      iszero\n      tag_12\n      jumpi\n      tag_13\n      tag_14\n      jump\t// in\n    tag_13:\n    tag_12:\n      mul\n      or\n      swap1\n      sstore\n      pop\n        /* \"contracts/Test.sol\":236:318  function setGoStraight() public {... */\n      jump\t// out\n        /* \"contracts/Test.sol\":324:383  function getChoice() public view returns (ActionChoices) {} */\n    tag_8:\n        /* \"contracts/Test.sol\":366:379  ActionChoices */\n      0x00\n        /* \"contracts/Test.sol\":324:383  function getChoice() public view returns (ActionChoices) {} */\n      swap1\n      jump\t// out\n        /* \"#utility.yul\":7:187   */\n    tag_14:\n        /* \"#utility.yul\":55:132   */\n      0x4e487b7100000000000000000000000000000000000000000000000000000000\n        /* \"#utility.yul\":52:53   */\n      0x00\n        /* \"#utility.yul\":45:133   */\n      mstore\n        /* \"#utility.yul\":152:156   */\n      0x21\n        /* \"#utility.yul\":149:150   */\n      0x04\n        /* \"#utility.yul\":142:157   */\n      mstore\n        /* \"#utility.yul\":176:180   */\n      0x24\n        /* \"#utility.yul\":173:174   */\n      0x00\n        /* \"#utility.yul\":166:181   */\n      revert\n        /* \"#utility.yul\":193:313   */\n    tag_16:\n        /* \"#utility.yul\":281:282   */\n      0x04\n        /* \"#utility.yul\":274:279   */\n      dup2\n        /* \"#utility.yul\":271:283   */\n      lt\n        /* \"#utility.yul\":261:307   */\n      tag_23\n      jumpi\n        /* \"#utility.yul\":287:305   */\n      tag_24\n      tag_14\n      jump\t// in\n    tag_24:\n        /* \"#utility.yul\":261:307   */\n    tag_23:\n        /* \"#utility.yul\":193:313   */\n      pop\n      jump\t// out\n        /* \"#utility.yul\":319:460   */\n    tag_17:\n        /* \"#utility.yul\":371:378   */\n      0x00\n        /* \"#utility.yul\":400:405   */\n      dup2\n        /* \"#utility.yul\":389:405   */\n      swap1\n      pop\n        /* \"#utility.yul\":406:454   */\n      tag_26\n        /* \"#utility.yul\":448:453   */\n      dup3\n        /* \"#utility.yul\":406:454   */\n      tag_16\n      jump\t// in\n    tag_26:\n        /* \"#utility.yul\":319:460   */\n      swap2\n      swap1\n      pop\n      jump\t// out\n        /* \"#utility.yul\":466:607   */\n    tag_18:\n        /* \"#utility.yul\":529:538   */\n      0x00\n        /* \"#utility.yul\":562:601   */\n      tag_28\n        /* \"#utility.yul\":595:600   */\n      dup3\n        /* \"#utility.yul\":562:601   */\n      tag_17\n      jump\t// in\n    tag_28:\n        /* \"#utility.yul\":549:601   */\n      swap1\n      pop\n        /* \"#utility.yul\":466:607   */\n      swap2\n      swap1\n      pop\n      jump\t// out\n        /* \"#utility.yul\":613:770   */\n    tag_19:\n        /* \"#utility.yul\":713:763   */\n      tag_30\n        /* \"#utility.yul\":757:762   */\n      dup2\n        /* \"#utility.yul\":713:763   */\n      tag_18\n      jump\t// in\n    tag_30:\n        /* \"#utility.yul\":708:711   */\n      dup3\n        /* \"#utility.yul\":701:764   */\n      mstore\n        /* \"#utility.yul\":613:770   */\n      pop\n      pop\n      jump\t// out\n        /* \"#utility.yul\":776:1024   */\n    tag_10:\n        /* \"#utility.yul\":882:886   */\n      0x00\n        /* \"#utility.yul\":920:922   */\n      0x20\n        /* \"#utility.yul\":909:918   */\n      dup3\n        /* \"#utility.yul\":905:923   */\n      add\n        /* \"#utility.yul\":897:923   */\n      swap1\n      pop\n        /* \"#utility.yul\":933:1017   */\n      tag_32\n        /* \"#utility.yul\":1014:1015   */\n      0x00\n        /* \"#utility.yul\":1003:1012   */\n      dup4\n        /* \"#utility.yul\":999:1016   */\n      add\n        /* \"#utility.yul\":990:996   */\n      dup5\n        /* \"#utility.yul\":933:1017   */\n      tag_19\n      jump\t// in\n    tag_32:\n        /* \"#utility.yul\":776:1024   */\n      swap3\n      swap2\n      pop\n      pop\n      jump\t// out\n\n    auxdata: 0xa2646970667358221220965b4285d03569b014f8e4289a1f9344bb3c131d701d01df9f8a5814a0d41b1864736f6c634300080f0033\n}\n",
				"bytecode": {
					"linkReferences": {},
					"object": "608060405234801561001057600080fd5b5061015c806100206000396000f3fe608060405234801561001057600080fd5b50600436106100365760003560e01c806346aadaa51461003b57806367cb61b614610045575b600080fd5b610043610063565b005b61004d61008f565b60405161005a919061010b565b60405180910390f35b60026000806101000a81548160ff0219169083600381111561008857610087610094565b5b0217905550565b600090565b7f4e487b7100000000000000000000000000000000000000000000000000000000600052602160045260246000fd5b600481106100d4576100d3610094565b5b50565b60008190506100e5826100c3565b919050565b60006100f5826100d7565b9050919050565b610105816100ea565b82525050565b600060208201905061012060008301846100fc565b9291505056fea2646970667358221220965b4285d03569b014f8e4289a1f9344bb3c131d701d01df9f8a5814a0d41b1864736f6c634300080f0033",
					"opcodes": "PUSH1 0x80 PUSH1 0x40 MSTORE CALLVALUE DUP1 ISZERO PUSH2 0x10 JUMPI PUSH1 0x0 DUP1 REVERT JUMPDEST POP PUSH2 0x15C DUP1 PUSH2 0x20 PUSH1 0x0 CODECOPY PUSH1 0x0 RETURN INVALID PUSH1 0x80 PUSH1 0x40 MSTORE CALLVALUE DUP1 ISZERO PUSH2 0x10 JUMPI PUSH1 0x0 DUP1 REVERT JUMPDEST POP PUSH1 0x4 CALLDATASIZE LT PUSH2 0x36 JUMPI PUSH1 0x0 CALLDATALOAD PUSH1 0xE0 SHR DUP1 PUSH4 0x46AADAA5 EQ PUSH2 0x3B JUMPI DUP1 PUSH4 0x67CB61B6 EQ PUSH2 0x45 JUMPI JUMPDEST PUSH1 0x0 DUP1 REVERT JUMPDEST PUSH2 0x43 PUSH2 0x63 JUMP JUMPDEST STOP JUMPDEST PUSH2 0x4D PUSH2 0x8F JUMP JUMPDEST PUSH1 0x40 MLOAD PUSH2 0x5A SWAP2 SWAP1 PUSH2 0x10B JUMP JUMPDEST PUSH1 0x40 MLOAD DUP1 SWAP2 SUB SWAP1 RETURN JUMPDEST PUSH1 0x2 PUSH1 0x0 DUP1 PUSH2 0x100 EXP DUP2 SLOAD DUP2 PUSH1 0xFF MUL NOT AND SWAP1 DUP4 PUSH1 0x3 DUP2 GT ISZERO PUSH2 0x88 JUMPI PUSH2 0x87 PUSH2 0x94 JUMP JUMPDEST JUMPDEST MUL OR SWAP1 SSTORE POP JUMP JUMPDEST PUSH1 0x0 SWAP1 JUMP JUMPDEST PUSH32 0x4E487B7100000000000000000000000000000000000000000000000000000000 PUSH1 0x0 MSTORE PUSH1 0x21 PUSH1 0x4 MSTORE PUSH1 0x24 PUSH1 0x0 REVERT JUMPDEST PUSH1 0x4 DUP2 LT PUSH2 0xD4 JUMPI PUSH2 0xD3 PUSH2 0x94 JUMP JUMPDEST JUMPDEST POP JUMP JUMPDEST PUSH1 0x0 DUP2 SWAP1 POP PUSH2 0xE5 DUP3 PUSH2 0xC3 JUMP JUMPDEST SWAP2 SWAP1 POP JUMP JUMPDEST PUSH1 0x0 PUSH2 0xF5 DUP3 PUSH2 0xD7 JUMP JUMPDEST SWAP1 POP SWAP2 SWAP1 POP JUMP JUMPDEST PUSH2 0x105 DUP2 PUSH2 0xEA JUMP JUMPDEST DUP3 MSTORE POP POP JUMP JUMPDEST PUSH1 0x0 PUSH1 0x20 DUP3 ADD SWAP1 POP PUSH2 0x120 PUSH1 0x0 DUP4 ADD DUP5 PUSH2 0xFC JUMP JUMPDEST SWAP3 SWAP2 POP POP JUMP INVALID LOG2 PUSH5 0x6970667358 0x22 SLT KECCAK256 SWAP7 JUMPDEST TIMESTAMP DUP6 0xD0 CALLDATALOAD PUSH10 0xB014F8E4289A1F9344BB EXTCODECOPY SGT SAR PUSH17 0x1D01DF9F8A5814A0D41B1864736F6C6343 STOP ADDMOD 0xF STOP CALLER "
				},
				"gasEstimates": {
					"creation": {
						"codeDepositCost": "69600",
						"executionCost": "117",
						"totalCost": "69717"
					},
					"external": {
						"getChoice()": "424",
						"setGoStraight()": "24409"
					}
				},
				"methodIdentifiers": {
					"getChoice()": "67cb61b6",
					"setGoStraight()": "46aadaa5"
				}
			},
			"storageLayout": {
				"storage": [
					{
						"astId": 9,
						"contract": "contracts/Test.sol:Test",
						"label": "choice",
						"offset": 0,
						"slot": "0",
						"type": "t_enum(ActionChoices)6"
					}
				],
				"types": {
					"t_enum(ActionChoices)6": {
						"encoding": "inplace",
						"label": "enum Test.ActionChoices",
						"numberOfBytes": "1"
					}
				}
			},
			"userdoc": {
				"kind": "user",
				"methods": {},
				"version": 1
			}
		}
	}
}