{
	"contracts/FixArray.sol": {
		"FixArray": {
			"abi": [
				{
					"inputs": [],
					"name": "Init",
					"outputs": [],
					"stateMutability": "nonpayable",
					"type": "function"
				},
				{
					"inputs": [],
					"name": "getArrayContent",
					"outputs": [
						{
							"internalType": "uint256[5]",
							"name": "",
							"type": "uint256[5]"
						}
					],
					"stateMutability": "view",
					"type": "function"
				},
				{
					"inputs": [],
					"name": "getGrade",
					"outputs": [
						{
							"internalType": "uint256",
							"name": "",
							"type": "uint256"
						}
					],
					"stateMutability": "view",
					"type": "function"
				},
				{
					"inputs": [],
					"name": "push_arr",
					"outputs": [],
					"stateMutability": "nonpayable",
					"type": "function"
				}
			],
			"devdoc": {
				"kind": "dev",
				"methods": {},
				"version": 1
			},
			"evm": {
				"assembly": "    /* \"contracts/FixArray.sol\":56:529  contract FixArray {... */\n  mstore(0x40, 0x80)\n    /* \"contracts/FixArray.sol\":80:105  uint[5] arr = [1,2,3,4,5] */\n  mload(0x40)\n  dup1\n  0xa0\n  add\n  0x40\n  mstore\n  dup1\n    /* \"contracts/FixArray.sol\":95:96  1 */\n  0x01\n    /* \"contracts/FixArray.sol\":80:105  uint[5] arr = [1,2,3,4,5] */\n  0xff\n  and\n  dup2\n  mstore\n  0x20\n  add\n    /* \"contracts/FixArray.sol\":97:98  2 */\n  0x02\n    /* \"contracts/FixArray.sol\":80:105  uint[5] arr = [1,2,3,4,5] */\n  0xff\n  and\n  dup2\n  mstore\n  0x20\n  add\n    /* \"contracts/FixArray.sol\":99:100  3 */\n  0x03\n    /* \"contracts/FixArray.sol\":80:105  uint[5] arr = [1,2,3,4,5] */\n  0xff\n  and\n  dup2\n  mstore\n  0x20\n  add\n    /* \"contracts/FixArray.sol\":101:102  4 */\n  0x04\n    /* \"contracts/FixArray.sol\":80:105  uint[5] arr = [1,2,3,4,5] */\n  0xff\n  and\n  dup2\n  mstore\n  0x20\n  add\n    /* \"contracts/FixArray.sol\":103:104  5 */\n  0x05\n    /* \"contracts/FixArray.sol\":80:105  uint[5] arr = [1,2,3,4,5] */\n  0xff\n  and\n  dup2\n  mstore\n  pop\n  0x00\n  swap1\n  0x05\n  tag_1\n  swap3\n  swap2\n  swap1\n  tag_2\n  jump\t// in\ntag_1:\n  pop\n    /* \"contracts/FixArray.sol\":56:529  contract FixArray {... */\n  callvalue\n  dup1\n  iszero\n  tag_3\n  jumpi\n  0x00\n  dup1\n  revert\ntag_3:\n  pop\n  jump(tag_4)\ntag_2:\n  dup3\n  0x05\n  dup2\n  add\n  swap3\n  dup3\n  iszero\n  tag_5\n  jumpi\n  swap2\n  0x20\n  mul\n  dup3\n  add\ntag_6:\n  dup3\n  dup2\n  gt\n  iszero\n  tag_7\n  jumpi\n  dup3\n  mload\n  dup3\n  swap1\n  0xff\n  and\n  swap1\n  sstore\n  swap2\n  0x20\n  add\n  swap2\n  swap1\n  0x01\n  add\n  swap1\n  jump(tag_6)\ntag_7:\ntag_5:\n  pop\n  swap1\n  pop\n  tag_8\n  swap2\n  swap1\n  tag_9\n  jump\t// in\ntag_8:\n  pop\n  swap1\n  jump\t// out\ntag_9:\ntag_10:\n  dup1\n  dup3\n  gt\n  iszero\n  tag_11\n  jumpi\n  0x00\n  dup2\n  0x00\n  swap1\n  sstore\n  pop\n  0x01\n  add\n  jump(tag_10)\ntag_11:\n  pop\n  swap1\n  jump\t// out\ntag_4:\n  dataSize(sub_0)\n  dup1\n  dataOffset(sub_0)\n  0x00\n  codecopy\n  0x00\n  return\nstop\n\nsub_0: assembly {\n        /* \"contracts/FixArray.sol\":56:529  contract FixArray {... */\n      mstore(0x40, 0x80)\n      callvalue\n      dup1\n      iszero\n      tag_1\n      jumpi\n      0x00\n      dup1\n      revert\n    tag_1:\n      pop\n      jumpi(tag_2, lt(calldatasize, 0x04))\n      shr(0xe0, calldataload(0x00))\n      dup1\n      0x26774f72\n      eq\n      tag_3\n      jumpi\n      dup1\n      0x2f31111e\n      eq\n      tag_4\n      jumpi\n      dup1\n      0x46998f40\n      eq\n      tag_5\n      jumpi\n      dup1\n      0x57a86f7d\n      eq\n      tag_6\n      jumpi\n    tag_2:\n      0x00\n      dup1\n      revert\n        /* \"contracts/FixArray.sol\":192:282  function getArrayContent() public view returns(uint[5] memory) {... */\n    tag_3:\n      tag_7\n      tag_8\n      jump\t// in\n    tag_7:\n      mload(0x40)\n      tag_9\n      swap2\n      swap1\n      tag_10\n      jump\t// in\n    tag_9:\n      mload(0x40)\n      dup1\n      swap2\n      sub\n      swap1\n      return\n        /* \"contracts/FixArray.sol\":479:522  function push_arr() public {... */\n    tag_4:\n      tag_11\n      tag_12\n      jump\t// in\n    tag_11:\n      stop\n        /* \"contracts/FixArray.sol\":288:473  function getGrade() public view returns(uint) {... */\n    tag_5:\n      tag_13\n      tag_14\n      jump\t// in\n    tag_13:\n      mload(0x40)\n      tag_15\n      swap2\n      swap1\n      tag_16\n      jump\t// in\n    tag_15:\n      mload(0x40)\n      dup1\n      swap2\n      sub\n      swap1\n      return\n        /* \"contracts/FixArray.sol\":112:186  function Init() public {... */\n    tag_6:\n      tag_17\n      tag_18\n      jump\t// in\n    tag_17:\n      stop\n        /* \"contracts/FixArray.sol\":192:282  function getArrayContent() public view returns(uint[5] memory) {... */\n    tag_8:\n        /* \"contracts/FixArray.sol\":239:253  uint[5] memory */\n      tag_19\n      tag_20\n      jump\t// in\n    tag_19:\n        /* \"contracts/FixArray.sol\":272:275  arr */\n      0x00\n        /* \"contracts/FixArray.sol\":265:275  return arr */\n      0x05\n      dup1\n      0x20\n      mul\n      mload(0x40)\n      swap1\n      dup2\n      add\n      0x40\n      mstore\n      dup1\n      swap3\n      swap2\n      swap1\n      dup3\n      0x05\n      dup1\n      iszero\n      tag_22\n      jumpi\n      0x20\n      mul\n      dup3\n      add\n      swap2\n    tag_23:\n      dup2\n      sload\n      dup2\n      mstore\n      0x20\n      add\n      swap1\n      0x01\n      add\n      swap1\n      dup1\n      dup4\n      gt\n      tag_23\n      jumpi\n    tag_22:\n      pop\n      pop\n      pop\n      pop\n      pop\n      swap1\n      pop\n        /* \"contracts/FixArray.sol\":192:282  function getArrayContent() public view returns(uint[5] memory) {... */\n      swap1\n      jump\t// out\n        /* \"contracts/FixArray.sol\":479:522  function push_arr() public {... */\n    tag_12:\n      jump\t// out\n        /* \"contracts/FixArray.sol\":288:473  function getGrade() public view returns(uint) {... */\n    tag_14:\n        /* \"contracts/FixArray.sol\":328:332  uint */\n      0x00\n        /* \"contracts/FixArray.sol\":344:354  uint grade */\n      dup1\n        /* \"contracts/FixArray.sol\":357:358  0 */\n      0x00\n        /* \"contracts/FixArray.sol\":344:358  uint grade = 0 */\n      swap1\n      pop\n        /* \"contracts/FixArray.sol\":372:378  uint i */\n      0x00\n        /* \"contracts/FixArray.sol\":368:445  for(uint i = 0; i < arr.length; i++) {... */\n    tag_26:\n        /* \"contracts/FixArray.sol\":388:398  arr.length */\n      0x05\n        /* \"contracts/FixArray.sol\":384:385  i */\n      dup2\n        /* \"contracts/FixArray.sol\":384:398  i < arr.length */\n      lt\n        /* \"contracts/FixArray.sol\":368:445  for(uint i = 0; i < arr.length; i++) {... */\n      iszero\n      tag_27\n      jumpi\n        /* \"contracts/FixArray.sol\":428:431  arr */\n      0x00\n        /* \"contracts/FixArray.sol\":432:433  i */\n      dup2\n        /* \"contracts/FixArray.sol\":428:434  arr[i] */\n      0x05\n      dup2\n      lt\n      tag_29\n      jumpi\n      tag_30\n      tag_31\n      jump\t// in\n    tag_30:\n    tag_29:\n      add\n      sload\n        /* \"contracts/FixArray.sol\":419:434  grade += arr[i] */\n      dup3\n      tag_33\n      swap2\n      swap1\n      tag_34\n      jump\t// in\n    tag_33:\n      swap2\n      pop\n        /* \"contracts/FixArray.sol\":400:403  i++ */\n      dup1\n      dup1\n      tag_35\n      swap1\n      tag_36\n      jump\t// in\n    tag_35:\n      swap2\n      pop\n      pop\n        /* \"contracts/FixArray.sol\":368:445  for(uint i = 0; i < arr.length; i++) {... */\n      jump(tag_26)\n    tag_27:\n      pop\n        /* \"contracts/FixArray.sol\":461:466  grade */\n      dup1\n        /* \"contracts/FixArray.sol\":454:466  return grade */\n      swap2\n      pop\n      pop\n        /* \"contracts/FixArray.sol\":288:473  function getGrade() public view returns(uint) {... */\n      swap1\n      jump\t// out\n        /* \"contracts/FixArray.sol\":112:186  function Init() public {... */\n    tag_18:\n        /* \"contracts/FixArray.sol\":154:157  100 */\n      0x64\n        /* \"contracts/FixArray.sol\":145:148  arr */\n      0x00\n        /* \"contracts/FixArray.sol\":149:150  0 */\n      dup1\n        /* \"contracts/FixArray.sol\":145:151  arr[0] */\n      0x05\n      dup2\n      lt\n      tag_38\n      jumpi\n      tag_39\n      tag_31\n      jump\t// in\n    tag_39:\n    tag_38:\n      add\n        /* \"contracts/FixArray.sol\":145:157  arr[0] = 100 */\n      dup2\n      swap1\n      sstore\n      pop\n        /* \"contracts/FixArray.sol\":176:179  200 */\n      0xc8\n        /* \"contracts/FixArray.sol\":167:170  arr */\n      0x00\n        /* \"contracts/FixArray.sol\":171:172  1 */\n      0x01\n        /* \"contracts/FixArray.sol\":167:173  arr[1] */\n      0x05\n      dup2\n      lt\n      tag_41\n      jumpi\n      tag_42\n      tag_31\n      jump\t// in\n    tag_42:\n    tag_41:\n      add\n        /* \"contracts/FixArray.sol\":167:179  arr[1] = 200 */\n      dup2\n      swap1\n      sstore\n      pop\n        /* \"contracts/FixArray.sol\":112:186  function Init() public {... */\n      jump\t// out\n    tag_20:\n      mload(0x40)\n      dup1\n      0xa0\n      add\n      0x40\n      mstore\n      dup1\n      0x05\n      swap1\n      0x20\n      dup3\n      mul\n      dup1\n      calldatasize\n      dup4\n      calldatacopy\n      dup1\n      dup3\n      add\n      swap2\n      pop\n      pop\n      swap1\n      pop\n      pop\n      swap1\n      jump\t// out\n        /* \"#utility.yul\":7:111   */\n    tag_44:\n        /* \"#utility.yul\":72:78   */\n      0x00\n        /* \"#utility.yul\":100:104   */\n      0x05\n        /* \"#utility.yul\":90:104   */\n      swap1\n      pop\n        /* \"#utility.yul\":7:111   */\n      swap2\n      swap1\n      pop\n      jump\t// out\n        /* \"#utility.yul\":117:260   */\n    tag_45:\n        /* \"#utility.yul\":214:225   */\n      0x00\n        /* \"#utility.yul\":251:254   */\n      dup2\n        /* \"#utility.yul\":236:254   */\n      swap1\n      pop\n        /* \"#utility.yul\":117:260   */\n      swap3\n      swap2\n      pop\n      pop\n      jump\t// out\n        /* \"#utility.yul\":266:364   */\n    tag_46:\n        /* \"#utility.yul\":331:335   */\n      0x00\n        /* \"#utility.yul\":354:357   */\n      dup2\n        /* \"#utility.yul\":346:357   */\n      swap1\n      pop\n        /* \"#utility.yul\":266:364   */\n      swap2\n      swap1\n      pop\n      jump\t// out\n        /* \"#utility.yul\":370:447   */\n    tag_47:\n        /* \"#utility.yul\":407:414   */\n      0x00\n        /* \"#utility.yul\":436:441   */\n      dup2\n        /* \"#utility.yul\":425:441   */\n      swap1\n      pop\n        /* \"#utility.yul\":370:447   */\n      swap2\n      swap1\n      pop\n      jump\t// out\n        /* \"#utility.yul\":453:561   */\n    tag_48:\n        /* \"#utility.yul\":530:554   */\n      tag_60\n        /* \"#utility.yul\":548:553   */\n      dup2\n        /* \"#utility.yul\":530:554   */\n      tag_47\n      jump\t// in\n    tag_60:\n        /* \"#utility.yul\":525:528   */\n      dup3\n        /* \"#utility.yul\":518:555   */\n      mstore\n        /* \"#utility.yul\":453:561   */\n      pop\n      pop\n      jump\t// out\n        /* \"#utility.yul\":567:746   */\n    tag_49:\n        /* \"#utility.yul\":636:646   */\n      0x00\n        /* \"#utility.yul\":657:703   */\n      tag_62\n        /* \"#utility.yul\":699:702   */\n      dup4\n        /* \"#utility.yul\":691:697   */\n      dup4\n        /* \"#utility.yul\":657:703   */\n      tag_48\n      jump\t// in\n    tag_62:\n        /* \"#utility.yul\":735:739   */\n      0x20\n        /* \"#utility.yul\":730:733   */\n      dup4\n        /* \"#utility.yul\":726:740   */\n      add\n        /* \"#utility.yul\":712:740   */\n      swap1\n      pop\n        /* \"#utility.yul\":567:746   */\n      swap3\n      swap2\n      pop\n      pop\n      jump\t// out\n        /* \"#utility.yul\":752:863   */\n    tag_50:\n        /* \"#utility.yul\":820:824   */\n      0x00\n        /* \"#utility.yul\":852:856   */\n      0x20\n        /* \"#utility.yul\":847:850   */\n      dup3\n        /* \"#utility.yul\":843:857   */\n      add\n        /* \"#utility.yul\":835:857   */\n      swap1\n      pop\n        /* \"#utility.yul\":752:863   */\n      swap2\n      swap1\n      pop\n      jump\t// out\n        /* \"#utility.yul\":901:1595   */\n    tag_51:\n        /* \"#utility.yul\":1037:1089   */\n      tag_65\n        /* \"#utility.yul\":1083:1088   */\n      dup2\n        /* \"#utility.yul\":1037:1089   */\n      tag_44\n      jump\t// in\n    tag_65:\n        /* \"#utility.yul\":1105:1189   */\n      tag_66\n        /* \"#utility.yul\":1182:1188   */\n      dup2\n        /* \"#utility.yul\":1177:1180   */\n      dup5\n        /* \"#utility.yul\":1105:1189   */\n      tag_45\n      jump\t// in\n    tag_66:\n        /* \"#utility.yul\":1098:1189   */\n      swap3\n      pop\n        /* \"#utility.yul\":1213:1267   */\n      tag_67\n        /* \"#utility.yul\":1261:1266   */\n      dup3\n        /* \"#utility.yul\":1213:1267   */\n      tag_46\n      jump\t// in\n    tag_67:\n        /* \"#utility.yul\":1290:1297   */\n      dup1\n        /* \"#utility.yul\":1321:1322   */\n      0x00\n        /* \"#utility.yul\":1306:1588   */\n    tag_68:\n        /* \"#utility.yul\":1331:1337   */\n      dup4\n        /* \"#utility.yul\":1328:1329   */\n      dup2\n        /* \"#utility.yul\":1325:1338   */\n      lt\n        /* \"#utility.yul\":1306:1588   */\n      iszero\n      tag_70\n      jumpi\n        /* \"#utility.yul\":1407:1413   */\n      dup2\n        /* \"#utility.yul\":1401:1414   */\n      mload\n        /* \"#utility.yul\":1434:1497   */\n      tag_71\n        /* \"#utility.yul\":1493:1496   */\n      dup8\n        /* \"#utility.yul\":1478:1491   */\n      dup3\n        /* \"#utility.yul\":1434:1497   */\n      tag_49\n      jump\t// in\n    tag_71:\n        /* \"#utility.yul\":1427:1497   */\n      swap7\n      pop\n        /* \"#utility.yul\":1520:1578   */\n      tag_72\n        /* \"#utility.yul\":1571:1577   */\n      dup4\n        /* \"#utility.yul\":1520:1578   */\n      tag_50\n      jump\t// in\n    tag_72:\n        /* \"#utility.yul\":1510:1578   */\n      swap3\n      pop\n        /* \"#utility.yul\":1366:1588   */\n      pop\n        /* \"#utility.yul\":1353:1354   */\n      0x01\n        /* \"#utility.yul\":1350:1351   */\n      dup2\n        /* \"#utility.yul\":1346:1355   */\n      add\n        /* \"#utility.yul\":1341:1355   */\n      swap1\n      pop\n        /* \"#utility.yul\":1306:1588   */\n      jump(tag_68)\n    tag_70:\n        /* \"#utility.yul\":1310:1324   */\n      pop\n        /* \"#utility.yul\":1013:1595   */\n      pop\n      pop\n      pop\n        /* \"#utility.yul\":901:1595   */\n      pop\n      pop\n      jump\t// out\n        /* \"#utility.yul\":1601:1916   */\n    tag_10:\n        /* \"#utility.yul\":1740:1744   */\n      0x00\n        /* \"#utility.yul\":1778:1781   */\n      0xa0\n        /* \"#utility.yul\":1767:1776   */\n      dup3\n        /* \"#utility.yul\":1763:1782   */\n      add\n        /* \"#utility.yul\":1755:1782   */\n      swap1\n      pop\n        /* \"#utility.yul\":1792:1909   */\n      tag_74\n        /* \"#utility.yul\":1906:1907   */\n      0x00\n        /* \"#utility.yul\":1895:1904   */\n      dup4\n        /* \"#utility.yul\":1891:1908   */\n      add\n        /* \"#utility.yul\":1882:1888   */\n      dup5\n        /* \"#utility.yul\":1792:1909   */\n      tag_51\n      jump\t// in\n    tag_74:\n        /* \"#utility.yul\":1601:1916   */\n      swap3\n      swap2\n      pop\n      pop\n      jump\t// out\n        /* \"#utility.yul\":1922:2040   */\n    tag_52:\n        /* \"#utility.yul\":2009:2033   */\n      tag_76\n        /* \"#utility.yul\":2027:2032   */\n      dup2\n        /* \"#utility.yul\":2009:2033   */\n      tag_47\n      jump\t// in\n    tag_76:\n        /* \"#utility.yul\":2004:2007   */\n      dup3\n        /* \"#utility.yul\":1997:2034   */\n      mstore\n        /* \"#utility.yul\":1922:2040   */\n      pop\n      pop\n      jump\t// out\n        /* \"#utility.yul\":2046:2268   */\n    tag_16:\n        /* \"#utility.yul\":2139:2143   */\n      0x00\n        /* \"#utility.yul\":2177:2179   */\n      0x20\n        /* \"#utility.yul\":2166:2175   */\n      dup3\n        /* \"#utility.yul\":2162:2180   */\n      add\n        /* \"#utility.yul\":2154:2180   */\n      swap1\n      pop\n        /* \"#utility.yul\":2190:2261   */\n      tag_78\n        /* \"#utility.yul\":2258:2259   */\n      0x00\n        /* \"#utility.yul\":2247:2256   */\n      dup4\n        /* \"#utility.yul\":2243:2260   */\n      add\n        /* \"#utility.yul\":2234:2240   */\n      dup5\n        /* \"#utility.yul\":2190:2261   */\n      tag_52\n      jump\t// in\n    tag_78:\n        /* \"#utility.yul\":2046:2268   */\n      swap3\n      swap2\n      pop\n      pop\n      jump\t// out\n        /* \"#utility.yul\":2274:2454   */\n    tag_31:\n        /* \"#utility.yul\":2322:2399   */\n      0x4e487b7100000000000000000000000000000000000000000000000000000000\n        /* \"#utility.yul\":2319:2320   */\n      0x00\n        /* \"#utility.yul\":2312:2400   */\n      mstore\n        /* \"#utility.yul\":2419:2423   */\n      0x32\n        /* \"#utility.yul\":2416:2417   */\n      0x04\n        /* \"#utility.yul\":2409:2424   */\n      mstore\n        /* \"#utility.yul\":2443:2447   */\n      0x24\n        /* \"#utility.yul\":2440:2441   */\n      0x00\n        /* \"#utility.yul\":2433:2448   */\n      revert\n        /* \"#utility.yul\":2460:2640   */\n    tag_53:\n        /* \"#utility.yul\":2508:2585   */\n      0x4e487b7100000000000000000000000000000000000000000000000000000000\n        /* \"#utility.yul\":2505:2506   */\n      0x00\n        /* \"#utility.yul\":2498:2586   */\n      mstore\n        /* \"#utility.yul\":2605:2609   */\n      0x11\n        /* \"#utility.yul\":2602:2603   */\n      0x04\n        /* \"#utility.yul\":2595:2610   */\n      mstore\n        /* \"#utility.yul\":2629:2633   */\n      0x24\n        /* \"#utility.yul\":2626:2627   */\n      0x00\n        /* \"#utility.yul\":2619:2634   */\n      revert\n        /* \"#utility.yul\":2646:2951   */\n    tag_34:\n        /* \"#utility.yul\":2686:2689   */\n      0x00\n        /* \"#utility.yul\":2705:2725   */\n      tag_82\n        /* \"#utility.yul\":2723:2724   */\n      dup3\n        /* \"#utility.yul\":2705:2725   */\n      tag_47\n      jump\t// in\n    tag_82:\n        /* \"#utility.yul\":2700:2725   */\n      swap2\n      pop\n        /* \"#utility.yul\":2739:2759   */\n      tag_83\n        /* \"#utility.yul\":2757:2758   */\n      dup4\n        /* \"#utility.yul\":2739:2759   */\n      tag_47\n      jump\t// in\n    tag_83:\n        /* \"#utility.yul\":2734:2759   */\n      swap3\n      pop\n        /* \"#utility.yul\":2893:2894   */\n      dup3\n        /* \"#utility.yul\":2825:2891   */\n      0xffffffffffffffffffffffffffffffffffffffffffffffffffffffffffffffff\n        /* \"#utility.yul\":2821:2895   */\n      sub\n        /* \"#utility.yul\":2818:2819   */\n      dup3\n        /* \"#utility.yul\":2815:2896   */\n      gt\n        /* \"#utility.yul\":2812:2919   */\n      iszero\n      tag_84\n      jumpi\n        /* \"#utility.yul\":2899:2917   */\n      tag_85\n      tag_53\n      jump\t// in\n    tag_85:\n        /* \"#utility.yul\":2812:2919   */\n    tag_84:\n        /* \"#utility.yul\":2943:2944   */\n      dup3\n        /* \"#utility.yul\":2940:2941   */\n      dup3\n        /* \"#utility.yul\":2936:2945   */\n      add\n        /* \"#utility.yul\":2929:2945   */\n      swap1\n      pop\n        /* \"#utility.yul\":2646:2951   */\n      swap3\n      swap2\n      pop\n      pop\n      jump\t// out\n        /* \"#utility.yul\":2957:3190   */\n    tag_36:\n        /* \"#utility.yul\":2996:2999   */\n      0x00\n        /* \"#utility.yul\":3019:3043   */\n      tag_87\n        /* \"#utility.yul\":3037:3042   */\n      dup3\n        /* \"#utility.yul\":3019:3043   */\n      tag_47\n      jump\t// in\n    tag_87:\n        /* \"#utility.yul\":3010:3043   */\n      swap2\n      pop\n        /* \"#utility.yul\":3065:3131   */\n      0xffffffffffffffffffffffffffffffffffffffffffffffffffffffffffffffff\n        /* \"#utility.yul\":3058:3063   */\n      dup3\n        /* \"#utility.yul\":3055:3132   */\n      sub\n        /* \"#utility.yul\":3052:3155   */\n      tag_88\n      jumpi\n        /* \"#utility.yul\":3135:3153   */\n      tag_89\n      tag_53\n      jump\t// in\n    tag_89:\n        /* \"#utility.yul\":3052:3155   */\n    tag_88:\n        /* \"#utility.yul\":3182:3183   */\n      0x01\n        /* \"#utility.yul\":3175:3180   */\n      dup3\n        /* \"#utility.yul\":3171:3184   */\n      add\n        /* \"#utility.yul\":3164:3184   */\n      swap1\n      pop\n        /* \"#utility.yul\":2957:3190   */\n      swap2\n      swap1\n      pop\n      jump\t// out\n\n    auxdata: 0xa2646970667358221220517bd5362f7e16e8126dc7b836254b3379d8336142e652d504f9fd270861c37f64736f6c634300080f0033\n}\n",
				"bytecode": {
					"linkReferences": {},
					"object": "60806040526040518060a00160405280600160ff168152602001600260ff168152602001600360ff168152602001600460ff168152602001600560ff16815250600090600561004f929190610062565b5034801561005c57600080fd5b506100c4565b8260058101928215610096579160200282015b82811115610095578251829060ff16905591602001919060010190610075565b5b5090506100a391906100a7565b5090565b5b808211156100c05760008160009055506001016100a8565b5090565b6103c6806100d36000396000f3fe608060405234801561001057600080fd5b506004361061004c5760003560e01c806326774f72146100515780632f31111e1461006f57806346998f401461007957806357a86f7d14610097575b600080fd5b6100596100a1565b604051610066919061024f565b60405180910390f35b6100776100ec565b005b6100816100ee565b60405161008e9190610279565b60405180910390f35b61009f61013f565b005b6100a9610178565b60006005806020026040519081016040528092919082600580156100e2576020028201915b8154815260200190600101908083116100ce575b5050505050905090565b565b6000806000905060005b6005811015610137576000816005811061011557610114610294565b5b01548261012291906102f2565b9150808061012f90610348565b9150506100f8565b508091505090565b60646000806005811061015557610154610294565b5b018190555060c8600060016005811061017157610170610294565b5b0181905550565b6040518060a00160405280600590602082028036833780820191505090505090565b600060059050919050565b600081905092915050565b6000819050919050565b6000819050919050565b6101cd816101ba565b82525050565b60006101df83836101c4565b60208301905092915050565b6000602082019050919050565b6102018161019a565b61020b81846101a5565b9250610216826101b0565b8060005b8381101561024757815161022e87826101d3565b9650610239836101eb565b92505060018101905061021a565b505050505050565b600060a08201905061026460008301846101f8565b92915050565b610273816101ba565b82525050565b600060208201905061028e600083018461026a565b92915050565b7f4e487b7100000000000000000000000000000000000000000000000000000000600052603260045260246000fd5b7f4e487b7100000000000000000000000000000000000000000000000000000000600052601160045260246000fd5b60006102fd826101ba565b9150610308836101ba565b9250827fffffffffffffffffffffffffffffffffffffffffffffffffffffffffffffffff0382111561033d5761033c6102c3565b5b828201905092915050565b6000610353826101ba565b91507fffffffffffffffffffffffffffffffffffffffffffffffffffffffffffffffff8203610385576103846102c3565b5b60018201905091905056fea2646970667358221220517bd5362f7e16e8126dc7b836254b3379d8336142e652d504f9fd270861c37f64736f6c634300080f0033",
					"opcodes": "PUSH1 0x80 PUSH1 0x40 MSTORE PUSH1 0x40 MLOAD DUP1 PUSH1 0xA0 ADD PUSH1 0x40 MSTORE DUP1 PUSH1 0x1 PUSH1 0xFF AND DUP2 MSTORE PUSH1 0x20 ADD PUSH1 0x2 PUSH1 0xFF AND DUP2 MSTORE PUSH1 0x20 ADD PUSH1 0x3 PUSH1 0xFF AND DUP2 MSTORE PUSH1 0x20 ADD PUSH1 0x4 PUSH1 0xFF AND DUP2 MSTORE PUSH1 0x20 ADD PUSH1 0x5 PUSH1 0xFF AND DUP2 MSTORE POP PUSH1 0x0 SWAP1 PUSH1 0x5 PUSH2 0x4F SWAP3 SWAP2 SWAP1 PUSH2 0x62 JUMP JUMPDEST POP CALLVALUE DUP1 ISZERO PUSH2 0x5C JUMPI PUSH1 0x0 DUP1 REVERT JUMPDEST POP PUSH2 0xC4 JUMP JUMPDEST DUP3 PUSH1 0x5 DUP2 ADD SWAP3 DUP3 ISZERO PUSH2 0x96 JUMPI SWAP2 PUSH1 0x20 MUL DUP3 ADD JUMPDEST DUP3 DUP2 GT ISZERO PUSH2 0x95 JUMPI DUP3 MLOAD DUP3 SWAP1 PUSH1 0xFF AND SWAP1 SSTORE SWAP2 PUSH1 0x20 ADD SWAP2 SWAP1 PUSH1 0x1 ADD SWAP1 PUSH2 0x75 JUMP JUMPDEST JUMPDEST POP SWAP1 POP PUSH2 0xA3 SWAP2 SWAP1 PUSH2 0xA7 JUMP JUMPDEST POP SWAP1 JUMP JUMPDEST JUMPDEST DUP1 DUP3 GT ISZERO PUSH2 0xC0 JUMPI PUSH1 0x0 DUP2 PUSH1 0x0 SWAP1 SSTORE POP PUSH1 0x1 ADD PUSH2 0xA8 JUMP JUMPDEST POP SWAP1 JUMP JUMPDEST PUSH2 0x3C6 DUP1 PUSH2 0xD3 PUSH1 0x0 CODECOPY PUSH1 0x0 RETURN INVALID PUSH1 0x80 PUSH1 0x40 MSTORE CALLVALUE DUP1 ISZERO PUSH2 0x10 JUMPI PUSH1 0x0 DUP1 REVERT JUMPDEST POP PUSH1 0x4 CALLDATASIZE LT PUSH2 0x4C JUMPI PUSH1 0x0 CALLDATALOAD PUSH1 0xE0 SHR DUP1 PUSH4 0x26774F72 EQ PUSH2 0x51 JUMPI DUP1 PUSH4 0x2F31111E EQ PUSH2 0x6F JUMPI DUP1 PUSH4 0x46998F40 EQ PUSH2 0x79 JUMPI DUP1 PUSH4 0x57A86F7D EQ PUSH2 0x97 JUMPI JUMPDEST PUSH1 0x0 DUP1 REVERT JUMPDEST PUSH2 0x59 PUSH2 0xA1 JUMP JUMPDEST PUSH1 0x40 MLOAD PUSH2 0x66 SWAP2 SWAP1 PUSH2 0x24F JUMP JUMPDEST PUSH1 0x40 MLOAD DUP1 SWAP2 SUB SWAP1 RETURN JUMPDEST PUSH2 0x77 PUSH2 0xEC JUMP JUMPDEST STOP JUMPDEST PUSH2 0x81 PUSH2 0xEE JUMP JUMPDEST PUSH1 0x40 MLOAD PUSH2 0x8E SWAP2 SWAP1 PUSH2 0x279 JUMP JUMPDEST PUSH1 0x40 MLOAD DUP1 SWAP2 SUB SWAP1 RETURN JUMPDEST PUSH2 0x9F PUSH2 0x13F JUMP JUMPDEST STOP JUMPDEST PUSH2 0xA9 PUSH2 0x178 JUMP JUMPDEST PUSH1 0x0 PUSH1 0x5 DUP1 PUSH1 0x20 MUL PUSH1 0x40 MLOAD SWAP1 DUP2 ADD PUSH1 0x40 MSTORE DUP1 SWAP3 SWAP2 SWAP1 DUP3 PUSH1 0x5 DUP1 ISZERO PUSH2 0xE2 JUMPI PUSH1 0x20 MUL DUP3 ADD SWAP2 JUMPDEST DUP2 SLOAD DUP2 MSTORE PUSH1 0x20 ADD SWAP1 PUSH1 0x1 ADD SWAP1 DUP1 DUP4 GT PUSH2 0xCE JUMPI JUMPDEST POP POP POP POP POP SWAP1 POP SWAP1 JUMP JUMPDEST JUMP JUMPDEST PUSH1 0x0 DUP1 PUSH1 0x0 SWAP1 POP PUSH1 0x0 JUMPDEST PUSH1 0x5 DUP2 LT ISZERO PUSH2 0x137 JUMPI PUSH1 0x0 DUP2 PUSH1 0x5 DUP2 LT PUSH2 0x115 JUMPI PUSH2 0x114 PUSH2 0x294 JUMP JUMPDEST JUMPDEST ADD SLOAD DUP3 PUSH2 0x122 SWAP2 SWAP1 PUSH2 0x2F2 JUMP JUMPDEST SWAP2 POP DUP1 DUP1 PUSH2 0x12F SWAP1 PUSH2 0x348 JUMP JUMPDEST SWAP2 POP POP PUSH2 0xF8 JUMP JUMPDEST POP DUP1 SWAP2 POP POP SWAP1 JUMP JUMPDEST PUSH1 0x64 PUSH1 0x0 DUP1 PUSH1 0x5 DUP2 LT PUSH2 0x155 JUMPI PUSH2 0x154 PUSH2 0x294 JUMP JUMPDEST JUMPDEST ADD DUP2 SWAP1 SSTORE POP PUSH1 0xC8 PUSH1 0x0 PUSH1 0x1 PUSH1 0x5 DUP2 LT PUSH2 0x171 JUMPI PUSH2 0x170 PUSH2 0x294 JUMP JUMPDEST JUMPDEST ADD DUP2 SWAP1 SSTORE POP JUMP JUMPDEST PUSH1 0x40 MLOAD DUP1 PUSH1 0xA0 ADD PUSH1 0x40 MSTORE DUP1 PUSH1 0x5 SWAP1 PUSH1 0x20 DUP3 MUL DUP1 CALLDATASIZE DUP4 CALLDATACOPY DUP1 DUP3 ADD SWAP2 POP POP SWAP1 POP POP SWAP1 JUMP JUMPDEST PUSH1 0x0 PUSH1 0x5 SWAP1 POP SWAP2 SWAP1 POP JUMP JUMPDEST PUSH1 0x0 DUP2 SWAP1 POP SWAP3 SWAP2 POP POP JUMP JUMPDEST PUSH1 0x0 DUP2 SWAP1 POP SWAP2 SWAP1 POP JUMP JUMPDEST PUSH1 0x0 DUP2 SWAP1 POP SWAP2 SWAP1 POP JUMP JUMPDEST PUSH2 0x1CD DUP2 PUSH2 0x1BA JUMP JUMPDEST DUP3 MSTORE POP POP JUMP JUMPDEST PUSH1 0x0 PUSH2 0x1DF DUP4 DUP4 PUSH2 0x1C4 JUMP JUMPDEST PUSH1 0x20 DUP4 ADD SWAP1 POP SWAP3 SWAP2 POP POP JUMP JUMPDEST PUSH1 0x0 PUSH1 0x20 DUP3 ADD SWAP1 POP SWAP2 SWAP1 POP JUMP JUMPDEST PUSH2 0x201 DUP2 PUSH2 0x19A JUMP JUMPDEST PUSH2 0x20B DUP2 DUP5 PUSH2 0x1A5 JUMP JUMPDEST SWAP3 POP PUSH2 0x216 DUP3 PUSH2 0x1B0 JUMP JUMPDEST DUP1 PUSH1 0x0 JUMPDEST DUP4 DUP2 LT ISZERO PUSH2 0x247 JUMPI DUP2 MLOAD PUSH2 0x22E DUP8 DUP3 PUSH2 0x1D3 JUMP JUMPDEST SWAP7 POP PUSH2 0x239 DUP4 PUSH2 0x1EB JUMP JUMPDEST SWAP3 POP POP PUSH1 0x1 DUP2 ADD SWAP1 POP PUSH2 0x21A JUMP JUMPDEST POP POP POP POP POP POP JUMP JUMPDEST PUSH1 0x0 PUSH1 0xA0 DUP3 ADD SWAP1 POP PUSH2 0x264 PUSH1 0x0 DUP4 ADD DUP5 PUSH2 0x1F8 JUMP JUMPDEST SWAP3 SWAP2 POP POP JUMP JUMPDEST PUSH2 0x273 DUP2 PUSH2 0x1BA JUMP JUMPDEST DUP3 MSTORE POP POP JUMP JUMPDEST PUSH1 0x0 PUSH1 0x20 DUP3 ADD SWAP1 POP PUSH2 0x28E PUSH1 0x0 DUP4 ADD DUP5 PUSH2 0x26A JUMP JUMPDEST SWAP3 SWAP2 POP POP JUMP JUMPDEST PUSH32 0x4E487B7100000000000000000000000000000000000000000000000000000000 PUSH1 0x0 MSTORE PUSH1 0x32 PUSH1 0x4 MSTORE PUSH1 0x24 PUSH1 0x0 REVERT JUMPDEST PUSH32 0x4E487B7100000000000000000000000000000000000000000000000000000000 PUSH1 0x0 MSTORE PUSH1 0x11 PUSH1 0x4 MSTORE PUSH1 0x24 PUSH1 0x0 REVERT JUMPDEST PUSH1 0x0 PUSH2 0x2FD DUP3 PUSH2 0x1BA JUMP JUMPDEST SWAP2 POP PUSH2 0x308 DUP4 PUSH2 0x1BA JUMP JUMPDEST SWAP3 POP DUP3 PUSH32 0xFFFFFFFFFFFFFFFFFFFFFFFFFFFFFFFFFFFFFFFFFFFFFFFFFFFFFFFFFFFFFFFF SUB DUP3 GT ISZERO PUSH2 0x33D JUMPI PUSH2 0x33C PUSH2 0x2C3 JUMP JUMPDEST JUMPDEST DUP3 DUP3 ADD SWAP1 POP SWAP3 SWAP2 POP POP JUMP JUMPDEST PUSH1 0x0 PUSH2 0x353 DUP3 PUSH2 0x1BA JUMP JUMPDEST SWAP2 POP PUSH32 0xFFFFFFFFFFFFFFFFFFFFFFFFFFFFFFFFFFFFFFFFFFFFFFFFFFFFFFFFFFFFFFFF DUP3 SUB PUSH2 0x385 JUMPI PUSH2 0x384 PUSH2 0x2C3 JUMP JUMPDEST JUMPDEST PUSH1 0x1 DUP3 ADD SWAP1 POP SWAP2 SWAP1 POP JUMP INVALID LOG2 PUSH5 0x6970667358 0x22 SLT KECCAK256 MLOAD PUSH28 0xD5362F7E16E8126DC7B836254B3379D8336142E652D504F9FD270861 0xC3 PUSH32 0x64736F6C634300080F0033000000000000000000000000000000000000000000 "
				},
				"gasEstimates": {
					"creation": {
						"codeDepositCost": "193200",
						"executionCost": "infinite",
						"totalCost": "infinite"
					},
					"external": {
						"Init()": "44474",
						"getArrayContent()": "infinite",
						"getGrade()": "infinite",
						"push_arr()": "144"
					}
				},
				"methodIdentifiers": {
					"Init()": "57a86f7d",
					"getArrayContent()": "26774f72",
					"getGrade()": "46998f40",
					"push_arr()": "2f31111e"
				}
			},
			"storageLayout": {
				"storage": [
					{
						"astId": 11,
						"contract": "contracts/FixArray.sol:FixArray",
						"label": "arr",
						"offset": 0,
						"slot": "0",
						"type": "t_array(t_uint256)5_storage"
					}
				],
				"types": {
					"t_array(t_uint256)5_storage": {
						"base": "t_uint256",
						"encoding": "inplace",
						"label": "uint256[5]",
						"numberOfBytes": "160"
					},
					"t_uint256": {
						"encoding": "inplace",
						"label": "uint256",
						"numberOfBytes": "32"
					}
				}
			},
			"userdoc": {
				"kind": "user",
				"methods": {},
				"version": 1
			}
		}
	}
}