{
	"contracts/TwoArray.sol": {
		"TwoArray": {
			"abi": [
				{
					"inputs": [],
					"name": "add",
					"outputs": [
						{
							"internalType": "uint256",
							"name": "",
							"type": "uint256"
						}
					],
					"stateMutability": "view",
					"type": "function"
				},
				{
					"inputs": [],
					"name": "getContent",
					"outputs": [
						{
							"internalType": "uint256[2][3]",
							"name": "",
							"type": "uint256[2][3]"
						}
					],
					"stateMutability": "view",
					"type": "function"
				},
				{
					"inputs": [],
					"name": "getOneLength",
					"outputs": [
						{
							"internalType": "uint256",
							"name": "",
							"type": "uint256"
						}
					],
					"stateMutability": "view",
					"type": "function"
				},
				{
					"inputs": [],
					"name": "getTwoLength",
					"outputs": [
						{
							"internalType": "uint256",
							"name": "",
							"type": "uint256"
						}
					],
					"stateMutability": "view",
					"type": "function"
				}
			],
			"devdoc": {
				"kind": "dev",
				"methods": {},
				"version": 1
			},
			"evm": {
				"assembly": "    /* \"contracts/TwoArray.sol\":56:677  contract TwoArray {... */\n  mstore(0x40, 0x80)\n    /* \"contracts/TwoArray.sol\":80:118  uint[2][3] grade = [[1,2],[3,4],[5,6]] */\n  mload(0x40)\n  dup1\n  0x60\n  add\n  0x40\n  mstore\n  dup1\n  mload(0x40)\n  dup1\n  0x40\n  add\n  0x40\n  mstore\n  dup1\n    /* \"contracts/TwoArray.sol\":101:102  1 */\n  0x01\n    /* \"contracts/TwoArray.sol\":80:118  uint[2][3] grade = [[1,2],[3,4],[5,6]] */\n  0xff\n  and\n  dup2\n  mstore\n  0x20\n  add\n    /* \"contracts/TwoArray.sol\":103:104  2 */\n  0x02\n    /* \"contracts/TwoArray.sol\":80:118  uint[2][3] grade = [[1,2],[3,4],[5,6]] */\n  0xff\n  and\n  dup2\n  mstore\n  pop\n  dup2\n  mstore\n  0x20\n  add\n  mload(0x40)\n  dup1\n  0x40\n  add\n  0x40\n  mstore\n  dup1\n    /* \"contracts/TwoArray.sol\":107:108  3 */\n  0x03\n    /* \"contracts/TwoArray.sol\":80:118  uint[2][3] grade = [[1,2],[3,4],[5,6]] */\n  0xff\n  and\n  dup2\n  mstore\n  0x20\n  add\n    /* \"contracts/TwoArray.sol\":109:110  4 */\n  0x04\n    /* \"contracts/TwoArray.sol\":80:118  uint[2][3] grade = [[1,2],[3,4],[5,6]] */\n  0xff\n  and\n  dup2\n  mstore\n  pop\n  dup2\n  mstore\n  0x20\n  add\n  mload(0x40)\n  dup1\n  0x40\n  add\n  0x40\n  mstore\n  dup1\n    /* \"contracts/TwoArray.sol\":113:114  5 */\n  0x05\n    /* \"contracts/TwoArray.sol\":80:118  uint[2][3] grade = [[1,2],[3,4],[5,6]] */\n  0xff\n  and\n  dup2\n  mstore\n  0x20\n  add\n    /* \"contracts/TwoArray.sol\":115:116  6 */\n  0x06\n    /* \"contracts/TwoArray.sol\":80:118  uint[2][3] grade = [[1,2],[3,4],[5,6]] */\n  0xff\n  and\n  dup2\n  mstore\n  pop\n  dup2\n  mstore\n  pop\n  0x00\n  swap1\n  0x03\n  tag_1\n  swap3\n  swap2\n  swap1\n  tag_2\n  jump\t// in\ntag_1:\n  pop\n    /* \"contracts/TwoArray.sol\":56:677  contract TwoArray {... */\n  callvalue\n  dup1\n  iszero\n  tag_3\n  jumpi\n  0x00\n  dup1\n  revert\ntag_3:\n  pop\n  jump(tag_4)\ntag_2:\n  dup3\n  mul(0x02, 0x03)\n  dup2\n  add\n  swap3\n  dup3\n  iszero\n  tag_5\n  jumpi\n  swap2\n  0x20\n  mul\n  dup3\n  add\ntag_6:\n  dup3\n  dup2\n  gt\n  iszero\n  tag_7\n  jumpi\n  dup3\n  mload\n  dup3\n  swap1\n  0x02\n  tag_8\n  swap3\n  swap2\n  swap1\n  tag_9\n  jump\t// in\ntag_8:\n  pop\n  swap2\n  0x20\n  add\n  swap2\n  swap1\n  0x02\n  add\n  swap1\n  jump(tag_6)\ntag_7:\ntag_5:\n  pop\n  swap1\n  pop\n  tag_10\n  swap2\n  swap1\n  tag_11\n  jump\t// in\ntag_10:\n  pop\n  swap1\n  jump\t// out\ntag_9:\n  dup3\n  0x02\n  dup2\n  add\n  swap3\n  dup3\n  iszero\n  tag_12\n  jumpi\n  swap2\n  0x20\n  mul\n  dup3\n  add\ntag_13:\n  dup3\n  dup2\n  gt\n  iszero\n  tag_14\n  jumpi\n  dup3\n  mload\n  dup3\n  swap1\n  0xff\n  and\n  swap1\n  sstore\n  swap2\n  0x20\n  add\n  swap2\n  swap1\n  0x01\n  add\n  swap1\n  jump(tag_13)\ntag_14:\ntag_12:\n  pop\n  swap1\n  pop\n  tag_15\n  swap2\n  swap1\n  tag_16\n  jump\t// in\ntag_15:\n  pop\n  swap1\n  jump\t// out\ntag_11:\ntag_17:\n  dup1\n  dup3\n  gt\n  iszero\n  tag_18\n  jumpi\n  0x00\n  dup2\n  dup2\n  tag_19\n  swap2\n  swap1\n  tag_20\n  jump\t// in\ntag_19:\n  pop\n  0x02\n  add\n  jump(tag_17)\ntag_18:\n  pop\n  swap1\n  jump\t// out\ntag_16:\ntag_21:\n  dup1\n  dup3\n  gt\n  iszero\n  tag_22\n  jumpi\n  0x00\n  dup2\n  0x00\n  swap1\n  sstore\n  pop\n  0x01\n  add\n  jump(tag_21)\ntag_22:\n  pop\n  swap1\n  jump\t// out\ntag_20:\n  pop\n  0x00\n  dup2\n  sstore\n  0x01\n  add\n  0x00\n  swap1\n  sstore\n  jump\t// out\ntag_4:\n  dataSize(sub_0)\n  dup1\n  dataOffset(sub_0)\n  0x00\n  codecopy\n  0x00\n  return\nstop\n\nsub_0: assembly {\n        /* \"contracts/TwoArray.sol\":56:677  contract TwoArray {... */\n      mstore(0x40, 0x80)\n      callvalue\n      dup1\n      iszero\n      tag_1\n      jumpi\n      0x00\n      dup1\n      revert\n    tag_1:\n      pop\n      jumpi(tag_2, lt(calldatasize, 0x04))\n      shr(0xe0, calldataload(0x00))\n      dup1\n      0x4f2be91f\n      eq\n      tag_3\n      jumpi\n      dup1\n      0x59016c79\n      eq\n      tag_4\n      jumpi\n      dup1\n      0x63f5a649\n      eq\n      tag_5\n      jumpi\n      dup1\n      0xa6f89f0e\n      eq\n      tag_6\n      jumpi\n    tag_2:\n      0x00\n      dup1\n      revert\n        /* \"contracts/TwoArray.sol\":412:667  function add() public view returns(uint) {... */\n    tag_3:\n      tag_7\n      tag_8\n      jump\t// in\n    tag_7:\n      mload(0x40)\n      tag_9\n      swap2\n      swap1\n      tag_10\n      jump\t// in\n    tag_9:\n      mload(0x40)\n      dup1\n      swap2\n      sub\n      swap1\n      return\n        /* \"contracts/TwoArray.sol\":316:406  function getContent() public view returns(uint[2][3] memory) {... */\n    tag_4:\n      tag_11\n      tag_12\n      jump\t// in\n    tag_11:\n      mload(0x40)\n      tag_13\n      swap2\n      swap1\n      tag_14\n      jump\t// in\n    tag_13:\n      mload(0x40)\n      dup1\n      swap2\n      sub\n      swap1\n      return\n        /* \"contracts/TwoArray.sol\":221:310  function getTwoLength() public view returns(uint) {... */\n    tag_5:\n      tag_15\n      tag_16\n      jump\t// in\n    tag_15:\n      mload(0x40)\n      tag_17\n      swap2\n      swap1\n      tag_10\n      jump\t// in\n    tag_17:\n      mload(0x40)\n      dup1\n      swap2\n      sub\n      swap1\n      return\n        /* \"contracts/TwoArray.sol\":129:215  function getOneLength() public view returns(uint) {... */\n    tag_6:\n      tag_18\n      tag_19\n      jump\t// in\n    tag_18:\n      mload(0x40)\n      tag_20\n      swap2\n      swap1\n      tag_10\n      jump\t// in\n    tag_20:\n      mload(0x40)\n      dup1\n      swap2\n      sub\n      swap1\n      return\n        /* \"contracts/TwoArray.sol\":412:667  function add() public view returns(uint) {... */\n    tag_8:\n        /* \"contracts/TwoArray.sol\":447:451  uint */\n      0x00\n        /* \"contracts/TwoArray.sol\":463:471  uint sum */\n      dup1\n        /* \"contracts/TwoArray.sol\":474:475  0 */\n      0x00\n        /* \"contracts/TwoArray.sol\":463:475  uint sum = 0 */\n      swap1\n      pop\n        /* \"contracts/TwoArray.sol\":489:495  uint i */\n      0x00\n        /* \"contracts/TwoArray.sol\":485:641  for(uint i = 0; i < grade.length; i++) {... */\n    tag_22:\n        /* \"contracts/TwoArray.sol\":505:517  grade.length */\n      0x03\n        /* \"contracts/TwoArray.sol\":501:502  i */\n      dup2\n        /* \"contracts/TwoArray.sol\":501:517  i < grade.length */\n      lt\n        /* \"contracts/TwoArray.sol\":485:641  for(uint i = 0; i < grade.length; i++) {... */\n      iszero\n      tag_23\n      jumpi\n        /* \"contracts/TwoArray.sol\":542:548  uint j */\n      0x00\n        /* \"contracts/TwoArray.sol\":538:631  for(uint j = 0; j < grade[0].length; j++) {... */\n    tag_25:\n        /* \"contracts/TwoArray.sol\":558:563  grade */\n      0x00\n        /* \"contracts/TwoArray.sol\":564:565  0 */\n      dup1\n        /* \"contracts/TwoArray.sol\":558:566  grade[0] */\n      0x03\n      dup2\n      lt\n      tag_28\n      jumpi\n      tag_29\n      tag_30\n      jump\t// in\n    tag_29:\n    tag_28:\n      pop\n      pop\n        /* \"contracts/TwoArray.sol\":558:573  grade[0].length */\n      0x02\n        /* \"contracts/TwoArray.sol\":554:555  j */\n      dup2\n        /* \"contracts/TwoArray.sol\":554:573  j < grade[0].length */\n      lt\n        /* \"contracts/TwoArray.sol\":538:631  for(uint j = 0; j < grade[0].length; j++) {... */\n      iszero\n      tag_26\n      jumpi\n        /* \"contracts/TwoArray.sol\":605:610  grade */\n      0x00\n        /* \"contracts/TwoArray.sol\":611:612  i */\n      dup3\n        /* \"contracts/TwoArray.sol\":605:613  grade[i] */\n      0x03\n      dup2\n      lt\n      tag_32\n      jumpi\n      tag_33\n      tag_30\n      jump\t// in\n    tag_33:\n    tag_32:\n      0x02\n      mul\n      add\n        /* \"contracts/TwoArray.sol\":614:615  j */\n      dup2\n        /* \"contracts/TwoArray.sol\":605:616  grade[i][j] */\n      0x02\n      dup2\n      lt\n      tag_35\n      jumpi\n      tag_36\n      tag_30\n      jump\t// in\n    tag_36:\n    tag_35:\n      add\n      sload\n        /* \"contracts/TwoArray.sol\":598:616  sum += grade[i][j] */\n      dup4\n      tag_38\n      swap2\n      swap1\n      tag_39\n      jump\t// in\n    tag_38:\n      swap3\n      pop\n        /* \"contracts/TwoArray.sol\":575:578  j++ */\n      dup1\n      dup1\n      tag_40\n      swap1\n      tag_41\n      jump\t// in\n    tag_40:\n      swap2\n      pop\n      pop\n        /* \"contracts/TwoArray.sol\":538:631  for(uint j = 0; j < grade[0].length; j++) {... */\n      jump(tag_25)\n    tag_26:\n      pop\n        /* \"contracts/TwoArray.sol\":519:522  i++ */\n      dup1\n      dup1\n      tag_42\n      swap1\n      tag_41\n      jump\t// in\n    tag_42:\n      swap2\n      pop\n      pop\n        /* \"contracts/TwoArray.sol\":485:641  for(uint i = 0; i < grade.length; i++) {... */\n      jump(tag_22)\n    tag_23:\n      pop\n        /* \"contracts/TwoArray.sol\":657:660  sum */\n      dup1\n        /* \"contracts/TwoArray.sol\":650:660  return sum */\n      swap2\n      pop\n      pop\n        /* \"contracts/TwoArray.sol\":412:667  function add() public view returns(uint) {... */\n      swap1\n      jump\t// out\n        /* \"contracts/TwoArray.sol\":316:406  function getContent() public view returns(uint[2][3] memory) {... */\n    tag_12:\n        /* \"contracts/TwoArray.sol\":358:375  uint[2][3] memory */\n      tag_43\n      tag_44\n      jump\t// in\n    tag_43:\n        /* \"contracts/TwoArray.sol\":394:399  grade */\n      0x00\n        /* \"contracts/TwoArray.sol\":387:399  return grade */\n      0x03\n      dup1\n      0x20\n      mul\n      mload(0x40)\n      swap1\n      dup2\n      add\n      0x40\n      mstore\n      dup1\n      swap3\n      swap2\n      swap1\n      0x00\n      swap1\n    tag_46:\n      dup3\n      dup3\n      lt\n      iszero\n      tag_47\n      jumpi\n      dup4\n      dup3\n      0x02\n      mul\n      add\n      0x02\n      dup1\n      0x20\n      mul\n      mload(0x40)\n      swap1\n      dup2\n      add\n      0x40\n      mstore\n      dup1\n      swap3\n      swap2\n      swap1\n      dup3\n      0x02\n      dup1\n      iszero\n      tag_49\n      jumpi\n      0x20\n      mul\n      dup3\n      add\n      swap2\n    tag_50:\n      dup2\n      sload\n      dup2\n      mstore\n      0x20\n      add\n      swap1\n      0x01\n      add\n      swap1\n      dup1\n      dup4\n      gt\n      tag_50\n      jumpi\n    tag_49:\n      pop\n      pop\n      pop\n      pop\n      pop\n      dup2\n      mstore\n      0x20\n      add\n      swap1\n      0x01\n      add\n      swap1\n      jump(tag_46)\n    tag_47:\n      pop\n      pop\n      pop\n      pop\n      swap1\n      pop\n        /* \"contracts/TwoArray.sol\":316:406  function getContent() public view returns(uint[2][3] memory) {... */\n      swap1\n      jump\t// out\n        /* \"contracts/TwoArray.sol\":221:310  function getTwoLength() public view returns(uint) {... */\n    tag_16:\n        /* \"contracts/TwoArray.sol\":265:269  uint */\n      0x00\n        /* \"contracts/TwoArray.sol\":288:293  grade */\n      dup1\n        /* \"contracts/TwoArray.sol\":294:295  0 */\n      0x00\n        /* \"contracts/TwoArray.sol\":288:296  grade[0] */\n      0x03\n      dup2\n      lt\n      tag_52\n      jumpi\n      tag_53\n      tag_30\n      jump\t// in\n    tag_53:\n    tag_52:\n      pop\n      pop\n        /* \"contracts/TwoArray.sol\":288:303  grade[0].length */\n      0x02\n        /* \"contracts/TwoArray.sol\":281:303  return grade[0].length */\n      swap1\n      pop\n        /* \"contracts/TwoArray.sol\":221:310  function getTwoLength() public view returns(uint) {... */\n      swap1\n      jump\t// out\n        /* \"contracts/TwoArray.sol\":129:215  function getOneLength() public view returns(uint) {... */\n    tag_19:\n        /* \"contracts/TwoArray.sol\":173:177  uint */\n      0x00\n        /* \"contracts/TwoArray.sol\":196:208  grade.length */\n      0x03\n        /* \"contracts/TwoArray.sol\":189:208  return grade.length */\n      swap1\n      pop\n        /* \"contracts/TwoArray.sol\":129:215  function getOneLength() public view returns(uint) {... */\n      swap1\n      jump\t// out\n    tag_44:\n      mload(0x40)\n      dup1\n      0x60\n      add\n      0x40\n      mstore\n      dup1\n      0x03\n      swap1\n    tag_56:\n      tag_57\n      tag_58\n      jump\t// in\n    tag_57:\n      dup2\n      mstore\n      0x20\n      add\n      swap1\n      0x01\n      swap1\n      sub\n      swap1\n      dup2\n      tag_56\n      jumpi\n      swap1\n      pop\n      pop\n      swap1\n      jump\t// out\n    tag_58:\n      mload(0x40)\n      dup1\n      0x40\n      add\n      0x40\n      mstore\n      dup1\n      0x02\n      swap1\n      0x20\n      dup3\n      mul\n      dup1\n      calldatasize\n      dup4\n      calldatacopy\n      dup1\n      dup3\n      add\n      swap2\n      pop\n      pop\n      swap1\n      pop\n      pop\n      swap1\n      jump\t// out\n        /* \"#utility.yul\":7:84   */\n    tag_59:\n        /* \"#utility.yul\":44:51   */\n      0x00\n        /* \"#utility.yul\":73:78   */\n      dup2\n        /* \"#utility.yul\":62:78   */\n      swap1\n      pop\n        /* \"#utility.yul\":7:84   */\n      swap2\n      swap1\n      pop\n      jump\t// out\n        /* \"#utility.yul\":90:208   */\n    tag_60:\n        /* \"#utility.yul\":177:201   */\n      tag_78\n        /* \"#utility.yul\":195:200   */\n      dup2\n        /* \"#utility.yul\":177:201   */\n      tag_59\n      jump\t// in\n    tag_78:\n        /* \"#utility.yul\":172:175   */\n      dup3\n        /* \"#utility.yul\":165:202   */\n      mstore\n        /* \"#utility.yul\":90:208   */\n      pop\n      pop\n      jump\t// out\n        /* \"#utility.yul\":214:436   */\n    tag_10:\n        /* \"#utility.yul\":307:311   */\n      0x00\n        /* \"#utility.yul\":345:347   */\n      0x20\n        /* \"#utility.yul\":334:343   */\n      dup3\n        /* \"#utility.yul\":330:348   */\n      add\n        /* \"#utility.yul\":322:348   */\n      swap1\n      pop\n        /* \"#utility.yul\":358:429   */\n      tag_80\n        /* \"#utility.yul\":426:427   */\n      0x00\n        /* \"#utility.yul\":415:424   */\n      dup4\n        /* \"#utility.yul\":411:428   */\n      add\n        /* \"#utility.yul\":402:408   */\n      dup5\n        /* \"#utility.yul\":358:429   */\n      tag_60\n      jump\t// in\n    tag_80:\n        /* \"#utility.yul\":214:436   */\n      swap3\n      swap2\n      pop\n      pop\n      jump\t// out\n        /* \"#utility.yul\":442:569   */\n    tag_61:\n        /* \"#utility.yul\":530:536   */\n      0x00\n        /* \"#utility.yul\":558:562   */\n      0x03\n        /* \"#utility.yul\":548:562   */\n      swap1\n      pop\n        /* \"#utility.yul\":442:569   */\n      swap2\n      swap1\n      pop\n      jump\t// out\n        /* \"#utility.yul\":575:741   */\n    tag_62:\n        /* \"#utility.yul\":695:706   */\n      0x00\n        /* \"#utility.yul\":732:735   */\n      dup2\n        /* \"#utility.yul\":717:735   */\n      swap1\n      pop\n        /* \"#utility.yul\":575:741   */\n      swap3\n      swap2\n      pop\n      pop\n      jump\t// out\n        /* \"#utility.yul\":747:868   */\n    tag_63:\n        /* \"#utility.yul\":835:839   */\n      0x00\n        /* \"#utility.yul\":858:861   */\n      dup2\n        /* \"#utility.yul\":850:861   */\n      swap1\n      pop\n        /* \"#utility.yul\":747:868   */\n      swap2\n      swap1\n      pop\n      jump\t// out\n        /* \"#utility.yul\":874:978   */\n    tag_64:\n        /* \"#utility.yul\":939:945   */\n      0x00\n        /* \"#utility.yul\":967:971   */\n      0x02\n        /* \"#utility.yul\":957:971   */\n      swap1\n      pop\n        /* \"#utility.yul\":874:978   */\n      swap2\n      swap1\n      pop\n      jump\t// out\n        /* \"#utility.yul\":984:1117   */\n    tag_65:\n        /* \"#utility.yul\":1071:1082   */\n      0x00\n        /* \"#utility.yul\":1108:1111   */\n      dup2\n        /* \"#utility.yul\":1093:1111   */\n      swap1\n      pop\n        /* \"#utility.yul\":984:1117   */\n      swap3\n      swap2\n      pop\n      pop\n      jump\t// out\n        /* \"#utility.yul\":1123:1221   */\n    tag_66:\n        /* \"#utility.yul\":1188:1192   */\n      0x00\n        /* \"#utility.yul\":1211:1214   */\n      dup2\n        /* \"#utility.yul\":1203:1214   */\n      swap1\n      pop\n        /* \"#utility.yul\":1123:1221   */\n      swap2\n      swap1\n      pop\n      jump\t// out\n        /* \"#utility.yul\":1227:1335   */\n    tag_67:\n        /* \"#utility.yul\":1304:1328   */\n      tag_88\n        /* \"#utility.yul\":1322:1327   */\n      dup2\n        /* \"#utility.yul\":1304:1328   */\n      tag_59\n      jump\t// in\n    tag_88:\n        /* \"#utility.yul\":1299:1302   */\n      dup3\n        /* \"#utility.yul\":1292:1329   */\n      mstore\n        /* \"#utility.yul\":1227:1335   */\n      pop\n      pop\n      jump\t// out\n        /* \"#utility.yul\":1341:1520   */\n    tag_68:\n        /* \"#utility.yul\":1410:1420   */\n      0x00\n        /* \"#utility.yul\":1431:1477   */\n      tag_90\n        /* \"#utility.yul\":1473:1476   */\n      dup4\n        /* \"#utility.yul\":1465:1471   */\n      dup4\n        /* \"#utility.yul\":1431:1477   */\n      tag_67\n      jump\t// in\n    tag_90:\n        /* \"#utility.yul\":1509:1513   */\n      0x20\n        /* \"#utility.yul\":1504:1507   */\n      dup4\n        /* \"#utility.yul\":1500:1514   */\n      add\n        /* \"#utility.yul\":1486:1514   */\n      swap1\n      pop\n        /* \"#utility.yul\":1341:1520   */\n      swap3\n      swap2\n      pop\n      pop\n      jump\t// out\n        /* \"#utility.yul\":1526:1637   */\n    tag_69:\n        /* \"#utility.yul\":1594:1598   */\n      0x00\n        /* \"#utility.yul\":1626:1630   */\n      0x20\n        /* \"#utility.yul\":1621:1624   */\n      dup3\n        /* \"#utility.yul\":1617:1631   */\n      add\n        /* \"#utility.yul\":1609:1631   */\n      swap1\n      pop\n        /* \"#utility.yul\":1526:1637   */\n      swap2\n      swap1\n      pop\n      jump\t// out\n        /* \"#utility.yul\":1675:2349   */\n    tag_70:\n        /* \"#utility.yul\":1801:1853   */\n      tag_93\n        /* \"#utility.yul\":1847:1852   */\n      dup2\n        /* \"#utility.yul\":1801:1853   */\n      tag_64\n      jump\t// in\n    tag_93:\n        /* \"#utility.yul\":1869:1943   */\n      tag_94\n        /* \"#utility.yul\":1936:1942   */\n      dup2\n        /* \"#utility.yul\":1931:1934   */\n      dup5\n        /* \"#utility.yul\":1869:1943   */\n      tag_65\n      jump\t// in\n    tag_94:\n        /* \"#utility.yul\":1862:1943   */\n      swap3\n      pop\n        /* \"#utility.yul\":1967:2021   */\n      tag_95\n        /* \"#utility.yul\":2015:2020   */\n      dup3\n        /* \"#utility.yul\":1967:2021   */\n      tag_66\n      jump\t// in\n    tag_95:\n        /* \"#utility.yul\":2044:2051   */\n      dup1\n        /* \"#utility.yul\":2075:2076   */\n      0x00\n        /* \"#utility.yul\":2060:2342   */\n    tag_96:\n        /* \"#utility.yul\":2085:2091   */\n      dup4\n        /* \"#utility.yul\":2082:2083   */\n      dup2\n        /* \"#utility.yul\":2079:2092   */\n      lt\n        /* \"#utility.yul\":2060:2342   */\n      iszero\n      tag_98\n      jumpi\n        /* \"#utility.yul\":2161:2167   */\n      dup2\n        /* \"#utility.yul\":2155:2168   */\n      mload\n        /* \"#utility.yul\":2188:2251   */\n      tag_99\n        /* \"#utility.yul\":2247:2250   */\n      dup8\n        /* \"#utility.yul\":2232:2245   */\n      dup3\n        /* \"#utility.yul\":2188:2251   */\n      tag_68\n      jump\t// in\n    tag_99:\n        /* \"#utility.yul\":2181:2251   */\n      swap7\n      pop\n        /* \"#utility.yul\":2274:2332   */\n      tag_100\n        /* \"#utility.yul\":2325:2331   */\n      dup4\n        /* \"#utility.yul\":2274:2332   */\n      tag_69\n      jump\t// in\n    tag_100:\n        /* \"#utility.yul\":2264:2332   */\n      swap3\n      pop\n        /* \"#utility.yul\":2120:2342   */\n      pop\n        /* \"#utility.yul\":2107:2108   */\n      0x01\n        /* \"#utility.yul\":2104:2105   */\n      dup2\n        /* \"#utility.yul\":2100:2109   */\n      add\n        /* \"#utility.yul\":2095:2109   */\n      swap1\n      pop\n        /* \"#utility.yul\":2060:2342   */\n      jump(tag_96)\n    tag_98:\n        /* \"#utility.yul\":2064:2078   */\n      pop\n        /* \"#utility.yul\":1777:2349   */\n      pop\n      pop\n      pop\n        /* \"#utility.yul\":1675:2349   */\n      pop\n      pop\n      jump\t// out\n        /* \"#utility.yul\":2355:2626   */\n    tag_71:\n        /* \"#utility.yul\":2470:2480   */\n      0x00\n        /* \"#utility.yul\":2491:2583   */\n      tag_102\n        /* \"#utility.yul\":2579:2582   */\n      dup4\n        /* \"#utility.yul\":2571:2577   */\n      dup4\n        /* \"#utility.yul\":2491:2583   */\n      tag_70\n      jump\t// in\n    tag_102:\n        /* \"#utility.yul\":2615:2619   */\n      0x40\n        /* \"#utility.yul\":2610:2613   */\n      dup4\n        /* \"#utility.yul\":2606:2620   */\n      add\n        /* \"#utility.yul\":2592:2620   */\n      swap1\n      pop\n        /* \"#utility.yul\":2355:2626   */\n      swap3\n      swap2\n      pop\n      pop\n      jump\t// out\n        /* \"#utility.yul\":2632:2766   */\n    tag_72:\n        /* \"#utility.yul\":2723:2727   */\n      0x00\n        /* \"#utility.yul\":2755:2759   */\n      0x20\n        /* \"#utility.yul\":2750:2753   */\n      dup3\n        /* \"#utility.yul\":2746:2760   */\n      add\n        /* \"#utility.yul\":2738:2760   */\n      swap1\n      pop\n        /* \"#utility.yul\":2632:2766   */\n      swap2\n      swap1\n      pop\n      jump\t// out\n        /* \"#utility.yul\":2810:3688   */\n    tag_73:\n        /* \"#utility.yul\":2992:3067   */\n      tag_105\n        /* \"#utility.yul\":3061:3066   */\n      dup2\n        /* \"#utility.yul\":2992:3067   */\n      tag_61\n      jump\t// in\n    tag_105:\n        /* \"#utility.yul\":3083:3190   */\n      tag_106\n        /* \"#utility.yul\":3183:3189   */\n      dup2\n        /* \"#utility.yul\":3178:3181   */\n      dup5\n        /* \"#utility.yul\":3083:3190   */\n      tag_62\n      jump\t// in\n    tag_106:\n        /* \"#utility.yul\":3076:3190   */\n      swap3\n      pop\n        /* \"#utility.yul\":3214:3291   */\n      tag_107\n        /* \"#utility.yul\":3285:3290   */\n      dup3\n        /* \"#utility.yul\":3214:3291   */\n      tag_63\n      jump\t// in\n    tag_107:\n        /* \"#utility.yul\":3314:3321   */\n      dup1\n        /* \"#utility.yul\":3345:3346   */\n      0x00\n        /* \"#utility.yul\":3330:3681   */\n    tag_108:\n        /* \"#utility.yul\":3355:3361   */\n      dup4\n        /* \"#utility.yul\":3352:3353   */\n      dup2\n        /* \"#utility.yul\":3349:3362   */\n      lt\n        /* \"#utility.yul\":3330:3681   */\n      iszero\n      tag_110\n      jumpi\n        /* \"#utility.yul\":3431:3437   */\n      dup2\n        /* \"#utility.yul\":3425:3438   */\n      mload\n        /* \"#utility.yul\":3458:3567   */\n      tag_111\n        /* \"#utility.yul\":3563:3566   */\n      dup8\n        /* \"#utility.yul\":3548:3561   */\n      dup3\n        /* \"#utility.yul\":3458:3567   */\n      tag_71\n      jump\t// in\n    tag_111:\n        /* \"#utility.yul\":3451:3567   */\n      swap7\n      pop\n        /* \"#utility.yul\":3590:3671   */\n      tag_112\n        /* \"#utility.yul\":3664:3670   */\n      dup4\n        /* \"#utility.yul\":3590:3671   */\n      tag_72\n      jump\t// in\n    tag_112:\n        /* \"#utility.yul\":3580:3671   */\n      swap3\n      pop\n        /* \"#utility.yul\":3390:3681   */\n      pop\n        /* \"#utility.yul\":3377:3378   */\n      0x01\n        /* \"#utility.yul\":3374:3375   */\n      dup2\n        /* \"#utility.yul\":3370:3379   */\n      add\n        /* \"#utility.yul\":3365:3379   */\n      swap1\n      pop\n        /* \"#utility.yul\":3330:3681   */\n      jump(tag_108)\n    tag_110:\n        /* \"#utility.yul\":3334:3348   */\n      pop\n        /* \"#utility.yul\":2968:3688   */\n      pop\n      pop\n      pop\n        /* \"#utility.yul\":2810:3688   */\n      pop\n      pop\n      jump\t// out\n        /* \"#utility.yul\":3694:4101   */\n    tag_14:\n        /* \"#utility.yul\":3879:3883   */\n      0x00\n        /* \"#utility.yul\":3917:3920   */\n      0xc0\n        /* \"#utility.yul\":3906:3915   */\n      dup3\n        /* \"#utility.yul\":3902:3921   */\n      add\n        /* \"#utility.yul\":3894:3921   */\n      swap1\n      pop\n        /* \"#utility.yul\":3931:4094   */\n      tag_114\n        /* \"#utility.yul\":4091:4092   */\n      0x00\n        /* \"#utility.yul\":4080:4089   */\n      dup4\n        /* \"#utility.yul\":4076:4093   */\n      add\n        /* \"#utility.yul\":4067:4073   */\n      dup5\n        /* \"#utility.yul\":3931:4094   */\n      tag_73\n      jump\t// in\n    tag_114:\n        /* \"#utility.yul\":3694:4101   */\n      swap3\n      swap2\n      pop\n      pop\n      jump\t// out\n        /* \"#utility.yul\":4107:4287   */\n    tag_30:\n        /* \"#utility.yul\":4155:4232   */\n      0x4e487b7100000000000000000000000000000000000000000000000000000000\n        /* \"#utility.yul\":4152:4153   */\n      0x00\n        /* \"#utility.yul\":4145:4233   */\n      mstore\n        /* \"#utility.yul\":4252:4256   */\n      0x32\n        /* \"#utility.yul\":4249:4250   */\n      0x04\n        /* \"#utility.yul\":4242:4257   */\n      mstore\n        /* \"#utility.yul\":4276:4280   */\n      0x24\n        /* \"#utility.yul\":4273:4274   */\n      0x00\n        /* \"#utility.yul\":4266:4281   */\n      revert\n        /* \"#utility.yul\":4293:4473   */\n    tag_74:\n        /* \"#utility.yul\":4341:4418   */\n      0x4e487b7100000000000000000000000000000000000000000000000000000000\n        /* \"#utility.yul\":4338:4339   */\n      0x00\n        /* \"#utility.yul\":4331:4419   */\n      mstore\n        /* \"#utility.yul\":4438:4442   */\n      0x11\n        /* \"#utility.yul\":4435:4436   */\n      0x04\n        /* \"#utility.yul\":4428:4443   */\n      mstore\n        /* \"#utility.yul\":4462:4466   */\n      0x24\n        /* \"#utility.yul\":4459:4460   */\n      0x00\n        /* \"#utility.yul\":4452:4467   */\n      revert\n        /* \"#utility.yul\":4479:4784   */\n    tag_39:\n        /* \"#utility.yul\":4519:4522   */\n      0x00\n        /* \"#utility.yul\":4538:4558   */\n      tag_118\n        /* \"#utility.yul\":4556:4557   */\n      dup3\n        /* \"#utility.yul\":4538:4558   */\n      tag_59\n      jump\t// in\n    tag_118:\n        /* \"#utility.yul\":4533:4558   */\n      swap2\n      pop\n        /* \"#utility.yul\":4572:4592   */\n      tag_119\n        /* \"#utility.yul\":4590:4591   */\n      dup4\n        /* \"#utility.yul\":4572:4592   */\n      tag_59\n      jump\t// in\n    tag_119:\n        /* \"#utility.yul\":4567:4592   */\n      swap3\n      pop\n        /* \"#utility.yul\":4726:4727   */\n      dup3\n        /* \"#utility.yul\":4658:4724   */\n      0xffffffffffffffffffffffffffffffffffffffffffffffffffffffffffffffff\n        /* \"#utility.yul\":4654:4728   */\n      sub\n        /* \"#utility.yul\":4651:4652   */\n      dup3\n        /* \"#utility.yul\":4648:4729   */\n      gt\n        /* \"#utility.yul\":4645:4752   */\n      iszero\n      tag_120\n      jumpi\n        /* \"#utility.yul\":4732:4750   */\n      tag_121\n      tag_74\n      jump\t// in\n    tag_121:\n        /* \"#utility.yul\":4645:4752   */\n    tag_120:\n        /* \"#utility.yul\":4776:4777   */\n      dup3\n        /* \"#utility.yul\":4773:4774   */\n      dup3\n        /* \"#utility.yul\":4769:4778   */\n      add\n        /* \"#utility.yul\":4762:4778   */\n      swap1\n      pop\n        /* \"#utility.yul\":4479:4784   */\n      swap3\n      swap2\n      pop\n      pop\n      jump\t// out\n        /* \"#utility.yul\":4790:5023   */\n    tag_41:\n        /* \"#utility.yul\":4829:4832   */\n      0x00\n        /* \"#utility.yul\":4852:4876   */\n      tag_123\n        /* \"#utility.yul\":4870:4875   */\n      dup3\n        /* \"#utility.yul\":4852:4876   */\n      tag_59\n      jump\t// in\n    tag_123:\n        /* \"#utility.yul\":4843:4876   */\n      swap2\n      pop\n        /* \"#utility.yul\":4898:4964   */\n      0xffffffffffffffffffffffffffffffffffffffffffffffffffffffffffffffff\n        /* \"#utility.yul\":4891:4896   */\n      dup3\n        /* \"#utility.yul\":4888:4965   */\n      sub\n        /* \"#utility.yul\":4885:4988   */\n      tag_124\n      jumpi\n        /* \"#utility.yul\":4968:4986   */\n      tag_125\n      tag_74\n      jump\t// in\n    tag_125:\n        /* \"#utility.yul\":4885:4988   */\n    tag_124:\n        /* \"#utility.yul\":5015:5016   */\n      0x01\n        /* \"#utility.yul\":5008:5013   */\n      dup3\n        /* \"#utility.yul\":5004:5017   */\n      add\n        /* \"#utility.yul\":4997:5017   */\n      swap1\n      pop\n        /* \"#utility.yul\":4790:5023   */\n      swap2\n      swap1\n      pop\n      jump\t// out\n\n    auxdata: 0xa2646970667358221220e51b93732480dcee6968b7cb9c1ee5cd24e14af3305a3b17fe9d91dc0a0ace9664736f6c634300080f0033\n}\n",
				"bytecode": {
					"linkReferences": {},
					"object": "608060405260405180606001604052806040518060400160405280600160ff168152602001600260ff1681525081526020016040518060400160405280600360ff168152602001600460ff1681525081526020016040518060400160405280600560ff168152602001600660ff168152508152506000906003610083929190610096565b5034801561009057600080fd5b5061017b565b82600360020281019282156100d6579160200282015b828111156100d5578251829060026100c59291906100e7565b50916020019190600201906100ac565b5b5090506100e3919061012c565b5090565b826002810192821561011b579160200282015b8281111561011a578251829060ff169055916020019190600101906100fa565b5b5090506101289190610150565b5090565b5b8082111561014c5760008181610143919061016d565b5060020161012d565b5090565b5b80821115610169576000816000905550600101610151565b5090565b506000815560010160009055565b6105288061018a6000396000f3fe608060405234801561001057600080fd5b506004361061004c5760003560e01c80634f2be91f1461005157806359016c791461006f57806363f5a6491461008d578063a6f89f0e146100ab575b600080fd5b6100596100c9565b6040516100669190610279565b60405180910390f35b610077610166565b60405161008491906103db565b60405180910390f35b6100956101e9565b6040516100a29190610279565b60405180910390f35b6100b3610208565b6040516100c09190610279565b60405180910390f35b6000806000905060005b600381101561015e5760005b600080600381106100f3576100f26103f6565b5b5050600281101561014a5760008260038110610112576101116103f6565b5b600202018160028110610128576101276103f6565b5b0154836101359190610454565b92508080610142906104aa565b9150506100df565b508080610156906104aa565b9150506100d3565b508091505090565b61016e610211565b6000600380602002604051908101604052809291906000905b828210156101e0578382600202016002806020026040519081016040528092919082600280156101cc576020028201915b8154815260200190600101908083116101b8575b505050505081526020019060010190610187565b50505050905090565b6000806000600381106101ff576101fe6103f6565b5b50506002905090565b60006003905090565b60405180606001604052806003905b61022861023e565b8152602001906001900390816102205790505090565b6040518060400160405280600290602082028036833780820191505090505090565b6000819050919050565b61027381610260565b82525050565b600060208201905061028e600083018461026a565b92915050565b600060039050919050565b600081905092915050565b6000819050919050565b600060029050919050565b600081905092915050565b6000819050919050565b6102dd81610260565b82525050565b60006102ef83836102d4565b60208301905092915050565b6000602082019050919050565b610311816102b4565b61031b81846102bf565b9250610326826102ca565b8060005b8381101561035757815161033e87826102e3565b9650610349836102fb565b92505060018101905061032a565b505050505050565b600061036b8383610308565b60408301905092915050565b6000602082019050919050565b61038d81610294565b610397818461029f565b92506103a2826102aa565b8060005b838110156103d35781516103ba878261035f565b96506103c583610377565b9250506001810190506103a6565b505050505050565b600060c0820190506103f06000830184610384565b92915050565b7f4e487b7100000000000000000000000000000000000000000000000000000000600052603260045260246000fd5b7f4e487b7100000000000000000000000000000000000000000000000000000000600052601160045260246000fd5b600061045f82610260565b915061046a83610260565b9250827fffffffffffffffffffffffffffffffffffffffffffffffffffffffffffffffff0382111561049f5761049e610425565b5b828201905092915050565b60006104b582610260565b91507fffffffffffffffffffffffffffffffffffffffffffffffffffffffffffffffff82036104e7576104e6610425565b5b60018201905091905056fea2646970667358221220e51b93732480dcee6968b7cb9c1ee5cd24e14af3305a3b17fe9d91dc0a0ace9664736f6c634300080f0033",
					"opcodes": "PUSH1 0x80 PUSH1 0x40 MSTORE PUSH1 0x40 MLOAD DUP1 PUSH1 0x60 ADD PUSH1 0x40 MSTORE DUP1 PUSH1 0x40 MLOAD DUP1 PUSH1 0x40 ADD PUSH1 0x40 MSTORE DUP1 PUSH1 0x1 PUSH1 0xFF AND DUP2 MSTORE PUSH1 0x20 ADD PUSH1 0x2 PUSH1 0xFF AND DUP2 MSTORE POP DUP2 MSTORE PUSH1 0x20 ADD PUSH1 0x40 MLOAD DUP1 PUSH1 0x40 ADD PUSH1 0x40 MSTORE DUP1 PUSH1 0x3 PUSH1 0xFF AND DUP2 MSTORE PUSH1 0x20 ADD PUSH1 0x4 PUSH1 0xFF AND DUP2 MSTORE POP DUP2 MSTORE PUSH1 0x20 ADD PUSH1 0x40 MLOAD DUP1 PUSH1 0x40 ADD PUSH1 0x40 MSTORE DUP1 PUSH1 0x5 PUSH1 0xFF AND DUP2 MSTORE PUSH1 0x20 ADD PUSH1 0x6 PUSH1 0xFF AND DUP2 MSTORE POP DUP2 MSTORE POP PUSH1 0x0 SWAP1 PUSH1 0x3 PUSH2 0x83 SWAP3 SWAP2 SWAP1 PUSH2 0x96 JUMP JUMPDEST POP CALLVALUE DUP1 ISZERO PUSH2 0x90 JUMPI PUSH1 0x0 DUP1 REVERT JUMPDEST POP PUSH2 0x17B JUMP JUMPDEST DUP3 PUSH1 0x3 PUSH1 0x2 MUL DUP2 ADD SWAP3 DUP3 ISZERO PUSH2 0xD6 JUMPI SWAP2 PUSH1 0x20 MUL DUP3 ADD JUMPDEST DUP3 DUP2 GT ISZERO PUSH2 0xD5 JUMPI DUP3 MLOAD DUP3 SWAP1 PUSH1 0x2 PUSH2 0xC5 SWAP3 SWAP2 SWAP1 PUSH2 0xE7 JUMP JUMPDEST POP SWAP2 PUSH1 0x20 ADD SWAP2 SWAP1 PUSH1 0x2 ADD SWAP1 PUSH2 0xAC JUMP JUMPDEST JUMPDEST POP SWAP1 POP PUSH2 0xE3 SWAP2 SWAP1 PUSH2 0x12C JUMP JUMPDEST POP SWAP1 JUMP JUMPDEST DUP3 PUSH1 0x2 DUP2 ADD SWAP3 DUP3 ISZERO PUSH2 0x11B JUMPI SWAP2 PUSH1 0x20 MUL DUP3 ADD JUMPDEST DUP3 DUP2 GT ISZERO PUSH2 0x11A JUMPI DUP3 MLOAD DUP3 SWAP1 PUSH1 0xFF AND SWAP1 SSTORE SWAP2 PUSH1 0x20 ADD SWAP2 SWAP1 PUSH1 0x1 ADD SWAP1 PUSH2 0xFA JUMP JUMPDEST JUMPDEST POP SWAP1 POP PUSH2 0x128 SWAP2 SWAP1 PUSH2 0x150 JUMP JUMPDEST POP SWAP1 JUMP JUMPDEST JUMPDEST DUP1 DUP3 GT ISZERO PUSH2 0x14C JUMPI PUSH1 0x0 DUP2 DUP2 PUSH2 0x143 SWAP2 SWAP1 PUSH2 0x16D JUMP JUMPDEST POP PUSH1 0x2 ADD PUSH2 0x12D JUMP JUMPDEST POP SWAP1 JUMP JUMPDEST JUMPDEST DUP1 DUP3 GT ISZERO PUSH2 0x169 JUMPI PUSH1 0x0 DUP2 PUSH1 0x0 SWAP1 SSTORE POP PUSH1 0x1 ADD PUSH2 0x151 JUMP JUMPDEST POP SWAP1 JUMP JUMPDEST POP PUSH1 0x0 DUP2 SSTORE PUSH1 0x1 ADD PUSH1 0x0 SWAP1 SSTORE JUMP JUMPDEST PUSH2 0x528 DUP1 PUSH2 0x18A PUSH1 0x0 CODECOPY PUSH1 0x0 RETURN INVALID PUSH1 0x80 PUSH1 0x40 MSTORE CALLVALUE DUP1 ISZERO PUSH2 0x10 JUMPI PUSH1 0x0 DUP1 REVERT JUMPDEST POP PUSH1 0x4 CALLDATASIZE LT PUSH2 0x4C JUMPI PUSH1 0x0 CALLDATALOAD PUSH1 0xE0 SHR DUP1 PUSH4 0x4F2BE91F EQ PUSH2 0x51 JUMPI DUP1 PUSH4 0x59016C79 EQ PUSH2 0x6F JUMPI DUP1 PUSH4 0x63F5A649 EQ PUSH2 0x8D JUMPI DUP1 PUSH4 0xA6F89F0E EQ PUSH2 0xAB JUMPI JUMPDEST PUSH1 0x0 DUP1 REVERT JUMPDEST PUSH2 0x59 PUSH2 0xC9 JUMP JUMPDEST PUSH1 0x40 MLOAD PUSH2 0x66 SWAP2 SWAP1 PUSH2 0x279 JUMP JUMPDEST PUSH1 0x40 MLOAD DUP1 SWAP2 SUB SWAP1 RETURN JUMPDEST PUSH2 0x77 PUSH2 0x166 JUMP JUMPDEST PUSH1 0x40 MLOAD PUSH2 0x84 SWAP2 SWAP1 PUSH2 0x3DB JUMP JUMPDEST PUSH1 0x40 MLOAD DUP1 SWAP2 SUB SWAP1 RETURN JUMPDEST PUSH2 0x95 PUSH2 0x1E9 JUMP JUMPDEST PUSH1 0x40 MLOAD PUSH2 0xA2 SWAP2 SWAP1 PUSH2 0x279 JUMP JUMPDEST PUSH1 0x40 MLOAD DUP1 SWAP2 SUB SWAP1 RETURN JUMPDEST PUSH2 0xB3 PUSH2 0x208 JUMP JUMPDEST PUSH1 0x40 MLOAD PUSH2 0xC0 SWAP2 SWAP1 PUSH2 0x279 JUMP JUMPDEST PUSH1 0x40 MLOAD DUP1 SWAP2 SUB SWAP1 RETURN JUMPDEST PUSH1 0x0 DUP1 PUSH1 0x0 SWAP1 POP PUSH1 0x0 JUMPDEST PUSH1 0x3 DUP2 LT ISZERO PUSH2 0x15E JUMPI PUSH1 0x0 JUMPDEST PUSH1 0x0 DUP1 PUSH1 0x3 DUP2 LT PUSH2 0xF3 JUMPI PUSH2 0xF2 PUSH2 0x3F6 JUMP JUMPDEST JUMPDEST POP POP PUSH1 0x2 DUP2 LT ISZERO PUSH2 0x14A JUMPI PUSH1 0x0 DUP3 PUSH1 0x3 DUP2 LT PUSH2 0x112 JUMPI PUSH2 0x111 PUSH2 0x3F6 JUMP JUMPDEST JUMPDEST PUSH1 0x2 MUL ADD DUP2 PUSH1 0x2 DUP2 LT PUSH2 0x128 JUMPI PUSH2 0x127 PUSH2 0x3F6 JUMP JUMPDEST JUMPDEST ADD SLOAD DUP4 PUSH2 0x135 SWAP2 SWAP1 PUSH2 0x454 JUMP JUMPDEST SWAP3 POP DUP1 DUP1 PUSH2 0x142 SWAP1 PUSH2 0x4AA JUMP JUMPDEST SWAP2 POP POP PUSH2 0xDF JUMP JUMPDEST POP DUP1 DUP1 PUSH2 0x156 SWAP1 PUSH2 0x4AA JUMP JUMPDEST SWAP2 POP POP PUSH2 0xD3 JUMP JUMPDEST POP DUP1 SWAP2 POP POP SWAP1 JUMP JUMPDEST PUSH2 0x16E PUSH2 0x211 JUMP JUMPDEST PUSH1 0x0 PUSH1 0x3 DUP1 PUSH1 0x20 MUL PUSH1 0x40 MLOAD SWAP1 DUP2 ADD PUSH1 0x40 MSTORE DUP1 SWAP3 SWAP2 SWAP1 PUSH1 0x0 SWAP1 JUMPDEST DUP3 DUP3 LT ISZERO PUSH2 0x1E0 JUMPI DUP4 DUP3 PUSH1 0x2 MUL ADD PUSH1 0x2 DUP1 PUSH1 0x20 MUL PUSH1 0x40 MLOAD SWAP1 DUP2 ADD PUSH1 0x40 MSTORE DUP1 SWAP3 SWAP2 SWAP1 DUP3 PUSH1 0x2 DUP1 ISZERO PUSH2 0x1CC JUMPI PUSH1 0x20 MUL DUP3 ADD SWAP2 JUMPDEST DUP2 SLOAD DUP2 MSTORE PUSH1 0x20 ADD SWAP1 PUSH1 0x1 ADD SWAP1 DUP1 DUP4 GT PUSH2 0x1B8 JUMPI JUMPDEST POP POP POP POP POP DUP2 MSTORE PUSH1 0x20 ADD SWAP1 PUSH1 0x1 ADD SWAP1 PUSH2 0x187 JUMP JUMPDEST POP POP POP POP SWAP1 POP SWAP1 JUMP JUMPDEST PUSH1 0x0 DUP1 PUSH1 0x0 PUSH1 0x3 DUP2 LT PUSH2 0x1FF JUMPI PUSH2 0x1FE PUSH2 0x3F6 JUMP JUMPDEST JUMPDEST POP POP PUSH1 0x2 SWAP1 POP SWAP1 JUMP JUMPDEST PUSH1 0x0 PUSH1 0x3 SWAP1 POP SWAP1 JUMP JUMPDEST PUSH1 0x40 MLOAD DUP1 PUSH1 0x60 ADD PUSH1 0x40 MSTORE DUP1 PUSH1 0x3 SWAP1 JUMPDEST PUSH2 0x228 PUSH2 0x23E JUMP JUMPDEST DUP2 MSTORE PUSH1 0x20 ADD SWAP1 PUSH1 0x1 SWAP1 SUB SWAP1 DUP2 PUSH2 0x220 JUMPI SWAP1 POP POP SWAP1 JUMP JUMPDEST PUSH1 0x40 MLOAD DUP1 PUSH1 0x40 ADD PUSH1 0x40 MSTORE DUP1 PUSH1 0x2 SWAP1 PUSH1 0x20 DUP3 MUL DUP1 CALLDATASIZE DUP4 CALLDATACOPY DUP1 DUP3 ADD SWAP2 POP POP SWAP1 POP POP SWAP1 JUMP JUMPDEST PUSH1 0x0 DUP2 SWAP1 POP SWAP2 SWAP1 POP JUMP JUMPDEST PUSH2 0x273 DUP2 PUSH2 0x260 JUMP JUMPDEST DUP3 MSTORE POP POP JUMP JUMPDEST PUSH1 0x0 PUSH1 0x20 DUP3 ADD SWAP1 POP PUSH2 0x28E PUSH1 0x0 DUP4 ADD DUP5 PUSH2 0x26A JUMP JUMPDEST SWAP3 SWAP2 POP POP JUMP JUMPDEST PUSH1 0x0 PUSH1 0x3 SWAP1 POP SWAP2 SWAP1 POP JUMP JUMPDEST PUSH1 0x0 DUP2 SWAP1 POP SWAP3 SWAP2 POP POP JUMP JUMPDEST PUSH1 0x0 DUP2 SWAP1 POP SWAP2 SWAP1 POP JUMP JUMPDEST PUSH1 0x0 PUSH1 0x2 SWAP1 POP SWAP2 SWAP1 POP JUMP JUMPDEST PUSH1 0x0 DUP2 SWAP1 POP SWAP3 SWAP2 POP POP JUMP JUMPDEST PUSH1 0x0 DUP2 SWAP1 POP SWAP2 SWAP1 POP JUMP JUMPDEST PUSH2 0x2DD DUP2 PUSH2 0x260 JUMP JUMPDEST DUP3 MSTORE POP POP JUMP JUMPDEST PUSH1 0x0 PUSH2 0x2EF DUP4 DUP4 PUSH2 0x2D4 JUMP JUMPDEST PUSH1 0x20 DUP4 ADD SWAP1 POP SWAP3 SWAP2 POP POP JUMP JUMPDEST PUSH1 0x0 PUSH1 0x20 DUP3 ADD SWAP1 POP SWAP2 SWAP1 POP JUMP JUMPDEST PUSH2 0x311 DUP2 PUSH2 0x2B4 JUMP JUMPDEST PUSH2 0x31B DUP2 DUP5 PUSH2 0x2BF JUMP JUMPDEST SWAP3 POP PUSH2 0x326 DUP3 PUSH2 0x2CA JUMP JUMPDEST DUP1 PUSH1 0x0 JUMPDEST DUP4 DUP2 LT ISZERO PUSH2 0x357 JUMPI DUP2 MLOAD PUSH2 0x33E DUP8 DUP3 PUSH2 0x2E3 JUMP JUMPDEST SWAP7 POP PUSH2 0x349 DUP4 PUSH2 0x2FB JUMP JUMPDEST SWAP3 POP POP PUSH1 0x1 DUP2 ADD SWAP1 POP PUSH2 0x32A JUMP JUMPDEST POP POP POP POP POP POP JUMP JUMPDEST PUSH1 0x0 PUSH2 0x36B DUP4 DUP4 PUSH2 0x308 JUMP JUMPDEST PUSH1 0x40 DUP4 ADD SWAP1 POP SWAP3 SWAP2 POP POP JUMP JUMPDEST PUSH1 0x0 PUSH1 0x20 DUP3 ADD SWAP1 POP SWAP2 SWAP1 POP JUMP JUMPDEST PUSH2 0x38D DUP2 PUSH2 0x294 JUMP JUMPDEST PUSH2 0x397 DUP2 DUP5 PUSH2 0x29F JUMP JUMPDEST SWAP3 POP PUSH2 0x3A2 DUP3 PUSH2 0x2AA JUMP JUMPDEST DUP1 PUSH1 0x0 JUMPDEST DUP4 DUP2 LT ISZERO PUSH2 0x3D3 JUMPI DUP2 MLOAD PUSH2 0x3BA DUP8 DUP3 PUSH2 0x35F JUMP JUMPDEST SWAP7 POP PUSH2 0x3C5 DUP4 PUSH2 0x377 JUMP JUMPDEST SWAP3 POP POP PUSH1 0x1 DUP2 ADD SWAP1 POP PUSH2 0x3A6 JUMP JUMPDEST POP POP POP POP POP POP JUMP JUMPDEST PUSH1 0x0 PUSH1 0xC0 DUP3 ADD SWAP1 POP PUSH2 0x3F0 PUSH1 0x0 DUP4 ADD DUP5 PUSH2 0x384 JUMP JUMPDEST SWAP3 SWAP2 POP POP JUMP JUMPDEST PUSH32 0x4E487B7100000000000000000000000000000000000000000000000000000000 PUSH1 0x0 MSTORE PUSH1 0x32 PUSH1 0x4 MSTORE PUSH1 0x24 PUSH1 0x0 REVERT JUMPDEST PUSH32 0x4E487B7100000000000000000000000000000000000000000000000000000000 PUSH1 0x0 MSTORE PUSH1 0x11 PUSH1 0x4 MSTORE PUSH1 0x24 PUSH1 0x0 REVERT JUMPDEST PUSH1 0x0 PUSH2 0x45F DUP3 PUSH2 0x260 JUMP JUMPDEST SWAP2 POP PUSH2 0x46A DUP4 PUSH2 0x260 JUMP JUMPDEST SWAP3 POP DUP3 PUSH32 0xFFFFFFFFFFFFFFFFFFFFFFFFFFFFFFFFFFFFFFFFFFFFFFFFFFFFFFFFFFFFFFFF SUB DUP3 GT ISZERO PUSH2 0x49F JUMPI PUSH2 0x49E PUSH2 0x425 JUMP JUMPDEST JUMPDEST DUP3 DUP3 ADD SWAP1 POP SWAP3 SWAP2 POP POP JUMP JUMPDEST PUSH1 0x0 PUSH2 0x4B5 DUP3 PUSH2 0x260 JUMP JUMPDEST SWAP2 POP PUSH32 0xFFFFFFFFFFFFFFFFFFFFFFFFFFFFFFFFFFFFFFFFFFFFFFFFFFFFFFFFFFFFFFFF DUP3 SUB PUSH2 0x4E7 JUMPI PUSH2 0x4E6 PUSH2 0x425 JUMP JUMPDEST JUMPDEST PUSH1 0x1 DUP3 ADD SWAP1 POP SWAP2 SWAP1 POP JUMP INVALID LOG2 PUSH5 0x6970667358 0x22 SLT KECCAK256 0xE5 SHL SWAP4 PUSH20 0x2480DCEE6968B7CB9C1EE5CD24E14AF3305A3B17 INVALID SWAP14 SWAP2 0xDC EXP EXP 0xCE SWAP7 PUSH5 0x736F6C6343 STOP ADDMOD 0xF STOP CALLER "
				},
				"gasEstimates": {
					"creation": {
						"codeDepositCost": "264000",
						"executionCost": "infinite",
						"totalCost": "infinite"
					},
					"external": {
						"add()": "infinite",
						"getContent()": "infinite",
						"getOneLength()": "381",
						"getTwoLength()": "392"
					}
				},
				"methodIdentifiers": {
					"add()": "4f2be91f",
					"getContent()": "59016c79",
					"getOneLength()": "a6f89f0e",
					"getTwoLength()": "63f5a649"
				}
			},
			"storageLayout": {
				"storage": [
					{
						"astId": 17,
						"contract": "contracts/TwoArray.sol:TwoArray",
						"label": "grade",
						"offset": 0,
						"slot": "0",
						"type": "t_array(t_array(t_uint256)2_storage)3_storage"
					}
				],
				"types": {
					"t_array(t_array(t_uint256)2_storage)3_storage": {
						"base": "t_array(t_uint256)2_storage",
						"encoding": "inplace",
						"label": "uint256[2][3]",
						"numberOfBytes": "192"
					},
					"t_array(t_uint256)2_storage": {
						"base": "t_uint256",
						"encoding": "inplace",
						"label": "uint256[2]",
						"numberOfBytes": "64"
					},
					"t_uint256": {
						"encoding": "inplace",
						"label": "uint256",
						"numberOfBytes": "32"
					}
				}
			},
			"userdoc": {
				"kind": "user",
				"methods": {},
				"version": 1
			}
		}
	}
}