{
	"contracts/Bytes32ToString.sol": {
		"Bytes32ToString": {
			"abi": [
				{
					"inputs": [
						{
							"internalType": "bytes32",
							"name": "_newname",
							"type": "bytes32"
						}
					],
					"name": "bytes32ToString",
					"outputs": [
						{
							"internalType": "string",
							"name": "",
							"type": "string"
						}
					],
					"stateMutability": "view",
					"type": "function"
				}
			],
			"devdoc": {
				"kind": "dev",
				"methods": {},
				"version": 1
			},
			"evm": {
				"assembly": "    /* \"contracts/Bytes32ToString.sol\":55:514  contract Bytes32ToString {... */\n  mstore(0x40, 0x80)\n    /* \"contracts/Bytes32ToString.sol\":100:106  0x7a68 */\n  0x7a68\n    /* \"contracts/Bytes32ToString.sol\":86:106  bytes2 name = 0x7a68 */\n  0xf0\n  shl\n  0x00\n  dup1\n  0x0100\n  exp\n  dup2\n  sload\n  dup2\n  0xffff\n  mul\n  not\n  and\n  swap1\n  dup4\n  0xf0\n  shr\n  mul\n  or\n  swap1\n  sstore\n  pop\n    /* \"contracts/Bytes32ToString.sol\":55:514  contract Bytes32ToString {... */\n  callvalue\n  dup1\n  iszero\n  tag_1\n  jumpi\n  0x00\n  dup1\n  revert\ntag_1:\n  pop\n  dataSize(sub_0)\n  dup1\n  dataOffset(sub_0)\n  0x00\n  codecopy\n  0x00\n  return\nstop\n\nsub_0: assembly {\n        /* \"contracts/Bytes32ToString.sol\":55:514  contract Bytes32ToString {... */\n      mstore(0x40, 0x80)\n      callvalue\n      dup1\n      iszero\n      tag_1\n      jumpi\n      0x00\n      dup1\n      revert\n    tag_1:\n      pop\n      jumpi(tag_2, lt(calldatasize, 0x04))\n      shr(0xe0, calldataload(0x00))\n      dup1\n      0x9201de55\n      eq\n      tag_3\n      jumpi\n    tag_2:\n      0x00\n      dup1\n      revert\n        /* \"contracts/Bytes32ToString.sol\":255:508  function bytes32ToString(bytes32 _newname) public view returns(string memory) {... */\n    tag_3:\n      tag_4\n      0x04\n      dup1\n      calldatasize\n      sub\n      dup2\n      add\n      swap1\n      tag_5\n      swap2\n      swap1\n      tag_6\n      jump\t// in\n    tag_5:\n      tag_7\n      jump\t// in\n    tag_4:\n      mload(0x40)\n      tag_8\n      swap2\n      swap1\n      tag_9\n      jump\t// in\n    tag_8:\n      mload(0x40)\n      dup1\n      swap2\n      sub\n      swap1\n      return\n    tag_7:\n        /* \"contracts/Bytes32ToString.sol\":318:331  string memory */\n      0x60\n        /* \"contracts/Bytes32ToString.sol\":343:363  bytes memory newname */\n      0x00\n        /* \"contracts/Bytes32ToString.sol\":376:391  _newname.length */\n      0x20\n        /* \"contracts/Bytes32ToString.sol\":366:392  new bytes(_newname.length) */\n      0xff\n      and\n      0xffffffffffffffff\n      dup2\n      gt\n      iszero\n      tag_11\n      jumpi\n      tag_12\n      tag_13\n      jump\t// in\n    tag_12:\n    tag_11:\n      mload(0x40)\n      swap1\n      dup1\n      dup3\n      mstore\n      dup1\n      0x1f\n      add\n      not(0x1f)\n      and\n      0x20\n      add\n      dup3\n      add\n      0x40\n      mstore\n      dup1\n      iszero\n      tag_14\n      jumpi\n      dup2\n      0x20\n      add\n      0x01\n      dup3\n      mul\n      dup1\n      calldatasize\n      dup4\n      calldatacopy\n      dup1\n      dup3\n      add\n      swap2\n      pop\n      pop\n      swap1\n      pop\n    tag_14:\n      pop\n        /* \"contracts/Bytes32ToString.sol\":343:392  bytes memory newname = new bytes(_newname.length) */\n      swap1\n      pop\n        /* \"contracts/Bytes32ToString.sol\":415:421  uint i */\n      0x00\n        /* \"contracts/Bytes32ToString.sol\":411:502  for(uint i = 0; i < _newname.length; i++) {... */\n    tag_15:\n        /* \"contracts/Bytes32ToString.sol\":431:446  _newname.length */\n      0x20\n        /* \"contracts/Bytes32ToString.sol\":427:446  i < _newname.length */\n      0xff\n      and\n        /* \"contracts/Bytes32ToString.sol\":427:428  i */\n      dup2\n        /* \"contracts/Bytes32ToString.sol\":427:446  i < _newname.length */\n      lt\n        /* \"contracts/Bytes32ToString.sol\":411:502  for(uint i = 0; i < _newname.length; i++) {... */\n      iszero\n      tag_16\n      jumpi\n        /* \"contracts/Bytes32ToString.sol\":480:488  _newname */\n      dup4\n        /* \"contracts/Bytes32ToString.sol\":489:490  i */\n      dup2\n        /* \"contracts/Bytes32ToString.sol\":480:491  _newname[i] */\n      0x20\n      dup2\n      lt\n      tag_18\n      jumpi\n      tag_19\n      tag_20\n      jump\t// in\n    tag_19:\n    tag_18:\n      byte\n      0xf8\n      shl\n        /* \"contracts/Bytes32ToString.sol\":467:474  newname */\n      dup3\n        /* \"contracts/Bytes32ToString.sol\":475:476  i */\n      dup3\n        /* \"contracts/Bytes32ToString.sol\":467:477  newname[i] */\n      dup2\n      mload\n      dup2\n      lt\n      tag_21\n      jumpi\n      tag_22\n      tag_20\n      jump\t// in\n    tag_22:\n    tag_21:\n      0x20\n      add\n      add\n        /* \"contracts/Bytes32ToString.sol\":467:491  newname[i] = _newname[i] */\n      swap1\n      not(0xffffffffffffffffffffffffffffffffffffffffffffffffffffffffffffff)\n      and\n      swap1\n      dup2\n      0x00\n      byte\n      swap1\n      mstore8\n      pop\n        /* \"contracts/Bytes32ToString.sol\":448:451  i++ */\n      dup1\n      dup1\n      tag_23\n      swap1\n      tag_24\n      jump\t// in\n    tag_23:\n      swap2\n      pop\n      pop\n        /* \"contracts/Bytes32ToString.sol\":411:502  for(uint i = 0; i < _newname.length; i++) {... */\n      jump(tag_15)\n    tag_16:\n      pop\n        /* \"contracts/Bytes32ToString.sol\":333:508  {... */\n      pop\n        /* \"contracts/Bytes32ToString.sol\":255:508  function bytes32ToString(bytes32 _newname) public view returns(string memory) {... */\n      swap2\n      swap1\n      pop\n      jump\t// out\n        /* \"#utility.yul\":88:205   */\n    tag_26:\n        /* \"#utility.yul\":197:198   */\n      0x00\n        /* \"#utility.yul\":194:195   */\n      dup1\n        /* \"#utility.yul\":187:199   */\n      revert\n        /* \"#utility.yul\":334:411   */\n    tag_28:\n        /* \"#utility.yul\":371:378   */\n      0x00\n        /* \"#utility.yul\":400:405   */\n      dup2\n        /* \"#utility.yul\":389:405   */\n      swap1\n      pop\n        /* \"#utility.yul\":334:411   */\n      swap2\n      swap1\n      pop\n      jump\t// out\n        /* \"#utility.yul\":417:539   */\n    tag_29:\n        /* \"#utility.yul\":490:514   */\n      tag_44\n        /* \"#utility.yul\":508:513   */\n      dup2\n        /* \"#utility.yul\":490:514   */\n      tag_28\n      jump\t// in\n    tag_44:\n        /* \"#utility.yul\":483:488   */\n      dup2\n        /* \"#utility.yul\":480:515   */\n      eq\n        /* \"#utility.yul\":470:533   */\n      tag_45\n      jumpi\n        /* \"#utility.yul\":529:530   */\n      0x00\n        /* \"#utility.yul\":526:527   */\n      dup1\n        /* \"#utility.yul\":519:531   */\n      revert\n        /* \"#utility.yul\":470:533   */\n    tag_45:\n        /* \"#utility.yul\":417:539   */\n      pop\n      jump\t// out\n        /* \"#utility.yul\":545:684   */\n    tag_30:\n        /* \"#utility.yul\":591:596   */\n      0x00\n        /* \"#utility.yul\":629:635   */\n      dup2\n        /* \"#utility.yul\":616:636   */\n      calldataload\n        /* \"#utility.yul\":607:636   */\n      swap1\n      pop\n        /* \"#utility.yul\":645:678   */\n      tag_47\n        /* \"#utility.yul\":672:677   */\n      dup2\n        /* \"#utility.yul\":645:678   */\n      tag_29\n      jump\t// in\n    tag_47:\n        /* \"#utility.yul\":545:684   */\n      swap3\n      swap2\n      pop\n      pop\n      jump\t// out\n        /* \"#utility.yul\":690:1019   */\n    tag_6:\n        /* \"#utility.yul\":749:755   */\n      0x00\n        /* \"#utility.yul\":798:800   */\n      0x20\n        /* \"#utility.yul\":786:795   */\n      dup3\n        /* \"#utility.yul\":777:784   */\n      dup5\n        /* \"#utility.yul\":773:796   */\n      sub\n        /* \"#utility.yul\":769:801   */\n      slt\n        /* \"#utility.yul\":766:885   */\n      iszero\n      tag_49\n      jumpi\n        /* \"#utility.yul\":804:883   */\n      tag_50\n      tag_26\n      jump\t// in\n    tag_50:\n        /* \"#utility.yul\":766:885   */\n    tag_49:\n        /* \"#utility.yul\":924:925   */\n      0x00\n        /* \"#utility.yul\":949:1002   */\n      tag_51\n        /* \"#utility.yul\":994:1001   */\n      dup5\n        /* \"#utility.yul\":985:991   */\n      dup3\n        /* \"#utility.yul\":974:983   */\n      dup6\n        /* \"#utility.yul\":970:992   */\n      add\n        /* \"#utility.yul\":949:1002   */\n      tag_30\n      jump\t// in\n    tag_51:\n        /* \"#utility.yul\":939:1002   */\n      swap2\n      pop\n        /* \"#utility.yul\":895:1012   */\n      pop\n        /* \"#utility.yul\":690:1019   */\n      swap3\n      swap2\n      pop\n      pop\n      jump\t// out\n        /* \"#utility.yul\":1025:1124   */\n    tag_31:\n        /* \"#utility.yul\":1077:1083   */\n      0x00\n        /* \"#utility.yul\":1111:1116   */\n      dup2\n        /* \"#utility.yul\":1105:1117   */\n      mload\n        /* \"#utility.yul\":1095:1117   */\n      swap1\n      pop\n        /* \"#utility.yul\":1025:1124   */\n      swap2\n      swap1\n      pop\n      jump\t// out\n        /* \"#utility.yul\":1130:1299   */\n    tag_32:\n        /* \"#utility.yul\":1214:1225   */\n      0x00\n        /* \"#utility.yul\":1248:1254   */\n      dup3\n        /* \"#utility.yul\":1243:1246   */\n      dup3\n        /* \"#utility.yul\":1236:1255   */\n      mstore\n        /* \"#utility.yul\":1288:1292   */\n      0x20\n        /* \"#utility.yul\":1283:1286   */\n      dup3\n        /* \"#utility.yul\":1279:1293   */\n      add\n        /* \"#utility.yul\":1264:1293   */\n      swap1\n      pop\n        /* \"#utility.yul\":1130:1299   */\n      swap3\n      swap2\n      pop\n      pop\n      jump\t// out\n        /* \"#utility.yul\":1305:1612   */\n    tag_33:\n        /* \"#utility.yul\":1373:1374   */\n      0x00\n        /* \"#utility.yul\":1383:1496   */\n    tag_55:\n        /* \"#utility.yul\":1397:1403   */\n      dup4\n        /* \"#utility.yul\":1394:1395   */\n      dup2\n        /* \"#utility.yul\":1391:1404   */\n      lt\n        /* \"#utility.yul\":1383:1496   */\n      iszero\n      tag_57\n      jumpi\n        /* \"#utility.yul\":1482:1483   */\n      dup1\n        /* \"#utility.yul\":1477:1480   */\n      dup3\n        /* \"#utility.yul\":1473:1484   */\n      add\n        /* \"#utility.yul\":1467:1485   */\n      mload\n        /* \"#utility.yul\":1463:1464   */\n      dup2\n        /* \"#utility.yul\":1458:1461   */\n      dup5\n        /* \"#utility.yul\":1454:1465   */\n      add\n        /* \"#utility.yul\":1447:1486   */\n      mstore\n        /* \"#utility.yul\":1419:1421   */\n      0x20\n        /* \"#utility.yul\":1416:1417   */\n      dup2\n        /* \"#utility.yul\":1412:1422   */\n      add\n        /* \"#utility.yul\":1407:1422   */\n      swap1\n      pop\n        /* \"#utility.yul\":1383:1496   */\n      jump(tag_55)\n    tag_57:\n        /* \"#utility.yul\":1514:1520   */\n      dup4\n        /* \"#utility.yul\":1511:1512   */\n      dup2\n        /* \"#utility.yul\":1508:1521   */\n      gt\n        /* \"#utility.yul\":1505:1606   */\n      iszero\n      tag_58\n      jumpi\n        /* \"#utility.yul\":1594:1595   */\n      0x00\n        /* \"#utility.yul\":1585:1591   */\n      dup5\n        /* \"#utility.yul\":1580:1583   */\n      dup5\n        /* \"#utility.yul\":1576:1592   */\n      add\n        /* \"#utility.yul\":1569:1596   */\n      mstore\n        /* \"#utility.yul\":1505:1606   */\n    tag_58:\n        /* \"#utility.yul\":1354:1612   */\n      pop\n        /* \"#utility.yul\":1305:1612   */\n      pop\n      pop\n      pop\n      jump\t// out\n        /* \"#utility.yul\":1618:1720   */\n    tag_34:\n        /* \"#utility.yul\":1659:1665   */\n      0x00\n        /* \"#utility.yul\":1710:1712   */\n      0x1f\n        /* \"#utility.yul\":1706:1713   */\n      not\n        /* \"#utility.yul\":1701:1703   */\n      0x1f\n        /* \"#utility.yul\":1694:1699   */\n      dup4\n        /* \"#utility.yul\":1690:1704   */\n      add\n        /* \"#utility.yul\":1686:1714   */\n      and\n        /* \"#utility.yul\":1676:1714   */\n      swap1\n      pop\n        /* \"#utility.yul\":1618:1720   */\n      swap2\n      swap1\n      pop\n      jump\t// out\n        /* \"#utility.yul\":1726:2090   */\n    tag_35:\n        /* \"#utility.yul\":1814:1817   */\n      0x00\n        /* \"#utility.yul\":1842:1881   */\n      tag_61\n        /* \"#utility.yul\":1875:1880   */\n      dup3\n        /* \"#utility.yul\":1842:1881   */\n      tag_31\n      jump\t// in\n    tag_61:\n        /* \"#utility.yul\":1897:1968   */\n      tag_62\n        /* \"#utility.yul\":1961:1967   */\n      dup2\n        /* \"#utility.yul\":1956:1959   */\n      dup6\n        /* \"#utility.yul\":1897:1968   */\n      tag_32\n      jump\t// in\n    tag_62:\n        /* \"#utility.yul\":1890:1968   */\n      swap4\n      pop\n        /* \"#utility.yul\":1977:2029   */\n      tag_63\n        /* \"#utility.yul\":2022:2028   */\n      dup2\n        /* \"#utility.yul\":2017:2020   */\n      dup6\n        /* \"#utility.yul\":2010:2014   */\n      0x20\n        /* \"#utility.yul\":2003:2008   */\n      dup7\n        /* \"#utility.yul\":1999:2015   */\n      add\n        /* \"#utility.yul\":1977:2029   */\n      tag_33\n      jump\t// in\n    tag_63:\n        /* \"#utility.yul\":2054:2083   */\n      tag_64\n        /* \"#utility.yul\":2076:2082   */\n      dup2\n        /* \"#utility.yul\":2054:2083   */\n      tag_34\n      jump\t// in\n    tag_64:\n        /* \"#utility.yul\":2049:2052   */\n      dup5\n        /* \"#utility.yul\":2045:2084   */\n      add\n        /* \"#utility.yul\":2038:2084   */\n      swap2\n      pop\n        /* \"#utility.yul\":1818:2090   */\n      pop\n        /* \"#utility.yul\":1726:2090   */\n      swap3\n      swap2\n      pop\n      pop\n      jump\t// out\n        /* \"#utility.yul\":2096:2409   */\n    tag_9:\n        /* \"#utility.yul\":2209:2213   */\n      0x00\n        /* \"#utility.yul\":2247:2249   */\n      0x20\n        /* \"#utility.yul\":2236:2245   */\n      dup3\n        /* \"#utility.yul\":2232:2250   */\n      add\n        /* \"#utility.yul\":2224:2250   */\n      swap1\n      pop\n        /* \"#utility.yul\":2296:2305   */\n      dup2\n        /* \"#utility.yul\":2290:2294   */\n      dup2\n        /* \"#utility.yul\":2286:2306   */\n      sub\n        /* \"#utility.yul\":2282:2283   */\n      0x00\n        /* \"#utility.yul\":2271:2280   */\n      dup4\n        /* \"#utility.yul\":2267:2284   */\n      add\n        /* \"#utility.yul\":2260:2307   */\n      mstore\n        /* \"#utility.yul\":2324:2402   */\n      tag_66\n        /* \"#utility.yul\":2397:2401   */\n      dup2\n        /* \"#utility.yul\":2388:2394   */\n      dup5\n        /* \"#utility.yul\":2324:2402   */\n      tag_35\n      jump\t// in\n    tag_66:\n        /* \"#utility.yul\":2316:2402   */\n      swap1\n      pop\n        /* \"#utility.yul\":2096:2409   */\n      swap3\n      swap2\n      pop\n      pop\n      jump\t// out\n        /* \"#utility.yul\":2415:2595   */\n    tag_13:\n        /* \"#utility.yul\":2463:2540   */\n      0x4e487b7100000000000000000000000000000000000000000000000000000000\n        /* \"#utility.yul\":2460:2461   */\n      0x00\n        /* \"#utility.yul\":2453:2541   */\n      mstore\n        /* \"#utility.yul\":2560:2564   */\n      0x41\n        /* \"#utility.yul\":2557:2558   */\n      0x04\n        /* \"#utility.yul\":2550:2565   */\n      mstore\n        /* \"#utility.yul\":2584:2588   */\n      0x24\n        /* \"#utility.yul\":2581:2582   */\n      0x00\n        /* \"#utility.yul\":2574:2589   */\n      revert\n        /* \"#utility.yul\":2601:2781   */\n    tag_20:\n        /* \"#utility.yul\":2649:2726   */\n      0x4e487b7100000000000000000000000000000000000000000000000000000000\n        /* \"#utility.yul\":2646:2647   */\n      0x00\n        /* \"#utility.yul\":2639:2727   */\n      mstore\n        /* \"#utility.yul\":2746:2750   */\n      0x32\n        /* \"#utility.yul\":2743:2744   */\n      0x04\n        /* \"#utility.yul\":2736:2751   */\n      mstore\n        /* \"#utility.yul\":2770:2774   */\n      0x24\n        /* \"#utility.yul\":2767:2768   */\n      0x00\n        /* \"#utility.yul\":2760:2775   */\n      revert\n        /* \"#utility.yul\":2787:2967   */\n    tag_36:\n        /* \"#utility.yul\":2835:2912   */\n      0x4e487b7100000000000000000000000000000000000000000000000000000000\n        /* \"#utility.yul\":2832:2833   */\n      0x00\n        /* \"#utility.yul\":2825:2913   */\n      mstore\n        /* \"#utility.yul\":2932:2936   */\n      0x11\n        /* \"#utility.yul\":2929:2930   */\n      0x04\n        /* \"#utility.yul\":2922:2937   */\n      mstore\n        /* \"#utility.yul\":2956:2960   */\n      0x24\n        /* \"#utility.yul\":2953:2954   */\n      0x00\n        /* \"#utility.yul\":2946:2961   */\n      revert\n        /* \"#utility.yul\":2973:3050   */\n    tag_37:\n        /* \"#utility.yul\":3010:3017   */\n      0x00\n        /* \"#utility.yul\":3039:3044   */\n      dup2\n        /* \"#utility.yul\":3028:3044   */\n      swap1\n      pop\n        /* \"#utility.yul\":2973:3050   */\n      swap2\n      swap1\n      pop\n      jump\t// out\n        /* \"#utility.yul\":3056:3289   */\n    tag_24:\n        /* \"#utility.yul\":3095:3098   */\n      0x00\n        /* \"#utility.yul\":3118:3142   */\n      tag_72\n        /* \"#utility.yul\":3136:3141   */\n      dup3\n        /* \"#utility.yul\":3118:3142   */\n      tag_37\n      jump\t// in\n    tag_72:\n        /* \"#utility.yul\":3109:3142   */\n      swap2\n      pop\n        /* \"#utility.yul\":3164:3230   */\n      0xffffffffffffffffffffffffffffffffffffffffffffffffffffffffffffffff\n        /* \"#utility.yul\":3157:3162   */\n      dup3\n        /* \"#utility.yul\":3154:3231   */\n      sub\n        /* \"#utility.yul\":3151:3254   */\n      tag_73\n      jumpi\n        /* \"#utility.yul\":3234:3252   */\n      tag_74\n      tag_36\n      jump\t// in\n    tag_74:\n        /* \"#utility.yul\":3151:3254   */\n    tag_73:\n        /* \"#utility.yul\":3281:3282   */\n      0x01\n        /* \"#utility.yul\":3274:3279   */\n      dup3\n        /* \"#utility.yul\":3270:3283   */\n      add\n        /* \"#utility.yul\":3263:3283   */\n      swap1\n      pop\n        /* \"#utility.yul\":3056:3289   */\n      swap2\n      swap1\n      pop\n      jump\t// out\n\n    auxdata: 0xa264697066735822122032b1bd41840fbf6b6bc9edd1ccda0781bf04e4229cb194bc118980912e8cea7964736f6c634300080f0033\n}\n",
				"bytecode": {
					"linkReferences": {},
					"object": "6080604052617a6860f01b6000806101000a81548161ffff021916908360f01c021790555034801561003057600080fd5b50610371806100406000396000f3fe608060405234801561001057600080fd5b506004361061002b5760003560e01c80639201de5514610030575b600080fd5b61004a60048036038101906100459190610174565b610060565b604051610057919061023a565b60405180910390f35b60606000602060ff1667ffffffffffffffff8111156100825761008161025c565b5b6040519080825280601f01601f1916602001820160405280156100b45781602001600182028036833780820191505090505b50905060005b602060ff16811015610132578381602081106100d9576100d861028b565b5b1a60f81b8282815181106100f0576100ef61028b565b5b60200101907effffffffffffffffffffffffffffffffffffffffffffffffffffffffffffff1916908160001a905350808061012a906102f3565b9150506100ba565b5050919050565b600080fd5b6000819050919050565b6101518161013e565b811461015c57600080fd5b50565b60008135905061016e81610148565b92915050565b60006020828403121561018a57610189610139565b5b60006101988482850161015f565b91505092915050565b600081519050919050565b600082825260208201905092915050565b60005b838110156101db5780820151818401526020810190506101c0565b838111156101ea576000848401525b50505050565b6000601f19601f8301169050919050565b600061020c826101a1565b61021681856101ac565b93506102268185602086016101bd565b61022f816101f0565b840191505092915050565b600060208201905081810360008301526102548184610201565b905092915050565b7f4e487b7100000000000000000000000000000000000000000000000000000000600052604160045260246000fd5b7f4e487b7100000000000000000000000000000000000000000000000000000000600052603260045260246000fd5b7f4e487b7100000000000000000000000000000000000000000000000000000000600052601160045260246000fd5b6000819050919050565b60006102fe826102e9565b91507fffffffffffffffffffffffffffffffffffffffffffffffffffffffffffffffff82036103305761032f6102ba565b5b60018201905091905056fea264697066735822122032b1bd41840fbf6b6bc9edd1ccda0781bf04e4229cb194bc118980912e8cea7964736f6c634300080f0033",
					"opcodes": "PUSH1 0x80 PUSH1 0x40 MSTORE PUSH2 0x7A68 PUSH1 0xF0 SHL PUSH1 0x0 DUP1 PUSH2 0x100 EXP DUP2 SLOAD DUP2 PUSH2 0xFFFF MUL NOT AND SWAP1 DUP4 PUSH1 0xF0 SHR MUL OR SWAP1 SSTORE POP CALLVALUE DUP1 ISZERO PUSH2 0x30 JUMPI PUSH1 0x0 DUP1 REVERT JUMPDEST POP PUSH2 0x371 DUP1 PUSH2 0x40 PUSH1 0x0 CODECOPY PUSH1 0x0 RETURN INVALID PUSH1 0x80 PUSH1 0x40 MSTORE CALLVALUE DUP1 ISZERO PUSH2 0x10 JUMPI PUSH1 0x0 DUP1 REVERT JUMPDEST POP PUSH1 0x4 CALLDATASIZE LT PUSH2 0x2B JUMPI PUSH1 0x0 CALLDATALOAD PUSH1 0xE0 SHR DUP1 PUSH4 0x9201DE55 EQ PUSH2 0x30 JUMPI JUMPDEST PUSH1 0x0 DUP1 REVERT JUMPDEST PUSH2 0x4A PUSH1 0x4 DUP1 CALLDATASIZE SUB DUP2 ADD SWAP1 PUSH2 0x45 SWAP2 SWAP1 PUSH2 0x174 JUMP JUMPDEST PUSH2 0x60 JUMP JUMPDEST PUSH1 0x40 MLOAD PUSH2 0x57 SWAP2 SWAP1 PUSH2 0x23A JUMP JUMPDEST PUSH1 0x40 MLOAD DUP1 SWAP2 SUB SWAP1 RETURN JUMPDEST PUSH1 0x60 PUSH1 0x0 PUSH1 0x20 PUSH1 0xFF AND PUSH8 0xFFFFFFFFFFFFFFFF DUP2 GT ISZERO PUSH2 0x82 JUMPI PUSH2 0x81 PUSH2 0x25C JUMP JUMPDEST JUMPDEST PUSH1 0x40 MLOAD SWAP1 DUP1 DUP3 MSTORE DUP1 PUSH1 0x1F ADD PUSH1 0x1F NOT AND PUSH1 0x20 ADD DUP3 ADD PUSH1 0x40 MSTORE DUP1 ISZERO PUSH2 0xB4 JUMPI DUP2 PUSH1 0x20 ADD PUSH1 0x1 DUP3 MUL DUP1 CALLDATASIZE DUP4 CALLDATACOPY DUP1 DUP3 ADD SWAP2 POP POP SWAP1 POP JUMPDEST POP SWAP1 POP PUSH1 0x0 JUMPDEST PUSH1 0x20 PUSH1 0xFF AND DUP2 LT ISZERO PUSH2 0x132 JUMPI DUP4 DUP2 PUSH1 0x20 DUP2 LT PUSH2 0xD9 JUMPI PUSH2 0xD8 PUSH2 0x28B JUMP JUMPDEST JUMPDEST BYTE PUSH1 0xF8 SHL DUP3 DUP3 DUP2 MLOAD DUP2 LT PUSH2 0xF0 JUMPI PUSH2 0xEF PUSH2 0x28B JUMP JUMPDEST JUMPDEST PUSH1 0x20 ADD ADD SWAP1 PUSH31 0xFFFFFFFFFFFFFFFFFFFFFFFFFFFFFFFFFFFFFFFFFFFFFFFFFFFFFFFFFFFFFF NOT AND SWAP1 DUP2 PUSH1 0x0 BYTE SWAP1 MSTORE8 POP DUP1 DUP1 PUSH2 0x12A SWAP1 PUSH2 0x2F3 JUMP JUMPDEST SWAP2 POP POP PUSH2 0xBA JUMP JUMPDEST POP POP SWAP2 SWAP1 POP JUMP JUMPDEST PUSH1 0x0 DUP1 REVERT JUMPDEST PUSH1 0x0 DUP2 SWAP1 POP SWAP2 SWAP1 POP JUMP JUMPDEST PUSH2 0x151 DUP2 PUSH2 0x13E JUMP JUMPDEST DUP2 EQ PUSH2 0x15C JUMPI PUSH1 0x0 DUP1 REVERT JUMPDEST POP JUMP JUMPDEST PUSH1 0x0 DUP2 CALLDATALOAD SWAP1 POP PUSH2 0x16E DUP2 PUSH2 0x148 JUMP JUMPDEST SWAP3 SWAP2 POP POP JUMP JUMPDEST PUSH1 0x0 PUSH1 0x20 DUP3 DUP5 SUB SLT ISZERO PUSH2 0x18A JUMPI PUSH2 0x189 PUSH2 0x139 JUMP JUMPDEST JUMPDEST PUSH1 0x0 PUSH2 0x198 DUP5 DUP3 DUP6 ADD PUSH2 0x15F JUMP JUMPDEST SWAP2 POP POP SWAP3 SWAP2 POP POP JUMP JUMPDEST PUSH1 0x0 DUP2 MLOAD SWAP1 POP SWAP2 SWAP1 POP JUMP JUMPDEST PUSH1 0x0 DUP3 DUP3 MSTORE PUSH1 0x20 DUP3 ADD SWAP1 POP SWAP3 SWAP2 POP POP JUMP JUMPDEST PUSH1 0x0 JUMPDEST DUP4 DUP2 LT ISZERO PUSH2 0x1DB JUMPI DUP1 DUP3 ADD MLOAD DUP2 DUP5 ADD MSTORE PUSH1 0x20 DUP2 ADD SWAP1 POP PUSH2 0x1C0 JUMP JUMPDEST DUP4 DUP2 GT ISZERO PUSH2 0x1EA JUMPI PUSH1 0x0 DUP5 DUP5 ADD MSTORE JUMPDEST POP POP POP POP JUMP JUMPDEST PUSH1 0x0 PUSH1 0x1F NOT PUSH1 0x1F DUP4 ADD AND SWAP1 POP SWAP2 SWAP1 POP JUMP JUMPDEST PUSH1 0x0 PUSH2 0x20C DUP3 PUSH2 0x1A1 JUMP JUMPDEST PUSH2 0x216 DUP2 DUP6 PUSH2 0x1AC JUMP JUMPDEST SWAP4 POP PUSH2 0x226 DUP2 DUP6 PUSH1 0x20 DUP7 ADD PUSH2 0x1BD JUMP JUMPDEST PUSH2 0x22F DUP2 PUSH2 0x1F0 JUMP JUMPDEST DUP5 ADD SWAP2 POP POP SWAP3 SWAP2 POP POP JUMP JUMPDEST PUSH1 0x0 PUSH1 0x20 DUP3 ADD SWAP1 POP DUP2 DUP2 SUB PUSH1 0x0 DUP4 ADD MSTORE PUSH2 0x254 DUP2 DUP5 PUSH2 0x201 JUMP JUMPDEST SWAP1 POP SWAP3 SWAP2 POP POP JUMP JUMPDEST PUSH32 0x4E487B7100000000000000000000000000000000000000000000000000000000 PUSH1 0x0 MSTORE PUSH1 0x41 PUSH1 0x4 MSTORE PUSH1 0x24 PUSH1 0x0 REVERT JUMPDEST PUSH32 0x4E487B7100000000000000000000000000000000000000000000000000000000 PUSH1 0x0 MSTORE PUSH1 0x32 PUSH1 0x4 MSTORE PUSH1 0x24 PUSH1 0x0 REVERT JUMPDEST PUSH32 0x4E487B7100000000000000000000000000000000000000000000000000000000 PUSH1 0x0 MSTORE PUSH1 0x11 PUSH1 0x4 MSTORE PUSH1 0x24 PUSH1 0x0 REVERT JUMPDEST PUSH1 0x0 DUP2 SWAP1 POP SWAP2 SWAP1 POP JUMP JUMPDEST PUSH1 0x0 PUSH2 0x2FE DUP3 PUSH2 0x2E9 JUMP JUMPDEST SWAP2 POP PUSH32 0xFFFFFFFFFFFFFFFFFFFFFFFFFFFFFFFFFFFFFFFFFFFFFFFFFFFFFFFFFFFFFFFF DUP3 SUB PUSH2 0x330 JUMPI PUSH2 0x32F PUSH2 0x2BA JUMP JUMPDEST JUMPDEST PUSH1 0x1 DUP3 ADD SWAP1 POP SWAP2 SWAP1 POP JUMP INVALID LOG2 PUSH5 0x6970667358 0x22 SLT KECCAK256 ORIGIN 0xB1 0xBD COINBASE DUP5 0xF 0xBF PUSH12 0x6BC9EDD1CCDA0781BF04E422 SWAP13 0xB1 SWAP5 0xBC GT DUP10 DUP1 SWAP2 0x2E DUP13 0xEA PUSH26 0x64736F6C634300080F0033000000000000000000000000000000 "
				},
				"gasEstimates": {
					"creation": {
						"codeDepositCost": "176200",
						"executionCost": "24493",
						"totalCost": "200693"
					},
					"external": {
						"bytes32ToString(bytes32)": "infinite"
					}
				},
				"methodIdentifiers": {
					"bytes32ToString(bytes32)": "9201de55"
				}
			},
			"storageLayout": {
				"storage": [
					{
						"astId": 4,
						"contract": "contracts/Bytes32ToString.sol:Bytes32ToString",
						"label": "name",
						"offset": 0,
						"slot": "0",
						"type": "t_bytes2"
					}
				],
				"types": {
					"t_bytes2": {
						"encoding": "inplace",
						"label": "bytes2",
						"numberOfBytes": "2"
					}
				}
			},
			"userdoc": {
				"kind": "user",
				"methods": {},
				"version": 1
			}
		}
	}
}