{
	"contracts/address.sol": {
		"Address": {
			"abi": [
				{
					"inputs": [],
					"name": "account",
					"outputs": [
						{
							"internalType": "address",
							"name": "",
							"type": "address"
						}
					],
					"stateMutability": "view",
					"type": "function"
				},
				{
					"inputs": [],
					"name": "account1",
					"outputs": [
						{
							"internalType": "address",
							"name": "",
							"type": "address"
						}
					],
					"stateMutability": "view",
					"type": "function"
				},
				{
					"inputs": [],
					"name": "changeIt",
					"outputs": [
						{
							"internalType": "uint160",
							"name": "",
							"type": "uint160"
						}
					],
					"stateMutability": "view",
					"type": "function"
				},
				{
					"inputs": [],
					"name": "changeIt2",
					"outputs": [
						{
							"internalType": "address",
							"name": "",
							"type": "address"
						}
					],
					"stateMutability": "pure",
					"type": "function"
				},
				{
					"inputs": [],
					"name": "check1",
					"outputs": [
						{
							"internalType": "bool",
							"name": "",
							"type": "bool"
						}
					],
					"stateMutability": "view",
					"type": "function"
				}
			],
			"devdoc": {
				"kind": "dev",
				"methods": {},
				"version": 1
			},
			"evm": {
				"assembly": "    /* \"contracts/address.sol\":57:602  contract Address {... */\n  mstore(0x40, 0x80)\n    /* \"contracts/address.sol\":105:147  0x5B38Da6a701c568545dCfcB03FcB875f56beddC4 */\n  0x5b38da6a701c568545dcfcb03fcb875f56beddc4\n    /* \"contracts/address.sol\":80:147  address public account = 0x5B38Da6a701c568545dCfcB03FcB875f56beddC4 */\n  0x00\n  dup1\n  0x0100\n  exp\n  dup2\n  sload\n  dup2\n  0xffffffffffffffffffffffffffffffffffffffff\n  mul\n  not\n  and\n  swap1\n  dup4\n  0xffffffffffffffffffffffffffffffffffffffff\n  and\n  mul\n  or\n  swap1\n  sstore\n  pop\n    /* \"contracts/address.sol\":179:221  0xAb8483F64d9C6d1EcF9b849Ae677dD3315835cb2 */\n  0xab8483f64d9c6d1ecf9b849ae677dd3315835cb2\n    /* \"contracts/address.sol\":153:221  address public account1 = 0xAb8483F64d9C6d1EcF9b849Ae677dD3315835cb2 */\n  0x01\n  exp(0x0100, 0x00)\n  dup2\n  sload\n  dup2\n  0xffffffffffffffffffffffffffffffffffffffff\n  mul\n  not\n  and\n  swap1\n  dup4\n  0xffffffffffffffffffffffffffffffffffffffff\n  and\n  mul\n  or\n  swap1\n  sstore\n  pop\n    /* \"contracts/address.sol\":57:602  contract Address {... */\n  callvalue\n  dup1\n  iszero\n  tag_1\n  jumpi\n  0x00\n  dup1\n  revert\ntag_1:\n  pop\n  dataSize(sub_0)\n  dup1\n  dataOffset(sub_0)\n  0x00\n  codecopy\n  0x00\n  return\nstop\n\nsub_0: assembly {\n        /* \"contracts/address.sol\":57:602  contract Address {... */\n      mstore(0x40, 0x80)\n      callvalue\n      dup1\n      iszero\n      tag_1\n      jumpi\n      0x00\n      dup1\n      revert\n    tag_1:\n      pop\n      jumpi(tag_2, lt(calldatasize, 0x04))\n      shr(0xe0, calldataload(0x00))\n      dup1\n      0x1b5e8b93\n      eq\n      tag_3\n      jumpi\n      dup1\n      0x27b5c175\n      eq\n      tag_4\n      jumpi\n      dup1\n      0x5dab2420\n      eq\n      tag_5\n      jumpi\n      dup1\n      0xe5c5d723\n      eq\n      tag_6\n      jumpi\n      dup1\n      0xecfd0a56\n      eq\n      tag_7\n      jumpi\n    tag_2:\n      0x00\n      dup1\n      revert\n        /* \"contracts/address.sol\":514:599  function check1() public view returns(bool) {... */\n    tag_3:\n      tag_8\n      tag_9\n      jump\t// in\n    tag_8:\n      mload(0x40)\n      tag_10\n      swap2\n      swap1\n      tag_11\n      jump\t// in\n    tag_10:\n      mload(0x40)\n      dup1\n      swap2\n      sub\n      swap1\n      return\n        /* \"contracts/address.sol\":228:370  function  changeIt() public view returns(uint160) {... */\n    tag_4:\n      tag_12\n      tag_13\n      jump\t// in\n    tag_12:\n      mload(0x40)\n      tag_14\n      swap2\n      swap1\n      tag_15\n      jump\t// in\n    tag_14:\n      mload(0x40)\n      dup1\n      swap2\n      sub\n      swap1\n      return\n        /* \"contracts/address.sol\":80:147  address public account = 0x5B38Da6a701c568545dCfcB03FcB875f56beddC4 */\n    tag_5:\n      tag_16\n      tag_17\n      jump\t// in\n    tag_16:\n      mload(0x40)\n      tag_18\n      swap2\n      swap1\n      tag_19\n      jump\t// in\n    tag_18:\n      mload(0x40)\n      dup1\n      swap2\n      sub\n      swap1\n      return\n        /* \"contracts/address.sol\":376:507  function changeIt2() public pure returns(address) {... */\n    tag_6:\n      tag_20\n      tag_21\n      jump\t// in\n    tag_20:\n      mload(0x40)\n      tag_22\n      swap2\n      swap1\n      tag_19\n      jump\t// in\n    tag_22:\n      mload(0x40)\n      dup1\n      swap2\n      sub\n      swap1\n      return\n        /* \"contracts/address.sol\":153:221  address public account1 = 0xAb8483F64d9C6d1EcF9b849Ae677dD3315835cb2 */\n    tag_7:\n      tag_23\n      tag_24\n      jump\t// in\n    tag_23:\n      mload(0x40)\n      tag_25\n      swap2\n      swap1\n      tag_19\n      jump\t// in\n    tag_25:\n      mload(0x40)\n      dup1\n      swap2\n      sub\n      swap1\n      return\n        /* \"contracts/address.sol\":514:599  function check1() public view returns(bool) {... */\n    tag_9:\n        /* \"contracts/address.sol\":552:556  bool */\n      0x00\n        /* \"contracts/address.sol\":584:592  account1 */\n      0x01\n      0x00\n      swap1\n      sload\n      swap1\n      0x0100\n      exp\n      swap1\n      div\n      0xffffffffffffffffffffffffffffffffffffffff\n      and\n        /* \"contracts/address.sol\":574:592  account > account1 */\n      0xffffffffffffffffffffffffffffffffffffffff\n      and\n        /* \"contracts/address.sol\":574:581  account */\n      0x00\n      dup1\n      sload\n      swap1\n      0x0100\n      exp\n      swap1\n      div\n      0xffffffffffffffffffffffffffffffffffffffff\n      and\n        /* \"contracts/address.sol\":574:592  account > account1 */\n      0xffffffffffffffffffffffffffffffffffffffff\n      and\n      gt\n        /* \"contracts/address.sol\":567:592  return account > account1 */\n      swap1\n      pop\n        /* \"contracts/address.sol\":514:599  function check1() public view returns(bool) {... */\n      swap1\n      jump\t// out\n        /* \"contracts/address.sol\":228:370  function  changeIt() public view returns(uint160) {... */\n    tag_13:\n        /* \"contracts/address.sol\":269:276  uint160 */\n      0x00\n        /* \"contracts/address.sol\":303:310  account */\n      dup1\n      0x00\n      swap1\n      sload\n      swap1\n      0x0100\n      exp\n      swap1\n      div\n      0xffffffffffffffffffffffffffffffffffffffff\n      and\n        /* \"contracts/address.sol\":288:311  return uint160(account) */\n      swap1\n      pop\n        /* \"contracts/address.sol\":228:370  function  changeIt() public view returns(uint160) {... */\n      swap1\n      jump\t// out\n        /* \"contracts/address.sol\":80:147  address public account = 0x5B38Da6a701c568545dCfcB03FcB875f56beddC4 */\n    tag_17:\n      0x00\n      dup1\n      sload\n      swap1\n      0x0100\n      exp\n      swap1\n      div\n      0xffffffffffffffffffffffffffffffffffffffff\n      and\n      dup2\n      jump\t// out\n        /* \"contracts/address.sol\":376:507  function changeIt2() public pure returns(address) {... */\n    tag_21:\n        /* \"contracts/address.sol\":417:424  address */\n      0x00\n        /* \"contracts/address.sol\":451:499  520786028573371803640530888255888666801131675076 */\n      0x5b38da6a701c568545dcfcb03fcb875f56beddc4\n        /* \"contracts/address.sol\":436:500  return address(520786028573371803640530888255888666801131675076) */\n      swap1\n      pop\n        /* \"contracts/address.sol\":376:507  function changeIt2() public pure returns(address) {... */\n      swap1\n      jump\t// out\n        /* \"contracts/address.sol\":153:221  address public account1 = 0xAb8483F64d9C6d1EcF9b849Ae677dD3315835cb2 */\n    tag_24:\n      0x01\n      0x00\n      swap1\n      sload\n      swap1\n      0x0100\n      exp\n      swap1\n      div\n      0xffffffffffffffffffffffffffffffffffffffff\n      and\n      dup2\n      jump\t// out\n        /* \"#utility.yul\":7:97   */\n    tag_29:\n        /* \"#utility.yul\":41:48   */\n      0x00\n        /* \"#utility.yul\":84:89   */\n      dup2\n        /* \"#utility.yul\":77:90   */\n      iszero\n        /* \"#utility.yul\":70:91   */\n      iszero\n        /* \"#utility.yul\":59:91   */\n      swap1\n      pop\n        /* \"#utility.yul\":7:97   */\n      swap2\n      swap1\n      pop\n      jump\t// out\n        /* \"#utility.yul\":103:212   */\n    tag_30:\n        /* \"#utility.yul\":184:205   */\n      tag_38\n        /* \"#utility.yul\":199:204   */\n      dup2\n        /* \"#utility.yul\":184:205   */\n      tag_29\n      jump\t// in\n    tag_38:\n        /* \"#utility.yul\":179:182   */\n      dup3\n        /* \"#utility.yul\":172:206   */\n      mstore\n        /* \"#utility.yul\":103:212   */\n      pop\n      pop\n      jump\t// out\n        /* \"#utility.yul\":218:428   */\n    tag_11:\n        /* \"#utility.yul\":305:309   */\n      0x00\n        /* \"#utility.yul\":343:345   */\n      0x20\n        /* \"#utility.yul\":332:341   */\n      dup3\n        /* \"#utility.yul\":328:346   */\n      add\n        /* \"#utility.yul\":320:346   */\n      swap1\n      pop\n        /* \"#utility.yul\":356:421   */\n      tag_40\n        /* \"#utility.yul\":418:419   */\n      0x00\n        /* \"#utility.yul\":407:416   */\n      dup4\n        /* \"#utility.yul\":403:420   */\n      add\n        /* \"#utility.yul\":394:400   */\n      dup5\n        /* \"#utility.yul\":356:421   */\n      tag_30\n      jump\t// in\n    tag_40:\n        /* \"#utility.yul\":218:428   */\n      swap3\n      swap2\n      pop\n      pop\n      jump\t// out\n        /* \"#utility.yul\":434:560   */\n    tag_31:\n        /* \"#utility.yul\":471:478   */\n      0x00\n        /* \"#utility.yul\":511:553   */\n      0xffffffffffffffffffffffffffffffffffffffff\n        /* \"#utility.yul\":504:509   */\n      dup3\n        /* \"#utility.yul\":500:554   */\n      and\n        /* \"#utility.yul\":489:554   */\n      swap1\n      pop\n        /* \"#utility.yul\":434:560   */\n      swap2\n      swap1\n      pop\n      jump\t// out\n        /* \"#utility.yul\":566:684   */\n    tag_32:\n        /* \"#utility.yul\":653:677   */\n      tag_43\n        /* \"#utility.yul\":671:676   */\n      dup2\n        /* \"#utility.yul\":653:677   */\n      tag_31\n      jump\t// in\n    tag_43:\n        /* \"#utility.yul\":648:651   */\n      dup3\n        /* \"#utility.yul\":641:678   */\n      mstore\n        /* \"#utility.yul\":566:684   */\n      pop\n      pop\n      jump\t// out\n        /* \"#utility.yul\":690:912   */\n    tag_15:\n        /* \"#utility.yul\":783:787   */\n      0x00\n        /* \"#utility.yul\":821:823   */\n      0x20\n        /* \"#utility.yul\":810:819   */\n      dup3\n        /* \"#utility.yul\":806:824   */\n      add\n        /* \"#utility.yul\":798:824   */\n      swap1\n      pop\n        /* \"#utility.yul\":834:905   */\n      tag_45\n        /* \"#utility.yul\":902:903   */\n      0x00\n        /* \"#utility.yul\":891:900   */\n      dup4\n        /* \"#utility.yul\":887:904   */\n      add\n        /* \"#utility.yul\":878:884   */\n      dup5\n        /* \"#utility.yul\":834:905   */\n      tag_32\n      jump\t// in\n    tag_45:\n        /* \"#utility.yul\":690:912   */\n      swap3\n      swap2\n      pop\n      pop\n      jump\t// out\n        /* \"#utility.yul\":918:1014   */\n    tag_33:\n        /* \"#utility.yul\":955:962   */\n      0x00\n        /* \"#utility.yul\":984:1008   */\n      tag_47\n        /* \"#utility.yul\":1002:1007   */\n      dup3\n        /* \"#utility.yul\":984:1008   */\n      tag_31\n      jump\t// in\n    tag_47:\n        /* \"#utility.yul\":973:1008   */\n      swap1\n      pop\n        /* \"#utility.yul\":918:1014   */\n      swap2\n      swap1\n      pop\n      jump\t// out\n        /* \"#utility.yul\":1020:1138   */\n    tag_34:\n        /* \"#utility.yul\":1107:1131   */\n      tag_49\n        /* \"#utility.yul\":1125:1130   */\n      dup2\n        /* \"#utility.yul\":1107:1131   */\n      tag_33\n      jump\t// in\n    tag_49:\n        /* \"#utility.yul\":1102:1105   */\n      dup3\n        /* \"#utility.yul\":1095:1132   */\n      mstore\n        /* \"#utility.yul\":1020:1138   */\n      pop\n      pop\n      jump\t// out\n        /* \"#utility.yul\":1144:1366   */\n    tag_19:\n        /* \"#utility.yul\":1237:1241   */\n      0x00\n        /* \"#utility.yul\":1275:1277   */\n      0x20\n        /* \"#utility.yul\":1264:1273   */\n      dup3\n        /* \"#utility.yul\":1260:1278   */\n      add\n        /* \"#utility.yul\":1252:1278   */\n      swap1\n      pop\n        /* \"#utility.yul\":1288:1359   */\n      tag_51\n        /* \"#utility.yul\":1356:1357   */\n      0x00\n        /* \"#utility.yul\":1345:1354   */\n      dup4\n        /* \"#utility.yul\":1341:1358   */\n      add\n        /* \"#utility.yul\":1332:1338   */\n      dup5\n        /* \"#utility.yul\":1288:1359   */\n      tag_34\n      jump\t// in\n    tag_51:\n        /* \"#utility.yul\":1144:1366   */\n      swap3\n      swap2\n      pop\n      pop\n      jump\t// out\n\n    auxdata: 0xa2646970667358221220fbdf2ecb10c51d161f9b47f6c86670ba70a23be0e09f0da77e847fa00bc45d9164736f6c634300080f0033\n}\n",
				"bytecode": {
					"linkReferences": {},
					"object": "6080604052735b38da6a701c568545dcfcb03fcb875f56beddc46000806101000a81548173ffffffffffffffffffffffffffffffffffffffff021916908373ffffffffffffffffffffffffffffffffffffffff16021790555073ab8483f64d9c6d1ecf9b849ae677dd3315835cb2600160006101000a81548173ffffffffffffffffffffffffffffffffffffffff021916908373ffffffffffffffffffffffffffffffffffffffff1602179055503480156100b957600080fd5b506102eb806100c96000396000f3fe608060405234801561001057600080fd5b50600436106100575760003560e01c80631b5e8b931461005c57806327b5c1751461007a5780635dab242014610098578063e5c5d723146100b6578063ecfd0a56146100d4575b600080fd5b6100646100f2565b6040516100719190610214565b60405180910390f35b61008261016a565b60405161008f919061025e565b60405180910390f35b6100a0610193565b6040516100ad919061029a565b60405180910390f35b6100be6101b7565b6040516100cb919061029a565b60405180910390f35b6100dc6101d3565b6040516100e9919061029a565b60405180910390f35b6000600160009054906101000a900473ffffffffffffffffffffffffffffffffffffffff1673ffffffffffffffffffffffffffffffffffffffff1660008054906101000a900473ffffffffffffffffffffffffffffffffffffffff1673ffffffffffffffffffffffffffffffffffffffff1611905090565b60008060009054906101000a900473ffffffffffffffffffffffffffffffffffffffff16905090565b60008054906101000a900473ffffffffffffffffffffffffffffffffffffffff1681565b6000735b38da6a701c568545dcfcb03fcb875f56beddc4905090565b600160009054906101000a900473ffffffffffffffffffffffffffffffffffffffff1681565b60008115159050919050565b61020e816101f9565b82525050565b60006020820190506102296000830184610205565b92915050565b600073ffffffffffffffffffffffffffffffffffffffff82169050919050565b6102588161022f565b82525050565b6000602082019050610273600083018461024f565b92915050565b60006102848261022f565b9050919050565b61029481610279565b82525050565b60006020820190506102af600083018461028b565b9291505056fea2646970667358221220fbdf2ecb10c51d161f9b47f6c86670ba70a23be0e09f0da77e847fa00bc45d9164736f6c634300080f0033",
					"opcodes": "PUSH1 0x80 PUSH1 0x40 MSTORE PUSH20 0x5B38DA6A701C568545DCFCB03FCB875F56BEDDC4 PUSH1 0x0 DUP1 PUSH2 0x100 EXP DUP2 SLOAD DUP2 PUSH20 0xFFFFFFFFFFFFFFFFFFFFFFFFFFFFFFFFFFFFFFFF MUL NOT AND SWAP1 DUP4 PUSH20 0xFFFFFFFFFFFFFFFFFFFFFFFFFFFFFFFFFFFFFFFF AND MUL OR SWAP1 SSTORE POP PUSH20 0xAB8483F64D9C6D1ECF9B849AE677DD3315835CB2 PUSH1 0x1 PUSH1 0x0 PUSH2 0x100 EXP DUP2 SLOAD DUP2 PUSH20 0xFFFFFFFFFFFFFFFFFFFFFFFFFFFFFFFFFFFFFFFF MUL NOT AND SWAP1 DUP4 PUSH20 0xFFFFFFFFFFFFFFFFFFFFFFFFFFFFFFFFFFFFFFFF AND MUL OR SWAP1 SSTORE POP CALLVALUE DUP1 ISZERO PUSH2 0xB9 JUMPI PUSH1 0x0 DUP1 REVERT JUMPDEST POP PUSH2 0x2EB DUP1 PUSH2 0xC9 PUSH1 0x0 CODECOPY PUSH1 0x0 RETURN INVALID PUSH1 0x80 PUSH1 0x40 MSTORE CALLVALUE DUP1 ISZERO PUSH2 0x10 JUMPI PUSH1 0x0 DUP1 REVERT JUMPDEST POP PUSH1 0x4 CALLDATASIZE LT PUSH2 0x57 JUMPI PUSH1 0x0 CALLDATALOAD PUSH1 0xE0 SHR DUP1 PUSH4 0x1B5E8B93 EQ PUSH2 0x5C JUMPI DUP1 PUSH4 0x27B5C175 EQ PUSH2 0x7A JUMPI DUP1 PUSH4 0x5DAB2420 EQ PUSH2 0x98 JUMPI DUP1 PUSH4 0xE5C5D723 EQ PUSH2 0xB6 JUMPI DUP1 PUSH4 0xECFD0A56 EQ PUSH2 0xD4 JUMPI JUMPDEST PUSH1 0x0 DUP1 REVERT JUMPDEST PUSH2 0x64 PUSH2 0xF2 JUMP JUMPDEST PUSH1 0x40 MLOAD PUSH2 0x71 SWAP2 SWAP1 PUSH2 0x214 JUMP JUMPDEST PUSH1 0x40 MLOAD DUP1 SWAP2 SUB SWAP1 RETURN JUMPDEST PUSH2 0x82 PUSH2 0x16A JUMP JUMPDEST PUSH1 0x40 MLOAD PUSH2 0x8F SWAP2 SWAP1 PUSH2 0x25E JUMP JUMPDEST PUSH1 0x40 MLOAD DUP1 SWAP2 SUB SWAP1 RETURN JUMPDEST PUSH2 0xA0 PUSH2 0x193 JUMP JUMPDEST PUSH1 0x40 MLOAD PUSH2 0xAD SWAP2 SWAP1 PUSH2 0x29A JUMP JUMPDEST PUSH1 0x40 MLOAD DUP1 SWAP2 SUB SWAP1 RETURN JUMPDEST PUSH2 0xBE PUSH2 0x1B7 JUMP JUMPDEST PUSH1 0x40 MLOAD PUSH2 0xCB SWAP2 SWAP1 PUSH2 0x29A JUMP JUMPDEST PUSH1 0x40 MLOAD DUP1 SWAP2 SUB SWAP1 RETURN JUMPDEST PUSH2 0xDC PUSH2 0x1D3 JUMP JUMPDEST PUSH1 0x40 MLOAD PUSH2 0xE9 SWAP2 SWAP1 PUSH2 0x29A JUMP JUMPDEST PUSH1 0x40 MLOAD DUP1 SWAP2 SUB SWAP1 RETURN JUMPDEST PUSH1 0x0 PUSH1 0x1 PUSH1 0x0 SWAP1 SLOAD SWAP1 PUSH2 0x100 EXP SWAP1 DIV PUSH20 0xFFFFFFFFFFFFFFFFFFFFFFFFFFFFFFFFFFFFFFFF AND PUSH20 0xFFFFFFFFFFFFFFFFFFFFFFFFFFFFFFFFFFFFFFFF AND PUSH1 0x0 DUP1 SLOAD SWAP1 PUSH2 0x100 EXP SWAP1 DIV PUSH20 0xFFFFFFFFFFFFFFFFFFFFFFFFFFFFFFFFFFFFFFFF AND PUSH20 0xFFFFFFFFFFFFFFFFFFFFFFFFFFFFFFFFFFFFFFFF AND GT SWAP1 POP SWAP1 JUMP JUMPDEST PUSH1 0x0 DUP1 PUSH1 0x0 SWAP1 SLOAD SWAP1 PUSH2 0x100 EXP SWAP1 DIV PUSH20 0xFFFFFFFFFFFFFFFFFFFFFFFFFFFFFFFFFFFFFFFF AND SWAP1 POP SWAP1 JUMP JUMPDEST PUSH1 0x0 DUP1 SLOAD SWAP1 PUSH2 0x100 EXP SWAP1 DIV PUSH20 0xFFFFFFFFFFFFFFFFFFFFFFFFFFFFFFFFFFFFFFFF AND DUP2 JUMP JUMPDEST PUSH1 0x0 PUSH20 0x5B38DA6A701C568545DCFCB03FCB875F56BEDDC4 SWAP1 POP SWAP1 JUMP JUMPDEST PUSH1 0x1 PUSH1 0x0 SWAP1 SLOAD SWAP1 PUSH2 0x100 EXP SWAP1 DIV PUSH20 0xFFFFFFFFFFFFFFFFFFFFFFFFFFFFFFFFFFFFFFFF AND DUP2 JUMP JUMPDEST PUSH1 0x0 DUP2 ISZERO ISZERO SWAP1 POP SWAP2 SWAP1 POP JUMP JUMPDEST PUSH2 0x20E DUP2 PUSH2 0x1F9 JUMP JUMPDEST DUP3 MSTORE POP POP JUMP JUMPDEST PUSH1 0x0 PUSH1 0x20 DUP3 ADD SWAP1 POP PUSH2 0x229 PUSH1 0x0 DUP4 ADD DUP5 PUSH2 0x205 JUMP JUMPDEST SWAP3 SWAP2 POP POP JUMP JUMPDEST PUSH1 0x0 PUSH20 0xFFFFFFFFFFFFFFFFFFFFFFFFFFFFFFFFFFFFFFFF DUP3 AND SWAP1 POP SWAP2 SWAP1 POP JUMP JUMPDEST PUSH2 0x258 DUP2 PUSH2 0x22F JUMP JUMPDEST DUP3 MSTORE POP POP JUMP JUMPDEST PUSH1 0x0 PUSH1 0x20 DUP3 ADD SWAP1 POP PUSH2 0x273 PUSH1 0x0 DUP4 ADD DUP5 PUSH2 0x24F JUMP JUMPDEST SWAP3 SWAP2 POP POP JUMP JUMPDEST PUSH1 0x0 PUSH2 0x284 DUP3 PUSH2 0x22F JUMP JUMPDEST SWAP1 POP SWAP2 SWAP1 POP JUMP JUMPDEST PUSH2 0x294 DUP2 PUSH2 0x279 JUMP JUMPDEST DUP3 MSTORE POP POP JUMP JUMPDEST PUSH1 0x0 PUSH1 0x20 DUP3 ADD SWAP1 POP PUSH2 0x2AF PUSH1 0x0 DUP4 ADD DUP5 PUSH2 0x28B JUMP JUMPDEST SWAP3 SWAP2 POP POP JUMP INVALID LOG2 PUSH5 0x6970667358 0x22 SLT KECCAK256 0xFB 0xDF 0x2E 0xCB LT 0xC5 SAR AND 0x1F SWAP12 SELFBALANCE 0xF6 0xC8 PUSH7 0x70BA70A23BE0E0 SWAP16 0xD 0xA7 PUSH31 0x847FA00BC45D9164736F6C634300080F003300000000000000000000000000 "
				},
				"gasEstimates": {
					"creation": {
						"codeDepositCost": "149400",
						"executionCost": "48730",
						"totalCost": "198130"
					},
					"external": {
						"account()": "2533",
						"account1()": "2580",
						"changeIt()": "2479",
						"changeIt2()": "430",
						"check1()": "4608"
					}
				},
				"methodIdentifiers": {
					"account()": "5dab2420",
					"account1()": "ecfd0a56",
					"changeIt()": "27b5c175",
					"changeIt2()": "e5c5d723",
					"check1()": "1b5e8b93"
				}
			},
			"storageLayout": {
				"storage": [
					{
						"astId": 4,
						"contract": "contracts/address.sol:Address",
						"label": "account",
						"offset": 0,
						"slot": "0",
						"type": "t_address"
					},
					{
						"astId": 7,
						"contract": "contracts/address.sol:Address",
						"label": "account1",
						"offset": 0,
						"slot": "1",
						"type": "t_address"
					}
				],
				"types": {
					"t_address": {
						"encoding": "inplace",
						"label": "address",
						"numberOfBytes": "20"
					}
				}
			},
			"userdoc": {
				"kind": "user",
				"methods": {},
				"version": 1
			}
		}
	}
}