{
	"contracts/Inherit.sol": {
		"son": {
			"abi": [
				{
					"inputs": [],
					"name": "dahan",
					"outputs": [
						{
							"internalType": "string",
							"name": "",
							"type": "string"
						}
					],
					"stateMutability": "nonpayable",
					"type": "function"
				},
				{
					"inputs": [],
					"name": "getMoney",
					"outputs": [
						{
							"internalType": "uint256",
							"name": "",
							"type": "uint256"
						}
					],
					"stateMutability": "nonpayable",
					"type": "function"
				},
				{
					"inputs": [],
					"name": "test",
					"outputs": [
						{
							"internalType": "string",
							"name": "",
							"type": "string"
						}
					],
					"stateMutability": "nonpayable",
					"type": "function"
				}
			],
			"devdoc": {
				"kind": "dev",
				"methods": {},
				"version": 1
			},
			"evm": {
				"assembly": "    /* \"contracts/Inherit.sol\":186:370  contract son is father {... */\n  mstore(0x40, 0x80)\n    /* \"contracts/Inherit.sol\":93:97  1000 */\n  0x03e8\n    /* \"contracts/Inherit.sol\":79:97  uint  money = 1000 */\n  0x00\n  sstore\n    /* \"contracts/Inherit.sol\":186:370  contract son is father {... */\n  callvalue\n  dup1\n  iszero\n  tag_1\n  jumpi\n  0x00\n  dup1\n  revert\ntag_1:\n  pop\n  dataSize(sub_0)\n  dup1\n  dataOffset(sub_0)\n  0x00\n  codecopy\n  0x00\n  return\nstop\n\nsub_0: assembly {\n        /* \"contracts/Inherit.sol\":186:370  contract son is father {... */\n      mstore(0x40, 0x80)\n      callvalue\n      dup1\n      iszero\n      tag_1\n      jumpi\n      0x00\n      dup1\n      revert\n    tag_1:\n      pop\n      jumpi(tag_2, lt(calldatasize, 0x04))\n      shr(0xe0, calldataload(0x00))\n      dup1\n      0x98e1b410\n      eq\n      tag_3\n      jumpi\n      dup1\n      0xc18cde9a\n      eq\n      tag_4\n      jumpi\n      dup1\n      0xf8a8fd6d\n      eq\n      tag_5\n      jumpi\n    tag_2:\n      0x00\n      dup1\n      revert\n        /* \"contracts/Inherit.sol\":215:285  function getMoney() public returns(uint) {... */\n    tag_3:\n      tag_6\n      tag_7\n      jump\t// in\n    tag_6:\n      mload(0x40)\n      tag_8\n      swap2\n      swap1\n      tag_9\n      jump\t// in\n    tag_8:\n      mload(0x40)\n      dup1\n      swap2\n      sub\n      swap1\n      return\n        /* \"contracts/Inherit.sol\":104:182  function dahan() public returns(string memory) {... */\n    tag_4:\n      tag_10\n      tag_11\n      jump\t// in\n    tag_10:\n      mload(0x40)\n      tag_12\n      swap2\n      swap1\n      tag_13\n      jump\t// in\n    tag_12:\n      mload(0x40)\n      dup1\n      swap2\n      sub\n      swap1\n      return\n        /* \"contracts/Inherit.sol\":291:368  function test() public returns(string memory) {... */\n    tag_5:\n      tag_14\n      tag_15\n      jump\t// in\n    tag_14:\n      mload(0x40)\n      tag_16\n      swap2\n      swap1\n      tag_13\n      jump\t// in\n    tag_16:\n      mload(0x40)\n      dup1\n      swap2\n      sub\n      swap1\n      return\n        /* \"contracts/Inherit.sol\":215:285  function getMoney() public returns(uint) {... */\n    tag_7:\n        /* \"contracts/Inherit.sol\":250:254  uint */\n      0x00\n        /* \"contracts/Inherit.sol\":273:278  money */\n      dup1\n      sload\n        /* \"contracts/Inherit.sol\":266:278  return money */\n      swap1\n      pop\n        /* \"contracts/Inherit.sol\":215:285  function getMoney() public returns(uint) {... */\n      swap1\n      jump\t// out\n        /* \"contracts/Inherit.sol\":104:182  function dahan() public returns(string memory) {... */\n    tag_11:\n        /* \"contracts/Inherit.sol\":136:149  string memory */\n      0x60\n        /* \"contracts/Inherit.sol\":161:175  return \"dahan\" */\n      mload(0x40)\n      dup1\n      0x40\n      add\n      0x40\n      mstore\n      dup1\n      0x05\n      dup2\n      mstore\n      0x20\n      add\n      0x646168616e000000000000000000000000000000000000000000000000000000\n      dup2\n      mstore\n      pop\n      swap1\n      pop\n        /* \"contracts/Inherit.sol\":104:182  function dahan() public returns(string memory) {... */\n      swap1\n      jump\t// out\n        /* \"contracts/Inherit.sol\":291:368  function test() public returns(string memory) {... */\n    tag_15:\n        /* \"contracts/Inherit.sol\":322:335  string memory */\n      0x60\n        /* \"contracts/Inherit.sol\":354:361  dahan() */\n      tag_20\n        /* \"contracts/Inherit.sol\":354:359  dahan */\n      tag_11\n        /* \"contracts/Inherit.sol\":354:361  dahan() */\n      jump\t// in\n    tag_20:\n        /* \"contracts/Inherit.sol\":347:361  return dahan() */\n      swap1\n      pop\n        /* \"contracts/Inherit.sol\":291:368  function test() public returns(string memory) {... */\n      swap1\n      jump\t// out\n        /* \"#utility.yul\":7:84   */\n    tag_21:\n        /* \"#utility.yul\":44:51   */\n      0x00\n        /* \"#utility.yul\":73:78   */\n      dup2\n        /* \"#utility.yul\":62:78   */\n      swap1\n      pop\n        /* \"#utility.yul\":7:84   */\n      swap2\n      swap1\n      pop\n      jump\t// out\n        /* \"#utility.yul\":90:208   */\n    tag_22:\n        /* \"#utility.yul\":177:201   */\n      tag_31\n        /* \"#utility.yul\":195:200   */\n      dup2\n        /* \"#utility.yul\":177:201   */\n      tag_21\n      jump\t// in\n    tag_31:\n        /* \"#utility.yul\":172:175   */\n      dup3\n        /* \"#utility.yul\":165:202   */\n      mstore\n        /* \"#utility.yul\":90:208   */\n      pop\n      pop\n      jump\t// out\n        /* \"#utility.yul\":214:436   */\n    tag_9:\n        /* \"#utility.yul\":307:311   */\n      0x00\n        /* \"#utility.yul\":345:347   */\n      0x20\n        /* \"#utility.yul\":334:343   */\n      dup3\n        /* \"#utility.yul\":330:348   */\n      add\n        /* \"#utility.yul\":322:348   */\n      swap1\n      pop\n        /* \"#utility.yul\":358:429   */\n      tag_33\n        /* \"#utility.yul\":426:427   */\n      0x00\n        /* \"#utility.yul\":415:424   */\n      dup4\n        /* \"#utility.yul\":411:428   */\n      add\n        /* \"#utility.yul\":402:408   */\n      dup5\n        /* \"#utility.yul\":358:429   */\n      tag_22\n      jump\t// in\n    tag_33:\n        /* \"#utility.yul\":214:436   */\n      swap3\n      swap2\n      pop\n      pop\n      jump\t// out\n        /* \"#utility.yul\":442:541   */\n    tag_23:\n        /* \"#utility.yul\":494:500   */\n      0x00\n        /* \"#utility.yul\":528:533   */\n      dup2\n        /* \"#utility.yul\":522:534   */\n      mload\n        /* \"#utility.yul\":512:534   */\n      swap1\n      pop\n        /* \"#utility.yul\":442:541   */\n      swap2\n      swap1\n      pop\n      jump\t// out\n        /* \"#utility.yul\":547:716   */\n    tag_24:\n        /* \"#utility.yul\":631:642   */\n      0x00\n        /* \"#utility.yul\":665:671   */\n      dup3\n        /* \"#utility.yul\":660:663   */\n      dup3\n        /* \"#utility.yul\":653:672   */\n      mstore\n        /* \"#utility.yul\":705:709   */\n      0x20\n        /* \"#utility.yul\":700:703   */\n      dup3\n        /* \"#utility.yul\":696:710   */\n      add\n        /* \"#utility.yul\":681:710   */\n      swap1\n      pop\n        /* \"#utility.yul\":547:716   */\n      swap3\n      swap2\n      pop\n      pop\n      jump\t// out\n        /* \"#utility.yul\":722:1029   */\n    tag_25:\n        /* \"#utility.yul\":790:791   */\n      0x00\n        /* \"#utility.yul\":800:913   */\n    tag_37:\n        /* \"#utility.yul\":814:820   */\n      dup4\n        /* \"#utility.yul\":811:812   */\n      dup2\n        /* \"#utility.yul\":808:821   */\n      lt\n        /* \"#utility.yul\":800:913   */\n      iszero\n      tag_39\n      jumpi\n        /* \"#utility.yul\":899:900   */\n      dup1\n        /* \"#utility.yul\":894:897   */\n      dup3\n        /* \"#utility.yul\":890:901   */\n      add\n        /* \"#utility.yul\":884:902   */\n      mload\n        /* \"#utility.yul\":880:881   */\n      dup2\n        /* \"#utility.yul\":875:878   */\n      dup5\n        /* \"#utility.yul\":871:882   */\n      add\n        /* \"#utility.yul\":864:903   */\n      mstore\n        /* \"#utility.yul\":836:838   */\n      0x20\n        /* \"#utility.yul\":833:834   */\n      dup2\n        /* \"#utility.yul\":829:839   */\n      add\n        /* \"#utility.yul\":824:839   */\n      swap1\n      pop\n        /* \"#utility.yul\":800:913   */\n      jump(tag_37)\n    tag_39:\n        /* \"#utility.yul\":931:937   */\n      dup4\n        /* \"#utility.yul\":928:929   */\n      dup2\n        /* \"#utility.yul\":925:938   */\n      gt\n        /* \"#utility.yul\":922:1023   */\n      iszero\n      tag_40\n      jumpi\n        /* \"#utility.yul\":1011:1012   */\n      0x00\n        /* \"#utility.yul\":1002:1008   */\n      dup5\n        /* \"#utility.yul\":997:1000   */\n      dup5\n        /* \"#utility.yul\":993:1009   */\n      add\n        /* \"#utility.yul\":986:1013   */\n      mstore\n        /* \"#utility.yul\":922:1023   */\n    tag_40:\n        /* \"#utility.yul\":771:1029   */\n      pop\n        /* \"#utility.yul\":722:1029   */\n      pop\n      pop\n      pop\n      jump\t// out\n        /* \"#utility.yul\":1035:1137   */\n    tag_26:\n        /* \"#utility.yul\":1076:1082   */\n      0x00\n        /* \"#utility.yul\":1127:1129   */\n      0x1f\n        /* \"#utility.yul\":1123:1130   */\n      not\n        /* \"#utility.yul\":1118:1120   */\n      0x1f\n        /* \"#utility.yul\":1111:1116   */\n      dup4\n        /* \"#utility.yul\":1107:1121   */\n      add\n        /* \"#utility.yul\":1103:1131   */\n      and\n        /* \"#utility.yul\":1093:1131   */\n      swap1\n      pop\n        /* \"#utility.yul\":1035:1137   */\n      swap2\n      swap1\n      pop\n      jump\t// out\n        /* \"#utility.yul\":1143:1507   */\n    tag_27:\n        /* \"#utility.yul\":1231:1234   */\n      0x00\n        /* \"#utility.yul\":1259:1298   */\n      tag_43\n        /* \"#utility.yul\":1292:1297   */\n      dup3\n        /* \"#utility.yul\":1259:1298   */\n      tag_23\n      jump\t// in\n    tag_43:\n        /* \"#utility.yul\":1314:1385   */\n      tag_44\n        /* \"#utility.yul\":1378:1384   */\n      dup2\n        /* \"#utility.yul\":1373:1376   */\n      dup6\n        /* \"#utility.yul\":1314:1385   */\n      tag_24\n      jump\t// in\n    tag_44:\n        /* \"#utility.yul\":1307:1385   */\n      swap4\n      pop\n        /* \"#utility.yul\":1394:1446   */\n      tag_45\n        /* \"#utility.yul\":1439:1445   */\n      dup2\n        /* \"#utility.yul\":1434:1437   */\n      dup6\n        /* \"#utility.yul\":1427:1431   */\n      0x20\n        /* \"#utility.yul\":1420:1425   */\n      dup7\n        /* \"#utility.yul\":1416:1432   */\n      add\n        /* \"#utility.yul\":1394:1446   */\n      tag_25\n      jump\t// in\n    tag_45:\n        /* \"#utility.yul\":1471:1500   */\n      tag_46\n        /* \"#utility.yul\":1493:1499   */\n      dup2\n        /* \"#utility.yul\":1471:1500   */\n      tag_26\n      jump\t// in\n    tag_46:\n        /* \"#utility.yul\":1466:1469   */\n      dup5\n        /* \"#utility.yul\":1462:1501   */\n      add\n        /* \"#utility.yul\":1455:1501   */\n      swap2\n      pop\n        /* \"#utility.yul\":1235:1507   */\n      pop\n        /* \"#utility.yul\":1143:1507   */\n      swap3\n      swap2\n      pop\n      pop\n      jump\t// out\n        /* \"#utility.yul\":1513:1826   */\n    tag_13:\n        /* \"#utility.yul\":1626:1630   */\n      0x00\n        /* \"#utility.yul\":1664:1666   */\n      0x20\n        /* \"#utility.yul\":1653:1662   */\n      dup3\n        /* \"#utility.yul\":1649:1667   */\n      add\n        /* \"#utility.yul\":1641:1667   */\n      swap1\n      pop\n        /* \"#utility.yul\":1713:1722   */\n      dup2\n        /* \"#utility.yul\":1707:1711   */\n      dup2\n        /* \"#utility.yul\":1703:1723   */\n      sub\n        /* \"#utility.yul\":1699:1700   */\n      0x00\n        /* \"#utility.yul\":1688:1697   */\n      dup4\n        /* \"#utility.yul\":1684:1701   */\n      add\n        /* \"#utility.yul\":1677:1724   */\n      mstore\n        /* \"#utility.yul\":1741:1819   */\n      tag_48\n        /* \"#utility.yul\":1814:1818   */\n      dup2\n        /* \"#utility.yul\":1805:1811   */\n      dup5\n        /* \"#utility.yul\":1741:1819   */\n      tag_27\n      jump\t// in\n    tag_48:\n        /* \"#utility.yul\":1733:1819   */\n      swap1\n      pop\n        /* \"#utility.yul\":1513:1826   */\n      swap3\n      swap2\n      pop\n      pop\n      jump\t// out\n\n    auxdata: 0xa2646970667358221220bc7d1e9b0a634003ef4696bdc3ffd1834da0778f900f3063bb1990f1f87feb3f64736f6c634300080f0033\n}\n",
				"bytecode": {
					"linkReferences": {},
					"object": "60806040526103e860005534801561001657600080fd5b5061021a806100266000396000f3fe608060405234801561001057600080fd5b50600436106100415760003560e01c806398e1b41014610046578063c18cde9a14610064578063f8a8fd6d14610082575b600080fd5b61004e6100a0565b60405161005b919061010e565b60405180910390f35b61006c6100a9565b60405161007991906101c2565b60405180910390f35b61008a6100e6565b60405161009791906101c2565b60405180910390f35b60008054905090565b60606040518060400160405280600581526020017f646168616e000000000000000000000000000000000000000000000000000000815250905090565b60606100f06100a9565b905090565b6000819050919050565b610108816100f5565b82525050565b600060208201905061012360008301846100ff565b92915050565b600081519050919050565b600082825260208201905092915050565b60005b83811015610163578082015181840152602081019050610148565b83811115610172576000848401525b50505050565b6000601f19601f8301169050919050565b600061019482610129565b61019e8185610134565b93506101ae818560208601610145565b6101b781610178565b840191505092915050565b600060208201905081810360008301526101dc8184610189565b90509291505056fea2646970667358221220bc7d1e9b0a634003ef4696bdc3ffd1834da0778f900f3063bb1990f1f87feb3f64736f6c634300080f0033",
					"opcodes": "PUSH1 0x80 PUSH1 0x40 MSTORE PUSH2 0x3E8 PUSH1 0x0 SSTORE CALLVALUE DUP1 ISZERO PUSH2 0x16 JUMPI PUSH1 0x0 DUP1 REVERT JUMPDEST POP PUSH2 0x21A DUP1 PUSH2 0x26 PUSH1 0x0 CODECOPY PUSH1 0x0 RETURN INVALID PUSH1 0x80 PUSH1 0x40 MSTORE CALLVALUE DUP1 ISZERO PUSH2 0x10 JUMPI PUSH1 0x0 DUP1 REVERT JUMPDEST POP PUSH1 0x4 CALLDATASIZE LT PUSH2 0x41 JUMPI PUSH1 0x0 CALLDATALOAD PUSH1 0xE0 SHR DUP1 PUSH4 0x98E1B410 EQ PUSH2 0x46 JUMPI DUP1 PUSH4 0xC18CDE9A EQ PUSH2 0x64 JUMPI DUP1 PUSH4 0xF8A8FD6D EQ PUSH2 0x82 JUMPI JUMPDEST PUSH1 0x0 DUP1 REVERT JUMPDEST PUSH2 0x4E PUSH2 0xA0 JUMP JUMPDEST PUSH1 0x40 MLOAD PUSH2 0x5B SWAP2 SWAP1 PUSH2 0x10E JUMP JUMPDEST PUSH1 0x40 MLOAD DUP1 SWAP2 SUB SWAP1 RETURN JUMPDEST PUSH2 0x6C PUSH2 0xA9 JUMP JUMPDEST PUSH1 0x40 MLOAD PUSH2 0x79 SWAP2 SWAP1 PUSH2 0x1C2 JUMP JUMPDEST PUSH1 0x40 MLOAD DUP1 SWAP2 SUB SWAP1 RETURN JUMPDEST PUSH2 0x8A PUSH2 0xE6 JUMP JUMPDEST PUSH1 0x40 MLOAD PUSH2 0x97 SWAP2 SWAP1 PUSH2 0x1C2 JUMP JUMPDEST PUSH1 0x40 MLOAD DUP1 SWAP2 SUB SWAP1 RETURN JUMPDEST PUSH1 0x0 DUP1 SLOAD SWAP1 POP SWAP1 JUMP JUMPDEST PUSH1 0x60 PUSH1 0x40 MLOAD DUP1 PUSH1 0x40 ADD PUSH1 0x40 MSTORE DUP1 PUSH1 0x5 DUP2 MSTORE PUSH1 0x20 ADD PUSH32 0x646168616E000000000000000000000000000000000000000000000000000000 DUP2 MSTORE POP SWAP1 POP SWAP1 JUMP JUMPDEST PUSH1 0x60 PUSH2 0xF0 PUSH2 0xA9 JUMP JUMPDEST SWAP1 POP SWAP1 JUMP JUMPDEST PUSH1 0x0 DUP2 SWAP1 POP SWAP2 SWAP1 POP JUMP JUMPDEST PUSH2 0x108 DUP2 PUSH2 0xF5 JUMP JUMPDEST DUP3 MSTORE POP POP JUMP JUMPDEST PUSH1 0x0 PUSH1 0x20 DUP3 ADD SWAP1 POP PUSH2 0x123 PUSH1 0x0 DUP4 ADD DUP5 PUSH2 0xFF JUMP JUMPDEST SWAP3 SWAP2 POP POP JUMP JUMPDEST PUSH1 0x0 DUP2 MLOAD SWAP1 POP SWAP2 SWAP1 POP JUMP JUMPDEST PUSH1 0x0 DUP3 DUP3 MSTORE PUSH1 0x20 DUP3 ADD SWAP1 POP SWAP3 SWAP2 POP POP JUMP JUMPDEST PUSH1 0x0 JUMPDEST DUP4 DUP2 LT ISZERO PUSH2 0x163 JUMPI DUP1 DUP3 ADD MLOAD DUP2 DUP5 ADD MSTORE PUSH1 0x20 DUP2 ADD SWAP1 POP PUSH2 0x148 JUMP JUMPDEST DUP4 DUP2 GT ISZERO PUSH2 0x172 JUMPI PUSH1 0x0 DUP5 DUP5 ADD MSTORE JUMPDEST POP POP POP POP JUMP JUMPDEST PUSH1 0x0 PUSH1 0x1F NOT PUSH1 0x1F DUP4 ADD AND SWAP1 POP SWAP2 SWAP1 POP JUMP JUMPDEST PUSH1 0x0 PUSH2 0x194 DUP3 PUSH2 0x129 JUMP JUMPDEST PUSH2 0x19E DUP2 DUP6 PUSH2 0x134 JUMP JUMPDEST SWAP4 POP PUSH2 0x1AE DUP2 DUP6 PUSH1 0x20 DUP7 ADD PUSH2 0x145 JUMP JUMPDEST PUSH2 0x1B7 DUP2 PUSH2 0x178 JUMP JUMPDEST DUP5 ADD SWAP2 POP POP SWAP3 SWAP2 POP POP JUMP JUMPDEST PUSH1 0x0 PUSH1 0x20 DUP3 ADD SWAP1 POP DUP2 DUP2 SUB PUSH1 0x0 DUP4 ADD MSTORE PUSH2 0x1DC DUP2 DUP5 PUSH2 0x189 JUMP JUMPDEST SWAP1 POP SWAP3 SWAP2 POP POP JUMP INVALID LOG2 PUSH5 0x6970667358 0x22 SLT KECCAK256 0xBC PUSH30 0x1E9B0A634003EF4696BDC3FFD1834DA0778F900F3063BB1990F1F87FEB3F PUSH5 0x736F6C6343 STOP ADDMOD 0xF STOP CALLER "
				},
				"gasEstimates": {
					"creation": {
						"codeDepositCost": "107600",
						"executionCost": "22259",
						"totalCost": "129859"
					},
					"external": {
						"dahan()": "infinite",
						"getMoney()": "2415",
						"test()": "infinite"
					}
				},
				"methodIdentifiers": {
					"dahan()": "c18cde9a",
					"getMoney()": "98e1b410",
					"test()": "f8a8fd6d"
				}
			},
			"storageLayout": {
				"storage": [
					{
						"astId": 4,
						"contract": "contracts/Inherit.sol:son",
						"label": "money",
						"offset": 0,
						"slot": "0",
						"type": "t_uint256"
					}
				],
				"types": {
					"t_uint256": {
						"encoding": "inplace",
						"label": "uint256",
						"numberOfBytes": "32"
					}
				}
			},
			"userdoc": {
				"kind": "user",
				"methods": {},
				"version": 1
			}
		}
	}
}