{
	"contracts/ArrayLiterals.sol": {
		"ArrayLiterals": {
			"abi": [
				{
					"inputs": [],
					"name": "getArrayLiteral",
					"outputs": [
						{
							"internalType": "uint256[3]",
							"name": "",
							"type": "uint256[3]"
						}
					],
					"stateMutability": "nonpayable",
					"type": "function"
				}
			],
			"devdoc": {
				"kind": "dev",
				"methods": {},
				"version": 1
			},
			"evm": {
				"assembly": "    /* \"contracts/ArrayLiterals.sol\":56:298  contract ArrayLiterals {... */\n  mstore(0x40, 0x80)\n  callvalue\n  dup1\n  iszero\n  tag_1\n  jumpi\n  0x00\n  dup1\n  revert\ntag_1:\n  pop\n  dataSize(sub_0)\n  dup1\n  dataOffset(sub_0)\n  0x00\n  codecopy\n  0x00\n  return\nstop\n\nsub_0: assembly {\n        /* \"contracts/ArrayLiterals.sol\":56:298  contract ArrayLiterals {... */\n      mstore(0x40, 0x80)\n      callvalue\n      dup1\n      iszero\n      tag_1\n      jumpi\n      0x00\n      dup1\n      revert\n    tag_1:\n      pop\n      jumpi(tag_2, lt(calldatasize, 0x04))\n      shr(0xe0, calldataload(0x00))\n      dup1\n      0x02e1a3e4\n      eq\n      tag_3\n      jumpi\n    tag_2:\n      0x00\n      dup1\n      revert\n        /* \"contracts/ArrayLiterals.sol\":201:296  function getArrayLiteral()public  returns(uint[3] memory) {... */\n    tag_3:\n      tag_4\n      tag_5\n      jump\t// in\n    tag_4:\n      mload(0x40)\n      tag_6\n      swap2\n      swap1\n      tag_7\n      jump\t// in\n    tag_6:\n      mload(0x40)\n      dup1\n      swap2\n      sub\n      swap1\n      return\n    tag_5:\n        /* \"contracts/ArrayLiterals.sol\":243:257  uint[3] memory */\n      tag_8\n      tag_9\n      jump\t// in\n    tag_8:\n        /* \"contracts/ArrayLiterals.sol\":269:289  return [uint(1),2,3] */\n      mload(0x40)\n      dup1\n      0x60\n      add\n      0x40\n      mstore\n      dup1\n        /* \"contracts/ArrayLiterals.sol\":282:283  1 */\n      0x01\n        /* \"contracts/ArrayLiterals.sol\":269:289  return [uint(1),2,3] */\n      dup2\n      mstore\n      0x20\n      add\n        /* \"contracts/ArrayLiterals.sol\":285:286  2 */\n      0x02\n        /* \"contracts/ArrayLiterals.sol\":269:289  return [uint(1),2,3] */\n      dup2\n      mstore\n      0x20\n      add\n        /* \"contracts/ArrayLiterals.sol\":287:288  3 */\n      0x03\n        /* \"contracts/ArrayLiterals.sol\":269:289  return [uint(1),2,3] */\n      dup2\n      mstore\n      pop\n      swap1\n      pop\n        /* \"contracts/ArrayLiterals.sol\":201:296  function getArrayLiteral()public  returns(uint[3] memory) {... */\n      swap1\n      jump\t// out\n    tag_9:\n      mload(0x40)\n      dup1\n      0x60\n      add\n      0x40\n      mstore\n      dup1\n      0x03\n      swap1\n      0x20\n      dup3\n      mul\n      dup1\n      calldatasize\n      dup4\n      calldatacopy\n      dup1\n      dup3\n      add\n      swap2\n      pop\n      pop\n      swap1\n      pop\n      pop\n      swap1\n      jump\t// out\n        /* \"#utility.yul\":7:111   */\n    tag_11:\n        /* \"#utility.yul\":72:78   */\n      0x00\n        /* \"#utility.yul\":100:104   */\n      0x03\n        /* \"#utility.yul\":90:104   */\n      swap1\n      pop\n        /* \"#utility.yul\":7:111   */\n      swap2\n      swap1\n      pop\n      jump\t// out\n        /* \"#utility.yul\":117:260   */\n    tag_12:\n        /* \"#utility.yul\":214:225   */\n      0x00\n        /* \"#utility.yul\":251:254   */\n      dup2\n        /* \"#utility.yul\":236:254   */\n      swap1\n      pop\n        /* \"#utility.yul\":117:260   */\n      swap3\n      swap2\n      pop\n      pop\n      jump\t// out\n        /* \"#utility.yul\":266:364   */\n    tag_13:\n        /* \"#utility.yul\":331:335   */\n      0x00\n        /* \"#utility.yul\":354:357   */\n      dup2\n        /* \"#utility.yul\":346:357   */\n      swap1\n      pop\n        /* \"#utility.yul\":266:364   */\n      swap2\n      swap1\n      pop\n      jump\t// out\n        /* \"#utility.yul\":370:447   */\n    tag_14:\n        /* \"#utility.yul\":407:414   */\n      0x00\n        /* \"#utility.yul\":436:441   */\n      dup2\n        /* \"#utility.yul\":425:441   */\n      swap1\n      pop\n        /* \"#utility.yul\":370:447   */\n      swap2\n      swap1\n      pop\n      jump\t// out\n        /* \"#utility.yul\":453:561   */\n    tag_15:\n        /* \"#utility.yul\":530:554   */\n      tag_25\n        /* \"#utility.yul\":548:553   */\n      dup2\n        /* \"#utility.yul\":530:554   */\n      tag_14\n      jump\t// in\n    tag_25:\n        /* \"#utility.yul\":525:528   */\n      dup3\n        /* \"#utility.yul\":518:555   */\n      mstore\n        /* \"#utility.yul\":453:561   */\n      pop\n      pop\n      jump\t// out\n        /* \"#utility.yul\":567:746   */\n    tag_16:\n        /* \"#utility.yul\":636:646   */\n      0x00\n        /* \"#utility.yul\":657:703   */\n      tag_27\n        /* \"#utility.yul\":699:702   */\n      dup4\n        /* \"#utility.yul\":691:697   */\n      dup4\n        /* \"#utility.yul\":657:703   */\n      tag_15\n      jump\t// in\n    tag_27:\n        /* \"#utility.yul\":735:739   */\n      0x20\n        /* \"#utility.yul\":730:733   */\n      dup4\n        /* \"#utility.yul\":726:740   */\n      add\n        /* \"#utility.yul\":712:740   */\n      swap1\n      pop\n        /* \"#utility.yul\":567:746   */\n      swap3\n      swap2\n      pop\n      pop\n      jump\t// out\n        /* \"#utility.yul\":752:863   */\n    tag_17:\n        /* \"#utility.yul\":820:824   */\n      0x00\n        /* \"#utility.yul\":852:856   */\n      0x20\n        /* \"#utility.yul\":847:850   */\n      dup3\n        /* \"#utility.yul\":843:857   */\n      add\n        /* \"#utility.yul\":835:857   */\n      swap1\n      pop\n        /* \"#utility.yul\":752:863   */\n      swap2\n      swap1\n      pop\n      jump\t// out\n        /* \"#utility.yul\":901:1595   */\n    tag_18:\n        /* \"#utility.yul\":1037:1089   */\n      tag_30\n        /* \"#utility.yul\":1083:1088   */\n      dup2\n        /* \"#utility.yul\":1037:1089   */\n      tag_11\n      jump\t// in\n    tag_30:\n        /* \"#utility.yul\":1105:1189   */\n      tag_31\n        /* \"#utility.yul\":1182:1188   */\n      dup2\n        /* \"#utility.yul\":1177:1180   */\n      dup5\n        /* \"#utility.yul\":1105:1189   */\n      tag_12\n      jump\t// in\n    tag_31:\n        /* \"#utility.yul\":1098:1189   */\n      swap3\n      pop\n        /* \"#utility.yul\":1213:1267   */\n      tag_32\n        /* \"#utility.yul\":1261:1266   */\n      dup3\n        /* \"#utility.yul\":1213:1267   */\n      tag_13\n      jump\t// in\n    tag_32:\n        /* \"#utility.yul\":1290:1297   */\n      dup1\n        /* \"#utility.yul\":1321:1322   */\n      0x00\n        /* \"#utility.yul\":1306:1588   */\n    tag_33:\n        /* \"#utility.yul\":1331:1337   */\n      dup4\n        /* \"#utility.yul\":1328:1329   */\n      dup2\n        /* \"#utility.yul\":1325:1338   */\n      lt\n        /* \"#utility.yul\":1306:1588   */\n      iszero\n      tag_35\n      jumpi\n        /* \"#utility.yul\":1407:1413   */\n      dup2\n        /* \"#utility.yul\":1401:1414   */\n      mload\n        /* \"#utility.yul\":1434:1497   */\n      tag_36\n        /* \"#utility.yul\":1493:1496   */\n      dup8\n        /* \"#utility.yul\":1478:1491   */\n      dup3\n        /* \"#utility.yul\":1434:1497   */\n      tag_16\n      jump\t// in\n    tag_36:\n        /* \"#utility.yul\":1427:1497   */\n      swap7\n      pop\n        /* \"#utility.yul\":1520:1578   */\n      tag_37\n        /* \"#utility.yul\":1571:1577   */\n      dup4\n        /* \"#utility.yul\":1520:1578   */\n      tag_17\n      jump\t// in\n    tag_37:\n        /* \"#utility.yul\":1510:1578   */\n      swap3\n      pop\n        /* \"#utility.yul\":1366:1588   */\n      pop\n        /* \"#utility.yul\":1353:1354   */\n      0x01\n        /* \"#utility.yul\":1350:1351   */\n      dup2\n        /* \"#utility.yul\":1346:1355   */\n      add\n        /* \"#utility.yul\":1341:1355   */\n      swap1\n      pop\n        /* \"#utility.yul\":1306:1588   */\n      jump(tag_33)\n    tag_35:\n        /* \"#utility.yul\":1310:1324   */\n      pop\n        /* \"#utility.yul\":1013:1595   */\n      pop\n      pop\n      pop\n        /* \"#utility.yul\":901:1595   */\n      pop\n      pop\n      jump\t// out\n        /* \"#utility.yul\":1601:1915   */\n    tag_7:\n        /* \"#utility.yul\":1740:1744   */\n      0x00\n        /* \"#utility.yul\":1778:1780   */\n      0x60\n        /* \"#utility.yul\":1767:1776   */\n      dup3\n        /* \"#utility.yul\":1763:1781   */\n      add\n        /* \"#utility.yul\":1755:1781   */\n      swap1\n      pop\n        /* \"#utility.yul\":1791:1908   */\n      tag_39\n        /* \"#utility.yul\":1905:1906   */\n      0x00\n        /* \"#utility.yul\":1894:1903   */\n      dup4\n        /* \"#utility.yul\":1890:1907   */\n      add\n        /* \"#utility.yul\":1881:1887   */\n      dup5\n        /* \"#utility.yul\":1791:1908   */\n      tag_18\n      jump\t// in\n    tag_39:\n        /* \"#utility.yul\":1601:1915   */\n      swap3\n      swap2\n      pop\n      pop\n      jump\t// out\n\n    auxdata: 0xa2646970667358221220ecfeb423acb176abb4823d3b0ae179e798ab52dd5e11e386b4a6208a4c9d15ae64736f6c634300080f0033\n}\n",
				"bytecode": {
					"linkReferences": {},
					"object": "608060405234801561001057600080fd5b506101a1806100206000396000f3fe608060405234801561001057600080fd5b506004361061002b5760003560e01c806302e1a3e414610030575b600080fd5b61003861004e565b6040516100459190610150565b60405180910390f35b610056610079565b604051806060016040528060018152602001600281526020016003815250905090565b6040518060600160405280600390602082028036833780820191505090505090565b600060039050919050565b600081905092915050565b6000819050919050565b6000819050919050565b6100ce816100bb565b82525050565b60006100e083836100c5565b60208301905092915050565b6000602082019050919050565b6101028161009b565b61010c81846100a6565b9250610117826100b1565b8060005b8381101561014857815161012f87826100d4565b965061013a836100ec565b92505060018101905061011b565b505050505050565b600060608201905061016560008301846100f9565b9291505056fea2646970667358221220ecfeb423acb176abb4823d3b0ae179e798ab52dd5e11e386b4a6208a4c9d15ae64736f6c634300080f0033",
					"opcodes": "PUSH1 0x80 PUSH1 0x40 MSTORE CALLVALUE DUP1 ISZERO PUSH2 0x10 JUMPI PUSH1 0x0 DUP1 REVERT JUMPDEST POP PUSH2 0x1A1 DUP1 PUSH2 0x20 PUSH1 0x0 CODECOPY PUSH1 0x0 RETURN INVALID PUSH1 0x80 PUSH1 0x40 MSTORE CALLVALUE DUP1 ISZERO PUSH2 0x10 JUMPI PUSH1 0x0 DUP1 REVERT JUMPDEST POP PUSH1 0x4 CALLDATASIZE LT PUSH2 0x2B JUMPI PUSH1 0x0 CALLDATALOAD PUSH1 0xE0 SHR DUP1 PUSH4 0x2E1A3E4 EQ PUSH2 0x30 JUMPI JUMPDEST PUSH1 0x0 DUP1 REVERT JUMPDEST PUSH2 0x38 PUSH2 0x4E JUMP JUMPDEST PUSH1 0x40 MLOAD PUSH2 0x45 SWAP2 SWAP1 PUSH2 0x150 JUMP JUMPDEST PUSH1 0x40 MLOAD DUP1 SWAP2 SUB SWAP1 RETURN JUMPDEST PUSH2 0x56 PUSH2 0x79 JUMP JUMPDEST PUSH1 0x40 MLOAD DUP1 PUSH1 0x60 ADD PUSH1 0x40 MSTORE DUP1 PUSH1 0x1 DUP2 MSTORE PUSH1 0x20 ADD PUSH1 0x2 DUP2 MSTORE PUSH1 0x20 ADD PUSH1 0x3 DUP2 MSTORE POP SWAP1 POP SWAP1 JUMP JUMPDEST PUSH1 0x40 MLOAD DUP1 PUSH1 0x60 ADD PUSH1 0x40 MSTORE DUP1 PUSH1 0x3 SWAP1 PUSH1 0x20 DUP3 MUL DUP1 CALLDATASIZE DUP4 CALLDATACOPY DUP1 DUP3 ADD SWAP2 POP POP SWAP1 POP POP SWAP1 JUMP JUMPDEST PUSH1 0x0 PUSH1 0x3 SWAP1 POP SWAP2 SWAP1 POP JUMP JUMPDEST PUSH1 0x0 DUP2 SWAP1 POP SWAP3 SWAP2 POP POP JUMP JUMPDEST PUSH1 0x0 DUP2 SWAP1 POP SWAP2 SWAP1 POP JUMP JUMPDEST PUSH1 0x0 DUP2 SWAP1 POP SWAP2 SWAP1 POP JUMP JUMPDEST PUSH2 0xCE DUP2 PUSH2 0xBB JUMP JUMPDEST DUP3 MSTORE POP POP JUMP JUMPDEST PUSH1 0x0 PUSH2 0xE0 DUP4 DUP4 PUSH2 0xC5 JUMP JUMPDEST PUSH1 0x20 DUP4 ADD SWAP1 POP SWAP3 SWAP2 POP POP JUMP JUMPDEST PUSH1 0x0 PUSH1 0x20 DUP3 ADD SWAP1 POP SWAP2 SWAP1 POP JUMP JUMPDEST PUSH2 0x102 DUP2 PUSH2 0x9B JUMP JUMPDEST PUSH2 0x10C DUP2 DUP5 PUSH2 0xA6 JUMP JUMPDEST SWAP3 POP PUSH2 0x117 DUP3 PUSH2 0xB1 JUMP JUMPDEST DUP1 PUSH1 0x0 JUMPDEST DUP4 DUP2 LT ISZERO PUSH2 0x148 JUMPI DUP2 MLOAD PUSH2 0x12F DUP8 DUP3 PUSH2 0xD4 JUMP JUMPDEST SWAP7 POP PUSH2 0x13A DUP4 PUSH2 0xEC JUMP JUMPDEST SWAP3 POP POP PUSH1 0x1 DUP2 ADD SWAP1 POP PUSH2 0x11B JUMP JUMPDEST POP POP POP POP POP POP JUMP JUMPDEST PUSH1 0x0 PUSH1 0x60 DUP3 ADD SWAP1 POP PUSH2 0x165 PUSH1 0x0 DUP4 ADD DUP5 PUSH2 0xF9 JUMP JUMPDEST SWAP3 SWAP2 POP POP JUMP INVALID LOG2 PUSH5 0x6970667358 0x22 SLT KECCAK256 0xEC INVALID 0xB4 0x23 0xAC 0xB1 PUSH23 0xABB4823D3B0AE179E798AB52DD5E11E386B4A6208A4C9D ISZERO 0xAE PUSH5 0x736F6C6343 STOP ADDMOD 0xF STOP CALLER "
				},
				"gasEstimates": {
					"creation": {
						"codeDepositCost": "83400",
						"executionCost": "135",
						"totalCost": "83535"
					},
					"external": {
						"getArrayLiteral()": "infinite"
					}
				},
				"methodIdentifiers": {
					"getArrayLiteral()": "02e1a3e4"
				}
			},
			"storageLayout": {
				"storage": [],
				"types": null
			},
			"userdoc": {
				"kind": "user",
				"methods": {},
				"version": 1
			}
		}
	}
}