{
	"contracts/Bytes32ToString.sol": {
		"Bytes32ToString": {
			"abi": [
				{
					"inputs": [
						{
							"internalType": "bytes2",
							"name": "_newname",
							"type": "bytes2"
						}
					],
					"name": "bytes32ToString",
					"outputs": [
						{
							"internalType": "string",
							"name": "",
							"type": "string"
						}
					],
					"stateMutability": "pure",
					"type": "function"
				}
			],
			"devdoc": {
				"kind": "dev",
				"methods": {},
				"version": 1
			},
			"evm": {
				"assembly": "    /* \"contracts/Bytes32ToString.sol\":56:551  contract Bytes32ToString {... */\n  mstore(0x40, 0x80)\n    /* \"contracts/Bytes32ToString.sol\":101:107  0x7a68 */\n  0x7a68\n    /* \"contracts/Bytes32ToString.sol\":87:107  bytes2 name = 0x7a68 */\n  0xf0\n  shl\n  0x00\n  dup1\n  0x0100\n  exp\n  dup2\n  sload\n  dup2\n  0xffff\n  mul\n  not\n  and\n  swap1\n  dup4\n  0xf0\n  shr\n  mul\n  or\n  swap1\n  sstore\n  pop\n    /* \"contracts/Bytes32ToString.sol\":56:551  contract Bytes32ToString {... */\n  callvalue\n  dup1\n  iszero\n  tag_1\n  jumpi\n  0x00\n  dup1\n  revert\ntag_1:\n  pop\n  dataSize(sub_0)\n  dup1\n  dataOffset(sub_0)\n  0x00\n  codecopy\n  0x00\n  return\nstop\n\nsub_0: assembly {\n        /* \"contracts/Bytes32ToString.sol\":56:551  contract Bytes32ToString {... */\n      mstore(0x40, 0x80)\n      callvalue\n      dup1\n      iszero\n      tag_1\n      jumpi\n      0x00\n      dup1\n      revert\n    tag_1:\n      pop\n      jumpi(tag_2, lt(calldatasize, 0x04))\n      shr(0xe0, calldataload(0x00))\n      dup1\n      0xf9c2bcc0\n      eq\n      tag_3\n      jumpi\n    tag_2:\n      0x00\n      dup1\n      revert\n        /* \"contracts/Bytes32ToString.sol\":261:545  function bytes32ToString(bytes2 _newname) public pure returns(string memory) {... */\n    tag_3:\n      tag_4\n      0x04\n      dup1\n      calldatasize\n      sub\n      dup2\n      add\n      swap1\n      tag_5\n      swap2\n      swap1\n      tag_6\n      jump\t// in\n    tag_5:\n      tag_7\n      jump\t// in\n    tag_4:\n      mload(0x40)\n      tag_8\n      swap2\n      swap1\n      tag_9\n      jump\t// in\n    tag_8:\n      mload(0x40)\n      dup1\n      swap2\n      sub\n      swap1\n      return\n    tag_7:\n        /* \"contracts/Bytes32ToString.sol\":323:336  string memory */\n      0x60\n        /* \"contracts/Bytes32ToString.sol\":348:368  bytes memory newname */\n      0x00\n        /* \"contracts/Bytes32ToString.sol\":381:396  _newname.length */\n      0x02\n        /* \"contracts/Bytes32ToString.sol\":371:397  new bytes(_newname.length) */\n      0xff\n      and\n      0xffffffffffffffff\n      dup2\n      gt\n      iszero\n      tag_11\n      jumpi\n      tag_12\n      tag_13\n      jump\t// in\n    tag_12:\n    tag_11:\n      mload(0x40)\n      swap1\n      dup1\n      dup3\n      mstore\n      dup1\n      0x1f\n      add\n      not(0x1f)\n      and\n      0x20\n      add\n      dup3\n      add\n      0x40\n      mstore\n      dup1\n      iszero\n      tag_14\n      jumpi\n      dup2\n      0x20\n      add\n      0x01\n      dup3\n      mul\n      dup1\n      calldatasize\n      dup4\n      calldatacopy\n      dup1\n      dup3\n      add\n      swap2\n      pop\n      pop\n      swap1\n      pop\n    tag_14:\n      pop\n        /* \"contracts/Bytes32ToString.sol\":348:397  bytes memory newname = new bytes(_newname.length) */\n      swap1\n      pop\n        /* \"contracts/Bytes32ToString.sol\":420:426  uint i */\n      0x00\n        /* \"contracts/Bytes32ToString.sol\":416:507  for(uint i = 0; i < _newname.length; i++) {... */\n    tag_15:\n        /* \"contracts/Bytes32ToString.sol\":436:451  _newname.length */\n      0x02\n        /* \"contracts/Bytes32ToString.sol\":432:451  i < _newname.length */\n      0xff\n      and\n        /* \"contracts/Bytes32ToString.sol\":432:433  i */\n      dup2\n        /* \"contracts/Bytes32ToString.sol\":432:451  i < _newname.length */\n      lt\n        /* \"contracts/Bytes32ToString.sol\":416:507  for(uint i = 0; i < _newname.length; i++) {... */\n      iszero\n      tag_16\n      jumpi\n        /* \"contracts/Bytes32ToString.sol\":485:493  _newname */\n      dup4\n        /* \"contracts/Bytes32ToString.sol\":494:495  i */\n      dup2\n        /* \"contracts/Bytes32ToString.sol\":485:496  _newname[i] */\n      0x02\n      dup2\n      lt\n      tag_18\n      jumpi\n      tag_19\n      tag_20\n      jump\t// in\n    tag_19:\n    tag_18:\n      byte\n      0xf8\n      shl\n        /* \"contracts/Bytes32ToString.sol\":472:479  newname */\n      dup3\n        /* \"contracts/Bytes32ToString.sol\":480:481  i */\n      dup3\n        /* \"contracts/Bytes32ToString.sol\":472:482  newname[i] */\n      dup2\n      mload\n      dup2\n      lt\n      tag_21\n      jumpi\n      tag_22\n      tag_20\n      jump\t// in\n    tag_22:\n    tag_21:\n      0x20\n      add\n      add\n        /* \"contracts/Bytes32ToString.sol\":472:496  newname[i] = _newname[i] */\n      swap1\n      not(0xffffffffffffffffffffffffffffffffffffffffffffffffffffffffffffff)\n      and\n      swap1\n      dup2\n      0x00\n      byte\n      swap1\n      mstore8\n      pop\n        /* \"contracts/Bytes32ToString.sol\":453:456  i++ */\n      dup1\n      dup1\n      tag_23\n      swap1\n      tag_24\n      jump\t// in\n    tag_23:\n      swap2\n      pop\n      pop\n        /* \"contracts/Bytes32ToString.sol\":416:507  for(uint i = 0; i < _newname.length; i++) {... */\n      jump(tag_15)\n    tag_16:\n      pop\n        /* \"contracts/Bytes32ToString.sol\":530:537  newname */\n      dup1\n        /* \"contracts/Bytes32ToString.sol\":516:538  return string(newname) */\n      swap2\n      pop\n      pop\n        /* \"contracts/Bytes32ToString.sol\":261:545  function bytes32ToString(bytes2 _newname) public pure returns(string memory) {... */\n      swap2\n      swap1\n      pop\n      jump\t// out\n        /* \"#utility.yul\":88:205   */\n    tag_26:\n        /* \"#utility.yul\":197:198   */\n      0x00\n        /* \"#utility.yul\":194:195   */\n      dup1\n        /* \"#utility.yul\":187:199   */\n      revert\n        /* \"#utility.yul\":334:483   */\n    tag_28:\n        /* \"#utility.yul\":370:377   */\n      0x00\n        /* \"#utility.yul\":410:476   */\n      0xffff000000000000000000000000000000000000000000000000000000000000\n        /* \"#utility.yul\":403:408   */\n      dup3\n        /* \"#utility.yul\":399:477   */\n      and\n        /* \"#utility.yul\":388:477   */\n      swap1\n      pop\n        /* \"#utility.yul\":334:483   */\n      swap2\n      swap1\n      pop\n      jump\t// out\n        /* \"#utility.yul\":489:609   */\n    tag_29:\n        /* \"#utility.yul\":561:584   */\n      tag_44\n        /* \"#utility.yul\":578:583   */\n      dup2\n        /* \"#utility.yul\":561:584   */\n      tag_28\n      jump\t// in\n    tag_44:\n        /* \"#utility.yul\":554:559   */\n      dup2\n        /* \"#utility.yul\":551:585   */\n      eq\n        /* \"#utility.yul\":541:603   */\n      tag_45\n      jumpi\n        /* \"#utility.yul\":599:600   */\n      0x00\n        /* \"#utility.yul\":596:597   */\n      dup1\n        /* \"#utility.yul\":589:601   */\n      revert\n        /* \"#utility.yul\":541:603   */\n    tag_45:\n        /* \"#utility.yul\":489:609   */\n      pop\n      jump\t// out\n        /* \"#utility.yul\":615:752   */\n    tag_30:\n        /* \"#utility.yul\":660:665   */\n      0x00\n        /* \"#utility.yul\":698:704   */\n      dup2\n        /* \"#utility.yul\":685:705   */\n      calldataload\n        /* \"#utility.yul\":676:705   */\n      swap1\n      pop\n        /* \"#utility.yul\":714:746   */\n      tag_47\n        /* \"#utility.yul\":740:745   */\n      dup2\n        /* \"#utility.yul\":714:746   */\n      tag_29\n      jump\t// in\n    tag_47:\n        /* \"#utility.yul\":615:752   */\n      swap3\n      swap2\n      pop\n      pop\n      jump\t// out\n        /* \"#utility.yul\":758:1085   */\n    tag_6:\n        /* \"#utility.yul\":816:822   */\n      0x00\n        /* \"#utility.yul\":865:867   */\n      0x20\n        /* \"#utility.yul\":853:862   */\n      dup3\n        /* \"#utility.yul\":844:851   */\n      dup5\n        /* \"#utility.yul\":840:863   */\n      sub\n        /* \"#utility.yul\":836:868   */\n      slt\n        /* \"#utility.yul\":833:952   */\n      iszero\n      tag_49\n      jumpi\n        /* \"#utility.yul\":871:950   */\n      tag_50\n      tag_26\n      jump\t// in\n    tag_50:\n        /* \"#utility.yul\":833:952   */\n    tag_49:\n        /* \"#utility.yul\":991:992   */\n      0x00\n        /* \"#utility.yul\":1016:1068   */\n      tag_51\n        /* \"#utility.yul\":1060:1067   */\n      dup5\n        /* \"#utility.yul\":1051:1057   */\n      dup3\n        /* \"#utility.yul\":1040:1049   */\n      dup6\n        /* \"#utility.yul\":1036:1058   */\n      add\n        /* \"#utility.yul\":1016:1068   */\n      tag_30\n      jump\t// in\n    tag_51:\n        /* \"#utility.yul\":1006:1068   */\n      swap2\n      pop\n        /* \"#utility.yul\":962:1078   */\n      pop\n        /* \"#utility.yul\":758:1085   */\n      swap3\n      swap2\n      pop\n      pop\n      jump\t// out\n        /* \"#utility.yul\":1091:1190   */\n    tag_31:\n        /* \"#utility.yul\":1143:1149   */\n      0x00\n        /* \"#utility.yul\":1177:1182   */\n      dup2\n        /* \"#utility.yul\":1171:1183   */\n      mload\n        /* \"#utility.yul\":1161:1183   */\n      swap1\n      pop\n        /* \"#utility.yul\":1091:1190   */\n      swap2\n      swap1\n      pop\n      jump\t// out\n        /* \"#utility.yul\":1196:1365   */\n    tag_32:\n        /* \"#utility.yul\":1280:1291   */\n      0x00\n        /* \"#utility.yul\":1314:1320   */\n      dup3\n        /* \"#utility.yul\":1309:1312   */\n      dup3\n        /* \"#utility.yul\":1302:1321   */\n      mstore\n        /* \"#utility.yul\":1354:1358   */\n      0x20\n        /* \"#utility.yul\":1349:1352   */\n      dup3\n        /* \"#utility.yul\":1345:1359   */\n      add\n        /* \"#utility.yul\":1330:1359   */\n      swap1\n      pop\n        /* \"#utility.yul\":1196:1365   */\n      swap3\n      swap2\n      pop\n      pop\n      jump\t// out\n        /* \"#utility.yul\":1371:1678   */\n    tag_33:\n        /* \"#utility.yul\":1439:1440   */\n      0x00\n        /* \"#utility.yul\":1449:1562   */\n    tag_55:\n        /* \"#utility.yul\":1463:1469   */\n      dup4\n        /* \"#utility.yul\":1460:1461   */\n      dup2\n        /* \"#utility.yul\":1457:1470   */\n      lt\n        /* \"#utility.yul\":1449:1562   */\n      iszero\n      tag_57\n      jumpi\n        /* \"#utility.yul\":1548:1549   */\n      dup1\n        /* \"#utility.yul\":1543:1546   */\n      dup3\n        /* \"#utility.yul\":1539:1550   */\n      add\n        /* \"#utility.yul\":1533:1551   */\n      mload\n        /* \"#utility.yul\":1529:1530   */\n      dup2\n        /* \"#utility.yul\":1524:1527   */\n      dup5\n        /* \"#utility.yul\":1520:1531   */\n      add\n        /* \"#utility.yul\":1513:1552   */\n      mstore\n        /* \"#utility.yul\":1485:1487   */\n      0x20\n        /* \"#utility.yul\":1482:1483   */\n      dup2\n        /* \"#utility.yul\":1478:1488   */\n      add\n        /* \"#utility.yul\":1473:1488   */\n      swap1\n      pop\n        /* \"#utility.yul\":1449:1562   */\n      jump(tag_55)\n    tag_57:\n        /* \"#utility.yul\":1580:1586   */\n      dup4\n        /* \"#utility.yul\":1577:1578   */\n      dup2\n        /* \"#utility.yul\":1574:1587   */\n      gt\n        /* \"#utility.yul\":1571:1672   */\n      iszero\n      tag_58\n      jumpi\n        /* \"#utility.yul\":1660:1661   */\n      0x00\n        /* \"#utility.yul\":1651:1657   */\n      dup5\n        /* \"#utility.yul\":1646:1649   */\n      dup5\n        /* \"#utility.yul\":1642:1658   */\n      add\n        /* \"#utility.yul\":1635:1662   */\n      mstore\n        /* \"#utility.yul\":1571:1672   */\n    tag_58:\n        /* \"#utility.yul\":1420:1678   */\n      pop\n        /* \"#utility.yul\":1371:1678   */\n      pop\n      pop\n      pop\n      jump\t// out\n        /* \"#utility.yul\":1684:1786   */\n    tag_34:\n        /* \"#utility.yul\":1725:1731   */\n      0x00\n        /* \"#utility.yul\":1776:1778   */\n      0x1f\n        /* \"#utility.yul\":1772:1779   */\n      not\n        /* \"#utility.yul\":1767:1769   */\n      0x1f\n        /* \"#utility.yul\":1760:1765   */\n      dup4\n        /* \"#utility.yul\":1756:1770   */\n      add\n        /* \"#utility.yul\":1752:1780   */\n      and\n        /* \"#utility.yul\":1742:1780   */\n      swap1\n      pop\n        /* \"#utility.yul\":1684:1786   */\n      swap2\n      swap1\n      pop\n      jump\t// out\n        /* \"#utility.yul\":1792:2156   */\n    tag_35:\n        /* \"#utility.yul\":1880:1883   */\n      0x00\n        /* \"#utility.yul\":1908:1947   */\n      tag_61\n        /* \"#utility.yul\":1941:1946   */\n      dup3\n        /* \"#utility.yul\":1908:1947   */\n      tag_31\n      jump\t// in\n    tag_61:\n        /* \"#utility.yul\":1963:2034   */\n      tag_62\n        /* \"#utility.yul\":2027:2033   */\n      dup2\n        /* \"#utility.yul\":2022:2025   */\n      dup6\n        /* \"#utility.yul\":1963:2034   */\n      tag_32\n      jump\t// in\n    tag_62:\n        /* \"#utility.yul\":1956:2034   */\n      swap4\n      pop\n        /* \"#utility.yul\":2043:2095   */\n      tag_63\n        /* \"#utility.yul\":2088:2094   */\n      dup2\n        /* \"#utility.yul\":2083:2086   */\n      dup6\n        /* \"#utility.yul\":2076:2080   */\n      0x20\n        /* \"#utility.yul\":2069:2074   */\n      dup7\n        /* \"#utility.yul\":2065:2081   */\n      add\n        /* \"#utility.yul\":2043:2095   */\n      tag_33\n      jump\t// in\n    tag_63:\n        /* \"#utility.yul\":2120:2149   */\n      tag_64\n        /* \"#utility.yul\":2142:2148   */\n      dup2\n        /* \"#utility.yul\":2120:2149   */\n      tag_34\n      jump\t// in\n    tag_64:\n        /* \"#utility.yul\":2115:2118   */\n      dup5\n        /* \"#utility.yul\":2111:2150   */\n      add\n        /* \"#utility.yul\":2104:2150   */\n      swap2\n      pop\n        /* \"#utility.yul\":1884:2156   */\n      pop\n        /* \"#utility.yul\":1792:2156   */\n      swap3\n      swap2\n      pop\n      pop\n      jump\t// out\n        /* \"#utility.yul\":2162:2475   */\n    tag_9:\n        /* \"#utility.yul\":2275:2279   */\n      0x00\n        /* \"#utility.yul\":2313:2315   */\n      0x20\n        /* \"#utility.yul\":2302:2311   */\n      dup3\n        /* \"#utility.yul\":2298:2316   */\n      add\n        /* \"#utility.yul\":2290:2316   */\n      swap1\n      pop\n        /* \"#utility.yul\":2362:2371   */\n      dup2\n        /* \"#utility.yul\":2356:2360   */\n      dup2\n        /* \"#utility.yul\":2352:2372   */\n      sub\n        /* \"#utility.yul\":2348:2349   */\n      0x00\n        /* \"#utility.yul\":2337:2346   */\n      dup4\n        /* \"#utility.yul\":2333:2350   */\n      add\n        /* \"#utility.yul\":2326:2373   */\n      mstore\n        /* \"#utility.yul\":2390:2468   */\n      tag_66\n        /* \"#utility.yul\":2463:2467   */\n      dup2\n        /* \"#utility.yul\":2454:2460   */\n      dup5\n        /* \"#utility.yul\":2390:2468   */\n      tag_35\n      jump\t// in\n    tag_66:\n        /* \"#utility.yul\":2382:2468   */\n      swap1\n      pop\n        /* \"#utility.yul\":2162:2475   */\n      swap3\n      swap2\n      pop\n      pop\n      jump\t// out\n        /* \"#utility.yul\":2481:2661   */\n    tag_13:\n        /* \"#utility.yul\":2529:2606   */\n      0x4e487b7100000000000000000000000000000000000000000000000000000000\n        /* \"#utility.yul\":2526:2527   */\n      0x00\n        /* \"#utility.yul\":2519:2607   */\n      mstore\n        /* \"#utility.yul\":2626:2630   */\n      0x41\n        /* \"#utility.yul\":2623:2624   */\n      0x04\n        /* \"#utility.yul\":2616:2631   */\n      mstore\n        /* \"#utility.yul\":2650:2654   */\n      0x24\n        /* \"#utility.yul\":2647:2648   */\n      0x00\n        /* \"#utility.yul\":2640:2655   */\n      revert\n        /* \"#utility.yul\":2667:2847   */\n    tag_20:\n        /* \"#utility.yul\":2715:2792   */\n      0x4e487b7100000000000000000000000000000000000000000000000000000000\n        /* \"#utility.yul\":2712:2713   */\n      0x00\n        /* \"#utility.yul\":2705:2793   */\n      mstore\n        /* \"#utility.yul\":2812:2816   */\n      0x32\n        /* \"#utility.yul\":2809:2810   */\n      0x04\n        /* \"#utility.yul\":2802:2817   */\n      mstore\n        /* \"#utility.yul\":2836:2840   */\n      0x24\n        /* \"#utility.yul\":2833:2834   */\n      0x00\n        /* \"#utility.yul\":2826:2841   */\n      revert\n        /* \"#utility.yul\":2853:3033   */\n    tag_36:\n        /* \"#utility.yul\":2901:2978   */\n      0x4e487b7100000000000000000000000000000000000000000000000000000000\n        /* \"#utility.yul\":2898:2899   */\n      0x00\n        /* \"#utility.yul\":2891:2979   */\n      mstore\n        /* \"#utility.yul\":2998:3002   */\n      0x11\n        /* \"#utility.yul\":2995:2996   */\n      0x04\n        /* \"#utility.yul\":2988:3003   */\n      mstore\n        /* \"#utility.yul\":3022:3026   */\n      0x24\n        /* \"#utility.yul\":3019:3020   */\n      0x00\n        /* \"#utility.yul\":3012:3027   */\n      revert\n        /* \"#utility.yul\":3039:3116   */\n    tag_37:\n        /* \"#utility.yul\":3076:3083   */\n      0x00\n        /* \"#utility.yul\":3105:3110   */\n      dup2\n        /* \"#utility.yul\":3094:3110   */\n      swap1\n      pop\n        /* \"#utility.yul\":3039:3116   */\n      swap2\n      swap1\n      pop\n      jump\t// out\n        /* \"#utility.yul\":3122:3355   */\n    tag_24:\n        /* \"#utility.yul\":3161:3164   */\n      0x00\n        /* \"#utility.yul\":3184:3208   */\n      tag_72\n        /* \"#utility.yul\":3202:3207   */\n      dup3\n        /* \"#utility.yul\":3184:3208   */\n      tag_37\n      jump\t// in\n    tag_72:\n        /* \"#utility.yul\":3175:3208   */\n      swap2\n      pop\n        /* \"#utility.yul\":3230:3296   */\n      0xffffffffffffffffffffffffffffffffffffffffffffffffffffffffffffffff\n        /* \"#utility.yul\":3223:3228   */\n      dup3\n        /* \"#utility.yul\":3220:3297   */\n      sub\n        /* \"#utility.yul\":3217:3320   */\n      tag_73\n      jumpi\n        /* \"#utility.yul\":3300:3318   */\n      tag_74\n      tag_36\n      jump\t// in\n    tag_74:\n        /* \"#utility.yul\":3217:3320   */\n    tag_73:\n        /* \"#utility.yul\":3347:3348   */\n      0x01\n        /* \"#utility.yul\":3340:3345   */\n      dup3\n        /* \"#utility.yul\":3336:3349   */\n      add\n        /* \"#utility.yul\":3329:3349   */\n      swap1\n      pop\n        /* \"#utility.yul\":3122:3355   */\n      swap2\n      swap1\n      pop\n      jump\t// out\n\n    auxdata: 0xa26469706673582212201c9c6f9c03af5b952ce38e2e4f76d6da56ccf71f89e864c403ea09e77cb45cb964736f6c634300080f0033\n}\n",
				"bytecode": {
					"linkReferences": {},
					"object": "6080604052617a6860f01b6000806101000a81548161ffff021916908360f01c021790555034801561003057600080fd5b50610396806100406000396000f3fe608060405234801561001057600080fd5b506004361061002b5760003560e01c8063f9c2bcc014610030575b600080fd5b61004a60048036038101906100459190610199565b610060565b604051610057919061025f565b60405180910390f35b60606000600260ff1667ffffffffffffffff81111561008257610081610281565b5b6040519080825280601f01601f1916602001820160405280156100b45781602001600182028036833780820191505090505b50905060005b600260ff16811015610132578381600281106100d9576100d86102b0565b5b1a60f81b8282815181106100f0576100ef6102b0565b5b60200101907effffffffffffffffffffffffffffffffffffffffffffffffffffffffffffff1916908160001a905350808061012a90610318565b9150506100ba565b5080915050919050565b600080fd5b60007fffff00000000000000000000000000000000000000000000000000000000000082169050919050565b61017681610141565b811461018157600080fd5b50565b6000813590506101938161016d565b92915050565b6000602082840312156101af576101ae61013c565b5b60006101bd84828501610184565b91505092915050565b600081519050919050565b600082825260208201905092915050565b60005b838110156102005780820151818401526020810190506101e5565b8381111561020f576000848401525b50505050565b6000601f19601f8301169050919050565b6000610231826101c6565b61023b81856101d1565b935061024b8185602086016101e2565b61025481610215565b840191505092915050565b600060208201905081810360008301526102798184610226565b905092915050565b7f4e487b7100000000000000000000000000000000000000000000000000000000600052604160045260246000fd5b7f4e487b7100000000000000000000000000000000000000000000000000000000600052603260045260246000fd5b7f4e487b7100000000000000000000000000000000000000000000000000000000600052601160045260246000fd5b6000819050919050565b60006103238261030e565b91507fffffffffffffffffffffffffffffffffffffffffffffffffffffffffffffffff8203610355576103546102df565b5b60018201905091905056fea26469706673582212201c9c6f9c03af5b952ce38e2e4f76d6da56ccf71f89e864c403ea09e77cb45cb964736f6c634300080f0033",
					"opcodes": "PUSH1 0x80 PUSH1 0x40 MSTORE PUSH2 0x7A68 PUSH1 0xF0 SHL PUSH1 0x0 DUP1 PUSH2 0x100 EXP DUP2 SLOAD DUP2 PUSH2 0xFFFF MUL NOT AND SWAP1 DUP4 PUSH1 0xF0 SHR MUL OR SWAP1 SSTORE POP CALLVALUE DUP1 ISZERO PUSH2 0x30 JUMPI PUSH1 0x0 DUP1 REVERT JUMPDEST POP PUSH2 0x396 DUP1 PUSH2 0x40 PUSH1 0x0 CODECOPY PUSH1 0x0 RETURN INVALID PUSH1 0x80 PUSH1 0x40 MSTORE CALLVALUE DUP1 ISZERO PUSH2 0x10 JUMPI PUSH1 0x0 DUP1 REVERT JUMPDEST POP PUSH1 0x4 CALLDATASIZE LT PUSH2 0x2B JUMPI PUSH1 0x0 CALLDATALOAD PUSH1 0xE0 SHR DUP1 PUSH4 0xF9C2BCC0 EQ PUSH2 0x30 JUMPI JUMPDEST PUSH1 0x0 DUP1 REVERT JUMPDEST PUSH2 0x4A PUSH1 0x4 DUP1 CALLDATASIZE SUB DUP2 ADD SWAP1 PUSH2 0x45 SWAP2 SWAP1 PUSH2 0x199 JUMP JUMPDEST PUSH2 0x60 JUMP JUMPDEST PUSH1 0x40 MLOAD PUSH2 0x57 SWAP2 SWAP1 PUSH2 0x25F JUMP JUMPDEST PUSH1 0x40 MLOAD DUP1 SWAP2 SUB SWAP1 RETURN JUMPDEST PUSH1 0x60 PUSH1 0x0 PUSH1 0x2 PUSH1 0xFF AND PUSH8 0xFFFFFFFFFFFFFFFF DUP2 GT ISZERO PUSH2 0x82 JUMPI PUSH2 0x81 PUSH2 0x281 JUMP JUMPDEST JUMPDEST PUSH1 0x40 MLOAD SWAP1 DUP1 DUP3 MSTORE DUP1 PUSH1 0x1F ADD PUSH1 0x1F NOT AND PUSH1 0x20 ADD DUP3 ADD PUSH1 0x40 MSTORE DUP1 ISZERO PUSH2 0xB4 JUMPI DUP2 PUSH1 0x20 ADD PUSH1 0x1 DUP3 MUL DUP1 CALLDATASIZE DUP4 CALLDATACOPY DUP1 DUP3 ADD SWAP2 POP POP SWAP1 POP JUMPDEST POP SWAP1 POP PUSH1 0x0 JUMPDEST PUSH1 0x2 PUSH1 0xFF AND DUP2 LT ISZERO PUSH2 0x132 JUMPI DUP4 DUP2 PUSH1 0x2 DUP2 LT PUSH2 0xD9 JUMPI PUSH2 0xD8 PUSH2 0x2B0 JUMP JUMPDEST JUMPDEST BYTE PUSH1 0xF8 SHL DUP3 DUP3 DUP2 MLOAD DUP2 LT PUSH2 0xF0 JUMPI PUSH2 0xEF PUSH2 0x2B0 JUMP JUMPDEST JUMPDEST PUSH1 0x20 ADD ADD SWAP1 PUSH31 0xFFFFFFFFFFFFFFFFFFFFFFFFFFFFFFFFFFFFFFFFFFFFFFFFFFFFFFFFFFFFFF NOT AND SWAP1 DUP2 PUSH1 0x0 BYTE SWAP1 MSTORE8 POP DUP1 DUP1 PUSH2 0x12A SWAP1 PUSH2 0x318 JUMP JUMPDEST SWAP2 POP POP PUSH2 0xBA JUMP JUMPDEST POP DUP1 SWAP2 POP POP SWAP2 SWAP1 POP JUMP JUMPDEST PUSH1 0x0 DUP1 REVERT JUMPDEST PUSH1 0x0 PUSH32 0xFFFF000000000000000000000000000000000000000000000000000000000000 DUP3 AND SWAP1 POP SWAP2 SWAP1 POP JUMP JUMPDEST PUSH2 0x176 DUP2 PUSH2 0x141 JUMP JUMPDEST DUP2 EQ PUSH2 0x181 JUMPI PUSH1 0x0 DUP1 REVERT JUMPDEST POP JUMP JUMPDEST PUSH1 0x0 DUP2 CALLDATALOAD SWAP1 POP PUSH2 0x193 DUP2 PUSH2 0x16D JUMP JUMPDEST SWAP3 SWAP2 POP POP JUMP JUMPDEST PUSH1 0x0 PUSH1 0x20 DUP3 DUP5 SUB SLT ISZERO PUSH2 0x1AF JUMPI PUSH2 0x1AE PUSH2 0x13C JUMP JUMPDEST JUMPDEST PUSH1 0x0 PUSH2 0x1BD DUP5 DUP3 DUP6 ADD PUSH2 0x184 JUMP JUMPDEST SWAP2 POP POP SWAP3 SWAP2 POP POP JUMP JUMPDEST PUSH1 0x0 DUP2 MLOAD SWAP1 POP SWAP2 SWAP1 POP JUMP JUMPDEST PUSH1 0x0 DUP3 DUP3 MSTORE PUSH1 0x20 DUP3 ADD SWAP1 POP SWAP3 SWAP2 POP POP JUMP JUMPDEST PUSH1 0x0 JUMPDEST DUP4 DUP2 LT ISZERO PUSH2 0x200 JUMPI DUP1 DUP3 ADD MLOAD DUP2 DUP5 ADD MSTORE PUSH1 0x20 DUP2 ADD SWAP1 POP PUSH2 0x1E5 JUMP JUMPDEST DUP4 DUP2 GT ISZERO PUSH2 0x20F JUMPI PUSH1 0x0 DUP5 DUP5 ADD MSTORE JUMPDEST POP POP POP POP JUMP JUMPDEST PUSH1 0x0 PUSH1 0x1F NOT PUSH1 0x1F DUP4 ADD AND SWAP1 POP SWAP2 SWAP1 POP JUMP JUMPDEST PUSH1 0x0 PUSH2 0x231 DUP3 PUSH2 0x1C6 JUMP JUMPDEST PUSH2 0x23B DUP2 DUP6 PUSH2 0x1D1 JUMP JUMPDEST SWAP4 POP PUSH2 0x24B DUP2 DUP6 PUSH1 0x20 DUP7 ADD PUSH2 0x1E2 JUMP JUMPDEST PUSH2 0x254 DUP2 PUSH2 0x215 JUMP JUMPDEST DUP5 ADD SWAP2 POP POP SWAP3 SWAP2 POP POP JUMP JUMPDEST PUSH1 0x0 PUSH1 0x20 DUP3 ADD SWAP1 POP DUP2 DUP2 SUB PUSH1 0x0 DUP4 ADD MSTORE PUSH2 0x279 DUP2 DUP5 PUSH2 0x226 JUMP JUMPDEST SWAP1 POP SWAP3 SWAP2 POP POP JUMP JUMPDEST PUSH32 0x4E487B7100000000000000000000000000000000000000000000000000000000 PUSH1 0x0 MSTORE PUSH1 0x41 PUSH1 0x4 MSTORE PUSH1 0x24 PUSH1 0x0 REVERT JUMPDEST PUSH32 0x4E487B7100000000000000000000000000000000000000000000000000000000 PUSH1 0x0 MSTORE PUSH1 0x32 PUSH1 0x4 MSTORE PUSH1 0x24 PUSH1 0x0 REVERT JUMPDEST PUSH32 0x4E487B7100000000000000000000000000000000000000000000000000000000 PUSH1 0x0 MSTORE PUSH1 0x11 PUSH1 0x4 MSTORE PUSH1 0x24 PUSH1 0x0 REVERT JUMPDEST PUSH1 0x0 DUP2 SWAP1 POP SWAP2 SWAP1 POP JUMP JUMPDEST PUSH1 0x0 PUSH2 0x323 DUP3 PUSH2 0x30E JUMP JUMPDEST SWAP2 POP PUSH32 0xFFFFFFFFFFFFFFFFFFFFFFFFFFFFFFFFFFFFFFFFFFFFFFFFFFFFFFFFFFFFFFFF DUP3 SUB PUSH2 0x355 JUMPI PUSH2 0x354 PUSH2 0x2DF JUMP JUMPDEST JUMPDEST PUSH1 0x1 DUP3 ADD SWAP1 POP SWAP2 SWAP1 POP JUMP INVALID LOG2 PUSH5 0x6970667358 0x22 SLT KECCAK256 SHR SWAP13 PUSH16 0x9C03AF5B952CE38E2E4F76D6DA56CCF7 0x1F DUP10 0xE8 PUSH5 0xC403EA09E7 PUSH29 0xB45CB964736F6C634300080F0033000000000000000000000000000000 "
				},
				"gasEstimates": {
					"creation": {
						"codeDepositCost": "183600",
						"executionCost": "24499",
						"totalCost": "208099"
					},
					"external": {
						"bytes32ToString(bytes2)": "infinite"
					}
				},
				"methodIdentifiers": {
					"bytes32ToString(bytes2)": "f9c2bcc0"
				}
			},
			"storageLayout": {
				"storage": [
					{
						"astId": 4,
						"contract": "contracts/Bytes32ToString.sol:Bytes32ToString",
						"label": "name",
						"offset": 0,
						"slot": "0",
						"type": "t_bytes2"
					}
				],
				"types": {
					"t_bytes2": {
						"encoding": "inplace",
						"label": "bytes2",
						"numberOfBytes": "2"
					}
				}
			},
			"userdoc": {
				"kind": "user",
				"methods": {},
				"version": 1
			}
		}
	}
}