{
	"contracts/ChangeBytes.sol": {
		"ChangeBytes": {
			"abi": [
				{
					"inputs": [],
					"name": "changeBytes1",
					"outputs": [
						{
							"internalType": "bytes1",
							"name": "",
							"type": "bytes1"
						}
					],
					"stateMutability": "view",
					"type": "function"
				}
			],
			"devdoc": {
				"kind": "dev",
				"methods": {},
				"version": 1
			},
			"evm": {
				"assembly": "    /* \"contracts/ChangeBytes.sol\":57:219  contract ChangeBytes {... */\n  mstore(0x40, 0x80)\n    /* \"contracts/ChangeBytes.sol\":98:118  0x4c65636879616e676a */\n  0x4c65636879616e676a\n    /* \"contracts/ChangeBytes.sol\":84:118  bytes9 name = 0x4c65636879616e676a */\n  0xb8\n  shl\n  0x00\n  dup1\n  0x0100\n  exp\n  dup2\n  sload\n  dup2\n  0xffffffffffffffffff\n  mul\n  not\n  and\n  swap1\n  dup4\n  0xb8\n  shr\n  mul\n  or\n  swap1\n  sstore\n  pop\n    /* \"contracts/ChangeBytes.sol\":57:219  contract ChangeBytes {... */\n  callvalue\n  dup1\n  iszero\n  tag_1\n  jumpi\n  0x00\n  dup1\n  revert\ntag_1:\n  pop\n  dataSize(sub_0)\n  dup1\n  dataOffset(sub_0)\n  0x00\n  codecopy\n  0x00\n  return\nstop\n\nsub_0: assembly {\n        /* \"contracts/ChangeBytes.sol\":57:219  contract ChangeBytes {... */\n      mstore(0x40, 0x80)\n      callvalue\n      dup1\n      iszero\n      tag_1\n      jumpi\n      0x00\n      dup1\n      revert\n    tag_1:\n      pop\n      jumpi(tag_2, lt(calldatasize, 0x04))\n      shr(0xe0, calldataload(0x00))\n      dup1\n      0xcfc2b529\n      eq\n      tag_3\n      jumpi\n    tag_2:\n      0x00\n      dup1\n      revert\n        /* \"contracts/ChangeBytes.sol\":125:212  function changeBytes1() public view returns(bytes1){... */\n    tag_3:\n      tag_4\n      tag_5\n      jump\t// in\n    tag_4:\n      mload(0x40)\n      tag_6\n      swap2\n      swap1\n      tag_7\n      jump\t// in\n    tag_6:\n      mload(0x40)\n      dup1\n      swap2\n      sub\n      swap1\n      return\n    tag_5:\n        /* \"contracts/ChangeBytes.sol\":169:175  bytes1 */\n      0x00\n        /* \"contracts/ChangeBytes.sol\":200:204  name */\n      dup1\n      0x00\n      swap1\n      sload\n      swap1\n      0x0100\n      exp\n      swap1\n      div\n      0xb8\n      shl\n        /* \"contracts/ChangeBytes.sol\":186:205  return bytes1(name) */\n      swap1\n      pop\n        /* \"contracts/ChangeBytes.sol\":125:212  function changeBytes1() public view returns(bytes1){... */\n      swap1\n      jump\t// out\n        /* \"#utility.yul\":7:156   */\n    tag_9:\n        /* \"#utility.yul\":43:50   */\n      0x00\n        /* \"#utility.yul\":83:149   */\n      0xff00000000000000000000000000000000000000000000000000000000000000\n        /* \"#utility.yul\":76:81   */\n      dup3\n        /* \"#utility.yul\":72:150   */\n      and\n        /* \"#utility.yul\":61:150   */\n      swap1\n      pop\n        /* \"#utility.yul\":7:156   */\n      swap2\n      swap1\n      pop\n      jump\t// out\n        /* \"#utility.yul\":162:277   */\n    tag_10:\n        /* \"#utility.yul\":247:270   */\n      tag_14\n        /* \"#utility.yul\":264:269   */\n      dup2\n        /* \"#utility.yul\":247:270   */\n      tag_9\n      jump\t// in\n    tag_14:\n        /* \"#utility.yul\":242:245   */\n      dup3\n        /* \"#utility.yul\":235:271   */\n      mstore\n        /* \"#utility.yul\":162:277   */\n      pop\n      pop\n      jump\t// out\n        /* \"#utility.yul\":283:501   */\n    tag_7:\n        /* \"#utility.yul\":374:378   */\n      0x00\n        /* \"#utility.yul\":412:414   */\n      0x20\n        /* \"#utility.yul\":401:410   */\n      dup3\n        /* \"#utility.yul\":397:415   */\n      add\n        /* \"#utility.yul\":389:415   */\n      swap1\n      pop\n        /* \"#utility.yul\":425:494   */\n      tag_16\n        /* \"#utility.yul\":491:492   */\n      0x00\n        /* \"#utility.yul\":480:489   */\n      dup4\n        /* \"#utility.yul\":476:493   */\n      add\n        /* \"#utility.yul\":467:473   */\n      dup5\n        /* \"#utility.yul\":425:494   */\n      tag_10\n      jump\t// in\n    tag_16:\n        /* \"#utility.yul\":283:501   */\n      swap3\n      swap2\n      pop\n      pop\n      jump\t// out\n\n    auxdata: 0xa26469706673582212203e2d9430f76677986c4431f8601d99669760069971670b2aab0687217f89479064736f6c634300080f0033\n}\n",
				"bytecode": {
					"linkReferences": {},
					"object": "6080604052684c65636879616e676a60b81b6000806101000a81548168ffffffffffffffffff021916908360b81c021790555034801561003e57600080fd5b5060e58061004d6000396000f3fe6080604052348015600f57600080fd5b506004361060285760003560e01c8063cfc2b52914602d575b600080fd5b60336047565b604051603e91906096565b60405180910390f35b60008060009054906101000a900460b81b905090565b60007fff0000000000000000000000000000000000000000000000000000000000000082169050919050565b609081605d565b82525050565b600060208201905060a960008301846089565b9291505056fea26469706673582212203e2d9430f76677986c4431f8601d99669760069971670b2aab0687217f89479064736f6c634300080f0033",
					"opcodes": "PUSH1 0x80 PUSH1 0x40 MSTORE PUSH9 0x4C65636879616E676A PUSH1 0xB8 SHL PUSH1 0x0 DUP1 PUSH2 0x100 EXP DUP2 SLOAD DUP2 PUSH9 0xFFFFFFFFFFFFFFFFFF MUL NOT AND SWAP1 DUP4 PUSH1 0xB8 SHR MUL OR SWAP1 SSTORE POP CALLVALUE DUP1 ISZERO PUSH2 0x3E JUMPI PUSH1 0x0 DUP1 REVERT JUMPDEST POP PUSH1 0xE5 DUP1 PUSH2 0x4D PUSH1 0x0 CODECOPY PUSH1 0x0 RETURN INVALID PUSH1 0x80 PUSH1 0x40 MSTORE CALLVALUE DUP1 ISZERO PUSH1 0xF JUMPI PUSH1 0x0 DUP1 REVERT JUMPDEST POP PUSH1 0x4 CALLDATASIZE LT PUSH1 0x28 JUMPI PUSH1 0x0 CALLDATALOAD PUSH1 0xE0 SHR DUP1 PUSH4 0xCFC2B529 EQ PUSH1 0x2D JUMPI JUMPDEST PUSH1 0x0 DUP1 REVERT JUMPDEST PUSH1 0x33 PUSH1 0x47 JUMP JUMPDEST PUSH1 0x40 MLOAD PUSH1 0x3E SWAP2 SWAP1 PUSH1 0x96 JUMP JUMPDEST PUSH1 0x40 MLOAD DUP1 SWAP2 SUB SWAP1 RETURN JUMPDEST PUSH1 0x0 DUP1 PUSH1 0x0 SWAP1 SLOAD SWAP1 PUSH2 0x100 EXP SWAP1 DIV PUSH1 0xB8 SHL SWAP1 POP SWAP1 JUMP JUMPDEST PUSH1 0x0 PUSH32 0xFF00000000000000000000000000000000000000000000000000000000000000 DUP3 AND SWAP1 POP SWAP2 SWAP1 POP JUMP JUMPDEST PUSH1 0x90 DUP2 PUSH1 0x5D JUMP JUMPDEST DUP3 MSTORE POP POP JUMP JUMPDEST PUSH1 0x0 PUSH1 0x20 DUP3 ADD SWAP1 POP PUSH1 0xA9 PUSH1 0x0 DUP4 ADD DUP5 PUSH1 0x89 JUMP JUMPDEST SWAP3 SWAP2 POP POP JUMP INVALID LOG2 PUSH5 0x6970667358 0x22 SLT KECCAK256 RETURNDATACOPY 0x2D SWAP5 ADDRESS 0xF7 PUSH7 0x77986C4431F860 SAR SWAP10 PUSH7 0x9760069971670B 0x2A 0xAB MOD DUP8 0x21 PUSH32 0x89479064736F6C634300080F0033000000000000000000000000000000000000 "
				},
				"gasEstimates": {
					"creation": {
						"codeDepositCost": "45800",
						"executionCost": "24372",
						"totalCost": "70172"
					},
					"external": {
						"changeBytes1()": "2457"
					}
				},
				"methodIdentifiers": {
					"changeBytes1()": "cfc2b529"
				}
			},
			"storageLayout": {
				"storage": [
					{
						"astId": 4,
						"contract": "contracts/ChangeBytes.sol:ChangeBytes",
						"label": "name",
						"offset": 0,
						"slot": "0",
						"type": "t_bytes9"
					}
				],
				"types": {
					"t_bytes9": {
						"encoding": "inplace",
						"label": "bytes9",
						"numberOfBytes": "9"
					}
				}
			},
			"userdoc": {
				"kind": "user",
				"methods": {},
				"version": 1
			}
		}
	}
}