{
	"contracts/Example.sol": {
		"Example": {
			"abi": [
				{
					"inputs": [],
					"name": "f",
					"outputs": [
						{
							"internalType": "bytes4",
							"name": "",
							"type": "bytes4"
						}
					],
					"stateMutability": "payable",
					"type": "function"
				}
			],
			"devdoc": {
				"kind": "dev",
				"methods": {},
				"version": 1
			},
			"evm": {
				"assembly": "    /* \"contracts/Example.sol\":69:227  contract Example {... */\n  mstore(0x40, 0x80)\n  callvalue\n  dup1\n  iszero\n  tag_1\n  jumpi\n  0x00\n  dup1\n  revert\ntag_1:\n  pop\n  dataSize(sub_0)\n  dup1\n  dataOffset(sub_0)\n  0x00\n  codecopy\n  0x00\n  return\nstop\n\nsub_0: assembly {\n        /* \"contracts/Example.sol\":69:227  contract Example {... */\n      mstore(0x40, 0x80)\n      jumpi(tag_1, lt(calldatasize, 0x04))\n      shr(0xe0, calldataload(0x00))\n      dup1\n      0x26121ff0\n      eq\n      tag_2\n      jumpi\n    tag_1:\n      0x00\n      dup1\n      revert\n        /* \"contracts/Example.sol\":92:225  function f() public payable returns (bytes4) {... */\n    tag_2:\n      tag_3\n      tag_4\n      jump\t// in\n    tag_3:\n      mload(0x40)\n      tag_5\n      swap2\n      swap1\n      tag_6\n      jump\t// in\n    tag_5:\n      mload(0x40)\n      dup1\n      swap2\n      sub\n      swap1\n      return\n    tag_4:\n        /* \"contracts/Example.sol\":129:135  bytes4 */\n      0x00\n        /* \"contracts/Example.sol\":180:184  this */\n      address\n        /* \"contracts/Example.sol\":154:185  this.f.address == address(this) */\n      0xffffffffffffffffffffffffffffffffffffffff\n      and\n        /* \"contracts/Example.sol\":154:158  this */\n      address\n        /* \"contracts/Example.sol\":154:160  this.f */\n      0xffffffffffffffffffffffffffffffffffffffff\n      and\n        /* \"contracts/Example.sol\":154:185  this.f.address == address(this) */\n      0xffffffffffffffffffffffffffffffffffffffff\n      and\n      eq\n        /* \"contracts/Example.sol\":147:186  assert(this.f.address == address(this)) */\n      tag_8\n      jumpi\n      tag_9\n      tag_10\n      jump\t// in\n    tag_9:\n    tag_8:\n        /* \"contracts/Example.sol\":203:218  this.f.selector */\n      shl(0xe0, 0x26121ff0)\n        /* \"contracts/Example.sol\":196:218  return this.f.selector */\n      swap1\n      pop\n        /* \"contracts/Example.sol\":92:225  function f() public payable returns (bytes4) {... */\n      swap1\n      jump\t// out\n        /* \"#utility.yul\":7:156   */\n    tag_11:\n        /* \"#utility.yul\":43:50   */\n      0x00\n        /* \"#utility.yul\":83:149   */\n      0xffffffff00000000000000000000000000000000000000000000000000000000\n        /* \"#utility.yul\":76:81   */\n      dup3\n        /* \"#utility.yul\":72:150   */\n      and\n        /* \"#utility.yul\":61:150   */\n      swap1\n      pop\n        /* \"#utility.yul\":7:156   */\n      swap2\n      swap1\n      pop\n      jump\t// out\n        /* \"#utility.yul\":162:277   */\n    tag_12:\n        /* \"#utility.yul\":247:270   */\n      tag_16\n        /* \"#utility.yul\":264:269   */\n      dup2\n        /* \"#utility.yul\":247:270   */\n      tag_11\n      jump\t// in\n    tag_16:\n        /* \"#utility.yul\":242:245   */\n      dup3\n        /* \"#utility.yul\":235:271   */\n      mstore\n        /* \"#utility.yul\":162:277   */\n      pop\n      pop\n      jump\t// out\n        /* \"#utility.yul\":283:501   */\n    tag_6:\n        /* \"#utility.yul\":374:378   */\n      0x00\n        /* \"#utility.yul\":412:414   */\n      0x20\n        /* \"#utility.yul\":401:410   */\n      dup3\n        /* \"#utility.yul\":397:415   */\n      add\n        /* \"#utility.yul\":389:415   */\n      swap1\n      pop\n        /* \"#utility.yul\":425:494   */\n      tag_18\n        /* \"#utility.yul\":491:492   */\n      0x00\n        /* \"#utility.yul\":480:489   */\n      dup4\n        /* \"#utility.yul\":476:493   */\n      add\n        /* \"#utility.yul\":467:473   */\n      dup5\n        /* \"#utility.yul\":425:494   */\n      tag_12\n      jump\t// in\n    tag_18:\n        /* \"#utility.yul\":283:501   */\n      swap3\n      swap2\n      pop\n      pop\n      jump\t// out\n        /* \"#utility.yul\":507:687   */\n    tag_10:\n        /* \"#utility.yul\":555:632   */\n      0x4e487b7100000000000000000000000000000000000000000000000000000000\n        /* \"#utility.yul\":552:553   */\n      0x00\n        /* \"#utility.yul\":545:633   */\n      mstore\n        /* \"#utility.yul\":652:656   */\n      0x01\n        /* \"#utility.yul\":649:650   */\n      0x04\n        /* \"#utility.yul\":642:657   */\n      mstore\n        /* \"#utility.yul\":676:680   */\n      0x24\n        /* \"#utility.yul\":673:674   */\n      0x00\n        /* \"#utility.yul\":666:681   */\n      revert\n\n    auxdata: 0xa26469706673582212204197ad2be62c45c7b5e83a8affc988165526021eff066a8193cc86d7de53473a64736f6c634300080f0033\n}\n",
				"bytecode": {
					"linkReferences": {},
					"object": "608060405234801561001057600080fd5b5061015d806100206000396000f3fe60806040526004361061001e5760003560e01c806326121ff014610023575b600080fd5b61002b610041565b60405161003891906100dd565b60405180910390f35b60003073ffffffffffffffffffffffffffffffffffffffff163073ffffffffffffffffffffffffffffffffffffffff1673ffffffffffffffffffffffffffffffffffffffff1614610095576100946100f8565b5b6326121ff060e01b905090565b60007fffffffff0000000000000000000000000000000000000000000000000000000082169050919050565b6100d7816100a2565b82525050565b60006020820190506100f260008301846100ce565b92915050565b7f4e487b7100000000000000000000000000000000000000000000000000000000600052600160045260246000fdfea26469706673582212204197ad2be62c45c7b5e83a8affc988165526021eff066a8193cc86d7de53473a64736f6c634300080f0033",
					"opcodes": "PUSH1 0x80 PUSH1 0x40 MSTORE CALLVALUE DUP1 ISZERO PUSH2 0x10 JUMPI PUSH1 0x0 DUP1 REVERT JUMPDEST POP PUSH2 0x15D DUP1 PUSH2 0x20 PUSH1 0x0 CODECOPY PUSH1 0x0 RETURN INVALID PUSH1 0x80 PUSH1 0x40 MSTORE PUSH1 0x4 CALLDATASIZE LT PUSH2 0x1E JUMPI PUSH1 0x0 CALLDATALOAD PUSH1 0xE0 SHR DUP1 PUSH4 0x26121FF0 EQ PUSH2 0x23 JUMPI JUMPDEST PUSH1 0x0 DUP1 REVERT JUMPDEST PUSH2 0x2B PUSH2 0x41 JUMP JUMPDEST PUSH1 0x40 MLOAD PUSH2 0x38 SWAP2 SWAP1 PUSH2 0xDD JUMP JUMPDEST PUSH1 0x40 MLOAD DUP1 SWAP2 SUB SWAP1 RETURN JUMPDEST PUSH1 0x0 ADDRESS PUSH20 0xFFFFFFFFFFFFFFFFFFFFFFFFFFFFFFFFFFFFFFFF AND ADDRESS PUSH20 0xFFFFFFFFFFFFFFFFFFFFFFFFFFFFFFFFFFFFFFFF AND PUSH20 0xFFFFFFFFFFFFFFFFFFFFFFFFFFFFFFFFFFFFFFFF AND EQ PUSH2 0x95 JUMPI PUSH2 0x94 PUSH2 0xF8 JUMP JUMPDEST JUMPDEST PUSH4 0x26121FF0 PUSH1 0xE0 SHL SWAP1 POP SWAP1 JUMP JUMPDEST PUSH1 0x0 PUSH32 0xFFFFFFFF00000000000000000000000000000000000000000000000000000000 DUP3 AND SWAP1 POP SWAP2 SWAP1 POP JUMP JUMPDEST PUSH2 0xD7 DUP2 PUSH2 0xA2 JUMP JUMPDEST DUP3 MSTORE POP POP JUMP JUMPDEST PUSH1 0x0 PUSH1 0x20 DUP3 ADD SWAP1 POP PUSH2 0xF2 PUSH1 0x0 DUP4 ADD DUP5 PUSH2 0xCE JUMP JUMPDEST SWAP3 SWAP2 POP POP JUMP JUMPDEST PUSH32 0x4E487B7100000000000000000000000000000000000000000000000000000000 PUSH1 0x0 MSTORE PUSH1 0x1 PUSH1 0x4 MSTORE PUSH1 0x24 PUSH1 0x0 REVERT INVALID LOG2 PUSH5 0x6970667358 0x22 SLT KECCAK256 COINBASE SWAP8 0xAD 0x2B 0xE6 0x2C GASLIMIT 0xC7 0xB5 0xE8 GASPRICE DUP11 SELFDESTRUCT 0xC9 DUP9 AND SSTORE 0x26 MUL 0x1E SELFDESTRUCT MOD PUSH11 0x8193CC86D7DE53473A6473 PUSH16 0x6C634300080F00330000000000000000 "
				},
				"gasEstimates": {
					"creation": {
						"codeDepositCost": "69800",
						"executionCost": "117",
						"totalCost": "69917"
					},
					"external": {
						"f()": "342"
					}
				},
				"methodIdentifiers": {
					"f()": "26121ff0"
				}
			},
			"storageLayout": {
				"storage": [],
				"types": null
			},
			"userdoc": {
				"kind": "user",
				"methods": {},
				"version": 1
			}
		}
	}
}