{
	"contracts/ModifierTest.sol": {
		"ModifierTest": {
			"abi": [
				{
					"inputs": [],
					"name": "DNA",
					"outputs": [
						{
							"internalType": "uint256",
							"name": "",
							"type": "uint256"
						}
					],
					"stateMutability": "view",
					"type": "function"
				},
				{
					"inputs": [],
					"name": "changeDNA",
					"outputs": [],
					"stateMutability": "nonpayable",
					"type": "function"
				},
				{
					"inputs": [],
					"name": "changeName",
					"outputs": [],
					"stateMutability": "nonpayable",
					"type": "function"
				},
				{
					"inputs": [],
					"name": "level",
					"outputs": [
						{
							"internalType": "uint256",
							"name": "",
							"type": "uint256"
						}
					],
					"stateMutability": "view",
					"type": "function"
				},
				{
					"inputs": [],
					"name": "name",
					"outputs": [
						{
							"internalType": "string",
							"name": "",
							"type": "string"
						}
					],
					"stateMutability": "view",
					"type": "function"
				}
			],
			"devdoc": {
				"kind": "dev",
				"methods": {},
				"version": 1
			},
			"evm": {
				"assembly": "    /* \"contracts/ModifierTest.sol\":56:423  contract ModifierTest {... */\n  mstore(0x40, 0x80)\n    /* \"contracts/ModifierTest.sol\":105:106  9 */\n  0x09\n    /* \"contracts/ModifierTest.sol\":85:106  uint public level = 9 */\n  0x00\n  sstore\n    /* \"contracts/ModifierTest.sol\":56:423  contract ModifierTest {... */\n  callvalue\n  dup1\n  iszero\n  tag_1\n  jumpi\n  0x00\n  dup1\n  revert\ntag_1:\n  pop\n  dataSize(sub_0)\n  dup1\n  dataOffset(sub_0)\n  0x00\n  codecopy\n  0x00\n  return\nstop\n\nsub_0: assembly {\n        /* \"contracts/ModifierTest.sol\":56:423  contract ModifierTest {... */\n      mstore(0x40, 0x80)\n      callvalue\n      dup1\n      iszero\n      tag_1\n      jumpi\n      0x00\n      dup1\n      revert\n    tag_1:\n      pop\n      jumpi(tag_2, lt(calldatasize, 0x04))\n      shr(0xe0, calldataload(0x00))\n      dup1\n      0x06fdde03\n      eq\n      tag_3\n      jumpi\n      dup1\n      0x6fd5ae15\n      eq\n      tag_4\n      jumpi\n      dup1\n      0x751515a8\n      eq\n      tag_5\n      jumpi\n      dup1\n      0xd39aba1e\n      eq\n      tag_6\n      jumpi\n      dup1\n      0xd9a7430e\n      eq\n      tag_7\n      jumpi\n    tag_2:\n      0x00\n      dup1\n      revert\n        /* \"contracts/ModifierTest.sol\":112:130  string public name */\n    tag_3:\n      tag_8\n      tag_9\n      jump\t// in\n    tag_8:\n      mload(0x40)\n      tag_10\n      swap2\n      swap1\n      tag_11\n      jump\t// in\n    tag_10:\n      mload(0x40)\n      dup1\n      swap2\n      sub\n      swap1\n      return\n        /* \"contracts/ModifierTest.sol\":85:106  uint public level = 9 */\n    tag_4:\n      tag_12\n      tag_13\n      jump\t// in\n    tag_12:\n      mload(0x40)\n      tag_14\n      swap2\n      swap1\n      tag_15\n      jump\t// in\n    tag_14:\n      mload(0x40)\n      dup1\n      swap2\n      sub\n      swap1\n      return\n        /* \"contracts/ModifierTest.sol\":348:420  function changeDNA() public  controlLevel(10) {... */\n    tag_5:\n      tag_16\n      tag_17\n      jump\t// in\n    tag_16:\n      stop\n        /* \"contracts/ModifierTest.sol\":136:151  uint public DNA */\n    tag_6:\n      tag_18\n      tag_19\n      jump\t// in\n    tag_18:\n      mload(0x40)\n      tag_20\n      swap2\n      swap1\n      tag_15\n      jump\t// in\n    tag_20:\n      mload(0x40)\n      dup1\n      swap2\n      sub\n      swap1\n      return\n        /* \"contracts/ModifierTest.sol\":257:342  function changeName() public  controlLevel(2) {... */\n    tag_7:\n      tag_21\n      tag_22\n      jump\t// in\n    tag_21:\n      stop\n        /* \"contracts/ModifierTest.sol\":112:130  string public name */\n    tag_9:\n      0x01\n      dup1\n      sload\n      tag_23\n      swap1\n      tag_24\n      jump\t// in\n    tag_23:\n      dup1\n      0x1f\n      add\n      0x20\n      dup1\n      swap2\n      div\n      mul\n      0x20\n      add\n      mload(0x40)\n      swap1\n      dup2\n      add\n      0x40\n      mstore\n      dup1\n      swap3\n      swap2\n      swap1\n      dup2\n      dup2\n      mstore\n      0x20\n      add\n      dup3\n      dup1\n      sload\n      tag_25\n      swap1\n      tag_24\n      jump\t// in\n    tag_25:\n      dup1\n      iszero\n      tag_26\n      jumpi\n      dup1\n      0x1f\n      lt\n      tag_27\n      jumpi\n      0x0100\n      dup1\n      dup4\n      sload\n      div\n      mul\n      dup4\n      mstore\n      swap2\n      0x20\n      add\n      swap2\n      jump(tag_26)\n    tag_27:\n      dup3\n      add\n      swap2\n      swap1\n      0x00\n      mstore\n      keccak256(0x00, 0x20)\n      swap1\n    tag_28:\n      dup2\n      sload\n      dup2\n      mstore\n      swap1\n      0x01\n      add\n      swap1\n      0x20\n      add\n      dup1\n      dup4\n      gt\n      tag_28\n      jumpi\n      dup3\n      swap1\n      sub\n      0x1f\n      and\n      dup3\n      add\n      swap2\n    tag_26:\n      pop\n      pop\n      pop\n      pop\n      pop\n      dup2\n      jump\t// out\n        /* \"contracts/ModifierTest.sol\":85:106  uint public level = 9 */\n    tag_13:\n      sload(0x00)\n      dup2\n      jump\t// out\n        /* \"contracts/ModifierTest.sol\":348:420  function changeDNA() public  controlLevel(10) {... */\n    tag_17:\n        /* \"contracts/ModifierTest.sol\":390:392  10 */\n      0x0a\n        /* \"contracts/ModifierTest.sol\":223:232  needLevel */\n      dup1\n        /* \"contracts/ModifierTest.sol\":214:219  level */\n      sload(0x00)\n        /* \"contracts/ModifierTest.sol\":214:232  level >= needLevel */\n      lt\n      iszero\n        /* \"contracts/ModifierTest.sol\":206:233  require(level >= needLevel) */\n      tag_30\n      jumpi\n      0x00\n      dup1\n      revert\n    tag_30:\n        /* \"contracts/ModifierTest.sol\":410:413  999 */\n      0x03e7\n        /* \"contracts/ModifierTest.sol\":404:407  DNA */\n      0x02\n        /* \"contracts/ModifierTest.sol\":404:413  DNA = 999 */\n      dup2\n      swap1\n      sstore\n      pop\n        /* \"contracts/ModifierTest.sol\":348:420  function changeDNA() public  controlLevel(10) {... */\n      pop\n      jump\t// out\n        /* \"contracts/ModifierTest.sol\":136:151  uint public DNA */\n    tag_19:\n      sload(0x02)\n      dup2\n      jump\t// out\n        /* \"contracts/ModifierTest.sol\":257:342  function changeName() public  controlLevel(2) {... */\n    tag_22:\n        /* \"contracts/ModifierTest.sol\":300:301  2 */\n      0x02\n        /* \"contracts/ModifierTest.sol\":223:232  needLevel */\n      dup1\n        /* \"contracts/ModifierTest.sol\":214:219  level */\n      sload(0x00)\n        /* \"contracts/ModifierTest.sol\":214:232  level >= needLevel */\n      lt\n      iszero\n        /* \"contracts/ModifierTest.sol\":206:233  require(level >= needLevel) */\n      tag_33\n      jumpi\n      0x00\n      dup1\n      revert\n    tag_33:\n        /* \"contracts/ModifierTest.sol\":313:335  name = \"techyangjiang\" */\n      mload(0x40)\n      dup1\n      0x40\n      add\n      0x40\n      mstore\n      dup1\n      0x0d\n      dup2\n      mstore\n      0x20\n      add\n      0x7465636879616e676a69616e6700000000000000000000000000000000000000\n      dup2\n      mstore\n      pop\n        /* \"contracts/ModifierTest.sol\":313:317  name */\n      0x01\n        /* \"contracts/ModifierTest.sol\":313:335  name = \"techyangjiang\" */\n      swap1\n      dup2\n      tag_35\n      swap2\n      swap1\n      tag_36\n      jump\t// in\n    tag_35:\n      pop\n        /* \"contracts/ModifierTest.sol\":257:342  function changeName() public  controlLevel(2) {... */\n      pop\n      jump\t// out\n        /* \"#utility.yul\":7:106   */\n    tag_37:\n        /* \"#utility.yul\":59:65   */\n      0x00\n        /* \"#utility.yul\":93:98   */\n      dup2\n        /* \"#utility.yul\":87:99   */\n      mload\n        /* \"#utility.yul\":77:99   */\n      swap1\n      pop\n        /* \"#utility.yul\":7:106   */\n      swap2\n      swap1\n      pop\n      jump\t// out\n        /* \"#utility.yul\":112:281   */\n    tag_38:\n        /* \"#utility.yul\":196:207   */\n      0x00\n        /* \"#utility.yul\":230:236   */\n      dup3\n        /* \"#utility.yul\":225:228   */\n      dup3\n        /* \"#utility.yul\":218:237   */\n      mstore\n        /* \"#utility.yul\":270:274   */\n      0x20\n        /* \"#utility.yul\":265:268   */\n      dup3\n        /* \"#utility.yul\":261:275   */\n      add\n        /* \"#utility.yul\":246:275   */\n      swap1\n      pop\n        /* \"#utility.yul\":112:281   */\n      swap3\n      swap2\n      pop\n      pop\n      jump\t// out\n        /* \"#utility.yul\":287:594   */\n    tag_39:\n        /* \"#utility.yul\":355:356   */\n      0x00\n        /* \"#utility.yul\":365:478   */\n    tag_65:\n        /* \"#utility.yul\":379:385   */\n      dup4\n        /* \"#utility.yul\":376:377   */\n      dup2\n        /* \"#utility.yul\":373:386   */\n      lt\n        /* \"#utility.yul\":365:478   */\n      iszero\n      tag_67\n      jumpi\n        /* \"#utility.yul\":464:465   */\n      dup1\n        /* \"#utility.yul\":459:462   */\n      dup3\n        /* \"#utility.yul\":455:466   */\n      add\n        /* \"#utility.yul\":449:467   */\n      mload\n        /* \"#utility.yul\":445:446   */\n      dup2\n        /* \"#utility.yul\":440:443   */\n      dup5\n        /* \"#utility.yul\":436:447   */\n      add\n        /* \"#utility.yul\":429:468   */\n      mstore\n        /* \"#utility.yul\":401:403   */\n      0x20\n        /* \"#utility.yul\":398:399   */\n      dup2\n        /* \"#utility.yul\":394:404   */\n      add\n        /* \"#utility.yul\":389:404   */\n      swap1\n      pop\n        /* \"#utility.yul\":365:478   */\n      jump(tag_65)\n    tag_67:\n        /* \"#utility.yul\":496:502   */\n      dup4\n        /* \"#utility.yul\":493:494   */\n      dup2\n        /* \"#utility.yul\":490:503   */\n      gt\n        /* \"#utility.yul\":487:588   */\n      iszero\n      tag_68\n      jumpi\n        /* \"#utility.yul\":576:577   */\n      0x00\n        /* \"#utility.yul\":567:573   */\n      dup5\n        /* \"#utility.yul\":562:565   */\n      dup5\n        /* \"#utility.yul\":558:574   */\n      add\n        /* \"#utility.yul\":551:578   */\n      mstore\n        /* \"#utility.yul\":487:588   */\n    tag_68:\n        /* \"#utility.yul\":336:594   */\n      pop\n        /* \"#utility.yul\":287:594   */\n      pop\n      pop\n      pop\n      jump\t// out\n        /* \"#utility.yul\":600:702   */\n    tag_40:\n        /* \"#utility.yul\":641:647   */\n      0x00\n        /* \"#utility.yul\":692:694   */\n      0x1f\n        /* \"#utility.yul\":688:695   */\n      not\n        /* \"#utility.yul\":683:685   */\n      0x1f\n        /* \"#utility.yul\":676:681   */\n      dup4\n        /* \"#utility.yul\":672:686   */\n      add\n        /* \"#utility.yul\":668:696   */\n      and\n        /* \"#utility.yul\":658:696   */\n      swap1\n      pop\n        /* \"#utility.yul\":600:702   */\n      swap2\n      swap1\n      pop\n      jump\t// out\n        /* \"#utility.yul\":708:1072   */\n    tag_41:\n        /* \"#utility.yul\":796:799   */\n      0x00\n        /* \"#utility.yul\":824:863   */\n      tag_71\n        /* \"#utility.yul\":857:862   */\n      dup3\n        /* \"#utility.yul\":824:863   */\n      tag_37\n      jump\t// in\n    tag_71:\n        /* \"#utility.yul\":879:950   */\n      tag_72\n        /* \"#utility.yul\":943:949   */\n      dup2\n        /* \"#utility.yul\":938:941   */\n      dup6\n        /* \"#utility.yul\":879:950   */\n      tag_38\n      jump\t// in\n    tag_72:\n        /* \"#utility.yul\":872:950   */\n      swap4\n      pop\n        /* \"#utility.yul\":959:1011   */\n      tag_73\n        /* \"#utility.yul\":1004:1010   */\n      dup2\n        /* \"#utility.yul\":999:1002   */\n      dup6\n        /* \"#utility.yul\":992:996   */\n      0x20\n        /* \"#utility.yul\":985:990   */\n      dup7\n        /* \"#utility.yul\":981:997   */\n      add\n        /* \"#utility.yul\":959:1011   */\n      tag_39\n      jump\t// in\n    tag_73:\n        /* \"#utility.yul\":1036:1065   */\n      tag_74\n        /* \"#utility.yul\":1058:1064   */\n      dup2\n        /* \"#utility.yul\":1036:1065   */\n      tag_40\n      jump\t// in\n    tag_74:\n        /* \"#utility.yul\":1031:1034   */\n      dup5\n        /* \"#utility.yul\":1027:1066   */\n      add\n        /* \"#utility.yul\":1020:1066   */\n      swap2\n      pop\n        /* \"#utility.yul\":800:1072   */\n      pop\n        /* \"#utility.yul\":708:1072   */\n      swap3\n      swap2\n      pop\n      pop\n      jump\t// out\n        /* \"#utility.yul\":1078:1391   */\n    tag_11:\n        /* \"#utility.yul\":1191:1195   */\n      0x00\n        /* \"#utility.yul\":1229:1231   */\n      0x20\n        /* \"#utility.yul\":1218:1227   */\n      dup3\n        /* \"#utility.yul\":1214:1232   */\n      add\n        /* \"#utility.yul\":1206:1232   */\n      swap1\n      pop\n        /* \"#utility.yul\":1278:1287   */\n      dup2\n        /* \"#utility.yul\":1272:1276   */\n      dup2\n        /* \"#utility.yul\":1268:1288   */\n      sub\n        /* \"#utility.yul\":1264:1265   */\n      0x00\n        /* \"#utility.yul\":1253:1262   */\n      dup4\n        /* \"#utility.yul\":1249:1266   */\n      add\n        /* \"#utility.yul\":1242:1289   */\n      mstore\n        /* \"#utility.yul\":1306:1384   */\n      tag_76\n        /* \"#utility.yul\":1379:1383   */\n      dup2\n        /* \"#utility.yul\":1370:1376   */\n      dup5\n        /* \"#utility.yul\":1306:1384   */\n      tag_41\n      jump\t// in\n    tag_76:\n        /* \"#utility.yul\":1298:1384   */\n      swap1\n      pop\n        /* \"#utility.yul\":1078:1391   */\n      swap3\n      swap2\n      pop\n      pop\n      jump\t// out\n        /* \"#utility.yul\":1397:1474   */\n    tag_42:\n        /* \"#utility.yul\":1434:1441   */\n      0x00\n        /* \"#utility.yul\":1463:1468   */\n      dup2\n        /* \"#utility.yul\":1452:1468   */\n      swap1\n      pop\n        /* \"#utility.yul\":1397:1474   */\n      swap2\n      swap1\n      pop\n      jump\t// out\n        /* \"#utility.yul\":1480:1598   */\n    tag_43:\n        /* \"#utility.yul\":1567:1591   */\n      tag_79\n        /* \"#utility.yul\":1585:1590   */\n      dup2\n        /* \"#utility.yul\":1567:1591   */\n      tag_42\n      jump\t// in\n    tag_79:\n        /* \"#utility.yul\":1562:1565   */\n      dup3\n        /* \"#utility.yul\":1555:1592   */\n      mstore\n        /* \"#utility.yul\":1480:1598   */\n      pop\n      pop\n      jump\t// out\n        /* \"#utility.yul\":1604:1826   */\n    tag_15:\n        /* \"#utility.yul\":1697:1701   */\n      0x00\n        /* \"#utility.yul\":1735:1737   */\n      0x20\n        /* \"#utility.yul\":1724:1733   */\n      dup3\n        /* \"#utility.yul\":1720:1738   */\n      add\n        /* \"#utility.yul\":1712:1738   */\n      swap1\n      pop\n        /* \"#utility.yul\":1748:1819   */\n      tag_81\n        /* \"#utility.yul\":1816:1817   */\n      0x00\n        /* \"#utility.yul\":1805:1814   */\n      dup4\n        /* \"#utility.yul\":1801:1818   */\n      add\n        /* \"#utility.yul\":1792:1798   */\n      dup5\n        /* \"#utility.yul\":1748:1819   */\n      tag_43\n      jump\t// in\n    tag_81:\n        /* \"#utility.yul\":1604:1826   */\n      swap3\n      swap2\n      pop\n      pop\n      jump\t// out\n        /* \"#utility.yul\":1832:2012   */\n    tag_44:\n        /* \"#utility.yul\":1880:1957   */\n      0x4e487b7100000000000000000000000000000000000000000000000000000000\n        /* \"#utility.yul\":1877:1878   */\n      0x00\n        /* \"#utility.yul\":1870:1958   */\n      mstore\n        /* \"#utility.yul\":1977:1981   */\n      0x22\n        /* \"#utility.yul\":1974:1975   */\n      0x04\n        /* \"#utility.yul\":1967:1982   */\n      mstore\n        /* \"#utility.yul\":2001:2005   */\n      0x24\n        /* \"#utility.yul\":1998:1999   */\n      0x00\n        /* \"#utility.yul\":1991:2006   */\n      revert\n        /* \"#utility.yul\":2018:2338   */\n    tag_24:\n        /* \"#utility.yul\":2062:2068   */\n      0x00\n        /* \"#utility.yul\":2099:2100   */\n      0x02\n        /* \"#utility.yul\":2093:2097   */\n      dup3\n        /* \"#utility.yul\":2089:2101   */\n      div\n        /* \"#utility.yul\":2079:2101   */\n      swap1\n      pop\n        /* \"#utility.yul\":2146:2147   */\n      0x01\n        /* \"#utility.yul\":2140:2144   */\n      dup3\n        /* \"#utility.yul\":2136:2148   */\n      and\n        /* \"#utility.yul\":2167:2185   */\n      dup1\n        /* \"#utility.yul\":2157:2238   */\n      tag_84\n      jumpi\n        /* \"#utility.yul\":2223:2227   */\n      0x7f\n        /* \"#utility.yul\":2215:2221   */\n      dup3\n        /* \"#utility.yul\":2211:2228   */\n      and\n        /* \"#utility.yul\":2201:2228   */\n      swap2\n      pop\n        /* \"#utility.yul\":2157:2238   */\n    tag_84:\n        /* \"#utility.yul\":2285:2287   */\n      0x20\n        /* \"#utility.yul\":2277:2283   */\n      dup3\n        /* \"#utility.yul\":2274:2288   */\n      lt\n        /* \"#utility.yul\":2254:2272   */\n      dup2\n        /* \"#utility.yul\":2251:2289   */\n      sub\n        /* \"#utility.yul\":2248:2332   */\n      tag_85\n      jumpi\n        /* \"#utility.yul\":2304:2322   */\n      tag_86\n      tag_44\n      jump\t// in\n    tag_86:\n        /* \"#utility.yul\":2248:2332   */\n    tag_85:\n        /* \"#utility.yul\":2069:2338   */\n      pop\n        /* \"#utility.yul\":2018:2338   */\n      swap2\n      swap1\n      pop\n      jump\t// out\n        /* \"#utility.yul\":2344:2524   */\n    tag_45:\n        /* \"#utility.yul\":2392:2469   */\n      0x4e487b7100000000000000000000000000000000000000000000000000000000\n        /* \"#utility.yul\":2389:2390   */\n      0x00\n        /* \"#utility.yul\":2382:2470   */\n      mstore\n        /* \"#utility.yul\":2489:2493   */\n      0x41\n        /* \"#utility.yul\":2486:2487   */\n      0x04\n        /* \"#utility.yul\":2479:2494   */\n      mstore\n        /* \"#utility.yul\":2513:2517   */\n      0x24\n        /* \"#utility.yul\":2510:2511   */\n      0x00\n        /* \"#utility.yul\":2503:2518   */\n      revert\n        /* \"#utility.yul\":2530:2671   */\n    tag_46:\n        /* \"#utility.yul\":2579:2583   */\n      0x00\n        /* \"#utility.yul\":2602:2605   */\n      dup2\n        /* \"#utility.yul\":2594:2605   */\n      swap1\n      pop\n        /* \"#utility.yul\":2625:2628   */\n      dup2\n        /* \"#utility.yul\":2622:2623   */\n      0x00\n        /* \"#utility.yul\":2615:2629   */\n      mstore\n        /* \"#utility.yul\":2659:2663   */\n      0x20\n        /* \"#utility.yul\":2656:2657   */\n      0x00\n        /* \"#utility.yul\":2646:2664   */\n      keccak256\n        /* \"#utility.yul\":2638:2664   */\n      swap1\n      pop\n        /* \"#utility.yul\":2530:2671   */\n      swap2\n      swap1\n      pop\n      jump\t// out\n        /* \"#utility.yul\":2677:2770   */\n    tag_47:\n        /* \"#utility.yul\":2714:2720   */\n      0x00\n        /* \"#utility.yul\":2761:2763   */\n      0x20\n        /* \"#utility.yul\":2756:2758   */\n      0x1f\n        /* \"#utility.yul\":2749:2754   */\n      dup4\n        /* \"#utility.yul\":2745:2759   */\n      add\n        /* \"#utility.yul\":2741:2764   */\n      div\n        /* \"#utility.yul\":2731:2764   */\n      swap1\n      pop\n        /* \"#utility.yul\":2677:2770   */\n      swap2\n      swap1\n      pop\n      jump\t// out\n        /* \"#utility.yul\":2776:2883   */\n    tag_48:\n        /* \"#utility.yul\":2820:2828   */\n      0x00\n        /* \"#utility.yul\":2870:2875   */\n      dup3\n        /* \"#utility.yul\":2864:2868   */\n      dup3\n        /* \"#utility.yul\":2860:2876   */\n      shl\n        /* \"#utility.yul\":2839:2876   */\n      swap1\n      pop\n        /* \"#utility.yul\":2776:2883   */\n      swap3\n      swap2\n      pop\n      pop\n      jump\t// out\n        /* \"#utility.yul\":2889:3282   */\n    tag_49:\n        /* \"#utility.yul\":2958:2964   */\n      0x00\n        /* \"#utility.yul\":3008:3009   */\n      0x08\n        /* \"#utility.yul\":2996:3006   */\n      dup4\n        /* \"#utility.yul\":2992:3010   */\n      mul\n        /* \"#utility.yul\":3031:3128   */\n      tag_92\n        /* \"#utility.yul\":3061:3127   */\n      0xffffffffffffffffffffffffffffffffffffffffffffffffffffffffffffffff\n        /* \"#utility.yul\":3050:3059   */\n      dup3\n        /* \"#utility.yul\":3031:3128   */\n      tag_48\n      jump\t// in\n    tag_92:\n        /* \"#utility.yul\":3149:3188   */\n      tag_93\n        /* \"#utility.yul\":3179:3187   */\n      dup7\n        /* \"#utility.yul\":3168:3177   */\n      dup4\n        /* \"#utility.yul\":3149:3188   */\n      tag_48\n      jump\t// in\n    tag_93:\n        /* \"#utility.yul\":3137:3188   */\n      swap6\n      pop\n        /* \"#utility.yul\":3221:3225   */\n      dup1\n        /* \"#utility.yul\":3217:3226   */\n      not\n        /* \"#utility.yul\":3210:3215   */\n      dup5\n        /* \"#utility.yul\":3206:3227   */\n      and\n        /* \"#utility.yul\":3197:3227   */\n      swap4\n      pop\n        /* \"#utility.yul\":3270:3274   */\n      dup1\n        /* \"#utility.yul\":3260:3268   */\n      dup7\n        /* \"#utility.yul\":3256:3275   */\n      and\n        /* \"#utility.yul\":3249:3254   */\n      dup5\n        /* \"#utility.yul\":3246:3276   */\n      or\n        /* \"#utility.yul\":3236:3276   */\n      swap3\n      pop\n        /* \"#utility.yul\":2965:3282   */\n      pop\n      pop\n        /* \"#utility.yul\":2889:3282   */\n      swap4\n      swap3\n      pop\n      pop\n      pop\n      jump\t// out\n        /* \"#utility.yul\":3288:3348   */\n    tag_50:\n        /* \"#utility.yul\":3316:3319   */\n      0x00\n        /* \"#utility.yul\":3337:3342   */\n      dup2\n        /* \"#utility.yul\":3330:3342   */\n      swap1\n      pop\n        /* \"#utility.yul\":3288:3348   */\n      swap2\n      swap1\n      pop\n      jump\t// out\n        /* \"#utility.yul\":3354:3496   */\n    tag_51:\n        /* \"#utility.yul\":3404:3413   */\n      0x00\n        /* \"#utility.yul\":3437:3490   */\n      tag_96\n        /* \"#utility.yul\":3455:3489   */\n      tag_97\n        /* \"#utility.yul\":3464:3488   */\n      tag_98\n        /* \"#utility.yul\":3482:3487   */\n      dup5\n        /* \"#utility.yul\":3464:3488   */\n      tag_42\n      jump\t// in\n    tag_98:\n        /* \"#utility.yul\":3455:3489   */\n      tag_50\n      jump\t// in\n    tag_97:\n        /* \"#utility.yul\":3437:3490   */\n      tag_42\n      jump\t// in\n    tag_96:\n        /* \"#utility.yul\":3424:3490   */\n      swap1\n      pop\n        /* \"#utility.yul\":3354:3496   */\n      swap2\n      swap1\n      pop\n      jump\t// out\n        /* \"#utility.yul\":3502:3577   */\n    tag_52:\n        /* \"#utility.yul\":3545:3548   */\n      0x00\n        /* \"#utility.yul\":3566:3571   */\n      dup2\n        /* \"#utility.yul\":3559:3571   */\n      swap1\n      pop\n        /* \"#utility.yul\":3502:3577   */\n      swap2\n      swap1\n      pop\n      jump\t// out\n        /* \"#utility.yul\":3583:3852   */\n    tag_53:\n        /* \"#utility.yul\":3693:3732   */\n      tag_101\n        /* \"#utility.yul\":3724:3731   */\n      dup4\n        /* \"#utility.yul\":3693:3732   */\n      tag_51\n      jump\t// in\n    tag_101:\n        /* \"#utility.yul\":3754:3845   */\n      tag_102\n        /* \"#utility.yul\":3803:3844   */\n      tag_103\n        /* \"#utility.yul\":3827:3843   */\n      dup3\n        /* \"#utility.yul\":3803:3844   */\n      tag_52\n      jump\t// in\n    tag_103:\n        /* \"#utility.yul\":3795:3801   */\n      dup5\n        /* \"#utility.yul\":3788:3792   */\n      dup5\n        /* \"#utility.yul\":3782:3793   */\n      sload\n        /* \"#utility.yul\":3754:3845   */\n      tag_49\n      jump\t// in\n    tag_102:\n        /* \"#utility.yul\":3748:3752   */\n      dup3\n        /* \"#utility.yul\":3741:3846   */\n      sstore\n        /* \"#utility.yul\":3659:3852   */\n      pop\n        /* \"#utility.yul\":3583:3852   */\n      pop\n      pop\n      pop\n      jump\t// out\n        /* \"#utility.yul\":3858:3931   */\n    tag_54:\n        /* \"#utility.yul\":3903:3906   */\n      0x00\n        /* \"#utility.yul\":3858:3931   */\n      swap1\n      jump\t// out\n        /* \"#utility.yul\":3937:4126   */\n    tag_55:\n        /* \"#utility.yul\":4014:4046   */\n      tag_106\n      tag_54\n      jump\t// in\n    tag_106:\n        /* \"#utility.yul\":4055:4120   */\n      tag_107\n        /* \"#utility.yul\":4113:4119   */\n      dup2\n        /* \"#utility.yul\":4105:4111   */\n      dup5\n        /* \"#utility.yul\":4099:4103   */\n      dup5\n        /* \"#utility.yul\":4055:4120   */\n      tag_53\n      jump\t// in\n    tag_107:\n        /* \"#utility.yul\":3990:4126   */\n      pop\n        /* \"#utility.yul\":3937:4126   */\n      pop\n      pop\n      jump\t// out\n        /* \"#utility.yul\":4132:4318   */\n    tag_56:\n        /* \"#utility.yul\":4192:4312   */\n    tag_109:\n        /* \"#utility.yul\":4209:4212   */\n      dup2\n        /* \"#utility.yul\":4202:4207   */\n      dup2\n        /* \"#utility.yul\":4199:4213   */\n      lt\n        /* \"#utility.yul\":4192:4312   */\n      iszero\n      tag_111\n      jumpi\n        /* \"#utility.yul\":4263:4302   */\n      tag_112\n        /* \"#utility.yul\":4300:4301   */\n      0x00\n        /* \"#utility.yul\":4293:4298   */\n      dup3\n        /* \"#utility.yul\":4263:4302   */\n      tag_55\n      jump\t// in\n    tag_112:\n        /* \"#utility.yul\":4236:4237   */\n      0x01\n        /* \"#utility.yul\":4229:4234   */\n      dup2\n        /* \"#utility.yul\":4225:4238   */\n      add\n        /* \"#utility.yul\":4216:4238   */\n      swap1\n      pop\n        /* \"#utility.yul\":4192:4312   */\n      jump(tag_109)\n    tag_111:\n        /* \"#utility.yul\":4132:4318   */\n      pop\n      pop\n      jump\t// out\n        /* \"#utility.yul\":4324:4867   */\n    tag_57:\n        /* \"#utility.yul\":4425:4427   */\n      0x1f\n        /* \"#utility.yul\":4420:4423   */\n      dup3\n        /* \"#utility.yul\":4417:4428   */\n      gt\n        /* \"#utility.yul\":4414:4860   */\n      iszero\n      tag_114\n      jumpi\n        /* \"#utility.yul\":4459:4497   */\n      tag_115\n        /* \"#utility.yul\":4491:4496   */\n      dup2\n        /* \"#utility.yul\":4459:4497   */\n      tag_46\n      jump\t// in\n    tag_115:\n        /* \"#utility.yul\":4543:4572   */\n      tag_116\n        /* \"#utility.yul\":4561:4571   */\n      dup5\n        /* \"#utility.yul\":4543:4572   */\n      tag_47\n      jump\t// in\n    tag_116:\n        /* \"#utility.yul\":4533:4541   */\n      dup2\n        /* \"#utility.yul\":4529:4573   */\n      add\n        /* \"#utility.yul\":4726:4728   */\n      0x20\n        /* \"#utility.yul\":4714:4724   */\n      dup6\n        /* \"#utility.yul\":4711:4729   */\n      lt\n        /* \"#utility.yul\":4708:4757   */\n      iszero\n      tag_117\n      jumpi\n        /* \"#utility.yul\":4747:4755   */\n      dup2\n        /* \"#utility.yul\":4732:4755   */\n      swap1\n      pop\n        /* \"#utility.yul\":4708:4757   */\n    tag_117:\n        /* \"#utility.yul\":4770:4850   */\n      tag_118\n        /* \"#utility.yul\":4826:4848   */\n      tag_119\n        /* \"#utility.yul\":4844:4847   */\n      dup6\n        /* \"#utility.yul\":4826:4848   */\n      tag_47\n      jump\t// in\n    tag_119:\n        /* \"#utility.yul\":4816:4824   */\n      dup4\n        /* \"#utility.yul\":4812:4849   */\n      add\n        /* \"#utility.yul\":4799:4810   */\n      dup3\n        /* \"#utility.yul\":4770:4850   */\n      tag_56\n      jump\t// in\n    tag_118:\n        /* \"#utility.yul\":4429:4860   */\n      pop\n      pop\n        /* \"#utility.yul\":4414:4860   */\n    tag_114:\n        /* \"#utility.yul\":4324:4867   */\n      pop\n      pop\n      pop\n      jump\t// out\n        /* \"#utility.yul\":4873:4990   */\n    tag_58:\n        /* \"#utility.yul\":4927:4935   */\n      0x00\n        /* \"#utility.yul\":4977:4982   */\n      dup3\n        /* \"#utility.yul\":4971:4975   */\n      dup3\n        /* \"#utility.yul\":4967:4983   */\n      shr\n        /* \"#utility.yul\":4946:4983   */\n      swap1\n      pop\n        /* \"#utility.yul\":4873:4990   */\n      swap3\n      swap2\n      pop\n      pop\n      jump\t// out\n        /* \"#utility.yul\":4996:5165   */\n    tag_59:\n        /* \"#utility.yul\":5040:5046   */\n      0x00\n        /* \"#utility.yul\":5073:5124   */\n      tag_122\n        /* \"#utility.yul\":5121:5122   */\n      0x00\n        /* \"#utility.yul\":5117:5123   */\n      not\n        /* \"#utility.yul\":5109:5114   */\n      dup5\n        /* \"#utility.yul\":5106:5107   */\n      0x08\n        /* \"#utility.yul\":5102:5115   */\n      mul\n        /* \"#utility.yul\":5073:5124   */\n      tag_58\n      jump\t// in\n    tag_122:\n        /* \"#utility.yul\":5069:5125   */\n      not\n        /* \"#utility.yul\":5154:5158   */\n      dup1\n        /* \"#utility.yul\":5148:5152   */\n      dup4\n        /* \"#utility.yul\":5144:5159   */\n      and\n        /* \"#utility.yul\":5134:5159   */\n      swap2\n      pop\n        /* \"#utility.yul\":5047:5165   */\n      pop\n        /* \"#utility.yul\":4996:5165   */\n      swap3\n      swap2\n      pop\n      pop\n      jump\t// out\n        /* \"#utility.yul\":5170:5465   */\n    tag_60:\n        /* \"#utility.yul\":5246:5250   */\n      0x00\n        /* \"#utility.yul\":5392:5421   */\n      tag_124\n        /* \"#utility.yul\":5417:5420   */\n      dup4\n        /* \"#utility.yul\":5411:5415   */\n      dup4\n        /* \"#utility.yul\":5392:5421   */\n      tag_59\n      jump\t// in\n    tag_124:\n        /* \"#utility.yul\":5384:5421   */\n      swap2\n      pop\n        /* \"#utility.yul\":5454:5457   */\n      dup3\n        /* \"#utility.yul\":5451:5452   */\n      0x02\n        /* \"#utility.yul\":5447:5458   */\n      mul\n        /* \"#utility.yul\":5441:5445   */\n      dup3\n        /* \"#utility.yul\":5438:5459   */\n      or\n        /* \"#utility.yul\":5430:5459   */\n      swap1\n      pop\n        /* \"#utility.yul\":5170:5465   */\n      swap3\n      swap2\n      pop\n      pop\n      jump\t// out\n        /* \"#utility.yul\":5470:6865   */\n    tag_36:\n        /* \"#utility.yul\":5587:5624   */\n      tag_126\n        /* \"#utility.yul\":5620:5623   */\n      dup3\n        /* \"#utility.yul\":5587:5624   */\n      tag_37\n      jump\t// in\n    tag_126:\n        /* \"#utility.yul\":5689:5707   */\n      0xffffffffffffffff\n        /* \"#utility.yul\":5681:5687   */\n      dup2\n        /* \"#utility.yul\":5678:5708   */\n      gt\n        /* \"#utility.yul\":5675:5731   */\n      iszero\n      tag_127\n      jumpi\n        /* \"#utility.yul\":5711:5729   */\n      tag_128\n      tag_45\n      jump\t// in\n    tag_128:\n        /* \"#utility.yul\":5675:5731   */\n    tag_127:\n        /* \"#utility.yul\":5755:5793   */\n      tag_129\n        /* \"#utility.yul\":5787:5791   */\n      dup3\n        /* \"#utility.yul\":5781:5792   */\n      sload\n        /* \"#utility.yul\":5755:5793   */\n      tag_24\n      jump\t// in\n    tag_129:\n        /* \"#utility.yul\":5840:5907   */\n      tag_130\n        /* \"#utility.yul\":5900:5906   */\n      dup3\n        /* \"#utility.yul\":5892:5898   */\n      dup3\n        /* \"#utility.yul\":5886:5890   */\n      dup6\n        /* \"#utility.yul\":5840:5907   */\n      tag_57\n      jump\t// in\n    tag_130:\n        /* \"#utility.yul\":5934:5935   */\n      0x00\n        /* \"#utility.yul\":5958:5962   */\n      0x20\n        /* \"#utility.yul\":5945:5962   */\n      swap1\n      pop\n        /* \"#utility.yul\":5990:5992   */\n      0x1f\n        /* \"#utility.yul\":5982:5988   */\n      dup4\n        /* \"#utility.yul\":5979:5993   */\n      gt\n        /* \"#utility.yul\":6007:6008   */\n      0x01\n        /* \"#utility.yul\":6002:6620   */\n      dup2\n      eq\n      tag_132\n      jumpi\n        /* \"#utility.yul\":6664:6665   */\n      0x00\n        /* \"#utility.yul\":6681:6687   */\n      dup5\n        /* \"#utility.yul\":6678:6755   */\n      iszero\n      tag_133\n      jumpi\n        /* \"#utility.yul\":6730:6739   */\n      dup3\n        /* \"#utility.yul\":6725:6728   */\n      dup8\n        /* \"#utility.yul\":6721:6740   */\n      add\n        /* \"#utility.yul\":6715:6741   */\n      mload\n        /* \"#utility.yul\":6706:6741   */\n      swap1\n      pop\n        /* \"#utility.yul\":6678:6755   */\n    tag_133:\n        /* \"#utility.yul\":6781:6848   */\n      tag_134\n        /* \"#utility.yul\":6841:6847   */\n      dup6\n        /* \"#utility.yul\":6834:6839   */\n      dup3\n        /* \"#utility.yul\":6781:6848   */\n      tag_60\n      jump\t// in\n    tag_134:\n        /* \"#utility.yul\":6775:6779   */\n      dup7\n        /* \"#utility.yul\":6768:6849   */\n      sstore\n        /* \"#utility.yul\":6637:6859   */\n      pop\n        /* \"#utility.yul\":5972:6859   */\n      jump(tag_131)\n        /* \"#utility.yul\":6002:6620   */\n    tag_132:\n        /* \"#utility.yul\":6054:6058   */\n      0x1f\n        /* \"#utility.yul\":6050:6059   */\n      not\n        /* \"#utility.yul\":6042:6048   */\n      dup5\n        /* \"#utility.yul\":6038:6060   */\n      and\n        /* \"#utility.yul\":6088:6125   */\n      tag_135\n        /* \"#utility.yul\":6120:6124   */\n      dup7\n        /* \"#utility.yul\":6088:6125   */\n      tag_46\n      jump\t// in\n    tag_135:\n        /* \"#utility.yul\":6147:6148   */\n      0x00\n        /* \"#utility.yul\":6161:6369   */\n    tag_136:\n        /* \"#utility.yul\":6175:6182   */\n      dup3\n        /* \"#utility.yul\":6172:6173   */\n      dup2\n        /* \"#utility.yul\":6169:6183   */\n      lt\n        /* \"#utility.yul\":6161:6369   */\n      iszero\n      tag_138\n      jumpi\n        /* \"#utility.yul\":6254:6263   */\n      dup5\n        /* \"#utility.yul\":6249:6252   */\n      dup10\n        /* \"#utility.yul\":6245:6264   */\n      add\n        /* \"#utility.yul\":6239:6265   */\n      mload\n        /* \"#utility.yul\":6231:6237   */\n      dup3\n        /* \"#utility.yul\":6224:6266   */\n      sstore\n        /* \"#utility.yul\":6305:6306   */\n      0x01\n        /* \"#utility.yul\":6297:6303   */\n      dup3\n        /* \"#utility.yul\":6293:6307   */\n      add\n        /* \"#utility.yul\":6283:6307   */\n      swap2\n      pop\n        /* \"#utility.yul\":6352:6354   */\n      0x20\n        /* \"#utility.yul\":6341:6350   */\n      dup6\n        /* \"#utility.yul\":6337:6355   */\n      add\n        /* \"#utility.yul\":6324:6355   */\n      swap5\n      pop\n        /* \"#utility.yul\":6198:6202   */\n      0x20\n        /* \"#utility.yul\":6195:6196   */\n      dup2\n        /* \"#utility.yul\":6191:6203   */\n      add\n        /* \"#utility.yul\":6186:6203   */\n      swap1\n      pop\n        /* \"#utility.yul\":6161:6369   */\n      jump(tag_136)\n    tag_138:\n        /* \"#utility.yul\":6397:6403   */\n      dup7\n        /* \"#utility.yul\":6388:6395   */\n      dup4\n        /* \"#utility.yul\":6385:6404   */\n      lt\n        /* \"#utility.yul\":6382:6561   */\n      iszero\n      tag_139\n      jumpi\n        /* \"#utility.yul\":6455:6464   */\n      dup5\n        /* \"#utility.yul\":6450:6453   */\n      dup10\n        /* \"#utility.yul\":6446:6465   */\n      add\n        /* \"#utility.yul\":6440:6466   */\n      mload\n        /* \"#utility.yul\":6498:6546   */\n      tag_140\n        /* \"#utility.yul\":6540:6544   */\n      0x1f\n        /* \"#utility.yul\":6532:6538   */\n      dup10\n        /* \"#utility.yul\":6528:6545   */\n      and\n        /* \"#utility.yul\":6517:6526   */\n      dup3\n        /* \"#utility.yul\":6498:6546   */\n      tag_59\n      jump\t// in\n    tag_140:\n        /* \"#utility.yul\":6490:6496   */\n      dup4\n        /* \"#utility.yul\":6483:6547   */\n      sstore\n        /* \"#utility.yul\":6405:6561   */\n      pop\n        /* \"#utility.yul\":6382:6561   */\n    tag_139:\n        /* \"#utility.yul\":6607:6608   */\n      0x01\n        /* \"#utility.yul\":6603:6604   */\n      0x02\n        /* \"#utility.yul\":6595:6601   */\n      dup9\n        /* \"#utility.yul\":6591:6605   */\n      mul\n        /* \"#utility.yul\":6587:6609   */\n      add\n        /* \"#utility.yul\":6581:6585   */\n      dup9\n        /* \"#utility.yul\":6574:6610   */\n      sstore\n        /* \"#utility.yul\":6009:6620   */\n      pop\n      pop\n      pop\n        /* \"#utility.yul\":5972:6859   */\n    tag_131:\n      pop\n        /* \"#utility.yul\":5562:6865   */\n      pop\n      pop\n      pop\n        /* \"#utility.yul\":5470:6865   */\n      pop\n      pop\n      jump\t// out\n\n    auxdata: 0xa264697066735822122045e63f4050a6bbf4c7d4642e1db986c1fe80d7bd9f654f095d028a1afe46879164736f6c634300080f0033\n}\n",
				"bytecode": {
					"linkReferences": {},
					"object": "6080604052600960005534801561001557600080fd5b5061060c806100256000396000f3fe608060405234801561001057600080fd5b50600436106100575760003560e01c806306fdde031461005c5780636fd5ae151461007a578063751515a814610098578063d39aba1e146100a2578063d9a7430e146100c0575b600080fd5b6100646100ca565b6040516100719190610273565b60405180910390f35b610082610158565b60405161008f91906102ae565b60405180910390f35b6100a061015e565b005b6100aa61017b565b6040516100b791906102ae565b60405180910390f35b6100c8610181565b005b600180546100d7906102f8565b80601f0160208091040260200160405190810160405280929190818152602001828054610103906102f8565b80156101505780601f1061012557610100808354040283529160200191610150565b820191906000526020600020905b81548152906001019060200180831161013357829003601f168201915b505050505081565b60005481565b600a80600054101561016f57600080fd5b6103e760028190555050565b60025481565b600280600054101561019257600080fd5b6040518060400160405280600d81526020017f7465636879616e676a69616e6700000000000000000000000000000000000000815250600190816101d69190610504565b5050565b600081519050919050565b600082825260208201905092915050565b60005b838110156102145780820151818401526020810190506101f9565b83811115610223576000848401525b50505050565b6000601f19601f8301169050919050565b6000610245826101da565b61024f81856101e5565b935061025f8185602086016101f6565b61026881610229565b840191505092915050565b6000602082019050818103600083015261028d818461023a565b905092915050565b6000819050919050565b6102a881610295565b82525050565b60006020820190506102c3600083018461029f565b92915050565b7f4e487b7100000000000000000000000000000000000000000000000000000000600052602260045260246000fd5b6000600282049050600182168061031057607f821691505b602082108103610323576103226102c9565b5b50919050565b7f4e487b7100000000000000000000000000000000000000000000000000000000600052604160045260246000fd5b60008190508160005260206000209050919050565b60006020601f8301049050919050565b600082821b905092915050565b6000600883026103ba7fffffffffffffffffffffffffffffffffffffffffffffffffffffffffffffffff8261037d565b6103c4868361037d565b95508019841693508086168417925050509392505050565b6000819050919050565b60006104016103fc6103f784610295565b6103dc565b610295565b9050919050565b6000819050919050565b61041b836103e6565b61042f61042782610408565b84845461038a565b825550505050565b600090565b610444610437565b61044f818484610412565b505050565b5b818110156104735761046860008261043c565b600181019050610455565b5050565b601f8211156104b85761048981610358565b6104928461036d565b810160208510156104a1578190505b6104b56104ad8561036d565b830182610454565b50505b505050565b600082821c905092915050565b60006104db600019846008026104bd565b1980831691505092915050565b60006104f483836104ca565b9150826002028217905092915050565b61050d826101da565b67ffffffffffffffff81111561052657610525610329565b5b61053082546102f8565b61053b828285610477565b600060209050601f83116001811461056e576000841561055c578287015190505b61056685826104e8565b8655506105ce565b601f19841661057c86610358565b60005b828110156105a45784890151825560018201915060208501945060208101905061057f565b868310156105c157848901516105bd601f8916826104ca565b8355505b6001600288020188555050505b50505050505056fea264697066735822122045e63f4050a6bbf4c7d4642e1db986c1fe80d7bd9f654f095d028a1afe46879164736f6c634300080f0033",
					"opcodes": "PUSH1 0x80 PUSH1 0x40 MSTORE PUSH1 0x9 PUSH1 0x0 SSTORE CALLVALUE DUP1 ISZERO PUSH2 0x15 JUMPI PUSH1 0x0 DUP1 REVERT JUMPDEST POP PUSH2 0x60C DUP1 PUSH2 0x25 PUSH1 0x0 CODECOPY PUSH1 0x0 RETURN INVALID PUSH1 0x80 PUSH1 0x40 MSTORE CALLVALUE DUP1 ISZERO PUSH2 0x10 JUMPI PUSH1 0x0 DUP1 REVERT JUMPDEST POP PUSH1 0x4 CALLDATASIZE LT PUSH2 0x57 JUMPI PUSH1 0x0 CALLDATALOAD PUSH1 0xE0 SHR DUP1 PUSH4 0x6FDDE03 EQ PUSH2 0x5C JUMPI DUP1 PUSH4 0x6FD5AE15 EQ PUSH2 0x7A JUMPI DUP1 PUSH4 0x751515A8 EQ PUSH2 0x98 JUMPI DUP1 PUSH4 0xD39ABA1E EQ PUSH2 0xA2 JUMPI DUP1 PUSH4 0xD9A7430E EQ PUSH2 0xC0 JUMPI JUMPDEST PUSH1 0x0 DUP1 REVERT JUMPDEST PUSH2 0x64 PUSH2 0xCA JUMP JUMPDEST PUSH1 0x40 MLOAD PUSH2 0x71 SWAP2 SWAP1 PUSH2 0x273 JUMP JUMPDEST PUSH1 0x40 MLOAD DUP1 SWAP2 SUB SWAP1 RETURN JUMPDEST PUSH2 0x82 PUSH2 0x158 JUMP JUMPDEST PUSH1 0x40 MLOAD PUSH2 0x8F SWAP2 SWAP1 PUSH2 0x2AE JUMP JUMPDEST PUSH1 0x40 MLOAD DUP1 SWAP2 SUB SWAP1 RETURN JUMPDEST PUSH2 0xA0 PUSH2 0x15E JUMP JUMPDEST STOP JUMPDEST PUSH2 0xAA PUSH2 0x17B JUMP JUMPDEST PUSH1 0x40 MLOAD PUSH2 0xB7 SWAP2 SWAP1 PUSH2 0x2AE JUMP JUMPDEST PUSH1 0x40 MLOAD DUP1 SWAP2 SUB SWAP1 RETURN JUMPDEST PUSH2 0xC8 PUSH2 0x181 JUMP JUMPDEST STOP JUMPDEST PUSH1 0x1 DUP1 SLOAD PUSH2 0xD7 SWAP1 PUSH2 0x2F8 JUMP JUMPDEST DUP1 PUSH1 0x1F ADD PUSH1 0x20 DUP1 SWAP2 DIV MUL PUSH1 0x20 ADD PUSH1 0x40 MLOAD SWAP1 DUP2 ADD PUSH1 0x40 MSTORE DUP1 SWAP3 SWAP2 SWAP1 DUP2 DUP2 MSTORE PUSH1 0x20 ADD DUP3 DUP1 SLOAD PUSH2 0x103 SWAP1 PUSH2 0x2F8 JUMP JUMPDEST DUP1 ISZERO PUSH2 0x150 JUMPI DUP1 PUSH1 0x1F LT PUSH2 0x125 JUMPI PUSH2 0x100 DUP1 DUP4 SLOAD DIV MUL DUP4 MSTORE SWAP2 PUSH1 0x20 ADD SWAP2 PUSH2 0x150 JUMP JUMPDEST DUP3 ADD SWAP2 SWAP1 PUSH1 0x0 MSTORE PUSH1 0x20 PUSH1 0x0 KECCAK256 SWAP1 JUMPDEST DUP2 SLOAD DUP2 MSTORE SWAP1 PUSH1 0x1 ADD SWAP1 PUSH1 0x20 ADD DUP1 DUP4 GT PUSH2 0x133 JUMPI DUP3 SWAP1 SUB PUSH1 0x1F AND DUP3 ADD SWAP2 JUMPDEST POP POP POP POP POP DUP2 JUMP JUMPDEST PUSH1 0x0 SLOAD DUP2 JUMP JUMPDEST PUSH1 0xA DUP1 PUSH1 0x0 SLOAD LT ISZERO PUSH2 0x16F JUMPI PUSH1 0x0 DUP1 REVERT JUMPDEST PUSH2 0x3E7 PUSH1 0x2 DUP2 SWAP1 SSTORE POP POP JUMP JUMPDEST PUSH1 0x2 SLOAD DUP2 JUMP JUMPDEST PUSH1 0x2 DUP1 PUSH1 0x0 SLOAD LT ISZERO PUSH2 0x192 JUMPI PUSH1 0x0 DUP1 REVERT JUMPDEST PUSH1 0x40 MLOAD DUP1 PUSH1 0x40 ADD PUSH1 0x40 MSTORE DUP1 PUSH1 0xD DUP2 MSTORE PUSH1 0x20 ADD PUSH32 0x7465636879616E676A69616E6700000000000000000000000000000000000000 DUP2 MSTORE POP PUSH1 0x1 SWAP1 DUP2 PUSH2 0x1D6 SWAP2 SWAP1 PUSH2 0x504 JUMP JUMPDEST POP POP JUMP JUMPDEST PUSH1 0x0 DUP2 MLOAD SWAP1 POP SWAP2 SWAP1 POP JUMP JUMPDEST PUSH1 0x0 DUP3 DUP3 MSTORE PUSH1 0x20 DUP3 ADD SWAP1 POP SWAP3 SWAP2 POP POP JUMP JUMPDEST PUSH1 0x0 JUMPDEST DUP4 DUP2 LT ISZERO PUSH2 0x214 JUMPI DUP1 DUP3 ADD MLOAD DUP2 DUP5 ADD MSTORE PUSH1 0x20 DUP2 ADD SWAP1 POP PUSH2 0x1F9 JUMP JUMPDEST DUP4 DUP2 GT ISZERO PUSH2 0x223 JUMPI PUSH1 0x0 DUP5 DUP5 ADD MSTORE JUMPDEST POP POP POP POP JUMP JUMPDEST PUSH1 0x0 PUSH1 0x1F NOT PUSH1 0x1F DUP4 ADD AND SWAP1 POP SWAP2 SWAP1 POP JUMP JUMPDEST PUSH1 0x0 PUSH2 0x245 DUP3 PUSH2 0x1DA JUMP JUMPDEST PUSH2 0x24F DUP2 DUP6 PUSH2 0x1E5 JUMP JUMPDEST SWAP4 POP PUSH2 0x25F DUP2 DUP6 PUSH1 0x20 DUP7 ADD PUSH2 0x1F6 JUMP JUMPDEST PUSH2 0x268 DUP2 PUSH2 0x229 JUMP JUMPDEST DUP5 ADD SWAP2 POP POP SWAP3 SWAP2 POP POP JUMP JUMPDEST PUSH1 0x0 PUSH1 0x20 DUP3 ADD SWAP1 POP DUP2 DUP2 SUB PUSH1 0x0 DUP4 ADD MSTORE PUSH2 0x28D DUP2 DUP5 PUSH2 0x23A JUMP JUMPDEST SWAP1 POP SWAP3 SWAP2 POP POP JUMP JUMPDEST PUSH1 0x0 DUP2 SWAP1 POP SWAP2 SWAP1 POP JUMP JUMPDEST PUSH2 0x2A8 DUP2 PUSH2 0x295 JUMP JUMPDEST DUP3 MSTORE POP POP JUMP JUMPDEST PUSH1 0x0 PUSH1 0x20 DUP3 ADD SWAP1 POP PUSH2 0x2C3 PUSH1 0x0 DUP4 ADD DUP5 PUSH2 0x29F JUMP JUMPDEST SWAP3 SWAP2 POP POP JUMP JUMPDEST PUSH32 0x4E487B7100000000000000000000000000000000000000000000000000000000 PUSH1 0x0 MSTORE PUSH1 0x22 PUSH1 0x4 MSTORE PUSH1 0x24 PUSH1 0x0 REVERT JUMPDEST PUSH1 0x0 PUSH1 0x2 DUP3 DIV SWAP1 POP PUSH1 0x1 DUP3 AND DUP1 PUSH2 0x310 JUMPI PUSH1 0x7F DUP3 AND SWAP2 POP JUMPDEST PUSH1 0x20 DUP3 LT DUP2 SUB PUSH2 0x323 JUMPI PUSH2 0x322 PUSH2 0x2C9 JUMP JUMPDEST JUMPDEST POP SWAP2 SWAP1 POP JUMP JUMPDEST PUSH32 0x4E487B7100000000000000000000000000000000000000000000000000000000 PUSH1 0x0 MSTORE PUSH1 0x41 PUSH1 0x4 MSTORE PUSH1 0x24 PUSH1 0x0 REVERT JUMPDEST PUSH1 0x0 DUP2 SWAP1 POP DUP2 PUSH1 0x0 MSTORE PUSH1 0x20 PUSH1 0x0 KECCAK256 SWAP1 POP SWAP2 SWAP1 POP JUMP JUMPDEST PUSH1 0x0 PUSH1 0x20 PUSH1 0x1F DUP4 ADD DIV SWAP1 POP SWAP2 SWAP1 POP JUMP JUMPDEST PUSH1 0x0 DUP3 DUP3 SHL SWAP1 POP SWAP3 SWAP2 POP POP JUMP JUMPDEST PUSH1 0x0 PUSH1 0x8 DUP4 MUL PUSH2 0x3BA PUSH32 0xFFFFFFFFFFFFFFFFFFFFFFFFFFFFFFFFFFFFFFFFFFFFFFFFFFFFFFFFFFFFFFFF DUP3 PUSH2 0x37D JUMP JUMPDEST PUSH2 0x3C4 DUP7 DUP4 PUSH2 0x37D JUMP JUMPDEST SWAP6 POP DUP1 NOT DUP5 AND SWAP4 POP DUP1 DUP7 AND DUP5 OR SWAP3 POP POP POP SWAP4 SWAP3 POP POP POP JUMP JUMPDEST PUSH1 0x0 DUP2 SWAP1 POP SWAP2 SWAP1 POP JUMP JUMPDEST PUSH1 0x0 PUSH2 0x401 PUSH2 0x3FC PUSH2 0x3F7 DUP5 PUSH2 0x295 JUMP JUMPDEST PUSH2 0x3DC JUMP JUMPDEST PUSH2 0x295 JUMP JUMPDEST SWAP1 POP SWAP2 SWAP1 POP JUMP JUMPDEST PUSH1 0x0 DUP2 SWAP1 POP SWAP2 SWAP1 POP JUMP JUMPDEST PUSH2 0x41B DUP4 PUSH2 0x3E6 JUMP JUMPDEST PUSH2 0x42F PUSH2 0x427 DUP3 PUSH2 0x408 JUMP JUMPDEST DUP5 DUP5 SLOAD PUSH2 0x38A JUMP JUMPDEST DUP3 SSTORE POP POP POP POP JUMP JUMPDEST PUSH1 0x0 SWAP1 JUMP JUMPDEST PUSH2 0x444 PUSH2 0x437 JUMP JUMPDEST PUSH2 0x44F DUP2 DUP5 DUP5 PUSH2 0x412 JUMP JUMPDEST POP POP POP JUMP JUMPDEST JUMPDEST DUP2 DUP2 LT ISZERO PUSH2 0x473 JUMPI PUSH2 0x468 PUSH1 0x0 DUP3 PUSH2 0x43C JUMP JUMPDEST PUSH1 0x1 DUP2 ADD SWAP1 POP PUSH2 0x455 JUMP JUMPDEST POP POP JUMP JUMPDEST PUSH1 0x1F DUP3 GT ISZERO PUSH2 0x4B8 JUMPI PUSH2 0x489 DUP2 PUSH2 0x358 JUMP JUMPDEST PUSH2 0x492 DUP5 PUSH2 0x36D JUMP JUMPDEST DUP2 ADD PUSH1 0x20 DUP6 LT ISZERO PUSH2 0x4A1 JUMPI DUP2 SWAP1 POP JUMPDEST PUSH2 0x4B5 PUSH2 0x4AD DUP6 PUSH2 0x36D JUMP JUMPDEST DUP4 ADD DUP3 PUSH2 0x454 JUMP JUMPDEST POP POP JUMPDEST POP POP POP JUMP JUMPDEST PUSH1 0x0 DUP3 DUP3 SHR SWAP1 POP SWAP3 SWAP2 POP POP JUMP JUMPDEST PUSH1 0x0 PUSH2 0x4DB PUSH1 0x0 NOT DUP5 PUSH1 0x8 MUL PUSH2 0x4BD JUMP JUMPDEST NOT DUP1 DUP4 AND SWAP2 POP POP SWAP3 SWAP2 POP POP JUMP JUMPDEST PUSH1 0x0 PUSH2 0x4F4 DUP4 DUP4 PUSH2 0x4CA JUMP JUMPDEST SWAP2 POP DUP3 PUSH1 0x2 MUL DUP3 OR SWAP1 POP SWAP3 SWAP2 POP POP JUMP JUMPDEST PUSH2 0x50D DUP3 PUSH2 0x1DA JUMP JUMPDEST PUSH8 0xFFFFFFFFFFFFFFFF DUP2 GT ISZERO PUSH2 0x526 JUMPI PUSH2 0x525 PUSH2 0x329 JUMP JUMPDEST JUMPDEST PUSH2 0x530 DUP3 SLOAD PUSH2 0x2F8 JUMP JUMPDEST PUSH2 0x53B DUP3 DUP3 DUP6 PUSH2 0x477 JUMP JUMPDEST PUSH1 0x0 PUSH1 0x20 SWAP1 POP PUSH1 0x1F DUP4 GT PUSH1 0x1 DUP2 EQ PUSH2 0x56E JUMPI PUSH1 0x0 DUP5 ISZERO PUSH2 0x55C JUMPI DUP3 DUP8 ADD MLOAD SWAP1 POP JUMPDEST PUSH2 0x566 DUP6 DUP3 PUSH2 0x4E8 JUMP JUMPDEST DUP7 SSTORE POP PUSH2 0x5CE JUMP JUMPDEST PUSH1 0x1F NOT DUP5 AND PUSH2 0x57C DUP7 PUSH2 0x358 JUMP JUMPDEST PUSH1 0x0 JUMPDEST DUP3 DUP2 LT ISZERO PUSH2 0x5A4 JUMPI DUP5 DUP10 ADD MLOAD DUP3 SSTORE PUSH1 0x1 DUP3 ADD SWAP2 POP PUSH1 0x20 DUP6 ADD SWAP5 POP PUSH1 0x20 DUP2 ADD SWAP1 POP PUSH2 0x57F JUMP JUMPDEST DUP7 DUP4 LT ISZERO PUSH2 0x5C1 JUMPI DUP5 DUP10 ADD MLOAD PUSH2 0x5BD PUSH1 0x1F DUP10 AND DUP3 PUSH2 0x4CA JUMP JUMPDEST DUP4 SSTORE POP JUMPDEST PUSH1 0x1 PUSH1 0x2 DUP9 MUL ADD DUP9 SSTORE POP POP POP JUMPDEST POP POP POP POP POP POP JUMP INVALID LOG2 PUSH5 0x6970667358 0x22 SLT KECCAK256 GASLIMIT 0xE6 EXTCODEHASH BLOCKHASH POP 0xA6 0xBB DELEGATECALL 0xC7 0xD4 PUSH5 0x2E1DB986C1 INVALID DUP1 0xD7 0xBD SWAP16 PUSH6 0x4F095D028A1A INVALID CHAINID DUP8 SWAP2 PUSH5 0x736F6C6343 STOP ADDMOD 0xF STOP CALLER "
				},
				"gasEstimates": {
					"creation": {
						"codeDepositCost": "309600",
						"executionCost": "22455",
						"totalCost": "332055"
					},
					"external": {
						"DNA()": "2473",
						"changeDNA()": "24411",
						"changeName()": "infinite",
						"level()": "2429",
						"name()": "infinite"
					}
				},
				"methodIdentifiers": {
					"DNA()": "d39aba1e",
					"changeDNA()": "751515a8",
					"changeName()": "d9a7430e",
					"level()": "6fd5ae15",
					"name()": "06fdde03"
				}
			},
			"storageLayout": {
				"storage": [
					{
						"astId": 4,
						"contract": "contracts/ModifierTest.sol:ModifierTest",
						"label": "level",
						"offset": 0,
						"slot": "0",
						"type": "t_uint256"
					},
					{
						"astId": 6,
						"contract": "contracts/ModifierTest.sol:ModifierTest",
						"label": "name",
						"offset": 0,
						"slot": "1",
						"type": "t_string_storage"
					},
					{
						"astId": 8,
						"contract": "contracts/ModifierTest.sol:ModifierTest",
						"label": "DNA",
						"offset": 0,
						"slot": "2",
						"type": "t_uint256"
					}
				],
				"types": {
					"t_string_storage": {
						"encoding": "bytes",
						"label": "string",
						"numberOfBytes": "32"
					},
					"t_uint256": {
						"encoding": "inplace",
						"label": "uint256",
						"numberOfBytes": "32"
					}
				}
			},
			"userdoc": {
				"kind": "user",
				"methods": {},
				"version": 1
			}
		}
	}
}