{
	"contracts/FundMe.sol": {
		"FundMe": {
			"abi": [
				{
					"inputs": [],
					"stateMutability": "nonpayable",
					"type": "constructor"
				},
				{
					"inputs": [],
					"name": "NotOwner",
					"type": "error"
				},
				{
					"stateMutability": "payable",
					"type": "fallback"
				},
				{
					"inputs": [],
					"name": "MINIMUM_USD",
					"outputs": [
						{
							"internalType": "uint256",
							"name": "",
							"type": "uint256"
						}
					],
					"stateMutability": "view",
					"type": "function"
				},
				{
					"inputs": [
						{
							"internalType": "address",
							"name": "",
							"type": "address"
						}
					],
					"name": "addressToAmountFunded",
					"outputs": [
						{
							"internalType": "uint256",
							"name": "",
							"type": "uint256"
						}
					],
					"stateMutability": "view",
					"type": "function"
				},
				{
					"inputs": [],
					"name": "fund",
					"outputs": [],
					"stateMutability": "payable",
					"type": "function"
				},
				{
					"inputs": [
						{
							"internalType": "uint256",
							"name": "",
							"type": "uint256"
						}
					],
					"name": "funders",
					"outputs": [
						{
							"internalType": "address",
							"name": "",
							"type": "address"
						}
					],
					"stateMutability": "view",
					"type": "function"
				},
				{
					"inputs": [],
					"name": "getVersion",
					"outputs": [
						{
							"internalType": "uint256",
							"name": "",
							"type": "uint256"
						}
					],
					"stateMutability": "view",
					"type": "function"
				},
				{
					"inputs": [],
					"name": "i_owner",
					"outputs": [
						{
							"internalType": "address",
							"name": "",
							"type": "address"
						}
					],
					"stateMutability": "view",
					"type": "function"
				},
				{
					"inputs": [],
					"name": "withdraw",
					"outputs": [],
					"stateMutability": "payable",
					"type": "function"
				},
				{
					"stateMutability": "payable",
					"type": "receive"
				}
			],
			"devdoc": {
				"kind": "dev",
				"methods": {},
				"version": 1
			},
			"evm": {
				"assembly": "    /* \"contracts/FundMe.sol\":186:1550  contract FundMe {... */\n  mstore(0x40, 0x80)\n    /* \"contracts/FundMe.sol\":426:477  constructor() {... */\n  callvalue\n  dup1\n  iszero\n  tag_1\n  jumpi\n  0x00\n  dup1\n  revert\ntag_1:\n  pop\n    /* \"contracts/FundMe.sol\":460:470  msg.sender */\n  caller\n    /* \"contracts/FundMe.sol\":450:457  i_owner */\n  0x02\n  0x00\n    /* \"contracts/FundMe.sol\":450:470  i_owner = msg.sender */\n  0x0100\n  exp\n  dup2\n  sload\n  dup2\n  0xffffffffffffffffffffffffffffffffffffffff\n  mul\n  not\n  and\n  swap1\n  dup4\n  0xffffffffffffffffffffffffffffffffffffffff\n  and\n  mul\n  or\n  swap1\n  sstore\n  pop\n    /* \"contracts/FundMe.sol\":186:1550  contract FundMe {... */\n  dataSize(sub_0)\n  dup1\n  dataOffset(sub_0)\n  0x00\n  codecopy\n  0x00\n  return\nstop\n\nsub_0: assembly {\n        /* \"contracts/FundMe.sol\":186:1550  contract FundMe {... */\n      mstore(0x40, 0x80)\n      jumpi(tag_1, lt(calldatasize, 0x04))\n      shr(0xe0, calldataload(0x00))\n      dup1\n      0x6b69a592\n      gt\n      tag_10\n      jumpi\n      dup1\n      0x6b69a592\n      eq\n      tag_6\n      jumpi\n      dup1\n      0xb60d4288\n      eq\n      tag_7\n      jumpi\n      dup1\n      0xdba6335f\n      eq\n      tag_8\n      jumpi\n      dup1\n      0xdc0d3dff\n      eq\n      tag_9\n      jumpi\n      jump(tag_2)\n    tag_10:\n      dup1\n      0x0d8e6e2c\n      eq\n      tag_3\n      jumpi\n      dup1\n      0x3ccfd60b\n      eq\n      tag_4\n      jumpi\n      dup1\n      0x3e47d6f3\n      eq\n      tag_5\n      jumpi\n      jump(tag_2)\n    tag_1:\n      jumpi(tag_2, calldatasize)\n        /* \"contracts/FundMe.sol\":1534:1540  fund() */\n      tag_13\n        /* \"contracts/FundMe.sol\":1534:1538  fund */\n      tag_14\n        /* \"contracts/FundMe.sol\":1534:1540  fund() */\n      jump\t// in\n    tag_13:\n        /* \"contracts/FundMe.sol\":186:1550  contract FundMe {... */\n      stop\n    tag_2:\n        /* \"contracts/FundMe.sol\":1478:1484  fund() */\n      tag_17\n        /* \"contracts/FundMe.sol\":1478:1482  fund */\n      tag_14\n        /* \"contracts/FundMe.sol\":1478:1484  fund() */\n      jump\t// in\n    tag_17:\n        /* \"contracts/FundMe.sol\":186:1550  contract FundMe {... */\n      stop\n        /* \"contracts/FundMe.sol\":709:913  function getVersion() public view returns (uint256) {... */\n    tag_3:\n      callvalue\n      dup1\n      iszero\n      tag_18\n      jumpi\n      0x00\n      dup1\n      revert\n    tag_18:\n      pop\n      tag_19\n      tag_20\n      jump\t// in\n    tag_19:\n      mload(0x40)\n      tag_21\n      swap2\n      swap1\n      tag_22\n      jump\t// in\n    tag_21:\n      mload(0x40)\n      dup1\n      swap2\n      sub\n      swap1\n      return\n        /* \"contracts/FundMe.sol\":1016:1434  function withdraw() payable onlyOwner public {... */\n    tag_4:\n      tag_23\n      tag_24\n      jump\t// in\n    tag_23:\n      stop\n        /* \"contracts/FundMe.sol\":247:303  mapping(address => uint256) public addressToAmountFunded */\n    tag_5:\n      callvalue\n      dup1\n      iszero\n      tag_25\n      jumpi\n      0x00\n      dup1\n      revert\n    tag_25:\n      pop\n      tag_26\n      0x04\n      dup1\n      calldatasize\n      sub\n      dup2\n      add\n      swap1\n      tag_27\n      swap2\n      swap1\n      tag_28\n      jump\t// in\n    tag_27:\n      tag_29\n      jump\t// in\n    tag_26:\n      mload(0x40)\n      tag_30\n      swap2\n      swap1\n      tag_22\n      jump\t// in\n    tag_30:\n      mload(0x40)\n      dup1\n      swap2\n      sub\n      swap1\n      return\n        /* \"contracts/FundMe.sol\":369:420  uint256 public constant MINIMUM_USD = 50 * 10 ** 18 */\n    tag_6:\n      callvalue\n      dup1\n      iszero\n      tag_31\n      jumpi\n      0x00\n      dup1\n      revert\n    tag_31:\n      pop\n      tag_32\n      tag_33\n      jump\t// in\n    tag_32:\n      mload(0x40)\n      tag_34\n      swap2\n      swap1\n      tag_22\n      jump\t// in\n    tag_34:\n      mload(0x40)\n      dup1\n      swap2\n      sub\n      swap1\n      return\n        /* \"contracts/FundMe.sol\":483:703  function fund() public payable {... */\n    tag_7:\n      tag_35\n      tag_14\n      jump\t// in\n    tag_35:\n      stop\n        /* \"contracts/FundMe.sol\":341:363  address public i_owner */\n    tag_8:\n      callvalue\n      dup1\n      iszero\n      tag_36\n      jumpi\n      0x00\n      dup1\n      revert\n    tag_36:\n      pop\n      tag_37\n      tag_38\n      jump\t// in\n    tag_37:\n      mload(0x40)\n      tag_39\n      swap2\n      swap1\n      tag_40\n      jump\t// in\n    tag_39:\n      mload(0x40)\n      dup1\n      swap2\n      sub\n      swap1\n      return\n        /* \"contracts/FundMe.sol\":309:334  address [] public funders */\n    tag_9:\n      callvalue\n      dup1\n      iszero\n      tag_41\n      jumpi\n      0x00\n      dup1\n      revert\n    tag_41:\n      pop\n      tag_42\n      0x04\n      dup1\n      calldatasize\n      sub\n      dup2\n      add\n      swap1\n      tag_43\n      swap2\n      swap1\n      tag_44\n      jump\t// in\n    tag_43:\n      tag_45\n      jump\t// in\n    tag_42:\n      mload(0x40)\n      tag_46\n      swap2\n      swap1\n      tag_40\n      jump\t// in\n    tag_46:\n      mload(0x40)\n      dup1\n      swap2\n      sub\n      swap1\n      return\n        /* \"contracts/FundMe.sol\":483:703  function fund() public payable {... */\n    tag_14:\n        /* \"contracts/FundMe.sol\":407:420  50 * 10 ** 18 */\n      0x02b5e3af16b1880000\n        /* \"contracts/FundMe.sol\":532:561  msg.value.getConversionRate() */\n      tag_48\n        /* \"contracts/FundMe.sol\":532:541  msg.value */\n      callvalue\n        /* \"contracts/FundMe.sol\":532:559  msg.value.getConversionRate */\n      tag_49\n        /* \"contracts/FundMe.sol\":532:561  msg.value.getConversionRate() */\n      jump\t// in\n    tag_48:\n        /* \"contracts/FundMe.sol\":532:576  msg.value.getConversionRate() >= MINIMUM_USD */\n      lt\n      iszero\n        /* \"contracts/FundMe.sol\":524:607  require(msg.value.getConversionRate() >= MINIMUM_USD,\"You need to spend more ETH!\") */\n      tag_50\n      jumpi\n      mload(0x40)\n      0x08c379a000000000000000000000000000000000000000000000000000000000\n      dup2\n      mstore\n      0x04\n      add\n      tag_51\n      swap1\n      tag_52\n      jump\t// in\n    tag_51:\n      mload(0x40)\n      dup1\n      swap2\n      sub\n      swap1\n      revert\n    tag_50:\n        /* \"contracts/FundMe.sol\":653:662  msg.value */\n      callvalue\n        /* \"contracts/FundMe.sol\":617:638  addressToAmountFunded */\n      0x00\n        /* \"contracts/FundMe.sol\":617:650  addressToAmountFunded[msg.sender] */\n      dup1\n        /* \"contracts/FundMe.sol\":639:649  msg.sender */\n      caller\n        /* \"contracts/FundMe.sol\":617:650  addressToAmountFunded[msg.sender] */\n      0xffffffffffffffffffffffffffffffffffffffff\n      and\n      0xffffffffffffffffffffffffffffffffffffffff\n      and\n      dup2\n      mstore\n      0x20\n      add\n      swap1\n      dup2\n      mstore\n      0x20\n      add\n      0x00\n      keccak256\n        /* \"contracts/FundMe.sol\":617:662  addressToAmountFunded[msg.sender] = msg.value */\n      dup2\n      swap1\n      sstore\n      pop\n        /* \"contracts/FundMe.sol\":672:679  funders */\n      0x01\n        /* \"contracts/FundMe.sol\":685:695  msg.sender */\n      caller\n        /* \"contracts/FundMe.sol\":672:696  funders.push(msg.sender) */\n      swap1\n      dup1\n      0x01\n      dup2\n      sload\n      add\n      dup1\n      dup3\n      sstore\n      dup1\n      swap2\n      pop\n      pop\n      0x01\n      swap1\n      sub\n      swap1\n      0x00\n      mstore\n      keccak256(0x00, 0x20)\n      add\n      0x00\n      swap1\n      swap2\n      swap1\n      swap2\n      swap1\n      swap2\n      0x0100\n      exp\n      dup2\n      sload\n      dup2\n      0xffffffffffffffffffffffffffffffffffffffff\n      mul\n      not\n      and\n      swap1\n      dup4\n      0xffffffffffffffffffffffffffffffffffffffff\n      and\n      mul\n      or\n      swap1\n      sstore\n      pop\n        /* \"contracts/FundMe.sol\":483:703  function fund() public payable {... */\n      jump\t// out\n        /* \"contracts/FundMe.sol\":709:913  function getVersion() public view returns (uint256) {... */\n    tag_20:\n        /* \"contracts/FundMe.sol\":752:759  uint256 */\n      0x00\n        /* \"contracts/FundMe.sol\":771:802  AggregatorV3Interface priceFeed */\n      dup1\n        /* \"contracts/FundMe.sol\":827:869  0x5f4eC3Df9cbd43714FE2740f5E3616155c5b8419 */\n      0x5f4ec3df9cbd43714fe2740f5e3616155c5b8419\n        /* \"contracts/FundMe.sol\":771:870  AggregatorV3Interface priceFeed = AggregatorV3Interface(0x5f4eC3Df9cbd43714FE2740f5E3616155c5b8419) */\n      swap1\n      pop\n        /* \"contracts/FundMe.sol\":887:896  priceFeed */\n      dup1\n        /* \"contracts/FundMe.sol\":887:904  priceFeed.version */\n      0xffffffffffffffffffffffffffffffffffffffff\n      and\n      0x54fd4d50\n        /* \"contracts/FundMe.sol\":887:906  priceFeed.version() */\n      mload(0x40)\n      dup2\n      0xffffffff\n      and\n      0xe0\n      shl\n      dup2\n      mstore\n      0x04\n      add\n      0x20\n      mload(0x40)\n      dup1\n      dup4\n      sub\n      dup2\n      dup7\n      dup1\n      extcodesize\n      iszero\n      dup1\n      iszero\n      tag_55\n      jumpi\n      0x00\n      dup1\n      revert\n    tag_55:\n      pop\n      gas\n      staticcall\n      iszero\n      dup1\n      iszero\n      tag_57\n      jumpi\n      returndatasize\n      0x00\n      dup1\n      returndatacopy\n      revert(0x00, returndatasize)\n    tag_57:\n      pop\n      pop\n      pop\n      pop\n      mload(0x40)\n      returndatasize\n      not(0x1f)\n      0x1f\n      dup3\n      add\n      and\n      dup3\n      add\n      dup1\n      0x40\n      mstore\n      pop\n      dup2\n      add\n      swap1\n      tag_58\n      swap2\n      swap1\n      tag_59\n      jump\t// in\n    tag_58:\n        /* \"contracts/FundMe.sol\":880:906  return priceFeed.version() */\n      swap2\n      pop\n      pop\n        /* \"contracts/FundMe.sol\":709:913  function getVersion() public view returns (uint256) {... */\n      swap1\n      jump\t// out\n        /* \"contracts/FundMe.sol\":1016:1434  function withdraw() payable onlyOwner public {... */\n    tag_24:\n        /* \"contracts/FundMe.sol\":966:973  i_owner */\n      0x02\n      0x00\n      swap1\n      sload\n      swap1\n      0x0100\n      exp\n      swap1\n      div\n      0xffffffffffffffffffffffffffffffffffffffff\n      and\n        /* \"contracts/FundMe.sol\":952:973  msg.sender != i_owner */\n      0xffffffffffffffffffffffffffffffffffffffff\n      and\n        /* \"contracts/FundMe.sol\":952:962  msg.sender */\n      caller\n        /* \"contracts/FundMe.sol\":952:973  msg.sender != i_owner */\n      0xffffffffffffffffffffffffffffffffffffffff\n      and\n      eq\n        /* \"contracts/FundMe.sol\":948:992  if (msg.sender != i_owner) revert NotOwner() */\n      tag_61\n      jumpi\n        /* \"contracts/FundMe.sol\":982:992  NotOwner() */\n      mload(0x40)\n      0x30cd747100000000000000000000000000000000000000000000000000000000\n      dup2\n      mstore\n      0x04\n      add\n      mload(0x40)\n      dup1\n      swap2\n      sub\n      swap1\n      revert\n        /* \"contracts/FundMe.sol\":948:992  if (msg.sender != i_owner) revert NotOwner() */\n    tag_61:\n        /* \"contracts/FundMe.sol\":1076:1095  uint256 funderIndex */\n      0x00\n        /* \"contracts/FundMe.sol\":1071:1255  for (uint256 funderIndex = 0; funderIndex < funders.length; funderIndex++) {... */\n    tag_63:\n        /* \"contracts/FundMe.sol\":1115:1122  funders */\n      0x01\n        /* \"contracts/FundMe.sol\":1115:1129  funders.length */\n      dup1\n      sload\n      swap1\n      pop\n        /* \"contracts/FundMe.sol\":1101:1112  funderIndex */\n      dup2\n        /* \"contracts/FundMe.sol\":1101:1129  funderIndex < funders.length */\n      lt\n        /* \"contracts/FundMe.sol\":1071:1255  for (uint256 funderIndex = 0; funderIndex < funders.length; funderIndex++) {... */\n      iszero\n      tag_64\n      jumpi\n        /* \"contracts/FundMe.sol\":1160:1174  address funder */\n      0x00\n        /* \"contracts/FundMe.sol\":1177:1184  funders */\n      0x01\n        /* \"contracts/FundMe.sol\":1185:1196  funderIndex */\n      dup3\n        /* \"contracts/FundMe.sol\":1177:1197  funders[funderIndex] */\n      dup2\n      sload\n      dup2\n      lt\n      tag_66\n      jumpi\n      tag_67\n      tag_68\n      jump\t// in\n    tag_67:\n    tag_66:\n      swap1\n      0x00\n      mstore\n      keccak256(0x00, 0x20)\n      add\n      0x00\n      swap1\n      sload\n      swap1\n      0x0100\n      exp\n      swap1\n      div\n      0xffffffffffffffffffffffffffffffffffffffff\n      and\n        /* \"contracts/FundMe.sol\":1160:1197  address funder = funders[funderIndex] */\n      swap1\n      pop\n        /* \"contracts/FundMe.sol\":1243:1244  0 */\n      0x00\n        /* \"contracts/FundMe.sol\":1211:1232  addressToAmountFunded */\n      dup1\n        /* \"contracts/FundMe.sol\":1211:1240  addressToAmountFunded[funder] */\n      0x00\n        /* \"contracts/FundMe.sol\":1233:1239  funder */\n      dup4\n        /* \"contracts/FundMe.sol\":1211:1240  addressToAmountFunded[funder] */\n      0xffffffffffffffffffffffffffffffffffffffff\n      and\n      0xffffffffffffffffffffffffffffffffffffffff\n      and\n      dup2\n      mstore\n      0x20\n      add\n      swap1\n      dup2\n      mstore\n      0x20\n      add\n      0x00\n      keccak256\n        /* \"contracts/FundMe.sol\":1211:1244  addressToAmountFunded[funder] = 0 */\n      dup2\n      swap1\n      sstore\n      pop\n        /* \"contracts/FundMe.sol\":1146:1255  {... */\n      pop\n        /* \"contracts/FundMe.sol\":1131:1144  funderIndex++ */\n      dup1\n      dup1\n      tag_70\n      swap1\n      tag_71\n      jump\t// in\n    tag_70:\n      swap2\n      pop\n      pop\n        /* \"contracts/FundMe.sol\":1071:1255  for (uint256 funderIndex = 0; funderIndex < funders.length; funderIndex++) {... */\n      jump(tag_63)\n    tag_64:\n      pop\n        /* \"contracts/FundMe.sol\":1288:1289  0 */\n      0x00\n        /* \"contracts/FundMe.sol\":1274:1290  new address[](0) */\n      0xffffffffffffffff\n      dup2\n      gt\n      iszero\n      tag_72\n      jumpi\n      tag_73\n      tag_74\n      jump\t// in\n    tag_73:\n    tag_72:\n      mload(0x40)\n      swap1\n      dup1\n      dup3\n      mstore\n      dup1\n      0x20\n      mul\n      0x20\n      add\n      dup3\n      add\n      0x40\n      mstore\n      dup1\n      iszero\n      tag_75\n      jumpi\n      dup2\n      0x20\n      add\n      0x20\n      dup3\n      mul\n      dup1\n      calldatasize\n      dup4\n      calldatacopy\n      dup1\n      dup3\n      add\n      swap2\n      pop\n      pop\n      swap1\n      pop\n    tag_75:\n      pop\n        /* \"contracts/FundMe.sol\":1264:1271  funders */\n      0x01\n        /* \"contracts/FundMe.sol\":1264:1290  funders = new address[](0) */\n      swap1\n      dup1\n      mload\n      swap1\n      0x20\n      add\n      swap1\n      tag_76\n      swap3\n      swap2\n      swap1\n      tag_77\n      jump\t// in\n    tag_76:\n      pop\n        /* \"contracts/FundMe.sol\":1302:1318  bool callSuccess */\n      0x00\n        /* \"contracts/FundMe.sol\":1332:1342  msg.sender */\n      caller\n        /* \"contracts/FundMe.sol\":1324:1348  payable(msg.sender).call */\n      0xffffffffffffffffffffffffffffffffffffffff\n      and\n        /* \"contracts/FundMe.sol\":1356:1377  address(this).balance */\n      selfbalance\n        /* \"contracts/FundMe.sol\":1324:1382  payable(msg.sender).call{value: address(this).balance}(\"\") */\n      mload(0x40)\n      tag_78\n      swap1\n      tag_79\n      jump\t// in\n    tag_78:\n      0x00\n      mload(0x40)\n      dup1\n      dup4\n      sub\n      dup2\n      dup6\n      dup8\n      gas\n      call\n      swap3\n      pop\n      pop\n      pop\n      returndatasize\n      dup1\n      0x00\n      dup2\n      eq\n      tag_82\n      jumpi\n      mload(0x40)\n      swap2\n      pop\n      and(add(returndatasize, 0x3f), not(0x1f))\n      dup3\n      add\n      0x40\n      mstore\n      returndatasize\n      dup3\n      mstore\n      returndatasize\n      0x00\n      0x20\n      dup5\n      add\n      returndatacopy\n      jump(tag_81)\n    tag_82:\n      0x60\n      swap2\n      pop\n    tag_81:\n      pop\n        /* \"contracts/FundMe.sol\":1301:1382  (bool callSuccess, ) = payable(msg.sender).call{value: address(this).balance}(\"\") */\n      pop\n      swap1\n      pop\n        /* \"contracts/FundMe.sol\":1400:1411  callSuccess */\n      dup1\n        /* \"contracts/FundMe.sol\":1392:1427  require(callSuccess, \"Call failed\") */\n      tag_83\n      jumpi\n      mload(0x40)\n      0x08c379a000000000000000000000000000000000000000000000000000000000\n      dup2\n      mstore\n      0x04\n      add\n      tag_84\n      swap1\n      tag_85\n      jump\t// in\n    tag_84:\n      mload(0x40)\n      dup1\n      swap2\n      sub\n      swap1\n      revert\n    tag_83:\n        /* \"contracts/FundMe.sol\":1061:1434  {... */\n      pop\n        /* \"contracts/FundMe.sol\":1016:1434  function withdraw() payable onlyOwner public {... */\n      jump\t// out\n        /* \"contracts/FundMe.sol\":247:303  mapping(address => uint256) public addressToAmountFunded */\n    tag_29:\n      mstore(0x20, 0x00)\n      dup1\n      0x00\n      mstore\n      keccak256(0x00, 0x40)\n      0x00\n      swap2\n      pop\n      swap1\n      pop\n      sload\n      dup2\n      jump\t// out\n        /* \"contracts/FundMe.sol\":369:420  uint256 public constant MINIMUM_USD = 50 * 10 ** 18 */\n    tag_33:\n        /* \"contracts/FundMe.sol\":407:420  50 * 10 ** 18 */\n      0x02b5e3af16b1880000\n        /* \"contracts/FundMe.sol\":369:420  uint256 public constant MINIMUM_USD = 50 * 10 ** 18 */\n      dup2\n      jump\t// out\n        /* \"contracts/FundMe.sol\":341:363  address public i_owner */\n    tag_38:\n      0x02\n      0x00\n      swap1\n      sload\n      swap1\n      0x0100\n      exp\n      swap1\n      div\n      0xffffffffffffffffffffffffffffffffffffffff\n      and\n      dup2\n      jump\t// out\n        /* \"contracts/FundMe.sol\":309:334  address [] public funders */\n    tag_45:\n      0x01\n      dup2\n      dup2\n      sload\n      dup2\n      lt\n      tag_86\n      jumpi\n      0x00\n      dup1\n      revert\n    tag_86:\n      swap1\n      0x00\n      mstore\n      keccak256(0x00, 0x20)\n      add\n      0x00\n      swap2\n      pop\n      sload\n      swap1\n      0x0100\n      exp\n      swap1\n      div\n      0xffffffffffffffffffffffffffffffffffffffff\n      and\n      dup2\n      jump\t// out\n        /* \"contracts/PriceConverter.sol\":472:715  function getConversionRate(uint256 ethAmount) internal view returns (uint256) {... */\n    tag_49:\n        /* \"contracts/PriceConverter.sol\":541:548  uint256 */\n      0x00\n        /* \"contracts/PriceConverter.sol\":560:576  uint256 ethPrice */\n      dup1\n        /* \"contracts/PriceConverter.sol\":579:589  getPrice() */\n      tag_89\n        /* \"contracts/PriceConverter.sol\":579:587  getPrice */\n      tag_90\n        /* \"contracts/PriceConverter.sol\":579:589  getPrice() */\n      jump\t// in\n    tag_89:\n        /* \"contracts/PriceConverter.sol\":560:589  uint256 ethPrice = getPrice() */\n      swap1\n      pop\n        /* \"contracts/PriceConverter.sol\":599:621  uint256 ethAmountInUsd */\n      0x00\n        /* \"contracts/PriceConverter.sol\":649:668  1000000000000000000 */\n      0x0de0b6b3a7640000\n        /* \"contracts/PriceConverter.sol\":636:645  ethAmount */\n      dup5\n        /* \"contracts/PriceConverter.sol\":625:633  ethPrice */\n      dup4\n        /* \"contracts/PriceConverter.sol\":625:645  ethPrice * ethAmount */\n      tag_91\n      swap2\n      swap1\n      tag_92\n      jump\t// in\n    tag_91:\n        /* \"contracts/PriceConverter.sol\":624:668  (ethPrice * ethAmount) / 1000000000000000000 */\n      tag_93\n      swap2\n      swap1\n      tag_94\n      jump\t// in\n    tag_93:\n        /* \"contracts/PriceConverter.sol\":599:668  uint256 ethAmountInUsd = (ethPrice * ethAmount) / 1000000000000000000 */\n      swap1\n      pop\n        /* \"contracts/PriceConverter.sol\":694:708  ethAmountInUsd */\n      dup1\n        /* \"contracts/PriceConverter.sol\":687:708  return ethAmountInUsd */\n      swap3\n      pop\n      pop\n      pop\n        /* \"contracts/PriceConverter.sol\":472:715  function getConversionRate(uint256 ethAmount) internal view returns (uint256) {... */\n      swap2\n      swap1\n      pop\n      jump\t// out\n        /* \"contracts/PriceConverter.sol\":166:466  function getPrice() internal view returns (uint256) {... */\n    tag_90:\n        /* \"contracts/PriceConverter.sol\":209:216  uint256 */\n      0x00\n        /* \"contracts/PriceConverter.sol\":228:259  AggregatorV3Interface priceFeed */\n      dup1\n        /* \"contracts/PriceConverter.sol\":297:339  0x5f4eC3Df9cbd43714FE2740f5E3616155c5b8419 */\n      0x5f4ec3df9cbd43714fe2740f5e3616155c5b8419\n        /* \"contracts/PriceConverter.sol\":228:349  AggregatorV3Interface priceFeed = AggregatorV3Interface(... */\n      swap1\n      pop\n        /* \"contracts/PriceConverter.sol\":361:374  int256 answer */\n      0x00\n        /* \"contracts/PriceConverter.sol\":384:393  priceFeed */\n      dup2\n        /* \"contracts/PriceConverter.sol\":384:409  priceFeed.latestRoundData */\n      0xffffffffffffffffffffffffffffffffffffffff\n      and\n      0xfeaf968c\n        /* \"contracts/PriceConverter.sol\":384:411  priceFeed.latestRoundData() */\n      mload(0x40)\n      dup2\n      0xffffffff\n      and\n      0xe0\n      shl\n      dup2\n      mstore\n      0x04\n      add\n      0xa0\n      mload(0x40)\n      dup1\n      dup4\n      sub\n      dup2\n      dup7\n      dup1\n      extcodesize\n      iszero\n      dup1\n      iszero\n      tag_96\n      jumpi\n      0x00\n      dup1\n      revert\n    tag_96:\n      pop\n      gas\n      staticcall\n      iszero\n      dup1\n      iszero\n      tag_98\n      jumpi\n      returndatasize\n      0x00\n      dup1\n      returndatacopy\n      revert(0x00, returndatasize)\n    tag_98:\n      pop\n      pop\n      pop\n      pop\n      mload(0x40)\n      returndatasize\n      not(0x1f)\n      0x1f\n      dup3\n      add\n      and\n      dup3\n      add\n      dup1\n      0x40\n      mstore\n      pop\n      dup2\n      add\n      swap1\n      tag_99\n      swap2\n      swap1\n      tag_100\n      jump\t// in\n    tag_99:\n        /* \"contracts/PriceConverter.sol\":359:411  (,int256 answer, , , ) = priceFeed.latestRoundData() */\n      pop\n      pop\n      pop\n      swap2\n      pop\n      pop\n        /* \"contracts/PriceConverter.sol\":446:457  10000000000 */\n      0x02540be400\n        /* \"contracts/PriceConverter.sol\":437:443  answer */\n      dup2\n        /* \"contracts/PriceConverter.sol\":437:457  answer * 10000000000 */\n      tag_101\n      swap2\n      swap1\n      tag_102\n      jump\t// in\n    tag_101:\n        /* \"contracts/PriceConverter.sol\":422:458  return uint256(answer * 10000000000) */\n      swap3\n      pop\n      pop\n      pop\n        /* \"contracts/PriceConverter.sol\":166:466  function getPrice() internal view returns (uint256) {... */\n      swap1\n      jump\t// out\n    tag_77:\n      dup3\n      dup1\n      sload\n      dup3\n      dup3\n      sstore\n      swap1\n      0x00\n      mstore\n      keccak256(0x00, 0x20)\n      swap1\n      dup2\n      add\n      swap3\n      dup3\n      iszero\n      tag_103\n      jumpi\n      swap2\n      0x20\n      mul\n      dup3\n      add\n    tag_104:\n      dup3\n      dup2\n      gt\n      iszero\n      tag_105\n      jumpi\n      dup3\n      mload\n      dup3\n      exp(0x0100, 0x00)\n      dup2\n      sload\n      dup2\n      0xffffffffffffffffffffffffffffffffffffffff\n      mul\n      not\n      and\n      swap1\n      dup4\n      0xffffffffffffffffffffffffffffffffffffffff\n      and\n      mul\n      or\n      swap1\n      sstore\n      pop\n      swap2\n      0x20\n      add\n      swap2\n      swap1\n      0x01\n      add\n      swap1\n      jump(tag_104)\n    tag_105:\n    tag_103:\n      pop\n      swap1\n      pop\n      tag_106\n      swap2\n      swap1\n      tag_107\n      jump\t// in\n    tag_106:\n      pop\n      swap1\n      jump\t// out\n    tag_107:\n    tag_108:\n      dup1\n      dup3\n      gt\n      iszero\n      tag_109\n      jumpi\n      0x00\n      dup2\n      0x00\n      swap1\n      sstore\n      pop\n      0x01\n      add\n      jump(tag_108)\n    tag_109:\n      pop\n      swap1\n      jump\t// out\n        /* \"#utility.yul\":7:84   */\n    tag_110:\n        /* \"#utility.yul\":44:51   */\n      0x00\n        /* \"#utility.yul\":73:78   */\n      dup2\n        /* \"#utility.yul\":62:78   */\n      swap1\n      pop\n        /* \"#utility.yul\":7:84   */\n      swap2\n      swap1\n      pop\n      jump\t// out\n        /* \"#utility.yul\":90:208   */\n    tag_111:\n        /* \"#utility.yul\":177:201   */\n      tag_142\n        /* \"#utility.yul\":195:200   */\n      dup2\n        /* \"#utility.yul\":177:201   */\n      tag_110\n      jump\t// in\n    tag_142:\n        /* \"#utility.yul\":172:175   */\n      dup3\n        /* \"#utility.yul\":165:202   */\n      mstore\n        /* \"#utility.yul\":90:208   */\n      pop\n      pop\n      jump\t// out\n        /* \"#utility.yul\":214:436   */\n    tag_22:\n        /* \"#utility.yul\":307:311   */\n      0x00\n        /* \"#utility.yul\":345:347   */\n      0x20\n        /* \"#utility.yul\":334:343   */\n      dup3\n        /* \"#utility.yul\":330:348   */\n      add\n        /* \"#utility.yul\":322:348   */\n      swap1\n      pop\n        /* \"#utility.yul\":358:429   */\n      tag_144\n        /* \"#utility.yul\":426:427   */\n      0x00\n        /* \"#utility.yul\":415:424   */\n      dup4\n        /* \"#utility.yul\":411:428   */\n      add\n        /* \"#utility.yul\":402:408   */\n      dup5\n        /* \"#utility.yul\":358:429   */\n      tag_111\n      jump\t// in\n    tag_144:\n        /* \"#utility.yul\":214:436   */\n      swap3\n      swap2\n      pop\n      pop\n      jump\t// out\n        /* \"#utility.yul\":523:640   */\n    tag_113:\n        /* \"#utility.yul\":632:633   */\n      0x00\n        /* \"#utility.yul\":629:630   */\n      dup1\n        /* \"#utility.yul\":622:634   */\n      revert\n        /* \"#utility.yul\":769:895   */\n    tag_115:\n        /* \"#utility.yul\":806:813   */\n      0x00\n        /* \"#utility.yul\":846:888   */\n      0xffffffffffffffffffffffffffffffffffffffff\n        /* \"#utility.yul\":839:844   */\n      dup3\n        /* \"#utility.yul\":835:889   */\n      and\n        /* \"#utility.yul\":824:889   */\n      swap1\n      pop\n        /* \"#utility.yul\":769:895   */\n      swap2\n      swap1\n      pop\n      jump\t// out\n        /* \"#utility.yul\":901:997   */\n    tag_116:\n        /* \"#utility.yul\":938:945   */\n      0x00\n        /* \"#utility.yul\":967:991   */\n      tag_150\n        /* \"#utility.yul\":985:990   */\n      dup3\n        /* \"#utility.yul\":967:991   */\n      tag_115\n      jump\t// in\n    tag_150:\n        /* \"#utility.yul\":956:991   */\n      swap1\n      pop\n        /* \"#utility.yul\":901:997   */\n      swap2\n      swap1\n      pop\n      jump\t// out\n        /* \"#utility.yul\":1003:1125   */\n    tag_117:\n        /* \"#utility.yul\":1076:1100   */\n      tag_152\n        /* \"#utility.yul\":1094:1099   */\n      dup2\n        /* \"#utility.yul\":1076:1100   */\n      tag_116\n      jump\t// in\n    tag_152:\n        /* \"#utility.yul\":1069:1074   */\n      dup2\n        /* \"#utility.yul\":1066:1101   */\n      eq\n        /* \"#utility.yul\":1056:1119   */\n      tag_153\n      jumpi\n        /* \"#utility.yul\":1115:1116   */\n      0x00\n        /* \"#utility.yul\":1112:1113   */\n      dup1\n        /* \"#utility.yul\":1105:1117   */\n      revert\n        /* \"#utility.yul\":1056:1119   */\n    tag_153:\n        /* \"#utility.yul\":1003:1125   */\n      pop\n      jump\t// out\n        /* \"#utility.yul\":1131:1270   */\n    tag_118:\n        /* \"#utility.yul\":1177:1182   */\n      0x00\n        /* \"#utility.yul\":1215:1221   */\n      dup2\n        /* \"#utility.yul\":1202:1222   */\n      calldataload\n        /* \"#utility.yul\":1193:1222   */\n      swap1\n      pop\n        /* \"#utility.yul\":1231:1264   */\n      tag_155\n        /* \"#utility.yul\":1258:1263   */\n      dup2\n        /* \"#utility.yul\":1231:1264   */\n      tag_117\n      jump\t// in\n    tag_155:\n        /* \"#utility.yul\":1131:1270   */\n      swap3\n      swap2\n      pop\n      pop\n      jump\t// out\n        /* \"#utility.yul\":1276:1605   */\n    tag_28:\n        /* \"#utility.yul\":1335:1341   */\n      0x00\n        /* \"#utility.yul\":1384:1386   */\n      0x20\n        /* \"#utility.yul\":1372:1381   */\n      dup3\n        /* \"#utility.yul\":1363:1370   */\n      dup5\n        /* \"#utility.yul\":1359:1382   */\n      sub\n        /* \"#utility.yul\":1355:1387   */\n      slt\n        /* \"#utility.yul\":1352:1471   */\n      iszero\n      tag_157\n      jumpi\n        /* \"#utility.yul\":1390:1469   */\n      tag_158\n      tag_113\n      jump\t// in\n    tag_158:\n        /* \"#utility.yul\":1352:1471   */\n    tag_157:\n        /* \"#utility.yul\":1510:1511   */\n      0x00\n        /* \"#utility.yul\":1535:1588   */\n      tag_159\n        /* \"#utility.yul\":1580:1587   */\n      dup5\n        /* \"#utility.yul\":1571:1577   */\n      dup3\n        /* \"#utility.yul\":1560:1569   */\n      dup6\n        /* \"#utility.yul\":1556:1578   */\n      add\n        /* \"#utility.yul\":1535:1588   */\n      tag_118\n      jump\t// in\n    tag_159:\n        /* \"#utility.yul\":1525:1588   */\n      swap2\n      pop\n        /* \"#utility.yul\":1481:1598   */\n      pop\n        /* \"#utility.yul\":1276:1605   */\n      swap3\n      swap2\n      pop\n      pop\n      jump\t// out\n        /* \"#utility.yul\":1611:1729   */\n    tag_119:\n        /* \"#utility.yul\":1698:1722   */\n      tag_161\n        /* \"#utility.yul\":1716:1721   */\n      dup2\n        /* \"#utility.yul\":1698:1722   */\n      tag_116\n      jump\t// in\n    tag_161:\n        /* \"#utility.yul\":1693:1696   */\n      dup3\n        /* \"#utility.yul\":1686:1723   */\n      mstore\n        /* \"#utility.yul\":1611:1729   */\n      pop\n      pop\n      jump\t// out\n        /* \"#utility.yul\":1735:1957   */\n    tag_40:\n        /* \"#utility.yul\":1828:1832   */\n      0x00\n        /* \"#utility.yul\":1866:1868   */\n      0x20\n        /* \"#utility.yul\":1855:1864   */\n      dup3\n        /* \"#utility.yul\":1851:1869   */\n      add\n        /* \"#utility.yul\":1843:1869   */\n      swap1\n      pop\n        /* \"#utility.yul\":1879:1950   */\n      tag_163\n        /* \"#utility.yul\":1947:1948   */\n      0x00\n        /* \"#utility.yul\":1936:1945   */\n      dup4\n        /* \"#utility.yul\":1932:1949   */\n      add\n        /* \"#utility.yul\":1923:1929   */\n      dup5\n        /* \"#utility.yul\":1879:1950   */\n      tag_119\n      jump\t// in\n    tag_163:\n        /* \"#utility.yul\":1735:1957   */\n      swap3\n      swap2\n      pop\n      pop\n      jump\t// out\n        /* \"#utility.yul\":1963:2085   */\n    tag_120:\n        /* \"#utility.yul\":2036:2060   */\n      tag_165\n        /* \"#utility.yul\":2054:2059   */\n      dup2\n        /* \"#utility.yul\":2036:2060   */\n      tag_110\n      jump\t// in\n    tag_165:\n        /* \"#utility.yul\":2029:2034   */\n      dup2\n        /* \"#utility.yul\":2026:2061   */\n      eq\n        /* \"#utility.yul\":2016:2079   */\n      tag_166\n      jumpi\n        /* \"#utility.yul\":2075:2076   */\n      0x00\n        /* \"#utility.yul\":2072:2073   */\n      dup1\n        /* \"#utility.yul\":2065:2077   */\n      revert\n        /* \"#utility.yul\":2016:2079   */\n    tag_166:\n        /* \"#utility.yul\":1963:2085   */\n      pop\n      jump\t// out\n        /* \"#utility.yul\":2091:2230   */\n    tag_121:\n        /* \"#utility.yul\":2137:2142   */\n      0x00\n        /* \"#utility.yul\":2175:2181   */\n      dup2\n        /* \"#utility.yul\":2162:2182   */\n      calldataload\n        /* \"#utility.yul\":2153:2182   */\n      swap1\n      pop\n        /* \"#utility.yul\":2191:2224   */\n      tag_168\n        /* \"#utility.yul\":2218:2223   */\n      dup2\n        /* \"#utility.yul\":2191:2224   */\n      tag_120\n      jump\t// in\n    tag_168:\n        /* \"#utility.yul\":2091:2230   */\n      swap3\n      swap2\n      pop\n      pop\n      jump\t// out\n        /* \"#utility.yul\":2236:2565   */\n    tag_44:\n        /* \"#utility.yul\":2295:2301   */\n      0x00\n        /* \"#utility.yul\":2344:2346   */\n      0x20\n        /* \"#utility.yul\":2332:2341   */\n      dup3\n        /* \"#utility.yul\":2323:2330   */\n      dup5\n        /* \"#utility.yul\":2319:2342   */\n      sub\n        /* \"#utility.yul\":2315:2347   */\n      slt\n        /* \"#utility.yul\":2312:2431   */\n      iszero\n      tag_170\n      jumpi\n        /* \"#utility.yul\":2350:2429   */\n      tag_171\n      tag_113\n      jump\t// in\n    tag_171:\n        /* \"#utility.yul\":2312:2431   */\n    tag_170:\n        /* \"#utility.yul\":2470:2471   */\n      0x00\n        /* \"#utility.yul\":2495:2548   */\n      tag_172\n        /* \"#utility.yul\":2540:2547   */\n      dup5\n        /* \"#utility.yul\":2531:2537   */\n      dup3\n        /* \"#utility.yul\":2520:2529   */\n      dup6\n        /* \"#utility.yul\":2516:2538   */\n      add\n        /* \"#utility.yul\":2495:2548   */\n      tag_121\n      jump\t// in\n    tag_172:\n        /* \"#utility.yul\":2485:2548   */\n      swap2\n      pop\n        /* \"#utility.yul\":2441:2558   */\n      pop\n        /* \"#utility.yul\":2236:2565   */\n      swap3\n      swap2\n      pop\n      pop\n      jump\t// out\n        /* \"#utility.yul\":2571:2740   */\n    tag_122:\n        /* \"#utility.yul\":2655:2666   */\n      0x00\n        /* \"#utility.yul\":2689:2695   */\n      dup3\n        /* \"#utility.yul\":2684:2687   */\n      dup3\n        /* \"#utility.yul\":2677:2696   */\n      mstore\n        /* \"#utility.yul\":2729:2733   */\n      0x20\n        /* \"#utility.yul\":2724:2727   */\n      dup3\n        /* \"#utility.yul\":2720:2734   */\n      add\n        /* \"#utility.yul\":2705:2734   */\n      swap1\n      pop\n        /* \"#utility.yul\":2571:2740   */\n      swap3\n      swap2\n      pop\n      pop\n      jump\t// out\n        /* \"#utility.yul\":2746:2923   */\n    tag_123:\n        /* \"#utility.yul\":2886:2915   */\n      0x596f75206e65656420746f207370656e64206d6f726520455448210000000000\n        /* \"#utility.yul\":2882:2883   */\n      0x00\n        /* \"#utility.yul\":2874:2880   */\n      dup3\n        /* \"#utility.yul\":2870:2884   */\n      add\n        /* \"#utility.yul\":2863:2916   */\n      mstore\n        /* \"#utility.yul\":2746:2923   */\n      pop\n      jump\t// out\n        /* \"#utility.yul\":2929:3295   */\n    tag_124:\n        /* \"#utility.yul\":3071:3074   */\n      0x00\n        /* \"#utility.yul\":3092:3159   */\n      tag_176\n        /* \"#utility.yul\":3156:3158   */\n      0x1b\n        /* \"#utility.yul\":3151:3154   */\n      dup4\n        /* \"#utility.yul\":3092:3159   */\n      tag_122\n      jump\t// in\n    tag_176:\n        /* \"#utility.yul\":3085:3159   */\n      swap2\n      pop\n        /* \"#utility.yul\":3168:3261   */\n      tag_177\n        /* \"#utility.yul\":3257:3260   */\n      dup3\n        /* \"#utility.yul\":3168:3261   */\n      tag_123\n      jump\t// in\n    tag_177:\n        /* \"#utility.yul\":3286:3288   */\n      0x20\n        /* \"#utility.yul\":3281:3284   */\n      dup3\n        /* \"#utility.yul\":3277:3289   */\n      add\n        /* \"#utility.yul\":3270:3289   */\n      swap1\n      pop\n        /* \"#utility.yul\":2929:3295   */\n      swap2\n      swap1\n      pop\n      jump\t// out\n        /* \"#utility.yul\":3301:3720   */\n    tag_52:\n        /* \"#utility.yul\":3467:3471   */\n      0x00\n        /* \"#utility.yul\":3505:3507   */\n      0x20\n        /* \"#utility.yul\":3494:3503   */\n      dup3\n        /* \"#utility.yul\":3490:3508   */\n      add\n        /* \"#utility.yul\":3482:3508   */\n      swap1\n      pop\n        /* \"#utility.yul\":3554:3563   */\n      dup2\n        /* \"#utility.yul\":3548:3552   */\n      dup2\n        /* \"#utility.yul\":3544:3564   */\n      sub\n        /* \"#utility.yul\":3540:3541   */\n      0x00\n        /* \"#utility.yul\":3529:3538   */\n      dup4\n        /* \"#utility.yul\":3525:3542   */\n      add\n        /* \"#utility.yul\":3518:3565   */\n      mstore\n        /* \"#utility.yul\":3582:3713   */\n      tag_179\n        /* \"#utility.yul\":3708:3712   */\n      dup2\n        /* \"#utility.yul\":3582:3713   */\n      tag_124\n      jump\t// in\n    tag_179:\n        /* \"#utility.yul\":3574:3713   */\n      swap1\n      pop\n        /* \"#utility.yul\":3301:3720   */\n      swap2\n      swap1\n      pop\n      jump\t// out\n        /* \"#utility.yul\":3726:3869   */\n    tag_125:\n        /* \"#utility.yul\":3783:3788   */\n      0x00\n        /* \"#utility.yul\":3814:3820   */\n      dup2\n        /* \"#utility.yul\":3808:3821   */\n      mload\n        /* \"#utility.yul\":3799:3821   */\n      swap1\n      pop\n        /* \"#utility.yul\":3830:3863   */\n      tag_181\n        /* \"#utility.yul\":3857:3862   */\n      dup2\n        /* \"#utility.yul\":3830:3863   */\n      tag_120\n      jump\t// in\n    tag_181:\n        /* \"#utility.yul\":3726:3869   */\n      swap3\n      swap2\n      pop\n      pop\n      jump\t// out\n        /* \"#utility.yul\":3875:4226   */\n    tag_59:\n        /* \"#utility.yul\":3945:3951   */\n      0x00\n        /* \"#utility.yul\":3994:3996   */\n      0x20\n        /* \"#utility.yul\":3982:3991   */\n      dup3\n        /* \"#utility.yul\":3973:3980   */\n      dup5\n        /* \"#utility.yul\":3969:3992   */\n      sub\n        /* \"#utility.yul\":3965:3997   */\n      slt\n        /* \"#utility.yul\":3962:4081   */\n      iszero\n      tag_183\n      jumpi\n        /* \"#utility.yul\":4000:4079   */\n      tag_184\n      tag_113\n      jump\t// in\n    tag_184:\n        /* \"#utility.yul\":3962:4081   */\n    tag_183:\n        /* \"#utility.yul\":4120:4121   */\n      0x00\n        /* \"#utility.yul\":4145:4209   */\n      tag_185\n        /* \"#utility.yul\":4201:4208   */\n      dup5\n        /* \"#utility.yul\":4192:4198   */\n      dup3\n        /* \"#utility.yul\":4181:4190   */\n      dup6\n        /* \"#utility.yul\":4177:4199   */\n      add\n        /* \"#utility.yul\":4145:4209   */\n      tag_125\n      jump\t// in\n    tag_185:\n        /* \"#utility.yul\":4135:4209   */\n      swap2\n      pop\n        /* \"#utility.yul\":4091:4219   */\n      pop\n        /* \"#utility.yul\":3875:4226   */\n      swap3\n      swap2\n      pop\n      pop\n      jump\t// out\n        /* \"#utility.yul\":4232:4412   */\n    tag_68:\n        /* \"#utility.yul\":4280:4357   */\n      0x4e487b7100000000000000000000000000000000000000000000000000000000\n        /* \"#utility.yul\":4277:4278   */\n      0x00\n        /* \"#utility.yul\":4270:4358   */\n      mstore\n        /* \"#utility.yul\":4377:4381   */\n      0x32\n        /* \"#utility.yul\":4374:4375   */\n      0x04\n        /* \"#utility.yul\":4367:4382   */\n      mstore\n        /* \"#utility.yul\":4401:4405   */\n      0x24\n        /* \"#utility.yul\":4398:4399   */\n      0x00\n        /* \"#utility.yul\":4391:4406   */\n      revert\n        /* \"#utility.yul\":4418:4598   */\n    tag_126:\n        /* \"#utility.yul\":4466:4543   */\n      0x4e487b7100000000000000000000000000000000000000000000000000000000\n        /* \"#utility.yul\":4463:4464   */\n      0x00\n        /* \"#utility.yul\":4456:4544   */\n      mstore\n        /* \"#utility.yul\":4563:4567   */\n      0x11\n        /* \"#utility.yul\":4560:4561   */\n      0x04\n        /* \"#utility.yul\":4553:4568   */\n      mstore\n        /* \"#utility.yul\":4587:4591   */\n      0x24\n        /* \"#utility.yul\":4584:4585   */\n      0x00\n        /* \"#utility.yul\":4577:4592   */\n      revert\n        /* \"#utility.yul\":4604:4837   */\n    tag_71:\n        /* \"#utility.yul\":4643:4646   */\n      0x00\n        /* \"#utility.yul\":4666:4690   */\n      tag_189\n        /* \"#utility.yul\":4684:4689   */\n      dup3\n        /* \"#utility.yul\":4666:4690   */\n      tag_110\n      jump\t// in\n    tag_189:\n        /* \"#utility.yul\":4657:4690   */\n      swap2\n      pop\n        /* \"#utility.yul\":4712:4778   */\n      0xffffffffffffffffffffffffffffffffffffffffffffffffffffffffffffffff\n        /* \"#utility.yul\":4705:4710   */\n      dup3\n        /* \"#utility.yul\":4702:4779   */\n      eq\n        /* \"#utility.yul\":4699:4802   */\n      iszero\n      tag_190\n      jumpi\n        /* \"#utility.yul\":4782:4800   */\n      tag_191\n      tag_126\n      jump\t// in\n    tag_191:\n        /* \"#utility.yul\":4699:4802   */\n    tag_190:\n        /* \"#utility.yul\":4829:4830   */\n      0x01\n        /* \"#utility.yul\":4822:4827   */\n      dup3\n        /* \"#utility.yul\":4818:4831   */\n      add\n        /* \"#utility.yul\":4811:4831   */\n      swap1\n      pop\n        /* \"#utility.yul\":4604:4837   */\n      swap2\n      swap1\n      pop\n      jump\t// out\n        /* \"#utility.yul\":4843:5023   */\n    tag_74:\n        /* \"#utility.yul\":4891:4968   */\n      0x4e487b7100000000000000000000000000000000000000000000000000000000\n        /* \"#utility.yul\":4888:4889   */\n      0x00\n        /* \"#utility.yul\":4881:4969   */\n      mstore\n        /* \"#utility.yul\":4988:4992   */\n      0x41\n        /* \"#utility.yul\":4985:4986   */\n      0x04\n        /* \"#utility.yul\":4978:4993   */\n      mstore\n        /* \"#utility.yul\":5012:5016   */\n      0x24\n        /* \"#utility.yul\":5009:5010   */\n      0x00\n        /* \"#utility.yul\":5002:5017   */\n      revert\n        /* \"#utility.yul\":5029:5176   */\n    tag_127:\n        /* \"#utility.yul\":5130:5141   */\n      0x00\n        /* \"#utility.yul\":5167:5170   */\n      dup2\n        /* \"#utility.yul\":5152:5170   */\n      swap1\n      pop\n        /* \"#utility.yul\":5029:5176   */\n      swap3\n      swap2\n      pop\n      pop\n      jump\t// out\n        /* \"#utility.yul\":5182:5296   */\n    tag_128:\n      pop\n      jump\t// out\n        /* \"#utility.yul\":5302:5700   */\n    tag_129:\n        /* \"#utility.yul\":5461:5464   */\n      0x00\n        /* \"#utility.yul\":5482:5565   */\n      tag_196\n        /* \"#utility.yul\":5563:5564   */\n      0x00\n        /* \"#utility.yul\":5558:5561   */\n      dup4\n        /* \"#utility.yul\":5482:5565   */\n      tag_127\n      jump\t// in\n    tag_196:\n        /* \"#utility.yul\":5475:5565   */\n      swap2\n      pop\n        /* \"#utility.yul\":5574:5667   */\n      tag_197\n        /* \"#utility.yul\":5663:5666   */\n      dup3\n        /* \"#utility.yul\":5574:5667   */\n      tag_128\n      jump\t// in\n    tag_197:\n        /* \"#utility.yul\":5692:5693   */\n      0x00\n        /* \"#utility.yul\":5687:5690   */\n      dup3\n        /* \"#utility.yul\":5683:5694   */\n      add\n        /* \"#utility.yul\":5676:5694   */\n      swap1\n      pop\n        /* \"#utility.yul\":5302:5700   */\n      swap2\n      swap1\n      pop\n      jump\t// out\n        /* \"#utility.yul\":5706:6085   */\n    tag_79:\n        /* \"#utility.yul\":5890:5893   */\n      0x00\n        /* \"#utility.yul\":5912:6059   */\n      tag_199\n        /* \"#utility.yul\":6055:6058   */\n      dup3\n        /* \"#utility.yul\":5912:6059   */\n      tag_129\n      jump\t// in\n    tag_199:\n        /* \"#utility.yul\":5905:6059   */\n      swap2\n      pop\n        /* \"#utility.yul\":6076:6079   */\n      dup2\n        /* \"#utility.yul\":6069:6079   */\n      swap1\n      pop\n        /* \"#utility.yul\":5706:6085   */\n      swap2\n      swap1\n      pop\n      jump\t// out\n        /* \"#utility.yul\":6091:6252   */\n    tag_130:\n        /* \"#utility.yul\":6231:6244   */\n      0x43616c6c206661696c6564000000000000000000000000000000000000000000\n        /* \"#utility.yul\":6227:6228   */\n      0x00\n        /* \"#utility.yul\":6219:6225   */\n      dup3\n        /* \"#utility.yul\":6215:6229   */\n      add\n        /* \"#utility.yul\":6208:6245   */\n      mstore\n        /* \"#utility.yul\":6091:6252   */\n      pop\n      jump\t// out\n        /* \"#utility.yul\":6258:6624   */\n    tag_131:\n        /* \"#utility.yul\":6400:6403   */\n      0x00\n        /* \"#utility.yul\":6421:6488   */\n      tag_202\n        /* \"#utility.yul\":6485:6487   */\n      0x0b\n        /* \"#utility.yul\":6480:6483   */\n      dup4\n        /* \"#utility.yul\":6421:6488   */\n      tag_122\n      jump\t// in\n    tag_202:\n        /* \"#utility.yul\":6414:6488   */\n      swap2\n      pop\n        /* \"#utility.yul\":6497:6590   */\n      tag_203\n        /* \"#utility.yul\":6586:6589   */\n      dup3\n        /* \"#utility.yul\":6497:6590   */\n      tag_130\n      jump\t// in\n    tag_203:\n        /* \"#utility.yul\":6615:6617   */\n      0x20\n        /* \"#utility.yul\":6610:6613   */\n      dup3\n        /* \"#utility.yul\":6606:6618   */\n      add\n        /* \"#utility.yul\":6599:6618   */\n      swap1\n      pop\n        /* \"#utility.yul\":6258:6624   */\n      swap2\n      swap1\n      pop\n      jump\t// out\n        /* \"#utility.yul\":6630:7049   */\n    tag_85:\n        /* \"#utility.yul\":6796:6800   */\n      0x00\n        /* \"#utility.yul\":6834:6836   */\n      0x20\n        /* \"#utility.yul\":6823:6832   */\n      dup3\n        /* \"#utility.yul\":6819:6837   */\n      add\n        /* \"#utility.yul\":6811:6837   */\n      swap1\n      pop\n        /* \"#utility.yul\":6883:6892   */\n      dup2\n        /* \"#utility.yul\":6877:6881   */\n      dup2\n        /* \"#utility.yul\":6873:6893   */\n      sub\n        /* \"#utility.yul\":6869:6870   */\n      0x00\n        /* \"#utility.yul\":6858:6867   */\n      dup4\n        /* \"#utility.yul\":6854:6871   */\n      add\n        /* \"#utility.yul\":6847:6894   */\n      mstore\n        /* \"#utility.yul\":6911:7042   */\n      tag_205\n        /* \"#utility.yul\":7037:7041   */\n      dup2\n        /* \"#utility.yul\":6911:7042   */\n      tag_131\n      jump\t// in\n    tag_205:\n        /* \"#utility.yul\":6903:7042   */\n      swap1\n      pop\n        /* \"#utility.yul\":6630:7049   */\n      swap2\n      swap1\n      pop\n      jump\t// out\n        /* \"#utility.yul\":7055:7403   */\n    tag_92:\n        /* \"#utility.yul\":7095:7102   */\n      0x00\n        /* \"#utility.yul\":7118:7138   */\n      tag_207\n        /* \"#utility.yul\":7136:7137   */\n      dup3\n        /* \"#utility.yul\":7118:7138   */\n      tag_110\n      jump\t// in\n    tag_207:\n        /* \"#utility.yul\":7113:7138   */\n      swap2\n      pop\n        /* \"#utility.yul\":7152:7172   */\n      tag_208\n        /* \"#utility.yul\":7170:7171   */\n      dup4\n        /* \"#utility.yul\":7152:7172   */\n      tag_110\n      jump\t// in\n    tag_208:\n        /* \"#utility.yul\":7147:7172   */\n      swap3\n      pop\n        /* \"#utility.yul\":7340:7341   */\n      dup2\n        /* \"#utility.yul\":7272:7338   */\n      0xffffffffffffffffffffffffffffffffffffffffffffffffffffffffffffffff\n        /* \"#utility.yul\":7268:7342   */\n      div\n        /* \"#utility.yul\":7265:7266   */\n      dup4\n        /* \"#utility.yul\":7262:7343   */\n      gt\n        /* \"#utility.yul\":7257:7258   */\n      dup3\n        /* \"#utility.yul\":7250:7259   */\n      iszero\n        /* \"#utility.yul\":7243:7260   */\n      iszero\n        /* \"#utility.yul\":7239:7344   */\n      and\n        /* \"#utility.yul\":7236:7367   */\n      iszero\n      tag_209\n      jumpi\n        /* \"#utility.yul\":7347:7365   */\n      tag_210\n      tag_126\n      jump\t// in\n    tag_210:\n        /* \"#utility.yul\":7236:7367   */\n    tag_209:\n        /* \"#utility.yul\":7395:7396   */\n      dup3\n        /* \"#utility.yul\":7392:7393   */\n      dup3\n        /* \"#utility.yul\":7388:7397   */\n      mul\n        /* \"#utility.yul\":7377:7397   */\n      swap1\n      pop\n        /* \"#utility.yul\":7055:7403   */\n      swap3\n      swap2\n      pop\n      pop\n      jump\t// out\n        /* \"#utility.yul\":7409:7589   */\n    tag_132:\n        /* \"#utility.yul\":7457:7534   */\n      0x4e487b7100000000000000000000000000000000000000000000000000000000\n        /* \"#utility.yul\":7454:7455   */\n      0x00\n        /* \"#utility.yul\":7447:7535   */\n      mstore\n        /* \"#utility.yul\":7554:7558   */\n      0x12\n        /* \"#utility.yul\":7551:7552   */\n      0x04\n        /* \"#utility.yul\":7544:7559   */\n      mstore\n        /* \"#utility.yul\":7578:7582   */\n      0x24\n        /* \"#utility.yul\":7575:7576   */\n      0x00\n        /* \"#utility.yul\":7568:7583   */\n      revert\n        /* \"#utility.yul\":7595:7780   */\n    tag_94:\n        /* \"#utility.yul\":7635:7636   */\n      0x00\n        /* \"#utility.yul\":7652:7672   */\n      tag_213\n        /* \"#utility.yul\":7670:7671   */\n      dup3\n        /* \"#utility.yul\":7652:7672   */\n      tag_110\n      jump\t// in\n    tag_213:\n        /* \"#utility.yul\":7647:7672   */\n      swap2\n      pop\n        /* \"#utility.yul\":7686:7706   */\n      tag_214\n        /* \"#utility.yul\":7704:7705   */\n      dup4\n        /* \"#utility.yul\":7686:7706   */\n      tag_110\n      jump\t// in\n    tag_214:\n        /* \"#utility.yul\":7681:7706   */\n      swap3\n      pop\n        /* \"#utility.yul\":7725:7726   */\n      dup3\n        /* \"#utility.yul\":7715:7750   */\n      tag_215\n      jumpi\n        /* \"#utility.yul\":7730:7748   */\n      tag_216\n      tag_132\n      jump\t// in\n    tag_216:\n        /* \"#utility.yul\":7715:7750   */\n    tag_215:\n        /* \"#utility.yul\":7772:7773   */\n      dup3\n        /* \"#utility.yul\":7769:7770   */\n      dup3\n        /* \"#utility.yul\":7765:7774   */\n      div\n        /* \"#utility.yul\":7760:7774   */\n      swap1\n      pop\n        /* \"#utility.yul\":7595:7780   */\n      swap3\n      swap2\n      pop\n      pop\n      jump\t// out\n        /* \"#utility.yul\":7786:7891   */\n    tag_133:\n        /* \"#utility.yul\":7822:7829   */\n      0x00\n        /* \"#utility.yul\":7862:7884   */\n      0xffffffffffffffffffff\n        /* \"#utility.yul\":7855:7860   */\n      dup3\n        /* \"#utility.yul\":7851:7885   */\n      and\n        /* \"#utility.yul\":7840:7885   */\n      swap1\n      pop\n        /* \"#utility.yul\":7786:7891   */\n      swap2\n      swap1\n      pop\n      jump\t// out\n        /* \"#utility.yul\":7897:8017   */\n    tag_134:\n        /* \"#utility.yul\":7969:7992   */\n      tag_219\n        /* \"#utility.yul\":7986:7991   */\n      dup2\n        /* \"#utility.yul\":7969:7992   */\n      tag_133\n      jump\t// in\n    tag_219:\n        /* \"#utility.yul\":7962:7967   */\n      dup2\n        /* \"#utility.yul\":7959:7993   */\n      eq\n        /* \"#utility.yul\":7949:8011   */\n      tag_220\n      jumpi\n        /* \"#utility.yul\":8007:8008   */\n      0x00\n        /* \"#utility.yul\":8004:8005   */\n      dup1\n        /* \"#utility.yul\":7997:8009   */\n      revert\n        /* \"#utility.yul\":7949:8011   */\n    tag_220:\n        /* \"#utility.yul\":7897:8017   */\n      pop\n      jump\t// out\n        /* \"#utility.yul\":8023:8164   */\n    tag_135:\n        /* \"#utility.yul\":8079:8084   */\n      0x00\n        /* \"#utility.yul\":8110:8116   */\n      dup2\n        /* \"#utility.yul\":8104:8117   */\n      mload\n        /* \"#utility.yul\":8095:8117   */\n      swap1\n      pop\n        /* \"#utility.yul\":8126:8158   */\n      tag_222\n        /* \"#utility.yul\":8152:8157   */\n      dup2\n        /* \"#utility.yul\":8126:8158   */\n      tag_134\n      jump\t// in\n    tag_222:\n        /* \"#utility.yul\":8023:8164   */\n      swap3\n      swap2\n      pop\n      pop\n      jump\t// out\n        /* \"#utility.yul\":8170:8246   */\n    tag_136:\n        /* \"#utility.yul\":8206:8213   */\n      0x00\n        /* \"#utility.yul\":8235:8240   */\n      dup2\n        /* \"#utility.yul\":8224:8240   */\n      swap1\n      pop\n        /* \"#utility.yul\":8170:8246   */\n      swap2\n      swap1\n      pop\n      jump\t// out\n        /* \"#utility.yul\":8252:8372   */\n    tag_137:\n        /* \"#utility.yul\":8324:8347   */\n      tag_225\n        /* \"#utility.yul\":8341:8346   */\n      dup2\n        /* \"#utility.yul\":8324:8347   */\n      tag_136\n      jump\t// in\n    tag_225:\n        /* \"#utility.yul\":8317:8322   */\n      dup2\n        /* \"#utility.yul\":8314:8348   */\n      eq\n        /* \"#utility.yul\":8304:8366   */\n      tag_226\n      jumpi\n        /* \"#utility.yul\":8362:8363   */\n      0x00\n        /* \"#utility.yul\":8359:8360   */\n      dup1\n        /* \"#utility.yul\":8352:8364   */\n      revert\n        /* \"#utility.yul\":8304:8366   */\n    tag_226:\n        /* \"#utility.yul\":8252:8372   */\n      pop\n      jump\t// out\n        /* \"#utility.yul\":8378:8519   */\n    tag_138:\n        /* \"#utility.yul\":8434:8439   */\n      0x00\n        /* \"#utility.yul\":8465:8471   */\n      dup2\n        /* \"#utility.yul\":8459:8472   */\n      mload\n        /* \"#utility.yul\":8450:8472   */\n      swap1\n      pop\n        /* \"#utility.yul\":8481:8513   */\n      tag_228\n        /* \"#utility.yul\":8507:8512   */\n      dup2\n        /* \"#utility.yul\":8481:8513   */\n      tag_137\n      jump\t// in\n    tag_228:\n        /* \"#utility.yul\":8378:8519   */\n      swap3\n      swap2\n      pop\n      pop\n      jump\t// out\n        /* \"#utility.yul\":8525:9496   */\n    tag_100:\n        /* \"#utility.yul\":8628:8634   */\n      0x00\n        /* \"#utility.yul\":8636:8642   */\n      dup1\n        /* \"#utility.yul\":8644:8650   */\n      0x00\n        /* \"#utility.yul\":8652:8658   */\n      dup1\n        /* \"#utility.yul\":8660:8666   */\n      0x00\n        /* \"#utility.yul\":8709:8712   */\n      0xa0\n        /* \"#utility.yul\":8697:8706   */\n      dup7\n        /* \"#utility.yul\":8688:8695   */\n      dup9\n        /* \"#utility.yul\":8684:8707   */\n      sub\n        /* \"#utility.yul\":8680:8713   */\n      slt\n        /* \"#utility.yul\":8677:8797   */\n      iszero\n      tag_230\n      jumpi\n        /* \"#utility.yul\":8716:8795   */\n      tag_231\n      tag_113\n      jump\t// in\n    tag_231:\n        /* \"#utility.yul\":8677:8797   */\n    tag_230:\n        /* \"#utility.yul\":8836:8837   */\n      0x00\n        /* \"#utility.yul\":8861:8924   */\n      tag_232\n        /* \"#utility.yul\":8916:8923   */\n      dup9\n        /* \"#utility.yul\":8907:8913   */\n      dup3\n        /* \"#utility.yul\":8896:8905   */\n      dup10\n        /* \"#utility.yul\":8892:8914   */\n      add\n        /* \"#utility.yul\":8861:8924   */\n      tag_135\n      jump\t// in\n    tag_232:\n        /* \"#utility.yul\":8851:8924   */\n      swap6\n      pop\n        /* \"#utility.yul\":8807:8934   */\n      pop\n        /* \"#utility.yul\":8973:8975   */\n      0x20\n        /* \"#utility.yul\":8999:9062   */\n      tag_233\n        /* \"#utility.yul\":9054:9061   */\n      dup9\n        /* \"#utility.yul\":9045:9051   */\n      dup3\n        /* \"#utility.yul\":9034:9043   */\n      dup10\n        /* \"#utility.yul\":9030:9052   */\n      add\n        /* \"#utility.yul\":8999:9062   */\n      tag_138\n      jump\t// in\n    tag_233:\n        /* \"#utility.yul\":8989:9062   */\n      swap5\n      pop\n        /* \"#utility.yul\":8944:9072   */\n      pop\n        /* \"#utility.yul\":9111:9113   */\n      0x40\n        /* \"#utility.yul\":9137:9201   */\n      tag_234\n        /* \"#utility.yul\":9193:9200   */\n      dup9\n        /* \"#utility.yul\":9184:9190   */\n      dup3\n        /* \"#utility.yul\":9173:9182   */\n      dup10\n        /* \"#utility.yul\":9169:9191   */\n      add\n        /* \"#utility.yul\":9137:9201   */\n      tag_125\n      jump\t// in\n    tag_234:\n        /* \"#utility.yul\":9127:9201   */\n      swap4\n      pop\n        /* \"#utility.yul\":9082:9211   */\n      pop\n        /* \"#utility.yul\":9250:9252   */\n      0x60\n        /* \"#utility.yul\":9276:9340   */\n      tag_235\n        /* \"#utility.yul\":9332:9339   */\n      dup9\n        /* \"#utility.yul\":9323:9329   */\n      dup3\n        /* \"#utility.yul\":9312:9321   */\n      dup10\n        /* \"#utility.yul\":9308:9330   */\n      add\n        /* \"#utility.yul\":9276:9340   */\n      tag_125\n      jump\t// in\n    tag_235:\n        /* \"#utility.yul\":9266:9340   */\n      swap3\n      pop\n        /* \"#utility.yul\":9221:9350   */\n      pop\n        /* \"#utility.yul\":9389:9392   */\n      0x80\n        /* \"#utility.yul\":9416:9479   */\n      tag_236\n        /* \"#utility.yul\":9471:9478   */\n      dup9\n        /* \"#utility.yul\":9462:9468   */\n      dup3\n        /* \"#utility.yul\":9451:9460   */\n      dup10\n        /* \"#utility.yul\":9447:9469   */\n      add\n        /* \"#utility.yul\":9416:9479   */\n      tag_135\n      jump\t// in\n    tag_236:\n        /* \"#utility.yul\":9406:9479   */\n      swap2\n      pop\n        /* \"#utility.yul\":9360:9489   */\n      pop\n        /* \"#utility.yul\":8525:9496   */\n      swap3\n      swap6\n      pop\n      swap3\n      swap6\n      swap1\n      swap4\n      pop\n      jump\t// out\n        /* \"#utility.yul\":9502:10493   */\n    tag_102:\n        /* \"#utility.yul\":9541:9548   */\n      0x00\n        /* \"#utility.yul\":9564:9583   */\n      tag_238\n        /* \"#utility.yul\":9581:9582   */\n      dup3\n        /* \"#utility.yul\":9564:9583   */\n      tag_136\n      jump\t// in\n    tag_238:\n        /* \"#utility.yul\":9559:9583   */\n      swap2\n      pop\n        /* \"#utility.yul\":9597:9616   */\n      tag_239\n        /* \"#utility.yul\":9614:9615   */\n      dup4\n        /* \"#utility.yul\":9597:9616   */\n      tag_136\n      jump\t// in\n    tag_239:\n        /* \"#utility.yul\":9592:9616   */\n      swap3\n      pop\n        /* \"#utility.yul\":9798:9799   */\n      dup3\n        /* \"#utility.yul\":9730:9796   */\n      0x7fffffffffffffffffffffffffffffffffffffffffffffffffffffffffffffff\n        /* \"#utility.yul\":9726:9800   */\n      div\n        /* \"#utility.yul\":9723:9724   */\n      dup3\n        /* \"#utility.yul\":9720:9801   */\n      gt\n        /* \"#utility.yul\":9715:9716   */\n      0x00\n        /* \"#utility.yul\":9712:9713   */\n      dup5\n        /* \"#utility.yul\":9708:9717   */\n      sgt\n        /* \"#utility.yul\":9704:9705   */\n      0x00\n        /* \"#utility.yul\":9701:9702   */\n      dup5\n        /* \"#utility.yul\":9697:9706   */\n      sgt\n        /* \"#utility.yul\":9693:9718   */\n      and\n        /* \"#utility.yul\":9689:9802   */\n      and\n        /* \"#utility.yul\":9686:9825   */\n      iszero\n      tag_240\n      jumpi\n        /* \"#utility.yul\":9805:9823   */\n      tag_241\n      tag_126\n      jump\t// in\n    tag_241:\n        /* \"#utility.yul\":9686:9825   */\n    tag_240:\n        /* \"#utility.yul\":10009:10010   */\n      dup2\n        /* \"#utility.yul\":9941:10007   */\n      0x8000000000000000000000000000000000000000000000000000000000000000\n        /* \"#utility.yul\":9936:10011   */\n      sdiv\n        /* \"#utility.yul\":9933:9934   */\n      dup4\n        /* \"#utility.yul\":9929:10012   */\n      slt\n        /* \"#utility.yul\":9924:9925   */\n      0x00\n        /* \"#utility.yul\":9921:9922   */\n      dup5\n        /* \"#utility.yul\":9917:9926   */\n      slt\n        /* \"#utility.yul\":9913:9914   */\n      0x00\n        /* \"#utility.yul\":9910:9911   */\n      dup5\n        /* \"#utility.yul\":9906:9915   */\n      sgt\n        /* \"#utility.yul\":9902:9927   */\n      and\n        /* \"#utility.yul\":9898:10013   */\n      and\n        /* \"#utility.yul\":9895:10036   */\n      iszero\n      tag_242\n      jumpi\n        /* \"#utility.yul\":10016:10034   */\n      tag_243\n      tag_126\n      jump\t// in\n    tag_243:\n        /* \"#utility.yul\":9895:10036   */\n    tag_242:\n        /* \"#utility.yul\":10220:10221   */\n      dup3\n        /* \"#utility.yul\":10152:10218   */\n      0x8000000000000000000000000000000000000000000000000000000000000000\n        /* \"#utility.yul\":10147:10222   */\n      sdiv\n        /* \"#utility.yul\":10144:10145   */\n      dup3\n        /* \"#utility.yul\":10140:10223   */\n      slt\n        /* \"#utility.yul\":10135:10136   */\n      0x00\n        /* \"#utility.yul\":10132:10133   */\n      dup5\n        /* \"#utility.yul\":10128:10137   */\n      sgt\n        /* \"#utility.yul\":10124:10125   */\n      0x00\n        /* \"#utility.yul\":10121:10122   */\n      dup5\n        /* \"#utility.yul\":10117:10126   */\n      slt\n        /* \"#utility.yul\":10113:10138   */\n      and\n        /* \"#utility.yul\":10109:10224   */\n      and\n        /* \"#utility.yul\":10106:10247   */\n      iszero\n      tag_244\n      jumpi\n        /* \"#utility.yul\":10227:10245   */\n      tag_245\n      tag_126\n      jump\t// in\n    tag_245:\n        /* \"#utility.yul\":10106:10247   */\n    tag_244:\n        /* \"#utility.yul\":10430:10431   */\n      dup3\n        /* \"#utility.yul\":10362:10428   */\n      0x7fffffffffffffffffffffffffffffffffffffffffffffffffffffffffffffff\n        /* \"#utility.yul\":10357:10432   */\n      sdiv\n        /* \"#utility.yul\":10354:10355   */\n      dup3\n        /* \"#utility.yul\":10350:10433   */\n      slt\n        /* \"#utility.yul\":10345:10346   */\n      0x00\n        /* \"#utility.yul\":10342:10343   */\n      dup5\n        /* \"#utility.yul\":10338:10347   */\n      slt\n        /* \"#utility.yul\":10334:10335   */\n      0x00\n        /* \"#utility.yul\":10331:10332   */\n      dup5\n        /* \"#utility.yul\":10327:10336   */\n      slt\n        /* \"#utility.yul\":10323:10348   */\n      and\n        /* \"#utility.yul\":10319:10434   */\n      and\n        /* \"#utility.yul\":10316:10457   */\n      iszero\n      tag_246\n      jumpi\n        /* \"#utility.yul\":10437:10455   */\n      tag_247\n      tag_126\n      jump\t// in\n    tag_247:\n        /* \"#utility.yul\":10316:10457   */\n    tag_246:\n        /* \"#utility.yul\":10485:10486   */\n      dup3\n        /* \"#utility.yul\":10482:10483   */\n      dup3\n        /* \"#utility.yul\":10478:10487   */\n      mul\n        /* \"#utility.yul\":10467:10487   */\n      swap1\n      pop\n        /* \"#utility.yul\":9502:10493   */\n      swap3\n      swap2\n      pop\n      pop\n      jump\t// out\n\n    auxdata: 0xa264697066735822122030d0a161f21235c8815178f426d062eae84b48bc1bb8a1429dbb0041aadd20a964736f6c63430008090033\n}\n",
				"bytecode": {
					"linkReferences": {},
					"object": "608060405234801561001057600080fd5b5033600260006101000a81548173ffffffffffffffffffffffffffffffffffffffff021916908373ffffffffffffffffffffffffffffffffffffffff160217905550610e23806100616000396000f3fe6080604052600436106100745760003560e01c80636b69a5921161004e5780636b69a592146100ff578063b60d42881461012a578063dba6335f14610134578063dc0d3dff1461015f57610083565b80630d8e6e2c1461008d5780633ccfd60b146100b85780633e47d6f3146100c257610083565b366100835761008161019c565b005b61008b61019c565b005b34801561009957600080fd5b506100a2610298565b6040516100af91906107b4565b60405180910390f35b6100c0610336565b005b3480156100ce57600080fd5b506100e960048036038101906100e49190610832565b610578565b6040516100f691906107b4565b60405180910390f35b34801561010b57600080fd5b50610114610590565b60405161012191906107b4565b60405180910390f35b61013261019c565b005b34801561014057600080fd5b5061014961059d565b604051610156919061086e565b60405180910390f35b34801561016b57600080fd5b50610186600480360381019061018191906108b5565b6105c3565b604051610193919061086e565b60405180910390f35b6802b5e3af16b18800006101af34610602565b10156101f0576040517f08c379a00000000000000000000000000000000000000000000000000000000081526004016101e79061093f565b60405180910390fd5b346000803373ffffffffffffffffffffffffffffffffffffffff1673ffffffffffffffffffffffffffffffffffffffff168152602001908152602001600020819055506001339080600181540180825580915050600190039060005260206000200160009091909190916101000a81548173ffffffffffffffffffffffffffffffffffffffff021916908373ffffffffffffffffffffffffffffffffffffffff160217905550565b600080735f4ec3df9cbd43714fe2740f5e3616155c5b841990508073ffffffffffffffffffffffffffffffffffffffff166354fd4d506040518163ffffffff1660e01b815260040160206040518083038186803b1580156102f857600080fd5b505afa15801561030c573d6000803e3d6000fd5b505050506040513d601f19601f820116820180604052508101906103309190610974565b91505090565b600260009054906101000a900473ffffffffffffffffffffffffffffffffffffffff1673ffffffffffffffffffffffffffffffffffffffff163373ffffffffffffffffffffffffffffffffffffffff16146103bd576040517f30cd747100000000000000000000000000000000000000000000000000000000815260040160405180910390fd5b60005b600180549050811015610468576000600182815481106103e3576103e26109a1565b5b9060005260206000200160009054906101000a900473ffffffffffffffffffffffffffffffffffffffff16905060008060008373ffffffffffffffffffffffffffffffffffffffff1673ffffffffffffffffffffffffffffffffffffffff16815260200190815260200160002081905550508080610460906109ff565b9150506103c0565b50600067ffffffffffffffff81111561048457610483610a48565b5b6040519080825280602002602001820160405280156104b25781602001602082028036833780820191505090505b50600190805190602001906104c89291906106f4565b5060003373ffffffffffffffffffffffffffffffffffffffff16476040516104ef90610aa8565b60006040518083038185875af1925050503d806000811461052c576040519150601f19603f3d011682016040523d82523d6000602084013e610531565b606091505b5050905080610575576040517f08c379a000000000000000000000000000000000000000000000000000000000815260040161056c90610b09565b60405180910390fd5b50565b60006020528060005260406000206000915090505481565b6802b5e3af16b188000081565b600260009054906101000a900473ffffffffffffffffffffffffffffffffffffffff1681565b600181815481106105d357600080fd5b906000526020600020016000915054906101000a900473ffffffffffffffffffffffffffffffffffffffff1681565b60008061060d61063c565b90506000670de0b6b3a764000084836106269190610b29565b6106309190610bb2565b90508092505050919050565b600080735f4ec3df9cbd43714fe2740f5e3616155c5b8419905060008173ffffffffffffffffffffffffffffffffffffffff1663feaf968c6040518163ffffffff1660e01b815260040160a06040518083038186803b15801561069e57600080fd5b505afa1580156106b2573d6000803e3d6000fd5b505050506040513d601f19601f820116820180604052508101906106d69190610c5b565b5050509150506402540be400816106ed9190610cd6565b9250505090565b82805482825590600052602060002090810192821561076d579160200282015b8281111561076c5782518260006101000a81548173ffffffffffffffffffffffffffffffffffffffff021916908373ffffffffffffffffffffffffffffffffffffffff16021790555091602001919060010190610714565b5b50905061077a919061077e565b5090565b5b8082111561079757600081600090555060010161077f565b5090565b6000819050919050565b6107ae8161079b565b82525050565b60006020820190506107c960008301846107a5565b92915050565b600080fd5b600073ffffffffffffffffffffffffffffffffffffffff82169050919050565b60006107ff826107d4565b9050919050565b61080f816107f4565b811461081a57600080fd5b50565b60008135905061082c81610806565b92915050565b600060208284031215610848576108476107cf565b5b60006108568482850161081d565b91505092915050565b610868816107f4565b82525050565b6000602082019050610883600083018461085f565b92915050565b6108928161079b565b811461089d57600080fd5b50565b6000813590506108af81610889565b92915050565b6000602082840312156108cb576108ca6107cf565b5b60006108d9848285016108a0565b91505092915050565b600082825260208201905092915050565b7f596f75206e65656420746f207370656e64206d6f726520455448210000000000600082015250565b6000610929601b836108e2565b9150610934826108f3565b602082019050919050565b600060208201905081810360008301526109588161091c565b9050919050565b60008151905061096e81610889565b92915050565b60006020828403121561098a576109896107cf565b5b60006109988482850161095f565b91505092915050565b7f4e487b7100000000000000000000000000000000000000000000000000000000600052603260045260246000fd5b7f4e487b7100000000000000000000000000000000000000000000000000000000600052601160045260246000fd5b6000610a0a8261079b565b91507fffffffffffffffffffffffffffffffffffffffffffffffffffffffffffffffff821415610a3d57610a3c6109d0565b5b600182019050919050565b7f4e487b7100000000000000000000000000000000000000000000000000000000600052604160045260246000fd5b600081905092915050565b50565b6000610a92600083610a77565b9150610a9d82610a82565b600082019050919050565b6000610ab382610a85565b9150819050919050565b7f43616c6c206661696c6564000000000000000000000000000000000000000000600082015250565b6000610af3600b836108e2565b9150610afe82610abd565b602082019050919050565b60006020820190508181036000830152610b2281610ae6565b9050919050565b6000610b348261079b565b9150610b3f8361079b565b9250817fffffffffffffffffffffffffffffffffffffffffffffffffffffffffffffffff0483118215151615610b7857610b776109d0565b5b828202905092915050565b7f4e487b7100000000000000000000000000000000000000000000000000000000600052601260045260246000fd5b6000610bbd8261079b565b9150610bc88361079b565b925082610bd857610bd7610b83565b5b828204905092915050565b600069ffffffffffffffffffff82169050919050565b610c0281610be3565b8114610c0d57600080fd5b50565b600081519050610c1f81610bf9565b92915050565b6000819050919050565b610c3881610c25565b8114610c4357600080fd5b50565b600081519050610c5581610c2f565b92915050565b600080600080600060a08688031215610c7757610c766107cf565b5b6000610c8588828901610c10565b9550506020610c9688828901610c46565b9450506040610ca78882890161095f565b9350506060610cb88882890161095f565b9250506080610cc988828901610c10565b9150509295509295909350565b6000610ce182610c25565b9150610cec83610c25565b9250827f7fffffffffffffffffffffffffffffffffffffffffffffffffffffffffffffff0482116000841360008413161615610d2b57610d2a6109d0565b5b817f80000000000000000000000000000000000000000000000000000000000000000583126000841260008413161615610d6857610d676109d0565b5b827f80000000000000000000000000000000000000000000000000000000000000000582126000841360008412161615610da557610da46109d0565b5b827f7fffffffffffffffffffffffffffffffffffffffffffffffffffffffffffffff0582126000841260008412161615610de257610de16109d0565b5b82820290509291505056fea264697066735822122030d0a161f21235c8815178f426d062eae84b48bc1bb8a1429dbb0041aadd20a964736f6c63430008090033",
					"opcodes": "PUSH1 0x80 PUSH1 0x40 MSTORE CALLVALUE DUP1 ISZERO PUSH2 0x10 JUMPI PUSH1 0x0 DUP1 REVERT JUMPDEST POP CALLER PUSH1 0x2 PUSH1 0x0 PUSH2 0x100 EXP DUP2 SLOAD DUP2 PUSH20 0xFFFFFFFFFFFFFFFFFFFFFFFFFFFFFFFFFFFFFFFF MUL NOT AND SWAP1 DUP4 PUSH20 0xFFFFFFFFFFFFFFFFFFFFFFFFFFFFFFFFFFFFFFFF AND MUL OR SWAP1 SSTORE POP PUSH2 0xE23 DUP1 PUSH2 0x61 PUSH1 0x0 CODECOPY PUSH1 0x0 RETURN INVALID PUSH1 0x80 PUSH1 0x40 MSTORE PUSH1 0x4 CALLDATASIZE LT PUSH2 0x74 JUMPI PUSH1 0x0 CALLDATALOAD PUSH1 0xE0 SHR DUP1 PUSH4 0x6B69A592 GT PUSH2 0x4E JUMPI DUP1 PUSH4 0x6B69A592 EQ PUSH2 0xFF JUMPI DUP1 PUSH4 0xB60D4288 EQ PUSH2 0x12A JUMPI DUP1 PUSH4 0xDBA6335F EQ PUSH2 0x134 JUMPI DUP1 PUSH4 0xDC0D3DFF EQ PUSH2 0x15F JUMPI PUSH2 0x83 JUMP JUMPDEST DUP1 PUSH4 0xD8E6E2C EQ PUSH2 0x8D JUMPI DUP1 PUSH4 0x3CCFD60B EQ PUSH2 0xB8 JUMPI DUP1 PUSH4 0x3E47D6F3 EQ PUSH2 0xC2 JUMPI PUSH2 0x83 JUMP JUMPDEST CALLDATASIZE PUSH2 0x83 JUMPI PUSH2 0x81 PUSH2 0x19C JUMP JUMPDEST STOP JUMPDEST PUSH2 0x8B PUSH2 0x19C JUMP JUMPDEST STOP JUMPDEST CALLVALUE DUP1 ISZERO PUSH2 0x99 JUMPI PUSH1 0x0 DUP1 REVERT JUMPDEST POP PUSH2 0xA2 PUSH2 0x298 JUMP JUMPDEST PUSH1 0x40 MLOAD PUSH2 0xAF SWAP2 SWAP1 PUSH2 0x7B4 JUMP JUMPDEST PUSH1 0x40 MLOAD DUP1 SWAP2 SUB SWAP1 RETURN JUMPDEST PUSH2 0xC0 PUSH2 0x336 JUMP JUMPDEST STOP JUMPDEST CALLVALUE DUP1 ISZERO PUSH2 0xCE JUMPI PUSH1 0x0 DUP1 REVERT JUMPDEST POP PUSH2 0xE9 PUSH1 0x4 DUP1 CALLDATASIZE SUB DUP2 ADD SWAP1 PUSH2 0xE4 SWAP2 SWAP1 PUSH2 0x832 JUMP JUMPDEST PUSH2 0x578 JUMP JUMPDEST PUSH1 0x40 MLOAD PUSH2 0xF6 SWAP2 SWAP1 PUSH2 0x7B4 JUMP JUMPDEST PUSH1 0x40 MLOAD DUP1 SWAP2 SUB SWAP1 RETURN JUMPDEST CALLVALUE DUP1 ISZERO PUSH2 0x10B JUMPI PUSH1 0x0 DUP1 REVERT JUMPDEST POP PUSH2 0x114 PUSH2 0x590 JUMP JUMPDEST PUSH1 0x40 MLOAD PUSH2 0x121 SWAP2 SWAP1 PUSH2 0x7B4 JUMP JUMPDEST PUSH1 0x40 MLOAD DUP1 SWAP2 SUB SWAP1 RETURN JUMPDEST PUSH2 0x132 PUSH2 0x19C JUMP JUMPDEST STOP JUMPDEST CALLVALUE DUP1 ISZERO PUSH2 0x140 JUMPI PUSH1 0x0 DUP1 REVERT JUMPDEST POP PUSH2 0x149 PUSH2 0x59D JUMP JUMPDEST PUSH1 0x40 MLOAD PUSH2 0x156 SWAP2 SWAP1 PUSH2 0x86E JUMP JUMPDEST PUSH1 0x40 MLOAD DUP1 SWAP2 SUB SWAP1 RETURN JUMPDEST CALLVALUE DUP1 ISZERO PUSH2 0x16B JUMPI PUSH1 0x0 DUP1 REVERT JUMPDEST POP PUSH2 0x186 PUSH1 0x4 DUP1 CALLDATASIZE SUB DUP2 ADD SWAP1 PUSH2 0x181 SWAP2 SWAP1 PUSH2 0x8B5 JUMP JUMPDEST PUSH2 0x5C3 JUMP JUMPDEST PUSH1 0x40 MLOAD PUSH2 0x193 SWAP2 SWAP1 PUSH2 0x86E JUMP JUMPDEST PUSH1 0x40 MLOAD DUP1 SWAP2 SUB SWAP1 RETURN JUMPDEST PUSH9 0x2B5E3AF16B1880000 PUSH2 0x1AF CALLVALUE PUSH2 0x602 JUMP JUMPDEST LT ISZERO PUSH2 0x1F0 JUMPI PUSH1 0x40 MLOAD PUSH32 0x8C379A000000000000000000000000000000000000000000000000000000000 DUP2 MSTORE PUSH1 0x4 ADD PUSH2 0x1E7 SWAP1 PUSH2 0x93F JUMP JUMPDEST PUSH1 0x40 MLOAD DUP1 SWAP2 SUB SWAP1 REVERT JUMPDEST CALLVALUE PUSH1 0x0 DUP1 CALLER PUSH20 0xFFFFFFFFFFFFFFFFFFFFFFFFFFFFFFFFFFFFFFFF AND PUSH20 0xFFFFFFFFFFFFFFFFFFFFFFFFFFFFFFFFFFFFFFFF AND DUP2 MSTORE PUSH1 0x20 ADD SWAP1 DUP2 MSTORE PUSH1 0x20 ADD PUSH1 0x0 KECCAK256 DUP2 SWAP1 SSTORE POP PUSH1 0x1 CALLER SWAP1 DUP1 PUSH1 0x1 DUP2 SLOAD ADD DUP1 DUP3 SSTORE DUP1 SWAP2 POP POP PUSH1 0x1 SWAP1 SUB SWAP1 PUSH1 0x0 MSTORE PUSH1 0x20 PUSH1 0x0 KECCAK256 ADD PUSH1 0x0 SWAP1 SWAP2 SWAP1 SWAP2 SWAP1 SWAP2 PUSH2 0x100 EXP DUP2 SLOAD DUP2 PUSH20 0xFFFFFFFFFFFFFFFFFFFFFFFFFFFFFFFFFFFFFFFF MUL NOT AND SWAP1 DUP4 PUSH20 0xFFFFFFFFFFFFFFFFFFFFFFFFFFFFFFFFFFFFFFFF AND MUL OR SWAP1 SSTORE POP JUMP JUMPDEST PUSH1 0x0 DUP1 PUSH20 0x5F4EC3DF9CBD43714FE2740F5E3616155C5B8419 SWAP1 POP DUP1 PUSH20 0xFFFFFFFFFFFFFFFFFFFFFFFFFFFFFFFFFFFFFFFF AND PUSH4 0x54FD4D50 PUSH1 0x40 MLOAD DUP2 PUSH4 0xFFFFFFFF AND PUSH1 0xE0 SHL DUP2 MSTORE PUSH1 0x4 ADD PUSH1 0x20 PUSH1 0x40 MLOAD DUP1 DUP4 SUB DUP2 DUP7 DUP1 EXTCODESIZE ISZERO DUP1 ISZERO PUSH2 0x2F8 JUMPI PUSH1 0x0 DUP1 REVERT JUMPDEST POP GAS STATICCALL ISZERO DUP1 ISZERO PUSH2 0x30C JUMPI RETURNDATASIZE PUSH1 0x0 DUP1 RETURNDATACOPY RETURNDATASIZE PUSH1 0x0 REVERT JUMPDEST POP POP POP POP PUSH1 0x40 MLOAD RETURNDATASIZE PUSH1 0x1F NOT PUSH1 0x1F DUP3 ADD AND DUP3 ADD DUP1 PUSH1 0x40 MSTORE POP DUP2 ADD SWAP1 PUSH2 0x330 SWAP2 SWAP1 PUSH2 0x974 JUMP JUMPDEST SWAP2 POP POP SWAP1 JUMP JUMPDEST PUSH1 0x2 PUSH1 0x0 SWAP1 SLOAD SWAP1 PUSH2 0x100 EXP SWAP1 DIV PUSH20 0xFFFFFFFFFFFFFFFFFFFFFFFFFFFFFFFFFFFFFFFF AND PUSH20 0xFFFFFFFFFFFFFFFFFFFFFFFFFFFFFFFFFFFFFFFF AND CALLER PUSH20 0xFFFFFFFFFFFFFFFFFFFFFFFFFFFFFFFFFFFFFFFF AND EQ PUSH2 0x3BD JUMPI PUSH1 0x40 MLOAD PUSH32 0x30CD747100000000000000000000000000000000000000000000000000000000 DUP2 MSTORE PUSH1 0x4 ADD PUSH1 0x40 MLOAD DUP1 SWAP2 SUB SWAP1 REVERT JUMPDEST PUSH1 0x0 JUMPDEST PUSH1 0x1 DUP1 SLOAD SWAP1 POP DUP2 LT ISZERO PUSH2 0x468 JUMPI PUSH1 0x0 PUSH1 0x1 DUP3 DUP2 SLOAD DUP2 LT PUSH2 0x3E3 JUMPI PUSH2 0x3E2 PUSH2 0x9A1 JUMP JUMPDEST JUMPDEST SWAP1 PUSH1 0x0 MSTORE PUSH1 0x20 PUSH1 0x0 KECCAK256 ADD PUSH1 0x0 SWAP1 SLOAD SWAP1 PUSH2 0x100 EXP SWAP1 DIV PUSH20 0xFFFFFFFFFFFFFFFFFFFFFFFFFFFFFFFFFFFFFFFF AND SWAP1 POP PUSH1 0x0 DUP1 PUSH1 0x0 DUP4 PUSH20 0xFFFFFFFFFFFFFFFFFFFFFFFFFFFFFFFFFFFFFFFF AND PUSH20 0xFFFFFFFFFFFFFFFFFFFFFFFFFFFFFFFFFFFFFFFF AND DUP2 MSTORE PUSH1 0x20 ADD SWAP1 DUP2 MSTORE PUSH1 0x20 ADD PUSH1 0x0 KECCAK256 DUP2 SWAP1 SSTORE POP POP DUP1 DUP1 PUSH2 0x460 SWAP1 PUSH2 0x9FF JUMP JUMPDEST SWAP2 POP POP PUSH2 0x3C0 JUMP JUMPDEST POP PUSH1 0x0 PUSH8 0xFFFFFFFFFFFFFFFF DUP2 GT ISZERO PUSH2 0x484 JUMPI PUSH2 0x483 PUSH2 0xA48 JUMP JUMPDEST JUMPDEST PUSH1 0x40 MLOAD SWAP1 DUP1 DUP3 MSTORE DUP1 PUSH1 0x20 MUL PUSH1 0x20 ADD DUP3 ADD PUSH1 0x40 MSTORE DUP1 ISZERO PUSH2 0x4B2 JUMPI DUP2 PUSH1 0x20 ADD PUSH1 0x20 DUP3 MUL DUP1 CALLDATASIZE DUP4 CALLDATACOPY DUP1 DUP3 ADD SWAP2 POP POP SWAP1 POP JUMPDEST POP PUSH1 0x1 SWAP1 DUP1 MLOAD SWAP1 PUSH1 0x20 ADD SWAP1 PUSH2 0x4C8 SWAP3 SWAP2 SWAP1 PUSH2 0x6F4 JUMP JUMPDEST POP PUSH1 0x0 CALLER PUSH20 0xFFFFFFFFFFFFFFFFFFFFFFFFFFFFFFFFFFFFFFFF AND SELFBALANCE PUSH1 0x40 MLOAD PUSH2 0x4EF SWAP1 PUSH2 0xAA8 JUMP JUMPDEST PUSH1 0x0 PUSH1 0x40 MLOAD DUP1 DUP4 SUB DUP2 DUP6 DUP8 GAS CALL SWAP3 POP POP POP RETURNDATASIZE DUP1 PUSH1 0x0 DUP2 EQ PUSH2 0x52C JUMPI PUSH1 0x40 MLOAD SWAP2 POP PUSH1 0x1F NOT PUSH1 0x3F RETURNDATASIZE ADD AND DUP3 ADD PUSH1 0x40 MSTORE RETURNDATASIZE DUP3 MSTORE RETURNDATASIZE PUSH1 0x0 PUSH1 0x20 DUP5 ADD RETURNDATACOPY PUSH2 0x531 JUMP JUMPDEST PUSH1 0x60 SWAP2 POP JUMPDEST POP POP SWAP1 POP DUP1 PUSH2 0x575 JUMPI PUSH1 0x40 MLOAD PUSH32 0x8C379A000000000000000000000000000000000000000000000000000000000 DUP2 MSTORE PUSH1 0x4 ADD PUSH2 0x56C SWAP1 PUSH2 0xB09 JUMP JUMPDEST PUSH1 0x40 MLOAD DUP1 SWAP2 SUB SWAP1 REVERT JUMPDEST POP JUMP JUMPDEST PUSH1 0x0 PUSH1 0x20 MSTORE DUP1 PUSH1 0x0 MSTORE PUSH1 0x40 PUSH1 0x0 KECCAK256 PUSH1 0x0 SWAP2 POP SWAP1 POP SLOAD DUP2 JUMP JUMPDEST PUSH9 0x2B5E3AF16B1880000 DUP2 JUMP JUMPDEST PUSH1 0x2 PUSH1 0x0 SWAP1 SLOAD SWAP1 PUSH2 0x100 EXP SWAP1 DIV PUSH20 0xFFFFFFFFFFFFFFFFFFFFFFFFFFFFFFFFFFFFFFFF AND DUP2 JUMP JUMPDEST PUSH1 0x1 DUP2 DUP2 SLOAD DUP2 LT PUSH2 0x5D3 JUMPI PUSH1 0x0 DUP1 REVERT JUMPDEST SWAP1 PUSH1 0x0 MSTORE PUSH1 0x20 PUSH1 0x0 KECCAK256 ADD PUSH1 0x0 SWAP2 POP SLOAD SWAP1 PUSH2 0x100 EXP SWAP1 DIV PUSH20 0xFFFFFFFFFFFFFFFFFFFFFFFFFFFFFFFFFFFFFFFF AND DUP2 JUMP JUMPDEST PUSH1 0x0 DUP1 PUSH2 0x60D PUSH2 0x63C JUMP JUMPDEST SWAP1 POP PUSH1 0x0 PUSH8 0xDE0B6B3A7640000 DUP5 DUP4 PUSH2 0x626 SWAP2 SWAP1 PUSH2 0xB29 JUMP JUMPDEST PUSH2 0x630 SWAP2 SWAP1 PUSH2 0xBB2 JUMP JUMPDEST SWAP1 POP DUP1 SWAP3 POP POP POP SWAP2 SWAP1 POP JUMP JUMPDEST PUSH1 0x0 DUP1 PUSH20 0x5F4EC3DF9CBD43714FE2740F5E3616155C5B8419 SWAP1 POP PUSH1 0x0 DUP2 PUSH20 0xFFFFFFFFFFFFFFFFFFFFFFFFFFFFFFFFFFFFFFFF AND PUSH4 0xFEAF968C PUSH1 0x40 MLOAD DUP2 PUSH4 0xFFFFFFFF AND PUSH1 0xE0 SHL DUP2 MSTORE PUSH1 0x4 ADD PUSH1 0xA0 PUSH1 0x40 MLOAD DUP1 DUP4 SUB DUP2 DUP7 DUP1 EXTCODESIZE ISZERO DUP1 ISZERO PUSH2 0x69E JUMPI PUSH1 0x0 DUP1 REVERT JUMPDEST POP GAS STATICCALL ISZERO DUP1 ISZERO PUSH2 0x6B2 JUMPI RETURNDATASIZE PUSH1 0x0 DUP1 RETURNDATACOPY RETURNDATASIZE PUSH1 0x0 REVERT JUMPDEST POP POP POP POP PUSH1 0x40 MLOAD RETURNDATASIZE PUSH1 0x1F NOT PUSH1 0x1F DUP3 ADD AND DUP3 ADD DUP1 PUSH1 0x40 MSTORE POP DUP2 ADD SWAP1 PUSH2 0x6D6 SWAP2 SWAP1 PUSH2 0xC5B JUMP JUMPDEST POP POP POP SWAP2 POP POP PUSH5 0x2540BE400 DUP2 PUSH2 0x6ED SWAP2 SWAP1 PUSH2 0xCD6 JUMP JUMPDEST SWAP3 POP POP POP SWAP1 JUMP JUMPDEST DUP3 DUP1 SLOAD DUP3 DUP3 SSTORE SWAP1 PUSH1 0x0 MSTORE PUSH1 0x20 PUSH1 0x0 KECCAK256 SWAP1 DUP2 ADD SWAP3 DUP3 ISZERO PUSH2 0x76D JUMPI SWAP2 PUSH1 0x20 MUL DUP3 ADD JUMPDEST DUP3 DUP2 GT ISZERO PUSH2 0x76C JUMPI DUP3 MLOAD DUP3 PUSH1 0x0 PUSH2 0x100 EXP DUP2 SLOAD DUP2 PUSH20 0xFFFFFFFFFFFFFFFFFFFFFFFFFFFFFFFFFFFFFFFF MUL NOT AND SWAP1 DUP4 PUSH20 0xFFFFFFFFFFFFFFFFFFFFFFFFFFFFFFFFFFFFFFFF AND MUL OR SWAP1 SSTORE POP SWAP2 PUSH1 0x20 ADD SWAP2 SWAP1 PUSH1 0x1 ADD SWAP1 PUSH2 0x714 JUMP JUMPDEST JUMPDEST POP SWAP1 POP PUSH2 0x77A SWAP2 SWAP1 PUSH2 0x77E JUMP JUMPDEST POP SWAP1 JUMP JUMPDEST JUMPDEST DUP1 DUP3 GT ISZERO PUSH2 0x797 JUMPI PUSH1 0x0 DUP2 PUSH1 0x0 SWAP1 SSTORE POP PUSH1 0x1 ADD PUSH2 0x77F JUMP JUMPDEST POP SWAP1 JUMP JUMPDEST PUSH1 0x0 DUP2 SWAP1 POP SWAP2 SWAP1 POP JUMP JUMPDEST PUSH2 0x7AE DUP2 PUSH2 0x79B JUMP JUMPDEST DUP3 MSTORE POP POP JUMP JUMPDEST PUSH1 0x0 PUSH1 0x20 DUP3 ADD SWAP1 POP PUSH2 0x7C9 PUSH1 0x0 DUP4 ADD DUP5 PUSH2 0x7A5 JUMP JUMPDEST SWAP3 SWAP2 POP POP JUMP JUMPDEST PUSH1 0x0 DUP1 REVERT JUMPDEST PUSH1 0x0 PUSH20 0xFFFFFFFFFFFFFFFFFFFFFFFFFFFFFFFFFFFFFFFF DUP3 AND SWAP1 POP SWAP2 SWAP1 POP JUMP JUMPDEST PUSH1 0x0 PUSH2 0x7FF DUP3 PUSH2 0x7D4 JUMP JUMPDEST SWAP1 POP SWAP2 SWAP1 POP JUMP JUMPDEST PUSH2 0x80F DUP2 PUSH2 0x7F4 JUMP JUMPDEST DUP2 EQ PUSH2 0x81A JUMPI PUSH1 0x0 DUP1 REVERT JUMPDEST POP JUMP JUMPDEST PUSH1 0x0 DUP2 CALLDATALOAD SWAP1 POP PUSH2 0x82C DUP2 PUSH2 0x806 JUMP JUMPDEST SWAP3 SWAP2 POP POP JUMP JUMPDEST PUSH1 0x0 PUSH1 0x20 DUP3 DUP5 SUB SLT ISZERO PUSH2 0x848 JUMPI PUSH2 0x847 PUSH2 0x7CF JUMP JUMPDEST JUMPDEST PUSH1 0x0 PUSH2 0x856 DUP5 DUP3 DUP6 ADD PUSH2 0x81D JUMP JUMPDEST SWAP2 POP POP SWAP3 SWAP2 POP POP JUMP JUMPDEST PUSH2 0x868 DUP2 PUSH2 0x7F4 JUMP JUMPDEST DUP3 MSTORE POP POP JUMP JUMPDEST PUSH1 0x0 PUSH1 0x20 DUP3 ADD SWAP1 POP PUSH2 0x883 PUSH1 0x0 DUP4 ADD DUP5 PUSH2 0x85F JUMP JUMPDEST SWAP3 SWAP2 POP POP JUMP JUMPDEST PUSH2 0x892 DUP2 PUSH2 0x79B JUMP JUMPDEST DUP2 EQ PUSH2 0x89D JUMPI PUSH1 0x0 DUP1 REVERT JUMPDEST POP JUMP JUMPDEST PUSH1 0x0 DUP2 CALLDATALOAD SWAP1 POP PUSH2 0x8AF DUP2 PUSH2 0x889 JUMP JUMPDEST SWAP3 SWAP2 POP POP JUMP JUMPDEST PUSH1 0x0 PUSH1 0x20 DUP3 DUP5 SUB SLT ISZERO PUSH2 0x8CB JUMPI PUSH2 0x8CA PUSH2 0x7CF JUMP JUMPDEST JUMPDEST PUSH1 0x0 PUSH2 0x8D9 DUP5 DUP3 DUP6 ADD PUSH2 0x8A0 JUMP JUMPDEST SWAP2 POP POP SWAP3 SWAP2 POP POP JUMP JUMPDEST PUSH1 0x0 DUP3 DUP3 MSTORE PUSH1 0x20 DUP3 ADD SWAP1 POP SWAP3 SWAP2 POP POP JUMP JUMPDEST PUSH32 0x596F75206E65656420746F207370656E64206D6F726520455448210000000000 PUSH1 0x0 DUP3 ADD MSTORE POP JUMP JUMPDEST PUSH1 0x0 PUSH2 0x929 PUSH1 0x1B DUP4 PUSH2 0x8E2 JUMP JUMPDEST SWAP2 POP PUSH2 0x934 DUP3 PUSH2 0x8F3 JUMP JUMPDEST PUSH1 0x20 DUP3 ADD SWAP1 POP SWAP2 SWAP1 POP JUMP JUMPDEST PUSH1 0x0 PUSH1 0x20 DUP3 ADD SWAP1 POP DUP2 DUP2 SUB PUSH1 0x0 DUP4 ADD MSTORE PUSH2 0x958 DUP2 PUSH2 0x91C JUMP JUMPDEST SWAP1 POP SWAP2 SWAP1 POP JUMP JUMPDEST PUSH1 0x0 DUP2 MLOAD SWAP1 POP PUSH2 0x96E DUP2 PUSH2 0x889 JUMP JUMPDEST SWAP3 SWAP2 POP POP JUMP JUMPDEST PUSH1 0x0 PUSH1 0x20 DUP3 DUP5 SUB SLT ISZERO PUSH2 0x98A JUMPI PUSH2 0x989 PUSH2 0x7CF JUMP JUMPDEST JUMPDEST PUSH1 0x0 PUSH2 0x998 DUP5 DUP3 DUP6 ADD PUSH2 0x95F JUMP JUMPDEST SWAP2 POP POP SWAP3 SWAP2 POP POP JUMP JUMPDEST PUSH32 0x4E487B7100000000000000000000000000000000000000000000000000000000 PUSH1 0x0 MSTORE PUSH1 0x32 PUSH1 0x4 MSTORE PUSH1 0x24 PUSH1 0x0 REVERT JUMPDEST PUSH32 0x4E487B7100000000000000000000000000000000000000000000000000000000 PUSH1 0x0 MSTORE PUSH1 0x11 PUSH1 0x4 MSTORE PUSH1 0x24 PUSH1 0x0 REVERT JUMPDEST PUSH1 0x0 PUSH2 0xA0A DUP3 PUSH2 0x79B JUMP JUMPDEST SWAP2 POP PUSH32 0xFFFFFFFFFFFFFFFFFFFFFFFFFFFFFFFFFFFFFFFFFFFFFFFFFFFFFFFFFFFFFFFF DUP3 EQ ISZERO PUSH2 0xA3D JUMPI PUSH2 0xA3C PUSH2 0x9D0 JUMP JUMPDEST JUMPDEST PUSH1 0x1 DUP3 ADD SWAP1 POP SWAP2 SWAP1 POP JUMP JUMPDEST PUSH32 0x4E487B7100000000000000000000000000000000000000000000000000000000 PUSH1 0x0 MSTORE PUSH1 0x41 PUSH1 0x4 MSTORE PUSH1 0x24 PUSH1 0x0 REVERT JUMPDEST PUSH1 0x0 DUP2 SWAP1 POP SWAP3 SWAP2 POP POP JUMP JUMPDEST POP JUMP JUMPDEST PUSH1 0x0 PUSH2 0xA92 PUSH1 0x0 DUP4 PUSH2 0xA77 JUMP JUMPDEST SWAP2 POP PUSH2 0xA9D DUP3 PUSH2 0xA82 JUMP JUMPDEST PUSH1 0x0 DUP3 ADD SWAP1 POP SWAP2 SWAP1 POP JUMP JUMPDEST PUSH1 0x0 PUSH2 0xAB3 DUP3 PUSH2 0xA85 JUMP JUMPDEST SWAP2 POP DUP2 SWAP1 POP SWAP2 SWAP1 POP JUMP JUMPDEST PUSH32 0x43616C6C206661696C6564000000000000000000000000000000000000000000 PUSH1 0x0 DUP3 ADD MSTORE POP JUMP JUMPDEST PUSH1 0x0 PUSH2 0xAF3 PUSH1 0xB DUP4 PUSH2 0x8E2 JUMP JUMPDEST SWAP2 POP PUSH2 0xAFE DUP3 PUSH2 0xABD JUMP JUMPDEST PUSH1 0x20 DUP3 ADD SWAP1 POP SWAP2 SWAP1 POP JUMP JUMPDEST PUSH1 0x0 PUSH1 0x20 DUP3 ADD SWAP1 POP DUP2 DUP2 SUB PUSH1 0x0 DUP4 ADD MSTORE PUSH2 0xB22 DUP2 PUSH2 0xAE6 JUMP JUMPDEST SWAP1 POP SWAP2 SWAP1 POP JUMP JUMPDEST PUSH1 0x0 PUSH2 0xB34 DUP3 PUSH2 0x79B JUMP JUMPDEST SWAP2 POP PUSH2 0xB3F DUP4 PUSH2 0x79B JUMP JUMPDEST SWAP3 POP DUP2 PUSH32 0xFFFFFFFFFFFFFFFFFFFFFFFFFFFFFFFFFFFFFFFFFFFFFFFFFFFFFFFFFFFFFFFF DIV DUP4 GT DUP3 ISZERO ISZERO AND ISZERO PUSH2 0xB78 JUMPI PUSH2 0xB77 PUSH2 0x9D0 JUMP JUMPDEST JUMPDEST DUP3 DUP3 MUL SWAP1 POP SWAP3 SWAP2 POP POP JUMP JUMPDEST PUSH32 0x4E487B7100000000000000000000000000000000000000000000000000000000 PUSH1 0x0 MSTORE PUSH1 0x12 PUSH1 0x4 MSTORE PUSH1 0x24 PUSH1 0x0 REVERT JUMPDEST PUSH1 0x0 PUSH2 0xBBD DUP3 PUSH2 0x79B JUMP JUMPDEST SWAP2 POP PUSH2 0xBC8 DUP4 PUSH2 0x79B JUMP JUMPDEST SWAP3 POP DUP3 PUSH2 0xBD8 JUMPI PUSH2 0xBD7 PUSH2 0xB83 JUMP JUMPDEST JUMPDEST DUP3 DUP3 DIV SWAP1 POP SWAP3 SWAP2 POP POP JUMP JUMPDEST PUSH1 0x0 PUSH10 0xFFFFFFFFFFFFFFFFFFFF DUP3 AND SWAP1 POP SWAP2 SWAP1 POP JUMP JUMPDEST PUSH2 0xC02 DUP2 PUSH2 0xBE3 JUMP JUMPDEST DUP2 EQ PUSH2 0xC0D JUMPI PUSH1 0x0 DUP1 REVERT JUMPDEST POP JUMP JUMPDEST PUSH1 0x0 DUP2 MLOAD SWAP1 POP PUSH2 0xC1F DUP2 PUSH2 0xBF9 JUMP JUMPDEST SWAP3 SWAP2 POP POP JUMP JUMPDEST PUSH1 0x0 DUP2 SWAP1 POP SWAP2 SWAP1 POP JUMP JUMPDEST PUSH2 0xC38 DUP2 PUSH2 0xC25 JUMP JUMPDEST DUP2 EQ PUSH2 0xC43 JUMPI PUSH1 0x0 DUP1 REVERT JUMPDEST POP JUMP JUMPDEST PUSH1 0x0 DUP2 MLOAD SWAP1 POP PUSH2 0xC55 DUP2 PUSH2 0xC2F JUMP JUMPDEST SWAP3 SWAP2 POP POP JUMP JUMPDEST PUSH1 0x0 DUP1 PUSH1 0x0 DUP1 PUSH1 0x0 PUSH1 0xA0 DUP7 DUP9 SUB SLT ISZERO PUSH2 0xC77 JUMPI PUSH2 0xC76 PUSH2 0x7CF JUMP JUMPDEST JUMPDEST PUSH1 0x0 PUSH2 0xC85 DUP9 DUP3 DUP10 ADD PUSH2 0xC10 JUMP JUMPDEST SWAP6 POP POP PUSH1 0x20 PUSH2 0xC96 DUP9 DUP3 DUP10 ADD PUSH2 0xC46 JUMP JUMPDEST SWAP5 POP POP PUSH1 0x40 PUSH2 0xCA7 DUP9 DUP3 DUP10 ADD PUSH2 0x95F JUMP JUMPDEST SWAP4 POP POP PUSH1 0x60 PUSH2 0xCB8 DUP9 DUP3 DUP10 ADD PUSH2 0x95F JUMP JUMPDEST SWAP3 POP POP PUSH1 0x80 PUSH2 0xCC9 DUP9 DUP3 DUP10 ADD PUSH2 0xC10 JUMP JUMPDEST SWAP2 POP POP SWAP3 SWAP6 POP SWAP3 SWAP6 SWAP1 SWAP4 POP JUMP JUMPDEST PUSH1 0x0 PUSH2 0xCE1 DUP3 PUSH2 0xC25 JUMP JUMPDEST SWAP2 POP PUSH2 0xCEC DUP4 PUSH2 0xC25 JUMP JUMPDEST SWAP3 POP DUP3 PUSH32 0x7FFFFFFFFFFFFFFFFFFFFFFFFFFFFFFFFFFFFFFFFFFFFFFFFFFFFFFFFFFFFFFF DIV DUP3 GT PUSH1 0x0 DUP5 SGT PUSH1 0x0 DUP5 SGT AND AND ISZERO PUSH2 0xD2B JUMPI PUSH2 0xD2A PUSH2 0x9D0 JUMP JUMPDEST JUMPDEST DUP2 PUSH32 0x8000000000000000000000000000000000000000000000000000000000000000 SDIV DUP4 SLT PUSH1 0x0 DUP5 SLT PUSH1 0x0 DUP5 SGT AND AND ISZERO PUSH2 0xD68 JUMPI PUSH2 0xD67 PUSH2 0x9D0 JUMP JUMPDEST JUMPDEST DUP3 PUSH32 0x8000000000000000000000000000000000000000000000000000000000000000 SDIV DUP3 SLT PUSH1 0x0 DUP5 SGT PUSH1 0x0 DUP5 SLT AND AND ISZERO PUSH2 0xDA5 JUMPI PUSH2 0xDA4 PUSH2 0x9D0 JUMP JUMPDEST JUMPDEST DUP3 PUSH32 0x7FFFFFFFFFFFFFFFFFFFFFFFFFFFFFFFFFFFFFFFFFFFFFFFFFFFFFFFFFFFFFFF SDIV DUP3 SLT PUSH1 0x0 DUP5 SLT PUSH1 0x0 DUP5 SLT AND AND ISZERO PUSH2 0xDE2 JUMPI PUSH2 0xDE1 PUSH2 0x9D0 JUMP JUMPDEST JUMPDEST DUP3 DUP3 MUL SWAP1 POP SWAP3 SWAP2 POP POP JUMP INVALID LOG2 PUSH5 0x6970667358 0x22 SLT KECCAK256 ADDRESS 0xD0 LOG1 PUSH2 0xF212 CALLDATALOAD 0xC8 DUP2 MLOAD PUSH25 0xF426D062EAE84B48BC1BB8A1429DBB0041AADD20A964736F6C PUSH4 0x43000809 STOP CALLER "
				},
				"gasEstimates": {
					"creation": {
						"codeDepositCost": "723800",
						"executionCost": "25026",
						"totalCost": "748826"
					},
					"external": {
						"": "infinite",
						"MINIMUM_USD()": "329",
						"addressToAmountFunded(address)": "2859",
						"fund()": "infinite",
						"funders(uint256)": "5022",
						"getVersion()": "infinite",
						"i_owner()": "2558",
						"withdraw()": "infinite"
					}
				},
				"methodIdentifiers": {
					"MINIMUM_USD()": "6b69a592",
					"addressToAmountFunded(address)": "3e47d6f3",
					"fund()": "b60d4288",
					"funders(uint256)": "dc0d3dff",
					"getVersion()": "0d8e6e2c",
					"i_owner()": "dba6335f",
					"withdraw()": "3ccfd60b"
				}
			},
			"storageLayout": {
				"storage": [
					{
						"astId": 58,
						"contract": "contracts/FundMe.sol:FundMe",
						"label": "addressToAmountFunded",
						"offset": 0,
						"slot": "0",
						"type": "t_mapping(t_address,t_uint256)"
					},
					{
						"astId": 61,
						"contract": "contracts/FundMe.sol:FundMe",
						"label": "funders",
						"offset": 0,
						"slot": "1",
						"type": "t_array(t_address)dyn_storage"
					},
					{
						"astId": 63,
						"contract": "contracts/FundMe.sol:FundMe",
						"label": "i_owner",
						"offset": 0,
						"slot": "2",
						"type": "t_address"
					}
				],
				"types": {
					"t_address": {
						"encoding": "inplace",
						"label": "address",
						"numberOfBytes": "20"
					},
					"t_array(t_address)dyn_storage": {
						"base": "t_address",
						"encoding": "dynamic_array",
						"label": "address[]",
						"numberOfBytes": "32"
					},
					"t_mapping(t_address,t_uint256)": {
						"encoding": "mapping",
						"key": "t_address",
						"label": "mapping(address => uint256)",
						"numberOfBytes": "32",
						"value": "t_uint256"
					},
					"t_uint256": {
						"encoding": "inplace",
						"label": "uint256",
						"numberOfBytes": "32"
					}
				}
			},
			"userdoc": {
				"kind": "user",
				"methods": {},
				"version": 1
			}
		}
	}
}