{
	"contracts/Test.sol": {
		"Test": {
			"abi": [
				{
					"inputs": [],
					"name": "getChoice",
					"outputs": [
						{
							"internalType": "enum Test.ActionChoices",
							"name": "",
							"type": "uint8"
						}
					],
					"stateMutability": "view",
					"type": "function"
				},
				{
					"inputs": [],
					"name": "getDefaultChoice",
					"outputs": [
						{
							"internalType": "uint256",
							"name": "",
							"type": "uint256"
						}
					],
					"stateMutability": "pure",
					"type": "function"
				},
				{
					"inputs": [],
					"name": "getLargestValue",
					"outputs": [
						{
							"internalType": "enum Test.ActionChoices",
							"name": "",
							"type": "uint8"
						}
					],
					"stateMutability": "pure",
					"type": "function"
				},
				{
					"inputs": [],
					"name": "setGoStraight",
					"outputs": [],
					"stateMutability": "nonpayable",
					"type": "function"
				}
			],
			"devdoc": {
				"kind": "dev",
				"methods": {},
				"version": 1
			},
			"evm": {
				"assembly": "    /* \"contracts/Test.sol\":56:643  contract Test {... */\n  mstore(0x40, 0x80)\n  callvalue\n  dup1\n  iszero\n  tag_1\n  jumpi\n  0x00\n  dup1\n  revert\ntag_1:\n  pop\n  dataSize(sub_0)\n  dup1\n  dataOffset(sub_0)\n  0x00\n  codecopy\n  0x00\n  return\nstop\n\nsub_0: assembly {\n        /* \"contracts/Test.sol\":56:643  contract Test {... */\n      mstore(0x40, 0x80)\n      callvalue\n      dup1\n      iszero\n      tag_1\n      jumpi\n      0x00\n      dup1\n      revert\n    tag_1:\n      pop\n      jumpi(tag_2, lt(calldatasize, 0x04))\n      shr(0xe0, calldataload(0x00))\n      dup1\n      0x2e63c301\n      eq\n      tag_3\n      jumpi\n      dup1\n      0x46aadaa5\n      eq\n      tag_4\n      jumpi\n      dup1\n      0x67cb61b6\n      eq\n      tag_5\n      jumpi\n      dup1\n      0x843f7258\n      eq\n      tag_6\n      jumpi\n    tag_2:\n      0x00\n      dup1\n      revert\n        /* \"contracts/Test.sol\":521:640  function getLargestValue() public pure returns (ActionChoices) {... */\n    tag_3:\n      tag_7\n      tag_8\n      jump\t// in\n    tag_7:\n      mload(0x40)\n      tag_9\n      swap2\n      swap1\n      tag_10\n      jump\t// in\n    tag_9:\n      mload(0x40)\n      dup1\n      swap2\n      sub\n      swap1\n      return\n        /* \"contracts/Test.sol\":236:318  function setGoStraight() public {... */\n    tag_4:\n      tag_11\n      tag_12\n      jump\t// in\n    tag_11:\n      stop\n        /* \"contracts/Test.sol\":324:411  function getChoice() public view returns (ActionChoices) {... */\n    tag_5:\n      tag_13\n      tag_14\n      jump\t// in\n    tag_13:\n      mload(0x40)\n      tag_15\n      swap2\n      swap1\n      tag_10\n      jump\t// in\n    tag_15:\n      mload(0x40)\n      dup1\n      swap2\n      sub\n      swap1\n      return\n        /* \"contracts/Test.sol\":417:515  function getDefaultChoice() public pure returns (uint) {... */\n    tag_6:\n      tag_16\n      tag_17\n      jump\t// in\n    tag_16:\n      mload(0x40)\n      tag_18\n      swap2\n      swap1\n      tag_19\n      jump\t// in\n    tag_18:\n      mload(0x40)\n      dup1\n      swap2\n      sub\n      swap1\n      return\n        /* \"contracts/Test.sol\":521:640  function getLargestValue() public pure returns (ActionChoices) {... */\n    tag_8:\n        /* \"contracts/Test.sol\":569:582  ActionChoices */\n      0x00\n        /* \"contracts/Test.sol\":601:624  type(ActionChoices).max */\n      0x03\n        /* \"contracts/Test.sol\":594:624  return type(ActionChoices).max */\n      swap1\n      pop\n        /* \"contracts/Test.sol\":521:640  function getLargestValue() public pure returns (ActionChoices) {... */\n      swap1\n      jump\t// out\n        /* \"contracts/Test.sol\":236:318  function setGoStraight() public {... */\n    tag_12:\n        /* \"contracts/Test.sol\":287:311  ActionChoices.GoStraight */\n      0x02\n        /* \"contracts/Test.sol\":278:284  choice */\n      0x00\n      dup1\n        /* \"contracts/Test.sol\":278:311  choice = ActionChoices.GoStraight */\n      0x0100\n      exp\n      dup2\n      sload\n      dup2\n      0xff\n      mul\n      not\n      and\n      swap1\n      dup4\n      0x03\n      dup2\n      gt\n      iszero\n      tag_22\n      jumpi\n      tag_23\n      tag_24\n      jump\t// in\n    tag_23:\n    tag_22:\n      mul\n      or\n      swap1\n      sstore\n      pop\n        /* \"contracts/Test.sol\":236:318  function setGoStraight() public {... */\n      jump\t// out\n        /* \"contracts/Test.sol\":324:411  function getChoice() public view returns (ActionChoices) {... */\n    tag_14:\n        /* \"contracts/Test.sol\":366:379  ActionChoices */\n      0x00\n        /* \"contracts/Test.sol\":398:404  choice */\n      dup1\n      0x00\n      swap1\n      sload\n      swap1\n      0x0100\n      exp\n      swap1\n      div\n      0xff\n      and\n        /* \"contracts/Test.sol\":391:404  return choice */\n      swap1\n      pop\n        /* \"contracts/Test.sol\":324:411  function getChoice() public view returns (ActionChoices) {... */\n      swap1\n      jump\t// out\n        /* \"contracts/Test.sol\":417:515  function getDefaultChoice() public pure returns (uint) {... */\n    tag_17:\n        /* \"contracts/Test.sol\":466:470  uint */\n      0x00\n        /* \"contracts/Test.sol\":205:229  ActionChoices.GoStraight */\n      0x02\n        /* \"contracts/Test.sol\":489:508  uint(defaultChoice) */\n      0x03\n      dup2\n      gt\n      iszero\n      tag_27\n      jumpi\n      tag_28\n      tag_24\n      jump\t// in\n    tag_28:\n    tag_27:\n        /* \"contracts/Test.sol\":482:508  return uint(defaultChoice) */\n      swap1\n      pop\n        /* \"contracts/Test.sol\":417:515  function getDefaultChoice() public pure returns (uint) {... */\n      swap1\n      jump\t// out\n        /* \"#utility.yul\":7:187   */\n    tag_24:\n        /* \"#utility.yul\":55:132   */\n      0x4e487b7100000000000000000000000000000000000000000000000000000000\n        /* \"#utility.yul\":52:53   */\n      0x00\n        /* \"#utility.yul\":45:133   */\n      mstore\n        /* \"#utility.yul\":152:156   */\n      0x21\n        /* \"#utility.yul\":149:150   */\n      0x04\n        /* \"#utility.yul\":142:157   */\n      mstore\n        /* \"#utility.yul\":176:180   */\n      0x24\n        /* \"#utility.yul\":173:174   */\n      0x00\n        /* \"#utility.yul\":166:181   */\n      revert\n        /* \"#utility.yul\":193:313   */\n    tag_29:\n        /* \"#utility.yul\":281:282   */\n      0x04\n        /* \"#utility.yul\":274:279   */\n      dup2\n        /* \"#utility.yul\":271:283   */\n      lt\n        /* \"#utility.yul\":261:307   */\n      tag_38\n      jumpi\n        /* \"#utility.yul\":287:305   */\n      tag_39\n      tag_24\n      jump\t// in\n    tag_39:\n        /* \"#utility.yul\":261:307   */\n    tag_38:\n        /* \"#utility.yul\":193:313   */\n      pop\n      jump\t// out\n        /* \"#utility.yul\":319:460   */\n    tag_30:\n        /* \"#utility.yul\":371:378   */\n      0x00\n        /* \"#utility.yul\":400:405   */\n      dup2\n        /* \"#utility.yul\":389:405   */\n      swap1\n      pop\n        /* \"#utility.yul\":406:454   */\n      tag_41\n        /* \"#utility.yul\":448:453   */\n      dup3\n        /* \"#utility.yul\":406:454   */\n      tag_29\n      jump\t// in\n    tag_41:\n        /* \"#utility.yul\":319:460   */\n      swap2\n      swap1\n      pop\n      jump\t// out\n        /* \"#utility.yul\":466:607   */\n    tag_31:\n        /* \"#utility.yul\":529:538   */\n      0x00\n        /* \"#utility.yul\":562:601   */\n      tag_43\n        /* \"#utility.yul\":595:600   */\n      dup3\n        /* \"#utility.yul\":562:601   */\n      tag_30\n      jump\t// in\n    tag_43:\n        /* \"#utility.yul\":549:601   */\n      swap1\n      pop\n        /* \"#utility.yul\":466:607   */\n      swap2\n      swap1\n      pop\n      jump\t// out\n        /* \"#utility.yul\":613:770   */\n    tag_32:\n        /* \"#utility.yul\":713:763   */\n      tag_45\n        /* \"#utility.yul\":757:762   */\n      dup2\n        /* \"#utility.yul\":713:763   */\n      tag_31\n      jump\t// in\n    tag_45:\n        /* \"#utility.yul\":708:711   */\n      dup3\n        /* \"#utility.yul\":701:764   */\n      mstore\n        /* \"#utility.yul\":613:770   */\n      pop\n      pop\n      jump\t// out\n        /* \"#utility.yul\":776:1024   */\n    tag_10:\n        /* \"#utility.yul\":882:886   */\n      0x00\n        /* \"#utility.yul\":920:922   */\n      0x20\n        /* \"#utility.yul\":909:918   */\n      dup3\n        /* \"#utility.yul\":905:923   */\n      add\n        /* \"#utility.yul\":897:923   */\n      swap1\n      pop\n        /* \"#utility.yul\":933:1017   */\n      tag_47\n        /* \"#utility.yul\":1014:1015   */\n      0x00\n        /* \"#utility.yul\":1003:1012   */\n      dup4\n        /* \"#utility.yul\":999:1016   */\n      add\n        /* \"#utility.yul\":990:996   */\n      dup5\n        /* \"#utility.yul\":933:1017   */\n      tag_32\n      jump\t// in\n    tag_47:\n        /* \"#utility.yul\":776:1024   */\n      swap3\n      swap2\n      pop\n      pop\n      jump\t// out\n        /* \"#utility.yul\":1030:1107   */\n    tag_33:\n        /* \"#utility.yul\":1067:1074   */\n      0x00\n        /* \"#utility.yul\":1096:1101   */\n      dup2\n        /* \"#utility.yul\":1085:1101   */\n      swap1\n      pop\n        /* \"#utility.yul\":1030:1107   */\n      swap2\n      swap1\n      pop\n      jump\t// out\n        /* \"#utility.yul\":1113:1231   */\n    tag_34:\n        /* \"#utility.yul\":1200:1224   */\n      tag_50\n        /* \"#utility.yul\":1218:1223   */\n      dup2\n        /* \"#utility.yul\":1200:1224   */\n      tag_33\n      jump\t// in\n    tag_50:\n        /* \"#utility.yul\":1195:1198   */\n      dup3\n        /* \"#utility.yul\":1188:1225   */\n      mstore\n        /* \"#utility.yul\":1113:1231   */\n      pop\n      pop\n      jump\t// out\n        /* \"#utility.yul\":1237:1459   */\n    tag_19:\n        /* \"#utility.yul\":1330:1334   */\n      0x00\n        /* \"#utility.yul\":1368:1370   */\n      0x20\n        /* \"#utility.yul\":1357:1366   */\n      dup3\n        /* \"#utility.yul\":1353:1371   */\n      add\n        /* \"#utility.yul\":1345:1371   */\n      swap1\n      pop\n        /* \"#utility.yul\":1381:1452   */\n      tag_52\n        /* \"#utility.yul\":1449:1450   */\n      0x00\n        /* \"#utility.yul\":1438:1447   */\n      dup4\n        /* \"#utility.yul\":1434:1451   */\n      add\n        /* \"#utility.yul\":1425:1431   */\n      dup5\n        /* \"#utility.yul\":1381:1452   */\n      tag_34\n      jump\t// in\n    tag_52:\n        /* \"#utility.yul\":1237:1459   */\n      swap3\n      swap2\n      pop\n      pop\n      jump\t// out\n\n    auxdata: 0xa26469706673582212207c1bea90e3a6f446dba0e2eb56a793f561f8b8d64d3de03f668d13da79d287e664736f6c634300080f0033\n}\n",
				"bytecode": {
					"linkReferences": {},
					"object": "608060405234801561001057600080fd5b50610217806100206000396000f3fe608060405234801561001057600080fd5b506004361061004c5760003560e01c80632e63c3011461005157806346aadaa51461006f57806367cb61b614610079578063843f725814610097575b600080fd5b6100596100b5565b6040516100669190610192565b60405180910390f35b6100776100be565b005b6100816100ea565b60405161008e9190610192565b60405180910390f35b61009f610100565b6040516100ac91906101c6565b60405180910390f35b60006003905090565b60026000806101000a81548160ff021916908360038111156100e3576100e261011b565b5b0217905550565b60008060009054906101000a900460ff16905090565b6000600260038111156101165761011561011b565b5b905090565b7f4e487b7100000000000000000000000000000000000000000000000000000000600052602160045260246000fd5b6004811061015b5761015a61011b565b5b50565b600081905061016c8261014a565b919050565b600061017c8261015e565b9050919050565b61018c81610171565b82525050565b60006020820190506101a76000830184610183565b92915050565b6000819050919050565b6101c0816101ad565b82525050565b60006020820190506101db60008301846101b7565b9291505056fea26469706673582212207c1bea90e3a6f446dba0e2eb56a793f561f8b8d64d3de03f668d13da79d287e664736f6c634300080f0033",
					"opcodes": "PUSH1 0x80 PUSH1 0x40 MSTORE CALLVALUE DUP1 ISZERO PUSH2 0x10 JUMPI PUSH1 0x0 DUP1 REVERT JUMPDEST POP PUSH2 0x217 DUP1 PUSH2 0x20 PUSH1 0x0 CODECOPY PUSH1 0x0 RETURN INVALID PUSH1 0x80 PUSH1 0x40 MSTORE CALLVALUE DUP1 ISZERO PUSH2 0x10 JUMPI PUSH1 0x0 DUP1 REVERT JUMPDEST POP PUSH1 0x4 CALLDATASIZE LT PUSH2 0x4C JUMPI PUSH1 0x0 CALLDATALOAD PUSH1 0xE0 SHR DUP1 PUSH4 0x2E63C301 EQ PUSH2 0x51 JUMPI DUP1 PUSH4 0x46AADAA5 EQ PUSH2 0x6F JUMPI DUP1 PUSH4 0x67CB61B6 EQ PUSH2 0x79 JUMPI DUP1 PUSH4 0x843F7258 EQ PUSH2 0x97 JUMPI JUMPDEST PUSH1 0x0 DUP1 REVERT JUMPDEST PUSH2 0x59 PUSH2 0xB5 JUMP JUMPDEST PUSH1 0x40 MLOAD PUSH2 0x66 SWAP2 SWAP1 PUSH2 0x192 JUMP JUMPDEST PUSH1 0x40 MLOAD DUP1 SWAP2 SUB SWAP1 RETURN JUMPDEST PUSH2 0x77 PUSH2 0xBE JUMP JUMPDEST STOP JUMPDEST PUSH2 0x81 PUSH2 0xEA JUMP JUMPDEST PUSH1 0x40 MLOAD PUSH2 0x8E SWAP2 SWAP1 PUSH2 0x192 JUMP JUMPDEST PUSH1 0x40 MLOAD DUP1 SWAP2 SUB SWAP1 RETURN JUMPDEST PUSH2 0x9F PUSH2 0x100 JUMP JUMPDEST PUSH1 0x40 MLOAD PUSH2 0xAC SWAP2 SWAP1 PUSH2 0x1C6 JUMP JUMPDEST PUSH1 0x40 MLOAD DUP1 SWAP2 SUB SWAP1 RETURN JUMPDEST PUSH1 0x0 PUSH1 0x3 SWAP1 POP SWAP1 JUMP JUMPDEST PUSH1 0x2 PUSH1 0x0 DUP1 PUSH2 0x100 EXP DUP2 SLOAD DUP2 PUSH1 0xFF MUL NOT AND SWAP1 DUP4 PUSH1 0x3 DUP2 GT ISZERO PUSH2 0xE3 JUMPI PUSH2 0xE2 PUSH2 0x11B JUMP JUMPDEST JUMPDEST MUL OR SWAP1 SSTORE POP JUMP JUMPDEST PUSH1 0x0 DUP1 PUSH1 0x0 SWAP1 SLOAD SWAP1 PUSH2 0x100 EXP SWAP1 DIV PUSH1 0xFF AND SWAP1 POP SWAP1 JUMP JUMPDEST PUSH1 0x0 PUSH1 0x2 PUSH1 0x3 DUP2 GT ISZERO PUSH2 0x116 JUMPI PUSH2 0x115 PUSH2 0x11B JUMP JUMPDEST JUMPDEST SWAP1 POP SWAP1 JUMP JUMPDEST PUSH32 0x4E487B7100000000000000000000000000000000000000000000000000000000 PUSH1 0x0 MSTORE PUSH1 0x21 PUSH1 0x4 MSTORE PUSH1 0x24 PUSH1 0x0 REVERT JUMPDEST PUSH1 0x4 DUP2 LT PUSH2 0x15B JUMPI PUSH2 0x15A PUSH2 0x11B JUMP JUMPDEST JUMPDEST POP JUMP JUMPDEST PUSH1 0x0 DUP2 SWAP1 POP PUSH2 0x16C DUP3 PUSH2 0x14A JUMP JUMPDEST SWAP2 SWAP1 POP JUMP JUMPDEST PUSH1 0x0 PUSH2 0x17C DUP3 PUSH2 0x15E JUMP JUMPDEST SWAP1 POP SWAP2 SWAP1 POP JUMP JUMPDEST PUSH2 0x18C DUP2 PUSH2 0x171 JUMP JUMPDEST DUP3 MSTORE POP POP JUMP JUMPDEST PUSH1 0x0 PUSH1 0x20 DUP3 ADD SWAP1 POP PUSH2 0x1A7 PUSH1 0x0 DUP4 ADD DUP5 PUSH2 0x183 JUMP JUMPDEST SWAP3 SWAP2 POP POP JUMP JUMPDEST PUSH1 0x0 DUP2 SWAP1 POP SWAP2 SWAP1 POP JUMP JUMPDEST PUSH2 0x1C0 DUP2 PUSH2 0x1AD JUMP JUMPDEST DUP3 MSTORE POP POP JUMP JUMPDEST PUSH1 0x0 PUSH1 0x20 DUP3 ADD SWAP1 POP PUSH2 0x1DB PUSH1 0x0 DUP4 ADD DUP5 PUSH2 0x1B7 JUMP JUMPDEST SWAP3 SWAP2 POP POP JUMP INVALID LOG2 PUSH5 0x6970667358 0x22 SLT KECCAK256 PUSH29 0x1BEA90E3A6F446DBA0E2EB56A793F561F8B8D64D3DE03F668D13DA79D2 DUP8 0xE6 PUSH5 0x736F6C6343 STOP ADDMOD 0xF STOP CALLER "
				},
				"gasEstimates": {
					"creation": {
						"codeDepositCost": "107000",
						"executionCost": "153",
						"totalCost": "107153"
					},
					"external": {
						"getChoice()": "2590",
						"getDefaultChoice()": "407",
						"getLargestValue()": "410",
						"setGoStraight()": "24431"
					}
				},
				"methodIdentifiers": {
					"getChoice()": "67cb61b6",
					"getDefaultChoice()": "843f7258",
					"getLargestValue()": "2e63c301",
					"setGoStraight()": "46aadaa5"
				}
			},
			"storageLayout": {
				"storage": [
					{
						"astId": 9,
						"contract": "contracts/Test.sol:Test",
						"label": "choice",
						"offset": 0,
						"slot": "0",
						"type": "t_enum(ActionChoices)6"
					}
				],
				"types": {
					"t_enum(ActionChoices)6": {
						"encoding": "inplace",
						"label": "enum Test.ActionChoices",
						"numberOfBytes": "1"
					}
				}
			},
			"userdoc": {
				"kind": "user",
				"methods": {},
				"version": 1
			}
		}
	}
}