{
	"contracts/Ballot.sol": {
		"Ballot": {
			"abi": [
				{
					"inputs": [],
					"name": "chairperson",
					"outputs": [
						{
							"internalType": "address",
							"name": "",
							"type": "address"
						}
					],
					"stateMutability": "view",
					"type": "function"
				},
				{
					"inputs": [
						{
							"internalType": "uint256",
							"name": "",
							"type": "uint256"
						}
					],
					"name": "proposal",
					"outputs": [
						{
							"internalType": "bytes32",
							"name": "name",
							"type": "bytes32"
						},
						{
							"internalType": "uint256",
							"name": "voteCount",
							"type": "uint256"
						}
					],
					"stateMutability": "view",
					"type": "function"
				},
				{
					"inputs": [
						{
							"internalType": "address",
							"name": "",
							"type": "address"
						}
					],
					"name": "voters",
					"outputs": [
						{
							"internalType": "uint256",
							"name": "weight",
							"type": "uint256"
						},
						{
							"internalType": "bool",
							"name": "voted",
							"type": "bool"
						},
						{
							"internalType": "address",
							"name": "delegate",
							"type": "address"
						},
						{
							"internalType": "uint256",
							"name": "vote",
							"type": "uint256"
						}
					],
					"stateMutability": "view",
					"type": "function"
				}
			],
			"devdoc": {
				"kind": "dev",
				"methods": {},
				"version": 1
			},
			"evm": {
				"assembly": "    /* \"contracts/Ballot.sol\":65:389  contract Ballot {... */\n  mstore(0x40, 0x80)\n  callvalue\n  dup1\n  iszero\n  tag_1\n  jumpi\n  0x00\n  dup1\n  revert\ntag_1:\n  pop\n  dataSize(sub_0)\n  dup1\n  dataOffset(sub_0)\n  0x00\n  codecopy\n  0x00\n  return\nstop\n\nsub_0: assembly {\n        /* \"contracts/Ballot.sol\":65:389  contract Ballot {... */\n      mstore(0x40, 0x80)\n      callvalue\n      dup1\n      iszero\n      tag_1\n      jumpi\n      0x00\n      dup1\n      revert\n    tag_1:\n      pop\n      jumpi(tag_2, lt(calldatasize, 0x04))\n      shr(0xe0, calldataload(0x00))\n      dup1\n      0x2e4176cf\n      eq\n      tag_3\n      jumpi\n      dup1\n      0x30326c17\n      eq\n      tag_4\n      jumpi\n      dup1\n      0xa3ec138d\n      eq\n      tag_5\n      jumpi\n    tag_2:\n      0x00\n      dup1\n      revert\n        /* \"contracts/Ballot.sol\":274:300  address public chairperson */\n    tag_3:\n      tag_6\n      tag_7\n      jump\t// in\n    tag_6:\n      mload(0x40)\n      tag_8\n      swap2\n      swap1\n      tag_9\n      jump\t// in\n    tag_8:\n      mload(0x40)\n      dup1\n      swap2\n      sub\n      swap1\n      return\n        /* \"contracts/Ballot.sol\":353:379  Proposal[] public proposal */\n    tag_4:\n      tag_10\n      0x04\n      dup1\n      calldatasize\n      sub\n      dup2\n      add\n      swap1\n      tag_11\n      swap2\n      swap1\n      tag_12\n      jump\t// in\n    tag_11:\n      tag_13\n      jump\t// in\n    tag_10:\n      mload(0x40)\n      tag_14\n      swap3\n      swap2\n      swap1\n      tag_15\n      jump\t// in\n    tag_14:\n      mload(0x40)\n      dup1\n      swap2\n      sub\n      swap1\n      return\n        /* \"contracts/Ballot.sol\":307:346  mapping(address => Voter) public voters */\n    tag_5:\n      tag_16\n      0x04\n      dup1\n      calldatasize\n      sub\n      dup2\n      add\n      swap1\n      tag_17\n      swap2\n      swap1\n      tag_18\n      jump\t// in\n    tag_17:\n      tag_19\n      jump\t// in\n    tag_16:\n      mload(0x40)\n      tag_20\n      swap5\n      swap4\n      swap3\n      swap2\n      swap1\n      tag_21\n      jump\t// in\n    tag_20:\n      mload(0x40)\n      dup1\n      swap2\n      sub\n      swap1\n      return\n        /* \"contracts/Ballot.sol\":274:300  address public chairperson */\n    tag_7:\n      0x00\n      dup1\n      sload\n      swap1\n      0x0100\n      exp\n      swap1\n      div\n      0xffffffffffffffffffffffffffffffffffffffff\n      and\n      dup2\n      jump\t// out\n        /* \"contracts/Ballot.sol\":353:379  Proposal[] public proposal */\n    tag_13:\n      0x02\n      dup2\n      dup2\n      sload\n      dup2\n      lt\n      tag_22\n      jumpi\n      0x00\n      dup1\n      revert\n    tag_22:\n      swap1\n      0x00\n      mstore\n      keccak256(0x00, 0x20)\n      swap1\n      0x02\n      mul\n      add\n      0x00\n      swap2\n      pop\n      swap1\n      pop\n      dup1\n      0x00\n      add\n      sload\n      swap1\n      dup1\n      0x01\n      add\n      sload\n      swap1\n      pop\n      dup3\n      jump\t// out\n        /* \"contracts/Ballot.sol\":307:346  mapping(address => Voter) public voters */\n    tag_19:\n      mstore(0x20, 0x01)\n      dup1\n      0x00\n      mstore\n      keccak256(0x00, 0x40)\n      0x00\n      swap2\n      pop\n      swap1\n      pop\n      dup1\n      0x00\n      add\n      sload\n      swap1\n      dup1\n      0x01\n      add\n      0x00\n      swap1\n      sload\n      swap1\n      0x0100\n      exp\n      swap1\n      div\n      0xff\n      and\n      swap1\n      dup1\n      0x01\n      add\n      0x01\n      swap1\n      sload\n      swap1\n      0x0100\n      exp\n      swap1\n      div\n      0xffffffffffffffffffffffffffffffffffffffff\n      and\n      swap1\n      dup1\n      0x02\n      add\n      sload\n      swap1\n      pop\n      dup5\n      jump\t// out\n        /* \"#utility.yul\":7:133   */\n    tag_24:\n        /* \"#utility.yul\":44:51   */\n      0x00\n        /* \"#utility.yul\":84:126   */\n      0xffffffffffffffffffffffffffffffffffffffff\n        /* \"#utility.yul\":77:82   */\n      dup3\n        /* \"#utility.yul\":73:127   */\n      and\n        /* \"#utility.yul\":62:127   */\n      swap1\n      pop\n        /* \"#utility.yul\":7:133   */\n      swap2\n      swap1\n      pop\n      jump\t// out\n        /* \"#utility.yul\":139:235   */\n    tag_25:\n        /* \"#utility.yul\":176:183   */\n      0x00\n        /* \"#utility.yul\":205:229   */\n      tag_43\n        /* \"#utility.yul\":223:228   */\n      dup3\n        /* \"#utility.yul\":205:229   */\n      tag_24\n      jump\t// in\n    tag_43:\n        /* \"#utility.yul\":194:229   */\n      swap1\n      pop\n        /* \"#utility.yul\":139:235   */\n      swap2\n      swap1\n      pop\n      jump\t// out\n        /* \"#utility.yul\":241:359   */\n    tag_26:\n        /* \"#utility.yul\":328:352   */\n      tag_45\n        /* \"#utility.yul\":346:351   */\n      dup2\n        /* \"#utility.yul\":328:352   */\n      tag_25\n      jump\t// in\n    tag_45:\n        /* \"#utility.yul\":323:326   */\n      dup3\n        /* \"#utility.yul\":316:353   */\n      mstore\n        /* \"#utility.yul\":241:359   */\n      pop\n      pop\n      jump\t// out\n        /* \"#utility.yul\":365:587   */\n    tag_9:\n        /* \"#utility.yul\":458:462   */\n      0x00\n        /* \"#utility.yul\":496:498   */\n      0x20\n        /* \"#utility.yul\":485:494   */\n      dup3\n        /* \"#utility.yul\":481:499   */\n      add\n        /* \"#utility.yul\":473:499   */\n      swap1\n      pop\n        /* \"#utility.yul\":509:580   */\n      tag_47\n        /* \"#utility.yul\":577:578   */\n      0x00\n        /* \"#utility.yul\":566:575   */\n      dup4\n        /* \"#utility.yul\":562:579   */\n      add\n        /* \"#utility.yul\":553:559   */\n      dup5\n        /* \"#utility.yul\":509:580   */\n      tag_26\n      jump\t// in\n    tag_47:\n        /* \"#utility.yul\":365:587   */\n      swap3\n      swap2\n      pop\n      pop\n      jump\t// out\n        /* \"#utility.yul\":674:791   */\n    tag_28:\n        /* \"#utility.yul\":783:784   */\n      0x00\n        /* \"#utility.yul\":780:781   */\n      dup1\n        /* \"#utility.yul\":773:785   */\n      revert\n        /* \"#utility.yul\":920:997   */\n    tag_30:\n        /* \"#utility.yul\":957:964   */\n      0x00\n        /* \"#utility.yul\":986:991   */\n      dup2\n        /* \"#utility.yul\":975:991   */\n      swap1\n      pop\n        /* \"#utility.yul\":920:997   */\n      swap2\n      swap1\n      pop\n      jump\t// out\n        /* \"#utility.yul\":1003:1125   */\n    tag_31:\n        /* \"#utility.yul\":1076:1100   */\n      tag_53\n        /* \"#utility.yul\":1094:1099   */\n      dup2\n        /* \"#utility.yul\":1076:1100   */\n      tag_30\n      jump\t// in\n    tag_53:\n        /* \"#utility.yul\":1069:1074   */\n      dup2\n        /* \"#utility.yul\":1066:1101   */\n      eq\n        /* \"#utility.yul\":1056:1119   */\n      tag_54\n      jumpi\n        /* \"#utility.yul\":1115:1116   */\n      0x00\n        /* \"#utility.yul\":1112:1113   */\n      dup1\n        /* \"#utility.yul\":1105:1117   */\n      revert\n        /* \"#utility.yul\":1056:1119   */\n    tag_54:\n        /* \"#utility.yul\":1003:1125   */\n      pop\n      jump\t// out\n        /* \"#utility.yul\":1131:1270   */\n    tag_32:\n        /* \"#utility.yul\":1177:1182   */\n      0x00\n        /* \"#utility.yul\":1215:1221   */\n      dup2\n        /* \"#utility.yul\":1202:1222   */\n      calldataload\n        /* \"#utility.yul\":1193:1222   */\n      swap1\n      pop\n        /* \"#utility.yul\":1231:1264   */\n      tag_56\n        /* \"#utility.yul\":1258:1263   */\n      dup2\n        /* \"#utility.yul\":1231:1264   */\n      tag_31\n      jump\t// in\n    tag_56:\n        /* \"#utility.yul\":1131:1270   */\n      swap3\n      swap2\n      pop\n      pop\n      jump\t// out\n        /* \"#utility.yul\":1276:1605   */\n    tag_12:\n        /* \"#utility.yul\":1335:1341   */\n      0x00\n        /* \"#utility.yul\":1384:1386   */\n      0x20\n        /* \"#utility.yul\":1372:1381   */\n      dup3\n        /* \"#utility.yul\":1363:1370   */\n      dup5\n        /* \"#utility.yul\":1359:1382   */\n      sub\n        /* \"#utility.yul\":1355:1387   */\n      slt\n        /* \"#utility.yul\":1352:1471   */\n      iszero\n      tag_58\n      jumpi\n        /* \"#utility.yul\":1390:1469   */\n      tag_59\n      tag_28\n      jump\t// in\n    tag_59:\n        /* \"#utility.yul\":1352:1471   */\n    tag_58:\n        /* \"#utility.yul\":1510:1511   */\n      0x00\n        /* \"#utility.yul\":1535:1588   */\n      tag_60\n        /* \"#utility.yul\":1580:1587   */\n      dup5\n        /* \"#utility.yul\":1571:1577   */\n      dup3\n        /* \"#utility.yul\":1560:1569   */\n      dup6\n        /* \"#utility.yul\":1556:1578   */\n      add\n        /* \"#utility.yul\":1535:1588   */\n      tag_32\n      jump\t// in\n    tag_60:\n        /* \"#utility.yul\":1525:1588   */\n      swap2\n      pop\n        /* \"#utility.yul\":1481:1598   */\n      pop\n        /* \"#utility.yul\":1276:1605   */\n      swap3\n      swap2\n      pop\n      pop\n      jump\t// out\n        /* \"#utility.yul\":1611:1688   */\n    tag_33:\n        /* \"#utility.yul\":1648:1655   */\n      0x00\n        /* \"#utility.yul\":1677:1682   */\n      dup2\n        /* \"#utility.yul\":1666:1682   */\n      swap1\n      pop\n        /* \"#utility.yul\":1611:1688   */\n      swap2\n      swap1\n      pop\n      jump\t// out\n        /* \"#utility.yul\":1694:1812   */\n    tag_34:\n        /* \"#utility.yul\":1781:1805   */\n      tag_63\n        /* \"#utility.yul\":1799:1804   */\n      dup2\n        /* \"#utility.yul\":1781:1805   */\n      tag_33\n      jump\t// in\n    tag_63:\n        /* \"#utility.yul\":1776:1779   */\n      dup3\n        /* \"#utility.yul\":1769:1806   */\n      mstore\n        /* \"#utility.yul\":1694:1812   */\n      pop\n      pop\n      jump\t// out\n        /* \"#utility.yul\":1818:1936   */\n    tag_35:\n        /* \"#utility.yul\":1905:1929   */\n      tag_65\n        /* \"#utility.yul\":1923:1928   */\n      dup2\n        /* \"#utility.yul\":1905:1929   */\n      tag_30\n      jump\t// in\n    tag_65:\n        /* \"#utility.yul\":1900:1903   */\n      dup3\n        /* \"#utility.yul\":1893:1930   */\n      mstore\n        /* \"#utility.yul\":1818:1936   */\n      pop\n      pop\n      jump\t// out\n        /* \"#utility.yul\":1942:2274   */\n    tag_15:\n        /* \"#utility.yul\":2063:2067   */\n      0x00\n        /* \"#utility.yul\":2101:2103   */\n      0x40\n        /* \"#utility.yul\":2090:2099   */\n      dup3\n        /* \"#utility.yul\":2086:2104   */\n      add\n        /* \"#utility.yul\":2078:2104   */\n      swap1\n      pop\n        /* \"#utility.yul\":2114:2185   */\n      tag_67\n        /* \"#utility.yul\":2182:2183   */\n      0x00\n        /* \"#utility.yul\":2171:2180   */\n      dup4\n        /* \"#utility.yul\":2167:2184   */\n      add\n        /* \"#utility.yul\":2158:2164   */\n      dup6\n        /* \"#utility.yul\":2114:2185   */\n      tag_34\n      jump\t// in\n    tag_67:\n        /* \"#utility.yul\":2195:2267   */\n      tag_68\n        /* \"#utility.yul\":2263:2265   */\n      0x20\n        /* \"#utility.yul\":2252:2261   */\n      dup4\n        /* \"#utility.yul\":2248:2266   */\n      add\n        /* \"#utility.yul\":2239:2245   */\n      dup5\n        /* \"#utility.yul\":2195:2267   */\n      tag_35\n      jump\t// in\n    tag_68:\n        /* \"#utility.yul\":1942:2274   */\n      swap4\n      swap3\n      pop\n      pop\n      pop\n      jump\t// out\n        /* \"#utility.yul\":2280:2402   */\n    tag_36:\n        /* \"#utility.yul\":2353:2377   */\n      tag_70\n        /* \"#utility.yul\":2371:2376   */\n      dup2\n        /* \"#utility.yul\":2353:2377   */\n      tag_25\n      jump\t// in\n    tag_70:\n        /* \"#utility.yul\":2346:2351   */\n      dup2\n        /* \"#utility.yul\":2343:2378   */\n      eq\n        /* \"#utility.yul\":2333:2396   */\n      tag_71\n      jumpi\n        /* \"#utility.yul\":2392:2393   */\n      0x00\n        /* \"#utility.yul\":2389:2390   */\n      dup1\n        /* \"#utility.yul\":2382:2394   */\n      revert\n        /* \"#utility.yul\":2333:2396   */\n    tag_71:\n        /* \"#utility.yul\":2280:2402   */\n      pop\n      jump\t// out\n        /* \"#utility.yul\":2408:2547   */\n    tag_37:\n        /* \"#utility.yul\":2454:2459   */\n      0x00\n        /* \"#utility.yul\":2492:2498   */\n      dup2\n        /* \"#utility.yul\":2479:2499   */\n      calldataload\n        /* \"#utility.yul\":2470:2499   */\n      swap1\n      pop\n        /* \"#utility.yul\":2508:2541   */\n      tag_73\n        /* \"#utility.yul\":2535:2540   */\n      dup2\n        /* \"#utility.yul\":2508:2541   */\n      tag_36\n      jump\t// in\n    tag_73:\n        /* \"#utility.yul\":2408:2547   */\n      swap3\n      swap2\n      pop\n      pop\n      jump\t// out\n        /* \"#utility.yul\":2553:2882   */\n    tag_18:\n        /* \"#utility.yul\":2612:2618   */\n      0x00\n        /* \"#utility.yul\":2661:2663   */\n      0x20\n        /* \"#utility.yul\":2649:2658   */\n      dup3\n        /* \"#utility.yul\":2640:2647   */\n      dup5\n        /* \"#utility.yul\":2636:2659   */\n      sub\n        /* \"#utility.yul\":2632:2664   */\n      slt\n        /* \"#utility.yul\":2629:2748   */\n      iszero\n      tag_75\n      jumpi\n        /* \"#utility.yul\":2667:2746   */\n      tag_76\n      tag_28\n      jump\t// in\n    tag_76:\n        /* \"#utility.yul\":2629:2748   */\n    tag_75:\n        /* \"#utility.yul\":2787:2788   */\n      0x00\n        /* \"#utility.yul\":2812:2865   */\n      tag_77\n        /* \"#utility.yul\":2857:2864   */\n      dup5\n        /* \"#utility.yul\":2848:2854   */\n      dup3\n        /* \"#utility.yul\":2837:2846   */\n      dup6\n        /* \"#utility.yul\":2833:2855   */\n      add\n        /* \"#utility.yul\":2812:2865   */\n      tag_37\n      jump\t// in\n    tag_77:\n        /* \"#utility.yul\":2802:2865   */\n      swap2\n      pop\n        /* \"#utility.yul\":2758:2875   */\n      pop\n        /* \"#utility.yul\":2553:2882   */\n      swap3\n      swap2\n      pop\n      pop\n      jump\t// out\n        /* \"#utility.yul\":2888:2978   */\n    tag_38:\n        /* \"#utility.yul\":2922:2929   */\n      0x00\n        /* \"#utility.yul\":2965:2970   */\n      dup2\n        /* \"#utility.yul\":2958:2971   */\n      iszero\n        /* \"#utility.yul\":2951:2972   */\n      iszero\n        /* \"#utility.yul\":2940:2972   */\n      swap1\n      pop\n        /* \"#utility.yul\":2888:2978   */\n      swap2\n      swap1\n      pop\n      jump\t// out\n        /* \"#utility.yul\":2984:3093   */\n    tag_39:\n        /* \"#utility.yul\":3065:3086   */\n      tag_80\n        /* \"#utility.yul\":3080:3085   */\n      dup2\n        /* \"#utility.yul\":3065:3086   */\n      tag_38\n      jump\t// in\n    tag_80:\n        /* \"#utility.yul\":3060:3063   */\n      dup3\n        /* \"#utility.yul\":3053:3087   */\n      mstore\n        /* \"#utility.yul\":2984:3093   */\n      pop\n      pop\n      jump\t// out\n        /* \"#utility.yul\":3099:3640   */\n    tag_21:\n        /* \"#utility.yul\":3270:3274   */\n      0x00\n        /* \"#utility.yul\":3308:3311   */\n      0x80\n        /* \"#utility.yul\":3297:3306   */\n      dup3\n        /* \"#utility.yul\":3293:3312   */\n      add\n        /* \"#utility.yul\":3285:3312   */\n      swap1\n      pop\n        /* \"#utility.yul\":3322:3393   */\n      tag_82\n        /* \"#utility.yul\":3390:3391   */\n      0x00\n        /* \"#utility.yul\":3379:3388   */\n      dup4\n        /* \"#utility.yul\":3375:3392   */\n      add\n        /* \"#utility.yul\":3366:3372   */\n      dup8\n        /* \"#utility.yul\":3322:3393   */\n      tag_35\n      jump\t// in\n    tag_82:\n        /* \"#utility.yul\":3403:3469   */\n      tag_83\n        /* \"#utility.yul\":3465:3467   */\n      0x20\n        /* \"#utility.yul\":3454:3463   */\n      dup4\n        /* \"#utility.yul\":3450:3468   */\n      add\n        /* \"#utility.yul\":3441:3447   */\n      dup7\n        /* \"#utility.yul\":3403:3469   */\n      tag_39\n      jump\t// in\n    tag_83:\n        /* \"#utility.yul\":3479:3551   */\n      tag_84\n        /* \"#utility.yul\":3547:3549   */\n      0x40\n        /* \"#utility.yul\":3536:3545   */\n      dup4\n        /* \"#utility.yul\":3532:3550   */\n      add\n        /* \"#utility.yul\":3523:3529   */\n      dup6\n        /* \"#utility.yul\":3479:3551   */\n      tag_26\n      jump\t// in\n    tag_84:\n        /* \"#utility.yul\":3561:3633   */\n      tag_85\n        /* \"#utility.yul\":3629:3631   */\n      0x60\n        /* \"#utility.yul\":3618:3627   */\n      dup4\n        /* \"#utility.yul\":3614:3632   */\n      add\n        /* \"#utility.yul\":3605:3611   */\n      dup5\n        /* \"#utility.yul\":3561:3633   */\n      tag_35\n      jump\t// in\n    tag_85:\n        /* \"#utility.yul\":3099:3640   */\n      swap6\n      swap5\n      pop\n      pop\n      pop\n      pop\n      pop\n      jump\t// out\n\n    auxdata: 0xa264697066735822122081e26da4f6ab56e4dbde6f1f8737b79b06057ac9e8508f45a763e1121d29e49064736f6c634300080f0033\n}\n",
				"bytecode": {
					"linkReferences": {},
					"object": "608060405234801561001057600080fd5b50610381806100206000396000f3fe608060405234801561001057600080fd5b50600436106100415760003560e01c80632e4176cf1461004657806330326c1714610064578063a3ec138d14610095575b600080fd5b61004e6100c8565b60405161005b91906101be565b60405180910390f35b61007e60048036038101906100799190610214565b6100ec565b60405161008c929190610269565b60405180910390f35b6100af60048036038101906100aa91906102be565b610120565b6040516100bf9493929190610306565b60405180910390f35b60008054906101000a900473ffffffffffffffffffffffffffffffffffffffff1681565b600281815481106100fc57600080fd5b90600052602060002090600202016000915090508060000154908060010154905082565b60016020528060005260406000206000915090508060000154908060010160009054906101000a900460ff16908060010160019054906101000a900473ffffffffffffffffffffffffffffffffffffffff16908060020154905084565b600073ffffffffffffffffffffffffffffffffffffffff82169050919050565b60006101a88261017d565b9050919050565b6101b88161019d565b82525050565b60006020820190506101d360008301846101af565b92915050565b600080fd5b6000819050919050565b6101f1816101de565b81146101fc57600080fd5b50565b60008135905061020e816101e8565b92915050565b60006020828403121561022a576102296101d9565b5b6000610238848285016101ff565b91505092915050565b6000819050919050565b61025481610241565b82525050565b610263816101de565b82525050565b600060408201905061027e600083018561024b565b61028b602083018461025a565b9392505050565b61029b8161019d565b81146102a657600080fd5b50565b6000813590506102b881610292565b92915050565b6000602082840312156102d4576102d36101d9565b5b60006102e2848285016102a9565b91505092915050565b60008115159050919050565b610300816102eb565b82525050565b600060808201905061031b600083018761025a565b61032860208301866102f7565b61033560408301856101af565b610342606083018461025a565b9594505050505056fea264697066735822122081e26da4f6ab56e4dbde6f1f8737b79b06057ac9e8508f45a763e1121d29e49064736f6c634300080f0033",
					"opcodes": "PUSH1 0x80 PUSH1 0x40 MSTORE CALLVALUE DUP1 ISZERO PUSH2 0x10 JUMPI PUSH1 0x0 DUP1 REVERT JUMPDEST POP PUSH2 0x381 DUP1 PUSH2 0x20 PUSH1 0x0 CODECOPY PUSH1 0x0 RETURN INVALID PUSH1 0x80 PUSH1 0x40 MSTORE CALLVALUE DUP1 ISZERO PUSH2 0x10 JUMPI PUSH1 0x0 DUP1 REVERT JUMPDEST POP PUSH1 0x4 CALLDATASIZE LT PUSH2 0x41 JUMPI PUSH1 0x0 CALLDATALOAD PUSH1 0xE0 SHR DUP1 PUSH4 0x2E4176CF EQ PUSH2 0x46 JUMPI DUP1 PUSH4 0x30326C17 EQ PUSH2 0x64 JUMPI DUP1 PUSH4 0xA3EC138D EQ PUSH2 0x95 JUMPI JUMPDEST PUSH1 0x0 DUP1 REVERT JUMPDEST PUSH2 0x4E PUSH2 0xC8 JUMP JUMPDEST PUSH1 0x40 MLOAD PUSH2 0x5B SWAP2 SWAP1 PUSH2 0x1BE JUMP JUMPDEST PUSH1 0x40 MLOAD DUP1 SWAP2 SUB SWAP1 RETURN JUMPDEST PUSH2 0x7E PUSH1 0x4 DUP1 CALLDATASIZE SUB DUP2 ADD SWAP1 PUSH2 0x79 SWAP2 SWAP1 PUSH2 0x214 JUMP JUMPDEST PUSH2 0xEC JUMP JUMPDEST PUSH1 0x40 MLOAD PUSH2 0x8C SWAP3 SWAP2 SWAP1 PUSH2 0x269 JUMP JUMPDEST PUSH1 0x40 MLOAD DUP1 SWAP2 SUB SWAP1 RETURN JUMPDEST PUSH2 0xAF PUSH1 0x4 DUP1 CALLDATASIZE SUB DUP2 ADD SWAP1 PUSH2 0xAA SWAP2 SWAP1 PUSH2 0x2BE JUMP JUMPDEST PUSH2 0x120 JUMP JUMPDEST PUSH1 0x40 MLOAD PUSH2 0xBF SWAP5 SWAP4 SWAP3 SWAP2 SWAP1 PUSH2 0x306 JUMP JUMPDEST PUSH1 0x40 MLOAD DUP1 SWAP2 SUB SWAP1 RETURN JUMPDEST PUSH1 0x0 DUP1 SLOAD SWAP1 PUSH2 0x100 EXP SWAP1 DIV PUSH20 0xFFFFFFFFFFFFFFFFFFFFFFFFFFFFFFFFFFFFFFFF AND DUP2 JUMP JUMPDEST PUSH1 0x2 DUP2 DUP2 SLOAD DUP2 LT PUSH2 0xFC JUMPI PUSH1 0x0 DUP1 REVERT JUMPDEST SWAP1 PUSH1 0x0 MSTORE PUSH1 0x20 PUSH1 0x0 KECCAK256 SWAP1 PUSH1 0x2 MUL ADD PUSH1 0x0 SWAP2 POP SWAP1 POP DUP1 PUSH1 0x0 ADD SLOAD SWAP1 DUP1 PUSH1 0x1 ADD SLOAD SWAP1 POP DUP3 JUMP JUMPDEST PUSH1 0x1 PUSH1 0x20 MSTORE DUP1 PUSH1 0x0 MSTORE PUSH1 0x40 PUSH1 0x0 KECCAK256 PUSH1 0x0 SWAP2 POP SWAP1 POP DUP1 PUSH1 0x0 ADD SLOAD SWAP1 DUP1 PUSH1 0x1 ADD PUSH1 0x0 SWAP1 SLOAD SWAP1 PUSH2 0x100 EXP SWAP1 DIV PUSH1 0xFF AND SWAP1 DUP1 PUSH1 0x1 ADD PUSH1 0x1 SWAP1 SLOAD SWAP1 PUSH2 0x100 EXP SWAP1 DIV PUSH20 0xFFFFFFFFFFFFFFFFFFFFFFFFFFFFFFFFFFFFFFFF AND SWAP1 DUP1 PUSH1 0x2 ADD SLOAD SWAP1 POP DUP5 JUMP JUMPDEST PUSH1 0x0 PUSH20 0xFFFFFFFFFFFFFFFFFFFFFFFFFFFFFFFFFFFFFFFF DUP3 AND SWAP1 POP SWAP2 SWAP1 POP JUMP JUMPDEST PUSH1 0x0 PUSH2 0x1A8 DUP3 PUSH2 0x17D JUMP JUMPDEST SWAP1 POP SWAP2 SWAP1 POP JUMP JUMPDEST PUSH2 0x1B8 DUP2 PUSH2 0x19D JUMP JUMPDEST DUP3 MSTORE POP POP JUMP JUMPDEST PUSH1 0x0 PUSH1 0x20 DUP3 ADD SWAP1 POP PUSH2 0x1D3 PUSH1 0x0 DUP4 ADD DUP5 PUSH2 0x1AF JUMP JUMPDEST SWAP3 SWAP2 POP POP JUMP JUMPDEST PUSH1 0x0 DUP1 REVERT JUMPDEST PUSH1 0x0 DUP2 SWAP1 POP SWAP2 SWAP1 POP JUMP JUMPDEST PUSH2 0x1F1 DUP2 PUSH2 0x1DE JUMP JUMPDEST DUP2 EQ PUSH2 0x1FC JUMPI PUSH1 0x0 DUP1 REVERT JUMPDEST POP JUMP JUMPDEST PUSH1 0x0 DUP2 CALLDATALOAD SWAP1 POP PUSH2 0x20E DUP2 PUSH2 0x1E8 JUMP JUMPDEST SWAP3 SWAP2 POP POP JUMP JUMPDEST PUSH1 0x0 PUSH1 0x20 DUP3 DUP5 SUB SLT ISZERO PUSH2 0x22A JUMPI PUSH2 0x229 PUSH2 0x1D9 JUMP JUMPDEST JUMPDEST PUSH1 0x0 PUSH2 0x238 DUP5 DUP3 DUP6 ADD PUSH2 0x1FF JUMP JUMPDEST SWAP2 POP POP SWAP3 SWAP2 POP POP JUMP JUMPDEST PUSH1 0x0 DUP2 SWAP1 POP SWAP2 SWAP1 POP JUMP JUMPDEST PUSH2 0x254 DUP2 PUSH2 0x241 JUMP JUMPDEST DUP3 MSTORE POP POP JUMP JUMPDEST PUSH2 0x263 DUP2 PUSH2 0x1DE JUMP JUMPDEST DUP3 MSTORE POP POP JUMP JUMPDEST PUSH1 0x0 PUSH1 0x40 DUP3 ADD SWAP1 POP PUSH2 0x27E PUSH1 0x0 DUP4 ADD DUP6 PUSH2 0x24B JUMP JUMPDEST PUSH2 0x28B PUSH1 0x20 DUP4 ADD DUP5 PUSH2 0x25A JUMP JUMPDEST SWAP4 SWAP3 POP POP POP JUMP JUMPDEST PUSH2 0x29B DUP2 PUSH2 0x19D JUMP JUMPDEST DUP2 EQ PUSH2 0x2A6 JUMPI PUSH1 0x0 DUP1 REVERT JUMPDEST POP JUMP JUMPDEST PUSH1 0x0 DUP2 CALLDATALOAD SWAP1 POP PUSH2 0x2B8 DUP2 PUSH2 0x292 JUMP JUMPDEST SWAP3 SWAP2 POP POP JUMP JUMPDEST PUSH1 0x0 PUSH1 0x20 DUP3 DUP5 SUB SLT ISZERO PUSH2 0x2D4 JUMPI PUSH2 0x2D3 PUSH2 0x1D9 JUMP JUMPDEST JUMPDEST PUSH1 0x0 PUSH2 0x2E2 DUP5 DUP3 DUP6 ADD PUSH2 0x2A9 JUMP JUMPDEST SWAP2 POP POP SWAP3 SWAP2 POP POP JUMP JUMPDEST PUSH1 0x0 DUP2 ISZERO ISZERO SWAP1 POP SWAP2 SWAP1 POP JUMP JUMPDEST PUSH2 0x300 DUP2 PUSH2 0x2EB JUMP JUMPDEST DUP3 MSTORE POP POP JUMP JUMPDEST PUSH1 0x0 PUSH1 0x80 DUP3 ADD SWAP1 POP PUSH2 0x31B PUSH1 0x0 DUP4 ADD DUP8 PUSH2 0x25A JUMP JUMPDEST PUSH2 0x328 PUSH1 0x20 DUP4 ADD DUP7 PUSH2 0x2F7 JUMP JUMPDEST PUSH2 0x335 PUSH1 0x40 DUP4 ADD DUP6 PUSH2 0x1AF JUMP JUMPDEST PUSH2 0x342 PUSH1 0x60 DUP4 ADD DUP5 PUSH2 0x25A JUMP JUMPDEST SWAP6 SWAP5 POP POP POP POP POP JUMP INVALID LOG2 PUSH5 0x6970667358 0x22 SLT KECCAK256 DUP2 0xE2 PUSH14 0xA4F6AB56E4DBDE6F1F8737B79B06 SDIV PUSH27 0xC9E8508F45A763E1121D29E49064736F6C634300080F0033000000 "
				},
				"gasEstimates": {
					"creation": {
						"codeDepositCost": "179400",
						"executionCost": "226",
						"totalCost": "179626"
					},
					"external": {
						"chairperson()": "2489",
						"proposal(uint256)": "infinite",
						"voters(address)": "infinite"
					}
				},
				"methodIdentifiers": {
					"chairperson()": "2e4176cf",
					"proposal(uint256)": "30326c17",
					"voters(address)": "a3ec138d"
				}
			},
			"storageLayout": {
				"storage": [
					{
						"astId": 17,
						"contract": "contracts/Ballot.sol:Ballot",
						"label": "chairperson",
						"offset": 0,
						"slot": "0",
						"type": "t_address"
					},
					{
						"astId": 22,
						"contract": "contracts/Ballot.sol:Ballot",
						"label": "voters",
						"offset": 0,
						"slot": "1",
						"type": "t_mapping(t_address,t_struct(Voter)10_storage)"
					},
					{
						"astId": 26,
						"contract": "contracts/Ballot.sol:Ballot",
						"label": "proposal",
						"offset": 0,
						"slot": "2",
						"type": "t_array(t_struct(Proposal)15_storage)dyn_storage"
					}
				],
				"types": {
					"t_address": {
						"encoding": "inplace",
						"label": "address",
						"numberOfBytes": "20"
					},
					"t_array(t_struct(Proposal)15_storage)dyn_storage": {
						"base": "t_struct(Proposal)15_storage",
						"encoding": "dynamic_array",
						"label": "struct Ballot.Proposal[]",
						"numberOfBytes": "32"
					},
					"t_bool": {
						"encoding": "inplace",
						"label": "bool",
						"numberOfBytes": "1"
					},
					"t_bytes32": {
						"encoding": "inplace",
						"label": "bytes32",
						"numberOfBytes": "32"
					},
					"t_mapping(t_address,t_struct(Voter)10_storage)": {
						"encoding": "mapping",
						"key": "t_address",
						"label": "mapping(address => struct Ballot.Voter)",
						"numberOfBytes": "32",
						"value": "t_struct(Voter)10_storage"
					},
					"t_struct(Proposal)15_storage": {
						"encoding": "inplace",
						"label": "struct Ballot.Proposal",
						"members": [
							{
								"astId": 12,
								"contract": "contracts/Ballot.sol:Ballot",
								"label": "name",
								"offset": 0,
								"slot": "0",
								"type": "t_bytes32"
							},
							{
								"astId": 14,
								"contract": "contracts/Ballot.sol:Ballot",
								"label": "voteCount",
								"offset": 0,
								"slot": "1",
								"type": "t_uint256"
							}
						],
						"numberOfBytes": "64"
					},
					"t_struct(Voter)10_storage": {
						"encoding": "inplace",
						"label": "struct Ballot.Voter",
						"members": [
							{
								"astId": 3,
								"contract": "contracts/Ballot.sol:Ballot",
								"label": "weight",
								"offset": 0,
								"slot": "0",
								"type": "t_uint256"
							},
							{
								"astId": 5,
								"contract": "contracts/Ballot.sol:Ballot",
								"label": "voted",
								"offset": 0,
								"slot": "1",
								"type": "t_bool"
							},
							{
								"astId": 7,
								"contract": "contracts/Ballot.sol:Ballot",
								"label": "delegate",
								"offset": 1,
								"slot": "1",
								"type": "t_address"
							},
							{
								"astId": 9,
								"contract": "contracts/Ballot.sol:Ballot",
								"label": "vote",
								"offset": 0,
								"slot": "2",
								"type": "t_uint256"
							}
						],
						"numberOfBytes": "96"
					},
					"t_uint256": {
						"encoding": "inplace",
						"label": "uint256",
						"numberOfBytes": "32"
					}
				}
			},
			"userdoc": {
				"kind": "user",
				"methods": {},
				"version": 1
			}
		}
	}
}